{
  "contractName": "AssetShell",
  "abi": [
    {
      "inputs": [],
      "name": "AssetNonExistsInAssetShell",
      "type": "error"
    },
    {
      "inputs": [
        {
          "internalType": "bytes4",
          "name": "interfaceId",
          "type": "bytes4"
        }
      ],
      "name": "CheckInterfaceNoMatch",
      "type": "error"
    },
    {
      "inputs": [],
      "name": "InsufficientBalance",
      "type": "error"
    },
    {
      "inputs": [],
      "name": "LockTokenIDValueEmptyInAssetShell",
      "type": "error"
    },
    {
      "inputs": [],
      "name": "MINTERC1155QuantityExceedsLimit",
      "type": "error"
    },
    {
      "inputs": [],
      "name": "MethodNotImplemented",
      "type": "error"
    },
    {
      "inputs": [],
      "name": "NeedToUnlockAssetFirst",
      "type": "error"
    },
    {
      "inputs": [],
      "name": "NeedToUnlockAssetFirstForPreviousOwner",
      "type": "error"
    },
    {
      "inputs": [],
      "name": "NonContractAddress",
      "type": "error"
    },
    {
      "inputs": [],
      "name": "PayableInsufficientAmount",
      "type": "error"
    },
    {
      "inputs": [],
      "name": "PermissionDenied",
      "type": "error"
    },
    {
      "inputs": [],
      "name": "PermissionDeniedForOnlyDAO",
      "type": "error"
    },
    {
      "inputs": [],
      "name": "PermissionDeniedForOnlyUnlockOperator",
      "type": "error"
    },
    {
      "inputs": [],
      "name": "SendValueFail",
      "type": "error"
    },
    {
      "anonymous": false,
      "inputs": [
        {
          "indexed": true,
          "internalType": "address",
          "name": "account",
          "type": "address"
        },
        {
          "indexed": true,
          "internalType": "address",
          "name": "operator",
          "type": "address"
        },
        {
          "indexed": false,
          "internalType": "bool",
          "name": "approved",
          "type": "bool"
        }
      ],
      "name": "ApprovalForAll",
      "type": "event"
    },
    {
      "anonymous": false,
      "inputs": [
        {
          "indexed": true,
          "internalType": "uint256",
          "name": "tag",
          "type": "uint256"
        },
        {
          "indexed": false,
          "internalType": "uint256",
          "name": "value",
          "type": "uint256"
        }
      ],
      "name": "Change",
      "type": "event"
    },
    {
      "anonymous": false,
      "inputs": [
        {
          "indexed": false,
          "internalType": "uint8",
          "name": "version",
          "type": "uint8"
        }
      ],
      "name": "Initialized",
      "type": "event"
    },
    {
      "anonymous": false,
      "inputs": [
        {
          "indexed": true,
          "internalType": "address",
          "name": "sender",
          "type": "address"
        },
        {
          "indexed": false,
          "internalType": "uint256",
          "name": "amount",
          "type": "uint256"
        }
      ],
      "name": "Receive",
      "type": "event"
    },
    {
      "anonymous": false,
      "inputs": [
        {
          "indexed": true,
          "internalType": "address",
          "name": "operator",
          "type": "address"
        },
        {
          "indexed": true,
          "internalType": "address",
          "name": "from",
          "type": "address"
        },
        {
          "indexed": true,
          "internalType": "address",
          "name": "to",
          "type": "address"
        },
        {
          "indexed": false,
          "internalType": "uint256[]",
          "name": "ids",
          "type": "uint256[]"
        },
        {
          "indexed": false,
          "internalType": "uint256[]",
          "name": "values",
          "type": "uint256[]"
        }
      ],
      "name": "TransferBatch",
      "type": "event"
    },
    {
      "anonymous": false,
      "inputs": [
        {
          "indexed": true,
          "internalType": "address",
          "name": "operator",
          "type": "address"
        },
        {
          "indexed": true,
          "internalType": "address",
          "name": "from",
          "type": "address"
        },
        {
          "indexed": true,
          "internalType": "address",
          "name": "to",
          "type": "address"
        },
        {
          "indexed": false,
          "internalType": "uint256",
          "name": "id",
          "type": "uint256"
        },
        {
          "indexed": false,
          "internalType": "uint256",
          "name": "value",
          "type": "uint256"
        }
      ],
      "name": "TransferSingle",
      "type": "event"
    },
    {
      "anonymous": false,
      "inputs": [
        {
          "indexed": false,
          "internalType": "string",
          "name": "value",
          "type": "string"
        },
        {
          "indexed": true,
          "internalType": "uint256",
          "name": "id",
          "type": "uint256"
        }
      ],
      "name": "URI",
      "type": "event"
    },
    {
      "anonymous": false,
      "inputs": [
        {
          "indexed": true,
          "internalType": "uint256",
          "name": "tokenId",
          "type": "uint256"
        },
        {
          "indexed": true,
          "internalType": "address",
          "name": "source",
          "type": "address"
        },
        {
          "indexed": true,
          "internalType": "address",
          "name": "erc20",
          "type": "address"
        },
        {
          "indexed": false,
          "internalType": "address",
          "name": "from",
          "type": "address"
        },
        {
          "indexed": false,
          "internalType": "address",
          "name": "to",
          "type": "address"
        },
        {
          "indexed": false,
          "internalType": "uint256",
          "name": "amount",
          "type": "uint256"
        },
        {
          "indexed": false,
          "internalType": "uint256",
          "name": "eth",
          "type": "uint256"
        },
        {
          "indexed": false,
          "internalType": "uint256",
          "name": "count",
          "type": "uint256"
        }
      ],
      "name": "Unlock",
      "type": "event"
    },
    {
      "inputs": [
        {
          "internalType": "address",
          "name": "account",
          "type": "address"
        },
        {
          "internalType": "uint256",
          "name": "id",
          "type": "uint256"
        }
      ],
      "name": "balanceOf",
      "outputs": [
        {
          "internalType": "uint256",
          "name": "",
          "type": "uint256"
        }
      ],
      "stateMutability": "view",
      "type": "function",
      "constant": true
    },
    {
      "inputs": [
        {
          "internalType": "address[]",
          "name": "accounts",
          "type": "address[]"
        },
        {
          "internalType": "uint256[]",
          "name": "ids",
          "type": "uint256[]"
        }
      ],
      "name": "balanceOfBatch",
      "outputs": [
        {
          "internalType": "uint256[]",
          "name": "",
          "type": "uint256[]"
        }
      ],
      "stateMutability": "view",
      "type": "function",
      "constant": true
    },
    {
      "inputs": [],
      "name": "baseURI",
      "outputs": [
        {
          "internalType": "string",
          "name": "",
          "type": "string"
        }
      ],
      "stateMutability": "view",
      "type": "function",
      "constant": true
    },
    {
      "inputs": [],
      "name": "base_contract_uri",
      "outputs": [
        {
          "internalType": "string",
          "name": "",
          "type": "string"
        }
      ],
      "stateMutability": "view",
      "type": "function",
      "constant": true
    },
    {
      "inputs": [
        {
          "internalType": "bytes4",
          "name": "interfaceId",
          "type": "bytes4"
        }
      ],
      "name": "checkInterface",
      "outputs": [],
      "stateMutability": "view",
      "type": "function",
      "constant": true
    },
    {
      "inputs": [],
      "name": "contractURI",
      "outputs": [
        {
          "internalType": "string",
          "name": "uri",
          "type": "string"
        }
      ],
      "stateMutability": "view",
      "type": "function",
      "constant": true
    },
    {
      "inputs": [],
      "name": "description",
      "outputs": [
        {
          "internalType": "string",
          "name": "",
          "type": "string"
        }
      ],
      "stateMutability": "view",
      "type": "function",
      "constant": true
    },
    {
      "inputs": [
        {
          "internalType": "uint256",
          "name": "id",
          "type": "uint256"
        }
      ],
      "name": "exists",
      "outputs": [
        {
          "internalType": "bool",
          "name": "",
          "type": "bool"
        }
      ],
      "stateMutability": "view",
      "type": "function",
      "constant": true
    },
    {
      "inputs": [],
      "name": "external_link",
      "outputs": [
        {
          "internalType": "string",
          "name": "",
          "type": "string"
        }
      ],
      "stateMutability": "view",
      "type": "function",
      "constant": true
    },
    {
      "inputs": [],
      "name": "fee_recipient",
      "outputs": [
        {
          "internalType": "address",
          "name": "",
          "type": "address"
        }
      ],
      "stateMutability": "view",
      "type": "function",
      "constant": true
    },
    {
      "inputs": [],
      "name": "host",
      "outputs": [
        {
          "internalType": "contract IDAO",
          "name": "",
          "type": "address"
        }
      ],
      "stateMutability": "view",
      "type": "function",
      "constant": true
    },
    {
      "inputs": [],
      "name": "image",
      "outputs": [
        {
          "internalType": "string",
          "name": "",
          "type": "string"
        }
      ],
      "stateMutability": "view",
      "type": "function",
      "constant": true
    },
    {
      "inputs": [],
      "name": "impl",
      "outputs": [
        {
          "internalType": "address",
          "name": "",
          "type": "address"
        }
      ],
      "stateMutability": "view",
      "type": "function",
      "constant": true
    },
    {
      "inputs": [
        {
          "internalType": "address",
          "name": "account",
          "type": "address"
        },
        {
          "internalType": "address",
          "name": "operator",
          "type": "address"
        }
      ],
      "name": "isApprovedForAll",
      "outputs": [
        {
          "internalType": "bool",
          "name": "",
          "type": "bool"
        }
      ],
      "stateMutability": "view",
      "type": "function",
      "constant": true
    },
    {
      "inputs": [],
      "name": "isEnableLock",
      "outputs": [
        {
          "internalType": "bool",
          "name": "",
          "type": "bool"
        }
      ],
      "stateMutability": "view",
      "type": "function",
      "constant": true
    },
    {
      "inputs": [],
      "name": "name",
      "outputs": [
        {
          "internalType": "string",
          "name": "",
          "type": "string"
        }
      ],
      "stateMutability": "view",
      "type": "function",
      "constant": true
    },
    {
      "inputs": [],
      "name": "operator",
      "outputs": [
        {
          "internalType": "address",
          "name": "",
          "type": "address"
        }
      ],
      "stateMutability": "view",
      "type": "function",
      "constant": true
    },
    {
      "inputs": [
        {
          "internalType": "address",
          "name": "from",
          "type": "address"
        },
        {
          "internalType": "address",
          "name": "to",
          "type": "address"
        },
        {
          "internalType": "uint256[]",
          "name": "ids",
          "type": "uint256[]"
        },
        {
          "internalType": "uint256[]",
          "name": "amounts",
          "type": "uint256[]"
        },
        {
          "internalType": "bytes",
          "name": "data",
          "type": "bytes"
        }
      ],
      "name": "safeBatchTransferFrom",
      "outputs": [],
      "stateMutability": "nonpayable",
      "type": "function"
    },
    {
      "inputs": [
        {
          "internalType": "address",
          "name": "from",
          "type": "address"
        },
        {
          "internalType": "address",
          "name": "to",
          "type": "address"
        },
        {
          "internalType": "uint256",
          "name": "id",
          "type": "uint256"
        },
        {
          "internalType": "uint256",
          "name": "amount",
          "type": "uint256"
        },
        {
          "internalType": "bytes",
          "name": "data",
          "type": "bytes"
        }
      ],
      "name": "safeTransferFrom",
      "outputs": [],
      "stateMutability": "nonpayable",
      "type": "function"
    },
    {
      "inputs": [],
      "name": "saleType",
      "outputs": [
        {
          "internalType": "enum IAssetShell.SaleType",
          "name": "",
          "type": "uint8"
        }
      ],
      "stateMutability": "view",
      "type": "function",
      "constant": true
    },
    {
      "inputs": [],
      "name": "seller_fee_basis_points",
      "outputs": [
        {
          "internalType": "uint32",
          "name": "",
          "type": "uint32"
        }
      ],
      "stateMutability": "view",
      "type": "function",
      "constant": true
    },
    {
      "inputs": [
        {
          "internalType": "address",
          "name": "operator",
          "type": "address"
        },
        {
          "internalType": "bool",
          "name": "approved",
          "type": "bool"
        }
      ],
      "name": "setApprovalForAll",
      "outputs": [],
      "stateMutability": "nonpayable",
      "type": "function"
    },
    {
      "inputs": [
        {
          "internalType": "string",
          "name": "value",
          "type": "string"
        }
      ],
      "name": "setDescription",
      "outputs": [],
      "stateMutability": "nonpayable",
      "type": "function"
    },
    {
      "inputs": [
        {
          "internalType": "address",
          "name": "operator_",
          "type": "address"
        }
      ],
      "name": "setOperator",
      "outputs": [],
      "stateMutability": "nonpayable",
      "type": "function"
    },
    {
      "inputs": [
        {
          "internalType": "address",
          "name": "recipient",
          "type": "address"
        }
      ],
      "name": "set_fee_recipient",
      "outputs": [],
      "stateMutability": "nonpayable",
      "type": "function"
    },
    {
      "inputs": [
        {
          "internalType": "uint32",
          "name": "value",
          "type": "uint32"
        }
      ],
      "name": "set_seller_fee_basis_points",
      "outputs": [],
      "stateMutability": "nonpayable",
      "type": "function"
    },
    {
      "inputs": [
        {
          "internalType": "uint256",
          "name": "id",
          "type": "uint256"
        }
      ],
      "name": "totalSupply",
      "outputs": [
        {
          "internalType": "uint256",
          "name": "",
          "type": "uint256"
        }
      ],
      "stateMutability": "view",
      "type": "function",
      "constant": true
    },
    {
      "inputs": [
        {
          "internalType": "address",
          "name": "impl_",
          "type": "address"
        }
      ],
      "name": "upgrade",
      "outputs": [],
      "stateMutability": "nonpayable",
      "type": "function"
    },
    {
      "stateMutability": "payable",
      "type": "receive",
      "payable": true
    },
    {
      "inputs": [
        {
          "internalType": "bytes4",
          "name": "interfaceId",
          "type": "bytes4"
        }
      ],
      "name": "supportsInterface",
      "outputs": [
        {
          "internalType": "bool",
          "name": "",
          "type": "bool"
        }
      ],
      "stateMutability": "view",
      "type": "function",
      "constant": true
    },
    {
      "inputs": [
        {
          "internalType": "address",
          "name": "host",
          "type": "address"
        },
        {
          "internalType": "address",
          "name": "operator",
          "type": "address"
        },
        {
          "internalType": "enum IAssetShell.SaleType",
          "name": "saleType_",
          "type": "uint8"
        },
        {
          "components": [
            {
              "internalType": "string",
              "name": "name",
              "type": "string"
            },
            {
              "internalType": "string",
              "name": "description",
              "type": "string"
            },
            {
              "internalType": "string",
              "name": "image",
              "type": "string"
            },
            {
              "internalType": "string",
              "name": "external_link",
              "type": "string"
            },
            {
              "internalType": "uint32",
              "name": "seller_fee_basis_points",
              "type": "uint32"
            },
            {
              "internalType": "address",
              "name": "fee_recipient",
              "type": "address"
            },
            {
              "internalType": "string",
              "name": "base_contract_uri",
              "type": "string"
            },
            {
              "internalType": "string",
              "name": "base_uri",
              "type": "string"
            }
          ],
          "internalType": "struct AssetModule.InitContractURI",
          "name": "uri",
          "type": "tuple"
        },
        {
          "internalType": "bool",
          "name": "_isEnableLock",
          "type": "bool"
        }
      ],
      "name": "initAssetShell",
      "outputs": [],
      "stateMutability": "nonpayable",
      "type": "function"
    },
    {
      "inputs": [
        {
          "internalType": "address",
          "name": "operator",
          "type": "address"
        },
        {
          "internalType": "address",
          "name": "from",
          "type": "address"
        },
        {
          "internalType": "uint256",
          "name": "tokenId",
          "type": "uint256"
        },
        {
          "internalType": "uint256",
          "name": "value",
          "type": "uint256"
        },
        {
          "internalType": "bytes",
          "name": "data",
          "type": "bytes"
        }
      ],
      "name": "onERC1155Received",
      "outputs": [
        {
          "internalType": "bytes4",
          "name": "",
          "type": "bytes4"
        }
      ],
      "stateMutability": "nonpayable",
      "type": "function"
    },
    {
      "inputs": [
        {
          "internalType": "address",
          "name": "",
          "type": "address"
        },
        {
          "internalType": "address",
          "name": "",
          "type": "address"
        },
        {
          "internalType": "uint256[]",
          "name": "",
          "type": "uint256[]"
        },
        {
          "internalType": "uint256[]",
          "name": "",
          "type": "uint256[]"
        },
        {
          "internalType": "bytes",
          "name": "",
          "type": "bytes"
        }
      ],
      "name": "onERC1155BatchReceived",
      "outputs": [
        {
          "internalType": "bytes4",
          "name": "",
          "type": "bytes4"
        }
      ],
      "stateMutability": "nonpayable",
      "type": "function"
    },
    {
      "inputs": [
        {
          "internalType": "bool",
          "name": "enable",
          "type": "bool"
        }
      ],
      "name": "enableLock",
      "outputs": [],
      "stateMutability": "nonpayable",
      "type": "function"
    },
    {
      "inputs": [
        {
          "internalType": "address",
          "name": "metaToken",
          "type": "address"
        },
        {
          "internalType": "uint256",
          "name": "metaTokenId",
          "type": "uint256"
        }
      ],
      "name": "convertTokenID",
      "outputs": [
        {
          "internalType": "uint256",
          "name": "",
          "type": "uint256"
        }
      ],
      "stateMutability": "pure",
      "type": "function",
      "constant": true
    },
    {
      "inputs": [
        {
          "internalType": "uint256",
          "name": "tokenId",
          "type": "uint256"
        }
      ],
      "name": "uri",
      "outputs": [
        {
          "internalType": "string",
          "name": "",
          "type": "string"
        }
      ],
      "stateMutability": "view",
      "type": "function",
      "constant": true
    },
    {
      "inputs": [
        {
          "internalType": "uint256",
          "name": "tokenId",
          "type": "uint256"
        }
      ],
      "name": "assetMeta",
      "outputs": [
        {
          "components": [
            {
              "internalType": "address",
              "name": "token",
              "type": "address"
            },
            {
              "internalType": "uint256",
              "name": "tokenId",
              "type": "uint256"
            }
          ],
          "internalType": "struct IAssetShell.AssetID",
          "name": "meta",
          "type": "tuple"
        }
      ],
      "stateMutability": "view",
      "type": "function",
      "constant": true
    },
    {
      "inputs": [
        {
          "internalType": "uint256",
          "name": "tokenId",
          "type": "uint256"
        },
        {
          "internalType": "address",
          "name": "owner",
          "type": "address"
        },
        {
          "internalType": "uint256",
          "name": "count",
          "type": "uint256"
        }
      ],
      "name": "withdraw",
      "outputs": [],
      "stateMutability": "nonpayable",
      "type": "function"
    },
    {
      "inputs": [
        {
          "internalType": "uint256",
          "name": "tokenId",
          "type": "uint256"
        },
        {
          "internalType": "address",
          "name": "owner",
          "type": "address"
        }
      ],
      "name": "lockedItems",
      "outputs": [
        {
          "internalType": "uint256",
          "name": "items",
          "type": "uint256"
        },
        {
          "internalType": "uint64",
          "name": "total",
          "type": "uint64"
        }
      ],
      "stateMutability": "view",
      "type": "function",
      "constant": true
    },
    {
      "inputs": [
        {
          "internalType": "uint256",
          "name": "tokenId",
          "type": "uint256"
        },
        {
          "internalType": "address",
          "name": "owner",
          "type": "address"
        },
        {
          "internalType": "uint256",
          "name": "index",
          "type": "uint256"
        }
      ],
      "name": "lockedAt",
      "outputs": [
        {
          "internalType": "address",
          "name": "previous",
          "type": "address"
        },
        {
          "components": [
            {
              "internalType": "uint64",
              "name": "count",
              "type": "uint64"
            },
            {
              "internalType": "uint64",
              "name": "blockNumber",
              "type": "uint64"
            },
            {
              "internalType": "uint64",
              "name": "index",
              "type": "uint64"
            }
          ],
          "internalType": "struct AssetShell.LockedItem",
          "name": "item",
          "type": "tuple"
        }
      ],
      "stateMutability": "view",
      "type": "function",
      "constant": true
    },
    {
      "inputs": [
        {
          "internalType": "uint256",
          "name": "tokenId",
          "type": "uint256"
        },
        {
          "internalType": "address",
          "name": "owner",
          "type": "address"
        },
        {
          "internalType": "address",
          "name": "previous",
          "type": "address"
        }
      ],
      "name": "lockedOf",
      "outputs": [
        {
          "components": [
            {
              "internalType": "uint64",
              "name": "count",
              "type": "uint64"
            },
            {
              "internalType": "uint64",
              "name": "blockNumber",
              "type": "uint64"
            },
            {
              "internalType": "uint64",
              "name": "index",
              "type": "uint64"
            }
          ],
          "internalType": "struct AssetShell.LockedItem",
          "name": "item",
          "type": "tuple"
        }
      ],
      "stateMutability": "view",
      "type": "function",
      "constant": true
    },
    {
      "inputs": [
        {
          "internalType": "uint256",
          "name": "tokenId",
          "type": "uint256"
        }
      ],
      "name": "minimumPrice",
      "outputs": [
        {
          "internalType": "uint256",
          "name": "",
          "type": "uint256"
        }
      ],
      "stateMutability": "view",
      "type": "function",
      "constant": true
    },
    {
      "inputs": [
        {
          "components": [
            {
              "internalType": "uint256",
              "name": "tokenId",
              "type": "uint256"
            },
            {
              "internalType": "address",
              "name": "from",
              "type": "address"
            },
            {
              "internalType": "address",
              "name": "to",
              "type": "address"
            },
            {
              "internalType": "address",
              "name": "source",
              "type": "address"
            },
            {
              "internalType": "address",
              "name": "erc20",
              "type": "address"
            },
            {
              "internalType": "uint256",
              "name": "amount",
              "type": "uint256"
            },
            {
              "internalType": "uint256",
              "name": "eth",
              "type": "uint256"
            }
          ],
          "internalType": "struct AssetShell.UnlockForOperator[]",
          "name": "data",
          "type": "tuple[]"
        },
        {
          "internalType": "bytes32",
          "name": "r",
          "type": "bytes32"
        },
        {
          "internalType": "bytes32",
          "name": "s",
          "type": "bytes32"
        },
        {
          "internalType": "uint8",
          "name": "v",
          "type": "uint8"
        }
      ],
      "name": "unlockForOperator",
      "outputs": [],
      "stateMutability": "nonpayable",
      "type": "function"
    },
    {
      "inputs": [
        {
          "components": [
            {
              "internalType": "uint256",
              "name": "tokenId",
              "type": "uint256"
            },
            {
              "internalType": "address",
              "name": "from",
              "type": "address"
            },
            {
              "internalType": "address",
              "name": "to",
              "type": "address"
            }
          ],
          "internalType": "struct AssetShell.LockedID",
          "name": "lock",
          "type": "tuple"
        }
      ],
      "name": "unlock",
      "outputs": [],
      "stateMutability": "payable",
      "type": "function",
      "payable": true
    },
    {
      "inputs": [
        {
          "internalType": "contract IERC20",
          "name": "erc20",
          "type": "address"
        }
      ],
      "name": "withdrawBalance",
      "outputs": [],
      "stateMutability": "nonpayable",
      "type": "function"
    }
  ],
  "bytecode": "0x608060405234801561001057600080fd5b50614c90806100206000396000f3fe60806040526004361061026a5760003560e01c80637972bdf311610144578063bd85b039116100b6578063e985e9c51161007a578063e985e9c5146108f5578063f23a6e611461093e578063f242432a1461095e578063f3ccaac01461097e578063f437bc5914610993578063f9b62b7a146109b157600080fd5b8063bd85b03914610854578063dd979e5b14610881578063e170a684146108a0578063e63697c8146108c0578063e8a3d485146108e057600080fd5b806391eb3dee1161010857806391eb3dee14610717578063939cabda14610737578063a22cb465146107ad578063afa2e662146107cd578063b3ab15fb146107fb578063bc197c811461081b57600080fd5b80637972bdf31461068457806387c1ef90146106995780638abf6077146106b957806390c3f38f146106d757806391d81889146106f757600080fd5b80634c6e425b116101dd57806362f8a855116101a157806362f8a855146105b15780636c0360eb146105e157806371fcf468146105f65780637284e4161461062f578063756af45f14610644578063758f969a1461066457600080fd5b80634c6e425b146104dc5780634e1273f4146104fc5780634f558e7914610529578063570ca735146105585780635bcc79281461058a57600080fd5b80630e89341c1161022f5780630e89341c146103a757806312dba785146103c75780632eb2c2d6146103dc57806330cc317b146103fc57806335c2c7bd1461041c578063432d72af1461042f57600080fd5b8062fdd58e146102e257806301ffc9a71461031557806306fdde031461034557806308e57300146103675780630900f0101461038757600080fd5b366102dd57601b54610100900460ff16156102a657601854601954601a546102a492916001600160a01b03908116911633600034806109f5565b005b60405134815233907fd6717f327e0cb88b4a97a7f67a453e9258252c34937ccbdd86de7cb840e7def39060200160405180910390a2005b600080fd5b3480156102ee57600080fd5b506103026102fd36600461395b565b610d95565b6040519081526020015b60405180910390f35b34801561032157600080fd5b5061033561033036600461399d565b610e30565b604051901515815260200161030c565b34801561035157600080fd5b5061035a610e63565b60405161030c9190613a0a565b34801561037357600080fd5b506102a4610382366004613a1d565b610ef5565b34801561039357600080fd5b506102a46103a2366004613abc565b611118565b3480156103b357600080fd5b5061035a6103c2366004613ad9565b611183565b3480156103d357600080fd5b5061035a61120e565b3480156103e857600080fd5b506102a46103f7366004613c55565b61129c565b34801561040857600080fd5b506102a4610417366004613abc565b6112b5565b6102a461042a366004613d02565b611319565b34801561043b57600080fd5b506104cf61044a366004613d6a565b604080516060808201835260008083526020808401829052928401819052958652601782528286206001600160a01b0395861687526003018252828620939094168552600190920182529283902083519283018452546001600160401b038082168452600160401b8204811692840192909252600160801b9004169181019190915290565b60405161030c9190613dac565b3480156104e857600080fd5b506102a46104f736600461399d565b611338565b34801561050857600080fd5b5061051c610517366004613ddc565b61136a565b60405161030c9190613ea8565b34801561053557600080fd5b50610335610544366004613ad9565b600090815260166020526040902054151590565b34801561056457600080fd5b506003546001600160a01b03165b6040516001600160a01b03909116815260200161030c565b34801561059657600080fd5b50601b546105a49060ff1681565b60405161030c9190613f02565b3480156105bd57600080fd5b506103026105cc366004613ad9565b60009081526017602052604090206002015490565b3480156105ed57600080fd5b5061035a611493565b34801561060257600080fd5b5060105461061a90600160a01b900463ffffffff1681565b60405163ffffffff909116815260200161030c565b34801561063b57600080fd5b5061035a6114a0565b34801561065057600080fd5b506102a461065f366004613abc565b6114af565b34801561067057600080fd5b50601054610572906001600160a01b031681565b34801561069057600080fd5b5061035a611691565b3480156106a557600080fd5b506102a46106b4366004613f38565b61169e565b3480156106c557600080fd5b506000546001600160a01b0316610572565b3480156106e357600080fd5b506102a46106f2366004613f55565b6117d4565b34801561070357600080fd5b5061030261071236600461395b565b611925565b34801561072357600080fd5b506102a4610732366004613fa5565b61196d565b34801561074357600080fd5b50610790610752366004613fcb565b60009182526017602090815260408084206001600160a01b0390931684526003909201905290206002810154905490916001600160401b0390911690565b604080519283526001600160401b0390911660208301520161030c565b3480156107b957600080fd5b506102a46107c8366004613ffb565b611ac8565b3480156107d957600080fd5b506107ed6107e8366004614029565b611ad3565b60405161030c929190614061565b34801561080757600080fd5b506102a4610816366004613abc565b611b90565b34801561082757600080fd5b5061083b61083636600461412c565b611bf4565b6040516001600160e01b0319909116815260200161030c565b34801561086057600080fd5b5061030261086f366004613ad9565b60009081526016602052604090205490565b34801561088d57600080fd5b50601b5461033590610100900460ff1681565b3480156108ac57600080fd5b506102a46108bb3660046141ea565b611c0f565b3480156108cc57600080fd5b506102a46108db366004614029565b611c6d565b3480156108ec57600080fd5b5061035a611ddc565b34801561090157600080fd5b5061033561091036600461426f565b6001600160a01b03918216600090815260136020908152604080832093909416825291909152205460ff1690565b34801561094a57600080fd5b5061083b61095936600461429d565b611fdf565b34801561096a57600080fd5b506102a4610979366004614318565b6120c2565b34801561098a57600080fd5b5061035a61214e565b34801561099f57600080fd5b506002546001600160a01b0316610572565b3480156109bd57600080fd5b506109d16109cc366004613ad9565b61215b565b6040805182516001600160a01b03168152602092830151928101929092520161030c565b60008781526017602090815260408083206001600160a01b03808a168552600382018452828520908b168552600181019093529083208054919390916001600160401b031690819003610a5b57604051632170716560e11b815260040160405180910390fd5b601054600090600160a01b900463ffffffff16610a7a87612710614396565b610a8491906143ad565b9050818560020154610a969190614396565b811015610ab657604051630b7b66df60e31b815260040160405180910390fd5b604080516001600160a01b038d811682528c811660208301529181018990526060810188905260808101849052818a16918b16908e907f4e32adcda0f0961878814c6e24242e5aee4fecc05004da25a1d0e603b5918e339060a00160405180910390a46018548c148015610b3757506019546001600160a01b038c81169116145b8015610b505750601a546001600160a01b038b81169116145b15610b5b5760006018555b835482908590600090610b789084906001600160401b03166143cf565b82546101009290920a6001600160401b0381810219909316918316021790915560028601548554909250610bb691600160801b9091041660016143ef565b6001600160401b03161015610c5757600284018054610bd79060019061440f565b81548110610be757610be7614422565b60009182526020909120015483546002860180546001600160a01b03909316929091600160801b90046001600160401b0316908110610c2857610c28614422565b9060005260206000200160006101000a8154816001600160a01b0302191690836001600160a01b031602179055505b83600201805480610c6a57610c6a614438565b60008281526020808220830160001990810180546001600160a01b03191690559092019092556001600160a01b038d1682526001868101909152604090912080546001600160c01b0319169055601b5460ff166002811115610cce57610cce613eec565b03610d8757600254604051632187baed60e11b815260056004820152610d87918c916001600160a01b039091169063430f75da90602401602060405180830381865afa158015610d22573d6000803e3d6000fd5b505050506040513d601f19601f82011682018060405250810190610d46919061444e565b8e858e8a60020154604051602001610d739291906001600160a01b03929092168252602082015260400190565b6040516020818303038152906040526121c0565b505050505050505050505050565b60006001600160a01b038316610e055760405162461bcd60e51b815260206004820152602a60248201527f455243313135353a2061646472657373207a65726f206973206e6f742061207660448201526930b634b21037bbb732b960b11b60648201526084015b60405180910390fd5b5060008181526012602090815260408083206001600160a01b03861684529091529020545b92915050565b6000610e3b82612248565b80610e2a57506001600160e01b0319821660009081526001602052604090205460ff16610e2a565b6060600d8054610e729061446b565b80601f0160208091040260200160405190810160405280929190818152602001828054610e9e9061446b565b8015610eeb5780601f10610ec057610100808354040283529160200191610eeb565b820191906000526020600020905b815481529060010190602001808311610ece57829003601f168201915b5050505050905090565b600254604080516340c3aa5360e11b8152905133926001600160a01b03169163818754a69160048083019260209291908290030181865afa158015610f3e573d6000803e3d6000fd5b505050506040513d601f19601f82011682018060405250810190610f62919061444e565b6001600160a01b03161461109b57600060018686604051602001610f879291906144a5565b60408051601f198184030181528282528051602091820120600084529083018083525260ff851690820152606081018690526080810185905260a0016020604051602081039080840390855afa158015610fe5573d6000803e3d6000fd5b505050602060405103519050806001600160a01b0316600260009054906101000a90046001600160a01b03166001600160a01b031663818754a66040518163ffffffff1660e01b8152600401602060405180830381865afa15801561104e573d6000803e3d6000fd5b505050506040513d601f19601f82011682018060405250810190611072919061444e565b6001600160a01b031614611099576040516303b89fe560e21b815260040160405180910390fd5b505b60005b848110156111105760008686838181106110ba576110ba614422565b905060e002018036038101906110d0919061455a565b90506110fd816000015182602001518360400151846060015185608001518660a001518760c001516109f5565b5080611108816145fb565b91505061109e565b505050505050565b61112061227e565b61113d57604051631b4004a360e31b815260040160405180910390fd5b600080546001600160a01b0319166001600160a01b038316908117909155604051908152600390600080516020614c3b833981519152906020015b60405180910390a250565b606060006111908361215b565b805160208201516040516303a24d0760e21b815260048101919091529192506001600160a01b031690630e89341c90602401600060405180830381865afa1580156111df573d6000803e3d6000fd5b505050506040513d6000823e601f3d908101601f191682016040526112079190810190614614565b9392505050565b6011805461121b9061446b565b80601f01602080910402602001604051908101604052809291908181526020018280546112479061446b565b80156112945780601f1061126957610100808354040283529160200191611294565b820191906000526020600020905b81548152906001019060200180831161127757829003601f168201915b505050505081565b604051632974974360e01b815260040160405180910390fd5b6112bd61227e565b6112da57604051631b4004a360e31b815260040160405180910390fd5b601080546001600160a01b0319166001600160a01b038316908117909155604051908152600790600080516020614c3b83398151915290602001611178565b61133581600001518260200151836040015133600034346109f5565b50565b61134181610e30565b61133557604051632aae78ef60e01b81526001600160e01b031982166004820152602401610dfc565b606081518351146113cf5760405162461bcd60e51b815260206004820152602960248201527f455243313135353a206163636f756e747320616e6420696473206c656e677468604482015268040dad2e6dac2e8c6d60bb1b6064820152608401610dfc565b600083516001600160401b038111156113ea576113ea613af2565b604051908082528060200260200182016040528015611413578160200160208202803683370190505b50905060005b845181101561148b5761145e85828151811061143757611437614422565b602002602001015185838151811061145157611451614422565b6020026020010151610d95565b82828151811061147057611470614422565b6020908102919091010152611484816145fb565b9050611419565b509392505050565b6014805461121b9061446b565b606060048054610e729061446b565b600254604080516356397c3560e01b8152905133926001600160a01b0316916356397c359160048083019260209291908290030181865afa1580156114f8573d6000803e3d6000fd5b505050506040513d601f19601f8201168201806040525081019061151c919061444e565b6001600160a01b0316146115845760405162461bcd60e51b815260206004820152602960248201527f2341737365745368656c6c2e776974686472617742616c616e636520616363656044820152681cdcc819195b9a595960ba1b6064820152608401610dfc565b6001600160a01b0381166115a857303180156115a4576115a433826123bd565b5050565b6040516370a0823160e01b81523060048201526000906001600160a01b038316906370a0823190602401602060405180830381865afa1580156115ef573d6000803e3d6000fd5b505050506040513d601f19601f820116820180604052508101906116139190614695565b905080156115a45760405163a9059cbb60e01b8152336004820152602481018290526001600160a01b0383169063a9059cbb906044016020604051808303816000875af1158015611668573d6000803e3d6000fd5b505050506040513d601f19601f8201168201806040525081019061168c91906146ae565b505050565b600f805461121b9061446b565b6387c1ef906116ab61227e565b6117b457600260009054906101000a90046001600160a01b03166001600160a01b031663e3f6b5446040518163ffffffff1660e01b8152600401602060405180830381865afa158015611702573d6000803e3d6000fd5b505050506040513d601f19601f82011682018060405250810190611726919061444e565b60405163a8a555c560e01b8152336004820152602481018390526001600160a01b03919091169063a8a555c590604401602060405180830381865afa158015611773573d6000803e3d6000fd5b505050506040513d601f19601f8201168201806040525081019061179791906146ae565b6117b457604051630782484160e21b815260040160405180910390fd5b50601b80549115156101000261ff00199092169190911790556000601855565b63d0a4ad966117e161227e565b6118ea57600260009054906101000a90046001600160a01b03166001600160a01b031663e3f6b5446040518163ffffffff1660e01b8152600401602060405180830381865afa158015611838573d6000803e3d6000fd5b505050506040513d601f19601f8201168201806040525081019061185c919061444e565b60405163a8a555c560e01b8152336004820152602481018390526001600160a01b03919091169063a8a555c590604401602060405180830381865afa1580156118a9573d6000803e3d6000fd5b505050506040513d601f19601f820116820180604052508101906118cd91906146ae565b6118ea57604051630782484160e21b815260040160405180910390fd5b60046118f68382614711565b506001600080516020614c3b833981519152600060405161191991815260200190565b60405180910390a25050565b6040516bffffffffffffffffffffffff19606084901b1660208201526034810182905260009060540160408051601f1981840301815291905280516020909101209392505050565b6391eb3dee61197a61227e565b611a8357600260009054906101000a90046001600160a01b03166001600160a01b031663e3f6b5446040518163ffffffff1660e01b8152600401602060405180830381865afa1580156119d1573d6000803e3d6000fd5b505050506040513d601f19601f820116820180604052508101906119f5919061444e565b60405163a8a555c560e01b8152336004820152602481018390526001600160a01b03919091169063a8a555c590604401602060405180830381865afa158015611a42573d6000803e3d6000fd5b505050506040513d601f19601f82011682018060405250810190611a6691906146ae565b611a8357604051630782484160e21b815260040160405180910390fd5b6010805463ffffffff60a01b1916600160a01b63ffffffff851690810291909117909155604051908152600690600080516020614c3b83398151915290602001611919565b6115a4338383612453565b6040805160608101825260008082526020808301829052828401829052868252601781528382206001600160a01b0387168352600301905291822060028101805485908110611b2457611b24614422565b60009182526020808320909101546001600160a01b03168083526001939093018152604091829020825160608101845290546001600160401b038082168352600160401b8204811693830193909352600160801b90049091169181019190915290969095509350505050565b611b9861227e565b611bb557604051631b4004a360e31b815260040160405180910390fd5b600380546001600160a01b0319166001600160a01b038316908117909155604051908152600290600080516020614c3b83398151915290602001611178565b6000604051632974974360e01b815260040160405180910390fd5b611c1a858584612533565b611c2a6343234e9560e01b61267e565b601b805484919060ff19166001836002811115611c4957611c49613eec565b0217905550601b80549115156101000262ffff001990921691909117905550505050565b632e1a7d4d611c7a61227e565b611d8357600260009054906101000a90046001600160a01b03166001600160a01b031663e3f6b5446040518163ffffffff1660e01b8152600401602060405180830381865afa158015611cd1573d6000803e3d6000fd5b505050506040513d601f19601f82011682018060405250810190611cf5919061444e565b60405163a8a555c560e01b8152336004820152602481018390526001600160a01b03919091169063a8a555c590604401602060405180830381865afa158015611d42573d6000803e3d6000fd5b505050506040513d601f19601f82011682018060405250810190611d6691906146ae565b611d8357604051630782484160e21b815260040160405180910390fd5b600084815260176020526040902080546001600160a01b0316611db957604051632a563a4960e11b815260040160405180910390fd5b611dd584858786604051806020016040528060008152506121c0565b5050505050565b60606000611e73600d8054611df09061446b565b80601f0160208091040260200160405190810160405280929190818152602001828054611e1c9061446b565b8015611e695780601f10611e3e57610100808354040283529160200191611e69565b820191906000526020600020905b815481529060010190602001808311611e4c57829003601f168201915b5050505050612700565b604051602001611e8391906147ec565b60405160208183030381529060405290506000611ea660048054611df09061446b565b604051602001611eb6919061481d565b60405160208183030381529060405290506000611ed9600e8054611df09061446b565b604051602001611ee99190614855565b60405160208183030381529060405290506000611f0c600f8054611df09061446b565b604051602001611f1c9190614887565b60408051808303601f19018152919052601054909150600090611f4b90600160a01b900463ffffffff16612858565b604051602001611f5b91906148c1565b60408051601f19818403018152919052601054909150600090611f86906001600160a01b03166128ea565b604051602001611f969190614906565b60405160208183030381529060405290506011868686868686604051602001611fc5979695949392919061493d565b604051602081830303815290604052965050505050505090565b600080611feb33612900565b9050306001600160a01b0388160361200257600080fd5b6000806120118587018761395b565b90925090506000612022848a611925565b6000818152601760205260408120600281015492935091900361204757600281018390555b80546001600160a01b0319166001600160a01b038616178155600181018a90556001600160401b0389111561208f57604051630ad1fa1b60e41b815260040160405180910390fd5b6120aa84838b604051806020016040528060008152506129c3565b5063f23a6e6160e01b9b9a5050505050505050505050565b6001600160a01b0385163314806120de57506120de8533610910565b6121415760405162461bcd60e51b815260206004820152602e60248201527f455243313135353a2063616c6c6572206973206e6f7420746f6b656e206f776e60448201526d195c881bdc88185c1c1c9bdd995960921b6064820152608401610dfc565b611dd58585858585612af7565b600e805461121b9061446b565b6040805180820182526000808252602091820181905283815260178252829020825180840190935280546001600160a01b0316808452600190910154918301919091526121bb57604051632a563a4960e11b815260040160405180910390fd5b919050565b60008381526017602052604090819020805460018201549251637921219560e11b815291926001600160a01b039091169163f242432a9161220b9130918a9189908990600401614a04565b600060405180830381600087803b15801561222557600080fd5b505af1158015612239573d6000803e3d6000fd5b50505050611110868585612d10565b60006001600160e01b03198216636cdb3d1360e11b1480610e2a57506001600160e01b031982166303a24d0760e21b1492915050565b60035460009033906001600160a01b031681146123b557600260009054906101000a90046001600160a01b03166001600160a01b031663570ca7356040518163ffffffff1660e01b8152600401602060405180830381865afa1580156122e8573d6000803e3d6000fd5b505050506040513d601f19601f8201168201806040525081019061230c919061444e565b6001600160a01b0316816001600160a01b0316146123b557600260009054906101000a90046001600160a01b03166001600160a01b031663ebf0c7176040518163ffffffff1660e01b8152600401602060405180830381865afa158015612377573d6000803e3d6000fd5b505050506040513d601f19601f8201168201806040525081019061239b919061444e565b6001600160a01b0316816001600160a01b03161491505090565b600191505090565b30318111156123df57604051631e9acf1760e31b815260040160405180910390fd5b6000826001600160a01b03168260405160006040518083038185875af1925050503d806000811461242c576040519150601f19603f3d011682016040523d82523d6000602084013e612431565b606091505b505090508061168c57604051634cc9d21160e11b815260040160405180910390fd5b816001600160a01b0316836001600160a01b0316036124c65760405162461bcd60e51b815260206004820152602960248201527f455243313135353a2073657474696e6720617070726f76616c20737461747573604482015268103337b91039b2b63360b91b6064820152608401610dfc565b6001600160a01b03838116600081815260136020908152604080832094871680845294825291829020805460ff191686151590811790915591519182527f17307eab39ab6107e8899845ad3d59bd9653f200f220920489ca2b5937696c31910160405180910390a3505050565b612580836125446020840184614a49565b8080601f016020809104026020016040519081016040528093929190818152602001838380828437600092019190915250879250612eae915050565b61258a8180614a49565b600d91612598919083614a8f565b506125a66040820182614a49565b600e916125b4919083614a8f565b506125c26060820182614a49565b600f916125d0919083614a8f565b5060006125e360c0830160a08401613abc565b6001600160a01b0316146126065761260160c0820160a08301613abc565b612608565b305b601080546001600160a01b0319166001600160a01b039290921691909117905561263860a0820160808301613fa5565b6010805463ffffffff92909216600160a01b0263ffffffff60a01b1990921691909117905561266a60c0820182614a49565b601191612678919083614a8f565b50505050565b6001600160e01b031980821690036126d85760405162461bcd60e51b815260206004820152601c60248201527f4552433136353a20696e76616c696420696e74657266616365206964000000006044820152606401610dfc565b6001600160e01b0319166000908152600160208190526040909120805460ff19169091179055565b60606000825160026127129190614396565b6001600160401b0381111561272957612729613af2565b6040519080825280601f01601f191660200182016040528015612753576020820181803683370190505b50905060005b835181101561285157600084828151811061277657612776614422565b016020015160f881901c91506f181899199a1a9b1b9c1cb0b131b232b360811b9060fc1c601081106127aa576127aa614422565b1a60f81b83600184901b815181106127c4576127c4614422565b60200101906001600160f81b031916908160001a9053506f181899199a1a9b1b9c1cb0b131b232b360811b600f82166010811061280357612803614422565b1a60f81b83612816600185811b90614b4e565b8151811061282657612826614422565b60200101906001600160f81b031916908160001a905350508080612849906145fb565b915050612759565b5092915050565b6060600061286583612f12565b60010190506000816001600160401b0381111561288457612884613af2565b6040519080825280601f01601f1916602001820160405280156128ae576020820181803683370190505b5090508181016020015b600019016f181899199a1a9b1b9c1cb0b131b232b360811b600a86061a8153600a85049450846128b857509392505050565b6060610e2a6001600160a01b0383166014612fea565b60006001600160a01b0382163b61292a57604051634aa4cf5160e01b815260040160405180910390fd5b6040516301ffc9a760e01b8152636cdb3d1360e11b60048201526001600160a01b038316906301ffc9a790602401602060405180830381865afa158015612975573d6000803e3d6000fd5b505050506040513d601f19601f8201168201806040525081019061299991906146ae565b6129bf57604051632aae78ef60e01b8152636cdb3d1360e11b6004820152602401610dfc565b5090565b6001600160a01b038416612a235760405162461bcd60e51b815260206004820152602160248201527f455243313135353a206d696e7420746f20746865207a65726f206164647265736044820152607360f81b6064820152608401610dfc565b336000612a2f85613185565b90506000612a3c85613185565b9050612a4d836000898585896131d0565b60008681526012602090815260408083206001600160a01b038b16845290915281208054879290612a7f908490614b4e565b909155505060408051878152602081018790526001600160a01b03808a1692600092918716917fc3d58168c5ae7397731d063d5bbf3d657854427343f4c083240f7aacaa2d0f62910160405180910390a4612adf83600089858589613349565b612aee8360008989898961366c565b50505050505050565b6001600160a01b038416612b5b5760405162461bcd60e51b815260206004820152602560248201527f455243313135353a207472616e7366657220746f20746865207a65726f206164604482015264647265737360d81b6064820152608401610dfc565b336000612b6785613185565b90506000612b7485613185565b9050612b848389898585896131d0565b60008681526012602090815260408083206001600160a01b038c16845290915290205485811015612c0a5760405162461bcd60e51b815260206004820152602a60248201527f455243313135353a20696e73756666696369656e742062616c616e636520666f60448201526939103a3930b739b332b960b11b6064820152608401610dfc565b60008781526012602090815260408083206001600160a01b038d8116855292528083208985039055908a16825281208054889290612c49908490614b4e565b909155505060408051888152602081018890526001600160a01b03808b16928c821692918816917fc3d58168c5ae7397731d063d5bbf3d657854427343f4c083240f7aacaa2d0f62910160405180910390a460008781526012602090815260408083206001600160a01b038c168452909152902054612ccc858b8b87878b613349565b60008881526012602090815260408083206001600160a01b038d168452909152902054819003612d0457612d04858b8b8b8b8b61366c565b50505050505050505050565b6001600160a01b038316612d725760405162461bcd60e51b815260206004820152602360248201527f455243313135353a206275726e2066726f6d20746865207a65726f206164647260448201526265737360e81b6064820152608401610dfc565b336000612d7e84613185565b90506000612d8b84613185565b9050612dab838760008585604051806020016040528060008152506131d0565b60008581526012602090815260408083206001600160a01b038a16845290915290205484811015612e2a5760405162461bcd60e51b8152602060048201526024808201527f455243313135353a206275726e20616d6f756e7420657863656564732062616c604482015263616e636560e01b6064820152608401610dfc565b60008681526012602090815260408083206001600160a01b038b81168086529184528285208a8703905582518b81529384018a90529092908816917fc3d58168c5ae7397731d063d5bbf3d657854427343f4c083240f7aacaa2d0f62910160405180910390a4612aee84886000868660405180602001604052806000815250613349565b612eb6613808565b612ec6630d64f40d60e31b61267e565b600280546001600160a01b0319166001600160a01b0385161790556004612eed8382614711565b50600380546001600160a01b0319166001600160a01b03929092169190911790555050565b60008072184f03e93ff9f4daa797ed6e38ed64bf6a1f0160401b8310612f515772184f03e93ff9f4daa797ed6e38ed64bf6a1f0160401b830492506040015b6d04ee2d6d415b85acef81000000008310612f7d576d04ee2d6d415b85acef8100000000830492506020015b662386f26fc100008310612f9b57662386f26fc10000830492506010015b6305f5e1008310612fb3576305f5e100830492506008015b6127108310612fc757612710830492506004015b60648310612fd9576064830492506002015b600a8310610e2a5760010192915050565b60606000612ff9836002614396565b613004906002614b4e565b6001600160401b0381111561301b5761301b613af2565b6040519080825280601f01601f191660200182016040528015613045576020820181803683370190505b509050600360fc1b8160008151811061306057613060614422565b60200101906001600160f81b031916908160001a905350600f60fb1b8160018151811061308f5761308f614422565b60200101906001600160f81b031916908160001a90535060006130b3846002614396565b6130be906001614b4e565b90505b6001811115613136576f181899199a1a9b1b9c1cb0b131b232b360811b85600f16601081106130f2576130f2614422565b1a60f81b82828151811061310857613108614422565b60200101906001600160f81b031916908160001a90535060049490941c9361312f81614b61565b90506130c1565b5083156112075760405162461bcd60e51b815260206004820181905260248201527f537472696e67733a20686578206c656e67746820696e73756666696369656e746044820152606401610dfc565b604080516001808252818301909252606091600091906020808301908036833701905050905082816000815181106131bf576131bf614422565b602090810291909101015292915050565b6001600160a01b0385166132575760005b8351811015613255578281815181106131fc576131fc614422565b60200260200101516016600086848151811061321a5761321a614422565b60200260200101518152602001908152602001600020600082825461323f9190614b4e565b9091555061324e9050816145fb565b90506131e1565b505b6001600160a01b0384166111105760005b8351811015612aee57600084828151811061328557613285614422565b6020026020010151905060008483815181106132a3576132a3614422565b60200260200101519050600060166000848152602001908152602001600020549050818110156133265760405162461bcd60e51b815260206004820152602860248201527f455243313135353a206275726e20616d6f756e74206578636565647320746f74604482015267616c537570706c7960c01b6064820152608401610dfc565b60009283526016602052604090922091039055613342816145fb565b9050613268565b6001600160a01b03851615806133675750601b5462010000900460ff165b6111105760005b8351811015612aee57600084828151811061338b5761338b614422565b6020026020010151905060008483815181106133a9576133a9614422565b60209081029190910181015160008481526017835260408082206001600160a01b038d168352600381019094529020549092506001600160401b03166133ef8a85610d95565b101561340e5760405163798efa8760e11b815260040160405180910390fd5b601b54610100900460ff161561357c576001600160a01b03881615613577576001600160a01b0380891660009081526003830160209081526040808320938d16835260018401909152902080546001600160401b0316156134825760405163e0caa31160e01b815260040160405180910390fd5b81548490839060009061349f9084906001600160401b03166143ef565b82546001600160401b039182166101009390930a928302928202191691909117909155600290930180548354438616600160401b026fffffffffffffffffffffffffffffffff19928716600160801b02929092166001600160c01b031990911617948716949094179390931790915550805460018101825560009182526020918290200180546001600160a01b03808d166001600160a01b0319928316811790935560408051606081018252888152918d16948201859052018290526018869055601980548216909317909255601a80549092161790555b613656565b6001601b5460ff16600281111561359557613595613eec565b0361365657601b805462ff0000191662010000179055600254604051632187baed60e11b815260056004820152613649918a916001600160a01b039091169063430f75da90602401602060405180830381865afa1580156135fa573d6000803e3d6000fd5b505050506040513d601f19601f8201168201806040525081019061361e919061444e565b6002840154604080516001600160a01b038e1660208201529081019190915286908690606001610d73565b601b805462ff0000191690555b5050508080613664906145fb565b91505061336e565b6001600160a01b0384163b156111105760405163f23a6e6160e01b81526001600160a01b0385169063f23a6e61906136b09089908990889088908890600401614a04565b6020604051808303816000875af19250505080156136eb575060408051601f3d908101601f191682019092526136e891810190614b78565b60015b613797576136f7614b95565b806308c379a003613730575061370b614bb1565b806137165750613732565b8060405162461bcd60e51b8152600401610dfc9190613a0a565b505b60405162461bcd60e51b815260206004820152603460248201527f455243313135353a207472616e7366657220746f206e6f6e2d455243313135356044820152732932b1b2b4bb32b91034b6b83632b6b2b73a32b960611b6064820152608401610dfc565b6001600160e01b0319811663f23a6e6160e01b14612aee5760405162461bcd60e51b815260206004820152602860248201527f455243313135353a204552433131353552656365697665722072656a656374656044820152676420746f6b656e7360c01b6064820152608401610dfc565b600054600160a81b900460ff161580801561383057506000546001600160a01b90910460ff16105b806138515750303b1580156138515750600054600160a01b900460ff166001145b6138b45760405162461bcd60e51b815260206004820152602e60248201527f496e697469616c697a61626c653a20636f6e747261637420697320616c72656160448201526d191e481a5b9a5d1a585b1a5e995960921b6064820152608401610dfc565b6000805460ff60a01b1916600160a01b17905580156138e1576000805460ff60a81b1916600160a81b1790555b6138f16301ffc9a760e01b61267e565b8015611335576000805460ff60a81b19169055604051600181527f7f26b83ff96e1f2b6a682f133852f6798a09c465da95921460cefb38474024989060200160405180910390a150565b6001600160a01b038116811461133557600080fd5b80356121bb8161393b565b6000806040838503121561396e57600080fd5b82356139798161393b565b946020939093013593505050565b6001600160e01b03198116811461133557600080fd5b6000602082840312156139af57600080fd5b813561120781613987565b60005b838110156139d55781810151838201526020016139bd565b50506000910152565b600081518084526139f68160208601602086016139ba565b601f01601f19169290920160200192915050565b60208152600061120760208301846139de565b600080600080600060808688031215613a3557600080fd5b85356001600160401b0380821115613a4c57600080fd5b818801915088601f830112613a6057600080fd5b813581811115613a6f57600080fd5b89602060e083028501011115613a8457600080fd5b60209283019750955050860135925060408601359150606086013560ff81168114613aae57600080fd5b809150509295509295909350565b600060208284031215613ace57600080fd5b81356112078161393b565b600060208284031215613aeb57600080fd5b5035919050565b634e487b7160e01b600052604160045260246000fd5b601f8201601f191681016001600160401b0381118282101715613b2d57613b2d613af2565b6040525050565b60006001600160401b03821115613b4d57613b4d613af2565b5060051b60200190565b600082601f830112613b6857600080fd5b81356020613b7582613b34565b604051613b828282613b08565b83815260059390931b8501820192828101915086841115613ba257600080fd5b8286015b84811015613bbd5780358352918301918301613ba6565b509695505050505050565b60006001600160401b03821115613be157613be1613af2565b50601f01601f191660200190565b6000613bfa83613bc8565b604051613c078282613b08565b809250848152858585011115613c1c57600080fd5b8484602083013760006020868301015250509392505050565b600082601f830112613c4657600080fd5b61120783833560208501613bef565b600080600080600060a08688031215613c6d57600080fd5b8535613c788161393b565b94506020860135613c888161393b565b935060408601356001600160401b0380821115613ca457600080fd5b613cb089838a01613b57565b94506060880135915080821115613cc657600080fd5b613cd289838a01613b57565b93506080880135915080821115613ce857600080fd5b50613cf588828901613c35565b9150509295509295909350565b600060608284031215613d1457600080fd5b604051606081018181106001600160401b0382111715613d3657613d36613af2565b604052823581526020830135613d4b8161393b565b60208201526040830135613d5e8161393b565b60408201529392505050565b600080600060608486031215613d7f57600080fd5b833592506020840135613d918161393b565b91506040840135613da18161393b565b809150509250925092565b60608101610e2a828480516001600160401b03908116835260208083015182169084015260409182015116910152565b60008060408385031215613def57600080fd5b82356001600160401b0380821115613e0657600080fd5b818501915085601f830112613e1a57600080fd5b81356020613e2782613b34565b604051613e348282613b08565b83815260059390931b8501820192828101915089841115613e5457600080fd5b948201945b83861015613e7b578535613e6c8161393b565b82529482019490820190613e59565b96505086013592505080821115613e9157600080fd5b50613e9e85828601613b57565b9150509250929050565b6020808252825182820181905260009190848201906040850190845b81811015613ee057835183529284019291840191600101613ec4565b50909695505050505050565b634e487b7160e01b600052602160045260246000fd5b6020810160038310613f2457634e487b7160e01b600052602160045260246000fd5b91905290565b801515811461133557600080fd5b600060208284031215613f4a57600080fd5b813561120781613f2a565b600060208284031215613f6757600080fd5b81356001600160401b03811115613f7d57600080fd5b8201601f81018413613f8e57600080fd5b613f9d84823560208401613bef565b949350505050565b600060208284031215613fb757600080fd5b813563ffffffff8116811461120757600080fd5b60008060408385031215613fde57600080fd5b823591506020830135613ff08161393b565b809150509250929050565b6000806040838503121561400e57600080fd5b82356140198161393b565b91506020830135613ff081613f2a565b60008060006060848603121561403e57600080fd5b8335925060208401356140508161393b565b929592945050506040919091013590565b6001600160a01b038316815260808101611207602083018480516001600160401b03908116835260208083015182169084015260409182015116910152565b60008083601f8401126140b257600080fd5b5081356001600160401b038111156140c957600080fd5b6020830191508360208260051b85010111156140e457600080fd5b9250929050565b60008083601f8401126140fd57600080fd5b5081356001600160401b0381111561411457600080fd5b6020830191508360208285010111156140e457600080fd5b60008060008060008060008060a0898b03121561414857600080fd5b88356141538161393b565b975060208901356141638161393b565b965060408901356001600160401b038082111561417f57600080fd5b61418b8c838d016140a0565b909850965060608b01359150808211156141a457600080fd5b6141b08c838d016140a0565b909650945060808b01359150808211156141c957600080fd5b506141d68b828c016140eb565b999c989b5096995094979396929594505050565b600080600080600060a0868803121561420257600080fd5b853561420d8161393b565b9450602086013561421d8161393b565b935060408601356003811061423157600080fd5b925060608601356001600160401b0381111561424c57600080fd5b8601610100818903121561425f57600080fd5b91506080860135613aae81613f2a565b6000806040838503121561428257600080fd5b823561428d8161393b565b91506020830135613ff08161393b565b60008060008060008060a087890312156142b657600080fd5b86356142c18161393b565b955060208701356142d18161393b565b9450604087013593506060870135925060808701356001600160401b038111156142fa57600080fd5b61430689828a016140eb565b979a9699509497509295939492505050565b600080600080600060a0868803121561433057600080fd5b853561433b8161393b565b9450602086013561434b8161393b565b9350604086013592506060860135915060808601356001600160401b0381111561437457600080fd5b613cf588828901613c35565b634e487b7160e01b600052601160045260246000fd5b8082028115828204841417610e2a57610e2a614380565b6000826143ca57634e487b7160e01b600052601260045260246000fd5b500490565b6001600160401b0382811682821603908082111561285157612851614380565b6001600160401b0381811683821601908082111561285157612851614380565b81810381811115610e2a57610e2a614380565b634e487b7160e01b600052603260045260246000fd5b634e487b7160e01b600052603160045260246000fd5b60006020828403121561446057600080fd5b81516112078161393b565b600181811c9082168061447f57607f821691505b60208210810361449f57634e487b7160e01b600052602260045260246000fd5b50919050565b6020808252818101839052600090604080840186845b8781101561454d5781358352848201356144d48161393b565b6001600160a01b039081168487015282850135906144f18261393b565b90811684860152606090838201356145088161393b565b1690840152608061451a838201613950565b6001600160a01b03169084015260a0828101359084015260c0808301359084015260e092830192909101906001016144bb565b5090979650505050505050565b600060e0828403121561456c57600080fd5b60405160e081018181106001600160401b038211171561458e5761458e613af2565b6040528235815260208301356145a38161393b565b602082015260408301356145b68161393b565b60408201526145c760608401613950565b60608201526145d860808401613950565b608082015260a083013560a082015260c083013560c08201528091505092915050565b60006001820161460d5761460d614380565b5060010190565b60006020828403121561462657600080fd5b81516001600160401b0381111561463c57600080fd5b8201601f8101841361464d57600080fd5b805161465881613bc8565b6040516146658282613b08565b82815286602084860101111561467a57600080fd5b61468b8360208301602087016139ba565b9695505050505050565b6000602082840312156146a757600080fd5b5051919050565b6000602082840312156146c057600080fd5b815161120781613f2a565b601f82111561168c57600081815260208120601f850160051c810160208610156146f25750805b601f850160051c820191505b81811015611110578281556001016146fe565b81516001600160401b0381111561472a5761472a613af2565b61473e81614738845461446b565b846146cb565b602080601f831160018114614773576000841561475b5750858301515b600019600386901b1c1916600185901b178555611110565b600085815260208120601f198616915b828110156147a257888601518255948401946001909101908401614783565b50858210156147c05787850151600019600388901b60f8161c191681555b5050505050600190811b01905550565b600081516147e28185602086016139ba565b9290920192915050565b683f6e616d653d30787360b81b8152600082516148108160098501602087016139ba565b9190910160090192915050565b6f266465736372697074696f6e3d30787360801b8152600082516148488160108501602087016139ba565b9190910160100192915050565b6926696d6167653d30787360b01b81526000825161487a81600a8501602087016139ba565b91909101600a0192915050565b712665787465726e616c5f6c696e6b3d30787360701b8152600082516148b48160128501602087016139ba565b9190910160120192915050565b7f2673656c6c65725f6665655f62617369735f706f696e74733d000000000000008152600082516148f98160198501602087016139ba565b9190910160190192915050565b6e266665655f726563697069656e743d60881b81526000825161493081600f8501602087016139ba565b91909101600f0192915050565b600080895461494b8161446b565b600182811680156149635760018114614978576149a7565b60ff19841687528215158302870194506149a7565b8d60005260208060002060005b8581101561499e5781548a820152908401908201614985565b50505082870194505b5050505088516149bb818360208d016139ba565b88519101906149ce818360208c016139ba565b6149f56149ef6149e96149e38486018c6147d0565b8a6147d0565b886147d0565b866147d0565b9b9a5050505050505050505050565b6001600160a01b03868116825285166020820152604081018490526060810183905260a060808201819052600090614a3e908301846139de565b979650505050505050565b6000808335601e19843603018112614a6057600080fd5b8301803591506001600160401b03821115614a7a57600080fd5b6020019150368190038213156140e457600080fd5b6001600160401b03831115614aa657614aa6613af2565b614aba83614ab4835461446b565b836146cb565b6000601f841160018114614aee5760008515614ad65750838201355b600019600387901b1c1916600186901b178355611dd5565b600083815260209020601f19861690835b82811015614b1f5786850135825560209485019460019092019101614aff565b5086821015614b3c5760001960f88860031b161c19848701351681555b505060018560011b0183555050505050565b80820180821115610e2a57610e2a614380565b600081614b7057614b70614380565b506000190190565b600060208284031215614b8a57600080fd5b815161120781613987565b600060033d1115614bae5760046000803e5060005160e01c5b90565b600060443d1015614bbf5790565b6040516003193d81016004833e81513d6001600160401b038160248401118184111715614bee57505050505090565b8285019150815181811115614c065750505050505090565b843d8701016020828501011115614c205750505050505090565b614c2f60208286010187613b08565b50909594505050505056fe7016719027ff29c13bc4816903851ea968172a86b766c733b954fdabe53c87eea2646970667358221220d60e4410143ef82d08e59ba4f4028623bafac2d18e47d29348883313f306723564736f6c63430008110033",
  "immutableReferences": {},
  "source": "// SPDX-License-Identifier: MIT\npragma solidity ~0.8.17;\n\npragma experimental ABIEncoderV2;\n\nimport './libs/Errors.sol';\nimport './libs/ERC721.sol';\nimport './Asset.sol';\n\ncontract AssetShell is AssetModule, ERC1155, IAssetShell {\n\tusing Address for address;\n\tusing AddressExp for address;\n\n\tstruct LockedID {\n\t\tuint256 tokenId;\n\t\taddress from; // previous owner\n\t\taddress to; // current owner\n\t}\n\tstruct LockedItem {\n\t\tuint64 count;\n\t\tuint64 blockNumber; // block number\n\t\tuint64 index; // index for itemsKeys\n\t}\n\tstruct Locked {\n\t\tuint64                         total; // owner locked count total for tokenId\n\t\tmapping(address => LockedItem) items; // previous asset owner address => LockedItem\n\t\taddress[]                      itemsKeys; // previous owner list\n\t}\n\n\tstruct AssetData {\n\t\tAssetID                    meta; // asset meta data\n\t\tuint256                    minimumPrice; // Minimum transaction price of assets\n\t\tmapping(address => Locked) locked; // owner => Locked\n\t}\n\n\tmapping(uint256 => AssetData) private _assetsData;   // tokenId => raw asset id\n\tLockedID                      private _last; // last locked\n\tSaleType                      public  saleType; // is opensea first or second sale\n\tbool                          public  isEnableLock; // enable asset lock protect\n\tbool                          private _IsAfterTokenTransfer;\n\tuint256[16]                   private  __; // reserved storage space\n\n\tfunction supportsInterface(bytes4 interfaceId) public view virtual override(ERC165,IERC165) returns (bool) {\n\t\treturn ERC1155.supportsInterface1155(interfaceId) || ERC165.supportsInterface(interfaceId);\n\t}\n\n\tfunction initAssetShell(\n\t\taddress host, address operator,\n\t\tSaleType saleType_, InitContractURI calldata uri, bool _isEnableLock\n\t) external {\n\t\tinitAssetModule(host, operator, uri);\n\t\t_registerInterface(AssetShell_Type);\n\t\tsaleType = saleType_;\n\t\t_IsAfterTokenTransfer = false;\n\t\tisEnableLock = _isEnableLock;\n\t}\n\n\tfunction asERC1155(address addr) view internal returns (IERC1155) {\n\t\tif (!addr.isContract()) revert NonContractAddress();\n\t\tif (!IERC1155(addr).supportsInterface(type(IERC1155).interfaceId))\n\t\t\trevert CheckInterfaceNoMatch(type(IERC1155).interfaceId);\n\t\treturn IERC1155(addr);\n\t}\n\n\tfunction onERC1155Received(\n\t\taddress operator, address from, uint256 tokenId, uint256 value, bytes calldata data\n\t) external returns (bytes4) {\n\t\tIERC1155 token = asERC1155(_msgSender());\n\t\t// require(ad.meta.token == address(0), \"#AssetShell.onERC1155Received mint of asset already exists\");\n\t\trequire(from != address(this));//, \"#AssetShell.onERC1155Received from not for myself\");\n\n\t\taddress to;\n\t\tuint256 price;\n\t\t(to, price) = abi.decode(data, (address, uint256));\n\n\t\tuint256   id         = convertTokenID(address(token), tokenId);\n\t\tAssetData storage ad = _assetsData[id];\n\n\t\tif (ad.minimumPrice == 0)\n\t\t\tad.minimumPrice = price;\n\t\tad.meta.token = address(token);\n\t\tad.meta.tokenId = tokenId;\n\n\t\tif (value > 0xffffffffffffffff) {\n\t\t\trevert MINTERC1155QuantityExceedsLimit();\n\t\t}\n\t\t_mint(to, id, value, \"\");\n\n\t\treturn 0xf23a6e61;\n\t}\n\n\tfunction onERC1155BatchReceived(\n\t\taddress, address, uint256[] calldata, uint256[] calldata, bytes calldata\n\t) external returns (bytes4) {\n\t\trevert MethodNotImplemented();\n\t}\n\n\t/**\n\t * @dev enableLock(bool) Setting is enable lock\n\t */\n\tfunction enableLock(bool enable) public Check(Action_Asset_Shell_Enable_Lock) {\n\t\tisEnableLock = enable;\n\t\t_last.tokenId = 0; // remove last locked\n\t}\n\n\t/**\n\t * @dev convertTokenID() convert meta token and token id to token id\n\t */\n\tfunction convertTokenID(address metaToken, uint256 metaTokenId) pure public returns (uint256) {\n\t\treturn uint256(keccak256(abi.encodePacked(metaToken, metaTokenId)));\n\t}\n\n\t/**\n\t * @dev overwrite\n\t */\n\tfunction uri(uint256 tokenId) public view virtual override(ERC1155,IERC1155MetadataURI) returns (string memory) {\n\t\tAssetID memory meta = assetMeta(tokenId);\n\t\treturn IERC1155MetadataURI(meta.token).uri(meta.tokenId);\n\t}\n\n\t/**\n\t * @dev assetMeta(tokenId) Returns the asset meta data of this tokenId\n\t */\n\tfunction assetMeta(uint256 tokenId) view public override returns (AssetID memory meta) {\n\t\tmeta = _assetsData[tokenId].meta;\n\t\t// require(meta.token != address(0), \"#AssetShell.assetMeta asset non exists\");\n\t\tif (meta.token == address(0)) revert AssetNonExistsInAssetShell();\n\t}\n\n\t/**\n\t * @dev withdraw() withdraw and unlock meta asset\n\t */\n\tfunction withdraw(uint256 tokenId, address owner, uint256 count) external override Check(Action_Asset_Shell_Withdraw) {\n\t\tAssetID storage meta = _assetsData[tokenId].meta;\n\t\t// require(meta.token != address(0), \"#AssetShell#withdraw withdraw of asset non exists\");\n\t\tif (meta.token == address(0)) revert AssetNonExistsInAssetShell();\n\t\twithdrawFrom(owner, owner, tokenId, count, \"\");\n\t}\n\n\t/**\n\t * @dev withdrawFrom() implement withdraw and unlock meta asset, internal method\n\t */\n\tfunction withdrawFrom(address from, address to, uint256 id, uint256 count, bytes memory data) internal {\n\t\tAssetID storage meta = _assetsData[id].meta;\n\t\tIERC1155(meta.token).safeTransferFrom(address(this), to, meta.tokenId, count, data);\n\t\t_burn(from, id, count);\n\t}\n\n\t/**\n\t * @dev Returns the owner token locked total count and locked items length\n\t */\n\tfunction lockedItems(uint256 tokenId, address owner) view public returns (uint256 items, uint64 total) {\n\t\tLocked storage locked = _assetsData[tokenId].locked[owner];\n\t\titems = locked.itemsKeys.length;\n\t\ttotal = locked.total;\n\t}\n\n\t/**\n\t * @dev Returns the owner token locked count for index\n\t */\n\tfunction lockedAt(uint256 tokenId, address owner, uint256 index) view public \n\t\treturns (address previous, LockedItem memory item) \n\t{\n\t\tLocked storage locked = _assetsData[tokenId].locked[owner];\n\t\tprevious = locked.itemsKeys[index];\n\t\titem = locked.items[previous];\n\t}\n\n\t/**\n\t * @dev Returns the owner token locked count and previous owner address\n\t */\n\tfunction lockedOf(uint256 tokenId,address owner,address previous) view public returns (LockedItem memory item) {\n\t\titem = _assetsData[tokenId].locked[owner].items[previous];\n\t}\n\n\t/**\n\t * @dev minimumPrice(tokenId) Returns the minimum price of this tokenId asset\n\t */\n\tfunction minimumPrice(uint256 tokenId) view public returns (uint256) {\n\t\treturn _assetsData[tokenId].minimumPrice;\n\t}\n\n\t/**\n\t * @dev called after token transfer\n\t */\n\tfunction _afterTokenTransfer(\n\t\taddress operator,\n\t\taddress from,\n\t\taddress to,\n\t\tuint256[] memory ids,\n\t\tuint256[] memory counts,\n\t\tbytes memory data\n\t) internal virtual override {\n\t\tif (from == address(0) || _IsAfterTokenTransfer) return; // mint or running\n\n\t\tfor (uint256 i = 0; i < ids.length; i++) {\n\t\t\tuint256 id = ids[i];\n\t\t\tuint256 count = counts[i];\n\t\t\tAssetData storage asset = _assetsData[id];\n\n\t\t\tif (balanceOf(from, id) < asset.locked[from].total) { // check locaked\n\t\t\t\trevert NeedToUnlockAssetFirst();\n\t\t\t}\n\n\t\t\tif (isEnableLock) {\n\t\t\t\tif (to != address(0)) { // not burn\n\t\t\t\t\tLocked storage locked = asset.locked[to]; // locked to\n\t\t\t\t\tLockedItem storage item = locked.items[from];\n\t\t\t\t\tif (item.count != 0)\n\t\t\t\t\t\trevert NeedToUnlockAssetFirstForPreviousOwner();\n\n\t\t\t\t\tlocked.total += uint64(count);\n\t\t\t\t\titem.index = uint64(locked.itemsKeys.length);\n\t\t\t\t\titem.count = uint64(count);\n\t\t\t\t\titem.blockNumber = uint64(block.number);\n\t\t\t\t\tlocked.itemsKeys.push(from);\n\n\t\t\t\t\t_last = LockedID(id,to,from);\n\t\t\t\t}\n\t\t\t} else {\n\t\t\t\tif (saleType == SaleType.kFirst) {\n\t\t\t\t\t_IsAfterTokenTransfer = true;\n\t\t\t\t\twithdrawFrom(to, _host.module(Module_ASSET_Second_ID), id, count, abi.encode(to, asset.minimumPrice));\n\t\t\t\t\t_IsAfterTokenTransfer = false;\n\t\t\t\t}\n\t\t\t}\n\t\t}\n\t}\n\n\t/**\n\t * @dev _unlock() receive eth transaction and unlock asset\n\t * @param erc20  erc20 token for amount\n\t * @param amount amount value of erc20\n\t * @param eth erc20 exchange to eth amount value\n\t */\n\tfunction _unlock(\n\t\tuint256 tokenId, address from, address to,\n\t\taddress source, address erc20, uint256 amount, uint256 eth) private\n\t{\n\t\tAssetData  storage asset  = _assetsData[tokenId];\n\t\tLocked     storage locked = asset.locked[to];\n\t\tLockedItem storage item   = locked.items[from];\n\t\tuint256 count = item.count;\n\n\t\tif (count == 0) revert LockTokenIDValueEmptyInAssetShell();\n\n\t\tuint256 price = eth * 10_000 / seller_fee_basis_points; // transfer eth price\n\t\t// uint256 price = amount * 10_000 / seller_fee_basis_points; // transfer price\n\n\t\t// check transfer minimum price\n\t\tif (price < asset.minimumPrice * count) revert PayableInsufficientAmount();\n\n\t\temit Unlock(tokenId, source, erc20, from, to, amount, eth, count);\n\n\t\tif (_last.tokenId == tokenId && _last.from == from && _last.to == to) {\n\t\t\t_last.tokenId = 0;\n\t\t}\n\n\t\t// unlock\n\t\tlocked.total -= uint64(count);\n\t\t// delete key data\n\t\tif (item.index + 1 < locked.itemsKeys.length)\n\t\t\tlocked.itemsKeys[item.index] = locked.itemsKeys[locked.itemsKeys.length - 1];\n\t\tlocked.itemsKeys.pop(); // remove last key in keys\n\t\tdelete locked.items[from];\n\n\t\tif (saleType == SaleType.kFirst) {\n\t\t\twithdrawFrom(to, _host.module(Module_ASSET_Second_ID), tokenId, count, abi.encode(to, asset.minimumPrice));\n\t\t}\n\t}\n\n\tstruct UnlockForOperator {\n\t\tuint256 tokenId; // LockedID\n\t\taddress from; //\n\t\taddress to; //\n\t\taddress source;  // payer source, opensea contract => sender\n\t\taddress erc20;   // erc20 token contract address, weth\n\t\tuint256 amount;  // amount value of erc20 token\n\t\tuint256 eth;     // erc20 exchange to eth amount value\n\t}\n\n\t/**\n\t * @dev unlockForOperator()\n\t */\n\tfunction unlockForOperator(UnlockForOperator[] calldata data, bytes32 r, bytes32 s, uint8 v) public {\n\t\tif (_host.unlockOperator() != msg.sender) {\n\t\t\taddress addr = ecrecover(keccak256(abi.encode(data)), v, r, s);\n\t\t\tif (_host.unlockOperator() != addr) {\n\t\t\t\trevert PermissionDeniedForOnlyUnlockOperator();\n\t\t\t}\n\t\t}\n\t\tfor (uint256 i = 0; i < data.length; i++) {\n\t\t\tUnlockForOperator memory it = data[i];\n\t\t\t_unlock(it.tokenId, it.from, it.to, it.source, it.erc20, it.amount, it.eth);\n\t\t}\n\t}\n\n\t/**\n\t * @dev unlock asset\n\t */\n\tfunction unlock(LockedID memory lock) public payable {\n\t\t_unlock(lock.tokenId, lock.from, lock.to, msg.sender, address(0), msg.value, msg.value);\n\t}\n\n\t/**\n\t * @dev receive eth token\n\t */\n\treceive() external payable {\n\t\tif (isEnableLock)\n\t\t\t// Unlock,\n\t\t\t// This will trigger the Unlock event, indicating the completion of an asset transfer transaction\n\t\t\t_unlock(_last.tokenId, _last.from, _last.to, msg.sender, address(0), msg.value, msg.value); // unlock last locked\n\t\telse\n\t\t\t// ,\n\t\t\t// ERC20,WETHERC20\n\t\t\t// If there is an asset transfer while receiving, it indicates that this is an asset conversion transaction\n\t\t\t// This logic also applies to receiving tokens in the target ERC20, such as receiving WETH or bridging ERC20 tokens\n\t\t\temit Receive(msg.sender, msg.value);\n\t}\n\n\t/**\n\t * @dev withdrawBalance withdraw ERC20 token or eth balance\n\t * @param erc20 address\n\t */\n\tfunction withdrawBalance(IERC20 erc20) public override {\n\t\tif (address(_host.ledger()) != msg.sender) revert(\"#AssetShell.withdrawBalance access denied\");\n\t\tif (address(erc20) == address(0)) {\n\t\t\tuint256 balance = address(this).balance;\n\t\t\tif (balance != 0)\n\t\t\t\tmsg.sender.sendValue(balance);\n\t\t} else {\n\t\t\tuint256 balance = erc20.balanceOf(address(this));\n\t\t\tif (balance != 0)\n\t\t\t\terc20.transfer(msg.sender, balance);\n\t\t}\n\t}\n\n}\n",
  "sourcePath": "/Users/louis/Project/hc/NFTSwap/SmartHolder/contracts/AssetShell.sol",
  "compiler": {
    "name": "solc",
    "version": "0.8.17+commit.8df45f5f.Emscripten.clang"
  },
  "schemaVersion": "3.4.11",
  "updatedAt": "2023-05-26T02:02:27.768Z",
  "networkType": "ethereum",
  "devdoc": {
    "kind": "dev",
    "methods": {
      "assetMeta(uint256)": {
        "details": "assetMeta(tokenId) Returns the asset meta data of this tokenId"
      },
      "balanceOf(address,uint256)": {
        "details": "See {IERC1155-balanceOf}. Requirements: - `account` cannot be the zero address."
      },
      "balanceOfBatch(address[],uint256[])": {
        "details": "See {IERC1155-balanceOfBatch}. Requirements: - `accounts` and `ids` must have the same length."
      },
      "convertTokenID(address,uint256)": {
        "details": "convertTokenID() convert meta token and token id to token id"
      },
      "enableLock(bool)": {
        "details": "enableLock(bool) Setting is enable lock"
      },
      "exists(uint256)": {
        "details": "Indicates whether any token exist with a given id, or not."
      },
      "isApprovedForAll(address,address)": {
        "details": "See {IERC1155-isApprovedForAll}."
      },
      "lockedAt(uint256,address,uint256)": {
        "details": "Returns the owner token locked count for index"
      },
      "lockedItems(uint256,address)": {
        "details": "Returns the owner token locked total count and locked items length"
      },
      "lockedOf(uint256,address,address)": {
        "details": "Returns the owner token locked count and previous owner address"
      },
      "minimumPrice(uint256)": {
        "details": "minimumPrice(tokenId) Returns the minimum price of this tokenId asset"
      },
      "name()": {
        "details": "Gets the token name.",
        "returns": {
          "_0": "string representing the token name"
        }
      },
      "safeBatchTransferFrom(address,address,uint256[],uint256[],bytes)": {
        "details": "See {IERC1155-safeBatchTransferFrom}."
      },
      "safeTransferFrom(address,address,uint256,uint256,bytes)": {
        "details": "See {IERC1155-safeTransferFrom}."
      },
      "setApprovalForAll(address,bool)": {
        "details": "See {IERC1155-setApprovalForAll}."
      },
      "totalSupply(uint256)": {
        "details": "Total amount of tokens in with a given id."
      },
      "unlock((uint256,address,address))": {
        "details": "unlock asset"
      },
      "unlockForOperator((uint256,address,address,address,address,uint256,uint256)[],bytes32,bytes32,uint8)": {
        "details": "unlockForOperator()"
      },
      "uri(uint256)": {
        "details": "overwrite"
      },
      "withdraw(uint256,address,uint256)": {
        "details": "withdraw() withdraw and unlock meta asset"
      },
      "withdrawBalance(address)": {
        "details": "withdrawBalance withdraw ERC20 token or eth balance",
        "params": {
          "erc20": "address"
        }
      }
    },
    "version": 1
  },
  "userdoc": {
    "kind": "user",
    "methods": {},
    "version": 1
  }
}