{
  "contractName": "AssetModule",
  "abi": [
    {
      "inputs": [
        {
          "internalType": "bytes4",
          "name": "interfaceId",
          "type": "bytes4"
        }
      ],
      "name": "CheckInterfaceNoMatch",
      "type": "error"
    },
    {
      "inputs": [],
      "name": "PermissionDenied",
      "type": "error"
    },
    {
      "inputs": [],
      "name": "PermissionDeniedForOnlyDAO",
      "type": "error"
    },
    {
      "anonymous": false,
      "inputs": [
        {
          "indexed": true,
          "internalType": "uint256",
          "name": "tag",
          "type": "uint256"
        },
        {
          "indexed": false,
          "internalType": "uint256",
          "name": "value",
          "type": "uint256"
        }
      ],
      "name": "Change",
      "type": "event"
    },
    {
      "anonymous": false,
      "inputs": [
        {
          "indexed": false,
          "internalType": "uint8",
          "name": "version",
          "type": "uint8"
        }
      ],
      "name": "Initialized",
      "type": "event"
    },
    {
      "inputs": [],
      "name": "base_contract_uri",
      "outputs": [
        {
          "internalType": "string",
          "name": "",
          "type": "string"
        }
      ],
      "stateMutability": "view",
      "type": "function"
    },
    {
      "inputs": [
        {
          "internalType": "bytes4",
          "name": "interfaceId",
          "type": "bytes4"
        }
      ],
      "name": "checkInterface",
      "outputs": [],
      "stateMutability": "view",
      "type": "function"
    },
    {
      "inputs": [],
      "name": "description",
      "outputs": [
        {
          "internalType": "string",
          "name": "",
          "type": "string"
        }
      ],
      "stateMutability": "view",
      "type": "function"
    },
    {
      "inputs": [],
      "name": "external_link",
      "outputs": [
        {
          "internalType": "string",
          "name": "",
          "type": "string"
        }
      ],
      "stateMutability": "view",
      "type": "function"
    },
    {
      "inputs": [],
      "name": "fee_recipient",
      "outputs": [
        {
          "internalType": "address",
          "name": "",
          "type": "address"
        }
      ],
      "stateMutability": "view",
      "type": "function"
    },
    {
      "inputs": [],
      "name": "host",
      "outputs": [
        {
          "internalType": "contract IDAO",
          "name": "",
          "type": "address"
        }
      ],
      "stateMutability": "view",
      "type": "function"
    },
    {
      "inputs": [],
      "name": "image",
      "outputs": [
        {
          "internalType": "string",
          "name": "",
          "type": "string"
        }
      ],
      "stateMutability": "view",
      "type": "function"
    },
    {
      "inputs": [],
      "name": "impl",
      "outputs": [
        {
          "internalType": "address",
          "name": "",
          "type": "address"
        }
      ],
      "stateMutability": "view",
      "type": "function"
    },
    {
      "inputs": [],
      "name": "operator",
      "outputs": [
        {
          "internalType": "address",
          "name": "",
          "type": "address"
        }
      ],
      "stateMutability": "view",
      "type": "function"
    },
    {
      "inputs": [],
      "name": "seller_fee_basis_points",
      "outputs": [
        {
          "internalType": "uint32",
          "name": "",
          "type": "uint32"
        }
      ],
      "stateMutability": "view",
      "type": "function"
    },
    {
      "inputs": [
        {
          "internalType": "string",
          "name": "value",
          "type": "string"
        }
      ],
      "name": "setDescription",
      "outputs": [],
      "stateMutability": "nonpayable",
      "type": "function"
    },
    {
      "inputs": [
        {
          "internalType": "address",
          "name": "operator_",
          "type": "address"
        }
      ],
      "name": "setOperator",
      "outputs": [],
      "stateMutability": "nonpayable",
      "type": "function"
    },
    {
      "inputs": [
        {
          "internalType": "bytes4",
          "name": "interfaceId",
          "type": "bytes4"
        }
      ],
      "name": "supportsInterface",
      "outputs": [
        {
          "internalType": "bool",
          "name": "",
          "type": "bool"
        }
      ],
      "stateMutability": "view",
      "type": "function"
    },
    {
      "inputs": [
        {
          "internalType": "address",
          "name": "impl_",
          "type": "address"
        }
      ],
      "name": "upgrade",
      "outputs": [],
      "stateMutability": "nonpayable",
      "type": "function"
    },
    {
      "inputs": [],
      "name": "name",
      "outputs": [
        {
          "internalType": "string",
          "name": "",
          "type": "string"
        }
      ],
      "stateMutability": "view",
      "type": "function"
    },
    {
      "inputs": [],
      "name": "contractURI",
      "outputs": [
        {
          "internalType": "string",
          "name": "uri",
          "type": "string"
        }
      ],
      "stateMutability": "view",
      "type": "function"
    },
    {
      "inputs": [
        {
          "internalType": "uint32",
          "name": "value",
          "type": "uint32"
        }
      ],
      "name": "set_seller_fee_basis_points",
      "outputs": [],
      "stateMutability": "nonpayable",
      "type": "function"
    },
    {
      "inputs": [
        {
          "internalType": "address",
          "name": "recipient",
          "type": "address"
        }
      ],
      "name": "set_fee_recipient",
      "outputs": [],
      "stateMutability": "nonpayable",
      "type": "function"
    }
  ],
  "bytecode": "0x608060405234801561001057600080fd5b50611607806100206000396000f3fe608060405234801561001057600080fd5b50600436106101165760003560e01c8063758f969a116100a257806391eb3dee1161007157806391eb3dee1461024d578063b3ab15fb14610260578063e8a3d48514610273578063f3ccaac01461027b578063f437bc591461028357600080fd5b8063758f969a1461020e5780637972bdf3146102215780638abf60771461022957806390c3f38f1461023a57600080fd5b806330cc317b116100e957806330cc317b1461018f5780634c6e425b146101a2578063570ca735146101b557806371fcf468146101da5780637284e4161461020657600080fd5b806301ffc9a71461011b57806306fdde031461015d5780630900f0101461017257806312dba78514610187575b600080fd5b610148610129366004610fcf565b6001600160e01b03191660009081526001602052604090205460ff1690565b60405190151581526020015b60405180910390f35b610165610294565b604051610154919061101d565b610185610180366004611065565b610326565b005b610165610391565b61018561019d366004611065565b61041f565b6101856101b0366004610fcf565b610483565b6003546001600160a01b03165b6040516001600160a01b039091168152602001610154565b6010546101f190600160a01b900463ffffffff1681565b60405163ffffffff9091168152602001610154565b6101656104d1565b6010546101c2906001600160a01b031681565b6101656104e0565b6000546001600160a01b03166101c2565b610185610248366004611098565b6104ed565b61018561025b366004611149565b61063e565b61018561026e366004611065565b610799565b6101656107fd565b610165610a00565b6002546001600160a01b03166101c2565b6060600d80546102a39061116f565b80601f01602080910402602001604051908101604052809291908181526020018280546102cf9061116f565b801561031c5780601f106102f15761010080835404028352916020019161031c565b820191906000526020600020905b8154815290600101906020018083116102ff57829003601f168201915b5050505050905090565b61032e610a0d565b61034b57604051631b4004a360e31b815260040160405180910390fd5b600080546001600160a01b0319166001600160a01b0383169081179091556040519081526003906000805160206115b2833981519152906020015b60405180910390a250565b6011805461039e9061116f565b80601f01602080910402602001604051908101604052809291908181526020018280546103ca9061116f565b80156104175780601f106103ec57610100808354040283529160200191610417565b820191906000526020600020905b8154815290600101906020018083116103fa57829003601f168201915b505050505081565b610427610a0d565b61044457604051631b4004a360e31b815260040160405180910390fd5b601080546001600160a01b0319166001600160a01b0383169081179091556040519081526007906000805160206115b283398151915290602001610386565b6001600160e01b0319811660009081526001602052604090205460ff166104ce57604051632aae78ef60e01b81526001600160e01b0319821660048201526024015b60405180910390fd5b50565b6060600480546102a39061116f565b600f805461039e9061116f565b63d0a4ad966104fa610a0d565b61060357600260009054906101000a90046001600160a01b03166001600160a01b031663e3f6b5446040518163ffffffff1660e01b8152600401602060405180830381865afa158015610551573d6000803e3d6000fd5b505050506040513d601f19601f8201168201806040525081019061057591906111a9565b60405163a8a555c560e01b8152336004820152602481018390526001600160a01b03919091169063a8a555c590604401602060405180830381865afa1580156105c2573d6000803e3d6000fd5b505050506040513d601f19601f820116820180604052508101906105e691906111c6565b61060357604051630782484160e21b815260040160405180910390fd5b600461060f8382611237565b5060016000805160206115b2833981519152600060405161063291815260200190565b60405180910390a25050565b6391eb3dee61064b610a0d565b61075457600260009054906101000a90046001600160a01b03166001600160a01b031663e3f6b5446040518163ffffffff1660e01b8152600401602060405180830381865afa1580156106a2573d6000803e3d6000fd5b505050506040513d601f19601f820116820180604052508101906106c691906111a9565b60405163a8a555c560e01b8152336004820152602481018390526001600160a01b03919091169063a8a555c590604401602060405180830381865afa158015610713573d6000803e3d6000fd5b505050506040513d601f19601f8201168201806040525081019061073791906111c6565b61075457604051630782484160e21b815260040160405180910390fd5b6010805463ffffffff60a01b1916600160a01b63ffffffff8516908102919091179091556040519081526006906000805160206115b283398151915290602001610632565b6107a1610a0d565b6107be57604051631b4004a360e31b815260040160405180910390fd5b600380546001600160a01b0319166001600160a01b0383169081179091556040519081526002906000805160206115b283398151915290602001610386565b60606000610894600d80546108119061116f565b80601f016020809104026020016040519081016040528092919081815260200182805461083d9061116f565b801561088a5780601f1061085f5761010080835404028352916020019161088a565b820191906000526020600020905b81548152906001019060200180831161086d57829003601f168201915b5050505050610b4c565b6040516020016108a49190611313565b604051602081830303815290604052905060006108c7600480546108119061116f565b6040516020016108d79190611344565b604051602081830303815290604052905060006108fa600e80546108119061116f565b60405160200161090a919061137c565b6040516020818303038152906040529050600061092d600f80546108119061116f565b60405160200161093d91906113ae565b60408051808303601f1901815291905260105490915060009061096c90600160a01b900463ffffffff16610ca5565b60405160200161097c91906113e8565b60408051601f198184030181529190526010549091506000906109a7906001600160a01b0316610d38565b6040516020016109b7919061142d565b604051602081830303815290604052905060118686868686866040516020016109e69796959493929190611464565b604051602081830303815290604052965050505050505090565b600e805461039e9061116f565b60035460009033906001600160a01b03168114610b4457600260009054906101000a90046001600160a01b03166001600160a01b031663570ca7356040518163ffffffff1660e01b8152600401602060405180830381865afa158015610a77573d6000803e3d6000fd5b505050506040513d601f19601f82011682018060405250810190610a9b91906111a9565b6001600160a01b0316816001600160a01b031614610b4457600260009054906101000a90046001600160a01b03166001600160a01b031663ebf0c7176040518163ffffffff1660e01b8152600401602060405180830381865afa158015610b06573d6000803e3d6000fd5b505050506040513d601f19601f82011682018060405250810190610b2a91906111a9565b6001600160a01b0316816001600160a01b03161491505090565b600191505090565b6060600082516002610b5e9190611541565b67ffffffffffffffff811115610b7657610b76611082565b6040519080825280601f01601f191660200182016040528015610ba0576020820181803683370190505b50905060005b8351811015610c9e576000848281518110610bc357610bc3611558565b016020015160f881901c91506f181899199a1a9b1b9c1cb0b131b232b360811b9060fc1c60108110610bf757610bf7611558565b1a60f81b83600184901b81518110610c1157610c11611558565b60200101906001600160f81b031916908160001a9053506f181899199a1a9b1b9c1cb0b131b232b360811b600f821660108110610c5057610c50611558565b1a60f81b83610c63600185811b9061156e565b81518110610c7357610c73611558565b60200101906001600160f81b031916908160001a905350508080610c9690611581565b915050610ba6565b5092915050565b60606000610cb283610d54565b600101905060008167ffffffffffffffff811115610cd257610cd2611082565b6040519080825280601f01601f191660200182016040528015610cfc576020820181803683370190505b5090508181016020015b600019016f181899199a1a9b1b9c1cb0b131b232b360811b600a86061a8153600a8504945084610d0657509392505050565b6060610d4e6001600160a01b0383166014610e2c565b92915050565b60008072184f03e93ff9f4daa797ed6e38ed64bf6a1f0160401b8310610d935772184f03e93ff9f4daa797ed6e38ed64bf6a1f0160401b830492506040015b6d04ee2d6d415b85acef81000000008310610dbf576d04ee2d6d415b85acef8100000000830492506020015b662386f26fc100008310610ddd57662386f26fc10000830492506010015b6305f5e1008310610df5576305f5e100830492506008015b6127108310610e0957612710830492506004015b60648310610e1b576064830492506002015b600a8310610d4e5760010192915050565b60606000610e3b836002611541565b610e4690600261156e565b67ffffffffffffffff811115610e5e57610e5e611082565b6040519080825280601f01601f191660200182016040528015610e88576020820181803683370190505b509050600360fc1b81600081518110610ea357610ea3611558565b60200101906001600160f81b031916908160001a905350600f60fb1b81600181518110610ed257610ed2611558565b60200101906001600160f81b031916908160001a9053506000610ef6846002611541565b610f0190600161156e565b90505b6001811115610f79576f181899199a1a9b1b9c1cb0b131b232b360811b85600f1660108110610f3557610f35611558565b1a60f81b828281518110610f4b57610f4b611558565b60200101906001600160f81b031916908160001a90535060049490941c93610f728161159a565b9050610f04565b508315610fc85760405162461bcd60e51b815260206004820181905260248201527f537472696e67733a20686578206c656e67746820696e73756666696369656e7460448201526064016104c5565b9392505050565b600060208284031215610fe157600080fd5b81356001600160e01b031981168114610fc857600080fd5b60005b83811015611014578181015183820152602001610ffc565b50506000910152565b602081526000825180602084015261103c816040850160208701610ff9565b601f01601f19169190910160400192915050565b6001600160a01b03811681146104ce57600080fd5b60006020828403121561107757600080fd5b8135610fc881611050565b634e487b7160e01b600052604160045260246000fd5b6000602082840312156110aa57600080fd5b813567ffffffffffffffff808211156110c257600080fd5b818401915084601f8301126110d657600080fd5b8135818111156110e8576110e8611082565b604051601f8201601f19908116603f0116810190838211818310171561111057611110611082565b8160405282815287602084870101111561112957600080fd5b826020860160208301376000928101602001929092525095945050505050565b60006020828403121561115b57600080fd5b813563ffffffff81168114610fc857600080fd5b600181811c9082168061118357607f821691505b6020821081036111a357634e487b7160e01b600052602260045260246000fd5b50919050565b6000602082840312156111bb57600080fd5b8151610fc881611050565b6000602082840312156111d857600080fd5b81518015158114610fc857600080fd5b601f82111561123257600081815260208120601f850160051c8101602086101561120f5750805b601f850160051c820191505b8181101561122e5782815560010161121b565b5050505b505050565b815167ffffffffffffffff81111561125157611251611082565b6112658161125f845461116f565b846111e8565b602080601f83116001811461129a57600084156112825750858301515b600019600386901b1c1916600185901b17855561122e565b600085815260208120601f198616915b828110156112c9578886015182559484019460019091019084016112aa565b50858210156112e75787850151600019600388901b60f8161c191681555b5050505050600190811b01905550565b60008151611309818560208601610ff9565b9290920192915050565b683f6e616d653d30787360b81b815260008251611337816009850160208701610ff9565b9190910160090192915050565b6f266465736372697074696f6e3d30787360801b81526000825161136f816010850160208701610ff9565b9190910160100192915050565b6926696d6167653d30787360b01b8152600082516113a181600a850160208701610ff9565b91909101600a0192915050565b712665787465726e616c5f6c696e6b3d30787360701b8152600082516113db816012850160208701610ff9565b9190910160120192915050565b7f2673656c6c65725f6665655f62617369735f706f696e74733d00000000000000815260008251611420816019850160208701610ff9565b9190910160190192915050565b6e266665655f726563697069656e743d60881b81526000825161145781600f850160208701610ff9565b91909101600f0192915050565b60008089546114728161116f565b6001828116801561148a576001811461149f576114ce565b60ff19841687528215158302870194506114ce565b8d60005260208060002060005b858110156114c55781548a8201529084019082016114ac565b50505082870194505b5050505088516114e2818360208d01610ff9565b88519101906114f5818360208c01610ff9565b61151c61151661151061150a8486018c6112f7565b8a6112f7565b886112f7565b866112f7565b9b9a5050505050505050505050565b634e487b7160e01b600052601160045260246000fd5b8082028115828204841417610d4e57610d4e61152b565b634e487b7160e01b600052603260045260246000fd5b80820180821115610d4e57610d4e61152b565b6000600182016115935761159361152b565b5060010190565b6000816115a9576115a961152b565b50600019019056fe7016719027ff29c13bc4816903851ea968172a86b766c733b954fdabe53c87eea264697066735822122059be5bd7ea775e9c7cabe5b8b316d22dd6047eb55aaacba632fdff133c8802d464736f6c63430008110033",
  "immutableReferences": {},
  "source": "// SPDX-License-Identifier: MIT\npragma solidity ~0.8.17;\n\nimport './Module.sol';\nimport './libs/Strings.sol';\nimport './libs/ERC1155.sol';\n\ncontract AssetModule is Module, IOpenseaContractURI {\n\tusing Strings for uint256;\n\tusing Strings for address;\n\tusing StringsExp for bytes;\n\n\tstruct InitContractURI {\n\t\tstring  name;\n\t\tstring  description;\n\t\tstring  image;\n\t\tstring  external_link;\n\t\tuint32  seller_fee_basis_points;\n\t\taddress fee_recipient;\n\t\tstring  base_contract_uri;\n\t\tstring  base_uri;\n\t}\n\n\tstring  private name_;\n\tstring  public image;\n\tstring  public external_link;\n\taddress public fee_recipient;\n\tuint32  public seller_fee_basis_points;\n\n\t/*{\n\t\t\"name\": \"OpenSea Creatures\",\n\t\t\"description\": \"OpenSea Creatures are adorable aquatic beings primarily for \\\n\t\t\tdemonstrating what can be done using the OpenSea platform. Adopt one today to try out all the OpenSea buying, selling, and bidding feature set.\",\n\t\t\"image\": \"external-link-url/image.png\",\n\t\t\"external_link\": \"external-link-url\",\n\t\t\"seller_fee_basis_points\": 100, # Indicates a 1% seller fee.\n\t\t\"fee_recipient\": \"0xA97F337c39cccE66adfeCB2BF99C1DdC54C2D721\" # Where seller fees will be paid to.\n\t}*/\n\tstring public base_contract_uri;// = \"https://smart-dao.stars-mine.com/service-api/utils/printJSON?\";\n\n\t/**\n\t\t* @dev Gets the token name.\n\t\t* @return string representing the token name\n\t\t*/\n\tfunction name() public view virtual returns (string memory) {\n\t\treturn name_;\n\t}\n\n\tfunction initAssetModule(address host, address operator, InitContractURI memory uri) internal {\n\t\tinitModule(host, uri.description, operator);\n\t\tname_ = uri.name;\n\t\timage = uri.image;\n\t\texternal_link = uri.external_link;\n\t\tfee_recipient = uri.fee_recipient == address(0) ? address(this): uri.fee_recipient;\n\t\tseller_fee_basis_points = uri.seller_fee_basis_points;\n\t\tbase_contract_uri = uri.base_contract_uri;\n\t}\n\n\tfunction contractURI() view public override returns (string memory uri) {\n\t\tbytes memory a = abi.encodePacked(\"?name=0xs\",                      bytes(name_).toHexString());\n\t\tbytes memory b = abi.encodePacked(\"&description=0xs\",               bytes(_description).toHexString());\n\t\tbytes memory c = abi.encodePacked(\"&image=0xs\",                     bytes(image).toHexString());\n\t\tbytes memory d = abi.encodePacked(\"&external_link=0xs\",             bytes(external_link).toHexString());\n\t\tbytes memory e = abi.encodePacked(\"&seller_fee_basis_points=\",      uint256(seller_fee_basis_points).toString());\n\t\tbytes memory f = abi.encodePacked(\"&fee_recipient=\",                fee_recipient.toHexString());\n\t\turi = string(abi.encodePacked(base_contract_uri, a, b, c, d, e, f));\n\t}\n\n\tfunction set_seller_fee_basis_points(uint32 value) external Check(Action_Asset_set_seller_fee_basis_points) {\n\t\tseller_fee_basis_points = value;\n\t\temit Change(Change_Tag_Asset_set_seller_fee_basis_points, value);\n\t}\n\n\tfunction set_fee_recipient(address recipient) external OnlyDAO {\n\t\tfee_recipient = recipient;\n\t\temit Change(Change_Tag_Asset_set_fee_recipient, uint160(recipient));\n\t}\n}\n\ncontract Asset is AssetModule, ERC1155, IAsset {\n\n\tfunction supportsInterface(bytes4 interfaceId) public view virtual override(ERC165,IERC165) returns (bool) {\n\t\treturn ERC1155.supportsInterface1155(interfaceId) || ERC165.supportsInterface(interfaceId);\n\t}\n\n\tfunction initAsset(address host, address operator, InitContractURI memory uri) external {\n\t\tinitAssetModule(host, operator, uri);\n\t\tinitERC1155(uri.base_uri);\n\t\t_registerInterface(Asset_Type);\n\t}\n\n\t/**\n\t * @dev sefe mint asset\n\t */\n\tfunction safeMint(address to, uint256 id, string memory _tokenURI, bytes memory _data) public Check(Action_Asset_SafeMint) {\n\t\t// require(id % 2 == 0, \"#Asset1155.safeMint ID must be an even number\");\n\t\tif (id % 2 == 1) revert TokenIDMustEvenNumberInAsset();\n\t\t//require(!exists(id), \"#Asset1155.safeMint ID already exists\");\n\t\tif (exists(id)) revert TokenIDAlreadyExistsInAsset();\n\n\t\t_mint(to, id, 1, _data);\n\t\t// _setURI(id, _tokenURI);\n\t\t_tokenURIs[id] = _tokenURI;\n\t}\n\n\t/**\n\t * @dev make ERC721 NFT\n\t */\n\tfunction makeNFT(address to, uint256 id, string memory _tokenURI, uint256 minPrice) public {\n\t\tsafeMint(address(_host.first()), id, _tokenURI, abi.encode(to, minPrice));\n\t}\n\n\t/**\n\t * @dev copy make ERC1155 NFTs\n\t */\n\tfunction copyNFTs(address to, uint256 id, uint256 amount, uint256 minPrice) public {\n\t\t// require(id % 2 == 0, \"#Asset1155.makeNFTs ID must be an even number\");\n\t\tif (id % 2 == 1) revert TokenIDMustEvenNumberInAsset();\n\n\t\tif (balanceOf(_msgSender(), id) == 0) {\n\t\t\tuint256 _id = uint256(keccak256(abi.encodePacked(address(this), id)));\n\n\t\t\tif (_host.first().balanceOf(_msgSender(), _id) == 0)\n\t\t\t\t//require(_host.second().balanceOf(_msgSender(), _id) == 1, \"#Asset1155.copyNFTs No permission to create NFTs\");\n\t\t\t\tif (_host.second().balanceOf(_msgSender(), _id) == 0) revert NoPermissionToMintNFTs1155();\n\t\t}\n\n\t\t_mint(address(_host.second()), id + 1, amount, abi.encode(to, minPrice));\n\t}\n\n\tfunction uri(uint256 id) public view virtual override(ERC1155,IERC1155MetadataURI) returns (string memory) {\n\t\tif (id % 2 == 0) {\n\t\t\treturn ERC1155.uri(id); // 721\n\t\t} else {\n\t\t\treturn ERC1155.uri(id - 1); // return 721 metadata URI\n\t\t}\n\t}\n\n}",
  "sourcePath": "/Users/louis/Project/hc/NFTSwap/SmartHolder/contracts/Asset.sol",
  "compiler": {
    "name": "solc",
    "version": "0.8.17+commit.8df45f5f.Emscripten.clang"
  },
  "schemaVersion": "3.4.11",
  "updatedAt": "2023-04-23T06:30:17.528Z",
  "devdoc": {
    "kind": "dev",
    "methods": {
      "name()": {
        "details": "Gets the token name.",
        "returns": {
          "_0": "string representing the token name"
        }
      },
      "supportsInterface(bytes4)": {
        "details": "See {IERC165-supportsInterface}. Time complexity O(1), guaranteed to always use less than 30 000 gas."
      }
    },
    "version": 1
  },
  "userdoc": {
    "kind": "user",
    "methods": {},
    "version": 1
  }
}