{
  "contractName": "Asset",
  "abi": [
    {
      "anonymous": false,
      "inputs": [
        {
          "indexed": true,
          "internalType": "address",
          "name": "owner",
          "type": "address"
        },
        {
          "indexed": true,
          "internalType": "address",
          "name": "approved",
          "type": "address"
        },
        {
          "indexed": true,
          "internalType": "uint256",
          "name": "tokenId",
          "type": "uint256"
        }
      ],
      "name": "Approval",
      "type": "event"
    },
    {
      "anonymous": false,
      "inputs": [
        {
          "indexed": true,
          "internalType": "address",
          "name": "owner",
          "type": "address"
        },
        {
          "indexed": true,
          "internalType": "address",
          "name": "operator",
          "type": "address"
        },
        {
          "indexed": false,
          "internalType": "bool",
          "name": "approved",
          "type": "bool"
        }
      ],
      "name": "ApprovalForAll",
      "type": "event"
    },
    {
      "anonymous": false,
      "inputs": [
        {
          "indexed": true,
          "internalType": "uint256",
          "name": "tag",
          "type": "uint256"
        },
        {
          "indexed": false,
          "internalType": "uint256",
          "name": "value",
          "type": "uint256"
        }
      ],
      "name": "Change",
      "type": "event"
    },
    {
      "anonymous": false,
      "inputs": [
        {
          "indexed": true,
          "internalType": "address",
          "name": "from",
          "type": "address"
        },
        {
          "indexed": true,
          "internalType": "address",
          "name": "to",
          "type": "address"
        },
        {
          "indexed": true,
          "internalType": "uint256",
          "name": "tokenId",
          "type": "uint256"
        }
      ],
      "name": "Transfer",
      "type": "event"
    },
    {
      "inputs": [
        {
          "internalType": "address",
          "name": "to",
          "type": "address"
        },
        {
          "internalType": "uint256",
          "name": "tokenId",
          "type": "uint256"
        }
      ],
      "name": "approve",
      "outputs": [],
      "stateMutability": "nonpayable",
      "type": "function"
    },
    {
      "inputs": [
        {
          "internalType": "address",
          "name": "owner",
          "type": "address"
        }
      ],
      "name": "balanceOf",
      "outputs": [
        {
          "internalType": "uint256",
          "name": "",
          "type": "uint256"
        }
      ],
      "stateMutability": "view",
      "type": "function"
    },
    {
      "inputs": [],
      "name": "baseURI",
      "outputs": [
        {
          "internalType": "string",
          "name": "",
          "type": "string"
        }
      ],
      "stateMutability": "view",
      "type": "function"
    },
    {
      "inputs": [
        {
          "internalType": "bytes4",
          "name": "interfaceId",
          "type": "bytes4"
        },
        {
          "internalType": "string",
          "name": "message",
          "type": "string"
        }
      ],
      "name": "checkInterface",
      "outputs": [],
      "stateMutability": "view",
      "type": "function"
    },
    {
      "inputs": [],
      "name": "contractURI",
      "outputs": [
        {
          "internalType": "string",
          "name": "uri",
          "type": "string"
        }
      ],
      "stateMutability": "view",
      "type": "function"
    },
    {
      "inputs": [],
      "name": "contractURIPrefix",
      "outputs": [
        {
          "internalType": "string",
          "name": "",
          "type": "string"
        }
      ],
      "stateMutability": "view",
      "type": "function"
    },
    {
      "inputs": [],
      "name": "description",
      "outputs": [
        {
          "internalType": "string",
          "name": "",
          "type": "string"
        }
      ],
      "stateMutability": "view",
      "type": "function"
    },
    {
      "inputs": [
        {
          "internalType": "uint256",
          "name": "id",
          "type": "uint256"
        }
      ],
      "name": "exists",
      "outputs": [
        {
          "internalType": "bool",
          "name": "",
          "type": "bool"
        }
      ],
      "stateMutability": "view",
      "type": "function"
    },
    {
      "inputs": [],
      "name": "external_link",
      "outputs": [
        {
          "internalType": "string",
          "name": "",
          "type": "string"
        }
      ],
      "stateMutability": "view",
      "type": "function"
    },
    {
      "inputs": [],
      "name": "fee_recipient",
      "outputs": [
        {
          "internalType": "address",
          "name": "",
          "type": "address"
        }
      ],
      "stateMutability": "view",
      "type": "function"
    },
    {
      "inputs": [
        {
          "internalType": "uint256",
          "name": "tokenId",
          "type": "uint256"
        }
      ],
      "name": "getApproved",
      "outputs": [
        {
          "internalType": "address",
          "name": "",
          "type": "address"
        }
      ],
      "stateMutability": "view",
      "type": "function"
    },
    {
      "inputs": [],
      "name": "host",
      "outputs": [
        {
          "internalType": "contract IDAO",
          "name": "",
          "type": "address"
        }
      ],
      "stateMutability": "view",
      "type": "function"
    },
    {
      "inputs": [],
      "name": "image",
      "outputs": [
        {
          "internalType": "string",
          "name": "",
          "type": "string"
        }
      ],
      "stateMutability": "view",
      "type": "function"
    },
    {
      "inputs": [],
      "name": "impl",
      "outputs": [
        {
          "internalType": "address",
          "name": "",
          "type": "address"
        }
      ],
      "stateMutability": "view",
      "type": "function"
    },
    {
      "inputs": [
        {
          "internalType": "address",
          "name": "owner",
          "type": "address"
        },
        {
          "internalType": "address",
          "name": "operator",
          "type": "address"
        }
      ],
      "name": "isApprovedForAll",
      "outputs": [
        {
          "internalType": "bool",
          "name": "",
          "type": "bool"
        }
      ],
      "stateMutability": "view",
      "type": "function"
    },
    {
      "inputs": [],
      "name": "name",
      "outputs": [
        {
          "internalType": "string",
          "name": "",
          "type": "string"
        }
      ],
      "stateMutability": "view",
      "type": "function"
    },
    {
      "inputs": [],
      "name": "operator",
      "outputs": [
        {
          "internalType": "address",
          "name": "",
          "type": "address"
        }
      ],
      "stateMutability": "view",
      "type": "function"
    },
    {
      "inputs": [
        {
          "internalType": "uint256",
          "name": "tokenId",
          "type": "uint256"
        }
      ],
      "name": "ownerOf",
      "outputs": [
        {
          "internalType": "address",
          "name": "",
          "type": "address"
        }
      ],
      "stateMutability": "view",
      "type": "function"
    },
    {
      "inputs": [
        {
          "internalType": "address",
          "name": "from",
          "type": "address"
        },
        {
          "internalType": "address",
          "name": "to",
          "type": "address"
        },
        {
          "internalType": "uint256",
          "name": "tokenId",
          "type": "uint256"
        }
      ],
      "name": "safeTransferFrom",
      "outputs": [],
      "stateMutability": "nonpayable",
      "type": "function"
    },
    {
      "inputs": [
        {
          "internalType": "address",
          "name": "from",
          "type": "address"
        },
        {
          "internalType": "address",
          "name": "to",
          "type": "address"
        },
        {
          "internalType": "uint256",
          "name": "tokenId",
          "type": "uint256"
        },
        {
          "internalType": "bytes",
          "name": "_data",
          "type": "bytes"
        }
      ],
      "name": "safeTransferFrom",
      "outputs": [],
      "stateMutability": "nonpayable",
      "type": "function"
    },
    {
      "inputs": [],
      "name": "seller_fee_basis_points",
      "outputs": [
        {
          "internalType": "uint32",
          "name": "",
          "type": "uint32"
        }
      ],
      "stateMutability": "view",
      "type": "function"
    },
    {
      "inputs": [
        {
          "internalType": "address",
          "name": "operator",
          "type": "address"
        },
        {
          "internalType": "bool",
          "name": "approved",
          "type": "bool"
        }
      ],
      "name": "setApprovalForAll",
      "outputs": [],
      "stateMutability": "nonpayable",
      "type": "function"
    },
    {
      "inputs": [
        {
          "internalType": "string",
          "name": "value",
          "type": "string"
        }
      ],
      "name": "setDescription",
      "outputs": [],
      "stateMutability": "nonpayable",
      "type": "function"
    },
    {
      "inputs": [
        {
          "internalType": "address",
          "name": "operator",
          "type": "address"
        }
      ],
      "name": "setOperator",
      "outputs": [],
      "stateMutability": "nonpayable",
      "type": "function"
    },
    {
      "inputs": [
        {
          "internalType": "address",
          "name": "recipient",
          "type": "address"
        }
      ],
      "name": "set_fee_recipient",
      "outputs": [],
      "stateMutability": "nonpayable",
      "type": "function"
    },
    {
      "inputs": [
        {
          "internalType": "uint32",
          "name": "value",
          "type": "uint32"
        }
      ],
      "name": "set_seller_fee_basis_points",
      "outputs": [],
      "stateMutability": "nonpayable",
      "type": "function"
    },
    {
      "inputs": [
        {
          "internalType": "bytes4",
          "name": "interfaceId",
          "type": "bytes4"
        }
      ],
      "name": "supportsInterface",
      "outputs": [
        {
          "internalType": "bool",
          "name": "",
          "type": "bool"
        }
      ],
      "stateMutability": "view",
      "type": "function"
    },
    {
      "inputs": [],
      "name": "symbol",
      "outputs": [
        {
          "internalType": "string",
          "name": "",
          "type": "string"
        }
      ],
      "stateMutability": "view",
      "type": "function"
    },
    {
      "inputs": [
        {
          "internalType": "uint256",
          "name": "index",
          "type": "uint256"
        }
      ],
      "name": "tokenByIndex",
      "outputs": [
        {
          "internalType": "uint256",
          "name": "",
          "type": "uint256"
        }
      ],
      "stateMutability": "view",
      "type": "function"
    },
    {
      "inputs": [
        {
          "internalType": "address",
          "name": "owner",
          "type": "address"
        },
        {
          "internalType": "uint256",
          "name": "index",
          "type": "uint256"
        }
      ],
      "name": "tokenOfOwnerByIndex",
      "outputs": [
        {
          "internalType": "uint256",
          "name": "",
          "type": "uint256"
        }
      ],
      "stateMutability": "view",
      "type": "function"
    },
    {
      "inputs": [
        {
          "internalType": "uint256",
          "name": "tokenId",
          "type": "uint256"
        }
      ],
      "name": "tokenURI",
      "outputs": [
        {
          "internalType": "string",
          "name": "",
          "type": "string"
        }
      ],
      "stateMutability": "view",
      "type": "function"
    },
    {
      "inputs": [],
      "name": "totalSupply",
      "outputs": [
        {
          "internalType": "uint256",
          "name": "",
          "type": "uint256"
        }
      ],
      "stateMutability": "view",
      "type": "function"
    },
    {
      "inputs": [
        {
          "internalType": "address",
          "name": "from",
          "type": "address"
        },
        {
          "internalType": "address",
          "name": "to",
          "type": "address"
        },
        {
          "internalType": "uint256",
          "name": "tokenId",
          "type": "uint256"
        }
      ],
      "name": "transferFrom",
      "outputs": [],
      "stateMutability": "nonpayable",
      "type": "function"
    },
    {
      "inputs": [
        {
          "internalType": "address",
          "name": "impl",
          "type": "address"
        }
      ],
      "name": "upgrade",
      "outputs": [],
      "stateMutability": "nonpayable",
      "type": "function"
    },
    {
      "inputs": [
        {
          "internalType": "address",
          "name": "host",
          "type": "address"
        },
        {
          "internalType": "address",
          "name": "operator",
          "type": "address"
        },
        {
          "components": [
            {
              "internalType": "string",
              "name": "name",
              "type": "string"
            },
            {
              "internalType": "string",
              "name": "description",
              "type": "string"
            },
            {
              "internalType": "string",
              "name": "image",
              "type": "string"
            },
            {
              "internalType": "string",
              "name": "external_link",
              "type": "string"
            },
            {
              "internalType": "uint32",
              "name": "seller_fee_basis_points",
              "type": "uint32"
            },
            {
              "internalType": "address",
              "name": "fee_recipient",
              "type": "address"
            },
            {
              "internalType": "string",
              "name": "contractURIPrefix",
              "type": "string"
            }
          ],
          "internalType": "struct AssetBase.InitContractURI",
          "name": "uri",
          "type": "tuple"
        }
      ],
      "name": "initAsset",
      "outputs": [],
      "stateMutability": "nonpayable",
      "type": "function"
    },
    {
      "inputs": [
        {
          "internalType": "address",
          "name": "to",
          "type": "address"
        },
        {
          "internalType": "uint256",
          "name": "tokenId",
          "type": "uint256"
        },
        {
          "internalType": "string",
          "name": "_tokenURI",
          "type": "string"
        },
        {
          "internalType": "bytes",
          "name": "_data",
          "type": "bytes"
        }
      ],
      "name": "safeMint",
      "outputs": [],
      "stateMutability": "nonpayable",
      "type": "function"
    }
  ],
  "bytecode": "0x608060405234801561001057600080fd5b506131d3806100206000396000f3fe608060405234801561001057600080fd5b506004361061021c5760003560e01c8063758f969a11610125578063b88d4fde116100ad578063e8a3d4851161007c578063e8a3d485146104a5578063e985e9c5146104ad578063f2d8d1b8146104e9578063f3ccaac0146104f1578063f437bc59146104f957600080fd5b8063b88d4fde14610459578063c64df69d1461046c578063c87b56dd1461047f578063d71a195d1461049257600080fd5b806391eb3dee116100f457806391eb3dee1461040557806395d89b4114610418578063a22cb46514610420578063b3ab15fb14610433578063b55bc6171461044657600080fd5b8063758f969a146103c65780637972bdf3146103d95780638abf6077146103e157806390c3f38f146103f257600080fd5b806342842e0e116101a85780636352211e116101775780636352211e146103645780636c0360eb1461037757806370a082311461037f57806371fcf468146103925780637284e416146103be57600080fd5b806342842e0e1461031a5780634f558e791461032d5780634f6ccce714610340578063570ca7351461035357600080fd5b8063095ea7b3116101ef578063095ea7b3146102b857806318160ddd146102cb57806323b872dd146102e15780632f745c59146102f457806330cc317b1461030757600080fd5b806301ffc9a71461022157806306fdde0314610263578063081812fc146102785780630900f010146102a3575b600080fd5b61024e61022f366004612554565b6001600160e01b03191660009081526001602052604090205460ff1690565b60405190151581526020015b60405180910390f35b61026b61050a565b60405161025a91906125c1565b61028b6102863660046125d4565b61059c565b6040516001600160a01b03909116815260200161025a565b6102b66102b1366004612612565b610629565b005b6102b66102c636600461262f565b610693565b6102d36107a8565b60405190815260200161025a565b6102b66102ef36600461265b565b6107b9565b6102d361030236600461262f565b61080e565b6102b6610315366004612612565b610839565b6102b661032836600461265b565b61089c565b61024e61033b3660046125d4565b6108b7565b6102d361034e3660046125d4565b6108c2565b6003546001600160a01b031661028b565b61028b6103723660046125d4565b6108d8565b61026b610900565b6102d361038d366004612612565b61090f565b6019546103a990600160a01b900463ffffffff1681565b60405163ffffffff909116815260200161025a565b61026b61099b565b60195461028b906001600160a01b031681565b61026b6109aa565b6000546001600160a01b031661028b565b6102b6610400366004612771565b610a38565b6102b66104133660046127ba565b610b88565b61026b610ce2565b6102b661042e3660046127e3565b610cf1565b6102b6610441366004612612565b610db5565b6102b661045436600461281c565b610e18565b6102b66104673660046128cd565b610f80565b6102b661047a36600461294d565b610fb8565b61026b61048d3660046125d4565b610ff4565b6102b66104a036600461299d565b610fff565b61026b61101a565b61024e6104bb366004612ae3565b6001600160a01b03918216600090815260126020908152604080832093909416825291909152205460ff1690565b61026b61121d565b61026b61122a565b6002546001600160a01b031661028b565b60606013805461051990612b11565b80601f016020809104026020016040519081016040528092919081815260200182805461054590612b11565b80156105925780601f1061056757610100808354040283529160200191610592565b820191906000526020600020905b81548152906001019060200180831161057557829003601f168201915b5050505050905090565b60006105a782611237565b61060d5760405162461bcd60e51b815260206004820152602c60248201527f4552433732313a20617070726f76656420717565727920666f72206e6f6e657860448201526b34b9ba32b73a103a37b5b2b760a11b60648201526084015b60405180910390fd5b506000908152601160205260409020546001600160a01b031690565b610631611244565b61064d5760405162461bcd60e51b815260040161060490612b4b565b600080546001600160a01b0319166001600160a01b03831690811790915560405190815260039060008051602061317e833981519152906020015b60405180910390a250565b600061069e826108d8565b9050806001600160a01b0316836001600160a01b03160361070b5760405162461bcd60e51b815260206004820152602160248201527f4552433732313a20617070726f76616c20746f2063757272656e74206f776e656044820152603960f91b6064820152608401610604565b336001600160a01b0382161480610727575061072781336104bb565b6107995760405162461bcd60e51b815260206004820152603860248201527f4552433732313a20617070726f76652063616c6c6572206973206e6f74206f7760448201527f6e6572206e6f7220617070726f76656420666f7220616c6c00000000000000006064820152608401610604565b6107a38383611383565b505050565b60006107b4600e6113f1565b905090565b6107c333826113fc565b6107df5760405162461bcd60e51b815260040161060490612ba1565b6107fa838383604051806020016040528060008152506114e6565b604080516020810190915260009052505050565b6001600160a01b0382166000908152600d602052604081206108309083611668565b90505b92915050565b610841611244565b61085d5760405162461bcd60e51b815260040161060490612b4b565b601980546001600160a01b0319166001600160a01b03831690811790915560405190815260079060008051602061317e83398151915290602001610688565b6107a383838360405180602001604052806000815250610f80565b600061083382611237565b6000806108d0600e84611674565b509392505050565b60006108338260405180606001604052806029815260200161315560299139600e9190611690565b60606016805461051990612b11565b60006001600160a01b03821661097a5760405162461bcd60e51b815260206004820152602a60248201527f4552433732313a2062616c616e636520717565727920666f7220746865207a65604482015269726f206164647265737360b01b6064820152608401610604565b6001600160a01b0382166000908152600d60205260409020610833906116a7565b60606004805461051990612b11565b601880546109b790612b11565b80601f01602080910402602001604051908101604052809291908181526020018280546109e390612b11565b8015610a305780601f10610a0557610100808354040283529160200191610a30565b820191906000526020600020905b815481529060010190602001808311610a1357829003601f168201915b505050505081565b63d0a4ad96610a45611244565b610b4d57600260009054906101000a90046001600160a01b03166001600160a01b031663e3f6b5446040518163ffffffff1660e01b8152600401602060405180830381865afa158015610a9c573d6000803e3d6000fd5b505050506040513d601f19601f82011682018060405250810190610ac09190612bf2565b60405163a8a555c560e01b8152336004820152602481018390526001600160a01b03919091169063a8a555c590604401602060405180830381865afa158015610b0d573d6000803e3d6000fd5b505050506040513d601f19601f82011682018060405250810190610b319190612c0f565b610b4d5760405162461bcd60e51b815260040161060490612b4b565b6004610b598382612c72565b50600160008051602061317e8339815191526000604051610b7c91815260200190565b60405180910390a25050565b6391eb3dee610b95611244565b610c9d57600260009054906101000a90046001600160a01b03166001600160a01b031663e3f6b5446040518163ffffffff1660e01b8152600401602060405180830381865afa158015610bec573d6000803e3d6000fd5b505050506040513d601f19601f82011682018060405250810190610c109190612bf2565b60405163a8a555c560e01b8152336004820152602481018390526001600160a01b03919091169063a8a555c590604401602060405180830381865afa158015610c5d573d6000803e3d6000fd5b505050506040513d601f19601f82011682018060405250810190610c819190612c0f565b610c9d5760405162461bcd60e51b815260040161060490612b4b565b6019805463ffffffff60a01b1916600160a01b63ffffffff85169081029190911790915560405190815260069060008051602061317e83398151915290602001610b7c565b60606014805461051990612b11565b336001600160a01b03831603610d495760405162461bcd60e51b815260206004820152601960248201527f4552433732313a20617070726f766520746f2063616c6c6572000000000000006044820152606401610604565b3360008181526012602090815260408083206001600160a01b03871680855290835292819020805460ff191686151590811790915590519081529192917f17307eab39ab6107e8899845ad3d59bd9653f200f220920489ca2b5937696c31910160405180910390a35050565b610dbd611244565b610dd95760405162461bcd60e51b815260040161060490612b4b565b600380546001600160a01b0319166001600160a01b03831690811790915560405190815260029060008051602061317e83398151915290602001610688565b6359baef2a610e25611244565b610f2d57600260009054906101000a90046001600160a01b03166001600160a01b031663e3f6b5446040518163ffffffff1660e01b8152600401602060405180830381865afa158015610e7c573d6000803e3d6000fd5b505050506040513d601f19601f82011682018060405250810190610ea09190612bf2565b60405163a8a555c560e01b8152336004820152602481018390526001600160a01b03919091169063a8a555c590604401602060405180830381865afa158015610eed573d6000803e3d6000fd5b505050506040513d601f19601f82011682018060405250810190610f119190612c0f565b610f2d5760405162461bcd60e51b815260040161060490612b4b565b610f6e868685858080601f0160208091040260200160405190810160405280939291908181526020018383808284376000920191909152506116b192505050565b610f7885856116e4565b505050505050565b610f8a33836113fc565b610fa65760405162461bcd60e51b815260040161060490612ba1565b610fb284848484611766565b50505050565b6001600160e01b0319821660009081526001602052604090205460ff1681906107a35760405162461bcd60e51b815260040161060491906125c1565b60606108338261179f565b61100a838383611911565b6107a36368ca456f60e01b6119ba565b6060600061102e61102961050a565b6119c6565b60405160200161103e9190612d32565b604051602081830303815290604052905060006110e46004805461106190612b11565b80601f016020809104026020016040519081016040528092919081815260200182805461108d90612b11565b80156110da5780601f106110af576101008083540402835291602001916110da565b820191906000526020600020905b8154815290600101906020018083116110bd57829003601f168201915b50505050506119c6565b6040516020016110f49190612d63565b604051602081830303815290604052905060006111176017805461106190612b11565b6040516020016111279190612d9b565b6040516020818303038152906040529050600061114a6018805461106190612b11565b60405160200161115a9190612dcd565b60408051808303601f1901815291905260195490915060009061118990600160a01b900463ffffffff16611b1f565b6040516020016111999190612e07565b60408051601f198184030181529190526019549091506000906111c4906001600160a01b0316611bb2565b6040516020016111d49190612e4c565b6040516020818303038152906040529050601a8686868686866040516020016112039796959493929190612ef6565b604051602081830303815290604052965050505050505090565b601a80546109b790612b11565b601780546109b790612b11565b6000610833600e83611bc8565b60035460009033906001600160a01b0316811461137b57600260009054906101000a90046001600160a01b03166001600160a01b031663570ca7356040518163ffffffff1660e01b8152600401602060405180830381865afa1580156112ae573d6000803e3d6000fd5b505050506040513d601f19601f820116820180604052508101906112d29190612bf2565b6001600160a01b0316816001600160a01b03161461137b57600260009054906101000a90046001600160a01b03166001600160a01b031663ebf0c7176040518163ffffffff1660e01b8152600401602060405180830381865afa15801561133d573d6000803e3d6000fd5b505050506040513d601f19601f820116820180604052508101906113619190612bf2565b6001600160a01b0316816001600160a01b03161491505090565b600191505090565b600081815260116020526040902080546001600160a01b0319166001600160a01b03841690811790915581906113b8826108d8565b6001600160a01b03167f8c5be1e5ebec7d5bd14f71427d1e84f3dd0314c0f7b2291e5b200ac8c7c3b92560405160405180910390a45050565b600061083382611bd4565b600061140782611237565b6114685760405162461bcd60e51b815260206004820152602c60248201527f4552433732313a206f70657261746f7220717565727920666f72206e6f6e657860448201526b34b9ba32b73a103a37b5b2b760a11b6064820152608401610604565b6000611473836108d8565b9050806001600160a01b0316846001600160a01b031614806114ae5750836001600160a01b03166114a38461059c565b6001600160a01b0316145b806114de57506001600160a01b0380821660009081526012602090815260408083209388168352929052205460ff165b949350505050565b836001600160a01b03166114f9836108d8565b6001600160a01b0316146115615760405162461bcd60e51b815260206004820152602960248201527f4552433732313a207472616e73666572206f6620746f6b656e2074686174206960448201526839903737ba1037bbb760b91b6064820152608401610604565b6001600160a01b0383166115c35760405162461bcd60e51b8152602060048201526024808201527f4552433732313a207472616e7366657220746f20746865207a65726f206164646044820152637265737360e01b6064820152608401610604565b6115ce600083611383565b6001600160a01b0384166000908152600d602052604090206115f09083611bdf565b506001600160a01b0383166000908152600d602052604090206116139083611beb565b50611620600e8385611bf7565b5081836001600160a01b0316856001600160a01b03167fddf252ad1be2c89b69c2b068fc378daa952ba7f163c4a11628f55a4df523b3ef60405160405180910390a450505050565b60006108308383611c0d565b60008080806116838686611c37565b9097909650945050505050565b600061169d848484611c62565b90505b9392505050565b6000610833825490565b6116bb8383611cae565b6116c86000848484611dd0565b6107a35760405162461bcd60e51b815260040161060490612f86565b6116ed82611237565b61174e5760405162461bcd60e51b815260206004820152602c60248201527f4552433732314d657461646174613a2055524920736574206f66206e6f6e657860448201526b34b9ba32b73a103a37b5b2b760a11b6064820152608401610604565b60008281526015602052604090206107a38282612c72565b611772848484846114e6565b61177e84848484611dd0565b61179a5760405162461bcd60e51b815260040161060490612f86565b610fb2565b60606117aa82611237565b61180e5760405162461bcd60e51b815260206004820152602f60248201527f4552433732314d657461646174613a2055524920717565727920666f72206e6f60448201526e3732bc34b9ba32b73a103a37b5b2b760891b6064820152608401610604565b6000828152601560205260408120805461182790612b11565b80601f016020809104026020016040519081016040528092919081815260200182805461185390612b11565b80156118a05780601f10611875576101008083540402835291602001916118a0565b820191906000526020600020905b81548152906001019060200180831161188357829003601f168201915b50505050509050601680546118b490612b11565b90506000036118c35792915050565b8051156118f5576016816040516020016118de929190612fd8565b604051602081830303815290604052915050919050565b601661190084611b1f565b6040516020016118de929190612fd8565b61192083826020015184611e89565b805161192c9080611eed565b604081015160179061193e9082612c72565b5060608101516018906119519082612c72565b5060a08101516001600160a01b03161561196f578060a00151611971565b305b60198054608084015163ffffffff16600160a01b026001600160c01b03199091166001600160a01b03939093169290921791909117905560c0810151601a90610fb29082612c72565b6119c381611f3b565b50565b60606000825160026119d89190613013565b67ffffffffffffffff8111156119f0576119f061269c565b6040519080825280601f01601f191660200182016040528015611a1a576020820181803683370190505b50905060005b8351811015611b18576000848281518110611a3d57611a3d61302a565b016020015160f881901c91506f181899199a1a9b1b9c1cb0b131b232b360811b9060fc1c60108110611a7157611a7161302a565b1a60f81b83600184901b81518110611a8b57611a8b61302a565b60200101906001600160f81b031916908160001a9053506f181899199a1a9b1b9c1cb0b131b232b360811b600f821660108110611aca57611aca61302a565b1a60f81b83611add600185811b90613040565b81518110611aed57611aed61302a565b60200101906001600160f81b031916908160001a905350508080611b1090613053565b915050611a20565b5092915050565b60606000611b2c83611fbd565b600101905060008167ffffffffffffffff811115611b4c57611b4c61269c565b6040519080825280601f01601f191660200182016040528015611b76576020820181803683370190505b5090508181016020015b600019016f181899199a1a9b1b9c1cb0b131b232b360811b600a86061a8153600a8504945084611b8057509392505050565b60606108336001600160a01b0383166014612095565b60006108308383612231565b6000610833826116a7565b60006108308383612250565b60006108308383612343565b600061169d84846001600160a01b038516612392565b6000826000018281548110611c2457611c2461302a565b9060005260206000200154905092915050565b60008080611c458585611668565b600081815260029690960160205260409095205494959350505050565b600082815260028401602052604081205480151580611c865750611c868585612231565b8390611ca55760405162461bcd60e51b815260040161060491906125c1565b50949350505050565b6001600160a01b038216611d045760405162461bcd60e51b815260206004820181905260248201527f4552433732313a206d696e7420746f20746865207a65726f20616464726573736044820152606401610604565b611d0d81611237565b15611d5a5760405162461bcd60e51b815260206004820152601c60248201527f4552433732313a20746f6b656e20616c7265616479206d696e746564000000006044820152606401610604565b60408051602080820183526000918290526001600160a01b0385168252600d905220611d869082611beb565b50611d93600e8284611bf7565b5060405181906001600160a01b038416906000907fddf252ad1be2c89b69c2b068fc378daa952ba7f163c4a11628f55a4df523b3ef908290a45050565b60006001600160a01b0384163b611de9575060016114de565b6000630a85bd0160e11b33878686604051602401611e0a949392919061306c565b604051602081830303815290604052906001600160e01b0319166020820180516001600160e01b038381831617835250505050905063150b7a0260e01b6001600160e01b031916611e748683604051806060016040528060328152602001613123603291396123af565b6001600160e01b031916149695505050505050565b611e9161245f565b611ea1630d64f40d60e31b6119ba565b600280546001600160a01b0319166001600160a01b0385161790556004611ec88382612c72565b50600380546001600160a01b0319166001600160a01b03929092169190911790555050565b6013611ef98382612c72565b506014611f068282612c72565b50611f176380ac58cd60e01b6119ba565b611f27635b5e139f60e01b6119ba565b611f3763780e9d6360e01b6119ba565b5050565b6001600160e01b03198082169003611f955760405162461bcd60e51b815260206004820152601c60248201527f4552433136353a20696e76616c696420696e74657266616365206964000000006044820152606401610604565b6001600160e01b0319166000908152600160208190526040909120805460ff19169091179055565b60008072184f03e93ff9f4daa797ed6e38ed64bf6a1f0160401b8310611ffc5772184f03e93ff9f4daa797ed6e38ed64bf6a1f0160401b830492506040015b6d04ee2d6d415b85acef81000000008310612028576d04ee2d6d415b85acef8100000000830492506020015b662386f26fc10000831061204657662386f26fc10000830492506010015b6305f5e100831061205e576305f5e100830492506008015b612710831061207257612710830492506004015b60648310612084576064830492506002015b600a83106108335760010192915050565b606060006120a4836002613013565b6120af906002613040565b67ffffffffffffffff8111156120c7576120c761269c565b6040519080825280601f01601f1916602001820160405280156120f1576020820181803683370190505b509050600360fc1b8160008151811061210c5761210c61302a565b60200101906001600160f81b031916908160001a905350600f60fb1b8160018151811061213b5761213b61302a565b60200101906001600160f81b031916908160001a905350600061215f846002613013565b61216a906001613040565b90505b60018111156121e2576f181899199a1a9b1b9c1cb0b131b232b360811b85600f166010811061219e5761219e61302a565b1a60f81b8282815181106121b4576121b461302a565b60200101906001600160f81b031916908160001a90535060049490941c936121db816130a9565b905061216d565b5083156108305760405162461bcd60e51b815260206004820181905260248201527f537472696e67733a20686578206c656e67746820696e73756666696369656e746044820152606401610604565b6000610830838360008181526001830160205260408120541515610830565b600081815260018301602052604081205480156123395760006122746001836130c0565b8554909150600090612288906001906130c0565b90508181146122ed5760008660000182815481106122a8576122a861302a565b90600052602060002001549050808760000184815481106122cb576122cb61302a565b6000918252602080832090910192909255918252600188019052604090208390555b85548690806122fe576122fe6130d3565b600190038181906000526020600020016000905590558560010160008681526020019081526020016000206000905560019350505050610833565b6000915050610833565b600081815260018301602052604081205461238a57508154600181810184556000848152602080822090930184905584548482528286019093526040902091909155610833565b506000610833565b6000828152600284016020526040812082905561169d8484611beb565b6000806000856001600160a01b0316856040516123cc91906130e9565b6000604051808303816000865af19150503d8060008114612409576040519150601f19603f3d011682016040523d82523d6000602084013e61240e565b606091505b509150915081612442578051156124285780518082602001fd5b8360405162461bcd60e51b815260040161060491906125c1565b808060200190518101906124569190613105565b925050506116a0565b600054600160a81b900460ff16806124765750303b155b8061248b5750600054600160a01b900460ff16155b6124ee5760405162461bcd60e51b815260206004820152602e60248201527f436f6e747261637420696e7374616e63652068617320616c726561647920626560448201526d195b881a5b9a5d1a585b1a5e995960921b6064820152608401610604565b600054600160a81b900460ff16158015612518576000805461ffff60a01b191661010160a01b1790555b6125286301ffc9a760e01b6119ba565b80156119c3576000805460ff60a81b1916905550565b6001600160e01b0319811681146119c357600080fd5b60006020828403121561256657600080fd5b81356108308161253e565b60005b8381101561258c578181015183820152602001612574565b50506000910152565b600081518084526125ad816020860160208601612571565b601f01601f19169290920160200192915050565b6020815260006108306020830184612595565b6000602082840312156125e657600080fd5b5035919050565b6001600160a01b03811681146119c357600080fd5b803561260d816125ed565b919050565b60006020828403121561262457600080fd5b8135610830816125ed565b6000806040838503121561264257600080fd5b823561264d816125ed565b946020939093013593505050565b60008060006060848603121561267057600080fd5b833561267b816125ed565b9250602084013561268b816125ed565b929592945050506040919091013590565b634e487b7160e01b600052604160045260246000fd5b60405160e0810167ffffffffffffffff811182821017156126d5576126d561269c565b60405290565b600067ffffffffffffffff808411156126f6576126f661269c565b604051601f8501601f19908116603f0116810190828211818310171561271e5761271e61269c565b8160405280935085815286868601111561273757600080fd5b858560208301376000602087830101525050509392505050565b600082601f83011261276257600080fd5b610830838335602085016126db565b60006020828403121561278357600080fd5b813567ffffffffffffffff81111561279a57600080fd5b6114de84828501612751565b803563ffffffff8116811461260d57600080fd5b6000602082840312156127cc57600080fd5b610830826127a6565b80151581146119c357600080fd5b600080604083850312156127f657600080fd5b8235612801816125ed565b91506020830135612811816127d5565b809150509250929050565b60008060008060006080868803121561283457600080fd5b853561283f816125ed565b945060208601359350604086013567ffffffffffffffff8082111561286357600080fd5b61286f89838a01612751565b9450606088013591508082111561288557600080fd5b818801915088601f83011261289957600080fd5b8135818111156128a857600080fd5b8960208285010111156128ba57600080fd5b9699959850939650602001949392505050565b600080600080608085870312156128e357600080fd5b84356128ee816125ed565b935060208501356128fe816125ed565b925060408501359150606085013567ffffffffffffffff81111561292157600080fd5b8501601f8101871361293257600080fd5b612941878235602084016126db565b91505092959194509250565b6000806040838503121561296057600080fd5b823561296b8161253e565b9150602083013567ffffffffffffffff81111561298757600080fd5b61299385828601612751565b9150509250929050565b6000806000606084860312156129b257600080fd5b83356129bd816125ed565b925060208401356129cd816125ed565b9150604084013567ffffffffffffffff808211156129ea57600080fd5b9085019060e082880312156129fe57600080fd5b612a066126b2565b823582811115612a1557600080fd5b612a2189828601612751565b825250602083013582811115612a3657600080fd5b612a4289828601612751565b602083015250604083013582811115612a5a57600080fd5b612a6689828601612751565b604083015250606083013582811115612a7e57600080fd5b612a8a89828601612751565b606083015250612a9c608084016127a6565b6080820152612aad60a08401612602565b60a082015260c083013582811115612ac457600080fd5b612ad089828601612751565b60c0830152508093505050509250925092565b60008060408385031215612af657600080fd5b8235612b01816125ed565b91506020830135612811816125ed565b600181811c90821680612b2557607f821691505b602082108103612b4557634e487b7160e01b600052602260045260246000fd5b50919050565b60208082526036908201527f235065726d697373696f6e436865636b23436865636b2063616c6c657220646f60408201527532b9903737ba103430bb32903832b936b4b9b9b4b7b760511b606082015260800190565b60208082526031908201527f4552433732313a207472616e736665722063616c6c6572206973206e6f74206f6040820152701ddb995c881b9bdc88185c1c1c9bdd9959607a1b606082015260800190565b600060208284031215612c0457600080fd5b8151610830816125ed565b600060208284031215612c2157600080fd5b8151610830816127d5565b601f8211156107a357600081815260208120601f850160051c81016020861015612c535750805b601f850160051c820191505b81811015610f7857828155600101612c5f565b815167ffffffffffffffff811115612c8c57612c8c61269c565b612ca081612c9a8454612b11565b84612c2c565b602080601f831160018114612cd55760008415612cbd5750858301515b600019600386901b1c1916600185901b178555610f78565b600085815260208120601f198616915b82811015612d0457888601518255948401946001909101908401612ce5565b5085821015612d225787850151600019600388901b60f8161c191681555b5050505050600190811b01905550565b683f6e616d653d30787360b81b815260008251612d56816009850160208701612571565b9190910160090192915050565b6f266465736372697074696f6e3d30787360801b815260008251612d8e816010850160208701612571565b9190910160100192915050565b6926696d6167653d30787360b01b815260008251612dc081600a850160208701612571565b91909101600a0192915050565b712665787465726e616c5f6c696e6b3d30787360701b815260008251612dfa816012850160208701612571565b9190910160120192915050565b7f2673656c6c65725f6665655f62617369735f706f696e74733d00000000000000815260008251612e3f816019850160208701612571565b9190910160190192915050565b6e266665655f726563697069656e743d60881b815260008251612e7681600f850160208701612571565b91909101600f0192915050565b60008154612e9081612b11565b60018281168015612ea85760018114612ebd57612eec565b60ff1984168752821515830287019450612eec565b8560005260208060002060005b85811015612ee35781548a820152908401908201612eca565b50505082870194505b5050505092915050565b6000612f02828a612e83565b88516020612f138284838e01612571565b89519190920191612f278284838d01612571565b88519190920191612f3b8284838c01612571565b87519190920191612f4f8284838b01612571565b86519190920191612f638284838a01612571565b85519190920191612f778284838901612571565b50019998505050505050505050565b60208082526032908201527f4552433732313a207472616e7366657220746f206e6f6e20455243373231526560408201527131b2b4bb32b91034b6b83632b6b2b73a32b960711b606082015260800190565b6000612fe48285612e83565b8351612ff4818360208801612571565b01949350505050565b634e487b7160e01b600052601160045260246000fd5b808202811582820484141761083357610833612ffd565b634e487b7160e01b600052603260045260246000fd5b8082018082111561083357610833612ffd565b60006001820161306557613065612ffd565b5060010190565b6001600160a01b038581168252841660208201526040810183905260806060820181905260009061309f90830184612595565b9695505050505050565b6000816130b8576130b8612ffd565b506000190190565b8181038181111561083357610833612ffd565b634e487b7160e01b600052603160045260246000fd5b600082516130fb818460208701612571565b9190910192915050565b60006020828403121561311757600080fd5b81516108308161253e56fe4552433732313a207472616e7366657220746f206e6f6e20455243373231526563656976657220696d706c656d656e7465724552433732313a206f776e657220717565727920666f72206e6f6e6578697374656e7420746f6b656e7016719027ff29c13bc4816903851ea968172a86b766c733b954fdabe53c87eea2646970667358221220b000a7126798b4c4f3e1a6a170aedd8f5aca6d16a7d03fe9fb1bf68cd2a1d55664736f6c63430008110033",
  "immutableReferences": {},
  "source": "// SPDX-License-Identifier: MIT\npragma solidity 0.8.17;\n\nimport '../openzeppelin/contracts/utils/Strings.sol';\nimport './libs/StringsExp.sol';\nimport './Module.sol';\nimport './libs/ERC721.sol';\n\ncontract ERC721_Module is Module, ERC721 {\n\tfunction _registerInterface(bytes4 interfaceId) internal virtual override(ERC165,ERC721) {\n\t\tERC165._registerInterface(interfaceId);\n\t}\n}\n\ncontract AssetBase is ERC721_Module {\n\tusing Strings for uint256;\n\tusing Strings for address;\n\tusing StringsExp for bytes;\n\n\tstruct InitContractURI {\n\t\tstring  name;\n\t\tstring  description;\n\t\tstring  image;\n\t\tstring  external_link;\n\t\tuint32  seller_fee_basis_points;\n\t\taddress fee_recipient;\n\t\tstring  contractURIPrefix;\n\t}\n\n\tstring  public image;\n\tstring  public external_link;\n\taddress public fee_recipient;\n\tuint32  public seller_fee_basis_points;\n\n\t/*{\n\t\t\"name\": \"OpenSea Creatures\",\n\t\t\"description\": \"OpenSea Creatures are adorable aquatic beings primarily for \\\n\t\t\tdemonstrating what can be done using the OpenSea platform. Adopt one today to try out all the OpenSea buying, selling, and bidding feature set.\",\n\t\t\"image\": \"external-link-url/image.png\",\n\t\t\"external_link\": \"external-link-url\",\n\t\t\"seller_fee_basis_points\": 100, # Indicates a 1% seller fee.\n\t\t\"fee_recipient\": \"0xA97F337c39cccE66adfeCB2BF99C1DdC54C2D721\" # Where seller fees will be paid to.\n\t}*/\n\tstring public contractURIPrefix;// = \"https://smart-dao.stars-mine.com/service-api/utils/printJSON?\";\n\n\tfunction initAssetBase(address host, address operator, InitContractURI memory uri) internal {\n\t\tinitModule(host, uri.description, operator);\n\t\tinitERC721(uri.name, uri.name);\n\t\timage = uri.image;\n\t\texternal_link = uri.external_link;\n\t\tfee_recipient = uri.fee_recipient == address(0) ? address(this): uri.fee_recipient;\n\t\tseller_fee_basis_points = uri.seller_fee_basis_points;\n\t\tcontractURIPrefix = uri.contractURIPrefix;\n\t}\n\n\tfunction contractURI() view public returns (string memory uri) {\n\t\tbytes memory a = abi.encodePacked(\"?name=0xs\",                      bytes(name()).toHexString());\n\t\tbytes memory b = abi.encodePacked(\"&description=0xs\",               bytes(_description).toHexString());\n\t\tbytes memory c = abi.encodePacked(\"&image=0xs\",                     bytes(image).toHexString());\n\t\tbytes memory d = abi.encodePacked(\"&external_link=0xs\",             bytes(external_link).toHexString());\n\t\tbytes memory e = abi.encodePacked(\"&seller_fee_basis_points=\",       uint256(seller_fee_basis_points).toString());\n\t\tbytes memory f = abi.encodePacked(\"&fee_recipient=\",                 fee_recipient.toHexString());\n\t\turi = string(abi.encodePacked(contractURIPrefix, a, b, c, d, e, f));\n\t}\n\n\tfunction set_seller_fee_basis_points(uint32 value) external Check(Action_Asset_set_seller_fee_basis_points) {\n\t\tseller_fee_basis_points = value;\n\t\temit Change(Change_Tag_Asset_set_seller_fee_basis_points, value);\n\t}\n\n\tfunction set_fee_recipient(address recipient) external OnlyDAO {\n\t\tfee_recipient = recipient;\n\t\temit Change(Change_Tag_Asset_set_fee_recipient, uint160(recipient));\n\t}\n}\n\ncontract Asset is AssetBase, IAsset {\n\tuint256[16] private  __; // reserved storage space\n\n\tfunction initAsset(address host, address operator, InitContractURI memory uri) external {\n\t\tinitAssetBase(host, operator, uri);\n\t\t_registerInterface(Asset_Type);\n\t}\n\n\tfunction safeMint(address to, uint256 tokenId, string memory _tokenURI, bytes calldata _data) public Check(Action_Asset_SafeMint) {\n\t\t_safeMint(to, tokenId, _data);\n\t\t_setTokenURI(tokenId, _tokenURI);\n\t}\n\n\tfunction _burn(uint256 tokenId) internal virtual override {\n\t\t// NOOP\n\t}\n}\n",
  "sourcePath": "/Users/louis/Project/hc/NFTSwap/SmartHolder/contracts/Asset.sol",
  "compiler": {
    "name": "solc",
    "version": "0.8.17+commit.8df45f5f.Emscripten.clang"
  },
  "schemaVersion": "3.4.11",
  "updatedAt": "2023-03-03T03:01:27.774Z",
  "devdoc": {
    "kind": "dev",
    "methods": {
      "approve(address,uint256)": {
        "details": "Approves another address to transfer the given token ID The zero address indicates there is no approved address. There can only be one approved address per token at a given time. Can only be called by the token owner or an approved operator.",
        "params": {
          "to": "address to be approved for the given token ID",
          "tokenId": "uint256 ID of the token to be approved"
        }
      },
      "balanceOf(address)": {
        "details": "Gets the balance of the specified address.",
        "params": {
          "owner": "address to query the balance of"
        },
        "returns": {
          "_0": "uint256 representing the amount owned by the passed address"
        }
      },
      "baseURI()": {
        "details": "Returns the base URI set via {_setBaseURI}. This will be automatically added as a prefix in {tokenURI} to each token's URI, or to the token ID if no specific URI is set for that token ID."
      },
      "getApproved(uint256)": {
        "details": "Gets the approved address for a token ID, or zero if no address set Reverts if the token ID does not exist.",
        "params": {
          "tokenId": "uint256 ID of the token to query the approval of"
        },
        "returns": {
          "_0": "address currently approved for the given token ID"
        }
      },
      "isApprovedForAll(address,address)": {
        "details": "Tells whether an operator is approved by a given owner.",
        "params": {
          "operator": "operator address which you want to query the approval of",
          "owner": "owner address which you want to query the approval of"
        },
        "returns": {
          "_0": "bool whether the given operator is approved by the given owner"
        }
      },
      "name()": {
        "details": "Gets the token name.",
        "returns": {
          "_0": "string representing the token name"
        }
      },
      "ownerOf(uint256)": {
        "details": "Gets the owner of the specified token ID.",
        "params": {
          "tokenId": "uint256 ID of the token to query the owner of"
        },
        "returns": {
          "_0": "address currently marked as the owner of the given token ID"
        }
      },
      "safeTransferFrom(address,address,uint256)": {
        "details": "Safely transfers the ownership of a given token ID to another address If the target address is a contract, it must implement {IERC721Receiver-onERC721Received}, which is called upon a safe transfer, and return the magic value `bytes4(keccak256(\"onERC721Received(address,address,uint256,bytes)\"))`; otherwise, the transfer is reverted. Requires the msg.sender to be the owner, approved, or operator",
        "params": {
          "from": "current owner of the token",
          "to": "address to receive the ownership of the given token ID",
          "tokenId": "uint256 ID of the token to be transferred"
        }
      },
      "safeTransferFrom(address,address,uint256,bytes)": {
        "details": "Safely transfers the ownership of a given token ID to another address If the target address is a contract, it must implement {IERC721Receiver-onERC721Received}, which is called upon a safe transfer, and return the magic value `bytes4(keccak256(\"onERC721Received(address,address,uint256,bytes)\"))`; otherwise, the transfer is reverted. Requires the _msgSender() to be the owner, approved, or operator",
        "params": {
          "_data": "bytes data to send along with a safe transfer check",
          "from": "current owner of the token",
          "to": "address to receive the ownership of the given token ID",
          "tokenId": "uint256 ID of the token to be transferred"
        }
      },
      "setApprovalForAll(address,bool)": {
        "details": "Sets or unsets the approval of a given operator An operator is allowed to transfer all tokens of the sender on their behalf.",
        "params": {
          "approved": "representing the status of the approval to be set",
          "operator": "operator address to set the approval"
        }
      },
      "supportsInterface(bytes4)": {
        "details": "See {IERC165-supportsInterface}. Time complexity O(1), guaranteed to always use less than 30 000 gas."
      },
      "symbol()": {
        "details": "Gets the token symbol.",
        "returns": {
          "_0": "string representing the token symbol"
        }
      },
      "tokenByIndex(uint256)": {
        "details": "Gets the token ID at a given index of all the tokens in this contract Reverts if the index is greater or equal to the total number of tokens.",
        "params": {
          "index": "uint256 representing the index to be accessed of the tokens list"
        },
        "returns": {
          "_0": "uint256 token ID at the given index of the tokens list"
        }
      },
      "tokenOfOwnerByIndex(address,uint256)": {
        "details": "Gets the token ID at a given index of the tokens list of the requested owner.",
        "params": {
          "index": "uint256 representing the index to be accessed of the requested tokens list",
          "owner": "address owning the tokens list to be accessed"
        },
        "returns": {
          "_0": "uint256 token ID at the given index of the tokens list owned by the requested address"
        }
      },
      "tokenURI(uint256)": {
        "details": "Returns the Uniform Resource Identifier (URI) for `tokenId` token."
      },
      "totalSupply()": {
        "details": "Gets the total amount of tokens stored by the contract.",
        "returns": {
          "_0": "uint256 representing the total amount of tokens"
        }
      },
      "transferFrom(address,address,uint256)": {
        "details": "Transfers the ownership of a given token ID to another address. Usage of this method is discouraged, use {safeTransferFrom} whenever possible. Requires the msg.sender to be the owner, approved, or operator.",
        "params": {
          "from": "current owner of the token",
          "to": "address to receive the ownership of the given token ID",
          "tokenId": "uint256 ID of the token to be transferred"
        }
      }
    },
    "version": 1
  },
  "userdoc": {
    "kind": "user",
    "methods": {},
    "version": 1
  }
}