{
  "contractName": "Asset",
  "abi": [
    {
      "inputs": [
        {
          "internalType": "bytes4",
          "name": "interfaceId",
          "type": "bytes4"
        }
      ],
      "name": "CheckInterfaceNoMatch",
      "type": "error"
    },
    {
      "inputs": [],
      "name": "NoPermissionToMintNFTs1155",
      "type": "error"
    },
    {
      "inputs": [],
      "name": "PermissionDenied",
      "type": "error"
    },
    {
      "inputs": [],
      "name": "PermissionDeniedForOnlyDAO",
      "type": "error"
    },
    {
      "inputs": [],
      "name": "TokenIDAlreadyExistsInAsset",
      "type": "error"
    },
    {
      "inputs": [],
      "name": "TokenIDMustEvenNumberInAsset",
      "type": "error"
    },
    {
      "anonymous": false,
      "inputs": [
        {
          "indexed": true,
          "internalType": "address",
          "name": "account",
          "type": "address"
        },
        {
          "indexed": true,
          "internalType": "address",
          "name": "operator",
          "type": "address"
        },
        {
          "indexed": false,
          "internalType": "bool",
          "name": "approved",
          "type": "bool"
        }
      ],
      "name": "ApprovalForAll",
      "type": "event"
    },
    {
      "anonymous": false,
      "inputs": [
        {
          "indexed": true,
          "internalType": "uint256",
          "name": "tag",
          "type": "uint256"
        },
        {
          "indexed": false,
          "internalType": "uint256",
          "name": "value",
          "type": "uint256"
        }
      ],
      "name": "Change",
      "type": "event"
    },
    {
      "anonymous": false,
      "inputs": [
        {
          "indexed": false,
          "internalType": "uint8",
          "name": "version",
          "type": "uint8"
        }
      ],
      "name": "Initialized",
      "type": "event"
    },
    {
      "anonymous": false,
      "inputs": [
        {
          "indexed": true,
          "internalType": "address",
          "name": "operator",
          "type": "address"
        },
        {
          "indexed": true,
          "internalType": "address",
          "name": "from",
          "type": "address"
        },
        {
          "indexed": true,
          "internalType": "address",
          "name": "to",
          "type": "address"
        },
        {
          "indexed": false,
          "internalType": "uint256[]",
          "name": "ids",
          "type": "uint256[]"
        },
        {
          "indexed": false,
          "internalType": "uint256[]",
          "name": "values",
          "type": "uint256[]"
        }
      ],
      "name": "TransferBatch",
      "type": "event"
    },
    {
      "anonymous": false,
      "inputs": [
        {
          "indexed": true,
          "internalType": "address",
          "name": "operator",
          "type": "address"
        },
        {
          "indexed": true,
          "internalType": "address",
          "name": "from",
          "type": "address"
        },
        {
          "indexed": true,
          "internalType": "address",
          "name": "to",
          "type": "address"
        },
        {
          "indexed": false,
          "internalType": "uint256",
          "name": "id",
          "type": "uint256"
        },
        {
          "indexed": false,
          "internalType": "uint256",
          "name": "value",
          "type": "uint256"
        }
      ],
      "name": "TransferSingle",
      "type": "event"
    },
    {
      "anonymous": false,
      "inputs": [
        {
          "indexed": false,
          "internalType": "string",
          "name": "value",
          "type": "string"
        },
        {
          "indexed": true,
          "internalType": "uint256",
          "name": "id",
          "type": "uint256"
        }
      ],
      "name": "URI",
      "type": "event"
    },
    {
      "inputs": [
        {
          "internalType": "address",
          "name": "account",
          "type": "address"
        },
        {
          "internalType": "uint256",
          "name": "id",
          "type": "uint256"
        }
      ],
      "name": "balanceOf",
      "outputs": [
        {
          "internalType": "uint256",
          "name": "",
          "type": "uint256"
        }
      ],
      "stateMutability": "view",
      "type": "function",
      "constant": true
    },
    {
      "inputs": [
        {
          "internalType": "address[]",
          "name": "accounts",
          "type": "address[]"
        },
        {
          "internalType": "uint256[]",
          "name": "ids",
          "type": "uint256[]"
        }
      ],
      "name": "balanceOfBatch",
      "outputs": [
        {
          "internalType": "uint256[]",
          "name": "",
          "type": "uint256[]"
        }
      ],
      "stateMutability": "view",
      "type": "function",
      "constant": true
    },
    {
      "inputs": [],
      "name": "baseURI",
      "outputs": [
        {
          "internalType": "string",
          "name": "",
          "type": "string"
        }
      ],
      "stateMutability": "view",
      "type": "function",
      "constant": true
    },
    {
      "inputs": [],
      "name": "base_contract_uri",
      "outputs": [
        {
          "internalType": "string",
          "name": "",
          "type": "string"
        }
      ],
      "stateMutability": "view",
      "type": "function",
      "constant": true
    },
    {
      "inputs": [
        {
          "internalType": "bytes4",
          "name": "interfaceId",
          "type": "bytes4"
        }
      ],
      "name": "checkInterface",
      "outputs": [],
      "stateMutability": "view",
      "type": "function",
      "constant": true
    },
    {
      "inputs": [],
      "name": "contractURI",
      "outputs": [
        {
          "internalType": "string",
          "name": "uri",
          "type": "string"
        }
      ],
      "stateMutability": "view",
      "type": "function",
      "constant": true
    },
    {
      "inputs": [],
      "name": "description",
      "outputs": [
        {
          "internalType": "string",
          "name": "",
          "type": "string"
        }
      ],
      "stateMutability": "view",
      "type": "function",
      "constant": true
    },
    {
      "inputs": [
        {
          "internalType": "uint256",
          "name": "id",
          "type": "uint256"
        }
      ],
      "name": "exists",
      "outputs": [
        {
          "internalType": "bool",
          "name": "",
          "type": "bool"
        }
      ],
      "stateMutability": "view",
      "type": "function",
      "constant": true
    },
    {
      "inputs": [],
      "name": "external_link",
      "outputs": [
        {
          "internalType": "string",
          "name": "",
          "type": "string"
        }
      ],
      "stateMutability": "view",
      "type": "function",
      "constant": true
    },
    {
      "inputs": [],
      "name": "fee_recipient",
      "outputs": [
        {
          "internalType": "address",
          "name": "",
          "type": "address"
        }
      ],
      "stateMutability": "view",
      "type": "function",
      "constant": true
    },
    {
      "inputs": [],
      "name": "host",
      "outputs": [
        {
          "internalType": "contract IDAO",
          "name": "",
          "type": "address"
        }
      ],
      "stateMutability": "view",
      "type": "function",
      "constant": true
    },
    {
      "inputs": [],
      "name": "image",
      "outputs": [
        {
          "internalType": "string",
          "name": "",
          "type": "string"
        }
      ],
      "stateMutability": "view",
      "type": "function",
      "constant": true
    },
    {
      "inputs": [],
      "name": "impl",
      "outputs": [
        {
          "internalType": "address",
          "name": "",
          "type": "address"
        }
      ],
      "stateMutability": "view",
      "type": "function",
      "constant": true
    },
    {
      "inputs": [
        {
          "internalType": "address",
          "name": "account",
          "type": "address"
        },
        {
          "internalType": "address",
          "name": "operator",
          "type": "address"
        }
      ],
      "name": "isApprovedForAll",
      "outputs": [
        {
          "internalType": "bool",
          "name": "",
          "type": "bool"
        }
      ],
      "stateMutability": "view",
      "type": "function",
      "constant": true
    },
    {
      "inputs": [],
      "name": "name",
      "outputs": [
        {
          "internalType": "string",
          "name": "",
          "type": "string"
        }
      ],
      "stateMutability": "view",
      "type": "function",
      "constant": true
    },
    {
      "inputs": [],
      "name": "operator",
      "outputs": [
        {
          "internalType": "address",
          "name": "",
          "type": "address"
        }
      ],
      "stateMutability": "view",
      "type": "function",
      "constant": true
    },
    {
      "inputs": [
        {
          "internalType": "address",
          "name": "from",
          "type": "address"
        },
        {
          "internalType": "address",
          "name": "to",
          "type": "address"
        },
        {
          "internalType": "uint256[]",
          "name": "ids",
          "type": "uint256[]"
        },
        {
          "internalType": "uint256[]",
          "name": "amounts",
          "type": "uint256[]"
        },
        {
          "internalType": "bytes",
          "name": "data",
          "type": "bytes"
        }
      ],
      "name": "safeBatchTransferFrom",
      "outputs": [],
      "stateMutability": "nonpayable",
      "type": "function"
    },
    {
      "inputs": [
        {
          "internalType": "address",
          "name": "from",
          "type": "address"
        },
        {
          "internalType": "address",
          "name": "to",
          "type": "address"
        },
        {
          "internalType": "uint256",
          "name": "id",
          "type": "uint256"
        },
        {
          "internalType": "uint256",
          "name": "amount",
          "type": "uint256"
        },
        {
          "internalType": "bytes",
          "name": "data",
          "type": "bytes"
        }
      ],
      "name": "safeTransferFrom",
      "outputs": [],
      "stateMutability": "nonpayable",
      "type": "function"
    },
    {
      "inputs": [],
      "name": "seller_fee_basis_points",
      "outputs": [
        {
          "internalType": "uint32",
          "name": "",
          "type": "uint32"
        }
      ],
      "stateMutability": "view",
      "type": "function",
      "constant": true
    },
    {
      "inputs": [
        {
          "internalType": "address",
          "name": "operator",
          "type": "address"
        },
        {
          "internalType": "bool",
          "name": "approved",
          "type": "bool"
        }
      ],
      "name": "setApprovalForAll",
      "outputs": [],
      "stateMutability": "nonpayable",
      "type": "function"
    },
    {
      "inputs": [
        {
          "internalType": "string",
          "name": "value",
          "type": "string"
        }
      ],
      "name": "setDescription",
      "outputs": [],
      "stateMutability": "nonpayable",
      "type": "function"
    },
    {
      "inputs": [
        {
          "internalType": "address",
          "name": "operator_",
          "type": "address"
        }
      ],
      "name": "setOperator",
      "outputs": [],
      "stateMutability": "nonpayable",
      "type": "function"
    },
    {
      "inputs": [
        {
          "internalType": "address",
          "name": "recipient",
          "type": "address"
        }
      ],
      "name": "set_fee_recipient",
      "outputs": [],
      "stateMutability": "nonpayable",
      "type": "function"
    },
    {
      "inputs": [
        {
          "internalType": "uint32",
          "name": "value",
          "type": "uint32"
        }
      ],
      "name": "set_seller_fee_basis_points",
      "outputs": [],
      "stateMutability": "nonpayable",
      "type": "function"
    },
    {
      "inputs": [
        {
          "internalType": "uint256",
          "name": "id",
          "type": "uint256"
        }
      ],
      "name": "totalSupply",
      "outputs": [
        {
          "internalType": "uint256",
          "name": "",
          "type": "uint256"
        }
      ],
      "stateMutability": "view",
      "type": "function",
      "constant": true
    },
    {
      "inputs": [
        {
          "internalType": "address",
          "name": "impl_",
          "type": "address"
        }
      ],
      "name": "upgrade",
      "outputs": [],
      "stateMutability": "nonpayable",
      "type": "function"
    },
    {
      "inputs": [
        {
          "internalType": "bytes4",
          "name": "interfaceId",
          "type": "bytes4"
        }
      ],
      "name": "supportsInterface",
      "outputs": [
        {
          "internalType": "bool",
          "name": "",
          "type": "bool"
        }
      ],
      "stateMutability": "view",
      "type": "function",
      "constant": true
    },
    {
      "inputs": [
        {
          "internalType": "address",
          "name": "host",
          "type": "address"
        },
        {
          "internalType": "address",
          "name": "operator",
          "type": "address"
        },
        {
          "components": [
            {
              "internalType": "string",
              "name": "name",
              "type": "string"
            },
            {
              "internalType": "string",
              "name": "description",
              "type": "string"
            },
            {
              "internalType": "string",
              "name": "image",
              "type": "string"
            },
            {
              "internalType": "string",
              "name": "external_link",
              "type": "string"
            },
            {
              "internalType": "uint32",
              "name": "seller_fee_basis_points",
              "type": "uint32"
            },
            {
              "internalType": "address",
              "name": "fee_recipient",
              "type": "address"
            },
            {
              "internalType": "string",
              "name": "base_contract_uri",
              "type": "string"
            },
            {
              "internalType": "string",
              "name": "base_uri",
              "type": "string"
            }
          ],
          "internalType": "struct AssetModule.InitContractURI",
          "name": "uri",
          "type": "tuple"
        }
      ],
      "name": "initAsset",
      "outputs": [],
      "stateMutability": "nonpayable",
      "type": "function"
    },
    {
      "inputs": [
        {
          "internalType": "address",
          "name": "to",
          "type": "address"
        },
        {
          "internalType": "uint256",
          "name": "id",
          "type": "uint256"
        },
        {
          "internalType": "string",
          "name": "_tokenURI",
          "type": "string"
        },
        {
          "internalType": "bytes",
          "name": "_data",
          "type": "bytes"
        }
      ],
      "name": "safeMint",
      "outputs": [],
      "stateMutability": "nonpayable",
      "type": "function"
    },
    {
      "inputs": [
        {
          "internalType": "address",
          "name": "to",
          "type": "address"
        },
        {
          "internalType": "uint256",
          "name": "id",
          "type": "uint256"
        },
        {
          "internalType": "string",
          "name": "_tokenURI",
          "type": "string"
        },
        {
          "internalType": "uint256",
          "name": "minPrice",
          "type": "uint256"
        }
      ],
      "name": "makeNFT",
      "outputs": [],
      "stateMutability": "nonpayable",
      "type": "function"
    },
    {
      "inputs": [
        {
          "internalType": "address",
          "name": "to",
          "type": "address"
        },
        {
          "internalType": "uint256",
          "name": "id",
          "type": "uint256"
        },
        {
          "internalType": "uint256",
          "name": "amount",
          "type": "uint256"
        },
        {
          "internalType": "uint256",
          "name": "minPrice",
          "type": "uint256"
        }
      ],
      "name": "copyNFTs",
      "outputs": [],
      "stateMutability": "nonpayable",
      "type": "function"
    },
    {
      "inputs": [
        {
          "internalType": "uint256",
          "name": "id",
          "type": "uint256"
        }
      ],
      "name": "uri",
      "outputs": [
        {
          "internalType": "string",
          "name": "",
          "type": "string"
        }
      ],
      "stateMutability": "view",
      "type": "function",
      "constant": true
    }
  ],
  "bytecode": "0x608060405234801561001057600080fd5b50613794806100206000396000f3fe608060405234801561001057600080fd5b50600436106101ef5760003560e01c80637284e4161161010f578063b3ab15fb116100a2578063e985e9c511610071578063e985e9c51461044a578063f242432a14610486578063f3ccaac014610499578063f437bc59146104a157600080fd5b8063b3ab15fb146103fc578063b55bc6171461040f578063bd85b03914610422578063e8a3d4851461044257600080fd5b80638abf6077116100de5780638abf6077146103b257806390c3f38f146103c357806391eb3dee146103d6578063a22cb465146103e957600080fd5b80637284e4161461037c578063758f969a146103845780637972bdf3146103975780638a1afff81461039f57600080fd5b806330cc317b116101875780634f558e79116101565780634f558e7914610301578063570ca735146103235780636c0360eb1461034857806371fcf4681461035057600080fd5b806330cc317b146102a8578063350e4dd7146102bb5780634c6e425b146102ce5780634e1273f4146102e157600080fd5b80630e89341c116101c35780630e89341c1461026757806312dba7851461027a5780632b79677e146102825780632eb2c2d61461029557600080fd5b8062fdd58e146101f457806301ffc9a71461021a57806306fdde031461023d5780630900f01014610252575b600080fd5b6102076102023660046127c3565b6104b2565b6040519081526020015b60405180910390f35b61022d610228366004612805565b61054d565b6040519015158152602001610211565b610245610580565b6040516102119190612872565b610265610260366004612885565b610612565b005b6102456102753660046128a2565b61067d565b6102456106b2565b6102656102903660046128bb565b610740565b6102656102a3366004612a68565b610a70565b6102656102b6366004612885565b610abc565b6102656102c9366004612b15565b610b20565b6102656102dc366004612805565b610bc3565b6102f46102ef366004612b75565b610bf8565b6040516102119190612c7c565b61022d61030f3660046128a2565b600090815260166020526040902054151590565b6003546001600160a01b03165b6040516001600160a01b039091168152602001610211565b610245610d21565b60105461036790600160a01b900463ffffffff1681565b60405163ffffffff9091168152602001610211565b610245610d2e565b601054610330906001600160a01b031681565b610245610d3d565b6102656103ad366004612ca3565b610d4a565b6000546001600160a01b0316610330565b6102656103d1366004612e0d565b610d77565b6102656103e4366004612e49565b610ec8565b6102656103f7366004612e72565b611023565b61026561040a366004612885565b611032565b61026561041d366004612eab565b611096565b6102076104303660046128a2565b60009081526016602052604090205490565b610245611231565b61022d610458366004612f2a565b6001600160a01b03918216600090815260136020908152604080832093909416825291909152205460ff1690565b610265610494366004612f58565b611434565b610245611479565b6002546001600160a01b0316610330565b60006001600160a01b0383166105225760405162461bcd60e51b815260206004820152602a60248201527f455243313135353a2061646472657373207a65726f206973206e6f742061207660448201526930b634b21037bbb732b960b11b60648201526084015b60405180910390fd5b5060008181526012602090815260408083206001600160a01b03861684529091529020545b92915050565b600061055882611486565b8061054757506001600160e01b0319821660009081526001602052604090205460ff16610547565b6060600d805461058f90612fc0565b80601f01602080910402602001604051908101604052809291908181526020018280546105bb90612fc0565b80156106085780601f106105dd57610100808354040283529160200191610608565b820191906000526020600020905b8154815290600101906020018083116105eb57829003601f168201915b5050505050905090565b61061a6114bc565b61063757604051631b4004a360e31b815260040160405180910390fd5b600080546001600160a01b0319166001600160a01b03831690811790915560405190815260039060008051602061373f833981519152906020015b60405180910390a250565b606061068a600283612ffa565b60000361069a57610547826115fb565b6105476106a8600184613032565b6115fb565b919050565b601180546106bf90612fc0565b80601f01602080910402602001604051908101604052809291908181526020018280546106eb90612fc0565b80156107385780601f1061070d57610100808354040283529160200191610738565b820191906000526020600020905b81548152906001019060200180831161071b57829003601f168201915b505050505081565b61074b600284612ffa565b60010361076b57604051635a708f0360e01b815260040160405180910390fd5b61077533846104b2565b6000036109be576040516bffffffffffffffffffffffff193060601b1660208201526034810184905260009060540160408051601f198184030181528282528051602091820120600254630f7d377d60e21b855292519094506001600160a01b0390921692633df4ddf492600480830193928290030181865afa158015610800573d6000803e3d6000fd5b505050506040513d601f19601f820116820180604052508101906108249190613045565b6001600160a01b031662fdd58e336040516001600160e01b031960e084901b1681526001600160a01b03909116600482015260248101849052604401602060405180830381865afa15801561087d573d6000803e3d6000fd5b505050506040513d601f19601f820116820180604052508101906108a19190613062565b6000036109bc57600260009054906101000a90046001600160a01b03166001600160a01b0316635a8ac02d6040518163ffffffff1660e01b8152600401602060405180830381865afa1580156108fb573d6000803e3d6000fd5b505050506040513d601f19601f8201168201806040525081019061091f9190613045565b6001600160a01b031662fdd58e336040516001600160e01b031960e084901b1681526001600160a01b03909116600482015260248101849052604401602060405180830381865afa158015610978573d6000803e3d6000fd5b505050506040513d601f19601f8201168201806040525081019061099c9190613062565b6000036109bc5760405163292c3a8560e01b815260040160405180910390fd5b505b60025460408051635a8ac02d60e01b81529051610a6a926001600160a01b031691635a8ac02d9160048083019260209291908290030181865afa158015610a09573d6000803e3d6000fd5b505050506040513d601f19601f82011682018060405250810190610a2d9190613045565b610a3885600161307b565b604080516001600160a01b0389166020820152908101859052859060600160405160208183030381529060405261175d565b50505050565b6001600160a01b038516331480610a8c5750610a8c8533610458565b610aa85760405162461bcd60e51b81526004016105199061308e565b610ab58585858585611882565b5050505050565b610ac46114bc565b610ae157604051631b4004a360e31b815260040160405180910390fd5b601080546001600160a01b0319166001600160a01b03831690811790915560405190815260079060008051602061373f83398151915290602001610672565b60025460408051630f7d377d60e21b81529051610a6a926001600160a01b031691633df4ddf49160048083019260209291908290030181865afa158015610b6b573d6000803e3d6000fd5b505050506040513d601f19601f82011682018060405250810190610b8f9190613045565b604080516001600160a01b038816602082015290810184905285908590606001604051602081830303815290604052611096565b610bcc8161054d565b610bf557604051632aae78ef60e01b81526001600160e01b031982166004820152602401610519565b50565b60608151835114610c5d5760405162461bcd60e51b815260206004820152602960248201527f455243313135353a206163636f756e747320616e6420696473206c656e677468604482015268040dad2e6dac2e8c6d60bb1b6064820152608401610519565b600083516001600160401b03811115610c7857610c786128f6565b604051908082528060200260200182016040528015610ca1578160200160208202803683370190505b50905060005b8451811015610d1957610cec858281518110610cc557610cc56130dc565b6020026020010151858381518110610cdf57610cdf6130dc565b60200260200101516104b2565b828281518110610cfe57610cfe6130dc565b6020908102919091010152610d12816130f2565b9050610ca7565b509392505050565b601480546106bf90612fc0565b60606004805461058f90612fc0565b600f80546106bf90612fc0565b610d55838383611a68565b610d628160e00151611b15565b610d726368ca456f60e01b611b21565b505050565b63d0a4ad96610d846114bc565b610e8d57600260009054906101000a90046001600160a01b03166001600160a01b031663e3f6b5446040518163ffffffff1660e01b8152600401602060405180830381865afa158015610ddb573d6000803e3d6000fd5b505050506040513d601f19601f82011682018060405250810190610dff9190613045565b60405163a8a555c560e01b8152336004820152602481018390526001600160a01b03919091169063a8a555c590604401602060405180830381865afa158015610e4c573d6000803e3d6000fd5b505050506040513d601f19601f82011682018060405250810190610e70919061310b565b610e8d57604051630782484160e21b815260040160405180910390fd5b6004610e99838261316e565b50600160008051602061373f8339815191526000604051610ebc91815260200190565b60405180910390a25050565b6391eb3dee610ed56114bc565b610fde57600260009054906101000a90046001600160a01b03166001600160a01b031663e3f6b5446040518163ffffffff1660e01b8152600401602060405180830381865afa158015610f2c573d6000803e3d6000fd5b505050506040513d601f19601f82011682018060405250810190610f509190613045565b60405163a8a555c560e01b8152336004820152602481018390526001600160a01b03919091169063a8a555c590604401602060405180830381865afa158015610f9d573d6000803e3d6000fd5b505050506040513d601f19601f82011682018060405250810190610fc1919061310b565b610fde57604051630782484160e21b815260040160405180910390fd5b6010805463ffffffff60a01b1916600160a01b63ffffffff85169081029190911790915560405190815260069060008051602061373f83398151915290602001610ebc565b61102e338383611ba3565b5050565b61103a6114bc565b61105757604051631b4004a360e31b815260040160405180910390fd5b600380546001600160a01b0319166001600160a01b03831690811790915560405190815260029060008051602061373f83398151915290602001610672565b6359baef2a6110a36114bc565b6111ac57600260009054906101000a90046001600160a01b03166001600160a01b031663e3f6b5446040518163ffffffff1660e01b8152600401602060405180830381865afa1580156110fa573d6000803e3d6000fd5b505050506040513d601f19601f8201168201806040525081019061111e9190613045565b60405163a8a555c560e01b8152336004820152602481018390526001600160a01b03919091169063a8a555c590604401602060405180830381865afa15801561116b573d6000803e3d6000fd5b505050506040513d601f19601f8201168201806040525081019061118f919061310b565b6111ac57604051630782484160e21b815260040160405180910390fd5b6111b7600285612ffa565b6001036111d757604051635a708f0360e01b815260040160405180910390fd5b60008481526016602052604090205415611204576040516343c8eb7760e11b815260040160405180910390fd5b611211858560018561175d565b6000848152601560205260409020611229848261316e565b505050505050565b606060006112c8600d805461124590612fc0565b80601f016020809104026020016040519081016040528092919081815260200182805461127190612fc0565b80156112be5780601f10611293576101008083540402835291602001916112be565b820191906000526020600020905b8154815290600101906020018083116112a157829003601f168201915b5050505050611c83565b6040516020016112d8919061322d565b604051602081830303815290604052905060006112fb6004805461124590612fc0565b60405160200161130b919061325e565b6040516020818303038152906040529050600061132e600e805461124590612fc0565b60405160200161133e9190613296565b60405160208183030381529060405290506000611361600f805461124590612fc0565b60405160200161137191906132c8565b60408051808303601f190181529190526010549091506000906113a090600160a01b900463ffffffff16611ddb565b6040516020016113b09190613302565b60408051601f198184030181529190526010549091506000906113db906001600160a01b0316611e6d565b6040516020016113eb9190613347565b6040516020818303038152906040529050601186868686868660405160200161141a97969594939291906133f1565b604051602081830303815290604052965050505050505090565b6001600160a01b03851633148061145057506114508533610458565b61146c5760405162461bcd60e51b81526004016105199061308e565b610ab58585858585611e83565b600e80546106bf90612fc0565b60006001600160e01b03198216636cdb3d1360e11b148061054757506001600160e01b031982166303a24d0760e21b1492915050565b60035460009033906001600160a01b031681146115f357600260009054906101000a90046001600160a01b03166001600160a01b031663570ca7356040518163ffffffff1660e01b8152600401602060405180830381865afa158015611526573d6000803e3d6000fd5b505050506040513d601f19601f8201168201806040525081019061154a9190613045565b6001600160a01b0316816001600160a01b0316146115f357600260009054906101000a90046001600160a01b03166001600160a01b031663ebf0c7176040518163ffffffff1660e01b8152600401602060405180830381865afa1580156115b5573d6000803e3d6000fd5b505050506040513d601f19601f820116820180604052508101906115d99190613045565b6001600160a01b0316816001600160a01b03161491505090565b600191505090565b60008181526015602052604081208054606092919061161990612fc0565b80601f016020809104026020016040519081016040528092919081815260200182805461164590612fc0565b80156116925780601f1061166757610100808354040283529160200191611692565b820191906000526020600020905b81548152906001019060200180831161167557829003601f168201915b50505050509050600081511161173257601480546116af90612fc0565b80601f01602080910402602001604051908101604052809291908181526020018280546116db90612fc0565b80156117285780601f106116fd57610100808354040283529160200191611728565b820191906000526020600020905b81548152906001019060200180831161170b57829003601f168201915b5050505050611756565b601481604051602001611746929190613481565b6040516020818303038152906040525b9392505050565b6001600160a01b0384166117bd5760405162461bcd60e51b815260206004820152602160248201527f455243313135353a206d696e7420746f20746865207a65726f206164647265736044820152607360f81b6064820152608401610519565b3360006117c985611fbf565b905060006117d685611fbf565b90506117e78360008985858961200a565b60008681526012602090815260408083206001600160a01b038b1684529091528120805487929061181990849061307b565b909155505060408051878152602081018790526001600160a01b03808a1692600092918716917fc3d58168c5ae7397731d063d5bbf3d657854427343f4c083240f7aacaa2d0f62910160405180910390a461187983600089898989612183565b50505050505050565b81518351146118e45760405162461bcd60e51b815260206004820152602860248201527f455243313135353a2069647320616e6420616d6f756e7473206c656e677468206044820152670dad2e6dac2e8c6d60c31b6064820152608401610519565b6001600160a01b03841661190a5760405162461bcd60e51b8152600401610519906134a6565b3361191981878787878761200a565b60005b8451811015611a02576000858281518110611939576119396130dc565b602002602001015190506000858381518110611957576119576130dc565b60209081029190910181015160008481526012835260408082206001600160a01b038e1683529093529190912054909150818110156119a85760405162461bcd60e51b8152600401610519906134eb565b60008381526012602090815260408083206001600160a01b038e8116855292528083208585039055908b168252812080548492906119e790849061307b565b92505081905550505050806119fb906130f2565b905061191c565b50846001600160a01b0316866001600160a01b0316826001600160a01b03167f4a39dc06d4c0dbc64b70af90fd698a233a518aa5d07e595d983b8c0526c8f7fb8787604051611a52929190613535565b60405180910390a46112298187878787876122de565b611a7783826020015184612399565b8051600d90611a86908261316e565b506040810151600e90611a99908261316e565b506060810151600f90611aac908261316e565b5060a08101516001600160a01b031615611aca578060a00151611acc565b305b60108054608084015163ffffffff16600160a01b026001600160c01b03199091166001600160a01b03939093169290921791909117905560c0810151601190610a6a908261316e565b601461102e828261316e565b6001600160e01b03198082169003611b7b5760405162461bcd60e51b815260206004820152601c60248201527f4552433136353a20696e76616c696420696e74657266616365206964000000006044820152606401610519565b6001600160e01b0319166000908152600160208190526040909120805460ff19169091179055565b816001600160a01b0316836001600160a01b031603611c165760405162461bcd60e51b815260206004820152602960248201527f455243313135353a2073657474696e6720617070726f76616c20737461747573604482015268103337b91039b2b63360b91b6064820152608401610519565b6001600160a01b03838116600081815260136020908152604080832094871680845294825291829020805460ff191686151590811790915591519182527f17307eab39ab6107e8899845ad3d59bd9653f200f220920489ca2b5937696c31910160405180910390a3505050565b6060600082516002611c959190613563565b6001600160401b03811115611cac57611cac6128f6565b6040519080825280601f01601f191660200182016040528015611cd6576020820181803683370190505b50905060005b8351811015611dd4576000848281518110611cf957611cf96130dc565b016020015160f881901c91506f181899199a1a9b1b9c1cb0b131b232b360811b9060fc1c60108110611d2d57611d2d6130dc565b1a60f81b83600184901b81518110611d4757611d476130dc565b60200101906001600160f81b031916908160001a9053506f181899199a1a9b1b9c1cb0b131b232b360811b600f821660108110611d8657611d866130dc565b1a60f81b83611d99600185811b9061307b565b81518110611da957611da96130dc565b60200101906001600160f81b031916908160001a905350508080611dcc906130f2565b915050611cdc565b5092915050565b60606000611de8836123fd565b60010190506000816001600160401b03811115611e0757611e076128f6565b6040519080825280601f01601f191660200182016040528015611e31576020820181803683370190505b5090508181016020015b600019016f181899199a1a9b1b9c1cb0b131b232b360811b600a86061a8153600a8504945084611e3b57509392505050565b60606105476001600160a01b03831660146124d5565b6001600160a01b038416611ea95760405162461bcd60e51b8152600401610519906134a6565b336000611eb585611fbf565b90506000611ec285611fbf565b9050611ed283898985858961200a565b60008681526012602090815260408083206001600160a01b038c16845290915290205485811015611f155760405162461bcd60e51b8152600401610519906134eb565b60008781526012602090815260408083206001600160a01b038d8116855292528083208985039055908a16825281208054889290611f5490849061307b565b909155505060408051888152602081018890526001600160a01b03808b16928c821692918816917fc3d58168c5ae7397731d063d5bbf3d657854427343f4c083240f7aacaa2d0f62910160405180910390a4611fb4848a8a8a8a8a612183565b505050505050505050565b60408051600180825281830190925260609160009190602080830190803683370190505090508281600081518110611ff957611ff96130dc565b602090810291909101015292915050565b6001600160a01b0385166120915760005b835181101561208f57828181518110612036576120366130dc565b602002602001015160166000868481518110612054576120546130dc565b602002602001015181526020019081526020016000206000828254612079919061307b565b909155506120889050816130f2565b905061201b565b505b6001600160a01b0384166112295760005b83518110156118795760008482815181106120bf576120bf6130dc565b6020026020010151905060008483815181106120dd576120dd6130dc565b60200260200101519050600060166000848152602001908152602001600020549050818110156121605760405162461bcd60e51b815260206004820152602860248201527f455243313135353a206275726e20616d6f756e74206578636565647320746f74604482015267616c537570706c7960c01b6064820152608401610519565b6000928352601660205260409092209103905561217c816130f2565b90506120a2565b6001600160a01b0384163b156112295760405163f23a6e6160e01b81526001600160a01b0385169063f23a6e61906121c7908990899088908890889060040161357a565b6020604051808303816000875af1925050508015612202575060408051601f3d908101601f191682019092526121ff918101906135bf565b60015b6122ae5761220e6135dc565b806308c379a00361224757506122226135f8565b8061222d5750612249565b8060405162461bcd60e51b81526004016105199190612872565b505b60405162461bcd60e51b815260206004820152603460248201527f455243313135353a207472616e7366657220746f206e6f6e2d455243313135356044820152732932b1b2b4bb32b91034b6b83632b6b2b73a32b960611b6064820152608401610519565b6001600160e01b0319811663f23a6e6160e01b146118795760405162461bcd60e51b815260040161051990613681565b6001600160a01b0384163b156112295760405163bc197c8160e01b81526001600160a01b0385169063bc197c819061232290899089908890889088906004016136c9565b6020604051808303816000875af192505050801561235d575060408051601f3d908101601f1916820190925261235a918101906135bf565b60015b6123695761220e6135dc565b6001600160e01b0319811663bc197c8160e01b146118795760405162461bcd60e51b815260040161051990613681565b6123a1612670565b6123b1630d64f40d60e31b611b21565b600280546001600160a01b0319166001600160a01b03851617905560046123d8838261316e565b50600380546001600160a01b0319166001600160a01b03929092169190911790555050565b60008072184f03e93ff9f4daa797ed6e38ed64bf6a1f0160401b831061243c5772184f03e93ff9f4daa797ed6e38ed64bf6a1f0160401b830492506040015b6d04ee2d6d415b85acef81000000008310612468576d04ee2d6d415b85acef8100000000830492506020015b662386f26fc10000831061248657662386f26fc10000830492506010015b6305f5e100831061249e576305f5e100830492506008015b61271083106124b257612710830492506004015b606483106124c4576064830492506002015b600a83106105475760010192915050565b606060006124e4836002613563565b6124ef90600261307b565b6001600160401b03811115612506576125066128f6565b6040519080825280601f01601f191660200182016040528015612530576020820181803683370190505b509050600360fc1b8160008151811061254b5761254b6130dc565b60200101906001600160f81b031916908160001a905350600f60fb1b8160018151811061257a5761257a6130dc565b60200101906001600160f81b031916908160001a905350600061259e846002613563565b6125a990600161307b565b90505b6001811115612621576f181899199a1a9b1b9c1cb0b131b232b360811b85600f16601081106125dd576125dd6130dc565b1a60f81b8282815181106125f3576125f36130dc565b60200101906001600160f81b031916908160001a90535060049490941c9361261a81613727565b90506125ac565b5083156117565760405162461bcd60e51b815260206004820181905260248201527f537472696e67733a20686578206c656e67746820696e73756666696369656e746044820152606401610519565b600054600160a81b900460ff161580801561269857506000546001600160a01b90910460ff16105b806126b95750303b1580156126b95750600054600160a01b900460ff166001145b61271c5760405162461bcd60e51b815260206004820152602e60248201527f496e697469616c697a61626c653a20636f6e747261637420697320616c72656160448201526d191e481a5b9a5d1a585b1a5e995960921b6064820152608401610519565b6000805460ff60a01b1916600160a01b1790558015612749576000805460ff60a81b1916600160a81b1790555b6127596301ffc9a760e01b611b21565b8015610bf5576000805460ff60a81b19169055604051600181527f7f26b83ff96e1f2b6a682f133852f6798a09c465da95921460cefb38474024989060200160405180910390a150565b6001600160a01b0381168114610bf557600080fd5b80356106ad816127a3565b600080604083850312156127d657600080fd5b82356127e1816127a3565b946020939093013593505050565b6001600160e01b031981168114610bf557600080fd5b60006020828403121561281757600080fd5b8135611756816127ef565b60005b8381101561283d578181015183820152602001612825565b50506000910152565b6000815180845261285e816020860160208601612822565b601f01601f19169290920160200192915050565b6020815260006117566020830184612846565b60006020828403121561289757600080fd5b8135611756816127a3565b6000602082840312156128b457600080fd5b5035919050565b600080600080608085870312156128d157600080fd5b84356128dc816127a3565b966020860135965060408601359560600135945092505050565b634e487b7160e01b600052604160045260246000fd5b601f8201601f191681016001600160401b0381118282101715612931576129316128f6565b6040525050565b60405161010081016001600160401b038111828210171561295b5761295b6128f6565b60405290565b60006001600160401b0382111561297a5761297a6128f6565b5060051b60200190565b600082601f83011261299557600080fd5b813560206129a282612961565b6040516129af828261290c565b83815260059390931b85018201928281019150868411156129cf57600080fd5b8286015b848110156129ea57803583529183019183016129d3565b509695505050505050565b600082601f830112612a0657600080fd5b81356001600160401b03811115612a1f57612a1f6128f6565b604051612a36601f8301601f19166020018261290c565b818152846020838601011115612a4b57600080fd5b816020850160208301376000918101602001919091529392505050565b600080600080600060a08688031215612a8057600080fd5b8535612a8b816127a3565b94506020860135612a9b816127a3565b935060408601356001600160401b0380821115612ab757600080fd5b612ac389838a01612984565b94506060880135915080821115612ad957600080fd5b612ae589838a01612984565b93506080880135915080821115612afb57600080fd5b50612b08888289016129f5565b9150509295509295909350565b60008060008060808587031215612b2b57600080fd5b8435612b36816127a3565b93506020850135925060408501356001600160401b03811115612b5857600080fd5b612b64878288016129f5565b949793965093946060013593505050565b60008060408385031215612b8857600080fd5b82356001600160401b0380821115612b9f57600080fd5b818501915085601f830112612bb357600080fd5b81356020612bc082612961565b604051612bcd828261290c565b83815260059390931b8501820192828101915089841115612bed57600080fd5b948201945b83861015612c14578535612c05816127a3565b82529482019490820190612bf2565b96505086013592505080821115612c2a57600080fd5b50612c3785828601612984565b9150509250929050565b600081518084526020808501945080840160005b83811015612c7157815187529582019590820190600101612c55565b509495945050505050565b6020815260006117566020830184612c41565b803563ffffffff811681146106ad57600080fd5b600080600060608486031215612cb857600080fd5b8335612cc3816127a3565b92506020840135612cd3816127a3565b915060408401356001600160401b0380821115612cef57600080fd5b908501906101008288031215612d0457600080fd5b612d0c612938565b823582811115612d1b57600080fd5b612d27898286016129f5565b825250602083013582811115612d3c57600080fd5b612d48898286016129f5565b602083015250604083013582811115612d6057600080fd5b612d6c898286016129f5565b604083015250606083013582811115612d8457600080fd5b612d90898286016129f5565b606083015250612da260808401612c8f565b6080820152612db360a084016127b8565b60a082015260c083013582811115612dca57600080fd5b612dd6898286016129f5565b60c08301525060e083013582811115612dee57600080fd5b612dfa898286016129f5565b60e0830152508093505050509250925092565b600060208284031215612e1f57600080fd5b81356001600160401b03811115612e3557600080fd5b612e41848285016129f5565b949350505050565b600060208284031215612e5b57600080fd5b61175682612c8f565b8015158114610bf557600080fd5b60008060408385031215612e8557600080fd5b8235612e90816127a3565b91506020830135612ea081612e64565b809150509250929050565b60008060008060808587031215612ec157600080fd5b8435612ecc816127a3565b93506020850135925060408501356001600160401b0380821115612eef57600080fd5b612efb888389016129f5565b93506060870135915080821115612f1157600080fd5b50612f1e878288016129f5565b91505092959194509250565b60008060408385031215612f3d57600080fd5b8235612f48816127a3565b91506020830135612ea0816127a3565b600080600080600060a08688031215612f7057600080fd5b8535612f7b816127a3565b94506020860135612f8b816127a3565b9350604086013592506060860135915060808601356001600160401b03811115612fb457600080fd5b612b08888289016129f5565b600181811c90821680612fd457607f821691505b602082108103612ff457634e487b7160e01b600052602260045260246000fd5b50919050565b60008261301757634e487b7160e01b600052601260045260246000fd5b500690565b634e487b7160e01b600052601160045260246000fd5b818103818111156105475761054761301c565b60006020828403121561305757600080fd5b8151611756816127a3565b60006020828403121561307457600080fd5b5051919050565b808201808211156105475761054761301c565b6020808252602e908201527f455243313135353a2063616c6c6572206973206e6f7420746f6b656e206f776e60408201526d195c881bdc88185c1c1c9bdd995960921b606082015260800190565b634e487b7160e01b600052603260045260246000fd5b6000600182016131045761310461301c565b5060010190565b60006020828403121561311d57600080fd5b815161175681612e64565b601f821115610d7257600081815260208120601f850160051c8101602086101561314f5750805b601f850160051c820191505b818110156112295782815560010161315b565b81516001600160401b03811115613187576131876128f6565b61319b816131958454612fc0565b84613128565b602080601f8311600181146131d057600084156131b85750858301515b600019600386901b1c1916600185901b178555611229565b600085815260208120601f198616915b828110156131ff578886015182559484019460019091019084016131e0565b508582101561321d5787850151600019600388901b60f8161c191681555b5050505050600190811b01905550565b683f6e616d653d30787360b81b815260008251613251816009850160208701612822565b9190910160090192915050565b6f266465736372697074696f6e3d30787360801b815260008251613289816010850160208701612822565b9190910160100192915050565b6926696d6167653d30787360b01b8152600082516132bb81600a850160208701612822565b91909101600a0192915050565b712665787465726e616c5f6c696e6b3d30787360701b8152600082516132f5816012850160208701612822565b9190910160120192915050565b7f2673656c6c65725f6665655f62617369735f706f696e74733d0000000000000081526000825161333a816019850160208701612822565b9190910160190192915050565b6e266665655f726563697069656e743d60881b81526000825161337181600f850160208701612822565b91909101600f0192915050565b6000815461338b81612fc0565b600182811680156133a357600181146133b8576133e7565b60ff19841687528215158302870194506133e7565b8560005260208060002060005b858110156133de5781548a8201529084019082016133c5565b50505082870194505b5050505092915050565b60006133fd828a61337e565b8851602061340e8284838e01612822565b895191909201916134228284838d01612822565b885191909201916134368284838c01612822565b8751919092019161344a8284838b01612822565b8651919092019161345e8284838a01612822565b855191909201916134728284838901612822565b50019998505050505050505050565b600061348d828561337e565b835161349d818360208801612822565b01949350505050565b60208082526025908201527f455243313135353a207472616e7366657220746f20746865207a65726f206164604082015264647265737360d81b606082015260800190565b6020808252602a908201527f455243313135353a20696e73756666696369656e742062616c616e636520666f60408201526939103a3930b739b332b960b11b606082015260800190565b6040815260006135486040830185612c41565b828103602084015261355a8185612c41565b95945050505050565b80820281158282048414176105475761054761301c565b6001600160a01b03868116825285166020820152604081018490526060810183905260a0608082018190526000906135b490830184612846565b979650505050505050565b6000602082840312156135d157600080fd5b8151611756816127ef565b600060033d11156135f55760046000803e5060005160e01c5b90565b600060443d10156136065790565b6040516003193d81016004833e81513d6001600160401b03816024840111818411171561363557505050505090565b828501915081518181111561364d5750505050505090565b843d87010160208285010111156136675750505050505090565b6136766020828601018761290c565b509095945050505050565b60208082526028908201527f455243313135353a204552433131353552656365697665722072656a656374656040820152676420746f6b656e7360c01b606082015260800190565b6001600160a01b0386811682528516602082015260a0604082018190526000906136f590830186612c41565b82810360608401526137078186612c41565b9050828103608084015261371b8185612846565b98975050505050505050565b6000816137365761373661301c565b50600019019056fe7016719027ff29c13bc4816903851ea968172a86b766c733b954fdabe53c87eea2646970667358221220ea0decadde23f217ebd3340b47759edb95a111d8f886ead34d9a54c975ed7b8f64736f6c63430008110033",
  "immutableReferences": {},
  "source": "// SPDX-License-Identifier: MIT\npragma solidity ~0.8.17;\n\nimport './Module.sol';\nimport './libs/Strings.sol';\nimport './libs/ERC1155.sol';\n\ncontract AssetModule is Module, IOpenseaContractURI {\n\tusing Strings for uint256;\n\tusing Strings for address;\n\tusing StringsExp for bytes;\n\n\tstruct InitContractURI {\n\t\tstring  name;\n\t\tstring  description;\n\t\tstring  image;\n\t\tstring  external_link;\n\t\tuint32  seller_fee_basis_points;\n\t\taddress fee_recipient;\n\t\tstring  base_contract_uri;\n\t\tstring  base_uri;\n\t}\n\n\tstring  private name_;\n\tstring  public image;\n\tstring  public external_link;\n\taddress public fee_recipient;\n\tuint32  public seller_fee_basis_points;\n\n\t/*{\n\t\t\"name\": \"OpenSea Creatures\",\n\t\t\"description\": \"OpenSea Creatures are adorable aquatic beings primarily for \\\n\t\t\tdemonstrating what can be done using the OpenSea platform. Adopt one today to try out all the OpenSea buying, selling, and bidding feature set.\",\n\t\t\"image\": \"external-link-url/image.png\",\n\t\t\"external_link\": \"external-link-url\",\n\t\t\"seller_fee_basis_points\": 100, # Indicates a 1% seller fee.\n\t\t\"fee_recipient\": \"0xA97F337c39cccE66adfeCB2BF99C1DdC54C2D721\" # Where seller fees will be paid to.\n\t}*/\n\tstring public base_contract_uri;// = \"https://smart-dao.stars-mine.com/service-api/utils/printJSON?\";\n\n\t/**\n\t\t* @dev Gets the token name.\n\t\t* @return string representing the token name\n\t\t*/\n\tfunction name() public view virtual returns (string memory) {\n\t\treturn name_;\n\t}\n\n\tfunction initAssetModule(address host, address operator, InitContractURI memory uri) internal {\n\t\tinitModule(host, uri.description, operator);\n\t\tname_ = uri.name;\n\t\timage = uri.image;\n\t\texternal_link = uri.external_link;\n\t\tfee_recipient = uri.fee_recipient == address(0) ? address(this): uri.fee_recipient;\n\t\tseller_fee_basis_points = uri.seller_fee_basis_points;\n\t\tbase_contract_uri = uri.base_contract_uri;\n\t}\n\n\tfunction contractURI() view public override returns (string memory uri) {\n\t\tbytes memory a = abi.encodePacked(\"?name=0xs\",                      bytes(name_).toHexString());\n\t\tbytes memory b = abi.encodePacked(\"&description=0xs\",               bytes(_description).toHexString());\n\t\tbytes memory c = abi.encodePacked(\"&image=0xs\",                     bytes(image).toHexString());\n\t\tbytes memory d = abi.encodePacked(\"&external_link=0xs\",             bytes(external_link).toHexString());\n\t\tbytes memory e = abi.encodePacked(\"&seller_fee_basis_points=\",      uint256(seller_fee_basis_points).toString());\n\t\tbytes memory f = abi.encodePacked(\"&fee_recipient=\",                fee_recipient.toHexString());\n\t\turi = string(abi.encodePacked(base_contract_uri, a, b, c, d, e, f));\n\t}\n\n\tfunction set_seller_fee_basis_points(uint32 value) external Check(Action_Asset_set_seller_fee_basis_points) {\n\t\tseller_fee_basis_points = value;\n\t\temit Change(Change_Tag_Asset_set_seller_fee_basis_points, value);\n\t}\n\n\tfunction set_fee_recipient(address recipient) external OnlyDAO {\n\t\tfee_recipient = recipient;\n\t\temit Change(Change_Tag_Asset_set_fee_recipient, uint160(recipient));\n\t}\n}\n\ncontract Asset is AssetModule, ERC1155, IAsset {\n\n\tfunction supportsInterface(bytes4 interfaceId) public view virtual override(ERC165,IERC165) returns (bool) {\n\t\treturn ERC1155.supportsInterface1155(interfaceId) || ERC165.supportsInterface(interfaceId);\n\t}\n\n\tfunction initAsset(address host, address operator, InitContractURI memory uri) external {\n\t\tinitAssetModule(host, operator, uri);\n\t\tinitERC1155(uri.base_uri);\n\t\t_registerInterface(Asset_Type);\n\t}\n\n\t/**\n\t * @dev sefe mint asset\n\t */\n\tfunction safeMint(address to, uint256 id, string memory _tokenURI, bytes memory _data) public Check(Action_Asset_SafeMint) {\n\t\t// require(id % 2 == 0, \"#Asset1155.safeMint ID must be an even number\");\n\t\tif (id % 2 == 1) revert TokenIDMustEvenNumberInAsset();\n\t\t//require(!exists(id), \"#Asset1155.safeMint ID already exists\");\n\t\tif (exists(id)) revert TokenIDAlreadyExistsInAsset();\n\n\t\t_mint(to, id, 1, _data);\n\t\t// _setURI(id, _tokenURI);\n\t\t_tokenURIs[id] = _tokenURI;\n\t}\n\n\t/**\n\t * @dev make ERC721 NFT\n\t */\n\tfunction makeNFT(address to, uint256 id, string memory _tokenURI, uint256 minPrice) public {\n\t\tsafeMint(address(_host.first()), id, _tokenURI, abi.encode(to, minPrice));\n\t}\n\n\t/**\n\t * @dev copy make ERC1155 NFTs\n\t */\n\tfunction copyNFTs(address to, uint256 id, uint256 amount, uint256 minPrice) public {\n\t\t// require(id % 2 == 0, \"#Asset1155.makeNFTs ID must be an even number\");\n\t\tif (id % 2 == 1) revert TokenIDMustEvenNumberInAsset();\n\n\t\tif (balanceOf(_msgSender(), id) == 0) {\n\t\t\tuint256 _id = uint256(keccak256(abi.encodePacked(address(this), id)));\n\n\t\t\tif (_host.first().balanceOf(_msgSender(), _id) == 0)\n\t\t\t\t//require(_host.second().balanceOf(_msgSender(), _id) == 1, \"#Asset1155.copyNFTs No permission to create NFTs\");\n\t\t\t\tif (_host.second().balanceOf(_msgSender(), _id) == 0) revert NoPermissionToMintNFTs1155();\n\t\t}\n\n\t\t_mint(address(_host.second()), id + 1, amount, abi.encode(to, minPrice));\n\t}\n\n\tfunction uri(uint256 id) public view virtual override(ERC1155,IERC1155MetadataURI) returns (string memory) {\n\t\tif (id % 2 == 0) {\n\t\t\treturn ERC1155.uri(id); // 721\n\t\t} else {\n\t\t\treturn ERC1155.uri(id - 1); // return 721 metadata URI\n\t\t}\n\t}\n\n}",
  "sourcePath": "/Users/louis/Project/hc/NFTSwap/SmartHolder/contracts/Asset.sol",
  "compiler": {
    "name": "solc",
    "version": "0.8.17+commit.8df45f5f.Emscripten.clang"
  },
  "schemaVersion": "3.4.11",
  "updatedAt": "2023-04-23T06:33:52.993Z",
  "networkType": "ethereum",
  "devdoc": {
    "kind": "dev",
    "methods": {
      "balanceOf(address,uint256)": {
        "details": "See {IERC1155-balanceOf}. Requirements: - `account` cannot be the zero address."
      },
      "balanceOfBatch(address[],uint256[])": {
        "details": "See {IERC1155-balanceOfBatch}. Requirements: - `accounts` and `ids` must have the same length."
      },
      "copyNFTs(address,uint256,uint256,uint256)": {
        "details": "copy make ERC1155 NFTs"
      },
      "exists(uint256)": {
        "details": "Indicates whether any token exist with a given id, or not."
      },
      "isApprovedForAll(address,address)": {
        "details": "See {IERC1155-isApprovedForAll}."
      },
      "makeNFT(address,uint256,string,uint256)": {
        "details": "make ERC721 NFT"
      },
      "name()": {
        "details": "Gets the token name.",
        "returns": {
          "_0": "string representing the token name"
        }
      },
      "safeBatchTransferFrom(address,address,uint256[],uint256[],bytes)": {
        "details": "See {IERC1155-safeBatchTransferFrom}."
      },
      "safeMint(address,uint256,string,bytes)": {
        "details": "sefe mint asset"
      },
      "safeTransferFrom(address,address,uint256,uint256,bytes)": {
        "details": "See {IERC1155-safeTransferFrom}."
      },
      "setApprovalForAll(address,bool)": {
        "details": "See {IERC1155-setApprovalForAll}."
      },
      "totalSupply(uint256)": {
        "details": "Total amount of tokens in with a given id."
      }
    },
    "version": 1
  },
  "userdoc": {
    "kind": "user",
    "methods": {},
    "version": 1
  }
}