{
  "contractName": "Asset",
  "abi": [
    {
      "inputs": [],
      "name": "AddressEmpty",
      "type": "error"
    },
    {
      "inputs": [],
      "name": "ApprovalToOwnerInERC721",
      "type": "error"
    },
    {
      "inputs": [],
      "name": "ApproveAllToCallerInERC721",
      "type": "error"
    },
    {
      "inputs": [
        {
          "internalType": "bytes4",
          "name": "interfaceId",
          "type": "bytes4"
        }
      ],
      "name": "CheckInterfaceNoMatch",
      "type": "error"
    },
    {
      "inputs": [],
      "name": "NonERC721ReceiverImplementer",
      "type": "error"
    },
    {
      "inputs": [],
      "name": "PermissionDenied",
      "type": "error"
    },
    {
      "inputs": [],
      "name": "PermissionDeniedForOnlyDAO",
      "type": "error"
    },
    {
      "inputs": [],
      "name": "PermissionDeniedInERC721",
      "type": "error"
    },
    {
      "inputs": [],
      "name": "TokenIDAlreadyMintedInERC721",
      "type": "error"
    },
    {
      "inputs": [],
      "name": "TokenIDNonExistentInERC721",
      "type": "error"
    },
    {
      "inputs": [],
      "name": "TransferOfTokenIDThatIsNotOwnInERC721",
      "type": "error"
    },
    {
      "anonymous": false,
      "inputs": [
        {
          "indexed": true,
          "internalType": "address",
          "name": "owner",
          "type": "address"
        },
        {
          "indexed": true,
          "internalType": "address",
          "name": "approved",
          "type": "address"
        },
        {
          "indexed": true,
          "internalType": "uint256",
          "name": "tokenId",
          "type": "uint256"
        }
      ],
      "name": "Approval",
      "type": "event"
    },
    {
      "anonymous": false,
      "inputs": [
        {
          "indexed": true,
          "internalType": "address",
          "name": "owner",
          "type": "address"
        },
        {
          "indexed": true,
          "internalType": "address",
          "name": "operator",
          "type": "address"
        },
        {
          "indexed": false,
          "internalType": "bool",
          "name": "approved",
          "type": "bool"
        }
      ],
      "name": "ApprovalForAll",
      "type": "event"
    },
    {
      "anonymous": false,
      "inputs": [
        {
          "indexed": true,
          "internalType": "uint256",
          "name": "tag",
          "type": "uint256"
        },
        {
          "indexed": false,
          "internalType": "uint256",
          "name": "value",
          "type": "uint256"
        }
      ],
      "name": "Change",
      "type": "event"
    },
    {
      "anonymous": false,
      "inputs": [
        {
          "indexed": false,
          "internalType": "uint8",
          "name": "version",
          "type": "uint8"
        }
      ],
      "name": "Initialized",
      "type": "event"
    },
    {
      "anonymous": false,
      "inputs": [
        {
          "indexed": true,
          "internalType": "address",
          "name": "from",
          "type": "address"
        },
        {
          "indexed": true,
          "internalType": "address",
          "name": "to",
          "type": "address"
        },
        {
          "indexed": true,
          "internalType": "uint256",
          "name": "tokenId",
          "type": "uint256"
        }
      ],
      "name": "Transfer",
      "type": "event"
    },
    {
      "inputs": [
        {
          "internalType": "address",
          "name": "to",
          "type": "address"
        },
        {
          "internalType": "uint256",
          "name": "tokenId",
          "type": "uint256"
        }
      ],
      "name": "approve",
      "outputs": [],
      "stateMutability": "nonpayable",
      "type": "function"
    },
    {
      "inputs": [
        {
          "internalType": "address",
          "name": "owner",
          "type": "address"
        }
      ],
      "name": "balanceOf",
      "outputs": [
        {
          "internalType": "uint256",
          "name": "",
          "type": "uint256"
        }
      ],
      "stateMutability": "view",
      "type": "function"
    },
    {
      "inputs": [],
      "name": "baseURI",
      "outputs": [
        {
          "internalType": "string",
          "name": "",
          "type": "string"
        }
      ],
      "stateMutability": "view",
      "type": "function"
    },
    {
      "inputs": [
        {
          "internalType": "bytes4",
          "name": "interfaceId",
          "type": "bytes4"
        }
      ],
      "name": "checkInterface",
      "outputs": [],
      "stateMutability": "view",
      "type": "function"
    },
    {
      "inputs": [],
      "name": "contractURI",
      "outputs": [
        {
          "internalType": "string",
          "name": "uri",
          "type": "string"
        }
      ],
      "stateMutability": "view",
      "type": "function"
    },
    {
      "inputs": [],
      "name": "contractURIPrefix",
      "outputs": [
        {
          "internalType": "string",
          "name": "",
          "type": "string"
        }
      ],
      "stateMutability": "view",
      "type": "function"
    },
    {
      "inputs": [],
      "name": "description",
      "outputs": [
        {
          "internalType": "string",
          "name": "",
          "type": "string"
        }
      ],
      "stateMutability": "view",
      "type": "function"
    },
    {
      "inputs": [
        {
          "internalType": "uint256",
          "name": "id",
          "type": "uint256"
        }
      ],
      "name": "exists",
      "outputs": [
        {
          "internalType": "bool",
          "name": "",
          "type": "bool"
        }
      ],
      "stateMutability": "view",
      "type": "function"
    },
    {
      "inputs": [],
      "name": "external_link",
      "outputs": [
        {
          "internalType": "string",
          "name": "",
          "type": "string"
        }
      ],
      "stateMutability": "view",
      "type": "function"
    },
    {
      "inputs": [],
      "name": "fee_recipient",
      "outputs": [
        {
          "internalType": "address",
          "name": "",
          "type": "address"
        }
      ],
      "stateMutability": "view",
      "type": "function"
    },
    {
      "inputs": [
        {
          "internalType": "uint256",
          "name": "tokenId",
          "type": "uint256"
        }
      ],
      "name": "getApproved",
      "outputs": [
        {
          "internalType": "address",
          "name": "",
          "type": "address"
        }
      ],
      "stateMutability": "view",
      "type": "function"
    },
    {
      "inputs": [],
      "name": "host",
      "outputs": [
        {
          "internalType": "contract IDAO",
          "name": "",
          "type": "address"
        }
      ],
      "stateMutability": "view",
      "type": "function"
    },
    {
      "inputs": [],
      "name": "image",
      "outputs": [
        {
          "internalType": "string",
          "name": "",
          "type": "string"
        }
      ],
      "stateMutability": "view",
      "type": "function"
    },
    {
      "inputs": [],
      "name": "impl",
      "outputs": [
        {
          "internalType": "address",
          "name": "",
          "type": "address"
        }
      ],
      "stateMutability": "view",
      "type": "function"
    },
    {
      "inputs": [
        {
          "internalType": "address",
          "name": "owner",
          "type": "address"
        },
        {
          "internalType": "address",
          "name": "operator",
          "type": "address"
        }
      ],
      "name": "isApprovedForAll",
      "outputs": [
        {
          "internalType": "bool",
          "name": "",
          "type": "bool"
        }
      ],
      "stateMutability": "view",
      "type": "function"
    },
    {
      "inputs": [],
      "name": "name",
      "outputs": [
        {
          "internalType": "string",
          "name": "",
          "type": "string"
        }
      ],
      "stateMutability": "view",
      "type": "function"
    },
    {
      "inputs": [],
      "name": "operator",
      "outputs": [
        {
          "internalType": "address",
          "name": "",
          "type": "address"
        }
      ],
      "stateMutability": "view",
      "type": "function"
    },
    {
      "inputs": [
        {
          "internalType": "uint256",
          "name": "tokenId",
          "type": "uint256"
        }
      ],
      "name": "ownerOf",
      "outputs": [
        {
          "internalType": "address",
          "name": "owner",
          "type": "address"
        }
      ],
      "stateMutability": "view",
      "type": "function"
    },
    {
      "inputs": [
        {
          "internalType": "address",
          "name": "from",
          "type": "address"
        },
        {
          "internalType": "address",
          "name": "to",
          "type": "address"
        },
        {
          "internalType": "uint256",
          "name": "tokenId",
          "type": "uint256"
        }
      ],
      "name": "safeTransferFrom",
      "outputs": [],
      "stateMutability": "nonpayable",
      "type": "function"
    },
    {
      "inputs": [
        {
          "internalType": "address",
          "name": "from",
          "type": "address"
        },
        {
          "internalType": "address",
          "name": "to",
          "type": "address"
        },
        {
          "internalType": "uint256",
          "name": "tokenId",
          "type": "uint256"
        },
        {
          "internalType": "bytes",
          "name": "_data",
          "type": "bytes"
        }
      ],
      "name": "safeTransferFrom",
      "outputs": [],
      "stateMutability": "nonpayable",
      "type": "function"
    },
    {
      "inputs": [],
      "name": "seller_fee_basis_points",
      "outputs": [
        {
          "internalType": "uint32",
          "name": "",
          "type": "uint32"
        }
      ],
      "stateMutability": "view",
      "type": "function"
    },
    {
      "inputs": [
        {
          "internalType": "address",
          "name": "operator",
          "type": "address"
        },
        {
          "internalType": "bool",
          "name": "approved",
          "type": "bool"
        }
      ],
      "name": "setApprovalForAll",
      "outputs": [],
      "stateMutability": "nonpayable",
      "type": "function"
    },
    {
      "inputs": [
        {
          "internalType": "string",
          "name": "value",
          "type": "string"
        }
      ],
      "name": "setDescription",
      "outputs": [],
      "stateMutability": "nonpayable",
      "type": "function"
    },
    {
      "inputs": [
        {
          "internalType": "address",
          "name": "operator",
          "type": "address"
        }
      ],
      "name": "setOperator",
      "outputs": [],
      "stateMutability": "nonpayable",
      "type": "function"
    },
    {
      "inputs": [
        {
          "internalType": "address",
          "name": "recipient",
          "type": "address"
        }
      ],
      "name": "set_fee_recipient",
      "outputs": [],
      "stateMutability": "nonpayable",
      "type": "function"
    },
    {
      "inputs": [
        {
          "internalType": "uint32",
          "name": "value",
          "type": "uint32"
        }
      ],
      "name": "set_seller_fee_basis_points",
      "outputs": [],
      "stateMutability": "nonpayable",
      "type": "function"
    },
    {
      "inputs": [
        {
          "internalType": "bytes4",
          "name": "interfaceId",
          "type": "bytes4"
        }
      ],
      "name": "supportsInterface",
      "outputs": [
        {
          "internalType": "bool",
          "name": "",
          "type": "bool"
        }
      ],
      "stateMutability": "view",
      "type": "function"
    },
    {
      "inputs": [],
      "name": "symbol",
      "outputs": [
        {
          "internalType": "string",
          "name": "",
          "type": "string"
        }
      ],
      "stateMutability": "view",
      "type": "function"
    },
    {
      "inputs": [
        {
          "internalType": "uint256",
          "name": "index",
          "type": "uint256"
        }
      ],
      "name": "tokenByIndex",
      "outputs": [
        {
          "internalType": "uint256",
          "name": "",
          "type": "uint256"
        }
      ],
      "stateMutability": "view",
      "type": "function"
    },
    {
      "inputs": [
        {
          "internalType": "address",
          "name": "owner",
          "type": "address"
        },
        {
          "internalType": "uint256",
          "name": "index",
          "type": "uint256"
        }
      ],
      "name": "tokenOfOwnerByIndex",
      "outputs": [
        {
          "internalType": "uint256",
          "name": "",
          "type": "uint256"
        }
      ],
      "stateMutability": "view",
      "type": "function"
    },
    {
      "inputs": [
        {
          "internalType": "uint256",
          "name": "tokenId",
          "type": "uint256"
        }
      ],
      "name": "tokenURI",
      "outputs": [
        {
          "internalType": "string",
          "name": "",
          "type": "string"
        }
      ],
      "stateMutability": "view",
      "type": "function"
    },
    {
      "inputs": [],
      "name": "totalSupply",
      "outputs": [
        {
          "internalType": "uint256",
          "name": "",
          "type": "uint256"
        }
      ],
      "stateMutability": "view",
      "type": "function"
    },
    {
      "inputs": [
        {
          "internalType": "address",
          "name": "from",
          "type": "address"
        },
        {
          "internalType": "address",
          "name": "to",
          "type": "address"
        },
        {
          "internalType": "uint256",
          "name": "tokenId",
          "type": "uint256"
        }
      ],
      "name": "transferFrom",
      "outputs": [],
      "stateMutability": "nonpayable",
      "type": "function"
    },
    {
      "inputs": [
        {
          "internalType": "address",
          "name": "impl",
          "type": "address"
        }
      ],
      "name": "upgrade",
      "outputs": [],
      "stateMutability": "nonpayable",
      "type": "function"
    },
    {
      "inputs": [
        {
          "internalType": "address",
          "name": "host",
          "type": "address"
        },
        {
          "internalType": "address",
          "name": "operator",
          "type": "address"
        },
        {
          "components": [
            {
              "internalType": "string",
              "name": "name",
              "type": "string"
            },
            {
              "internalType": "string",
              "name": "description",
              "type": "string"
            },
            {
              "internalType": "string",
              "name": "image",
              "type": "string"
            },
            {
              "internalType": "string",
              "name": "external_link",
              "type": "string"
            },
            {
              "internalType": "uint32",
              "name": "seller_fee_basis_points",
              "type": "uint32"
            },
            {
              "internalType": "address",
              "name": "fee_recipient",
              "type": "address"
            },
            {
              "internalType": "string",
              "name": "contractURIPrefix",
              "type": "string"
            }
          ],
          "internalType": "struct AssetBase.InitContractURI",
          "name": "uri",
          "type": "tuple"
        }
      ],
      "name": "initAsset",
      "outputs": [],
      "stateMutability": "nonpayable",
      "type": "function"
    },
    {
      "inputs": [
        {
          "internalType": "address",
          "name": "to",
          "type": "address"
        },
        {
          "internalType": "uint256",
          "name": "tokenId",
          "type": "uint256"
        },
        {
          "internalType": "string",
          "name": "_tokenURI",
          "type": "string"
        },
        {
          "internalType": "bytes",
          "name": "_data",
          "type": "bytes"
        }
      ],
      "name": "safeMint",
      "outputs": [],
      "stateMutability": "nonpayable",
      "type": "function"
    }
  ],
  "bytecode": "0x608060405234801561001057600080fd5b50612ce7806100206000396000f3fe608060405234801561001057600080fd5b506004361061021c5760003560e01c80637284e41611610125578063b55bc617116100ad578063e8a3d4851161007c578063e8a3d485146104bb578063e985e9c5146104c3578063f2d8d1b8146104ff578063f3ccaac014610507578063f437bc591461050f57600080fd5b8063b55bc6171461046f578063b88d4fde14610482578063c87b56dd14610495578063d71a195d146104a857600080fd5b806390c3f38f116100f457806390c3f38f1461041b57806391eb3dee1461042e57806395d89b4114610441578063a22cb46514610449578063b3ab15fb1461045c57600080fd5b80637284e416146103e7578063758f969a146103ef5780637972bdf3146104025780638abf60771461040a57600080fd5b806342842e0e116101a8578063570ca73511610177578063570ca7351461037c5780636352211e1461038d5780636c0360eb146103a057806370a08231146103a857806371fcf468146103bb57600080fd5b806342842e0e146103305780634c6e425b146103435780634f558e79146103565780634f6ccce71461036957600080fd5b8063095ea7b3116101ef578063095ea7b3146102ce57806318160ddd146102e157806323b872dd146102f75780632f745c591461030a57806330cc317b1461031d57600080fd5b806301ffc9a71461022157806306fdde0314610263578063081812fc146102785780630900f010146102b9575b600080fd5b61024e61022f366004612212565b6001600160e01b03191660009081526001602052604090205460ff1690565b60405190151581526020015b60405180910390f35b61026b610520565b60405161025a919061227f565b6102a1610286366004612292565b6000908152601160205260409020546001600160a01b031690565b6040516001600160a01b03909116815260200161025a565b6102cc6102c73660046122d0565b6105b2565b005b6102cc6102dc3660046122ed565b61061d565b6102e96106a9565b60405190815260200161025a565b6102cc610305366004612319565b6106ba565b6102e96103183660046122ed565b610710565b6102cc61032b3660046122d0565b61073b565b6102cc61033e366004612319565b61079f565b6102cc610351366004612212565b6107ba565b61024e610364366004612292565b610808565b6102e9610377366004612292565b610813565b6003546001600160a01b03166102a1565b6102a161039b366004612292565b610829565b61026b61085f565b6102e96103b63660046122d0565b61086e565b6019546103d290600160a01b900463ffffffff1681565b60405163ffffffff909116815260200161025a565b61026b61088f565b6019546102a1906001600160a01b031681565b61026b61089e565b6000546001600160a01b03166102a1565b6102cc61042936600461242f565b61092c565b6102cc61043c366004612478565b610a7d565b61026b610bd8565b6102cc6104573660046124a1565b610be7565b6102cc61046a3660046122d0565b610c7c565b6102cc61047d3660046124da565b610ce0565b6102cc61049036600461258b565b610e49565b61026b6104a3366004612292565b610e82565b6102cc6104b636600461260b565b610e8d565b61026b610ea8565b61024e6104d1366004612751565b6001600160a01b03918216600090815260126020908152604080832093909416825291909152205460ff1690565b61026b6110ab565b61026b6110b8565b6002546001600160a01b03166102a1565b60606013805461052f9061277f565b80601f016020809104026020016040519081016040528092919081815260200182805461055b9061277f565b80156105a85780601f1061057d576101008083540402835291602001916105a8565b820191906000526020600020905b81548152906001019060200180831161058b57829003601f168201915b5050505050905090565b6105ba6110c5565b6105d757604051631b4004a360e31b815260040160405180910390fd5b600080546001600160a01b0319166001600160a01b038316908117909155604051908152600390600080516020612c92833981519152906020015b60405180910390a250565b600061062882610829565b9050806001600160a01b0316836001600160a01b03160361065c576040516365f090f760e01b815260040160405180910390fd5b336001600160a01b0382161480159061067c575061067a81336104d1565b155b1561069a5760405163d3a3274560e01b815260040160405180910390fd5b6106a48383611204565b505050565b60006106b5600e611272565b905090565b6106c4338261127d565b6106e15760405163d3a3274560e01b815260040160405180910390fd5b6106fc83838360405180602001604052806000815250611323565b604080516020810190915260009052505050565b6001600160a01b0382166000908152600d602052604081206107329083611429565b90505b92915050565b6107436110c5565b61076057604051631b4004a360e31b815260040160405180910390fd5b601980546001600160a01b0319166001600160a01b038316908117909155604051908152600790600080516020612c9283398151915290602001610612565b6106a483838360405180602001604052806000815250610e49565b6001600160e01b0319811660009081526001602052604090205460ff1661080557604051632aae78ef60e01b81526001600160e01b0319821660048201526024015b60405180910390fd5b50565b600061073582611435565b600080610821600e84611442565b509392505050565b600080610837600e84611460565b925090508061085957604051635449cd4560e01b815260040160405180910390fd5b50919050565b60606016805461052f9061277f565b6001600160a01b0381166000908152600d602052604081206107359061146f565b60606004805461052f9061277f565b601880546108ab9061277f565b80601f01602080910402602001604051908101604052809291908181526020018280546108d79061277f565b80156109245780601f106108f957610100808354040283529160200191610924565b820191906000526020600020905b81548152906001019060200180831161090757829003601f168201915b505050505081565b63d0a4ad966109396110c5565b610a4257600260009054906101000a90046001600160a01b03166001600160a01b031663e3f6b5446040518163ffffffff1660e01b8152600401602060405180830381865afa158015610990573d6000803e3d6000fd5b505050506040513d601f19601f820116820180604052508101906109b491906127b3565b60405163a8a555c560e01b8152336004820152602481018390526001600160a01b03919091169063a8a555c590604401602060405180830381865afa158015610a01573d6000803e3d6000fd5b505050506040513d601f19601f82011682018060405250810190610a2591906127d0565b610a4257604051630782484160e21b815260040160405180910390fd5b6004610a4e8382612833565b506001600080516020612c928339815191526000604051610a7191815260200190565b60405180910390a25050565b6391eb3dee610a8a6110c5565b610b9357600260009054906101000a90046001600160a01b03166001600160a01b031663e3f6b5446040518163ffffffff1660e01b8152600401602060405180830381865afa158015610ae1573d6000803e3d6000fd5b505050506040513d601f19601f82011682018060405250810190610b0591906127b3565b60405163a8a555c560e01b8152336004820152602481018390526001600160a01b03919091169063a8a555c590604401602060405180830381865afa158015610b52573d6000803e3d6000fd5b505050506040513d601f19601f82011682018060405250810190610b7691906127d0565b610b9357604051630782484160e21b815260040160405180910390fd5b6019805463ffffffff60a01b1916600160a01b63ffffffff851690810291909117909155604051908152600690600080516020612c9283398151915290602001610a71565b60606014805461052f9061277f565b336001600160a01b03831603610c105760405163064256a360e21b815260040160405180910390fd5b3360008181526012602090815260408083206001600160a01b03871680855290835292819020805460ff191686151590811790915590519081529192917f17307eab39ab6107e8899845ad3d59bd9653f200f220920489ca2b5937696c31910160405180910390a35050565b610c846110c5565b610ca157604051631b4004a360e31b815260040160405180910390fd5b600380546001600160a01b0319166001600160a01b038316908117909155604051908152600290600080516020612c9283398151915290602001610612565b6359baef2a610ced6110c5565b610df657600260009054906101000a90046001600160a01b03166001600160a01b031663e3f6b5446040518163ffffffff1660e01b8152600401602060405180830381865afa158015610d44573d6000803e3d6000fd5b505050506040513d601f19601f82011682018060405250810190610d6891906127b3565b60405163a8a555c560e01b8152336004820152602481018390526001600160a01b03919091169063a8a555c590604401602060405180830381865afa158015610db5573d6000803e3d6000fd5b505050506040513d601f19601f82011682018060405250810190610dd991906127d0565b610df657604051630782484160e21b815260040160405180910390fd5b610e37868685858080601f01602080910402602001604051908101604052809392919081815260200183838082843760009201919091525061147992505050565b610e418585611490565b505050505050565b610e53338361127d565b610e705760405163d3a3274560e01b815260040160405180910390fd5b610e7c848484846114ce565b50505050565b6060610735826114eb565b610e988383836115f3565b6106a46368ca456f60e01b61169c565b60606000610ebc610eb7610520565b6116a5565b604051602001610ecc91906128f3565b60405160208183030381529060405290506000610f7260048054610eef9061277f565b80601f0160208091040260200160405190810160405280929190818152602001828054610f1b9061277f565b8015610f685780601f10610f3d57610100808354040283529160200191610f68565b820191906000526020600020905b815481529060010190602001808311610f4b57829003601f168201915b50505050506116a5565b604051602001610f829190612924565b60405160208183030381529060405290506000610fa560178054610eef9061277f565b604051602001610fb5919061295c565b60405160208183030381529060405290506000610fd860188054610eef9061277f565b604051602001610fe8919061298e565b60408051808303601f1901815291905260195490915060009061101790600160a01b900463ffffffff166117fe565b60405160200161102791906129c8565b60408051601f19818403018152919052601954909150600090611052906001600160a01b0316611891565b6040516020016110629190612a0d565b6040516020818303038152906040529050601a8686868686866040516020016110919796959493929190612ab7565b604051602081830303815290604052965050505050505090565b601a80546108ab9061277f565b601780546108ab9061277f565b60035460009033906001600160a01b031681146111fc57600260009054906101000a90046001600160a01b03166001600160a01b031663570ca7356040518163ffffffff1660e01b8152600401602060405180830381865afa15801561112f573d6000803e3d6000fd5b505050506040513d601f19601f8201168201806040525081019061115391906127b3565b6001600160a01b0316816001600160a01b0316146111fc57600260009054906101000a90046001600160a01b03166001600160a01b031663ebf0c7176040518163ffffffff1660e01b8152600401602060405180830381865afa1580156111be573d6000803e3d6000fd5b505050506040513d601f19601f820116820180604052508101906111e291906127b3565b6001600160a01b0316816001600160a01b03161491505090565b600191505090565b600081815260116020526040902080546001600160a01b0319166001600160a01b038416908117909155819061123982610829565b6001600160a01b03167f8c5be1e5ebec7d5bd14f71427d1e84f3dd0314c0f7b2291e5b200ac8c7c3b92560405160405180910390a45050565b6000610735826118a7565b600061128882611435565b6112a557604051635449cd4560e01b815260040160405180910390fd5b60006112b083610829565b9050806001600160a01b0316846001600160a01b031614806112eb57506000838152601160205260409020546001600160a01b038581169116145b8061131b57506001600160a01b0380821660009081526012602090815260408083209388168352929052205460ff165b949350505050565b836001600160a01b031661133683610829565b6001600160a01b03161461135d57604051630898381960e11b815260040160405180910390fd5b6001600160a01b03831661138457604051635bb7a72360e01b815260040160405180910390fd5b61138f600083611204565b6001600160a01b0384166000908152600d602052604090206113b190836118b2565b506001600160a01b0383166000908152600d602052604090206113d490836118be565b506113e1600e83856118ca565b5081836001600160a01b0316856001600160a01b03167fddf252ad1be2c89b69c2b068fc378daa952ba7f163c4a11628f55a4df523b3ef60405160405180910390a450505050565b600061073283836118e0565b6000610735600e8361190a565b60008080806114518686611916565b909450925050505b9250929050565b60008080806114518686611941565b6000610735825490565b611483838361197b565b6106a46000848484611a3f565b61149982611435565b6114b657604051635449cd4560e01b815260040160405180910390fd5b60008281526015602052604090206106a48282612833565b6114da84848484611323565b6114e684848484611a3f565b610e7c565b6000818152601560205260408120805460609291906115099061277f565b80601f01602080910402602001604051908101604052809291908181526020018280546115359061277f565b80156115825780601f1061155757610100808354040283529160200191611582565b820191906000526020600020905b81548152906001019060200180831161156557829003601f168201915b50505050509050601680546115969061277f565b90506000036115a55792915050565b8051156115d7576016816040516020016115c0929190612b47565b604051602081830303815290604052915050919050565b60166115e2846117fe565b6040516020016115c0929190612b47565b61160283826020015184611ae5565b805161160e9080611b49565b60408101516017906116209082612833565b5060608101516018906116339082612833565b5060a08101516001600160a01b031615611651578060a00151611653565b305b60198054608084015163ffffffff16600160a01b026001600160c01b03199091166001600160a01b03939093169290921791909117905560c0810151601a90610e7c9082612833565b61080581611b97565b60606000825160026116b79190612b82565b67ffffffffffffffff8111156116cf576116cf61235a565b6040519080825280601f01601f1916602001820160405280156116f9576020820181803683370190505b50905060005b83518110156117f757600084828151811061171c5761171c612b99565b016020015160f881901c91506f181899199a1a9b1b9c1cb0b131b232b360811b9060fc1c6010811061175057611750612b99565b1a60f81b83600184901b8151811061176a5761176a612b99565b60200101906001600160f81b031916908160001a9053506f181899199a1a9b1b9c1cb0b131b232b360811b600f8216601081106117a9576117a9612b99565b1a60f81b836117bc600185811b90612baf565b815181106117cc576117cc612b99565b60200101906001600160f81b031916908160001a9053505080806117ef90612bc2565b9150506116ff565b5092915050565b6060600061180b83611c19565b600101905060008167ffffffffffffffff81111561182b5761182b61235a565b6040519080825280601f01601f191660200182016040528015611855576020820181803683370190505b5090508181016020015b600019016f181899199a1a9b1b9c1cb0b131b232b360811b600a86061a8153600a850494508461185f57509392505050565b60606107356001600160a01b0383166014611cf1565b60006107358261146f565b60006107328383611e8d565b60006107328383611f80565b600061131b84846001600160a01b038516611fcf565b60008260000182815481106118f7576118f7612b99565b9060005260206000200154905092915050565b60006107328383611fec565b600080806119248585611429565b600081815260029690960160205260409095205494959350505050565b6000818152600283016020526040812054819080611970576119638585611fec565b9250600091506114599050565b600192509050611459565b61198481611435565b156119a25760405163082c3a4f60e01b815260040160405180910390fd5b6001600160a01b0382166119c957604051635bb7a72360e01b815260040160405180910390fd5b60408051602080820183526000918290526001600160a01b0385168252600d9052206119f590826118be565b50611a02600e82846118ca565b5060405181906001600160a01b038416906000907fddf252ad1be2c89b69c2b068fc378daa952ba7f163c4a11628f55a4df523b3ef908290a45050565b6001600160a01b0383163b15610e7c576000630a85bd0160e11b33868585604051602401611a709493929190612bdb565b60408051601f198184030181529190526020810180516001600160e01b03166001600160e01b0319909316929092179091529050630a85bd0160e11b611ab68583611ff8565b6001600160e01b03191614611ade576040516342eac10f60e11b815260040160405180910390fd5b5050505050565b611aed6120b1565b611afd630d64f40d60e31b61169c565b600280546001600160a01b0319166001600160a01b0385161790556004611b248382612833565b50600380546001600160a01b0319166001600160a01b03929092169190911790555050565b6013611b558382612833565b506014611b628282612833565b50611b736380ac58cd60e01b61169c565b611b83635b5e139f60e01b61169c565b611b9363780e9d6360e01b61169c565b5050565b6001600160e01b03198082169003611bf15760405162461bcd60e51b815260206004820152601c60248201527f4552433136353a20696e76616c696420696e746572666163652069640000000060448201526064016107fc565b6001600160e01b0319166000908152600160208190526040909120805460ff19169091179055565b60008072184f03e93ff9f4daa797ed6e38ed64bf6a1f0160401b8310611c585772184f03e93ff9f4daa797ed6e38ed64bf6a1f0160401b830492506040015b6d04ee2d6d415b85acef81000000008310611c84576d04ee2d6d415b85acef8100000000830492506020015b662386f26fc100008310611ca257662386f26fc10000830492506010015b6305f5e1008310611cba576305f5e100830492506008015b6127108310611cce57612710830492506004015b60648310611ce0576064830492506002015b600a83106107355760010192915050565b60606000611d00836002612b82565b611d0b906002612baf565b67ffffffffffffffff811115611d2357611d2361235a565b6040519080825280601f01601f191660200182016040528015611d4d576020820181803683370190505b509050600360fc1b81600081518110611d6857611d68612b99565b60200101906001600160f81b031916908160001a905350600f60fb1b81600181518110611d9757611d97612b99565b60200101906001600160f81b031916908160001a9053506000611dbb846002612b82565b611dc6906001612baf565b90505b6001811115611e3e576f181899199a1a9b1b9c1cb0b131b232b360811b85600f1660108110611dfa57611dfa612b99565b1a60f81b828281518110611e1057611e10612b99565b60200101906001600160f81b031916908160001a90535060049490941c93611e3781612c18565b9050611dc9565b5083156107325760405162461bcd60e51b815260206004820181905260248201527f537472696e67733a20686578206c656e67746820696e73756666696369656e7460448201526064016107fc565b60008181526001830160205260408120548015611f76576000611eb1600183612c2f565b8554909150600090611ec590600190612c2f565b9050818114611f2a576000866000018281548110611ee557611ee5612b99565b9060005260206000200154905080876000018481548110611f0857611f08612b99565b6000918252602080832090910192909255918252600188019052604090208390555b8554869080611f3b57611f3b612c42565b600190038181906000526020600020016000905590558560010160008681526020019081526020016000206000905560019350505050610735565b6000915050610735565b6000818152600183016020526040812054611fc757508154600181810184556000848152602080822090930184905584548482528286019093526040902091909155610735565b506000610735565b6000828152600284016020526040812082905561131b84846118be565b600061073283836121e4565b6000806000846001600160a01b0316846040516120159190612c58565b6000604051808303816000865af19150503d8060008114612052576040519150601f19603f3d011682016040523d82523d6000602084013e612057565b606091505b5091509150811561207f57808060200190518101906120769190612c74565b92505050610735565b80511561208f5780518082602001fd5b60405162461bcd60e51b815260206004820152600060248201526044016107fc565b600054600160a81b900460ff16158080156120d957506000546001600160a01b90910460ff16105b806120fa5750303b1580156120fa5750600054600160a01b900460ff166001145b61215d5760405162461bcd60e51b815260206004820152602e60248201527f496e697469616c697a61626c653a20636f6e747261637420697320616c72656160448201526d191e481a5b9a5d1a585b1a5e995960921b60648201526084016107fc565b6000805460ff60a01b1916600160a01b179055801561218a576000805460ff60a81b1916600160a81b1790555b61219a6301ffc9a760e01b61169c565b8015610805576000805460ff60a81b19169055604051600181527f7f26b83ff96e1f2b6a682f133852f6798a09c465da95921460cefb38474024989060200160405180910390a150565b60008181526001830160205260408120541515610732565b6001600160e01b03198116811461080557600080fd5b60006020828403121561222457600080fd5b8135610732816121fc565b60005b8381101561224a578181015183820152602001612232565b50506000910152565b6000815180845261226b81602086016020860161222f565b601f01601f19169290920160200192915050565b6020815260006107326020830184612253565b6000602082840312156122a457600080fd5b5035919050565b6001600160a01b038116811461080557600080fd5b80356122cb816122ab565b919050565b6000602082840312156122e257600080fd5b8135610732816122ab565b6000806040838503121561230057600080fd5b823561230b816122ab565b946020939093013593505050565b60008060006060848603121561232e57600080fd5b8335612339816122ab565b92506020840135612349816122ab565b929592945050506040919091013590565b634e487b7160e01b600052604160045260246000fd5b60405160e0810167ffffffffffffffff811182821017156123935761239361235a565b60405290565b600067ffffffffffffffff808411156123b4576123b461235a565b604051601f8501601f19908116603f011681019082821181831017156123dc576123dc61235a565b816040528093508581528686860111156123f557600080fd5b858560208301376000602087830101525050509392505050565b600082601f83011261242057600080fd5b61073283833560208501612399565b60006020828403121561244157600080fd5b813567ffffffffffffffff81111561245857600080fd5b61131b8482850161240f565b803563ffffffff811681146122cb57600080fd5b60006020828403121561248a57600080fd5b61073282612464565b801515811461080557600080fd5b600080604083850312156124b457600080fd5b82356124bf816122ab565b915060208301356124cf81612493565b809150509250929050565b6000806000806000608086880312156124f257600080fd5b85356124fd816122ab565b945060208601359350604086013567ffffffffffffffff8082111561252157600080fd5b61252d89838a0161240f565b9450606088013591508082111561254357600080fd5b818801915088601f83011261255757600080fd5b81358181111561256657600080fd5b89602082850101111561257857600080fd5b9699959850939650602001949392505050565b600080600080608085870312156125a157600080fd5b84356125ac816122ab565b935060208501356125bc816122ab565b925060408501359150606085013567ffffffffffffffff8111156125df57600080fd5b8501601f810187136125f057600080fd5b6125ff87823560208401612399565b91505092959194509250565b60008060006060848603121561262057600080fd5b833561262b816122ab565b9250602084013561263b816122ab565b9150604084013567ffffffffffffffff8082111561265857600080fd5b9085019060e0828803121561266c57600080fd5b612674612370565b82358281111561268357600080fd5b61268f8982860161240f565b8252506020830135828111156126a457600080fd5b6126b08982860161240f565b6020830152506040830135828111156126c857600080fd5b6126d48982860161240f565b6040830152506060830135828111156126ec57600080fd5b6126f88982860161240f565b60608301525061270a60808401612464565b608082015261271b60a084016122c0565b60a082015260c08301358281111561273257600080fd5b61273e8982860161240f565b60c0830152508093505050509250925092565b6000806040838503121561276457600080fd5b823561276f816122ab565b915060208301356124cf816122ab565b600181811c9082168061279357607f821691505b60208210810361085957634e487b7160e01b600052602260045260246000fd5b6000602082840312156127c557600080fd5b8151610732816122ab565b6000602082840312156127e257600080fd5b815161073281612493565b601f8211156106a457600081815260208120601f850160051c810160208610156128145750805b601f850160051c820191505b81811015610e4157828155600101612820565b815167ffffffffffffffff81111561284d5761284d61235a565b6128618161285b845461277f565b846127ed565b602080601f831160018114612896576000841561287e5750858301515b600019600386901b1c1916600185901b178555610e41565b600085815260208120601f198616915b828110156128c5578886015182559484019460019091019084016128a6565b50858210156128e35787850151600019600388901b60f8161c191681555b5050505050600190811b01905550565b683f6e616d653d30787360b81b81526000825161291781600985016020870161222f565b9190910160090192915050565b6f266465736372697074696f6e3d30787360801b81526000825161294f81601085016020870161222f565b9190910160100192915050565b6926696d6167653d30787360b01b81526000825161298181600a85016020870161222f565b91909101600a0192915050565b712665787465726e616c5f6c696e6b3d30787360701b8152600082516129bb81601285016020870161222f565b9190910160120192915050565b7f2673656c6c65725f6665655f62617369735f706f696e74733d00000000000000815260008251612a0081601985016020870161222f565b9190910160190192915050565b6e266665655f726563697069656e743d60881b815260008251612a3781600f85016020870161222f565b91909101600f0192915050565b60008154612a518161277f565b60018281168015612a695760018114612a7e57612aad565b60ff1984168752821515830287019450612aad565b8560005260208060002060005b85811015612aa45781548a820152908401908201612a8b565b50505082870194505b5050505092915050565b6000612ac3828a612a44565b88516020612ad48284838e0161222f565b89519190920191612ae88284838d0161222f565b88519190920191612afc8284838c0161222f565b87519190920191612b108284838b0161222f565b86519190920191612b248284838a0161222f565b85519190920191612b38828483890161222f565b50019998505050505050505050565b6000612b538285612a44565b8351612b6381836020880161222f565b01949350505050565b634e487b7160e01b600052601160045260246000fd5b808202811582820484141761073557610735612b6c565b634e487b7160e01b600052603260045260246000fd5b8082018082111561073557610735612b6c565b600060018201612bd457612bd4612b6c565b5060010190565b6001600160a01b0385811682528416602082015260408101839052608060608201819052600090612c0e90830184612253565b9695505050505050565b600081612c2757612c27612b6c565b506000190190565b8181038181111561073557610735612b6c565b634e487b7160e01b600052603160045260246000fd5b60008251612c6a81846020870161222f565b9190910192915050565b600060208284031215612c8657600080fd5b8151610732816121fc56fe7016719027ff29c13bc4816903851ea968172a86b766c733b954fdabe53c87eea26469706673582212209bf52ce556bbbd245fc406f6944d40110d0b04440f95b28ae78b2b21dca5793f64736f6c63430008110033",
  "immutableReferences": {},
  "source": "// SPDX-License-Identifier: MIT\npragma solidity 0.8.17;\n\nimport './libs/Strings.sol';\nimport './Module.sol';\nimport './libs/ERC721.sol';\n\ncontract ERC721Module is Module, ERC721 {\n\tfunction _registerInterface(bytes4 interfaceId) internal virtual override(ERC165,ERC721) {\n\t\tERC165._registerInterface(interfaceId);\n\t}\n}\n\ncontract AssetBase is ERC721Module {\n\tusing Strings for uint256;\n\tusing Strings for address;\n\tusing StringsExp for bytes;\n\n\tstruct InitContractURI {\n\t\tstring  name;\n\t\tstring  description;\n\t\tstring  image;\n\t\tstring  external_link;\n\t\tuint32  seller_fee_basis_points;\n\t\taddress fee_recipient;\n\t\tstring  contractURIPrefix;\n\t}\n\n\tstring  public image;\n\tstring  public external_link;\n\taddress public fee_recipient;\n\tuint32  public seller_fee_basis_points;\n\n\t/*{\n\t\t\"name\": \"OpenSea Creatures\",\n\t\t\"description\": \"OpenSea Creatures are adorable aquatic beings primarily for \\\n\t\t\tdemonstrating what can be done using the OpenSea platform. Adopt one today to try out all the OpenSea buying, selling, and bidding feature set.\",\n\t\t\"image\": \"external-link-url/image.png\",\n\t\t\"external_link\": \"external-link-url\",\n\t\t\"seller_fee_basis_points\": 100, # Indicates a 1% seller fee.\n\t\t\"fee_recipient\": \"0xA97F337c39cccE66adfeCB2BF99C1DdC54C2D721\" # Where seller fees will be paid to.\n\t}*/\n\tstring public contractURIPrefix;// = \"https://smart-dao.stars-mine.com/service-api/utils/printJSON?\";\n\n\tfunction initAssetBase(address host, address operator, InitContractURI memory uri) internal {\n\t\tinitModule(host, uri.description, operator);\n\t\tinitERC721(uri.name, uri.name);\n\t\timage = uri.image;\n\t\texternal_link = uri.external_link;\n\t\tfee_recipient = uri.fee_recipient == address(0) ? address(this): uri.fee_recipient;\n\t\tseller_fee_basis_points = uri.seller_fee_basis_points;\n\t\tcontractURIPrefix = uri.contractURIPrefix;\n\t}\n\n\tfunction contractURI() view public returns (string memory uri) {\n\t\tbytes memory a = abi.encodePacked(\"?name=0xs\",                      bytes(name()).toHexString());\n\t\tbytes memory b = abi.encodePacked(\"&description=0xs\",               bytes(_description).toHexString());\n\t\tbytes memory c = abi.encodePacked(\"&image=0xs\",                     bytes(image).toHexString());\n\t\tbytes memory d = abi.encodePacked(\"&external_link=0xs\",             bytes(external_link).toHexString());\n\t\tbytes memory e = abi.encodePacked(\"&seller_fee_basis_points=\",       uint256(seller_fee_basis_points).toString());\n\t\tbytes memory f = abi.encodePacked(\"&fee_recipient=\",                 fee_recipient.toHexString());\n\t\turi = string(abi.encodePacked(contractURIPrefix, a, b, c, d, e, f));\n\t}\n\n\tfunction set_seller_fee_basis_points(uint32 value) external Check(Action_Asset_set_seller_fee_basis_points) {\n\t\tseller_fee_basis_points = value;\n\t\temit Change(Change_Tag_Asset_set_seller_fee_basis_points, value);\n\t}\n\n\tfunction set_fee_recipient(address recipient) external OnlyDAO {\n\t\tfee_recipient = recipient;\n\t\temit Change(Change_Tag_Asset_set_fee_recipient, uint160(recipient));\n\t}\n}\n\ncontract Asset is AssetBase, IAsset {\n\tuint256[16] private  __; // reserved storage space\n\n\tfunction initAsset(address host, address operator, InitContractURI memory uri) external {\n\t\tinitAssetBase(host, operator, uri);\n\t\t_registerInterface(Asset_Type);\n\t}\n\n\tfunction safeMint(address to, uint256 tokenId, string memory _tokenURI, bytes calldata _data) public Check(Action_Asset_SafeMint) {\n\t\t_safeMint(to, tokenId, _data);\n\t\t_setTokenURI(tokenId, _tokenURI);\n\t}\n\n\tfunction _burn(uint256 tokenId) internal virtual override {\n\t\t// NOOP\n\t}\n}\n",
  "sourcePath": "/Users/louis/Project/hc/NFTSwap/SmartHolder/contracts/Asset.sol",
  "compiler": {
    "name": "solc",
    "version": "0.8.17+commit.8df45f5f.Emscripten.clang"
  },
  "schemaVersion": "3.4.11",
  "updatedAt": "2023-04-01T07:58:04.636Z",
  "networkType": "ethereum",
  "devdoc": {
    "kind": "dev",
    "methods": {
      "approve(address,uint256)": {
        "details": "Approves another address to transfer the given token ID The zero address indicates there is no approved address. There can only be one approved address per token at a given time. Can only be called by the token owner or an approved operator.",
        "params": {
          "to": "address to be approved for the given token ID",
          "tokenId": "uint256 ID of the token to be approved"
        }
      },
      "balanceOf(address)": {
        "details": "Gets the balance of the specified address.",
        "params": {
          "owner": "address to query the balance of"
        },
        "returns": {
          "_0": "uint256 representing the amount owned by the passed address"
        }
      },
      "baseURI()": {
        "details": "Returns the base URI set via {_setBaseURI}. This will be automatically added as a prefix in {tokenURI} to each token's URI, or to the token ID if no specific URI is set for that token ID."
      },
      "getApproved(uint256)": {
        "details": "Gets the approved address for a token ID, or zero if no address set Reverts if the token ID does not exist.",
        "params": {
          "tokenId": "uint256 ID of the token to query the approval of"
        },
        "returns": {
          "_0": "address currently approved for the given token ID"
        }
      },
      "isApprovedForAll(address,address)": {
        "details": "Tells whether an operator is approved by a given owner.",
        "params": {
          "operator": "operator address which you want to query the approval of",
          "owner": "owner address which you want to query the approval of"
        },
        "returns": {
          "_0": "bool whether the given operator is approved by the given owner"
        }
      },
      "name()": {
        "details": "Gets the token name.",
        "returns": {
          "_0": "string representing the token name"
        }
      },
      "ownerOf(uint256)": {
        "details": "Gets the owner of the specified token ID.",
        "params": {
          "tokenId": "uint256 ID of the token to query the owner of"
        },
        "returns": {
          "owner": "currently marked as the owner of the given token ID"
        }
      },
      "safeTransferFrom(address,address,uint256)": {
        "details": "Safely transfers the ownership of a given token ID to another address If the target address is a contract, it must implement {IERC721Receiver-onERC721Received}, which is called upon a safe transfer, and return the magic value `bytes4(keccak256(\"onERC721Received(address,address,uint256,bytes)\"))`; otherwise, the transfer is reverted. Requires the msg.sender to be the owner, approved, or operator",
        "params": {
          "from": "current owner of the token",
          "to": "address to receive the ownership of the given token ID",
          "tokenId": "uint256 ID of the token to be transferred"
        }
      },
      "safeTransferFrom(address,address,uint256,bytes)": {
        "details": "Safely transfers the ownership of a given token ID to another address If the target address is a contract, it must implement {IERC721Receiver-onERC721Received}, which is called upon a safe transfer, and return the magic value `bytes4(keccak256(\"onERC721Received(address,address,uint256,bytes)\"))`; otherwise, the transfer is reverted. Requires the _msgSender() to be the owner, approved, or operator",
        "params": {
          "_data": "bytes data to send along with a safe transfer check",
          "from": "current owner of the token",
          "to": "address to receive the ownership of the given token ID",
          "tokenId": "uint256 ID of the token to be transferred"
        }
      },
      "setApprovalForAll(address,bool)": {
        "details": "Sets or unsets the approval of a given operator An operator is allowed to transfer all tokens of the sender on their behalf.",
        "params": {
          "approved": "representing the status of the approval to be set",
          "operator": "operator address to set the approval"
        }
      },
      "supportsInterface(bytes4)": {
        "details": "See {IERC165-supportsInterface}. Time complexity O(1), guaranteed to always use less than 30 000 gas."
      },
      "symbol()": {
        "details": "Gets the token symbol.",
        "returns": {
          "_0": "string representing the token symbol"
        }
      },
      "tokenByIndex(uint256)": {
        "details": "Gets the token ID at a given index of all the tokens in this contract Reverts if the index is greater or equal to the total number of tokens.",
        "params": {
          "index": "uint256 representing the index to be accessed of the tokens list"
        },
        "returns": {
          "_0": "uint256 token ID at the given index of the tokens list"
        }
      },
      "tokenOfOwnerByIndex(address,uint256)": {
        "details": "Gets the token ID at a given index of the tokens list of the requested owner.",
        "params": {
          "index": "uint256 representing the index to be accessed of the requested tokens list",
          "owner": "address owning the tokens list to be accessed"
        },
        "returns": {
          "_0": "uint256 token ID at the given index of the tokens list owned by the requested address"
        }
      },
      "tokenURI(uint256)": {
        "details": "Returns the Uniform Resource Identifier (URI) for `tokenId` token."
      },
      "totalSupply()": {
        "details": "Gets the total amount of tokens stored by the contract.",
        "returns": {
          "_0": "uint256 representing the total amount of tokens"
        }
      },
      "transferFrom(address,address,uint256)": {
        "details": "Transfers the ownership of a given token ID to another address. Usage of this method is discouraged, use {safeTransferFrom} whenever possible. Requires the msg.sender to be the owner, approved, or operator.",
        "params": {
          "from": "current owner of the token",
          "to": "address to receive the ownership of the given token ID",
          "tokenId": "uint256 ID of the token to be transferred"
        }
      }
    },
    "version": 1
  },
  "userdoc": {
    "kind": "user",
    "methods": {},
    "version": 1
  }
}