{
  "contractName": "AssetShell",
  "abi": [
    {
      "inputs": [],
      "name": "AssetNonExistsInAssetShell",
      "type": "error"
    },
    {
      "inputs": [
        {
          "internalType": "bytes4",
          "name": "interfaceId",
          "type": "bytes4"
        }
      ],
      "name": "CheckInterfaceNoMatch",
      "type": "error"
    },
    {
      "inputs": [],
      "name": "LockTokenIDValueEmptyInAssetShell",
      "type": "error"
    },
    {
      "inputs": [],
      "name": "MINTERC1155QuantityExceedsLimit",
      "type": "error"
    },
    {
      "inputs": [],
      "name": "MethodNotImplemented",
      "type": "error"
    },
    {
      "inputs": [],
      "name": "NeedToUnlockAssetFirst",
      "type": "error"
    },
    {
      "inputs": [],
      "name": "NeedToUnlockAssetFirstForPreviousOwner",
      "type": "error"
    },
    {
      "inputs": [],
      "name": "NonContractAddress",
      "type": "error"
    },
    {
      "inputs": [],
      "name": "PayableInsufficientAmount",
      "type": "error"
    },
    {
      "inputs": [],
      "name": "PayableInsufficientAmountWETH",
      "type": "error"
    },
    {
      "inputs": [],
      "name": "PermissionDenied",
      "type": "error"
    },
    {
      "inputs": [],
      "name": "PermissionDeniedForOnlyDAO",
      "type": "error"
    },
    {
      "inputs": [],
      "name": "PermissionDeniedForOnlyUnlockOperator",
      "type": "error"
    },
    {
      "anonymous": false,
      "inputs": [
        {
          "indexed": true,
          "internalType": "address",
          "name": "account",
          "type": "address"
        },
        {
          "indexed": true,
          "internalType": "address",
          "name": "operator",
          "type": "address"
        },
        {
          "indexed": false,
          "internalType": "bool",
          "name": "approved",
          "type": "bool"
        }
      ],
      "name": "ApprovalForAll",
      "type": "event"
    },
    {
      "anonymous": false,
      "inputs": [
        {
          "indexed": true,
          "internalType": "uint256",
          "name": "tag",
          "type": "uint256"
        },
        {
          "indexed": false,
          "internalType": "uint256",
          "name": "value",
          "type": "uint256"
        }
      ],
      "name": "Change",
      "type": "event"
    },
    {
      "anonymous": false,
      "inputs": [
        {
          "indexed": false,
          "internalType": "uint8",
          "name": "version",
          "type": "uint8"
        }
      ],
      "name": "Initialized",
      "type": "event"
    },
    {
      "anonymous": false,
      "inputs": [
        {
          "indexed": true,
          "internalType": "address",
          "name": "operator",
          "type": "address"
        },
        {
          "indexed": true,
          "internalType": "address",
          "name": "from",
          "type": "address"
        },
        {
          "indexed": true,
          "internalType": "address",
          "name": "to",
          "type": "address"
        },
        {
          "indexed": false,
          "internalType": "uint256[]",
          "name": "ids",
          "type": "uint256[]"
        },
        {
          "indexed": false,
          "internalType": "uint256[]",
          "name": "values",
          "type": "uint256[]"
        }
      ],
      "name": "TransferBatch",
      "type": "event"
    },
    {
      "anonymous": false,
      "inputs": [
        {
          "indexed": true,
          "internalType": "address",
          "name": "operator",
          "type": "address"
        },
        {
          "indexed": true,
          "internalType": "address",
          "name": "from",
          "type": "address"
        },
        {
          "indexed": true,
          "internalType": "address",
          "name": "to",
          "type": "address"
        },
        {
          "indexed": false,
          "internalType": "uint256",
          "name": "id",
          "type": "uint256"
        },
        {
          "indexed": false,
          "internalType": "uint256",
          "name": "value",
          "type": "uint256"
        }
      ],
      "name": "TransferSingle",
      "type": "event"
    },
    {
      "anonymous": false,
      "inputs": [
        {
          "indexed": false,
          "internalType": "string",
          "name": "value",
          "type": "string"
        },
        {
          "indexed": true,
          "internalType": "uint256",
          "name": "id",
          "type": "uint256"
        }
      ],
      "name": "URI",
      "type": "event"
    },
    {
      "inputs": [
        {
          "internalType": "address",
          "name": "account",
          "type": "address"
        },
        {
          "internalType": "uint256",
          "name": "id",
          "type": "uint256"
        }
      ],
      "name": "balanceOf",
      "outputs": [
        {
          "internalType": "uint256",
          "name": "",
          "type": "uint256"
        }
      ],
      "stateMutability": "view",
      "type": "function"
    },
    {
      "inputs": [
        {
          "internalType": "address[]",
          "name": "accounts",
          "type": "address[]"
        },
        {
          "internalType": "uint256[]",
          "name": "ids",
          "type": "uint256[]"
        }
      ],
      "name": "balanceOfBatch",
      "outputs": [
        {
          "internalType": "uint256[]",
          "name": "",
          "type": "uint256[]"
        }
      ],
      "stateMutability": "view",
      "type": "function"
    },
    {
      "inputs": [],
      "name": "baseURI",
      "outputs": [
        {
          "internalType": "string",
          "name": "",
          "type": "string"
        }
      ],
      "stateMutability": "view",
      "type": "function"
    },
    {
      "inputs": [],
      "name": "base_contract_uri",
      "outputs": [
        {
          "internalType": "string",
          "name": "",
          "type": "string"
        }
      ],
      "stateMutability": "view",
      "type": "function"
    },
    {
      "inputs": [
        {
          "internalType": "bytes4",
          "name": "interfaceId",
          "type": "bytes4"
        }
      ],
      "name": "checkInterface",
      "outputs": [],
      "stateMutability": "view",
      "type": "function"
    },
    {
      "inputs": [],
      "name": "contractURI",
      "outputs": [
        {
          "internalType": "string",
          "name": "uri",
          "type": "string"
        }
      ],
      "stateMutability": "view",
      "type": "function"
    },
    {
      "inputs": [],
      "name": "description",
      "outputs": [
        {
          "internalType": "string",
          "name": "",
          "type": "string"
        }
      ],
      "stateMutability": "view",
      "type": "function"
    },
    {
      "inputs": [
        {
          "internalType": "uint256",
          "name": "id",
          "type": "uint256"
        }
      ],
      "name": "exists",
      "outputs": [
        {
          "internalType": "bool",
          "name": "",
          "type": "bool"
        }
      ],
      "stateMutability": "view",
      "type": "function"
    },
    {
      "inputs": [],
      "name": "external_link",
      "outputs": [
        {
          "internalType": "string",
          "name": "",
          "type": "string"
        }
      ],
      "stateMutability": "view",
      "type": "function"
    },
    {
      "inputs": [],
      "name": "fee_recipient",
      "outputs": [
        {
          "internalType": "address",
          "name": "",
          "type": "address"
        }
      ],
      "stateMutability": "view",
      "type": "function"
    },
    {
      "inputs": [],
      "name": "host",
      "outputs": [
        {
          "internalType": "contract IDAO",
          "name": "",
          "type": "address"
        }
      ],
      "stateMutability": "view",
      "type": "function"
    },
    {
      "inputs": [],
      "name": "image",
      "outputs": [
        {
          "internalType": "string",
          "name": "",
          "type": "string"
        }
      ],
      "stateMutability": "view",
      "type": "function"
    },
    {
      "inputs": [],
      "name": "impl",
      "outputs": [
        {
          "internalType": "address",
          "name": "",
          "type": "address"
        }
      ],
      "stateMutability": "view",
      "type": "function"
    },
    {
      "inputs": [
        {
          "internalType": "address",
          "name": "account",
          "type": "address"
        },
        {
          "internalType": "address",
          "name": "operator",
          "type": "address"
        }
      ],
      "name": "isApprovedForAll",
      "outputs": [
        {
          "internalType": "bool",
          "name": "",
          "type": "bool"
        }
      ],
      "stateMutability": "view",
      "type": "function"
    },
    {
      "inputs": [],
      "name": "name",
      "outputs": [
        {
          "internalType": "string",
          "name": "",
          "type": "string"
        }
      ],
      "stateMutability": "view",
      "type": "function"
    },
    {
      "inputs": [],
      "name": "operator",
      "outputs": [
        {
          "internalType": "address",
          "name": "",
          "type": "address"
        }
      ],
      "stateMutability": "view",
      "type": "function"
    },
    {
      "inputs": [
        {
          "internalType": "address",
          "name": "from",
          "type": "address"
        },
        {
          "internalType": "address",
          "name": "to",
          "type": "address"
        },
        {
          "internalType": "uint256[]",
          "name": "ids",
          "type": "uint256[]"
        },
        {
          "internalType": "uint256[]",
          "name": "amounts",
          "type": "uint256[]"
        },
        {
          "internalType": "bytes",
          "name": "data",
          "type": "bytes"
        }
      ],
      "name": "safeBatchTransferFrom",
      "outputs": [],
      "stateMutability": "nonpayable",
      "type": "function"
    },
    {
      "inputs": [
        {
          "internalType": "address",
          "name": "from",
          "type": "address"
        },
        {
          "internalType": "address",
          "name": "to",
          "type": "address"
        },
        {
          "internalType": "uint256",
          "name": "id",
          "type": "uint256"
        },
        {
          "internalType": "uint256",
          "name": "amount",
          "type": "uint256"
        },
        {
          "internalType": "bytes",
          "name": "data",
          "type": "bytes"
        }
      ],
      "name": "safeTransferFrom",
      "outputs": [],
      "stateMutability": "nonpayable",
      "type": "function"
    },
    {
      "inputs": [],
      "name": "saleType",
      "outputs": [
        {
          "internalType": "enum IAssetShell.SaleType",
          "name": "",
          "type": "uint8"
        }
      ],
      "stateMutability": "view",
      "type": "function"
    },
    {
      "inputs": [],
      "name": "seller_fee_basis_points",
      "outputs": [
        {
          "internalType": "uint32",
          "name": "",
          "type": "uint32"
        }
      ],
      "stateMutability": "view",
      "type": "function"
    },
    {
      "inputs": [
        {
          "internalType": "address",
          "name": "operator",
          "type": "address"
        },
        {
          "internalType": "bool",
          "name": "approved",
          "type": "bool"
        }
      ],
      "name": "setApprovalForAll",
      "outputs": [],
      "stateMutability": "nonpayable",
      "type": "function"
    },
    {
      "inputs": [
        {
          "internalType": "string",
          "name": "value",
          "type": "string"
        }
      ],
      "name": "setDescription",
      "outputs": [],
      "stateMutability": "nonpayable",
      "type": "function"
    },
    {
      "inputs": [
        {
          "internalType": "address",
          "name": "operator_",
          "type": "address"
        }
      ],
      "name": "setOperator",
      "outputs": [],
      "stateMutability": "nonpayable",
      "type": "function"
    },
    {
      "inputs": [
        {
          "internalType": "address",
          "name": "recipient",
          "type": "address"
        }
      ],
      "name": "set_fee_recipient",
      "outputs": [],
      "stateMutability": "nonpayable",
      "type": "function"
    },
    {
      "inputs": [
        {
          "internalType": "uint32",
          "name": "value",
          "type": "uint32"
        }
      ],
      "name": "set_seller_fee_basis_points",
      "outputs": [],
      "stateMutability": "nonpayable",
      "type": "function"
    },
    {
      "inputs": [
        {
          "internalType": "uint256",
          "name": "id",
          "type": "uint256"
        }
      ],
      "name": "totalSupply",
      "outputs": [
        {
          "internalType": "uint256",
          "name": "",
          "type": "uint256"
        }
      ],
      "stateMutability": "view",
      "type": "function"
    },
    {
      "inputs": [
        {
          "internalType": "address",
          "name": "impl_",
          "type": "address"
        }
      ],
      "name": "upgrade",
      "outputs": [],
      "stateMutability": "nonpayable",
      "type": "function"
    },
    {
      "stateMutability": "payable",
      "type": "receive"
    },
    {
      "inputs": [
        {
          "internalType": "bytes4",
          "name": "interfaceId",
          "type": "bytes4"
        }
      ],
      "name": "supportsInterface",
      "outputs": [
        {
          "internalType": "bool",
          "name": "",
          "type": "bool"
        }
      ],
      "stateMutability": "view",
      "type": "function"
    },
    {
      "inputs": [
        {
          "internalType": "address",
          "name": "host",
          "type": "address"
        },
        {
          "internalType": "address",
          "name": "operator",
          "type": "address"
        },
        {
          "internalType": "enum IAssetShell.SaleType",
          "name": "_saleType",
          "type": "uint8"
        },
        {
          "components": [
            {
              "internalType": "string",
              "name": "name",
              "type": "string"
            },
            {
              "internalType": "string",
              "name": "description",
              "type": "string"
            },
            {
              "internalType": "string",
              "name": "image",
              "type": "string"
            },
            {
              "internalType": "string",
              "name": "external_link",
              "type": "string"
            },
            {
              "internalType": "uint32",
              "name": "seller_fee_basis_points",
              "type": "uint32"
            },
            {
              "internalType": "address",
              "name": "fee_recipient",
              "type": "address"
            },
            {
              "internalType": "string",
              "name": "base_contract_uri",
              "type": "string"
            },
            {
              "internalType": "string",
              "name": "base_uri",
              "type": "string"
            }
          ],
          "internalType": "struct AssetModule.InitContractURI",
          "name": "uri",
          "type": "tuple"
        }
      ],
      "name": "initAssetShell",
      "outputs": [],
      "stateMutability": "nonpayable",
      "type": "function"
    },
    {
      "inputs": [
        {
          "internalType": "address",
          "name": "operator",
          "type": "address"
        },
        {
          "internalType": "address",
          "name": "from",
          "type": "address"
        },
        {
          "internalType": "uint256",
          "name": "tokenId",
          "type": "uint256"
        },
        {
          "internalType": "uint256",
          "name": "value",
          "type": "uint256"
        },
        {
          "internalType": "bytes",
          "name": "data",
          "type": "bytes"
        }
      ],
      "name": "onERC1155Received",
      "outputs": [
        {
          "internalType": "bytes4",
          "name": "",
          "type": "bytes4"
        }
      ],
      "stateMutability": "nonpayable",
      "type": "function"
    },
    {
      "inputs": [
        {
          "internalType": "address",
          "name": "operator",
          "type": "address"
        },
        {
          "internalType": "address",
          "name": "from",
          "type": "address"
        },
        {
          "internalType": "uint256[]",
          "name": "ids",
          "type": "uint256[]"
        },
        {
          "internalType": "uint256[]",
          "name": "values",
          "type": "uint256[]"
        },
        {
          "internalType": "bytes",
          "name": "data",
          "type": "bytes"
        }
      ],
      "name": "onERC1155BatchReceived",
      "outputs": [
        {
          "internalType": "bytes4",
          "name": "",
          "type": "bytes4"
        }
      ],
      "stateMutability": "nonpayable",
      "type": "function"
    },
    {
      "inputs": [
        {
          "internalType": "address",
          "name": "metaToken",
          "type": "address"
        },
        {
          "internalType": "uint256",
          "name": "metaTokenId",
          "type": "uint256"
        }
      ],
      "name": "convertTokenID",
      "outputs": [
        {
          "internalType": "uint256",
          "name": "",
          "type": "uint256"
        }
      ],
      "stateMutability": "pure",
      "type": "function"
    },
    {
      "inputs": [
        {
          "internalType": "uint256",
          "name": "tokenId",
          "type": "uint256"
        }
      ],
      "name": "uri",
      "outputs": [
        {
          "internalType": "string",
          "name": "",
          "type": "string"
        }
      ],
      "stateMutability": "view",
      "type": "function"
    },
    {
      "inputs": [
        {
          "internalType": "uint256",
          "name": "tokenId",
          "type": "uint256"
        }
      ],
      "name": "assetMeta",
      "outputs": [
        {
          "components": [
            {
              "internalType": "address",
              "name": "token",
              "type": "address"
            },
            {
              "internalType": "uint256",
              "name": "tokenId",
              "type": "uint256"
            }
          ],
          "internalType": "struct IAssetShell.AssetID",
          "name": "meta",
          "type": "tuple"
        }
      ],
      "stateMutability": "view",
      "type": "function"
    },
    {
      "inputs": [
        {
          "internalType": "uint256",
          "name": "tokenId",
          "type": "uint256"
        },
        {
          "internalType": "address",
          "name": "owner",
          "type": "address"
        },
        {
          "internalType": "uint256",
          "name": "count",
          "type": "uint256"
        }
      ],
      "name": "withdraw",
      "outputs": [],
      "stateMutability": "nonpayable",
      "type": "function"
    },
    {
      "inputs": [
        {
          "internalType": "uint256",
          "name": "tokenId",
          "type": "uint256"
        },
        {
          "internalType": "address",
          "name": "owner",
          "type": "address"
        }
      ],
      "name": "lockedItems",
      "outputs": [
        {
          "internalType": "uint256",
          "name": "items",
          "type": "uint256"
        },
        {
          "internalType": "uint64",
          "name": "total",
          "type": "uint64"
        }
      ],
      "stateMutability": "view",
      "type": "function"
    },
    {
      "inputs": [
        {
          "internalType": "uint256",
          "name": "tokenId",
          "type": "uint256"
        },
        {
          "internalType": "address",
          "name": "owner",
          "type": "address"
        },
        {
          "internalType": "uint256",
          "name": "index",
          "type": "uint256"
        }
      ],
      "name": "lockedAt",
      "outputs": [
        {
          "internalType": "address",
          "name": "previous",
          "type": "address"
        },
        {
          "components": [
            {
              "internalType": "uint64",
              "name": "count",
              "type": "uint64"
            },
            {
              "internalType": "uint64",
              "name": "blockNumber",
              "type": "uint64"
            },
            {
              "internalType": "uint64",
              "name": "index",
              "type": "uint64"
            }
          ],
          "internalType": "struct AssetShell.LockedItem",
          "name": "item",
          "type": "tuple"
        }
      ],
      "stateMutability": "view",
      "type": "function"
    },
    {
      "inputs": [
        {
          "internalType": "uint256",
          "name": "tokenId",
          "type": "uint256"
        },
        {
          "internalType": "address",
          "name": "owner",
          "type": "address"
        },
        {
          "internalType": "address",
          "name": "previous",
          "type": "address"
        }
      ],
      "name": "lockedOf",
      "outputs": [
        {
          "components": [
            {
              "internalType": "uint64",
              "name": "count",
              "type": "uint64"
            },
            {
              "internalType": "uint64",
              "name": "blockNumber",
              "type": "uint64"
            },
            {
              "internalType": "uint64",
              "name": "index",
              "type": "uint64"
            }
          ],
          "internalType": "struct AssetShell.LockedItem",
          "name": "item",
          "type": "tuple"
        }
      ],
      "stateMutability": "view",
      "type": "function"
    },
    {
      "inputs": [
        {
          "internalType": "uint256",
          "name": "tokenId",
          "type": "uint256"
        }
      ],
      "name": "minimumPrice",
      "outputs": [
        {
          "internalType": "uint256",
          "name": "",
          "type": "uint256"
        }
      ],
      "stateMutability": "view",
      "type": "function"
    },
    {
      "inputs": [
        {
          "components": [
            {
              "components": [
                {
                  "internalType": "uint256",
                  "name": "tokenId",
                  "type": "uint256"
                },
                {
                  "internalType": "address",
                  "name": "owner",
                  "type": "address"
                },
                {
                  "internalType": "address",
                  "name": "previous",
                  "type": "address"
                }
              ],
              "internalType": "struct AssetShell.LockedID",
              "name": "lock",
              "type": "tuple"
            },
            {
              "internalType": "enum AssetShell.PayType",
              "name": "payType",
              "type": "uint8"
            },
            {
              "internalType": "uint256",
              "name": "payValue",
              "type": "uint256"
            },
            {
              "internalType": "address",
              "name": "payBank",
              "type": "address"
            },
            {
              "internalType": "address",
              "name": "payer",
              "type": "address"
            }
          ],
          "internalType": "struct AssetShell.UnlockForOperator[]",
          "name": "data",
          "type": "tuple[]"
        }
      ],
      "name": "unlockForOperator",
      "outputs": [],
      "stateMutability": "payable",
      "type": "function"
    },
    {
      "inputs": [
        {
          "components": [
            {
              "internalType": "uint256",
              "name": "tokenId",
              "type": "uint256"
            },
            {
              "internalType": "address",
              "name": "owner",
              "type": "address"
            },
            {
              "internalType": "address",
              "name": "previous",
              "type": "address"
            }
          ],
          "internalType": "struct AssetShell.LockedID",
          "name": "lock",
          "type": "tuple"
        }
      ],
      "name": "unlock",
      "outputs": [],
      "stateMutability": "payable",
      "type": "function"
    }
  ],
  "bytecode": "0x608060405234801561001057600080fd5b50614696806100206000396000f3fe6080604052600436106102495760003560e01c8063758f969a11610139578063b3ab15fb116100b6578063e985e9c51161007a578063e985e9c514610834578063f23a6e611461087d578063f242432a1461089d578063f3ccaac0146108bd578063f437bc59146108d2578063f9b62b7a146108f057600080fd5b8063b3ab15fb14610779578063bc197c8114610799578063bd85b039146107d2578063e63697c8146107ff578063e8a3d4851461081f57600080fd5b806391d81889116100fd57806391d818891461067557806391eb3dee14610695578063939cabda146106b5578063a22cb4651461072b578063afa2e6621461074b57600080fd5b8063758f969a146105ef5780637972bdf31461060f5780637b1bc21d146106245780638abf60771461063757806390c3f38f1461065557600080fd5b80634c6e425b116101c75780635bcc79281161018b5780635bcc79281461053557806362f8a8551461055c5780636c0360eb1461058c57806371fcf468146105a15780637284e416146105da57600080fd5b80634c6e425b146104675780634e1273f4146104875780634f558e79146104b45780635027b8b8146104e3578063570ca7351461050357600080fd5b806312dba7851161020e57806312dba785146103525780632eb2c2d61461036757806330cc317b1461038757806335c2c7bd146103a7578063432d72af146103ba57600080fd5b8062fdd58e1461028d57806301ffc9a7146102c057806306fdde03146102f05780630900f010146103125780630e89341c1461033257600080fd5b36610288576040805160608101825260185481526019546001600160a01b039081166020830152601a541691810191909152610286903334610934565b005b600080fd5b34801561029957600080fd5b506102ad6102a83660046133a3565b610dae565b6040519081526020015b60405180910390f35b3480156102cc57600080fd5b506102e06102db3660046133e5565b610e49565b60405190151581526020016102b7565b3480156102fc57600080fd5b50610305610e7c565b6040516102b79190613452565b34801561031e57600080fd5b5061028661032d366004613465565b610f0e565b34801561033e57600080fd5b5061030561034d366004613482565b610f79565b34801561035e57600080fd5b50610305611004565b34801561037357600080fd5b5061028661038236600461361d565b611092565b34801561039357600080fd5b506102866103a2366004613465565b6110de565b6102866103b5366004613736565b611142565b3480156103c657600080fd5b5061045a6103d5366004613752565b604080516060808201835260008083526020808401829052928401819052958652601782528286206001600160a01b0395861687526003018252828620939094168552600190920182529283902083519283018452546001600160401b038082168452600160401b8204811692840192909252600160801b9004169181019190915290565b6040516102b79190613794565b34801561047357600080fd5b506102866104823660046133e5565b611150565b34801561049357600080fd5b506104a76104a23660046137c4565b611182565b6040516102b79190613890565b3480156104c057600080fd5b506102e06104cf366004613482565b600090815260166020526040902054151590565b3480156104ef57600080fd5b506102866104fe3660046138e8565b6112ab565b34801561050f57600080fd5b506003546001600160a01b03165b6040516001600160a01b0390911681526020016102b7565b34801561054157600080fd5b50601b5461054f9060ff1681565b6040516102b79190613a9f565b34801561056857600080fd5b506102ad610577366004613482565b60009081526017602052604090206002015490565b34801561059857600080fd5b506103056112f0565b3480156105ad57600080fd5b506010546105c590600160a01b900463ffffffff1681565b60405163ffffffff90911681526020016102b7565b3480156105e657600080fd5b506103056112fd565b3480156105fb57600080fd5b5060105461051d906001600160a01b031681565b34801561061b57600080fd5b5061030561130c565b610286610632366004613aad565b611319565b34801561064357600080fd5b506000546001600160a01b031661051d565b34801561066157600080fd5b50610286610670366004613b21565b611512565b34801561068157600080fd5b506102ad6106903660046133a3565b611663565b3480156106a157600080fd5b506102866106b0366004613b5d565b6116ab565b3480156106c157600080fd5b5061070e6106d0366004613b78565b60009182526017602090815260408084206001600160a01b0390931684526003909201905290206002810154905490916001600160401b0390911690565b604080519283526001600160401b039091166020830152016102b7565b34801561073757600080fd5b50610286610746366004613bb6565b611806565b34801561075757600080fd5b5061076b610766366004613be4565b611815565b6040516102b7929190613c1c565b34801561078557600080fd5b50610286610794366004613465565b6118d2565b3480156107a557600080fd5b506107b96107b4366004613ce7565b611936565b6040516001600160e01b031990911681526020016102b7565b3480156107de57600080fd5b506102ad6107ed366004613482565b60009081526016602052604090205490565b34801561080b57600080fd5b5061028661081a366004613be4565b611951565b34801561082b57600080fd5b50610305611ab9565b34801561084057600080fd5b506102e061084f366004613da5565b6001600160a01b03918216600090815260136020908152604080832093909416825291909152205460ff1690565b34801561088957600080fd5b506107b9610898366004613dd3565b611cbc565b3480156108a957600080fd5b506102866108b8366004613e4e565b611d9f565b3480156108c957600080fd5b50610305611de4565b3480156108de57600080fd5b506002546001600160a01b031661051d565b3480156108fc57600080fd5b5061091061090b366004613482565b611df1565b6040805182516001600160a01b0316815260209283015192810192909252016102b7565b82516000908152601760209081526040808320828701516001600160a01b039081168552600382018452828520838901519091168552600181019093529083208054919390916001600160401b0316908190036109a457604051632170716560e11b815260040160405180910390fd5b6020870151601054600090600160a01b900463ffffffff166109c888612710613ecc565b6109d29190613ee3565b845460028801549192506000916109f2916001600160401b031690613ecc565b905080821015610a1557604051630b7b66df60e31b815260040160405180910390fd5b600260009054906101000a90046001600160a01b03166001600160a01b03166356397c356040518163ffffffff1660e01b8152600401602060405180830381865afa158015610a68573d6000803e3d6000fd5b505050506040513d601f19601f82011682018060405250810190610a8c9190613f05565b6001600160a01b0316639521894789308d600001518d8f6040015189898d60000160009054906101000a90046001600160401b0316601b60009054906101000a900460ff166040518a63ffffffff1660e01b8152600401610af4989796959493929190613f22565b6000604051808303818588803b158015610b0d57600080fd5b505af1158015610b21573d6000803e3d6000fd5b50508c516018541492505081159050610b4c575060208a01516019546001600160a01b039081169116145b8015610b6a575060408a0151601a546001600160a01b039081169116145b15610b755760006018555b855484908790600090610b929084906001600160401b0316613f82565b82546101009290920a6001600160401b0381810219909316918316021790915560028801548754909250610bd091600160801b909104166001613fa2565b6001600160401b03161015610c7157600286018054610bf190600190613fc2565b81548110610c0157610c01613fd5565b60009182526020909120015485546002880180546001600160a01b03909316929091600160801b90046001600160401b0316908110610c4257610c42613fd5565b9060005260206000200160006101000a8154816001600160a01b0302191690836001600160a01b031602179055505b85600201805480610c8457610c84613feb565b60008281526020808220830160001990810180546001600160a01b03191690559092019092556040808d01516001600160a01b03168352600189810190925290912080546001600160c01b0319169055601b5460ff166002811115610ceb57610ceb613a67565b03610da2576002870154604080516001600160a01b03861660208201529081019190915260009060600160408051808303601f1901815290829052600254632187baed60e11b835260056004840152909250610da09186916001600160a01b03169063430f75da90602401602060405180830381865afa158015610d73573d6000803e3d6000fd5b505050506040513d601f19601f82011682018060405250810190610d979190613f05565b8d518885611e56565b505b50505050505050505050565b60006001600160a01b038316610e1e5760405162461bcd60e51b815260206004820152602a60248201527f455243313135353a2061646472657373207a65726f206973206e6f742061207660448201526930b634b21037bbb732b960b11b60648201526084015b60405180910390fd5b5060008181526012602090815260408083206001600160a01b03861684529091529020545b92915050565b6000610e5482611ee6565b80610e4357506001600160e01b0319821660009081526001602052604090205460ff16610e43565b6060600d8054610e8b90614001565b80601f0160208091040260200160405190810160405280929190818152602001828054610eb790614001565b8015610f045780601f10610ed957610100808354040283529160200191610f04565b820191906000526020600020905b815481529060010190602001808311610ee757829003601f168201915b5050505050905090565b610f16611f1c565b610f3357604051631b4004a360e31b815260040160405180910390fd5b600080546001600160a01b0319166001600160a01b038316908117909155604051908152600390600080516020614641833981519152906020015b60405180910390a250565b60606000610f8683611df1565b805160208201516040516303a24d0760e21b815260048101919091529192506001600160a01b031690630e89341c90602401600060405180830381865afa158015610fd5573d6000803e3d6000fd5b505050506040513d6000823e601f3d908101601f19168201604052610ffd919081019061403b565b9392505050565b6011805461101190614001565b80601f016020809104026020016040519081016040528092919081815260200182805461103d90614001565b801561108a5780601f1061105f5761010080835404028352916020019161108a565b820191906000526020600020905b81548152906001019060200180831161106d57829003601f168201915b505050505081565b6001600160a01b0385163314806110ae57506110ae853361084f565b6110ca5760405162461bcd60e51b8152600401610e15906140bc565b6110d7858585858561205b565b5050505050565b6110e6611f1c565b61110357604051631b4004a360e31b815260040160405180910390fd5b601080546001600160a01b0319166001600160a01b03831690811790915560405190815260079060008051602061464183398151915290602001610f6e565b61114d813334610934565b50565b61115981610e49565b61114d57604051632aae78ef60e01b81526001600160e01b031982166004820152602401610e15565b606081518351146111e75760405162461bcd60e51b815260206004820152602960248201527f455243313135353a206163636f756e747320616e6420696473206c656e677468604482015268040dad2e6dac2e8c6d60bb1b6064820152608401610e15565b600083516001600160401b038111156112025761120261349b565b60405190808252806020026020018201604052801561122b578160200160208202803683370190505b50905060005b84518110156112a35761127685828151811061124f5761124f613fd5565b602002602001015185838151811061126957611269613fd5565b6020026020010151610dae565b82828151811061128857611288613fd5565b602090810291909101015261129c8161410a565b9050611231565b509392505050565b6112b6848483612074565b6112c66343234e9560e01b612121565b601b805483919060ff191660018360028111156112e5576112e5613a67565b021790555050505050565b6014805461101190614001565b606060048054610e8b90614001565b600f805461101190614001565b600254604080516340c3aa5360e11b8152905133926001600160a01b03169163818754a69160048083019260209291908290030181865afa158015611362573d6000803e3d6000fd5b505050506040513d601f19601f820116820180604052508101906113869190613f05565b6001600160a01b0316146113ad576040516303b89fe560e21b815260040160405180910390fd5b3460005b8281101561150c5760008484838181106113cd576113cd613fd5565b905060e002018036038101906113e39190614123565b90506000816020015160018111156113fd576113fd613a67565b0361145457806040015183101561142757604051630b7b66df60e31b815260040160405180910390fd5b60408101516114369084613fc2565b925061144f816000015182608001518360400151610934565b6114f9565b80606001516001600160a01b0316632e1a7d4d82604001516040518263ffffffff1660e01b815260040161148a91815260200190565b600060405180830381600087803b1580156114a457600080fd5b505af11580156114b8573d6000803e3d6000fd5b505050506040810151303110156114e257604051636a9dd36f60e11b815260040160405180910390fd5b6114f9816000015182608001518360400151610934565b50806115048161410a565b9150506113b1565b50505050565b63d0a4ad9661151f611f1c565b61162857600260009054906101000a90046001600160a01b03166001600160a01b031663e3f6b5446040518163ffffffff1660e01b8152600401602060405180830381865afa158015611576573d6000803e3d6000fd5b505050506040513d601f19601f8201168201806040525081019061159a9190613f05565b60405163a8a555c560e01b8152336004820152602481018390526001600160a01b03919091169063a8a555c590604401602060405180830381865afa1580156115e7573d6000803e3d6000fd5b505050506040513d601f19601f8201168201806040525081019061160b91906141b4565b61162857604051630782484160e21b815260040160405180910390fd5b6004611634838261421c565b506001600080516020614641833981519152600060405161165791815260200190565b60405180910390a25050565b6040516bffffffffffffffffffffffff19606084901b1660208201526034810182905260009060540160408051601f1981840301815291905280516020909101209392505050565b6391eb3dee6116b8611f1c565b6117c157600260009054906101000a90046001600160a01b03166001600160a01b031663e3f6b5446040518163ffffffff1660e01b8152600401602060405180830381865afa15801561170f573d6000803e3d6000fd5b505050506040513d601f19601f820116820180604052508101906117339190613f05565b60405163a8a555c560e01b8152336004820152602481018390526001600160a01b03919091169063a8a555c590604401602060405180830381865afa158015611780573d6000803e3d6000fd5b505050506040513d601f19601f820116820180604052508101906117a491906141b4565b6117c157604051630782484160e21b815260040160405180910390fd5b6010805463ffffffff60a01b1916600160a01b63ffffffff85169081029190911790915560405190815260069060008051602061464183398151915290602001611657565b6118113383836121a3565b5050565b6040805160608101825260008082526020808301829052828401829052868252601781528382206001600160a01b038716835260030190529182206002810180548590811061186657611866613fd5565b60009182526020808320909101546001600160a01b03168083526001939093018152604091829020825160608101845290546001600160401b038082168352600160401b8204811693830193909352600160801b90049091169181019190915290969095509350505050565b6118da611f1c565b6118f757604051631b4004a360e31b815260040160405180910390fd5b600380546001600160a01b0319166001600160a01b03831690811790915560405190815260029060008051602061464183398151915290602001610f6e565b6000604051632974974360e01b815260040160405180910390fd5b632e1a7d4d61195e611f1c565b611a6757600260009054906101000a90046001600160a01b03166001600160a01b031663e3f6b5446040518163ffffffff1660e01b8152600401602060405180830381865afa1580156119b5573d6000803e3d6000fd5b505050506040513d601f19601f820116820180604052508101906119d99190613f05565b60405163a8a555c560e01b8152336004820152602481018390526001600160a01b03919091169063a8a555c590604401602060405180830381865afa158015611a26573d6000803e3d6000fd5b505050506040513d601f19601f82011682018060405250810190611a4a91906141b4565b611a6757604051630782484160e21b815260040160405180910390fd5b600084815260176020526040902080546001600160a01b0316611a9d57604051632a563a4960e11b815260040160405180910390fd5b6110d78485878660405180602001604052806000815250611e56565b60606000611b50600d8054611acd90614001565b80601f0160208091040260200160405190810160405280929190818152602001828054611af990614001565b8015611b465780601f10611b1b57610100808354040283529160200191611b46565b820191906000526020600020905b815481529060010190602001808311611b2957829003601f168201915b5050505050612283565b604051602001611b6091906142f7565b60405160208183030381529060405290506000611b8360048054611acd90614001565b604051602001611b939190614328565b60405160208183030381529060405290506000611bb6600e8054611acd90614001565b604051602001611bc69190614360565b60405160208183030381529060405290506000611be9600f8054611acd90614001565b604051602001611bf99190614392565b60408051808303601f19018152919052601054909150600090611c2890600160a01b900463ffffffff166123db565b604051602001611c3891906143cc565b60408051601f19818403018152919052601054909150600090611c63906001600160a01b031661246d565b604051602001611c739190614411565b60405160208183030381529060405290506011868686868686604051602001611ca29796959493929190614448565b604051602081830303815290604052965050505050505090565b600080611cc833612483565b9050306001600160a01b03881603611cdf57600080fd5b600080611cee858701876133a3565b90925090506000611cff848a611663565b60008181526017602052604081206002810154929350919003611d2457600281018390555b80546001600160a01b0319166001600160a01b038616178155600181018a90556001600160401b03891115611d6c57604051630ad1fa1b60e41b815260040160405180910390fd5b611d8784838b60405180602001604052806000815250612546565b5063f23a6e6160e01b9b9a5050505050505050505050565b6001600160a01b038516331480611dbb5750611dbb853361084f565b611dd75760405162461bcd60e51b8152600401610e15906140bc565b6110d7858585858561267a565b600e805461101190614001565b6040805180820182526000808252602091820181905283815260178252829020825180840190935280546001600160a01b031680845260019091015491830191909152611e5157604051632a563a4960e11b815260040160405180910390fd5b919050565b60008381526017602052604090819020805460018201549251637921219560e11b815291926001600160a01b039091169163f242432a91611ea19130918a918990899060040161450f565b600060405180830381600087803b158015611ebb57600080fd5b505af1158015611ecf573d6000803e3d6000fd5b50505050611ede868585612845565b505050505050565b60006001600160e01b03198216636cdb3d1360e11b1480610e4357506001600160e01b031982166303a24d0760e21b1492915050565b60035460009033906001600160a01b0316811461205357600260009054906101000a90046001600160a01b03166001600160a01b031663570ca7356040518163ffffffff1660e01b8152600401602060405180830381865afa158015611f86573d6000803e3d6000fd5b505050506040513d601f19601f82011682018060405250810190611faa9190613f05565b6001600160a01b0316816001600160a01b03161461205357600260009054906101000a90046001600160a01b03166001600160a01b031663ebf0c7176040518163ffffffff1660e01b8152600401602060405180830381865afa158015612015573d6000803e3d6000fd5b505050506040513d601f19601f820116820180604052508101906120399190613f05565b6001600160a01b0316816001600160a01b03161491505090565b600191505090565b604051632974974360e01b815260040160405180910390fd5b612083838260200151846129e3565b8051600d90612092908261421c565b506040810151600e906120a5908261421c565b506060810151600f906120b8908261421c565b5060a08101516001600160a01b0316156120d6578060a001516120d8565b305b60108054608084015163ffffffff16600160a01b026001600160c01b03199091166001600160a01b03939093169290921791909117905560c081015160119061150c908261421c565b6001600160e01b0319808216900361217b5760405162461bcd60e51b815260206004820152601c60248201527f4552433136353a20696e76616c696420696e74657266616365206964000000006044820152606401610e15565b6001600160e01b0319166000908152600160208190526040909120805460ff19169091179055565b816001600160a01b0316836001600160a01b0316036122165760405162461bcd60e51b815260206004820152602960248201527f455243313135353a2073657474696e6720617070726f76616c20737461747573604482015268103337b91039b2b63360b91b6064820152608401610e15565b6001600160a01b03838116600081815260136020908152604080832094871680845294825291829020805460ff191686151590811790915591519182527f17307eab39ab6107e8899845ad3d59bd9653f200f220920489ca2b5937696c31910160405180910390a3505050565b60606000825160026122959190613ecc565b6001600160401b038111156122ac576122ac61349b565b6040519080825280601f01601f1916602001820160405280156122d6576020820181803683370190505b50905060005b83518110156123d45760008482815181106122f9576122f9613fd5565b016020015160f881901c91506f181899199a1a9b1b9c1cb0b131b232b360811b9060fc1c6010811061232d5761232d613fd5565b1a60f81b83600184901b8151811061234757612347613fd5565b60200101906001600160f81b031916908160001a9053506f181899199a1a9b1b9c1cb0b131b232b360811b600f82166010811061238657612386613fd5565b1a60f81b83612399600185811b90614554565b815181106123a9576123a9613fd5565b60200101906001600160f81b031916908160001a9053505080806123cc9061410a565b9150506122dc565b5092915050565b606060006123e883612a47565b60010190506000816001600160401b038111156124075761240761349b565b6040519080825280601f01601f191660200182016040528015612431576020820181803683370190505b5090508181016020015b600019016f181899199a1a9b1b9c1cb0b131b232b360811b600a86061a8153600a850494508461243b57509392505050565b6060610e436001600160a01b0383166014612b1f565b60006001600160a01b0382163b6124ad57604051634aa4cf5160e01b815260040160405180910390fd5b6040516301ffc9a760e01b8152636cdb3d1360e11b60048201526001600160a01b038316906301ffc9a790602401602060405180830381865afa1580156124f8573d6000803e3d6000fd5b505050506040513d601f19601f8201168201806040525081019061251c91906141b4565b61254257604051632aae78ef60e01b8152636cdb3d1360e11b6004820152602401610e15565b5090565b6001600160a01b0384166125a65760405162461bcd60e51b815260206004820152602160248201527f455243313135353a206d696e7420746f20746865207a65726f206164647265736044820152607360f81b6064820152608401610e15565b3360006125b285612cba565b905060006125bf85612cba565b90506125d083600089858589612d05565b60008681526012602090815260408083206001600160a01b038b16845290915281208054879290612602908490614554565b909155505060408051878152602081018790526001600160a01b03808a1692600092918716917fc3d58168c5ae7397731d063d5bbf3d657854427343f4c083240f7aacaa2d0f62910160405180910390a461266283600089858589612e7e565b612671836000898989896130b4565b50505050505050565b6001600160a01b0384166126de5760405162461bcd60e51b815260206004820152602560248201527f455243313135353a207472616e7366657220746f20746865207a65726f206164604482015264647265737360d81b6064820152608401610e15565b3360006126ea85612cba565b905060006126f785612cba565b9050612707838989858589612d05565b60008681526012602090815260408083206001600160a01b038c1684529091529020548581101561278d5760405162461bcd60e51b815260206004820152602a60248201527f455243313135353a20696e73756666696369656e742062616c616e636520666f60448201526939103a3930b739b332b960b11b6064820152608401610e15565b60008781526012602090815260408083206001600160a01b038d8116855292528083208985039055908a168252812080548892906127cc908490614554565b909155505060408051888152602081018890526001600160a01b03808b16928c821692918816917fc3d58168c5ae7397731d063d5bbf3d657854427343f4c083240f7aacaa2d0f62910160405180910390a461282c848a8a86868a612e7e565b61283a848a8a8a8a8a6130b4565b505050505050505050565b6001600160a01b0383166128a75760405162461bcd60e51b815260206004820152602360248201527f455243313135353a206275726e2066726f6d20746865207a65726f206164647260448201526265737360e81b6064820152608401610e15565b3360006128b384612cba565b905060006128c084612cba565b90506128e083876000858560405180602001604052806000815250612d05565b60008581526012602090815260408083206001600160a01b038a1684529091529020548481101561295f5760405162461bcd60e51b8152602060048201526024808201527f455243313135353a206275726e20616d6f756e7420657863656564732062616c604482015263616e636560e01b6064820152608401610e15565b60008681526012602090815260408083206001600160a01b038b81168086529184528285208a8703905582518b81529384018a90529092908816917fc3d58168c5ae7397731d063d5bbf3d657854427343f4c083240f7aacaa2d0f62910160405180910390a461267184886000868660405180602001604052806000815250612e7e565b6129eb613250565b6129fb630d64f40d60e31b612121565b600280546001600160a01b0319166001600160a01b0385161790556004612a22838261421c565b50600380546001600160a01b0319166001600160a01b03929092169190911790555050565b60008072184f03e93ff9f4daa797ed6e38ed64bf6a1f0160401b8310612a865772184f03e93ff9f4daa797ed6e38ed64bf6a1f0160401b830492506040015b6d04ee2d6d415b85acef81000000008310612ab2576d04ee2d6d415b85acef8100000000830492506020015b662386f26fc100008310612ad057662386f26fc10000830492506010015b6305f5e1008310612ae8576305f5e100830492506008015b6127108310612afc57612710830492506004015b60648310612b0e576064830492506002015b600a8310610e435760010192915050565b60606000612b2e836002613ecc565b612b39906002614554565b6001600160401b03811115612b5057612b5061349b565b6040519080825280601f01601f191660200182016040528015612b7a576020820181803683370190505b509050600360fc1b81600081518110612b9557612b95613fd5565b60200101906001600160f81b031916908160001a905350600f60fb1b81600181518110612bc457612bc4613fd5565b60200101906001600160f81b031916908160001a9053506000612be8846002613ecc565b612bf3906001614554565b90505b6001811115612c6b576f181899199a1a9b1b9c1cb0b131b232b360811b85600f1660108110612c2757612c27613fd5565b1a60f81b828281518110612c3d57612c3d613fd5565b60200101906001600160f81b031916908160001a90535060049490941c93612c6481614567565b9050612bf6565b508315610ffd5760405162461bcd60e51b815260206004820181905260248201527f537472696e67733a20686578206c656e67746820696e73756666696369656e746044820152606401610e15565b60408051600180825281830190925260609160009190602080830190803683370190505090508281600081518110612cf457612cf4613fd5565b602090810291909101015292915050565b6001600160a01b038516612d8c5760005b8351811015612d8a57828181518110612d3157612d31613fd5565b602002602001015160166000868481518110612d4f57612d4f613fd5565b602002602001015181526020019081526020016000206000828254612d749190614554565b90915550612d8390508161410a565b9050612d16565b505b6001600160a01b038416611ede5760005b8351811015612671576000848281518110612dba57612dba613fd5565b602002602001015190506000848381518110612dd857612dd8613fd5565b6020026020010151905060006016600084815260200190815260200160002054905081811015612e5b5760405162461bcd60e51b815260206004820152602860248201527f455243313135353a206275726e20616d6f756e74206578636565647320746f74604482015267616c537570706c7960c01b6064820152608401610e15565b60009283526016602052604090922091039055612e778161410a565b9050612d9d565b60005b8351811015612671576000848281518110612e9e57612e9e613fd5565b6020026020010151905060006017600083815260200190815260200160002090506000858481518110612ed357612ed3613fd5565b60200260200101519050816002015460001461309e576001600160a01b0389161561309e576001600160a01b03891660009081526003830160205260409020546001600160401b0316612f268a85610dae565b1015612f455760405163798efa8760e11b815260040160405180910390fd5b6001600160a01b0388161561309e576001600160a01b0380891660009081526003840160209081526040808320938d16835260018401909152902080546001600160401b031615612fa95760405163e0caa31160e01b815260040160405180910390fd5b815483908390600090612fc69084906001600160401b0316613fa2565b82546001600160401b039182166101009390930a928302928202191691909117909155600290930180548354438616600160401b026fffffffffffffffffffffffffffffffff19928716600160801b02929092166001600160c01b031990911617948616949094179390931790915550805460018101825560009182526020918290200180546001600160a01b03808d166001600160a01b0319928316811790935560408051606081018252888152918d16948201859052018290526018869055601980548216909317909255601a80549092161790555b50505080806130ac9061410a565b915050612e81565b6001600160a01b0384163b15611ede5760405163f23a6e6160e01b81526001600160a01b0385169063f23a6e61906130f8908990899088908890889060040161450f565b6020604051808303816000875af1925050508015613133575060408051601f3d908101601f191682019092526131309181019061457e565b60015b6131df5761313f61459b565b806308c379a00361317857506131536145b7565b8061315e575061317a565b8060405162461bcd60e51b8152600401610e159190613452565b505b60405162461bcd60e51b815260206004820152603460248201527f455243313135353a207472616e7366657220746f206e6f6e2d455243313135356044820152732932b1b2b4bb32b91034b6b83632b6b2b73a32b960611b6064820152608401610e15565b6001600160e01b0319811663f23a6e6160e01b146126715760405162461bcd60e51b815260206004820152602860248201527f455243313135353a204552433131353552656365697665722072656a656374656044820152676420746f6b656e7360c01b6064820152608401610e15565b600054600160a81b900460ff161580801561327857506000546001600160a01b90910460ff16105b806132995750303b1580156132995750600054600160a01b900460ff166001145b6132fc5760405162461bcd60e51b815260206004820152602e60248201527f496e697469616c697a61626c653a20636f6e747261637420697320616c72656160448201526d191e481a5b9a5d1a585b1a5e995960921b6064820152608401610e15565b6000805460ff60a01b1916600160a01b1790558015613329576000805460ff60a81b1916600160a81b1790555b6133396301ffc9a760e01b612121565b801561114d576000805460ff60a81b19169055604051600181527f7f26b83ff96e1f2b6a682f133852f6798a09c465da95921460cefb38474024989060200160405180910390a150565b6001600160a01b038116811461114d57600080fd5b8035611e5181613383565b600080604083850312156133b657600080fd5b82356133c181613383565b946020939093013593505050565b6001600160e01b03198116811461114d57600080fd5b6000602082840312156133f757600080fd5b8135610ffd816133cf565b60005b8381101561341d578181015183820152602001613405565b50506000910152565b6000815180845261343e816020860160208601613402565b601f01601f19169290920160200192915050565b602081526000610ffd6020830184613426565b60006020828403121561347757600080fd5b8135610ffd81613383565b60006020828403121561349457600080fd5b5035919050565b634e487b7160e01b600052604160045260246000fd5b601f8201601f191681016001600160401b03811182821017156134d6576134d661349b565b6040525050565b60405161010081016001600160401b03811182821017156135005761350061349b565b60405290565b60006001600160401b0382111561351f5761351f61349b565b5060051b60200190565b600082601f83011261353a57600080fd5b8135602061354782613506565b60405161355482826134b1565b83815260059390931b850182019282810191508684111561357457600080fd5b8286015b8481101561358f5780358352918301918301613578565b509695505050505050565b60006001600160401b038211156135b3576135b361349b565b50601f01601f191660200190565b600082601f8301126135d257600080fd5b81356135dd8161359a565b6040516135ea82826134b1565b8281528560208487010111156135ff57600080fd5b82602086016020830137600092810160200192909252509392505050565b600080600080600060a0868803121561363557600080fd5b853561364081613383565b9450602086013561365081613383565b935060408601356001600160401b038082111561366c57600080fd5b61367889838a01613529565b9450606088013591508082111561368e57600080fd5b61369a89838a01613529565b935060808801359150808211156136b057600080fd5b506136bd888289016135c1565b9150509295509295909350565b6000606082840312156136dc57600080fd5b604051606081018181106001600160401b03821117156136fe576136fe61349b565b60405282358152905080602083013561371681613383565b6020820152604083013561372981613383565b6040919091015292915050565b60006060828403121561374857600080fd5b610ffd83836136ca565b60008060006060848603121561376757600080fd5b83359250602084013561377981613383565b9150604084013561378981613383565b809150509250925092565b60608101610e43828480516001600160401b03908116835260208083015182169084015260409182015116910152565b600080604083850312156137d757600080fd5b82356001600160401b03808211156137ee57600080fd5b818501915085601f83011261380257600080fd5b8135602061380f82613506565b60405161381c82826134b1565b83815260059390931b850182019282810191508984111561383c57600080fd5b948201945b8386101561386357853561385481613383565b82529482019490820190613841565b9650508601359250508082111561387957600080fd5b5061388685828601613529565b9150509250929050565b6020808252825182820181905260009190848201906040850190845b818110156138c8578351835292840192918401916001016138ac565b50909695505050505050565b803563ffffffff81168114611e5157600080fd5b600080600080608085870312156138fe57600080fd5b843561390981613383565b9350602085013561391981613383565b925060408501356003811061392d57600080fd5b915060608501356001600160401b038082111561394957600080fd5b90860190610100828903121561395e57600080fd5b6139666134dd565b82358281111561397557600080fd5b6139818a8286016135c1565b82525060208301358281111561399657600080fd5b6139a28a8286016135c1565b6020830152506040830135828111156139ba57600080fd5b6139c68a8286016135c1565b6040830152506060830135828111156139de57600080fd5b6139ea8a8286016135c1565b6060830152506139fc608084016138d4565b6080820152613a0d60a08401613398565b60a082015260c083013582811115613a2457600080fd5b613a308a8286016135c1565b60c08301525060e083013582811115613a4857600080fd5b613a548a8286016135c1565b60e0830152509598949750929550505050565b634e487b7160e01b600052602160045260246000fd5b60038110613a9b57634e487b7160e01b600052602160045260246000fd5b9052565b60208101610e438284613a7d565b60008060208385031215613ac057600080fd5b82356001600160401b0380821115613ad757600080fd5b818501915085601f830112613aeb57600080fd5b813581811115613afa57600080fd5b86602060e083028501011115613b0f57600080fd5b60209290920196919550909350505050565b600060208284031215613b3357600080fd5b81356001600160401b03811115613b4957600080fd5b613b55848285016135c1565b949350505050565b600060208284031215613b6f57600080fd5b610ffd826138d4565b60008060408385031215613b8b57600080fd5b823591506020830135613b9d81613383565b809150509250929050565b801515811461114d57600080fd5b60008060408385031215613bc957600080fd5b8235613bd481613383565b91506020830135613b9d81613ba8565b600080600060608486031215613bf957600080fd5b833592506020840135613c0b81613383565b929592945050506040919091013590565b6001600160a01b038316815260808101610ffd602083018480516001600160401b03908116835260208083015182169084015260409182015116910152565b60008083601f840112613c6d57600080fd5b5081356001600160401b03811115613c8457600080fd5b6020830191508360208260051b8501011115613c9f57600080fd5b9250929050565b60008083601f840112613cb857600080fd5b5081356001600160401b03811115613ccf57600080fd5b602083019150836020828501011115613c9f57600080fd5b60008060008060008060008060a0898b031215613d0357600080fd5b8835613d0e81613383565b97506020890135613d1e81613383565b965060408901356001600160401b0380821115613d3a57600080fd5b613d468c838d01613c5b565b909850965060608b0135915080821115613d5f57600080fd5b613d6b8c838d01613c5b565b909650945060808b0135915080821115613d8457600080fd5b50613d918b828c01613ca6565b999c989b5096995094979396929594505050565b60008060408385031215613db857600080fd5b8235613dc381613383565b91506020830135613b9d81613383565b60008060008060008060a08789031215613dec57600080fd5b8635613df781613383565b95506020870135613e0781613383565b9450604087013593506060870135925060808701356001600160401b03811115613e3057600080fd5b613e3c89828a01613ca6565b979a9699509497509295939492505050565b600080600080600060a08688031215613e6657600080fd5b8535613e7181613383565b94506020860135613e8181613383565b9350604086013592506060860135915060808601356001600160401b03811115613eaa57600080fd5b6136bd888289016135c1565b634e487b7160e01b600052601160045260246000fd5b8082028115828204841417610e4357610e43613eb6565b600082613f0057634e487b7160e01b600052601260045260246000fd5b500490565b600060208284031215613f1757600080fd5b8151610ffd81613383565b6001600160a01b03898116825260208201899052878116604083015286811660608301528516608082015260a081018490526001600160401b03831660c08201526101008101613f7560e0830184613a7d565b9998505050505050505050565b6001600160401b038281168282160390808211156123d4576123d4613eb6565b6001600160401b038181168382160190808211156123d4576123d4613eb6565b81810381811115610e4357610e43613eb6565b634e487b7160e01b600052603260045260246000fd5b634e487b7160e01b600052603160045260246000fd5b600181811c9082168061401557607f821691505b60208210810361403557634e487b7160e01b600052602260045260246000fd5b50919050565b60006020828403121561404d57600080fd5b81516001600160401b0381111561406357600080fd5b8201601f8101841361407457600080fd5b805161407f8161359a565b60405161408c82826134b1565b8281528660208486010111156140a157600080fd5b6140b2836020830160208701613402565b9695505050505050565b6020808252602e908201527f455243313135353a2063616c6c6572206973206e6f7420746f6b656e206f776e60408201526d195c881bdc88185c1c1c9bdd995960921b606082015260800190565b60006001820161411c5761411c613eb6565b5060010190565b600060e0828403121561413557600080fd5b60405160a081018181106001600160401b03821117156141575761415761349b565b60405261416484846136ca565b815260608301356002811061417857600080fd5b60208201526080830135604082015260a083013561419581613383565b606082015260c08301356141a881613383565b60808201529392505050565b6000602082840312156141c657600080fd5b8151610ffd81613ba8565b601f82111561421757600081815260208120601f850160051c810160208610156141f85750805b601f850160051c820191505b81811015611ede57828155600101614204565b505050565b81516001600160401b038111156142355761423561349b565b614249816142438454614001565b846141d1565b602080601f83116001811461427e57600084156142665750858301515b600019600386901b1c1916600185901b178555611ede565b600085815260208120601f198616915b828110156142ad5788860151825594840194600190910190840161428e565b50858210156142cb5787850151600019600388901b60f8161c191681555b5050505050600190811b01905550565b600081516142ed818560208601613402565b9290920192915050565b683f6e616d653d30787360b81b81526000825161431b816009850160208701613402565b9190910160090192915050565b6f266465736372697074696f6e3d30787360801b815260008251614353816010850160208701613402565b9190910160100192915050565b6926696d6167653d30787360b01b81526000825161438581600a850160208701613402565b91909101600a0192915050565b712665787465726e616c5f6c696e6b3d30787360701b8152600082516143bf816012850160208701613402565b9190910160120192915050565b7f2673656c6c65725f6665655f62617369735f706f696e74733d00000000000000815260008251614404816019850160208701613402565b9190910160190192915050565b6e266665655f726563697069656e743d60881b81526000825161443b81600f850160208701613402565b91909101600f0192915050565b600080895461445681614001565b6001828116801561446e5760018114614483576144b2565b60ff19841687528215158302870194506144b2565b8d60005260208060002060005b858110156144a95781548a820152908401908201614490565b50505082870194505b5050505088516144c6818360208d01613402565b88519101906144d9818360208c01613402565b6145006144fa6144f46144ee8486018c6142db565b8a6142db565b886142db565b866142db565b9b9a5050505050505050505050565b6001600160a01b03868116825285166020820152604081018490526060810183905260a06080820181905260009061454990830184613426565b979650505050505050565b80820180821115610e4357610e43613eb6565b60008161457657614576613eb6565b506000190190565b60006020828403121561459057600080fd5b8151610ffd816133cf565b600060033d11156145b45760046000803e5060005160e01c5b90565b600060443d10156145c55790565b6040516003193d81016004833e81513d6001600160401b0381602484011181841117156145f457505050505090565b828501915081518181111561460c5750505050505090565b843d87010160208285010111156146265750505050505090565b614635602082860101876134b1565b50909594505050505056fe7016719027ff29c13bc4816903851ea968172a86b766c733b954fdabe53c87eea26469706673582212201eca9b0dd3ca1ca94449cefeb09d103b589b64945079c391aa54604b2728142e64736f6c63430008110033",
  "immutableReferences": {},
  "source": "// SPDX-License-Identifier: MIT\npragma solidity ~0.8.17;\n\npragma experimental ABIEncoderV2;\n\nimport './libs/Errors.sol';\nimport './libs/ERC721.sol';\nimport './Asset.sol';\n\ncontract AssetShell is AssetModule, ERC1155, IAssetShell {\n\tusing Address for address;\n\n\tstruct LockedID {\n\t\tuint256 tokenId;\n\t\taddress owner;\n\t\taddress previous; // previous owner\n\t}\n\tstruct LockedItem {\n\t\tuint64 count;\n\t\tuint64 blockNumber; // block number\n\t\tuint64 index; // index for itemsKeys\n\t}\n\tstruct Locked {\n\t\tuint64                         total; // owner locked count total for tokenId\n\t\tmapping(address => LockedItem) items; // previous asset owner address => value\n\t\taddress[]                      itemsKeys; // previous list\n\t}\n\n\tstruct AssetData {\n\t\tAssetID                    meta; // asset meta data\n\t\tuint256                    minimumPrice; // Minimum transaction price of assets\n\t\tmapping(address => Locked) locked; // owner => Locked\n\t}\n\n\tmapping(uint256 => AssetData) private _assetsData;   // tokenId => raw asset id\n\tLockedID                      private _lastLocked;\n\tSaleType                      public  saleType; // is opensea first or second sale\n\tuint256[16]                   private  __; // reserved storage space\n\n\tfunction supportsInterface(bytes4 interfaceId) public view virtual override(ERC165,IERC165) returns (bool) {\n\t\treturn ERC1155.supportsInterface1155(interfaceId) || ERC165.supportsInterface(interfaceId);\n\t}\n\n\tfunction initAssetShell(address host, address operator, SaleType _saleType, InitContractURI memory uri) external {\n\t\tinitAssetModule(host, operator, uri);\n\t\t_registerInterface(AssetShell_Type);\n\t\tsaleType = _saleType;\n\t}\n\n\tfunction asERC1155(address addr) view internal returns (IERC1155) {\n\t\tif (!addr.isContract()) revert NonContractAddress();\n\t\tif (!IERC1155(addr).supportsInterface(type(IERC1155).interfaceId))\n\t\t\trevert CheckInterfaceNoMatch(type(IERC1155).interfaceId);\n\t\treturn IERC1155(addr);\n\t}\n\n\tfunction onERC1155Received(\n\t\taddress operator,\n\t\taddress from,\n\t\tuint256 tokenId,\n\t\tuint256 value,\n\t\tbytes calldata data\n\t) external returns (bytes4) {\n\t\tIERC1155 token = asERC1155(_msgSender());\n\t\t// require(ad.meta.token == address(0), \"#AssetShell.onERC1155Received mint of asset already exists\");\n\t\trequire(from != address(this));//, \"#AssetShell.onERC1155Received from not for myself\");\n\n\t\taddress to;\n\t\tuint256 price;\n\t\t(to, price) = abi.decode(data, (address, uint256));\n\n\t\tuint256   id         = convertTokenID(address(token), tokenId);\n\t\tAssetData storage ad = _assetsData[id];\n\n\t\tif (ad.minimumPrice == 0)\n\t\t\tad.minimumPrice = price;\n\t\tad.meta.token = address(token);\n\t\tad.meta.tokenId = tokenId;\n\n\t\tif (value > 0xffffffffffffffff) {\n\t\t\trevert MINTERC1155QuantityExceedsLimit();\n\t\t}\n\t\t_mint(to, id, value, \"\");\n\n\t\treturn 0xf23a6e61;\n\t}\n\n\tfunction onERC1155BatchReceived(\n\t\taddress operator,\n\t\taddress from,\n\t\tuint256[] calldata ids,\n\t\tuint256[] calldata values,\n\t\tbytes calldata data\n\t) external returns (bytes4) {\n\t\trevert MethodNotImplemented();\n\t}\n\n\tfunction _safeBatchTransferFrom(\n\t\taddress from,\n\t\taddress to,\n\t\tuint256[] memory ids,\n\t\tuint256[] memory amounts,\n\t\tbytes memory data) internal virtual override\n\t{\n\t\trevert MethodNotImplemented();\n\t}\n\n\t/**\n\t * @dev convertTokenID() convert meta token and token id to token id\n\t */\n\tfunction convertTokenID(address metaToken, uint256 metaTokenId) pure public returns (uint256) {\n\t\treturn uint256(keccak256(abi.encodePacked(metaToken, metaTokenId)));\n\t}\n\n\t/**\n\t * @dev overwrite\n\t */\n\tfunction uri(uint256 tokenId) public view virtual override(ERC1155,IERC1155MetadataURI) returns (string memory) {\n\t\tAssetID memory meta = assetMeta(tokenId);\n\t\treturn IERC1155MetadataURI(meta.token).uri(meta.tokenId);\n\t}\n\n\t/**\n\t * @dev assetMeta(tokenId) Returns the asset meta data of this tokenId\n\t */\n\tfunction assetMeta(uint256 tokenId) view public override returns (AssetID memory meta) {\n\t\tmeta = _assetsData[tokenId].meta;\n\t\t// require(meta.token != address(0), \"#AssetShell.assetMeta asset non exists\");\n\t\tif (meta.token == address(0)) revert AssetNonExistsInAssetShell();\n\t}\n\n\t/**\n\t * @dev withdraw() withdraw and unlock meta asset\n\t */\n\tfunction withdraw(uint256 tokenId, address owner, uint256 count) external override Check(Action_Asset_Shell_Withdraw) {\n\t\tAssetID storage meta = _assetsData[tokenId].meta;\n\t\t// require(meta.token != address(0), \"#AssetShell#withdraw withdraw of asset non exists\");\n\t\tif (meta.token == address(0)) revert AssetNonExistsInAssetShell();\n\t\twithdrawFrom(owner, owner, tokenId, count, \"\");\n\t}\n\n\t/**\n\t * @dev withdrawFrom() implement withdraw and unlock meta asset, internal method\n\t */\n\tfunction withdrawFrom(address from, address to, uint256 id, uint256 count, bytes memory data) internal {\n\t\tAssetID storage meta = _assetsData[id].meta;\n\t\tIERC1155(meta.token).safeTransferFrom(address(this), to, meta.tokenId, count, data);\n\t\t_burn(from, id, count);\n\t}\n\n\t/**\n\t * @dev Returns the owner token locked total count and locked items length\n\t */\n\tfunction lockedItems(uint256 tokenId, address owner) view public returns (uint256 items, uint64 total) {\n\t\tLocked storage locked = _assetsData[tokenId].locked[owner];\n\t\titems = locked.itemsKeys.length;\n\t\ttotal = locked.total;\n\t}\n\n\t/**\n\t * @dev Returns the owner token locked count for index\n\t */\n\tfunction lockedAt(uint256 tokenId, address owner, uint256 index) view public \n\t\treturns (address previous, LockedItem memory item) \n\t{\n\t\tLocked storage locked = _assetsData[tokenId].locked[owner];\n\t\tprevious = locked.itemsKeys[index];\n\t\titem = locked.items[previous];\n\t}\n\n\t/**\n\t * @dev Returns the owner token locked count and previous owner address\n\t */\n\tfunction lockedOf(uint256 tokenId,address owner,address previous) view public returns (LockedItem memory item) {\n\t\titem = _assetsData[tokenId].locked[owner].items[previous];\n\t}\n\n\t/**\n\t * @dev minimumPrice(tokenId) Returns the minimum price of this tokenId asset\n\t */\n\tfunction minimumPrice(uint256 tokenId) view public returns (uint256) {\n\t\treturn _assetsData[tokenId].minimumPrice;\n\t}\n\n\t/**\n\t * @dev called after token transfer\n\t */\n\tfunction _afterTokenTransfer(\n\t\taddress operator,\n\t\taddress from,\n\t\taddress to,\n\t\tuint256[] memory ids,\n\t\tuint256[] memory counts,\n\t\tbytes memory data\n\t) internal virtual override {\n\n\t\tfor (uint256 i = 0; i < ids.length; i++) {\n\t\t\tuint256 id = ids[i];\n\t\t\tAssetData storage asset = _assetsData[id];\n\t\t\tuint256 count = counts[i];\n\n\t\t\tif (asset.minimumPrice != 0) {\n\t\t\t\tif (from != address(0)) { // not mint\n\t\t\t\t\tif (balanceOf(from, id) < asset.locked[from].total) { // locaked\n\t\t\t\t\t\trevert NeedToUnlockAssetFirst();\n\t\t\t\t\t}\n\t\t\t\t\tif (to != address(0)) { // not burn\n\t\t\t\t\t\tLocked storage locked = asset.locked[to]; // locked to\n\t\t\t\t\t\tLockedItem storage item = locked.items[from];\n\t\t\t\t\t\tif (item.count != 0)\n\t\t\t\t\t\t\trevert NeedToUnlockAssetFirstForPreviousOwner();\n\n\t\t\t\t\t\tlocked.total += uint64(count);\n\t\t\t\t\t\titem.index = uint64(locked.itemsKeys.length);\n\t\t\t\t\t\titem.count = uint64(count);\n\t\t\t\t\t\titem.blockNumber = uint64(block.number);\n\t\t\t\t\t\tlocked.itemsKeys.push(from);\n\n\t\t\t\t\t\t_lastLocked = LockedID(id,to,from);\n\t\t\t\t\t}\n\t\t\t\t}\n\t\t\t}\n\t\t}\n\t}\n\n\t/**\n\t * @dev unlock_() receive eth transaction and unlock asset\n\t */\n\tfunction unlock_(LockedID memory lock, address sender, uint256 value) private {\n\t\t// require(tokenId != 0, \"#AssetShell#unlock locked tokenId != 0\");\n\t\t// if (id.tokenId == 0) revert TokenIDEmpty();\n\t\t// require(value != 0, \"#AssetShell#unlock value != 0\"); // price\n\t\t// if (value == 0) revert PayableAmountZero();\n\t\t// require(ad.locked != address(0), \"#AssetShell#unlock Lock cannot be empty\"); // price\n\t\t// if (id.owner == address(0)) revert LockTokenIDEmptyInAssetShell();\n\t\t// if (id.previous == address(0)) revert LockTokenIDPreviousOwnerEmptyInAssetShell();\n\n\t\tAssetData storage asset  = _assetsData[lock.tokenId];\n\t\tLocked    storage locked = asset.locked[lock.owner];\n\t\tLockedItem storage item  = locked.items[lock.previous];\n\t\tuint256 count = item.count;\n\n\t\tif (item.count == 0) revert LockTokenIDValueEmptyInAssetShell();\n\n\t\taddress to = lock.owner;\n\t\tuint256 price = value * 10_000 / seller_fee_basis_points; // transfer price\n\t\tuint256 min_price = asset.minimumPrice * item.count; // minimum price\n\n\t\t// check transfer price\n\t\t// require(count >= ad.minimumPrice, \"#AssetShell#unlock price >= minimum price\"); // price\n\t\tif (price < min_price) revert PayableInsufficientAmount();\n\n\t\t//AssetID storage meta = ad.meta;\n\t\t_host.ledger().assetIncome{value: value}(\n\t\t\taddress(this), lock.tokenId, sender, lock.previous, to, price, item.count, saleType\n\t\t);\n\n\t\tif (_lastLocked.tokenId == lock.tokenId &&\n\t\t\t_lastLocked.owner == lock.owner && \n\t\t\t_lastLocked.previous == lock.previous\n\t\t) {\n\t\t\t_lastLocked.tokenId = 0;\n\t\t}\n\n\t\t// unlock\n\t\tlocked.total -= uint64(count);\n\t\t// delete key data\n\t\tif (item.index + 1 < locked.itemsKeys.length)\n\t\t\tlocked.itemsKeys[item.index] = locked.itemsKeys[locked.itemsKeys.length - 1];\n\t\tlocked.itemsKeys.pop(); // remove last key in keys\n\t\tdelete locked.items[lock.previous];\n\n\t\tif (saleType == SaleType.kFirst) {\n\t\t\tbytes memory data = abi.encode(to, asset.minimumPrice);\n\t\t\twithdrawFrom(to, address(_host.module(Module_ASSET_Second_ID)), lock.tokenId, count, data);\n\t\t}\n\t}\n\n\tenum PayType {\n\t\tkDefault, kWETH // default eth\n\t}\n\n\tstruct UnlockForOperator {\n\t\tLockedID lock;\n\t\tPayType  payType;\n\t\tuint256  payValue; // value\n\t\taddress  payBank; // erc20 contract address\n\t\taddress  payer;   // opensea contract => sender\n\t}\n\n\t/**\n\t * @dev unlockForOperator()\n\t */\n\tfunction unlockForOperator(UnlockForOperator[] calldata data) public payable {\n\t\tif (_host.unlockOperator() != msg.sender) {\n\t\t\trevert PermissionDeniedForOnlyUnlockOperator();\n\t\t}\n\n\t\tuint256 value = msg.value;\n\t\tfor (uint256 i = 0; i < data.length; i++) {\n\t\t\tUnlockForOperator memory it = data[i];\n\t\t\tif (it.payType == PayType.kDefault) {\n\t\t\t\tif (value < it.payValue) revert PayableInsufficientAmount();\n\t\t\t\tvalue -= it.payValue;\n\t\t\t\tunlock_(it.lock, it.payer, it.payValue);\n\t\t\t} else {\n\t\t\t\tIWETH(it.payBank).withdraw(it.payValue);\n\t\t\t\tif (address(this).balance < it.payValue ) revert PayableInsufficientAmountWETH();\n\t\t\t\tunlock_(it.lock, it.payer, it.payValue);\n\t\t\t}\n\t\t}\n\t}\n\n\tfunction unlock(LockedID memory lock) public payable {\n\t\tunlock_(lock, msg.sender, msg.value);\n\t}\n\n\t/**\n\t * @dev receive eth token\n\t */\n\treceive() external payable {\n\t\tunlock_(_lastLocked, msg.sender, msg.value); // unlock last locked\n\t}\n}\n",
  "sourcePath": "/Users/louis/Project/hc/NFTSwap/SmartHolder/contracts/AssetShell.sol",
  "compiler": {
    "name": "solc",
    "version": "0.8.17+commit.8df45f5f.Emscripten.clang"
  },
  "schemaVersion": "3.4.11",
  "updatedAt": "2023-05-11T06:07:52.617Z",
  "devdoc": {
    "kind": "dev",
    "methods": {
      "assetMeta(uint256)": {
        "details": "assetMeta(tokenId) Returns the asset meta data of this tokenId"
      },
      "balanceOf(address,uint256)": {
        "details": "See {IERC1155-balanceOf}. Requirements: - `account` cannot be the zero address."
      },
      "balanceOfBatch(address[],uint256[])": {
        "details": "See {IERC1155-balanceOfBatch}. Requirements: - `accounts` and `ids` must have the same length."
      },
      "convertTokenID(address,uint256)": {
        "details": "convertTokenID() convert meta token and token id to token id"
      },
      "exists(uint256)": {
        "details": "Indicates whether any token exist with a given id, or not."
      },
      "isApprovedForAll(address,address)": {
        "details": "See {IERC1155-isApprovedForAll}."
      },
      "lockedAt(uint256,address,uint256)": {
        "details": "Returns the owner token locked count for index"
      },
      "lockedItems(uint256,address)": {
        "details": "Returns the owner token locked total count and locked items length"
      },
      "lockedOf(uint256,address,address)": {
        "details": "Returns the owner token locked count and previous owner address"
      },
      "minimumPrice(uint256)": {
        "details": "minimumPrice(tokenId) Returns the minimum price of this tokenId asset"
      },
      "name()": {
        "details": "Gets the token name.",
        "returns": {
          "_0": "string representing the token name"
        }
      },
      "onERC1155BatchReceived(address,address,uint256[],uint256[],bytes)": {
        "details": "Handles the receipt of a multiple ERC1155 token types. This function is called at the end of a `safeBatchTransferFrom` after the balances have been updated. NOTE: To accept the transfer(s), this must return `bytes4(keccak256(\"onERC1155BatchReceived(address,address,uint256[],uint256[],bytes)\"))` (i.e. 0xbc197c81, or its own function selector).",
        "params": {
          "data": "Additional data with no specified format",
          "from": "The address which previously owned the token",
          "ids": "An array containing ids of each token being transferred (order and length must match values array)",
          "operator": "The address which initiated the batch transfer (i.e. msg.sender)",
          "values": "An array containing amounts of each token being transferred (order and length must match ids array)"
        },
        "returns": {
          "_0": "`bytes4(keccak256(\"onERC1155BatchReceived(address,address,uint256[],uint256[],bytes)\"))` if transfer is allowed"
        }
      },
      "safeBatchTransferFrom(address,address,uint256[],uint256[],bytes)": {
        "details": "See {IERC1155-safeBatchTransferFrom}."
      },
      "safeTransferFrom(address,address,uint256,uint256,bytes)": {
        "details": "See {IERC1155-safeTransferFrom}."
      },
      "setApprovalForAll(address,bool)": {
        "details": "See {IERC1155-setApprovalForAll}."
      },
      "totalSupply(uint256)": {
        "details": "Total amount of tokens in with a given id."
      },
      "unlockForOperator(((uint256,address,address),uint8,uint256,address,address)[])": {
        "details": "unlockForOperator()"
      },
      "uri(uint256)": {
        "details": "overwrite"
      },
      "withdraw(uint256,address,uint256)": {
        "details": "withdraw() withdraw and unlock meta asset"
      }
    },
    "version": 1
  },
  "userdoc": {
    "kind": "user",
    "methods": {},
    "version": 1
  }
}