{
  "contractName": "AssetShell",
  "abi": [
    {
      "inputs": [],
      "name": "AssetNonExistsInAssetShell",
      "type": "error"
    },
    {
      "inputs": [
        {
          "internalType": "bytes4",
          "name": "interfaceId",
          "type": "bytes4"
        }
      ],
      "name": "CheckInterfaceNoMatch",
      "type": "error"
    },
    {
      "inputs": [],
      "name": "LockTokenIDEmptyInAssetShell",
      "type": "error"
    },
    {
      "inputs": [],
      "name": "LockTokenIDPreviousOwnerEmptyInAssetShell",
      "type": "error"
    },
    {
      "inputs": [],
      "name": "MethodNotImplemented",
      "type": "error"
    },
    {
      "inputs": [],
      "name": "NeedToUnlockAssetFirst",
      "type": "error"
    },
    {
      "inputs": [],
      "name": "NonContractAddress",
      "type": "error"
    },
    {
      "inputs": [],
      "name": "PayableAmountZero",
      "type": "error"
    },
    {
      "inputs": [],
      "name": "PayableInsufficientAmount",
      "type": "error"
    },
    {
      "inputs": [],
      "name": "PermissionDenied",
      "type": "error"
    },
    {
      "inputs": [],
      "name": "PermissionDeniedForOnlyDAO",
      "type": "error"
    },
    {
      "inputs": [],
      "name": "TokenIDEmpty",
      "type": "error"
    },
    {
      "anonymous": false,
      "inputs": [
        {
          "indexed": true,
          "internalType": "address",
          "name": "account",
          "type": "address"
        },
        {
          "indexed": true,
          "internalType": "address",
          "name": "operator",
          "type": "address"
        },
        {
          "indexed": false,
          "internalType": "bool",
          "name": "approved",
          "type": "bool"
        }
      ],
      "name": "ApprovalForAll",
      "type": "event"
    },
    {
      "anonymous": false,
      "inputs": [
        {
          "indexed": true,
          "internalType": "uint256",
          "name": "tag",
          "type": "uint256"
        },
        {
          "indexed": false,
          "internalType": "uint256",
          "name": "value",
          "type": "uint256"
        }
      ],
      "name": "Change",
      "type": "event"
    },
    {
      "anonymous": false,
      "inputs": [
        {
          "indexed": false,
          "internalType": "uint8",
          "name": "version",
          "type": "uint8"
        }
      ],
      "name": "Initialized",
      "type": "event"
    },
    {
      "anonymous": false,
      "inputs": [
        {
          "indexed": true,
          "internalType": "address",
          "name": "operator",
          "type": "address"
        },
        {
          "indexed": true,
          "internalType": "address",
          "name": "from",
          "type": "address"
        },
        {
          "indexed": true,
          "internalType": "address",
          "name": "to",
          "type": "address"
        },
        {
          "indexed": false,
          "internalType": "uint256[]",
          "name": "ids",
          "type": "uint256[]"
        },
        {
          "indexed": false,
          "internalType": "uint256[]",
          "name": "values",
          "type": "uint256[]"
        }
      ],
      "name": "TransferBatch",
      "type": "event"
    },
    {
      "anonymous": false,
      "inputs": [
        {
          "indexed": true,
          "internalType": "address",
          "name": "operator",
          "type": "address"
        },
        {
          "indexed": true,
          "internalType": "address",
          "name": "from",
          "type": "address"
        },
        {
          "indexed": true,
          "internalType": "address",
          "name": "to",
          "type": "address"
        },
        {
          "indexed": false,
          "internalType": "uint256",
          "name": "id",
          "type": "uint256"
        },
        {
          "indexed": false,
          "internalType": "uint256",
          "name": "value",
          "type": "uint256"
        }
      ],
      "name": "TransferSingle",
      "type": "event"
    },
    {
      "anonymous": false,
      "inputs": [
        {
          "indexed": false,
          "internalType": "string",
          "name": "value",
          "type": "string"
        },
        {
          "indexed": true,
          "internalType": "uint256",
          "name": "id",
          "type": "uint256"
        }
      ],
      "name": "URI",
      "type": "event"
    },
    {
      "inputs": [
        {
          "internalType": "address",
          "name": "account",
          "type": "address"
        },
        {
          "internalType": "uint256",
          "name": "id",
          "type": "uint256"
        }
      ],
      "name": "balanceOf",
      "outputs": [
        {
          "internalType": "uint256",
          "name": "",
          "type": "uint256"
        }
      ],
      "stateMutability": "view",
      "type": "function"
    },
    {
      "inputs": [
        {
          "internalType": "address[]",
          "name": "accounts",
          "type": "address[]"
        },
        {
          "internalType": "uint256[]",
          "name": "ids",
          "type": "uint256[]"
        }
      ],
      "name": "balanceOfBatch",
      "outputs": [
        {
          "internalType": "uint256[]",
          "name": "",
          "type": "uint256[]"
        }
      ],
      "stateMutability": "view",
      "type": "function"
    },
    {
      "inputs": [],
      "name": "baseURI",
      "outputs": [
        {
          "internalType": "string",
          "name": "",
          "type": "string"
        }
      ],
      "stateMutability": "view",
      "type": "function"
    },
    {
      "inputs": [],
      "name": "base_contract_uri",
      "outputs": [
        {
          "internalType": "string",
          "name": "",
          "type": "string"
        }
      ],
      "stateMutability": "view",
      "type": "function"
    },
    {
      "inputs": [
        {
          "internalType": "bytes4",
          "name": "interfaceId",
          "type": "bytes4"
        }
      ],
      "name": "checkInterface",
      "outputs": [],
      "stateMutability": "view",
      "type": "function"
    },
    {
      "inputs": [],
      "name": "contractURI",
      "outputs": [
        {
          "internalType": "string",
          "name": "uri",
          "type": "string"
        }
      ],
      "stateMutability": "view",
      "type": "function"
    },
    {
      "inputs": [],
      "name": "description",
      "outputs": [
        {
          "internalType": "string",
          "name": "",
          "type": "string"
        }
      ],
      "stateMutability": "view",
      "type": "function"
    },
    {
      "inputs": [
        {
          "internalType": "uint256",
          "name": "id",
          "type": "uint256"
        }
      ],
      "name": "exists",
      "outputs": [
        {
          "internalType": "bool",
          "name": "",
          "type": "bool"
        }
      ],
      "stateMutability": "view",
      "type": "function"
    },
    {
      "inputs": [],
      "name": "external_link",
      "outputs": [
        {
          "internalType": "string",
          "name": "",
          "type": "string"
        }
      ],
      "stateMutability": "view",
      "type": "function"
    },
    {
      "inputs": [],
      "name": "fee_recipient",
      "outputs": [
        {
          "internalType": "address",
          "name": "",
          "type": "address"
        }
      ],
      "stateMutability": "view",
      "type": "function"
    },
    {
      "inputs": [],
      "name": "host",
      "outputs": [
        {
          "internalType": "contract IDAO",
          "name": "",
          "type": "address"
        }
      ],
      "stateMutability": "view",
      "type": "function"
    },
    {
      "inputs": [],
      "name": "image",
      "outputs": [
        {
          "internalType": "string",
          "name": "",
          "type": "string"
        }
      ],
      "stateMutability": "view",
      "type": "function"
    },
    {
      "inputs": [],
      "name": "impl",
      "outputs": [
        {
          "internalType": "address",
          "name": "",
          "type": "address"
        }
      ],
      "stateMutability": "view",
      "type": "function"
    },
    {
      "inputs": [
        {
          "internalType": "address",
          "name": "account",
          "type": "address"
        },
        {
          "internalType": "address",
          "name": "operator",
          "type": "address"
        }
      ],
      "name": "isApprovedForAll",
      "outputs": [
        {
          "internalType": "bool",
          "name": "",
          "type": "bool"
        }
      ],
      "stateMutability": "view",
      "type": "function"
    },
    {
      "inputs": [],
      "name": "name",
      "outputs": [
        {
          "internalType": "string",
          "name": "",
          "type": "string"
        }
      ],
      "stateMutability": "view",
      "type": "function"
    },
    {
      "inputs": [],
      "name": "operator",
      "outputs": [
        {
          "internalType": "address",
          "name": "",
          "type": "address"
        }
      ],
      "stateMutability": "view",
      "type": "function"
    },
    {
      "inputs": [
        {
          "internalType": "address",
          "name": "from",
          "type": "address"
        },
        {
          "internalType": "address",
          "name": "to",
          "type": "address"
        },
        {
          "internalType": "uint256[]",
          "name": "ids",
          "type": "uint256[]"
        },
        {
          "internalType": "uint256[]",
          "name": "amounts",
          "type": "uint256[]"
        },
        {
          "internalType": "bytes",
          "name": "data",
          "type": "bytes"
        }
      ],
      "name": "safeBatchTransferFrom",
      "outputs": [],
      "stateMutability": "nonpayable",
      "type": "function"
    },
    {
      "inputs": [
        {
          "internalType": "address",
          "name": "from",
          "type": "address"
        },
        {
          "internalType": "address",
          "name": "to",
          "type": "address"
        },
        {
          "internalType": "uint256",
          "name": "id",
          "type": "uint256"
        },
        {
          "internalType": "uint256",
          "name": "amount",
          "type": "uint256"
        },
        {
          "internalType": "bytes",
          "name": "data",
          "type": "bytes"
        }
      ],
      "name": "safeTransferFrom",
      "outputs": [],
      "stateMutability": "nonpayable",
      "type": "function"
    },
    {
      "inputs": [],
      "name": "saleType",
      "outputs": [
        {
          "internalType": "enum IAssetShell.SaleType",
          "name": "",
          "type": "uint8"
        }
      ],
      "stateMutability": "view",
      "type": "function"
    },
    {
      "inputs": [],
      "name": "seller_fee_basis_points",
      "outputs": [
        {
          "internalType": "uint32",
          "name": "",
          "type": "uint32"
        }
      ],
      "stateMutability": "view",
      "type": "function"
    },
    {
      "inputs": [
        {
          "internalType": "address",
          "name": "operator",
          "type": "address"
        },
        {
          "internalType": "bool",
          "name": "approved",
          "type": "bool"
        }
      ],
      "name": "setApprovalForAll",
      "outputs": [],
      "stateMutability": "nonpayable",
      "type": "function"
    },
    {
      "inputs": [
        {
          "internalType": "string",
          "name": "value",
          "type": "string"
        }
      ],
      "name": "setDescription",
      "outputs": [],
      "stateMutability": "nonpayable",
      "type": "function"
    },
    {
      "inputs": [
        {
          "internalType": "address",
          "name": "operator_",
          "type": "address"
        }
      ],
      "name": "setOperator",
      "outputs": [],
      "stateMutability": "nonpayable",
      "type": "function"
    },
    {
      "inputs": [
        {
          "internalType": "address",
          "name": "recipient",
          "type": "address"
        }
      ],
      "name": "set_fee_recipient",
      "outputs": [],
      "stateMutability": "nonpayable",
      "type": "function"
    },
    {
      "inputs": [
        {
          "internalType": "uint32",
          "name": "value",
          "type": "uint32"
        }
      ],
      "name": "set_seller_fee_basis_points",
      "outputs": [],
      "stateMutability": "nonpayable",
      "type": "function"
    },
    {
      "inputs": [
        {
          "internalType": "uint256",
          "name": "id",
          "type": "uint256"
        }
      ],
      "name": "totalSupply",
      "outputs": [
        {
          "internalType": "uint256",
          "name": "",
          "type": "uint256"
        }
      ],
      "stateMutability": "view",
      "type": "function"
    },
    {
      "inputs": [
        {
          "internalType": "address",
          "name": "impl_",
          "type": "address"
        }
      ],
      "name": "upgrade",
      "outputs": [],
      "stateMutability": "nonpayable",
      "type": "function"
    },
    {
      "stateMutability": "payable",
      "type": "receive"
    },
    {
      "inputs": [
        {
          "internalType": "bytes4",
          "name": "interfaceId",
          "type": "bytes4"
        }
      ],
      "name": "supportsInterface",
      "outputs": [
        {
          "internalType": "bool",
          "name": "",
          "type": "bool"
        }
      ],
      "stateMutability": "view",
      "type": "function"
    },
    {
      "inputs": [
        {
          "internalType": "address",
          "name": "host",
          "type": "address"
        },
        {
          "internalType": "address",
          "name": "operator",
          "type": "address"
        },
        {
          "internalType": "enum IAssetShell.SaleType",
          "name": "_saleType",
          "type": "uint8"
        },
        {
          "components": [
            {
              "internalType": "string",
              "name": "name",
              "type": "string"
            },
            {
              "internalType": "string",
              "name": "description",
              "type": "string"
            },
            {
              "internalType": "string",
              "name": "image",
              "type": "string"
            },
            {
              "internalType": "string",
              "name": "external_link",
              "type": "string"
            },
            {
              "internalType": "uint32",
              "name": "seller_fee_basis_points",
              "type": "uint32"
            },
            {
              "internalType": "address",
              "name": "fee_recipient",
              "type": "address"
            },
            {
              "internalType": "string",
              "name": "base_contract_uri",
              "type": "string"
            },
            {
              "internalType": "string",
              "name": "base_uri",
              "type": "string"
            }
          ],
          "internalType": "struct AssetModule.InitContractURI",
          "name": "uri",
          "type": "tuple"
        }
      ],
      "name": "initAssetShell",
      "outputs": [],
      "stateMutability": "nonpayable",
      "type": "function"
    },
    {
      "inputs": [
        {
          "internalType": "address",
          "name": "operator",
          "type": "address"
        },
        {
          "internalType": "address",
          "name": "from",
          "type": "address"
        },
        {
          "internalType": "uint256",
          "name": "tokenId",
          "type": "uint256"
        },
        {
          "internalType": "uint256",
          "name": "value",
          "type": "uint256"
        },
        {
          "internalType": "bytes",
          "name": "data",
          "type": "bytes"
        }
      ],
      "name": "onERC1155Received",
      "outputs": [
        {
          "internalType": "bytes4",
          "name": "",
          "type": "bytes4"
        }
      ],
      "stateMutability": "nonpayable",
      "type": "function"
    },
    {
      "inputs": [
        {
          "internalType": "address",
          "name": "operator",
          "type": "address"
        },
        {
          "internalType": "address",
          "name": "from",
          "type": "address"
        },
        {
          "internalType": "uint256[]",
          "name": "ids",
          "type": "uint256[]"
        },
        {
          "internalType": "uint256[]",
          "name": "values",
          "type": "uint256[]"
        },
        {
          "internalType": "bytes",
          "name": "data",
          "type": "bytes"
        }
      ],
      "name": "onERC1155BatchReceived",
      "outputs": [
        {
          "internalType": "bytes4",
          "name": "",
          "type": "bytes4"
        }
      ],
      "stateMutability": "nonpayable",
      "type": "function"
    },
    {
      "inputs": [
        {
          "internalType": "address",
          "name": "metaToken",
          "type": "address"
        },
        {
          "internalType": "uint256",
          "name": "metaTokenId",
          "type": "uint256"
        }
      ],
      "name": "convertTokenID",
      "outputs": [
        {
          "internalType": "uint256",
          "name": "",
          "type": "uint256"
        }
      ],
      "stateMutability": "pure",
      "type": "function"
    },
    {
      "inputs": [
        {
          "internalType": "uint256",
          "name": "tokenId",
          "type": "uint256"
        }
      ],
      "name": "uri",
      "outputs": [
        {
          "internalType": "string",
          "name": "",
          "type": "string"
        }
      ],
      "stateMutability": "view",
      "type": "function"
    },
    {
      "inputs": [
        {
          "internalType": "uint256",
          "name": "tokenId",
          "type": "uint256"
        }
      ],
      "name": "assetMeta",
      "outputs": [
        {
          "components": [
            {
              "internalType": "address",
              "name": "token",
              "type": "address"
            },
            {
              "internalType": "uint256",
              "name": "tokenId",
              "type": "uint256"
            }
          ],
          "internalType": "struct IAssetShell.AssetID",
          "name": "meta",
          "type": "tuple"
        }
      ],
      "stateMutability": "view",
      "type": "function"
    },
    {
      "inputs": [
        {
          "internalType": "uint256",
          "name": "tokenId",
          "type": "uint256"
        },
        {
          "internalType": "address",
          "name": "owner",
          "type": "address"
        },
        {
          "internalType": "uint256",
          "name": "amount",
          "type": "uint256"
        }
      ],
      "name": "withdraw",
      "outputs": [],
      "stateMutability": "nonpayable",
      "type": "function"
    },
    {
      "inputs": [
        {
          "internalType": "uint256",
          "name": "tokenId",
          "type": "uint256"
        },
        {
          "internalType": "address",
          "name": "owner",
          "type": "address"
        }
      ],
      "name": "lockedOf",
      "outputs": [
        {
          "internalType": "uint256",
          "name": "amount",
          "type": "uint256"
        },
        {
          "internalType": "uint256",
          "name": "length",
          "type": "uint256"
        }
      ],
      "stateMutability": "view",
      "type": "function"
    },
    {
      "inputs": [
        {
          "internalType": "uint256",
          "name": "tokenId",
          "type": "uint256"
        },
        {
          "internalType": "address",
          "name": "owner",
          "type": "address"
        },
        {
          "internalType": "uint256",
          "name": "index",
          "type": "uint256"
        }
      ],
      "name": "lockedAt",
      "outputs": [
        {
          "internalType": "address",
          "name": "previous",
          "type": "address"
        },
        {
          "internalType": "uint256",
          "name": "amount",
          "type": "uint256"
        }
      ],
      "stateMutability": "view",
      "type": "function"
    },
    {
      "inputs": [
        {
          "internalType": "uint256",
          "name": "tokenId",
          "type": "uint256"
        }
      ],
      "name": "minimumPrice",
      "outputs": [
        {
          "internalType": "uint256",
          "name": "",
          "type": "uint256"
        }
      ],
      "stateMutability": "view",
      "type": "function"
    },
    {
      "inputs": [
        {
          "components": [
            {
              "internalType": "uint256",
              "name": "tokenId",
              "type": "uint256"
            },
            {
              "internalType": "address",
              "name": "owner",
              "type": "address"
            },
            {
              "internalType": "address",
              "name": "previous",
              "type": "address"
            }
          ],
          "internalType": "struct AssetShell.LockedID",
          "name": "id",
          "type": "tuple"
        }
      ],
      "name": "unlock",
      "outputs": [],
      "stateMutability": "payable",
      "type": "function"
    }
  ],
  "bytecode": "0x608060405234801561001057600080fd5b506145b3806100206000396000f3fe6080604052600436106102335760003560e01c8063758f969a1161012e578063bc197c81116100ab578063f23a6e611161006f578063f23a6e6114610775578063f242432a14610795578063f3ccaac0146107b5578063f437bc59146107ca578063f9b62b7a146107e857600080fd5b8063bc197c8114610691578063bd85b039146106ca578063e63697c8146106f7578063e8a3d48514610717578063e985e9c51461072c57600080fd5b806391eb3dee116100f257806391eb3dee146105bd578063a22cb465146105dd578063afa2e662146105fd578063b0a41b3e1461063c578063b3ab15fb1461067157600080fd5b8063758f969a1461052a5780637972bdf31461054a5780638abf60771461055f57806390c3f38f1461057d57806391d818891461059d57600080fd5b80634c6e425b116101bc5780635bcc7928116101805780635bcc79281461047057806362f8a855146104975780636c0360eb146104c757806371fcf468146104dc5780637284e4161461051557600080fd5b80634c6e425b146103a25780634e1273f4146103c25780634f558e79146103ef5780635027b8b81461041e578063570ca7351461043e57600080fd5b80630e89341c116102035780630e89341c1461031a57806312dba7851461033a5780632eb2c2d61461034f57806330cc317b1461036f57806335c2c7bd1461038f57600080fd5b8062fdd58e1461027557806301ffc9a7146102a857806306fdde03146102d85780630900f010146102fa57600080fd5b36610270576040805160608101825260185481526019546001600160a01b039081166020830152601a54169181019190915261026e9061082c565b005b600080fd5b34801561028157600080fd5b5061029561029036600461338a565b610bcd565b6040519081526020015b60405180910390f35b3480156102b457600080fd5b506102c86102c33660046133cc565b610c68565b604051901515815260200161029f565b3480156102e457600080fd5b506102ed610c9b565b60405161029f9190613439565b34801561030657600080fd5b5061026e61031536600461344c565b610d2d565b34801561032657600080fd5b506102ed610335366004613469565b610d98565b34801561034657600080fd5b506102ed610e23565b34801561035b57600080fd5b5061026e61036a366004613604565b610eb1565b34801561037b57600080fd5b5061026e61038a36600461344c565b610efd565b61026e61039d3660046136b1565b61082c565b3480156103ae57600080fd5b5061026e6103bd3660046133cc565b610f61565b3480156103ce57600080fd5b506103e26103dd366004613719565b610f96565b60405161029f9190613816565b3480156103fb57600080fd5b506102c861040a366004613469565b600090815260166020526040902054151590565b34801561042a57600080fd5b5061026e61043936600461383d565b6110bf565b34801561044a57600080fd5b506003546001600160a01b03165b6040516001600160a01b03909116815260200161029f565b34801561047c57600080fd5b50601b5461048a9060ff1681565b60405161029f91906139f4565b3480156104a357600080fd5b506102956104b2366004613469565b60009081526017602052604090206002015490565b3480156104d357600080fd5b506102ed611104565b3480156104e857600080fd5b5060105461050090600160a01b900463ffffffff1681565b60405163ffffffff909116815260200161029f565b34801561052157600080fd5b506102ed611111565b34801561053657600080fd5b50601054610458906001600160a01b031681565b34801561055657600080fd5b506102ed611120565b34801561056b57600080fd5b506000546001600160a01b0316610458565b34801561058957600080fd5b5061026e610598366004613a02565b61112d565b3480156105a957600080fd5b506102956105b836600461338a565b61127e565b3480156105c957600080fd5b5061026e6105d8366004613a36565b6112c6565b3480156105e957600080fd5b5061026e6105f8366004613a5f565b611421565b34801561060957600080fd5b5061061d610618366004613a98565b611430565b604080516001600160a01b03909316835260208301919091520161029f565b34801561064857600080fd5b5061065c610657366004613ad0565b611470565b6040805192835260208301919091520161029f565b34801561067d57600080fd5b5061026e61068c36600461344c565b6114af565b34801561069d57600080fd5b506106b16106ac366004613b7a565b611513565b6040516001600160e01b0319909116815260200161029f565b3480156106d657600080fd5b506102956106e5366004613469565b60009081526016602052604090205490565b34801561070357600080fd5b5061026e610712366004613a98565b61152e565b34801561072357600080fd5b506102ed611696565b34801561073857600080fd5b506102c8610747366004613c38565b6001600160a01b03918216600090815260136020908152604080832093909416825291909152205460ff1690565b34801561078157600080fd5b506106b1610790366004613c66565b611899565b3480156107a157600080fd5b5061026e6107b0366004613ce1565b611957565b3480156107c157600080fd5b506102ed61199c565b3480156107d657600080fd5b506002546001600160a01b0316610458565b3480156107f457600080fd5b50610808610803366004613469565b6119a9565b6040805182516001600160a01b03168152602092830151928101929092520161029f565b805160000361084e5760405163129cd35f60e31b815260040160405180910390fd5b3460000361086f576040516310696f5760e21b815260040160405180910390fd5b60208101516001600160a01b031661089a576040516321c67f4960e01b815260040160405180910390fd5b60408101516001600160a01b03166108c55760405163161a18c560e21b815260040160405180910390fd5b80516000908152601760209081526040808320828501516001600160a01b03168452600381019092528083209084015191929091610907906001840190611a0e565b602085015160105491925090600090600160a01b900463ffffffff1661092f34612710613d5f565b6109399190613d76565b9050600083866002015461094d9190613d5f565b90508082101561097057604051630b7b66df60e31b815260040160405180910390fd5b600254604080516356397c3560e01b8152905188926001600160a01b0316916356397c359160048083019260209291908290030181865afa1580156109b9573d6000803e3d6000fd5b505050506040513d601f19601f820116820180604052508101906109dd9190613d98565b6001600160a01b03166395218947348360000160009054906101000a90046001600160a01b03168460010154338d604001518a8a8d601b60009054906101000a900460ff166040518a63ffffffff1660e01b8152600401610a45989796959493929190613db5565b6000604051808303818588803b158015610a5e57600080fd5b505af1158015610a72573d6000803e3d6000fd5b50508a516018541492505081159050610a9d575060208801516019546001600160a01b039081169116145b8015610abb57506040880151601a546001600160a01b039081169116145b15610ac65760006018555b84866000016000828254610ada9190613e0d565b90915550506040880151610af2906001880190611a23565b506001601b5460ff166002811115610b0c57610b0c6139bc565b03610bc3576002870154604080516001600160a01b03871660208201529081019190915260009060600160408051808303601f1901815290829052600254632187baed60e11b835260056004840152909250610bc19187916001600160a01b03169063430f75da90602401602060405180830381865afa158015610b94573d6000803e3d6000fd5b505050506040513d601f19601f82011682018060405250810190610bb89190613d98565b8b518985611a38565b505b5050505050505050565b60006001600160a01b038316610c3d5760405162461bcd60e51b815260206004820152602a60248201527f455243313135353a2061646472657373207a65726f206973206e6f742061207660448201526930b634b21037bbb732b960b11b60648201526084015b60405180910390fd5b5060008181526012602090815260408083206001600160a01b03861684529091529020545b92915050565b6000610c7382611ac8565b80610c6257506001600160e01b0319821660009081526001602052604090205460ff16610c62565b6060600d8054610caa90613e20565b80601f0160208091040260200160405190810160405280929190818152602001828054610cd690613e20565b8015610d235780601f10610cf857610100808354040283529160200191610d23565b820191906000526020600020905b815481529060010190602001808311610d0657829003601f168201915b5050505050905090565b610d35611afe565b610d5257604051631b4004a360e31b815260040160405180910390fd5b600080546001600160a01b0319166001600160a01b03831690811790915560405190815260039060008051602061455e833981519152906020015b60405180910390a250565b60606000610da5836119a9565b805160208201516040516303a24d0760e21b815260048101919091529192506001600160a01b031690630e89341c90602401600060405180830381865afa158015610df4573d6000803e3d6000fd5b505050506040513d6000823e601f3d908101601f19168201604052610e1c9190810190613e5a565b9392505050565b60118054610e3090613e20565b80601f0160208091040260200160405190810160405280929190818152602001828054610e5c90613e20565b8015610ea95780601f10610e7e57610100808354040283529160200191610ea9565b820191906000526020600020905b815481529060010190602001808311610e8c57829003601f168201915b505050505081565b6001600160a01b038516331480610ecd5750610ecd8533610747565b610ee95760405162461bcd60e51b8152600401610c3490613edb565b610ef68585858585611c3d565b5050505050565b610f05611afe565b610f2257604051631b4004a360e31b815260040160405180910390fd5b601080546001600160a01b0319166001600160a01b03831690811790915560405190815260079060008051602061455e83398151915290602001610d8d565b610f6a81610c68565b610f9357604051632aae78ef60e01b81526001600160e01b031982166004820152602401610c34565b50565b60608151835114610ffb5760405162461bcd60e51b815260206004820152602960248201527f455243313135353a206163636f756e747320616e6420696473206c656e677468604482015268040dad2e6dac2e8c6d60bb1b6064820152608401610c34565b600083516001600160401b0381111561101657611016613482565b60405190808252806020026020018201604052801561103f578160200160208202803683370190505b50905060005b84518110156110b75761108a85828151811061106357611063613f29565b602002602001015185838151811061107d5761107d613f29565b6020026020010151610bcd565b82828151811061109c5761109c613f29565b60209081029190910101526110b081613f3f565b9050611045565b509392505050565b6110ca848483611e31565b6110da6343234e9560e01b611ee4565b601b805483919060ff191660018360028111156110f9576110f96139bc565b021790555050505050565b60148054610e3090613e20565b606060048054610caa90613e20565b600f8054610e3090613e20565b63d0a4ad9661113a611afe565b61124357600260009054906101000a90046001600160a01b03166001600160a01b031663e3f6b5446040518163ffffffff1660e01b8152600401602060405180830381865afa158015611191573d6000803e3d6000fd5b505050506040513d601f19601f820116820180604052508101906111b59190613d98565b60405163a8a555c560e01b8152336004820152602481018390526001600160a01b03919091169063a8a555c590604401602060405180830381865afa158015611202573d6000803e3d6000fd5b505050506040513d601f19601f820116820180604052508101906112269190613f58565b61124357604051630782484160e21b815260040160405180910390fd5b600461124f8382613fc0565b50600160008051602061455e833981519152600060405161127291815260200190565b60405180910390a25050565b6040516bffffffffffffffffffffffff19606084901b1660208201526034810182905260009060540160408051601f1981840301815291905280516020909101209392505050565b6391eb3dee6112d3611afe565b6113dc57600260009054906101000a90046001600160a01b03166001600160a01b031663e3f6b5446040518163ffffffff1660e01b8152600401602060405180830381865afa15801561132a573d6000803e3d6000fd5b505050506040513d601f19601f8201168201806040525081019061134e9190613d98565b60405163a8a555c560e01b8152336004820152602481018390526001600160a01b03919091169063a8a555c590604401602060405180830381865afa15801561139b573d6000803e3d6000fd5b505050506040513d601f19601f820116820180604052508101906113bf9190613f58565b6113dc57604051630782484160e21b815260040160405180910390fd5b6010805463ffffffff60a01b1916600160a01b63ffffffff85169081029190911790915560405190815260069060008051602061455e83398151915290602001611272565b61142c338383611f66565b5050565b60008381526017602090815260408083206001600160a01b0386168452600301909152812081906114649060010184612046565b90969095509350505050565b60008281526017602090815260408083206001600160a01b03851684526003019091528120805491906114a560018201612064565b9150509250929050565b6114b7611afe565b6114d457604051631b4004a360e31b815260040160405180910390fd5b600380546001600160a01b0319166001600160a01b03831690811790915560405190815260029060008051602061455e83398151915290602001610d8d565b6000604051632974974360e01b815260040160405180910390fd5b632e1a7d4d61153b611afe565b61164457600260009054906101000a90046001600160a01b03166001600160a01b031663e3f6b5446040518163ffffffff1660e01b8152600401602060405180830381865afa158015611592573d6000803e3d6000fd5b505050506040513d601f19601f820116820180604052508101906115b69190613d98565b60405163a8a555c560e01b8152336004820152602481018390526001600160a01b03919091169063a8a555c590604401602060405180830381865afa158015611603573d6000803e3d6000fd5b505050506040513d601f19601f820116820180604052508101906116279190613f58565b61164457604051630782484160e21b815260040160405180910390fd5b600084815260176020526040902080546001600160a01b031661167a57604051632a563a4960e11b815260040160405180910390fd5b610ef68485878660405180602001604052806000815250611a38565b6060600061172d600d80546116aa90613e20565b80601f01602080910402602001604051908101604052809291908181526020018280546116d690613e20565b80156117235780601f106116f857610100808354040283529160200191611723565b820191906000526020600020905b81548152906001019060200180831161170657829003601f168201915b505050505061206f565b60405160200161173d919061409b565b60405160208183030381529060405290506000611760600480546116aa90613e20565b60405160200161177091906140cc565b60405160208183030381529060405290506000611793600e80546116aa90613e20565b6040516020016117a39190614104565b604051602081830303815290604052905060006117c6600f80546116aa90613e20565b6040516020016117d69190614136565b60408051808303601f1901815291905260105490915060009061180590600160a01b900463ffffffff166121c7565b6040516020016118159190614170565b60408051601f19818403018152919052601054909150600090611840906001600160a01b0316612259565b60405160200161185091906141b5565b6040516020818303038152906040529050601186868686868660405160200161187f97969594939291906141ec565b604051602081830303815290604052965050505050505090565b6000806118a53361226f565b9050306001600160a01b038816036118bc57600080fd5b6000806118cb8587018761338a565b909250905060006118dc848a61127e565b6000818152601760205260408120600281015492935091900361190157600281018390555b80546001600160a01b0319166001600160a01b038616178155600181018a905560408051602081019091526000815261193f90859084908c90612332565b5063f23a6e6160e01b9b9a5050505050505050505050565b6001600160a01b03851633148061197357506119738533610747565b61198f5760405162461bcd60e51b8152600401610c3490613edb565b610ef68585858585612466565b600e8054610e3090613e20565b6040805180820182526000808252602091820181905283815260178252829020825180840190935280546001600160a01b031680845260019091015491830191909152611a0957604051632a563a4960e11b815260040160405180910390fd5b919050565b6000610e1c836001600160a01b0384166125a5565b6000610e1c836001600160a01b038416612615565b60008381526017602052604090819020805460018201549251637921219560e11b815291926001600160a01b039091169163f242432a91611a839130918a91899089906004016142b3565b600060405180830381600087803b158015611a9d57600080fd5b505af1158015611ab1573d6000803e3d6000fd5b50505050611ac0868585612632565b505050505050565b60006001600160e01b03198216636cdb3d1360e11b1480610c6257506001600160e01b031982166303a24d0760e21b1492915050565b60035460009033906001600160a01b03168114611c3557600260009054906101000a90046001600160a01b03166001600160a01b031663570ca7356040518163ffffffff1660e01b8152600401602060405180830381865afa158015611b68573d6000803e3d6000fd5b505050506040513d601f19601f82011682018060405250810190611b8c9190613d98565b6001600160a01b0316816001600160a01b031614611c3557600260009054906101000a90046001600160a01b03166001600160a01b031663ebf0c7176040518163ffffffff1660e01b8152600401602060405180830381865afa158015611bf7573d6000803e3d6000fd5b505050506040513d601f19601f82011682018060405250810190611c1b9190613d98565b6001600160a01b0316816001600160a01b03161491505090565b600191505090565b8151835114611c9f5760405162461bcd60e51b815260206004820152602860248201527f455243313135353a2069647320616e6420616d6f756e7473206c656e677468206044820152670dad2e6dac2e8c6d60c31b6064820152608401610c34565b6001600160a01b038416611cc55760405162461bcd60e51b8152600401610c34906142f8565b33611cd48187878787876127d0565b60005b8451811015611dbd576000858281518110611cf457611cf4613f29565b602002602001015190506000858381518110611d1257611d12613f29565b60209081029190910181015160008481526012835260408082206001600160a01b038e168352909352919091205490915081811015611d635760405162461bcd60e51b8152600401610c349061433d565b60008381526012602090815260408083206001600160a01b038e8116855292528083208585039055908b16825281208054849290611da2908490614387565b9250508190555050505080611db690613f3f565b9050611cd7565b50846001600160a01b0316866001600160a01b0316826001600160a01b03167f4a39dc06d4c0dbc64b70af90fd698a233a518aa5d07e595d983b8c0526c8f7fb8787604051611e0d92919061439a565b60405180910390a4611e23818787878787612949565b611ac0818787878787612ad2565b611e4083826020015184612c2d565b8051600d90611e4f9082613fc0565b506040810151600e90611e629082613fc0565b506060810151600f90611e759082613fc0565b5060a08101516001600160a01b031615611e93578060a00151611e95565b305b60108054608084015163ffffffff16600160a01b026001600160c01b03199091166001600160a01b03939093169290921791909117905560c0810151601190611ede9082613fc0565b50505050565b6001600160e01b03198082169003611f3e5760405162461bcd60e51b815260206004820152601c60248201527f4552433136353a20696e76616c696420696e74657266616365206964000000006044820152606401610c34565b6001600160e01b0319166000908152600160208190526040909120805460ff19169091179055565b816001600160a01b0316836001600160a01b031603611fd95760405162461bcd60e51b815260206004820152602960248201527f455243313135353a2073657474696e6720617070726f76616c20737461747573604482015268103337b91039b2b63360b91b6064820152608401610c34565b6001600160a01b03838116600081815260136020908152604080832094871680845294825291829020805460ff191686151590811790915591519182527f17307eab39ab6107e8899845ad3d59bd9653f200f220920489ca2b5937696c31910160405180910390a3505050565b60008080806120558686612c91565b909450925050505b9250929050565b6000610c6282612cbc565b60606000825160026120819190613d5f565b6001600160401b0381111561209857612098613482565b6040519080825280601f01601f1916602001820160405280156120c2576020820181803683370190505b50905060005b83518110156121c05760008482815181106120e5576120e5613f29565b016020015160f881901c91506f181899199a1a9b1b9c1cb0b131b232b360811b9060fc1c6010811061211957612119613f29565b1a60f81b83600184901b8151811061213357612133613f29565b60200101906001600160f81b031916908160001a9053506f181899199a1a9b1b9c1cb0b131b232b360811b600f82166010811061217257612172613f29565b1a60f81b83612185600185811b90614387565b8151811061219557612195613f29565b60200101906001600160f81b031916908160001a9053505080806121b890613f3f565b9150506120c8565b5092915050565b606060006121d483612cc7565b60010190506000816001600160401b038111156121f3576121f3613482565b6040519080825280601f01601f19166020018201604052801561221d576020820181803683370190505b5090508181016020015b600019016f181899199a1a9b1b9c1cb0b131b232b360811b600a86061a8153600a850494508461222757509392505050565b6060610c626001600160a01b0383166014612d9f565b60006001600160a01b0382163b61229957604051634aa4cf5160e01b815260040160405180910390fd5b6040516301ffc9a760e01b8152636cdb3d1360e11b60048201526001600160a01b038316906301ffc9a790602401602060405180830381865afa1580156122e4573d6000803e3d6000fd5b505050506040513d601f19601f820116820180604052508101906123089190613f58565b61232e57604051632aae78ef60e01b8152636cdb3d1360e11b6004820152602401610c34565b5090565b6001600160a01b0384166123925760405162461bcd60e51b815260206004820152602160248201527f455243313135353a206d696e7420746f20746865207a65726f206164647265736044820152607360f81b6064820152608401610c34565b33600061239e85612f3a565b905060006123ab85612f3a565b90506123bc836000898585896127d0565b60008681526012602090815260408083206001600160a01b038b168452909152812080548792906123ee908490614387565b909155505060408051878152602081018790526001600160a01b03808a1692600092918716917fc3d58168c5ae7397731d063d5bbf3d657854427343f4c083240f7aacaa2d0f62910160405180910390a461244e83600089858589612949565b61245d83600089898989612f85565b50505050505050565b6001600160a01b03841661248c5760405162461bcd60e51b8152600401610c34906142f8565b33600061249885612f3a565b905060006124a585612f3a565b90506124b58389898585896127d0565b60008681526012602090815260408083206001600160a01b038c168452909152902054858110156124f85760405162461bcd60e51b8152600401610c349061433d565b60008781526012602090815260408083206001600160a01b038d8116855292528083208985039055908a16825281208054889290612537908490614387565b909155505060408051888152602081018890526001600160a01b03808b16928c821692918816917fc3d58168c5ae7397731d063d5bbf3d657854427343f4c083240f7aacaa2d0f62910160405180910390a4612597848a8a86868a612949565b610bc1848a8a8a8a8a612f85565b6000818152600283016020526040812054801515806125c957506125c98484613040565b610e1c5760405162461bcd60e51b815260206004820152601e60248201527f456e756d657261626c654d61703a206e6f6e6578697374656e74206b657900006044820152606401610c34565b60008181526002830160205260408120819055610e1c838361304c565b6001600160a01b0383166126945760405162461bcd60e51b815260206004820152602360248201527f455243313135353a206275726e2066726f6d20746865207a65726f206164647260448201526265737360e81b6064820152608401610c34565b3360006126a084612f3a565b905060006126ad84612f3a565b90506126cd838760008585604051806020016040528060008152506127d0565b60008581526012602090815260408083206001600160a01b038a1684529091529020548481101561274c5760405162461bcd60e51b8152602060048201526024808201527f455243313135353a206275726e20616d6f756e7420657863656564732062616c604482015263616e636560e01b6064820152608401610c34565b60008681526012602090815260408083206001600160a01b038b81168086529184528285208a8703905582518b81529384018a90529092908816917fc3d58168c5ae7397731d063d5bbf3d657854427343f4c083240f7aacaa2d0f62910160405180910390a461245d84886000868660405180602001604052806000815250612949565b6001600160a01b0385166128575760005b8351811015612855578281815181106127fc576127fc613f29565b60200260200101516016600086848151811061281a5761281a613f29565b60200260200101518152602001908152602001600020600082825461283f9190614387565b9091555061284e905081613f3f565b90506127e1565b505b6001600160a01b038416611ac05760005b835181101561245d57600084828151811061288557612885613f29565b6020026020010151905060008483815181106128a3576128a3613f29565b60200260200101519050600060166000848152602001908152602001600020549050818110156129265760405162461bcd60e51b815260206004820152602860248201527f455243313135353a206275726e20616d6f756e74206578636565647320746f74604482015267616c537570706c7960c01b6064820152608401610c34565b6000928352601660205260409092209103905561294281613f3f565b9050612868565b60005b835181101561245d57600084828151811061296957612969613f29565b602002602001015190506000601760008381526020019081526020016000209050600085848151811061299e5761299e613f29565b602002602001015190508160020154600014612abc576001600160a01b03891615612abc576001600160a01b03891660009081526003830160205260409020546129e88a85610bcd565b1015612a075760405163798efa8760e11b815260040160405180910390fd5b6001600160a01b03881615612abc576001600160a01b038816600090815260038301602052604081208054839290612a40908490614387565b90915550506001600160a01b03881660009081526003830160205260409020612a6d906001018a83613058565b50604080516060810182528481526001600160a01b03808b1660208301819052908c16919092018190526018859055601980546001600160a01b03199081169093179055601a80549092161790555b5050508080612aca90613f3f565b91505061294c565b6001600160a01b0384163b15611ac05760405163bc197c8160e01b81526001600160a01b0385169063bc197c8190612b1690899089908890889088906004016143c8565b6020604051808303816000875af1925050508015612b51575060408051601f3d908101601f19168201909252612b4e91810190614426565b60015b612bfd57612b5d614443565b806308c379a003612b965750612b7161445f565b80612b7c5750612b98565b8060405162461bcd60e51b8152600401610c349190613439565b505b60405162461bcd60e51b815260206004820152603460248201527f455243313135353a207472616e7366657220746f206e6f6e2d455243313135356044820152732932b1b2b4bb32b91034b6b83632b6b2b73a32b960611b6064820152608401610c34565b6001600160e01b0319811663bc197c8160e01b1461245d5760405162461bcd60e51b8152600401610c34906144e8565b612c35613076565b612c45630d64f40d60e31b611ee4565b600280546001600160a01b0319166001600160a01b0385161790556004612c6c8382613fc0565b50600380546001600160a01b0319166001600160a01b03929092169190911790555050565b60008080612c9f85856131a9565b600081815260029690960160205260409095205494959350505050565b6000610c62826131b5565b60008072184f03e93ff9f4daa797ed6e38ed64bf6a1f0160401b8310612d065772184f03e93ff9f4daa797ed6e38ed64bf6a1f0160401b830492506040015b6d04ee2d6d415b85acef81000000008310612d32576d04ee2d6d415b85acef8100000000830492506020015b662386f26fc100008310612d5057662386f26fc10000830492506010015b6305f5e1008310612d68576305f5e100830492506008015b6127108310612d7c57612710830492506004015b60648310612d8e576064830492506002015b600a8310610c625760010192915050565b60606000612dae836002613d5f565b612db9906002614387565b6001600160401b03811115612dd057612dd0613482565b6040519080825280601f01601f191660200182016040528015612dfa576020820181803683370190505b509050600360fc1b81600081518110612e1557612e15613f29565b60200101906001600160f81b031916908160001a905350600f60fb1b81600181518110612e4457612e44613f29565b60200101906001600160f81b031916908160001a9053506000612e68846002613d5f565b612e73906001614387565b90505b6001811115612eeb576f181899199a1a9b1b9c1cb0b131b232b360811b85600f1660108110612ea757612ea7613f29565b1a60f81b828281518110612ebd57612ebd613f29565b60200101906001600160f81b031916908160001a90535060049490941c93612ee481614530565b9050612e76565b508315610e1c5760405162461bcd60e51b815260206004820181905260248201527f537472696e67733a20686578206c656e67746820696e73756666696369656e746044820152606401610c34565b60408051600180825281830190925260609160009190602080830190803683370190505090508281600081518110612f7457612f74613f29565b602090810291909101015292915050565b6001600160a01b0384163b15611ac05760405163f23a6e6160e01b81526001600160a01b0385169063f23a6e6190612fc990899089908890889088906004016142b3565b6020604051808303816000875af1925050508015613004575060408051601f3d908101601f1916820190925261300191810190614426565b60015b61301057612b5d614443565b6001600160e01b0319811663f23a6e6160e01b1461245d5760405162461bcd60e51b8152600401610c34906144e8565b6000610e1c83836131bf565b6000610e1c83836131d7565b600061306e846001600160a01b038516846132ca565b949350505050565b600054600160a81b900460ff161580801561309e57506000546001600160a01b90910460ff16105b806130bf5750303b1580156130bf5750600054600160a01b900460ff166001145b6131225760405162461bcd60e51b815260206004820152602e60248201527f496e697469616c697a61626c653a20636f6e747261637420697320616c72656160448201526d191e481a5b9a5d1a585b1a5e995960921b6064820152608401610c34565b6000805460ff60a01b1916600160a01b179055801561314f576000805460ff60a81b1916600160a81b1790555b61315f6301ffc9a760e01b611ee4565b8015610f93576000805460ff60a81b19169055604051600181527f7f26b83ff96e1f2b6a682f133852f6798a09c465da95921460cefb38474024989060200160405180910390a150565b6000610e1c83836132e7565b6000610c62825490565b60008181526001830160205260408120541515610e1c565b600081815260018301602052604081205480156132c05760006131fb600183613e0d565b855490915060009061320f90600190613e0d565b905081811461327457600086600001828154811061322f5761322f613f29565b906000526020600020015490508087600001848154811061325257613252613f29565b6000918252602080832090910192909255918252600188019052604090208390555b855486908061328557613285614547565b600190038181906000526020600020016000905590558560010160008681526020019081526020016000206000905560019350505050610c62565b6000915050610c62565b6000828152600284016020526040812082905561306e8484613311565b60008260000182815481106132fe576132fe613f29565b9060005260206000200154905092915050565b6000818152600183016020526040812054610e1c9084908490849061336257508154600181810184556000848152602080822090930184905584548482528286019093526040902091909155610c62565b506000610c62565b6001600160a01b0381168114610f9357600080fd5b8035611a098161336a565b6000806040838503121561339d57600080fd5b82356133a88161336a565b946020939093013593505050565b6001600160e01b031981168114610f9357600080fd5b6000602082840312156133de57600080fd5b8135610e1c816133b6565b60005b838110156134045781810151838201526020016133ec565b50506000910152565b600081518084526134258160208601602086016133e9565b601f01601f19169290920160200192915050565b602081526000610e1c602083018461340d565b60006020828403121561345e57600080fd5b8135610e1c8161336a565b60006020828403121561347b57600080fd5b5035919050565b634e487b7160e01b600052604160045260246000fd5b601f8201601f191681016001600160401b03811182821017156134bd576134bd613482565b6040525050565b60405161010081016001600160401b03811182821017156134e7576134e7613482565b60405290565b60006001600160401b0382111561350657613506613482565b5060051b60200190565b600082601f83011261352157600080fd5b8135602061352e826134ed565b60405161353b8282613498565b83815260059390931b850182019282810191508684111561355b57600080fd5b8286015b84811015613576578035835291830191830161355f565b509695505050505050565b60006001600160401b0382111561359a5761359a613482565b50601f01601f191660200190565b600082601f8301126135b957600080fd5b81356135c481613581565b6040516135d18282613498565b8281528560208487010111156135e657600080fd5b82602086016020830137600092810160200192909252509392505050565b600080600080600060a0868803121561361c57600080fd5b85356136278161336a565b945060208601356136378161336a565b935060408601356001600160401b038082111561365357600080fd5b61365f89838a01613510565b9450606088013591508082111561367557600080fd5b61368189838a01613510565b9350608088013591508082111561369757600080fd5b506136a4888289016135a8565b9150509295509295909350565b6000606082840312156136c357600080fd5b604051606081018181106001600160401b03821117156136e5576136e5613482565b6040528235815260208301356136fa8161336a565b6020820152604083013561370d8161336a565b60408201529392505050565b6000806040838503121561372c57600080fd5b82356001600160401b038082111561374357600080fd5b818501915085601f83011261375757600080fd5b81356020613764826134ed565b6040516137718282613498565b83815260059390931b850182019282810191508984111561379157600080fd5b948201945b838610156137b85785356137a98161336a565b82529482019490820190613796565b965050860135925050808211156137ce57600080fd5b506114a585828601613510565b600081518084526020808501945080840160005b8381101561380b578151875295820195908201906001016137ef565b509495945050505050565b602081526000610e1c60208301846137db565b803563ffffffff81168114611a0957600080fd5b6000806000806080858703121561385357600080fd5b843561385e8161336a565b9350602085013561386e8161336a565b925060408501356003811061388257600080fd5b915060608501356001600160401b038082111561389e57600080fd5b9086019061010082890312156138b357600080fd5b6138bb6134c4565b8235828111156138ca57600080fd5b6138d68a8286016135a8565b8252506020830135828111156138eb57600080fd5b6138f78a8286016135a8565b60208301525060408301358281111561390f57600080fd5b61391b8a8286016135a8565b60408301525060608301358281111561393357600080fd5b61393f8a8286016135a8565b60608301525061395160808401613829565b608082015261396260a0840161337f565b60a082015260c08301358281111561397957600080fd5b6139858a8286016135a8565b60c08301525060e08301358281111561399d57600080fd5b6139a98a8286016135a8565b60e0830152509598949750929550505050565b634e487b7160e01b600052602160045260246000fd5b600381106139f057634e487b7160e01b600052602160045260246000fd5b9052565b60208101610c6282846139d2565b600060208284031215613a1457600080fd5b81356001600160401b03811115613a2a57600080fd5b61306e848285016135a8565b600060208284031215613a4857600080fd5b610e1c82613829565b8015158114610f9357600080fd5b60008060408385031215613a7257600080fd5b8235613a7d8161336a565b91506020830135613a8d81613a51565b809150509250929050565b600080600060608486031215613aad57600080fd5b833592506020840135613abf8161336a565b929592945050506040919091013590565b60008060408385031215613ae357600080fd5b823591506020830135613a8d8161336a565b60008083601f840112613b0757600080fd5b5081356001600160401b03811115613b1e57600080fd5b6020830191508360208260051b850101111561205d57600080fd5b60008083601f840112613b4b57600080fd5b5081356001600160401b03811115613b6257600080fd5b60208301915083602082850101111561205d57600080fd5b60008060008060008060008060a0898b031215613b9657600080fd5b8835613ba18161336a565b97506020890135613bb18161336a565b965060408901356001600160401b0380821115613bcd57600080fd5b613bd98c838d01613af5565b909850965060608b0135915080821115613bf257600080fd5b613bfe8c838d01613af5565b909650945060808b0135915080821115613c1757600080fd5b50613c248b828c01613b39565b999c989b5096995094979396929594505050565b60008060408385031215613c4b57600080fd5b8235613c568161336a565b91506020830135613a8d8161336a565b60008060008060008060a08789031215613c7f57600080fd5b8635613c8a8161336a565b95506020870135613c9a8161336a565b9450604087013593506060870135925060808701356001600160401b03811115613cc357600080fd5b613ccf89828a01613b39565b979a9699509497509295939492505050565b600080600080600060a08688031215613cf957600080fd5b8535613d048161336a565b94506020860135613d148161336a565b9350604086013592506060860135915060808601356001600160401b03811115613d3d57600080fd5b6136a4888289016135a8565b634e487b7160e01b600052601160045260246000fd5b8082028115828204841417610c6257610c62613d49565b600082613d9357634e487b7160e01b600052601260045260246000fd5b500490565b600060208284031215613daa57600080fd5b8151610e1c8161336a565b6001600160a01b03898116825260208201899052878116604083015286811660608301528516608082015260a0810184905260c081018390526101008101613e0060e08301846139d2565b9998505050505050505050565b81810381811115610c6257610c62613d49565b600181811c90821680613e3457607f821691505b602082108103613e5457634e487b7160e01b600052602260045260246000fd5b50919050565b600060208284031215613e6c57600080fd5b81516001600160401b03811115613e8257600080fd5b8201601f81018413613e9357600080fd5b8051613e9e81613581565b604051613eab8282613498565b828152866020848601011115613ec057600080fd5b613ed18360208301602087016133e9565b9695505050505050565b6020808252602e908201527f455243313135353a2063616c6c6572206973206e6f7420746f6b656e206f776e60408201526d195c881bdc88185c1c1c9bdd995960921b606082015260800190565b634e487b7160e01b600052603260045260246000fd5b600060018201613f5157613f51613d49565b5060010190565b600060208284031215613f6a57600080fd5b8151610e1c81613a51565b601f821115613fbb57600081815260208120601f850160051c81016020861015613f9c5750805b601f850160051c820191505b81811015611ac057828155600101613fa8565b505050565b81516001600160401b03811115613fd957613fd9613482565b613fed81613fe78454613e20565b84613f75565b602080601f831160018114614022576000841561400a5750858301515b600019600386901b1c1916600185901b178555611ac0565b600085815260208120601f198616915b8281101561405157888601518255948401946001909101908401614032565b508582101561406f5787850151600019600388901b60f8161c191681555b5050505050600190811b01905550565b600081516140918185602086016133e9565b9290920192915050565b683f6e616d653d30787360b81b8152600082516140bf8160098501602087016133e9565b9190910160090192915050565b6f266465736372697074696f6e3d30787360801b8152600082516140f78160108501602087016133e9565b9190910160100192915050565b6926696d6167653d30787360b01b81526000825161412981600a8501602087016133e9565b91909101600a0192915050565b712665787465726e616c5f6c696e6b3d30787360701b8152600082516141638160128501602087016133e9565b9190910160120192915050565b7f2673656c6c65725f6665655f62617369735f706f696e74733d000000000000008152600082516141a88160198501602087016133e9565b9190910160190192915050565b6e266665655f726563697069656e743d60881b8152600082516141df81600f8501602087016133e9565b91909101600f0192915050565b60008089546141fa81613e20565b60018281168015614212576001811461422757614256565b60ff1984168752821515830287019450614256565b8d60005260208060002060005b8581101561424d5781548a820152908401908201614234565b50505082870194505b50505050885161426a818360208d016133e9565b885191019061427d818360208c016133e9565b6142a461429e6142986142928486018c61407f565b8a61407f565b8861407f565b8661407f565b9b9a5050505050505050505050565b6001600160a01b03868116825285166020820152604081018490526060810183905260a0608082018190526000906142ed9083018461340d565b979650505050505050565b60208082526025908201527f455243313135353a207472616e7366657220746f20746865207a65726f206164604082015264647265737360d81b606082015260800190565b6020808252602a908201527f455243313135353a20696e73756666696369656e742062616c616e636520666f60408201526939103a3930b739b332b960b11b606082015260800190565b80820180821115610c6257610c62613d49565b6040815260006143ad60408301856137db565b82810360208401526143bf81856137db565b95945050505050565b6001600160a01b0386811682528516602082015260a0604082018190526000906143f4908301866137db565b828103606084015261440681866137db565b9050828103608084015261441a818561340d565b98975050505050505050565b60006020828403121561443857600080fd5b8151610e1c816133b6565b600060033d111561445c5760046000803e5060005160e01c5b90565b600060443d101561446d5790565b6040516003193d81016004833e81513d6001600160401b03816024840111818411171561449c57505050505090565b82850191508151818111156144b45750505050505090565b843d87010160208285010111156144ce5750505050505090565b6144dd60208286010187613498565b509095945050505050565b60208082526028908201527f455243313135353a204552433131353552656365697665722072656a656374656040820152676420746f6b656e7360c01b606082015260800190565b60008161453f5761453f613d49565b506000190190565b634e487b7160e01b600052603160045260246000fdfe7016719027ff29c13bc4816903851ea968172a86b766c733b954fdabe53c87eea26469706673582212205cc72d5862e46780cc0ca5bc6d13a0fc1d29d5fd8a03bedbb5ad16534f36587a64736f6c63430008110033",
  "immutableReferences": {},
  "source": "// SPDX-License-Identifier: MIT\npragma solidity ~0.8.17;\n\npragma experimental ABIEncoderV2;\n\nimport './libs/Errors.sol';\nimport './libs/ERC721.sol';\nimport './Asset.sol';\n\ncontract AssetShell is AssetModule, ERC1155, IAssetShell {\n\tusing Address for address;\n\tusing EnumerableMap for EnumerableMap.AddressToUintMap;\n\n\tstruct Locked {\n\t\tuint256                        amount; // owner locked amount total for tokenId\n\t\tEnumerableMap.AddressToUintMap values; // previous asset owner address => value\n\t}\n\n\tstruct LockedID {\n\t\tuint256 tokenId;\n\t\taddress owner;\n\t\taddress previous; // previous owner\n\t}\n\n\tstruct AssetData {\n\t\tAssetID meta; // asset meta data\n\t\tuint256 minimumPrice; // Minimum transaction price of assets\n\t\tmapping(address => Locked) locked; // owner => Locked\n\t}\n\n\tmapping(uint256 => AssetData) private _assetsData;   // tokenId => raw asset id\n\tLockedID                      private _lastLocked;\n\tSaleType                      public  saleType; // is opensea first or second sale\n\tuint256[16]                   private  __; // reserved storage space\n\n\tfunction supportsInterface(bytes4 interfaceId) public view virtual override(ERC165,IERC165) returns (bool) {\n\t\treturn ERC1155.supportsInterface1155(interfaceId) || ERC165.supportsInterface(interfaceId);\n\t}\n\n\tfunction initAssetShell(address host, address operator, SaleType _saleType, InitContractURI memory uri) external {\n\t\tinitAssetModule(host, operator, uri);\n\t\t_registerInterface(AssetShell_Type);\n\t\tsaleType = _saleType;\n\t}\n\n\tfunction asERC1155(address addr) view internal returns (IERC1155) {\n\t\tif (!addr.isContract()) revert NonContractAddress();\n\t\tif (!IERC1155(addr).supportsInterface(type(IERC1155).interfaceId))\n\t\t\trevert CheckInterfaceNoMatch(type(IERC1155).interfaceId);\n\t\treturn IERC1155(addr);\n\t}\n\n\tfunction onERC1155Received(\n\t\taddress operator,\n\t\taddress from,\n\t\tuint256 tokenId,\n\t\tuint256 value,\n\t\tbytes calldata data\n\t) external returns (bytes4) {\n\t\tIERC1155 token = asERC1155(_msgSender());\n\t\t// require(ad.meta.token == address(0), \"#AssetShell.onERC1155Received mint of asset already exists\");\n\t\trequire(from != address(this));//, \"#AssetShell.onERC1155Received from not for myself\");\n\n\t\taddress to;\n\t\tuint256 price;\n\t\t(to, price) = abi.decode(data, (address, uint256));\n\n\t\tuint256   id         = convertTokenID(address(token), tokenId);\n\t\tAssetData storage ad = _assetsData[id];\n\n\t\tif (ad.minimumPrice == 0)\n\t\t\tad.minimumPrice = price;\n\t\tad.meta.token = address(token);\n\t\tad.meta.tokenId = tokenId;\n\n\t\t_mint(to, id, value, \"\");\n\n\t\treturn 0xf23a6e61;\n\t}\n\n\tfunction onERC1155BatchReceived(\n\t\taddress operator,\n\t\taddress from,\n\t\tuint256[] calldata ids,\n\t\tuint256[] calldata values,\n\t\tbytes calldata data\n\t) external returns (bytes4) {\n\t\trevert MethodNotImplemented();\n\t}\n\n\t/**\n\t * @dev convertTokenID() convert meta token and token id to token id\n\t */\n\tfunction convertTokenID(address metaToken, uint256 metaTokenId) pure public returns (uint256) {\n\t\treturn uint256(keccak256(abi.encodePacked(metaToken, metaTokenId)));\n\t}\n\n\tfunction uri(uint256 tokenId) public view virtual override(ERC1155,IERC1155MetadataURI) returns (string memory) {\n\t\tAssetID memory meta = assetMeta(tokenId);\n\t\treturn IERC1155MetadataURI(meta.token).uri(meta.tokenId);\n\t}\n\n\t/**\n\t * @dev assetMeta(tokenId) Returns the asset meta data of this tokenId\n\t */\n\tfunction assetMeta(uint256 tokenId) view public override returns (AssetID memory meta) {\n\t\tmeta = _assetsData[tokenId].meta;\n\t\t// require(meta.token != address(0), \"#AssetShell.assetMeta asset non exists\");\n\t\tif (meta.token == address(0)) revert AssetNonExistsInAssetShell();\n\t}\n\n\t/**\n\t * @dev withdraw() withdraw and unlock meta asset\n\t */\n\tfunction withdraw(uint256 tokenId, address owner, uint256 amount) external override Check(Action_Asset_Shell_Withdraw) {\n\t\tAssetID storage meta = _assetsData[tokenId].meta;\n\t\t// require(meta.token != address(0), \"#AssetShell#withdraw withdraw of asset non exists\");\n\t\tif (meta.token == address(0)) revert AssetNonExistsInAssetShell();\n\t\twithdrawFrom(owner, owner, tokenId, amount, \"\");\n\t}\n\n\t/**\n\t * @dev withdrawFrom() implement withdraw and unlock meta asset, internal method\n\t */\n\tfunction withdrawFrom(address from, address to, uint256 id, uint256 amount, bytes memory data) internal {\n\t\tAssetID storage meta = _assetsData[id].meta;\n\t\tIERC1155(meta.token).safeTransferFrom(address(this), to, meta.tokenId, amount, data);\n\t\t_burn(from, id, amount);\n\t}\n\n\t/**\n\t * @dev Returns the owner token locked amount and locked items length\n\t */\n\tfunction lockedOf(uint256 tokenId, address owner) view public returns (uint256 amount, uint256 length) {\n\t\tLocked storage locked = _assetsData[tokenId].locked[owner];\n\t\tamount = locked.amount;\n\t\tlength = locked.values.length();\n\t}\n\n\t/**\n\t * @dev Returns the owner token locked amount and previous owner address\n\t */\n\tfunction lockedAt(uint256 tokenId, address owner, uint256 index) view public \n\t\treturns (address previous, uint256 amount) \n\t{\n\t\t(previous,amount) = _assetsData[tokenId].locked[owner].values.at(index);\n\t}\n\n\t/**\n\t * @dev minimumPrice(tokenId) Returns the minimum price of this tokenId asset\n\t */\n\tfunction minimumPrice(uint256 tokenId) view public returns (uint256) {\n\t\treturn _assetsData[tokenId].minimumPrice;\n\t}\n\n\t/**\n\t * @dev called after token transfer\n\t */\n\tfunction _afterTokenTransfer(\n\t\taddress operator,\n\t\taddress from,\n\t\taddress to,\n\t\tuint256[] memory ids,\n\t\tuint256[] memory amounts,\n\t\tbytes memory data\n\t) internal virtual override {\n\n\t\tfor (uint256 i = 0; i < ids.length; i++) {\n\t\t\tuint256 id = ids[i];\n\t\t\tAssetData storage ad = _assetsData[id];\n\t\t\tuint256 amount = amounts[i];\n\n\t\t\tif (ad.minimumPrice != 0) {\n\t\t\t\tif (from != address(0)) { // not mint\n\t\t\t\t\tif (balanceOf(from, id) < ad.locked[from].amount) { // locaked\n\t\t\t\t\t\trevert NeedToUnlockAssetFirst();\n\t\t\t\t\t}\n\t\t\t\t\tif (to != address(0)) { // not burn\n\t\t\t\t\t\tad.locked[to].amount += amount;\n\t\t\t\t\t\tad.locked[to].values.set(from, amount);\n\t\t\t\t\t\t_lastLocked = LockedID(id,to,from);\n\t\t\t\t\t}\n\t\t\t\t}\n\t\t\t}\n\t\t}\n\t}\n\n\t/**\n\t * @dev unlock() receive eth transaction and unlock asset\n\t */\n\tfunction unlock(LockedID memory id) public payable {\n\t\t// require(tokenId != 0, \"#AssetShell#unlock locked tokenId != 0\");\n\t\tif (id.tokenId == 0) revert TokenIDEmpty();\n\t\t// require(msg.value != 0, \"#AssetShell#unlock msg.value != 0\"); // price\n\t\tif (msg.value == 0) revert PayableAmountZero();\n\t\t// require(ad.locked != address(0), \"#AssetShell#unlock Lock cannot be empty\"); // price\n\t\tif (id.owner == address(0)) revert LockTokenIDEmptyInAssetShell();\n\t\tif (id.previous == address(0)) revert LockTokenIDPreviousOwnerEmptyInAssetShell();\n\n\t\tAssetData storage ad = _assetsData[id.tokenId];\n\t\tLocked storage locked = ad.locked[id.owner];\n\t\tuint256 value = locked.values.get(id.previous);\n\n\t\taddress to = id.owner;\n\t\tuint256 price = msg.value * 10_000 / seller_fee_basis_points; // transfer price\n\t\tuint256 min_price = ad.minimumPrice * value; // minimum price\n\n\t\t// check transfer price\n\t\t// require(amount >= ad.minimumPrice, \"#AssetShell#unlock price >= minimum price\"); // price\n\t\tif (price < min_price) revert PayableInsufficientAmount();\n\n\t\tAssetID storage meta = ad.meta;\n\t\t_host.ledger().assetIncome{value: msg.value}(\n\t\t\tmeta.token, meta.tokenId, msg.sender, id.previous, to, price, value, saleType\n\t\t);\n\n\t\tif (_lastLocked.tokenId == id.tokenId &&\n\t\t\t_lastLocked.owner == id.owner && \n\t\t\t_lastLocked.previous == id.previous\n\t\t) {\n\t\t\t_lastLocked.tokenId = 0;\n\t\t}\n\n\t\t// unlock\n\t\tlocked.amount -= value;\n\t\tlocked.values.remove(id.previous);\n\n\t\tif (saleType == SaleType.kFirst) {\n\t\t\tbytes memory data = abi.encode(to, ad.minimumPrice);\n\t\t\twithdrawFrom(to, address(_host.module(Module_ASSET_Second_ID)), id.tokenId, value, data);\n\t\t}\n\t}\n\n\t/**\n\t * @dev receive eth token\n\t */\n\treceive() external payable {\n\t\tunlock(_lastLocked); // unlock last locked\n\t}\n}\n",
  "sourcePath": "/Users/louis/Project/hc/NFTSwap/SmartHolder/contracts/AssetShell.sol",
  "compiler": {
    "name": "solc",
    "version": "0.8.17+commit.8df45f5f.Emscripten.clang"
  },
  "schemaVersion": "3.4.11",
  "updatedAt": "2023-04-23T06:33:53.004Z",
  "networkType": "ethereum",
  "devdoc": {
    "kind": "dev",
    "methods": {
      "assetMeta(uint256)": {
        "details": "assetMeta(tokenId) Returns the asset meta data of this tokenId"
      },
      "balanceOf(address,uint256)": {
        "details": "See {IERC1155-balanceOf}. Requirements: - `account` cannot be the zero address."
      },
      "balanceOfBatch(address[],uint256[])": {
        "details": "See {IERC1155-balanceOfBatch}. Requirements: - `accounts` and `ids` must have the same length."
      },
      "convertTokenID(address,uint256)": {
        "details": "convertTokenID() convert meta token and token id to token id"
      },
      "exists(uint256)": {
        "details": "Indicates whether any token exist with a given id, or not."
      },
      "isApprovedForAll(address,address)": {
        "details": "See {IERC1155-isApprovedForAll}."
      },
      "lockedAt(uint256,address,uint256)": {
        "details": "Returns the owner token locked amount and previous owner address"
      },
      "lockedOf(uint256,address)": {
        "details": "Returns the owner token locked amount and locked items length"
      },
      "minimumPrice(uint256)": {
        "details": "minimumPrice(tokenId) Returns the minimum price of this tokenId asset"
      },
      "name()": {
        "details": "Gets the token name.",
        "returns": {
          "_0": "string representing the token name"
        }
      },
      "onERC1155BatchReceived(address,address,uint256[],uint256[],bytes)": {
        "details": "Handles the receipt of a multiple ERC1155 token types. This function is called at the end of a `safeBatchTransferFrom` after the balances have been updated. NOTE: To accept the transfer(s), this must return `bytes4(keccak256(\"onERC1155BatchReceived(address,address,uint256[],uint256[],bytes)\"))` (i.e. 0xbc197c81, or its own function selector).",
        "params": {
          "data": "Additional data with no specified format",
          "from": "The address which previously owned the token",
          "ids": "An array containing ids of each token being transferred (order and length must match values array)",
          "operator": "The address which initiated the batch transfer (i.e. msg.sender)",
          "values": "An array containing amounts of each token being transferred (order and length must match ids array)"
        },
        "returns": {
          "_0": "`bytes4(keccak256(\"onERC1155BatchReceived(address,address,uint256[],uint256[],bytes)\"))` if transfer is allowed"
        }
      },
      "safeBatchTransferFrom(address,address,uint256[],uint256[],bytes)": {
        "details": "See {IERC1155-safeBatchTransferFrom}."
      },
      "safeTransferFrom(address,address,uint256,uint256,bytes)": {
        "details": "See {IERC1155-safeTransferFrom}."
      },
      "setApprovalForAll(address,bool)": {
        "details": "See {IERC1155-setApprovalForAll}."
      },
      "totalSupply(uint256)": {
        "details": "Total amount of tokens in with a given id."
      },
      "unlock((uint256,address,address))": {
        "details": "unlock() receive eth transaction and unlock asset"
      },
      "withdraw(uint256,address,uint256)": {
        "details": "withdraw() withdraw and unlock meta asset"
      }
    },
    "version": 1
  },
  "userdoc": {
    "kind": "user",
    "methods": {},
    "version": 1
  }
}