{
  "contractName": "AssetShell",
  "abi": [
    {
      "inputs": [],
      "name": "AssetNonExistsInAssetShell",
      "type": "error"
    },
    {
      "inputs": [
        {
          "internalType": "bytes4",
          "name": "interfaceId",
          "type": "bytes4"
        }
      ],
      "name": "CheckInterfaceNoMatch",
      "type": "error"
    },
    {
      "inputs": [],
      "name": "LockTokenIDValueEmptyInAssetShell",
      "type": "error"
    },
    {
      "inputs": [],
      "name": "MINTERC1155QuantityExceedsLimit",
      "type": "error"
    },
    {
      "inputs": [],
      "name": "MethodNotImplemented",
      "type": "error"
    },
    {
      "inputs": [],
      "name": "NeedToUnlockAssetFirst",
      "type": "error"
    },
    {
      "inputs": [],
      "name": "NeedToUnlockAssetFirstForPreviousOwner",
      "type": "error"
    },
    {
      "inputs": [],
      "name": "NonContractAddress",
      "type": "error"
    },
    {
      "inputs": [],
      "name": "PayableInsufficientAmount",
      "type": "error"
    },
    {
      "inputs": [],
      "name": "PayableInsufficientAmountWETH",
      "type": "error"
    },
    {
      "inputs": [],
      "name": "PermissionDenied",
      "type": "error"
    },
    {
      "inputs": [],
      "name": "PermissionDeniedForOnlyDAO",
      "type": "error"
    },
    {
      "inputs": [],
      "name": "PermissionDeniedForOnlyUnlockOperator",
      "type": "error"
    },
    {
      "anonymous": false,
      "inputs": [
        {
          "indexed": true,
          "internalType": "address",
          "name": "account",
          "type": "address"
        },
        {
          "indexed": true,
          "internalType": "address",
          "name": "operator",
          "type": "address"
        },
        {
          "indexed": false,
          "internalType": "bool",
          "name": "approved",
          "type": "bool"
        }
      ],
      "name": "ApprovalForAll",
      "type": "event"
    },
    {
      "anonymous": false,
      "inputs": [
        {
          "indexed": true,
          "internalType": "uint256",
          "name": "tag",
          "type": "uint256"
        },
        {
          "indexed": false,
          "internalType": "uint256",
          "name": "value",
          "type": "uint256"
        }
      ],
      "name": "Change",
      "type": "event"
    },
    {
      "anonymous": false,
      "inputs": [
        {
          "indexed": false,
          "internalType": "uint8",
          "name": "version",
          "type": "uint8"
        }
      ],
      "name": "Initialized",
      "type": "event"
    },
    {
      "anonymous": false,
      "inputs": [
        {
          "indexed": true,
          "internalType": "address",
          "name": "operator",
          "type": "address"
        },
        {
          "indexed": true,
          "internalType": "address",
          "name": "from",
          "type": "address"
        },
        {
          "indexed": true,
          "internalType": "address",
          "name": "to",
          "type": "address"
        },
        {
          "indexed": false,
          "internalType": "uint256[]",
          "name": "ids",
          "type": "uint256[]"
        },
        {
          "indexed": false,
          "internalType": "uint256[]",
          "name": "values",
          "type": "uint256[]"
        }
      ],
      "name": "TransferBatch",
      "type": "event"
    },
    {
      "anonymous": false,
      "inputs": [
        {
          "indexed": true,
          "internalType": "address",
          "name": "operator",
          "type": "address"
        },
        {
          "indexed": true,
          "internalType": "address",
          "name": "from",
          "type": "address"
        },
        {
          "indexed": true,
          "internalType": "address",
          "name": "to",
          "type": "address"
        },
        {
          "indexed": false,
          "internalType": "uint256",
          "name": "id",
          "type": "uint256"
        },
        {
          "indexed": false,
          "internalType": "uint256",
          "name": "value",
          "type": "uint256"
        }
      ],
      "name": "TransferSingle",
      "type": "event"
    },
    {
      "anonymous": false,
      "inputs": [
        {
          "indexed": false,
          "internalType": "string",
          "name": "value",
          "type": "string"
        },
        {
          "indexed": true,
          "internalType": "uint256",
          "name": "id",
          "type": "uint256"
        }
      ],
      "name": "URI",
      "type": "event"
    },
    {
      "inputs": [
        {
          "internalType": "address",
          "name": "account",
          "type": "address"
        },
        {
          "internalType": "uint256",
          "name": "id",
          "type": "uint256"
        }
      ],
      "name": "balanceOf",
      "outputs": [
        {
          "internalType": "uint256",
          "name": "",
          "type": "uint256"
        }
      ],
      "stateMutability": "view",
      "type": "function",
      "constant": true
    },
    {
      "inputs": [
        {
          "internalType": "address[]",
          "name": "accounts",
          "type": "address[]"
        },
        {
          "internalType": "uint256[]",
          "name": "ids",
          "type": "uint256[]"
        }
      ],
      "name": "balanceOfBatch",
      "outputs": [
        {
          "internalType": "uint256[]",
          "name": "",
          "type": "uint256[]"
        }
      ],
      "stateMutability": "view",
      "type": "function",
      "constant": true
    },
    {
      "inputs": [],
      "name": "baseURI",
      "outputs": [
        {
          "internalType": "string",
          "name": "",
          "type": "string"
        }
      ],
      "stateMutability": "view",
      "type": "function",
      "constant": true
    },
    {
      "inputs": [],
      "name": "base_contract_uri",
      "outputs": [
        {
          "internalType": "string",
          "name": "",
          "type": "string"
        }
      ],
      "stateMutability": "view",
      "type": "function",
      "constant": true
    },
    {
      "inputs": [
        {
          "internalType": "bytes4",
          "name": "interfaceId",
          "type": "bytes4"
        }
      ],
      "name": "checkInterface",
      "outputs": [],
      "stateMutability": "view",
      "type": "function",
      "constant": true
    },
    {
      "inputs": [],
      "name": "contractURI",
      "outputs": [
        {
          "internalType": "string",
          "name": "uri",
          "type": "string"
        }
      ],
      "stateMutability": "view",
      "type": "function",
      "constant": true
    },
    {
      "inputs": [],
      "name": "description",
      "outputs": [
        {
          "internalType": "string",
          "name": "",
          "type": "string"
        }
      ],
      "stateMutability": "view",
      "type": "function",
      "constant": true
    },
    {
      "inputs": [
        {
          "internalType": "uint256",
          "name": "id",
          "type": "uint256"
        }
      ],
      "name": "exists",
      "outputs": [
        {
          "internalType": "bool",
          "name": "",
          "type": "bool"
        }
      ],
      "stateMutability": "view",
      "type": "function",
      "constant": true
    },
    {
      "inputs": [],
      "name": "external_link",
      "outputs": [
        {
          "internalType": "string",
          "name": "",
          "type": "string"
        }
      ],
      "stateMutability": "view",
      "type": "function",
      "constant": true
    },
    {
      "inputs": [],
      "name": "fee_recipient",
      "outputs": [
        {
          "internalType": "address",
          "name": "",
          "type": "address"
        }
      ],
      "stateMutability": "view",
      "type": "function",
      "constant": true
    },
    {
      "inputs": [],
      "name": "host",
      "outputs": [
        {
          "internalType": "contract IDAO",
          "name": "",
          "type": "address"
        }
      ],
      "stateMutability": "view",
      "type": "function",
      "constant": true
    },
    {
      "inputs": [],
      "name": "image",
      "outputs": [
        {
          "internalType": "string",
          "name": "",
          "type": "string"
        }
      ],
      "stateMutability": "view",
      "type": "function",
      "constant": true
    },
    {
      "inputs": [],
      "name": "impl",
      "outputs": [
        {
          "internalType": "address",
          "name": "",
          "type": "address"
        }
      ],
      "stateMutability": "view",
      "type": "function",
      "constant": true
    },
    {
      "inputs": [
        {
          "internalType": "address",
          "name": "account",
          "type": "address"
        },
        {
          "internalType": "address",
          "name": "operator",
          "type": "address"
        }
      ],
      "name": "isApprovedForAll",
      "outputs": [
        {
          "internalType": "bool",
          "name": "",
          "type": "bool"
        }
      ],
      "stateMutability": "view",
      "type": "function",
      "constant": true
    },
    {
      "inputs": [],
      "name": "name",
      "outputs": [
        {
          "internalType": "string",
          "name": "",
          "type": "string"
        }
      ],
      "stateMutability": "view",
      "type": "function",
      "constant": true
    },
    {
      "inputs": [],
      "name": "operator",
      "outputs": [
        {
          "internalType": "address",
          "name": "",
          "type": "address"
        }
      ],
      "stateMutability": "view",
      "type": "function",
      "constant": true
    },
    {
      "inputs": [
        {
          "internalType": "address",
          "name": "from",
          "type": "address"
        },
        {
          "internalType": "address",
          "name": "to",
          "type": "address"
        },
        {
          "internalType": "uint256[]",
          "name": "ids",
          "type": "uint256[]"
        },
        {
          "internalType": "uint256[]",
          "name": "amounts",
          "type": "uint256[]"
        },
        {
          "internalType": "bytes",
          "name": "data",
          "type": "bytes"
        }
      ],
      "name": "safeBatchTransferFrom",
      "outputs": [],
      "stateMutability": "nonpayable",
      "type": "function"
    },
    {
      "inputs": [
        {
          "internalType": "address",
          "name": "from",
          "type": "address"
        },
        {
          "internalType": "address",
          "name": "to",
          "type": "address"
        },
        {
          "internalType": "uint256",
          "name": "id",
          "type": "uint256"
        },
        {
          "internalType": "uint256",
          "name": "amount",
          "type": "uint256"
        },
        {
          "internalType": "bytes",
          "name": "data",
          "type": "bytes"
        }
      ],
      "name": "safeTransferFrom",
      "outputs": [],
      "stateMutability": "nonpayable",
      "type": "function"
    },
    {
      "inputs": [],
      "name": "saleType",
      "outputs": [
        {
          "internalType": "enum IAssetShell.SaleType",
          "name": "",
          "type": "uint8"
        }
      ],
      "stateMutability": "view",
      "type": "function",
      "constant": true
    },
    {
      "inputs": [],
      "name": "seller_fee_basis_points",
      "outputs": [
        {
          "internalType": "uint32",
          "name": "",
          "type": "uint32"
        }
      ],
      "stateMutability": "view",
      "type": "function",
      "constant": true
    },
    {
      "inputs": [
        {
          "internalType": "address",
          "name": "operator",
          "type": "address"
        },
        {
          "internalType": "bool",
          "name": "approved",
          "type": "bool"
        }
      ],
      "name": "setApprovalForAll",
      "outputs": [],
      "stateMutability": "nonpayable",
      "type": "function"
    },
    {
      "inputs": [
        {
          "internalType": "string",
          "name": "value",
          "type": "string"
        }
      ],
      "name": "setDescription",
      "outputs": [],
      "stateMutability": "nonpayable",
      "type": "function"
    },
    {
      "inputs": [
        {
          "internalType": "address",
          "name": "operator_",
          "type": "address"
        }
      ],
      "name": "setOperator",
      "outputs": [],
      "stateMutability": "nonpayable",
      "type": "function"
    },
    {
      "inputs": [
        {
          "internalType": "address",
          "name": "recipient",
          "type": "address"
        }
      ],
      "name": "set_fee_recipient",
      "outputs": [],
      "stateMutability": "nonpayable",
      "type": "function"
    },
    {
      "inputs": [
        {
          "internalType": "uint32",
          "name": "value",
          "type": "uint32"
        }
      ],
      "name": "set_seller_fee_basis_points",
      "outputs": [],
      "stateMutability": "nonpayable",
      "type": "function"
    },
    {
      "inputs": [
        {
          "internalType": "uint256",
          "name": "id",
          "type": "uint256"
        }
      ],
      "name": "totalSupply",
      "outputs": [
        {
          "internalType": "uint256",
          "name": "",
          "type": "uint256"
        }
      ],
      "stateMutability": "view",
      "type": "function",
      "constant": true
    },
    {
      "inputs": [
        {
          "internalType": "address",
          "name": "impl_",
          "type": "address"
        }
      ],
      "name": "upgrade",
      "outputs": [],
      "stateMutability": "nonpayable",
      "type": "function"
    },
    {
      "stateMutability": "payable",
      "type": "receive",
      "payable": true
    },
    {
      "inputs": [
        {
          "internalType": "bytes4",
          "name": "interfaceId",
          "type": "bytes4"
        }
      ],
      "name": "supportsInterface",
      "outputs": [
        {
          "internalType": "bool",
          "name": "",
          "type": "bool"
        }
      ],
      "stateMutability": "view",
      "type": "function",
      "constant": true
    },
    {
      "inputs": [
        {
          "internalType": "address",
          "name": "host",
          "type": "address"
        },
        {
          "internalType": "address",
          "name": "operator",
          "type": "address"
        },
        {
          "internalType": "enum IAssetShell.SaleType",
          "name": "_saleType",
          "type": "uint8"
        },
        {
          "components": [
            {
              "internalType": "string",
              "name": "name",
              "type": "string"
            },
            {
              "internalType": "string",
              "name": "description",
              "type": "string"
            },
            {
              "internalType": "string",
              "name": "image",
              "type": "string"
            },
            {
              "internalType": "string",
              "name": "external_link",
              "type": "string"
            },
            {
              "internalType": "uint32",
              "name": "seller_fee_basis_points",
              "type": "uint32"
            },
            {
              "internalType": "address",
              "name": "fee_recipient",
              "type": "address"
            },
            {
              "internalType": "string",
              "name": "base_contract_uri",
              "type": "string"
            },
            {
              "internalType": "string",
              "name": "base_uri",
              "type": "string"
            }
          ],
          "internalType": "struct AssetModule.InitContractURI",
          "name": "uri",
          "type": "tuple"
        }
      ],
      "name": "initAssetShell",
      "outputs": [],
      "stateMutability": "nonpayable",
      "type": "function"
    },
    {
      "inputs": [
        {
          "internalType": "address",
          "name": "operator",
          "type": "address"
        },
        {
          "internalType": "address",
          "name": "from",
          "type": "address"
        },
        {
          "internalType": "uint256",
          "name": "tokenId",
          "type": "uint256"
        },
        {
          "internalType": "uint256",
          "name": "value",
          "type": "uint256"
        },
        {
          "internalType": "bytes",
          "name": "data",
          "type": "bytes"
        }
      ],
      "name": "onERC1155Received",
      "outputs": [
        {
          "internalType": "bytes4",
          "name": "",
          "type": "bytes4"
        }
      ],
      "stateMutability": "nonpayable",
      "type": "function"
    },
    {
      "inputs": [
        {
          "internalType": "address",
          "name": "operator",
          "type": "address"
        },
        {
          "internalType": "address",
          "name": "from",
          "type": "address"
        },
        {
          "internalType": "uint256[]",
          "name": "ids",
          "type": "uint256[]"
        },
        {
          "internalType": "uint256[]",
          "name": "values",
          "type": "uint256[]"
        },
        {
          "internalType": "bytes",
          "name": "data",
          "type": "bytes"
        }
      ],
      "name": "onERC1155BatchReceived",
      "outputs": [
        {
          "internalType": "bytes4",
          "name": "",
          "type": "bytes4"
        }
      ],
      "stateMutability": "nonpayable",
      "type": "function"
    },
    {
      "inputs": [
        {
          "internalType": "address",
          "name": "metaToken",
          "type": "address"
        },
        {
          "internalType": "uint256",
          "name": "metaTokenId",
          "type": "uint256"
        }
      ],
      "name": "convertTokenID",
      "outputs": [
        {
          "internalType": "uint256",
          "name": "",
          "type": "uint256"
        }
      ],
      "stateMutability": "pure",
      "type": "function",
      "constant": true
    },
    {
      "inputs": [
        {
          "internalType": "uint256",
          "name": "tokenId",
          "type": "uint256"
        }
      ],
      "name": "uri",
      "outputs": [
        {
          "internalType": "string",
          "name": "",
          "type": "string"
        }
      ],
      "stateMutability": "view",
      "type": "function",
      "constant": true
    },
    {
      "inputs": [
        {
          "internalType": "uint256",
          "name": "tokenId",
          "type": "uint256"
        }
      ],
      "name": "assetMeta",
      "outputs": [
        {
          "components": [
            {
              "internalType": "address",
              "name": "token",
              "type": "address"
            },
            {
              "internalType": "uint256",
              "name": "tokenId",
              "type": "uint256"
            }
          ],
          "internalType": "struct IAssetShell.AssetID",
          "name": "meta",
          "type": "tuple"
        }
      ],
      "stateMutability": "view",
      "type": "function",
      "constant": true
    },
    {
      "inputs": [
        {
          "internalType": "uint256",
          "name": "tokenId",
          "type": "uint256"
        },
        {
          "internalType": "address",
          "name": "owner",
          "type": "address"
        },
        {
          "internalType": "uint256",
          "name": "count",
          "type": "uint256"
        }
      ],
      "name": "withdraw",
      "outputs": [],
      "stateMutability": "nonpayable",
      "type": "function"
    },
    {
      "inputs": [
        {
          "internalType": "uint256",
          "name": "tokenId",
          "type": "uint256"
        },
        {
          "internalType": "address",
          "name": "owner",
          "type": "address"
        }
      ],
      "name": "lockedItems",
      "outputs": [
        {
          "internalType": "uint256",
          "name": "items",
          "type": "uint256"
        },
        {
          "internalType": "uint64",
          "name": "total",
          "type": "uint64"
        }
      ],
      "stateMutability": "view",
      "type": "function",
      "constant": true
    },
    {
      "inputs": [
        {
          "internalType": "uint256",
          "name": "tokenId",
          "type": "uint256"
        },
        {
          "internalType": "address",
          "name": "owner",
          "type": "address"
        },
        {
          "internalType": "uint256",
          "name": "index",
          "type": "uint256"
        }
      ],
      "name": "lockedAt",
      "outputs": [
        {
          "internalType": "address",
          "name": "previous",
          "type": "address"
        },
        {
          "components": [
            {
              "internalType": "uint64",
              "name": "count",
              "type": "uint64"
            },
            {
              "internalType": "uint64",
              "name": "blockNumber",
              "type": "uint64"
            },
            {
              "internalType": "uint64",
              "name": "index",
              "type": "uint64"
            }
          ],
          "internalType": "struct AssetShell.LockedItem",
          "name": "item",
          "type": "tuple"
        }
      ],
      "stateMutability": "view",
      "type": "function",
      "constant": true
    },
    {
      "inputs": [
        {
          "internalType": "uint256",
          "name": "tokenId",
          "type": "uint256"
        },
        {
          "internalType": "address",
          "name": "owner",
          "type": "address"
        },
        {
          "internalType": "address",
          "name": "previous",
          "type": "address"
        }
      ],
      "name": "lockedOf",
      "outputs": [
        {
          "components": [
            {
              "internalType": "uint64",
              "name": "count",
              "type": "uint64"
            },
            {
              "internalType": "uint64",
              "name": "blockNumber",
              "type": "uint64"
            },
            {
              "internalType": "uint64",
              "name": "index",
              "type": "uint64"
            }
          ],
          "internalType": "struct AssetShell.LockedItem",
          "name": "item",
          "type": "tuple"
        }
      ],
      "stateMutability": "view",
      "type": "function",
      "constant": true
    },
    {
      "inputs": [
        {
          "internalType": "uint256",
          "name": "tokenId",
          "type": "uint256"
        }
      ],
      "name": "minimumPrice",
      "outputs": [
        {
          "internalType": "uint256",
          "name": "",
          "type": "uint256"
        }
      ],
      "stateMutability": "view",
      "type": "function",
      "constant": true
    },
    {
      "inputs": [
        {
          "components": [
            {
              "components": [
                {
                  "internalType": "uint256",
                  "name": "tokenId",
                  "type": "uint256"
                },
                {
                  "internalType": "address",
                  "name": "owner",
                  "type": "address"
                },
                {
                  "internalType": "address",
                  "name": "previous",
                  "type": "address"
                }
              ],
              "internalType": "struct AssetShell.LockedID",
              "name": "lock",
              "type": "tuple"
            },
            {
              "internalType": "uint256",
              "name": "payValue",
              "type": "uint256"
            },
            {
              "internalType": "address",
              "name": "payBank",
              "type": "address"
            },
            {
              "internalType": "address",
              "name": "payer",
              "type": "address"
            }
          ],
          "internalType": "struct AssetShell.UnlockForOperator[]",
          "name": "data",
          "type": "tuple[]"
        }
      ],
      "name": "unlockForOperator",
      "outputs": [],
      "stateMutability": "nonpayable",
      "type": "function"
    },
    {
      "inputs": [
        {
          "components": [
            {
              "internalType": "uint256",
              "name": "tokenId",
              "type": "uint256"
            },
            {
              "internalType": "address",
              "name": "owner",
              "type": "address"
            },
            {
              "internalType": "address",
              "name": "previous",
              "type": "address"
            }
          ],
          "internalType": "struct AssetShell.LockedID",
          "name": "lock",
          "type": "tuple"
        }
      ],
      "name": "unlock",
      "outputs": [],
      "stateMutability": "payable",
      "type": "function",
      "payable": true
    }
  ],
  "bytecode": "0x608060405234801561001057600080fd5b5061464c806100206000396000f3fe6080604052600436106102495760003560e01c80637284e41611610139578063b3ab15fb116100b6578063e985e9c51161007a578063e985e9c514610850578063f23a6e6114610899578063f242432a146108b9578063f3ccaac0146108d9578063f437bc59146108ee578063f9b62b7a1461090c57600080fd5b8063b3ab15fb14610795578063bc197c81146107b5578063bd85b039146107ee578063e63697c81461081b578063e8a3d4851461083b57600080fd5b806391d81889116100fd57806391d818891461069157806391eb3dee146106b1578063939cabda146106d1578063a22cb46514610747578063afa2e6621461076757600080fd5b80637284e41614610609578063758f969a1461061e5780637972bdf31461063e5780638abf60771461065357806390c3f38f1461067157600080fd5b8063432d72af116101c7578063570ca7351161018b578063570ca735146105325780635bcc79281461056457806362f8a8551461058b5780636c0360eb146105bb57806371fcf468146105d057600080fd5b8063432d72af146103e95780634c6e425b146104965780634e1273f4146104b65780634f558e79146104e35780635027b8b81461051257600080fd5b806312dba7851161020e57806312dba785146103615780631e347d99146103765780632eb2c2d61461039657806330cc317b146103b657806335c2c7bd146103d657600080fd5b8062fdd58e1461029c57806301ffc9a7146102cf57806306fdde03146102ff5780630900f010146103215780630e89341c1461034157600080fd5b3661029757601b54610100900460ff16610295576040805160608101825260185481526019546001600160a01b039081166020830152601a541691810191909152610295903334610950565b005b600080fd5b3480156102a857600080fd5b506102bc6102b7366004613370565b610dca565b6040519081526020015b60405180910390f35b3480156102db57600080fd5b506102ef6102ea3660046133b2565b610e65565b60405190151581526020016102c6565b34801561030b57600080fd5b50610314610e98565b6040516102c6919061341f565b34801561032d57600080fd5b5061029561033c366004613432565b610f2a565b34801561034d57600080fd5b5061031461035c36600461344f565b610f95565b34801561036d57600080fd5b50610314611020565b34801561038257600080fd5b50610295610391366004613468565b6110ae565b3480156103a257600080fd5b506102956103b136600461365e565b611252565b3480156103c257600080fd5b506102956103d1366004613432565b61129e565b6102956103e4366004613777565b611302565b3480156103f557600080fd5b50610489610404366004613793565b604080516060808201835260008083526020808401829052928401819052958652601782528286206001600160a01b0395861687526003018252828620939094168552600190920182529283902083519283018452546001600160401b038082168452600160401b8204811692840192909252600160801b9004169181019190915290565b6040516102c691906137d5565b3480156104a257600080fd5b506102956104b13660046133b2565b611310565b3480156104c257600080fd5b506104d66104d1366004613805565b611342565b6040516102c691906138d1565b3480156104ef57600080fd5b506102ef6104fe36600461344f565b600090815260166020526040902054151590565b34801561051e57600080fd5b5061029561052d366004613929565b61146b565b34801561053e57600080fd5b506003546001600160a01b03165b6040516001600160a01b0390911681526020016102c6565b34801561057057600080fd5b50601b5461057e9060ff1681565b6040516102c69190613ae0565b34801561059757600080fd5b506102bc6105a636600461344f565b60009081526017602052604090206002015490565b3480156105c757600080fd5b506103146114b0565b3480156105dc57600080fd5b506010546105f490600160a01b900463ffffffff1681565b60405163ffffffff90911681526020016102c6565b34801561061557600080fd5b506103146114bd565b34801561062a57600080fd5b5060105461054c906001600160a01b031681565b34801561064a57600080fd5b506103146114cc565b34801561065f57600080fd5b506000546001600160a01b031661054c565b34801561067d57600080fd5b5061029561068c366004613aee565b6114d9565b34801561069d57600080fd5b506102bc6106ac366004613370565b61162a565b3480156106bd57600080fd5b506102956106cc366004613b2a565b611672565b3480156106dd57600080fd5b5061072a6106ec366004613b45565b60009182526017602090815260408084206001600160a01b0390931684526003909201905290206002810154905490916001600160401b0390911690565b604080519283526001600160401b039091166020830152016102c6565b34801561075357600080fd5b50610295610762366004613b83565b6117cd565b34801561077357600080fd5b50610787610782366004613bb1565b6117dc565b6040516102c6929190613be9565b3480156107a157600080fd5b506102956107b0366004613432565b611899565b3480156107c157600080fd5b506107d56107d0366004613cb4565b6118fd565b6040516001600160e01b031990911681526020016102c6565b3480156107fa57600080fd5b506102bc61080936600461344f565b60009081526016602052604090205490565b34801561082757600080fd5b50610295610836366004613bb1565b611918565b34801561084757600080fd5b50610314611a80565b34801561085c57600080fd5b506102ef61086b366004613d72565b6001600160a01b03918216600090815260136020908152604080832093909416825291909152205460ff1690565b3480156108a557600080fd5b506107d56108b4366004613da0565b611c83565b3480156108c557600080fd5b506102956108d4366004613e1b565b611d66565b3480156108e557600080fd5b50610314611dab565b3480156108fa57600080fd5b506002546001600160a01b031661054c565b34801561091857600080fd5b5061092c61092736600461344f565b611db8565b6040805182516001600160a01b0316815260209283015192810192909252016102c6565b82516000908152601760209081526040808320828701516001600160a01b039081168552600382018452828520838901519091168552600181019093529083208054919390916001600160401b0316908190036109c057604051632170716560e11b815260040160405180910390fd5b6020870151601054600090600160a01b900463ffffffff166109e488612710613e99565b6109ee9190613eb0565b84546002880154919250600091610a0e916001600160401b031690613e99565b905080821015610a3157604051630b7b66df60e31b815260040160405180910390fd5b600260009054906101000a90046001600160a01b03166001600160a01b03166356397c356040518163ffffffff1660e01b8152600401602060405180830381865afa158015610a84573d6000803e3d6000fd5b505050506040513d601f19601f82011682018060405250810190610aa89190613ed2565b6001600160a01b0316639521894789308d600001518d8f6040015189898d60000160009054906101000a90046001600160401b0316601b60009054906101000a900460ff166040518a63ffffffff1660e01b8152600401610b10989796959493929190613eef565b6000604051808303818588803b158015610b2957600080fd5b505af1158015610b3d573d6000803e3d6000fd5b50508c516018541492505081159050610b68575060208a01516019546001600160a01b039081169116145b8015610b86575060408a0151601a546001600160a01b039081169116145b15610b915760006018555b855484908790600090610bae9084906001600160401b0316613f4f565b82546101009290920a6001600160401b0381810219909316918316021790915560028801548754909250610bec91600160801b909104166001613f6f565b6001600160401b03161015610c8d57600286018054610c0d90600190613f8f565b81548110610c1d57610c1d613fa2565b60009182526020909120015485546002880180546001600160a01b03909316929091600160801b90046001600160401b0316908110610c5e57610c5e613fa2565b9060005260206000200160006101000a8154816001600160a01b0302191690836001600160a01b031602179055505b85600201805480610ca057610ca0613fb8565b60008281526020808220830160001990810180546001600160a01b03191690559092019092556040808d01516001600160a01b03168352600189810190925290912080546001600160c01b0319169055601b5460ff166002811115610d0757610d07613aa8565b03610dbe576002870154604080516001600160a01b03861660208201529081019190915260009060600160408051808303601f1901815290829052600254632187baed60e11b835260056004840152909250610dbc9186916001600160a01b03169063430f75da90602401602060405180830381865afa158015610d8f573d6000803e3d6000fd5b505050506040513d601f19601f82011682018060405250810190610db39190613ed2565b8d518885611e1d565b505b50505050505050505050565b60006001600160a01b038316610e3a5760405162461bcd60e51b815260206004820152602a60248201527f455243313135353a2061646472657373207a65726f206973206e6f742061207660448201526930b634b21037bbb732b960b11b60648201526084015b60405180910390fd5b5060008181526012602090815260408083206001600160a01b03861684529091529020545b92915050565b6000610e7082611ead565b80610e5f57506001600160e01b0319821660009081526001602052604090205460ff16610e5f565b6060600d8054610ea790613fce565b80601f0160208091040260200160405190810160405280929190818152602001828054610ed390613fce565b8015610f205780601f10610ef557610100808354040283529160200191610f20565b820191906000526020600020905b815481529060010190602001808311610f0357829003601f168201915b5050505050905090565b610f32611ee3565b610f4f57604051631b4004a360e31b815260040160405180910390fd5b600080546001600160a01b0319166001600160a01b0383169081179091556040519081526003906000805160206145f7833981519152906020015b60405180910390a250565b60606000610fa283611db8565b805160208201516040516303a24d0760e21b815260048101919091529192506001600160a01b031690630e89341c90602401600060405180830381865afa158015610ff1573d6000803e3d6000fd5b505050506040513d6000823e601f3d908101601f191682016040526110199190810190614008565b9392505050565b6011805461102d90613fce565b80601f016020809104026020016040519081016040528092919081815260200182805461105990613fce565b80156110a65780601f1061107b576101008083540402835291602001916110a6565b820191906000526020600020905b81548152906001019060200180831161108957829003601f168201915b505050505081565b601b805461ff001916610100179055600254604080516340c3aa5360e11b8152905133926001600160a01b03169163818754a69160048083019260209291908290030181865afa158015611106573d6000803e3d6000fd5b505050506040513d601f19601f8201168201806040525081019061112a9190613ed2565b6001600160a01b031614611151576040516303b89fe560e21b815260040160405180910390fd5b60005b8181101561124257600083838381811061117057611170613fa2565b905060c002018036038101906111869190614089565b60408082015160208301519151632e1a7d4d60e01b81529293506001600160a01b031691632e1a7d4d916111c09160040190815260200190565b600060405180830381600087803b1580156111da57600080fd5b505af11580156111ee573d6000803e3d6000fd5b5050505060208101513031101561121857604051636a9dd36f60e11b815260040160405180910390fd5b61122f816000015182606001518360200151610950565b508061123a81614103565b915050611154565b5050601b805461ff001916905550565b6001600160a01b03851633148061126e575061126e853361086b565b61128a5760405162461bcd60e51b8152600401610e319061411c565b6112978585858585612022565b5050505050565b6112a6611ee3565b6112c357604051631b4004a360e31b815260040160405180910390fd5b601080546001600160a01b0319166001600160a01b0383169081179091556040519081526007906000805160206145f783398151915290602001610f8a565b61130d813334610950565b50565b61131981610e65565b61130d57604051632aae78ef60e01b81526001600160e01b031982166004820152602401610e31565b606081518351146113a75760405162461bcd60e51b815260206004820152602960248201527f455243313135353a206163636f756e747320616e6420696473206c656e677468604482015268040dad2e6dac2e8c6d60bb1b6064820152608401610e31565b600083516001600160401b038111156113c2576113c26134dc565b6040519080825280602002602001820160405280156113eb578160200160208202803683370190505b50905060005b84518110156114635761143685828151811061140f5761140f613fa2565b602002602001015185838151811061142957611429613fa2565b6020026020010151610dca565b82828151811061144857611448613fa2565b602090810291909101015261145c81614103565b90506113f1565b509392505050565b61147684848361203b565b6114866343234e9560e01b6120ee565b601b805483919060ff191660018360028111156114a5576114a5613aa8565b021790555050505050565b6014805461102d90613fce565b606060048054610ea790613fce565b600f805461102d90613fce565b63d0a4ad966114e6611ee3565b6115ef57600260009054906101000a90046001600160a01b03166001600160a01b031663e3f6b5446040518163ffffffff1660e01b8152600401602060405180830381865afa15801561153d573d6000803e3d6000fd5b505050506040513d601f19601f820116820180604052508101906115619190613ed2565b60405163a8a555c560e01b8152336004820152602481018390526001600160a01b03919091169063a8a555c590604401602060405180830381865afa1580156115ae573d6000803e3d6000fd5b505050506040513d601f19601f820116820180604052508101906115d2919061416a565b6115ef57604051630782484160e21b815260040160405180910390fd5b60046115fb83826141d2565b5060016000805160206145f7833981519152600060405161161e91815260200190565b60405180910390a25050565b6040516bffffffffffffffffffffffff19606084901b1660208201526034810182905260009060540160408051601f1981840301815291905280516020909101209392505050565b6391eb3dee61167f611ee3565b61178857600260009054906101000a90046001600160a01b03166001600160a01b031663e3f6b5446040518163ffffffff1660e01b8152600401602060405180830381865afa1580156116d6573d6000803e3d6000fd5b505050506040513d601f19601f820116820180604052508101906116fa9190613ed2565b60405163a8a555c560e01b8152336004820152602481018390526001600160a01b03919091169063a8a555c590604401602060405180830381865afa158015611747573d6000803e3d6000fd5b505050506040513d601f19601f8201168201806040525081019061176b919061416a565b61178857604051630782484160e21b815260040160405180910390fd5b6010805463ffffffff60a01b1916600160a01b63ffffffff8516908102919091179091556040519081526006906000805160206145f78339815191529060200161161e565b6117d8338383612170565b5050565b6040805160608101825260008082526020808301829052828401829052868252601781528382206001600160a01b038716835260030190529182206002810180548590811061182d5761182d613fa2565b60009182526020808320909101546001600160a01b03168083526001939093018152604091829020825160608101845290546001600160401b038082168352600160401b8204811693830193909352600160801b90049091169181019190915290969095509350505050565b6118a1611ee3565b6118be57604051631b4004a360e31b815260040160405180910390fd5b600380546001600160a01b0319166001600160a01b0383169081179091556040519081526002906000805160206145f783398151915290602001610f8a565b6000604051632974974360e01b815260040160405180910390fd5b632e1a7d4d611925611ee3565b611a2e57600260009054906101000a90046001600160a01b03166001600160a01b031663e3f6b5446040518163ffffffff1660e01b8152600401602060405180830381865afa15801561197c573d6000803e3d6000fd5b505050506040513d601f19601f820116820180604052508101906119a09190613ed2565b60405163a8a555c560e01b8152336004820152602481018390526001600160a01b03919091169063a8a555c590604401602060405180830381865afa1580156119ed573d6000803e3d6000fd5b505050506040513d601f19601f82011682018060405250810190611a11919061416a565b611a2e57604051630782484160e21b815260040160405180910390fd5b600084815260176020526040902080546001600160a01b0316611a6457604051632a563a4960e11b815260040160405180910390fd5b6112978485878660405180602001604052806000815250611e1d565b60606000611b17600d8054611a9490613fce565b80601f0160208091040260200160405190810160405280929190818152602001828054611ac090613fce565b8015611b0d5780601f10611ae257610100808354040283529160200191611b0d565b820191906000526020600020905b815481529060010190602001808311611af057829003601f168201915b5050505050612250565b604051602001611b2791906142ad565b60405160208183030381529060405290506000611b4a60048054611a9490613fce565b604051602001611b5a91906142de565b60405160208183030381529060405290506000611b7d600e8054611a9490613fce565b604051602001611b8d9190614316565b60405160208183030381529060405290506000611bb0600f8054611a9490613fce565b604051602001611bc09190614348565b60408051808303601f19018152919052601054909150600090611bef90600160a01b900463ffffffff166123a8565b604051602001611bff9190614382565b60408051601f19818403018152919052601054909150600090611c2a906001600160a01b031661243a565b604051602001611c3a91906143c7565b60405160208183030381529060405290506011868686868686604051602001611c6997969594939291906143fe565b604051602081830303815290604052965050505050505090565b600080611c8f33612450565b9050306001600160a01b03881603611ca657600080fd5b600080611cb585870187613370565b90925090506000611cc6848a61162a565b60008181526017602052604081206002810154929350919003611ceb57600281018390555b80546001600160a01b0319166001600160a01b038616178155600181018a90556001600160401b03891115611d3357604051630ad1fa1b60e41b815260040160405180910390fd5b611d4e84838b60405180602001604052806000815250612513565b5063f23a6e6160e01b9b9a5050505050505050505050565b6001600160a01b038516331480611d825750611d82853361086b565b611d9e5760405162461bcd60e51b8152600401610e319061411c565b6112978585858585612647565b600e805461102d90613fce565b6040805180820182526000808252602091820181905283815260178252829020825180840190935280546001600160a01b031680845260019091015491830191909152611e1857604051632a563a4960e11b815260040160405180910390fd5b919050565b60008381526017602052604090819020805460018201549251637921219560e11b815291926001600160a01b039091169163f242432a91611e689130918a91899089906004016144c5565b600060405180830381600087803b158015611e8257600080fd5b505af1158015611e96573d6000803e3d6000fd5b50505050611ea5868585612812565b505050505050565b60006001600160e01b03198216636cdb3d1360e11b1480610e5f57506001600160e01b031982166303a24d0760e21b1492915050565b60035460009033906001600160a01b0316811461201a57600260009054906101000a90046001600160a01b03166001600160a01b031663570ca7356040518163ffffffff1660e01b8152600401602060405180830381865afa158015611f4d573d6000803e3d6000fd5b505050506040513d601f19601f82011682018060405250810190611f719190613ed2565b6001600160a01b0316816001600160a01b03161461201a57600260009054906101000a90046001600160a01b03166001600160a01b031663ebf0c7176040518163ffffffff1660e01b8152600401602060405180830381865afa158015611fdc573d6000803e3d6000fd5b505050506040513d601f19601f820116820180604052508101906120009190613ed2565b6001600160a01b0316816001600160a01b03161491505090565b600191505090565b604051632974974360e01b815260040160405180910390fd5b61204a838260200151846129b0565b8051600d9061205990826141d2565b506040810151600e9061206c90826141d2565b506060810151600f9061207f90826141d2565b5060a08101516001600160a01b03161561209d578060a0015161209f565b305b60108054608084015163ffffffff16600160a01b026001600160c01b03199091166001600160a01b03939093169290921791909117905560c08101516011906120e890826141d2565b50505050565b6001600160e01b031980821690036121485760405162461bcd60e51b815260206004820152601c60248201527f4552433136353a20696e76616c696420696e74657266616365206964000000006044820152606401610e31565b6001600160e01b0319166000908152600160208190526040909120805460ff19169091179055565b816001600160a01b0316836001600160a01b0316036121e35760405162461bcd60e51b815260206004820152602960248201527f455243313135353a2073657474696e6720617070726f76616c20737461747573604482015268103337b91039b2b63360b91b6064820152608401610e31565b6001600160a01b03838116600081815260136020908152604080832094871680845294825291829020805460ff191686151590811790915591519182527f17307eab39ab6107e8899845ad3d59bd9653f200f220920489ca2b5937696c31910160405180910390a3505050565b60606000825160026122629190613e99565b6001600160401b03811115612279576122796134dc565b6040519080825280601f01601f1916602001820160405280156122a3576020820181803683370190505b50905060005b83518110156123a15760008482815181106122c6576122c6613fa2565b016020015160f881901c91506f181899199a1a9b1b9c1cb0b131b232b360811b9060fc1c601081106122fa576122fa613fa2565b1a60f81b83600184901b8151811061231457612314613fa2565b60200101906001600160f81b031916908160001a9053506f181899199a1a9b1b9c1cb0b131b232b360811b600f82166010811061235357612353613fa2565b1a60f81b83612366600185811b9061450a565b8151811061237657612376613fa2565b60200101906001600160f81b031916908160001a90535050808061239990614103565b9150506122a9565b5092915050565b606060006123b583612a14565b60010190506000816001600160401b038111156123d4576123d46134dc565b6040519080825280601f01601f1916602001820160405280156123fe576020820181803683370190505b5090508181016020015b600019016f181899199a1a9b1b9c1cb0b131b232b360811b600a86061a8153600a850494508461240857509392505050565b6060610e5f6001600160a01b0383166014612aec565b60006001600160a01b0382163b61247a57604051634aa4cf5160e01b815260040160405180910390fd5b6040516301ffc9a760e01b8152636cdb3d1360e11b60048201526001600160a01b038316906301ffc9a790602401602060405180830381865afa1580156124c5573d6000803e3d6000fd5b505050506040513d601f19601f820116820180604052508101906124e9919061416a565b61250f57604051632aae78ef60e01b8152636cdb3d1360e11b6004820152602401610e31565b5090565b6001600160a01b0384166125735760405162461bcd60e51b815260206004820152602160248201527f455243313135353a206d696e7420746f20746865207a65726f206164647265736044820152607360f81b6064820152608401610e31565b33600061257f85612c87565b9050600061258c85612c87565b905061259d83600089858589612cd2565b60008681526012602090815260408083206001600160a01b038b168452909152812080548792906125cf90849061450a565b909155505060408051878152602081018790526001600160a01b03808a1692600092918716917fc3d58168c5ae7397731d063d5bbf3d657854427343f4c083240f7aacaa2d0f62910160405180910390a461262f83600089858589612e4b565b61263e83600089898989613081565b50505050505050565b6001600160a01b0384166126ab5760405162461bcd60e51b815260206004820152602560248201527f455243313135353a207472616e7366657220746f20746865207a65726f206164604482015264647265737360d81b6064820152608401610e31565b3360006126b785612c87565b905060006126c485612c87565b90506126d4838989858589612cd2565b60008681526012602090815260408083206001600160a01b038c1684529091529020548581101561275a5760405162461bcd60e51b815260206004820152602a60248201527f455243313135353a20696e73756666696369656e742062616c616e636520666f60448201526939103a3930b739b332b960b11b6064820152608401610e31565b60008781526012602090815260408083206001600160a01b038d8116855292528083208985039055908a1682528120805488929061279990849061450a565b909155505060408051888152602081018890526001600160a01b03808b16928c821692918816917fc3d58168c5ae7397731d063d5bbf3d657854427343f4c083240f7aacaa2d0f62910160405180910390a46127f9848a8a86868a612e4b565b612807848a8a8a8a8a613081565b505050505050505050565b6001600160a01b0383166128745760405162461bcd60e51b815260206004820152602360248201527f455243313135353a206275726e2066726f6d20746865207a65726f206164647260448201526265737360e81b6064820152608401610e31565b33600061288084612c87565b9050600061288d84612c87565b90506128ad83876000858560405180602001604052806000815250612cd2565b60008581526012602090815260408083206001600160a01b038a1684529091529020548481101561292c5760405162461bcd60e51b8152602060048201526024808201527f455243313135353a206275726e20616d6f756e7420657863656564732062616c604482015263616e636560e01b6064820152608401610e31565b60008681526012602090815260408083206001600160a01b038b81168086529184528285208a8703905582518b81529384018a90529092908816917fc3d58168c5ae7397731d063d5bbf3d657854427343f4c083240f7aacaa2d0f62910160405180910390a461263e84886000868660405180602001604052806000815250612e4b565b6129b861321d565b6129c8630d64f40d60e31b6120ee565b600280546001600160a01b0319166001600160a01b03851617905560046129ef83826141d2565b50600380546001600160a01b0319166001600160a01b03929092169190911790555050565b60008072184f03e93ff9f4daa797ed6e38ed64bf6a1f0160401b8310612a535772184f03e93ff9f4daa797ed6e38ed64bf6a1f0160401b830492506040015b6d04ee2d6d415b85acef81000000008310612a7f576d04ee2d6d415b85acef8100000000830492506020015b662386f26fc100008310612a9d57662386f26fc10000830492506010015b6305f5e1008310612ab5576305f5e100830492506008015b6127108310612ac957612710830492506004015b60648310612adb576064830492506002015b600a8310610e5f5760010192915050565b60606000612afb836002613e99565b612b0690600261450a565b6001600160401b03811115612b1d57612b1d6134dc565b6040519080825280601f01601f191660200182016040528015612b47576020820181803683370190505b509050600360fc1b81600081518110612b6257612b62613fa2565b60200101906001600160f81b031916908160001a905350600f60fb1b81600181518110612b9157612b91613fa2565b60200101906001600160f81b031916908160001a9053506000612bb5846002613e99565b612bc090600161450a565b90505b6001811115612c38576f181899199a1a9b1b9c1cb0b131b232b360811b85600f1660108110612bf457612bf4613fa2565b1a60f81b828281518110612c0a57612c0a613fa2565b60200101906001600160f81b031916908160001a90535060049490941c93612c318161451d565b9050612bc3565b5083156110195760405162461bcd60e51b815260206004820181905260248201527f537472696e67733a20686578206c656e67746820696e73756666696369656e746044820152606401610e31565b60408051600180825281830190925260609160009190602080830190803683370190505090508281600081518110612cc157612cc1613fa2565b602090810291909101015292915050565b6001600160a01b038516612d595760005b8351811015612d5757828181518110612cfe57612cfe613fa2565b602002602001015160166000868481518110612d1c57612d1c613fa2565b602002602001015181526020019081526020016000206000828254612d41919061450a565b90915550612d50905081614103565b9050612ce3565b505b6001600160a01b038416611ea55760005b835181101561263e576000848281518110612d8757612d87613fa2565b602002602001015190506000848381518110612da557612da5613fa2565b6020026020010151905060006016600084815260200190815260200160002054905081811015612e285760405162461bcd60e51b815260206004820152602860248201527f455243313135353a206275726e20616d6f756e74206578636565647320746f74604482015267616c537570706c7960c01b6064820152608401610e31565b60009283526016602052604090922091039055612e4481614103565b9050612d6a565b60005b835181101561263e576000848281518110612e6b57612e6b613fa2565b6020026020010151905060006017600083815260200190815260200160002090506000858481518110612ea057612ea0613fa2565b60200260200101519050816002015460001461306b576001600160a01b0389161561306b576001600160a01b03891660009081526003830160205260409020546001600160401b0316612ef38a85610dca565b1015612f125760405163798efa8760e11b815260040160405180910390fd5b6001600160a01b0388161561306b576001600160a01b0380891660009081526003840160209081526040808320938d16835260018401909152902080546001600160401b031615612f765760405163e0caa31160e01b815260040160405180910390fd5b815483908390600090612f939084906001600160401b0316613f6f565b82546001600160401b039182166101009390930a928302928202191691909117909155600290930180548354438616600160401b026fffffffffffffffffffffffffffffffff19928716600160801b02929092166001600160c01b031990911617948616949094179390931790915550805460018101825560009182526020918290200180546001600160a01b03808d166001600160a01b0319928316811790935560408051606081018252888152918d16948201859052018290526018869055601980548216909317909255601a80549092161790555b505050808061307990614103565b915050612e4e565b6001600160a01b0384163b15611ea55760405163f23a6e6160e01b81526001600160a01b0385169063f23a6e61906130c590899089908890889088906004016144c5565b6020604051808303816000875af1925050508015613100575060408051601f3d908101601f191682019092526130fd91810190614534565b60015b6131ac5761310c614551565b806308c379a003613145575061312061456d565b8061312b5750613147565b8060405162461bcd60e51b8152600401610e31919061341f565b505b60405162461bcd60e51b815260206004820152603460248201527f455243313135353a207472616e7366657220746f206e6f6e2d455243313135356044820152732932b1b2b4bb32b91034b6b83632b6b2b73a32b960611b6064820152608401610e31565b6001600160e01b0319811663f23a6e6160e01b1461263e5760405162461bcd60e51b815260206004820152602860248201527f455243313135353a204552433131353552656365697665722072656a656374656044820152676420746f6b656e7360c01b6064820152608401610e31565b600054600160a81b900460ff161580801561324557506000546001600160a01b90910460ff16105b806132665750303b1580156132665750600054600160a01b900460ff166001145b6132c95760405162461bcd60e51b815260206004820152602e60248201527f496e697469616c697a61626c653a20636f6e747261637420697320616c72656160448201526d191e481a5b9a5d1a585b1a5e995960921b6064820152608401610e31565b6000805460ff60a01b1916600160a01b17905580156132f6576000805460ff60a81b1916600160a81b1790555b6133066301ffc9a760e01b6120ee565b801561130d576000805460ff60a81b19169055604051600181527f7f26b83ff96e1f2b6a682f133852f6798a09c465da95921460cefb38474024989060200160405180910390a150565b6001600160a01b038116811461130d57600080fd5b8035611e1881613350565b6000806040838503121561338357600080fd5b823561338e81613350565b946020939093013593505050565b6001600160e01b03198116811461130d57600080fd5b6000602082840312156133c457600080fd5b81356110198161339c565b60005b838110156133ea5781810151838201526020016133d2565b50506000910152565b6000815180845261340b8160208601602086016133cf565b601f01601f19169290920160200192915050565b60208152600061101960208301846133f3565b60006020828403121561344457600080fd5b813561101981613350565b60006020828403121561346157600080fd5b5035919050565b6000806020838503121561347b57600080fd5b82356001600160401b038082111561349257600080fd5b818501915085601f8301126134a657600080fd5b8135818111156134b557600080fd5b86602060c0830285010111156134ca57600080fd5b60209290920196919550909350505050565b634e487b7160e01b600052604160045260246000fd5b601f8201601f191681016001600160401b0381118282101715613517576135176134dc565b6040525050565b60405161010081016001600160401b0381118282101715613541576135416134dc565b60405290565b60006001600160401b03821115613560576135606134dc565b5060051b60200190565b600082601f83011261357b57600080fd5b8135602061358882613547565b60405161359582826134f2565b83815260059390931b85018201928281019150868411156135b557600080fd5b8286015b848110156135d057803583529183019183016135b9565b509695505050505050565b60006001600160401b038211156135f4576135f46134dc565b50601f01601f191660200190565b600082601f83011261361357600080fd5b813561361e816135db565b60405161362b82826134f2565b82815285602084870101111561364057600080fd5b82602086016020830137600092810160200192909252509392505050565b600080600080600060a0868803121561367657600080fd5b853561368181613350565b9450602086013561369181613350565b935060408601356001600160401b03808211156136ad57600080fd5b6136b989838a0161356a565b945060608801359150808211156136cf57600080fd5b6136db89838a0161356a565b935060808801359150808211156136f157600080fd5b506136fe88828901613602565b9150509295509295909350565b60006060828403121561371d57600080fd5b604051606081018181106001600160401b038211171561373f5761373f6134dc565b60405282358152905080602083013561375781613350565b6020820152604083013561376a81613350565b6040919091015292915050565b60006060828403121561378957600080fd5b611019838361370b565b6000806000606084860312156137a857600080fd5b8335925060208401356137ba81613350565b915060408401356137ca81613350565b809150509250925092565b60608101610e5f828480516001600160401b03908116835260208083015182169084015260409182015116910152565b6000806040838503121561381857600080fd5b82356001600160401b038082111561382f57600080fd5b818501915085601f83011261384357600080fd5b8135602061385082613547565b60405161385d82826134f2565b83815260059390931b850182019282810191508984111561387d57600080fd5b948201945b838610156138a457853561389581613350565b82529482019490820190613882565b965050860135925050808211156138ba57600080fd5b506138c78582860161356a565b9150509250929050565b6020808252825182820181905260009190848201906040850190845b81811015613909578351835292840192918401916001016138ed565b50909695505050505050565b803563ffffffff81168114611e1857600080fd5b6000806000806080858703121561393f57600080fd5b843561394a81613350565b9350602085013561395a81613350565b925060408501356003811061396e57600080fd5b915060608501356001600160401b038082111561398a57600080fd5b90860190610100828903121561399f57600080fd5b6139a761351e565b8235828111156139b657600080fd5b6139c28a828601613602565b8252506020830135828111156139d757600080fd5b6139e38a828601613602565b6020830152506040830135828111156139fb57600080fd5b613a078a828601613602565b604083015250606083013582811115613a1f57600080fd5b613a2b8a828601613602565b606083015250613a3d60808401613915565b6080820152613a4e60a08401613365565b60a082015260c083013582811115613a6557600080fd5b613a718a828601613602565b60c08301525060e083013582811115613a8957600080fd5b613a958a828601613602565b60e0830152509598949750929550505050565b634e487b7160e01b600052602160045260246000fd5b60038110613adc57634e487b7160e01b600052602160045260246000fd5b9052565b60208101610e5f8284613abe565b600060208284031215613b0057600080fd5b81356001600160401b03811115613b1657600080fd5b613b2284828501613602565b949350505050565b600060208284031215613b3c57600080fd5b61101982613915565b60008060408385031215613b5857600080fd5b823591506020830135613b6a81613350565b809150509250929050565b801515811461130d57600080fd5b60008060408385031215613b9657600080fd5b8235613ba181613350565b91506020830135613b6a81613b75565b600080600060608486031215613bc657600080fd5b833592506020840135613bd881613350565b929592945050506040919091013590565b6001600160a01b038316815260808101611019602083018480516001600160401b03908116835260208083015182169084015260409182015116910152565b60008083601f840112613c3a57600080fd5b5081356001600160401b03811115613c5157600080fd5b6020830191508360208260051b8501011115613c6c57600080fd5b9250929050565b60008083601f840112613c8557600080fd5b5081356001600160401b03811115613c9c57600080fd5b602083019150836020828501011115613c6c57600080fd5b60008060008060008060008060a0898b031215613cd057600080fd5b8835613cdb81613350565b97506020890135613ceb81613350565b965060408901356001600160401b0380821115613d0757600080fd5b613d138c838d01613c28565b909850965060608b0135915080821115613d2c57600080fd5b613d388c838d01613c28565b909650945060808b0135915080821115613d5157600080fd5b50613d5e8b828c01613c73565b999c989b5096995094979396929594505050565b60008060408385031215613d8557600080fd5b8235613d9081613350565b91506020830135613b6a81613350565b60008060008060008060a08789031215613db957600080fd5b8635613dc481613350565b95506020870135613dd481613350565b9450604087013593506060870135925060808701356001600160401b03811115613dfd57600080fd5b613e0989828a01613c73565b979a9699509497509295939492505050565b600080600080600060a08688031215613e3357600080fd5b8535613e3e81613350565b94506020860135613e4e81613350565b9350604086013592506060860135915060808601356001600160401b03811115613e7757600080fd5b6136fe88828901613602565b634e487b7160e01b600052601160045260246000fd5b8082028115828204841417610e5f57610e5f613e83565b600082613ecd57634e487b7160e01b600052601260045260246000fd5b500490565b600060208284031215613ee457600080fd5b815161101981613350565b6001600160a01b03898116825260208201899052878116604083015286811660608301528516608082015260a081018490526001600160401b03831660c08201526101008101613f4260e0830184613abe565b9998505050505050505050565b6001600160401b038281168282160390808211156123a1576123a1613e83565b6001600160401b038181168382160190808211156123a1576123a1613e83565b81810381811115610e5f57610e5f613e83565b634e487b7160e01b600052603260045260246000fd5b634e487b7160e01b600052603160045260246000fd5b600181811c90821680613fe257607f821691505b60208210810361400257634e487b7160e01b600052602260045260246000fd5b50919050565b60006020828403121561401a57600080fd5b81516001600160401b0381111561403057600080fd5b8201601f8101841361404157600080fd5b805161404c816135db565b60405161405982826134f2565b82815286602084860101111561406e57600080fd5b61407f8360208301602087016133cf565b9695505050505050565b600060c0828403121561409b57600080fd5b604051608081018181106001600160401b03821117156140bd576140bd6134dc565b6040526140ca848461370b565b81526060830135602082015260808301356140e481613350565b604082015260a08301356140f781613350565b60608201529392505050565b60006001820161411557614115613e83565b5060010190565b6020808252602e908201527f455243313135353a2063616c6c6572206973206e6f7420746f6b656e206f776e60408201526d195c881bdc88185c1c1c9bdd995960921b606082015260800190565b60006020828403121561417c57600080fd5b815161101981613b75565b601f8211156141cd57600081815260208120601f850160051c810160208610156141ae5750805b601f850160051c820191505b81811015611ea5578281556001016141ba565b505050565b81516001600160401b038111156141eb576141eb6134dc565b6141ff816141f98454613fce565b84614187565b602080601f831160018114614234576000841561421c5750858301515b600019600386901b1c1916600185901b178555611ea5565b600085815260208120601f198616915b8281101561426357888601518255948401946001909101908401614244565b50858210156142815787850151600019600388901b60f8161c191681555b5050505050600190811b01905550565b600081516142a38185602086016133cf565b9290920192915050565b683f6e616d653d30787360b81b8152600082516142d18160098501602087016133cf565b9190910160090192915050565b6f266465736372697074696f6e3d30787360801b8152600082516143098160108501602087016133cf565b9190910160100192915050565b6926696d6167653d30787360b01b81526000825161433b81600a8501602087016133cf565b91909101600a0192915050565b712665787465726e616c5f6c696e6b3d30787360701b8152600082516143758160128501602087016133cf565b9190910160120192915050565b7f2673656c6c65725f6665655f62617369735f706f696e74733d000000000000008152600082516143ba8160198501602087016133cf565b9190910160190192915050565b6e266665655f726563697069656e743d60881b8152600082516143f181600f8501602087016133cf565b91909101600f0192915050565b600080895461440c81613fce565b60018281168015614424576001811461443957614468565b60ff1984168752821515830287019450614468565b8d60005260208060002060005b8581101561445f5781548a820152908401908201614446565b50505082870194505b50505050885161447c818360208d016133cf565b885191019061448f818360208c016133cf565b6144b66144b06144aa6144a48486018c614291565b8a614291565b88614291565b86614291565b9b9a5050505050505050505050565b6001600160a01b03868116825285166020820152604081018490526060810183905260a0608082018190526000906144ff908301846133f3565b979650505050505050565b80820180821115610e5f57610e5f613e83565b60008161452c5761452c613e83565b506000190190565b60006020828403121561454657600080fd5b81516110198161339c565b600060033d111561456a5760046000803e5060005160e01c5b90565b600060443d101561457b5790565b6040516003193d81016004833e81513d6001600160401b0381602484011181841117156145aa57505050505090565b82850191508151818111156145c25750505050505090565b843d87010160208285010111156145dc5750505050505090565b6145eb602082860101876134f2565b50909594505050505056fe7016719027ff29c13bc4816903851ea968172a86b766c733b954fdabe53c87eea2646970667358221220c38b90543689eccbdbbba39892256f1f1205c89c3347624509d4d7a368a0e22864736f6c63430008110033",
  "immutableReferences": {},
  "source": "// SPDX-License-Identifier: MIT\npragma solidity ~0.8.17;\n\npragma experimental ABIEncoderV2;\n\nimport './libs/Errors.sol';\nimport './libs/ERC721.sol';\nimport './Asset.sol';\n\ncontract AssetShell is AssetModule, ERC1155, IAssetShell {\n\tusing Address for address;\n\n\tstruct LockedID {\n\t\tuint256 tokenId;\n\t\taddress owner;\n\t\taddress previous; // previous owner\n\t}\n\tstruct LockedItem {\n\t\tuint64 count;\n\t\tuint64 blockNumber; // block number\n\t\tuint64 index; // index for itemsKeys\n\t}\n\tstruct Locked {\n\t\tuint64                         total; // owner locked count total for tokenId\n\t\tmapping(address => LockedItem) items; // previous asset owner address => value\n\t\taddress[]                      itemsKeys; // previous list\n\t}\n\n\tstruct AssetData {\n\t\tAssetID                    meta; // asset meta data\n\t\tuint256                    minimumPrice; // Minimum transaction price of assets\n\t\tmapping(address => Locked) locked; // owner => Locked\n\t}\n\n\tmapping(uint256 => AssetData) private _assetsData;   // tokenId => raw asset id\n\tLockedID                      private _lastLocked;\n\tSaleType                      public  saleType; // is opensea first or second sale\n\tbool                          private _IsDisableReceiveUnlock;\n\tuint256[15]                   private  __; // reserved storage space\n\n\tfunction supportsInterface(bytes4 interfaceId) public view virtual override(ERC165,IERC165) returns (bool) {\n\t\treturn ERC1155.supportsInterface1155(interfaceId) || ERC165.supportsInterface(interfaceId);\n\t}\n\n\tfunction initAssetShell(address host, address operator, SaleType _saleType, InitContractURI memory uri) external {\n\t\tinitAssetModule(host, operator, uri);\n\t\t_registerInterface(AssetShell_Type);\n\t\tsaleType = _saleType;\n\t}\n\n\tfunction asERC1155(address addr) view internal returns (IERC1155) {\n\t\tif (!addr.isContract()) revert NonContractAddress();\n\t\tif (!IERC1155(addr).supportsInterface(type(IERC1155).interfaceId))\n\t\t\trevert CheckInterfaceNoMatch(type(IERC1155).interfaceId);\n\t\treturn IERC1155(addr);\n\t}\n\n\tfunction onERC1155Received(\n\t\taddress operator,\n\t\taddress from,\n\t\tuint256 tokenId,\n\t\tuint256 value,\n\t\tbytes calldata data\n\t) external returns (bytes4) {\n\t\tIERC1155 token = asERC1155(_msgSender());\n\t\t// require(ad.meta.token == address(0), \"#AssetShell.onERC1155Received mint of asset already exists\");\n\t\trequire(from != address(this));//, \"#AssetShell.onERC1155Received from not for myself\");\n\n\t\taddress to;\n\t\tuint256 price;\n\t\t(to, price) = abi.decode(data, (address, uint256));\n\n\t\tuint256   id         = convertTokenID(address(token), tokenId);\n\t\tAssetData storage ad = _assetsData[id];\n\n\t\tif (ad.minimumPrice == 0)\n\t\t\tad.minimumPrice = price;\n\t\tad.meta.token = address(token);\n\t\tad.meta.tokenId = tokenId;\n\n\t\tif (value > 0xffffffffffffffff) {\n\t\t\trevert MINTERC1155QuantityExceedsLimit();\n\t\t}\n\t\t_mint(to, id, value, \"\");\n\n\t\treturn 0xf23a6e61;\n\t}\n\n\tfunction onERC1155BatchReceived(\n\t\taddress operator,\n\t\taddress from,\n\t\tuint256[] calldata ids,\n\t\tuint256[] calldata values,\n\t\tbytes calldata data\n\t) external returns (bytes4) {\n\t\trevert MethodNotImplemented();\n\t}\n\n\tfunction _safeBatchTransferFrom(\n\t\taddress from,\n\t\taddress to,\n\t\tuint256[] memory ids,\n\t\tuint256[] memory amounts,\n\t\tbytes memory data) internal virtual override\n\t{\n\t\trevert MethodNotImplemented();\n\t}\n\n\t/**\n\t * @dev convertTokenID() convert meta token and token id to token id\n\t */\n\tfunction convertTokenID(address metaToken, uint256 metaTokenId) pure public returns (uint256) {\n\t\treturn uint256(keccak256(abi.encodePacked(metaToken, metaTokenId)));\n\t}\n\n\t/**\n\t * @dev overwrite\n\t */\n\tfunction uri(uint256 tokenId) public view virtual override(ERC1155,IERC1155MetadataURI) returns (string memory) {\n\t\tAssetID memory meta = assetMeta(tokenId);\n\t\treturn IERC1155MetadataURI(meta.token).uri(meta.tokenId);\n\t}\n\n\t/**\n\t * @dev assetMeta(tokenId) Returns the asset meta data of this tokenId\n\t */\n\tfunction assetMeta(uint256 tokenId) view public override returns (AssetID memory meta) {\n\t\tmeta = _assetsData[tokenId].meta;\n\t\t// require(meta.token != address(0), \"#AssetShell.assetMeta asset non exists\");\n\t\tif (meta.token == address(0)) revert AssetNonExistsInAssetShell();\n\t}\n\n\t/**\n\t * @dev withdraw() withdraw and unlock meta asset\n\t */\n\tfunction withdraw(uint256 tokenId, address owner, uint256 count) external override Check(Action_Asset_Shell_Withdraw) {\n\t\tAssetID storage meta = _assetsData[tokenId].meta;\n\t\t// require(meta.token != address(0), \"#AssetShell#withdraw withdraw of asset non exists\");\n\t\tif (meta.token == address(0)) revert AssetNonExistsInAssetShell();\n\t\twithdrawFrom(owner, owner, tokenId, count, \"\");\n\t}\n\n\t/**\n\t * @dev withdrawFrom() implement withdraw and unlock meta asset, internal method\n\t */\n\tfunction withdrawFrom(address from, address to, uint256 id, uint256 count, bytes memory data) internal {\n\t\tAssetID storage meta = _assetsData[id].meta;\n\t\tIERC1155(meta.token).safeTransferFrom(address(this), to, meta.tokenId, count, data);\n\t\t_burn(from, id, count);\n\t}\n\n\t/**\n\t * @dev Returns the owner token locked total count and locked items length\n\t */\n\tfunction lockedItems(uint256 tokenId, address owner) view public returns (uint256 items, uint64 total) {\n\t\tLocked storage locked = _assetsData[tokenId].locked[owner];\n\t\titems = locked.itemsKeys.length;\n\t\ttotal = locked.total;\n\t}\n\n\t/**\n\t * @dev Returns the owner token locked count for index\n\t */\n\tfunction lockedAt(uint256 tokenId, address owner, uint256 index) view public \n\t\treturns (address previous, LockedItem memory item) \n\t{\n\t\tLocked storage locked = _assetsData[tokenId].locked[owner];\n\t\tprevious = locked.itemsKeys[index];\n\t\titem = locked.items[previous];\n\t}\n\n\t/**\n\t * @dev Returns the owner token locked count and previous owner address\n\t */\n\tfunction lockedOf(uint256 tokenId,address owner,address previous) view public returns (LockedItem memory item) {\n\t\titem = _assetsData[tokenId].locked[owner].items[previous];\n\t}\n\n\t/**\n\t * @dev minimumPrice(tokenId) Returns the minimum price of this tokenId asset\n\t */\n\tfunction minimumPrice(uint256 tokenId) view public returns (uint256) {\n\t\treturn _assetsData[tokenId].minimumPrice;\n\t}\n\n\t/**\n\t * @dev called after token transfer\n\t */\n\tfunction _afterTokenTransfer(\n\t\taddress operator,\n\t\taddress from,\n\t\taddress to,\n\t\tuint256[] memory ids,\n\t\tuint256[] memory counts,\n\t\tbytes memory data\n\t) internal virtual override {\n\n\t\tfor (uint256 i = 0; i < ids.length; i++) {\n\t\t\tuint256 id = ids[i];\n\t\t\tAssetData storage asset = _assetsData[id];\n\t\t\tuint256 count = counts[i];\n\n\t\t\tif (asset.minimumPrice != 0) {\n\t\t\t\tif (from != address(0)) { // not mint\n\t\t\t\t\tif (balanceOf(from, id) < asset.locked[from].total) { // locaked\n\t\t\t\t\t\trevert NeedToUnlockAssetFirst();\n\t\t\t\t\t}\n\t\t\t\t\tif (to != address(0)) { // not burn\n\t\t\t\t\t\tLocked storage locked = asset.locked[to]; // locked to\n\t\t\t\t\t\tLockedItem storage item = locked.items[from];\n\t\t\t\t\t\tif (item.count != 0)\n\t\t\t\t\t\t\trevert NeedToUnlockAssetFirstForPreviousOwner();\n\n\t\t\t\t\t\tlocked.total += uint64(count);\n\t\t\t\t\t\titem.index = uint64(locked.itemsKeys.length);\n\t\t\t\t\t\titem.count = uint64(count);\n\t\t\t\t\t\titem.blockNumber = uint64(block.number);\n\t\t\t\t\t\tlocked.itemsKeys.push(from);\n\n\t\t\t\t\t\t_lastLocked = LockedID(id,to,from);\n\t\t\t\t\t}\n\t\t\t\t}\n\t\t\t}\n\t\t}\n\t}\n\n\t/**\n\t * @dev unlock_() receive eth transaction and unlock asset\n\t */\n\tfunction unlock_(LockedID memory lock, address sender, uint256 value) private {\n\t\t// require(tokenId != 0, \"#AssetShell#unlock locked tokenId != 0\");\n\t\t// if (id.tokenId == 0) revert TokenIDEmpty();\n\t\t// require(value != 0, \"#AssetShell#unlock value != 0\"); // price\n\t\t// if (value == 0) revert PayableAmountZero();\n\t\t// require(ad.locked != address(0), \"#AssetShell#unlock Lock cannot be empty\"); // price\n\t\t// if (id.owner == address(0)) revert LockTokenIDEmptyInAssetShell();\n\t\t// if (id.previous == address(0)) revert LockTokenIDPreviousOwnerEmptyInAssetShell();\n\n\t\tAssetData storage asset  = _assetsData[lock.tokenId];\n\t\tLocked    storage locked = asset.locked[lock.owner];\n\t\tLockedItem storage item  = locked.items[lock.previous];\n\t\tuint256 count = item.count;\n\n\t\tif (item.count == 0) revert LockTokenIDValueEmptyInAssetShell();\n\n\t\taddress to = lock.owner;\n\t\tuint256 price = value * 10_000 / seller_fee_basis_points; // transfer price\n\t\tuint256 min_price = asset.minimumPrice * item.count; // minimum price\n\n\t\t// check transfer price\n\t\t// require(count >= ad.minimumPrice, \"#AssetShell#unlock price >= minimum price\"); // price\n\t\tif (price < min_price) revert PayableInsufficientAmount();\n\n\t\t//AssetID storage meta = ad.meta;\n\t\t_host.ledger().assetIncome{value: value}(\n\t\t\taddress(this), lock.tokenId, sender, lock.previous, to, price, item.count, saleType\n\t\t);\n\n\t\tif (_lastLocked.tokenId == lock.tokenId &&\n\t\t\t_lastLocked.owner == lock.owner && \n\t\t\t_lastLocked.previous == lock.previous\n\t\t) {\n\t\t\t_lastLocked.tokenId = 0;\n\t\t}\n\n\t\t// unlock\n\t\tlocked.total -= uint64(count);\n\t\t// delete key data\n\t\tif (item.index + 1 < locked.itemsKeys.length)\n\t\t\tlocked.itemsKeys[item.index] = locked.itemsKeys[locked.itemsKeys.length - 1];\n\t\tlocked.itemsKeys.pop(); // remove last key in keys\n\t\tdelete locked.items[lock.previous];\n\n\t\tif (saleType == SaleType.kFirst) {\n\t\t\tbytes memory data = abi.encode(to, asset.minimumPrice);\n\t\t\twithdrawFrom(to, address(_host.module(Module_ASSET_Second_ID)), lock.tokenId, count, data);\n\t\t}\n\t}\n\n\tstruct UnlockForOperator {\n\t\tLockedID lock;\n\t\tuint256  payValue; // value\n\t\taddress  payBank; // erc20 contract address, weth\n\t\taddress  payer;   // opensea contract => sender\n\t}\n\n\tmodifier _DisableReceiveUnlock() {\n\t\t_IsDisableReceiveUnlock = true;\n\t\t_;\n\t\t_IsDisableReceiveUnlock = false;\n\t}\n\n\t/**\n\t * @dev unlockForOperator()\n\t */\n\tfunction unlockForOperator(UnlockForOperator[] calldata data) public _DisableReceiveUnlock {\n\t\tif (_host.unlockOperator() != msg.sender) {\n\t\t\trevert PermissionDeniedForOnlyUnlockOperator();\n\t\t}\n\n\t\tfor (uint256 i = 0; i < data.length; i++) {\n\t\t\tUnlockForOperator memory it = data[i];\n\t\t\tIWETH(it.payBank).withdraw(it.payValue);\n\t\t\tif (address(this).balance < it.payValue ) revert PayableInsufficientAmountWETH();\n\t\t\tunlock_(it.lock, it.payer, it.payValue);\n\t\t}\n\t}\n\n\tfunction unlock(LockedID memory lock) public payable {\n\t\tunlock_(lock, msg.sender, msg.value);\n\t}\n\n\t/**\n\t * @dev receive eth token\n\t */\n\treceive() external payable {\n\t\tif (!_IsDisableReceiveUnlock)\n\t\t\tunlock_(_lastLocked, msg.sender, msg.value); // unlock last locked\n\t}\n\n\t// --------------------------- test ---------------------------------\n\n\t// function unlock2(uint256 tokenId, address owner, address previous) public payable { // test\n\t// \tLockedID memory lock;\n\t// \tlock.tokenId = tokenId;\n\t// \tlock.owner = owner;\n\t// \tlock.previous = previous;\n\t// \tunlock_(lock, msg.sender, msg.value);\n\t// }\n\n\t// function unlockForOperator2(\n\t// \tuint256 tokenId, address owner, address previous,\n\t// \tPayType  payType,\n\t// \tuint256  payValue, // value\n\t// \taddress  payBank, // erc20 contract address\n\t// \taddress  payer   // opensea contract => sender\n\t// ) public payable _DisableReceiveUnlock { // test\n\t// \tif (_host.unlockOperator() != msg.sender) {\n\t// \t\trevert PermissionDeniedForOnlyUnlockOperator();\n\t// \t}\n\t// \tLockedID memory lock;\n\t// \tlock.tokenId = tokenId;\n\t// \tlock.owner = owner;\n\t// \tlock.previous = previous;\n\n\t// \tuint256 value = msg.value;\n\t// \tif (payType == PayType.kDefault) {\n\t// \t\tif (value < payValue) revert PayableInsufficientAmount();\n\t// \t\tvalue -= payValue;\n\t// \t\tunlock_(lock, payer, payValue);\n\t// \t} else {\n\t// \t\tIWETH(payBank).withdraw(payValue);\n\t// \t\tif (address(this).balance < payValue ) revert PayableInsufficientAmountWETH();\n\t// \t\tunlock_(lock, payer, payValue);\n\t// \t}\n\t// }\n\n\t// function testWithdraw(address payBank, uint256 payValue) public _DisableReceiveUnlock {\n\t// \tIWETH(payBank).withdraw(payValue);\n\t// }\n\n}\n",
  "sourcePath": "/Users/louis/Project/hc/NFTSwap/SmartHolder/contracts/AssetShell.sol",
  "compiler": {
    "name": "solc",
    "version": "0.8.17+commit.8df45f5f.Emscripten.clang"
  },
  "schemaVersion": "3.4.11",
  "updatedAt": "2023-05-17T09:37:53.297Z",
  "networkType": "ethereum",
  "devdoc": {
    "kind": "dev",
    "methods": {
      "assetMeta(uint256)": {
        "details": "assetMeta(tokenId) Returns the asset meta data of this tokenId"
      },
      "balanceOf(address,uint256)": {
        "details": "See {IERC1155-balanceOf}. Requirements: - `account` cannot be the zero address."
      },
      "balanceOfBatch(address[],uint256[])": {
        "details": "See {IERC1155-balanceOfBatch}. Requirements: - `accounts` and `ids` must have the same length."
      },
      "convertTokenID(address,uint256)": {
        "details": "convertTokenID() convert meta token and token id to token id"
      },
      "exists(uint256)": {
        "details": "Indicates whether any token exist with a given id, or not."
      },
      "isApprovedForAll(address,address)": {
        "details": "See {IERC1155-isApprovedForAll}."
      },
      "lockedAt(uint256,address,uint256)": {
        "details": "Returns the owner token locked count for index"
      },
      "lockedItems(uint256,address)": {
        "details": "Returns the owner token locked total count and locked items length"
      },
      "lockedOf(uint256,address,address)": {
        "details": "Returns the owner token locked count and previous owner address"
      },
      "minimumPrice(uint256)": {
        "details": "minimumPrice(tokenId) Returns the minimum price of this tokenId asset"
      },
      "name()": {
        "details": "Gets the token name.",
        "returns": {
          "_0": "string representing the token name"
        }
      },
      "onERC1155BatchReceived(address,address,uint256[],uint256[],bytes)": {
        "details": "Handles the receipt of a multiple ERC1155 token types. This function is called at the end of a `safeBatchTransferFrom` after the balances have been updated. NOTE: To accept the transfer(s), this must return `bytes4(keccak256(\"onERC1155BatchReceived(address,address,uint256[],uint256[],bytes)\"))` (i.e. 0xbc197c81, or its own function selector).",
        "params": {
          "data": "Additional data with no specified format",
          "from": "The address which previously owned the token",
          "ids": "An array containing ids of each token being transferred (order and length must match values array)",
          "operator": "The address which initiated the batch transfer (i.e. msg.sender)",
          "values": "An array containing amounts of each token being transferred (order and length must match ids array)"
        },
        "returns": {
          "_0": "`bytes4(keccak256(\"onERC1155BatchReceived(address,address,uint256[],uint256[],bytes)\"))` if transfer is allowed"
        }
      },
      "safeBatchTransferFrom(address,address,uint256[],uint256[],bytes)": {
        "details": "See {IERC1155-safeBatchTransferFrom}."
      },
      "safeTransferFrom(address,address,uint256,uint256,bytes)": {
        "details": "See {IERC1155-safeTransferFrom}."
      },
      "setApprovalForAll(address,bool)": {
        "details": "See {IERC1155-setApprovalForAll}."
      },
      "totalSupply(uint256)": {
        "details": "Total amount of tokens in with a given id."
      },
      "unlockForOperator(((uint256,address,address),uint256,address,address)[])": {
        "details": "unlockForOperator()"
      },
      "uri(uint256)": {
        "details": "overwrite"
      },
      "withdraw(uint256,address,uint256)": {
        "details": "withdraw() withdraw and unlock meta asset"
      }
    },
    "version": 1
  },
  "userdoc": {
    "kind": "user",
    "methods": {},
    "version": 1
  }
}