{
  "contractName": "AssetShell",
  "abi": [
    {
      "inputs": [],
      "name": "AddressEmpty",
      "type": "error"
    },
    {
      "inputs": [],
      "name": "ApprovalToOwnerInERC721",
      "type": "error"
    },
    {
      "inputs": [],
      "name": "ApproveAllToCallerInERC721",
      "type": "error"
    },
    {
      "inputs": [],
      "name": "AssetNonExistsInAssetShell",
      "type": "error"
    },
    {
      "inputs": [
        {
          "internalType": "bytes4",
          "name": "interfaceId",
          "type": "bytes4"
        }
      ],
      "name": "CheckInterfaceNoMatch",
      "type": "error"
    },
    {
      "inputs": [],
      "name": "LockTokenIDEmptyInAssetShell",
      "type": "error"
    },
    {
      "inputs": [],
      "name": "NeedToUnlockAssetFirst",
      "type": "error"
    },
    {
      "inputs": [],
      "name": "NonContractAddress",
      "type": "error"
    },
    {
      "inputs": [],
      "name": "NonERC721ReceiverImplementer",
      "type": "error"
    },
    {
      "inputs": [],
      "name": "PayableAmountZero",
      "type": "error"
    },
    {
      "inputs": [],
      "name": "PayableInsufficientAmount",
      "type": "error"
    },
    {
      "inputs": [],
      "name": "PermissionDenied",
      "type": "error"
    },
    {
      "inputs": [],
      "name": "PermissionDeniedForOnlyDAO",
      "type": "error"
    },
    {
      "inputs": [],
      "name": "PermissionDeniedInERC721",
      "type": "error"
    },
    {
      "inputs": [],
      "name": "TokenIDAlreadyMintedInERC721",
      "type": "error"
    },
    {
      "inputs": [],
      "name": "TokenIDEmpty",
      "type": "error"
    },
    {
      "inputs": [],
      "name": "TokenIDNonExistentInERC721",
      "type": "error"
    },
    {
      "inputs": [],
      "name": "TransferOfTokenIDThatIsNotOwnInERC721",
      "type": "error"
    },
    {
      "anonymous": false,
      "inputs": [
        {
          "indexed": true,
          "internalType": "address",
          "name": "owner",
          "type": "address"
        },
        {
          "indexed": true,
          "internalType": "address",
          "name": "approved",
          "type": "address"
        },
        {
          "indexed": true,
          "internalType": "uint256",
          "name": "tokenId",
          "type": "uint256"
        }
      ],
      "name": "Approval",
      "type": "event"
    },
    {
      "anonymous": false,
      "inputs": [
        {
          "indexed": true,
          "internalType": "address",
          "name": "owner",
          "type": "address"
        },
        {
          "indexed": true,
          "internalType": "address",
          "name": "operator",
          "type": "address"
        },
        {
          "indexed": false,
          "internalType": "bool",
          "name": "approved",
          "type": "bool"
        }
      ],
      "name": "ApprovalForAll",
      "type": "event"
    },
    {
      "anonymous": false,
      "inputs": [
        {
          "indexed": true,
          "internalType": "uint256",
          "name": "tag",
          "type": "uint256"
        },
        {
          "indexed": false,
          "internalType": "uint256",
          "name": "value",
          "type": "uint256"
        }
      ],
      "name": "Change",
      "type": "event"
    },
    {
      "anonymous": false,
      "inputs": [
        {
          "indexed": false,
          "internalType": "uint8",
          "name": "version",
          "type": "uint8"
        }
      ],
      "name": "Initialized",
      "type": "event"
    },
    {
      "anonymous": false,
      "inputs": [
        {
          "indexed": true,
          "internalType": "address",
          "name": "from",
          "type": "address"
        },
        {
          "indexed": true,
          "internalType": "address",
          "name": "to",
          "type": "address"
        },
        {
          "indexed": true,
          "internalType": "uint256",
          "name": "tokenId",
          "type": "uint256"
        }
      ],
      "name": "Transfer",
      "type": "event"
    },
    {
      "inputs": [
        {
          "internalType": "address",
          "name": "to",
          "type": "address"
        },
        {
          "internalType": "uint256",
          "name": "tokenId",
          "type": "uint256"
        }
      ],
      "name": "approve",
      "outputs": [],
      "stateMutability": "nonpayable",
      "type": "function"
    },
    {
      "inputs": [
        {
          "internalType": "address",
          "name": "owner",
          "type": "address"
        }
      ],
      "name": "balanceOf",
      "outputs": [
        {
          "internalType": "uint256",
          "name": "",
          "type": "uint256"
        }
      ],
      "stateMutability": "view",
      "type": "function"
    },
    {
      "inputs": [],
      "name": "baseURI",
      "outputs": [
        {
          "internalType": "string",
          "name": "",
          "type": "string"
        }
      ],
      "stateMutability": "view",
      "type": "function"
    },
    {
      "inputs": [
        {
          "internalType": "bytes4",
          "name": "interfaceId",
          "type": "bytes4"
        }
      ],
      "name": "checkInterface",
      "outputs": [],
      "stateMutability": "view",
      "type": "function"
    },
    {
      "inputs": [],
      "name": "contractURI",
      "outputs": [
        {
          "internalType": "string",
          "name": "uri",
          "type": "string"
        }
      ],
      "stateMutability": "view",
      "type": "function"
    },
    {
      "inputs": [],
      "name": "contractURIPrefix",
      "outputs": [
        {
          "internalType": "string",
          "name": "",
          "type": "string"
        }
      ],
      "stateMutability": "view",
      "type": "function"
    },
    {
      "inputs": [],
      "name": "description",
      "outputs": [
        {
          "internalType": "string",
          "name": "",
          "type": "string"
        }
      ],
      "stateMutability": "view",
      "type": "function"
    },
    {
      "inputs": [
        {
          "internalType": "uint256",
          "name": "id",
          "type": "uint256"
        }
      ],
      "name": "exists",
      "outputs": [
        {
          "internalType": "bool",
          "name": "",
          "type": "bool"
        }
      ],
      "stateMutability": "view",
      "type": "function"
    },
    {
      "inputs": [],
      "name": "external_link",
      "outputs": [
        {
          "internalType": "string",
          "name": "",
          "type": "string"
        }
      ],
      "stateMutability": "view",
      "type": "function"
    },
    {
      "inputs": [],
      "name": "fee_recipient",
      "outputs": [
        {
          "internalType": "address",
          "name": "",
          "type": "address"
        }
      ],
      "stateMutability": "view",
      "type": "function"
    },
    {
      "inputs": [
        {
          "internalType": "uint256",
          "name": "tokenId",
          "type": "uint256"
        }
      ],
      "name": "getApproved",
      "outputs": [
        {
          "internalType": "address",
          "name": "",
          "type": "address"
        }
      ],
      "stateMutability": "view",
      "type": "function"
    },
    {
      "inputs": [],
      "name": "host",
      "outputs": [
        {
          "internalType": "contract IDAO",
          "name": "",
          "type": "address"
        }
      ],
      "stateMutability": "view",
      "type": "function"
    },
    {
      "inputs": [],
      "name": "image",
      "outputs": [
        {
          "internalType": "string",
          "name": "",
          "type": "string"
        }
      ],
      "stateMutability": "view",
      "type": "function"
    },
    {
      "inputs": [],
      "name": "impl",
      "outputs": [
        {
          "internalType": "address",
          "name": "",
          "type": "address"
        }
      ],
      "stateMutability": "view",
      "type": "function"
    },
    {
      "inputs": [
        {
          "internalType": "address",
          "name": "owner",
          "type": "address"
        },
        {
          "internalType": "address",
          "name": "operator",
          "type": "address"
        }
      ],
      "name": "isApprovedForAll",
      "outputs": [
        {
          "internalType": "bool",
          "name": "",
          "type": "bool"
        }
      ],
      "stateMutability": "view",
      "type": "function"
    },
    {
      "inputs": [],
      "name": "name",
      "outputs": [
        {
          "internalType": "string",
          "name": "",
          "type": "string"
        }
      ],
      "stateMutability": "view",
      "type": "function"
    },
    {
      "inputs": [],
      "name": "operator",
      "outputs": [
        {
          "internalType": "address",
          "name": "",
          "type": "address"
        }
      ],
      "stateMutability": "view",
      "type": "function"
    },
    {
      "inputs": [
        {
          "internalType": "uint256",
          "name": "tokenId",
          "type": "uint256"
        }
      ],
      "name": "ownerOf",
      "outputs": [
        {
          "internalType": "address",
          "name": "owner",
          "type": "address"
        }
      ],
      "stateMutability": "view",
      "type": "function"
    },
    {
      "inputs": [
        {
          "internalType": "address",
          "name": "from",
          "type": "address"
        },
        {
          "internalType": "address",
          "name": "to",
          "type": "address"
        },
        {
          "internalType": "uint256",
          "name": "tokenId",
          "type": "uint256"
        }
      ],
      "name": "safeTransferFrom",
      "outputs": [],
      "stateMutability": "nonpayable",
      "type": "function"
    },
    {
      "inputs": [
        {
          "internalType": "address",
          "name": "from",
          "type": "address"
        },
        {
          "internalType": "address",
          "name": "to",
          "type": "address"
        },
        {
          "internalType": "uint256",
          "name": "tokenId",
          "type": "uint256"
        },
        {
          "internalType": "bytes",
          "name": "_data",
          "type": "bytes"
        }
      ],
      "name": "safeTransferFrom",
      "outputs": [],
      "stateMutability": "nonpayable",
      "type": "function"
    },
    {
      "inputs": [],
      "name": "saleType",
      "outputs": [
        {
          "internalType": "enum IAssetShell.SaleType",
          "name": "",
          "type": "uint8"
        }
      ],
      "stateMutability": "view",
      "type": "function"
    },
    {
      "inputs": [],
      "name": "seller_fee_basis_points",
      "outputs": [
        {
          "internalType": "uint32",
          "name": "",
          "type": "uint32"
        }
      ],
      "stateMutability": "view",
      "type": "function"
    },
    {
      "inputs": [
        {
          "internalType": "address",
          "name": "operator",
          "type": "address"
        },
        {
          "internalType": "bool",
          "name": "approved",
          "type": "bool"
        }
      ],
      "name": "setApprovalForAll",
      "outputs": [],
      "stateMutability": "nonpayable",
      "type": "function"
    },
    {
      "inputs": [
        {
          "internalType": "string",
          "name": "value",
          "type": "string"
        }
      ],
      "name": "setDescription",
      "outputs": [],
      "stateMutability": "nonpayable",
      "type": "function"
    },
    {
      "inputs": [
        {
          "internalType": "address",
          "name": "operator",
          "type": "address"
        }
      ],
      "name": "setOperator",
      "outputs": [],
      "stateMutability": "nonpayable",
      "type": "function"
    },
    {
      "inputs": [
        {
          "internalType": "address",
          "name": "recipient",
          "type": "address"
        }
      ],
      "name": "set_fee_recipient",
      "outputs": [],
      "stateMutability": "nonpayable",
      "type": "function"
    },
    {
      "inputs": [
        {
          "internalType": "uint32",
          "name": "value",
          "type": "uint32"
        }
      ],
      "name": "set_seller_fee_basis_points",
      "outputs": [],
      "stateMutability": "nonpayable",
      "type": "function"
    },
    {
      "inputs": [
        {
          "internalType": "bytes4",
          "name": "interfaceId",
          "type": "bytes4"
        }
      ],
      "name": "supportsInterface",
      "outputs": [
        {
          "internalType": "bool",
          "name": "",
          "type": "bool"
        }
      ],
      "stateMutability": "view",
      "type": "function"
    },
    {
      "inputs": [],
      "name": "symbol",
      "outputs": [
        {
          "internalType": "string",
          "name": "",
          "type": "string"
        }
      ],
      "stateMutability": "view",
      "type": "function"
    },
    {
      "inputs": [
        {
          "internalType": "uint256",
          "name": "index",
          "type": "uint256"
        }
      ],
      "name": "tokenByIndex",
      "outputs": [
        {
          "internalType": "uint256",
          "name": "",
          "type": "uint256"
        }
      ],
      "stateMutability": "view",
      "type": "function"
    },
    {
      "inputs": [
        {
          "internalType": "address",
          "name": "owner",
          "type": "address"
        },
        {
          "internalType": "uint256",
          "name": "index",
          "type": "uint256"
        }
      ],
      "name": "tokenOfOwnerByIndex",
      "outputs": [
        {
          "internalType": "uint256",
          "name": "",
          "type": "uint256"
        }
      ],
      "stateMutability": "view",
      "type": "function"
    },
    {
      "inputs": [
        {
          "internalType": "uint256",
          "name": "tokenId",
          "type": "uint256"
        }
      ],
      "name": "tokenURI",
      "outputs": [
        {
          "internalType": "string",
          "name": "",
          "type": "string"
        }
      ],
      "stateMutability": "view",
      "type": "function"
    },
    {
      "inputs": [],
      "name": "totalSupply",
      "outputs": [
        {
          "internalType": "uint256",
          "name": "",
          "type": "uint256"
        }
      ],
      "stateMutability": "view",
      "type": "function"
    },
    {
      "inputs": [
        {
          "internalType": "address",
          "name": "from",
          "type": "address"
        },
        {
          "internalType": "address",
          "name": "to",
          "type": "address"
        },
        {
          "internalType": "uint256",
          "name": "tokenId",
          "type": "uint256"
        }
      ],
      "name": "transferFrom",
      "outputs": [],
      "stateMutability": "nonpayable",
      "type": "function"
    },
    {
      "inputs": [
        {
          "internalType": "address",
          "name": "impl",
          "type": "address"
        }
      ],
      "name": "upgrade",
      "outputs": [],
      "stateMutability": "nonpayable",
      "type": "function"
    },
    {
      "stateMutability": "payable",
      "type": "receive"
    },
    {
      "inputs": [
        {
          "internalType": "address",
          "name": "host",
          "type": "address"
        },
        {
          "internalType": "address",
          "name": "operator",
          "type": "address"
        },
        {
          "internalType": "enum IAssetShell.SaleType",
          "name": "_saleType",
          "type": "uint8"
        },
        {
          "components": [
            {
              "internalType": "string",
              "name": "name",
              "type": "string"
            },
            {
              "internalType": "string",
              "name": "description",
              "type": "string"
            },
            {
              "internalType": "string",
              "name": "image",
              "type": "string"
            },
            {
              "internalType": "string",
              "name": "external_link",
              "type": "string"
            },
            {
              "internalType": "uint32",
              "name": "seller_fee_basis_points",
              "type": "uint32"
            },
            {
              "internalType": "address",
              "name": "fee_recipient",
              "type": "address"
            },
            {
              "internalType": "string",
              "name": "contractURIPrefix",
              "type": "string"
            }
          ],
          "internalType": "struct AssetBase.InitContractURI",
          "name": "uri",
          "type": "tuple"
        }
      ],
      "name": "initAssetShell",
      "outputs": [],
      "stateMutability": "nonpayable",
      "type": "function"
    },
    {
      "inputs": [
        {
          "internalType": "address",
          "name": "operator",
          "type": "address"
        },
        {
          "internalType": "address",
          "name": "from",
          "type": "address"
        },
        {
          "internalType": "uint256",
          "name": "tokenId",
          "type": "uint256"
        },
        {
          "internalType": "bytes",
          "name": "data",
          "type": "bytes"
        }
      ],
      "name": "onERC721Received",
      "outputs": [
        {
          "internalType": "bytes4",
          "name": "",
          "type": "bytes4"
        }
      ],
      "stateMutability": "nonpayable",
      "type": "function"
    },
    {
      "inputs": [
        {
          "internalType": "address",
          "name": "metaToken",
          "type": "address"
        },
        {
          "internalType": "uint256",
          "name": "metaTokenId",
          "type": "uint256"
        }
      ],
      "name": "convertTokenID",
      "outputs": [
        {
          "internalType": "uint256",
          "name": "",
          "type": "uint256"
        }
      ],
      "stateMutability": "pure",
      "type": "function"
    },
    {
      "inputs": [
        {
          "internalType": "uint256",
          "name": "tokenId",
          "type": "uint256"
        }
      ],
      "name": "assetMeta",
      "outputs": [
        {
          "components": [
            {
              "internalType": "address",
              "name": "token",
              "type": "address"
            },
            {
              "internalType": "uint256",
              "name": "tokenId",
              "type": "uint256"
            }
          ],
          "internalType": "struct IAssetShell.AssetID",
          "name": "meta",
          "type": "tuple"
        }
      ],
      "stateMutability": "view",
      "type": "function"
    },
    {
      "inputs": [
        {
          "internalType": "uint256",
          "name": "tokenId",
          "type": "uint256"
        }
      ],
      "name": "withdraw",
      "outputs": [],
      "stateMutability": "nonpayable",
      "type": "function"
    },
    {
      "inputs": [
        {
          "internalType": "uint256",
          "name": "tokenId",
          "type": "uint256"
        }
      ],
      "name": "isLocked",
      "outputs": [
        {
          "internalType": "bool",
          "name": "",
          "type": "bool"
        }
      ],
      "stateMutability": "view",
      "type": "function"
    },
    {
      "inputs": [
        {
          "internalType": "uint256",
          "name": "tokenId",
          "type": "uint256"
        }
      ],
      "name": "minimumPrice",
      "outputs": [
        {
          "internalType": "uint256",
          "name": "",
          "type": "uint256"
        }
      ],
      "stateMutability": "view",
      "type": "function"
    },
    {
      "inputs": [
        {
          "internalType": "uint256",
          "name": "tokenId",
          "type": "uint256"
        }
      ],
      "name": "unlock",
      "outputs": [],
      "stateMutability": "payable",
      "type": "function"
    }
  ],
  "bytecode": "0x608060405234801561001057600080fd5b506137fe806100206000396000f3fe6080604052600436106102605760003560e01c806370a0823111610144578063a22cb465116100b6578063e985e9c51161007a578063e985e9c51461077a578063f2d8d1b8146107c3578063f3ccaac0146107d8578063f437bc59146107ed578063f6aacfb11461080b578063f9b62b7a1461084657600080fd5b8063a22cb465146106e5578063b3ab15fb14610705578063b88d4fde14610725578063c87b56dd14610745578063e8a3d4851461076557600080fd5b80638abf6077116101085780638abf60771461063257806390c3f38f1461065057806391d818891461067057806391eb3dee1461069057806395d89b41146106b05780639837f5c2146106c557600080fd5b806370a082311461058f57806371fcf468146105af5780637284e416146105e8578063758f969a146105fd5780637972bdf31461061d57600080fd5b806330cc317b116101dd578063570ca735116101a1578063570ca735146104d25780635bcc7928146104f05780636198e3391461051757806362f8a8551461052a5780636352211e1461055a5780636c0360eb1461057a57600080fd5b806330cc317b1461043257806342842e0e146104525780634c6e425b146104725780634f558e79146104925780634f6ccce7146104b257600080fd5b8063150b7a0211610224578063150b7a021461037657806318160ddd146103af57806323b872dd146103d25780632e1a7d4d146103f25780632f745c591461041257600080fd5b806301ffc9a71461027757806306fdde03146102c6578063081812fc146102e85780630900f01014610336578063095ea7b31461035657600080fd5b3661027257610270601c5461088a565b005b600080fd5b34801561028357600080fd5b506102b1610292366004612c9b565b6001600160e01b03191660009081526001602052604090205460ff1690565b60405190151581526020015b60405180910390f35b3480156102d257600080fd5b506102db610b3d565b6040516102bd9190612d08565b3480156102f457600080fd5b5061031e610303366004612d1b565b6000908152601160205260409020546001600160a01b031690565b6040516001600160a01b0390911681526020016102bd565b34801561034257600080fd5b50610270610351366004612d54565b610bcf565b34801561036257600080fd5b50610270610371366004612d71565b610c3a565b34801561038257600080fd5b50610396610391366004612e73565b610cc6565b6040516001600160e01b031990911681526020016102bd565b3480156103bb57600080fd5b506103c4610dbd565b6040519081526020016102bd565b3480156103de57600080fd5b506102706103ed366004612ef3565b610dce565b3480156103fe57600080fd5b5061027061040d366004612d1b565b610e2b565b34801561041e57600080fd5b506103c461042d366004612d71565b610f99565b34801561043e57600080fd5b5061027061044d366004612d54565b610fc4565b34801561045e57600080fd5b5061027061046d366004612ef3565b611028565b34801561047e57600080fd5b5061027061048d366004612c9b565b611043565b34801561049e57600080fd5b506102b16104ad366004612d1b565b61108c565b3480156104be57600080fd5b506103c46104cd366004612d1b565b611097565b3480156104de57600080fd5b506003546001600160a01b031661031e565b3480156104fc57600080fd5b50601d5461050a9060ff1681565b6040516102bd9190612f6c565b610270610525366004612d1b565b61088a565b34801561053657600080fd5b506103c4610545366004612d1b565b6000908152601b602052604090206002015490565b34801561056657600080fd5b5061031e610575366004612d1b565b6110ad565b34801561058657600080fd5b506102db6110e3565b34801561059b57600080fd5b506103c46105aa366004612d54565b6110f2565b3480156105bb57600080fd5b506019546105d390600160a01b900463ffffffff1681565b60405163ffffffff90911681526020016102bd565b3480156105f457600080fd5b506102db611113565b34801561060957600080fd5b5060195461031e906001600160a01b031681565b34801561062957600080fd5b506102db611122565b34801561063e57600080fd5b506000546001600160a01b031661031e565b34801561065c57600080fd5b5061027061066b366004612f9a565b6111b0565b34801561067c57600080fd5b506103c461068b366004612d71565b611301565b34801561069c57600080fd5b506102706106ab366004612fe3565b611349565b3480156106bc57600080fd5b506102db6114a4565b3480156106d157600080fd5b506102706106e0366004612ffe565b6114b3565b3480156106f157600080fd5b50610270610700366004613167565b611508565b34801561071157600080fd5b50610270610720366004612d54565b61159d565b34801561073157600080fd5b50610270610740366004612e73565b611601565b34801561075157600080fd5b506102db610760366004612d1b565b61163a565b34801561077157600080fd5b506102db611645565b34801561078657600080fd5b506102b16107953660046131a0565b6001600160a01b03918216600090815260126020908152604080832093909416825291909152205460ff1690565b3480156107cf57600080fd5b506102db611848565b3480156107e457600080fd5b506102db611855565b3480156107f957600080fd5b506002546001600160a01b031661031e565b34801561081757600080fd5b506102b1610826366004612d1b565b6000908152601b60205260409020600301546001600160a01b0316151590565b34801561085257600080fd5b50610866610861366004612d1b565b611862565b6040805182516001600160a01b0316815260209283015192810192909252016102bd565b806000036108ab5760405163129cd35f60e31b815260040160405180910390fd5b346000036108cc576040516310696f5760e21b815260040160405180910390fd5b6000818152601b6020526040902060038101546001600160a01b0316610905576040516321c67f4960e01b815260040160405180910390fd5b6000610910836110ad565b601954909150600090600160a01b900463ffffffff16610932346127106131e4565b61093c91906131fb565b9050826002015481101561096357604051630b7b66df60e31b815260040160405180910390fd5b600254604080516356397c3560e01b8152905185926001600160a01b0316916356397c359160048083019260209291908290030181865afa1580156109ac573d6000803e3d6000fd5b505050506040513d601f19601f820116820180604052508101906109d0919061321d565b81546001830154601d5460405163644c788b60e11b81526001600160a01b039485169463c898f116943494610a1694919092169233918b918b9160ff169060040161323a565b6000604051808303818588803b158015610a2f57600080fd5b505af1158015610a43573d6000803e3d6000fd5b505050505084601c5403610a57576000601c555b6003840180546001600160a01b03191690556001601d5460ff166002811115610a8257610a82612f34565b03610b36576002840154604080516001600160a01b03861660208201529081019190915260009060600160408051808303601f1901815290829052600254632187baed60e11b835260056004840152909250610b349188916001600160a01b03169063430f75da90602401602060405180830381865afa158015610b0a573d6000803e3d6000fd5b505050506040513d601f19601f82011682018060405250810190610b2e919061321d565b836118c7565b505b5050505050565b606060138054610b4c90613280565b80601f0160208091040260200160405190810160405280929190818152602001828054610b7890613280565b8015610bc55780601f10610b9a57610100808354040283529160200191610bc5565b820191906000526020600020905b815481529060010190602001808311610ba857829003601f168201915b5050505050905090565b610bd7611982565b610bf457604051631b4004a360e31b815260040160405180910390fd5b600080546001600160a01b0319166001600160a01b0383169081179091556040519081526003906000805160206137a9833981519152906020015b60405180910390a250565b6000610c45826110ad565b9050806001600160a01b0316836001600160a01b031603610c79576040516365f090f760e01b815260040160405180910390fd5b336001600160a01b03821614801590610c995750610c978133610795565b155b15610cb75760405163d3a3274560e01b815260040160405180910390fd5b610cc18383611ac1565b505050565b600080610cd233611b2f565b90506000610ce08286611301565b6000818152601b6020908152604082208751939450928291610d0891890181019089016132b4565b845491935091506001600160a01b031615610d445760405162461bcd60e51b815260206004820152600060248201526044015b60405180910390fd5b306001600160a01b038a1603610d765760405162461bcd60e51b81526020600482015260006024820152604401610d3b565b82546001600160a01b0319166001600160a01b0386161783556001830188905560028301819055610da78285611bf2565b50630a85bd0160e11b9998505050505050505050565b6000610dc9600e611cb6565b905090565b610dd83382611cc1565b610df55760405163d3a3274560e01b815260040160405180910390fd5b610e1083838360405180602001604052806000815250611d67565b610cc183838360405180602001604052806000815250611e6d565b632e1a7d4d610e38611982565b610f4157600260009054906101000a90046001600160a01b03166001600160a01b031663e3f6b5446040518163ffffffff1660e01b8152600401602060405180830381865afa158015610e8f573d6000803e3d6000fd5b505050506040513d601f19601f82011682018060405250810190610eb3919061321d565b60405163a8a555c560e01b8152336004820152602481018390526001600160a01b03919091169063a8a555c590604401602060405180830381865afa158015610f00573d6000803e3d6000fd5b505050506040513d601f19601f82011682018060405250810190610f2491906132e2565b610f4157604051630782484160e21b815260040160405180910390fd5b6000828152601b6020526040902080546001600160a01b0316610f7757604051632a563a4960e11b815260040160405180910390fd5b610cc183610f84856110ad565b604051806020016040528060008152506118c7565b6001600160a01b0382166000908152600d60205260408120610fbb9083611f0c565b90505b92915050565b610fcc611982565b610fe957604051631b4004a360e31b815260040160405180910390fd5b601980546001600160a01b0319166001600160a01b0383169081179091556040519081526007906000805160206137a983398151915290602001610c2f565b610cc183838360405180602001604052806000815250611601565b6001600160e01b0319811660009081526001602052604090205460ff1661108957604051632aae78ef60e01b81526001600160e01b031982166004820152602401610d3b565b50565b6000610fbe82611f18565b6000806110a5600e84611f25565b509392505050565b6000806110bb600e84611f43565b92509050806110dd57604051635449cd4560e01b815260040160405180910390fd5b50919050565b606060168054610b4c90613280565b6001600160a01b0381166000908152600d60205260408120610fbe90611f52565b606060048054610b4c90613280565b6018805461112f90613280565b80601f016020809104026020016040519081016040528092919081815260200182805461115b90613280565b80156111a85780601f1061117d576101008083540402835291602001916111a8565b820191906000526020600020905b81548152906001019060200180831161118b57829003601f168201915b505050505081565b63d0a4ad966111bd611982565b6112c657600260009054906101000a90046001600160a01b03166001600160a01b031663e3f6b5446040518163ffffffff1660e01b8152600401602060405180830381865afa158015611214573d6000803e3d6000fd5b505050506040513d601f19601f82011682018060405250810190611238919061321d565b60405163a8a555c560e01b8152336004820152602481018390526001600160a01b03919091169063a8a555c590604401602060405180830381865afa158015611285573d6000803e3d6000fd5b505050506040513d601f19601f820116820180604052508101906112a991906132e2565b6112c657604051630782484160e21b815260040160405180910390fd5b60046112d28382613345565b5060016000805160206137a983398151915260006040516112f591815260200190565b60405180910390a25050565b6040516bffffffffffffffffffffffff19606084901b1660208201526034810182905260009060540160408051601f1981840301815291905280516020909101209392505050565b6391eb3dee611356611982565b61145f57600260009054906101000a90046001600160a01b03166001600160a01b031663e3f6b5446040518163ffffffff1660e01b8152600401602060405180830381865afa1580156113ad573d6000803e3d6000fd5b505050506040513d601f19601f820116820180604052508101906113d1919061321d565b60405163a8a555c560e01b8152336004820152602481018390526001600160a01b03919091169063a8a555c590604401602060405180830381865afa15801561141e573d6000803e3d6000fd5b505050506040513d601f19601f8201168201806040525081019061144291906132e2565b61145f57604051630782484160e21b815260040160405180910390fd5b6019805463ffffffff60a01b1916600160a01b63ffffffff8516908102919091179091556040519081526006906000805160206137a9833981519152906020016112f5565b606060148054610b4c90613280565b6114be848483611f5c565b6114ce6343234e9560e01b612005565b6114de630a85bd0160e11b612005565b601d805483919060ff191660018360028111156114fd576114fd612f34565b021790555050505050565b336001600160a01b038316036115315760405163064256a360e21b815260040160405180910390fd5b3360008181526012602090815260408083206001600160a01b03871680855290835292819020805460ff191686151590811790915590519081529192917f17307eab39ab6107e8899845ad3d59bd9653f200f220920489ca2b5937696c31910160405180910390a35050565b6115a5611982565b6115c257604051631b4004a360e31b815260040160405180910390fd5b600380546001600160a01b0319166001600160a01b0383169081179091556040519081526002906000805160206137a983398151915290602001610c2f565b61160b3383611cc1565b6116285760405163d3a3274560e01b815260040160405180910390fd5b6116348484848461200e565b50505050565b6060610fbe82612032565b60606000611659611654610b3d565b6120bd565b6040516020016116699190613421565b6040516020818303038152906040529050600061170f6004805461168c90613280565b80601f01602080910402602001604051908101604052809291908181526020018280546116b890613280565b80156117055780601f106116da57610100808354040283529160200191611705565b820191906000526020600020905b8154815290600101906020018083116116e857829003601f168201915b50505050506120bd565b60405160200161171f9190613452565b604051602081830303815290604052905060006117426017805461168c90613280565b604051602001611752919061348a565b604051602081830303815290604052905060006117756018805461168c90613280565b60405160200161178591906134bc565b60408051808303601f190181529190526019549091506000906117b490600160a01b900463ffffffff16612216565b6040516020016117c491906134f6565b60408051601f198184030181529190526019549091506000906117ef906001600160a01b03166122a9565b6040516020016117ff919061353b565b6040516020818303038152906040529050601a86868686868660405160200161182e9796959493929190613572565b604051602081830303815290604052965050505050505090565b601a805461112f90613280565b6017805461112f90613280565b60408051808201825260008082526020918201819052838152601b8252829020825180840190935280546001600160a01b0316808452600190910154918301919091526118c257604051632a563a4960e11b815260040160405180910390fd5b919050565b6000838152601b602052604090819020805460018201549251635c46a7ef60e11b815291926001600160a01b039091169163b88d4fde9161191091309188918890600401613639565b600060405180830381600087803b15801561192a57600080fd5b505af115801561193e573d6000803e3d6000fd5b5050506000858152601b6020526040812080546001600160a01b031990811682556001820183905560028201929092556003018054909116905550611634846122bf565b60035460009033906001600160a01b03168114611ab957600260009054906101000a90046001600160a01b03166001600160a01b031663570ca7356040518163ffffffff1660e01b8152600401602060405180830381865afa1580156119ec573d6000803e3d6000fd5b505050506040513d601f19601f82011682018060405250810190611a10919061321d565b6001600160a01b0316816001600160a01b031614611ab957600260009054906101000a90046001600160a01b03166001600160a01b031663ebf0c7176040518163ffffffff1660e01b8152600401602060405180830381865afa158015611a7b573d6000803e3d6000fd5b505050506040513d601f19601f82011682018060405250810190611a9f919061321d565b6001600160a01b0316816001600160a01b03161491505090565b600191505090565b600081815260116020526040902080546001600160a01b0319166001600160a01b0384169081179091558190611af6826110ad565b6001600160a01b03167f8c5be1e5ebec7d5bd14f71427d1e84f3dd0314c0f7b2291e5b200ac8c7c3b92560405160405180910390a45050565b60006001600160a01b0382163b611b5957604051634aa4cf5160e01b815260040160405180910390fd5b6040516301ffc9a760e01b81526380ac58cd60e01b60048201526001600160a01b038316906301ffc9a790602401602060405180830381865afa158015611ba4573d6000803e3d6000fd5b505050506040513d601f19601f82011682018060405250810190611bc891906132e2565b611bee57604051632aae78ef60e01b81526380ac58cd60e01b6004820152602401610d3b565b5090565b611bfb81611f18565b15611c195760405163082c3a4f60e01b815260040160405180910390fd5b6001600160a01b038216611c4057604051635bb7a72360e01b815260040160405180910390fd5b60408051602080820183526000918290526001600160a01b0385168252600d905220611c6c9082612388565b50611c79600e8284612394565b5060405181906001600160a01b038416906000907fddf252ad1be2c89b69c2b068fc378daa952ba7f163c4a11628f55a4df523b3ef908290a45050565b6000610fbe826123aa565b6000611ccc82611f18565b611ce957604051635449cd4560e01b815260040160405180910390fd5b6000611cf4836110ad565b9050806001600160a01b0316846001600160a01b03161480611d2f57506000838152601160205260409020546001600160a01b038581169116145b80611d5f57506001600160a01b0380821660009081526012602090815260408083209388168352929052205460ff165b949350505050565b836001600160a01b0316611d7a836110ad565b6001600160a01b031614611da157604051630898381960e11b815260040160405180910390fd5b6001600160a01b038316611dc857604051635bb7a72360e01b815260040160405180910390fd5b611dd3600083611ac1565b6001600160a01b0384166000908152600d60205260409020611df590836123b5565b506001600160a01b0383166000908152600d60205260409020611e189083612388565b50611e25600e8385612394565b5081836001600160a01b0316856001600160a01b03167fddf252ad1be2c89b69c2b068fc378daa952ba7f163c4a11628f55a4df523b3ef60405160405180910390a450505050565b6000828152601b6020526040902060038101546001600160a01b031615611ee35760038101546001600160a01b03163b15611ebb5760405163798efa8760e11b815260040160405180910390fd5b6001600160a01b0385163b611ee35760405163798efa8760e11b815260040160405180910390fd5b60030180546001600160a01b0319166001600160a01b039590951694909417909355601c555050565b6000610fbb83836123c1565b6000610fbe600e836123eb565b6000808080611f3486866123f7565b909450925050505b9250929050565b6000808080611f348686612422565b6000610fbe825490565b611f6b8382602001518461245c565b8051611f7790806124c0565b6040810151601790611f899082613345565b506060810151601890611f9c9082613345565b5060a08101516001600160a01b031615611fba578060a00151611fbc565b305b60198054608084015163ffffffff16600160a01b026001600160c01b03199091166001600160a01b03939093169290921791909117905560c0810151601a906116349082613345565b6110898161250e565b61201a84848484611d67565b61202684848484612590565b61163484848484611e6d565b6060600061203f83611862565b8051602082015160405163c87b56dd60e01b815260048101919091529192506001600160a01b03169063c87b56dd90602401600060405180830381865afa15801561208e573d6000803e3d6000fd5b505050506040513d6000823e601f3d908101601f191682016040526120b69190810190613676565b9392505050565b60606000825160026120cf91906131e4565b67ffffffffffffffff8111156120e7576120e7612d9d565b6040519080825280601f01601f191660200182016040528015612111576020820181803683370190505b50905060005b835181101561220f576000848281518110612134576121346136ed565b016020015160f881901c91506f181899199a1a9b1b9c1cb0b131b232b360811b9060fc1c60108110612168576121686136ed565b1a60f81b83600184901b81518110612182576121826136ed565b60200101906001600160f81b031916908160001a9053506f181899199a1a9b1b9c1cb0b131b232b360811b600f8216601081106121c1576121c16136ed565b1a60f81b836121d4600185811b90613703565b815181106121e4576121e46136ed565b60200101906001600160f81b031916908160001a90535050808061220790613716565b915050612117565b5092915050565b606060006122238361262f565b600101905060008167ffffffffffffffff81111561224357612243612d9d565b6040519080825280601f01601f19166020018201604052801561226d576020820181803683370190505b5090508181016020015b600019016f181899199a1a9b1b9c1cb0b131b232b360811b600a86061a8153600a850494508461227757509392505050565b6060610fbe6001600160a01b0383166014612707565b60006122ca826110ad565b60408051602081019091526000905290506122e6600083611ac1565b600082815260156020526040902080546122ff90613280565b15905061231d57600082815260156020526040812061231d91612c3b565b6001600160a01b0381166000908152600d6020526040902061233f90836123b5565b5061234b600e836128a3565b5060405182906000906001600160a01b038416907fddf252ad1be2c89b69c2b068fc378daa952ba7f163c4a11628f55a4df523b3ef908390a45050565b6000610fbb83836128af565b6000611d5f84846001600160a01b0385166128fe565b6000610fbe82611f52565b6000610fbb838361291b565b60008260000182815481106123d8576123d86136ed565b9060005260206000200154905092915050565b6000610fbb8383612a0e565b600080806124058585611f0c565b600081815260029690960160205260409095205494959350505050565b6000818152600283016020526040812054819080612451576124448585612a0e565b925060009150611f3c9050565b600192509050611f3c565b612464612a1a565b612474630d64f40d60e31b612005565b600280546001600160a01b0319166001600160a01b038516179055600461249b8382613345565b50600380546001600160a01b0319166001600160a01b03929092169190911790555050565b60136124cc8382613345565b5060146124d98282613345565b506124ea6380ac58cd60e01b612005565b6124fa635b5e139f60e01b612005565b61250a63780e9d6360e01b612005565b5050565b6001600160e01b031980821690036125685760405162461bcd60e51b815260206004820152601c60248201527f4552433136353a20696e76616c696420696e74657266616365206964000000006044820152606401610d3b565b6001600160e01b0319166000908152600160208190526040909120805460ff19169091179055565b6001600160a01b0383163b15611634576000630a85bd0160e11b338685856040516024016125c19493929190613639565b60408051601f198184030181529190526020810180516001600160e01b03166001600160e01b0319909316929092179091529050630a85bd0160e11b6126078583612b4d565b6001600160e01b03191614610b36576040516342eac10f60e11b815260040160405180910390fd5b60008072184f03e93ff9f4daa797ed6e38ed64bf6a1f0160401b831061266e5772184f03e93ff9f4daa797ed6e38ed64bf6a1f0160401b830492506040015b6d04ee2d6d415b85acef8100000000831061269a576d04ee2d6d415b85acef8100000000830492506020015b662386f26fc1000083106126b857662386f26fc10000830492506010015b6305f5e10083106126d0576305f5e100830492506008015b61271083106126e457612710830492506004015b606483106126f6576064830492506002015b600a8310610fbe5760010192915050565b606060006127168360026131e4565b612721906002613703565b67ffffffffffffffff81111561273957612739612d9d565b6040519080825280601f01601f191660200182016040528015612763576020820181803683370190505b509050600360fc1b8160008151811061277e5761277e6136ed565b60200101906001600160f81b031916908160001a905350600f60fb1b816001815181106127ad576127ad6136ed565b60200101906001600160f81b031916908160001a90535060006127d18460026131e4565b6127dc906001613703565b90505b6001811115612854576f181899199a1a9b1b9c1cb0b131b232b360811b85600f1660108110612810576128106136ed565b1a60f81b828281518110612826576128266136ed565b60200101906001600160f81b031916908160001a90535060049490941c9361284d8161372f565b90506127df565b508315610fbb5760405162461bcd60e51b815260206004820181905260248201527f537472696e67733a20686578206c656e67746820696e73756666696369656e746044820152606401610d3b565b6000610fbb8383612c06565b60008181526001830160205260408120546128f657508154600181810184556000848152602080822090930184905584548482528286019093526040902091909155610fbe565b506000610fbe565b60008281526002840160205260408120829055611d5f8484612388565b60008181526001830160205260408120548015612a0457600061293f600183613746565b855490915060009061295390600190613746565b90508181146129b8576000866000018281548110612973576129736136ed565b9060005260206000200154905080876000018481548110612996576129966136ed565b6000918252602080832090910192909255918252600188019052604090208390555b85548690806129c9576129c9613759565b600190038181906000526020600020016000905590558560010160008681526020019081526020016000206000905560019350505050610fbe565b6000915050610fbe565b6000610fbb8383612c23565b600054600160a81b900460ff1615808015612a4257506000546001600160a01b90910460ff16105b80612a635750303b158015612a635750600054600160a01b900460ff166001145b612ac65760405162461bcd60e51b815260206004820152602e60248201527f496e697469616c697a61626c653a20636f6e747261637420697320616c72656160448201526d191e481a5b9a5d1a585b1a5e995960921b6064820152608401610d3b565b6000805460ff60a01b1916600160a01b1790558015612af3576000805460ff60a81b1916600160a81b1790555b612b036301ffc9a760e01b612005565b8015611089576000805460ff60a81b19169055604051600181527f7f26b83ff96e1f2b6a682f133852f6798a09c465da95921460cefb38474024989060200160405180910390a150565b6000806000846001600160a01b031684604051612b6a919061376f565b6000604051808303816000865af19150503d8060008114612ba7576040519150601f19603f3d011682016040523d82523d6000602084013e612bac565b606091505b50915091508115612bd45780806020019051810190612bcb919061378b565b92505050610fbe565b805115612be45780518082602001fd5b60405162461bcd60e51b81526020600482015260006024820152604401610d3b565b60008181526002830160205260408120819055610fbb83836123b5565b60008181526001830160205260408120541515610fbb565b508054612c4790613280565b6000825580601f10612c57575050565b601f01602090049060005260206000209081019061108991905b80821115611bee5760008155600101612c71565b6001600160e01b03198116811461108957600080fd5b600060208284031215612cad57600080fd5b8135610fbb81612c85565b60005b83811015612cd3578181015183820152602001612cbb565b50506000910152565b60008151808452612cf4816020860160208601612cb8565b601f01601f19169290920160200192915050565b602081526000610fbb6020830184612cdc565b600060208284031215612d2d57600080fd5b5035919050565b6001600160a01b038116811461108957600080fd5b80356118c281612d34565b600060208284031215612d6657600080fd5b8135610fbb81612d34565b60008060408385031215612d8457600080fd5b8235612d8f81612d34565b946020939093013593505050565b634e487b7160e01b600052604160045260246000fd5b60405160e0810167ffffffffffffffff81118282101715612dd657612dd6612d9d565b60405290565b604051601f8201601f1916810167ffffffffffffffff81118282101715612e0557612e05612d9d565b604052919050565b600067ffffffffffffffff821115612e2757612e27612d9d565b50601f01601f191660200190565b6000612e48612e4384612e0d565b612ddc565b9050828152838383011115612e5c57600080fd5b828260208301376000602084830101529392505050565b60008060008060808587031215612e8957600080fd5b8435612e9481612d34565b93506020850135612ea481612d34565b925060408501359150606085013567ffffffffffffffff811115612ec757600080fd5b8501601f81018713612ed857600080fd5b612ee787823560208401612e35565b91505092959194509250565b600080600060608486031215612f0857600080fd5b8335612f1381612d34565b92506020840135612f2381612d34565b929592945050506040919091013590565b634e487b7160e01b600052602160045260246000fd5b60038110612f6857634e487b7160e01b600052602160045260246000fd5b9052565b60208101610fbe8284612f4a565b600082601f830112612f8b57600080fd5b610fbb83833560208501612e35565b600060208284031215612fac57600080fd5b813567ffffffffffffffff811115612fc357600080fd5b611d5f84828501612f7a565b803563ffffffff811681146118c257600080fd5b600060208284031215612ff557600080fd5b610fbb82612fcf565b6000806000806080858703121561301457600080fd5b843561301f81612d34565b9350602085013561302f81612d34565b925060408501356003811061304357600080fd5b9150606085013567ffffffffffffffff8082111561306057600080fd5b9086019060e0828903121561307457600080fd5b61307c612db3565b82358281111561308b57600080fd5b6130978a828601612f7a565b8252506020830135828111156130ac57600080fd5b6130b88a828601612f7a565b6020830152506040830135828111156130d057600080fd5b6130dc8a828601612f7a565b6040830152506060830135828111156130f457600080fd5b6131008a828601612f7a565b60608301525061311260808401612fcf565b608082015261312360a08401612d49565b60a082015260c08301358281111561313a57600080fd5b6131468a828601612f7a565b60c0830152509598949750929550505050565b801515811461108957600080fd5b6000806040838503121561317a57600080fd5b823561318581612d34565b9150602083013561319581613159565b809150509250929050565b600080604083850312156131b357600080fd5b82356131be81612d34565b9150602083013561319581612d34565b634e487b7160e01b600052601160045260246000fd5b8082028115828204841417610fbe57610fbe6131ce565b60008261321857634e487b7160e01b600052601260045260246000fd5b500490565b60006020828403121561322f57600080fd5b8151610fbb81612d34565b6001600160a01b038781168252602082018790528581166040830152841660608201526080810183905260c0810161327560a0830184612f4a565b979650505050505050565b600181811c9082168061329457607f821691505b6020821081036110dd57634e487b7160e01b600052602260045260246000fd5b600080604083850312156132c757600080fd5b82516132d281612d34565b6020939093015192949293505050565b6000602082840312156132f457600080fd5b8151610fbb81613159565b601f821115610cc157600081815260208120601f850160051c810160208610156133265750805b601f850160051c820191505b81811015610b3457828155600101613332565b815167ffffffffffffffff81111561335f5761335f612d9d565b6133738161336d8454613280565b846132ff565b602080601f8311600181146133a857600084156133905750858301515b600019600386901b1c1916600185901b178555610b34565b600085815260208120601f198616915b828110156133d7578886015182559484019460019091019084016133b8565b50858210156133f55787850151600019600388901b60f8161c191681555b5050505050600190811b01905550565b60008151613417818560208601612cb8565b9290920192915050565b683f6e616d653d30787360b81b815260008251613445816009850160208701612cb8565b9190910160090192915050565b6f266465736372697074696f6e3d30787360801b81526000825161347d816010850160208701612cb8565b9190910160100192915050565b6926696d6167653d30787360b01b8152600082516134af81600a850160208701612cb8565b91909101600a0192915050565b712665787465726e616c5f6c696e6b3d30787360701b8152600082516134e9816012850160208701612cb8565b9190910160120192915050565b7f2673656c6c65725f6665655f62617369735f706f696e74733d0000000000000081526000825161352e816019850160208701612cb8565b9190910160190192915050565b6e266665655f726563697069656e743d60881b81526000825161356581600f850160208701612cb8565b91909101600f0192915050565b600080895461358081613280565b6001828116801561359857600181146135ad576135dc565b60ff19841687528215158302870194506135dc565b8d60005260208060002060005b858110156135d35781548a8201529084019082016135ba565b50505082870194505b5050505088516135f0818360208d01612cb8565b8851910190613603818360208c01612cb8565b61362a61362461361e6136188486018c613405565b8a613405565b88613405565b86613405565b9b9a5050505050505050505050565b6001600160a01b038581168252841660208201526040810183905260806060820181905260009061366c90830184612cdc565b9695505050505050565b60006020828403121561368857600080fd5b815167ffffffffffffffff81111561369f57600080fd5b8201601f810184136136b057600080fd5b80516136be612e4382612e0d565b8181528560208385010111156136d357600080fd5b6136e4826020830160208601612cb8565b95945050505050565b634e487b7160e01b600052603260045260246000fd5b80820180821115610fbe57610fbe6131ce565b600060018201613728576137286131ce565b5060010190565b60008161373e5761373e6131ce565b506000190190565b81810381811115610fbe57610fbe6131ce565b634e487b7160e01b600052603160045260246000fd5b60008251613781818460208701612cb8565b9190910192915050565b60006020828403121561379d57600080fd5b8151610fbb81612c8556fe7016719027ff29c13bc4816903851ea968172a86b766c733b954fdabe53c87eea26469706673582212206ffc388d0d53f3726fbc5ba69ea702b19b4dbb526efe4a68d15b249bf80cc72964736f6c63430008110033",
  "immutableReferences": {},
  "source": "// SPDX-License-Identifier: MIT\npragma solidity 0.8.17;\n\npragma experimental ABIEncoderV2;\n\nimport './libs/Errors.sol';\nimport './Asset.sol';\n\ncontract AssetShell is AssetBase, IAssetShell {\n\tusing Address for address;\n\n\tbytes4 private constant _ERC721_RECEIVED = 0x150b7a02;\n\tbytes4 private constant _INTERFACE_ID_ERC721 = 0x80ac58cd;\n\n\tstruct AssetData {\n\t\tAssetID meta; // asset meta data\n\t\tuint256 minimumPrice; // Minimum transaction price of assets\n\t\taddress locked; // Previous asset owner address\n\t}\n\n\tmapping(uint256 => AssetData) private _assetsData;   // tokenId => raw asset id\n\tuint256                       private _lastLocked;\n\tSaleType                      public  saleType; // is opensea first or second sale\n\tuint256[16]                   private  __; // reserved storage space\n\n\tfunction initAssetShell(address host, address operator, SaleType _saleType, InitContractURI memory uri) external {\n\t\tinitAssetBase(host, operator, uri);\n\t\t_registerInterface(AssetShell_Type);\n\t\t_registerInterface(_ERC721_RECEIVED);\n\t\tsaleType = _saleType;\n\t}\n\n\tfunction asERC721(address addr) view internal returns (IERC721) {\n\t\tif (!addr.isContract()) revert NonContractAddress();\n\t\tif (!IERC165(addr).supportsInterface(_INTERFACE_ID_ERC721))\n\t\t\trevert CheckInterfaceNoMatch(_INTERFACE_ID_ERC721);\n\t\treturn IERC721(addr);\n\t}\n\n\t/**\n\t * @dev implement ERC721 asset receiving agreement\n\t */\n\tfunction onERC721Received(\n\t\taddress operator, address from, uint256 tokenId, bytes memory data\n\t) external override returns (bytes4) {\n\t\tIERC721 token = asERC721(_msgSender());\n\t\tuint256 id = convertTokenID(address(token), tokenId);\n\t\tAssetData storage ad = _assetsData[id];\n\n\t\taddress to;\n\t\tuint256 price;\n\t\t(to, price) = abi.decode(data, (address, uint256));\n\n\t\trequire(ad.meta.token == address(0), \"\");//, \"#AssetShell.onERC721Received mint of asset already exists\");\n\t\trequire(from != address(this), \"\");//, \"#AssetShell.onERC721Received from not for myself\");\n\n\t\tad.meta.token = address(token);\n\t\tad.meta.tokenId = tokenId;\n\t\tad.minimumPrice = price;\n\n\t\t_mint(to, id);\n\n\t\treturn _ERC721_RECEIVED;\n\t}\n\n\t/**\n\t * @dev convertTokenID() convert meta token and token id to token id\n\t */\n\tfunction convertTokenID(address metaToken, uint256 metaTokenId) pure public returns (uint256) {\n\t\treturn uint256(keccak256(abi.encodePacked(metaToken, metaTokenId)));\n\t}\n\n\tfunction _tokenURI(uint256 tokenId) internal view override returns (string memory) {\n\t\tAssetID memory meta = assetMeta(tokenId);\n\t\treturn IERC721Metadata(meta.token).tokenURI(meta.tokenId);\n\t}\n\n\t/**\n\t * @dev assetMeta(tokenId) Returns the asset meta data of this tokenId\n\t */\n\tfunction assetMeta(uint256 tokenId) view public override returns (AssetID memory meta) {\n\t\tmeta = _assetsData[tokenId].meta;\n\t\t// require(meta.token != address(0), \"#AssetShell.assetMeta asset non exists\");\n\t\tif (meta.token == address(0)) revert AssetNonExistsInAssetShell();\n\t}\n\n\t/**\n\t * @dev withdraw() withdraw and unlock meta asset\n\t */\n\tfunction withdraw(uint256 tokenId) external override Check(Action_Asset_Shell_Withdraw) {\n\t\tAssetID storage meta = _assetsData[tokenId].meta;\n\t\t// require(meta.token != address(0), \"#AssetShell#withdraw withdraw of asset non exists\");\n\t\tif (meta.token == address(0)) revert AssetNonExistsInAssetShell();\n\t\twithdrawTo(tokenId, ownerOf(tokenId), \"\");\n\t}\n\n\t/**\n\t * @dev withdrawTo() implement withdraw and unlock meta asset, internal method\n\t */\n\tfunction withdrawTo(uint256 tokenId, address to, bytes memory data) internal {\n\t\tAssetID storage meta = _assetsData[tokenId].meta;\n\t\tIERC721(meta.token).safeTransferFrom(address(this), to, meta.tokenId, data);\n\t\tdelete _assetsData[tokenId]; // delete asset data\n\t\t_burn(tokenId);\n\t}\n\n\t/**\n\t * @dev Returns whether the token is locked\n\t */\n\tfunction isLocked(uint256 tokenId) view public returns (bool) {\n\t\treturn _assetsData[tokenId].locked != address(0);\n\t}\n\n\t/**\n\t * @dev minimumPrice(tokenId) Returns the minimum price of this tokenId asset\n\t */\n\tfunction minimumPrice(uint256 tokenId) view public returns (uint256) {\n\t\treturn _assetsData[tokenId].minimumPrice;\n\t}\n\n\t/**\n\t * @dev called after token transfer\n\t */\n\tfunction _afterTokenTransfer(address from, address to, uint256 tokenId, bytes memory _data) internal virtual override {\n\t\tAssetData storage ad = _assetsData[tokenId];\n\n\t\tif (ad.locked != address(0)) { //  transfer out from the exchange\n\t\t\t// Non contract transfer out needs to be unlocked first and the last lock cannot be a contract\n\t\t\t// require(!ad.locked.isContract(), \"#AssetShell#_afterTokenTransfer 1 You need to unlock the asset first\");\n\t\t\tif (ad.locked.isContract()) revert NeedToUnlockAssetFirst();\n\t\t\t//require(from.isContract(), \"#AssetShell#_afterTokenTransfer 2 You need to unlock the asset first\");\n\t\t\tif (!from.isContract()) revert NeedToUnlockAssetFirst();\n\t\t}\n\t\tad.locked = from; // lock asset\n\t\t_lastLocked = tokenId;\n\t}\n\n\t/**\n\t * @dev unlock() receive eth transaction and unlock asset\n\t */\n\tfunction unlock(uint256 tokenId) public payable {\n\t\t// require(tokenId != 0, \"#AssetShell#unlock locked tokenId != 0\");\n\t\tif (tokenId == 0) revert TokenIDEmpty();\n\t\t// require(msg.value != 0, \"#AssetShell#unlock msg.value != 0\"); // price\n\t\tif (msg.value == 0) revert PayableAmountZero();\n\n\t\tAssetData storage ad = _assetsData[tokenId];\n\t\t// require(ad.locked != address(0), \"#AssetShell#unlock Lock cannot be empty\"); // price\n\t\tif (ad.locked == address(0)) revert LockTokenIDEmptyInAssetShell();\n\n\t\taddress to = ownerOf(tokenId);\n\t\tuint256 amount = msg.value * 10_000 / seller_fee_basis_points; // transfer price\n\n\t\t// check transfer price\n\t\t// require(amount >= ad.minimumPrice, \"#AssetShell#unlock price >= minimum price\"); // price\n\t\tif (amount < ad.minimumPrice) revert PayableInsufficientAmount();\n\n\t\tAssetID storage meta = ad.meta;\n\t\t_host.ledger().assetIncome{value: msg.value}(meta.token, meta.tokenId, msg.sender, to, amount, saleType);\n\n\t\tif (_lastLocked == tokenId)\n\t\t\t_lastLocked = 0;\n\n\t\tad.locked = address(0); // unlock\n\n\t\tif (saleType == SaleType.kFirst) {\n\t\t\tbytes memory data = abi.encode(to, ad.minimumPrice);\n\t\t\twithdrawTo(tokenId, address(_host.module(Module_ASSET_Second_ID)), data);\n\t\t}\n\t}\n\n\t/**\n\t * @dev receive eth token\n\t */\n\treceive() external payable {\n\t\tunlock(_lastLocked); // unlock last locked\n\t}\n}\n",
  "sourcePath": "/Users/louis/Project/hc/NFTSwap/SmartHolder/contracts/AssetShell.sol",
  "compiler": {
    "name": "solc",
    "version": "0.8.17+commit.8df45f5f.Emscripten.clang"
  },
  "schemaVersion": "3.4.11",
  "updatedAt": "2023-03-29T08:55:12.350Z",
  "networkType": "ethereum",
  "devdoc": {
    "kind": "dev",
    "methods": {
      "approve(address,uint256)": {
        "details": "Approves another address to transfer the given token ID The zero address indicates there is no approved address. There can only be one approved address per token at a given time. Can only be called by the token owner or an approved operator.",
        "params": {
          "to": "address to be approved for the given token ID",
          "tokenId": "uint256 ID of the token to be approved"
        }
      },
      "assetMeta(uint256)": {
        "details": "assetMeta(tokenId) Returns the asset meta data of this tokenId"
      },
      "balanceOf(address)": {
        "details": "Gets the balance of the specified address.",
        "params": {
          "owner": "address to query the balance of"
        },
        "returns": {
          "_0": "uint256 representing the amount owned by the passed address"
        }
      },
      "baseURI()": {
        "details": "Returns the base URI set via {_setBaseURI}. This will be automatically added as a prefix in {tokenURI} to each token's URI, or to the token ID if no specific URI is set for that token ID."
      },
      "convertTokenID(address,uint256)": {
        "details": "convertTokenID() convert meta token and token id to token id"
      },
      "getApproved(uint256)": {
        "details": "Gets the approved address for a token ID, or zero if no address set Reverts if the token ID does not exist.",
        "params": {
          "tokenId": "uint256 ID of the token to query the approval of"
        },
        "returns": {
          "_0": "address currently approved for the given token ID"
        }
      },
      "isApprovedForAll(address,address)": {
        "details": "Tells whether an operator is approved by a given owner.",
        "params": {
          "operator": "operator address which you want to query the approval of",
          "owner": "owner address which you want to query the approval of"
        },
        "returns": {
          "_0": "bool whether the given operator is approved by the given owner"
        }
      },
      "isLocked(uint256)": {
        "details": "Returns whether the token is locked"
      },
      "minimumPrice(uint256)": {
        "details": "minimumPrice(tokenId) Returns the minimum price of this tokenId asset"
      },
      "name()": {
        "details": "Gets the token name.",
        "returns": {
          "_0": "string representing the token name"
        }
      },
      "onERC721Received(address,address,uint256,bytes)": {
        "details": "implement ERC721 asset receiving agreement"
      },
      "ownerOf(uint256)": {
        "details": "Gets the owner of the specified token ID.",
        "params": {
          "tokenId": "uint256 ID of the token to query the owner of"
        },
        "returns": {
          "owner": "currently marked as the owner of the given token ID"
        }
      },
      "safeTransferFrom(address,address,uint256)": {
        "details": "Safely transfers the ownership of a given token ID to another address If the target address is a contract, it must implement {IERC721Receiver-onERC721Received}, which is called upon a safe transfer, and return the magic value `bytes4(keccak256(\"onERC721Received(address,address,uint256,bytes)\"))`; otherwise, the transfer is reverted. Requires the msg.sender to be the owner, approved, or operator",
        "params": {
          "from": "current owner of the token",
          "to": "address to receive the ownership of the given token ID",
          "tokenId": "uint256 ID of the token to be transferred"
        }
      },
      "safeTransferFrom(address,address,uint256,bytes)": {
        "details": "Safely transfers the ownership of a given token ID to another address If the target address is a contract, it must implement {IERC721Receiver-onERC721Received}, which is called upon a safe transfer, and return the magic value `bytes4(keccak256(\"onERC721Received(address,address,uint256,bytes)\"))`; otherwise, the transfer is reverted. Requires the _msgSender() to be the owner, approved, or operator",
        "params": {
          "_data": "bytes data to send along with a safe transfer check",
          "from": "current owner of the token",
          "to": "address to receive the ownership of the given token ID",
          "tokenId": "uint256 ID of the token to be transferred"
        }
      },
      "setApprovalForAll(address,bool)": {
        "details": "Sets or unsets the approval of a given operator An operator is allowed to transfer all tokens of the sender on their behalf.",
        "params": {
          "approved": "representing the status of the approval to be set",
          "operator": "operator address to set the approval"
        }
      },
      "supportsInterface(bytes4)": {
        "details": "See {IERC165-supportsInterface}. Time complexity O(1), guaranteed to always use less than 30 000 gas."
      },
      "symbol()": {
        "details": "Gets the token symbol.",
        "returns": {
          "_0": "string representing the token symbol"
        }
      },
      "tokenByIndex(uint256)": {
        "details": "Gets the token ID at a given index of all the tokens in this contract Reverts if the index is greater or equal to the total number of tokens.",
        "params": {
          "index": "uint256 representing the index to be accessed of the tokens list"
        },
        "returns": {
          "_0": "uint256 token ID at the given index of the tokens list"
        }
      },
      "tokenOfOwnerByIndex(address,uint256)": {
        "details": "Gets the token ID at a given index of the tokens list of the requested owner.",
        "params": {
          "index": "uint256 representing the index to be accessed of the requested tokens list",
          "owner": "address owning the tokens list to be accessed"
        },
        "returns": {
          "_0": "uint256 token ID at the given index of the tokens list owned by the requested address"
        }
      },
      "tokenURI(uint256)": {
        "details": "Returns the Uniform Resource Identifier (URI) for `tokenId` token."
      },
      "totalSupply()": {
        "details": "Gets the total amount of tokens stored by the contract.",
        "returns": {
          "_0": "uint256 representing the total amount of tokens"
        }
      },
      "transferFrom(address,address,uint256)": {
        "details": "Transfers the ownership of a given token ID to another address. Usage of this method is discouraged, use {safeTransferFrom} whenever possible. Requires the msg.sender to be the owner, approved, or operator.",
        "params": {
          "from": "current owner of the token",
          "to": "address to receive the ownership of the given token ID",
          "tokenId": "uint256 ID of the token to be transferred"
        }
      },
      "unlock(uint256)": {
        "details": "unlock() receive eth transaction and unlock asset"
      },
      "withdraw(uint256)": {
        "details": "withdraw() withdraw and unlock meta asset"
      }
    },
    "version": 1
  },
  "userdoc": {
    "kind": "user",
    "methods": {},
    "version": 1
  }
}