{
  "contractName": "AssetShell",
  "abi": [
    {
      "anonymous": false,
      "inputs": [
        {
          "indexed": true,
          "internalType": "address",
          "name": "owner",
          "type": "address"
        },
        {
          "indexed": true,
          "internalType": "address",
          "name": "approved",
          "type": "address"
        },
        {
          "indexed": true,
          "internalType": "uint256",
          "name": "tokenId",
          "type": "uint256"
        }
      ],
      "name": "Approval",
      "type": "event"
    },
    {
      "anonymous": false,
      "inputs": [
        {
          "indexed": true,
          "internalType": "address",
          "name": "owner",
          "type": "address"
        },
        {
          "indexed": true,
          "internalType": "address",
          "name": "operator",
          "type": "address"
        },
        {
          "indexed": false,
          "internalType": "bool",
          "name": "approved",
          "type": "bool"
        }
      ],
      "name": "ApprovalForAll",
      "type": "event"
    },
    {
      "anonymous": false,
      "inputs": [
        {
          "indexed": true,
          "internalType": "uint256",
          "name": "tag",
          "type": "uint256"
        },
        {
          "indexed": false,
          "internalType": "uint256",
          "name": "value",
          "type": "uint256"
        }
      ],
      "name": "Change",
      "type": "event"
    },
    {
      "anonymous": false,
      "inputs": [
        {
          "indexed": true,
          "internalType": "address",
          "name": "from",
          "type": "address"
        },
        {
          "indexed": true,
          "internalType": "address",
          "name": "to",
          "type": "address"
        },
        {
          "indexed": true,
          "internalType": "uint256",
          "name": "tokenId",
          "type": "uint256"
        }
      ],
      "name": "Transfer",
      "type": "event"
    },
    {
      "inputs": [
        {
          "internalType": "address",
          "name": "to",
          "type": "address"
        },
        {
          "internalType": "uint256",
          "name": "tokenId",
          "type": "uint256"
        }
      ],
      "name": "approve",
      "outputs": [],
      "stateMutability": "nonpayable",
      "type": "function"
    },
    {
      "inputs": [
        {
          "internalType": "address",
          "name": "owner",
          "type": "address"
        }
      ],
      "name": "balanceOf",
      "outputs": [
        {
          "internalType": "uint256",
          "name": "",
          "type": "uint256"
        }
      ],
      "stateMutability": "view",
      "type": "function"
    },
    {
      "inputs": [],
      "name": "baseURI",
      "outputs": [
        {
          "internalType": "string",
          "name": "",
          "type": "string"
        }
      ],
      "stateMutability": "view",
      "type": "function"
    },
    {
      "inputs": [
        {
          "internalType": "bytes4",
          "name": "interfaceId",
          "type": "bytes4"
        },
        {
          "internalType": "string",
          "name": "message",
          "type": "string"
        }
      ],
      "name": "checkInterface",
      "outputs": [],
      "stateMutability": "view",
      "type": "function"
    },
    {
      "inputs": [],
      "name": "contractURI",
      "outputs": [
        {
          "internalType": "string",
          "name": "uri",
          "type": "string"
        }
      ],
      "stateMutability": "view",
      "type": "function"
    },
    {
      "inputs": [],
      "name": "contractURIPrefix",
      "outputs": [
        {
          "internalType": "string",
          "name": "",
          "type": "string"
        }
      ],
      "stateMutability": "view",
      "type": "function"
    },
    {
      "inputs": [],
      "name": "description",
      "outputs": [
        {
          "internalType": "string",
          "name": "",
          "type": "string"
        }
      ],
      "stateMutability": "view",
      "type": "function"
    },
    {
      "inputs": [
        {
          "internalType": "uint256",
          "name": "id",
          "type": "uint256"
        }
      ],
      "name": "exists",
      "outputs": [
        {
          "internalType": "bool",
          "name": "",
          "type": "bool"
        }
      ],
      "stateMutability": "view",
      "type": "function"
    },
    {
      "inputs": [],
      "name": "external_link",
      "outputs": [
        {
          "internalType": "string",
          "name": "",
          "type": "string"
        }
      ],
      "stateMutability": "view",
      "type": "function"
    },
    {
      "inputs": [],
      "name": "fee_recipient",
      "outputs": [
        {
          "internalType": "address",
          "name": "",
          "type": "address"
        }
      ],
      "stateMutability": "view",
      "type": "function"
    },
    {
      "inputs": [
        {
          "internalType": "uint256",
          "name": "tokenId",
          "type": "uint256"
        }
      ],
      "name": "getApproved",
      "outputs": [
        {
          "internalType": "address",
          "name": "",
          "type": "address"
        }
      ],
      "stateMutability": "view",
      "type": "function"
    },
    {
      "inputs": [],
      "name": "host",
      "outputs": [
        {
          "internalType": "contract IDAO",
          "name": "",
          "type": "address"
        }
      ],
      "stateMutability": "view",
      "type": "function"
    },
    {
      "inputs": [],
      "name": "image",
      "outputs": [
        {
          "internalType": "string",
          "name": "",
          "type": "string"
        }
      ],
      "stateMutability": "view",
      "type": "function"
    },
    {
      "inputs": [],
      "name": "impl",
      "outputs": [
        {
          "internalType": "address",
          "name": "",
          "type": "address"
        }
      ],
      "stateMutability": "view",
      "type": "function"
    },
    {
      "inputs": [
        {
          "internalType": "address",
          "name": "owner",
          "type": "address"
        },
        {
          "internalType": "address",
          "name": "operator",
          "type": "address"
        }
      ],
      "name": "isApprovedForAll",
      "outputs": [
        {
          "internalType": "bool",
          "name": "",
          "type": "bool"
        }
      ],
      "stateMutability": "view",
      "type": "function"
    },
    {
      "inputs": [],
      "name": "name",
      "outputs": [
        {
          "internalType": "string",
          "name": "",
          "type": "string"
        }
      ],
      "stateMutability": "view",
      "type": "function"
    },
    {
      "inputs": [],
      "name": "operator",
      "outputs": [
        {
          "internalType": "address",
          "name": "",
          "type": "address"
        }
      ],
      "stateMutability": "view",
      "type": "function"
    },
    {
      "inputs": [
        {
          "internalType": "uint256",
          "name": "tokenId",
          "type": "uint256"
        }
      ],
      "name": "ownerOf",
      "outputs": [
        {
          "internalType": "address",
          "name": "",
          "type": "address"
        }
      ],
      "stateMutability": "view",
      "type": "function"
    },
    {
      "inputs": [
        {
          "internalType": "address",
          "name": "from",
          "type": "address"
        },
        {
          "internalType": "address",
          "name": "to",
          "type": "address"
        },
        {
          "internalType": "uint256",
          "name": "tokenId",
          "type": "uint256"
        }
      ],
      "name": "safeTransferFrom",
      "outputs": [],
      "stateMutability": "nonpayable",
      "type": "function"
    },
    {
      "inputs": [
        {
          "internalType": "address",
          "name": "from",
          "type": "address"
        },
        {
          "internalType": "address",
          "name": "to",
          "type": "address"
        },
        {
          "internalType": "uint256",
          "name": "tokenId",
          "type": "uint256"
        },
        {
          "internalType": "bytes",
          "name": "_data",
          "type": "bytes"
        }
      ],
      "name": "safeTransferFrom",
      "outputs": [],
      "stateMutability": "nonpayable",
      "type": "function"
    },
    {
      "inputs": [],
      "name": "saleType",
      "outputs": [
        {
          "internalType": "enum IAssetShell.SaleType",
          "name": "",
          "type": "uint8"
        }
      ],
      "stateMutability": "view",
      "type": "function"
    },
    {
      "inputs": [],
      "name": "seller_fee_basis_points",
      "outputs": [
        {
          "internalType": "uint32",
          "name": "",
          "type": "uint32"
        }
      ],
      "stateMutability": "view",
      "type": "function"
    },
    {
      "inputs": [
        {
          "internalType": "address",
          "name": "operator",
          "type": "address"
        },
        {
          "internalType": "bool",
          "name": "approved",
          "type": "bool"
        }
      ],
      "name": "setApprovalForAll",
      "outputs": [],
      "stateMutability": "nonpayable",
      "type": "function"
    },
    {
      "inputs": [
        {
          "internalType": "string",
          "name": "value",
          "type": "string"
        }
      ],
      "name": "setDescription",
      "outputs": [],
      "stateMutability": "nonpayable",
      "type": "function"
    },
    {
      "inputs": [
        {
          "internalType": "address",
          "name": "operator",
          "type": "address"
        }
      ],
      "name": "setOperator",
      "outputs": [],
      "stateMutability": "nonpayable",
      "type": "function"
    },
    {
      "inputs": [
        {
          "internalType": "address",
          "name": "recipient",
          "type": "address"
        }
      ],
      "name": "set_fee_recipient",
      "outputs": [],
      "stateMutability": "nonpayable",
      "type": "function"
    },
    {
      "inputs": [
        {
          "internalType": "uint32",
          "name": "value",
          "type": "uint32"
        }
      ],
      "name": "set_seller_fee_basis_points",
      "outputs": [],
      "stateMutability": "nonpayable",
      "type": "function"
    },
    {
      "inputs": [
        {
          "internalType": "bytes4",
          "name": "interfaceId",
          "type": "bytes4"
        }
      ],
      "name": "supportsInterface",
      "outputs": [
        {
          "internalType": "bool",
          "name": "",
          "type": "bool"
        }
      ],
      "stateMutability": "view",
      "type": "function"
    },
    {
      "inputs": [],
      "name": "symbol",
      "outputs": [
        {
          "internalType": "string",
          "name": "",
          "type": "string"
        }
      ],
      "stateMutability": "view",
      "type": "function"
    },
    {
      "inputs": [
        {
          "internalType": "uint256",
          "name": "index",
          "type": "uint256"
        }
      ],
      "name": "tokenByIndex",
      "outputs": [
        {
          "internalType": "uint256",
          "name": "",
          "type": "uint256"
        }
      ],
      "stateMutability": "view",
      "type": "function"
    },
    {
      "inputs": [
        {
          "internalType": "address",
          "name": "owner",
          "type": "address"
        },
        {
          "internalType": "uint256",
          "name": "index",
          "type": "uint256"
        }
      ],
      "name": "tokenOfOwnerByIndex",
      "outputs": [
        {
          "internalType": "uint256",
          "name": "",
          "type": "uint256"
        }
      ],
      "stateMutability": "view",
      "type": "function"
    },
    {
      "inputs": [
        {
          "internalType": "uint256",
          "name": "tokenId",
          "type": "uint256"
        }
      ],
      "name": "tokenURI",
      "outputs": [
        {
          "internalType": "string",
          "name": "",
          "type": "string"
        }
      ],
      "stateMutability": "view",
      "type": "function"
    },
    {
      "inputs": [],
      "name": "totalSupply",
      "outputs": [
        {
          "internalType": "uint256",
          "name": "",
          "type": "uint256"
        }
      ],
      "stateMutability": "view",
      "type": "function"
    },
    {
      "inputs": [
        {
          "internalType": "address",
          "name": "from",
          "type": "address"
        },
        {
          "internalType": "address",
          "name": "to",
          "type": "address"
        },
        {
          "internalType": "uint256",
          "name": "tokenId",
          "type": "uint256"
        }
      ],
      "name": "transferFrom",
      "outputs": [],
      "stateMutability": "nonpayable",
      "type": "function"
    },
    {
      "inputs": [
        {
          "internalType": "address",
          "name": "impl",
          "type": "address"
        }
      ],
      "name": "upgrade",
      "outputs": [],
      "stateMutability": "nonpayable",
      "type": "function"
    },
    {
      "stateMutability": "payable",
      "type": "receive"
    },
    {
      "inputs": [
        {
          "internalType": "address",
          "name": "host",
          "type": "address"
        },
        {
          "internalType": "address",
          "name": "operator",
          "type": "address"
        },
        {
          "internalType": "enum IAssetShell.SaleType",
          "name": "_saleType",
          "type": "uint8"
        },
        {
          "components": [
            {
              "internalType": "string",
              "name": "name",
              "type": "string"
            },
            {
              "internalType": "string",
              "name": "description",
              "type": "string"
            },
            {
              "internalType": "string",
              "name": "image",
              "type": "string"
            },
            {
              "internalType": "string",
              "name": "external_link",
              "type": "string"
            },
            {
              "internalType": "uint32",
              "name": "seller_fee_basis_points",
              "type": "uint32"
            },
            {
              "internalType": "address",
              "name": "fee_recipient",
              "type": "address"
            },
            {
              "internalType": "string",
              "name": "contractURIPrefix",
              "type": "string"
            }
          ],
          "internalType": "struct AssetBase.InitContractURI",
          "name": "uri",
          "type": "tuple"
        }
      ],
      "name": "initAssetShell",
      "outputs": [],
      "stateMutability": "nonpayable",
      "type": "function"
    },
    {
      "inputs": [
        {
          "internalType": "address",
          "name": "operator",
          "type": "address"
        },
        {
          "internalType": "address",
          "name": "from",
          "type": "address"
        },
        {
          "internalType": "uint256",
          "name": "tokenId",
          "type": "uint256"
        },
        {
          "internalType": "bytes",
          "name": "data",
          "type": "bytes"
        }
      ],
      "name": "onERC721Received",
      "outputs": [
        {
          "internalType": "bytes4",
          "name": "",
          "type": "bytes4"
        }
      ],
      "stateMutability": "nonpayable",
      "type": "function"
    },
    {
      "inputs": [
        {
          "internalType": "address",
          "name": "metaToken",
          "type": "address"
        },
        {
          "internalType": "uint256",
          "name": "metaTokenId",
          "type": "uint256"
        }
      ],
      "name": "convertTokenID",
      "outputs": [
        {
          "internalType": "uint256",
          "name": "",
          "type": "uint256"
        }
      ],
      "stateMutability": "pure",
      "type": "function"
    },
    {
      "inputs": [
        {
          "internalType": "uint256",
          "name": "tokenId",
          "type": "uint256"
        }
      ],
      "name": "assetMeta",
      "outputs": [
        {
          "components": [
            {
              "internalType": "address",
              "name": "token",
              "type": "address"
            },
            {
              "internalType": "uint256",
              "name": "tokenId",
              "type": "uint256"
            }
          ],
          "internalType": "struct IAssetShell.AssetID",
          "name": "meta",
          "type": "tuple"
        }
      ],
      "stateMutability": "view",
      "type": "function"
    },
    {
      "inputs": [
        {
          "internalType": "uint256",
          "name": "tokenId",
          "type": "uint256"
        }
      ],
      "name": "withdraw",
      "outputs": [],
      "stateMutability": "nonpayable",
      "type": "function"
    },
    {
      "inputs": [
        {
          "internalType": "uint256",
          "name": "tokenId",
          "type": "uint256"
        }
      ],
      "name": "isLocked",
      "outputs": [
        {
          "internalType": "bool",
          "name": "",
          "type": "bool"
        }
      ],
      "stateMutability": "view",
      "type": "function"
    },
    {
      "inputs": [
        {
          "internalType": "uint256",
          "name": "tokenId",
          "type": "uint256"
        }
      ],
      "name": "minimumPrice",
      "outputs": [
        {
          "internalType": "uint256",
          "name": "",
          "type": "uint256"
        }
      ],
      "stateMutability": "view",
      "type": "function"
    },
    {
      "inputs": [
        {
          "internalType": "uint256",
          "name": "tokenId",
          "type": "uint256"
        }
      ],
      "name": "unlock",
      "outputs": [],
      "stateMutability": "payable",
      "type": "function"
    }
  ],
  "bytecode": "0x608060405234801561001057600080fd5b50613f95806100206000396000f3fe6080604052600436106102605760003560e01c806371fcf46811610144578063b3ab15fb116100b6578063e985e9c51161007a578063e985e9c514610764578063f2d8d1b8146107ad578063f3ccaac0146107c2578063f437bc59146107d7578063f6aacfb1146107f5578063f9b62b7a1461083057600080fd5b8063b3ab15fb146106cf578063b88d4fde146106ef578063c64df69d1461070f578063c87b56dd1461072f578063e8a3d4851461074f57600080fd5b806390c3f38f1161010857806390c3f38f1461061a57806391d818891461063a57806391eb3dee1461065a57806395d89b411461067a5780639837f5c21461068f578063a22cb465146106af57600080fd5b806371fcf468146105795780637284e416146105b2578063758f969a146105c75780637972bdf3146105e75780638abf6077146105fc57600080fd5b806330cc317b116101dd5780635bcc7928116101a15780635bcc7928146104ba5780636198e339146104e157806362f8a855146104f45780636352211e146105245780636c0360eb1461054457806370a082311461055957600080fd5b806330cc317b1461041c57806342842e0e1461043c5780634f558e791461045c5780634f6ccce71461047c578063570ca7351461049c57600080fd5b8063150b7a0211610224578063150b7a021461036057806318160ddd1461039957806323b872dd146103bc5780632e1a7d4d146103dc5780632f745c59146103fc57600080fd5b806301ffc9a71461027757806306fdde03146102c6578063081812fc146102e85780630900f01014610320578063095ea7b31461034057600080fd5b3661027257610270601c54610874565b005b600080fd5b34801561028357600080fd5b506102b161029236600461326e565b6001600160e01b03191660009081526001602052604090205460ff1690565b60405190151581526020015b60405180910390f35b3480156102d257600080fd5b506102db610c23565b6040516102bd91906132db565b3480156102f457600080fd5b506103086103033660046132ee565b610cb5565b6040516001600160a01b0390911681526020016102bd565b34801561032c57600080fd5b5061027061033b366004613327565b610d3d565b34801561034c57600080fd5b5061027061035b366004613344565b610da7565b34801561036c57600080fd5b5061038061037b366004613446565b610ebc565b6040516001600160e01b031990911681526020016102bd565b3480156103a557600080fd5b506103ae61103b565b6040519081526020016102bd565b3480156103c857600080fd5b506102706103d73660046134c6565b61104c565b3480156103e857600080fd5b506102706103f73660046132ee565b6110a8565b34801561040857600080fd5b506103ae610417366004613344565b61125e565b34801561042857600080fd5b50610270610437366004613327565b611289565b34801561044857600080fd5b506102706104573660046134c6565b6112ec565b34801561046857600080fd5b506102b16104773660046132ee565b611307565b34801561048857600080fd5b506103ae6104973660046132ee565b611312565b3480156104a857600080fd5b506003546001600160a01b0316610308565b3480156104c657600080fd5b50601d546104d49060ff1681565b6040516102bd919061353f565b6102706104ef3660046132ee565b610874565b34801561050057600080fd5b506103ae61050f3660046132ee565b6000908152601b602052604090206002015490565b34801561053057600080fd5b5061030861053f3660046132ee565b611328565b34801561055057600080fd5b506102db611350565b34801561056557600080fd5b506103ae610574366004613327565b61135f565b34801561058557600080fd5b5060195461059d90600160a01b900463ffffffff1681565b60405163ffffffff90911681526020016102bd565b3480156105be57600080fd5b506102db6113eb565b3480156105d357600080fd5b50601954610308906001600160a01b031681565b3480156105f357600080fd5b506102db6113fa565b34801561060857600080fd5b506000546001600160a01b0316610308565b34801561062657600080fd5b5061027061063536600461356d565b611488565b34801561064657600080fd5b506103ae610655366004613344565b6115d8565b34801561066657600080fd5b506102706106753660046135b6565b611620565b34801561068657600080fd5b506102db61177a565b34801561069b57600080fd5b506102706106aa3660046135d1565b611789565b3480156106bb57600080fd5b506102706106ca36600461373a565b6117de565b3480156106db57600080fd5b506102706106ea366004613327565b6118a2565b3480156106fb57600080fd5b5061027061070a366004613446565b611905565b34801561071b57600080fd5b5061027061072a366004613773565b61193d565b34801561073b57600080fd5b506102db61074a3660046132ee565b611979565b34801561075b57600080fd5b506102db611984565b34801561077057600080fd5b506102b161077f3660046137c3565b6001600160a01b03918216600090815260126020908152604080832093909416825291909152205460ff1690565b3480156107b957600080fd5b506102db611b87565b3480156107ce57600080fd5b506102db611b94565b3480156107e357600080fd5b506002546001600160a01b0316610308565b34801561080157600080fd5b506102b16108103660046132ee565b6000908152601b60205260409020600301546001600160a01b0316151590565b34801561083c57600080fd5b5061085061084b3660046132ee565b611ba1565b6040805182516001600160a01b0316815260209283015192810192909252016102bd565b806000036108d85760405162461bcd60e51b815260206004820152602660248201527f2341737365745368656c6c23756e6c6f636b206c6f636b656420746f6b656e4960448201526506420213d20360d41b60648201526084015b60405180910390fd5b346000036109325760405162461bcd60e51b815260206004820152602160248201527f2341737365745368656c6c23756e6c6f636b206d73672e76616c756520213d206044820152600360fc1b60648201526084016108cf565b6000818152601b6020526040902060038101546001600160a01b03166109aa5760405162461bcd60e51b815260206004820152602760248201527f2341737365745368656c6c23756e6c6f636b204c6f636b2063616e6e6f7420626044820152666520656d70747960c81b60648201526084016108cf565b60006109b583611328565b601954909150600090600160a01b900463ffffffff166109d734612710613807565b6109e1919061381e565b90508260020154811015610a495760405162461bcd60e51b815260206004820152602960248201527f2341737365745368656c6c23756e6c6f636b207072696365203e3d206d696e696044820152686d756d20707269636560b81b60648201526084016108cf565b600254604080516356397c3560e01b8152905185926001600160a01b0316916356397c359160048083019260209291908290030181865afa158015610a92573d6000803e3d6000fd5b505050506040513d601f19601f82011682018060405250810190610ab69190613840565b81546001830154601d5460405163644c788b60e11b81526001600160a01b039485169463c898f116943494610afc94919092169233918b918b9160ff169060040161385d565b6000604051808303818588803b158015610b1557600080fd5b505af1158015610b29573d6000803e3d6000fd5b505050505084601c5403610b3d576000601c555b6003840180546001600160a01b03191690556001601d5460ff166002811115610b6857610b68613507565b03610c1c576002840154604080516001600160a01b03861660208201529081019190915260009060600160408051808303601f1901815290829052600254632187baed60e11b835260056004840152909250610c1a9188916001600160a01b03169063430f75da90602401602060405180830381865afa158015610bf0573d6000803e3d6000fd5b505050506040513d601f19601f82011682018060405250810190610c149190613840565b83611c44565b505b5050505050565b606060138054610c32906138a3565b80601f0160208091040260200160405190810160405280929190818152602001828054610c5e906138a3565b8015610cab5780601f10610c8057610100808354040283529160200191610cab565b820191906000526020600020905b815481529060010190602001808311610c8e57829003601f168201915b5050505050905090565b6000610cc082611cff565b610d215760405162461bcd60e51b815260206004820152602c60248201527f4552433732313a20617070726f76656420717565727920666f72206e6f6e657860448201526b34b9ba32b73a103a37b5b2b760a11b60648201526084016108cf565b506000908152601160205260409020546001600160a01b031690565b610d45611d0c565b610d615760405162461bcd60e51b81526004016108cf906138dd565b600080546001600160a01b0319166001600160a01b038316908117909155604051908152600390600080516020613f40833981519152906020015b60405180910390a250565b6000610db282611328565b9050806001600160a01b0316836001600160a01b031603610e1f5760405162461bcd60e51b815260206004820152602160248201527f4552433732313a20617070726f76616c20746f2063757272656e74206f776e656044820152603960f91b60648201526084016108cf565b336001600160a01b0382161480610e3b5750610e3b813361077f565b610ead5760405162461bcd60e51b815260206004820152603860248201527f4552433732313a20617070726f76652063616c6c6572206973206e6f74206f7760448201527f6e6572206e6f7220617070726f76656420666f7220616c6c000000000000000060648201526084016108cf565b610eb78383611e4b565b505050565b600080610ec833611eb9565b90506000610ed682866115d8565b6000818152601b6020908152604082208751939450928291610efe9189018101908901613933565b845491935091506001600160a01b031615610f815760405162461bcd60e51b815260206004820152603960248201527f2341737365745368656c6c236f6e4552433732315265636569766564206d696e60448201527f74206f6620617373657420616c7265616479206578697374730000000000000060648201526084016108cf565b306001600160a01b038a1603610ff25760405162461bcd60e51b815260206004820152603060248201527f2341737365745368656c6c236f6e45524337323152656365697665642066726f60448201526f36903737ba103337b91036bcb9b2b63360811b60648201526084016108cf565b82546001600160a01b0319166001600160a01b03861617835560018301889055600283018190556110238285611ee5565b50630a85bd0160e11b9450505050505b949350505050565b6000611047600e612007565b905090565b6110563382612012565b6110725760405162461bcd60e51b81526004016108cf90613961565b61108d838383604051806020016040528060008152506120f8565b610eb78383836040518060200160405280600081525061227a565b632e1a7d4d6110b5611d0c565b6111bd57600260009054906101000a90046001600160a01b03166001600160a01b031663e3f6b5446040518163ffffffff1660e01b8152600401602060405180830381865afa15801561110c573d6000803e3d6000fd5b505050506040513d601f19601f820116820180604052508101906111309190613840565b60405163a8a555c560e01b8152336004820152602481018390526001600160a01b03919091169063a8a555c590604401602060405180830381865afa15801561117d573d6000803e3d6000fd5b505050506040513d601f19601f820116820180604052508101906111a191906139b2565b6111bd5760405162461bcd60e51b81526004016108cf906138dd565b6000828152601b6020526040902080546001600160a01b031661123c5760405162461bcd60e51b815260206004820152603160248201527f2341737365745368656c6c237769746864726177207769746864726177206f66604482015270206173736574206e6f6e2065786973747360781b60648201526084016108cf565b610eb78361124985611328565b60405180602001604052806000815250611c44565b6001600160a01b0382166000908152600d6020526040812061128090836123df565b90505b92915050565b611291611d0c565b6112ad5760405162461bcd60e51b81526004016108cf906138dd565b601980546001600160a01b0319166001600160a01b038316908117909155604051908152600790600080516020613f4083398151915290602001610d9c565b610eb783838360405180602001604052806000815250611905565b600061128382611cff565b600080611320600e846123eb565b509392505050565b600061128382604051806060016040528060298152602001613ecd60299139600e9190612407565b606060168054610c32906138a3565b60006001600160a01b0382166113ca5760405162461bcd60e51b815260206004820152602a60248201527f4552433732313a2062616c616e636520717565727920666f7220746865207a65604482015269726f206164647265737360b01b60648201526084016108cf565b6001600160a01b0382166000908152600d602052604090206112839061241e565b606060048054610c32906138a3565b60188054611407906138a3565b80601f0160208091040260200160405190810160405280929190818152602001828054611433906138a3565b80156114805780601f1061145557610100808354040283529160200191611480565b820191906000526020600020905b81548152906001019060200180831161146357829003601f168201915b505050505081565b63d0a4ad96611495611d0c565b61159d57600260009054906101000a90046001600160a01b03166001600160a01b031663e3f6b5446040518163ffffffff1660e01b8152600401602060405180830381865afa1580156114ec573d6000803e3d6000fd5b505050506040513d601f19601f820116820180604052508101906115109190613840565b60405163a8a555c560e01b8152336004820152602481018390526001600160a01b03919091169063a8a555c590604401602060405180830381865afa15801561155d573d6000803e3d6000fd5b505050506040513d601f19601f8201168201806040525081019061158191906139b2565b61159d5760405162461bcd60e51b81526004016108cf906138dd565b60046115a98382613a15565b506001600080516020613f4083398151915260006040516115cc91815260200190565b60405180910390a25050565b6040516bffffffffffffffffffffffff19606084901b1660208201526034810182905260009060540160408051601f1981840301815291905280516020909101209392505050565b6391eb3dee61162d611d0c565b61173557600260009054906101000a90046001600160a01b03166001600160a01b031663e3f6b5446040518163ffffffff1660e01b8152600401602060405180830381865afa158015611684573d6000803e3d6000fd5b505050506040513d601f19601f820116820180604052508101906116a89190613840565b60405163a8a555c560e01b8152336004820152602481018390526001600160a01b03919091169063a8a555c590604401602060405180830381865afa1580156116f5573d6000803e3d6000fd5b505050506040513d601f19601f8201168201806040525081019061171991906139b2565b6117355760405162461bcd60e51b81526004016108cf906138dd565b6019805463ffffffff60a01b1916600160a01b63ffffffff851690810291909117909155604051908152600690600080516020613f40833981519152906020016115cc565b606060148054610c32906138a3565b611794848483612428565b6117a46343234e9560e01b6124d1565b6117b4630a85bd0160e11b6124d1565b601d805483919060ff191660018360028111156117d3576117d3613507565b021790555050505050565b336001600160a01b038316036118365760405162461bcd60e51b815260206004820152601960248201527f4552433732313a20617070726f766520746f2063616c6c65720000000000000060448201526064016108cf565b3360008181526012602090815260408083206001600160a01b03871680855290835292819020805460ff191686151590811790915590519081529192917f17307eab39ab6107e8899845ad3d59bd9653f200f220920489ca2b5937696c31910160405180910390a35050565b6118aa611d0c565b6118c65760405162461bcd60e51b81526004016108cf906138dd565b600380546001600160a01b0319166001600160a01b038316908117909155604051908152600290600080516020613f4083398151915290602001610d9c565b61190f3383612012565b61192b5760405162461bcd60e51b81526004016108cf90613961565b611937848484846124dd565b50505050565b6001600160e01b0319821660009081526001602052604090205460ff168190610eb75760405162461bcd60e51b81526004016108cf91906132db565b606061128382612568565b60606000611998611993610c23565b6125ec565b6040516020016119a89190613af1565b60405160208183030381529060405290506000611a4e600480546119cb906138a3565b80601f01602080910402602001604051908101604052809291908181526020018280546119f7906138a3565b8015611a445780601f10611a1957610100808354040283529160200191611a44565b820191906000526020600020905b815481529060010190602001808311611a2757829003601f168201915b50505050506125ec565b604051602001611a5e9190613b22565b60405160208183030381529060405290506000611a81601780546119cb906138a3565b604051602001611a919190613b5a565b60405160208183030381529060405290506000611ab4601880546119cb906138a3565b604051602001611ac49190613b8c565b60408051808303601f19018152919052601954909150600090611af390600160a01b900463ffffffff16612745565b604051602001611b039190613bc6565b60408051601f19818403018152919052601954909150600090611b2e906001600160a01b03166127d8565b604051602001611b3e9190613c0b565b6040516020818303038152906040529050601a868686868686604051602001611b6d9796959493929190613c42565b604051602081830303815290604052965050505050505090565b601a8054611407906138a3565b60178054611407906138a3565b60408051808201825260008082526020918201819052838152601b8252829020825180840190935280546001600160a01b031680845260019091015491830191909152611c3f5760405162461bcd60e51b815260206004820152602660248201527f2341737365745368656c6c2361737365744d657461206173736574206e6f6e2060448201526565786973747360d01b60648201526084016108cf565b919050565b6000838152601b602052604090819020805460018201549251635c46a7ef60e11b815291926001600160a01b039091169163b88d4fde91611c8d91309188918890600401613d09565b600060405180830381600087803b158015611ca757600080fd5b505af1158015611cbb573d6000803e3d6000fd5b5050506000858152601b6020526040812080546001600160a01b031990811682556001820183905560028201929092556003018054909116905550611937846127ee565b6000611283600e836128b7565b60035460009033906001600160a01b03168114611e4357600260009054906101000a90046001600160a01b03166001600160a01b031663570ca7356040518163ffffffff1660e01b8152600401602060405180830381865afa158015611d76573d6000803e3d6000fd5b505050506040513d601f19601f82011682018060405250810190611d9a9190613840565b6001600160a01b0316816001600160a01b031614611e4357600260009054906101000a90046001600160a01b03166001600160a01b031663ebf0c7176040518163ffffffff1660e01b8152600401602060405180830381865afa158015611e05573d6000803e3d6000fd5b505050506040513d601f19601f82011682018060405250810190611e299190613840565b6001600160a01b0316816001600160a01b03161491505090565b600191505090565b600081815260116020526040902080546001600160a01b0319166001600160a01b0384169081179091558190611e8082611328565b6001600160a01b03167f8c5be1e5ebec7d5bd14f71427d1e84f3dd0314c0f7b2291e5b200ac8c7c3b92560405160405180910390a45050565b6000611283826380ac58cd60e01b6040518060800160405280604a8152602001613ef6604a91396128c3565b6001600160a01b038216611f3b5760405162461bcd60e51b815260206004820181905260248201527f4552433732313a206d696e7420746f20746865207a65726f206164647265737360448201526064016108cf565b611f4481611cff565b15611f915760405162461bcd60e51b815260206004820152601c60248201527f4552433732313a20746f6b656e20616c7265616479206d696e7465640000000060448201526064016108cf565b60408051602080820183526000918290526001600160a01b0385168252600d905220611fbd9082612999565b50611fca600e82846129a5565b5060405181906001600160a01b038416906000907fddf252ad1be2c89b69c2b068fc378daa952ba7f163c4a11628f55a4df523b3ef908290a45050565b6000611283826129bb565b600061201d82611cff565b61207e5760405162461bcd60e51b815260206004820152602c60248201527f4552433732313a206f70657261746f7220717565727920666f72206e6f6e657860448201526b34b9ba32b73a103a37b5b2b760a11b60648201526084016108cf565b600061208983611328565b9050806001600160a01b0316846001600160a01b031614806120c45750836001600160a01b03166120b984610cb5565b6001600160a01b0316145b8061103357506001600160a01b0380821660009081526012602090815260408083209388168352929052205460ff16611033565b836001600160a01b031661210b83611328565b6001600160a01b0316146121735760405162461bcd60e51b815260206004820152602960248201527f4552433732313a207472616e73666572206f6620746f6b656e2074686174206960448201526839903737ba1037bbb760b91b60648201526084016108cf565b6001600160a01b0383166121d55760405162461bcd60e51b8152602060048201526024808201527f4552433732313a207472616e7366657220746f20746865207a65726f206164646044820152637265737360e01b60648201526084016108cf565b6121e0600083611e4b565b6001600160a01b0384166000908152600d6020526040902061220290836129c6565b506001600160a01b0383166000908152600d602052604090206122259083612999565b50612232600e83856129a5565b5081836001600160a01b0316856001600160a01b03167fddf252ad1be2c89b69c2b068fc378daa952ba7f163c4a11628f55a4df523b3ef60405160405180910390a450505050565b6000828152601b6020526040902060038101546001600160a01b0316156123b65760038101546001600160a01b03163b1561232b5760405162461bcd60e51b8152602060048201526044602482018190527f2341737365745368656c6c235f6166746572546f6b656e5472616e7366657220908201527f3120596f75206e65656420746f20756e6c6f636b2074686520617373657420666064820152631a5c9cdd60e21b608482015260a4016108cf565b6001600160a01b0385163b6123b65760405162461bcd60e51b8152602060048201526044602482018190527f2341737365745368656c6c235f6166746572546f6b656e5472616e7366657220908201527f3220596f75206e65656420746f20756e6c6f636b2074686520617373657420666064820152631a5c9cdd60e21b608482015260a4016108cf565b60030180546001600160a01b0319166001600160a01b039590951694909417909355601c555050565b600061128083836129d2565b60008080806123fa86866129fc565b9097909650945050505050565b6000612414848484612a27565b90505b9392505050565b6000611283825490565b61243783826020015184612a73565b80516124439080612ad7565b60408101516017906124559082613a15565b5060608101516018906124689082613a15565b5060a08101516001600160a01b031615612486578060a00151612488565b305b60198054608084015163ffffffff16600160a01b026001600160c01b03199091166001600160a01b03939093169290921791909117905560c0810151601a906119379082613a15565b6124da81612b25565b50565b6124e9848484846120f8565b6124f584848484612ba7565b61255c5760405162461bcd60e51b815260206004820152603260248201527f4552433732313a207472616e7366657220746f206e6f6e20455243373231526560448201527131b2b4bb32b91034b6b83632b6b2b73a32b960711b60648201526084016108cf565b6119378484848461227a565b6060600061257583611ba1565b8051602082015160405163c87b56dd60e01b815260048101919091529192506001600160a01b03169063c87b56dd90602401600060405180830381865afa1580156125c4573d6000803e3d6000fd5b505050506040513d6000823e601f3d908101601f191682016040526124179190810190613d46565b60606000825160026125fe9190613807565b67ffffffffffffffff81111561261657612616613370565b6040519080825280601f01601f191660200182016040528015612640576020820181803683370190505b50905060005b835181101561273e57600084828151811061266357612663613dbd565b016020015160f881901c91506f181899199a1a9b1b9c1cb0b131b232b360811b9060fc1c6010811061269757612697613dbd565b1a60f81b83600184901b815181106126b1576126b1613dbd565b60200101906001600160f81b031916908160001a9053506f181899199a1a9b1b9c1cb0b131b232b360811b600f8216601081106126f0576126f0613dbd565b1a60f81b83612703600185811b90613dd3565b8151811061271357612713613dbd565b60200101906001600160f81b031916908160001a90535050808061273690613de6565b915050612646565b5092915050565b6060600061275283612c60565b600101905060008167ffffffffffffffff81111561277257612772613370565b6040519080825280601f01601f19166020018201604052801561279c576020820181803683370190505b5090508181016020015b600019016f181899199a1a9b1b9c1cb0b131b232b360811b600a86061a8153600a85049450846127a657509392505050565b60606112836001600160a01b0383166014612d38565b60006127f982611328565b6040805160208101909152600090529050612815600083611e4b565b6000828152601560205260409020805461282e906138a3565b15905061284c57600082815260156020526040812061284c9161320a565b6001600160a01b0381166000908152600d6020526040902061286e90836129c6565b5061287a600e83612ed4565b5060405182906000906001600160a01b038416907fddf252ad1be2c89b69c2b068fc378daa952ba7f163c4a11628f55a4df523b3ef908390a45050565b60006112808383612ee0565b60006001600160a01b0384163b6129335760405162461bcd60e51b815260206004820152602e60248201527f2341737365745368656c6c2361734552433732313a20494e564c4941445f434f60448201526d4e54524143545f4144445245535360901b60648201526084016108cf565b60405163c64df69d60e01b81526001600160a01b0385169063c64df69d906129619086908690600401613dff565b60006040518083038186803b15801561297957600080fd5b505afa15801561298d573d6000803e3d6000fd5b50959695505050505050565b60006112808383612eff565b600061241484846001600160a01b038516612f4e565b60006112838261241e565b60006112808383612f6b565b60008260000182815481106129e9576129e9613dbd565b9060005260206000200154905092915050565b60008080612a0a85856123df565b600081815260029690960160205260409095205494959350505050565b600082815260028401602052604081205480151580612a4b5750612a4b8585612ee0565b8390612a6a5760405162461bcd60e51b81526004016108cf91906132db565b50949350505050565b612a7b61305e565b612a8b630d64f40d60e31b6124d1565b600280546001600160a01b0319166001600160a01b0385161790556004612ab28382613a15565b50600380546001600160a01b0319166001600160a01b03929092169190911790555050565b6013612ae38382613a15565b506014612af08282613a15565b50612b016380ac58cd60e01b6124d1565b612b11635b5e139f60e01b6124d1565b612b2163780e9d6360e01b6124d1565b5050565b6001600160e01b03198082169003612b7f5760405162461bcd60e51b815260206004820152601c60248201527f4552433136353a20696e76616c696420696e746572666163652069640000000060448201526064016108cf565b6001600160e01b0319166000908152600160208190526040909120805460ff19169091179055565b60006001600160a01b0384163b612bc057506001611033565b6000630a85bd0160e11b33878686604051602401612be19493929190613d09565b604051602081830303815290604052906001600160e01b0319166020820180516001600160e01b038381831617835250505050905063150b7a0260e01b6001600160e01b031916612c4b8683604051806060016040528060328152602001613e9b6032913961313d565b6001600160e01b031916149695505050505050565b60008072184f03e93ff9f4daa797ed6e38ed64bf6a1f0160401b8310612c9f5772184f03e93ff9f4daa797ed6e38ed64bf6a1f0160401b830492506040015b6d04ee2d6d415b85acef81000000008310612ccb576d04ee2d6d415b85acef8100000000830492506020015b662386f26fc100008310612ce957662386f26fc10000830492506010015b6305f5e1008310612d01576305f5e100830492506008015b6127108310612d1557612710830492506004015b60648310612d27576064830492506002015b600a83106112835760010192915050565b60606000612d47836002613807565b612d52906002613dd3565b67ffffffffffffffff811115612d6a57612d6a613370565b6040519080825280601f01601f191660200182016040528015612d94576020820181803683370190505b509050600360fc1b81600081518110612daf57612daf613dbd565b60200101906001600160f81b031916908160001a905350600f60fb1b81600181518110612dde57612dde613dbd565b60200101906001600160f81b031916908160001a9053506000612e02846002613807565b612e0d906001613dd3565b90505b6001811115612e85576f181899199a1a9b1b9c1cb0b131b232b360811b85600f1660108110612e4157612e41613dbd565b1a60f81b828281518110612e5757612e57613dbd565b60200101906001600160f81b031916908160001a90535060049490941c93612e7e81613e21565b9050612e10565b5083156112805760405162461bcd60e51b815260206004820181905260248201527f537472696e67733a20686578206c656e67746820696e73756666696369656e7460448201526064016108cf565b600061128083836131ed565b6000611280838360008181526001830160205260408120541515611280565b6000818152600183016020526040812054612f4657508154600181810184556000848152602080822090930184905584548482528286019093526040902091909155611283565b506000611283565b600082815260028401602052604081208290556124148484612999565b60008181526001830160205260408120548015613054576000612f8f600183613e38565b8554909150600090612fa390600190613e38565b9050818114613008576000866000018281548110612fc357612fc3613dbd565b9060005260206000200154905080876000018481548110612fe657612fe6613dbd565b6000918252602080832090910192909255918252600188019052604090208390555b855486908061301957613019613e4b565b600190038181906000526020600020016000905590558560010160008681526020019081526020016000206000905560019350505050611283565b6000915050611283565b600054600160a81b900460ff16806130755750303b155b8061308a5750600054600160a01b900460ff16155b6130ed5760405162461bcd60e51b815260206004820152602e60248201527f436f6e747261637420696e7374616e63652068617320616c726561647920626560448201526d195b881a5b9a5d1a585b1a5e995960921b60648201526084016108cf565b600054600160a81b900460ff16158015613117576000805461ffff60a01b191661010160a01b1790555b6131276301ffc9a760e01b6124d1565b80156124da576000805460ff60a81b1916905550565b6000806000856001600160a01b03168560405161315a9190613e61565b6000604051808303816000865af19150503d8060008114613197576040519150601f19603f3d011682016040523d82523d6000602084013e61319c565b606091505b5091509150816131d0578051156131b65780518082602001fd5b8360405162461bcd60e51b81526004016108cf91906132db565b808060200190518101906131e49190613e7d565b92505050612417565b6000818152600283016020526040812081905561128083836129c6565b508054613216906138a3565b6000825580601f10613226575050565b601f0160209004906000526020600020908101906124da91905b808211156132545760008155600101613240565b5090565b6001600160e01b0319811681146124da57600080fd5b60006020828403121561328057600080fd5b813561128081613258565b60005b838110156132a657818101518382015260200161328e565b50506000910152565b600081518084526132c781602086016020860161328b565b601f01601f19169290920160200192915050565b60208152600061128060208301846132af565b60006020828403121561330057600080fd5b5035919050565b6001600160a01b03811681146124da57600080fd5b8035611c3f81613307565b60006020828403121561333957600080fd5b813561128081613307565b6000806040838503121561335757600080fd5b823561336281613307565b946020939093013593505050565b634e487b7160e01b600052604160045260246000fd5b60405160e0810167ffffffffffffffff811182821017156133a9576133a9613370565b60405290565b604051601f8201601f1916810167ffffffffffffffff811182821017156133d8576133d8613370565b604052919050565b600067ffffffffffffffff8211156133fa576133fa613370565b50601f01601f191660200190565b600061341b613416846133e0565b6133af565b905082815283838301111561342f57600080fd5b828260208301376000602084830101529392505050565b6000806000806080858703121561345c57600080fd5b843561346781613307565b9350602085013561347781613307565b925060408501359150606085013567ffffffffffffffff81111561349a57600080fd5b8501601f810187136134ab57600080fd5b6134ba87823560208401613408565b91505092959194509250565b6000806000606084860312156134db57600080fd5b83356134e681613307565b925060208401356134f681613307565b929592945050506040919091013590565b634e487b7160e01b600052602160045260246000fd5b6003811061353b57634e487b7160e01b600052602160045260246000fd5b9052565b60208101611283828461351d565b600082601f83011261355e57600080fd5b61128083833560208501613408565b60006020828403121561357f57600080fd5b813567ffffffffffffffff81111561359657600080fd5b6110338482850161354d565b803563ffffffff81168114611c3f57600080fd5b6000602082840312156135c857600080fd5b611280826135a2565b600080600080608085870312156135e757600080fd5b84356135f281613307565b9350602085013561360281613307565b925060408501356003811061361657600080fd5b9150606085013567ffffffffffffffff8082111561363357600080fd5b9086019060e0828903121561364757600080fd5b61364f613386565b82358281111561365e57600080fd5b61366a8a82860161354d565b82525060208301358281111561367f57600080fd5b61368b8a82860161354d565b6020830152506040830135828111156136a357600080fd5b6136af8a82860161354d565b6040830152506060830135828111156136c757600080fd5b6136d38a82860161354d565b6060830152506136e5608084016135a2565b60808201526136f660a0840161331c565b60a082015260c08301358281111561370d57600080fd5b6137198a82860161354d565b60c0830152509598949750929550505050565b80151581146124da57600080fd5b6000806040838503121561374d57600080fd5b823561375881613307565b915060208301356137688161372c565b809150509250929050565b6000806040838503121561378657600080fd5b823561379181613258565b9150602083013567ffffffffffffffff8111156137ad57600080fd5b6137b98582860161354d565b9150509250929050565b600080604083850312156137d657600080fd5b82356137e181613307565b9150602083013561376881613307565b634e487b7160e01b600052601160045260246000fd5b8082028115828204841417611283576112836137f1565b60008261383b57634e487b7160e01b600052601260045260246000fd5b500490565b60006020828403121561385257600080fd5b815161128081613307565b6001600160a01b038781168252602082018790528581166040830152841660608201526080810183905260c0810161389860a083018461351d565b979650505050505050565b600181811c908216806138b757607f821691505b6020821081036138d757634e487b7160e01b600052602260045260246000fd5b50919050565b60208082526036908201527f235065726d697373696f6e436865636b23436865636b2063616c6c657220646f60408201527532b9903737ba103430bb32903832b936b4b9b9b4b7b760511b606082015260800190565b6000806040838503121561394657600080fd5b825161395181613307565b6020939093015192949293505050565b60208082526031908201527f4552433732313a207472616e736665722063616c6c6572206973206e6f74206f6040820152701ddb995c881b9bdc88185c1c1c9bdd9959607a1b606082015260800190565b6000602082840312156139c457600080fd5b81516112808161372c565b601f821115610eb757600081815260208120601f850160051c810160208610156139f65750805b601f850160051c820191505b81811015610c1a57828155600101613a02565b815167ffffffffffffffff811115613a2f57613a2f613370565b613a4381613a3d84546138a3565b846139cf565b602080601f831160018114613a785760008415613a605750858301515b600019600386901b1c1916600185901b178555610c1a565b600085815260208120601f198616915b82811015613aa757888601518255948401946001909101908401613a88565b5085821015613ac55787850151600019600388901b60f8161c191681555b5050505050600190811b01905550565b60008151613ae781856020860161328b565b9290920192915050565b683f6e616d653d30787360b81b815260008251613b1581600985016020870161328b565b9190910160090192915050565b6f266465736372697074696f6e3d30787360801b815260008251613b4d81601085016020870161328b565b9190910160100192915050565b6926696d6167653d30787360b01b815260008251613b7f81600a85016020870161328b565b91909101600a0192915050565b712665787465726e616c5f6c696e6b3d30787360701b815260008251613bb981601285016020870161328b565b9190910160120192915050565b7f2673656c6c65725f6665655f62617369735f706f696e74733d00000000000000815260008251613bfe81601985016020870161328b565b9190910160190192915050565b6e266665655f726563697069656e743d60881b815260008251613c3581600f85016020870161328b565b91909101600f0192915050565b6000808954613c50816138a3565b60018281168015613c685760018114613c7d57613cac565b60ff1984168752821515830287019450613cac565b8d60005260208060002060005b85811015613ca35781548a820152908401908201613c8a565b50505082870194505b505050508851613cc0818360208d0161328b565b8851910190613cd3818360208c0161328b565b613cfa613cf4613cee613ce88486018c613ad5565b8a613ad5565b88613ad5565b86613ad5565b9b9a5050505050505050505050565b6001600160a01b0385811682528416602082015260408101839052608060608201819052600090613d3c908301846132af565b9695505050505050565b600060208284031215613d5857600080fd5b815167ffffffffffffffff811115613d6f57600080fd5b8201601f81018413613d8057600080fd5b8051613d8e613416826133e0565b818152856020838501011115613da357600080fd5b613db482602083016020860161328b565b95945050505050565b634e487b7160e01b600052603260045260246000fd5b80820180821115611283576112836137f1565b600060018201613df857613df86137f1565b5060010190565b63ffffffff60e01b8316815260406020820152600061241460408301846132af565b600081613e3057613e306137f1565b506000190190565b81810381811115611283576112836137f1565b634e487b7160e01b600052603160045260246000fd5b60008251613e7381846020870161328b565b9190910192915050565b600060208284031215613e8f57600080fd5b81516112808161325856fe4552433732313a207472616e7366657220746f206e6f6e20455243373231526563656976657220696d706c656d656e7465724552433732313a206f776e657220717565727920666f72206e6f6e6578697374656e7420746f6b656e2341737365745368656c6c23617345524337323120546865204e465420636f6e74726163742068617320616e20696e76616c69642045524337323120696d706c656d656e746174696f6e7016719027ff29c13bc4816903851ea968172a86b766c733b954fdabe53c87eea2646970667358221220938a7f165d045bdc5d9ef136ac9cc6c5f1dc84fb26e859603d4c5e06b1b340d664736f6c63430008110033",
  "immutableReferences": {},
  "source": "// SPDX-License-Identifier: MIT\npragma solidity 0.8.17;\n\npragma experimental ABIEncoderV2;\n\nimport './Asset.sol';\n\ncontract AssetShell is AssetBase, IAssetShell {\n\tusing Address for address;\n\n\tbytes4 private constant _ERC721_RECEIVED = 0x150b7a02;\n\tbytes4 private constant _INTERFACE_ID_ERC721 = 0x80ac58cd;\n\n\tstruct AssetData {\n\t\tAssetID meta; // asset meta data\n\t\tuint256 minimumPrice; // Minimum transaction price of assets\n\t\taddress locked; // Previous asset owner address\n\t}\n\n\tmapping(uint256 => AssetData) private _assetsData;   // tokenId => raw asset id\n\tuint256                       private _lastLocked;\n\tSaleType                      public  saleType; // is opensea first or second sale\n\tuint256[16]                   private  __; // reserved storage space\n\n\tfunction initAssetShell(address host, address operator, SaleType _saleType, InitContractURI memory uri) external {\n\t\tinitAssetBase(host, operator, uri);\n\t\t_registerInterface(AssetShell_Type);\n\t\t_registerInterface(_ERC721_RECEIVED);\n\t\tsaleType = _saleType;\n\t}\n\n\t/**\n\t * @dev convert addr to standard ERC721 NFT,will be revered if add is invalid.\n\t */ \n\tfunction checkERC721(address addr, bytes4 id, string memory message) view internal returns (IERC721) {\n\t\trequire(addr.isContract(), \"#AssetShell#asERC721: INVLIAD_CONTRACT_ADDRESS\");\n\t\tIERC165_1(addr).checkInterface(id, message);\n\t\treturn IERC721(addr);\n\t}\n\n\tfunction asERC721(address addr) view internal returns (IERC721) {\n\t\treturn checkERC721(addr, _INTERFACE_ID_ERC721, \"#AssetShell#asERC721 The NFT contract has an invalid ERC721 implementation\");\n\t}\n\n\t/**\n\t * @dev implement ERC721 asset receiving agreement\n\t */\n\tfunction onERC721Received(\n\t\taddress operator, address from, uint256 tokenId, bytes memory data\n\t) external override returns (bytes4) {\n\t\tIERC721 token = asERC721(_msgSender());\n\t\tuint256 id = convertTokenID(address(token), tokenId);\n\t\tAssetData storage ad = _assetsData[id];\n\n\t\taddress to;\n\t\tuint256 price;\n\n\t\t(to,price) = abi.decode(data, (address, uint256));\n\n\t\trequire(ad.meta.token == address(0), \"#AssetShell#onERC721Received mint of asset already exists\");\n\t\trequire(from != address(this), \"#AssetShell#onERC721Received from not for myself\");\n\n\t\tad.meta.token = address(token);\n\t\tad.meta.tokenId = tokenId;\n\t\tad.minimumPrice = price;\n\n\t\t_mint(to, id);\n\n\t\treturn _ERC721_RECEIVED;\n\t}\n\n\t/**\n\t * @dev convertTokenID() convert meta token and token id to token id\n\t */\n\tfunction convertTokenID(address metaToken, uint256 metaTokenId) pure public returns (uint256) {\n\t\treturn uint256(keccak256(abi.encodePacked(metaToken, metaTokenId)));\n\t}\n\n\tfunction _tokenURI(uint256 tokenId) internal view override returns (string memory) {\n\t\tAssetID memory meta = assetMeta(tokenId);\n\t\treturn IERC721Metadata(meta.token).tokenURI(meta.tokenId);\n\t}\n\n\t/**\n\t * @dev assetMeta(tokenId) Returns the asset meta data of this tokenId\n\t */\n\tfunction assetMeta(uint256 tokenId) view public override returns (AssetID memory meta) {\n\t\tmeta = _assetsData[tokenId].meta;\n\t\trequire(meta.token != address(0), \"#AssetShell#assetMeta asset non exists\");\n\t}\n\n\t/**\n\t * @dev withdraw() withdraw and unlock meta asset\n\t */\n\tfunction withdraw(uint256 tokenId) external override Check(Action_Asset_Shell_Withdraw) {\n\t\tAssetID storage meta = _assetsData[tokenId].meta;\n\t\trequire(meta.token != address(0), \"#AssetShell#withdraw withdraw of asset non exists\");\n\t\twithdrawTo(tokenId, ownerOf(tokenId), \"\");\n\t}\n\n\t/**\n\t * @dev withdrawTo() implement withdraw and unlock meta asset, internal method\n\t */\n\tfunction withdrawTo(uint256 tokenId, address to, bytes memory data) internal {\n\t\tAssetID storage meta = _assetsData[tokenId].meta;\n\t\tIERC721(meta.token).safeTransferFrom(address(this), to, meta.tokenId, data);\n\t\tdelete _assetsData[tokenId]; // delete asset data\n\t\t_burn(tokenId);\n\t}\n\n\t/**\n\t * @dev Returns whether the token is locked\n\t */\n\tfunction isLocked(uint256 tokenId) view public returns (bool) {\n\t\treturn _assetsData[tokenId].locked != address(0);\n\t}\n\n\t/**\n\t * @dev minimumPrice(tokenId) Returns the minimum price of this tokenId asset\n\t */\n\tfunction minimumPrice(uint256 tokenId) view public returns (uint256) {\n\t\treturn _assetsData[tokenId].minimumPrice;\n\t}\n\n\t/**\n\t * @dev called after token transfer\n\t */\n\tfunction _afterTokenTransfer(address from, address to, uint256 tokenId, bytes memory _data) internal virtual override {\n\t\tAssetData storage ad = _assetsData[tokenId];\n\n\t\tif (ad.locked != address(0)) { //  transfer out from the exchange\n\t\t\t// Non contract transfer out needs to be unlocked first and the last lock cannot be a contract\n\t\t\trequire(!ad.locked.isContract(), \"#AssetShell#_afterTokenTransfer 1 You need to unlock the asset first\");\n\t\t\trequire(from.isContract(), \"#AssetShell#_afterTokenTransfer 2 You need to unlock the asset first\");\n\t\t}\n\t\tad.locked = from; // lock asset\n\t\t_lastLocked = tokenId;\n\t}\n\n\t/**\n\t * @dev unlock() receive eth transaction and unlock asset\n\t */\n\tfunction unlock(uint256 tokenId) public payable {\n\t\trequire(tokenId != 0, \"#AssetShell#unlock locked tokenId != 0\");\n\t\trequire(msg.value != 0, \"#AssetShell#unlock msg.value != 0\"); // price\n\n\t\tAssetData storage ad = _assetsData[tokenId];\n\t\trequire(ad.locked != address(0), \"#AssetShell#unlock Lock cannot be empty\"); // price\n\n\t\taddress to = ownerOf(tokenId);\n\t\tuint256 price = msg.value * 10_000 / seller_fee_basis_points; // transfer price\n\n\t\t// check transfer price\n\t\trequire(price >= ad.minimumPrice, \"#AssetShell#unlock price >= minimum price\"); // price\n\n\t\tAssetID storage meta = ad.meta;\n\t\t_host.ledger().assetIncome{value: msg.value}(meta.token, meta.tokenId, msg.sender, to, price, saleType);\n\n\t\tif (_lastLocked == tokenId)\n\t\t\t_lastLocked = 0;\n\n\t\tad.locked = address(0); // unlock\n\n\t\tif (saleType == SaleType.kFirst) {\n\t\t\tbytes memory data = abi.encode(to, ad.minimumPrice);\n\t\t\twithdrawTo(tokenId, address(_host.module(Module_ASSET_Second_ID)), data);\n\t\t}\n\t}\n\n\t/**\n\t * @dev receive eth token\n\t */\n\treceive() external payable {\n\t\tunlock(_lastLocked); // unlock last locked\n\t}\n}\n",
  "sourcePath": "/Users/louis/Project/hc/NFTSwap/SmartHolder/contracts/AssetShell.sol",
  "compiler": {
    "name": "solc",
    "version": "0.8.17+commit.8df45f5f.Emscripten.clang"
  },
  "schemaVersion": "3.4.11",
  "updatedAt": "2023-03-20T04:29:27.777Z",
  "networkType": "ethereum",
  "devdoc": {
    "kind": "dev",
    "methods": {
      "approve(address,uint256)": {
        "details": "Approves another address to transfer the given token ID The zero address indicates there is no approved address. There can only be one approved address per token at a given time. Can only be called by the token owner or an approved operator.",
        "params": {
          "to": "address to be approved for the given token ID",
          "tokenId": "uint256 ID of the token to be approved"
        }
      },
      "assetMeta(uint256)": {
        "details": "assetMeta(tokenId) Returns the asset meta data of this tokenId"
      },
      "balanceOf(address)": {
        "details": "Gets the balance of the specified address.",
        "params": {
          "owner": "address to query the balance of"
        },
        "returns": {
          "_0": "uint256 representing the amount owned by the passed address"
        }
      },
      "baseURI()": {
        "details": "Returns the base URI set via {_setBaseURI}. This will be automatically added as a prefix in {tokenURI} to each token's URI, or to the token ID if no specific URI is set for that token ID."
      },
      "convertTokenID(address,uint256)": {
        "details": "convertTokenID() convert meta token and token id to token id"
      },
      "getApproved(uint256)": {
        "details": "Gets the approved address for a token ID, or zero if no address set Reverts if the token ID does not exist.",
        "params": {
          "tokenId": "uint256 ID of the token to query the approval of"
        },
        "returns": {
          "_0": "address currently approved for the given token ID"
        }
      },
      "isApprovedForAll(address,address)": {
        "details": "Tells whether an operator is approved by a given owner.",
        "params": {
          "operator": "operator address which you want to query the approval of",
          "owner": "owner address which you want to query the approval of"
        },
        "returns": {
          "_0": "bool whether the given operator is approved by the given owner"
        }
      },
      "isLocked(uint256)": {
        "details": "Returns whether the token is locked"
      },
      "minimumPrice(uint256)": {
        "details": "minimumPrice(tokenId) Returns the minimum price of this tokenId asset"
      },
      "name()": {
        "details": "Gets the token name.",
        "returns": {
          "_0": "string representing the token name"
        }
      },
      "onERC721Received(address,address,uint256,bytes)": {
        "details": "implement ERC721 asset receiving agreement"
      },
      "ownerOf(uint256)": {
        "details": "Gets the owner of the specified token ID.",
        "params": {
          "tokenId": "uint256 ID of the token to query the owner of"
        },
        "returns": {
          "_0": "address currently marked as the owner of the given token ID"
        }
      },
      "safeTransferFrom(address,address,uint256)": {
        "details": "Safely transfers the ownership of a given token ID to another address If the target address is a contract, it must implement {IERC721Receiver-onERC721Received}, which is called upon a safe transfer, and return the magic value `bytes4(keccak256(\"onERC721Received(address,address,uint256,bytes)\"))`; otherwise, the transfer is reverted. Requires the msg.sender to be the owner, approved, or operator",
        "params": {
          "from": "current owner of the token",
          "to": "address to receive the ownership of the given token ID",
          "tokenId": "uint256 ID of the token to be transferred"
        }
      },
      "safeTransferFrom(address,address,uint256,bytes)": {
        "details": "Safely transfers the ownership of a given token ID to another address If the target address is a contract, it must implement {IERC721Receiver-onERC721Received}, which is called upon a safe transfer, and return the magic value `bytes4(keccak256(\"onERC721Received(address,address,uint256,bytes)\"))`; otherwise, the transfer is reverted. Requires the _msgSender() to be the owner, approved, or operator",
        "params": {
          "_data": "bytes data to send along with a safe transfer check",
          "from": "current owner of the token",
          "to": "address to receive the ownership of the given token ID",
          "tokenId": "uint256 ID of the token to be transferred"
        }
      },
      "setApprovalForAll(address,bool)": {
        "details": "Sets or unsets the approval of a given operator An operator is allowed to transfer all tokens of the sender on their behalf.",
        "params": {
          "approved": "representing the status of the approval to be set",
          "operator": "operator address to set the approval"
        }
      },
      "supportsInterface(bytes4)": {
        "details": "See {IERC165-supportsInterface}. Time complexity O(1), guaranteed to always use less than 30 000 gas."
      },
      "symbol()": {
        "details": "Gets the token symbol.",
        "returns": {
          "_0": "string representing the token symbol"
        }
      },
      "tokenByIndex(uint256)": {
        "details": "Gets the token ID at a given index of all the tokens in this contract Reverts if the index is greater or equal to the total number of tokens.",
        "params": {
          "index": "uint256 representing the index to be accessed of the tokens list"
        },
        "returns": {
          "_0": "uint256 token ID at the given index of the tokens list"
        }
      },
      "tokenOfOwnerByIndex(address,uint256)": {
        "details": "Gets the token ID at a given index of the tokens list of the requested owner.",
        "params": {
          "index": "uint256 representing the index to be accessed of the requested tokens list",
          "owner": "address owning the tokens list to be accessed"
        },
        "returns": {
          "_0": "uint256 token ID at the given index of the tokens list owned by the requested address"
        }
      },
      "tokenURI(uint256)": {
        "details": "Returns the Uniform Resource Identifier (URI) for `tokenId` token."
      },
      "totalSupply()": {
        "details": "Gets the total amount of tokens stored by the contract.",
        "returns": {
          "_0": "uint256 representing the total amount of tokens"
        }
      },
      "transferFrom(address,address,uint256)": {
        "details": "Transfers the ownership of a given token ID to another address. Usage of this method is discouraged, use {safeTransferFrom} whenever possible. Requires the msg.sender to be the owner, approved, or operator.",
        "params": {
          "from": "current owner of the token",
          "to": "address to receive the ownership of the given token ID",
          "tokenId": "uint256 ID of the token to be transferred"
        }
      },
      "unlock(uint256)": {
        "details": "unlock() receive eth transaction and unlock asset"
      },
      "withdraw(uint256)": {
        "details": "withdraw() withdraw and unlock meta asset"
      }
    },
    "version": 1
  },
  "userdoc": {
    "kind": "user",
    "methods": {},
    "version": 1
  }
}