{
  "contractName": "AssetShell",
  "abi": [
    {
      "anonymous": false,
      "inputs": [
        {
          "indexed": true,
          "internalType": "address",
          "name": "owner",
          "type": "address"
        },
        {
          "indexed": true,
          "internalType": "address",
          "name": "approved",
          "type": "address"
        },
        {
          "indexed": true,
          "internalType": "uint256",
          "name": "tokenId",
          "type": "uint256"
        }
      ],
      "name": "Approval",
      "type": "event"
    },
    {
      "anonymous": false,
      "inputs": [
        {
          "indexed": true,
          "internalType": "address",
          "name": "owner",
          "type": "address"
        },
        {
          "indexed": true,
          "internalType": "address",
          "name": "operator",
          "type": "address"
        },
        {
          "indexed": false,
          "internalType": "bool",
          "name": "approved",
          "type": "bool"
        }
      ],
      "name": "ApprovalForAll",
      "type": "event"
    },
    {
      "anonymous": false,
      "inputs": [
        {
          "indexed": true,
          "internalType": "address",
          "name": "from",
          "type": "address"
        },
        {
          "indexed": true,
          "internalType": "address",
          "name": "to",
          "type": "address"
        },
        {
          "indexed": true,
          "internalType": "uint256",
          "name": "tokenId",
          "type": "uint256"
        }
      ],
      "name": "Transfer",
      "type": "event"
    },
    {
      "inputs": [
        {
          "internalType": "address",
          "name": "to",
          "type": "address"
        },
        {
          "internalType": "uint256",
          "name": "tokenId",
          "type": "uint256"
        }
      ],
      "name": "approve",
      "outputs": [],
      "stateMutability": "nonpayable",
      "type": "function"
    },
    {
      "inputs": [
        {
          "internalType": "address",
          "name": "owner",
          "type": "address"
        }
      ],
      "name": "balanceOf",
      "outputs": [
        {
          "internalType": "uint256",
          "name": "",
          "type": "uint256"
        }
      ],
      "stateMutability": "view",
      "type": "function"
    },
    {
      "inputs": [],
      "name": "baseURI",
      "outputs": [
        {
          "internalType": "string",
          "name": "",
          "type": "string"
        }
      ],
      "stateMutability": "view",
      "type": "function"
    },
    {
      "inputs": [
        {
          "internalType": "bytes4",
          "name": "interfaceId",
          "type": "bytes4"
        },
        {
          "internalType": "string",
          "name": "message",
          "type": "string"
        }
      ],
      "name": "checkInterface",
      "outputs": [],
      "stateMutability": "view",
      "type": "function"
    },
    {
      "inputs": [],
      "name": "contractURI",
      "outputs": [
        {
          "internalType": "string",
          "name": "",
          "type": "string"
        }
      ],
      "stateMutability": "view",
      "type": "function"
    },
    {
      "inputs": [],
      "name": "description",
      "outputs": [
        {
          "internalType": "string",
          "name": "",
          "type": "string"
        }
      ],
      "stateMutability": "view",
      "type": "function"
    },
    {
      "inputs": [
        {
          "internalType": "uint256",
          "name": "id",
          "type": "uint256"
        }
      ],
      "name": "exists",
      "outputs": [
        {
          "internalType": "bool",
          "name": "",
          "type": "bool"
        }
      ],
      "stateMutability": "view",
      "type": "function"
    },
    {
      "inputs": [
        {
          "internalType": "uint256",
          "name": "tokenId",
          "type": "uint256"
        }
      ],
      "name": "getApproved",
      "outputs": [
        {
          "internalType": "address",
          "name": "",
          "type": "address"
        }
      ],
      "stateMutability": "view",
      "type": "function"
    },
    {
      "inputs": [],
      "name": "host",
      "outputs": [
        {
          "internalType": "contract IDAO",
          "name": "",
          "type": "address"
        }
      ],
      "stateMutability": "view",
      "type": "function"
    },
    {
      "inputs": [],
      "name": "impl",
      "outputs": [
        {
          "internalType": "address",
          "name": "",
          "type": "address"
        }
      ],
      "stateMutability": "view",
      "type": "function"
    },
    {
      "inputs": [
        {
          "internalType": "address",
          "name": "owner",
          "type": "address"
        },
        {
          "internalType": "address",
          "name": "operator",
          "type": "address"
        }
      ],
      "name": "isApprovedForAll",
      "outputs": [
        {
          "internalType": "bool",
          "name": "",
          "type": "bool"
        }
      ],
      "stateMutability": "view",
      "type": "function"
    },
    {
      "inputs": [],
      "name": "lastTransfer",
      "outputs": [
        {
          "internalType": "address",
          "name": "from",
          "type": "address"
        },
        {
          "internalType": "address",
          "name": "to",
          "type": "address"
        },
        {
          "internalType": "uint256",
          "name": "blockNumber",
          "type": "uint256"
        },
        {
          "internalType": "uint256",
          "name": "tokenId",
          "type": "uint256"
        }
      ],
      "stateMutability": "view",
      "type": "function"
    },
    {
      "inputs": [],
      "name": "name",
      "outputs": [
        {
          "internalType": "string",
          "name": "",
          "type": "string"
        }
      ],
      "stateMutability": "view",
      "type": "function"
    },
    {
      "inputs": [],
      "name": "operator",
      "outputs": [
        {
          "internalType": "contract IVotePool",
          "name": "",
          "type": "address"
        }
      ],
      "stateMutability": "view",
      "type": "function"
    },
    {
      "inputs": [
        {
          "internalType": "uint256",
          "name": "tokenId",
          "type": "uint256"
        }
      ],
      "name": "ownerOf",
      "outputs": [
        {
          "internalType": "address",
          "name": "",
          "type": "address"
        }
      ],
      "stateMutability": "view",
      "type": "function"
    },
    {
      "inputs": [
        {
          "internalType": "address",
          "name": "from",
          "type": "address"
        },
        {
          "internalType": "address",
          "name": "to",
          "type": "address"
        },
        {
          "internalType": "uint256",
          "name": "tokenId",
          "type": "uint256"
        }
      ],
      "name": "safeTransferFrom",
      "outputs": [],
      "stateMutability": "nonpayable",
      "type": "function"
    },
    {
      "inputs": [
        {
          "internalType": "address",
          "name": "from",
          "type": "address"
        },
        {
          "internalType": "address",
          "name": "to",
          "type": "address"
        },
        {
          "internalType": "uint256",
          "name": "tokenId",
          "type": "uint256"
        },
        {
          "internalType": "bytes",
          "name": "_data",
          "type": "bytes"
        }
      ],
      "name": "safeTransferFrom",
      "outputs": [],
      "stateMutability": "nonpayable",
      "type": "function"
    },
    {
      "inputs": [],
      "name": "saleType",
      "outputs": [
        {
          "internalType": "enum IAssetShell.SaleType",
          "name": "",
          "type": "uint8"
        }
      ],
      "stateMutability": "view",
      "type": "function"
    },
    {
      "inputs": [
        {
          "internalType": "address",
          "name": "operator",
          "type": "address"
        },
        {
          "internalType": "bool",
          "name": "approved",
          "type": "bool"
        }
      ],
      "name": "setApprovalForAll",
      "outputs": [],
      "stateMutability": "nonpayable",
      "type": "function"
    },
    {
      "inputs": [
        {
          "internalType": "address",
          "name": "vote",
          "type": "address"
        }
      ],
      "name": "setOperator",
      "outputs": [],
      "stateMutability": "nonpayable",
      "type": "function"
    },
    {
      "inputs": [
        {
          "internalType": "bytes4",
          "name": "interfaceId",
          "type": "bytes4"
        }
      ],
      "name": "supportsInterface",
      "outputs": [
        {
          "internalType": "bool",
          "name": "",
          "type": "bool"
        }
      ],
      "stateMutability": "view",
      "type": "function"
    },
    {
      "inputs": [],
      "name": "symbol",
      "outputs": [
        {
          "internalType": "string",
          "name": "",
          "type": "string"
        }
      ],
      "stateMutability": "view",
      "type": "function"
    },
    {
      "inputs": [
        {
          "internalType": "uint256",
          "name": "index",
          "type": "uint256"
        }
      ],
      "name": "tokenByIndex",
      "outputs": [
        {
          "internalType": "uint256",
          "name": "",
          "type": "uint256"
        }
      ],
      "stateMutability": "view",
      "type": "function"
    },
    {
      "inputs": [
        {
          "internalType": "address",
          "name": "owner",
          "type": "address"
        },
        {
          "internalType": "uint256",
          "name": "index",
          "type": "uint256"
        }
      ],
      "name": "tokenOfOwnerByIndex",
      "outputs": [
        {
          "internalType": "uint256",
          "name": "",
          "type": "uint256"
        }
      ],
      "stateMutability": "view",
      "type": "function"
    },
    {
      "inputs": [
        {
          "internalType": "uint256",
          "name": "tokenId",
          "type": "uint256"
        }
      ],
      "name": "tokenURI",
      "outputs": [
        {
          "internalType": "string",
          "name": "",
          "type": "string"
        }
      ],
      "stateMutability": "view",
      "type": "function"
    },
    {
      "inputs": [],
      "name": "totalSupply",
      "outputs": [
        {
          "internalType": "uint256",
          "name": "",
          "type": "uint256"
        }
      ],
      "stateMutability": "view",
      "type": "function"
    },
    {
      "inputs": [
        {
          "internalType": "address",
          "name": "from",
          "type": "address"
        },
        {
          "internalType": "address",
          "name": "to",
          "type": "address"
        },
        {
          "internalType": "uint256",
          "name": "tokenId",
          "type": "uint256"
        }
      ],
      "name": "transferFrom",
      "outputs": [],
      "stateMutability": "nonpayable",
      "type": "function"
    },
    {
      "inputs": [
        {
          "internalType": "address",
          "name": "impl",
          "type": "address"
        }
      ],
      "name": "upgrade",
      "outputs": [],
      "stateMutability": "nonpayable",
      "type": "function"
    },
    {
      "stateMutability": "payable",
      "type": "receive"
    },
    {
      "inputs": [
        {
          "internalType": "address",
          "name": "host",
          "type": "address"
        },
        {
          "internalType": "string",
          "name": "description",
          "type": "string"
        },
        {
          "internalType": "address",
          "name": "operator",
          "type": "address"
        },
        {
          "internalType": "string",
          "name": "_contractURI",
          "type": "string"
        },
        {
          "internalType": "enum IAssetShell.SaleType",
          "name": "_saleType",
          "type": "uint8"
        }
      ],
      "name": "initAssetShell",
      "outputs": [],
      "stateMutability": "nonpayable",
      "type": "function"
    },
    {
      "inputs": [
        {
          "internalType": "string",
          "name": "_contractURI",
          "type": "string"
        }
      ],
      "name": "setContractURI",
      "outputs": [],
      "stateMutability": "nonpayable",
      "type": "function"
    },
    {
      "inputs": [
        {
          "internalType": "address",
          "name": "operator",
          "type": "address"
        },
        {
          "internalType": "address",
          "name": "from",
          "type": "address"
        },
        {
          "internalType": "uint256",
          "name": "tokenId",
          "type": "uint256"
        },
        {
          "internalType": "bytes",
          "name": "data",
          "type": "bytes"
        }
      ],
      "name": "onERC721Received",
      "outputs": [
        {
          "internalType": "bytes4",
          "name": "",
          "type": "bytes4"
        }
      ],
      "stateMutability": "nonpayable",
      "type": "function"
    },
    {
      "inputs": [
        {
          "internalType": "address",
          "name": "metaToken",
          "type": "address"
        },
        {
          "internalType": "uint256",
          "name": "metaTokenId",
          "type": "uint256"
        }
      ],
      "name": "convertTokenID",
      "outputs": [
        {
          "internalType": "uint256",
          "name": "",
          "type": "uint256"
        }
      ],
      "stateMutability": "pure",
      "type": "function"
    },
    {
      "inputs": [
        {
          "internalType": "uint256",
          "name": "tokenId",
          "type": "uint256"
        }
      ],
      "name": "assetMeta",
      "outputs": [
        {
          "components": [
            {
              "internalType": "address",
              "name": "token",
              "type": "address"
            },
            {
              "internalType": "uint256",
              "name": "tokenId",
              "type": "uint256"
            }
          ],
          "internalType": "struct IAssetShell.AssetID",
          "name": "asset",
          "type": "tuple"
        }
      ],
      "stateMutability": "view",
      "type": "function"
    },
    {
      "inputs": [
        {
          "internalType": "uint256",
          "name": "tokenId",
          "type": "uint256"
        }
      ],
      "name": "withdraw",
      "outputs": [],
      "stateMutability": "nonpayable",
      "type": "function"
    }
  ],
  "bytecode": "0x608060405234801561001057600080fd5b506132eb806100206000396000f3fe6080604052600436106101fd5760003560e01c80636c0360eb1161010d578063b3ab15fb116100a0578063e84d26961161006f578063e84d2696146107e6578063e8a3d4851461080b578063e985e9c514610820578063f437bc5914610840578063f9b62b7a1461085557610440565b8063b3ab15fb14610766578063b88d4fde14610786578063c64df69d146107a6578063c87b56dd146107c657610440565b806391d81889116100dc57806391d81889146106f1578063938e3d7b1461071157806395d89b4114610731578063a22cb4651461074657610440565b80636c0360eb1461069257806370a08231146106a75780637284e416146106c75780638abf6077146106dc57610440565b806323b872dd116101905780634f558e791161015f5780634f558e79146105fb5780634f6ccce71461061b578063570ca7351461063b5780635bcc7928146106505780636352211e1461067257610440565b806323b872dd1461057b5780632e1a7d4d1461059b5780632f745c59146105bb57806342842e0e146105db57610440565b8063095ea7b3116101cc578063095ea7b3146104ec578063150b7a021461050c57806318160ddd1461053957806320809a261461055b57610440565b806301ffc9a71461044557806306fdde031461047b578063081812fc1461049d5780630900f010146104ca57610440565b3661044057346102285760405162461bcd60e51b815260040161021f90612f1f565b60405180910390fd5b6012546102475760405162461bcd60e51b815260040161021f90612bf3565b61024f6122fd565b60125461025b90610882565b9050600360009054906101000a90046001600160a01b03166001600160a01b03166356397c356040518163ffffffff1660e01b815260040160206040518083038186803b1580156102ab57600080fd5b505afa1580156102bf573d6000803e3d6000fd5b505050506040513d601f19601f820116820180604052508101906102e39190612456565b60105482516020840151601354604051632614a96160e21b81526001600160a01b0395861695639852a58495349561032a9592909116939092339160ff1690600401612884565b6000604051808303818588803b15801561034357600080fd5b505af1158015610357573d6000803e3d6000fd5b506001935061036592505050565b60135460ff16600281111561037657fe5b14156104385760105460405160609161039d916001600160a01b03909116906020016127d8565b60408051601f19818403018152828252601254600354637e76176f60e01b855292519194506104369390926001600160a01b031691637e76176f91600480820192602092909190829003018186803b1580156103f857600080fd5b505afa15801561040c573d6000803e3d6000fd5b505050506040513d601f19601f820116820180604052508101906104309190612456565b836108e1565b505b506000601255005b600080fd5b34801561045157600080fd5b50610465610460366004612668565b61098b565b60405161047291906128ee565b60405180910390f35b34801561048757600080fd5b506104906109aa565b60405161047291906129f7565b3480156104a957600080fd5b506104bd6104b8366004612794565b610a41565b6040516104729190612833565b3480156104d657600080fd5b506104ea6104e536600461243a565b610a84565b005b3480156104f857600080fd5b506104ea610507366004612621565b610aca565b34801561051857600080fd5b5061052c6105273660046124ea565b610b62565b60405161047291906128f9565b34801561054557600080fd5b5061054e610c44565b6040516104729190613157565b34801561056757600080fd5b506104ea610576366004612581565b610c55565b34801561058757600080fd5b506104ea6105963660046124aa565b610cb9565b3480156105a757600080fd5b506104ea6105b6366004612794565b610d01565b3480156105c757600080fd5b5061054e6105d6366004612621565b610d80565b3480156105e757600080fd5b506104ea6105f63660046124aa565b610dab565b34801561060757600080fd5b50610465610616366004612794565b610dc6565b34801561062757600080fd5b5061054e610636366004612794565b610dd1565b34801561064757600080fd5b506104bd610de7565b34801561065c57600080fd5b50610665610df6565b60405161047291906129e3565b34801561067e57600080fd5b506104bd61068d366004612794565b610dff565b34801561069e57600080fd5b50610490610e27565b3480156106b357600080fd5b5061054e6106c236600461243a565b610e88565b3480156106d357600080fd5b50610490610ed1565b3480156106e857600080fd5b506104bd610f32565b3480156106fd57600080fd5b5061054e61070c366004612621565b610f41565b34801561071d57600080fd5b506104ea61072c3660046126ee565b610f75565b34801561073d57600080fd5b50610490610f88565b34801561075257600080fd5b506104ea610761366004612554565b610fe9565b34801561077257600080fd5b506104ea61078136600461243a565b6110b7565b34801561079257600080fd5b506104ea6107a13660046124ea565b6110e7565b3480156107b257600080fd5b506104ea6107c13660046126a0565b611120565b3480156107d257600080fd5b506104906107e1366004612794565b611148565b3480156107f257600080fd5b506107fb611153565b60405161047294939291906128c5565b34801561081757600080fd5b50610490611172565b34801561082c57600080fd5b5061046561083b366004612472565b611200565b34801561084c57600080fd5b506104bd61122e565b34801561086157600080fd5b50610875610870366004612794565b610882565b6040516104729190613137565b61088a6122fd565b506000818152600e6020908152604091829020825180840190935280546001600160a01b0316808452600190910154918301919091526108dc5760405162461bcd60e51b815260040161021f90612aed565b919050565b6000838152600e602052604090819020805460018201549251635c46a7ef60e11b815291926001600160a01b039091169163b88d4fde9161092a91309188918890600401612847565b600060405180830381600087803b15801561094457600080fd5b505af1158015610958573d6000803e3d6000fd5b5050506000858152600e6020526040812080546001600160a01b031916815560010155506109858461123d565b50505050565b6001600160e01b03191660009081526001602052604090205460ff1690565b600a8054604080516020601f6002600019610100600188161502019095169490940493840181900481028201810190925282815260609390929091830182828015610a365780601f10610a0b57610100808354040283529160200191610a36565b820191906000526020600020905b815481529060010190602001808311610a1957829003601f168201915b505050505090505b90565b6000610a4c8261131a565b610a685760405162461bcd60e51b815260040161021f90612ed3565b506000908152600860205260409020546001600160a01b031690565b610a8c611327565b610aa85760405162461bcd60e51b815260040161021f90612a9a565b600080546001600160a01b0319166001600160a01b0392909216919091179055565b6000610ad582610dff565b9050806001600160a01b0316836001600160a01b03161415610b095760405162461bcd60e51b815260040161021f90612ff8565b806001600160a01b0316610b1b611486565b6001600160a01b03161480610b375750610b378161083b611486565b610b535760405162461bcd60e51b815260040161021f90612d64565b610b5d8383611490565b505050565b600080610b75610b70611486565b6114fe565b90506000610b838286610f41565b6000818152600e6020526040902085519192509015610bb35784806020019051810190610bb09190612456565b96505b80546001600160a01b031615610bdb5760405162461bcd60e51b815260040161021f906130da565b6001600160a01b038716301415610c045760405162461bcd60e51b815260040161021f9061308a565b80546001600160a01b0319166001600160a01b03841617815560018101869055610c2e878361152a565b50630a85bd0160e11b925050505b949350505050565b6000610c5060066115fe565b905090565b610c60858585611609565b610c706343234e9560e01b6116ba565b610c80630a85bd0160e11b6116ba565b8151610c93906014906020850190612314565b506013805482919060ff19166001836002811115610cad57fe5b02179055505050505050565b610cca610cc4611486565b826116c3565b610ce65760405162461bcd60e51b815260040161021f90613039565b610b5d83838360405180602001604052806000815250611740565b610d09611327565b610d255760405162461bcd60e51b815260040161021f90612a9a565b6000818152600e6020526040902080546001600160a01b0316610d5a5760405162461bcd60e51b815260040161021f90612dc1565b610d7c82610d6784610dff565b604051806020016040528060008152506108e1565b5050565b6001600160a01b0382166000908152600560205260408120610da29083611850565b90505b92915050565b610b5d838383604051806020016040528060008152506110e7565b6000610da58261131a565b600080610ddf60068461185c565b509392505050565b6002546001600160a01b031690565b60135460ff1681565b6000610da5826040518060600160405280602981526020016132436029913960069190611878565b600d8054604080516020601f6002600019610100600188161502019095169490940493840181900481028201810190925282815260609390929091830182828015610a365780601f10610a0b57610100808354040283529160200191610a36565b60006001600160a01b038216610eb05760405162461bcd60e51b815260040161021f90612e12565b6001600160a01b0382166000908152600560205260409020610da5906115fe565b60048054604080516020601f6002600019610100600188161502019095169490940493840181900481028201810190925282815260609390929091830182828015610a365780601f10610a0b57610100808354040283529160200191610a36565b6000546001600160a01b031690565b60008282604051602001610f569291906127f5565b60408051601f1981840301815291905280516020909101209392505050565b8051610d7c906014906020840190612314565b600b8054604080516020601f6002600019610100600188161502019095169490940493840181900481028201810190925282815260609390929091830182828015610a365780601f10610a0b57610100808354040283529160200191610a36565b610ff1611486565b6001600160a01b0316826001600160a01b031614156110225760405162461bcd60e51b815260040161021f90612c84565b806009600061102f611486565b6001600160a01b03908116825260208083019390935260409182016000908120918716808252919093529120805460ff191692151592909217909155611073611486565b6001600160a01b03167f17307eab39ab6107e8899845ad3d59bd9653f200f220920489ca2b5937696c31836040516110ab91906128ee565b60405180910390a35050565b6110bf611327565b6110db5760405162461bcd60e51b815260040161021f90612a9a565b6110e48161188f565b50565b6110f86110f2611486565b836116c3565b6111145760405162461bcd60e51b815260040161021f90613039565b6109858484848461193b565b6111298261098b565b8190610b5d5760405162461bcd60e51b815260040161021f91906129f7565b6060610da58261196f565b600f546010546011546012546001600160a01b03938416939092169184565b6014805460408051602060026001851615610100026000190190941693909304601f810184900484028201840190925281815292918301828280156111f85780601f106111cd576101008083540402835291602001916111f8565b820191906000526020600020905b8154815290600101906020018083116111db57829003601f168201915b505050505081565b6001600160a01b03918216600090815260096020908152604080832093909416825291909152205460ff1690565b6003546001600160a01b031690565b600061124882610dff565b90506112668160008460405180602001604052806000815250611a0b565b611271600083611490565b6000828152600c602052604090205460026000196101006001841615020190911604156112af576000828152600c602052604081206112af91612392565b6001600160a01b03811660009081526005602052604090206112d19083611a8c565b506112dd600683611a98565b5060405182906000906001600160a01b038416907fddf252ad1be2c89b69c2b068fc378daa952ba7f163c4a11628f55a4df523b3ef908390a45050565b6000610da5600683611aa4565b60025460009033906001600160a01b0316811461147e57600360009054906101000a90046001600160a01b03166001600160a01b031663570ca7356040518163ffffffff1660e01b815260040160206040518083038186803b15801561138c57600080fd5b505afa1580156113a0573d6000803e3d6000fd5b505050506040513d601f19601f820116820180604052508101906113c49190612456565b6001600160a01b0316816001600160a01b03161461147e57600360009054906101000a90046001600160a01b03166001600160a01b031663ebf0c7176040518163ffffffff1660e01b815260040160206040518083038186803b15801561142a57600080fd5b505afa15801561143e573d6000803e3d6000fd5b505050506040513d601f19601f820116820180604052508101906114629190612456565b6001600160a01b0316816001600160a01b031614915050610a3e565b600191505090565b6000610c50611ab0565b600081815260086020526040902080546001600160a01b0319166001600160a01b03841690811790915581906114c582610dff565b6001600160a01b03167f8c5be1e5ebec7d5bd14f71427d1e84f3dd0314c0f7b2291e5b200ac8c7c3b92560405160405180910390a45050565b6000610da5826380ac58cd60e01b6040518060800160405280604a815260200161326c604a9139611ab4565b6001600160a01b0382166115505760405162461bcd60e51b815260040161021f90612e9e565b6115598161131a565b156115765760405162461bcd60e51b815260040161021f90612bbc565b6115926000838360405180602001604052806000815250611a0b565b6001600160a01b03821660009081526005602052604090206115b49082611b88565b506115c160068284611b94565b5060405181906001600160a01b038416906000907fddf252ad1be2c89b69c2b068fc378daa952ba7f163c4a11628f55a4df523b3ef908290a45050565b6000610da582611baa565b600054600160a81b900460ff16806116245750611624611bae565b806116395750600054600160a01b900460ff16155b6116555760405162461bcd60e51b815260040161021f90612f61565b600054600160a81b900460ff1615801561168c576000805460ff60a01b1960ff60a81b19909116600160a81b1716600160a01b1790555b611697848484611bb4565b6116a18384611c67565b8015610985576000805460ff60a81b1916905550505050565b6110e481611cbf565b60006116ce8261131a565b6116ea5760405162461bcd60e51b815260040161021f90612cbb565b60006116f583610dff565b9050806001600160a01b0316846001600160a01b031614806117305750836001600160a01b031661172584610a41565b6001600160a01b0316145b80610c3c5750610c3c8185611200565b836001600160a01b031661175383610dff565b6001600160a01b0316146117795760405162461bcd60e51b815260040161021f90612faf565b6001600160a01b03831661179f5760405162461bcd60e51b815260040161021f90612c40565b6117ab84848484611a0b565b6117b6600083611490565b6001600160a01b03841660009081526005602052604090206117d89083611a8c565b506001600160a01b03831660009081526005602052604090206117fb9083611b88565b5061180860068385611b94565b5081836001600160a01b0316856001600160a01b03167fddf252ad1be2c89b69c2b068fc378daa952ba7f163c4a11628f55a4df523b3ef60405160405180910390a450505050565b6000610da28383611d11565b600080808061186b8686611d56565b9097909650945050505050565b6000611885848484611db2565b90505b9392505050565b6001600160a01b03811615611919576118b0816001600160a01b0316611e11565b156119195760405163c64df69d60e01b81526001600160a01b0382169063c64df69d906118e890630ddf27bf60e01b90600401612973565b60006040518083038186803b15801561190057600080fd5b505afa158015611914573d6000803e3d6000fd5b505050505b600280546001600160a01b0319166001600160a01b0392909216919091179055565b61194784848484611740565b61195384848484611e4a565b6109855760405162461bcd60e51b815260040161021f90612b33565b60606119796122fd565b61198283610882565b8051602082015160405163c87b56dd60e01b81529293506001600160a01b039091169163c87b56dd916119b791600401613157565b60006040518083038186803b1580156119cf57600080fd5b505afa1580156119e3573d6000803e3d6000fd5b505050506040513d6000823e601f3d908101601f191682016040526118889190810190612721565b60125415611a2b5760405162461bcd60e51b815260040161021f90612d07565b6001600160a01b0384161580611a4857506001600160a01b038316155b15611a5257610985565b50600f80546001600160a01b039485166001600160a01b031991821617909155601080549390941692169190911790915543601155601255565b6000610da28383611f11565b6000610da28383611fd7565b6000610da283836120ab565b3390565b6000611ac8846001600160a01b0316611e11565b611ae45760405162461bcd60e51b815260040161021f90612a0a565b6040516301ffc9a760e01b81526001600160a01b038516906301ffc9a790611b109086906004016128f9565b60206040518083038186803b158015611b2857600080fd5b505afa158015611b3c573d6000803e3d6000fd5b505050506040513d601f19601f82011682018060405250810190611b60919061264c565b8290611b7f5760405162461bcd60e51b815260040161021f91906129f7565b50929392505050565b6000610da283836120c3565b600061188584846001600160a01b03851661210d565b5490565b303b1590565b611bbc6121a4565b611bcc6336c6362d60e01b6116ba565b60405163c64df69d60e01b81526001600160a01b0384169063c64df69d90611bff906363daa99b60e11b9060040161290e565b60006040518083038186803b158015611c1757600080fd5b505afa158015611c2b573d6000803e3d6000fd5b5050600380546001600160a01b0319166001600160a01b03871617905550508151611c5d906004906020850190612314565b50610b5d8161188f565b8151611c7a90600a906020850190612314565b508051611c8e90600b906020840190612314565b50611c9f6380ac58cd60e01b6116ba565b611caf635b5e139f60e01b6116ba565b610d7c63780e9d6360e01b6116ba565b6001600160e01b03198082161415611ce95760405162461bcd60e51b815260040161021f90612b85565b6001600160e01b0319166000908152600160208190526040909120805460ff19169091179055565b81546000908210611d345760405162461bcd60e51b815260040161021f90612a58565b826000018281548110611d4357fe5b9060005260206000200154905092915050565b815460009081908310611d7b5760405162461bcd60e51b815260040161021f90612e5c565b6000846000018481548110611d8c57fe5b906000526020600020906002020190508060000154816001015492509250509250929050565b60008281526001840160205260408120548281611de25760405162461bcd60e51b815260040161021f91906129f7565b50846000016001820381548110611df557fe5b9060005260206000209060020201600101549150509392505050565b6000813f7fc5d2460186f7233c927e7db2dcc703c0e500b653ca82273b7bfad8045d85a470818114801590610c3c575050151592915050565b6000611e5e846001600160a01b0316611e11565b611e6a57506001610c3c565b6060630a85bd0160e11b611e7c611486565b878686604051602401611e929493929190612847565b604051602081830303815290604052906001600160e01b0319166020820180516001600160e01b038381831617835250505050905063150b7a0260e01b6001600160e01b031916611efc86836040518060600160405280603281526020016132116032913961224d565b6001600160e01b031916149695505050505050565b60008181526001830160205260408120548015611fcd5783546000198083019190810190600090879083908110611f4457fe5b9060005260206000200154905080876000018481548110611f6157fe5b600091825260208083209091019290925582815260018981019092526040902090840190558654879080611f9157fe5b60019003818190600052602060002001600090559055866001016000878152602001908152602001600020600090556001945050505050610da5565b6000915050610da5565b60008181526001830160205260408120548015611fcd578354600019808301919081019060009087908390811061200a57fe5b906000526020600020906002020190508087600001848154811061202a57fe5b60009182526020808320845460029093020191825560019384015491840191909155835482528983019052604090209084019055865487908061206957fe5b6000828152602080822060026000199094019384020182815560019081018390559290935588815289820190925260408220919091559450610da59350505050565b60009081526001919091016020526040902054151590565b60006120cf83836120ab565b61210557508154600181810184556000848152602080822090930184905584548482528286019093526040902091909155610da5565b506000610da5565b600082815260018401602052604081205480612172575050604080518082018252838152602080820184815286546001818101895560008981528481209551600290930290950191825591519082015586548684528188019092529290912055611888565b8285600001600183038154811061218557fe5b9060005260206000209060020201600101819055506000915050611888565b600054600160a81b900460ff16806121bf57506121bf611bae565b806121d45750600054600160a01b900460ff16155b6121f05760405162461bcd60e51b815260040161021f90612f61565b600054600160a81b900460ff16158015612227576000805460ff60a01b1960ff60a81b19909116600160a81b1716600160a01b1790555b6122376301ffc9a760e01b6116ba565b80156110e4576000805460ff60a81b1916905550565b6000806060856001600160a01b03168560405161226a9190612817565b6000604051808303816000865af19150503d80600081146122a7576040519150601f19603f3d011682016040523d82523d6000602084013e6122ac565b606091505b5091509150816122e0578051156122c65780518082602001fd5b8360405162461bcd60e51b815260040161021f91906129f7565b808060200190518101906122f49190612684565b92505050611888565b604080518082019091526000808252602082015290565b828054600181600116156101000203166002900490600052602060002090601f016020900481019282601f1061235557805160ff1916838001178555612382565b82800160010185558215612382579182015b82811115612382578251825591602001919060010190612367565b5061238e9291506123d2565b5090565b50805460018160011615610100020316600290046000825580601f106123b857506110e4565b601f0160209004906000526020600020908101906110e491905b5b8082111561238e57600081556001016123d3565b600082601f8301126123f7578081fd5b813561240a61240582613187565b613160565b915080825283602082850101111561242157600080fd5b8060208401602084013760009082016020015292915050565b60006020828403121561244b578081fd5b8135611888816131d7565b600060208284031215612467578081fd5b8151611888816131d7565b60008060408385031215612484578081fd5b823561248f816131d7565b9150602083013561249f816131d7565b809150509250929050565b6000806000606084860312156124be578081fd5b83356124c9816131d7565b925060208401356124d9816131d7565b929592945050506040919091013590565b600080600080608085870312156124ff578081fd5b843561250a816131d7565b9350602085013561251a816131d7565b925060408501359150606085013567ffffffffffffffff81111561253c578182fd5b612548878288016123e7565b91505092959194509250565b60008060408385031215612566578182fd5b8235612571816131d7565b9150602083013561249f816131ec565b600080600080600060a08688031215612598578081fd5b85356125a3816131d7565b9450602086013567ffffffffffffffff808211156125bf578283fd5b6125cb89838a016123e7565b9550604088013591506125dd826131d7565b909350606087013590808211156125f2578283fd5b506125ff888289016123e7565b925050608086013560038110612613578182fd5b809150509295509295909350565b60008060408385031215612633578182fd5b823561263e816131d7565b946020939093013593505050565b60006020828403121561265d578081fd5b8151611888816131ec565b600060208284031215612679578081fd5b8135611888816131fa565b600060208284031215612695578081fd5b8151611888816131fa565b600080604083850312156126b2578182fd5b82356126bd816131fa565b9150602083013567ffffffffffffffff8111156126d8578182fd5b6126e4858286016123e7565b9150509250929050565b6000602082840312156126ff578081fd5b813567ffffffffffffffff811115612715578182fd5b610c3c848285016123e7565b600060208284031215612732578081fd5b815167ffffffffffffffff811115612748578182fd5b8201601f81018413612758578182fd5b805161276661240582613187565b81815285602083850101111561277a578384fd5b61278b8260208301602086016131ab565b95945050505050565b6000602082840312156127a5578081fd5b5035919050565b600081518084526127c48160208601602086016131ab565b601f01601f19169290920160200192915050565b60609190911b6bffffffffffffffffffffffff1916815260140190565b60609290921b6bffffffffffffffffffffffff19168252601482015260340190565b600082516128298184602087016131ab565b9190910192915050565b6001600160a01b0391909116815260200190565b6001600160a01b038581168252841660208201526040810183905260806060820181905260009061287a908301846127ac565b9695505050505050565b6001600160a01b0386811682528581166020830152604082018590528316606082015260a08101600383106128b557fe5b8260808301529695505050505050565b6001600160a01b0394851681529290931660208301526040820152606081019190915260800190565b901515815260200190565b6001600160e01b031991909116815260200190565b6001600160e01b03199190911681526040602082018190526032908201527f234465706172746d656e7423696e69744465706172746d656e742064616f20686060820152710dee6e840e8f2e0ca40dcdee840dac2e8c6d60731b608082015260a00190565b6001600160e01b03199190911681526040602082018190526038908201527f234465706172746d656e74237365744f70657261746f725f696e7465726e616c60608201527f206f70657261746f722074797065206e6f74206d617463680000000000000000608082015260a00190565b60208101600383106129f157fe5b91905290565b600060208252610da260208301846127ac565b6020808252602e908201527f2341737365745368656c6c2361734552433732313a20494e564c4941445f434f60408201526d4e54524143545f4144445245535360901b606082015260800190565b60208082526022908201527f456e756d657261626c655365743a20696e646578206f7574206f6620626f756e604082015261647360f01b606082015260800190565b60208082526033908201527f234465706172746d656e74234f6e6c7944414f2063616c6c657220646f6573206040820152723737ba103430bb32903832b936b4b9b9b4b7b760691b606082015260800190565b60208082526026908201527f2341737365745368656c6c2361737365744d657461206173736574206e6f6e2060408201526565786973747360d01b606082015260800190565b60208082526032908201527f4552433732313a207472616e7366657220746f206e6f6e20455243373231526560408201527131b2b4bb32b91034b6b83632b6b2b73a32b960711b606082015260800190565b6020808252601c908201527f4552433136353a20696e76616c696420696e7465726661636520696400000000604082015260600190565b6020808252601c908201527f4552433732313a20746f6b656e20616c7265616479206d696e74656400000000604082015260600190565b6020808252602d908201527f2341737365745368656c6c2372656365697665206c6173745472616e7366657260408201526c02e746f6b656e496420213d203609c1b606082015260800190565b60208082526024908201527f4552433732313a207472616e7366657220746f20746865207a65726f206164646040820152637265737360e01b606082015260800190565b60208082526019908201527f4552433732313a20617070726f766520746f2063616c6c657200000000000000604082015260600190565b6020808252602c908201527f4552433732313a206f70657261746f7220717565727920666f72206e6f6e657860408201526b34b9ba32b73a103a37b5b2b760a11b606082015260800190565b6020808252603a908201527f2341737365745368656c6c235f6265666f7265546f6b656e5472616e7366657260408201527f206c6173745472616e736665722e746f6b656e4964203d3d2030000000000000606082015260800190565b60208082526038908201527f4552433732313a20617070726f76652063616c6c6572206973206e6f74206f7760408201527f6e6572206e6f7220617070726f76656420666f7220616c6c0000000000000000606082015260800190565b60208082526031908201527f2341737365745368656c6c237769746864726177207769746864726177206f66604082015270206173736574206e6f6e2065786973747360781b606082015260800190565b6020808252602a908201527f4552433732313a2062616c616e636520717565727920666f7220746865207a65604082015269726f206164647265737360b01b606082015260800190565b60208082526022908201527f456e756d657261626c654d61703a20696e646578206f7574206f6620626f756e604082015261647360f01b606082015260800190565b6020808252818101527f4552433732313a206d696e7420746f20746865207a65726f2061646472657373604082015260600190565b6020808252602c908201527f4552433732313a20617070726f76656420717565727920666f72206e6f6e657860408201526b34b9ba32b73a103a37b5b2b760a11b606082015260800190565b60208082526022908201527f2341737365745368656c6c2372656365697665206d73672e76616c756520213d604082015261020360f41b606082015260800190565b6020808252602e908201527f436f6e747261637420696e7374616e63652068617320616c726561647920626560408201526d195b881a5b9a5d1a585b1a5e995960921b606082015260800190565b60208082526029908201527f4552433732313a207472616e73666572206f6620746f6b656e2074686174206960408201526839903737ba1037bbb760b91b606082015260800190565b60208082526021908201527f4552433732313a20617070726f76616c20746f2063757272656e74206f776e656040820152603960f91b606082015260800190565b60208082526031908201527f4552433732313a207472616e736665722063616c6c6572206973206e6f74206f6040820152701ddb995c881b9bdc88185c1c1c9bdd9959607a1b606082015260800190565b60208082526030908201527f2341737365745368656c6c236f6e45524337323152656365697665642066726f60408201526f36903737ba103337b91036bcb9b2b63360811b606082015260800190565b60208082526039908201527f2341737365745368656c6c236f6e4552433732315265636569766564206d696e60408201527f74206f6620617373657420616c72656164792065786973747300000000000000606082015260800190565b81516001600160a01b031681526020918201519181019190915260400190565b90815260200190565b60405181810167ffffffffffffffff8111828210171561317f57600080fd5b604052919050565b600067ffffffffffffffff82111561319d578081fd5b50601f01601f191660200190565b60005b838110156131c65781810151838201526020016131ae565b838111156109855750506000910152565b6001600160a01b03811681146110e457600080fd5b80151581146110e457600080fd5b6001600160e01b0319811681146110e457600080fdfe4552433732313a207472616e7366657220746f206e6f6e20455243373231526563656976657220696d706c656d656e7465724552433732313a206f776e657220717565727920666f72206e6f6e6578697374656e7420746f6b656e2341737365745368656c6c23617345524337323120546865204e465420636f6e74726163742068617320616e20696e76616c69642045524337323120696d706c656d656e746174696f6ea26469706673582212209d8648b2fe9510ee7e0c0cd251c2c8b175328b518187eec238bbf01eecda636b64736f6c634300060c0033",
  "immutableReferences": {},
  "source": "\npragma solidity >=0.6.0 <=0.8.15;\n\npragma experimental ABIEncoderV2;\n\nimport \"./Department.sol\";\nimport \"./ERC721.sol\";\n\ncontract AssetShell is IAssetShell, ERC721 {\n\n\tbytes4 private constant _ERC721_RECEIVED = 0x150b7a02;\n\tbytes4 private constant _INTERFACE_ID_ERC721 = 0x80ac58cd;\n\n\tmapping(uint256 => AssetID) private _assetsMeta;\n\n\tstruct TokenTransfer {\n\t\taddress from;\n\t\taddress to;\n\t\tuint256 blockNumber;\n\t\tuint256 tokenId;\n\t}\n\n\tTokenTransfer public lastTransfer;\n\tSaleType public saleType; // is opensea first or second sale\n\n\t/*{\n\t\t\"name\": \"OpenSea Creatures\",\n\t\t\"description\": \"OpenSea Creatures are adorable aquatic beings primarily for \\\n\t\tdemonstrating what can be done using the OpenSea platform. Adopt one today to try out all the OpenSea buying, selling, and bidding feature set.\",\n\t\t\"image\": \"external-link-url/image.png\",\n\t\t\"external_link\": \"external-link-url\",\n\t\t\"seller_fee_basis_points\": 100, # Indicates a 1% seller fee.\n\t\t\"fee_recipient\": \"0xA97F337c39cccE66adfeCB2BF99C1DdC54C2D721\" # Where seller fees will be paid to.\n\t}*/\n\tstring public contractURI;// = \"https://smart-dao.stars-mine.com/service-api/utils/getOpenseaContractJSON?\";\n\n\tfunction initAssetShell(\n\t\taddress host, string memory description, address operator,\n\t\tstring memory _contractURI, SaleType _saleType\n\t) external {\n\t\tinitERC721(host, description, operator);\n\t\t_registerInterface(AssetShell_ID);\n\t\t_registerInterface(_ERC721_RECEIVED);\n\t\tcontractURI = _contractURI;\n\t\tsaleType = _saleType;\n\t}\n\n\tfunction setContractURI(string memory _contractURI) public {\n\t\tcontractURI = _contractURI;\n\t}\n\n\t// @dev convert addr to standard ERC721 NFT,will be revered if add is invalid.\n\tfunction checkERC721(address addr, bytes4 id, string memory message) internal returns (IERC721) {\n\t\trequire(addr.isContract(), \"#AssetShell#asERC721: INVLIAD_CONTRACT_ADDRESS\");\n\t\trequire(IERC721(addr).supportsInterface(id), message);\n\t\treturn IERC721(addr);\n\t}\n\n\tfunction asERC721(address addr) internal returns (IERC721) {\n\t\treturn checkERC721(addr, _INTERFACE_ID_ERC721, \"#AssetShell#asERC721 The NFT contract has an invalid ERC721 implementation\");\n\t}\n\n\tfunction onERC721Received(\n\t\taddress operator, address from, uint256 tokenId, bytes memory data\n\t) external override returns (bytes4) {\n\t\tIERC721 token = asERC721(_msgSender());\n\t\tuint256 id = convertTokenID(address(token), tokenId);\n\t\tAssetID storage asset = _assetsMeta[id];\n\n\t\tif (data.length != 0) { // mint or withdrawTo\n\t\t\tfrom = abi.decode(data, (address));\n\t\t}\n\t\trequire(asset.token == address(0), \"#AssetShell#onERC721Received mint of asset already exists\");\n\t\trequire(from != address(this), \"#AssetShell#onERC721Received from not for myself\");\n\n\t\tasset.token = address(token);\n\t\tasset.tokenId = tokenId;\n\n\t\t_mint(from, id);\n\n\t\treturn _ERC721_RECEIVED;\n\t}\n\n\tfunction convertTokenID(address metaToken, uint256 metaTokenId) pure public returns (uint256) {\n\t\treturn uint256(keccak256(abi.encodePacked(metaToken, metaTokenId)));\n\t}\n\n\tfunction _tokenURI(uint256 tokenId) internal view override returns (string memory) {\n\t\tAssetID memory id = assetMeta(tokenId);\n\t\treturn IERC721Metadata(id.token).tokenURI(id.tokenId);\n\t}\n\n\tfunction assetMeta(uint256 tokenId) view public override returns (AssetID memory asset) {\n\t\tasset = _assetsMeta[tokenId];\n\t\trequire(asset.token != address(0), \"#AssetShell#assetMeta asset non exists\");\n\t}\n\n\tfunction withdraw(uint256 tokenId) external override OnlyDAO {\n\t\tAssetID storage asset = _assetsMeta[tokenId];\n\t\trequire(asset.token != address(0), \"#AssetShell#withdraw withdraw of asset non exists\");\n\t\twithdrawTo(tokenId, ownerOf(tokenId), \"\");\n\t}\n\n\tfunction withdrawTo(uint256 tokenId, address to, bytes memory data) internal {\n\t\tAssetID storage asset = _assetsMeta[tokenId];\n\t\tIERC721(asset.token).safeTransferFrom(address(this), to, asset.tokenId, data);\n\t\tdelete _assetsMeta[tokenId];\n\t\t_burn(tokenId);\n\t}\n\n\tfunction _beforeTokenTransfer(address from, address to, uint256 tokenId, bytes memory _data) internal virtual override {\n\t\trequire(lastTransfer.tokenId == 0, \"#AssetShell#_beforeTokenTransfer lastTransfer.tokenId == 0\");\n\t\tif (from == address(0) || to == address(0)) return;\n\t\tlastTransfer.from = from;\n\t\tlastTransfer.to = to;\n\t\tlastTransfer.blockNumber = block.number;\n\t\tlastTransfer.tokenId = tokenId;\n\t}\n\n\treceive() external payable {\n\t\trequire(msg.value != 0, \"#AssetShell#receive msg.value != 0\"); // price\n\t\trequire(lastTransfer.tokenId != 0, \"#AssetShell#receive lastTransfer.tokenId != 0\");\n\t\tAssetID memory asset = assetMeta(lastTransfer.tokenId);\n\t\t_host.ledger().assetIncome{value: msg.value}(lastTransfer.to, asset.token, asset.tokenId, msg.sender, saleType);\n\t\tif (saleType == SaleType.kOpenseaFirst) {\n\t\t\tbytes memory data = abi.encodePacked(lastTransfer.to);\n\t\t\twithdrawTo(lastTransfer.tokenId, address(_host.openseaSecond()), data);\n\t\t}\n\t\tlastTransfer.tokenId = 0;\n\t}\n}\n",
  "sourcePath": "/Users/louis/Project/hc/NFTSwap/SmartHolder/contracts/AssetShell.sol",
  "compiler": {
    "name": "solc",
    "version": "0.6.12+commit.27d51765.Emscripten.clang"
  },
  "schemaVersion": "3.4.8",
  "updatedAt": "2022-09-29T06:33:42.003Z",
  "devdoc": {
    "kind": "dev",
    "methods": {
      "approve(address,uint256)": {
        "details": "Approves another address to transfer the given token ID The zero address indicates there is no approved address. There can only be one approved address per token at a given time. Can only be called by the token owner or an approved operator.",
        "params": {
          "to": "address to be approved for the given token ID",
          "tokenId": "uint256 ID of the token to be approved"
        }
      },
      "balanceOf(address)": {
        "details": "Gets the balance of the specified address.",
        "params": {
          "owner": "address to query the balance of"
        },
        "returns": {
          "_0": "uint256 representing the amount owned by the passed address"
        }
      },
      "baseURI()": {
        "details": "Returns the base URI set via {_setBaseURI}. This will be automatically added as a prefix in {tokenURI} to each token's URI, or to the token ID if no specific URI is set for that token ID."
      },
      "getApproved(uint256)": {
        "details": "Gets the approved address for a token ID, or zero if no address set Reverts if the token ID does not exist.",
        "params": {
          "tokenId": "uint256 ID of the token to query the approval of"
        },
        "returns": {
          "_0": "address currently approved for the given token ID"
        }
      },
      "isApprovedForAll(address,address)": {
        "details": "Tells whether an operator is approved by a given owner.",
        "params": {
          "operator": "operator address which you want to query the approval of",
          "owner": "owner address which you want to query the approval of"
        },
        "returns": {
          "_0": "bool whether the given operator is approved by the given owner"
        }
      },
      "name()": {
        "details": "Gets the token name.",
        "returns": {
          "_0": "string representing the token name"
        }
      },
      "onERC721Received(address,address,uint256,bytes)": {
        "details": "The ERC721 smart contract calls this function on the recipient after a {IERC721-safeTransferFrom}. This function MUST return the function selector, otherwise the caller will revert the transaction. The selector to be returned can be obtained as `this.onERC721Received.selector`. This function MAY throw to revert and reject the transfer. Note: the ERC721 contract address is always the message sender.",
        "params": {
          "data": "Additional data with no specified format",
          "from": "The address which previously owned the token",
          "operator": "The address which called `safeTransferFrom` function",
          "tokenId": "The NFT identifier which is being transferred"
        },
        "returns": {
          "_0": "bytes4 `bytes4(keccak256(\"onERC721Received(address,address,uint256,bytes)\"))`"
        }
      },
      "ownerOf(uint256)": {
        "details": "Gets the owner of the specified token ID.",
        "params": {
          "tokenId": "uint256 ID of the token to query the owner of"
        },
        "returns": {
          "_0": "address currently marked as the owner of the given token ID"
        }
      },
      "safeTransferFrom(address,address,uint256)": {
        "details": "Safely transfers the ownership of a given token ID to another address If the target address is a contract, it must implement {IERC721Receiver-onERC721Received}, which is called upon a safe transfer, and return the magic value `bytes4(keccak256(\"onERC721Received(address,address,uint256,bytes)\"))`; otherwise, the transfer is reverted. Requires the msg.sender to be the owner, approved, or operator",
        "params": {
          "from": "current owner of the token",
          "to": "address to receive the ownership of the given token ID",
          "tokenId": "uint256 ID of the token to be transferred"
        }
      },
      "safeTransferFrom(address,address,uint256,bytes)": {
        "details": "Safely transfers the ownership of a given token ID to another address If the target address is a contract, it must implement {IERC721Receiver-onERC721Received}, which is called upon a safe transfer, and return the magic value `bytes4(keccak256(\"onERC721Received(address,address,uint256,bytes)\"))`; otherwise, the transfer is reverted. Requires the _msgSender() to be the owner, approved, or operator",
        "params": {
          "_data": "bytes data to send along with a safe transfer check",
          "from": "current owner of the token",
          "to": "address to receive the ownership of the given token ID",
          "tokenId": "uint256 ID of the token to be transferred"
        }
      },
      "setApprovalForAll(address,bool)": {
        "details": "Sets or unsets the approval of a given operator An operator is allowed to transfer all tokens of the sender on their behalf.",
        "params": {
          "approved": "representing the status of the approval to be set",
          "operator": "operator address to set the approval"
        }
      },
      "supportsInterface(bytes4)": {
        "details": "See {IERC165-supportsInterface}. Time complexity O(1), guaranteed to always use less than 30 000 gas."
      },
      "symbol()": {
        "details": "Gets the token symbol.",
        "returns": {
          "_0": "string representing the token symbol"
        }
      },
      "tokenByIndex(uint256)": {
        "details": "Gets the token ID at a given index of all the tokens in this contract Reverts if the index is greater or equal to the total number of tokens.",
        "params": {
          "index": "uint256 representing the index to be accessed of the tokens list"
        },
        "returns": {
          "_0": "uint256 token ID at the given index of the tokens list"
        }
      },
      "tokenOfOwnerByIndex(address,uint256)": {
        "details": "Gets the token ID at a given index of the tokens list of the requested owner.",
        "params": {
          "index": "uint256 representing the index to be accessed of the requested tokens list",
          "owner": "address owning the tokens list to be accessed"
        },
        "returns": {
          "_0": "uint256 token ID at the given index of the tokens list owned by the requested address"
        }
      },
      "totalSupply()": {
        "details": "Gets the total amount of tokens stored by the contract.",
        "returns": {
          "_0": "uint256 representing the total amount of tokens"
        }
      },
      "transferFrom(address,address,uint256)": {
        "details": "Transfers the ownership of a given token ID to another address. Usage of this method is discouraged, use {safeTransferFrom} whenever possible. Requires the msg.sender to be the owner, approved, or operator.",
        "params": {
          "from": "current owner of the token",
          "to": "address to receive the ownership of the given token ID",
          "tokenId": "uint256 ID of the token to be transferred"
        }
      }
    },
    "version": 1
  },
  "userdoc": {
    "kind": "user",
    "methods": {
      "onERC721Received(address,address,uint256,bytes)": {
        "notice": "Handle the receipt of an NFT"
      }
    },
    "version": 1
  }
}