{
  "contractName": "Asset",
  "abi": [
    {
      "inputs": [
        {
          "internalType": "bytes4",
          "name": "interfaceId",
          "type": "bytes4"
        }
      ],
      "name": "CheckInterfaceNoMatch",
      "type": "error"
    },
    {
      "inputs": [],
      "name": "MethodNotImplemented",
      "type": "error"
    },
    {
      "inputs": [],
      "name": "NoPermissionToMintNFTs1155",
      "type": "error"
    },
    {
      "inputs": [],
      "name": "PermissionDenied",
      "type": "error"
    },
    {
      "inputs": [],
      "name": "PermissionDeniedForOnlyDAO",
      "type": "error"
    },
    {
      "inputs": [],
      "name": "TokenIDAlreadyExistsInAsset",
      "type": "error"
    },
    {
      "inputs": [],
      "name": "TokenIDMustEvenNumberInAsset",
      "type": "error"
    },
    {
      "anonymous": false,
      "inputs": [
        {
          "indexed": true,
          "internalType": "address",
          "name": "account",
          "type": "address"
        },
        {
          "indexed": true,
          "internalType": "address",
          "name": "operator",
          "type": "address"
        },
        {
          "indexed": false,
          "internalType": "bool",
          "name": "approved",
          "type": "bool"
        }
      ],
      "name": "ApprovalForAll",
      "type": "event"
    },
    {
      "anonymous": false,
      "inputs": [
        {
          "indexed": true,
          "internalType": "uint256",
          "name": "tag",
          "type": "uint256"
        },
        {
          "indexed": false,
          "internalType": "uint256",
          "name": "value",
          "type": "uint256"
        }
      ],
      "name": "Change",
      "type": "event"
    },
    {
      "anonymous": false,
      "inputs": [
        {
          "indexed": false,
          "internalType": "uint8",
          "name": "version",
          "type": "uint8"
        }
      ],
      "name": "Initialized",
      "type": "event"
    },
    {
      "anonymous": false,
      "inputs": [
        {
          "indexed": true,
          "internalType": "address",
          "name": "operator",
          "type": "address"
        },
        {
          "indexed": true,
          "internalType": "address",
          "name": "from",
          "type": "address"
        },
        {
          "indexed": true,
          "internalType": "address",
          "name": "to",
          "type": "address"
        },
        {
          "indexed": false,
          "internalType": "uint256[]",
          "name": "ids",
          "type": "uint256[]"
        },
        {
          "indexed": false,
          "internalType": "uint256[]",
          "name": "values",
          "type": "uint256[]"
        }
      ],
      "name": "TransferBatch",
      "type": "event"
    },
    {
      "anonymous": false,
      "inputs": [
        {
          "indexed": true,
          "internalType": "address",
          "name": "operator",
          "type": "address"
        },
        {
          "indexed": true,
          "internalType": "address",
          "name": "from",
          "type": "address"
        },
        {
          "indexed": true,
          "internalType": "address",
          "name": "to",
          "type": "address"
        },
        {
          "indexed": false,
          "internalType": "uint256",
          "name": "id",
          "type": "uint256"
        },
        {
          "indexed": false,
          "internalType": "uint256",
          "name": "value",
          "type": "uint256"
        }
      ],
      "name": "TransferSingle",
      "type": "event"
    },
    {
      "anonymous": false,
      "inputs": [
        {
          "indexed": false,
          "internalType": "string",
          "name": "value",
          "type": "string"
        },
        {
          "indexed": true,
          "internalType": "uint256",
          "name": "id",
          "type": "uint256"
        }
      ],
      "name": "URI",
      "type": "event"
    },
    {
      "inputs": [
        {
          "internalType": "address",
          "name": "account",
          "type": "address"
        },
        {
          "internalType": "uint256",
          "name": "id",
          "type": "uint256"
        }
      ],
      "name": "balanceOf",
      "outputs": [
        {
          "internalType": "uint256",
          "name": "",
          "type": "uint256"
        }
      ],
      "stateMutability": "view",
      "type": "function"
    },
    {
      "inputs": [
        {
          "internalType": "address[]",
          "name": "accounts",
          "type": "address[]"
        },
        {
          "internalType": "uint256[]",
          "name": "ids",
          "type": "uint256[]"
        }
      ],
      "name": "balanceOfBatch",
      "outputs": [
        {
          "internalType": "uint256[]",
          "name": "",
          "type": "uint256[]"
        }
      ],
      "stateMutability": "view",
      "type": "function"
    },
    {
      "inputs": [],
      "name": "baseURI",
      "outputs": [
        {
          "internalType": "string",
          "name": "",
          "type": "string"
        }
      ],
      "stateMutability": "view",
      "type": "function"
    },
    {
      "inputs": [],
      "name": "base_contract_uri",
      "outputs": [
        {
          "internalType": "string",
          "name": "",
          "type": "string"
        }
      ],
      "stateMutability": "view",
      "type": "function"
    },
    {
      "inputs": [
        {
          "internalType": "bytes4",
          "name": "interfaceId",
          "type": "bytes4"
        }
      ],
      "name": "checkInterface",
      "outputs": [],
      "stateMutability": "view",
      "type": "function"
    },
    {
      "inputs": [],
      "name": "contractURI",
      "outputs": [
        {
          "internalType": "string",
          "name": "uri",
          "type": "string"
        }
      ],
      "stateMutability": "view",
      "type": "function"
    },
    {
      "inputs": [],
      "name": "description",
      "outputs": [
        {
          "internalType": "string",
          "name": "",
          "type": "string"
        }
      ],
      "stateMutability": "view",
      "type": "function"
    },
    {
      "inputs": [
        {
          "internalType": "uint256",
          "name": "id",
          "type": "uint256"
        }
      ],
      "name": "exists",
      "outputs": [
        {
          "internalType": "bool",
          "name": "",
          "type": "bool"
        }
      ],
      "stateMutability": "view",
      "type": "function"
    },
    {
      "inputs": [],
      "name": "external_link",
      "outputs": [
        {
          "internalType": "string",
          "name": "",
          "type": "string"
        }
      ],
      "stateMutability": "view",
      "type": "function"
    },
    {
      "inputs": [],
      "name": "fee_recipient",
      "outputs": [
        {
          "internalType": "address",
          "name": "",
          "type": "address"
        }
      ],
      "stateMutability": "view",
      "type": "function"
    },
    {
      "inputs": [],
      "name": "host",
      "outputs": [
        {
          "internalType": "contract IDAO",
          "name": "",
          "type": "address"
        }
      ],
      "stateMutability": "view",
      "type": "function"
    },
    {
      "inputs": [],
      "name": "image",
      "outputs": [
        {
          "internalType": "string",
          "name": "",
          "type": "string"
        }
      ],
      "stateMutability": "view",
      "type": "function"
    },
    {
      "inputs": [],
      "name": "impl",
      "outputs": [
        {
          "internalType": "address",
          "name": "",
          "type": "address"
        }
      ],
      "stateMutability": "view",
      "type": "function"
    },
    {
      "inputs": [
        {
          "internalType": "address",
          "name": "account",
          "type": "address"
        },
        {
          "internalType": "address",
          "name": "operator",
          "type": "address"
        }
      ],
      "name": "isApprovedForAll",
      "outputs": [
        {
          "internalType": "bool",
          "name": "",
          "type": "bool"
        }
      ],
      "stateMutability": "view",
      "type": "function"
    },
    {
      "inputs": [],
      "name": "name",
      "outputs": [
        {
          "internalType": "string",
          "name": "",
          "type": "string"
        }
      ],
      "stateMutability": "view",
      "type": "function"
    },
    {
      "inputs": [],
      "name": "operator",
      "outputs": [
        {
          "internalType": "address",
          "name": "",
          "type": "address"
        }
      ],
      "stateMutability": "view",
      "type": "function"
    },
    {
      "inputs": [
        {
          "internalType": "address",
          "name": "from",
          "type": "address"
        },
        {
          "internalType": "address",
          "name": "to",
          "type": "address"
        },
        {
          "internalType": "uint256[]",
          "name": "ids",
          "type": "uint256[]"
        },
        {
          "internalType": "uint256[]",
          "name": "amounts",
          "type": "uint256[]"
        },
        {
          "internalType": "bytes",
          "name": "data",
          "type": "bytes"
        }
      ],
      "name": "safeBatchTransferFrom",
      "outputs": [],
      "stateMutability": "nonpayable",
      "type": "function"
    },
    {
      "inputs": [
        {
          "internalType": "address",
          "name": "from",
          "type": "address"
        },
        {
          "internalType": "address",
          "name": "to",
          "type": "address"
        },
        {
          "internalType": "uint256",
          "name": "id",
          "type": "uint256"
        },
        {
          "internalType": "uint256",
          "name": "amount",
          "type": "uint256"
        },
        {
          "internalType": "bytes",
          "name": "data",
          "type": "bytes"
        }
      ],
      "name": "safeTransferFrom",
      "outputs": [],
      "stateMutability": "nonpayable",
      "type": "function"
    },
    {
      "inputs": [],
      "name": "seller_fee_basis_points",
      "outputs": [
        {
          "internalType": "uint32",
          "name": "",
          "type": "uint32"
        }
      ],
      "stateMutability": "view",
      "type": "function"
    },
    {
      "inputs": [
        {
          "internalType": "address",
          "name": "operator",
          "type": "address"
        },
        {
          "internalType": "bool",
          "name": "approved",
          "type": "bool"
        }
      ],
      "name": "setApprovalForAll",
      "outputs": [],
      "stateMutability": "nonpayable",
      "type": "function"
    },
    {
      "inputs": [
        {
          "internalType": "string",
          "name": "value",
          "type": "string"
        }
      ],
      "name": "setDescription",
      "outputs": [],
      "stateMutability": "nonpayable",
      "type": "function"
    },
    {
      "inputs": [
        {
          "internalType": "address",
          "name": "operator_",
          "type": "address"
        }
      ],
      "name": "setOperator",
      "outputs": [],
      "stateMutability": "nonpayable",
      "type": "function"
    },
    {
      "inputs": [
        {
          "internalType": "address",
          "name": "recipient",
          "type": "address"
        }
      ],
      "name": "set_fee_recipient",
      "outputs": [],
      "stateMutability": "nonpayable",
      "type": "function"
    },
    {
      "inputs": [
        {
          "internalType": "uint32",
          "name": "value",
          "type": "uint32"
        }
      ],
      "name": "set_seller_fee_basis_points",
      "outputs": [],
      "stateMutability": "nonpayable",
      "type": "function"
    },
    {
      "inputs": [
        {
          "internalType": "uint256",
          "name": "id",
          "type": "uint256"
        }
      ],
      "name": "totalSupply",
      "outputs": [
        {
          "internalType": "uint256",
          "name": "",
          "type": "uint256"
        }
      ],
      "stateMutability": "view",
      "type": "function"
    },
    {
      "inputs": [
        {
          "internalType": "address",
          "name": "impl_",
          "type": "address"
        }
      ],
      "name": "upgrade",
      "outputs": [],
      "stateMutability": "nonpayable",
      "type": "function"
    },
    {
      "inputs": [
        {
          "internalType": "bytes4",
          "name": "interfaceId",
          "type": "bytes4"
        }
      ],
      "name": "supportsInterface",
      "outputs": [
        {
          "internalType": "bool",
          "name": "",
          "type": "bool"
        }
      ],
      "stateMutability": "view",
      "type": "function"
    },
    {
      "inputs": [
        {
          "internalType": "address",
          "name": "host",
          "type": "address"
        },
        {
          "internalType": "address",
          "name": "operator",
          "type": "address"
        },
        {
          "components": [
            {
              "internalType": "string",
              "name": "name",
              "type": "string"
            },
            {
              "internalType": "string",
              "name": "description",
              "type": "string"
            },
            {
              "internalType": "string",
              "name": "image",
              "type": "string"
            },
            {
              "internalType": "string",
              "name": "external_link",
              "type": "string"
            },
            {
              "internalType": "uint32",
              "name": "seller_fee_basis_points",
              "type": "uint32"
            },
            {
              "internalType": "address",
              "name": "fee_recipient",
              "type": "address"
            },
            {
              "internalType": "string",
              "name": "base_contract_uri",
              "type": "string"
            },
            {
              "internalType": "string",
              "name": "base_uri",
              "type": "string"
            }
          ],
          "internalType": "struct AssetModule.InitContractURI",
          "name": "uri",
          "type": "tuple"
        }
      ],
      "name": "initAsset",
      "outputs": [],
      "stateMutability": "nonpayable",
      "type": "function"
    },
    {
      "inputs": [
        {
          "internalType": "address",
          "name": "to",
          "type": "address"
        },
        {
          "internalType": "uint256",
          "name": "id",
          "type": "uint256"
        },
        {
          "internalType": "string",
          "name": "_tokenURI",
          "type": "string"
        },
        {
          "internalType": "bytes",
          "name": "_data",
          "type": "bytes"
        }
      ],
      "name": "safeMint",
      "outputs": [],
      "stateMutability": "nonpayable",
      "type": "function"
    },
    {
      "inputs": [
        {
          "internalType": "address",
          "name": "to",
          "type": "address"
        },
        {
          "internalType": "uint256",
          "name": "id",
          "type": "uint256"
        },
        {
          "internalType": "string",
          "name": "_tokenURI",
          "type": "string"
        },
        {
          "internalType": "uint256",
          "name": "minPrice",
          "type": "uint256"
        }
      ],
      "name": "makeNFT",
      "outputs": [],
      "stateMutability": "nonpayable",
      "type": "function"
    },
    {
      "inputs": [
        {
          "internalType": "address",
          "name": "to",
          "type": "address"
        },
        {
          "internalType": "uint256",
          "name": "id",
          "type": "uint256"
        },
        {
          "internalType": "uint256",
          "name": "amount",
          "type": "uint256"
        },
        {
          "internalType": "uint256",
          "name": "minPrice",
          "type": "uint256"
        }
      ],
      "name": "copyNFTs",
      "outputs": [],
      "stateMutability": "nonpayable",
      "type": "function"
    },
    {
      "inputs": [
        {
          "internalType": "uint256",
          "name": "id",
          "type": "uint256"
        }
      ],
      "name": "uri",
      "outputs": [
        {
          "internalType": "string",
          "name": "",
          "type": "string"
        }
      ],
      "stateMutability": "view",
      "type": "function"
    }
  ],
  "bytecode": "0x608060405234801561001057600080fd5b506134d7806100206000396000f3fe608060405234801561001057600080fd5b50600436106101ef5760003560e01c80637284e4161161010f578063b3ab15fb116100a2578063e985e9c511610071578063e985e9c51461044a578063f242432a14610486578063f3ccaac014610499578063f437bc59146104a157600080fd5b8063b3ab15fb146103fc578063b55bc6171461040f578063bd85b03914610422578063e8a3d4851461044257600080fd5b80638abf6077116100de5780638abf6077146103b257806390c3f38f146103c357806391eb3dee146103d6578063a22cb465146103e957600080fd5b80637284e4161461037c578063758f969a146103845780637972bdf3146103975780638a1afff81461039f57600080fd5b806330cc317b116101875780634f558e79116101565780634f558e7914610301578063570ca735146103235780636c0360eb1461034857806371fcf4681461035057600080fd5b806330cc317b146102a8578063350e4dd7146102bb5780634c6e425b146102ce5780634e1273f4146102e157600080fd5b80630e89341c116101c35780630e89341c1461026757806312dba7851461027a5780632b79677e146102825780632eb2c2d61461029557600080fd5b8062fdd58e146101f457806301ffc9a71461021a57806306fdde031461023d5780630900f01014610252575b600080fd5b6102076102023660046126e8565b6104b2565b6040519081526020015b60405180910390f35b61022d61022836600461272a565b61054d565b6040519015158152602001610211565b610245610580565b6040516102119190612797565b6102656102603660046127aa565b610612565b005b6102456102753660046127c7565b61067d565b6102456106ad565b6102656102903660046127e0565b61073b565b6102656102a3366004612964565b610a6b565b6102656102b63660046127aa565b610a84565b6102656102c9366004612a11565b610ae8565b6102656102dc36600461272a565b610b8b565b6102f46102ef366004612a71565b610bc0565b6040516102119190612b3d565b61022d61030f3660046127c7565b600090815260166020526040902054151590565b6003546001600160a01b03165b6040516001600160a01b039091168152602001610211565b610245610ce9565b60105461036790600160a01b900463ffffffff1681565b60405163ffffffff9091168152602001610211565b610245610cf6565b601054610330906001600160a01b031681565b610245610d05565b6102656103ad366004612b81565b610d12565b6000546001600160a01b0316610330565b6102656103d1366004612bea565b610d7c565b6102656103e4366004612c26565b610ecd565b6102656103f7366004612c5a565b611028565b61026561040a3660046127aa565b611037565b61026561041d366004612c93565b61109b565b6102076104303660046127c7565b60009081526016602052604090205490565b610245611236565b61022d610458366004612d12565b6001600160a01b03918216600090815260136020908152604080832093909416825291909152205460ff1690565b610265610494366004612d40565b611439565b6102456114cc565b6002546001600160a01b0316610330565b60006001600160a01b0383166105225760405162461bcd60e51b815260206004820152602a60248201527f455243313135353a2061646472657373207a65726f206973206e6f742061207660448201526930b634b21037bbb732b960b11b60648201526084015b60405180910390fd5b5060008181526012602090815260408083206001600160a01b03861684529091529020545b92915050565b6000610558826114d9565b8061054757506001600160e01b0319821660009081526001602052604090205460ff16610547565b6060600d805461058f90612da8565b80601f01602080910402602001604051908101604052809291908181526020018280546105bb90612da8565b80156106085780601f106105dd57610100808354040283529160200191610608565b820191906000526020600020905b8154815290600101906020018083116105eb57829003601f168201915b5050505050905090565b61061a61150f565b61063757604051631b4004a360e31b815260040160405180910390fd5b600080546001600160a01b0319166001600160a01b038316908117909155604051908152600390600080516020613482833981519152906020015b60405180910390a250565b606061068a600283612de2565b60000361069a576105478261164e565b6105476106a8600184612e1a565b61164e565b601180546106ba90612da8565b80601f01602080910402602001604051908101604052809291908181526020018280546106e690612da8565b80156107335780601f1061070857610100808354040283529160200191610733565b820191906000526020600020905b81548152906001019060200180831161071657829003601f168201915b505050505081565b610746600284612de2565b60010361076657604051635a708f0360e01b815260040160405180910390fd5b61077033846104b2565b6000036109b9576040516bffffffffffffffffffffffff193060601b1660208201526034810184905260009060540160408051601f198184030181528282528051602091820120600254630f7d377d60e21b855292519094506001600160a01b0390921692633df4ddf492600480830193928290030181865afa1580156107fb573d6000803e3d6000fd5b505050506040513d601f19601f8201168201806040525081019061081f9190612e2d565b6001600160a01b031662fdd58e336040516001600160e01b031960e084901b1681526001600160a01b03909116600482015260248101849052604401602060405180830381865afa158015610878573d6000803e3d6000fd5b505050506040513d601f19601f8201168201806040525081019061089c9190612e4a565b6000036109b757600260009054906101000a90046001600160a01b03166001600160a01b0316635a8ac02d6040518163ffffffff1660e01b8152600401602060405180830381865afa1580156108f6573d6000803e3d6000fd5b505050506040513d601f19601f8201168201806040525081019061091a9190612e2d565b6001600160a01b031662fdd58e336040516001600160e01b031960e084901b1681526001600160a01b03909116600482015260248101849052604401602060405180830381865afa158015610973573d6000803e3d6000fd5b505050506040513d601f19601f820116820180604052508101906109979190612e4a565b6000036109b75760405163292c3a8560e01b815260040160405180910390fd5b505b60025460408051635a8ac02d60e01b81529051610a65926001600160a01b031691635a8ac02d9160048083019260209291908290030181865afa158015610a04573d6000803e3d6000fd5b505050506040513d601f19601f82011682018060405250810190610a289190612e2d565b610a33856001612e63565b604080516001600160a01b038916602082015290810185905285906060016040516020818303038152906040526117b0565b50505050565b604051632974974360e01b815260040160405180910390fd5b610a8c61150f565b610aa957604051631b4004a360e31b815260040160405180910390fd5b601080546001600160a01b0319166001600160a01b03831690811790915560405190815260079060008051602061348283398151915290602001610672565b60025460408051630f7d377d60e21b81529051610a65926001600160a01b031691633df4ddf49160048083019260209291908290030181865afa158015610b33573d6000803e3d6000fd5b505050506040513d601f19601f82011682018060405250810190610b579190612e2d565b604080516001600160a01b03881660208201529081018490528590859060600160405160208183030381529060405261109b565b610b948161054d565b610bbd57604051632aae78ef60e01b81526001600160e01b031982166004820152602401610519565b50565b60608151835114610c255760405162461bcd60e51b815260206004820152602960248201527f455243313135353a206163636f756e747320616e6420696473206c656e677468604482015268040dad2e6dac2e8c6d60bb1b6064820152608401610519565b600083516001600160401b03811115610c4057610c4061281b565b604051908082528060200260200182016040528015610c69578160200160208202803683370190505b50905060005b8451811015610ce157610cb4858281518110610c8d57610c8d612e76565b6020026020010151858381518110610ca757610ca7612e76565b60200260200101516104b2565b828281518110610cc657610cc6612e76565b6020908102919091010152610cda81612e8c565b9050610c6f565b509392505050565b601480546106ba90612da8565b60606004805461058f90612da8565b600f80546106ba90612da8565b610d1d8383836118d5565b610d67610d2d60e0830183612ea5565b8080601f016020809104026020016040519081016040528093929190818152602001838380828437600092019190915250611a1a92505050565b610d776368ca456f60e01b611a26565b505050565b63d0a4ad96610d8961150f565b610e9257600260009054906101000a90046001600160a01b03166001600160a01b031663e3f6b5446040518163ffffffff1660e01b8152600401602060405180830381865afa158015610de0573d6000803e3d6000fd5b505050506040513d601f19601f82011682018060405250810190610e049190612e2d565b60405163a8a555c560e01b8152336004820152602481018390526001600160a01b03919091169063a8a555c590604401602060405180830381865afa158015610e51573d6000803e3d6000fd5b505050506040513d601f19601f82011682018060405250810190610e759190612ef2565b610e9257604051630782484160e21b815260040160405180910390fd5b6004610e9e8382612f55565b5060016000805160206134828339815191526000604051610ec191815260200190565b60405180910390a25050565b6391eb3dee610eda61150f565b610fe357600260009054906101000a90046001600160a01b03166001600160a01b031663e3f6b5446040518163ffffffff1660e01b8152600401602060405180830381865afa158015610f31573d6000803e3d6000fd5b505050506040513d601f19601f82011682018060405250810190610f559190612e2d565b60405163a8a555c560e01b8152336004820152602481018390526001600160a01b03919091169063a8a555c590604401602060405180830381865afa158015610fa2573d6000803e3d6000fd5b505050506040513d601f19601f82011682018060405250810190610fc69190612ef2565b610fe357604051630782484160e21b815260040160405180910390fd5b6010805463ffffffff60a01b1916600160a01b63ffffffff85169081029190911790915560405190815260069060008051602061348283398151915290602001610ec1565b611033338383611aa8565b5050565b61103f61150f565b61105c57604051631b4004a360e31b815260040160405180910390fd5b600380546001600160a01b0319166001600160a01b03831690811790915560405190815260029060008051602061348283398151915290602001610672565b6359baef2a6110a861150f565b6111b157600260009054906101000a90046001600160a01b03166001600160a01b031663e3f6b5446040518163ffffffff1660e01b8152600401602060405180830381865afa1580156110ff573d6000803e3d6000fd5b505050506040513d601f19601f820116820180604052508101906111239190612e2d565b60405163a8a555c560e01b8152336004820152602481018390526001600160a01b03919091169063a8a555c590604401602060405180830381865afa158015611170573d6000803e3d6000fd5b505050506040513d601f19601f820116820180604052508101906111949190612ef2565b6111b157604051630782484160e21b815260040160405180910390fd5b6111bc600285612de2565b6001036111dc57604051635a708f0360e01b815260040160405180910390fd5b60008481526016602052604090205415611209576040516343c8eb7760e11b815260040160405180910390fd5b61121685856001856117b0565b600084815260156020526040902061122e8482612f55565b505050505050565b606060006112cd600d805461124a90612da8565b80601f016020809104026020016040519081016040528092919081815260200182805461127690612da8565b80156112c35780601f10611298576101008083540402835291602001916112c3565b820191906000526020600020905b8154815290600101906020018083116112a657829003601f168201915b5050505050611b88565b6040516020016112dd9190613014565b604051602081830303815290604052905060006113006004805461124a90612da8565b6040516020016113109190613045565b60405160208183030381529060405290506000611333600e805461124a90612da8565b604051602001611343919061307d565b60405160208183030381529060405290506000611366600f805461124a90612da8565b60405160200161137691906130af565b60408051808303601f190181529190526010549091506000906113a590600160a01b900463ffffffff16611ce0565b6040516020016113b591906130e9565b60408051601f198184030181529190526010549091506000906113e0906001600160a01b0316611d72565b6040516020016113f0919061312e565b6040516020818303038152906040529050601186868686868660405160200161141f97969594939291906131d8565b604051602081830303815290604052965050505050505090565b6001600160a01b03851633148061145557506114558533610458565b6114b85760405162461bcd60e51b815260206004820152602e60248201527f455243313135353a2063616c6c6572206973206e6f7420746f6b656e206f776e60448201526d195c881bdc88185c1c1c9bdd995960921b6064820152608401610519565b6114c58585858585611d88565b5050505050565b600e80546106ba90612da8565b60006001600160e01b03198216636cdb3d1360e11b148061054757506001600160e01b031982166303a24d0760e21b1492915050565b60035460009033906001600160a01b0316811461164657600260009054906101000a90046001600160a01b03166001600160a01b031663570ca7356040518163ffffffff1660e01b8152600401602060405180830381865afa158015611579573d6000803e3d6000fd5b505050506040513d601f19601f8201168201806040525081019061159d9190612e2d565b6001600160a01b0316816001600160a01b03161461164657600260009054906101000a90046001600160a01b03166001600160a01b031663ebf0c7176040518163ffffffff1660e01b8152600401602060405180830381865afa158015611608573d6000803e3d6000fd5b505050506040513d601f19601f8201168201806040525081019061162c9190612e2d565b6001600160a01b0316816001600160a01b03161491505090565b600191505090565b60008181526015602052604081208054606092919061166c90612da8565b80601f016020809104026020016040519081016040528092919081815260200182805461169890612da8565b80156116e55780601f106116ba576101008083540402835291602001916116e5565b820191906000526020600020905b8154815290600101906020018083116116c857829003601f168201915b505050505090506000815111611785576014805461170290612da8565b80601f016020809104026020016040519081016040528092919081815260200182805461172e90612da8565b801561177b5780601f106117505761010080835404028352916020019161177b565b820191906000526020600020905b81548152906001019060200180831161175e57829003601f168201915b50505050506117a9565b601481604051602001611799929190613268565b6040516020818303038152906040525b9392505050565b6001600160a01b0384166118105760405162461bcd60e51b815260206004820152602160248201527f455243313135353a206d696e7420746f20746865207a65726f206164647265736044820152607360f81b6064820152608401610519565b33600061181c85611f69565b9050600061182985611f69565b905061183a83600089858589611fb4565b60008681526012602090815260408083206001600160a01b038b1684529091528120805487929061186c908490612e63565b909155505060408051878152602081018790526001600160a01b03808a1692600092918716917fc3d58168c5ae7397731d063d5bbf3d657854427343f4c083240f7aacaa2d0f62910160405180910390a46118cc8360008989898961212d565b50505050505050565b611922836118e66020840184612ea5565b8080601f0160208091040260200160405190810160405280939291908181526020018383808284376000920191909152508792506122c9915050565b61192c8180612ea5565b600d9161193a91908361328d565b506119486040820182612ea5565b600e9161195691908361328d565b506119646060820182612ea5565b600f9161197291908361328d565b50600061198560c0830160a084016127aa565b6001600160a01b0316146119a8576119a360c0820160a083016127aa565b6119aa565b305b601080546001600160a01b0319166001600160a01b03929092169190911790556119da60a0820160808301612c26565b6010805463ffffffff92909216600160a01b0263ffffffff60a01b19909216919091179055611a0c60c0820182612ea5565b601191610a6591908361328d565b60146110338282612f55565b6001600160e01b03198082169003611a805760405162461bcd60e51b815260206004820152601c60248201527f4552433136353a20696e76616c696420696e74657266616365206964000000006044820152606401610519565b6001600160e01b0319166000908152600160208190526040909120805460ff19169091179055565b816001600160a01b0316836001600160a01b031603611b1b5760405162461bcd60e51b815260206004820152602960248201527f455243313135353a2073657474696e6720617070726f76616c20737461747573604482015268103337b91039b2b63360b91b6064820152608401610519565b6001600160a01b03838116600081815260136020908152604080832094871680845294825291829020805460ff191686151590811790915591519182527f17307eab39ab6107e8899845ad3d59bd9653f200f220920489ca2b5937696c31910160405180910390a3505050565b6060600082516002611b9a919061334c565b6001600160401b03811115611bb157611bb161281b565b6040519080825280601f01601f191660200182016040528015611bdb576020820181803683370190505b50905060005b8351811015611cd9576000848281518110611bfe57611bfe612e76565b016020015160f881901c91506f181899199a1a9b1b9c1cb0b131b232b360811b9060fc1c60108110611c3257611c32612e76565b1a60f81b83600184901b81518110611c4c57611c4c612e76565b60200101906001600160f81b031916908160001a9053506f181899199a1a9b1b9c1cb0b131b232b360811b600f821660108110611c8b57611c8b612e76565b1a60f81b83611c9e600185811b90612e63565b81518110611cae57611cae612e76565b60200101906001600160f81b031916908160001a905350508080611cd190612e8c565b915050611be1565b5092915050565b60606000611ced8361232d565b60010190506000816001600160401b03811115611d0c57611d0c61281b565b6040519080825280601f01601f191660200182016040528015611d36576020820181803683370190505b5090508181016020015b600019016f181899199a1a9b1b9c1cb0b131b232b360811b600a86061a8153600a8504945084611d4057509392505050565b60606105476001600160a01b0383166014612405565b6001600160a01b038416611dec5760405162461bcd60e51b815260206004820152602560248201527f455243313135353a207472616e7366657220746f20746865207a65726f206164604482015264647265737360d81b6064820152608401610519565b336000611df885611f69565b90506000611e0585611f69565b9050611e15838989858589611fb4565b60008681526012602090815260408083206001600160a01b038c16845290915290205485811015611e9b5760405162461bcd60e51b815260206004820152602a60248201527f455243313135353a20696e73756666696369656e742062616c616e636520666f60448201526939103a3930b739b332b960b11b6064820152608401610519565b60008781526012602090815260408083206001600160a01b038d8116855292528083208985039055908a16825281208054889290611eda908490612e63565b909155505060408051888152602081018890526001600160a01b03808b16928c821692918816917fc3d58168c5ae7397731d063d5bbf3d657854427343f4c083240f7aacaa2d0f62910160405180910390a460008781526012602090815260408083206001600160a01b038c168452909152902054611f5d858b8b8b8b8b61212d565b50505050505050505050565b60408051600180825281830190925260609160009190602080830190803683370190505090508281600081518110611fa357611fa3612e76565b602090810291909101015292915050565b6001600160a01b03851661203b5760005b835181101561203957828181518110611fe057611fe0612e76565b602002602001015160166000868481518110611ffe57611ffe612e76565b6020026020010151815260200190815260200160002060008282546120239190612e63565b90915550612032905081612e8c565b9050611fc5565b505b6001600160a01b03841661122e5760005b83518110156118cc57600084828151811061206957612069612e76565b60200260200101519050600084838151811061208757612087612e76565b602002602001015190506000601660008481526020019081526020016000205490508181101561210a5760405162461bcd60e51b815260206004820152602860248201527f455243313135353a206275726e20616d6f756e74206578636565647320746f74604482015267616c537570706c7960c01b6064820152608401610519565b6000928352601660205260409092209103905561212681612e8c565b905061204c565b6001600160a01b0384163b1561122e5760405163f23a6e6160e01b81526001600160a01b0385169063f23a6e61906121719089908990889088908890600401613363565b6020604051808303816000875af19250505080156121ac575060408051601f3d908101601f191682019092526121a9918101906133a8565b60015b612258576121b86133c5565b806308c379a0036121f157506121cc6133e1565b806121d757506121f3565b8060405162461bcd60e51b81526004016105199190612797565b505b60405162461bcd60e51b815260206004820152603460248201527f455243313135353a207472616e7366657220746f206e6f6e2d455243313135356044820152732932b1b2b4bb32b91034b6b83632b6b2b73a32b960611b6064820152608401610519565b6001600160e01b0319811663f23a6e6160e01b146118cc5760405162461bcd60e51b815260206004820152602860248201527f455243313135353a204552433131353552656365697665722072656a656374656044820152676420746f6b656e7360c01b6064820152608401610519565b6122d16125a0565b6122e1630d64f40d60e31b611a26565b600280546001600160a01b0319166001600160a01b03851617905560046123088382612f55565b50600380546001600160a01b0319166001600160a01b03929092169190911790555050565b60008072184f03e93ff9f4daa797ed6e38ed64bf6a1f0160401b831061236c5772184f03e93ff9f4daa797ed6e38ed64bf6a1f0160401b830492506040015b6d04ee2d6d415b85acef81000000008310612398576d04ee2d6d415b85acef8100000000830492506020015b662386f26fc1000083106123b657662386f26fc10000830492506010015b6305f5e10083106123ce576305f5e100830492506008015b61271083106123e257612710830492506004015b606483106123f4576064830492506002015b600a83106105475760010192915050565b6060600061241483600261334c565b61241f906002612e63565b6001600160401b038111156124365761243661281b565b6040519080825280601f01601f191660200182016040528015612460576020820181803683370190505b509050600360fc1b8160008151811061247b5761247b612e76565b60200101906001600160f81b031916908160001a905350600f60fb1b816001815181106124aa576124aa612e76565b60200101906001600160f81b031916908160001a90535060006124ce84600261334c565b6124d9906001612e63565b90505b6001811115612551576f181899199a1a9b1b9c1cb0b131b232b360811b85600f166010811061250d5761250d612e76565b1a60f81b82828151811061252357612523612e76565b60200101906001600160f81b031916908160001a90535060049490941c9361254a8161346a565b90506124dc565b5083156117a95760405162461bcd60e51b815260206004820181905260248201527f537472696e67733a20686578206c656e67746820696e73756666696369656e746044820152606401610519565b600054600160a81b900460ff16158080156125c857506000546001600160a01b90910460ff16105b806125e95750303b1580156125e95750600054600160a01b900460ff166001145b61264c5760405162461bcd60e51b815260206004820152602e60248201527f496e697469616c697a61626c653a20636f6e747261637420697320616c72656160448201526d191e481a5b9a5d1a585b1a5e995960921b6064820152608401610519565b6000805460ff60a01b1916600160a01b1790558015612679576000805460ff60a81b1916600160a81b1790555b6126896301ffc9a760e01b611a26565b8015610bbd576000805460ff60a81b19169055604051600181527f7f26b83ff96e1f2b6a682f133852f6798a09c465da95921460cefb38474024989060200160405180910390a150565b6001600160a01b0381168114610bbd57600080fd5b600080604083850312156126fb57600080fd5b8235612706816126d3565b946020939093013593505050565b6001600160e01b031981168114610bbd57600080fd5b60006020828403121561273c57600080fd5b81356117a981612714565b60005b8381101561276257818101518382015260200161274a565b50506000910152565b60008151808452612783816020860160208601612747565b601f01601f19169290920160200192915050565b6020815260006117a9602083018461276b565b6000602082840312156127bc57600080fd5b81356117a9816126d3565b6000602082840312156127d957600080fd5b5035919050565b600080600080608085870312156127f657600080fd5b8435612801816126d3565b966020860135965060408601359560600135945092505050565b634e487b7160e01b600052604160045260246000fd5b601f8201601f191681016001600160401b03811182821017156128565761285661281b565b6040525050565b60006001600160401b038211156128765761287661281b565b5060051b60200190565b600082601f83011261289157600080fd5b8135602061289e8261285d565b6040516128ab8282612831565b83815260059390931b85018201928281019150868411156128cb57600080fd5b8286015b848110156128e657803583529183019183016128cf565b509695505050505050565b600082601f83011261290257600080fd5b81356001600160401b0381111561291b5761291b61281b565b604051612932601f8301601f191660200182612831565b81815284602083860101111561294757600080fd5b816020850160208301376000918101602001919091529392505050565b600080600080600060a0868803121561297c57600080fd5b8535612987816126d3565b94506020860135612997816126d3565b935060408601356001600160401b03808211156129b357600080fd5b6129bf89838a01612880565b945060608801359150808211156129d557600080fd5b6129e189838a01612880565b935060808801359150808211156129f757600080fd5b50612a04888289016128f1565b9150509295509295909350565b60008060008060808587031215612a2757600080fd5b8435612a32816126d3565b93506020850135925060408501356001600160401b03811115612a5457600080fd5b612a60878288016128f1565b949793965093946060013593505050565b60008060408385031215612a8457600080fd5b82356001600160401b0380821115612a9b57600080fd5b818501915085601f830112612aaf57600080fd5b81356020612abc8261285d565b604051612ac98282612831565b83815260059390931b8501820192828101915089841115612ae957600080fd5b948201945b83861015612b10578535612b01816126d3565b82529482019490820190612aee565b96505086013592505080821115612b2657600080fd5b50612b3385828601612880565b9150509250929050565b6020808252825182820181905260009190848201906040850190845b81811015612b7557835183529284019291840191600101612b59565b50909695505050505050565b600080600060608486031215612b9657600080fd5b8335612ba1816126d3565b92506020840135612bb1816126d3565b915060408401356001600160401b03811115612bcc57600080fd5b84016101008187031215612bdf57600080fd5b809150509250925092565b600060208284031215612bfc57600080fd5b81356001600160401b03811115612c1257600080fd5b612c1e848285016128f1565b949350505050565b600060208284031215612c3857600080fd5b813563ffffffff811681146117a957600080fd5b8015158114610bbd57600080fd5b60008060408385031215612c6d57600080fd5b8235612c78816126d3565b91506020830135612c8881612c4c565b809150509250929050565b60008060008060808587031215612ca957600080fd5b8435612cb4816126d3565b93506020850135925060408501356001600160401b0380821115612cd757600080fd5b612ce3888389016128f1565b93506060870135915080821115612cf957600080fd5b50612d06878288016128f1565b91505092959194509250565b60008060408385031215612d2557600080fd5b8235612d30816126d3565b91506020830135612c88816126d3565b600080600080600060a08688031215612d5857600080fd5b8535612d63816126d3565b94506020860135612d73816126d3565b9350604086013592506060860135915060808601356001600160401b03811115612d9c57600080fd5b612a04888289016128f1565b600181811c90821680612dbc57607f821691505b602082108103612ddc57634e487b7160e01b600052602260045260246000fd5b50919050565b600082612dff57634e487b7160e01b600052601260045260246000fd5b500690565b634e487b7160e01b600052601160045260246000fd5b8181038181111561054757610547612e04565b600060208284031215612e3f57600080fd5b81516117a9816126d3565b600060208284031215612e5c57600080fd5b5051919050565b8082018082111561054757610547612e04565b634e487b7160e01b600052603260045260246000fd5b600060018201612e9e57612e9e612e04565b5060010190565b6000808335601e19843603018112612ebc57600080fd5b8301803591506001600160401b03821115612ed657600080fd5b602001915036819003821315612eeb57600080fd5b9250929050565b600060208284031215612f0457600080fd5b81516117a981612c4c565b601f821115610d7757600081815260208120601f850160051c81016020861015612f365750805b601f850160051c820191505b8181101561122e57828155600101612f42565b81516001600160401b03811115612f6e57612f6e61281b565b612f8281612f7c8454612da8565b84612f0f565b602080601f831160018114612fb75760008415612f9f5750858301515b600019600386901b1c1916600185901b17855561122e565b600085815260208120601f198616915b82811015612fe657888601518255948401946001909101908401612fc7565b50858210156130045787850151600019600388901b60f8161c191681555b5050505050600190811b01905550565b683f6e616d653d30787360b81b815260008251613038816009850160208701612747565b9190910160090192915050565b6f266465736372697074696f6e3d30787360801b815260008251613070816010850160208701612747565b9190910160100192915050565b6926696d6167653d30787360b01b8152600082516130a281600a850160208701612747565b91909101600a0192915050565b712665787465726e616c5f6c696e6b3d30787360701b8152600082516130dc816012850160208701612747565b9190910160120192915050565b7f2673656c6c65725f6665655f62617369735f706f696e74733d00000000000000815260008251613121816019850160208701612747565b9190910160190192915050565b6e266665655f726563697069656e743d60881b81526000825161315881600f850160208701612747565b91909101600f0192915050565b6000815461317281612da8565b6001828116801561318a576001811461319f576131ce565b60ff19841687528215158302870194506131ce565b8560005260208060002060005b858110156131c55781548a8201529084019082016131ac565b50505082870194505b5050505092915050565b60006131e4828a613165565b885160206131f58284838e01612747565b895191909201916132098284838d01612747565b8851919092019161321d8284838c01612747565b875191909201916132318284838b01612747565b865191909201916132458284838a01612747565b855191909201916132598284838901612747565b50019998505050505050505050565b60006132748285613165565b8351613284818360208801612747565b01949350505050565b6001600160401b038311156132a4576132a461281b565b6132b8836132b28354612da8565b83612f0f565b6000601f8411600181146132ec57600085156132d45750838201355b600019600387901b1c1916600186901b1783556114c5565b600083815260209020601f19861690835b8281101561331d57868501358255602094850194600190920191016132fd565b508682101561333a5760001960f88860031b161c19848701351681555b505060018560011b0183555050505050565b808202811582820484141761054757610547612e04565b6001600160a01b03868116825285166020820152604081018490526060810183905260a06080820181905260009061339d9083018461276b565b979650505050505050565b6000602082840312156133ba57600080fd5b81516117a981612714565b600060033d11156133de5760046000803e5060005160e01c5b90565b600060443d10156133ef5790565b6040516003193d81016004833e81513d6001600160401b03816024840111818411171561341e57505050505090565b82850191508151818111156134365750505050505090565b843d87010160208285010111156134505750505050505090565b61345f60208286010187612831565b509095945050505050565b60008161347957613479612e04565b50600019019056fe7016719027ff29c13bc4816903851ea968172a86b766c733b954fdabe53c87eea264697066735822122065195701d8ec01362fc7b5386b03bed6f474d26d31f61bf0f56896f32ba1781864736f6c63430008110033",
  "immutableReferences": {},
  "source": "// SPDX-License-Identifier: MIT\npragma solidity ~0.8.17;\n\nimport './Module.sol';\nimport './libs/Strings.sol';\nimport './libs/ERC1155.sol';\n\ncontract AssetModule is Module, IOpenseaContractURI {\n\tusing Strings for uint256;\n\tusing Strings for address;\n\tusing StringsExp for bytes;\n\n\tstruct InitContractURI {\n\t\tstring  name;\n\t\tstring  description;\n\t\tstring  image;\n\t\tstring  external_link;\n\t\tuint32  seller_fee_basis_points;\n\t\taddress fee_recipient;\n\t\tstring  base_contract_uri;\n\t\tstring  base_uri;\n\t}\n\n\tstring  private name_;\n\tstring  public image;\n\tstring  public external_link;\n\taddress public fee_recipient;\n\tuint32  public seller_fee_basis_points;\n\n\t/*{\n\t\t\"name\": \"OpenSea Creatures\",\n\t\t\"description\": \"OpenSea Creatures are adorable aquatic beings primarily for \\\n\t\t\tdemonstrating what can be done using the OpenSea platform. Adopt one today to try out all the OpenSea buying, selling, and bidding feature set.\",\n\t\t\"image\": \"external-link-url/image.png\",\n\t\t\"external_link\": \"external-link-url\",\n\t\t\"seller_fee_basis_points\": 100, # Indicates a 1% seller fee.\n\t\t\"fee_recipient\": \"0xA97F337c39cccE66adfeCB2BF99C1DdC54C2D721\" # Where seller fees will be paid to.\n\t}*/\n\tstring public base_contract_uri;// = \"https://smart-dao.stars-mine.com/service-api/utils/printJSON?\";\n\n\t/**\n\t\t* @dev Gets the token name.\n\t\t* @return string representing the token name\n\t\t*/\n\tfunction name() public view virtual returns (string memory) {\n\t\treturn name_;\n\t}\n\n\tfunction initAssetModule(address host, address operator, InitContractURI calldata uri) internal {\n\t\tinitModule(host, uri.description, operator);\n\t\tname_ = uri.name;\n\t\timage = uri.image;\n\t\texternal_link = uri.external_link;\n\t\tfee_recipient = uri.fee_recipient == address(0) ? address(this): uri.fee_recipient;\n\t\tseller_fee_basis_points = uri.seller_fee_basis_points;\n\t\tbase_contract_uri = uri.base_contract_uri;\n\t}\n\n\tfunction contractURI() view public override returns (string memory uri) {\n\t\tbytes memory a = abi.encodePacked(\"?name=0xs\",                      bytes(name_).toHexString());\n\t\tbytes memory b = abi.encodePacked(\"&description=0xs\",               bytes(_description).toHexString());\n\t\tbytes memory c = abi.encodePacked(\"&image=0xs\",                     bytes(image).toHexString());\n\t\tbytes memory d = abi.encodePacked(\"&external_link=0xs\",             bytes(external_link).toHexString());\n\t\tbytes memory e = abi.encodePacked(\"&seller_fee_basis_points=\",      uint256(seller_fee_basis_points).toString());\n\t\tbytes memory f = abi.encodePacked(\"&fee_recipient=\",                fee_recipient.toHexString());\n\t\turi = string(abi.encodePacked(base_contract_uri, a, b, c, d, e, f));\n\t}\n\n\tfunction set_seller_fee_basis_points(uint32 value) external Check(Action_Asset_set_seller_fee_basis_points) {\n\t\tseller_fee_basis_points = value;\n\t\temit Change(Change_Tag_Asset_set_seller_fee_basis_points, value);\n\t}\n\n\tfunction set_fee_recipient(address recipient) external OnlyDAO {\n\t\tfee_recipient = recipient;\n\t\temit Change(Change_Tag_Asset_set_fee_recipient, uint160(recipient));\n\t}\n}\n\ncontract Asset is AssetModule, ERC1155, IAsset {\n\n\tfunction supportsInterface(bytes4 interfaceId) public view virtual override(ERC165,IERC165) returns (bool) {\n\t\treturn ERC1155.supportsInterface1155(interfaceId) || ERC165.supportsInterface(interfaceId);\n\t}\n\n\tfunction initAsset(address host, address operator, InitContractURI calldata uri) external {\n\t\tinitAssetModule(host, operator, uri);\n\t\tinitERC1155(uri.base_uri);\n\t\t_registerInterface(Asset_Type);\n\t}\n\n\t/**\n\t * @dev sefe mint asset\n\t */\n\tfunction safeMint(address to, uint256 id, string memory _tokenURI, bytes memory _data) public Check(Action_Asset_SafeMint) {\n\t\t// require(id % 2 == 0, \"#Asset1155.safeMint ID must be an even number\");\n\t\tif (id % 2 == 1) revert TokenIDMustEvenNumberInAsset();\n\t\t//require(!exists(id), \"#Asset1155.safeMint ID already exists\");\n\t\tif (exists(id)) revert TokenIDAlreadyExistsInAsset();\n\n\t\t_mint(to, id, 1, _data);\n\t\t// _setURI(id, _tokenURI);\n\t\t_tokenURIs[id] = _tokenURI;\n\t}\n\n\t/**\n\t * @dev make ERC721 NFT\n\t */\n\tfunction makeNFT(address to, uint256 id, string memory _tokenURI, uint256 minPrice) public {\n\t\tsafeMint(address(_host.first()), id, _tokenURI, abi.encode(to, minPrice));\n\t}\n\n\t/**\n\t * @dev copy make ERC1155 NFTs\n\t */\n\tfunction copyNFTs(address to, uint256 id, uint256 amount, uint256 minPrice) public {\n\t\t// require(id % 2 == 0, \"#Asset1155.makeNFTs ID must be an even number\");\n\t\tif (id % 2 == 1) revert TokenIDMustEvenNumberInAsset();\n\n\t\tif (balanceOf(_msgSender(), id) == 0) {\n\t\t\tuint256 _id = uint256(keccak256(abi.encodePacked(address(this), id)));\n\n\t\t\tif (_host.first().balanceOf(_msgSender(), _id) == 0)\n\t\t\t\t//require(_host.second().balanceOf(_msgSender(), _id) == 1, \"#Asset1155.copyNFTs No permission to create NFTs\");\n\t\t\t\tif (_host.second().balanceOf(_msgSender(), _id) == 0) revert NoPermissionToMintNFTs1155();\n\t\t}\n\n\t\t_mint(address(_host.second()), id + 1, amount, abi.encode(to, minPrice));\n\t}\n\n\tfunction uri(uint256 id) public view virtual override(ERC1155,IERC1155MetadataURI) returns (string memory) {\n\t\tif (id % 2 == 0) {\n\t\t\treturn ERC1155.uri(id); // 721\n\t\t} else {\n\t\t\treturn ERC1155.uri(id - 1); // return 721 metadata URI\n\t\t}\n\t}\n\n}",
  "sourcePath": "/Users/louis/Project/hc/NFTSwap/SmartHolder/contracts/Asset.sol",
  "compiler": {
    "name": "solc",
    "version": "0.8.17+commit.8df45f5f.Emscripten.clang"
  },
  "schemaVersion": "3.4.11",
  "updatedAt": "2023-05-25T08:10:25.423Z",
  "devdoc": {
    "kind": "dev",
    "methods": {
      "balanceOf(address,uint256)": {
        "details": "See {IERC1155-balanceOf}. Requirements: - `account` cannot be the zero address."
      },
      "balanceOfBatch(address[],uint256[])": {
        "details": "See {IERC1155-balanceOfBatch}. Requirements: - `accounts` and `ids` must have the same length."
      },
      "copyNFTs(address,uint256,uint256,uint256)": {
        "details": "copy make ERC1155 NFTs"
      },
      "exists(uint256)": {
        "details": "Indicates whether any token exist with a given id, or not."
      },
      "isApprovedForAll(address,address)": {
        "details": "See {IERC1155-isApprovedForAll}."
      },
      "makeNFT(address,uint256,string,uint256)": {
        "details": "make ERC721 NFT"
      },
      "name()": {
        "details": "Gets the token name.",
        "returns": {
          "_0": "string representing the token name"
        }
      },
      "safeBatchTransferFrom(address,address,uint256[],uint256[],bytes)": {
        "details": "See {IERC1155-safeBatchTransferFrom}."
      },
      "safeMint(address,uint256,string,bytes)": {
        "details": "sefe mint asset"
      },
      "safeTransferFrom(address,address,uint256,uint256,bytes)": {
        "details": "See {IERC1155-safeTransferFrom}."
      },
      "setApprovalForAll(address,bool)": {
        "details": "See {IERC1155-setApprovalForAll}."
      },
      "totalSupply(uint256)": {
        "details": "Total amount of tokens in with a given id."
      }
    },
    "version": 1
  },
  "userdoc": {
    "kind": "user",
    "methods": {},
    "version": 1
  }
}