{
  "contractName": "Asset",
  "abi": [
    {
      "anonymous": false,
      "inputs": [
        {
          "indexed": true,
          "internalType": "address",
          "name": "owner",
          "type": "address"
        },
        {
          "indexed": true,
          "internalType": "address",
          "name": "approved",
          "type": "address"
        },
        {
          "indexed": true,
          "internalType": "uint256",
          "name": "tokenId",
          "type": "uint256"
        }
      ],
      "name": "Approval",
      "type": "event"
    },
    {
      "anonymous": false,
      "inputs": [
        {
          "indexed": true,
          "internalType": "address",
          "name": "owner",
          "type": "address"
        },
        {
          "indexed": true,
          "internalType": "address",
          "name": "operator",
          "type": "address"
        },
        {
          "indexed": false,
          "internalType": "bool",
          "name": "approved",
          "type": "bool"
        }
      ],
      "name": "ApprovalForAll",
      "type": "event"
    },
    {
      "anonymous": false,
      "inputs": [
        {
          "indexed": true,
          "internalType": "address",
          "name": "from",
          "type": "address"
        },
        {
          "indexed": true,
          "internalType": "address",
          "name": "to",
          "type": "address"
        },
        {
          "indexed": true,
          "internalType": "uint256",
          "name": "tokenId",
          "type": "uint256"
        }
      ],
      "name": "Transfer",
      "type": "event"
    },
    {
      "inputs": [
        {
          "internalType": "address",
          "name": "to",
          "type": "address"
        },
        {
          "internalType": "uint256",
          "name": "tokenId",
          "type": "uint256"
        }
      ],
      "name": "approve",
      "outputs": [],
      "stateMutability": "nonpayable",
      "type": "function"
    },
    {
      "inputs": [
        {
          "internalType": "address",
          "name": "owner",
          "type": "address"
        }
      ],
      "name": "balanceOf",
      "outputs": [
        {
          "internalType": "uint256",
          "name": "",
          "type": "uint256"
        }
      ],
      "stateMutability": "view",
      "type": "function"
    },
    {
      "inputs": [],
      "name": "baseURI",
      "outputs": [
        {
          "internalType": "string",
          "name": "",
          "type": "string"
        }
      ],
      "stateMutability": "view",
      "type": "function"
    },
    {
      "inputs": [
        {
          "internalType": "bytes4",
          "name": "interfaceId",
          "type": "bytes4"
        },
        {
          "internalType": "string",
          "name": "message",
          "type": "string"
        }
      ],
      "name": "checkInterface",
      "outputs": [],
      "stateMutability": "view",
      "type": "function"
    },
    {
      "inputs": [],
      "name": "contractURI",
      "outputs": [
        {
          "internalType": "string",
          "name": "",
          "type": "string"
        }
      ],
      "stateMutability": "view",
      "type": "function"
    },
    {
      "inputs": [],
      "name": "description",
      "outputs": [
        {
          "internalType": "string",
          "name": "",
          "type": "string"
        }
      ],
      "stateMutability": "view",
      "type": "function"
    },
    {
      "inputs": [
        {
          "internalType": "uint256",
          "name": "id",
          "type": "uint256"
        }
      ],
      "name": "exists",
      "outputs": [
        {
          "internalType": "bool",
          "name": "",
          "type": "bool"
        }
      ],
      "stateMutability": "view",
      "type": "function"
    },
    {
      "inputs": [
        {
          "internalType": "uint256",
          "name": "tokenId",
          "type": "uint256"
        }
      ],
      "name": "getApproved",
      "outputs": [
        {
          "internalType": "address",
          "name": "",
          "type": "address"
        }
      ],
      "stateMutability": "view",
      "type": "function"
    },
    {
      "inputs": [],
      "name": "host",
      "outputs": [
        {
          "internalType": "contract IDAO",
          "name": "",
          "type": "address"
        }
      ],
      "stateMutability": "view",
      "type": "function"
    },
    {
      "inputs": [],
      "name": "impl",
      "outputs": [
        {
          "internalType": "address",
          "name": "",
          "type": "address"
        }
      ],
      "stateMutability": "view",
      "type": "function"
    },
    {
      "inputs": [
        {
          "internalType": "address",
          "name": "owner",
          "type": "address"
        },
        {
          "internalType": "address",
          "name": "operator",
          "type": "address"
        }
      ],
      "name": "isApprovedForAll",
      "outputs": [
        {
          "internalType": "bool",
          "name": "",
          "type": "bool"
        }
      ],
      "stateMutability": "view",
      "type": "function"
    },
    {
      "inputs": [],
      "name": "name",
      "outputs": [
        {
          "internalType": "string",
          "name": "",
          "type": "string"
        }
      ],
      "stateMutability": "view",
      "type": "function"
    },
    {
      "inputs": [],
      "name": "operator",
      "outputs": [
        {
          "internalType": "contract IVotePool",
          "name": "",
          "type": "address"
        }
      ],
      "stateMutability": "view",
      "type": "function"
    },
    {
      "inputs": [
        {
          "internalType": "uint256",
          "name": "tokenId",
          "type": "uint256"
        }
      ],
      "name": "ownerOf",
      "outputs": [
        {
          "internalType": "address",
          "name": "",
          "type": "address"
        }
      ],
      "stateMutability": "view",
      "type": "function"
    },
    {
      "inputs": [
        {
          "internalType": "address",
          "name": "from",
          "type": "address"
        },
        {
          "internalType": "address",
          "name": "to",
          "type": "address"
        },
        {
          "internalType": "uint256",
          "name": "tokenId",
          "type": "uint256"
        }
      ],
      "name": "safeTransferFrom",
      "outputs": [],
      "stateMutability": "nonpayable",
      "type": "function"
    },
    {
      "inputs": [
        {
          "internalType": "address",
          "name": "from",
          "type": "address"
        },
        {
          "internalType": "address",
          "name": "to",
          "type": "address"
        },
        {
          "internalType": "uint256",
          "name": "tokenId",
          "type": "uint256"
        },
        {
          "internalType": "bytes",
          "name": "_data",
          "type": "bytes"
        }
      ],
      "name": "safeTransferFrom",
      "outputs": [],
      "stateMutability": "nonpayable",
      "type": "function"
    },
    {
      "inputs": [
        {
          "internalType": "address",
          "name": "operator",
          "type": "address"
        },
        {
          "internalType": "bool",
          "name": "approved",
          "type": "bool"
        }
      ],
      "name": "setApprovalForAll",
      "outputs": [],
      "stateMutability": "nonpayable",
      "type": "function"
    },
    {
      "inputs": [
        {
          "internalType": "address",
          "name": "vote",
          "type": "address"
        }
      ],
      "name": "setOperator",
      "outputs": [],
      "stateMutability": "nonpayable",
      "type": "function"
    },
    {
      "inputs": [
        {
          "internalType": "bytes4",
          "name": "interfaceId",
          "type": "bytes4"
        }
      ],
      "name": "supportsInterface",
      "outputs": [
        {
          "internalType": "bool",
          "name": "",
          "type": "bool"
        }
      ],
      "stateMutability": "view",
      "type": "function"
    },
    {
      "inputs": [],
      "name": "symbol",
      "outputs": [
        {
          "internalType": "string",
          "name": "",
          "type": "string"
        }
      ],
      "stateMutability": "view",
      "type": "function"
    },
    {
      "inputs": [
        {
          "internalType": "uint256",
          "name": "index",
          "type": "uint256"
        }
      ],
      "name": "tokenByIndex",
      "outputs": [
        {
          "internalType": "uint256",
          "name": "",
          "type": "uint256"
        }
      ],
      "stateMutability": "view",
      "type": "function"
    },
    {
      "inputs": [
        {
          "internalType": "address",
          "name": "owner",
          "type": "address"
        },
        {
          "internalType": "uint256",
          "name": "index",
          "type": "uint256"
        }
      ],
      "name": "tokenOfOwnerByIndex",
      "outputs": [
        {
          "internalType": "uint256",
          "name": "",
          "type": "uint256"
        }
      ],
      "stateMutability": "view",
      "type": "function"
    },
    {
      "inputs": [
        {
          "internalType": "uint256",
          "name": "tokenId",
          "type": "uint256"
        }
      ],
      "name": "tokenURI",
      "outputs": [
        {
          "internalType": "string",
          "name": "",
          "type": "string"
        }
      ],
      "stateMutability": "view",
      "type": "function"
    },
    {
      "inputs": [],
      "name": "totalSupply",
      "outputs": [
        {
          "internalType": "uint256",
          "name": "",
          "type": "uint256"
        }
      ],
      "stateMutability": "view",
      "type": "function"
    },
    {
      "inputs": [
        {
          "internalType": "address",
          "name": "from",
          "type": "address"
        },
        {
          "internalType": "address",
          "name": "to",
          "type": "address"
        },
        {
          "internalType": "uint256",
          "name": "tokenId",
          "type": "uint256"
        }
      ],
      "name": "transferFrom",
      "outputs": [],
      "stateMutability": "nonpayable",
      "type": "function"
    },
    {
      "inputs": [
        {
          "internalType": "address",
          "name": "impl",
          "type": "address"
        }
      ],
      "name": "upgrade",
      "outputs": [],
      "stateMutability": "nonpayable",
      "type": "function"
    },
    {
      "inputs": [
        {
          "internalType": "address",
          "name": "host",
          "type": "address"
        },
        {
          "internalType": "string",
          "name": "description",
          "type": "string"
        },
        {
          "internalType": "address",
          "name": "operator",
          "type": "address"
        },
        {
          "internalType": "string",
          "name": "_contractURI",
          "type": "string"
        }
      ],
      "name": "initAsset",
      "outputs": [],
      "stateMutability": "nonpayable",
      "type": "function"
    },
    {
      "inputs": [
        {
          "internalType": "string",
          "name": "_contractURI",
          "type": "string"
        }
      ],
      "name": "setContractURI",
      "outputs": [],
      "stateMutability": "nonpayable",
      "type": "function"
    },
    {
      "inputs": [
        {
          "internalType": "address",
          "name": "to",
          "type": "address"
        },
        {
          "internalType": "uint256",
          "name": "tokenId",
          "type": "uint256"
        },
        {
          "internalType": "string",
          "name": "_tokenURI",
          "type": "string"
        },
        {
          "internalType": "address",
          "name": "lock",
          "type": "address"
        },
        {
          "internalType": "bytes",
          "name": "_data",
          "type": "bytes"
        }
      ],
      "name": "safeMint",
      "outputs": [],
      "stateMutability": "nonpayable",
      "type": "function"
    },
    {
      "inputs": [
        {
          "internalType": "uint256",
          "name": "tokenId",
          "type": "uint256"
        },
        {
          "internalType": "string",
          "name": "_tokenURI",
          "type": "string"
        }
      ],
      "name": "setTokenURI",
      "outputs": [],
      "stateMutability": "nonpayable",
      "type": "function"
    }
  ],
  "bytecode": "0x608060405234801561001057600080fd5b50612b74806100206000396000f3fe608060405234801561001057600080fd5b50600436106101da5760003560e01c80636c0360eb11610104578063a22cb465116100a2578063c87b56dd11610071578063c87b56dd146109fa578063e8a3d48514610a17578063e985e9c514610a1f578063f437bc5914610a4d576101da565b8063a22cb4651461082d578063b3ab15fb1461085b578063b88d4fde14610881578063c64df69d14610945576101da565b80637284e416116100de5780637284e416146107715780638abf607714610779578063938e3d7b1461078157806395d89b4114610825576101da565b80636c0360eb1461062a5780636f7307c91461063257806370a082311461074b576101da565b806323b872dd1161017c5780634f6ccce71161014b5780634f6ccce71461049e578063570ca735146104bb5780636352211e146104c357806368ca456f146104e0576101da565b806323b872dd146103e95780632f745c591461041f57806342842e0e1461044b5780634f558e7914610481576101da565b80630900f010116101b85780630900f010146102d0578063095ea7b3146102f8578063162094c41461032457806318160ddd146103cf576101da565b806301ffc9a7146101df57806306fdde031461021a578063081812fc14610297575b600080fd5b610206600480360360208110156101f557600080fd5b50356001600160e01b031916610a55565b604080519115158252519081900360200190f35b610222610a78565b6040805160208082528351818301528351919283929083019185019080838360005b8381101561025c578181015183820152602001610244565b50505050905090810190601f1680156102895780820380516001836020036101000a031916815260200191505b509250505060405180910390f35b6102b4600480360360208110156102ad57600080fd5b5035610b0f565b604080516001600160a01b039092168252519081900360200190f35b6102f6600480360360208110156102e657600080fd5b50356001600160a01b0316610b71565b005b6102f66004803603604081101561030e57600080fd5b506001600160a01b038135169060200135610bd6565b6102f66004803603604081101561033a57600080fd5b81359190810190604081016020820135600160201b81111561035b57600080fd5b82018360208201111561036d57600080fd5b803590602001918460018302840111600160201b8311171561038e57600080fd5b91908080601f016020809104026020016040519081016040528093929190818152602001838380828437600092019190915250929550610cb1945050505050565b6103d7610d0b565b60408051918252519081900360200190f35b6102f6600480360360608110156103ff57600080fd5b506001600160a01b03813581169160208101359091169060400135610d1c565b6103d76004803603604081101561043557600080fd5b506001600160a01b038135169060200135610d83565b6102f66004803603606081101561046157600080fd5b506001600160a01b03813581169160208101359091169060400135610dae565b6102066004803603602081101561049757600080fd5b5035610dc9565b6103d7600480360360208110156104b457600080fd5b5035610dd4565b6102b4610dea565b6102b4600480360360208110156104d957600080fd5b5035610df9565b6102f6600480360360808110156104f657600080fd5b6001600160a01b038235169190810190604081016020820135600160201b81111561052057600080fd5b82018360208201111561053257600080fd5b803590602001918460018302840111600160201b8311171561055357600080fd5b91908080601f01602080910402602001604051908101604052809392919081815260200183838082843760009201919091525092956001600160a01b03853516959094909350604081019250602001359050600160201b8111156105b657600080fd5b8201836020820111156105c857600080fd5b803590602001918460018302840111600160201b831117156105e957600080fd5b91908080601f016020809104026020016040519081016040528093929190818152602001838380828437600092019190915250929550610e21945050505050565b610222610e56565b6102f6600480360360a081101561064857600080fd5b6001600160a01b0382351691602081013591810190606081016040820135600160201b81111561067757600080fd5b82018360208201111561068957600080fd5b803590602001918460018302840111600160201b831117156106aa57600080fd5b91908080601f01602080910402602001604051908101604052809392919081815260200183838082843760009201919091525092956001600160a01b03853516959094909350604081019250602001359050600160201b81111561070d57600080fd5b82018360208201111561071f57600080fd5b803590602001918460018302840111600160201b8311171561074057600080fd5b509092509050610eb7565b6103d76004803603602081101561076157600080fd5b50356001600160a01b0316610f0a565b610222610f72565b6102b4610fd3565b6102f66004803603602081101561079757600080fd5b810190602081018135600160201b8111156107b157600080fd5b8201836020820111156107c357600080fd5b803590602001918460018302840111600160201b831117156107e457600080fd5b91908080601f016020809104026020016040519081016040528093929190818152602001838380828437600092019190915250929550610fe2945050505050565b610222610ff5565b6102f66004803603604081101561084357600080fd5b506001600160a01b0381351690602001351515611056565b6102f66004803603602081101561087157600080fd5b50356001600160a01b031661115b565b6102f66004803603608081101561089757600080fd5b6001600160a01b03823581169260208101359091169160408201359190810190608081016060820135600160201b8111156108d157600080fd5b8201836020820111156108e357600080fd5b803590602001918460018302840111600160201b8311171561090457600080fd5b91908080601f0160208091040260200160405190810160405280939291908181526020018383808284376000920191909152509295506111aa945050505050565b6102f66004803603604081101561095b57600080fd5b6001600160e01b03198235169190810190604081016020820135600160201b81111561098657600080fd5b82018360208201111561099857600080fd5b803590602001918460018302840111600160201b831117156109b957600080fd5b91908080601f016020809104026020016040519081016040528093929190818152602001838380828437600092019190915250929550611202945050505050565b61022260048036036020811015610a1057600080fd5b5035611295565b6102226112a0565b61020660048036036040811015610a3557600080fd5b506001600160a01b038135811691602001351661132e565b6102b461135c565b6001600160e01b0319811660009081526001602052604090205460ff165b919050565b600a8054604080516020601f6002600019610100600188161502019095169490940493840181900481028201810190925282815260609390929091830182828015610b045780601f10610ad957610100808354040283529160200191610b04565b820191906000526020600020905b815481529060010190602001808311610ae757829003601f168201915b505050505090505b90565b6000610b1a8261136b565b610b555760405162461bcd60e51b815260040180806020018281038252602c8152602001806129d7602c913960400191505060405180910390fd5b506000908152600860205260409020546001600160a01b031690565b610b79611378565b610bb45760405162461bcd60e51b81526004018080602001828103825260338152602001806128226033913960400191505060405180910390fd5b600080546001600160a01b0319166001600160a01b0392909216919091179055565b6000610be182610df9565b9050806001600160a01b0316836001600160a01b03161415610c345760405162461bcd60e51b8152600401808060200182810382526021815260200180612aed6021913960400191505060405180910390fd5b806001600160a01b0316610c466114b2565b6001600160a01b03161480610c675750610c6781610c626114b2565b61132e565b610ca25760405162461bcd60e51b81526004018080602001828103825260388152602001806129096038913960400191505060405180910390fd5b610cac83836114bc565b505050565b610cc2610cbc6114b2565b8361152a565b610cfd5760405162461bcd60e51b81526004018080602001828103825260218152602001806129416021913960400191505060405180910390fd5b610d0782826115ce565b5050565b6000610d176006611631565b905090565b610d2d610d276114b2565b8261152a565b610d685760405162461bcd60e51b8152600401808060200182810382526031815260200180612b0e6031913960400191505060405180910390fd5b610cac8383836040518060200160405280600081525061163c565b6001600160a01b0382166000908152600560205260408120610da5908361178a565b90505b92915050565b610cac838383604051806020016040528060008152506111aa565b6000610da88261136b565b600080610de2600684611796565b509392505050565b6002546001600160a01b031690565b6000610da88260405180606001604052806029815260200161298c60299139600691906117b2565b610e2c8484846117c9565b610e3c6368ca456f60e01b611899565b8051610e4f90600e90602084019061276c565b5050505050565b600d8054604080516020601f6002600019610100600188161502019095169490940493840181900481028201810190925282815260609390929091830182828015610b045780601f10610ad957610100808354040283529160200191610b04565b610ef8868684848080601f0160208091040260200160405190810160405280939291908181526020018383808284376000920191909152506118a292505050565b610f0285856115ce565b505050505050565b60006001600160a01b038216610f515760405162461bcd60e51b815260040180806020018281038252602a815260200180612962602a913960400191505060405180910390fd5b6001600160a01b0382166000908152600560205260409020610da890611631565b60048054604080516020601f6002600019610100600188161502019095169490940493840181900481028201810190925282815260609390929091830182828015610b045780601f10610ad957610100808354040283529160200191610b04565b6000546001600160a01b031690565b8051610d0790600e90602084019061276c565b600b8054604080516020601f6002600019610100600188161502019095169490940493840181900481028201810190925282815260609390929091830182828015610b045780601f10610ad957610100808354040283529160200191610b04565b61105e6114b2565b6001600160a01b0316826001600160a01b031614156110c4576040805162461bcd60e51b815260206004820152601960248201527f4552433732313a20617070726f766520746f2063616c6c657200000000000000604482015290519081900360640190fd5b80600960006110d16114b2565b6001600160a01b03908116825260208083019390935260409182016000908120918716808252919093529120805460ff1916921515929092179091556111156114b2565b6001600160a01b03167f17307eab39ab6107e8899845ad3d59bd9653f200f220920489ca2b5937696c318360405180821515815260200191505060405180910390a35050565b611163611378565b61119e5760405162461bcd60e51b81526004018080602001828103825260338152602001806128226033913960400191505060405180910390fd5b6111a7816118f4565b50565b6111b5610cbc6114b2565b6111f05760405162461bcd60e51b8152600401808060200182810382526031815260200180612b0e6031913960400191505060405180910390fd5b6111fc848484846119bf565b50505050565b61120b82610a55565b8190610cac5760405162461bcd60e51b81526004018080602001828103825283818151815260200191508051906020019080838360005b8381101561125a578181015183820152602001611242565b50505050905090810190601f1680156112875780820380516001836020036101000a031916815260200191505b509250505060405180910390fd5b6060610da882611a12565b600e805460408051602060026001851615610100026000190190941693909304601f810184900484028201840190925281815292918301828280156113265780601f106112fb57610100808354040283529160200191611326565b820191906000526020600020905b81548152906001019060200180831161130957829003601f168201915b505050505081565b6001600160a01b03918216600090815260096020908152604080832093909416825291909152205460ff1690565b6003546001600160a01b031690565b6000610da8600683611cb9565b60025460009033906001600160a01b031681146114aa57600360009054906101000a90046001600160a01b03166001600160a01b031663570ca7356040518163ffffffff1660e01b815260040160206040518083038186803b1580156113dd57600080fd5b505afa1580156113f1573d6000803e3d6000fd5b505050506040513d602081101561140757600080fd5b50516001600160a01b038281169116146114aa57600360009054906101000a90046001600160a01b03166001600160a01b031663ebf0c7176040518163ffffffff1660e01b815260040160206040518083038186803b15801561146957600080fd5b505afa15801561147d573d6000803e3d6000fd5b505050506040513d602081101561149357600080fd5b50516001600160a01b039182169116149050610b0c565b600191505090565b6000610d17611cc5565b600081815260086020526040902080546001600160a01b0319166001600160a01b03841690811790915581906114f182610df9565b6001600160a01b03167f8c5be1e5ebec7d5bd14f71427d1e84f3dd0314c0f7b2291e5b200ac8c7c3b92560405160405180910390a45050565b60006115358261136b565b6115705760405162461bcd60e51b815260040180806020018281038252602c8152602001806128ab602c913960400191505060405180910390fd5b600061157b83610df9565b9050806001600160a01b0316846001600160a01b031614806115b65750836001600160a01b03166115ab84610b0f565b6001600160a01b0316145b806115c657506115c6818561132e565b949350505050565b6115d78261136b565b6116125760405162461bcd60e51b815260040180806020018281038252602c815260200180612a03602c913960400191505060405180910390fd5b6000828152600c602090815260409091208251610cac9284019061276c565b6000610da882611cc9565b836001600160a01b031661164f83610df9565b6001600160a01b0316146116945760405162461bcd60e51b8152600401808060200182810382526029815260200180612a956029913960400191505060405180910390fd5b6001600160a01b0383166116d95760405162461bcd60e51b81526004018080602001828103825260248152602001806128876024913960400191505060405180910390fd5b6116e5848484846111fc565b6116f06000836114bc565b6001600160a01b03841660009081526005602052604090206117129083611ccd565b506001600160a01b03831660009081526005602052604090206117359083611cd9565b5061174260068385611ce5565b5081836001600160a01b0316856001600160a01b03167fddf252ad1be2c89b69c2b068fc378daa952ba7f163c4a11628f55a4df523b3ef60405160405180910390a450505050565b6000610da58383611cfb565b60008080806117a58686611d5f565b9097909650945050505050565b60006117bf848484611dda565b90505b9392505050565b600054600160a81b900460ff16806117e457506117e4611e67565b806117f95750600054600160a01b900460ff16155b6118345760405162461bcd60e51b815260040180806020018281038252602e815260200180612a67602e913960400191505060405180910390fd5b600054600160a81b900460ff1615801561186b576000805460ff60a01b1960ff60a81b19909116600160a81b1716600160a01b1790555b611876848484611e6d565b6118808384611f3f565b80156111fc576000805460ff60a81b1916905550505050565b6111a781611f97565b6118ac838361201e565b6118b9600084848461215c565b610cac5760405162461bcd60e51b81526004018080602001828103825260328152602001806128556032913960400191505060405180910390fd5b6001600160a01b0381161561199d57611915816001600160a01b03166122a9565b1561199d576040805163c64df69d60e01b8152630ddf27bf60e01b60048201818152602483019384526038604484018190526001600160a01b0386169463c64df69d949091606490910190612a2f82396040019250505060006040518083038186803b15801561198457600080fd5b505afa158015611998573d6000803e3d6000fd5b505050505b600280546001600160a01b0319166001600160a01b0392909216919091179055565b6119cb8484848461163c565b6119d78484848461215c565b6111fc5760405162461bcd60e51b81526004018080602001828103825260328152602001806128556032913960400191505060405180910390fd5b6060611a1d8261136b565b611a585760405162461bcd60e51b815260040180806020018281038252602f815260200180612abe602f913960400191505060405180910390fd5b6000828152600c602090815260409182902080548351601f6002600019610100600186161502019093169290920491820184900484028101840190945280845260609392830182828015611aed5780601f10611ac257610100808354040283529160200191611aed565b820191906000526020600020905b815481529060010190602001808311611ad057829003601f168201915b5050600d5493945050505060026000196101006001841615020190911604611b16579050610a73565b805115611be757600d816040516020018083805460018160011615610100020316600290048015611b7e5780601f10611b5c576101008083540402835291820191611b7e565b820191906000526020600020905b815481529060010190602001808311611b6a575b5050825160208401908083835b60208310611baa5780518252601f199092019160209182019101611b8b565b6001836020036101000a03801982511681845116808217855250505050505090500192505050604051602081830303815290604052915050610a73565b600d611bf2846122e2565b6040516020018083805460018160011615610100020316600290048015611c505780601f10611c2e576101008083540402835291820191611c50565b820191906000526020600020905b815481529060010190602001808311611c3c575b5050825160208401908083835b60208310611c7c5780518252601f199092019160209182019101611c5d565b6001836020036101000a03801982511681845116808217855250505050505090500192505050604051602081830303815290604052915050919050565b6000610da583836123bd565b3390565b5490565b6000610da583836123d5565b6000610da5838361249b565b60006117bf84846001600160a01b0385166124e5565b81546000908210611d3d5760405162461bcd60e51b81526004018080602001828103825260228152602001806128006022913960400191505060405180910390fd5b826000018281548110611d4c57fe5b9060005260206000200154905092915050565b815460009081908310611da35760405162461bcd60e51b81526004018080602001828103825260228152602001806129b56022913960400191505060405180910390fd5b6000846000018481548110611db457fe5b906000526020600020906002020190508060000154816001015492509250509250929050565b60008281526001840160205260408120548281611e385760405162461bcd60e51b815260206004820181815283516024840152835190928392604490910191908501908083836000831561125a578181015183820152602001611242565b50846000016001820381548110611e4b57fe5b9060005260206000209060020201600101549150509392505050565b303b1590565b611e7561257c565b611e856336c6362d60e01b611899565b6040805163c64df69d60e01b81526363daa99b60e11b60048201818152602483019384526032604484018190526001600160a01b0388169463c64df69d9490916064909101906128d782396040019250505060006040518083038186803b158015611eef57600080fd5b505afa158015611f03573d6000803e3d6000fd5b5050600380546001600160a01b0319166001600160a01b03871617905550508151611f3590600490602085019061276c565b50610cac816118f4565b8151611f5290600a90602085019061276c565b508051611f6690600b90602084019061276c565b50611f776380ac58cd60e01b611899565b611f87635b5e139f60e01b611899565b610d0763780e9d6360e01b611899565b6001600160e01b03198082161415611ff6576040805162461bcd60e51b815260206004820152601c60248201527f4552433136353a20696e76616c696420696e7465726661636520696400000000604482015290519081900360640190fd5b6001600160e01b0319166000908152600160208190526040909120805460ff19169091179055565b6001600160a01b038216612079576040805162461bcd60e51b815260206004820181905260248201527f4552433732313a206d696e7420746f20746865207a65726f2061646472657373604482015290519081900360640190fd5b6120828161136b565b156120d4576040805162461bcd60e51b815260206004820152601c60248201527f4552433732313a20746f6b656e20616c7265616479206d696e74656400000000604482015290519081900360640190fd5b6120f060008383604051806020016040528060008152506111fc565b6001600160a01b03821660009081526005602052604090206121129082611cd9565b5061211f60068284611ce5565b5060405181906001600160a01b038416906000907fddf252ad1be2c89b69c2b068fc378daa952ba7f163c4a11628f55a4df523b3ef908290a45050565b6000612170846001600160a01b03166122a9565b61217c575060016115c6565b6060630a85bd0160e11b61218e6114b2565b87868660405160240180856001600160a01b03168152602001846001600160a01b0316815260200183815260200180602001828103825283818151815260200191508051906020019080838360005b838110156121f55781810151838201526020016121dd565b50505050905090810190601f1680156122225780820380516001836020036101000a031916815260200191505b5095505050505050604051602081830303815290604052906001600160e01b0319166020820180516001600160e01b038381831617835250505050905063150b7a0260e01b6001600160e01b031916612294868360405180606001604052806032815260200161285560329139612644565b6001600160e01b031916149695505050505050565b6000813f7fc5d2460186f7233c927e7db2dcc703c0e500b653ca82273b7bfad8045d85a4708181148015906115c6575050151592915050565b60608161230757506040805180820190915260018152600360fc1b6020820152610a73565b8160005b811561231f57600101600a8204915061230b565b60608167ffffffffffffffff8111801561233857600080fd5b506040519080825280601f01601f191660200182016040528015612363576020820181803683370190505b50859350905060001982015b83156123b457600a840660300160f81b8282806001900393508151811061239257fe5b60200101906001600160f81b031916908160001a905350600a8404935061236f565b50949350505050565b60009081526001919091016020526040902054151590565b60008181526001830160205260408120548015612491578354600019808301919081019060009087908390811061240857fe5b906000526020600020015490508087600001848154811061242557fe5b60009182526020808320909101929092558281526001898101909252604090209084019055865487908061245557fe5b60019003818190600052602060002001600090559055866001016000878152602001908152602001600020600090556001945050505050610da8565b6000915050610da8565b60006124a783836123bd565b6124dd57508154600181810184556000848152602080822090930184905584548482528286019093526040902091909155610da8565b506000610da8565b60008281526001840160205260408120548061254a5750506040805180820182528381526020808201848152865460018181018955600089815284812095516002909302909501918255915190820155865486845281880190925292909120556117c2565b8285600001600183038154811061255d57fe5b90600052602060002090600202016001018190555060009150506117c2565b600054600160a81b900460ff16806125975750612597611e67565b806125ac5750600054600160a01b900460ff16155b6125e75760405162461bcd60e51b815260040180806020018281038252602e815260200180612a67602e913960400191505060405180910390fd5b600054600160a81b900460ff1615801561261e576000805460ff60a01b1960ff60a81b19909116600160a81b1716600160a01b1790555b61262e6301ffc9a760e01b611899565b80156111a7576000805460ff60a81b1916905550565b6000806060856001600160a01b0316856040518082805190602001908083835b602083106126835780518252601f199092019160209182019101612664565b6001836020036101000a0380198251168184511680821785525050505050509050019150506000604051808303816000865af19150503d80600081146126e5576040519150601f19603f3d011682016040523d82523d6000602084013e6126ea565b606091505b50915091508161274b578051156127045780518082602001fd5b60405162461bcd60e51b815260206004820181815286516024840152865187939192839260440191908501908083836000831561125a578181015183820152602001611242565b80806020019051602081101561276057600080fd5b505192506117c2915050565b828054600181600116156101000203166002900490600052602060002090601f016020900481019282601f106127ad57805160ff19168380011785556127da565b828001600101855582156127da579182015b828111156127da5782518255916020019190600101906127bf565b506127e69291506127ea565b5090565b5b808211156127e657600081556001016127eb56fe456e756d657261626c655365743a20696e646578206f7574206f6620626f756e6473234465706172746d656e74234f6e6c7944414f2063616c6c657220646f6573206e6f742068617665207065726d697373696f6e4552433732313a207472616e7366657220746f206e6f6e20455243373231526563656976657220696d706c656d656e7465724552433732313a207472616e7366657220746f20746865207a65726f20616464726573734552433732313a206f70657261746f7220717565727920666f72206e6f6e6578697374656e7420746f6b656e234465706172746d656e7423696e69744465706172746d656e742064616f20686f73742074797065206e6f74206d617463684552433732313a20617070726f76652063616c6c6572206973206e6f74206f776e6572206e6f7220617070726f76656420666f7220616c6c234e46547323736574546f6b656e5552493a206f776e6572206e6f206d617463684552433732313a2062616c616e636520717565727920666f7220746865207a65726f20616464726573734552433732313a206f776e657220717565727920666f72206e6f6e6578697374656e7420746f6b656e456e756d657261626c654d61703a20696e646578206f7574206f6620626f756e64734552433732313a20617070726f76656420717565727920666f72206e6f6e6578697374656e7420746f6b656e4552433732314d657461646174613a2055524920736574206f66206e6f6e6578697374656e7420746f6b656e234465706172746d656e74237365744f70657261746f725f696e7465726e616c206f70657261746f722074797065206e6f74206d61746368436f6e747261637420696e7374616e63652068617320616c7265616479206265656e20696e697469616c697a65644552433732313a207472616e73666572206f6620746f6b656e2074686174206973206e6f74206f776e4552433732314d657461646174613a2055524920717565727920666f72206e6f6e6578697374656e7420746f6b656e4552433732313a20617070726f76616c20746f2063757272656e74206f776e65724552433732313a207472616e736665722063616c6c6572206973206e6f74206f776e6572206e6f7220617070726f766564a264697066735822122082f5bab9be2dd6a3c61cf947f3d1c4022ad83cbeb5b98ce0a70a6e9dc641b1ff64736f6c634300060c0033",
  "immutableReferences": {},
  "source": "\npragma solidity >=0.6.12 <=0.8.15;\n\nimport \"./ERC721.sol\";\n\ncontract Asset is IAsset, ERC721 {\n\n\t/*{\n\t\t\"name\": \"OpenSea Creatures\",\n\t\t\"description\": \"OpenSea Creatures are adorable aquatic beings primarily for demonstrating what can be done using the OpenSea platform. Adopt one today to try out all the OpenSea buying, selling, and bidding feature set.\",\n\t\t\"image\": \"external-link-url/image.png\",\n\t\t\"external_link\": \"external-link-url\",\n\t\t\"seller_fee_basis_points\": 100, # Indicates a 1% seller fee.\n\t\t\"fee_recipient\": \"0xA97F337c39cccE66adfeCB2BF99C1DdC54C2D721\" # Where seller fees will be paid to.\n\t}*/\n\tstring public contractURI;// = \"https://smart-dao.stars-mine.com/service-api/utils/getOpenseaContractJSON?\";\n\n\tfunction initAsset(address host, string memory description, address operator, string memory _contractURI) external {\n\t\tinitERC721(host, description, operator);\n\t\t_registerInterface(Asset_ID);\n\t\tcontractURI = _contractURI;\n\t}\n\n\tfunction setContractURI(string memory _contractURI) public {\n\t\tcontractURI = _contractURI;\n\t}\n\n\tfunction safeMint(address to, uint256 tokenId, string memory _tokenURI, address lock, bytes calldata _data) public {\n\t\t_safeMint(to, tokenId, _data);\n\t\t_setTokenURI(tokenId, _tokenURI);\n\t}\n\n\tfunction _burn(uint256 tokenId) internal virtual override {\n\t\t// NOOP\n\t}\n\n\tfunction setTokenURI(uint256 tokenId, string memory _tokenURI) public {\n\t\trequire(_havePermission(_msgSender(), tokenId), \"#NFTs#setTokenURI: owner no match\");\n\t\t_setTokenURI(tokenId, _tokenURI);\n\t}\n\n}\n",
  "sourcePath": "/Users/louis/Project/hc/NFTSwap/SmartHolder/contracts/Asset.sol",
  "compiler": {
    "name": "solc",
    "version": "0.6.12+commit.27d51765.Emscripten.clang"
  },
  "schemaVersion": "3.4.8",
  "updatedAt": "2022-09-29T06:33:41.993Z",
  "devdoc": {
    "kind": "dev",
    "methods": {
      "approve(address,uint256)": {
        "details": "Approves another address to transfer the given token ID The zero address indicates there is no approved address. There can only be one approved address per token at a given time. Can only be called by the token owner or an approved operator.",
        "params": {
          "to": "address to be approved for the given token ID",
          "tokenId": "uint256 ID of the token to be approved"
        }
      },
      "balanceOf(address)": {
        "details": "Gets the balance of the specified address.",
        "params": {
          "owner": "address to query the balance of"
        },
        "returns": {
          "_0": "uint256 representing the amount owned by the passed address"
        }
      },
      "baseURI()": {
        "details": "Returns the base URI set via {_setBaseURI}. This will be automatically added as a prefix in {tokenURI} to each token's URI, or to the token ID if no specific URI is set for that token ID."
      },
      "getApproved(uint256)": {
        "details": "Gets the approved address for a token ID, or zero if no address set Reverts if the token ID does not exist.",
        "params": {
          "tokenId": "uint256 ID of the token to query the approval of"
        },
        "returns": {
          "_0": "address currently approved for the given token ID"
        }
      },
      "isApprovedForAll(address,address)": {
        "details": "Tells whether an operator is approved by a given owner.",
        "params": {
          "operator": "operator address which you want to query the approval of",
          "owner": "owner address which you want to query the approval of"
        },
        "returns": {
          "_0": "bool whether the given operator is approved by the given owner"
        }
      },
      "name()": {
        "details": "Gets the token name.",
        "returns": {
          "_0": "string representing the token name"
        }
      },
      "ownerOf(uint256)": {
        "details": "Gets the owner of the specified token ID.",
        "params": {
          "tokenId": "uint256 ID of the token to query the owner of"
        },
        "returns": {
          "_0": "address currently marked as the owner of the given token ID"
        }
      },
      "safeTransferFrom(address,address,uint256)": {
        "details": "Safely transfers the ownership of a given token ID to another address If the target address is a contract, it must implement {IERC721Receiver-onERC721Received}, which is called upon a safe transfer, and return the magic value `bytes4(keccak256(\"onERC721Received(address,address,uint256,bytes)\"))`; otherwise, the transfer is reverted. Requires the msg.sender to be the owner, approved, or operator",
        "params": {
          "from": "current owner of the token",
          "to": "address to receive the ownership of the given token ID",
          "tokenId": "uint256 ID of the token to be transferred"
        }
      },
      "safeTransferFrom(address,address,uint256,bytes)": {
        "details": "Safely transfers the ownership of a given token ID to another address If the target address is a contract, it must implement {IERC721Receiver-onERC721Received}, which is called upon a safe transfer, and return the magic value `bytes4(keccak256(\"onERC721Received(address,address,uint256,bytes)\"))`; otherwise, the transfer is reverted. Requires the _msgSender() to be the owner, approved, or operator",
        "params": {
          "_data": "bytes data to send along with a safe transfer check",
          "from": "current owner of the token",
          "to": "address to receive the ownership of the given token ID",
          "tokenId": "uint256 ID of the token to be transferred"
        }
      },
      "setApprovalForAll(address,bool)": {
        "details": "Sets or unsets the approval of a given operator An operator is allowed to transfer all tokens of the sender on their behalf.",
        "params": {
          "approved": "representing the status of the approval to be set",
          "operator": "operator address to set the approval"
        }
      },
      "supportsInterface(bytes4)": {
        "details": "See {IERC165-supportsInterface}. Time complexity O(1), guaranteed to always use less than 30 000 gas."
      },
      "symbol()": {
        "details": "Gets the token symbol.",
        "returns": {
          "_0": "string representing the token symbol"
        }
      },
      "tokenByIndex(uint256)": {
        "details": "Gets the token ID at a given index of all the tokens in this contract Reverts if the index is greater or equal to the total number of tokens.",
        "params": {
          "index": "uint256 representing the index to be accessed of the tokens list"
        },
        "returns": {
          "_0": "uint256 token ID at the given index of the tokens list"
        }
      },
      "tokenOfOwnerByIndex(address,uint256)": {
        "details": "Gets the token ID at a given index of the tokens list of the requested owner.",
        "params": {
          "index": "uint256 representing the index to be accessed of the requested tokens list",
          "owner": "address owning the tokens list to be accessed"
        },
        "returns": {
          "_0": "uint256 token ID at the given index of the tokens list owned by the requested address"
        }
      },
      "totalSupply()": {
        "details": "Gets the total amount of tokens stored by the contract.",
        "returns": {
          "_0": "uint256 representing the total amount of tokens"
        }
      },
      "transferFrom(address,address,uint256)": {
        "details": "Transfers the ownership of a given token ID to another address. Usage of this method is discouraged, use {safeTransferFrom} whenever possible. Requires the msg.sender to be the owner, approved, or operator.",
        "params": {
          "from": "current owner of the token",
          "to": "address to receive the ownership of the given token ID",
          "tokenId": "uint256 ID of the token to be transferred"
        }
      }
    },
    "version": 1
  },
  "userdoc": {
    "kind": "user",
    "methods": {},
    "version": 1
  }
}