{
  "contractName": "DAO",
  "abi": [
    {
      "anonymous": false,
      "inputs": [
        {
          "indexed": true,
          "internalType": "uint256",
          "name": "tag",
          "type": "uint256"
        },
        {
          "indexed": false,
          "internalType": "uint256",
          "name": "value",
          "type": "uint256"
        }
      ],
      "name": "Change",
      "type": "event"
    },
    {
      "anonymous": false,
      "inputs": [
        {
          "indexed": true,
          "internalType": "uint256",
          "name": "id",
          "type": "uint256"
        },
        {
          "indexed": false,
          "internalType": "address",
          "name": "addr",
          "type": "address"
        }
      ],
      "name": "SetModule",
      "type": "event"
    },
    {
      "inputs": [
        {
          "internalType": "bytes4",
          "name": "interfaceId",
          "type": "bytes4"
        },
        {
          "internalType": "string",
          "name": "message",
          "type": "string"
        }
      ],
      "name": "checkInterface",
      "outputs": [],
      "stateMutability": "view",
      "type": "function"
    },
    {
      "inputs": [],
      "name": "description",
      "outputs": [
        {
          "internalType": "string",
          "name": "",
          "type": "string"
        }
      ],
      "stateMutability": "view",
      "type": "function"
    },
    {
      "inputs": [],
      "name": "host",
      "outputs": [
        {
          "internalType": "contract IDAO",
          "name": "",
          "type": "address"
        }
      ],
      "stateMutability": "view",
      "type": "function"
    },
    {
      "inputs": [],
      "name": "impl",
      "outputs": [
        {
          "internalType": "address",
          "name": "",
          "type": "address"
        }
      ],
      "stateMutability": "view",
      "type": "function"
    },
    {
      "inputs": [],
      "name": "operator",
      "outputs": [
        {
          "internalType": "address",
          "name": "",
          "type": "address"
        }
      ],
      "stateMutability": "view",
      "type": "function"
    },
    {
      "inputs": [
        {
          "internalType": "string",
          "name": "value",
          "type": "string"
        }
      ],
      "name": "setDescription",
      "outputs": [],
      "stateMutability": "nonpayable",
      "type": "function"
    },
    {
      "inputs": [
        {
          "internalType": "address",
          "name": "operator",
          "type": "address"
        }
      ],
      "name": "setOperator",
      "outputs": [],
      "stateMutability": "nonpayable",
      "type": "function"
    },
    {
      "inputs": [
        {
          "internalType": "bytes4",
          "name": "interfaceId",
          "type": "bytes4"
        }
      ],
      "name": "supportsInterface",
      "outputs": [
        {
          "internalType": "bool",
          "name": "",
          "type": "bool"
        }
      ],
      "stateMutability": "view",
      "type": "function"
    },
    {
      "inputs": [
        {
          "internalType": "address",
          "name": "impl",
          "type": "address"
        }
      ],
      "name": "upgrade",
      "outputs": [],
      "stateMutability": "nonpayable",
      "type": "function"
    },
    {
      "inputs": [],
      "name": "root",
      "outputs": [
        {
          "internalType": "address",
          "name": "",
          "type": "address"
        }
      ],
      "stateMutability": "view",
      "type": "function"
    },
    {
      "inputs": [],
      "name": "name",
      "outputs": [
        {
          "internalType": "string",
          "name": "",
          "type": "string"
        }
      ],
      "stateMutability": "view",
      "type": "function"
    },
    {
      "inputs": [],
      "name": "mission",
      "outputs": [
        {
          "internalType": "string",
          "name": "",
          "type": "string"
        }
      ],
      "stateMutability": "view",
      "type": "function"
    },
    {
      "inputs": [],
      "name": "image",
      "outputs": [
        {
          "internalType": "string",
          "name": "",
          "type": "string"
        }
      ],
      "stateMutability": "view",
      "type": "function"
    },
    {
      "inputs": [],
      "name": "member",
      "outputs": [
        {
          "internalType": "contract IMember",
          "name": "",
          "type": "address"
        }
      ],
      "stateMutability": "view",
      "type": "function"
    },
    {
      "inputs": [],
      "name": "ledger",
      "outputs": [
        {
          "internalType": "contract ILedger",
          "name": "",
          "type": "address"
        }
      ],
      "stateMutability": "view",
      "type": "function"
    },
    {
      "inputs": [],
      "name": "asset",
      "outputs": [
        {
          "internalType": "contract IAsset",
          "name": "",
          "type": "address"
        }
      ],
      "stateMutability": "view",
      "type": "function"
    },
    {
      "inputs": [
        {
          "internalType": "uint256",
          "name": "id",
          "type": "uint256"
        }
      ],
      "name": "module",
      "outputs": [
        {
          "internalType": "contract IModule",
          "name": "",
          "type": "address"
        }
      ],
      "stateMutability": "view",
      "type": "function"
    },
    {
      "inputs": [
        {
          "internalType": "string",
          "name": "name",
          "type": "string"
        },
        {
          "internalType": "string",
          "name": "mission",
          "type": "string"
        },
        {
          "internalType": "string",
          "name": "description",
          "type": "string"
        },
        {
          "internalType": "address",
          "name": "root",
          "type": "address"
        },
        {
          "internalType": "address",
          "name": "operator",
          "type": "address"
        },
        {
          "internalType": "address",
          "name": "member",
          "type": "address"
        }
      ],
      "name": "initDAO",
      "outputs": [],
      "stateMutability": "nonpayable",
      "type": "function"
    },
    {
      "inputs": [
        {
          "internalType": "string",
          "name": "value",
          "type": "string"
        }
      ],
      "name": "setImage",
      "outputs": [],
      "stateMutability": "nonpayable",
      "type": "function"
    },
    {
      "inputs": [
        {
          "internalType": "string",
          "name": "value",
          "type": "string"
        }
      ],
      "name": "setMission",
      "outputs": [],
      "stateMutability": "nonpayable",
      "type": "function"
    },
    {
      "inputs": [
        {
          "internalType": "string",
          "name": "mission",
          "type": "string"
        },
        {
          "internalType": "string",
          "name": "desc",
          "type": "string"
        }
      ],
      "name": "setMissionAndDesc",
      "outputs": [],
      "stateMutability": "nonpayable",
      "type": "function"
    },
    {
      "inputs": [
        {
          "internalType": "uint256",
          "name": "id",
          "type": "uint256"
        },
        {
          "internalType": "address",
          "name": "addr",
          "type": "address"
        }
      ],
      "name": "setModule",
      "outputs": [],
      "stateMutability": "nonpayable",
      "type": "function"
    }
  ],
  "bytecode": "0x608060405234801561001057600080fd5b506119b9806100206000396000f3fe608060405234801561001057600080fd5b50600436106101425760003560e01c80637284e416116100b8578063b4f101361161007c578063b4f1013614610292578063c64df69d146102a5578063e3f6b544146102b8578063ebf0c717146102c0578063f3ccaac0146102d1578063f437bc59146102d957600080fd5b80637284e416146102405780638abf6077146102485780638ad159601461025957806390c3f38f1461026c578063b3ab15fb1461027f57600080fd5b806338d52e0f1161010a57806338d52e0f146101ce578063430f75da146101ee57806356397c3514610201578063570ca735146102095780635d2916301461021a57806371adb5e61461022d57600080fd5b806301ffc9a71461014757806306fdde03146101895780630900f0101461019e57806317701ee6146101b35780632e422cb8146101bb575b600080fd5b610174610155366004611414565b6001600160e01b03191660009081526001602052604090205460ff1690565b60405190151581526020015b60405180910390f35b6101916102ea565b604051610180919061142f565b6101b16101ac366004611492565b61037c565b005b6101916103ef565b6101b16101c9366004611552565b6103fe565b6101d661054e565b6040516001600160a01b039091168152602001610180565b6101d66101fc366004611587565b610561565b6101d661058a565b6003546001600160a01b03166101d6565b6101b16102283660046115a0565b610598565b6101b161023b366004611552565b610814565b610191610958565b6000546001600160a01b03166101d6565b6101b16102673660046115d0565b610967565b6101b161027a366004611552565b610b01565b6101b161028d366004611492565b610c45565b6101b16102a0366004611691565b610ca8565b6101b16102b33660046116f5565b610e23565b6101d6610e64565b600d546001600160a01b03166101d6565b610191610e72565b6002546001600160a01b03166101d6565b6060600e80546102f990611739565b80601f016020809104026020016040519081016040528092919081815260200182805461032590611739565b80156103725780601f1061034757610100808354040283529160200191610372565b820191906000526020600020905b81548152906001019060200180831161035557829003601f168201915b5050505050905090565b610384610e81565b6103a95760405162461bcd60e51b81526004016103a090611773565b60405180910390fd5b600080546001600160a01b0319166001600160a01b038316908117909155604051908152600390600080516020611964833981519152906020015b60405180910390a250565b6060600f80546102f990611739565b63d0a4ad9661040b610e81565b61051357600260009054906101000a90046001600160a01b03166001600160a01b031663e3f6b5446040518163ffffffff1660e01b8152600401602060405180830381865afa158015610462573d6000803e3d6000fd5b505050506040513d601f19601f8201168201806040525081019061048691906117c9565b60405163a8a555c560e01b8152336004820152602481018390526001600160a01b03919091169063a8a555c590604401602060405180830381865afa1580156104d3573d6000803e3d6000fd5b505050506040513d601f19601f820116820180604052508101906104f791906117e6565b6105135760405162461bcd60e51b81526004016103a090611773565b600f61051f8382611856565b506004600080516020611964833981519152600060405161054291815260200190565b60405180910390a25050565b600061055c60106003610fc0565b905090565b600061056e601083610fd3565b610579576000610584565b610584601083610fc0565b92915050565b600061055c60106002610fc0565b6305d291636105a5610e81565b6106ad57600260009054906101000a90046001600160a01b03166001600160a01b031663e3f6b5446040518163ffffffff1660e01b8152600401602060405180830381865afa1580156105fc573d6000803e3d6000fd5b505050506040513d601f19601f8201168201806040525081019061062091906117c9565b60405163a8a555c560e01b8152336004820152602481018390526001600160a01b03919091169063a8a555c590604401602060405180830381865afa15801561066d573d6000803e3d6000fd5b505050506040513d601f19601f8201168201806040525081019061069191906117e6565b6106ad5760405162461bcd60e51b81526004016103a090611773565b6001830361070c5760405162461bcd60e51b815260206004820152602660248201527f2344414f237365744d6f64756c652044697361626c652055706461746573206d604482015265656d6265727360d01b60648201526084016103a0565b6001600160a01b03821661072b57610725601084610fdf565b506107d0565b6040805163c64df69d60e01b8152630d64f40d60e31b60048201526024810191909152601d60448201527f2344414f237365744d6f64756c652074797065206e6f74206d6174636800000060648201526001600160a01b0383169063c64df69d9060840160006040518083038186803b1580156107a757600080fd5b505afa1580156107bb573d6000803e3d6000fd5b506107ce92506010915085905084610feb565b505b6040516001600160a01b038316815283907f48cd35eb8c48361e84310128ddc5d8f23f2def3703599528ba78fb2c8a003043906020015b60405180910390a2505050565b63d0a4ad96610821610e81565b61092957600260009054906101000a90046001600160a01b03166001600160a01b031663e3f6b5446040518163ffffffff1660e01b8152600401602060405180830381865afa158015610878573d6000803e3d6000fd5b505050506040513d601f19601f8201168201806040525081019061089c91906117c9565b60405163a8a555c560e01b8152336004820152602481018390526001600160a01b03919091169063a8a555c590604401602060405180830381865afa1580156108e9573d6000803e3d6000fd5b505050506040513d601f19601f8201168201806040525081019061090d91906117e6565b6109295760405162461bcd60e51b81526004016103a090611773565b60136109358382611856565b506009600080516020611964833981519152600060405161054291815260200190565b6060600480546102f990611739565b610972308584611009565b6109826363daa99b60e11b61106d565b6040805163c64df69d60e01b8152630ddf27bf60e01b60048201526024810191909152602060448201527f2344414f23696e697444414f20726f6f742074797065206e6f74206d6174636860648201526001600160a01b0384169063c64df69d9060840160006040518083038186803b1580156109fe57600080fd5b505afa158015610a12573d6000803e3d6000fd5b50506040805163c64df69d60e01b81526323fc76b960e01b60048201526024810191909152602260448201527f2344414f23696e697444414f206d656d6265722074797065206e6f74206d61746064820152610c6d60f31b60848201526001600160a01b038416925063c64df69d915060a40160006040518083038186803b158015610a9d57600080fd5b505afa158015610ab1573d6000803e3d6000fd5b5050600d80546001600160a01b0319166001600160a01b03871617905550600e9050610add8782611856565b50600f610aea8682611856565b50610af86010600183610feb565b50505050505050565b63d0a4ad96610b0e610e81565b610c1657600260009054906101000a90046001600160a01b03166001600160a01b031663e3f6b5446040518163ffffffff1660e01b8152600401602060405180830381865afa158015610b65573d6000803e3d6000fd5b505050506040513d601f19601f82011682018060405250810190610b8991906117c9565b60405163a8a555c560e01b8152336004820152602481018390526001600160a01b03919091169063a8a555c590604401602060405180830381865afa158015610bd6573d6000803e3d6000fd5b505050506040513d601f19601f82011682018060405250810190610bfa91906117e6565b610c165760405162461bcd60e51b81526004016103a090611773565b6004610c228382611856565b506001600080516020611964833981519152600060405161054291815260200190565b610c4d610e81565b610c695760405162461bcd60e51b81526004016103a090611773565b600380546001600160a01b0319166001600160a01b038316908117909155604051908152600290600080516020611964833981519152906020016103e4565b63d0a4ad96610cb5610e81565b610dbd57600260009054906101000a90046001600160a01b03166001600160a01b031663e3f6b5446040518163ffffffff1660e01b8152600401602060405180830381865afa158015610d0c573d6000803e3d6000fd5b505050506040513d601f19601f82011682018060405250810190610d3091906117c9565b60405163a8a555c560e01b8152336004820152602481018390526001600160a01b03919091169063a8a555c590604401602060405180830381865afa158015610d7d573d6000803e3d6000fd5b505050506040513d601f19601f82011682018060405250810190610da191906117e6565b610dbd5760405162461bcd60e51b81526004016103a090611773565b600f610dc98482611856565b506004610dd68382611856565b5060016000805160206119648339815191526000604051610df991815260200190565b60405180910390a26004600080516020611964833981519152600060405161080791815260200190565b6001600160e01b0319821660009081526001602052604090205460ff168190610e5f5760405162461bcd60e51b81526004016103a0919061142f565b505050565b600061055c60106001610fc0565b6060601380546102f990611739565b60035460009033906001600160a01b03168114610fb857600260009054906101000a90046001600160a01b03166001600160a01b031663570ca7356040518163ffffffff1660e01b8152600401602060405180830381865afa158015610eeb573d6000803e3d6000fd5b505050506040513d601f19601f82011682018060405250810190610f0f91906117c9565b6001600160a01b0316816001600160a01b031614610fb857600260009054906101000a90046001600160a01b03166001600160a01b031663ebf0c7176040518163ffffffff1660e01b8152600401602060405180830381865afa158015610f7a573d6000803e3d6000fd5b505050506040513d601f19601f82011682018060405250810190610f9e91906117c9565b6001600160a01b0316816001600160a01b03161491505090565b600191505090565b6000610fcc83836110ef565b9392505050565b6000610fcc838361115f565b6000610fcc838361116b565b600061100184846001600160a01b038516611188565b949350505050565b6110116111a5565b611021630d64f40d60e31b61106d565b600280546001600160a01b0319166001600160a01b03851617905560046110488382611856565b50600380546001600160a01b0319166001600160a01b03929092169190911790555050565b6001600160e01b031980821690036110c75760405162461bcd60e51b815260206004820152601c60248201527f4552433136353a20696e76616c696420696e746572666163652069640000000060448201526064016103a0565b6001600160e01b0319166000908152600160208190526040909120805460ff19169091179055565b6000818152600283016020526040812054801515806111135750611113848461115f565b610fcc5760405162461bcd60e51b815260206004820152601e60248201527f456e756d657261626c654d61703a206e6f6e6578697374656e74206b6579000060448201526064016103a0565b6000610fcc8383611285565b60008181526002830160205260408120819055610fcc838361129d565b6000828152600284016020526040812082905561100184846112a9565b600054600160a81b900460ff16806111bc5750303b155b806111d15750600054600160a01b900460ff16155b6112345760405162461bcd60e51b815260206004820152602e60248201527f436f6e747261637420696e7374616e63652068617320616c726561647920626560448201526d195b881a5b9a5d1a585b1a5e995960921b60648201526084016103a0565b600054600160a81b900460ff1615801561125e576000805461ffff60a01b191661010160a01b1790555b61126e6301ffc9a760e01b61106d565b8015611282576000805460ff60a81b191690555b50565b60008181526001830160205260408120541515610fcc565b6000610fcc83836112b5565b6000610fcc83836113a8565b6000818152600183016020526040812054801561139e5760006112d9600183611916565b85549091506000906112ed90600190611916565b905081811461135257600086600001828154811061130d5761130d611937565b906000526020600020015490508087600001848154811061133057611330611937565b6000918252602080832090910192909255918252600188019052604090208390555b85548690806113635761136361194d565b600190038181906000526020600020016000905590558560010160008681526020019081526020016000206000905560019350505050610584565b6000915050610584565b60008181526001830160205260408120546113ef57508154600181810184556000848152602080822090930184905584548482528286019093526040902091909155610584565b506000610584565b80356001600160e01b03198116811461140f57600080fd5b919050565b60006020828403121561142657600080fd5b610fcc826113f7565b600060208083528351808285015260005b8181101561145c57858101830151858201604001528201611440565b506000604082860101526040601f19601f8301168501019250505092915050565b6001600160a01b038116811461128257600080fd5b6000602082840312156114a457600080fd5b8135610fcc8161147d565b634e487b7160e01b600052604160045260246000fd5b600082601f8301126114d657600080fd5b813567ffffffffffffffff808211156114f1576114f16114af565b604051601f8301601f19908116603f01168101908282118183101715611519576115196114af565b8160405283815286602085880101111561153257600080fd5b836020870160208301376000602085830101528094505050505092915050565b60006020828403121561156457600080fd5b813567ffffffffffffffff81111561157b57600080fd5b611001848285016114c5565b60006020828403121561159957600080fd5b5035919050565b600080604083850312156115b357600080fd5b8235915060208301356115c58161147d565b809150509250929050565b60008060008060008060c087890312156115e957600080fd5b863567ffffffffffffffff8082111561160157600080fd5b61160d8a838b016114c5565b9750602089013591508082111561162357600080fd5b61162f8a838b016114c5565b9650604089013591508082111561164557600080fd5b5061165289828a016114c5565b94505060608701356116638161147d565b925060808701356116738161147d565b915060a08701356116838161147d565b809150509295509295509295565b600080604083850312156116a457600080fd5b823567ffffffffffffffff808211156116bc57600080fd5b6116c8868387016114c5565b935060208501359150808211156116de57600080fd5b506116eb858286016114c5565b9150509250929050565b6000806040838503121561170857600080fd5b611711836113f7565b9150602083013567ffffffffffffffff81111561172d57600080fd5b6116eb858286016114c5565b600181811c9082168061174d57607f821691505b60208210810361176d57634e487b7160e01b600052602260045260246000fd5b50919050565b60208082526036908201527f235065726d697373696f6e436865636b23436865636b2063616c6c657220646f60408201527532b9903737ba103430bb32903832b936b4b9b9b4b7b760511b606082015260800190565b6000602082840312156117db57600080fd5b8151610fcc8161147d565b6000602082840312156117f857600080fd5b81518015158114610fcc57600080fd5b601f821115610e5f57600081815260208120601f850160051c8101602086101561182f5750805b601f850160051c820191505b8181101561184e5782815560010161183b565b505050505050565b815167ffffffffffffffff811115611870576118706114af565b6118848161187e8454611739565b84611808565b602080601f8311600181146118b957600084156118a15750858301515b600019600386901b1c1916600185901b17855561184e565b600085815260208120601f198616915b828110156118e8578886015182559484019460019091019084016118c9565b50858210156119065787850151600019600388901b60f8161c191681555b5050505050600190811b01905550565b8181038181111561058457634e487b7160e01b600052601160045260246000fd5b634e487b7160e01b600052603260045260246000fd5b634e487b7160e01b600052603160045260246000fdfe7016719027ff29c13bc4816903851ea968172a86b766c733b954fdabe53c87eea264697066735822122022d50ba3bfc08cd331e2c3dc2f13fc927c96b70b1e9b5ef444ae35960a775f9c64736f6c63430008110033",
  "immutableReferences": {},
  "source": "// SPDX-License-Identifier: MIT\npragma solidity 0.8.17;\n\nimport './Module.sol';\nimport '../openzeppelin/contracts/utils/structs/EnumerableMap.sol';\n\ncontract DAO is IDAO, Module {\n\tusing EnumerableMap for EnumerableMap.UintToAddressMap;\n\n\taddress            private  _root;\n\tstring             private  _name;\n\tstring             private  _mission;\n\tEnumerableMap.UintToAddressMap private _modules;\n\tstring             private  _image;\n\tuint256[49]        private  __; // reserved storage space\n\n\tfunction root() view external override returns (address) { return _root; }\n\tfunction name() view external returns (string memory) { return _name; }\n\tfunction mission() view external returns (string memory) { return _mission; }\n\tfunction image() view external returns (string memory) { return _image; }\n\tfunction member() view external override returns (IMember) { return IMember(_modules.get(Module_MEMBER_ID)); }\n\tfunction ledger() view external override returns (ILedger) { return ILedger(_modules.get(Module_LEDGER_ID)); }\n\tfunction asset() view external override returns (IAsset) { return IAsset(_modules.get(Module_ASSET_ID)); }\n\n\tfunction module(uint256 id) view external returns (IModule) {\n\t\treturn IModule(_modules.contains(id) ? _modules.get(id): address(0));\n\t}\n\n\tfunction initDAO(\n\t\tstring memory name, string memory mission, string memory description,\n\t\taddress root, address operator, address member\n\t) external {\n\t\tinitModule(address(this), description, operator);\n\t\t_registerInterface(DAO_Type);\n\n\t\tERC165(root).checkInterface(VotePool_Type, \"#DAO#initDAO root type not match\");\n\t\tERC165(member).checkInterface(Member_Type, \"#DAO#initDAO member type not match\");\n\n\t\t_root = root;\n\t\t_name = name;\n\t\t_mission = mission;\n\n\t\t_modules.set(Module_MEMBER_ID, member);\n\t\t// emit SetModule(Module_MEMBER_ID, member);\n\t}\n\n\tfunction setImage(string memory value) external Check(Action_DAO_Settings) {\n\t\t_image = value;\n\t\temit Change(Change_Tag_DAO_Image, 0);\n\t}\n\n\tfunction setMission(string memory value) external Check(Action_DAO_Settings) {\n\t\t_mission = value;\n\t\temit Change(Change_Tag_DAO_Mission, 0);\n\t}\n\n\tfunction setMissionAndDesc(string memory mission, string memory desc) external Check(Action_DAO_Settings) {\n\t\t_mission = mission;\n\t\t_description = desc;\n\t\temit Change(Change_Tag_Description, 0);\n\t\temit Change(Change_Tag_DAO_Mission, 0);\n\t}\n\n\tfunction setModule(uint256 id, address addr) external Check(Action_DAO_SetModule) {\n\t\trequire(id != Module_MEMBER_ID, \"#DAO#setModule Disable Updates members\");\n\t\tif (addr == address(0)) {\n\t\t\t_modules.remove(id);\n\t\t} else {\n\t\t\tERC165(addr).checkInterface(Module_Type, \"#DAO#setModule type not match\");\n\t\t\t_modules.set(id, addr);\n\t\t}\n\t\temit SetModule(id, addr);\n\t}\n\n}",
  "sourcePath": "/Users/louis/Project/hc/NFTSwap/SmartHolder/contracts/DAO.sol",
  "compiler": {
    "name": "solc",
    "version": "0.8.17+commit.8df45f5f.Emscripten.clang"
  },
  "schemaVersion": "3.4.11",
  "updatedAt": "2023-03-03T03:01:27.808Z",
  "devdoc": {
    "kind": "dev",
    "methods": {
      "supportsInterface(bytes4)": {
        "details": "See {IERC165-supportsInterface}. Time complexity O(1), guaranteed to always use less than 30 000 gas."
      }
    },
    "version": 1
  },
  "userdoc": {
    "kind": "user",
    "methods": {},
    "version": 1
  }
}