{
  "contractName": "DAO",
  "abi": [
    {
      "inputs": [
        {
          "internalType": "bytes4",
          "name": "interfaceId",
          "type": "bytes4"
        }
      ],
      "name": "CheckInterfaceNoMatch",
      "type": "error"
    },
    {
      "inputs": [],
      "name": "PermissionDenied",
      "type": "error"
    },
    {
      "inputs": [],
      "name": "PermissionDeniedForOnlyDAO",
      "type": "error"
    },
    {
      "anonymous": false,
      "inputs": [
        {
          "indexed": true,
          "internalType": "uint256",
          "name": "tag",
          "type": "uint256"
        },
        {
          "indexed": false,
          "internalType": "uint256",
          "name": "value",
          "type": "uint256"
        }
      ],
      "name": "Change",
      "type": "event"
    },
    {
      "anonymous": false,
      "inputs": [
        {
          "indexed": false,
          "internalType": "uint8",
          "name": "version",
          "type": "uint8"
        }
      ],
      "name": "Initialized",
      "type": "event"
    },
    {
      "anonymous": false,
      "inputs": [
        {
          "indexed": true,
          "internalType": "uint256",
          "name": "id",
          "type": "uint256"
        },
        {
          "indexed": false,
          "internalType": "address",
          "name": "addr",
          "type": "address"
        }
      ],
      "name": "SetModule",
      "type": "event"
    },
    {
      "inputs": [
        {
          "internalType": "bytes4",
          "name": "interfaceId",
          "type": "bytes4"
        }
      ],
      "name": "checkInterface",
      "outputs": [],
      "stateMutability": "view",
      "type": "function"
    },
    {
      "inputs": [],
      "name": "description",
      "outputs": [
        {
          "internalType": "string",
          "name": "",
          "type": "string"
        }
      ],
      "stateMutability": "view",
      "type": "function"
    },
    {
      "inputs": [],
      "name": "extend",
      "outputs": [
        {
          "internalType": "bytes",
          "name": "",
          "type": "bytes"
        }
      ],
      "stateMutability": "view",
      "type": "function"
    },
    {
      "inputs": [],
      "name": "host",
      "outputs": [
        {
          "internalType": "contract IDAO",
          "name": "",
          "type": "address"
        }
      ],
      "stateMutability": "view",
      "type": "function"
    },
    {
      "inputs": [],
      "name": "image",
      "outputs": [
        {
          "internalType": "string",
          "name": "",
          "type": "string"
        }
      ],
      "stateMutability": "view",
      "type": "function"
    },
    {
      "inputs": [],
      "name": "impl",
      "outputs": [
        {
          "internalType": "address",
          "name": "",
          "type": "address"
        }
      ],
      "stateMutability": "view",
      "type": "function"
    },
    {
      "inputs": [],
      "name": "operator",
      "outputs": [
        {
          "internalType": "address",
          "name": "",
          "type": "address"
        }
      ],
      "stateMutability": "view",
      "type": "function"
    },
    {
      "inputs": [
        {
          "internalType": "string",
          "name": "value",
          "type": "string"
        }
      ],
      "name": "setDescription",
      "outputs": [],
      "stateMutability": "nonpayable",
      "type": "function"
    },
    {
      "inputs": [
        {
          "internalType": "address",
          "name": "operator",
          "type": "address"
        }
      ],
      "name": "setOperator",
      "outputs": [],
      "stateMutability": "nonpayable",
      "type": "function"
    },
    {
      "inputs": [
        {
          "internalType": "bytes4",
          "name": "interfaceId",
          "type": "bytes4"
        }
      ],
      "name": "supportsInterface",
      "outputs": [
        {
          "internalType": "bool",
          "name": "",
          "type": "bool"
        }
      ],
      "stateMutability": "view",
      "type": "function"
    },
    {
      "inputs": [
        {
          "internalType": "address",
          "name": "impl",
          "type": "address"
        }
      ],
      "name": "upgrade",
      "outputs": [],
      "stateMutability": "nonpayable",
      "type": "function"
    },
    {
      "inputs": [],
      "name": "root",
      "outputs": [
        {
          "internalType": "address",
          "name": "",
          "type": "address"
        }
      ],
      "stateMutability": "view",
      "type": "function"
    },
    {
      "inputs": [],
      "name": "name",
      "outputs": [
        {
          "internalType": "string",
          "name": "",
          "type": "string"
        }
      ],
      "stateMutability": "view",
      "type": "function"
    },
    {
      "inputs": [],
      "name": "mission",
      "outputs": [
        {
          "internalType": "string",
          "name": "",
          "type": "string"
        }
      ],
      "stateMutability": "view",
      "type": "function"
    },
    {
      "inputs": [],
      "name": "member",
      "outputs": [
        {
          "internalType": "contract IMember",
          "name": "",
          "type": "address"
        }
      ],
      "stateMutability": "view",
      "type": "function"
    },
    {
      "inputs": [],
      "name": "ledger",
      "outputs": [
        {
          "internalType": "contract ILedger",
          "name": "",
          "type": "address"
        }
      ],
      "stateMutability": "view",
      "type": "function"
    },
    {
      "inputs": [],
      "name": "asset",
      "outputs": [
        {
          "internalType": "contract IAsset",
          "name": "",
          "type": "address"
        }
      ],
      "stateMutability": "view",
      "type": "function"
    },
    {
      "inputs": [
        {
          "internalType": "uint256",
          "name": "id",
          "type": "uint256"
        }
      ],
      "name": "module",
      "outputs": [
        {
          "internalType": "contract IModule",
          "name": "",
          "type": "address"
        }
      ],
      "stateMutability": "view",
      "type": "function"
    },
    {
      "inputs": [
        {
          "internalType": "string",
          "name": "name",
          "type": "string"
        },
        {
          "internalType": "string",
          "name": "mission",
          "type": "string"
        },
        {
          "internalType": "string",
          "name": "description",
          "type": "string"
        },
        {
          "internalType": "address",
          "name": "root",
          "type": "address"
        },
        {
          "internalType": "address",
          "name": "operator",
          "type": "address"
        },
        {
          "internalType": "address",
          "name": "member",
          "type": "address"
        }
      ],
      "name": "initDAO",
      "outputs": [],
      "stateMutability": "nonpayable",
      "type": "function"
    },
    {
      "inputs": [
        {
          "internalType": "bytes",
          "name": "data",
          "type": "bytes"
        }
      ],
      "name": "setExtend",
      "outputs": [],
      "stateMutability": "nonpayable",
      "type": "function"
    },
    {
      "inputs": [
        {
          "internalType": "string",
          "name": "value",
          "type": "string"
        }
      ],
      "name": "setImage",
      "outputs": [],
      "stateMutability": "nonpayable",
      "type": "function"
    },
    {
      "inputs": [
        {
          "internalType": "string",
          "name": "value",
          "type": "string"
        }
      ],
      "name": "setMission",
      "outputs": [],
      "stateMutability": "nonpayable",
      "type": "function"
    },
    {
      "inputs": [
        {
          "internalType": "string",
          "name": "mission",
          "type": "string"
        },
        {
          "internalType": "string",
          "name": "desc",
          "type": "string"
        }
      ],
      "name": "setMissionAndDesc",
      "outputs": [],
      "stateMutability": "nonpayable",
      "type": "function"
    },
    {
      "inputs": [
        {
          "internalType": "uint256",
          "name": "id",
          "type": "uint256"
        },
        {
          "internalType": "address",
          "name": "addr",
          "type": "address"
        }
      ],
      "name": "setModule",
      "outputs": [],
      "stateMutability": "nonpayable",
      "type": "function"
    }
  ],
  "bytecode": "0x608060405234801561001057600080fd5b50611c78806100206000396000f3fe608060405234801561001057600080fd5b50600436106101585760003560e01c806371adb5e6116100c3578063b4f101361161007c578063b4f10136146102c3578063bde4d603146102d6578063e3f6b544146102e9578063ebf0c717146102f1578063f3ccaac014610302578063f437bc591461030a57600080fd5b806371adb5e61461025e5780637284e416146102715780638abf6077146102795780638ad159601461028a57806390c3f38f1461029d578063b3ab15fb146102b057600080fd5b806338d52e0f1161011557806338d52e0f146101ec578063430f75da1461020c5780634c6e425b1461021f57806356397c3514610232578063570ca7351461023a5780635d2916301461024b57600080fd5b806301ffc9a71461015d57806306fdde031461019f5780630900f010146101b4578063172a27b3146101c957806317701ee6146101d15780632e422cb8146101d9575b600080fd5b61018a61016b3660046115fe565b6001600160e01b03191660009081526001602052604090205460ff1690565b60405190151581526020015b60405180910390f35b6101a761031b565b604051610196919061166e565b6101c76101c2366004611696565b6103ad565b005b6101a7610418565b6101a76104a6565b6101c76101e73660046116fc565b6104b5565b6101f4610608565b6040516001600160a01b039091168152602001610196565b6101f461021a36600461173e565b61061b565b6101c761022d3660046115fe565b610644565b6101f4610692565b6003546001600160a01b03166101f4565b6101c7610259366004611757565b6106a0565b6101c761026c3660046116fc565b6108de565b6101a7610a24565b6000546001600160a01b03166101f4565b6101c7610298366004611787565b610a33565b6101c76102ab36600461186f565b610b92565b6101c76102be366004611696565b610ce3565b6101c76102d1366004611920565b610d47565b6101c76102e43660046116fc565b610ed4565b6101f461101a565b600d546001600160a01b03166101f4565b6101a7611028565b6002546001600160a01b03166101f4565b6060600e805461032a9061198c565b80601f01602080910402602001604051908101604052809291908181526020018280546103569061198c565b80156103a35780601f10610378576101008083540402835291602001916103a3565b820191906000526020600020905b81548152906001019060200180831161038657829003601f168201915b5050505050905090565b6103b5611035565b6103d257604051631b4004a360e31b815260040160405180910390fd5b600080546001600160a01b0319166001600160a01b038316908117909155604051908152600390600080516020611c23833981519152906020015b60405180910390a250565b601480546104259061198c565b80601f01602080910402602001604051908101604052809291908181526020018280546104519061198c565b801561049e5780601f106104735761010080835404028352916020019161049e565b820191906000526020600020905b81548152906001019060200180831161048157829003601f168201915b505050505081565b6060600f805461032a9061198c565b63d0a4ad966104c2611035565b6105cb57600260009054906101000a90046001600160a01b03166001600160a01b031663e3f6b5446040518163ffffffff1660e01b8152600401602060405180830381865afa158015610519573d6000803e3d6000fd5b505050506040513d601f19601f8201168201806040525081019061053d91906119c6565b60405163a8a555c560e01b8152336004820152602481018390526001600160a01b03919091169063a8a555c590604401602060405180830381865afa15801561058a573d6000803e3d6000fd5b505050506040513d601f19601f820116820180604052508101906105ae91906119e3565b6105cb57604051630782484160e21b815260040160405180910390fd5b600f6105d8838583611a54565b506004600080516020611c2383398151915260006040516105fb91815260200190565b60405180910390a2505050565b600061061660106003611174565b905090565b6000610628601083611187565b61063357600061063e565b61063e601083611174565b92915050565b6001600160e01b0319811660009081526001602052604090205460ff1661068f57604051632aae78ef60e01b81526001600160e01b0319821660048201526024015b60405180910390fd5b50565b600061061660106002611174565b6305d291636106ad611035565b6107b657600260009054906101000a90046001600160a01b03166001600160a01b031663e3f6b5446040518163ffffffff1660e01b8152600401602060405180830381865afa158015610704573d6000803e3d6000fd5b505050506040513d601f19601f8201168201806040525081019061072891906119c6565b60405163a8a555c560e01b8152336004820152602481018390526001600160a01b03919091169063a8a555c590604401602060405180830381865afa158015610775573d6000803e3d6000fd5b505050506040513d601f19601f8201168201806040525081019061079991906119e3565b6107b657604051630782484160e21b815260040160405180910390fd5b600183036108155760405162461bcd60e51b815260206004820152602660248201527f2344414f237365744d6f64756c652044697361626c652055706461746573206d604482015265656d6265727360d01b6064820152608401610686565b6001600160a01b0382166108345761082e601084611193565b506108a3565b604051634c6e425b60e01b8152630d64f40d60e31b60048201526001600160a01b03831690634c6e425b9060240160006040518083038186803b15801561087a57600080fd5b505afa15801561088e573d6000803e3d6000fd5b506108a19250601091508590508461119f565b505b6040516001600160a01b038316815283907f48cd35eb8c48361e84310128ddc5d8f23f2def3703599528ba78fb2c8a003043906020016105fb565b63d0a4ad966108eb611035565b6109f457600260009054906101000a90046001600160a01b03166001600160a01b031663e3f6b5446040518163ffffffff1660e01b8152600401602060405180830381865afa158015610942573d6000803e3d6000fd5b505050506040513d601f19601f8201168201806040525081019061096691906119c6565b60405163a8a555c560e01b8152336004820152602481018390526001600160a01b03919091169063a8a555c590604401602060405180830381865afa1580156109b3573d6000803e3d6000fd5b505050506040513d601f19601f820116820180604052508101906109d791906119e3565b6109f457604051630782484160e21b815260040160405180910390fd5b6013610a01838583611a54565b506009600080516020611c2383398151915260006040516105fb91815260200190565b60606004805461032a9061198c565b610a753086868080601f0160208091040260200160405190810160405280939291908181526020018383808284376000920191909152508792506111bd915050565b610a856363daa99b60e11b611221565b604051634c6e425b60e01b8152630ddf27bf60e01b60048201526001600160a01b03841690634c6e425b9060240160006040518083038186803b158015610acb57600080fd5b505afa158015610adf573d6000803e3d6000fd5b5050604051634c6e425b60e01b81526323fc76b960e01b60048201526001600160a01b0384169250634c6e425b915060240160006040518083038186803b158015610b2957600080fd5b505afa158015610b3d573d6000803e3d6000fd5b5050600d80546001600160a01b0319166001600160a01b03871617905550600e9050610b6a898b83611a54565b50600f610b78878983611a54565b50610b86601060018361119f565b50505050505050505050565b63d0a4ad96610b9f611035565b610ca857600260009054906101000a90046001600160a01b03166001600160a01b031663e3f6b5446040518163ffffffff1660e01b8152600401602060405180830381865afa158015610bf6573d6000803e3d6000fd5b505050506040513d601f19601f82011682018060405250810190610c1a91906119c6565b60405163a8a555c560e01b8152336004820152602481018390526001600160a01b03919091169063a8a555c590604401602060405180830381865afa158015610c67573d6000803e3d6000fd5b505050506040513d601f19601f82011682018060405250810190610c8b91906119e3565b610ca857604051630782484160e21b815260040160405180910390fd5b6004610cb48382611b15565b506001600080516020611c238339815191526000604051610cd791815260200190565b60405180910390a25050565b610ceb611035565b610d0857604051631b4004a360e31b815260040160405180910390fd5b600380546001600160a01b0319166001600160a01b038316908117909155604051908152600290600080516020611c238339815191529060200161040d565b63d0a4ad96610d54611035565b610e5d57600260009054906101000a90046001600160a01b03166001600160a01b031663e3f6b5446040518163ffffffff1660e01b8152600401602060405180830381865afa158015610dab573d6000803e3d6000fd5b505050506040513d601f19601f82011682018060405250810190610dcf91906119c6565b60405163a8a555c560e01b8152336004820152602481018390526001600160a01b03919091169063a8a555c590604401602060405180830381865afa158015610e1c573d6000803e3d6000fd5b505050506040513d601f19601f82011682018060405250810190610e4091906119e3565b610e5d57604051630782484160e21b815260040160405180910390fd5b600f610e6a858783611a54565b506004610e78838583611a54565b506001600080516020611c238339815191526000604051610e9b91815260200190565b60405180910390a26004600080516020611c238339815191526000604051610ec591815260200190565b60405180910390a25050505050565b63d0a4ad96610ee1611035565b610fea57600260009054906101000a90046001600160a01b03166001600160a01b031663e3f6b5446040518163ffffffff1660e01b8152600401602060405180830381865afa158015610f38573d6000803e3d6000fd5b505050506040513d601f19601f82011682018060405250810190610f5c91906119c6565b60405163a8a555c560e01b8152336004820152602481018390526001600160a01b03919091169063a8a555c590604401602060405180830381865afa158015610fa9573d6000803e3d6000fd5b505050506040513d601f19601f82011682018060405250810190610fcd91906119e3565b610fea57604051630782484160e21b815260040160405180910390fd5b6014610ff7838583611a54565b50600a600080516020611c2383398151915260006040516105fb91815260200190565b600061061660106001611174565b601380546104259061198c565b60035460009033906001600160a01b0316811461116c57600260009054906101000a90046001600160a01b03166001600160a01b031663570ca7356040518163ffffffff1660e01b8152600401602060405180830381865afa15801561109f573d6000803e3d6000fd5b505050506040513d601f19601f820116820180604052508101906110c391906119c6565b6001600160a01b0316816001600160a01b03161461116c57600260009054906101000a90046001600160a01b03166001600160a01b031663ebf0c7176040518163ffffffff1660e01b8152600401602060405180830381865afa15801561112e573d6000803e3d6000fd5b505050506040513d601f19601f8201168201806040525081019061115291906119c6565b6001600160a01b0316816001600160a01b03161491505090565b600191505090565b600061118083836112a3565b9392505050565b60006111808383611313565b6000611180838361131f565b60006111b584846001600160a01b03851661133c565b949350505050565b6111c5611359565b6111d5630d64f40d60e31b611221565b600280546001600160a01b0319166001600160a01b03851617905560046111fc8382611b15565b50600380546001600160a01b0319166001600160a01b03929092169190911790555050565b6001600160e01b0319808216900361127b5760405162461bcd60e51b815260206004820152601c60248201527f4552433136353a20696e76616c696420696e74657266616365206964000000006044820152606401610686565b6001600160e01b0319166000908152600160208190526040909120805460ff19169091179055565b6000818152600283016020526040812054801515806112c757506112c78484611313565b6111805760405162461bcd60e51b815260206004820152601e60248201527f456e756d657261626c654d61703a206e6f6e6578697374656e74206b657900006044820152606401610686565b6000611180838361148c565b6000818152600283016020526040812081905561118083836114a4565b600082815260028401602052604081208290556111b584846114b0565b600054600160a81b900460ff161580801561138157506000546001600160a01b90910460ff16105b806113a25750303b1580156113a25750600054600160a01b900460ff166001145b6114055760405162461bcd60e51b815260206004820152602e60248201527f496e697469616c697a61626c653a20636f6e747261637420697320616c72656160448201526d191e481a5b9a5d1a585b1a5e995960921b6064820152608401610686565b6000805460ff60a01b1916600160a01b1790558015611432576000805460ff60a81b1916600160a81b1790555b6114426301ffc9a760e01b611221565b801561068f576000805460ff60a81b19169055604051600181527f7f26b83ff96e1f2b6a682f133852f6798a09c465da95921460cefb38474024989060200160405180910390a150565b60008181526001830160205260408120541515611180565b600061118083836114bc565b600061118083836115af565b600081815260018301602052604081205480156115a55760006114e0600183611bd5565b85549091506000906114f490600190611bd5565b905081811461155957600086600001828154811061151457611514611bf6565b906000526020600020015490508087600001848154811061153757611537611bf6565b6000918252602080832090910192909255918252600188019052604090208390555b855486908061156a5761156a611c0c565b60019003818190600052602060002001600090559055856001016000868152602001908152602001600020600090556001935050505061063e565b600091505061063e565b60008181526001830160205260408120546115f65750815460018181018455600084815260208082209093018490558454848252828601909352604090209190915561063e565b50600061063e565b60006020828403121561161057600080fd5b81356001600160e01b03198116811461118057600080fd5b6000815180845260005b8181101561164e57602081850181015186830182015201611632565b506000602082860101526020601f19601f83011685010191505092915050565b6020815260006111806020830184611628565b6001600160a01b038116811461068f57600080fd5b6000602082840312156116a857600080fd5b813561118081611681565b60008083601f8401126116c557600080fd5b50813567ffffffffffffffff8111156116dd57600080fd5b6020830191508360208285010111156116f557600080fd5b9250929050565b6000806020838503121561170f57600080fd5b823567ffffffffffffffff81111561172657600080fd5b611732858286016116b3565b90969095509350505050565b60006020828403121561175057600080fd5b5035919050565b6000806040838503121561176a57600080fd5b82359150602083013561177c81611681565b809150509250929050565b600080600080600080600080600060c08a8c0312156117a557600080fd5b893567ffffffffffffffff808211156117bd57600080fd5b6117c98d838e016116b3565b909b50995060208c01359150808211156117e257600080fd5b6117ee8d838e016116b3565b909950975060408c013591508082111561180757600080fd5b506118148c828d016116b3565b90965094505060608a013561182881611681565b925060808a013561183881611681565b915060a08a013561184881611681565b809150509295985092959850929598565b634e487b7160e01b600052604160045260246000fd5b60006020828403121561188157600080fd5b813567ffffffffffffffff8082111561189957600080fd5b818401915084601f8301126118ad57600080fd5b8135818111156118bf576118bf611859565b604051601f8201601f19908116603f011681019083821181831017156118e7576118e7611859565b8160405282815287602084870101111561190057600080fd5b826020860160208301376000928101602001929092525095945050505050565b6000806000806040858703121561193657600080fd5b843567ffffffffffffffff8082111561194e57600080fd5b61195a888389016116b3565b9096509450602087013591508082111561197357600080fd5b50611980878288016116b3565b95989497509550505050565b600181811c908216806119a057607f821691505b6020821081036119c057634e487b7160e01b600052602260045260246000fd5b50919050565b6000602082840312156119d857600080fd5b815161118081611681565b6000602082840312156119f557600080fd5b8151801515811461118057600080fd5b601f821115611a4f57600081815260208120601f850160051c81016020861015611a2c5750805b601f850160051c820191505b81811015611a4b57828155600101611a38565b5050505b505050565b67ffffffffffffffff831115611a6c57611a6c611859565b611a8083611a7a835461198c565b83611a05565b6000601f841160018114611ab45760008515611a9c5750838201355b600019600387901b1c1916600186901b178355611b0e565b600083815260209020601f19861690835b82811015611ae55786850135825560209485019460019092019101611ac5565b5086821015611b025760001960f88860031b161c19848701351681555b505060018560011b0183555b5050505050565b815167ffffffffffffffff811115611b2f57611b2f611859565b611b4381611b3d845461198c565b84611a05565b602080601f831160018114611b785760008415611b605750858301515b600019600386901b1c1916600185901b178555611a4b565b600085815260208120601f198616915b82811015611ba757888601518255948401946001909101908401611b88565b5085821015611bc55787850151600019600388901b60f8161c191681555b5050505050600190811b01905550565b8181038181111561063e57634e487b7160e01b600052601160045260246000fd5b634e487b7160e01b600052603260045260246000fd5b634e487b7160e01b600052603160045260246000fdfe7016719027ff29c13bc4816903851ea968172a86b766c733b954fdabe53c87eea2646970667358221220048651125defc0b14a2a8c14d4a5ccbb8e46b1ef4ed5bc8d57488495ee08755664736f6c63430008110033",
  "immutableReferences": {},
  "source": "// SPDX-License-Identifier: MIT\npragma solidity 0.8.17;\n\nimport './Module.sol';\nimport '../openzeppelin/contracts/utils/structs/EnumerableMap.sol';\n\ncontract DAO is IDAO, Module {\n\tusing EnumerableMap for EnumerableMap.UintToAddressMap;\n\n\taddress            private  _root;\n\tstring             private  _name;\n\tstring             private  _mission;\n\tEnumerableMap.UintToAddressMap private _modules;\n\tstring             public  image;\n\tbytes              public  extend; // external data\n\tuint256[48]        private  __; // reserved storage space\n\n\tfunction root() view external override returns (address) { return _root; }\n\tfunction name() view external returns (string memory) { return _name; }\n\tfunction mission() view external returns (string memory) { return _mission; }\n\tfunction member() view external override returns (IMember) { return IMember(_modules.get(Module_MEMBER_ID)); }\n\tfunction ledger() view external override returns (ILedger) { return ILedger(_modules.get(Module_LEDGER_ID)); }\n\tfunction asset() view external override returns (IAsset) { return IAsset(_modules.get(Module_ASSET_ID)); }\n\n\tfunction module(uint256 id) view external returns (IModule) {\n\t\treturn IModule(_modules.contains(id) ? _modules.get(id): address(0));\n\t}\n\n\tfunction initDAO(\n\t\tstring calldata name, string calldata mission, string calldata description,\n\t\taddress root, address operator, address member\n\t) external {\n\t\tinitModule(address(this), description, operator);\n\t\t_registerInterface(DAO_Type);\n\n\t\tERC165(root).checkInterface(VotePool_Type);\n\t\tERC165(member).checkInterface(Member_Type);\n\n\t\t_root = root;\n\t\t_name = name;\n\t\t_mission = mission;\n\n\t\t_modules.set(Module_MEMBER_ID, member);\n\t\t// emit SetModule(Module_MEMBER_ID, member);\n\t}\n\n\tfunction setExtend(bytes calldata data) external Check(Action_DAO_Settings) {\n\t\textend = data;\n\t\temit Change(Change_Tag_DAO_Extend, 0);\n\t}\n\n\tfunction setImage(string calldata value) external Check(Action_DAO_Settings) {\n\t\timage = value;\n\t\temit Change(Change_Tag_DAO_Image, 0);\n\t}\n\n\tfunction setMission(string calldata value) external Check(Action_DAO_Settings) {\n\t\t_mission = value;\n\t\temit Change(Change_Tag_DAO_Mission, 0);\n\t}\n\n\tfunction setMissionAndDesc(string calldata mission, string calldata desc) external Check(Action_DAO_Settings) {\n\t\t_mission = mission;\n\t\t_description = desc;\n\t\temit Change(Change_Tag_Description, 0);\n\t\temit Change(Change_Tag_DAO_Mission, 0);\n\t}\n\n\tfunction setModule(uint256 id, address addr) external Check(Action_DAO_SetModule) {\n\t\trequire(id != Module_MEMBER_ID, \"#DAO#setModule Disable Updates members\");\n\n\t\tif (addr == address(0)) {\n\t\t\t_modules.remove(id);\n\t\t} else {\n\t\t\tERC165(addr).checkInterface(Module_Type);\n\t\t\t\n\t\t\t_modules.set(id, addr);\n\t\t}\n\t\temit SetModule(id, addr);\n\t}\n\n}",
  "sourcePath": "/Users/louis/Project/hc/NFTSwap/SmartHolder/contracts/DAO.sol",
  "compiler": {
    "name": "solc",
    "version": "0.8.17+commit.8df45f5f.Emscripten.clang"
  },
  "schemaVersion": "3.4.11",
  "updatedAt": "2023-03-29T08:55:12.381Z",
  "networkType": "ethereum",
  "devdoc": {
    "kind": "dev",
    "methods": {
      "supportsInterface(bytes4)": {
        "details": "See {IERC165-supportsInterface}. Time complexity O(1), guaranteed to always use less than 30 000 gas."
      }
    },
    "version": 1
  },
  "userdoc": {
    "kind": "user",
    "methods": {},
    "version": 1
  }
}