{
  "contractName": "DAO",
  "abi": [
    {
      "anonymous": false,
      "inputs": [
        {
          "indexed": true,
          "internalType": "uint256",
          "name": "tag",
          "type": "uint256"
        },
        {
          "indexed": false,
          "internalType": "uint256",
          "name": "value",
          "type": "uint256"
        }
      ],
      "name": "Change",
      "type": "event"
    },
    {
      "anonymous": false,
      "inputs": [
        {
          "indexed": true,
          "internalType": "uint256",
          "name": "id",
          "type": "uint256"
        },
        {
          "indexed": false,
          "internalType": "address",
          "name": "addr",
          "type": "address"
        }
      ],
      "name": "SetModule",
      "type": "event"
    },
    {
      "inputs": [
        {
          "internalType": "bytes4",
          "name": "interfaceId",
          "type": "bytes4"
        },
        {
          "internalType": "string",
          "name": "message",
          "type": "string"
        }
      ],
      "name": "checkInterface",
      "outputs": [],
      "stateMutability": "view",
      "type": "function",
      "constant": true
    },
    {
      "inputs": [],
      "name": "description",
      "outputs": [
        {
          "internalType": "string",
          "name": "",
          "type": "string"
        }
      ],
      "stateMutability": "view",
      "type": "function",
      "constant": true
    },
    {
      "inputs": [],
      "name": "extend",
      "outputs": [
        {
          "internalType": "bytes",
          "name": "",
          "type": "bytes"
        }
      ],
      "stateMutability": "view",
      "type": "function",
      "constant": true
    },
    {
      "inputs": [],
      "name": "host",
      "outputs": [
        {
          "internalType": "contract IDAO",
          "name": "",
          "type": "address"
        }
      ],
      "stateMutability": "view",
      "type": "function",
      "constant": true
    },
    {
      "inputs": [],
      "name": "image",
      "outputs": [
        {
          "internalType": "string",
          "name": "",
          "type": "string"
        }
      ],
      "stateMutability": "view",
      "type": "function",
      "constant": true
    },
    {
      "inputs": [],
      "name": "impl",
      "outputs": [
        {
          "internalType": "address",
          "name": "",
          "type": "address"
        }
      ],
      "stateMutability": "view",
      "type": "function",
      "constant": true
    },
    {
      "inputs": [],
      "name": "operator",
      "outputs": [
        {
          "internalType": "address",
          "name": "",
          "type": "address"
        }
      ],
      "stateMutability": "view",
      "type": "function",
      "constant": true
    },
    {
      "inputs": [
        {
          "internalType": "string",
          "name": "value",
          "type": "string"
        }
      ],
      "name": "setDescription",
      "outputs": [],
      "stateMutability": "nonpayable",
      "type": "function"
    },
    {
      "inputs": [
        {
          "internalType": "address",
          "name": "operator",
          "type": "address"
        }
      ],
      "name": "setOperator",
      "outputs": [],
      "stateMutability": "nonpayable",
      "type": "function"
    },
    {
      "inputs": [
        {
          "internalType": "bytes4",
          "name": "interfaceId",
          "type": "bytes4"
        }
      ],
      "name": "supportsInterface",
      "outputs": [
        {
          "internalType": "bool",
          "name": "",
          "type": "bool"
        }
      ],
      "stateMutability": "view",
      "type": "function",
      "constant": true
    },
    {
      "inputs": [
        {
          "internalType": "address",
          "name": "impl",
          "type": "address"
        }
      ],
      "name": "upgrade",
      "outputs": [],
      "stateMutability": "nonpayable",
      "type": "function"
    },
    {
      "inputs": [],
      "name": "root",
      "outputs": [
        {
          "internalType": "address",
          "name": "",
          "type": "address"
        }
      ],
      "stateMutability": "view",
      "type": "function",
      "constant": true
    },
    {
      "inputs": [],
      "name": "name",
      "outputs": [
        {
          "internalType": "string",
          "name": "",
          "type": "string"
        }
      ],
      "stateMutability": "view",
      "type": "function",
      "constant": true
    },
    {
      "inputs": [],
      "name": "mission",
      "outputs": [
        {
          "internalType": "string",
          "name": "",
          "type": "string"
        }
      ],
      "stateMutability": "view",
      "type": "function",
      "constant": true
    },
    {
      "inputs": [],
      "name": "member",
      "outputs": [
        {
          "internalType": "contract IMember",
          "name": "",
          "type": "address"
        }
      ],
      "stateMutability": "view",
      "type": "function",
      "constant": true
    },
    {
      "inputs": [],
      "name": "ledger",
      "outputs": [
        {
          "internalType": "contract ILedger",
          "name": "",
          "type": "address"
        }
      ],
      "stateMutability": "view",
      "type": "function",
      "constant": true
    },
    {
      "inputs": [],
      "name": "asset",
      "outputs": [
        {
          "internalType": "contract IAsset",
          "name": "",
          "type": "address"
        }
      ],
      "stateMutability": "view",
      "type": "function",
      "constant": true
    },
    {
      "inputs": [
        {
          "internalType": "uint256",
          "name": "id",
          "type": "uint256"
        }
      ],
      "name": "module",
      "outputs": [
        {
          "internalType": "contract IModule",
          "name": "",
          "type": "address"
        }
      ],
      "stateMutability": "view",
      "type": "function",
      "constant": true
    },
    {
      "inputs": [
        {
          "internalType": "string",
          "name": "name",
          "type": "string"
        },
        {
          "internalType": "string",
          "name": "mission",
          "type": "string"
        },
        {
          "internalType": "string",
          "name": "description",
          "type": "string"
        },
        {
          "internalType": "address",
          "name": "root",
          "type": "address"
        },
        {
          "internalType": "address",
          "name": "operator",
          "type": "address"
        },
        {
          "internalType": "address",
          "name": "member",
          "type": "address"
        }
      ],
      "name": "initDAO",
      "outputs": [],
      "stateMutability": "nonpayable",
      "type": "function"
    },
    {
      "inputs": [
        {
          "internalType": "bytes",
          "name": "data",
          "type": "bytes"
        }
      ],
      "name": "setExtend",
      "outputs": [],
      "stateMutability": "nonpayable",
      "type": "function"
    },
    {
      "inputs": [
        {
          "internalType": "string",
          "name": "value",
          "type": "string"
        }
      ],
      "name": "setImage",
      "outputs": [],
      "stateMutability": "nonpayable",
      "type": "function"
    },
    {
      "inputs": [
        {
          "internalType": "string",
          "name": "value",
          "type": "string"
        }
      ],
      "name": "setMission",
      "outputs": [],
      "stateMutability": "nonpayable",
      "type": "function"
    },
    {
      "inputs": [
        {
          "internalType": "string",
          "name": "mission",
          "type": "string"
        },
        {
          "internalType": "string",
          "name": "desc",
          "type": "string"
        }
      ],
      "name": "setMissionAndDesc",
      "outputs": [],
      "stateMutability": "nonpayable",
      "type": "function"
    },
    {
      "inputs": [
        {
          "internalType": "uint256",
          "name": "id",
          "type": "uint256"
        },
        {
          "internalType": "address",
          "name": "addr",
          "type": "address"
        }
      ],
      "name": "setModule",
      "outputs": [],
      "stateMutability": "nonpayable",
      "type": "function"
    }
  ],
  "bytecode": "0x608060405234801561001057600080fd5b50611d88806100206000396000f3fe608060405234801561001057600080fd5b50600436106101585760003560e01c80637284e416116100c3578063bde4d6031161007c578063bde4d603146102c3578063c64df69d146102d6578063e3f6b544146102e9578063ebf0c717146102f1578063f3ccaac014610302578063f437bc591461030a57600080fd5b80637284e4161461025e5780638abf6077146102665780638ad159601461027757806390c3f38f1461028a578063b3ab15fb1461029d578063b4f10136146102b057600080fd5b806338d52e0f1161011557806338d52e0f146101ec578063430f75da1461020c57806356397c351461021f578063570ca735146102275780635d2916301461023857806371adb5e61461024b57600080fd5b806301ffc9a71461015d57806306fdde031461019f5780630900f010146101b4578063172a27b3146101c957806317701ee6146101d15780632e422cb8146101d9575b600080fd5b61018a61016b366004611669565b6001600160e01b03191660009081526001602052604090205460ff1690565b60405190151581526020015b60405180910390f35b6101a761031b565b60405161019691906116ca565b6101c76101c23660046116f2565b6103ad565b005b6101a7610420565b6101a76104ae565b6101c76101e7366004611758565b6104bd565b6101f461060f565b6040516001600160a01b039091168152602001610196565b6101f461021a36600461179a565b610622565b6101f461064b565b6003546001600160a01b03166101f4565b6101c76102463660046117b3565b610659565b6101c7610259366004611758565b6108cc565b6101a7610a11565b6000546001600160a01b03166101f4565b6101c76102853660046117e3565b610a20565b6101c7610298366004611958565b610bf6565b6101c76102ab3660046116f2565b610d46565b6101c76102be36600461198d565b610da9565b6101c76102d1366004611758565b610f35565b6101c76102e43660046119f9565b61107a565b6101f46110bb565b600d546001600160a01b03166101f4565b6101a76110c9565b6002546001600160a01b03166101f4565b6060600e805461032a90611a47565b80601f016020809104026020016040519081016040528092919081815260200182805461035690611a47565b80156103a35780601f10610378576101008083540402835291602001916103a3565b820191906000526020600020905b81548152906001019060200180831161038657829003601f168201915b5050505050905090565b6103b56110d6565b6103da5760405162461bcd60e51b81526004016103d190611a81565b60405180910390fd5b600080546001600160a01b0319166001600160a01b038316908117909155604051908152600390600080516020611d33833981519152906020015b60405180910390a250565b6014805461042d90611a47565b80601f016020809104026020016040519081016040528092919081815260200182805461045990611a47565b80156104a65780601f1061047b576101008083540402835291602001916104a6565b820191906000526020600020905b81548152906001019060200180831161048957829003601f168201915b505050505081565b6060600f805461032a90611a47565b63d0a4ad966104ca6110d6565b6105d257600260009054906101000a90046001600160a01b03166001600160a01b031663e3f6b5446040518163ffffffff1660e01b8152600401602060405180830381865afa158015610521573d6000803e3d6000fd5b505050506040513d601f19601f820116820180604052508101906105459190611ad7565b60405163a8a555c560e01b8152336004820152602481018390526001600160a01b03919091169063a8a555c590604401602060405180830381865afa158015610592573d6000803e3d6000fd5b505050506040513d601f19601f820116820180604052508101906105b69190611af4565b6105d25760405162461bcd60e51b81526004016103d190611a81565b600f6105df838583611b64565b506004600080516020611d33833981519152600060405161060291815260200190565b60405180910390a2505050565b600061061d60106003611215565b905090565b600061062f601083611228565b61063a576000610645565b610645601083611215565b92915050565b600061061d60106002611215565b6305d291636106666110d6565b61076e57600260009054906101000a90046001600160a01b03166001600160a01b031663e3f6b5446040518163ffffffff1660e01b8152600401602060405180830381865afa1580156106bd573d6000803e3d6000fd5b505050506040513d601f19601f820116820180604052508101906106e19190611ad7565b60405163a8a555c560e01b8152336004820152602481018390526001600160a01b03919091169063a8a555c590604401602060405180830381865afa15801561072e573d6000803e3d6000fd5b505050506040513d601f19601f820116820180604052508101906107529190611af4565b61076e5760405162461bcd60e51b81526004016103d190611a81565b600183036107cd5760405162461bcd60e51b815260206004820152602660248201527f2344414f237365744d6f64756c652044697361626c652055706461746573206d604482015265656d6265727360d01b60648201526084016103d1565b6001600160a01b0382166107ec576107e6601084611234565b50610891565b6040805163c64df69d60e01b8152630d64f40d60e31b60048201526024810191909152601d60448201527f2344414f237365744d6f64756c652074797065206e6f74206d6174636800000060648201526001600160a01b0383169063c64df69d9060840160006040518083038186803b15801561086857600080fd5b505afa15801561087c573d6000803e3d6000fd5b5061088f92506010915085905084611240565b505b6040516001600160a01b038316815283907f48cd35eb8c48361e84310128ddc5d8f23f2def3703599528ba78fb2c8a00304390602001610602565b63d0a4ad966108d96110d6565b6109e157600260009054906101000a90046001600160a01b03166001600160a01b031663e3f6b5446040518163ffffffff1660e01b8152600401602060405180830381865afa158015610930573d6000803e3d6000fd5b505050506040513d601f19601f820116820180604052508101906109549190611ad7565b60405163a8a555c560e01b8152336004820152602481018390526001600160a01b03919091169063a8a555c590604401602060405180830381865afa1580156109a1573d6000803e3d6000fd5b505050506040513d601f19601f820116820180604052508101906109c59190611af4565b6109e15760405162461bcd60e51b81526004016103d190611a81565b60136109ee838583611b64565b506009600080516020611d33833981519152600060405161060291815260200190565b60606004805461032a90611a47565b610a623086868080601f01602080910402602001604051908101604052809392919081815260200183838082843760009201919091525087925061125e915050565b610a726363daa99b60e11b6112c2565b6040805163c64df69d60e01b8152630ddf27bf60e01b60048201526024810191909152602060448201527f2344414f23696e697444414f20726f6f742074797065206e6f74206d6174636860648201526001600160a01b0384169063c64df69d9060840160006040518083038186803b158015610aee57600080fd5b505afa158015610b02573d6000803e3d6000fd5b50506040805163c64df69d60e01b81526323fc76b960e01b60048201526024810191909152602260448201527f2344414f23696e697444414f206d656d6265722074797065206e6f74206d61746064820152610c6d60f31b60848201526001600160a01b038416925063c64df69d915060a40160006040518083038186803b158015610b8d57600080fd5b505afa158015610ba1573d6000803e3d6000fd5b5050600d80546001600160a01b0319166001600160a01b03871617905550600e9050610bce898b83611b64565b50600f610bdc878983611b64565b50610bea6010600183611240565b50505050505050505050565b63d0a4ad96610c036110d6565b610d0b57600260009054906101000a90046001600160a01b03166001600160a01b031663e3f6b5446040518163ffffffff1660e01b8152600401602060405180830381865afa158015610c5a573d6000803e3d6000fd5b505050506040513d601f19601f82011682018060405250810190610c7e9190611ad7565b60405163a8a555c560e01b8152336004820152602481018390526001600160a01b03919091169063a8a555c590604401602060405180830381865afa158015610ccb573d6000803e3d6000fd5b505050506040513d601f19601f82011682018060405250810190610cef9190611af4565b610d0b5760405162461bcd60e51b81526004016103d190611a81565b6004610d178382611c25565b506001600080516020611d338339815191526000604051610d3a91815260200190565b60405180910390a25050565b610d4e6110d6565b610d6a5760405162461bcd60e51b81526004016103d190611a81565b600380546001600160a01b0319166001600160a01b038316908117909155604051908152600290600080516020611d3383398151915290602001610415565b63d0a4ad96610db66110d6565b610ebe57600260009054906101000a90046001600160a01b03166001600160a01b031663e3f6b5446040518163ffffffff1660e01b8152600401602060405180830381865afa158015610e0d573d6000803e3d6000fd5b505050506040513d601f19601f82011682018060405250810190610e319190611ad7565b60405163a8a555c560e01b8152336004820152602481018390526001600160a01b03919091169063a8a555c590604401602060405180830381865afa158015610e7e573d6000803e3d6000fd5b505050506040513d601f19601f82011682018060405250810190610ea29190611af4565b610ebe5760405162461bcd60e51b81526004016103d190611a81565b600f610ecb858783611b64565b506004610ed9838583611b64565b506001600080516020611d338339815191526000604051610efc91815260200190565b60405180910390a26004600080516020611d338339815191526000604051610f2691815260200190565b60405180910390a25050505050565b63d0a4ad96610f426110d6565b61104a57600260009054906101000a90046001600160a01b03166001600160a01b031663e3f6b5446040518163ffffffff1660e01b8152600401602060405180830381865afa158015610f99573d6000803e3d6000fd5b505050506040513d601f19601f82011682018060405250810190610fbd9190611ad7565b60405163a8a555c560e01b8152336004820152602481018390526001600160a01b03919091169063a8a555c590604401602060405180830381865afa15801561100a573d6000803e3d6000fd5b505050506040513d601f19601f8201168201806040525081019061102e9190611af4565b61104a5760405162461bcd60e51b81526004016103d190611a81565b6014611057838583611b64565b50600a600080516020611d33833981519152600060405161060291815260200190565b6001600160e01b0319821660009081526001602052604090205460ff1681906110b65760405162461bcd60e51b81526004016103d191906116ca565b505050565b600061061d60106001611215565b6013805461042d90611a47565b60035460009033906001600160a01b0316811461120d57600260009054906101000a90046001600160a01b03166001600160a01b031663570ca7356040518163ffffffff1660e01b8152600401602060405180830381865afa158015611140573d6000803e3d6000fd5b505050506040513d601f19601f820116820180604052508101906111649190611ad7565b6001600160a01b0316816001600160a01b03161461120d57600260009054906101000a90046001600160a01b03166001600160a01b031663ebf0c7176040518163ffffffff1660e01b8152600401602060405180830381865afa1580156111cf573d6000803e3d6000fd5b505050506040513d601f19601f820116820180604052508101906111f39190611ad7565b6001600160a01b0316816001600160a01b03161491505090565b600191505090565b60006112218383611344565b9392505050565b600061122183836113b4565b600061122183836113c0565b600061125684846001600160a01b0385166113dd565b949350505050565b6112666113fa565b611276630d64f40d60e31b6112c2565b600280546001600160a01b0319166001600160a01b038516179055600461129d8382611c25565b50600380546001600160a01b0319166001600160a01b03929092169190911790555050565b6001600160e01b0319808216900361131c5760405162461bcd60e51b815260206004820152601c60248201527f4552433136353a20696e76616c696420696e746572666163652069640000000060448201526064016103d1565b6001600160e01b0319166000908152600160208190526040909120805460ff19169091179055565b600081815260028301602052604081205480151580611368575061136884846113b4565b6112215760405162461bcd60e51b815260206004820152601e60248201527f456e756d657261626c654d61703a206e6f6e6578697374656e74206b6579000060448201526064016103d1565b600061122183836114da565b6000818152600283016020526040812081905561122183836114f2565b6000828152600284016020526040812082905561125684846114fe565b600054600160a81b900460ff16806114115750303b155b806114265750600054600160a01b900460ff16155b6114895760405162461bcd60e51b815260206004820152602e60248201527f436f6e747261637420696e7374616e63652068617320616c726561647920626560448201526d195b881a5b9a5d1a585b1a5e995960921b60648201526084016103d1565b600054600160a81b900460ff161580156114b3576000805461ffff60a01b191661010160a01b1790555b6114c36301ffc9a760e01b6112c2565b80156114d7576000805460ff60a81b191690555b50565b60008181526001830160205260408120541515611221565b6000611221838361150a565b600061122183836115fd565b600081815260018301602052604081205480156115f357600061152e600183611ce5565b855490915060009061154290600190611ce5565b90508181146115a757600086600001828154811061156257611562611d06565b906000526020600020015490508087600001848154811061158557611585611d06565b6000918252602080832090910192909255918252600188019052604090208390555b85548690806115b8576115b8611d1c565b600190038181906000526020600020016000905590558560010160008681526020019081526020016000206000905560019350505050610645565b6000915050610645565b600081815260018301602052604081205461164457508154600181810184556000848152602080822090930184905584548482528286019093526040902091909155610645565b506000610645565b80356001600160e01b03198116811461166457600080fd5b919050565b60006020828403121561167b57600080fd5b6112218261164c565b6000815180845260005b818110156116aa5760208185018101518683018201520161168e565b506000602082860101526020601f19601f83011685010191505092915050565b6020815260006112216020830184611684565b6001600160a01b03811681146114d757600080fd5b60006020828403121561170457600080fd5b8135611221816116dd565b60008083601f84011261172157600080fd5b50813567ffffffffffffffff81111561173957600080fd5b60208301915083602082850101111561175157600080fd5b9250929050565b6000806020838503121561176b57600080fd5b823567ffffffffffffffff81111561178257600080fd5b61178e8582860161170f565b90969095509350505050565b6000602082840312156117ac57600080fd5b5035919050565b600080604083850312156117c657600080fd5b8235915060208301356117d8816116dd565b809150509250929050565b600080600080600080600080600060c08a8c03121561180157600080fd5b893567ffffffffffffffff8082111561181957600080fd5b6118258d838e0161170f565b909b50995060208c013591508082111561183e57600080fd5b61184a8d838e0161170f565b909950975060408c013591508082111561186357600080fd5b506118708c828d0161170f565b90965094505060608a0135611884816116dd565b925060808a0135611894816116dd565b915060a08a01356118a4816116dd565b809150509295985092959850929598565b634e487b7160e01b600052604160045260246000fd5b600082601f8301126118dc57600080fd5b813567ffffffffffffffff808211156118f7576118f76118b5565b604051601f8301601f19908116603f0116810190828211818310171561191f5761191f6118b5565b8160405283815286602085880101111561193857600080fd5b836020870160208301376000602085830101528094505050505092915050565b60006020828403121561196a57600080fd5b813567ffffffffffffffff81111561198157600080fd5b611256848285016118cb565b600080600080604085870312156119a357600080fd5b843567ffffffffffffffff808211156119bb57600080fd5b6119c78883890161170f565b909650945060208701359150808211156119e057600080fd5b506119ed8782880161170f565b95989497509550505050565b60008060408385031215611a0c57600080fd5b611a158361164c565b9150602083013567ffffffffffffffff811115611a3157600080fd5b611a3d858286016118cb565b9150509250929050565b600181811c90821680611a5b57607f821691505b602082108103611a7b57634e487b7160e01b600052602260045260246000fd5b50919050565b60208082526036908201527f235065726d697373696f6e436865636b23436865636b2063616c6c657220646f60408201527532b9903737ba103430bb32903832b936b4b9b9b4b7b760511b606082015260800190565b600060208284031215611ae957600080fd5b8151611221816116dd565b600060208284031215611b0657600080fd5b8151801515811461122157600080fd5b601f8211156110b657600081815260208120601f850160051c81016020861015611b3d5750805b601f850160051c820191505b81811015611b5c57828155600101611b49565b505050505050565b67ffffffffffffffff831115611b7c57611b7c6118b5565b611b9083611b8a8354611a47565b83611b16565b6000601f841160018114611bc45760008515611bac5750838201355b600019600387901b1c1916600186901b178355611c1e565b600083815260209020601f19861690835b82811015611bf55786850135825560209485019460019092019101611bd5565b5086821015611c125760001960f88860031b161c19848701351681555b505060018560011b0183555b5050505050565b815167ffffffffffffffff811115611c3f57611c3f6118b5565b611c5381611c4d8454611a47565b84611b16565b602080601f831160018114611c885760008415611c705750858301515b600019600386901b1c1916600185901b178555611b5c565b600085815260208120601f198616915b82811015611cb757888601518255948401946001909101908401611c98565b5085821015611cd55787850151600019600388901b60f8161c191681555b5050505050600190811b01905550565b8181038181111561064557634e487b7160e01b600052601160045260246000fd5b634e487b7160e01b600052603260045260246000fd5b634e487b7160e01b600052603160045260246000fdfe7016719027ff29c13bc4816903851ea968172a86b766c733b954fdabe53c87eea2646970667358221220a31a378679d9883307c57d712c12bb5ddad953872a267155ab9d1a6d904fb53f64736f6c63430008110033",
  "immutableReferences": {},
  "source": "// SPDX-License-Identifier: MIT\npragma solidity 0.8.17;\n\nimport './Module.sol';\nimport '../openzeppelin/contracts/utils/structs/EnumerableMap.sol';\n\ncontract DAO is IDAO, Module {\n\tusing EnumerableMap for EnumerableMap.UintToAddressMap;\n\n\taddress            private  _root;\n\tstring             private  _name;\n\tstring             private  _mission;\n\tEnumerableMap.UintToAddressMap private _modules;\n\tstring             public  image;\n\tbytes              public  extend; // external data\n\tuint256[48]        private  __; // reserved storage space\n\n\tfunction root() view external override returns (address) { return _root; }\n\tfunction name() view external returns (string memory) { return _name; }\n\tfunction mission() view external returns (string memory) { return _mission; }\n\tfunction member() view external override returns (IMember) { return IMember(_modules.get(Module_MEMBER_ID)); }\n\tfunction ledger() view external override returns (ILedger) { return ILedger(_modules.get(Module_LEDGER_ID)); }\n\tfunction asset() view external override returns (IAsset) { return IAsset(_modules.get(Module_ASSET_ID)); }\n\n\tfunction module(uint256 id) view external returns (IModule) {\n\t\treturn IModule(_modules.contains(id) ? _modules.get(id): address(0));\n\t}\n\n\tfunction initDAO(\n\t\tstring calldata name, string calldata mission, string calldata description,\n\t\taddress root, address operator, address member\n\t) external {\n\t\tinitModule(address(this), description, operator);\n\t\t_registerInterface(DAO_Type);\n\n\t\tERC165(root).checkInterface(VotePool_Type, \"#DAO#initDAO root type not match\");\n\t\tERC165(member).checkInterface(Member_Type, \"#DAO#initDAO member type not match\");\n\n\t\t_root = root;\n\t\t_name = name;\n\t\t_mission = mission;\n\n\t\t_modules.set(Module_MEMBER_ID, member);\n\t\t// emit SetModule(Module_MEMBER_ID, member);\n\t}\n\n\tfunction setExtend(bytes calldata data) external Check(Action_DAO_Settings) {\n\t\textend = data;\n\t\temit Change(Change_Tag_DAO_Extend, 0);\n\t}\n\n\tfunction setImage(string calldata value) external Check(Action_DAO_Settings) {\n\t\timage = value;\n\t\temit Change(Change_Tag_DAO_Image, 0);\n\t}\n\n\tfunction setMission(string calldata value) external Check(Action_DAO_Settings) {\n\t\t_mission = value;\n\t\temit Change(Change_Tag_DAO_Mission, 0);\n\t}\n\n\tfunction setMissionAndDesc(string calldata mission, string calldata desc) external Check(Action_DAO_Settings) {\n\t\t_mission = mission;\n\t\t_description = desc;\n\t\temit Change(Change_Tag_Description, 0);\n\t\temit Change(Change_Tag_DAO_Mission, 0);\n\t}\n\n\tfunction setModule(uint256 id, address addr) external Check(Action_DAO_SetModule) {\n\t\trequire(id != Module_MEMBER_ID, \"#DAO#setModule Disable Updates members\");\n\t\tif (addr == address(0)) {\n\t\t\t_modules.remove(id);\n\t\t} else {\n\t\t\tERC165(addr).checkInterface(Module_Type, \"#DAO#setModule type not match\");\n\t\t\t_modules.set(id, addr);\n\t\t}\n\t\temit SetModule(id, addr);\n\t}\n\n}",
  "sourcePath": "/Users/louis/Project/hc/NFTSwap/SmartHolder/contracts/DAO.sol",
  "compiler": {
    "name": "solc",
    "version": "0.8.17+commit.8df45f5f.Emscripten.clang"
  },
  "schemaVersion": "3.4.11",
  "updatedAt": "2023-03-20T04:29:27.836Z",
  "networkType": "ethereum",
  "devdoc": {
    "kind": "dev",
    "methods": {
      "supportsInterface(bytes4)": {
        "details": "See {IERC165-supportsInterface}. Time complexity O(1), guaranteed to always use less than 30 000 gas."
      }
    },
    "version": 1
  },
  "userdoc": {
    "kind": "user",
    "methods": {},
    "version": 1
  }
}