{
  "contractName": "DAO",
  "abi": [
    {
      "anonymous": false,
      "inputs": [
        {
          "indexed": true,
          "internalType": "uint256",
          "name": "tag",
          "type": "uint256"
        },
        {
          "indexed": false,
          "internalType": "uint256",
          "name": "value",
          "type": "uint256"
        }
      ],
      "name": "Change",
      "type": "event"
    },
    {
      "anonymous": false,
      "inputs": [
        {
          "indexed": true,
          "internalType": "uint256",
          "name": "id",
          "type": "uint256"
        },
        {
          "indexed": false,
          "internalType": "address",
          "name": "addr",
          "type": "address"
        }
      ],
      "name": "SetModule",
      "type": "event"
    },
    {
      "inputs": [
        {
          "internalType": "bytes4",
          "name": "interfaceId",
          "type": "bytes4"
        },
        {
          "internalType": "string",
          "name": "message",
          "type": "string"
        }
      ],
      "name": "checkInterface",
      "outputs": [],
      "stateMutability": "view",
      "type": "function"
    },
    {
      "inputs": [],
      "name": "description",
      "outputs": [
        {
          "internalType": "string",
          "name": "",
          "type": "string"
        }
      ],
      "stateMutability": "view",
      "type": "function"
    },
    {
      "inputs": [],
      "name": "host",
      "outputs": [
        {
          "internalType": "contract IDAO",
          "name": "",
          "type": "address"
        }
      ],
      "stateMutability": "view",
      "type": "function"
    },
    {
      "inputs": [],
      "name": "impl",
      "outputs": [
        {
          "internalType": "address",
          "name": "",
          "type": "address"
        }
      ],
      "stateMutability": "view",
      "type": "function"
    },
    {
      "inputs": [],
      "name": "operator",
      "outputs": [
        {
          "internalType": "address",
          "name": "",
          "type": "address"
        }
      ],
      "stateMutability": "view",
      "type": "function"
    },
    {
      "inputs": [
        {
          "internalType": "string",
          "name": "value",
          "type": "string"
        }
      ],
      "name": "setDescription",
      "outputs": [],
      "stateMutability": "nonpayable",
      "type": "function"
    },
    {
      "inputs": [
        {
          "internalType": "address",
          "name": "operator",
          "type": "address"
        }
      ],
      "name": "setOperator",
      "outputs": [],
      "stateMutability": "nonpayable",
      "type": "function"
    },
    {
      "inputs": [
        {
          "internalType": "bytes4",
          "name": "interfaceId",
          "type": "bytes4"
        }
      ],
      "name": "supportsInterface",
      "outputs": [
        {
          "internalType": "bool",
          "name": "",
          "type": "bool"
        }
      ],
      "stateMutability": "view",
      "type": "function"
    },
    {
      "inputs": [
        {
          "internalType": "address",
          "name": "impl",
          "type": "address"
        }
      ],
      "name": "upgrade",
      "outputs": [],
      "stateMutability": "nonpayable",
      "type": "function"
    },
    {
      "inputs": [],
      "name": "root",
      "outputs": [
        {
          "internalType": "address",
          "name": "",
          "type": "address"
        }
      ],
      "stateMutability": "view",
      "type": "function"
    },
    {
      "inputs": [],
      "name": "name",
      "outputs": [
        {
          "internalType": "string",
          "name": "",
          "type": "string"
        }
      ],
      "stateMutability": "view",
      "type": "function"
    },
    {
      "inputs": [],
      "name": "mission",
      "outputs": [
        {
          "internalType": "string",
          "name": "",
          "type": "string"
        }
      ],
      "stateMutability": "view",
      "type": "function"
    },
    {
      "inputs": [],
      "name": "member",
      "outputs": [
        {
          "internalType": "contract IMember",
          "name": "",
          "type": "address"
        }
      ],
      "stateMutability": "view",
      "type": "function"
    },
    {
      "inputs": [],
      "name": "ledger",
      "outputs": [
        {
          "internalType": "contract ILedger",
          "name": "",
          "type": "address"
        }
      ],
      "stateMutability": "view",
      "type": "function"
    },
    {
      "inputs": [],
      "name": "asset",
      "outputs": [
        {
          "internalType": "contract IAsset",
          "name": "",
          "type": "address"
        }
      ],
      "stateMutability": "view",
      "type": "function"
    },
    {
      "inputs": [
        {
          "internalType": "uint256",
          "name": "id",
          "type": "uint256"
        }
      ],
      "name": "module",
      "outputs": [
        {
          "internalType": "contract IModule",
          "name": "",
          "type": "address"
        }
      ],
      "stateMutability": "view",
      "type": "function"
    },
    {
      "inputs": [
        {
          "internalType": "string",
          "name": "name",
          "type": "string"
        },
        {
          "internalType": "string",
          "name": "mission",
          "type": "string"
        },
        {
          "internalType": "string",
          "name": "description",
          "type": "string"
        },
        {
          "internalType": "address",
          "name": "root",
          "type": "address"
        },
        {
          "internalType": "address",
          "name": "operator",
          "type": "address"
        },
        {
          "internalType": "address",
          "name": "member",
          "type": "address"
        }
      ],
      "name": "initDAO",
      "outputs": [],
      "stateMutability": "nonpayable",
      "type": "function"
    },
    {
      "inputs": [
        {
          "internalType": "string",
          "name": "value",
          "type": "string"
        }
      ],
      "name": "setMission",
      "outputs": [],
      "stateMutability": "nonpayable",
      "type": "function"
    },
    {
      "inputs": [
        {
          "internalType": "string",
          "name": "mission",
          "type": "string"
        },
        {
          "internalType": "string",
          "name": "desc",
          "type": "string"
        }
      ],
      "name": "setMissionAndDesc",
      "outputs": [],
      "stateMutability": "nonpayable",
      "type": "function"
    },
    {
      "inputs": [
        {
          "internalType": "uint256",
          "name": "id",
          "type": "uint256"
        },
        {
          "internalType": "address",
          "name": "addr",
          "type": "address"
        }
      ],
      "name": "setModule",
      "outputs": [],
      "stateMutability": "nonpayable",
      "type": "function"
    }
  ],
  "bytecode": "0x608060405234801561001057600080fd5b50611835806100206000396000f3fe608060405234801561001057600080fd5b506004361061012c5760003560e01c80637284e416116100ad578063b4f1013611610071578063b4f1013614610269578063c64df69d1461027c578063e3f6b5441461028f578063ebf0c71714610297578063f437bc59146102a857600080fd5b80637284e416146102175780638abf60771461021f5780638ad159601461023057806390c3f38f14610243578063b3ab15fb1461025657600080fd5b806338d52e0f116100f457806338d52e0f146101b8578063430f75da146101d857806356397c35146101eb578063570ca735146101f35780635d2916301461020457600080fd5b806301ffc9a71461013157806306fdde03146101735780630900f0101461018857806317701ee61461019d5780632e422cb8146101a5575b600080fd5b61015e61013f366004611290565b6001600160e01b03191660009081526001602052604090205460ff1690565b60405190151581526020015b60405180910390f35b61017b6102b9565b60405161016a91906112ab565b61019b61019636600461130e565b61034b565b005b61017b6103be565b61019b6101b33660046113ce565b6103cd565b6101c061051d565b6040516001600160a01b03909116815260200161016a565b6101c06101e6366004611403565b610530565b6101c0610559565b6003546001600160a01b03166101c0565b61019b61021236600461141c565b610567565b61017b6107e3565b6000546001600160a01b03166101c0565b61019b61023e36600461144c565b6107f2565b61019b6102513660046113ce565b61098c565b61019b61026436600461130e565b610ad0565b61019b61027736600461150d565b610b33565b61019b61028a366004611571565b610cae565b6101c0610cef565b600d546001600160a01b03166101c0565b6002546001600160a01b03166101c0565b6060600e80546102c8906115b5565b80601f01602080910402602001604051908101604052809291908181526020018280546102f4906115b5565b80156103415780601f1061031657610100808354040283529160200191610341565b820191906000526020600020905b81548152906001019060200180831161032457829003601f168201915b5050505050905090565b610353610cfd565b6103785760405162461bcd60e51b815260040161036f906115ef565b60405180910390fd5b600080546001600160a01b0319166001600160a01b0383169081179091556040519081526003906000805160206117e0833981519152906020015b60405180910390a250565b6060600f80546102c8906115b5565b63d0a4ad966103da610cfd565b6104e257600260009054906101000a90046001600160a01b03166001600160a01b031663e3f6b5446040518163ffffffff1660e01b8152600401602060405180830381865afa158015610431573d6000803e3d6000fd5b505050506040513d601f19601f820116820180604052508101906104559190611645565b60405163a8a555c560e01b8152336004820152602481018390526001600160a01b03919091169063a8a555c590604401602060405180830381865afa1580156104a2573d6000803e3d6000fd5b505050506040513d601f19601f820116820180604052508101906104c69190611662565b6104e25760405162461bcd60e51b815260040161036f906115ef565b600f6104ee83826116d2565b5060046000805160206117e0833981519152600060405161051191815260200190565b60405180910390a25050565b600061052b60106003610e3c565b905090565b600061053d601083610e4f565b610548576000610553565b610553601083610e3c565b92915050565b600061052b60106002610e3c565b6305d29163610574610cfd565b61067c57600260009054906101000a90046001600160a01b03166001600160a01b031663e3f6b5446040518163ffffffff1660e01b8152600401602060405180830381865afa1580156105cb573d6000803e3d6000fd5b505050506040513d601f19601f820116820180604052508101906105ef9190611645565b60405163a8a555c560e01b8152336004820152602481018390526001600160a01b03919091169063a8a555c590604401602060405180830381865afa15801561063c573d6000803e3d6000fd5b505050506040513d601f19601f820116820180604052508101906106609190611662565b61067c5760405162461bcd60e51b815260040161036f906115ef565b600183036106db5760405162461bcd60e51b815260206004820152602660248201527f2344414f237365744d6f64756c652044697361626c652055706461746573206d604482015265656d6265727360d01b606482015260840161036f565b6001600160a01b0382166106fa576106f4601084610e5b565b5061079f565b6040805163c64df69d60e01b8152630d64f40d60e31b60048201526024810191909152601d60448201527f2344414f237365744d6f64756c652074797065206e6f74206d6174636800000060648201526001600160a01b0383169063c64df69d9060840160006040518083038186803b15801561077657600080fd5b505afa15801561078a573d6000803e3d6000fd5b5061079d92506010915085905084610e67565b505b6040516001600160a01b038316815283907f48cd35eb8c48361e84310128ddc5d8f23f2def3703599528ba78fb2c8a003043906020015b60405180910390a2505050565b6060600480546102c8906115b5565b6107fd308584610e85565b61080d6363daa99b60e11b610ee9565b6040805163c64df69d60e01b8152630ddf27bf60e01b60048201526024810191909152602060448201527f2344414f23696e697444414f20726f6f742074797065206e6f74206d6174636860648201526001600160a01b0384169063c64df69d9060840160006040518083038186803b15801561088957600080fd5b505afa15801561089d573d6000803e3d6000fd5b50506040805163c64df69d60e01b81526323fc76b960e01b60048201526024810191909152602260448201527f2344414f23696e697444414f206d656d6265722074797065206e6f74206d61746064820152610c6d60f31b60848201526001600160a01b038416925063c64df69d915060a40160006040518083038186803b15801561092857600080fd5b505afa15801561093c573d6000803e3d6000fd5b5050600d80546001600160a01b0319166001600160a01b03871617905550600e905061096887826116d2565b50600f61097586826116d2565b506109836010600183610e67565b50505050505050565b63d0a4ad96610999610cfd565b610aa157600260009054906101000a90046001600160a01b03166001600160a01b031663e3f6b5446040518163ffffffff1660e01b8152600401602060405180830381865afa1580156109f0573d6000803e3d6000fd5b505050506040513d601f19601f82011682018060405250810190610a149190611645565b60405163a8a555c560e01b8152336004820152602481018390526001600160a01b03919091169063a8a555c590604401602060405180830381865afa158015610a61573d6000803e3d6000fd5b505050506040513d601f19601f82011682018060405250810190610a859190611662565b610aa15760405162461bcd60e51b815260040161036f906115ef565b6004610aad83826116d2565b5060016000805160206117e0833981519152600060405161051191815260200190565b610ad8610cfd565b610af45760405162461bcd60e51b815260040161036f906115ef565b600380546001600160a01b0319166001600160a01b0383169081179091556040519081526002906000805160206117e0833981519152906020016103b3565b63d0a4ad96610b40610cfd565b610c4857600260009054906101000a90046001600160a01b03166001600160a01b031663e3f6b5446040518163ffffffff1660e01b8152600401602060405180830381865afa158015610b97573d6000803e3d6000fd5b505050506040513d601f19601f82011682018060405250810190610bbb9190611645565b60405163a8a555c560e01b8152336004820152602481018390526001600160a01b03919091169063a8a555c590604401602060405180830381865afa158015610c08573d6000803e3d6000fd5b505050506040513d601f19601f82011682018060405250810190610c2c9190611662565b610c485760405162461bcd60e51b815260040161036f906115ef565b600f610c5484826116d2565b506004610c6183826116d2565b5060016000805160206117e08339815191526000604051610c8491815260200190565b60405180910390a260046000805160206117e083398151915260006040516107d691815260200190565b6001600160e01b0319821660009081526001602052604090205460ff168190610cea5760405162461bcd60e51b815260040161036f91906112ab565b505050565b600061052b60106001610e3c565b60035460009033906001600160a01b03168114610e3457600260009054906101000a90046001600160a01b03166001600160a01b031663570ca7356040518163ffffffff1660e01b8152600401602060405180830381865afa158015610d67573d6000803e3d6000fd5b505050506040513d601f19601f82011682018060405250810190610d8b9190611645565b6001600160a01b0316816001600160a01b031614610e3457600260009054906101000a90046001600160a01b03166001600160a01b031663ebf0c7176040518163ffffffff1660e01b8152600401602060405180830381865afa158015610df6573d6000803e3d6000fd5b505050506040513d601f19601f82011682018060405250810190610e1a9190611645565b6001600160a01b0316816001600160a01b03161491505090565b600191505090565b6000610e488383610f6b565b9392505050565b6000610e488383610fdb565b6000610e488383610fe7565b6000610e7d84846001600160a01b038516611004565b949350505050565b610e8d611021565b610e9d630d64f40d60e31b610ee9565b600280546001600160a01b0319166001600160a01b0385161790556004610ec483826116d2565b50600380546001600160a01b0319166001600160a01b03929092169190911790555050565b6001600160e01b03198082169003610f435760405162461bcd60e51b815260206004820152601c60248201527f4552433136353a20696e76616c696420696e7465726661636520696400000000604482015260640161036f565b6001600160e01b0319166000908152600160208190526040909120805460ff19169091179055565b600081815260028301602052604081205480151580610f8f5750610f8f8484610fdb565b610e485760405162461bcd60e51b815260206004820152601e60248201527f456e756d657261626c654d61703a206e6f6e6578697374656e74206b65790000604482015260640161036f565b6000610e488383611101565b60008181526002830160205260408120819055610e488383611119565b60008281526002840160205260408120829055610e7d8484611125565b600054600160a81b900460ff16806110385750303b155b8061104d5750600054600160a01b900460ff16155b6110b05760405162461bcd60e51b815260206004820152602e60248201527f436f6e747261637420696e7374616e63652068617320616c726561647920626560448201526d195b881a5b9a5d1a585b1a5e995960921b606482015260840161036f565b600054600160a81b900460ff161580156110da576000805461ffff60a01b191661010160a01b1790555b6110ea6301ffc9a760e01b610ee9565b80156110fe576000805460ff60a81b191690555b50565b60008181526001830160205260408120541515610e48565b6000610e488383611131565b6000610e488383611224565b6000818152600183016020526040812054801561121a576000611155600183611792565b855490915060009061116990600190611792565b90508181146111ce576000866000018281548110611189576111896117b3565b90600052602060002001549050808760000184815481106111ac576111ac6117b3565b6000918252602080832090910192909255918252600188019052604090208390555b85548690806111df576111df6117c9565b600190038181906000526020600020016000905590558560010160008681526020019081526020016000206000905560019350505050610553565b6000915050610553565b600081815260018301602052604081205461126b57508154600181810184556000848152602080822090930184905584548482528286019093526040902091909155610553565b506000610553565b80356001600160e01b03198116811461128b57600080fd5b919050565b6000602082840312156112a257600080fd5b610e4882611273565b600060208083528351808285015260005b818110156112d8578581018301518582016040015282016112bc565b506000604082860101526040601f19601f8301168501019250505092915050565b6001600160a01b03811681146110fe57600080fd5b60006020828403121561132057600080fd5b8135610e48816112f9565b634e487b7160e01b600052604160045260246000fd5b600082601f83011261135257600080fd5b813567ffffffffffffffff8082111561136d5761136d61132b565b604051601f8301601f19908116603f011681019082821181831017156113955761139561132b565b816040528381528660208588010111156113ae57600080fd5b836020870160208301376000602085830101528094505050505092915050565b6000602082840312156113e057600080fd5b813567ffffffffffffffff8111156113f757600080fd5b610e7d84828501611341565b60006020828403121561141557600080fd5b5035919050565b6000806040838503121561142f57600080fd5b823591506020830135611441816112f9565b809150509250929050565b60008060008060008060c0878903121561146557600080fd5b863567ffffffffffffffff8082111561147d57600080fd5b6114898a838b01611341565b9750602089013591508082111561149f57600080fd5b6114ab8a838b01611341565b965060408901359150808211156114c157600080fd5b506114ce89828a01611341565b94505060608701356114df816112f9565b925060808701356114ef816112f9565b915060a08701356114ff816112f9565b809150509295509295509295565b6000806040838503121561152057600080fd5b823567ffffffffffffffff8082111561153857600080fd5b61154486838701611341565b9350602085013591508082111561155a57600080fd5b5061156785828601611341565b9150509250929050565b6000806040838503121561158457600080fd5b61158d83611273565b9150602083013567ffffffffffffffff8111156115a957600080fd5b61156785828601611341565b600181811c908216806115c957607f821691505b6020821081036115e957634e487b7160e01b600052602260045260246000fd5b50919050565b60208082526036908201527f235065726d697373696f6e436865636b23436865636b2063616c6c657220646f60408201527532b9903737ba103430bb32903832b936b4b9b9b4b7b760511b606082015260800190565b60006020828403121561165757600080fd5b8151610e48816112f9565b60006020828403121561167457600080fd5b81518015158114610e4857600080fd5b601f821115610cea57600081815260208120601f850160051c810160208610156116ab5750805b601f850160051c820191505b818110156116ca578281556001016116b7565b505050505050565b815167ffffffffffffffff8111156116ec576116ec61132b565b611700816116fa84546115b5565b84611684565b602080601f831160018114611735576000841561171d5750858301515b600019600386901b1c1916600185901b1785556116ca565b600085815260208120601f198616915b8281101561176457888601518255948401946001909101908401611745565b50858210156117825787850151600019600388901b60f8161c191681555b5050505050600190811b01905550565b8181038181111561055357634e487b7160e01b600052601160045260246000fd5b634e487b7160e01b600052603260045260246000fd5b634e487b7160e01b600052603160045260246000fdfe7016719027ff29c13bc4816903851ea968172a86b766c733b954fdabe53c87eea264697066735822122084426c183d49d4fefcdea89e2ea28dee4167c5cdba3167d294ee0e30dadb5d1364736f6c63430008110033",
  "immutableReferences": {},
  "source": "// SPDX-License-Identifier: MIT\npragma solidity 0.8.17;\n\nimport './Module.sol';\nimport '../openzeppelin/contracts/utils/structs/EnumerableMap.sol';\n\ncontract DAO is IDAO, Module {\n\tusing EnumerableMap for EnumerableMap.UintToAddressMap;\n\n\taddress            private  _root;\n\tstring             private  _name;\n\tstring             private  _mission;\n\tEnumerableMap.UintToAddressMap private _modules;\n\tuint256[50]        private  __; // reserved storage space\n\n\tfunction root() view external override returns (address) { return _root; }\n\tfunction name() view external returns (string memory) { return _name; }\n\tfunction mission() view external returns (string memory) { return _mission; }\n\tfunction member() view external override returns (IMember) { return IMember(_modules.get(Module_MEMBER_ID)); }\n\tfunction ledger() view external override returns (ILedger) { return ILedger(_modules.get(Module_LEDGER_ID)); }\n\tfunction asset() view external override returns (IAsset) { return IAsset(_modules.get(Module_ASSET_ID)); }\n\n\tfunction module(uint256 id) view external returns (IModule) {\n\t\treturn IModule(_modules.contains(id) ? _modules.get(id): address(0));\n\t}\n\n\tfunction initDAO(\n\t\tstring memory name, string memory mission, string memory description,\n\t\taddress root, address operator, address member\n\t) external {\n\t\tinitModule(address(this), description, operator);\n\t\t_registerInterface(DAO_Type);\n\n\t\tERC165(root).checkInterface(VotePool_Type, \"#DAO#initDAO root type not match\");\n\t\tERC165(member).checkInterface(Member_Type, \"#DAO#initDAO member type not match\");\n\n\t\t_root = root;\n\t\t_name = name;\n\t\t_mission = mission;\n\n\t\t_modules.set(Module_MEMBER_ID, member);\n\t\t// emit SetModule(Module_MEMBER_ID, member);\n\t}\n\n\tfunction setMission(string memory value) external Check(Action_DAO_Settings) {\n\t\t_mission = value;\n\t\temit Change(Change_Tag_DAO_Mission, 0);\n\t}\n\n\tfunction setMissionAndDesc(string memory mission, string memory desc) external Check(Action_DAO_Settings) {\n\t\t_mission = mission;\n\t\t_description = desc;\n\t\temit Change(Change_Tag_Description, 0);\n\t\temit Change(Change_Tag_DAO_Mission, 0);\n\t}\n\n\tfunction setModule(uint256 id, address addr) external Check(Action_DAO_SetModule) {\n\t\trequire(id != Module_MEMBER_ID, \"#DAO#setModule Disable Updates members\");\n\t\tif (addr == address(0)) {\n\t\t\t_modules.remove(id);\n\t\t} else {\n\t\t\tERC165(addr).checkInterface(Module_Type, \"#DAO#setModule type not match\");\n\t\t\t_modules.set(id, addr);\n\t\t}\n\t\temit SetModule(id, addr);\n\t}\n\n}",
  "sourcePath": "/Users/louis/Project/hc/NFTSwap/SmartHolder/contracts/DAO.sol",
  "compiler": {
    "name": "solc",
    "version": "0.8.17+commit.8df45f5f.Emscripten.clang"
  },
  "schemaVersion": "3.4.11",
  "updatedAt": "2023-01-06T04:38:52.188Z",
  "devdoc": {
    "kind": "dev",
    "methods": {
      "supportsInterface(bytes4)": {
        "details": "See {IERC165-supportsInterface}. Time complexity O(1), guaranteed to always use less than 30 000 gas."
      }
    },
    "version": 1
  },
  "userdoc": {
    "kind": "user",
    "methods": {},
    "version": 1
  }
}