{
  "contractName": "DAO",
  "abi": [
    {
      "anonymous": false,
      "inputs": [
        {
          "indexed": false,
          "internalType": "string",
          "name": "tag",
          "type": "string"
        }
      ],
      "name": "Change",
      "type": "event"
    },
    {
      "inputs": [
        {
          "internalType": "bytes4",
          "name": "interfaceId",
          "type": "bytes4"
        },
        {
          "internalType": "string",
          "name": "message",
          "type": "string"
        }
      ],
      "name": "checkInterface",
      "outputs": [],
      "stateMutability": "view",
      "type": "function"
    },
    {
      "inputs": [],
      "name": "description",
      "outputs": [
        {
          "internalType": "string",
          "name": "",
          "type": "string"
        }
      ],
      "stateMutability": "view",
      "type": "function"
    },
    {
      "inputs": [],
      "name": "host",
      "outputs": [
        {
          "internalType": "contract IDAO",
          "name": "",
          "type": "address"
        }
      ],
      "stateMutability": "view",
      "type": "function"
    },
    {
      "inputs": [],
      "name": "impl",
      "outputs": [
        {
          "internalType": "address",
          "name": "",
          "type": "address"
        }
      ],
      "stateMutability": "view",
      "type": "function"
    },
    {
      "inputs": [],
      "name": "operator",
      "outputs": [
        {
          "internalType": "contract IVotePool",
          "name": "",
          "type": "address"
        }
      ],
      "stateMutability": "view",
      "type": "function"
    },
    {
      "inputs": [
        {
          "internalType": "address",
          "name": "vote",
          "type": "address"
        }
      ],
      "name": "setOperator",
      "outputs": [],
      "stateMutability": "nonpayable",
      "type": "function"
    },
    {
      "inputs": [
        {
          "internalType": "bytes4",
          "name": "interfaceId",
          "type": "bytes4"
        }
      ],
      "name": "supportsInterface",
      "outputs": [
        {
          "internalType": "bool",
          "name": "",
          "type": "bool"
        }
      ],
      "stateMutability": "view",
      "type": "function"
    },
    {
      "inputs": [
        {
          "internalType": "address",
          "name": "impl",
          "type": "address"
        }
      ],
      "name": "upgrade",
      "outputs": [],
      "stateMutability": "nonpayable",
      "type": "function"
    },
    {
      "inputs": [],
      "name": "name",
      "outputs": [
        {
          "internalType": "string",
          "name": "",
          "type": "string"
        }
      ],
      "stateMutability": "view",
      "type": "function"
    },
    {
      "inputs": [],
      "name": "mission",
      "outputs": [
        {
          "internalType": "string",
          "name": "",
          "type": "string"
        }
      ],
      "stateMutability": "view",
      "type": "function"
    },
    {
      "inputs": [],
      "name": "root",
      "outputs": [
        {
          "internalType": "contract IVotePool",
          "name": "",
          "type": "address"
        }
      ],
      "stateMutability": "view",
      "type": "function"
    },
    {
      "inputs": [],
      "name": "member",
      "outputs": [
        {
          "internalType": "contract IMember",
          "name": "",
          "type": "address"
        }
      ],
      "stateMutability": "view",
      "type": "function"
    },
    {
      "inputs": [],
      "name": "ledger",
      "outputs": [
        {
          "internalType": "contract ILedger",
          "name": "",
          "type": "address"
        }
      ],
      "stateMutability": "view",
      "type": "function"
    },
    {
      "inputs": [],
      "name": "openseaFirst",
      "outputs": [
        {
          "internalType": "contract IAssetShell",
          "name": "",
          "type": "address"
        }
      ],
      "stateMutability": "view",
      "type": "function"
    },
    {
      "inputs": [],
      "name": "openseaSecond",
      "outputs": [
        {
          "internalType": "contract IAssetShell",
          "name": "",
          "type": "address"
        }
      ],
      "stateMutability": "view",
      "type": "function"
    },
    {
      "inputs": [],
      "name": "asset",
      "outputs": [
        {
          "internalType": "contract IAsset",
          "name": "",
          "type": "address"
        }
      ],
      "stateMutability": "view",
      "type": "function"
    },
    {
      "inputs": [],
      "name": "initInterfaceID",
      "outputs": [],
      "stateMutability": "nonpayable",
      "type": "function"
    },
    {
      "inputs": [
        {
          "internalType": "string",
          "name": "name",
          "type": "string"
        },
        {
          "internalType": "string",
          "name": "mission",
          "type": "string"
        },
        {
          "internalType": "string",
          "name": "description",
          "type": "string"
        },
        {
          "internalType": "address",
          "name": "operator",
          "type": "address"
        },
        {
          "internalType": "address",
          "name": "root",
          "type": "address"
        },
        {
          "internalType": "address",
          "name": "member",
          "type": "address"
        },
        {
          "internalType": "address",
          "name": "ledger",
          "type": "address"
        },
        {
          "internalType": "address",
          "name": "openseaFirst",
          "type": "address"
        },
        {
          "internalType": "address",
          "name": "openseaSecond",
          "type": "address"
        },
        {
          "internalType": "address",
          "name": "asset",
          "type": "address"
        }
      ],
      "name": "initDAO",
      "outputs": [],
      "stateMutability": "nonpayable",
      "type": "function"
    },
    {
      "inputs": [
        {
          "internalType": "string",
          "name": "mission",
          "type": "string"
        },
        {
          "internalType": "string",
          "name": "description",
          "type": "string"
        }
      ],
      "name": "setMissionAndDesc",
      "outputs": [],
      "stateMutability": "nonpayable",
      "type": "function"
    },
    {
      "inputs": [
        {
          "internalType": "address",
          "name": "addr",
          "type": "address"
        }
      ],
      "name": "setLedger",
      "outputs": [],
      "stateMutability": "nonpayable",
      "type": "function"
    },
    {
      "inputs": [
        {
          "internalType": "address",
          "name": "addr",
          "type": "address"
        }
      ],
      "name": "setOpenseaFirst",
      "outputs": [],
      "stateMutability": "nonpayable",
      "type": "function"
    },
    {
      "inputs": [
        {
          "internalType": "address",
          "name": "addr",
          "type": "address"
        }
      ],
      "name": "setOpenseaSecond",
      "outputs": [],
      "stateMutability": "nonpayable",
      "type": "function"
    },
    {
      "inputs": [
        {
          "internalType": "address",
          "name": "addr",
          "type": "address"
        }
      ],
      "name": "setAsset",
      "outputs": [],
      "stateMutability": "nonpayable",
      "type": "function"
    },
    {
      "inputs": [
        {
          "internalType": "address",
          "name": "addr",
          "type": "address"
        }
      ],
      "name": "setMember",
      "outputs": [],
      "stateMutability": "nonpayable",
      "type": "function"
    },
    {
      "inputs": [
        {
          "internalType": "address",
          "name": "addr",
          "type": "address"
        },
        {
          "internalType": "bool",
          "name": "isDel",
          "type": "bool"
        }
      ],
      "name": "setDepartments",
      "outputs": [],
      "stateMutability": "nonpayable",
      "type": "function"
    }
  ],
  "bytecode": "0x608060405234801561001057600080fd5b50611ffe806100206000396000f3fe608060405234801561001057600080fd5b50600436106101735760003560e01c80637e76176f116100de578063c15a5eb011610097578063d0d552dd11610071578063d0d552dd1461076d578063e3f6b54414610793578063ebf0c7171461079b578063f437bc59146107a357610173565b8063c15a5eb01461068a578063c64df69d14610692578063cba11b641461074757610173565b80637e76176f146104df5780638125ef3e146104e75780638abf60771461050d578063923e51d514610515578063b3ab15fb1461053b578063b4f101361461056157610173565b8063369dc27d11610130578063369dc27d1461046d57806338d52e0f1461047557806356397c3514610499578063570ca735146104a15780637284e416146104a957806372acc196146104b157610173565b806301ffc9a71461017857806306fdde03146101b35780630900f0101461023057806317701ee6146102585780633246887d1461026057806333d0d83914610286575b600080fd5b61019f6004803603602081101561018e57600080fd5b50356001600160e01b0319166107ab565b604080519115158252519081900360200190f35b6101bb6107ca565b6040805160208082528351818301528351919283929083019185019080838360005b838110156101f55781810151838201526020016101dd565b50505050905090810190601f1680156102225780820380516001836020036101000a031916815260200191505b509250505060405180910390f35b6102566004803603602081101561024657600080fd5b50356001600160a01b0316610861565b005b6101bb6108c6565b6102566004803603602081101561027657600080fd5b50356001600160a01b0316610927565b610256600480360361014081101561029d57600080fd5b810190602081018135600160201b8111156102b757600080fd5b8201836020820111156102c957600080fd5b803590602001918460018302840111600160201b831117156102ea57600080fd5b91908080601f0160208091040260200160405190810160405280939291908181526020018383808284376000920191909152509295949360208101935035915050600160201b81111561033c57600080fd5b82018360208201111561034e57600080fd5b803590602001918460018302840111600160201b8311171561036f57600080fd5b91908080601f0160208091040260200160405190810160405280939291908181526020018383808284376000920191909152509295949360208101935035915050600160201b8111156103c157600080fd5b8201836020820111156103d357600080fd5b803590602001918460018302840111600160201b831117156103f457600080fd5b91908080601f016020809104026020016040519081016040528093929190818152602001838380828437600092019190915250929550506001600160a01b038335811694506020840135811693604081013582169350606081013582169250608081013582169160a082013581169160c0013516610a59565b610256610e76565b61047d610eea565b604080516001600160a01b039092168252519081900360200190f35b61047d610ef9565b61047d610f08565b6101bb610f17565b610256600480360360408110156104c757600080fd5b506001600160a01b0381351690602001351515610f78565b61047d6110bf565b610256600480360360208110156104fd57600080fd5b50356001600160a01b03166110ce565b61047d6111ef565b6102566004803603602081101561052b57600080fd5b50356001600160a01b03166111fe565b6102566004803603602081101561055157600080fd5b50356001600160a01b0316611330565b6102566004803603604081101561057757600080fd5b810190602081018135600160201b81111561059157600080fd5b8201836020820111156105a357600080fd5b803590602001918460018302840111600160201b831117156105c457600080fd5b91908080601f0160208091040260200160405190810160405280939291908181526020018383808284376000920191909152509295949360208101935035915050600160201b81111561061657600080fd5b82018360208201111561062857600080fd5b803590602001918460018302840111600160201b8311171561064957600080fd5b91908080601f01602080910402602001604051908101604052809392919081815260200183838082843760009201919091525092955061137f945050505050565b61047d61142d565b610256600480360360408110156106a857600080fd5b6001600160e01b03198235169190810190604081016020820135600160201b8111156106d357600080fd5b8201836020820111156106e557600080fd5b803590602001918460018302840111600160201b8311171561070657600080fd5b91908080601f01602080910402602001604051908101604052809392919081815260200183838082843760009201919091525092955061143c945050505050565b6102566004803603602081101561075d57600080fd5b50356001600160a01b03166114d4565b6102566004803603602081101561078357600080fd5b50356001600160a01b03166115f5565b61047d611726565b61047d611735565b61047d611744565b6001600160e01b03191660009081526001602052604090205460ff1690565b60058054604080516020601f60026000196101006001881615020190951694909404938401819004810282018101909252828152606093909290918301828280156108565780601f1061082b57610100808354040283529160200191610856565b820191906000526020600020905b81548152906001019060200180831161083957829003601f168201915b505050505090505b90565b610869611753565b6108a45760405162461bcd60e51b8152600401808060200182810382526033815260200180611dbf6033913960400191505060405180910390fd5b600080546001600160a01b0319166001600160a01b0392909216919091179055565b60068054604080516020601f60026000196101006001881615020190951694909404938401819004810282018101909252828152606093909290918301828280156108565780601f1061082b57610100808354040283529160200191610856565b61092f611753565b61096a5760405162461bcd60e51b8152600401808060200182810382526033815260200180611dbf6033913960400191505060405180910390fd5b6040805163c64df69d60e01b815263f4c38e5160e01b600482015260248101829052601d60448201527f2344414f237365744c65646765722074797065206e6f74206d61746368000000606482015290516001600160a01b0383169163c64df69d916084808301926000929190829003018186803b1580156109eb57600080fd5b505afa1580156109ff573d6000803e3d6000fd5b5050600980546001600160a01b0319166001600160a01b0385161790555050604080516020808252600690820152652632b233b2b960d11b818301529051600080516020611fa9833981519152916060908290030190a150565b610a6430898961188d565b6040805163c64df69d60e01b8152630ddf27bf60e01b600482015260248101829052602060448201527f2344414f23696e697444414f20726f6f742074797065206e6f74206d61746368606482015290516001600160a01b0388169163c64df69d916084808301926000929190829003018186803b158015610ae557600080fd5b505afa158015610af9573d6000803e3d6000fd5b50505050846001600160a01b031663c64df69d6323fc76b960e01b6040518263ffffffff1660e01b815260040180826001600160e01b03191681526020018060200182810382526022815260200180611f65602291396040019250505060006040518083038186803b158015610b6e57600080fd5b505afa158015610b82573d6000803e3d6000fd5b50505050836001600160a01b031663c64df69d63f4c38e5160e01b6040518263ffffffff1660e01b815260040180826001600160e01b03191681526020018060200182810382526022815260200180611f87602291396040019250505060006040518083038186803b158015610bf757600080fd5b505afa158015610c0b573d6000803e3d6000fd5b50505050826001600160a01b031663c64df69d6343234e9560e01b6040518263ffffffff1660e01b815260040180826001600160e01b03191681526020018060200182810382526028815260200180611e8d602891396040019250505060006040518083038186803b158015610c8057600080fd5b505afa158015610c94573d6000803e3d6000fd5b50505050816001600160a01b031663c64df69d6343234e9560e01b6040518263ffffffff1660e01b815260040180826001600160e01b03191681526020018060200182810382526029815260200180611f3c602991396040019250505060006040518083038186803b158015610d0957600080fd5b505afa158015610d1d573d6000803e3d6000fd5b50505050806001600160a01b031663c64df69d6368ca456f60e01b6040518263ffffffff1660e01b815260040180826001600160e01b03191681526020018060200182810382526021815260200180611eb5602191396040019250505060006040518083038186803b158015610d9257600080fd5b505afa158015610da6573d6000803e3d6000fd5b50508b51610dbd92506005915060208d0190611d2b565b508851610dd19060069060208c0190611d2b565b50600780546001600160a01b03199081166001600160a01b0389811691909117909255600880548216888416179055600980548216878416179055600a80548216868416179055600b80548216858416179055600c805490911691831691909117905560408051602080825260049082015263125b9a5d60e21b818301529051600080516020611fa9833981519152916060908290030190a150505050505050505050565b610e866363daa99b60e11b6107ab565b15610ed8576040805162461bcd60e51b815260206004820152601760248201527f43616e206f6e6c792062652063616c6c6564206f6e6365000000000000000000604482015290519081900360640190fd5b610ee86363daa99b60e11b61195f565b565b600c546001600160a01b031690565b6009546001600160a01b031690565b6002546001600160a01b031690565b60048054604080516020601f60026000196101006001881615020190951694909404938401819004810282018101909252828152606093909290918301828280156108565780601f1061082b57610100808354040283529160200191610856565b610f80611753565b610fbb5760405162461bcd60e51b8152600401808060200182810382526033815260200180611dbf6033913960400191505060405180910390fd5b6040805163c64df69d60e01b81526336c6362d60e01b60048201818152602483019384526022604484018190526001600160a01b0387169463c64df69d949091606490910190611e4882396040019250505060006040518083038186803b15801561102557600080fd5b505afa158015611039573d6000803e3d6000fd5b5050505061105182600e6119e690919063ffffffff16565b1561106e57801561106957611067600e83611a04565b505b611080565b806110805761107e600e83611a19565b505b604080516020808252600a908201526911195c185c9d1b595b9d60b21b818301529051600080516020611fa98339815191529181900360600190a15050565b600b546001600160a01b031690565b6110d6611753565b6111115760405162461bcd60e51b8152600401808060200182810382526033815260200180611dbf6033913960400191505060405180910390fd5b6040805163c64df69d60e01b81526343234e9560e01b60048201818152602483019384526023604484018190526001600160a01b0386169463c64df69d949091606490910190611e6a82396040019250505060006040518083038186803b15801561117b57600080fd5b505afa15801561118f573d6000803e3d6000fd5b5050600a80546001600160a01b0319166001600160a01b0385161790555050604080516020808252600c908201526b13dc195b9cd958519a5c9cdd60a21b818301529051600080516020611fa9833981519152916060908290030190a150565b6000546001600160a01b031690565b611206611753565b6112415760405162461bcd60e51b8152600401808060200182810382526033815260200180611dbf6033913960400191505060405180910390fd5b6040805163c64df69d60e01b81526323fc76b960e01b600482015260248101829052601c60448201527f2344414f2373657441737365742074797065206e6f74206d6174636800000000606482015290516001600160a01b0383169163c64df69d916084808301926000929190829003018186803b1580156112c257600080fd5b505afa1580156112d6573d6000803e3d6000fd5b5050600880546001600160a01b0319166001600160a01b03851617905550506040805160208082526006908201526526b2b6b132b960d11b818301529051600080516020611fa9833981519152916060908290030190a150565b611338611753565b6113735760405162461bcd60e51b8152600401808060200182810382526033815260200180611dbf6033913960400191505060405180910390fd5b61137c81611a2e565b50565b611387611753565b6113c25760405162461bcd60e51b8152600401808060200182810382526033815260200180611dbf6033913960400191505060405180910390fd5b80516113d5906004906020840190611d2b565b5081516113e9906006906020850190611d2b565b50604080516020808252600e908201526d4d697373696f6e416e644465736360901b818301529051600080516020611fa98339815191529181900360600190a15050565b600a546001600160a01b031690565b611445826107ab565b81906114cf5760405162461bcd60e51b81526004018080602001828103825283818151815260200191508051906020019080838360005b8381101561149457818101518382015260200161147c565b50505050905090810190601f1680156114c15780820380516001836020036101000a031916815260200191505b509250505060405180910390fd5b505050565b6114dc611753565b6115175760405162461bcd60e51b8152600401808060200182810382526033815260200180611dbf6033913960400191505060405180910390fd5b6040805163c64df69d60e01b81526343234e9560e01b600482018181526024808401948552604484018190526001600160a01b0386169463c64df69d949091606490910190611df282396040019250505060006040518083038186803b15801561158057600080fd5b505afa158015611594573d6000803e3d6000fd5b5050600b80546001600160a01b0319166001600160a01b0385161790555050604080516020808252600d908201526c13dc195b9cd95854d958dbdb99609a1b818301529051600080516020611fa9833981519152916060908290030190a150565b6115fd611753565b6116385760405162461bcd60e51b8152600401808060200182810382526033815260200180611dbf6033913960400191505060405180910390fd5b6040805163c64df69d60e01b81526368ca456f60e01b600482015260248101829052601c60448201527f2344414f2373657441737365742074797065206e6f74206d6174636800000000606482015290516001600160a01b0383169163c64df69d916084808301926000929190829003018186803b1580156116b957600080fd5b505afa1580156116cd573d6000803e3d6000fd5b5050600c80546001600160a01b0319166001600160a01b038516179055505060408051602080825260059082015264105cdcd95d60da1b818301529051600080516020611fa9833981519152916060908290030190a150565b6008546001600160a01b031690565b6007546001600160a01b031690565b6003546001600160a01b031690565b60025460009033906001600160a01b0316811461188557600360009054906101000a90046001600160a01b03166001600160a01b031663570ca7356040518163ffffffff1660e01b815260040160206040518083038186803b1580156117b857600080fd5b505afa1580156117cc573d6000803e3d6000fd5b505050506040513d60208110156117e257600080fd5b50516001600160a01b0382811691161461188557600360009054906101000a90046001600160a01b03166001600160a01b031663ebf0c7176040518163ffffffff1660e01b815260040160206040518083038186803b15801561184457600080fd5b505afa158015611858573d6000803e3d6000fd5b505050506040513d602081101561186e57600080fd5b50516001600160a01b03918216911614905061085e565b600191505090565b611895611af9565b6118a56336c6362d60e01b61195f565b6040805163c64df69d60e01b81526363daa99b60e11b60048201818152602483019384526032604484018190526001600160a01b0388169463c64df69d949091606490910190611e1682396040019250505060006040518083038186803b15801561190f57600080fd5b505afa158015611923573d6000803e3d6000fd5b5050600380546001600160a01b0319166001600160a01b03871617905550508151611955906004906020850190611d2b565b506114cf81611a2e565b6001600160e01b031980821614156119be576040805162461bcd60e51b815260206004820152601c60248201527f4552433136353a20696e76616c696420696e7465726661636520696400000000604482015290519081900360640190fd5b6001600160e01b0319166000908152600160208190526040909120805460ff19169091179055565b60006119fb836001600160a01b038416611bc1565b90505b92915050565b60006119fb836001600160a01b038416611bd9565b60006119fb836001600160a01b038416611c9f565b6001600160a01b03811615611ad757611a4f816001600160a01b0316611ce9565b15611ad7576040805163c64df69d60e01b8152630ddf27bf60e01b60048201818152602483019384526038604484018190526001600160a01b0386169463c64df69d949091606490910190611ed682396040019250505060006040518083038186803b158015611abe57600080fd5b505afa158015611ad2573d6000803e3d6000fd5b505050505b600280546001600160a01b0319166001600160a01b0392909216919091179055565b600054600160a81b900460ff1680611b145750611b14611d25565b80611b295750600054600160a01b900460ff16155b611b645760405162461bcd60e51b815260040180806020018281038252602e815260200180611f0e602e913960400191505060405180910390fd5b600054600160a81b900460ff16158015611b9b576000805460ff60a01b1960ff60a81b19909116600160a81b1716600160a01b1790555b611bab6301ffc9a760e01b61195f565b801561137c576000805460ff60a81b1916905550565b60009081526001919091016020526040902054151590565b60008181526001830160205260408120548015611c955783546000198083019190810190600090879083908110611c0c57fe5b9060005260206000200154905080876000018481548110611c2957fe5b600091825260208083209091019290925582815260018981019092526040902090840190558654879080611c5957fe5b600190038181906000526020600020016000905590558660010160008781526020019081526020016000206000905560019450505050506119fe565b60009150506119fe565b6000611cab8383611bc1565b611ce1575081546001818101845560008481526020808220909301849055845484825282860190935260409020919091556119fe565b5060006119fe565b6000813f7fc5d2460186f7233c927e7db2dcc703c0e500b653ca82273b7bfad8045d85a470818114801590611d1d57508115155b949350505050565b303b1590565b828054600181600116156101000203166002900490600052602060002090601f016020900481019282601f10611d6c57805160ff1916838001178555611d99565b82800160010185558215611d99579182015b82811115611d99578251825591602001919060010190611d7e565b50611da5929150611da9565b5090565b5b80821115611da55760008155600101611daa56fe234465706172746d656e74234f6e6c7944414f2063616c6c657220646f6573206e6f742068617665207065726d697373696f6e2344414f237365744f70656e7365615365636f6e642074797065206e6f74206d61746368234465706172746d656e7423696e69744465706172746d656e742064616f20686f73742074797065206e6f74206d617463682344414f237365744465706172746d656e74732074797065206e6f74206d617463682344414f237365744f70656e73656146697273742074797065206e6f74206d617463682344414f23696e697444414f206f70656e73656146697273742074797065206e6f74206d617463682344414f23696e697444414f2061737365742074797065206e6f74206d61746368234465706172746d656e74237365744f70657261746f725f696e7465726e616c206f70657261746f722074797065206e6f74206d61746368436f6e747261637420696e7374616e63652068617320616c7265616479206265656e20696e697469616c697a65642344414f23696e697444414f206f70656e7365615365636f6e642074797065206e6f74206d617463682344414f23696e697444414f206d656d6265722074797065206e6f74206d617463682344414f23696e697444414f206c65646765722074797065206e6f74206d617463686545debb088bd81af091fb3bbd8a005c9f7a28af228177ba1b794fbffd33fe47a26469706673582212200205ab73b8e0eab355d0995ac13bd58f6bec42a3efec99685694cdbcccd33ef464736f6c634300060c0033",
  "immutableReferences": {},
  "source": "\npragma solidity >=0.6.0 <=0.8.15;\n\nimport \"./Department.sol\";\nimport \"../openzeppelin/contracts-ethereum-package/contracts/utils/EnumerableSet.sol\";\n\ncontract DAO is IDAO, Department {\n\tusing EnumerableSet for EnumerableSet.AddressSet;\n\n\tstring internal _name;\n\tstring internal _mission;\n\tIVotePool private _root;\n\tIMember private _member;\n\tILedger private _ledger;\n\tIAssetShell private _openseaFirst;\n\tIAssetShell private _openseaSecond;\n\tIAsset private _asset;\n\taddress private __exchange;\n\tEnumerableSet.AddressSet private _departments;\n\tuint256[50] private __gap;\n\n\tfunction name() view external returns (string memory) { return _name; }\n\tfunction mission() view external returns (string memory) { return _mission; }\n\tfunction root() view external override returns (IVotePool) { return _root; }\n\tfunction member() view external override returns (IMember) { return _member; }\n\tfunction ledger() view external override returns (ILedger) { return _ledger; }\n\tfunction openseaFirst() view external override returns (IAssetShell) { return _openseaFirst; }\n\tfunction openseaSecond() view external override returns (IAssetShell) { return _openseaSecond; }\n\tfunction asset() view external override returns (IAsset) { return _asset; }\n\n\tfunction initInterfaceID() external {\n\t\trequire(!supportsInterface(DAO_ID), \"Can only be called once\");\n\t\t_registerInterface(DAO_ID);\n\t}\n\n\tfunction initDAO(\n\t\tstring memory name,\n\t\tstring memory mission,\n\t\tstring memory description,\n\t\taddress operator, address root,\n\t\taddress member, address ledger,\n\t\taddress openseaFirst, address openseaSecond, address asset\n\t) external {\n\t\tinitDepartment(address(this), description, operator);\n\n\t\tERC165(root).checkInterface(VotePool_ID, \"#DAO#initDAO root type not match\");\n\t\tERC165(member).checkInterface(Member_ID, \"#DAO#initDAO member type not match\");\n\t\tERC165(ledger).checkInterface(Ledger_ID, \"#DAO#initDAO ledger type not match\");\n\t\tERC165(openseaFirst).checkInterface(AssetShell_ID, \"#DAO#initDAO openseaFirst type not match\");\n\t\tERC165(openseaSecond).checkInterface(AssetShell_ID, \"#DAO#initDAO openseaSecond type not match\");\n\t\tERC165(asset).checkInterface(Asset_ID, \"#DAO#initDAO asset type not match\");\n\n\t\t_name = name;\n\t\t_mission = mission;\n\t\t_root = IVotePool(root);\n\t\t_member = IMember(member);\n\t\t_ledger = ILedger(ledger);\n\t\t_openseaFirst = IAssetShell(openseaFirst);\n\t\t_openseaSecond = IAssetShell(openseaSecond);\n\t\t_asset = IAsset(asset);\n\n\t\temit Change(\"Init\");\n\t}\n\n\tfunction setMissionAndDesc(string memory mission, string memory description) external OnlyDAO {\n\t\t_description = description;\n\t\t_mission = mission;\n\t\temit Change(\"MissionAndDesc\");\n\t}\n\n\tfunction setLedger(address addr) external OnlyDAO {\n\t\tERC165(addr).checkInterface(Ledger_ID, \"#DAO#setLedger type not match\");\n\t\t_ledger = ILedger(addr);\n\t\temit Change(\"Ledger\");\n\t}\n\n\tfunction setOpenseaFirst(address addr) external OnlyDAO {\n\t\tERC165(addr).checkInterface(AssetShell_ID, \"#DAO#setOpenseaFirst type not match\");\n\t\t_openseaFirst = IAssetShell(addr);\n\t\temit Change(\"OpenseaFirst\");\n\t}\n\n\tfunction setOpenseaSecond(address addr) external OnlyDAO {\n\t\tERC165(addr).checkInterface(AssetShell_ID, \"#DAO#setOpenseaSecond type not match\");\n\t\t_openseaSecond = IAssetShell(addr);\n\t\temit Change(\"OpenseaSecond\");\n\t}\n\n\tfunction setAsset(address addr) external OnlyDAO {\n\t\tERC165(addr).checkInterface(Asset_ID, \"#DAO#setAsset type not match\");\n\t\t_asset = IAsset(addr);\n\t\temit Change(\"Asset\");\n\t}\n\n\tfunction setMember(address addr) external OnlyDAO {\n\t\tERC165(addr).checkInterface(Member_ID, \"#DAO#setAsset type not match\");\n\t\t_member = IMember(addr);\n\t\temit Change(\"Member\");\n\t}\n\n\tfunction setDepartments(address addr, bool isDel) external OnlyDAO {\n\t\tERC165(addr).checkInterface(Department_ID, \"#DAO#setDepartments type not match\");\n\n\t\tif (_departments.contains(addr)) {\n\t\t\tif (isDel) _departments.remove(addr);\n\t\t} else {\n\t\t\tif (!isDel) _departments.add(addr);\n\t\t}\n\t\temit Change(\"Department\");\n\t}\n\n}",
  "sourcePath": "/Users/louis/Project/hc/NFTSwap/SmartHolder/contracts/DAO.sol",
  "compiler": {
    "name": "solc",
    "version": "0.6.12+commit.27d51765.Emscripten.clang"
  },
  "schemaVersion": "3.4.8",
  "updatedAt": "2022-09-29T06:33:42.034Z",
  "devdoc": {
    "kind": "dev",
    "methods": {
      "supportsInterface(bytes4)": {
        "details": "See {IERC165-supportsInterface}. Time complexity O(1), guaranteed to always use less than 30 000 gas."
      }
    },
    "version": 1
  },
  "userdoc": {
    "kind": "user",
    "methods": {},
    "version": 1
  }
}