{
  "contractName": "DAO",
  "abi": [
    {
      "inputs": [
        {
          "internalType": "bytes4",
          "name": "interfaceId",
          "type": "bytes4"
        }
      ],
      "name": "CheckInterfaceNoMatch",
      "type": "error"
    },
    {
      "inputs": [],
      "name": "PermissionDenied",
      "type": "error"
    },
    {
      "inputs": [],
      "name": "PermissionDeniedForOnlyDAO",
      "type": "error"
    },
    {
      "anonymous": false,
      "inputs": [
        {
          "indexed": true,
          "internalType": "uint256",
          "name": "tag",
          "type": "uint256"
        },
        {
          "indexed": false,
          "internalType": "uint256",
          "name": "value",
          "type": "uint256"
        }
      ],
      "name": "Change",
      "type": "event"
    },
    {
      "anonymous": false,
      "inputs": [
        {
          "indexed": false,
          "internalType": "uint8",
          "name": "version",
          "type": "uint8"
        }
      ],
      "name": "Initialized",
      "type": "event"
    },
    {
      "anonymous": false,
      "inputs": [
        {
          "indexed": true,
          "internalType": "uint256",
          "name": "id",
          "type": "uint256"
        },
        {
          "indexed": false,
          "internalType": "address",
          "name": "addr",
          "type": "address"
        }
      ],
      "name": "SetModule",
      "type": "event"
    },
    {
      "inputs": [
        {
          "internalType": "bytes4",
          "name": "interfaceId",
          "type": "bytes4"
        }
      ],
      "name": "checkInterface",
      "outputs": [],
      "stateMutability": "view",
      "type": "function",
      "constant": true
    },
    {
      "inputs": [],
      "name": "description",
      "outputs": [
        {
          "internalType": "string",
          "name": "",
          "type": "string"
        }
      ],
      "stateMutability": "view",
      "type": "function",
      "constant": true
    },
    {
      "inputs": [],
      "name": "extend",
      "outputs": [
        {
          "internalType": "bytes",
          "name": "",
          "type": "bytes"
        }
      ],
      "stateMutability": "view",
      "type": "function",
      "constant": true
    },
    {
      "inputs": [],
      "name": "host",
      "outputs": [
        {
          "internalType": "contract IDAO",
          "name": "",
          "type": "address"
        }
      ],
      "stateMutability": "view",
      "type": "function",
      "constant": true
    },
    {
      "inputs": [],
      "name": "image",
      "outputs": [
        {
          "internalType": "string",
          "name": "",
          "type": "string"
        }
      ],
      "stateMutability": "view",
      "type": "function",
      "constant": true
    },
    {
      "inputs": [],
      "name": "impl",
      "outputs": [
        {
          "internalType": "address",
          "name": "",
          "type": "address"
        }
      ],
      "stateMutability": "view",
      "type": "function",
      "constant": true
    },
    {
      "inputs": [],
      "name": "operator",
      "outputs": [
        {
          "internalType": "address",
          "name": "",
          "type": "address"
        }
      ],
      "stateMutability": "view",
      "type": "function",
      "constant": true
    },
    {
      "inputs": [
        {
          "internalType": "string",
          "name": "value",
          "type": "string"
        }
      ],
      "name": "setDescription",
      "outputs": [],
      "stateMutability": "nonpayable",
      "type": "function"
    },
    {
      "inputs": [
        {
          "internalType": "address",
          "name": "operator",
          "type": "address"
        }
      ],
      "name": "setOperator",
      "outputs": [],
      "stateMutability": "nonpayable",
      "type": "function"
    },
    {
      "inputs": [
        {
          "internalType": "bytes4",
          "name": "interfaceId",
          "type": "bytes4"
        }
      ],
      "name": "supportsInterface",
      "outputs": [
        {
          "internalType": "bool",
          "name": "",
          "type": "bool"
        }
      ],
      "stateMutability": "view",
      "type": "function",
      "constant": true
    },
    {
      "inputs": [
        {
          "internalType": "address",
          "name": "impl",
          "type": "address"
        }
      ],
      "name": "upgrade",
      "outputs": [],
      "stateMutability": "nonpayable",
      "type": "function"
    },
    {
      "inputs": [],
      "name": "root",
      "outputs": [
        {
          "internalType": "address",
          "name": "",
          "type": "address"
        }
      ],
      "stateMutability": "view",
      "type": "function",
      "constant": true
    },
    {
      "inputs": [],
      "name": "name",
      "outputs": [
        {
          "internalType": "string",
          "name": "",
          "type": "string"
        }
      ],
      "stateMutability": "view",
      "type": "function",
      "constant": true
    },
    {
      "inputs": [],
      "name": "mission",
      "outputs": [
        {
          "internalType": "string",
          "name": "",
          "type": "string"
        }
      ],
      "stateMutability": "view",
      "type": "function",
      "constant": true
    },
    {
      "inputs": [],
      "name": "member",
      "outputs": [
        {
          "internalType": "contract IMember",
          "name": "",
          "type": "address"
        }
      ],
      "stateMutability": "view",
      "type": "function",
      "constant": true
    },
    {
      "inputs": [],
      "name": "ledger",
      "outputs": [
        {
          "internalType": "contract ILedger",
          "name": "",
          "type": "address"
        }
      ],
      "stateMutability": "view",
      "type": "function",
      "constant": true
    },
    {
      "inputs": [],
      "name": "asset",
      "outputs": [
        {
          "internalType": "contract IAsset",
          "name": "",
          "type": "address"
        }
      ],
      "stateMutability": "view",
      "type": "function",
      "constant": true
    },
    {
      "inputs": [
        {
          "internalType": "uint256",
          "name": "id",
          "type": "uint256"
        }
      ],
      "name": "module",
      "outputs": [
        {
          "internalType": "contract IModule",
          "name": "",
          "type": "address"
        }
      ],
      "stateMutability": "view",
      "type": "function",
      "constant": true
    },
    {
      "inputs": [
        {
          "internalType": "string",
          "name": "name",
          "type": "string"
        },
        {
          "internalType": "string",
          "name": "mission",
          "type": "string"
        },
        {
          "internalType": "string",
          "name": "description",
          "type": "string"
        },
        {
          "internalType": "address",
          "name": "root",
          "type": "address"
        },
        {
          "internalType": "address",
          "name": "operator",
          "type": "address"
        },
        {
          "internalType": "address",
          "name": "member",
          "type": "address"
        }
      ],
      "name": "initDAO",
      "outputs": [],
      "stateMutability": "nonpayable",
      "type": "function"
    },
    {
      "inputs": [
        {
          "internalType": "bytes",
          "name": "data",
          "type": "bytes"
        }
      ],
      "name": "setExtend",
      "outputs": [],
      "stateMutability": "nonpayable",
      "type": "function"
    },
    {
      "inputs": [
        {
          "internalType": "string",
          "name": "value",
          "type": "string"
        }
      ],
      "name": "setImage",
      "outputs": [],
      "stateMutability": "nonpayable",
      "type": "function"
    },
    {
      "inputs": [
        {
          "internalType": "string",
          "name": "value",
          "type": "string"
        }
      ],
      "name": "setMission",
      "outputs": [],
      "stateMutability": "nonpayable",
      "type": "function"
    },
    {
      "inputs": [
        {
          "internalType": "string",
          "name": "mission",
          "type": "string"
        },
        {
          "internalType": "string",
          "name": "desc",
          "type": "string"
        }
      ],
      "name": "setMissionAndDesc",
      "outputs": [],
      "stateMutability": "nonpayable",
      "type": "function"
    },
    {
      "inputs": [
        {
          "components": [
            {
              "internalType": "string",
              "name": "mission",
              "type": "string"
            },
            {
              "internalType": "string",
              "name": "description",
              "type": "string"
            },
            {
              "internalType": "string",
              "name": "image",
              "type": "string"
            },
            {
              "internalType": "bytes",
              "name": "extend",
              "type": "bytes"
            }
          ],
          "internalType": "struct DAO.BasicInformation",
          "name": "basic",
          "type": "tuple"
        }
      ],
      "name": "setBasicInformation",
      "outputs": [],
      "stateMutability": "nonpayable",
      "type": "function"
    },
    {
      "inputs": [
        {
          "internalType": "uint256",
          "name": "id",
          "type": "uint256"
        },
        {
          "internalType": "address",
          "name": "addr",
          "type": "address"
        }
      ],
      "name": "setModule",
      "outputs": [],
      "stateMutability": "nonpayable",
      "type": "function"
    }
  ],
  "bytecode": "0x608060405234801561001057600080fd5b50611fab806100206000396000f3fe608060405234801561001057600080fd5b50600436106101735760003560e01c806371adb5e6116100de578063b4f1013611610097578063e3f6b54411610071578063e3f6b54414610317578063ebf0c7171461031f578063f3ccaac014610330578063f437bc591461033857600080fd5b8063b4f10136146102de578063bde4d603146102f1578063d1da88401461030457600080fd5b806371adb5e6146102795780637284e4161461028c5780638abf6077146102945780638ad15960146102a557806390c3f38f146102b8578063b3ab15fb146102cb57600080fd5b806338d52e0f1161013057806338d52e0f14610207578063430f75da146102275780634c6e425b1461023a57806356397c351461024d578063570ca735146102555780635d2916301461026657600080fd5b806301ffc9a71461017857806306fdde03146101ba5780630900f010146101cf578063172a27b3146101e457806317701ee6146101ec5780632e422cb8146101f4575b600080fd5b6101a56101863660046118af565b6001600160e01b03191660009081526001602052604090205460ff1690565b60405190151581526020015b60405180910390f35b6101c2610349565b6040516101b1919061191f565b6101e26101dd366004611947565b6103db565b005b6101c2610446565b6101c26104d4565b6101e26102023660046119ad565b6104e3565b61020f610636565b6040516001600160a01b0390911681526020016101b1565b61020f6102353660046119ef565b610649565b6101e26102483660046118af565b610672565b61020f6106c0565b6003546001600160a01b031661020f565b6101e2610274366004611a08565b6106ce565b6101e26102873660046119ad565b61090c565b6101c2610a52565b6000546001600160a01b031661020f565b6101e26102b3366004611a38565b610a61565b6101e26102c6366004611b20565b610bc0565b6101e26102d9366004611947565b610d11565b6101e26102ec366004611bd1565b610d75565b6101e26102ff3660046119ad565b610f02565b6101e2610312366004611c3d565b611048565b61020f6112cb565b600d546001600160a01b031661020f565b6101c26112d9565b6002546001600160a01b031661020f565b6060600e805461035890611c78565b80601f016020809104026020016040519081016040528092919081815260200182805461038490611c78565b80156103d15780601f106103a6576101008083540402835291602001916103d1565b820191906000526020600020905b8154815290600101906020018083116103b457829003601f168201915b5050505050905090565b6103e36112e6565b61040057604051631b4004a360e31b815260040160405180910390fd5b600080546001600160a01b0319166001600160a01b038316908117909155604051908152600390600080516020611f56833981519152906020015b60405180910390a250565b6014805461045390611c78565b80601f016020809104026020016040519081016040528092919081815260200182805461047f90611c78565b80156104cc5780601f106104a1576101008083540402835291602001916104cc565b820191906000526020600020905b8154815290600101906020018083116104af57829003601f168201915b505050505081565b6060600f805461035890611c78565b63d0a4ad966104f06112e6565b6105f957600260009054906101000a90046001600160a01b03166001600160a01b031663e3f6b5446040518163ffffffff1660e01b8152600401602060405180830381865afa158015610547573d6000803e3d6000fd5b505050506040513d601f19601f8201168201806040525081019061056b9190611cb2565b60405163a8a555c560e01b8152336004820152602481018390526001600160a01b03919091169063a8a555c590604401602060405180830381865afa1580156105b8573d6000803e3d6000fd5b505050506040513d601f19601f820116820180604052508101906105dc9190611ccf565b6105f957604051630782484160e21b815260040160405180910390fd5b600f610606838583611d40565b506004600080516020611f56833981519152600060405161062991815260200190565b60405180910390a2505050565b600061064460106003611425565b905090565b6000610656601083611438565b61066157600061066c565b61066c601083611425565b92915050565b6001600160e01b0319811660009081526001602052604090205460ff166106bd57604051632aae78ef60e01b81526001600160e01b0319821660048201526024015b60405180910390fd5b50565b600061064460106002611425565b6305d291636106db6112e6565b6107e457600260009054906101000a90046001600160a01b03166001600160a01b031663e3f6b5446040518163ffffffff1660e01b8152600401602060405180830381865afa158015610732573d6000803e3d6000fd5b505050506040513d601f19601f820116820180604052508101906107569190611cb2565b60405163a8a555c560e01b8152336004820152602481018390526001600160a01b03919091169063a8a555c590604401602060405180830381865afa1580156107a3573d6000803e3d6000fd5b505050506040513d601f19601f820116820180604052508101906107c79190611ccf565b6107e457604051630782484160e21b815260040160405180910390fd5b600183036108435760405162461bcd60e51b815260206004820152602660248201527f2344414f237365744d6f64756c652044697361626c652055706461746573206d604482015265656d6265727360d01b60648201526084016106b4565b6001600160a01b0382166108625761085c601084611444565b506108d1565b604051634c6e425b60e01b8152630d64f40d60e31b60048201526001600160a01b03831690634c6e425b9060240160006040518083038186803b1580156108a857600080fd5b505afa1580156108bc573d6000803e3d6000fd5b506108cf92506010915085905084611450565b505b6040516001600160a01b038316815283907f48cd35eb8c48361e84310128ddc5d8f23f2def3703599528ba78fb2c8a00304390602001610629565b63d0a4ad966109196112e6565b610a2257600260009054906101000a90046001600160a01b03166001600160a01b031663e3f6b5446040518163ffffffff1660e01b8152600401602060405180830381865afa158015610970573d6000803e3d6000fd5b505050506040513d601f19601f820116820180604052508101906109949190611cb2565b60405163a8a555c560e01b8152336004820152602481018390526001600160a01b03919091169063a8a555c590604401602060405180830381865afa1580156109e1573d6000803e3d6000fd5b505050506040513d601f19601f82011682018060405250810190610a059190611ccf565b610a2257604051630782484160e21b815260040160405180910390fd5b6013610a2f838583611d40565b506009600080516020611f56833981519152600060405161062991815260200190565b60606004805461035890611c78565b610aa33086868080601f01602080910402602001604051908101604052809392919081815260200183838082843760009201919091525087925061146e915050565b610ab36363daa99b60e11b6114d2565b604051634c6e425b60e01b8152630ddf27bf60e01b60048201526001600160a01b03841690634c6e425b9060240160006040518083038186803b158015610af957600080fd5b505afa158015610b0d573d6000803e3d6000fd5b5050604051634c6e425b60e01b81526323fc76b960e01b60048201526001600160a01b0384169250634c6e425b915060240160006040518083038186803b158015610b5757600080fd5b505afa158015610b6b573d6000803e3d6000fd5b5050600d80546001600160a01b0319166001600160a01b03871617905550600e9050610b98898b83611d40565b50600f610ba6878983611d40565b50610bb46010600183611450565b50505050505050505050565b63d0a4ad96610bcd6112e6565b610cd657600260009054906101000a90046001600160a01b03166001600160a01b031663e3f6b5446040518163ffffffff1660e01b8152600401602060405180830381865afa158015610c24573d6000803e3d6000fd5b505050506040513d601f19601f82011682018060405250810190610c489190611cb2565b60405163a8a555c560e01b8152336004820152602481018390526001600160a01b03919091169063a8a555c590604401602060405180830381865afa158015610c95573d6000803e3d6000fd5b505050506040513d601f19601f82011682018060405250810190610cb99190611ccf565b610cd657604051630782484160e21b815260040160405180910390fd5b6004610ce28382611e01565b506001600080516020611f568339815191526000604051610d0591815260200190565b60405180910390a25050565b610d196112e6565b610d3657604051631b4004a360e31b815260040160405180910390fd5b600380546001600160a01b0319166001600160a01b038316908117909155604051908152600290600080516020611f568339815191529060200161043b565b63d0a4ad96610d826112e6565b610e8b57600260009054906101000a90046001600160a01b03166001600160a01b031663e3f6b5446040518163ffffffff1660e01b8152600401602060405180830381865afa158015610dd9573d6000803e3d6000fd5b505050506040513d601f19601f82011682018060405250810190610dfd9190611cb2565b60405163a8a555c560e01b8152336004820152602481018390526001600160a01b03919091169063a8a555c590604401602060405180830381865afa158015610e4a573d6000803e3d6000fd5b505050506040513d601f19601f82011682018060405250810190610e6e9190611ccf565b610e8b57604051630782484160e21b815260040160405180910390fd5b600f610e98858783611d40565b506004610ea6838583611d40565b506001600080516020611f568339815191526000604051610ec991815260200190565b60405180910390a26004600080516020611f568339815191526000604051610ef391815260200190565b60405180910390a25050505050565b63d0a4ad96610f0f6112e6565b61101857600260009054906101000a90046001600160a01b03166001600160a01b031663e3f6b5446040518163ffffffff1660e01b8152600401602060405180830381865afa158015610f66573d6000803e3d6000fd5b505050506040513d601f19601f82011682018060405250810190610f8a9190611cb2565b60405163a8a555c560e01b8152336004820152602481018390526001600160a01b03919091169063a8a555c590604401602060405180830381865afa158015610fd7573d6000803e3d6000fd5b505050506040513d601f19601f82011682018060405250810190610ffb9190611ccf565b61101857604051630782484160e21b815260040160405180910390fd5b6014611025838583611d40565b50600a600080516020611f56833981519152600060405161062991815260200190565b63d0a4ad966110556112e6565b61115e57600260009054906101000a90046001600160a01b03166001600160a01b031663e3f6b5446040518163ffffffff1660e01b8152600401602060405180830381865afa1580156110ac573d6000803e3d6000fd5b505050506040513d601f19601f820116820180604052508101906110d09190611cb2565b60405163a8a555c560e01b8152336004820152602481018390526001600160a01b03919091169063a8a555c590604401602060405180830381865afa15801561111d573d6000803e3d6000fd5b505050506040513d601f19601f820116820180604052508101906111419190611ccf565b61115e57604051630782484160e21b815260040160405180910390fd5b600061116a8380611ec1565b905011156111b65761117c8280611ec1565b600f9161118a919083611d40565b506004600080516020611f5683398151915260006040516111ad91815260200190565b60405180910390a25b60006111c56020840184611ec1565b90501115611214576111da6020830183611ec1565b6004916111e8919083611d40565b506001600080516020611f56833981519152600060405161120b91815260200190565b60405180910390a25b60006112236040840184611ec1565b90501115611272576112386040830183611ec1565b601391611246919083611d40565b506009600080516020611f56833981519152600060405161126991815260200190565b60405180910390a25b60006112816060840184611ec1565b905011156112c7576112966060830183611ec1565b6014916112a4919083611d40565b50600a600080516020611f568339815191526000604051610d0591815260200190565b5050565b600061064460106001611425565b6013805461045390611c78565b60035460009033906001600160a01b0316811461141d57600260009054906101000a90046001600160a01b03166001600160a01b031663570ca7356040518163ffffffff1660e01b8152600401602060405180830381865afa158015611350573d6000803e3d6000fd5b505050506040513d601f19601f820116820180604052508101906113749190611cb2565b6001600160a01b0316816001600160a01b03161461141d57600260009054906101000a90046001600160a01b03166001600160a01b031663ebf0c7176040518163ffffffff1660e01b8152600401602060405180830381865afa1580156113df573d6000803e3d6000fd5b505050506040513d601f19601f820116820180604052508101906114039190611cb2565b6001600160a01b0316816001600160a01b03161491505090565b600191505090565b60006114318383611554565b9392505050565b600061143183836115c4565b600061143183836115d0565b600061146684846001600160a01b0385166115ed565b949350505050565b61147661160a565b611486630d64f40d60e31b6114d2565b600280546001600160a01b0319166001600160a01b03851617905560046114ad8382611e01565b50600380546001600160a01b0319166001600160a01b03929092169190911790555050565b6001600160e01b0319808216900361152c5760405162461bcd60e51b815260206004820152601c60248201527f4552433136353a20696e76616c696420696e746572666163652069640000000060448201526064016106b4565b6001600160e01b0319166000908152600160208190526040909120805460ff19169091179055565b600081815260028301602052604081205480151580611578575061157884846115c4565b6114315760405162461bcd60e51b815260206004820152601e60248201527f456e756d657261626c654d61703a206e6f6e6578697374656e74206b6579000060448201526064016106b4565b6000611431838361173d565b600081815260028301602052604081208190556114318383611755565b600082815260028401602052604081208290556114668484611761565b600054600160a81b900460ff161580801561163257506000546001600160a01b90910460ff16105b806116535750303b1580156116535750600054600160a01b900460ff166001145b6116b65760405162461bcd60e51b815260206004820152602e60248201527f496e697469616c697a61626c653a20636f6e747261637420697320616c72656160448201526d191e481a5b9a5d1a585b1a5e995960921b60648201526084016106b4565b6000805460ff60a01b1916600160a01b17905580156116e3576000805460ff60a81b1916600160a81b1790555b6116f36301ffc9a760e01b6114d2565b80156106bd576000805460ff60a81b19169055604051600181527f7f26b83ff96e1f2b6a682f133852f6798a09c465da95921460cefb38474024989060200160405180910390a150565b60008181526001830160205260408120541515611431565b6000611431838361176d565b60006114318383611860565b60008181526001830160205260408120548015611856576000611791600183611f08565b85549091506000906117a590600190611f08565b905081811461180a5760008660000182815481106117c5576117c5611f29565b90600052602060002001549050808760000184815481106117e8576117e8611f29565b6000918252602080832090910192909255918252600188019052604090208390555b855486908061181b5761181b611f3f565b60019003818190600052602060002001600090559055856001016000868152602001908152602001600020600090556001935050505061066c565b600091505061066c565b60008181526001830160205260408120546118a75750815460018181018455600084815260208082209093018490558454848252828601909352604090209190915561066c565b50600061066c565b6000602082840312156118c157600080fd5b81356001600160e01b03198116811461143157600080fd5b6000815180845260005b818110156118ff576020818501810151868301820152016118e3565b506000602082860101526020601f19601f83011685010191505092915050565b60208152600061143160208301846118d9565b6001600160a01b03811681146106bd57600080fd5b60006020828403121561195957600080fd5b813561143181611932565b60008083601f84011261197657600080fd5b50813567ffffffffffffffff81111561198e57600080fd5b6020830191508360208285010111156119a657600080fd5b9250929050565b600080602083850312156119c057600080fd5b823567ffffffffffffffff8111156119d757600080fd5b6119e385828601611964565b90969095509350505050565b600060208284031215611a0157600080fd5b5035919050565b60008060408385031215611a1b57600080fd5b823591506020830135611a2d81611932565b809150509250929050565b600080600080600080600080600060c08a8c031215611a5657600080fd5b893567ffffffffffffffff80821115611a6e57600080fd5b611a7a8d838e01611964565b909b50995060208c0135915080821115611a9357600080fd5b611a9f8d838e01611964565b909950975060408c0135915080821115611ab857600080fd5b50611ac58c828d01611964565b90965094505060608a0135611ad981611932565b925060808a0135611ae981611932565b915060a08a0135611af981611932565b809150509295985092959850929598565b634e487b7160e01b600052604160045260246000fd5b600060208284031215611b3257600080fd5b813567ffffffffffffffff80821115611b4a57600080fd5b818401915084601f830112611b5e57600080fd5b813581811115611b7057611b70611b0a565b604051601f8201601f19908116603f01168101908382118183101715611b9857611b98611b0a565b81604052828152876020848701011115611bb157600080fd5b826020860160208301376000928101602001929092525095945050505050565b60008060008060408587031215611be757600080fd5b843567ffffffffffffffff80821115611bff57600080fd5b611c0b88838901611964565b90965094506020870135915080821115611c2457600080fd5b50611c3187828801611964565b95989497509550505050565b600060208284031215611c4f57600080fd5b813567ffffffffffffffff811115611c6657600080fd5b82016080818503121561143157600080fd5b600181811c90821680611c8c57607f821691505b602082108103611cac57634e487b7160e01b600052602260045260246000fd5b50919050565b600060208284031215611cc457600080fd5b815161143181611932565b600060208284031215611ce157600080fd5b8151801515811461143157600080fd5b601f821115611d3b57600081815260208120601f850160051c81016020861015611d185750805b601f850160051c820191505b81811015611d3757828155600101611d24565b5050505b505050565b67ffffffffffffffff831115611d5857611d58611b0a565b611d6c83611d668354611c78565b83611cf1565b6000601f841160018114611da05760008515611d885750838201355b600019600387901b1c1916600186901b178355611dfa565b600083815260209020601f19861690835b82811015611dd15786850135825560209485019460019092019101611db1565b5086821015611dee5760001960f88860031b161c19848701351681555b505060018560011b0183555b5050505050565b815167ffffffffffffffff811115611e1b57611e1b611b0a565b611e2f81611e298454611c78565b84611cf1565b602080601f831160018114611e645760008415611e4c5750858301515b600019600386901b1c1916600185901b178555611d37565b600085815260208120601f198616915b82811015611e9357888601518255948401946001909101908401611e74565b5085821015611eb15787850151600019600388901b60f8161c191681555b5050505050600190811b01905550565b6000808335601e19843603018112611ed857600080fd5b83018035915067ffffffffffffffff821115611ef357600080fd5b6020019150368190038213156119a657600080fd5b8181038181111561066c57634e487b7160e01b600052601160045260246000fd5b634e487b7160e01b600052603260045260246000fd5b634e487b7160e01b600052603160045260246000fdfe7016719027ff29c13bc4816903851ea968172a86b766c733b954fdabe53c87eea2646970667358221220ef36915e15ff3aca2f980c0f3ef104b2ad40c4bea86ca198a92d743b66d5e8b264736f6c63430008110033",
  "immutableReferences": {},
  "source": "// SPDX-License-Identifier: MIT\npragma solidity 0.8.17;\n\nimport './Module.sol';\nimport '../openzeppelin/contracts/utils/structs/EnumerableMap.sol';\n\ncontract DAO is IDAO, Module {\n\tusing EnumerableMap for EnumerableMap.UintToAddressMap;\n\n\tstruct BasicInformation {\n\t\tstring mission;\n\t\tstring description;\n\t\tstring image;\n\t\tbytes  extend;\n\t}\n\n\taddress            private  _root;\n\tstring             private  _name;\n\tstring             private  _mission;\n\tEnumerableMap.UintToAddressMap private _modules;\n\tstring             public  image;\n\tbytes              public  extend; // external data\n\tuint256[48]        private  __; // reserved storage space\n\n\tfunction root() view external override returns (address) { return _root; }\n\tfunction name() view external returns (string memory) { return _name; }\n\tfunction mission() view external returns (string memory) { return _mission; }\n\tfunction member() view external override returns (IMember) { return IMember(_modules.get(Module_MEMBER_ID)); }\n\tfunction ledger() view external override returns (ILedger) { return ILedger(_modules.get(Module_LEDGER_ID)); }\n\tfunction asset() view external override returns (IAsset) { return IAsset(_modules.get(Module_ASSET_ID)); }\n\n\tfunction module(uint256 id) view external returns (IModule) {\n\t\treturn IModule(_modules.contains(id) ? _modules.get(id): address(0));\n\t}\n\n\tfunction initDAO(\n\t\tstring calldata name, string calldata mission, string calldata description,\n\t\taddress root, address operator, address member\n\t) external {\n\t\tinitModule(address(this), description, operator);\n\t\t_registerInterface(DAO_Type);\n\n\t\tERC165(root).checkInterface(VotePool_Type);\n\t\tERC165(member).checkInterface(Member_Type);\n\n\t\t_root = root;\n\t\t_name = name;\n\t\t_mission = mission;\n\n\t\t_modules.set(Module_MEMBER_ID, member);\n\t\t// emit SetModule(Module_MEMBER_ID, member);\n\t}\n\n\tfunction setExtend(bytes calldata data) external Check(Action_DAO_Settings) {\n\t\textend = data;\n\t\temit Change(Change_Tag_DAO_Extend, 0);\n\t}\n\n\tfunction setImage(string calldata value) external Check(Action_DAO_Settings) {\n\t\timage = value;\n\t\temit Change(Change_Tag_DAO_Image, 0);\n\t}\n\n\tfunction setMission(string calldata value) external Check(Action_DAO_Settings) {\n\t\t_mission = value;\n\t\temit Change(Change_Tag_DAO_Mission, 0);\n\t}\n\n\tfunction setMissionAndDesc(string calldata mission, string calldata desc) external Check(Action_DAO_Settings) {\n\t\t_mission = mission;\n\t\t_description = desc;\n\t\temit Change(Change_Tag_Description, 0);\n\t\temit Change(Change_Tag_DAO_Mission, 0);\n\t}\n\n\tfunction setBasicInformation(BasicInformation calldata basic) external Check(Action_DAO_Settings) {\n\t\tif (bytes(basic.mission).length > 0) {\n\t\t\t_mission = basic.mission;\n\t\t\temit Change(Change_Tag_DAO_Mission, 0);\n\t\t}\n\t\tif (bytes(basic.description).length > 0) {\n\t\t\t_description = basic.description;\n\t\t\temit Change(Change_Tag_Description, 0);\n\t\t}\n\t\tif (bytes(basic.image).length > 0) {\n\t\t\timage = basic.image;\n\t\t\temit Change(Change_Tag_DAO_Image, 0);\n\t\t}\n\t\tif (basic.extend.length > 0) {\n\t\t\textend = basic.extend;\n\t\t\temit Change(Change_Tag_DAO_Extend, 0);\n\t\t}\n\t}\n\n\tfunction setModule(uint256 id, address addr) external Check(Action_DAO_SetModule) {\n\t\trequire(id != Module_MEMBER_ID, \"#DAO#setModule Disable Updates members\");\n\n\t\tif (addr == address(0)) {\n\t\t\t_modules.remove(id);\n\t\t} else {\n\t\t\tERC165(addr).checkInterface(Module_Type);\n\t\t\t\n\t\t\t_modules.set(id, addr);\n\t\t}\n\t\temit SetModule(id, addr);\n\t}\n\n}",
  "sourcePath": "/Users/louis/Project/hc/NFTSwap/SmartHolder/contracts/DAO.sol",
  "compiler": {
    "name": "solc",
    "version": "0.8.17+commit.8df45f5f.Emscripten.clang"
  },
  "schemaVersion": "3.4.11",
  "updatedAt": "2023-04-01T07:58:04.675Z",
  "networkType": "ethereum",
  "devdoc": {
    "kind": "dev",
    "methods": {
      "supportsInterface(bytes4)": {
        "details": "See {IERC165-supportsInterface}. Time complexity O(1), guaranteed to always use less than 30 000 gas."
      }
    },
    "version": 1
  },
  "userdoc": {
    "kind": "user",
    "methods": {},
    "version": 1
  }
}