{
  "contractName": "DAO",
  "abi": [
    {
      "inputs": [
        {
          "internalType": "bytes4",
          "name": "interfaceId",
          "type": "bytes4"
        }
      ],
      "name": "CheckInterfaceNoMatch",
      "type": "error"
    },
    {
      "inputs": [],
      "name": "PermissionDenied",
      "type": "error"
    },
    {
      "inputs": [],
      "name": "PermissionDeniedForOnlyDAO",
      "type": "error"
    },
    {
      "anonymous": false,
      "inputs": [
        {
          "indexed": true,
          "internalType": "uint256",
          "name": "tag",
          "type": "uint256"
        },
        {
          "indexed": false,
          "internalType": "uint256",
          "name": "value",
          "type": "uint256"
        }
      ],
      "name": "Change",
      "type": "event"
    },
    {
      "anonymous": false,
      "inputs": [
        {
          "indexed": false,
          "internalType": "uint8",
          "name": "version",
          "type": "uint8"
        }
      ],
      "name": "Initialized",
      "type": "event"
    },
    {
      "anonymous": false,
      "inputs": [
        {
          "indexed": true,
          "internalType": "uint256",
          "name": "id",
          "type": "uint256"
        },
        {
          "indexed": false,
          "internalType": "address",
          "name": "addr",
          "type": "address"
        }
      ],
      "name": "SetModule",
      "type": "event"
    },
    {
      "inputs": [
        {
          "internalType": "bytes4",
          "name": "interfaceId",
          "type": "bytes4"
        }
      ],
      "name": "checkInterface",
      "outputs": [],
      "stateMutability": "view",
      "type": "function"
    },
    {
      "inputs": [],
      "name": "daos",
      "outputs": [
        {
          "internalType": "contract IDAOs",
          "name": "",
          "type": "address"
        }
      ],
      "stateMutability": "view",
      "type": "function"
    },
    {
      "inputs": [],
      "name": "description",
      "outputs": [
        {
          "internalType": "string",
          "name": "",
          "type": "string"
        }
      ],
      "stateMutability": "view",
      "type": "function"
    },
    {
      "inputs": [],
      "name": "extend",
      "outputs": [
        {
          "internalType": "bytes",
          "name": "",
          "type": "bytes"
        }
      ],
      "stateMutability": "view",
      "type": "function"
    },
    {
      "inputs": [],
      "name": "host",
      "outputs": [
        {
          "internalType": "contract IDAO",
          "name": "",
          "type": "address"
        }
      ],
      "stateMutability": "view",
      "type": "function"
    },
    {
      "inputs": [],
      "name": "image",
      "outputs": [
        {
          "internalType": "string",
          "name": "",
          "type": "string"
        }
      ],
      "stateMutability": "view",
      "type": "function"
    },
    {
      "inputs": [],
      "name": "impl",
      "outputs": [
        {
          "internalType": "address",
          "name": "",
          "type": "address"
        }
      ],
      "stateMutability": "view",
      "type": "function"
    },
    {
      "inputs": [],
      "name": "operator",
      "outputs": [
        {
          "internalType": "address",
          "name": "",
          "type": "address"
        }
      ],
      "stateMutability": "view",
      "type": "function"
    },
    {
      "inputs": [
        {
          "internalType": "string",
          "name": "value",
          "type": "string"
        }
      ],
      "name": "setDescription",
      "outputs": [],
      "stateMutability": "nonpayable",
      "type": "function"
    },
    {
      "inputs": [
        {
          "internalType": "address",
          "name": "operator_",
          "type": "address"
        }
      ],
      "name": "setOperator",
      "outputs": [],
      "stateMutability": "nonpayable",
      "type": "function"
    },
    {
      "inputs": [
        {
          "internalType": "bytes4",
          "name": "interfaceId",
          "type": "bytes4"
        }
      ],
      "name": "supportsInterface",
      "outputs": [
        {
          "internalType": "bool",
          "name": "",
          "type": "bool"
        }
      ],
      "stateMutability": "view",
      "type": "function"
    },
    {
      "inputs": [
        {
          "internalType": "address",
          "name": "impl_",
          "type": "address"
        }
      ],
      "name": "upgrade",
      "outputs": [],
      "stateMutability": "nonpayable",
      "type": "function"
    },
    {
      "inputs": [],
      "name": "root",
      "outputs": [
        {
          "internalType": "address",
          "name": "",
          "type": "address"
        }
      ],
      "stateMutability": "view",
      "type": "function"
    },
    {
      "inputs": [],
      "name": "name",
      "outputs": [
        {
          "internalType": "string",
          "name": "",
          "type": "string"
        }
      ],
      "stateMutability": "view",
      "type": "function"
    },
    {
      "inputs": [],
      "name": "mission",
      "outputs": [
        {
          "internalType": "string",
          "name": "",
          "type": "string"
        }
      ],
      "stateMutability": "view",
      "type": "function"
    },
    {
      "inputs": [],
      "name": "member",
      "outputs": [
        {
          "internalType": "contract IMember",
          "name": "",
          "type": "address"
        }
      ],
      "stateMutability": "view",
      "type": "function"
    },
    {
      "inputs": [],
      "name": "ledger",
      "outputs": [
        {
          "internalType": "contract ILedger",
          "name": "",
          "type": "address"
        }
      ],
      "stateMutability": "view",
      "type": "function"
    },
    {
      "inputs": [],
      "name": "asset",
      "outputs": [
        {
          "internalType": "contract IAsset",
          "name": "",
          "type": "address"
        }
      ],
      "stateMutability": "view",
      "type": "function"
    },
    {
      "inputs": [],
      "name": "first",
      "outputs": [
        {
          "internalType": "contract IAssetShell",
          "name": "",
          "type": "address"
        }
      ],
      "stateMutability": "view",
      "type": "function"
    },
    {
      "inputs": [],
      "name": "second",
      "outputs": [
        {
          "internalType": "contract IAssetShell",
          "name": "",
          "type": "address"
        }
      ],
      "stateMutability": "view",
      "type": "function"
    },
    {
      "inputs": [],
      "name": "share",
      "outputs": [
        {
          "internalType": "contract IShare",
          "name": "",
          "type": "address"
        }
      ],
      "stateMutability": "view",
      "type": "function"
    },
    {
      "inputs": [
        {
          "internalType": "uint256",
          "name": "id",
          "type": "uint256"
        }
      ],
      "name": "module",
      "outputs": [
        {
          "internalType": "address",
          "name": "",
          "type": "address"
        }
      ],
      "stateMutability": "view",
      "type": "function"
    },
    {
      "inputs": [
        {
          "internalType": "contract IDAOs",
          "name": "daos_",
          "type": "address"
        },
        {
          "components": [
            {
              "internalType": "string",
              "name": "name",
              "type": "string"
            },
            {
              "internalType": "string",
              "name": "mission",
              "type": "string"
            },
            {
              "internalType": "string",
              "name": "description",
              "type": "string"
            },
            {
              "internalType": "string",
              "name": "image",
              "type": "string"
            },
            {
              "internalType": "bytes",
              "name": "extend",
              "type": "bytes"
            }
          ],
          "internalType": "struct DAO.InitDAOArgs",
          "name": "args",
          "type": "tuple"
        },
        {
          "internalType": "address",
          "name": "root_",
          "type": "address"
        },
        {
          "internalType": "address",
          "name": "operator",
          "type": "address"
        },
        {
          "internalType": "address",
          "name": "member_",
          "type": "address"
        }
      ],
      "name": "initDAO",
      "outputs": [],
      "stateMutability": "nonpayable",
      "type": "function"
    },
    {
      "inputs": [
        {
          "internalType": "bytes",
          "name": "data",
          "type": "bytes"
        }
      ],
      "name": "setExtend",
      "outputs": [],
      "stateMutability": "nonpayable",
      "type": "function"
    },
    {
      "inputs": [
        {
          "internalType": "string",
          "name": "value",
          "type": "string"
        }
      ],
      "name": "setImage",
      "outputs": [],
      "stateMutability": "nonpayable",
      "type": "function"
    },
    {
      "inputs": [
        {
          "internalType": "string",
          "name": "value",
          "type": "string"
        }
      ],
      "name": "setMission",
      "outputs": [],
      "stateMutability": "nonpayable",
      "type": "function"
    },
    {
      "inputs": [
        {
          "internalType": "string",
          "name": "mission_",
          "type": "string"
        },
        {
          "internalType": "string",
          "name": "desc",
          "type": "string"
        }
      ],
      "name": "setMissionAndDesc",
      "outputs": [],
      "stateMutability": "nonpayable",
      "type": "function"
    },
    {
      "inputs": [
        {
          "components": [
            {
              "internalType": "string",
              "name": "mission",
              "type": "string"
            },
            {
              "internalType": "string",
              "name": "description",
              "type": "string"
            },
            {
              "internalType": "string",
              "name": "image",
              "type": "string"
            },
            {
              "internalType": "bytes",
              "name": "extend",
              "type": "bytes"
            }
          ],
          "internalType": "struct DAO.BasicInformation",
          "name": "basic",
          "type": "tuple"
        }
      ],
      "name": "setBasicInformation",
      "outputs": [],
      "stateMutability": "nonpayable",
      "type": "function"
    },
    {
      "inputs": [
        {
          "internalType": "uint256",
          "name": "id",
          "type": "uint256"
        },
        {
          "internalType": "address",
          "name": "addr",
          "type": "address"
        }
      ],
      "name": "setModule",
      "outputs": [],
      "stateMutability": "nonpayable",
      "type": "function"
    },
    {
      "inputs": [
        {
          "internalType": "uint256",
          "name": "totalSupply",
          "type": "uint256"
        },
        {
          "internalType": "uint256",
          "name": "maxSupply",
          "type": "uint256"
        },
        {
          "internalType": "string",
          "name": "symbol",
          "type": "string"
        }
      ],
      "name": "enableShare",
      "outputs": [],
      "stateMutability": "nonpayable",
      "type": "function"
    }
  ],
  "bytecode": "0x608060405234801561001057600080fd5b506121c7806100206000396000f3fe608060405234801561001057600080fd5b50600436106101da5760003560e01c806371adb5e611610104578063b4f10136116100a2578063e3f6b54411610071578063e3f6b54414610492578063ebf0c717146104c3578063f3ccaac0146104d4578063f437bc59146104dc57600080fd5b8063b4f1013614610446578063bde4d60314610459578063d1da88401461046c578063dbad060e1461047f57600080fd5b806390c3f38f116100de57806390c3f38f146103dc578063984bf03c146103ef578063a8d5fd6514610402578063b3ab15fb1461043357600080fd5b806371adb5e6146103b05780637284e416146103c35780638abf6077146103cb57600080fd5b806338d52e0f1161017c57806356397c351161014b57806356397c351461032a578063570ca7351461035b5780635a8ac02d1461036c5780635d2916301461039d57600080fd5b806338d52e0f146102815780633df4ddf4146102c6578063430f75da146102f75780634c6e425b1461031757600080fd5b8063172a27b3116101b8578063172a27b31461024b57806317701ee614610253578063270d98131461025b5780632e422cb81461026e57600080fd5b806301ffc9a7146101df57806306fdde03146102215780630900f01014610236575b600080fd5b61020c6101ed366004611a0b565b6001600160e01b03191660009081526001602052604090205460ff1690565b60405190151581526020015b60405180910390f35b6102296104ed565b6040516102189190611a82565b610249610244366004611aaa565b61057f565b005b6102296105ea565b610229610678565b610249610269366004611ac7565b610687565b61024961027c366004611b9f565b610853565b600360005260126020527f0f36ad39aee03e7108cc48f54934702a5f0d4066f10344cebf8198978d86976a545b6040516001600160a01b039091168152602001610218565b600460005260126020527fb4fcd034df3d20faa1c133b66d862ce92732727d40916b48ffb4020cb00fe053546102ae565b6102ae610305366004611be1565b60009081526012602052604090205490565b610249610325366004611a0b565b6109a6565b600260005260126020527f8e1fee8c88a9e04123b21e90cae2727a7715bf522a1e46eb5934ccd05203a6b2546102ae565b6003546001600160a01b03166102ae565b600560005260126020527f45429b9195d4ec5c0cf6c69e9c21a4ca0ea773b702c2de5735f85d2631f26746546102ae565b6102496103ab366004611bfa565b6109f4565b6102496103be366004611b9f565b610c17565b610229610d5d565b6000546001600160a01b03166102ae565b6102496103ea366004611c40565b610d6c565b6015546102ae906001600160a01b031681565b600660005260126020527f1223f9031f9dca49a7844c397098ce9a4e80513444d0a8bb59820dff564808e4546102ae565b610249610441366004611aaa565b610ebd565b610249610454366004611cf1565b610f21565b610249610467366004611b9f565b6110ae565b61024961047a366004611d5d565b6111f4565b61024961048d366004611d98565b611477565b600160005260126020527f71a67924699a20698523213e55fe499d539379d7769cd5567e2c45d583f815a3546102ae565b600d546001600160a01b03166102ae565b6102296115d7565b6002546001600160a01b03166102ae565b6060600e80546104fc90611ddf565b80601f016020809104026020016040519081016040528092919081815260200182805461052890611ddf565b80156105755780601f1061054a57610100808354040283529160200191610575565b820191906000526020600020905b81548152906001019060200180831161055857829003601f168201915b5050505050905090565b6105876115e4565b6105a457604051631b4004a360e31b815260040160405180910390fd5b600080546001600160a01b0319166001600160a01b038316908117909155604051908152600390600080516020612172833981519152906020015b60405180910390a250565b601480546105f790611ddf565b80601f016020809104026020016040519081016040528092919081815260200182805461062390611ddf565b80156106705780601f1061064557610100808354040283529160200191610670565b820191906000526020600020905b81548152906001019060200180831161065357829003601f168201915b505050505081565b6060600f80546104fc90611ddf565b6106d4306106986040870187611e19565b8080601f016020809104026020016040519081016040528093929190818152602001838380828437600092019190915250879250611723915050565b6106e46363daa99b60e11b611787565b604051634c6e425b60e01b8152630ddf27bf60e01b60048201526001600160a01b03841690634c6e425b9060240160006040518083038186803b15801561072a57600080fd5b505afa15801561073e573d6000803e3d6000fd5b5050604051634c6e425b60e01b81526323fc76b960e01b60048201526001600160a01b0384169250634c6e425b915060240160006040518083038186803b15801561078857600080fd5b505afa15801561079c573d6000803e3d6000fd5b5050601580546001600160a01b03808a166001600160a01b031992831617909255600d805492881692909116919091179055506107db90508480611e19565b600e916107e9919083611eab565b506107f76020850185611e19565b600f91610805919083611eab565b506108136060850185611e19565b601391610821919083611eab565b5061082f6080850185611e19565b60149161083d919083611eab565b5061084b6010600183611809565b505050505050565b63d0a4ad966108606115e4565b61096957600260009054906101000a90046001600160a01b03166001600160a01b031663e3f6b5446040518163ffffffff1660e01b8152600401602060405180830381865afa1580156108b7573d6000803e3d6000fd5b505050506040513d601f19601f820116820180604052508101906108db9190611f6c565b60405163a8a555c560e01b8152336004820152602481018390526001600160a01b03919091169063a8a555c590604401602060405180830381865afa158015610928573d6000803e3d6000fd5b505050506040513d601f19601f8201168201806040525081019061094c9190611f89565b61096957604051630782484160e21b815260040160405180910390fd5b600f610976838583611eab565b506004600080516020612172833981519152600060405161099991815260200190565b60405180910390a2505050565b6001600160e01b0319811660009081526001602052604090205460ff166109f157604051632aae78ef60e01b81526001600160e01b0319821660048201526024015b60405180910390fd5b50565b6305d29163610a016115e4565b610b0a57600260009054906101000a90046001600160a01b03166001600160a01b031663e3f6b5446040518163ffffffff1660e01b8152600401602060405180830381865afa158015610a58573d6000803e3d6000fd5b505050506040513d601f19601f82011682018060405250810190610a7c9190611f6c565b60405163a8a555c560e01b8152336004820152602481018390526001600160a01b03919091169063a8a555c590604401602060405180830381865afa158015610ac9573d6000803e3d6000fd5b505050506040513d601f19601f82011682018060405250810190610aed9190611f89565b610b0a57604051630782484160e21b815260040160405180910390fd5b610b15601084611827565b15610b6e5760405162461bcd60e51b8152602060048201526024808201527f2344414f2e7365744d6f64756c65206d6f64756c6520616c72656164792065786044820152636973747360e01b60648201526084016109e8565b604051634c6e425b60e01b8152630d64f40d60e31b60048201526001600160a01b03831690634c6e425b9060240160006040518083038186803b158015610bb457600080fd5b505afa158015610bc8573d6000803e3d6000fd5b50610bdb92506010915085905084611809565b506040516001600160a01b038316815283907f48cd35eb8c48361e84310128ddc5d8f23f2def3703599528ba78fb2c8a00304390602001610999565b63d0a4ad96610c246115e4565b610d2d57600260009054906101000a90046001600160a01b03166001600160a01b031663e3f6b5446040518163ffffffff1660e01b8152600401602060405180830381865afa158015610c7b573d6000803e3d6000fd5b505050506040513d601f19601f82011682018060405250810190610c9f9190611f6c565b60405163a8a555c560e01b8152336004820152602481018390526001600160a01b03919091169063a8a555c590604401602060405180830381865afa158015610cec573d6000803e3d6000fd5b505050506040513d601f19601f82011682018060405250810190610d109190611f89565b610d2d57604051630782484160e21b815260040160405180910390fd5b6013610d3a838583611eab565b506009600080516020612172833981519152600060405161099991815260200190565b6060600480546104fc90611ddf565b63d0a4ad96610d796115e4565b610e8257600260009054906101000a90046001600160a01b03166001600160a01b031663e3f6b5446040518163ffffffff1660e01b8152600401602060405180830381865afa158015610dd0573d6000803e3d6000fd5b505050506040513d601f19601f82011682018060405250810190610df49190611f6c565b60405163a8a555c560e01b8152336004820152602481018390526001600160a01b03919091169063a8a555c590604401602060405180830381865afa158015610e41573d6000803e3d6000fd5b505050506040513d601f19601f82011682018060405250810190610e659190611f89565b610e8257604051630782484160e21b815260040160405180910390fd5b6004610e8e8382611fab565b5060016000805160206121728339815191526000604051610eb191815260200190565b60405180910390a25050565b610ec56115e4565b610ee257604051631b4004a360e31b815260040160405180910390fd5b600380546001600160a01b0319166001600160a01b038316908117909155604051908152600290600080516020612172833981519152906020016105df565b63d0a4ad96610f2e6115e4565b61103757600260009054906101000a90046001600160a01b03166001600160a01b031663e3f6b5446040518163ffffffff1660e01b8152600401602060405180830381865afa158015610f85573d6000803e3d6000fd5b505050506040513d601f19601f82011682018060405250810190610fa99190611f6c565b60405163a8a555c560e01b8152336004820152602481018390526001600160a01b03919091169063a8a555c590604401602060405180830381865afa158015610ff6573d6000803e3d6000fd5b505050506040513d601f19601f8201168201806040525081019061101a9190611f89565b61103757604051630782484160e21b815260040160405180910390fd5b600f611044858783611eab565b506004611052838583611eab565b506001600080516020612172833981519152600060405161107591815260200190565b60405180910390a26004600080516020612172833981519152600060405161109f91815260200190565b60405180910390a25050505050565b63d0a4ad966110bb6115e4565b6111c457600260009054906101000a90046001600160a01b03166001600160a01b031663e3f6b5446040518163ffffffff1660e01b8152600401602060405180830381865afa158015611112573d6000803e3d6000fd5b505050506040513d601f19601f820116820180604052508101906111369190611f6c565b60405163a8a555c560e01b8152336004820152602481018390526001600160a01b03919091169063a8a555c590604401602060405180830381865afa158015611183573d6000803e3d6000fd5b505050506040513d601f19601f820116820180604052508101906111a79190611f89565b6111c457604051630782484160e21b815260040160405180910390fd5b60146111d1838583611eab565b50600a600080516020612172833981519152600060405161099991815260200190565b63d0a4ad966112016115e4565b61130a57600260009054906101000a90046001600160a01b03166001600160a01b031663e3f6b5446040518163ffffffff1660e01b8152600401602060405180830381865afa158015611258573d6000803e3d6000fd5b505050506040513d601f19601f8201168201806040525081019061127c9190611f6c565b60405163a8a555c560e01b8152336004820152602481018390526001600160a01b03919091169063a8a555c590604401602060405180830381865afa1580156112c9573d6000803e3d6000fd5b505050506040513d601f19601f820116820180604052508101906112ed9190611f89565b61130a57604051630782484160e21b815260040160405180910390fd5b60006113168380611e19565b90501115611362576113288280611e19565b600f91611336919083611eab565b506004600080516020612172833981519152600060405161135991815260200190565b60405180910390a25b60006113716020840184611e19565b905011156113c0576113866020830183611e19565b600491611394919083611eab565b50600160008051602061217283398151915260006040516113b791815260200190565b60405180910390a25b60006113cf6040840184611e19565b9050111561141e576113e46040830183611e19565b6013916113f2919083611eab565b506009600080516020612172833981519152600060405161141591815260200190565b60405180910390a25b600061142d6060840184611e19565b90501115611473576114426060830183611e19565b601491611450919083611eab565b50600a6000805160206121728339815191526000604051610eb191815260200190565b5050565b61147f6115e4565b61149c57604051631b4004a360e31b815260040160405180910390fd5b6114a860106006611827565b1561150a5760405162461bcd60e51b815260206004820152602c60248201527f2344414f2e656e61626c655368617265205368617265206d6f64756c6520616c60448201526b72656164792065786973747360a01b60648201526084016109e8565b601554604051631d8a4cff60e01b81526000916001600160a01b031690631d8a4cff9061154890309085908a908a90600e908b908b90600401612094565b6020604051808303816000875af1158015611567573d6000803e3d6000fd5b505050506040513d601f19601f8201168201806040525081019061158b9190611f6c565b905061159a6010600683611809565b506040516001600160a01b03821681526006907f48cd35eb8c48361e84310128ddc5d8f23f2def3703599528ba78fb2c8a0030439060200161109f565b601380546105f790611ddf565b60035460009033906001600160a01b0316811461171b57600260009054906101000a90046001600160a01b03166001600160a01b031663570ca7356040518163ffffffff1660e01b8152600401602060405180830381865afa15801561164e573d6000803e3d6000fd5b505050506040513d601f19601f820116820180604052508101906116729190611f6c565b6001600160a01b0316816001600160a01b03161461171b57600260009054906101000a90046001600160a01b03166001600160a01b031663ebf0c7176040518163ffffffff1660e01b8152600401602060405180830381865afa1580156116dd573d6000803e3d6000fd5b505050506040513d601f19601f820116820180604052508101906117019190611f6c565b6001600160a01b0316816001600160a01b03161491505090565b600191505090565b61172b61183c565b61173b630d64f40d60e31b611787565b600280546001600160a01b0319166001600160a01b03851617905560046117628382611fab565b50600380546001600160a01b0319166001600160a01b03929092169190911790555050565b6001600160e01b031980821690036117e15760405162461bcd60e51b815260206004820152601c60248201527f4552433136353a20696e76616c696420696e746572666163652069640000000060448201526064016109e8565b6001600160e01b0319166000908152600160208190526040909120805460ff19169091179055565b600061181f84846001600160a01b03851661196f565b949350505050565b6000611833838361198c565b90505b92915050565b600054600160a81b900460ff161580801561186457506000546001600160a01b90910460ff16105b806118855750303b1580156118855750600054600160a01b900460ff166001145b6118e85760405162461bcd60e51b815260206004820152602e60248201527f496e697469616c697a61626c653a20636f6e747261637420697320616c72656160448201526d191e481a5b9a5d1a585b1a5e995960921b60648201526084016109e8565b6000805460ff60a01b1916600160a01b1790558015611915576000805460ff60a81b1916600160a81b1790555b6119256301ffc9a760e01b611787565b80156109f1576000805460ff60a81b19169055604051600181527f7f26b83ff96e1f2b6a682f133852f6798a09c465da95921460cefb38474024989060200160405180910390a150565b6000828152600284016020526040812082905561181f8484611998565b600061183383836119a4565b600061183383836119bc565b60008181526001830160205260408120541515611833565b6000818152600183016020526040812054611a0357508154600181810184556000848152602080822090930184905584548482528286019093526040902091909155611836565b506000611836565b600060208284031215611a1d57600080fd5b81356001600160e01b031981168114611a3557600080fd5b9392505050565b6000815180845260005b81811015611a6257602081850181015186830182015201611a46565b506000602082860101526020601f19601f83011685010191505092915050565b6020815260006118336020830184611a3c565b6001600160a01b03811681146109f157600080fd5b600060208284031215611abc57600080fd5b8135611a3581611a95565b600080600080600060a08688031215611adf57600080fd5b8535611aea81611a95565b9450602086013567ffffffffffffffff811115611b0657600080fd5b860160a08189031215611b1857600080fd5b93506040860135611b2881611a95565b92506060860135611b3881611a95565b91506080860135611b4881611a95565b809150509295509295909350565b60008083601f840112611b6857600080fd5b50813567ffffffffffffffff811115611b8057600080fd5b602083019150836020828501011115611b9857600080fd5b9250929050565b60008060208385031215611bb257600080fd5b823567ffffffffffffffff811115611bc957600080fd5b611bd585828601611b56565b90969095509350505050565b600060208284031215611bf357600080fd5b5035919050565b60008060408385031215611c0d57600080fd5b823591506020830135611c1f81611a95565b809150509250929050565b634e487b7160e01b600052604160045260246000fd5b600060208284031215611c5257600080fd5b813567ffffffffffffffff80821115611c6a57600080fd5b818401915084601f830112611c7e57600080fd5b813581811115611c9057611c90611c2a565b604051601f8201601f19908116603f01168101908382118183101715611cb857611cb8611c2a565b81604052828152876020848701011115611cd157600080fd5b826020860160208301376000928101602001929092525095945050505050565b60008060008060408587031215611d0757600080fd5b843567ffffffffffffffff80821115611d1f57600080fd5b611d2b88838901611b56565b90965094506020870135915080821115611d4457600080fd5b50611d5187828801611b56565b95989497509550505050565b600060208284031215611d6f57600080fd5b813567ffffffffffffffff811115611d8657600080fd5b820160808185031215611a3557600080fd5b60008060008060608587031215611dae57600080fd5b8435935060208501359250604085013567ffffffffffffffff811115611dd357600080fd5b611d5187828801611b56565b600181811c90821680611df357607f821691505b602082108103611e1357634e487b7160e01b600052602260045260246000fd5b50919050565b6000808335601e19843603018112611e3057600080fd5b83018035915067ffffffffffffffff821115611e4b57600080fd5b602001915036819003821315611b9857600080fd5b601f821115611ea657600081815260208120601f850160051c81016020861015611e875750805b601f850160051c820191505b8181101561084b57828155600101611e93565b505050565b67ffffffffffffffff831115611ec357611ec3611c2a565b611ed783611ed18354611ddf565b83611e60565b6000601f841160018114611f0b5760008515611ef35750838201355b600019600387901b1c1916600186901b178355611f65565b600083815260209020601f19861690835b82811015611f3c5786850135825560209485019460019092019101611f1c565b5086821015611f595760001960f88860031b161c19848701351681555b505060018560011b0183555b5050505050565b600060208284031215611f7e57600080fd5b8151611a3581611a95565b600060208284031215611f9b57600080fd5b81518015158114611a3557600080fd5b815167ffffffffffffffff811115611fc557611fc5611c2a565b611fd981611fd38454611ddf565b84611e60565b602080601f83116001811461200e5760008415611ff65750858301515b600019600386901b1c1916600185901b17855561084b565b600085815260208120601f198616915b8281101561203d5788860151825594840194600190910190840161201e565b508582101561205b5787850151600019600388901b60f8161c191681555b5050505050600190811b01905550565b81835281816020850137506000828201602090810191909152601f909101601f19169091010190565b600060018060a01b03808a1683526020818a168185015288604085015287606085015260e060808501526000915086546120cd81611ddf565b8060e08701526101006001808416600081146120f0576001811461210a57612138565b60ff1985168984015283151560051b890183019650612138565b8b6000528560002060005b858110156121305781548b8201860152908301908701612115565b8a0184019750505b50505050505082810360a084015261215181858761206b565b83810360c0850152600081529050602081019a995050505050505050505056fe7016719027ff29c13bc4816903851ea968172a86b766c733b954fdabe53c87eea2646970667358221220a22b0298539e0681ab60d85ad8f8fcbe26fb6be024d604dbc9fda7004730f19a64736f6c63430008110033",
  "immutableReferences": {},
  "source": "// SPDX-License-Identifier: MIT\npragma solidity ~0.8.17;\n\nimport './Module.sol';\nimport '../openzeppelin/contracts/utils/structs/EnumerableMap.sol';\n\ncontract DAO is IDAO, Module {\n\tusing EnumerableMap for EnumerableMap.UintToAddressMap;\n\n\tstruct BasicInformation {\n\t\tstring mission;\n\t\tstring description;\n\t\tstring image;\n\t\tbytes  extend;\n\t}\n\tstruct InitDAOArgs {\n\t\tstring name;\n\t\tstring mission;\n\t\tstring description;\n\t\tstring image;\n\t\tbytes  extend;\n\t}\n\n\taddress            private  _root;\n\tstring             private  _name;\n\tstring             private  _mission;\n\tEnumerableMap.UintToAddressMap private _modules;\n\tstring             public  image;\n\tbytes              public  extend; // external data\n\tIDAOs              public  daos;\n\tuint256[47]        private  __; // reserved storage space\n\n\tfunction root() view external override returns (address) { return _root; }\n\tfunction name() view external returns (string memory) { return _name; }\n\tfunction mission() view external returns (string memory) { return _mission; }\n\tfunction member() view external override returns (IMember) { return IMember(module(Module_MEMBER_ID)); }\n\tfunction ledger() view external override returns (ILedger) { return ILedger(module(Module_LEDGER_ID)); }\n\tfunction asset() view external override returns (IAsset) { return IAsset(module(Module_ASSET_ID)); }\n\tfunction first() view external override returns (IAssetShell) { return IAssetShell(module(Module_ASSET_First_ID)); }\n\tfunction second() view external override returns (IAssetShell) { return IAssetShell(module(Module_ASSET_Second_ID)); }\n\tfunction share() view external override returns (IShare) { return IShare(module(Module_Share_ID)); }\n\n\tfunction module(uint256 id) view public override returns (address) {\n\t\treturn address(uint160( uint256(_modules._inner._values[bytes32(id)])));\n\t}\n\n\tfunction initDAO(\n\t\tIDAOs daos_, InitDAOArgs calldata args,\n\t\taddress root_, address operator, address member_\n\t) external {\n\t\tinitModule(address(this), args.description, operator);\n\t\t_registerInterface(DAO_Type);\n\n\t\tERC165(root_).checkInterface(VotePool_Type);\n\t\tERC165(member_).checkInterface(Member_Type);\n\n\t\tdaos = daos_;\n\t\t_root = root_;\n\t\t_name = args.name;\n\t\t_mission = args.mission;\n\t\timage = args.image;\n\t\textend = args.extend;\n\n\t\t_modules.set(Module_MEMBER_ID, member_);\n\t\t// emit SetModule(Module_MEMBER_ID, member);\n\t}\n\n\tfunction setExtend(bytes calldata data) external Check(Action_DAO_Settings) {\n\t\textend = data;\n\t\temit Change(Change_Tag_DAO_Extend, 0);\n\t}\n\n\tfunction setImage(string calldata value) external Check(Action_DAO_Settings) {\n\t\timage = value;\n\t\temit Change(Change_Tag_DAO_Image, 0);\n\t}\n\n\tfunction setMission(string calldata value) external Check(Action_DAO_Settings) {\n\t\t_mission = value;\n\t\temit Change(Change_Tag_DAO_Mission, 0);\n\t}\n\n\tfunction setMissionAndDesc(string calldata mission_, string calldata desc) external Check(Action_DAO_Settings) {\n\t\t_mission = mission_;\n\t\t_description = desc;\n\t\temit Change(Change_Tag_Description, 0);\n\t\temit Change(Change_Tag_DAO_Mission, 0);\n\t}\n\n\tfunction setBasicInformation(BasicInformation calldata basic) external Check(Action_DAO_Settings) {\n\t\tif (bytes(basic.mission).length > 0) {\n\t\t\t_mission = basic.mission;\n\t\t\temit Change(Change_Tag_DAO_Mission, 0);\n\t\t}\n\t\tif (bytes(basic.description).length > 0) {\n\t\t\t_description = basic.description;\n\t\t\temit Change(Change_Tag_Description, 0);\n\t\t}\n\t\tif (bytes(basic.image).length > 0) {\n\t\t\timage = basic.image;\n\t\t\temit Change(Change_Tag_DAO_Image, 0);\n\t\t}\n\t\tif (basic.extend.length > 0) {\n\t\t\textend = basic.extend;\n\t\t\temit Change(Change_Tag_DAO_Extend, 0);\n\t\t}\n\t}\n\n\t/**\n\t * @dev set new module\n\t */\n\tfunction setModule(uint256 id, address addr) external Check(Action_DAO_SetModule) {\n\t\t//require(id != Module_MEMBER_ID, \"#DAO.setModule Disable Updates members\");\n\t\t//require(id != Module_Share_ID, \"#DAO.setModule Disable Updates share\");\n\t\trequire(!_modules.contains(id), \"#DAO.setModule module already exists\");\n\n\t\tERC165(addr).checkInterface(Module_Type);\n\t\t_modules.set(id, addr);\n\n\t\temit SetModule(id, addr);\n\t}\n\n\t/**\n\t * @dev enable share module\n\t */\n\tfunction enableShare(uint256 totalSupply, uint256 maxSupply, string calldata symbol) public OnlyDAO {\n\t\trequire(!_modules.contains(Module_Share_ID), \"#DAO.enableShare Share module already exists\");\n\n\t\taddress addr = daos.deployShare(this, address(0), totalSupply, maxSupply, _name, symbol, \"\");\n\n\t\t_modules.set(Module_Share_ID, addr);\n\n\t\temit SetModule(Module_Share_ID, addr);\n\t}\n\n}",
  "sourcePath": "/Users/louis/Project/hc/NFTSwap/SmartHolder/contracts/DAO.sol",
  "compiler": {
    "name": "solc",
    "version": "0.8.17+commit.8df45f5f.Emscripten.clang"
  },
  "schemaVersion": "3.4.11",
  "updatedAt": "2023-04-23T06:33:53.069Z",
  "networkType": "ethereum",
  "devdoc": {
    "kind": "dev",
    "methods": {
      "enableShare(uint256,uint256,string)": {
        "details": "enable share module"
      },
      "setModule(uint256,address)": {
        "details": "set new module"
      },
      "supportsInterface(bytes4)": {
        "details": "See {IERC165-supportsInterface}. Time complexity O(1), guaranteed to always use less than 30 000 gas."
      }
    },
    "version": 1
  },
  "userdoc": {
    "kind": "user",
    "methods": {},
    "version": 1
  }
}