{
  "contractName": "DAO",
  "abi": [
    {
      "inputs": [
        {
          "internalType": "bytes4",
          "name": "interfaceId",
          "type": "bytes4"
        }
      ],
      "name": "CheckInterfaceNoMatch",
      "type": "error"
    },
    {
      "inputs": [],
      "name": "PermissionDenied",
      "type": "error"
    },
    {
      "inputs": [],
      "name": "PermissionDeniedForOnlyDAO",
      "type": "error"
    },
    {
      "anonymous": false,
      "inputs": [
        {
          "indexed": true,
          "internalType": "uint256",
          "name": "tag",
          "type": "uint256"
        },
        {
          "indexed": false,
          "internalType": "uint256",
          "name": "value",
          "type": "uint256"
        }
      ],
      "name": "Change",
      "type": "event"
    },
    {
      "anonymous": false,
      "inputs": [
        {
          "indexed": false,
          "internalType": "uint8",
          "name": "version",
          "type": "uint8"
        }
      ],
      "name": "Initialized",
      "type": "event"
    },
    {
      "anonymous": false,
      "inputs": [
        {
          "indexed": true,
          "internalType": "uint256",
          "name": "id",
          "type": "uint256"
        },
        {
          "indexed": false,
          "internalType": "address",
          "name": "addr",
          "type": "address"
        }
      ],
      "name": "SetModule",
      "type": "event"
    },
    {
      "inputs": [
        {
          "internalType": "bytes4",
          "name": "interfaceId",
          "type": "bytes4"
        }
      ],
      "name": "checkInterface",
      "outputs": [],
      "stateMutability": "view",
      "type": "function"
    },
    {
      "inputs": [],
      "name": "description",
      "outputs": [
        {
          "internalType": "string",
          "name": "",
          "type": "string"
        }
      ],
      "stateMutability": "view",
      "type": "function"
    },
    {
      "inputs": [],
      "name": "extend",
      "outputs": [
        {
          "internalType": "bytes",
          "name": "",
          "type": "bytes"
        }
      ],
      "stateMutability": "view",
      "type": "function"
    },
    {
      "inputs": [],
      "name": "host",
      "outputs": [
        {
          "internalType": "contract IDAO",
          "name": "",
          "type": "address"
        }
      ],
      "stateMutability": "view",
      "type": "function"
    },
    {
      "inputs": [],
      "name": "image",
      "outputs": [
        {
          "internalType": "string",
          "name": "",
          "type": "string"
        }
      ],
      "stateMutability": "view",
      "type": "function"
    },
    {
      "inputs": [],
      "name": "impl",
      "outputs": [
        {
          "internalType": "address",
          "name": "",
          "type": "address"
        }
      ],
      "stateMutability": "view",
      "type": "function"
    },
    {
      "inputs": [],
      "name": "operator",
      "outputs": [
        {
          "internalType": "address",
          "name": "",
          "type": "address"
        }
      ],
      "stateMutability": "view",
      "type": "function"
    },
    {
      "inputs": [
        {
          "internalType": "string",
          "name": "value",
          "type": "string"
        }
      ],
      "name": "setDescription",
      "outputs": [],
      "stateMutability": "nonpayable",
      "type": "function"
    },
    {
      "inputs": [
        {
          "internalType": "address",
          "name": "operator_",
          "type": "address"
        }
      ],
      "name": "setOperator",
      "outputs": [],
      "stateMutability": "nonpayable",
      "type": "function"
    },
    {
      "inputs": [
        {
          "internalType": "bytes4",
          "name": "interfaceId",
          "type": "bytes4"
        }
      ],
      "name": "supportsInterface",
      "outputs": [
        {
          "internalType": "bool",
          "name": "",
          "type": "bool"
        }
      ],
      "stateMutability": "view",
      "type": "function"
    },
    {
      "inputs": [
        {
          "internalType": "address",
          "name": "impl_",
          "type": "address"
        }
      ],
      "name": "upgrade",
      "outputs": [],
      "stateMutability": "nonpayable",
      "type": "function"
    },
    {
      "inputs": [],
      "name": "daos",
      "outputs": [
        {
          "internalType": "contract IDAOs",
          "name": "",
          "type": "address"
        }
      ],
      "stateMutability": "view",
      "type": "function"
    },
    {
      "inputs": [],
      "name": "root",
      "outputs": [
        {
          "internalType": "address",
          "name": "",
          "type": "address"
        }
      ],
      "stateMutability": "view",
      "type": "function"
    },
    {
      "inputs": [],
      "name": "name",
      "outputs": [
        {
          "internalType": "string",
          "name": "",
          "type": "string"
        }
      ],
      "stateMutability": "view",
      "type": "function"
    },
    {
      "inputs": [],
      "name": "mission",
      "outputs": [
        {
          "internalType": "string",
          "name": "",
          "type": "string"
        }
      ],
      "stateMutability": "view",
      "type": "function"
    },
    {
      "inputs": [],
      "name": "member",
      "outputs": [
        {
          "internalType": "contract IMember",
          "name": "",
          "type": "address"
        }
      ],
      "stateMutability": "view",
      "type": "function"
    },
    {
      "inputs": [],
      "name": "ledger",
      "outputs": [
        {
          "internalType": "contract ILedger",
          "name": "",
          "type": "address"
        }
      ],
      "stateMutability": "view",
      "type": "function"
    },
    {
      "inputs": [],
      "name": "asset",
      "outputs": [
        {
          "internalType": "contract IAsset",
          "name": "",
          "type": "address"
        }
      ],
      "stateMutability": "view",
      "type": "function"
    },
    {
      "inputs": [],
      "name": "first",
      "outputs": [
        {
          "internalType": "contract IAssetShell",
          "name": "",
          "type": "address"
        }
      ],
      "stateMutability": "view",
      "type": "function"
    },
    {
      "inputs": [],
      "name": "second",
      "outputs": [
        {
          "internalType": "contract IAssetShell",
          "name": "",
          "type": "address"
        }
      ],
      "stateMutability": "view",
      "type": "function"
    },
    {
      "inputs": [],
      "name": "share",
      "outputs": [
        {
          "internalType": "contract IShare",
          "name": "",
          "type": "address"
        }
      ],
      "stateMutability": "view",
      "type": "function"
    },
    {
      "inputs": [],
      "name": "unlockOperator",
      "outputs": [
        {
          "internalType": "address",
          "name": "",
          "type": "address"
        }
      ],
      "stateMutability": "view",
      "type": "function"
    },
    {
      "inputs": [
        {
          "internalType": "uint256",
          "name": "id",
          "type": "uint256"
        }
      ],
      "name": "module",
      "outputs": [
        {
          "internalType": "address",
          "name": "",
          "type": "address"
        }
      ],
      "stateMutability": "view",
      "type": "function"
    },
    {
      "inputs": [
        {
          "internalType": "contract IDAOs",
          "name": "daos_",
          "type": "address"
        },
        {
          "components": [
            {
              "internalType": "string",
              "name": "name",
              "type": "string"
            },
            {
              "internalType": "string",
              "name": "mission",
              "type": "string"
            },
            {
              "internalType": "string",
              "name": "description",
              "type": "string"
            },
            {
              "internalType": "string",
              "name": "image",
              "type": "string"
            },
            {
              "internalType": "bytes",
              "name": "extend",
              "type": "bytes"
            },
            {
              "internalType": "address",
              "name": "unlockOperator",
              "type": "address"
            }
          ],
          "internalType": "struct DAO.InitDAOArgs",
          "name": "args",
          "type": "tuple"
        },
        {
          "internalType": "address",
          "name": "root_",
          "type": "address"
        },
        {
          "internalType": "address",
          "name": "operator",
          "type": "address"
        },
        {
          "internalType": "address",
          "name": "member_",
          "type": "address"
        }
      ],
      "name": "initDAO",
      "outputs": [],
      "stateMutability": "nonpayable",
      "type": "function"
    },
    {
      "inputs": [
        {
          "internalType": "address",
          "name": "addr",
          "type": "address"
        }
      ],
      "name": "setUnlockOperator",
      "outputs": [],
      "stateMutability": "nonpayable",
      "type": "function"
    },
    {
      "inputs": [
        {
          "internalType": "bytes",
          "name": "data",
          "type": "bytes"
        }
      ],
      "name": "setExtend",
      "outputs": [],
      "stateMutability": "nonpayable",
      "type": "function"
    },
    {
      "inputs": [
        {
          "internalType": "string",
          "name": "value",
          "type": "string"
        }
      ],
      "name": "setImage",
      "outputs": [],
      "stateMutability": "nonpayable",
      "type": "function"
    },
    {
      "inputs": [
        {
          "internalType": "string",
          "name": "value",
          "type": "string"
        }
      ],
      "name": "setMission",
      "outputs": [],
      "stateMutability": "nonpayable",
      "type": "function"
    },
    {
      "inputs": [
        {
          "internalType": "string",
          "name": "mission_",
          "type": "string"
        },
        {
          "internalType": "string",
          "name": "desc",
          "type": "string"
        }
      ],
      "name": "setMissionAndDesc",
      "outputs": [],
      "stateMutability": "nonpayable",
      "type": "function"
    },
    {
      "inputs": [
        {
          "components": [
            {
              "internalType": "string",
              "name": "mission",
              "type": "string"
            },
            {
              "internalType": "string",
              "name": "description",
              "type": "string"
            },
            {
              "internalType": "string",
              "name": "image",
              "type": "string"
            },
            {
              "internalType": "bytes",
              "name": "extend",
              "type": "bytes"
            }
          ],
          "internalType": "struct DAO.BasicInformation",
          "name": "basic",
          "type": "tuple"
        }
      ],
      "name": "setBasicInformation",
      "outputs": [],
      "stateMutability": "nonpayable",
      "type": "function"
    },
    {
      "inputs": [
        {
          "internalType": "uint256",
          "name": "id",
          "type": "uint256"
        },
        {
          "internalType": "address",
          "name": "addr",
          "type": "address"
        }
      ],
      "name": "setModule",
      "outputs": [],
      "stateMutability": "nonpayable",
      "type": "function"
    },
    {
      "inputs": [
        {
          "internalType": "uint256",
          "name": "totalSupply",
          "type": "uint256"
        },
        {
          "internalType": "uint256",
          "name": "maxSupply",
          "type": "uint256"
        },
        {
          "internalType": "string",
          "name": "symbol",
          "type": "string"
        }
      ],
      "name": "enableShare",
      "outputs": [],
      "stateMutability": "nonpayable",
      "type": "function"
    }
  ],
  "bytecode": "0x608060405234801561001057600080fd5b50612382806100206000396000f3fe608060405234801561001057600080fd5b50600436106101f05760003560e01c80637284e4161161010f578063bde4d603116100a2578063e3f6b54411610071578063e3f6b544146104ca578063ebf0c717146104fb578063f3ccaac01461050c578063f437bc591461051457600080fd5b8063bde4d6031461047e578063d1da884014610491578063d7d66ac9146104a4578063dbad060e146104b757600080fd5b8063984bf03c116100de578063984bf03c14610416578063a8d5fd6514610427578063b3ab15fb14610458578063b4f101361461046b57600080fd5b80637284e416146103d9578063818754a6146103e15780638abf6077146103f257806390c3f38f1461040357600080fd5b80633df4ddf411610187578063570ca73511610156578063570ca735146103715780635a8ac02d146103825780635d291630146103b357806371adb5e6146103c657600080fd5b80633df4ddf4146102dc578063430f75da1461030d5780634c6e425b1461032d57806356397c351461034057600080fd5b8063172a27b3116101c3578063172a27b31461027457806317701ee61461027c5780632e422cb81461028457806338d52e0f1461029757600080fd5b806301ffc9a7146101f557806306fdde03146102375780630894715c1461024c5780630900f01014610261575b600080fd5b610222610203366004611bc6565b6001600160e01b03191660009081526001602052604090205460ff1690565b60405190151581526020015b60405180910390f35b61023f610525565b60405161022e9190611c3d565b61025f61025a366004611c65565b6105b7565b005b61025f61026f366004611cf4565b6107b3565b61023f61081e565b61023f6108ac565b61025f610292366004611d5a565b6108bb565b600360005260126020527f0f36ad39aee03e7108cc48f54934702a5f0d4066f10344cebf8198978d86976a545b6040516001600160a01b03909116815260200161022e565b600460005260126020527fb4fcd034df3d20faa1c133b66d862ce92732727d40916b48ffb4020cb00fe053546102c4565b6102c461031b366004611d9c565b60009081526012602052604090205490565b61025f61033b366004611bc6565b610a0e565b600260005260126020527f8e1fee8c88a9e04123b21e90cae2727a7715bf522a1e46eb5934ccd05203a6b2546102c4565b6003546001600160a01b03166102c4565b600560005260126020527f45429b9195d4ec5c0cf6c69e9c21a4ca0ea773b702c2de5735f85d2631f26746546102c4565b61025f6103c1366004611db5565b610a5c565b61025f6103d4366004611d5a565b610c7f565b61023f610dc5565b6016546001600160a01b03166102c4565b6000546001600160a01b03166102c4565b61025f610411366004611dfb565b610dd4565b6015546001600160a01b03166102c4565b600660005260126020527f1223f9031f9dca49a7844c397098ce9a4e80513444d0a8bb59820dff564808e4546102c4565b61025f610466366004611cf4565b610f25565b61025f610479366004611eac565b610f89565b61025f61048c366004611d5a565b611116565b61025f61049f366004611f18565b61125c565b61025f6104b2366004611cf4565b6114df565b61025f6104c5366004611f53565b611632565b600160005260126020527f71a67924699a20698523213e55fe499d539379d7769cd5567e2c45d583f815a3546102c4565b600d546001600160a01b03166102c4565b61023f611792565b6002546001600160a01b03166102c4565b6060600e805461053490611f9a565b80601f016020809104026020016040519081016040528092919081815260200182805461056090611f9a565b80156105ad5780601f10610582576101008083540402835291602001916105ad565b820191906000526020600020905b81548152906001019060200180831161059057829003601f168201915b5050505050905090565b610604306105c86040870187611fd4565b8080601f01602080910402602001604051908101604052809392919081815260200183838082843760009201919091525087925061179f915050565b6106146363daa99b60e11b611803565b604051634c6e425b60e01b8152630ddf27bf60e01b60048201526001600160a01b03841690634c6e425b9060240160006040518083038186803b15801561065a57600080fd5b505afa15801561066e573d6000803e3d6000fd5b5050604051634c6e425b60e01b81526323fc76b960e01b60048201526001600160a01b0384169250634c6e425b915060240160006040518083038186803b1580156106b857600080fd5b505afa1580156106cc573d6000803e3d6000fd5b5050601580546001600160a01b03808a166001600160a01b031992831617909255600d8054928816929091169190911790555061070b90508480611fd4565b600e91610719919083612066565b506107276020850185611fd4565b600f91610735919083612066565b506107436060850185611fd4565b601391610751919083612066565b5061075f6080850185611fd4565b60149161076d919083612066565b5061077e60c0850160a08601611cf4565b601680546001600160a01b0319166001600160a01b03929092169190911790556107ab6010600183611885565b505050505050565b6107bb6118a3565b6107d857604051631b4004a360e31b815260040160405180910390fd5b600080546001600160a01b0319166001600160a01b03831690811790915560405190815260039060008051602061232d833981519152906020015b60405180910390a250565b6014805461082b90611f9a565b80601f016020809104026020016040519081016040528092919081815260200182805461085790611f9a565b80156108a45780601f10610879576101008083540402835291602001916108a4565b820191906000526020600020905b81548152906001019060200180831161088757829003601f168201915b505050505081565b6060600f805461053490611f9a565b63d0a4ad966108c86118a3565b6109d157600260009054906101000a90046001600160a01b03166001600160a01b031663e3f6b5446040518163ffffffff1660e01b8152600401602060405180830381865afa15801561091f573d6000803e3d6000fd5b505050506040513d601f19601f820116820180604052508101906109439190612127565b60405163a8a555c560e01b8152336004820152602481018390526001600160a01b03919091169063a8a555c590604401602060405180830381865afa158015610990573d6000803e3d6000fd5b505050506040513d601f19601f820116820180604052508101906109b49190612144565b6109d157604051630782484160e21b815260040160405180910390fd5b600f6109de838583612066565b50600460008051602061232d8339815191526000604051610a0191815260200190565b60405180910390a2505050565b6001600160e01b0319811660009081526001602052604090205460ff16610a5957604051632aae78ef60e01b81526001600160e01b0319821660048201526024015b60405180910390fd5b50565b6305d29163610a696118a3565b610b7257600260009054906101000a90046001600160a01b03166001600160a01b031663e3f6b5446040518163ffffffff1660e01b8152600401602060405180830381865afa158015610ac0573d6000803e3d6000fd5b505050506040513d601f19601f82011682018060405250810190610ae49190612127565b60405163a8a555c560e01b8152336004820152602481018390526001600160a01b03919091169063a8a555c590604401602060405180830381865afa158015610b31573d6000803e3d6000fd5b505050506040513d601f19601f82011682018060405250810190610b559190612144565b610b7257604051630782484160e21b815260040160405180910390fd5b610b7d6010846119e2565b15610bd65760405162461bcd60e51b8152602060048201526024808201527f2344414f2e7365744d6f64756c65206d6f64756c6520616c72656164792065786044820152636973747360e01b6064820152608401610a50565b604051634c6e425b60e01b8152630d64f40d60e31b60048201526001600160a01b03831690634c6e425b9060240160006040518083038186803b158015610c1c57600080fd5b505afa158015610c30573d6000803e3d6000fd5b50610c4392506010915085905084611885565b506040516001600160a01b038316815283907f48cd35eb8c48361e84310128ddc5d8f23f2def3703599528ba78fb2c8a00304390602001610a01565b63d0a4ad96610c8c6118a3565b610d9557600260009054906101000a90046001600160a01b03166001600160a01b031663e3f6b5446040518163ffffffff1660e01b8152600401602060405180830381865afa158015610ce3573d6000803e3d6000fd5b505050506040513d601f19601f82011682018060405250810190610d079190612127565b60405163a8a555c560e01b8152336004820152602481018390526001600160a01b03919091169063a8a555c590604401602060405180830381865afa158015610d54573d6000803e3d6000fd5b505050506040513d601f19601f82011682018060405250810190610d789190612144565b610d9557604051630782484160e21b815260040160405180910390fd5b6013610da2838583612066565b50600960008051602061232d8339815191526000604051610a0191815260200190565b60606004805461053490611f9a565b63d0a4ad96610de16118a3565b610eea57600260009054906101000a90046001600160a01b03166001600160a01b031663e3f6b5446040518163ffffffff1660e01b8152600401602060405180830381865afa158015610e38573d6000803e3d6000fd5b505050506040513d601f19601f82011682018060405250810190610e5c9190612127565b60405163a8a555c560e01b8152336004820152602481018390526001600160a01b03919091169063a8a555c590604401602060405180830381865afa158015610ea9573d6000803e3d6000fd5b505050506040513d601f19601f82011682018060405250810190610ecd9190612144565b610eea57604051630782484160e21b815260040160405180910390fd5b6004610ef68382612166565b50600160008051602061232d8339815191526000604051610f1991815260200190565b60405180910390a25050565b610f2d6118a3565b610f4a57604051631b4004a360e31b815260040160405180910390fd5b600380546001600160a01b0319166001600160a01b03831690811790915560405190815260029060008051602061232d83398151915290602001610813565b63d0a4ad96610f966118a3565b61109f57600260009054906101000a90046001600160a01b03166001600160a01b031663e3f6b5446040518163ffffffff1660e01b8152600401602060405180830381865afa158015610fed573d6000803e3d6000fd5b505050506040513d601f19601f820116820180604052508101906110119190612127565b60405163a8a555c560e01b8152336004820152602481018390526001600160a01b03919091169063a8a555c590604401602060405180830381865afa15801561105e573d6000803e3d6000fd5b505050506040513d601f19601f820116820180604052508101906110829190612144565b61109f57604051630782484160e21b815260040160405180910390fd5b600f6110ac858783612066565b5060046110ba838583612066565b50600160008051602061232d83398151915260006040516110dd91815260200190565b60405180910390a2600460008051602061232d833981519152600060405161110791815260200190565b60405180910390a25050505050565b63d0a4ad966111236118a3565b61122c57600260009054906101000a90046001600160a01b03166001600160a01b031663e3f6b5446040518163ffffffff1660e01b8152600401602060405180830381865afa15801561117a573d6000803e3d6000fd5b505050506040513d601f19601f8201168201806040525081019061119e9190612127565b60405163a8a555c560e01b8152336004820152602481018390526001600160a01b03919091169063a8a555c590604401602060405180830381865afa1580156111eb573d6000803e3d6000fd5b505050506040513d601f19601f8201168201806040525081019061120f9190612144565b61122c57604051630782484160e21b815260040160405180910390fd5b6014611239838583612066565b50600a60008051602061232d8339815191526000604051610a0191815260200190565b63d0a4ad966112696118a3565b61137257600260009054906101000a90046001600160a01b03166001600160a01b031663e3f6b5446040518163ffffffff1660e01b8152600401602060405180830381865afa1580156112c0573d6000803e3d6000fd5b505050506040513d601f19601f820116820180604052508101906112e49190612127565b60405163a8a555c560e01b8152336004820152602481018390526001600160a01b03919091169063a8a555c590604401602060405180830381865afa158015611331573d6000803e3d6000fd5b505050506040513d601f19601f820116820180604052508101906113559190612144565b61137257604051630782484160e21b815260040160405180910390fd5b600061137e8380611fd4565b905011156113ca576113908280611fd4565b600f9161139e919083612066565b50600460008051602061232d83398151915260006040516113c191815260200190565b60405180910390a25b60006113d96020840184611fd4565b90501115611428576113ee6020830183611fd4565b6004916113fc919083612066565b50600160008051602061232d833981519152600060405161141f91815260200190565b60405180910390a25b60006114376040840184611fd4565b905011156114865761144c6040830183611fd4565b60139161145a919083612066565b50600960008051602061232d833981519152600060405161147d91815260200190565b60405180910390a25b60006114956060840184611fd4565b905011156114db576114aa6060830183611fd4565b6014916114b8919083612066565b50600a60008051602061232d8339815191526000604051610f1991815260200190565b5050565b63d0a4ad966114ec6118a3565b6115f557600260009054906101000a90046001600160a01b03166001600160a01b031663e3f6b5446040518163ffffffff1660e01b8152600401602060405180830381865afa158015611543573d6000803e3d6000fd5b505050506040513d601f19601f820116820180604052508101906115679190612127565b60405163a8a555c560e01b8152336004820152602481018390526001600160a01b03919091169063a8a555c590604401602060405180830381865afa1580156115b4573d6000803e3d6000fd5b505050506040513d601f19601f820116820180604052508101906115d89190612144565b6115f557604051630782484160e21b815260040160405180910390fd5b601680546001600160a01b0319166001600160a01b03841617905560405160008152600b9060008051602061232d83398151915290602001610f19565b61163a6118a3565b61165757604051631b4004a360e31b815260040160405180910390fd5b611663601060066119e2565b156116c55760405162461bcd60e51b815260206004820152602c60248201527f2344414f2e656e61626c655368617265205368617265206d6f64756c6520616c60448201526b72656164792065786973747360a01b6064820152608401610a50565b601554604051631d8a4cff60e01b81526000916001600160a01b031690631d8a4cff9061170390309085908a908a90600e908b908b9060040161224f565b6020604051808303816000875af1158015611722573d6000803e3d6000fd5b505050506040513d601f19601f820116820180604052508101906117469190612127565b90506117556010600683611885565b506040516001600160a01b03821681526006907f48cd35eb8c48361e84310128ddc5d8f23f2def3703599528ba78fb2c8a00304390602001611107565b6013805461082b90611f9a565b6117a76119f7565b6117b7630d64f40d60e31b611803565b600280546001600160a01b0319166001600160a01b03851617905560046117de8382612166565b50600380546001600160a01b0319166001600160a01b03929092169190911790555050565b6001600160e01b0319808216900361185d5760405162461bcd60e51b815260206004820152601c60248201527f4552433136353a20696e76616c696420696e74657266616365206964000000006044820152606401610a50565b6001600160e01b0319166000908152600160208190526040909120805460ff19169091179055565b600061189b84846001600160a01b038516611b2a565b949350505050565b60035460009033906001600160a01b031681146119da57600260009054906101000a90046001600160a01b03166001600160a01b031663570ca7356040518163ffffffff1660e01b8152600401602060405180830381865afa15801561190d573d6000803e3d6000fd5b505050506040513d601f19601f820116820180604052508101906119319190612127565b6001600160a01b0316816001600160a01b0316146119da57600260009054906101000a90046001600160a01b03166001600160a01b031663ebf0c7176040518163ffffffff1660e01b8152600401602060405180830381865afa15801561199c573d6000803e3d6000fd5b505050506040513d601f19601f820116820180604052508101906119c09190612127565b6001600160a01b0316816001600160a01b03161491505090565b600191505090565b60006119ee8383611b47565b90505b92915050565b600054600160a81b900460ff1615808015611a1f57506000546001600160a01b90910460ff16105b80611a405750303b158015611a405750600054600160a01b900460ff166001145b611aa35760405162461bcd60e51b815260206004820152602e60248201527f496e697469616c697a61626c653a20636f6e747261637420697320616c72656160448201526d191e481a5b9a5d1a585b1a5e995960921b6064820152608401610a50565b6000805460ff60a01b1916600160a01b1790558015611ad0576000805460ff60a81b1916600160a81b1790555b611ae06301ffc9a760e01b611803565b8015610a59576000805460ff60a81b19169055604051600181527f7f26b83ff96e1f2b6a682f133852f6798a09c465da95921460cefb38474024989060200160405180910390a150565b6000828152600284016020526040812082905561189b8484611b53565b60006119ee8383611b5f565b60006119ee8383611b77565b600081815260018301602052604081205415156119ee565b6000818152600183016020526040812054611bbe575081546001818101845560008481526020808220909301849055845484825282860190935260409020919091556119f1565b5060006119f1565b600060208284031215611bd857600080fd5b81356001600160e01b031981168114611bf057600080fd5b9392505050565b6000815180845260005b81811015611c1d57602081850181015186830182015201611c01565b506000602082860101526020601f19601f83011685010191505092915050565b6020815260006119ee6020830184611bf7565b6001600160a01b0381168114610a5957600080fd5b600080600080600060a08688031215611c7d57600080fd5b8535611c8881611c50565b9450602086013567ffffffffffffffff811115611ca457600080fd5b860160c08189031215611cb657600080fd5b93506040860135611cc681611c50565b92506060860135611cd681611c50565b91506080860135611ce681611c50565b809150509295509295909350565b600060208284031215611d0657600080fd5b8135611bf081611c50565b60008083601f840112611d2357600080fd5b50813567ffffffffffffffff811115611d3b57600080fd5b602083019150836020828501011115611d5357600080fd5b9250929050565b60008060208385031215611d6d57600080fd5b823567ffffffffffffffff811115611d8457600080fd5b611d9085828601611d11565b90969095509350505050565b600060208284031215611dae57600080fd5b5035919050565b60008060408385031215611dc857600080fd5b823591506020830135611dda81611c50565b809150509250929050565b634e487b7160e01b600052604160045260246000fd5b600060208284031215611e0d57600080fd5b813567ffffffffffffffff80821115611e2557600080fd5b818401915084601f830112611e3957600080fd5b813581811115611e4b57611e4b611de5565b604051601f8201601f19908116603f01168101908382118183101715611e7357611e73611de5565b81604052828152876020848701011115611e8c57600080fd5b826020860160208301376000928101602001929092525095945050505050565b60008060008060408587031215611ec257600080fd5b843567ffffffffffffffff80821115611eda57600080fd5b611ee688838901611d11565b90965094506020870135915080821115611eff57600080fd5b50611f0c87828801611d11565b95989497509550505050565b600060208284031215611f2a57600080fd5b813567ffffffffffffffff811115611f4157600080fd5b820160808185031215611bf057600080fd5b60008060008060608587031215611f6957600080fd5b8435935060208501359250604085013567ffffffffffffffff811115611f8e57600080fd5b611f0c87828801611d11565b600181811c90821680611fae57607f821691505b602082108103611fce57634e487b7160e01b600052602260045260246000fd5b50919050565b6000808335601e19843603018112611feb57600080fd5b83018035915067ffffffffffffffff82111561200657600080fd5b602001915036819003821315611d5357600080fd5b601f82111561206157600081815260208120601f850160051c810160208610156120425750805b601f850160051c820191505b818110156107ab5782815560010161204e565b505050565b67ffffffffffffffff83111561207e5761207e611de5565b6120928361208c8354611f9a565b8361201b565b6000601f8411600181146120c657600085156120ae5750838201355b600019600387901b1c1916600186901b178355612120565b600083815260209020601f19861690835b828110156120f757868501358255602094850194600190920191016120d7565b50868210156121145760001960f88860031b161c19848701351681555b505060018560011b0183555b5050505050565b60006020828403121561213957600080fd5b8151611bf081611c50565b60006020828403121561215657600080fd5b81518015158114611bf057600080fd5b815167ffffffffffffffff81111561218057612180611de5565b6121948161218e8454611f9a565b8461201b565b602080601f8311600181146121c957600084156121b15750858301515b600019600386901b1c1916600185901b1785556107ab565b600085815260208120601f198616915b828110156121f8578886015182559484019460019091019084016121d9565b50858210156122165787850151600019600388901b60f8161c191681555b5050505050600190811b01905550565b81835281816020850137506000828201602090810191909152601f909101601f19169091010190565b600060018060a01b03808a1683526020818a168185015288604085015287606085015260e0608085015260009150865461228881611f9a565b8060e08701526101006001808416600081146122ab57600181146122c5576122f3565b60ff1985168984015283151560051b8901830196506122f3565b8b6000528560002060005b858110156122eb5781548b82018601529083019087016122d0565b8a0184019750505b50505050505082810360a084015261230c818587612226565b83810360c0850152600081529050602081019a995050505050505050505056fe7016719027ff29c13bc4816903851ea968172a86b766c733b954fdabe53c87eea26469706673582212208e16631d7d1e4bc80418fc0dcdd31eda38e9cef45ef104654bfc37b9864963f364736f6c63430008110033",
  "immutableReferences": {},
  "source": "// SPDX-License-Identifier: MIT\npragma solidity ~0.8.17;\n\nimport './Module.sol';\nimport '../openzeppelin/contracts/utils/structs/EnumerableMap.sol';\n\ncontract DAO is IDAO, Module {\n\tusing EnumerableMap for EnumerableMap.UintToAddressMap;\n\n\tstruct BasicInformation {\n\t\tstring mission;\n\t\tstring description;\n\t\tstring image;\n\t\tbytes  extend;\n\t}\n\tstruct InitDAOArgs {\n\t\tstring name;\n\t\tstring mission;\n\t\tstring description;\n\t\tstring image;\n\t\tbytes  extend;\n\t\taddress unlockOperator;\n\t}\n\n\taddress            private  _root;\n\tstring             private  _name;\n\tstring             private  _mission;\n\tEnumerableMap.UintToAddressMap private _modules;\n\tstring             public  image;\n\tbytes              public  extend; // external data\n\tIDAOs              private  _daos;\n\taddress            private  _unlockOperator; // operator address for asset auto unlock\n\tuint256[46]        private  __; // reserved storage space\n\n\tfunction daos() view public override returns (IDAOs) { return _daos; }\n\tfunction root() view external override returns (address) { return _root; }\n\tfunction name() view external returns (string memory) { return _name; }\n\tfunction mission() view external returns (string memory) { return _mission; }\n\tfunction member() view external override returns (IMember) { return IMember(module(Module_MEMBER_ID)); }\n\tfunction ledger() view external override returns (ILedger) { return ILedger(module(Module_LEDGER_ID)); }\n\tfunction asset() view external override returns (IAsset) { return IAsset(module(Module_ASSET_ID)); }\n\tfunction first() view external override returns (IAssetShell) { return IAssetShell(module(Module_ASSET_First_ID)); }\n\tfunction second() view external override returns (IAssetShell) { return IAssetShell(module(Module_ASSET_Second_ID)); }\n\tfunction share() view external override returns (IShare) { return IShare(module(Module_Share_ID)); }\n\tfunction unlockOperator() view public override returns (address) { return _unlockOperator; }\n\n\tfunction module(uint256 id) view public override returns (address) {\n\t\treturn address(uint160( uint256(_modules._inner._values[bytes32(id)])));\n\t}\n\n\tfunction initDAO(\n\t\tIDAOs daos_, InitDAOArgs calldata args,\n\t\taddress root_, address operator, address member_\n\t) external {\n\t\tinitModule(address(this), args.description, operator);\n\t\t_registerInterface(DAO_Type);\n\n\t\tERC165(root_).checkInterface(VotePool_Type);\n\t\tERC165(member_).checkInterface(Member_Type);\n\n\t\t_daos = daos_;\n\t\t_root = root_;\n\t\t_name = args.name;\n\t\t_mission = args.mission;\n\t\timage = args.image;\n\t\textend = args.extend;\n\t\t_unlockOperator = args.unlockOperator;\n\n\t\t_modules.set(Module_MEMBER_ID, member_);\n\t\t// emit SetModule(Module_MEMBER_ID, member);\n\t}\n\n\tfunction setUnlockOperator(address addr) external Check(Action_DAO_Settings) {\n\t\t_unlockOperator = addr;\n\t\temit Change(Change_Tag_DAO_UnlockOperator, 0);\n\t}\n\n\tfunction setExtend(bytes calldata data) external Check(Action_DAO_Settings) {\n\t\textend = data;\n\t\temit Change(Change_Tag_DAO_Extend, 0);\n\t}\n\n\tfunction setImage(string calldata value) external Check(Action_DAO_Settings) {\n\t\timage = value;\n\t\temit Change(Change_Tag_DAO_Image, 0);\n\t}\n\n\tfunction setMission(string calldata value) external Check(Action_DAO_Settings) {\n\t\t_mission = value;\n\t\temit Change(Change_Tag_DAO_Mission, 0);\n\t}\n\n\tfunction setMissionAndDesc(string calldata mission_, string calldata desc) external Check(Action_DAO_Settings) {\n\t\t_mission = mission_;\n\t\t_description = desc;\n\t\temit Change(Change_Tag_Description, 0);\n\t\temit Change(Change_Tag_DAO_Mission, 0);\n\t}\n\n\tfunction setBasicInformation(BasicInformation calldata basic) external Check(Action_DAO_Settings) {\n\t\tif (bytes(basic.mission).length > 0) {\n\t\t\t_mission = basic.mission;\n\t\t\temit Change(Change_Tag_DAO_Mission, 0);\n\t\t}\n\t\tif (bytes(basic.description).length > 0) {\n\t\t\t_description = basic.description;\n\t\t\temit Change(Change_Tag_Description, 0);\n\t\t}\n\t\tif (bytes(basic.image).length > 0) {\n\t\t\timage = basic.image;\n\t\t\temit Change(Change_Tag_DAO_Image, 0);\n\t\t}\n\t\tif (basic.extend.length > 0) {\n\t\t\textend = basic.extend;\n\t\t\temit Change(Change_Tag_DAO_Extend, 0);\n\t\t}\n\t}\n\n\t/**\n\t * @dev set new module\n\t */\n\tfunction setModule(uint256 id, address addr) external Check(Action_DAO_SetModule) {\n\t\t//require(id != Module_MEMBER_ID, \"#DAO.setModule Disable Updates members\");\n\t\t//require(id != Module_Share_ID, \"#DAO.setModule Disable Updates share\");\n\t\trequire(!_modules.contains(id), \"#DAO.setModule module already exists\");\n\n\t\tERC165(addr).checkInterface(Module_Type);\n\t\t_modules.set(id, addr);\n\n\t\temit SetModule(id, addr);\n\t}\n\n\t/**\n\t * @dev enable share module\n\t */\n\tfunction enableShare(uint256 totalSupply, uint256 maxSupply, string calldata symbol) public OnlyDAO {\n\t\trequire(!_modules.contains(Module_Share_ID), \"#DAO.enableShare Share module already exists\");\n\n\t\taddress addr = _daos.deployShare(this, address(0), totalSupply, maxSupply, _name, symbol, \"\");\n\n\t\t_modules.set(Module_Share_ID, addr);\n\n\t\temit SetModule(Module_Share_ID, addr);\n\t}\n\n}",
  "sourcePath": "/Users/louis/Project/hc/NFTSwap/SmartHolder/contracts/DAO.sol",
  "compiler": {
    "name": "solc",
    "version": "0.8.17+commit.8df45f5f.Emscripten.clang"
  },
  "schemaVersion": "3.4.11",
  "updatedAt": "2023-05-11T06:07:52.631Z",
  "devdoc": {
    "kind": "dev",
    "methods": {
      "enableShare(uint256,uint256,string)": {
        "details": "enable share module"
      },
      "setModule(uint256,address)": {
        "details": "set new module"
      },
      "supportsInterface(bytes4)": {
        "details": "See {IERC165-supportsInterface}. Time complexity O(1), guaranteed to always use less than 30 000 gas."
      }
    },
    "version": 1
  },
  "userdoc": {
    "kind": "user",
    "methods": {},
    "version": 1
  }
}