{
  "contractName": "DAOs",
  "abi": [
    {
      "anonymous": false,
      "inputs": [
        {
          "indexed": true,
          "internalType": "address",
          "name": "dao",
          "type": "address"
        }
      ],
      "name": "Created",
      "type": "event"
    },
    {
      "anonymous": false,
      "inputs": [
        {
          "indexed": true,
          "internalType": "address",
          "name": "previousOwner",
          "type": "address"
        },
        {
          "indexed": true,
          "internalType": "address",
          "name": "newOwner",
          "type": "address"
        }
      ],
      "name": "OwnershipTransferred",
      "type": "event"
    },
    {
      "inputs": [],
      "name": "defaultIMPLs",
      "outputs": [
        {
          "internalType": "address",
          "name": "DAO",
          "type": "address"
        },
        {
          "internalType": "address",
          "name": "Member",
          "type": "address"
        },
        {
          "internalType": "address",
          "name": "VotePool",
          "type": "address"
        },
        {
          "internalType": "address",
          "name": "Ledger",
          "type": "address"
        },
        {
          "internalType": "address",
          "name": "Asset",
          "type": "address"
        },
        {
          "internalType": "address",
          "name": "AssetShell",
          "type": "address"
        }
      ],
      "stateMutability": "view",
      "type": "function",
      "constant": true
    },
    {
      "inputs": [],
      "name": "owner",
      "outputs": [
        {
          "internalType": "address",
          "name": "",
          "type": "address"
        }
      ],
      "stateMutability": "view",
      "type": "function",
      "constant": true
    },
    {
      "inputs": [],
      "name": "renounceOwnership",
      "outputs": [],
      "stateMutability": "nonpayable",
      "type": "function"
    },
    {
      "inputs": [
        {
          "internalType": "address",
          "name": "newOwner",
          "type": "address"
        }
      ],
      "name": "transferOwnership",
      "outputs": [],
      "stateMutability": "nonpayable",
      "type": "function"
    },
    {
      "inputs": [],
      "name": "initDAOs",
      "outputs": [],
      "stateMutability": "nonpayable",
      "type": "function"
    },
    {
      "inputs": [
        {
          "components": [
            {
              "internalType": "address",
              "name": "DAO",
              "type": "address"
            },
            {
              "internalType": "address",
              "name": "Member",
              "type": "address"
            },
            {
              "internalType": "address",
              "name": "VotePool",
              "type": "address"
            },
            {
              "internalType": "address",
              "name": "Ledger",
              "type": "address"
            },
            {
              "internalType": "address",
              "name": "Asset",
              "type": "address"
            },
            {
              "internalType": "address",
              "name": "AssetShell",
              "type": "address"
            }
          ],
          "internalType": "struct DAOs.DAOIMPLs",
          "name": "IMPLs",
          "type": "tuple"
        }
      ],
      "name": "setDefaultIMPLs",
      "outputs": [],
      "stateMutability": "nonpayable",
      "type": "function"
    },
    {
      "inputs": [
        {
          "components": [
            {
              "internalType": "string",
              "name": "name",
              "type": "string"
            },
            {
              "internalType": "string",
              "name": "mission",
              "type": "string"
            },
            {
              "internalType": "string",
              "name": "description",
              "type": "string"
            },
            {
              "internalType": "string",
              "name": "image",
              "type": "string"
            },
            {
              "internalType": "bytes",
              "name": "extend",
              "type": "bytes"
            }
          ],
          "internalType": "struct DAOs.InitDAOArgs",
          "name": "daoArgs",
          "type": "tuple"
        },
        {
          "internalType": "address",
          "name": "operator",
          "type": "address"
        },
        {
          "components": [
            {
              "internalType": "string",
              "name": "name",
              "type": "string"
            },
            {
              "internalType": "string",
              "name": "description",
              "type": "string"
            },
            {
              "internalType": "string",
              "name": "baseURI",
              "type": "string"
            },
            {
              "components": [
                {
                  "internalType": "address",
                  "name": "owner",
                  "type": "address"
                },
                {
                  "components": [
                    {
                      "internalType": "uint256",
                      "name": "id",
                      "type": "uint256"
                    },
                    {
                      "internalType": "string",
                      "name": "name",
                      "type": "string"
                    },
                    {
                      "internalType": "string",
                      "name": "description",
                      "type": "string"
                    },
                    {
                      "internalType": "string",
                      "name": "image",
                      "type": "string"
                    },
                    {
                      "internalType": "uint32",
                      "name": "votes",
                      "type": "uint32"
                    }
                  ],
                  "internalType": "struct IMember.Info",
                  "name": "info",
                  "type": "tuple"
                },
                {
                  "internalType": "uint256[]",
                  "name": "permissions",
                  "type": "uint256[]"
                }
              ],
              "internalType": "struct Member.MintMemberArgs[]",
              "name": "members",
              "type": "tuple[]"
            },
            {
              "internalType": "uint256",
              "name": "executor",
              "type": "uint256"
            }
          ],
          "internalType": "struct DAOs.InitMemberArgs",
          "name": "memberArgs",
          "type": "tuple"
        },
        {
          "components": [
            {
              "internalType": "string",
              "name": "description",
              "type": "string"
            },
            {
              "internalType": "uint256",
              "name": "lifespan",
              "type": "uint256"
            }
          ],
          "internalType": "struct DAOs.InitVotePoolArgs",
          "name": "votePoolArgs",
          "type": "tuple"
        }
      ],
      "name": "deploy",
      "outputs": [
        {
          "internalType": "contract DAO",
          "name": "host",
          "type": "address"
        }
      ],
      "stateMutability": "nonpayable",
      "type": "function"
    },
    {
      "inputs": [
        {
          "components": [
            {
              "internalType": "string",
              "name": "name",
              "type": "string"
            },
            {
              "internalType": "string",
              "name": "mission",
              "type": "string"
            },
            {
              "internalType": "string",
              "name": "description",
              "type": "string"
            },
            {
              "internalType": "string",
              "name": "image",
              "type": "string"
            },
            {
              "internalType": "bytes",
              "name": "extend",
              "type": "bytes"
            }
          ],
          "internalType": "struct DAOs.InitDAOArgs",
          "name": "daoArgs",
          "type": "tuple"
        },
        {
          "internalType": "address",
          "name": "operator",
          "type": "address"
        },
        {
          "components": [
            {
              "internalType": "string",
              "name": "name",
              "type": "string"
            },
            {
              "internalType": "string",
              "name": "description",
              "type": "string"
            },
            {
              "internalType": "string",
              "name": "baseURI",
              "type": "string"
            },
            {
              "components": [
                {
                  "internalType": "address",
                  "name": "owner",
                  "type": "address"
                },
                {
                  "components": [
                    {
                      "internalType": "uint256",
                      "name": "id",
                      "type": "uint256"
                    },
                    {
                      "internalType": "string",
                      "name": "name",
                      "type": "string"
                    },
                    {
                      "internalType": "string",
                      "name": "description",
                      "type": "string"
                    },
                    {
                      "internalType": "string",
                      "name": "image",
                      "type": "string"
                    },
                    {
                      "internalType": "uint32",
                      "name": "votes",
                      "type": "uint32"
                    }
                  ],
                  "internalType": "struct IMember.Info",
                  "name": "info",
                  "type": "tuple"
                },
                {
                  "internalType": "uint256[]",
                  "name": "permissions",
                  "type": "uint256[]"
                }
              ],
              "internalType": "struct Member.MintMemberArgs[]",
              "name": "members",
              "type": "tuple[]"
            },
            {
              "internalType": "uint256",
              "name": "executor",
              "type": "uint256"
            }
          ],
          "internalType": "struct DAOs.InitMemberArgs",
          "name": "memberArgs",
          "type": "tuple"
        },
        {
          "components": [
            {
              "internalType": "string",
              "name": "description",
              "type": "string"
            },
            {
              "internalType": "uint256",
              "name": "lifespan",
              "type": "uint256"
            }
          ],
          "internalType": "struct DAOs.InitVotePoolArgs",
          "name": "votePoolArgs",
          "type": "tuple"
        },
        {
          "components": [
            {
              "internalType": "string",
              "name": "description",
              "type": "string"
            }
          ],
          "internalType": "struct DAOs.InitLedgerArgs",
          "name": "ledgerArgs",
          "type": "tuple"
        },
        {
          "components": [
            {
              "internalType": "string",
              "name": "name",
              "type": "string"
            },
            {
              "internalType": "string",
              "name": "description",
              "type": "string"
            },
            {
              "internalType": "string",
              "name": "image",
              "type": "string"
            },
            {
              "internalType": "string",
              "name": "external_link",
              "type": "string"
            },
            {
              "internalType": "uint32",
              "name": "seller_fee_basis_points_first",
              "type": "uint32"
            },
            {
              "internalType": "uint32",
              "name": "seller_fee_basis_points_second",
              "type": "uint32"
            },
            {
              "internalType": "address",
              "name": "fee_recipient",
              "type": "address"
            },
            {
              "internalType": "string",
              "name": "contractURIPrefix",
              "type": "string"
            }
          ],
          "internalType": "struct DAOs.InitAssetArgs",
          "name": "assetArgs",
          "type": "tuple"
        }
      ],
      "name": "deployAssetSalesDAO",
      "outputs": [
        {
          "internalType": "contract DAO",
          "name": "host",
          "type": "address"
        }
      ],
      "stateMutability": "nonpayable",
      "type": "function"
    },
    {
      "inputs": [],
      "name": "length",
      "outputs": [
        {
          "internalType": "uint256",
          "name": "",
          "type": "uint256"
        }
      ],
      "stateMutability": "view",
      "type": "function",
      "constant": true
    },
    {
      "inputs": [
        {
          "internalType": "string",
          "name": "name",
          "type": "string"
        }
      ],
      "name": "get",
      "outputs": [
        {
          "internalType": "contract DAO",
          "name": "",
          "type": "address"
        }
      ],
      "stateMutability": "view",
      "type": "function",
      "constant": true
    },
    {
      "inputs": [
        {
          "internalType": "uint256",
          "name": "index",
          "type": "uint256"
        }
      ],
      "name": "at",
      "outputs": [
        {
          "internalType": "contract DAO",
          "name": "",
          "type": "address"
        }
      ],
      "stateMutability": "view",
      "type": "function",
      "constant": true
    },
    {
      "inputs": [],
      "name": "impl",
      "outputs": [
        {
          "internalType": "address",
          "name": "",
          "type": "address"
        }
      ],
      "stateMutability": "view",
      "type": "function",
      "constant": true
    },
    {
      "inputs": [
        {
          "internalType": "address",
          "name": "impl",
          "type": "address"
        }
      ],
      "name": "upgrade",
      "outputs": [],
      "stateMutability": "nonpayable",
      "type": "function"
    }
  ],
  "bytecode": "0x608060405234801561001057600080fd5b5061255c806100206000396000f3fe608060405234801561001057600080fd5b50600436106100ce5760003560e01c8063715018a61161008c578063de70729c11610066578063de70729c146101f2578063e0886f9014610205578063ec47f60f14610218578063f2fde38b1461022057600080fd5b8063715018a6146101c85780638abf6077146101d05780638da5cb5b146101e157600080fd5b8062d46a26146100d35780630900f0101461014c5780631c2921f2146101615780631f7b6d321461018c578063584874b7146101a2578063693ec85e146101b5575b600080fd5b600554600654600754600854600954600a54610105956001600160a01b03908116958116948116938116928116911686565b604080516001600160a01b03978816815295871660208701529386169385019390935290841660608401528316608083015290911660a082015260c0015b60405180910390f35b61015f61015a3660046113c5565b610233565b005b61017461016f36600461142f565b610288565b6040516001600160a01b039091168152602001610143565b61019461095a565b604051908152602001610143565b61015f6101b0366004611526565b61096b565b6101746101c33660046115c5565b610a1a565b61015f610a36565b6000546001600160a01b0316610174565b6001546001600160a01b0316610174565b610174610200366004611676565b610aaa565b61017461021336600461170f565b610f5d565b61015f610f73565b61015f61022e3660046113c5565b61104b565b6001546001600160a01b031633146102665760405162461bcd60e51b815260040161025d90611728565b60405180910390fd5b600080546001600160a01b0319166001600160a01b0392909216919091179055565b600061029687308787610aaa565b6008546040519192506000916001600160a01b03909116906102b79061135b565b6001600160a01b039091168152602001604051809103906000f0801580156102e3573d6000803e3d6000fd5b506009546040519192506000916001600160a01b039091169061030590611368565b6001600160a01b039091168152602001604051809103906000f080158015610331573d6000803e3d6000fd5b50600a546040519192506000916001600160a01b039091169061035390611375565b6001600160a01b039091168152602001604051809103906000f08015801561037f573d6000803e3d6000fd5b50600a546040519192506000916001600160a01b03909116906103a190611375565b6001600160a01b039091168152602001604051809103906000f0801580156103cd573d6000803e3d6000fd5b50905061041f6040518060e0016040528060608152602001606081526020016060815260200160608152602001600063ffffffff16815260200160006001600160a01b03168152602001606081525090565b610429878061175d565b8080601f01602080910402602001604051908101604052809392919081815260200183838082843760009201919091525050509082525061046d602088018861175d565b8080601f01602080910402602001604051908101604052809392919081815260200183838082843760009201919091525050505060208201526104b3604088018861175d565b8080601f01602080910402602001604051908101604052809392919081815260200183838082843760009201919091525050505060408201526104f9606088018861175d565b8080601f016020809104026020016040519081016040528093929190818152602001838380828437600092019190915250505050606082015261054260c0880160a089016117b8565b63ffffffff16608082015261055d60e0880160c089016113c5565b6001600160a01b031660a082015261057860e088018861175d565b8080601f01602080910402602001604051908101604052809392919081815260200183838082843760009201919091525050505060c08201526001600160a01b03851663f4c38e51876105cb8b8061175d565b60006040518563ffffffff1660e01b81526004016105ec94939291906117fc565b600060405180830381600087803b15801561060657600080fd5b505af115801561061a573d6000803e3d6000fd5b505060405163d71a195d60e01b81526001600160a01b038716925063d71a195d915061064f9089906000908690600401611920565b600060405180830381600087803b15801561066957600080fd5b505af115801561067d573d6000803e3d6000fd5b5050604051634c1bfae160e11b81526001600160a01b0385169250639837f5c291506106b5908990600090600290879060040161194c565b600060405180830381600087803b1580156106cf57600080fd5b505af11580156106e3573d6000803e3d6000fd5b506106f89250505060a08801608089016117b8565b63ffffffff166080820152604051634c1bfae160e11b81526001600160a01b03841690639837f5c290610737908990600090600190879060040161194c565b600060405180830381600087803b15801561075157600080fd5b505af1158015610765573d6000803e3d6000fd5b50506040516305d2916360e41b8152600260048201526001600160a01b03888116602483015289169250635d2916309150604401600060405180830381600087803b1580156107b357600080fd5b505af11580156107c7573d6000803e3d6000fd5b50506040516305d2916360e41b8152600360048201526001600160a01b03878116602483015289169250635d2916309150604401600060405180830381600087803b15801561081557600080fd5b505af1158015610829573d6000803e3d6000fd5b50506040516305d2916360e41b81526004808201526001600160a01b03868116602483015289169250635d2916309150604401600060405180830381600087803b15801561087657600080fd5b505af115801561088a573d6000803e3d6000fd5b50506040516305d2916360e41b8152600560048201526001600160a01b03858116602483015289169250635d2916309150604401600060405180830381600087803b1580156108d857600080fd5b505af11580156108ec573d6000803e3d6000fd5b505060405163b3ab15fb60e01b81526001600160a01b038e811660048301528916925063b3ab15fb9150602401600060405180830381600087803b15801561093357600080fd5b505af1158015610947573d6000803e3d6000fd5b5050505050505050509695505050505050565b60006109666002611136565b905090565b6001546001600160a01b031633146109955760405162461bcd60e51b815260040161025d90611728565b8051600580546001600160a01b03199081166001600160a01b0393841617909155602083015160068054831691841691909117905560408301516007805483169184169190911790556060830151600880548316918416919091179055608083015160098054831691841691909117905560a090920151600a80549093169116179055565b80516020820120600090610a3090600290611141565b92915050565b6001546001600160a01b03163314610a605760405162461bcd60e51b815260040161025d90611728565b6001546040516000916001600160a01b0316907f8be0079c531659141344cd1fd0a4f28419497f9722a3daafe3b4186f6b6457e0908390a3600180546001600160a01b0319169055565b600080610ab7868061175d565b604051610ac59291906119a4565b6040519081900390209050610adb600282611154565b15610b4e5760405162461bcd60e51b815260206004820152603760248201527f2344414f73236465706c6f792044414f207769746820636f72726573706f6e6460448201527f696e67206e616d6520616c726561647920657869737473000000000000000000606482015260840161025d565b6005546040516001600160a01b0390911690610b6990611382565b6001600160a01b039091168152602001604051809103906000f080158015610b95573d6000803e3d6000fd5b506006546040519193506000916001600160a01b0390911690610bb79061138f565b6001600160a01b039091168152602001604051809103906000f080158015610be3573d6000803e3d6000fd5b506007546040519192506000916001600160a01b0390911690610c059061139c565b6001600160a01b039091168152602001604051809103906000f080158015610c31573d6000803e3d6000fd5b5090506001600160a01b03821663b641ee4285610c4e898061175d565b610c5b60208c018c61175d565b610c6860408e018e61175d565b60008f8060600190610c7a91906119b4565b6040518b63ffffffff1660e01b8152600401610c9f9a99989796959493929190611abf565b600060405180830381600087803b158015610cb957600080fd5b505af1158015610ccd573d6000803e3d6000fd5b5050506001600160a01b0382169050636c4a609485610cec888061175d565b89602001356040518563ffffffff1660e01b8152600401610d109493929190611c69565b600060405180830381600087803b158015610d2a57600080fd5b505af1158015610d3e573d6000803e3d6000fd5b5050506001600160a01b0385169050638ad15960610d5c8a8061175d565b610d6960208d018d61175d565b610d7660408f018f61175d565b888f8b6040518a63ffffffff1660e01b8152600401610d9d99989796959493929190611c9f565b600060405180830381600087803b158015610db757600080fd5b505af1158015610dcb573d6000803e3d6000fd5b50610dde92506002915085905086611160565b50608086013515610e47576040516303ee229360e11b8152608087013560048201526001600160a01b038316906307dc452690602401600060405180830381600087803b158015610e2e57600080fd5b505af1158015610e42573d6000803e3d6000fd5b505050505b6001600160a01b0384166371adb5e6610e6360608b018b61175d565b6040518363ffffffff1660e01b8152600401610e80929190611d0a565b600060405180830381600087803b158015610e9a57600080fd5b505af1158015610eae573d6000803e3d6000fd5b5050506001600160a01b038516905063bde4d603610ecf60808b018b61175d565b6040518363ffffffff1660e01b8152600401610eec929190611d0a565b600060405180830381600087803b158015610f0657600080fd5b505af1158015610f1a573d6000803e3d6000fd5b50506040516001600160a01b03871692507f1449abf21e49fd025f33495e77f7b1461caefdd3d4bb646424a3f445c4576a5b9150600090a2505050949350505050565b600080610f6b600284611176565b949350505050565b600054600160a81b900460ff1680610f8a5750303b155b80610f9f5750600054600160a01b900460ff16155b6110025760405162461bcd60e51b815260206004820152602e60248201527f436f6e747261637420696e7374616e63652068617320616c726561647920626560448201526d195b881a5b9a5d1a585b1a5e995960921b606482015260840161025d565b600054600160a81b900460ff1615801561102c576000805461ffff60a01b191661010160a01b1790555b611034611194565b8015611048576000805460ff60a81b191690555b50565b6001546001600160a01b031633146110755760405162461bcd60e51b815260040161025d90611728565b6001600160a01b0381166110da5760405162461bcd60e51b815260206004820152602660248201527f4f776e61626c653a206e6577206f776e657220697320746865207a65726f206160448201526564647265737360d01b606482015260840161025d565b6001546040516001600160a01b038084169216907f8be0079c531659141344cd1fd0a4f28419497f9722a3daafe3b4186f6b6457e090600090a3600180546001600160a01b0319166001600160a01b0392909216919091179055565b6000610a30826111d9565b600061114d83836111e4565b9392505050565b600061114d8383611254565b6000610f6b84846001600160a01b038516611260565b6000808080611185868661127d565b909450925050505b9250929050565b600180546001600160a01b0319163390811790915560405181906000907f8be0079c531659141344cd1fd0a4f28419497f9722a3daafe3b4186f6b6457e0908290a350565b6000610a30826112a8565b60008181526002830160205260408120548015158061120857506112088484611254565b61114d5760405162461bcd60e51b815260206004820152601e60248201527f456e756d657261626c654d61703a206e6f6e6578697374656e74206b65790000604482015260640161025d565b600061114d83836112b2565b60008281526002840160205260408120829055610f6b84846112ca565b6000808061128b85856112d6565b600081815260029690960160205260409095205494959350505050565b6000610a30825490565b6000818152600183016020526040812054151561114d565b600061114d83836112e2565b600061114d8383611331565b600081815260018301602052604081205461132957508154600181810184556000848152602080822090930184905584548482528286019093526040902091909155610a30565b506000610a30565b600082600001828154811061134857611348611d1e565b9060005260206000200154905092915050565b61015380611d3583390190565b61015380611e8883390190565b61015380611fdb83390190565b6101538061212e83390190565b6101538061228183390190565b610153806123d483390190565b80356001600160a01b03811681146113c057600080fd5b919050565b6000602082840312156113d757600080fd5b61114d826113a9565b600060a082840312156113f257600080fd5b50919050565b6000604082840312156113f257600080fd5b6000602082840312156113f257600080fd5b600061010082840312156113f257600080fd5b60008060008060008060c0878903121561144857600080fd5b863567ffffffffffffffff8082111561146057600080fd5b61146c8a838b016113e0565b975061147a60208a016113a9565b9650604089013591508082111561149057600080fd5b61149c8a838b016113e0565b955060608901359150808211156114b257600080fd5b6114be8a838b016113f8565b945060808901359150808211156114d457600080fd5b6114e08a838b0161140a565b935060a08901359150808211156114f657600080fd5b5061150389828a0161141c565b9150509295509295509295565b634e487b7160e01b600052604160045260246000fd5b600060c0828403121561153857600080fd5b60405160c0810181811067ffffffffffffffff8211171561155b5761155b611510565b604052611567836113a9565b8152611575602084016113a9565b6020820152611586604084016113a9565b6040820152611597606084016113a9565b60608201526115a8608084016113a9565b60808201526115b960a084016113a9565b60a08201529392505050565b6000602082840312156115d757600080fd5b813567ffffffffffffffff808211156115ef57600080fd5b818401915084601f83011261160357600080fd5b81358181111561161557611615611510565b604051601f8201601f19908116603f0116810190838211818310171561163d5761163d611510565b8160405282815287602084870101111561165657600080fd5b826020860160208301376000928101602001929092525095945050505050565b6000806000806080858703121561168c57600080fd5b843567ffffffffffffffff808211156116a457600080fd5b6116b0888389016113e0565b95506116be602088016113a9565b945060408701359150808211156116d457600080fd5b6116e0888389016113e0565b935060608701359150808211156116f657600080fd5b50611703878288016113f8565b91505092959194509250565b60006020828403121561172157600080fd5b5035919050565b6020808252818101527f4f776e61626c653a2063616c6c6572206973206e6f7420746865206f776e6572604082015260600190565b6000808335601e1984360301811261177457600080fd5b83018035915067ffffffffffffffff82111561178f57600080fd5b60200191503681900382131561118d57600080fd5b803563ffffffff811681146113c057600080fd5b6000602082840312156117ca57600080fd5b61114d826117a4565b81835281816020850137506000828201602090810191909152601f909101601f19169091010190565b600060018060a01b0380871683526060602084015261181f6060840186886117d3565b915080841660408401525095945050505050565b6000815180845260005b818110156118595760208185018101518683018201520161183d565b506000602082860101526020601f19601f83011685010191505092915050565b6000815160e0845261188e60e0850182611833565b9050602083015184820360208601526118a78282611833565b915050604083015184820360408601526118c18282611833565b915050606083015184820360608601526118db8282611833565b91505063ffffffff608084015116608085015260018060a01b0360a08401511660a085015260c083015184820360c08601526119178282611833565b95945050505050565b6001600160a01b0384811682528316602082015260606040820181905260009061191790830184611879565b6001600160a01b0385811682528416602082015260006003841061198057634e487b7160e01b600052602160045260246000fd5b8360408301526080606083015261199a6080830184611879565b9695505050505050565b8183823760009101908152919050565b6000808335601e198436030181126119cb57600080fd5b83018035915067ffffffffffffffff8211156119e657600080fd5b6020019150600581901b360382131561118d57600080fd5b6000808335601e19843603018112611a1557600080fd5b830160208101925035905067ffffffffffffffff811115611a3557600080fd5b80360382131561118d57600080fd5b6000808335601e19843603018112611a5b57600080fd5b830160208101925035905067ffffffffffffffff811115611a7b57600080fd5b8060051b360382131561118d57600080fd5b81835260006001600160fb1b03831115611aa657600080fd5b8260051b80836020870137939093016020019392505050565b600060018060a01b03808d168352602060c081850152611ae360c085018d8f6117d3565b604085820381870152611af7828d8f6117d3565b9150606086830381880152611b0d838c8e6117d3565b8a8616608089015287810360a08901528881529250838301600589901b840185018a60005b8b811015611c4e57868303601f190184528135368e9003605e19018112611b5857600080fd5b8d0189611b64826113a9565b16845288810135609e19823603018112611b7d57600080fd5b848a018790528101803585880152611b978a8201826119fe565b60a06080880152611bad610100880182846117d3565b915050611bbc898301836119fe565b605f19808985030160a08a0152611bd48483856117d3565b9350611be28b8601866119fe565b93509150808985030160c08a015250611bfc8383836117d3565b9250505063ffffffff611c11608084016117a4565b1660e0870152611c2389840184611a44565b9350915085810389870152611c39818484611a8d565b968b0196955050509188019150600101611b32565b5050809750505050505050509b9a5050505050505050505050565b6001600160a01b0385168152606060208201819052600090611c8e90830185876117d3565b905082604083015295945050505050565b60c081526000611cb360c083018b8d6117d3565b8281036020840152611cc6818a8c6117d3565b90508281036040840152611cdb81888a6117d3565b6001600160a01b03968716606085015294861660808401525050921660a0909201919091529695505050505050565b602081526000610f6b6020830184866117d3565b634e487b7160e01b600052603260045260246000fdfe608060405234801561001057600080fd5b5060405161015338038061015383398101604081905261002f91610054565b600080546001600160a01b0319166001600160a01b0392909216919091179055610084565b60006020828403121561006657600080fd5b81516001600160a01b038116811461007d57600080fd5b9392505050565b60c1806100926000396000f3fe60806040526000805460405182916001600160a01b03169060229083903690607b565b600060405180830381855af49150503d8060008114605b576040519150601f19603f3d011682016040523d82523d6000602084013e6060565b606091505b509150915080516020820183600081146077578282f35b8282fd5b818382376000910190815291905056fea26469706673582212208a3f49b7a3a64bf3b8c09cacf43614c9e59fb31512d481b816224194e4c9b1e964736f6c63430008110033608060405234801561001057600080fd5b5060405161015338038061015383398101604081905261002f91610054565b600080546001600160a01b0319166001600160a01b0392909216919091179055610084565b60006020828403121561006657600080fd5b81516001600160a01b038116811461007d57600080fd5b9392505050565b60c1806100926000396000f3fe60806040526000805460405182916001600160a01b03169060229083903690607b565b600060405180830381855af49150503d8060008114605b576040519150601f19603f3d011682016040523d82523d6000602084013e6060565b606091505b509150915080516020820183600081146077578282f35b8282fd5b818382376000910190815291905056fea2646970667358221220740b0a83ef715b76d50dc5661784a9fea69d133f96f2fa16164f5d4fdc92c09064736f6c63430008110033608060405234801561001057600080fd5b5060405161015338038061015383398101604081905261002f91610054565b600080546001600160a01b0319166001600160a01b0392909216919091179055610084565b60006020828403121561006657600080fd5b81516001600160a01b038116811461007d57600080fd5b9392505050565b60c1806100926000396000f3fe60806040526000805460405182916001600160a01b03169060229083903690607b565b600060405180830381855af49150503d8060008114605b576040519150601f19603f3d011682016040523d82523d6000602084013e6060565b606091505b509150915080516020820183600081146077578282f35b8282fd5b818382376000910190815291905056fea26469706673582212207d2e7d27826742a28949effc27aa3f880ad62d7e7d776e655a7a724d75cb2be764736f6c63430008110033608060405234801561001057600080fd5b5060405161015338038061015383398101604081905261002f91610054565b600080546001600160a01b0319166001600160a01b0392909216919091179055610084565b60006020828403121561006657600080fd5b81516001600160a01b038116811461007d57600080fd5b9392505050565b60c1806100926000396000f3fe60806040526000805460405182916001600160a01b03169060229083903690607b565b600060405180830381855af49150503d8060008114605b576040519150601f19603f3d011682016040523d82523d6000602084013e6060565b606091505b509150915080516020820183600081146077578282f35b8282fd5b818382376000910190815291905056fea2646970667358221220135a51627d3928bed4bf452cc8422108eb826e4be324528925ac416212d6f74e64736f6c63430008110033608060405234801561001057600080fd5b5060405161015338038061015383398101604081905261002f91610054565b600080546001600160a01b0319166001600160a01b0392909216919091179055610084565b60006020828403121561006657600080fd5b81516001600160a01b038116811461007d57600080fd5b9392505050565b60c1806100926000396000f3fe60806040526000805460405182916001600160a01b03169060229083903690607b565b600060405180830381855af49150503d8060008114605b576040519150601f19603f3d011682016040523d82523d6000602084013e6060565b606091505b509150915080516020820183600081146077578282f35b8282fd5b818382376000910190815291905056fea2646970667358221220a8078ad685c9bc6f5b98629a66c5f1b6944e2141600940fc7f47be2cb7c8b3f164736f6c63430008110033608060405234801561001057600080fd5b5060405161015338038061015383398101604081905261002f91610054565b600080546001600160a01b0319166001600160a01b0392909216919091179055610084565b60006020828403121561006657600080fd5b81516001600160a01b038116811461007d57600080fd5b9392505050565b60c1806100926000396000f3fe60806040526000805460405182916001600160a01b03169060229083903690607b565b600060405180830381855af49150503d8060008114605b576040519150601f19603f3d011682016040523d82523d6000602084013e6060565b606091505b509150915080516020820183600081146077578282f35b8282fd5b818382376000910190815291905056fea2646970667358221220e4d234faebfd5299c6f17923584ebb789404c5b90139f3a54f4df66c87e0283864736f6c63430008110033a2646970667358221220398d0fcd2570061fc1b4d2241736ca2321c30a56f7e8a3ecf1b107573f4af11f64736f6c63430008110033",
  "immutableReferences": {},
  "source": "// SPDX-License-Identifier: MIT\npragma solidity 0.8.17;\n\n// import '../openzeppelin/contracts/utils/structs/EnumerableSet.sol';\nimport './libs/Ownable.sol';\n// Module impl\nimport './DAO.sol';\nimport './Asset.sol';\nimport './AssetShell.sol';\nimport './Ledger.sol';\nimport './Member.sol';\nimport './VotePool.sol';\n// Proxy\nimport './gen/DAOProxy.sol';\nimport './gen/AssetProxy.sol';\nimport './gen/AssetShellProxy.sol';\nimport './gen/LedgerProxy.sol';\nimport './gen/MemberProxy.sol';\nimport './gen/VotePoolProxy.sol';\n\n/**\n * @title DAOs contract global DAOs manage\n */\ncontract DAOs is Upgrade, Initializable, Ownable, IDAOs {\n\t// using EnumerableSet for EnumerableSet.AddressSet;\n\tusing EnumerableMap for EnumerableMap.UintToAddressMap;\n\n\tstruct DAOIMPLs {\n\t\taddress   DAO;\n\t\taddress   Member;\n\t\taddress   VotePool;\n\t\taddress   Ledger;\n\t\taddress   Asset;\n\t\taddress   AssetShell;\n\t}\n\n\tstruct InitDAOArgs {\n\t\tstring name;\n\t\tstring mission;\n\t\tstring description;\n\t\tstring image;\n\t\tbytes  extend;\n\t}\n\n\tstruct InitMemberArgs {\n\t\tstring name;\n\t\tstring description;\n\t\tstring baseURI;\n\t\tMember.MintMemberArgs[] members;\n\t\tuint256 executor;\n\t}\n\n\tstruct InitVotePoolArgs {\n\t\tstring  description;\n\t\tuint256 lifespan;\n\t}\n\n\tstruct InitLedgerArgs {\n\t\tstring  description;\n\t}\n\n\tstruct InitAssetArgs {\n\t\tstring  name;\n\t\tstring  description;\n\t\tstring  image;\n\t\tstring  external_link;\n\t\tuint32  seller_fee_basis_points_first;\n\t\tuint32  seller_fee_basis_points_second;\n\t\taddress fee_recipient;\n\t\tstring  contractURIPrefix;\n\t}\n\n\tEnumerableMap.UintToAddressMap private  _DAOs; // global DAOs list\n\tDAOIMPLs                       public   defaultIMPLs; // default logic impl\n\tuint256[50]                    private  __; // reserved storage space\n\n\tfunction initDAOs() external initializer {\n\t\tinitOwnable();\n\t}\n\n\tfunction setDefaultIMPLs(DAOIMPLs memory IMPLs) public onlyOwner {\n\t\tdefaultIMPLs = IMPLs;\n\t}\n\n\t/**\n\t * @dev deploy() deploy common voting DAO\n\t */\n\tfunction deploy(\n\t\tInitDAOArgs      calldata    daoArgs,           address                      operator,\n\t\tInitMemberArgs   calldata    memberArgs,        InitVotePoolArgs calldata    votePoolArgs\n\t) public returns (DAO host) {\n\t\tuint256 id = uint256(keccak256(bytes(daoArgs.name)));\n\n\t\trequire(!_DAOs.contains(id), \"#DAOs#deploy DAO with corresponding name already exists\");\n\n\t\thost          = DAO( address(new DAOProxy(defaultIMPLs.DAO)) );\n\t\tMember member = Member( address(new MemberProxy(defaultIMPLs.Member)) );\n\t\tVotePool root = VotePool( address(new VotePoolProxy(defaultIMPLs.VotePool)) );\n\n\t\tmember.initMember(address(host), memberArgs.name, memberArgs.description, memberArgs.baseURI, address(0), memberArgs.members);\n\t\troot.initVotePool(address(host), votePoolArgs.description, votePoolArgs.lifespan);\n\t\thost.initDAO(daoArgs.name, daoArgs.mission, daoArgs.description, address(root), operator, address(member));\n\n\t\t_DAOs.set(id, address(host));\n\n\t\tif (memberArgs.executor != 0)\n\t\t\tmember.setExecutor(memberArgs.executor);\n\n\t\thost.setImage(daoArgs.image);\n\t\thost.setExtend(daoArgs.extend);\n\n\t\temit Created(address(host));\n\t}\n\n\t/**\n\t * @dev makeAssetSales() deploy asset sales DAO\n\t */\n\tfunction deployAssetSalesDAO(\n\t\tInitDAOArgs        calldata    daoArgs,           address                        operator,\n\t\tInitMemberArgs     calldata    memberArgs,        InitVotePoolArgs   calldata    votePoolArgs,\n\t\tInitLedgerArgs     calldata    ledgerArgs,        InitAssetArgs      calldata    assetArgs\n\t) public returns (DAO host) {\n\n\t\thost = deploy(daoArgs, address(this), memberArgs, votePoolArgs);\n\t\t// sales\n\t\tLedger      ledger      = Ledger( payable(address(new LedgerProxy(defaultIMPLs.Ledger))) );\n\t\tAsset       asset       = Asset( address(new AssetProxy(defaultIMPLs.Asset)));\n\t\tAssetShell  assetFirst  = AssetShell( payable(address(new AssetShellProxy(defaultIMPLs.AssetShell))));\n\t\tAssetShell  assetSecond = AssetShell( payable(address(new AssetShellProxy(defaultIMPLs.AssetShell))));\n\n\t\tAssetBase.InitContractURI memory uri;\n\t\turi.name                    = assetArgs.name;\n\t\turi.description             = assetArgs.description;\n\t\turi.image                   = assetArgs.image;\n\t\turi.external_link           = assetArgs.external_link;\n\t\turi.seller_fee_basis_points = assetArgs.seller_fee_basis_points_second;\n\t\turi.fee_recipient           = assetArgs.fee_recipient;\n\t\turi.contractURIPrefix       = assetArgs.contractURIPrefix;\n\n\t\tledger.initLedger(address(host), ledgerArgs.description, address(0));\n\t\tasset.initAsset(address(host), address(0), uri);\n\t\tassetSecond.initAssetShell(address(host), address(0), IAssetShell.SaleType.kSecond, uri);\n\n\t\turi.seller_fee_basis_points = assetArgs.seller_fee_basis_points_first;\n\n\t\tassetFirst.initAssetShell(address(host), address(0), IAssetShell.SaleType.kFirst, uri);\n\n\t\t// set modules\n\t\thost.setModule(Module_LEDGER_ID, address(ledger));\n\t\thost.setModule(Module_ASSET_ID, address(asset));\n\t\thost.setModule(Module_ASSET_First_ID, address(assetFirst));\n\t\thost.setModule(Module_ASSET_Second_ID, address(assetSecond));\n\n\t\thost.setOperator(operator); // change to raw operator\n\t}\n\n\t/**\n\t * @dev length() Returns DAOs length\n\t */\n\tfunction length() view public returns (uint256) {\n\t\treturn _DAOs.length();\n\t}\n\n\t/**\n\t * @dev contains(address) is contains dao address\n\t */\n\tfunction get(string memory name) view public returns (DAO) {\n\t\treturn DAO(_DAOs.get(uint256(keccak256(bytes(name)))));\n\t}\n\n\t/**\n\t * @dev at(id) get DAO object from index\n\t * @param index uint256 dao index\n\t * @return Returns the IDAO interface address and key\n\t */\n\tfunction at(uint256 index) view external returns (DAO) {\n\t\taddress addr;\n\t\t(, addr) = _DAOs.at(index);\n\t\treturn DAO(addr);\n\t}\n\n\t/**\n\t * @dev Returns the implementation contract address\n\t */\n\tfunction impl() view external returns (address) {\n\t\treturn _impl;\n\t}\n\n\t/**\n\t * @dev upgrade(address) upgrade contracts\n\t */\n\tfunction upgrade(address impl) public onlyOwner {\n\t\t_impl = impl;\n\t}\n}",
  "sourcePath": "/Users/louis/Project/hc/NFTSwap/SmartHolder/contracts/DAOs.sol",
  "compiler": {
    "name": "solc",
    "version": "0.8.17+commit.8df45f5f.Emscripten.clang"
  },
  "schemaVersion": "3.4.11",
  "updatedAt": "2023-03-20T04:29:27.844Z",
  "networkType": "ethereum",
  "devdoc": {
    "kind": "dev",
    "methods": {
      "at(uint256)": {
        "details": "at(id) get DAO object from index",
        "params": {
          "index": "uint256 dao index"
        },
        "returns": {
          "_0": "Returns the IDAO interface address and key"
        }
      },
      "deploy((string,string,string,string,bytes),address,(string,string,string,(address,(uint256,string,string,string,uint32),uint256[])[],uint256),(string,uint256))": {
        "details": "deploy() deploy common voting DAO"
      },
      "deployAssetSalesDAO((string,string,string,string,bytes),address,(string,string,string,(address,(uint256,string,string,string,uint32),uint256[])[],uint256),(string,uint256),(string),(string,string,string,string,uint32,uint32,address,string))": {
        "details": "makeAssetSales() deploy asset sales DAO"
      },
      "get(string)": {
        "details": "contains(address) is contains dao address"
      },
      "impl()": {
        "details": "Returns the implementation contract address"
      },
      "length()": {
        "details": "length() Returns DAOs length"
      },
      "owner()": {
        "details": "Returns the address of the current owner."
      },
      "renounceOwnership()": {
        "details": "Leaves the contract without owner. It will not be possible to call `onlyOwner` functions anymore. Can only be called by the current owner. NOTE: Renouncing ownership will leave the contract without an owner, thereby removing any functionality that is only available to the owner."
      },
      "transferOwnership(address)": {
        "details": "Transfers ownership of the contract to a new account (`newOwner`). Can only be called by the current owner."
      },
      "upgrade(address)": {
        "details": "upgrade(address) upgrade contracts"
      }
    },
    "title": "DAOs contract global DAOs manage",
    "version": 1
  },
  "userdoc": {
    "kind": "user",
    "methods": {},
    "version": 1
  }
}