{
  "contractName": "DAOs",
  "abi": [
    {
      "inputs": [],
      "name": "AddressEmpty",
      "type": "error"
    },
    {
      "inputs": [],
      "name": "OnlyOwnerAvailable",
      "type": "error"
    },
    {
      "anonymous": false,
      "inputs": [
        {
          "indexed": true,
          "internalType": "address",
          "name": "dao",
          "type": "address"
        }
      ],
      "name": "Created",
      "type": "event"
    },
    {
      "anonymous": false,
      "inputs": [
        {
          "indexed": false,
          "internalType": "uint8",
          "name": "version",
          "type": "uint8"
        }
      ],
      "name": "Initialized",
      "type": "event"
    },
    {
      "anonymous": false,
      "inputs": [
        {
          "indexed": true,
          "internalType": "address",
          "name": "previousOwner",
          "type": "address"
        },
        {
          "indexed": true,
          "internalType": "address",
          "name": "newOwner",
          "type": "address"
        }
      ],
      "name": "OwnershipTransferred",
      "type": "event"
    },
    {
      "inputs": [],
      "name": "defaultIMPLs",
      "outputs": [
        {
          "internalType": "address",
          "name": "DAO",
          "type": "address"
        },
        {
          "internalType": "address",
          "name": "Member",
          "type": "address"
        },
        {
          "internalType": "address",
          "name": "VotePool",
          "type": "address"
        },
        {
          "internalType": "address",
          "name": "Ledger",
          "type": "address"
        },
        {
          "internalType": "address",
          "name": "Asset",
          "type": "address"
        },
        {
          "internalType": "address",
          "name": "AssetShell",
          "type": "address"
        },
        {
          "internalType": "address",
          "name": "Share",
          "type": "address"
        }
      ],
      "stateMutability": "view",
      "type": "function"
    },
    {
      "inputs": [],
      "name": "owner",
      "outputs": [
        {
          "internalType": "address",
          "name": "",
          "type": "address"
        }
      ],
      "stateMutability": "view",
      "type": "function"
    },
    {
      "inputs": [],
      "name": "renounceOwnership",
      "outputs": [],
      "stateMutability": "nonpayable",
      "type": "function"
    },
    {
      "inputs": [
        {
          "internalType": "address",
          "name": "newOwner",
          "type": "address"
        }
      ],
      "name": "transferOwnership",
      "outputs": [],
      "stateMutability": "nonpayable",
      "type": "function"
    },
    {
      "inputs": [],
      "name": "initDAOs",
      "outputs": [],
      "stateMutability": "nonpayable",
      "type": "function"
    },
    {
      "inputs": [
        {
          "components": [
            {
              "internalType": "address",
              "name": "DAO",
              "type": "address"
            },
            {
              "internalType": "address",
              "name": "Member",
              "type": "address"
            },
            {
              "internalType": "address",
              "name": "VotePool",
              "type": "address"
            },
            {
              "internalType": "address",
              "name": "Ledger",
              "type": "address"
            },
            {
              "internalType": "address",
              "name": "Asset",
              "type": "address"
            },
            {
              "internalType": "address",
              "name": "AssetShell",
              "type": "address"
            },
            {
              "internalType": "address",
              "name": "Share",
              "type": "address"
            }
          ],
          "internalType": "struct DAOs.DAOIMPLs",
          "name": "IMPLs",
          "type": "tuple"
        }
      ],
      "name": "setDefaultIMPLs",
      "outputs": [],
      "stateMutability": "nonpayable",
      "type": "function"
    },
    {
      "inputs": [
        {
          "components": [
            {
              "internalType": "string",
              "name": "name",
              "type": "string"
            },
            {
              "internalType": "string",
              "name": "mission",
              "type": "string"
            },
            {
              "internalType": "string",
              "name": "description",
              "type": "string"
            },
            {
              "internalType": "string",
              "name": "image",
              "type": "string"
            },
            {
              "internalType": "bytes",
              "name": "extend",
              "type": "bytes"
            },
            {
              "internalType": "address",
              "name": "unlockOperator",
              "type": "address"
            }
          ],
          "internalType": "struct DAO.InitDAOArgs",
          "name": "daoArgs",
          "type": "tuple"
        },
        {
          "internalType": "address",
          "name": "operator",
          "type": "address"
        },
        {
          "components": [
            {
              "internalType": "string",
              "name": "name",
              "type": "string"
            },
            {
              "internalType": "string",
              "name": "description",
              "type": "string"
            },
            {
              "internalType": "string",
              "name": "baseURI",
              "type": "string"
            },
            {
              "components": [
                {
                  "internalType": "address",
                  "name": "owner",
                  "type": "address"
                },
                {
                  "components": [
                    {
                      "internalType": "uint256",
                      "name": "id",
                      "type": "uint256"
                    },
                    {
                      "internalType": "string",
                      "name": "name",
                      "type": "string"
                    },
                    {
                      "internalType": "string",
                      "name": "description",
                      "type": "string"
                    },
                    {
                      "internalType": "string",
                      "name": "image",
                      "type": "string"
                    },
                    {
                      "internalType": "uint32",
                      "name": "votes",
                      "type": "uint32"
                    }
                  ],
                  "internalType": "struct IMember.Info",
                  "name": "info",
                  "type": "tuple"
                },
                {
                  "internalType": "uint256[]",
                  "name": "permissions",
                  "type": "uint256[]"
                }
              ],
              "internalType": "struct Member.MintMemberArgs[]",
              "name": "members",
              "type": "tuple[]"
            },
            {
              "internalType": "uint256",
              "name": "executor",
              "type": "uint256"
            }
          ],
          "internalType": "struct DAOs.InitMemberArgs",
          "name": "memberArgs",
          "type": "tuple"
        },
        {
          "components": [
            {
              "internalType": "string",
              "name": "description",
              "type": "string"
            },
            {
              "internalType": "uint256",
              "name": "lifespan",
              "type": "uint256"
            }
          ],
          "internalType": "struct DAOs.InitVotePoolArgs",
          "name": "votePoolArgs",
          "type": "tuple"
        }
      ],
      "name": "deploy",
      "outputs": [
        {
          "internalType": "contract DAO",
          "name": "host",
          "type": "address"
        }
      ],
      "stateMutability": "nonpayable",
      "type": "function"
    },
    {
      "inputs": [
        {
          "components": [
            {
              "internalType": "string",
              "name": "name",
              "type": "string"
            },
            {
              "internalType": "string",
              "name": "mission",
              "type": "string"
            },
            {
              "internalType": "string",
              "name": "description",
              "type": "string"
            },
            {
              "internalType": "string",
              "name": "image",
              "type": "string"
            },
            {
              "internalType": "bytes",
              "name": "extend",
              "type": "bytes"
            },
            {
              "internalType": "address",
              "name": "unlockOperator",
              "type": "address"
            }
          ],
          "internalType": "struct DAO.InitDAOArgs",
          "name": "daoArgs",
          "type": "tuple"
        },
        {
          "internalType": "address",
          "name": "operator",
          "type": "address"
        },
        {
          "components": [
            {
              "internalType": "string",
              "name": "name",
              "type": "string"
            },
            {
              "internalType": "string",
              "name": "description",
              "type": "string"
            },
            {
              "internalType": "string",
              "name": "baseURI",
              "type": "string"
            },
            {
              "components": [
                {
                  "internalType": "address",
                  "name": "owner",
                  "type": "address"
                },
                {
                  "components": [
                    {
                      "internalType": "uint256",
                      "name": "id",
                      "type": "uint256"
                    },
                    {
                      "internalType": "string",
                      "name": "name",
                      "type": "string"
                    },
                    {
                      "internalType": "string",
                      "name": "description",
                      "type": "string"
                    },
                    {
                      "internalType": "string",
                      "name": "image",
                      "type": "string"
                    },
                    {
                      "internalType": "uint32",
                      "name": "votes",
                      "type": "uint32"
                    }
                  ],
                  "internalType": "struct IMember.Info",
                  "name": "info",
                  "type": "tuple"
                },
                {
                  "internalType": "uint256[]",
                  "name": "permissions",
                  "type": "uint256[]"
                }
              ],
              "internalType": "struct Member.MintMemberArgs[]",
              "name": "members",
              "type": "tuple[]"
            },
            {
              "internalType": "uint256",
              "name": "executor",
              "type": "uint256"
            }
          ],
          "internalType": "struct DAOs.InitMemberArgs",
          "name": "memberArgs",
          "type": "tuple"
        },
        {
          "components": [
            {
              "internalType": "string",
              "name": "description",
              "type": "string"
            },
            {
              "internalType": "uint256",
              "name": "lifespan",
              "type": "uint256"
            }
          ],
          "internalType": "struct DAOs.InitVotePoolArgs",
          "name": "votePoolArgs",
          "type": "tuple"
        },
        {
          "components": [
            {
              "internalType": "string",
              "name": "description",
              "type": "string"
            }
          ],
          "internalType": "struct DAOs.InitLedgerArgs",
          "name": "ledgerArgs",
          "type": "tuple"
        },
        {
          "components": [
            {
              "internalType": "string",
              "name": "name",
              "type": "string"
            },
            {
              "internalType": "string",
              "name": "description",
              "type": "string"
            },
            {
              "internalType": "string",
              "name": "image",
              "type": "string"
            },
            {
              "internalType": "string",
              "name": "external_link",
              "type": "string"
            },
            {
              "internalType": "uint32",
              "name": "seller_fee_basis_points_first",
              "type": "uint32"
            },
            {
              "internalType": "uint32",
              "name": "seller_fee_basis_points_second",
              "type": "uint32"
            },
            {
              "internalType": "address",
              "name": "fee_recipient",
              "type": "address"
            },
            {
              "internalType": "string",
              "name": "base_contract_uri",
              "type": "string"
            },
            {
              "internalType": "string",
              "name": "base_uri",
              "type": "string"
            }
          ],
          "internalType": "struct DAOs.InitAssetArgs",
          "name": "assetArgs",
          "type": "tuple"
        }
      ],
      "name": "deployAssetSalesDAO",
      "outputs": [
        {
          "internalType": "contract DAO",
          "name": "host",
          "type": "address"
        }
      ],
      "stateMutability": "nonpayable",
      "type": "function"
    },
    {
      "inputs": [
        {
          "internalType": "contract IDAO",
          "name": "host",
          "type": "address"
        },
        {
          "internalType": "address",
          "name": "operator",
          "type": "address"
        },
        {
          "internalType": "uint256",
          "name": "totalSupply",
          "type": "uint256"
        },
        {
          "internalType": "uint256",
          "name": "maxSupply",
          "type": "uint256"
        },
        {
          "internalType": "string",
          "name": "name",
          "type": "string"
        },
        {
          "internalType": "string",
          "name": "symbol",
          "type": "string"
        },
        {
          "internalType": "string",
          "name": "description",
          "type": "string"
        }
      ],
      "name": "deployShare",
      "outputs": [
        {
          "internalType": "address",
          "name": "",
          "type": "address"
        }
      ],
      "stateMutability": "nonpayable",
      "type": "function"
    },
    {
      "inputs": [],
      "name": "length",
      "outputs": [
        {
          "internalType": "uint256",
          "name": "",
          "type": "uint256"
        }
      ],
      "stateMutability": "view",
      "type": "function"
    },
    {
      "inputs": [
        {
          "internalType": "string",
          "name": "name",
          "type": "string"
        }
      ],
      "name": "get",
      "outputs": [
        {
          "internalType": "contract DAO",
          "name": "",
          "type": "address"
        }
      ],
      "stateMutability": "view",
      "type": "function"
    },
    {
      "inputs": [
        {
          "internalType": "uint256",
          "name": "index",
          "type": "uint256"
        }
      ],
      "name": "at",
      "outputs": [
        {
          "internalType": "contract DAO",
          "name": "",
          "type": "address"
        }
      ],
      "stateMutability": "view",
      "type": "function"
    },
    {
      "inputs": [],
      "name": "impl",
      "outputs": [
        {
          "internalType": "address",
          "name": "",
          "type": "address"
        }
      ],
      "stateMutability": "view",
      "type": "function"
    },
    {
      "inputs": [
        {
          "internalType": "address",
          "name": "impl_",
          "type": "address"
        }
      ],
      "name": "upgrade",
      "outputs": [],
      "stateMutability": "nonpayable",
      "type": "function"
    },
    {
      "inputs": [
        {
          "components": [
            {
              "internalType": "address",
              "name": "token",
              "type": "address"
            },
            {
              "internalType": "uint256",
              "name": "value",
              "type": "uint256"
            },
            {
              "components": [
                {
                  "components": [
                    {
                      "internalType": "uint256",
                      "name": "tokenId",
                      "type": "uint256"
                    },
                    {
                      "internalType": "address",
                      "name": "owner",
                      "type": "address"
                    },
                    {
                      "internalType": "address",
                      "name": "previous",
                      "type": "address"
                    }
                  ],
                  "internalType": "struct AssetShell.LockedID",
                  "name": "lock",
                  "type": "tuple"
                },
                {
                  "internalType": "enum AssetShell.PayType",
                  "name": "payType",
                  "type": "uint8"
                },
                {
                  "internalType": "uint256",
                  "name": "payValue",
                  "type": "uint256"
                },
                {
                  "internalType": "address",
                  "name": "payBank",
                  "type": "address"
                },
                {
                  "internalType": "address",
                  "name": "payer",
                  "type": "address"
                }
              ],
              "internalType": "struct AssetShell.UnlockForOperator[]",
              "name": "data",
              "type": "tuple[]"
            }
          ],
          "internalType": "struct DAOs.UnlockAssetForOperator[]",
          "name": "data",
          "type": "tuple[]"
        }
      ],
      "name": "unlockAssetForOperator",
      "outputs": [],
      "stateMutability": "payable",
      "type": "function"
    }
  ],
  "bytecode": "0x608060405234801561001057600080fd5b50612fb4806100206000396000f3fe608060405260043610620000fa5760003560e01c806380da12f21162000095578063e0886f901162000060578063e0886f90146200030c578063ec47f60f1462000331578063eef934491462000349578063f2fde38b146200036057600080fd5b806380da12f214620002825780638abf607714620002a75780638da5cb5b14620002c75780638ff4d3d214620002e757600080fd5b80631f7b6d3211620000d65780631f7b6d3214620001f95780633ccebafd1462000220578063693ec85e1462000245578063715018a6146200026a57600080fd5b8062d46a2614620000ff5780630900f01014620001945780631d8a4cff14620001bb575b600080fd5b3480156200010c57600080fd5b50600554600654600754600854600954600a54600b5462000146966001600160a01b03908116968116958116948116938116928116911687565b604080516001600160a01b039889168152968816602088015294871694860194909452918516606085015284166080840152831660a083015290911660c082015260e0015b60405180910390f35b348015620001a157600080fd5b50620001b9620001b336600462001791565b62000385565b005b348015620001c857600080fd5b50620001e0620001da366004620017f6565b620003d3565b6040516001600160a01b0390911681526020016200018b565b3480156200020657600080fd5b5062000211620004aa565b6040519081526020016200018b565b3480156200022d57600080fd5b50620001b96200023f366004620018ef565b620004bd565b3480156200025257600080fd5b50620001e062000264366004620019b9565b62000582565b3480156200027757600080fd5b50620001b9620005a0565b3480156200028f57600080fd5b50620001e0620002a136600462001ada565b62000616565b348015620002b457600080fd5b506000546001600160a01b0316620001e0565b348015620002d457600080fd5b506001546001600160a01b0316620001e0565b348015620002f457600080fd5b50620001e06200030636600462001bcd565b62000d72565b3480156200031957600080fd5b50620001e06200032b36600462001c76565b62001157565b3480156200033e57600080fd5b50620001b96200116f565b620001b96200035a36600462001c90565b620012a4565b3480156200036d57600080fd5b50620001b96200037f36600462001791565b6200140f565b6001546001600160a01b03163314620003b15760405163399c757960e01b815260040160405180910390fd5b600080546001600160a01b0319166001600160a01b0392909216919091179055565b600b5460405160009182916001600160a01b0390911690620003f59062001707565b6001600160a01b039091168152602001604051809103906000f08015801562000422573d6000803e3d6000fd5b5060405163038dd1f960e31b81529091506001600160a01b03821690631c6e8fc89062000466908f908f908f908f908f908f908f908f908f908f9060040162001d33565b600060405180830381600087803b1580156200048157600080fd5b505af115801562000496573d6000803e3d6000fd5b50929e9d5050505050505050505050505050565b6000620004b86002620014bf565b905090565b6001546001600160a01b03163314620004e95760405163399c757960e01b815260040160405180910390fd5b8051600580546001600160a01b03199081166001600160a01b0393841617909155602083015160068054831691841691909117905560408301516007805483169184169190911790556060830151600880548316918416919091179055608083015160098054831691841691909117905560a0830151600a8054831691841691909117905560c090920151600b80549093169116179055565b805160208201206000906200059a90600290620014cc565b92915050565b6001546001600160a01b03163314620005cc5760405163399c757960e01b815260040160405180910390fd5b6001546040516000916001600160a01b0316907f8be0079c531659141344cd1fd0a4f28419497f9722a3daafe3b4186f6b6457e0908390a3600180546001600160a01b0319169055565b6000620006268730878762000d72565b6008546040519192506000916001600160a01b0390911690620006499062001715565b6001600160a01b039091168152602001604051809103906000f08015801562000676573d6000803e3d6000fd5b506009546040519192506000916001600160a01b03909116906200069a9062001723565b6001600160a01b039091168152602001604051809103906000f080158015620006c7573d6000803e3d6000fd5b50600a546040519192506000916001600160a01b0390911690620006eb9062001731565b6001600160a01b039091168152602001604051809103906000f08015801562000718573d6000803e3d6000fd5b50600a546040519192506000916001600160a01b03909116906200073c9062001731565b6001600160a01b039091168152602001604051809103906000f08015801562000769573d6000803e3d6000fd5b509050620007c460405180610100016040528060608152602001606081526020016060815260200160608152602001600063ffffffff16815260200160006001600160a01b0316815260200160608152602001606081525090565b620007d0878062001dad565b8080601f01602080910402602001604051908101604052809392919081815260200183838082843760009201919091525050509082525062000816602088018862001dad565b8080601f01602080910402602001604051908101604052809392919081815260200183838082843760009201919091525050505060208201526200085e604088018862001dad565b8080601f0160208091040260200160405190810160405280939291908181526020018383808284376000920191909152505050506040820152620008a6606088018862001dad565b8080601f0160208091040260200160405190810160405280939291908181526020018383808284376000920191909152505050506060820152620008ee60e088018862001dad565b8080601f01602080910402602001604051908101604052809392919081815260200183838082843760009201919091525050505060c08201526200093761010088018862001dad565b8080601f01602080910402602001604051908101604052809392919081815260200183838082843760009201919091525050505060e0808301919091526200098590880160c0890162001791565b6001600160a01b0390811660a0830152851663f4c38e5187620009a98b8062001dad565b60006040518563ffffffff1660e01b8152600401620009cc949392919062001df7565b600060405180830381600087803b158015620009e757600080fd5b505af1158015620009fc573d6000803e3d6000fd5b50506040516311435fff60e31b81526001600160a01b0387169250638a1afff8915062000a33908990600090869060040162001f5a565b600060405180830381600087803b15801562000a4e57600080fd5b505af115801562000a63573d6000803e3d6000fd5b5062000a7a9250505060c0880160a0890162001f9d565b63ffffffff166080820152604051630a04f71760e31b81526001600160a01b03831690635027b8b89062000abb908990600090600290879060040162001fd1565b600060405180830381600087803b15801562000ad657600080fd5b505af115801562000aeb573d6000803e3d6000fd5b5062000b029250505060a088016080890162001f9d565b63ffffffff166080820152604051630a04f71760e31b81526001600160a01b03841690635027b8b89062000b43908990600090600190879060040162001fd1565b600060405180830381600087803b15801562000b5e57600080fd5b505af115801562000b73573d6000803e3d6000fd5b50506040516305d2916360e41b8152600260048201526001600160a01b03888116602483015289169250635d2916309150604401600060405180830381600087803b15801562000bc257600080fd5b505af115801562000bd7573d6000803e3d6000fd5b50506040516305d2916360e41b8152600360048201526001600160a01b03878116602483015289169250635d2916309150604401600060405180830381600087803b15801562000c2657600080fd5b505af115801562000c3b573d6000803e3d6000fd5b50506040516305d2916360e41b81526004808201526001600160a01b03868116602483015289169250635d2916309150604401600060405180830381600087803b15801562000c8957600080fd5b505af115801562000c9e573d6000803e3d6000fd5b50506040516305d2916360e41b8152600560048201526001600160a01b03858116602483015289169250635d2916309150604401600060405180830381600087803b15801562000ced57600080fd5b505af115801562000d02573d6000803e3d6000fd5b505060405163b3ab15fb60e01b81526001600160a01b038e811660048301528916925063b3ab15fb9150602401600060405180830381600087803b15801562000d4a57600080fd5b505af115801562000d5f573d6000803e3d6000fd5b5050505050505050509695505050505050565b60008062000d81868062001dad565b60405162000d9192919062002020565b604051908190039020905062000da9600282620014e1565b1562000e225760405162461bcd60e51b815260206004820152603760248201527f2344414f732e6465706c6f792044414f207769746820636f72726573706f6e6460448201527f696e67206e616d6520616c72656164792065786973747300000000000000000060648201526084015b60405180910390fd5b6005546040516001600160a01b039091169062000e3f906200173f565b6001600160a01b039091168152602001604051809103906000f08015801562000e6c573d6000803e3d6000fd5b506006546040519193506000916001600160a01b039091169062000e90906200174d565b6001600160a01b039091168152602001604051809103906000f08015801562000ebd573d6000803e3d6000fd5b506007546040519192506000916001600160a01b039091169062000ee1906200175b565b6001600160a01b039091168152602001604051809103906000f08015801562000f0e573d6000803e3d6000fd5b5090506001600160a01b03821663b641ee428562000f2d898062001dad565b62000f3c60208c018c62001dad565b62000f4b60408e018e62001dad565b60008f806060019062000f5f919062002030565b6040518b63ffffffff1660e01b815260040162000f869a9998979695949392919062002145565b600060405180830381600087803b15801562000fa157600080fd5b505af115801562000fb6573d6000803e3d6000fd5b5050506001600160a01b0382169050636c4a60948562000fd7888062001dad565b89602001356040518563ffffffff1660e01b815260040162000ffd949392919062002310565b600060405180830381600087803b1580156200101857600080fd5b505af11580156200102d573d6000803e3d6000fd5b50506040516302251c5760e21b81526001600160a01b0387169250630894715c9150620010679030908c9086908d90899060040162002348565b600060405180830381600087803b1580156200108257600080fd5b505af115801562001097573d6000803e3d6000fd5b50620010ac92506002915085905086620014ef565b5060808601351562001118576040516303ee229360e11b8152608087013560048201526001600160a01b038316906307dc452690602401600060405180830381600087803b158015620010fe57600080fd5b505af115801562001113573d6000803e3d6000fd5b505050505b6040516001600160a01b038516907f1449abf21e49fd025f33495e77f7b1461caefdd3d4bb646424a3f445c4576a5b90600090a2505050949350505050565b6000806200116760028462001507565b949350505050565b600054600160a81b900460ff16158080156200119857506000546001600160a01b90910460ff16105b80620011bb5750303b158015620011bb5750600054600160a01b900460ff166001145b620012205760405162461bcd60e51b815260206004820152602e60248201527f496e697469616c697a61626c653a20636f6e747261637420697320616c72656160448201526d191e481a5b9a5d1a585b1a5e995960921b606482015260840162000e19565b6000805460ff60a01b1916600160a01b17905580156200124e576000805460ff60a81b1916600160a81b1790555b6200125862001527565b8015620012a1576000805460ff60a81b19169055604051600181527f7f26b83ff96e1f2b6a682f133852f6798a09c465da95921460cefb38474024989060200160405180910390a15b50565b6001546001600160a01b03163314620012d05760405163399c757960e01b815260040160405180910390fd5b60005b63ffffffff81168211156200140a5782828263ffffffff16818110620012fd57620012fd6200248f565b9050602002810190620013119190620024a5565b6200132190602081019062001791565b6001600160a01b0316637b1bc21d84848463ffffffff168181106200134a576200134a6200248f565b90506020028101906200135e9190620024a5565b6020013585858563ffffffff168181106200137d576200137d6200248f565b9050602002810190620013919190620024a5565b620013a1906040810190620024c6565b6040518463ffffffff1660e01b8152600401620013c092919062002529565b6000604051808303818588803b158015620013da57600080fd5b505af1158015620013ef573d6000803e3d6000fd5b50505050508080620014019062002607565b915050620012d3565b505050565b6001546001600160a01b031633146200143b5760405163399c757960e01b815260040160405180910390fd5b6001600160a01b0381166200146357604051635bb7a72360e01b815260040160405180910390fd5b6001546040516001600160a01b038084169216907f8be0079c531659141344cd1fd0a4f28419497f9722a3daafe3b4186f6b6457e090600090a3600180546001600160a01b0319166001600160a01b0392909216919091179055565b60006200059a826200156c565b6000620014da838362001579565b9392505050565b6000620014da8383620015ee565b60006200116784846001600160a01b038516620015fc565b60008080806200151886866200161b565b909450925050505b9250929050565b600180546001600160a01b0319163390811790915560405181906000907f8be0079c531659141344cd1fd0a4f28419497f9722a3daafe3b4186f6b6457e0908290a350565b60006200059a8262001648565b600081815260028301602052604081205480151580620015a05750620015a08484620015ee565b620014da5760405162461bcd60e51b815260206004820152601e60248201527f456e756d657261626c654d61703a206e6f6e6578697374656e74206b65790000604482015260640162000e19565b6000620014da838362001653565b600082815260028401602052604081208290556200116784846200166c565b600080806200162b85856200167a565b600081815260029690960160205260409095205494959350505050565b60006200059a825490565b60008181526001830160205260408120541515620014da565b6000620014da838362001688565b6000620014da8383620016da565b6000818152600183016020526040812054620016d1575081546001818101845560008481526020808220909301849055845484825282860190935260409020919091556200059a565b5060006200059a565b6000826000018281548110620016f457620016f46200248f565b9060005260206000200154905092915050565b610153806200263a83390190565b610153806200278d83390190565b61015380620028e083390190565b6101538062002a3383390190565b6101538062002b8683390190565b6101538062002cd983390190565b6101538062002e2c83390190565b6001600160a01b0381168114620012a157600080fd5b80356200178c8162001769565b919050565b600060208284031215620017a457600080fd5b8135620014da8162001769565b60008083601f840112620017c457600080fd5b50813567ffffffffffffffff811115620017dd57600080fd5b6020830191508360208285010111156200152057600080fd5b60008060008060008060008060008060e08b8d0312156200181657600080fd5b8a35620018238162001769565b995060208b0135620018358162001769565b985060408b0135975060608b0135965060808b013567ffffffffffffffff808211156200186157600080fd5b6200186f8e838f01620017b1565b909850965060a08d01359150808211156200188957600080fd5b620018978e838f01620017b1565b909650945060c08d0135915080821115620018b157600080fd5b50620018c08d828e01620017b1565b915080935050809150509295989b9194979a5092959850565b634e487b7160e01b600052604160045260246000fd5b600060e082840312156200190257600080fd5b60405160e0810181811067ffffffffffffffff82111715620019285762001928620018d9565b6040528235620019388162001769565b815260208301356200194a8162001769565b602082015260408301356200195f8162001769565b60408201526060830135620019748162001769565b606082015262001987608084016200177f565b60808201526200199a60a084016200177f565b60a0820152620019ad60c084016200177f565b60c08201529392505050565b600060208284031215620019cc57600080fd5b813567ffffffffffffffff80821115620019e557600080fd5b818401915084601f830112620019fa57600080fd5b81358181111562001a0f5762001a0f620018d9565b604051601f8201601f19908116603f0116810190838211818310171562001a3a5762001a3a620018d9565b8160405282815287602084870101111562001a5457600080fd5b826020860160208301376000928101602001929092525095945050505050565b600060c0828403121562001a8757600080fd5b50919050565b600060a0828403121562001a8757600080fd5b60006040828403121562001a8757600080fd5b60006020828403121562001a8757600080fd5b6000610120828403121562001a8757600080fd5b60008060008060008060c0878903121562001af457600080fd5b863567ffffffffffffffff8082111562001b0d57600080fd5b62001b1b8a838b0162001a74565b975062001b2b60208a016200177f565b9650604089013591508082111562001b4257600080fd5b62001b508a838b0162001a8d565b9550606089013591508082111562001b6757600080fd5b62001b758a838b0162001aa0565b9450608089013591508082111562001b8c57600080fd5b62001b9a8a838b0162001ab3565b935060a089013591508082111562001bb157600080fd5b5062001bc089828a0162001ac6565b9150509295509295509295565b6000806000806080858703121562001be457600080fd5b843567ffffffffffffffff8082111562001bfd57600080fd5b62001c0b8883890162001a74565b95506020870135915062001c1f8262001769565b9093506040860135908082111562001c3657600080fd5b62001c448883890162001a8d565b9350606087013591508082111562001c5b57600080fd5b5062001c6a8782880162001aa0565b91505092959194509250565b60006020828403121562001c8957600080fd5b5035919050565b6000806020838503121562001ca457600080fd5b823567ffffffffffffffff8082111562001cbd57600080fd5b818501915085601f83011262001cd257600080fd5b81358181111562001ce257600080fd5b8660208260051b850101111562001cf857600080fd5b60209290920196919550909350505050565b81835281816020850137506000828201602090810191909152601f909101601f19169091010190565b6001600160a01b038b811682528a166020820152604081018990526060810188905260e06080820181905260009062001d70908301888a62001d0a565b82810360a084015262001d8581878962001d0a565b905082810360c084015262001d9c81858762001d0a565b9d9c50505050505050505050505050565b6000808335601e1984360301811262001dc557600080fd5b83018035915067ffffffffffffffff82111562001de157600080fd5b6020019150368190038213156200152057600080fd5b600060018060a01b0380871683526060602084015262001e1c60608401868862001d0a565b915080841660408401525095945050505050565b6000815180845260005b8181101562001e585760208185018101518683018201520162001e3a565b506000602082860101526020601f19601f83011685010191505092915050565b6000610100825181855262001e908286018262001e30565b9150506020830151848203602086015262001eac828262001e30565b9150506040830151848203604086015262001ec8828262001e30565b9150506060830151848203606086015262001ee4828262001e30565b915050608083015162001eff608086018263ffffffff169052565b5060a083015162001f1b60a08601826001600160a01b03169052565b5060c083015184820360c086015262001f35828262001e30565b91505060e083015184820360e086015262001f51828262001e30565b95945050505050565b6001600160a01b0384811682528316602082015260606040820181905260009062001f519083018462001e78565b803563ffffffff811681146200178c57600080fd5b60006020828403121562001fb057600080fd5b620014da8262001f88565b634e487b7160e01b600052602160045260246000fd5b6001600160a01b0385811682528416602082015260006003841062001ffa5762001ffa62001fbb565b8360408301526080606083015262002016608083018462001e78565b9695505050505050565b8183823760009101908152919050565b6000808335601e198436030181126200204857600080fd5b83018035915067ffffffffffffffff8211156200206457600080fd5b6020019150600581901b36038213156200152057600080fd5b6000808335601e198436030181126200209557600080fd5b830160208101925035905067ffffffffffffffff811115620020b657600080fd5b8036038213156200152057600080fd5b6000808335601e19843603018112620020de57600080fd5b830160208101925035905067ffffffffffffffff811115620020ff57600080fd5b8060051b36038213156200152057600080fd5b81835260006001600160fb1b038311156200212c57600080fd5b8260051b80836020870137939093016020019392505050565b600060018060a01b03808d168352602060c0818501526200216b60c085018d8f62001d0a565b60408582038187015262002181828d8f62001d0a565b915060608683038188015262002199838c8e62001d0a565b8a8616608089015287810360a08901528881529250838301600589901b840185018a60005b8b811015620022f557868303601f190184528135368e9003605e19018112620021e657600080fd5b8d018035620021f58162001769565b8a1684528089013536829003609e190181126200221157600080fd5b848a0187905281018035858801526200222d8a8201826200207d565b60a06080880152620022456101008801828462001d0a565b91505062002256898301836200207d565b605f19808985030160a08a01526200227084838562001d0a565b9350620022808b8601866200207d565b93509150808985030160c08a0152506200229c83838362001d0a565b9250505063ffffffff620022b36080840162001f88565b1660e0870152620022c789840184620020c6565b9350915085810389870152620022df81848462002112565b968b0196955050509188019150600101620021be565b5050809750505050505050509b9a5050505050505050505050565b6001600160a01b038516815260606020820181905260009062002337908301858762001d0a565b905082604083015295945050505050565b6001600160a01b03868116825260a060208301526000906200236b87806200207d565b60c060a0860152620023836101608601828462001d0a565b9150506200239560208901896200207d565b609f19808785030160c0880152620023af84838562001d0a565b9350620023c060408c018c6200207d565b93509150808785030160e0880152620023db84848462001d0a565b9350620023ec60608c018c6200207d565b9350915080878503016101008801526200240884848462001d0a565b93506200241960808c018c6200207d565b935091508087850301610120880152506200243683838362001d0a565b9250505060a08801356200244a8162001769565b90911661014084015290506200246b60408301866001600160a01b03169052565b6001600160a01b03841660608301526001600160a01b038316608083015262002016565b634e487b7160e01b600052603260045260246000fd5b60008235605e19833603018112620024bc57600080fd5b9190910192915050565b6000808335601e19843603018112620024de57600080fd5b83018035915067ffffffffffffffff821115620024fa57600080fd5b602001915060e0810236038213156200152057600080fd5b6002811062002525576200252562001fbb565b9052565b602080825281810183905260009060408084018684805b88811015620025f95782358452858301356200255c8162001769565b6001600160a01b039081168588015283860135906200257b8262001769565b16848601526060838101356002811062002593578384fd5b620025a18287018262002512565b50506080838101359085015260a0620025bc8185016200177f565b6001600160a01b03169085015260c0620025d88482016200177f565b6001600160a01b03169085015260e093840193929092019160010162002540565b509198975050505050505050565b600063ffffffff8083168181036200262f57634e487b7160e01b600052601160045260246000fd5b600101939250505056fe608060405234801561001057600080fd5b5060405161015338038061015383398101604081905261002f91610054565b600080546001600160a01b0319166001600160a01b0392909216919091179055610084565b60006020828403121561006657600080fd5b81516001600160a01b038116811461007d57600080fd5b9392505050565b60c1806100926000396000f3fe60806040526000805460405182916001600160a01b03169060229083903690607b565b600060405180830381855af49150503d8060008114605b576040519150601f19603f3d011682016040523d82523d6000602084013e6060565b606091505b509150915080516020820183600081146077578282f35b8282fd5b818382376000910190815291905056fea26469706673582212206306aef2878048ff8436e1ec3fc8afa4d9b8102cc88166c48c681b4cc39736e264736f6c63430008110033608060405234801561001057600080fd5b5060405161015338038061015383398101604081905261002f91610054565b600080546001600160a01b0319166001600160a01b0392909216919091179055610084565b60006020828403121561006657600080fd5b81516001600160a01b038116811461007d57600080fd5b9392505050565b60c1806100926000396000f3fe60806040526000805460405182916001600160a01b03169060229083903690607b565b600060405180830381855af49150503d8060008114605b576040519150601f19603f3d011682016040523d82523d6000602084013e6060565b606091505b509150915080516020820183600081146077578282f35b8282fd5b818382376000910190815291905056fea2646970667358221220e95014cef5cc06bb72cfe0e9ae5181b5f478a51f38871631274e3019ba952e2a64736f6c63430008110033608060405234801561001057600080fd5b5060405161015338038061015383398101604081905261002f91610054565b600080546001600160a01b0319166001600160a01b0392909216919091179055610084565b60006020828403121561006657600080fd5b81516001600160a01b038116811461007d57600080fd5b9392505050565b60c1806100926000396000f3fe60806040526000805460405182916001600160a01b03169060229083903690607b565b600060405180830381855af49150503d8060008114605b576040519150601f19603f3d011682016040523d82523d6000602084013e6060565b606091505b509150915080516020820183600081146077578282f35b8282fd5b818382376000910190815291905056fea2646970667358221220a04adcd2a0de729b29c4c6765cb08978df8f0c30e047507970bea6e820ce5c8264736f6c63430008110033608060405234801561001057600080fd5b5060405161015338038061015383398101604081905261002f91610054565b600080546001600160a01b0319166001600160a01b0392909216919091179055610084565b60006020828403121561006657600080fd5b81516001600160a01b038116811461007d57600080fd5b9392505050565b60c1806100926000396000f3fe60806040526000805460405182916001600160a01b03169060229083903690607b565b600060405180830381855af49150503d8060008114605b576040519150601f19603f3d011682016040523d82523d6000602084013e6060565b606091505b509150915080516020820183600081146077578282f35b8282fd5b818382376000910190815291905056fea26469706673582212200af3de2f783ebb274a66254b4161b0b40799a97ee1035e8224d2953f0fc07aa564736f6c63430008110033608060405234801561001057600080fd5b5060405161015338038061015383398101604081905261002f91610054565b600080546001600160a01b0319166001600160a01b0392909216919091179055610084565b60006020828403121561006657600080fd5b81516001600160a01b038116811461007d57600080fd5b9392505050565b60c1806100926000396000f3fe60806040526000805460405182916001600160a01b03169060229083903690607b565b600060405180830381855af49150503d8060008114605b576040519150601f19603f3d011682016040523d82523d6000602084013e6060565b606091505b509150915080516020820183600081146077578282f35b8282fd5b818382376000910190815291905056fea2646970667358221220f99ed86a39498ccf423585df89fb827c370a9e7941396854321d2e0b30165c0b64736f6c63430008110033608060405234801561001057600080fd5b5060405161015338038061015383398101604081905261002f91610054565b600080546001600160a01b0319166001600160a01b0392909216919091179055610084565b60006020828403121561006657600080fd5b81516001600160a01b038116811461007d57600080fd5b9392505050565b60c1806100926000396000f3fe60806040526000805460405182916001600160a01b03169060229083903690607b565b600060405180830381855af49150503d8060008114605b576040519150601f19603f3d011682016040523d82523d6000602084013e6060565b606091505b509150915080516020820183600081146077578282f35b8282fd5b818382376000910190815291905056fea264697066735822122068b9a5b665a8daa9fbda1f85c9d299e8cd9f6b81b062d076f456ba6bc9e4855b64736f6c63430008110033608060405234801561001057600080fd5b5060405161015338038061015383398101604081905261002f91610054565b600080546001600160a01b0319166001600160a01b0392909216919091179055610084565b60006020828403121561006657600080fd5b81516001600160a01b038116811461007d57600080fd5b9392505050565b60c1806100926000396000f3fe60806040526000805460405182916001600160a01b03169060229083903690607b565b600060405180830381855af49150503d8060008114605b576040519150601f19603f3d011682016040523d82523d6000602084013e6060565b606091505b509150915080516020820183600081146077578282f35b8282fd5b818382376000910190815291905056fea2646970667358221220dd7a5544616d4ea23ceabf7f5bcdc13e1dc499ed37bbde7ba03edee8686acee764736f6c63430008110033a2646970667358221220e9041a69233c50627aa3366c05ac9dfea7ae7bece2bf7f332f57301f9f72b6fb64736f6c63430008110033",
  "immutableReferences": {},
  "source": "// SPDX-License-Identifier: MIT\npragma solidity ~0.8.17;\n\n// import '../openzeppelin/contracts/utils/structs/EnumerableSet.sol';\nimport './libs/Ownable.sol';\n// Module impl\nimport './DAO.sol';\nimport './Asset.sol';\nimport './AssetShell.sol';\nimport './Ledger.sol';\nimport './Member.sol';\nimport './VotePool.sol';\nimport './Share.sol';\n// Proxy\nimport './gen/DAOProxy.sol';\nimport './gen/AssetProxy.sol';\nimport './gen/AssetShellProxy.sol';\nimport './gen/LedgerProxy.sol';\nimport './gen/MemberProxy.sol';\nimport './gen/VotePoolProxy.sol';\nimport './gen/ShareProxy.sol';\n\n/**\n * @title DAOs contract global DAOs manage\n */\ncontract DAOs is Upgrade, Initializable, Ownable, IDAOs {\n\t// using EnumerableSet for EnumerableSet.AddressSet;\n\tusing EnumerableMap for EnumerableMap.UintToAddressMap;\n\n\tstruct DAOIMPLs {\n\t\taddress   DAO;\n\t\taddress   Member;\n\t\taddress   VotePool;\n\t\taddress   Ledger;\n\t\taddress   Asset;\n\t\taddress   AssetShell;\n\t\taddress   Share;\n\t}\n\tstruct InitMemberArgs {\n\t\tstring name;\n\t\tstring description;\n\t\tstring baseURI;\n\t\tMember.MintMemberArgs[] members;\n\t\tuint256 executor;\n\t}\n\n\tstruct InitVotePoolArgs {\n\t\tstring  description;\n\t\tuint256 lifespan;\n\t}\n\n\tstruct InitLedgerArgs {\n\t\tstring  description;\n\t}\n\n\tstruct InitAssetArgs {\n\t\tstring  name;\n\t\tstring  description;\n\t\tstring  image;\n\t\tstring  external_link;\n\t\tuint32  seller_fee_basis_points_first;\n\t\tuint32  seller_fee_basis_points_second;\n\t\taddress fee_recipient;\n\t\tstring  base_contract_uri;\n\t\tstring  base_uri;\n\t}\n\n\tEnumerableMap.UintToAddressMap private  _DAOs; // global DAOs list\n\tDAOIMPLs                       public   defaultIMPLs; // default logic impl\n\tuint256[50]                    private  __; // reserved storage space\n\n\tfunction initDAOs() external initializer {\n\t\tinitOwnable();\n\t}\n\n\tfunction setDefaultIMPLs(DAOIMPLs memory IMPLs) public onlyOwner {\n\t\tdefaultIMPLs = IMPLs;\n\t}\n\n\t/**\n\t * @dev deploy() deploy common voting DAO\n\t */\n\tfunction deploy(\n\t\tDAO.InitDAOArgs  calldata    daoArgs,           address                      operator,\n\t\tInitMemberArgs   calldata    memberArgs,        InitVotePoolArgs calldata    votePoolArgs\n\t) public returns (DAO host) {\n\t\tuint256 id = uint256(keccak256(bytes(daoArgs.name)));\n\n\t\trequire(!_DAOs.contains(id), \"#DAOs.deploy DAO with corresponding name already exists\");\n\n\t\thost          = DAO( address(new DAOProxy(defaultIMPLs.DAO)) );\n\t\tMember member = Member( address(new MemberProxy(defaultIMPLs.Member)) );\n\t\tVotePool root = VotePool( address(new VotePoolProxy(defaultIMPLs.VotePool)) );\n\n\t\tmember.initMember(address(host), memberArgs.name, memberArgs.description, memberArgs.baseURI, address(0), memberArgs.members);\n\t\troot.initVotePool(address(host), votePoolArgs.description, votePoolArgs.lifespan);\n\t\thost.initDAO(this, daoArgs, address(root), operator, address(member));\n\n\t\t_DAOs.set(id, address(host));\n\n\t\tif (memberArgs.executor != 0)\n\t\t\tmember.setExecutor(memberArgs.executor);\n\n\t\temit Created(address(host));\n\t}\n\n\t/**\n\t * @dev makeAssetSales() deploy asset sales DAO\n\t */\n\tfunction deployAssetSalesDAO(\n\t\tDAO.InitDAOArgs    calldata    daoArgs,           address                        operator,\n\t\tInitMemberArgs     calldata    memberArgs,        InitVotePoolArgs   calldata    votePoolArgs,\n\t\tInitLedgerArgs     calldata    ledgerArgs,        InitAssetArgs      calldata    assetArgs\n\t) public returns (DAO host) {\n\n\t\thost = deploy(daoArgs, address(this), memberArgs, votePoolArgs);\n\t\t// sales\n\t\tLedger      ledger      = Ledger( payable(address(new LedgerProxy(defaultIMPLs.Ledger))) );\n\t\tAsset       asset       = Asset( address(new AssetProxy(defaultIMPLs.Asset)));\n\t\tAssetShell  assetFirst  = AssetShell( payable(address(new AssetShellProxy(defaultIMPLs.AssetShell))));\n\t\tAssetShell  assetSecond = AssetShell( payable(address(new AssetShellProxy(defaultIMPLs.AssetShell))));\n\n\t\tAsset.InitContractURI memory uri;\n\t\turi.name                    = assetArgs.name;\n\t\turi.description             = assetArgs.description;\n\t\turi.image                   = assetArgs.image;\n\t\turi.external_link           = assetArgs.external_link;\n\t\turi.base_contract_uri       = assetArgs.base_contract_uri;\n\t\turi.base_uri                = assetArgs.base_uri;\n\t\turi.fee_recipient           = assetArgs.fee_recipient;\n\t\t//uri.seller_fee_basis_points = 0;\n\n\t\tledger.initLedger(address(host), ledgerArgs.description, address(0));\n\t\tasset.initAsset(address(host), address(0), uri);\n\n\t\turi.seller_fee_basis_points = assetArgs.seller_fee_basis_points_second;\n\t\tassetSecond.initAssetShell(address(host), address(0), IAssetShell.SaleType.kSecond, uri);\n\n\t\turi.seller_fee_basis_points = assetArgs.seller_fee_basis_points_first;\n\t\tassetFirst.initAssetShell(address(host), address(0), IAssetShell.SaleType.kFirst, uri);\n\n\t\t// set modules\n\t\thost.setModule(Module_LEDGER_ID, address(ledger));\n\t\thost.setModule(Module_ASSET_ID, address(asset));\n\t\thost.setModule(Module_ASSET_First_ID, address(assetFirst));\n\t\thost.setModule(Module_ASSET_Second_ID, address(assetSecond));\n\n\t\thost.setOperator(operator); // change to raw operator\n\t}\n\n\tfunction deployShare(\n\t\tIDAO host, address operator,\n\t\tuint256 totalSupply, uint256 maxSupply,\n\t\tstring calldata name, string calldata symbol, string calldata description) public override returns (address) {\n\t\tShare share = Share( address(new ShareProxy(defaultIMPLs.Share)));\n\t\tshare.initShare(address(host), operator, totalSupply, maxSupply, name, symbol, description);\n\t\treturn address(share);\n\t}\n\n\t/**\n\t * @dev length() Returns DAOs length\n\t */\n\tfunction length() view public returns (uint256) {\n\t\treturn _DAOs.length();\n\t}\n\n\t/**\n\t * @dev contains(address) is contains dao address\n\t */\n\tfunction get(string memory name) view public returns (DAO) {\n\t\treturn DAO(_DAOs.get(uint256(keccak256(bytes(name)))));\n\t}\n\n\t/**\n\t * @dev at(id) get DAO object from index\n\t * @param index uint256 dao index\n\t * @return Returns the IDAO interface address and key\n\t */\n\tfunction at(uint256 index) view external returns (DAO) {\n\t\taddress addr;\n\t\t(, addr) = _DAOs.at(index);\n\t\treturn DAO(addr);\n\t}\n\n\t/**\n\t * @dev Returns the implementation contract address\n\t */\n\tfunction impl() view external returns (address) {\n\t\treturn _impl;\n\t}\n\n\t/**\n\t * @dev upgrade(address) upgrade contracts\n\t */\n\tfunction upgrade(address impl_) public onlyOwner {\n\t\t_impl = impl_;\n\t}\n\n\t/**\n\t * @dev Param unlockAssetForOperator for method unlockAssetForOperator()\n\t */\n\tstruct UnlockAssetForOperator {\n\t\taddress                        token;  // asset contract address\n\t\tuint256                        value;\n\t\tAssetShell.UnlockForOperator[] data;\n\t}\n\n\t/**\n\t * @dev unlockAssetForOperator()\n\t */\n\tfunction unlockAssetForOperator(UnlockAssetForOperator[] calldata data) public payable onlyOwner {\n\t\tfor (uint32 i = 0; i < data.length; i++) {\n\t\t\tAssetShell(payable(data[i].token)).unlockForOperator{value:data[i].value}(data[i].data);\n\t\t}\n\t}\n}",
  "sourcePath": "/Users/louis/Project/hc/NFTSwap/SmartHolder/contracts/DAOs.sol",
  "compiler": {
    "name": "solc",
    "version": "0.8.17+commit.8df45f5f.Emscripten.clang"
  },
  "schemaVersion": "3.4.11",
  "updatedAt": "2023-05-11T06:07:52.640Z",
  "devdoc": {
    "kind": "dev",
    "methods": {
      "at(uint256)": {
        "details": "at(id) get DAO object from index",
        "params": {
          "index": "uint256 dao index"
        },
        "returns": {
          "_0": "Returns the IDAO interface address and key"
        }
      },
      "deploy((string,string,string,string,bytes,address),address,(string,string,string,(address,(uint256,string,string,string,uint32),uint256[])[],uint256),(string,uint256))": {
        "details": "deploy() deploy common voting DAO"
      },
      "deployAssetSalesDAO((string,string,string,string,bytes,address),address,(string,string,string,(address,(uint256,string,string,string,uint32),uint256[])[],uint256),(string,uint256),(string),(string,string,string,string,uint32,uint32,address,string,string))": {
        "details": "makeAssetSales() deploy asset sales DAO"
      },
      "get(string)": {
        "details": "contains(address) is contains dao address"
      },
      "impl()": {
        "details": "Returns the implementation contract address"
      },
      "length()": {
        "details": "length() Returns DAOs length"
      },
      "owner()": {
        "details": "Returns the address of the current owner."
      },
      "renounceOwnership()": {
        "details": "Leaves the contract without owner. It will not be possible to call `onlyOwner` functions anymore. Can only be called by the current owner. NOTE: Renouncing ownership will leave the contract without an owner, thereby removing any functionality that is only available to the owner."
      },
      "transferOwnership(address)": {
        "details": "Transfers ownership of the contract to a new account (`newOwner`). Can only be called by the current owner."
      },
      "unlockAssetForOperator((address,uint256,((uint256,address,address),uint8,uint256,address,address)[])[])": {
        "details": "unlockAssetForOperator()"
      },
      "upgrade(address)": {
        "details": "upgrade(address) upgrade contracts"
      }
    },
    "title": "DAOs contract global DAOs manage",
    "version": 1
  },
  "userdoc": {
    "kind": "user",
    "methods": {},
    "version": 1
  }
}