{
  "contractName": "DAOs",
  "abi": [
    {
      "inputs": [],
      "name": "AddressEmpty",
      "type": "error"
    },
    {
      "inputs": [],
      "name": "OnlyOwnerAvailable",
      "type": "error"
    },
    {
      "anonymous": false,
      "inputs": [
        {
          "indexed": true,
          "internalType": "address",
          "name": "dao",
          "type": "address"
        }
      ],
      "name": "Created",
      "type": "event"
    },
    {
      "anonymous": false,
      "inputs": [
        {
          "indexed": false,
          "internalType": "uint8",
          "name": "version",
          "type": "uint8"
        }
      ],
      "name": "Initialized",
      "type": "event"
    },
    {
      "anonymous": false,
      "inputs": [
        {
          "indexed": true,
          "internalType": "address",
          "name": "previousOwner",
          "type": "address"
        },
        {
          "indexed": true,
          "internalType": "address",
          "name": "newOwner",
          "type": "address"
        }
      ],
      "name": "OwnershipTransferred",
      "type": "event"
    },
    {
      "inputs": [],
      "name": "defaultIMPLs",
      "outputs": [
        {
          "internalType": "address",
          "name": "DAO",
          "type": "address"
        },
        {
          "internalType": "address",
          "name": "Member",
          "type": "address"
        },
        {
          "internalType": "address",
          "name": "VotePool",
          "type": "address"
        },
        {
          "internalType": "address",
          "name": "Ledger",
          "type": "address"
        },
        {
          "internalType": "address",
          "name": "Asset",
          "type": "address"
        },
        {
          "internalType": "address",
          "name": "AssetShell",
          "type": "address"
        }
      ],
      "stateMutability": "view",
      "type": "function",
      "constant": true
    },
    {
      "inputs": [],
      "name": "owner",
      "outputs": [
        {
          "internalType": "address",
          "name": "",
          "type": "address"
        }
      ],
      "stateMutability": "view",
      "type": "function",
      "constant": true
    },
    {
      "inputs": [],
      "name": "renounceOwnership",
      "outputs": [],
      "stateMutability": "nonpayable",
      "type": "function"
    },
    {
      "inputs": [
        {
          "internalType": "address",
          "name": "newOwner",
          "type": "address"
        }
      ],
      "name": "transferOwnership",
      "outputs": [],
      "stateMutability": "nonpayable",
      "type": "function"
    },
    {
      "inputs": [],
      "name": "initDAOs",
      "outputs": [],
      "stateMutability": "nonpayable",
      "type": "function"
    },
    {
      "inputs": [
        {
          "components": [
            {
              "internalType": "address",
              "name": "DAO",
              "type": "address"
            },
            {
              "internalType": "address",
              "name": "Member",
              "type": "address"
            },
            {
              "internalType": "address",
              "name": "VotePool",
              "type": "address"
            },
            {
              "internalType": "address",
              "name": "Ledger",
              "type": "address"
            },
            {
              "internalType": "address",
              "name": "Asset",
              "type": "address"
            },
            {
              "internalType": "address",
              "name": "AssetShell",
              "type": "address"
            }
          ],
          "internalType": "struct DAOs.DAOIMPLs",
          "name": "IMPLs",
          "type": "tuple"
        }
      ],
      "name": "setDefaultIMPLs",
      "outputs": [],
      "stateMutability": "nonpayable",
      "type": "function"
    },
    {
      "inputs": [
        {
          "components": [
            {
              "internalType": "string",
              "name": "name",
              "type": "string"
            },
            {
              "internalType": "string",
              "name": "mission",
              "type": "string"
            },
            {
              "internalType": "string",
              "name": "description",
              "type": "string"
            },
            {
              "internalType": "string",
              "name": "image",
              "type": "string"
            },
            {
              "internalType": "bytes",
              "name": "extend",
              "type": "bytes"
            }
          ],
          "internalType": "struct DAOs.InitDAOArgs",
          "name": "daoArgs",
          "type": "tuple"
        },
        {
          "internalType": "address",
          "name": "operator",
          "type": "address"
        },
        {
          "components": [
            {
              "internalType": "string",
              "name": "name",
              "type": "string"
            },
            {
              "internalType": "string",
              "name": "description",
              "type": "string"
            },
            {
              "internalType": "string",
              "name": "baseURI",
              "type": "string"
            },
            {
              "components": [
                {
                  "internalType": "address",
                  "name": "owner",
                  "type": "address"
                },
                {
                  "components": [
                    {
                      "internalType": "uint256",
                      "name": "id",
                      "type": "uint256"
                    },
                    {
                      "internalType": "string",
                      "name": "name",
                      "type": "string"
                    },
                    {
                      "internalType": "string",
                      "name": "description",
                      "type": "string"
                    },
                    {
                      "internalType": "string",
                      "name": "image",
                      "type": "string"
                    },
                    {
                      "internalType": "uint32",
                      "name": "votes",
                      "type": "uint32"
                    }
                  ],
                  "internalType": "struct IMember.Info",
                  "name": "info",
                  "type": "tuple"
                },
                {
                  "internalType": "uint256[]",
                  "name": "permissions",
                  "type": "uint256[]"
                }
              ],
              "internalType": "struct Member.MintMemberArgs[]",
              "name": "members",
              "type": "tuple[]"
            },
            {
              "internalType": "uint256",
              "name": "executor",
              "type": "uint256"
            }
          ],
          "internalType": "struct DAOs.InitMemberArgs",
          "name": "memberArgs",
          "type": "tuple"
        },
        {
          "components": [
            {
              "internalType": "string",
              "name": "description",
              "type": "string"
            },
            {
              "internalType": "uint256",
              "name": "lifespan",
              "type": "uint256"
            }
          ],
          "internalType": "struct DAOs.InitVotePoolArgs",
          "name": "votePoolArgs",
          "type": "tuple"
        }
      ],
      "name": "deploy",
      "outputs": [
        {
          "internalType": "contract DAO",
          "name": "host",
          "type": "address"
        }
      ],
      "stateMutability": "nonpayable",
      "type": "function"
    },
    {
      "inputs": [
        {
          "components": [
            {
              "internalType": "string",
              "name": "name",
              "type": "string"
            },
            {
              "internalType": "string",
              "name": "mission",
              "type": "string"
            },
            {
              "internalType": "string",
              "name": "description",
              "type": "string"
            },
            {
              "internalType": "string",
              "name": "image",
              "type": "string"
            },
            {
              "internalType": "bytes",
              "name": "extend",
              "type": "bytes"
            }
          ],
          "internalType": "struct DAOs.InitDAOArgs",
          "name": "daoArgs",
          "type": "tuple"
        },
        {
          "internalType": "address",
          "name": "operator",
          "type": "address"
        },
        {
          "components": [
            {
              "internalType": "string",
              "name": "name",
              "type": "string"
            },
            {
              "internalType": "string",
              "name": "description",
              "type": "string"
            },
            {
              "internalType": "string",
              "name": "baseURI",
              "type": "string"
            },
            {
              "components": [
                {
                  "internalType": "address",
                  "name": "owner",
                  "type": "address"
                },
                {
                  "components": [
                    {
                      "internalType": "uint256",
                      "name": "id",
                      "type": "uint256"
                    },
                    {
                      "internalType": "string",
                      "name": "name",
                      "type": "string"
                    },
                    {
                      "internalType": "string",
                      "name": "description",
                      "type": "string"
                    },
                    {
                      "internalType": "string",
                      "name": "image",
                      "type": "string"
                    },
                    {
                      "internalType": "uint32",
                      "name": "votes",
                      "type": "uint32"
                    }
                  ],
                  "internalType": "struct IMember.Info",
                  "name": "info",
                  "type": "tuple"
                },
                {
                  "internalType": "uint256[]",
                  "name": "permissions",
                  "type": "uint256[]"
                }
              ],
              "internalType": "struct Member.MintMemberArgs[]",
              "name": "members",
              "type": "tuple[]"
            },
            {
              "internalType": "uint256",
              "name": "executor",
              "type": "uint256"
            }
          ],
          "internalType": "struct DAOs.InitMemberArgs",
          "name": "memberArgs",
          "type": "tuple"
        },
        {
          "components": [
            {
              "internalType": "string",
              "name": "description",
              "type": "string"
            },
            {
              "internalType": "uint256",
              "name": "lifespan",
              "type": "uint256"
            }
          ],
          "internalType": "struct DAOs.InitVotePoolArgs",
          "name": "votePoolArgs",
          "type": "tuple"
        },
        {
          "components": [
            {
              "internalType": "string",
              "name": "description",
              "type": "string"
            }
          ],
          "internalType": "struct DAOs.InitLedgerArgs",
          "name": "ledgerArgs",
          "type": "tuple"
        },
        {
          "components": [
            {
              "internalType": "string",
              "name": "name",
              "type": "string"
            },
            {
              "internalType": "string",
              "name": "description",
              "type": "string"
            },
            {
              "internalType": "string",
              "name": "image",
              "type": "string"
            },
            {
              "internalType": "string",
              "name": "external_link",
              "type": "string"
            },
            {
              "internalType": "uint32",
              "name": "seller_fee_basis_points_first",
              "type": "uint32"
            },
            {
              "internalType": "uint32",
              "name": "seller_fee_basis_points_second",
              "type": "uint32"
            },
            {
              "internalType": "address",
              "name": "fee_recipient",
              "type": "address"
            },
            {
              "internalType": "string",
              "name": "contractURIPrefix",
              "type": "string"
            }
          ],
          "internalType": "struct DAOs.InitAssetArgs",
          "name": "assetArgs",
          "type": "tuple"
        }
      ],
      "name": "deployAssetSalesDAO",
      "outputs": [
        {
          "internalType": "contract DAO",
          "name": "host",
          "type": "address"
        }
      ],
      "stateMutability": "nonpayable",
      "type": "function"
    },
    {
      "inputs": [],
      "name": "length",
      "outputs": [
        {
          "internalType": "uint256",
          "name": "",
          "type": "uint256"
        }
      ],
      "stateMutability": "view",
      "type": "function",
      "constant": true
    },
    {
      "inputs": [
        {
          "internalType": "string",
          "name": "name",
          "type": "string"
        }
      ],
      "name": "get",
      "outputs": [
        {
          "internalType": "contract DAO",
          "name": "",
          "type": "address"
        }
      ],
      "stateMutability": "view",
      "type": "function",
      "constant": true
    },
    {
      "inputs": [
        {
          "internalType": "uint256",
          "name": "index",
          "type": "uint256"
        }
      ],
      "name": "at",
      "outputs": [
        {
          "internalType": "contract DAO",
          "name": "",
          "type": "address"
        }
      ],
      "stateMutability": "view",
      "type": "function",
      "constant": true
    },
    {
      "inputs": [],
      "name": "impl",
      "outputs": [
        {
          "internalType": "address",
          "name": "",
          "type": "address"
        }
      ],
      "stateMutability": "view",
      "type": "function",
      "constant": true
    },
    {
      "inputs": [
        {
          "internalType": "address",
          "name": "impl",
          "type": "address"
        }
      ],
      "name": "upgrade",
      "outputs": [],
      "stateMutability": "nonpayable",
      "type": "function"
    }
  ],
  "bytecode": "0x608060405234801561001057600080fd5b5061253d806100206000396000f3fe608060405234801561001057600080fd5b50600436106100ce5760003560e01c8063715018a61161008c578063de70729c11610066578063de70729c146101f2578063e0886f9014610205578063ec47f60f14610218578063f2fde38b1461022057600080fd5b8063715018a6146101c85780638abf6077146101d05780638da5cb5b146101e157600080fd5b8062d46a26146100d35780630900f0101461014c5780631c2921f2146101615780631f7b6d321461018c578063584874b7146101a2578063693ec85e146101b5575b600080fd5b600554600654600754600854600954600a54610105956001600160a01b03908116958116948116938116928116911686565b604080516001600160a01b03978816815295871660208701529386169385019390935290841660608401528316608083015290911660a082015260c0015b60405180910390f35b61015f61015a3660046113db565b610233565b005b61017461016f366004611445565b610280565b6040516001600160a01b039091168152602001610143565b610194610952565b604051908152602001610143565b61015f6101b036600461153c565b610963565b6101746101c33660046115db565b610a13565b61015f610a2f565b6000546001600160a01b0316610174565b6001546001600160a01b0316610174565b61017461020036600461168c565b610aa4565b610174610213366004611725565b610f5c565b61015f610f72565b61015f61022e3660046113db565b61109e565b6001546001600160a01b0316331461025e5760405163399c757960e01b815260040160405180910390fd5b600080546001600160a01b0319166001600160a01b0392909216919091179055565b600061028e87308787610aa4565b6008546040519192506000916001600160a01b03909116906102af90611371565b6001600160a01b039091168152602001604051809103906000f0801580156102db573d6000803e3d6000fd5b506009546040519192506000916001600160a01b03909116906102fd9061137e565b6001600160a01b039091168152602001604051809103906000f080158015610329573d6000803e3d6000fd5b50600a546040519192506000916001600160a01b039091169061034b9061138b565b6001600160a01b039091168152602001604051809103906000f080158015610377573d6000803e3d6000fd5b50600a546040519192506000916001600160a01b03909116906103999061138b565b6001600160a01b039091168152602001604051809103906000f0801580156103c5573d6000803e3d6000fd5b5090506104176040518060e0016040528060608152602001606081526020016060815260200160608152602001600063ffffffff16815260200160006001600160a01b03168152602001606081525090565b610421878061173e565b8080601f016020809104026020016040519081016040528093929190818152602001838380828437600092019190915250505090825250610465602088018861173e565b8080601f01602080910402602001604051908101604052809392919081815260200183838082843760009201919091525050505060208201526104ab604088018861173e565b8080601f01602080910402602001604051908101604052809392919081815260200183838082843760009201919091525050505060408201526104f1606088018861173e565b8080601f016020809104026020016040519081016040528093929190818152602001838380828437600092019190915250505050606082015261053a60c0880160a08901611799565b63ffffffff16608082015261055560e0880160c089016113db565b6001600160a01b031660a082015261057060e088018861173e565b8080601f01602080910402602001604051908101604052809392919081815260200183838082843760009201919091525050505060c08201526001600160a01b03851663f4c38e51876105c38b8061173e565b60006040518563ffffffff1660e01b81526004016105e494939291906117dd565b600060405180830381600087803b1580156105fe57600080fd5b505af1158015610612573d6000803e3d6000fd5b505060405163d71a195d60e01b81526001600160a01b038716925063d71a195d91506106479089906000908690600401611901565b600060405180830381600087803b15801561066157600080fd5b505af1158015610675573d6000803e3d6000fd5b5050604051634c1bfae160e11b81526001600160a01b0385169250639837f5c291506106ad908990600090600290879060040161192d565b600060405180830381600087803b1580156106c757600080fd5b505af11580156106db573d6000803e3d6000fd5b506106f09250505060a0880160808901611799565b63ffffffff166080820152604051634c1bfae160e11b81526001600160a01b03841690639837f5c29061072f908990600090600190879060040161192d565b600060405180830381600087803b15801561074957600080fd5b505af115801561075d573d6000803e3d6000fd5b50506040516305d2916360e41b8152600260048201526001600160a01b03888116602483015289169250635d2916309150604401600060405180830381600087803b1580156107ab57600080fd5b505af11580156107bf573d6000803e3d6000fd5b50506040516305d2916360e41b8152600360048201526001600160a01b03878116602483015289169250635d2916309150604401600060405180830381600087803b15801561080d57600080fd5b505af1158015610821573d6000803e3d6000fd5b50506040516305d2916360e41b81526004808201526001600160a01b03868116602483015289169250635d2916309150604401600060405180830381600087803b15801561086e57600080fd5b505af1158015610882573d6000803e3d6000fd5b50506040516305d2916360e41b8152600560048201526001600160a01b03858116602483015289169250635d2916309150604401600060405180830381600087803b1580156108d057600080fd5b505af11580156108e4573d6000803e3d6000fd5b505060405163b3ab15fb60e01b81526001600160a01b038e811660048301528916925063b3ab15fb9150602401600060405180830381600087803b15801561092b57600080fd5b505af115801561093f573d6000803e3d6000fd5b5050505050505050509695505050505050565b600061095e600261114c565b905090565b6001546001600160a01b0316331461098e5760405163399c757960e01b815260040160405180910390fd5b8051600580546001600160a01b03199081166001600160a01b0393841617909155602083015160068054831691841691909117905560408301516007805483169184169190911790556060830151600880548316918416919091179055608083015160098054831691841691909117905560a090920151600a80549093169116179055565b80516020820120600090610a2990600290611157565b92915050565b6001546001600160a01b03163314610a5a5760405163399c757960e01b815260040160405180910390fd5b6001546040516000916001600160a01b0316907f8be0079c531659141344cd1fd0a4f28419497f9722a3daafe3b4186f6b6457e0908390a3600180546001600160a01b0319169055565b600080610ab1868061173e565b604051610abf929190611985565b6040519081900390209050610ad560028261116a565b15610b4d5760405162461bcd60e51b815260206004820152603760248201527f2344414f73236465706c6f792044414f207769746820636f72726573706f6e6460448201527f696e67206e616d6520616c72656164792065786973747300000000000000000060648201526084015b60405180910390fd5b6005546040516001600160a01b0390911690610b6890611398565b6001600160a01b039091168152602001604051809103906000f080158015610b94573d6000803e3d6000fd5b506006546040519193506000916001600160a01b0390911690610bb6906113a5565b6001600160a01b039091168152602001604051809103906000f080158015610be2573d6000803e3d6000fd5b506007546040519192506000916001600160a01b0390911690610c04906113b2565b6001600160a01b039091168152602001604051809103906000f080158015610c30573d6000803e3d6000fd5b5090506001600160a01b03821663b641ee4285610c4d898061173e565b610c5a60208c018c61173e565b610c6760408e018e61173e565b60008f8060600190610c799190611995565b6040518b63ffffffff1660e01b8152600401610c9e9a99989796959493929190611aa0565b600060405180830381600087803b158015610cb857600080fd5b505af1158015610ccc573d6000803e3d6000fd5b5050506001600160a01b0382169050636c4a609485610ceb888061173e565b89602001356040518563ffffffff1660e01b8152600401610d0f9493929190611c4a565b600060405180830381600087803b158015610d2957600080fd5b505af1158015610d3d573d6000803e3d6000fd5b5050506001600160a01b0385169050638ad15960610d5b8a8061173e565b610d6860208d018d61173e565b610d7560408f018f61173e565b888f8b6040518a63ffffffff1660e01b8152600401610d9c99989796959493929190611c80565b600060405180830381600087803b158015610db657600080fd5b505af1158015610dca573d6000803e3d6000fd5b50610ddd92506002915085905086611176565b50608086013515610e46576040516303ee229360e11b8152608087013560048201526001600160a01b038316906307dc452690602401600060405180830381600087803b158015610e2d57600080fd5b505af1158015610e41573d6000803e3d6000fd5b505050505b6001600160a01b0384166371adb5e6610e6260608b018b61173e565b6040518363ffffffff1660e01b8152600401610e7f929190611ceb565b600060405180830381600087803b158015610e9957600080fd5b505af1158015610ead573d6000803e3d6000fd5b5050506001600160a01b038516905063bde4d603610ece60808b018b61173e565b6040518363ffffffff1660e01b8152600401610eeb929190611ceb565b600060405180830381600087803b158015610f0557600080fd5b505af1158015610f19573d6000803e3d6000fd5b50506040516001600160a01b03871692507f1449abf21e49fd025f33495e77f7b1461caefdd3d4bb646424a3f445c4576a5b9150600090a2505050949350505050565b600080610f6a60028461118c565b949350505050565b600054600160a81b900460ff1615808015610f9a57506000546001600160a01b90910460ff16105b80610fbb5750303b158015610fbb5750600054600160a01b900460ff166001145b61101e5760405162461bcd60e51b815260206004820152602e60248201527f496e697469616c697a61626c653a20636f6e747261637420697320616c72656160448201526d191e481a5b9a5d1a585b1a5e995960921b6064820152608401610b44565b6000805460ff60a01b1916600160a01b179055801561104b576000805460ff60a81b1916600160a81b1790555b6110536111aa565b801561109b576000805460ff60a81b19169055604051600181527f7f26b83ff96e1f2b6a682f133852f6798a09c465da95921460cefb38474024989060200160405180910390a15b50565b6001546001600160a01b031633146110c95760405163399c757960e01b815260040160405180910390fd5b6001600160a01b0381166110f057604051635bb7a72360e01b815260040160405180910390fd5b6001546040516001600160a01b038084169216907f8be0079c531659141344cd1fd0a4f28419497f9722a3daafe3b4186f6b6457e090600090a3600180546001600160a01b0319166001600160a01b0392909216919091179055565b6000610a29826111ef565b600061116383836111fa565b9392505050565b6000611163838361126a565b6000610f6a84846001600160a01b038516611276565b600080808061119b8686611293565b909450925050505b9250929050565b600180546001600160a01b0319163390811790915560405181906000907f8be0079c531659141344cd1fd0a4f28419497f9722a3daafe3b4186f6b6457e0908290a350565b6000610a29826112be565b60008181526002830160205260408120548015158061121e575061121e848461126a565b6111635760405162461bcd60e51b815260206004820152601e60248201527f456e756d657261626c654d61703a206e6f6e6578697374656e74206b657900006044820152606401610b44565b600061116383836112c8565b60008281526002840160205260408120829055610f6a84846112e0565b600080806112a185856112ec565b600081815260029690960160205260409095205494959350505050565b6000610a29825490565b60008181526001830160205260408120541515611163565b600061116383836112f8565b60006111638383611347565b600081815260018301602052604081205461133f57508154600181810184556000848152602080822090930184905584548482528286019093526040902091909155610a29565b506000610a29565b600082600001828154811061135e5761135e611cff565b9060005260206000200154905092915050565b61015380611d1683390190565b61015380611e6983390190565b61015380611fbc83390190565b6101538061210f83390190565b6101538061226283390190565b610153806123b583390190565b80356001600160a01b03811681146113d657600080fd5b919050565b6000602082840312156113ed57600080fd5b611163826113bf565b600060a0828403121561140857600080fd5b50919050565b60006040828403121561140857600080fd5b60006020828403121561140857600080fd5b6000610100828403121561140857600080fd5b60008060008060008060c0878903121561145e57600080fd5b863567ffffffffffffffff8082111561147657600080fd5b6114828a838b016113f6565b975061149060208a016113bf565b965060408901359150808211156114a657600080fd5b6114b28a838b016113f6565b955060608901359150808211156114c857600080fd5b6114d48a838b0161140e565b945060808901359150808211156114ea57600080fd5b6114f68a838b01611420565b935060a089013591508082111561150c57600080fd5b5061151989828a01611432565b9150509295509295509295565b634e487b7160e01b600052604160045260246000fd5b600060c0828403121561154e57600080fd5b60405160c0810181811067ffffffffffffffff8211171561157157611571611526565b60405261157d836113bf565b815261158b602084016113bf565b602082015261159c604084016113bf565b60408201526115ad606084016113bf565b60608201526115be608084016113bf565b60808201526115cf60a084016113bf565b60a08201529392505050565b6000602082840312156115ed57600080fd5b813567ffffffffffffffff8082111561160557600080fd5b818401915084601f83011261161957600080fd5b81358181111561162b5761162b611526565b604051601f8201601f19908116603f0116810190838211818310171561165357611653611526565b8160405282815287602084870101111561166c57600080fd5b826020860160208301376000928101602001929092525095945050505050565b600080600080608085870312156116a257600080fd5b843567ffffffffffffffff808211156116ba57600080fd5b6116c6888389016113f6565b95506116d4602088016113bf565b945060408701359150808211156116ea57600080fd5b6116f6888389016113f6565b9350606087013591508082111561170c57600080fd5b506117198782880161140e565b91505092959194509250565b60006020828403121561173757600080fd5b5035919050565b6000808335601e1984360301811261175557600080fd5b83018035915067ffffffffffffffff82111561177057600080fd5b6020019150368190038213156111a357600080fd5b803563ffffffff811681146113d657600080fd5b6000602082840312156117ab57600080fd5b61116382611785565b81835281816020850137506000828201602090810191909152601f909101601f19169091010190565b600060018060a01b038087168352606060208401526118006060840186886117b4565b915080841660408401525095945050505050565b6000815180845260005b8181101561183a5760208185018101518683018201520161181e565b506000602082860101526020601f19601f83011685010191505092915050565b6000815160e0845261186f60e0850182611814565b9050602083015184820360208601526118888282611814565b915050604083015184820360408601526118a28282611814565b915050606083015184820360608601526118bc8282611814565b91505063ffffffff608084015116608085015260018060a01b0360a08401511660a085015260c083015184820360c08601526118f88282611814565b95945050505050565b6001600160a01b038481168252831660208201526060604082018190526000906118f89083018461185a565b6001600160a01b0385811682528416602082015260006003841061196157634e487b7160e01b600052602160045260246000fd5b8360408301526080606083015261197b608083018461185a565b9695505050505050565b8183823760009101908152919050565b6000808335601e198436030181126119ac57600080fd5b83018035915067ffffffffffffffff8211156119c757600080fd5b6020019150600581901b36038213156111a357600080fd5b6000808335601e198436030181126119f657600080fd5b830160208101925035905067ffffffffffffffff811115611a1657600080fd5b8036038213156111a357600080fd5b6000808335601e19843603018112611a3c57600080fd5b830160208101925035905067ffffffffffffffff811115611a5c57600080fd5b8060051b36038213156111a357600080fd5b81835260006001600160fb1b03831115611a8757600080fd5b8260051b80836020870137939093016020019392505050565b600060018060a01b03808d168352602060c081850152611ac460c085018d8f6117b4565b604085820381870152611ad8828d8f6117b4565b9150606086830381880152611aee838c8e6117b4565b8a8616608089015287810360a08901528881529250838301600589901b840185018a60005b8b811015611c2f57868303601f190184528135368e9003605e19018112611b3957600080fd5b8d0189611b45826113bf565b16845288810135609e19823603018112611b5e57600080fd5b848a018790528101803585880152611b788a8201826119df565b60a06080880152611b8e610100880182846117b4565b915050611b9d898301836119df565b605f19808985030160a08a0152611bb58483856117b4565b9350611bc38b8601866119df565b93509150808985030160c08a015250611bdd8383836117b4565b9250505063ffffffff611bf260808401611785565b1660e0870152611c0489840184611a25565b9350915085810389870152611c1a818484611a6e565b968b0196955050509188019150600101611b13565b5050809750505050505050509b9a5050505050505050505050565b6001600160a01b0385168152606060208201819052600090611c6f90830185876117b4565b905082604083015295945050505050565b60c081526000611c9460c083018b8d6117b4565b8281036020840152611ca7818a8c6117b4565b90508281036040840152611cbc81888a6117b4565b6001600160a01b03968716606085015294861660808401525050921660a0909201919091529695505050505050565b602081526000610f6a6020830184866117b4565b634e487b7160e01b600052603260045260246000fdfe608060405234801561001057600080fd5b5060405161015338038061015383398101604081905261002f91610054565b600080546001600160a01b0319166001600160a01b0392909216919091179055610084565b60006020828403121561006657600080fd5b81516001600160a01b038116811461007d57600080fd5b9392505050565b60c1806100926000396000f3fe60806040526000805460405182916001600160a01b03169060229083903690607b565b600060405180830381855af49150503d8060008114605b576040519150601f19603f3d011682016040523d82523d6000602084013e6060565b606091505b509150915080516020820183600081146077578282f35b8282fd5b818382376000910190815291905056fea264697066735822122041b8bb47eb44da0220c9948b721f37145a0c18f1cba4237a5f6dd9a7d9a4fef864736f6c63430008110033608060405234801561001057600080fd5b5060405161015338038061015383398101604081905261002f91610054565b600080546001600160a01b0319166001600160a01b0392909216919091179055610084565b60006020828403121561006657600080fd5b81516001600160a01b038116811461007d57600080fd5b9392505050565b60c1806100926000396000f3fe60806040526000805460405182916001600160a01b03169060229083903690607b565b600060405180830381855af49150503d8060008114605b576040519150601f19603f3d011682016040523d82523d6000602084013e6060565b606091505b509150915080516020820183600081146077578282f35b8282fd5b818382376000910190815291905056fea26469706673582212209a46409ee46b9bc77bf35186dc4b29d62cd97360a5ce00d7da0940598ea5d13e64736f6c63430008110033608060405234801561001057600080fd5b5060405161015338038061015383398101604081905261002f91610054565b600080546001600160a01b0319166001600160a01b0392909216919091179055610084565b60006020828403121561006657600080fd5b81516001600160a01b038116811461007d57600080fd5b9392505050565b60c1806100926000396000f3fe60806040526000805460405182916001600160a01b03169060229083903690607b565b600060405180830381855af49150503d8060008114605b576040519150601f19603f3d011682016040523d82523d6000602084013e6060565b606091505b509150915080516020820183600081146077578282f35b8282fd5b818382376000910190815291905056fea26469706673582212200039f324ab3dfd37d1ac53c7f06e479513d95fc15b5cba3b72ad8ad1aeca2ed064736f6c63430008110033608060405234801561001057600080fd5b5060405161015338038061015383398101604081905261002f91610054565b600080546001600160a01b0319166001600160a01b0392909216919091179055610084565b60006020828403121561006657600080fd5b81516001600160a01b038116811461007d57600080fd5b9392505050565b60c1806100926000396000f3fe60806040526000805460405182916001600160a01b03169060229083903690607b565b600060405180830381855af49150503d8060008114605b576040519150601f19603f3d011682016040523d82523d6000602084013e6060565b606091505b509150915080516020820183600081146077578282f35b8282fd5b818382376000910190815291905056fea26469706673582212204709b32db73fe725e15bd64101e3a6330c3949dd6311f3ecdd42b8ae77e1fb6764736f6c63430008110033608060405234801561001057600080fd5b5060405161015338038061015383398101604081905261002f91610054565b600080546001600160a01b0319166001600160a01b0392909216919091179055610084565b60006020828403121561006657600080fd5b81516001600160a01b038116811461007d57600080fd5b9392505050565b60c1806100926000396000f3fe60806040526000805460405182916001600160a01b03169060229083903690607b565b600060405180830381855af49150503d8060008114605b576040519150601f19603f3d011682016040523d82523d6000602084013e6060565b606091505b509150915080516020820183600081146077578282f35b8282fd5b818382376000910190815291905056fea2646970667358221220e3369d2b59749da48892bdff9d629d477b6aa5f4ccd4dde670e01bb7fa6c9ed564736f6c63430008110033608060405234801561001057600080fd5b5060405161015338038061015383398101604081905261002f91610054565b600080546001600160a01b0319166001600160a01b0392909216919091179055610084565b60006020828403121561006657600080fd5b81516001600160a01b038116811461007d57600080fd5b9392505050565b60c1806100926000396000f3fe60806040526000805460405182916001600160a01b03169060229083903690607b565b600060405180830381855af49150503d8060008114605b576040519150601f19603f3d011682016040523d82523d6000602084013e6060565b606091505b509150915080516020820183600081146077578282f35b8282fd5b818382376000910190815291905056fea26469706673582212205a30de6c9878f34696e113c8b495c6cd5dac1e795ace79927be40504f859aed764736f6c63430008110033a26469706673582212204a01f93859cdec4064e6d6fac8864ad37bf832598399ca8a4004c37abf4c181b64736f6c63430008110033",
  "immutableReferences": {},
  "source": "// SPDX-License-Identifier: MIT\npragma solidity 0.8.17;\n\n// import '../openzeppelin/contracts/utils/structs/EnumerableSet.sol';\nimport './libs/Ownable.sol';\n// Module impl\nimport './DAO.sol';\nimport './Asset.sol';\nimport './AssetShell.sol';\nimport './Ledger.sol';\nimport './Member.sol';\nimport './VotePool.sol';\n// Proxy\nimport './gen/DAOProxy.sol';\nimport './gen/AssetProxy.sol';\nimport './gen/AssetShellProxy.sol';\nimport './gen/LedgerProxy.sol';\nimport './gen/MemberProxy.sol';\nimport './gen/VotePoolProxy.sol';\n\n/**\n * @title DAOs contract global DAOs manage\n */\ncontract DAOs is Upgrade, Initializable, Ownable, IDAOs {\n\t// using EnumerableSet for EnumerableSet.AddressSet;\n\tusing EnumerableMap for EnumerableMap.UintToAddressMap;\n\n\tstruct DAOIMPLs {\n\t\taddress   DAO;\n\t\taddress   Member;\n\t\taddress   VotePool;\n\t\taddress   Ledger;\n\t\taddress   Asset;\n\t\taddress   AssetShell;\n\t}\n\n\tstruct InitDAOArgs {\n\t\tstring name;\n\t\tstring mission;\n\t\tstring description;\n\t\tstring image;\n\t\tbytes  extend;\n\t}\n\n\tstruct InitMemberArgs {\n\t\tstring name;\n\t\tstring description;\n\t\tstring baseURI;\n\t\tMember.MintMemberArgs[] members;\n\t\tuint256 executor;\n\t}\n\n\tstruct InitVotePoolArgs {\n\t\tstring  description;\n\t\tuint256 lifespan;\n\t}\n\n\tstruct InitLedgerArgs {\n\t\tstring  description;\n\t}\n\n\tstruct InitAssetArgs {\n\t\tstring  name;\n\t\tstring  description;\n\t\tstring  image;\n\t\tstring  external_link;\n\t\tuint32  seller_fee_basis_points_first;\n\t\tuint32  seller_fee_basis_points_second;\n\t\taddress fee_recipient;\n\t\tstring  contractURIPrefix;\n\t}\n\n\tEnumerableMap.UintToAddressMap private  _DAOs; // global DAOs list\n\tDAOIMPLs                       public   defaultIMPLs; // default logic impl\n\tuint256[50]                    private  __; // reserved storage space\n\n\tfunction initDAOs() external initializer {\n\t\tinitOwnable();\n\t}\n\n\tfunction setDefaultIMPLs(DAOIMPLs memory IMPLs) public onlyOwner {\n\t\tdefaultIMPLs = IMPLs;\n\t}\n\n\t/**\n\t * @dev deploy() deploy common voting DAO\n\t */\n\tfunction deploy(\n\t\tInitDAOArgs      calldata    daoArgs,           address                      operator,\n\t\tInitMemberArgs   calldata    memberArgs,        InitVotePoolArgs calldata    votePoolArgs\n\t) public returns (DAO host) {\n\t\tuint256 id = uint256(keccak256(bytes(daoArgs.name)));\n\n\t\trequire(!_DAOs.contains(id), \"#DAOs#deploy DAO with corresponding name already exists\");\n\n\t\thost          = DAO( address(new DAOProxy(defaultIMPLs.DAO)) );\n\t\tMember member = Member( address(new MemberProxy(defaultIMPLs.Member)) );\n\t\tVotePool root = VotePool( address(new VotePoolProxy(defaultIMPLs.VotePool)) );\n\n\t\tmember.initMember(address(host), memberArgs.name, memberArgs.description, memberArgs.baseURI, address(0), memberArgs.members);\n\t\troot.initVotePool(address(host), votePoolArgs.description, votePoolArgs.lifespan);\n\t\thost.initDAO(daoArgs.name, daoArgs.mission, daoArgs.description, address(root), operator, address(member));\n\n\t\t_DAOs.set(id, address(host));\n\n\t\tif (memberArgs.executor != 0)\n\t\t\tmember.setExecutor(memberArgs.executor);\n\n\t\thost.setImage(daoArgs.image);\n\t\thost.setExtend(daoArgs.extend);\n\n\t\temit Created(address(host));\n\t}\n\n\t/**\n\t * @dev makeAssetSales() deploy asset sales DAO\n\t */\n\tfunction deployAssetSalesDAO(\n\t\tInitDAOArgs        calldata    daoArgs,           address                        operator,\n\t\tInitMemberArgs     calldata    memberArgs,        InitVotePoolArgs   calldata    votePoolArgs,\n\t\tInitLedgerArgs     calldata    ledgerArgs,        InitAssetArgs      calldata    assetArgs\n\t) public returns (DAO host) {\n\n\t\thost = deploy(daoArgs, address(this), memberArgs, votePoolArgs);\n\t\t// sales\n\t\tLedger      ledger      = Ledger( payable(address(new LedgerProxy(defaultIMPLs.Ledger))) );\n\t\tAsset       asset       = Asset( address(new AssetProxy(defaultIMPLs.Asset)));\n\t\tAssetShell  assetFirst  = AssetShell( payable(address(new AssetShellProxy(defaultIMPLs.AssetShell))));\n\t\tAssetShell  assetSecond = AssetShell( payable(address(new AssetShellProxy(defaultIMPLs.AssetShell))));\n\n\t\tAssetBase.InitContractURI memory uri;\n\t\turi.name                    = assetArgs.name;\n\t\turi.description             = assetArgs.description;\n\t\turi.image                   = assetArgs.image;\n\t\turi.external_link           = assetArgs.external_link;\n\t\turi.seller_fee_basis_points = assetArgs.seller_fee_basis_points_second;\n\t\turi.fee_recipient           = assetArgs.fee_recipient;\n\t\turi.contractURIPrefix       = assetArgs.contractURIPrefix;\n\n\t\tledger.initLedger(address(host), ledgerArgs.description, address(0));\n\t\tasset.initAsset(address(host), address(0), uri);\n\t\tassetSecond.initAssetShell(address(host), address(0), IAssetShell.SaleType.kSecond, uri);\n\n\t\turi.seller_fee_basis_points = assetArgs.seller_fee_basis_points_first;\n\n\t\tassetFirst.initAssetShell(address(host), address(0), IAssetShell.SaleType.kFirst, uri);\n\n\t\t// set modules\n\t\thost.setModule(Module_LEDGER_ID, address(ledger));\n\t\thost.setModule(Module_ASSET_ID, address(asset));\n\t\thost.setModule(Module_ASSET_First_ID, address(assetFirst));\n\t\thost.setModule(Module_ASSET_Second_ID, address(assetSecond));\n\n\t\thost.setOperator(operator); // change to raw operator\n\t}\n\n\t/**\n\t * @dev length() Returns DAOs length\n\t */\n\tfunction length() view public returns (uint256) {\n\t\treturn _DAOs.length();\n\t}\n\n\t/**\n\t * @dev contains(address) is contains dao address\n\t */\n\tfunction get(string memory name) view public returns (DAO) {\n\t\treturn DAO(_DAOs.get(uint256(keccak256(bytes(name)))));\n\t}\n\n\t/**\n\t * @dev at(id) get DAO object from index\n\t * @param index uint256 dao index\n\t * @return Returns the IDAO interface address and key\n\t */\n\tfunction at(uint256 index) view external returns (DAO) {\n\t\taddress addr;\n\t\t(, addr) = _DAOs.at(index);\n\t\treturn DAO(addr);\n\t}\n\n\t/**\n\t * @dev Returns the implementation contract address\n\t */\n\tfunction impl() view external returns (address) {\n\t\treturn _impl;\n\t}\n\n\t/**\n\t * @dev upgrade(address) upgrade contracts\n\t */\n\tfunction upgrade(address impl) public onlyOwner {\n\t\t_impl = impl;\n\t}\n}",
  "sourcePath": "/Users/louis/Project/hc/NFTSwap/SmartHolder/contracts/DAOs.sol",
  "compiler": {
    "name": "solc",
    "version": "0.8.17+commit.8df45f5f.Emscripten.clang"
  },
  "schemaVersion": "3.4.11",
  "updatedAt": "2023-04-01T07:58:04.680Z",
  "networkType": "ethereum",
  "devdoc": {
    "kind": "dev",
    "methods": {
      "at(uint256)": {
        "details": "at(id) get DAO object from index",
        "params": {
          "index": "uint256 dao index"
        },
        "returns": {
          "_0": "Returns the IDAO interface address and key"
        }
      },
      "deploy((string,string,string,string,bytes),address,(string,string,string,(address,(uint256,string,string,string,uint32),uint256[])[],uint256),(string,uint256))": {
        "details": "deploy() deploy common voting DAO"
      },
      "deployAssetSalesDAO((string,string,string,string,bytes),address,(string,string,string,(address,(uint256,string,string,string,uint32),uint256[])[],uint256),(string,uint256),(string),(string,string,string,string,uint32,uint32,address,string))": {
        "details": "makeAssetSales() deploy asset sales DAO"
      },
      "get(string)": {
        "details": "contains(address) is contains dao address"
      },
      "impl()": {
        "details": "Returns the implementation contract address"
      },
      "length()": {
        "details": "length() Returns DAOs length"
      },
      "owner()": {
        "details": "Returns the address of the current owner."
      },
      "renounceOwnership()": {
        "details": "Leaves the contract without owner. It will not be possible to call `onlyOwner` functions anymore. Can only be called by the current owner. NOTE: Renouncing ownership will leave the contract without an owner, thereby removing any functionality that is only available to the owner."
      },
      "transferOwnership(address)": {
        "details": "Transfers ownership of the contract to a new account (`newOwner`). Can only be called by the current owner."
      },
      "upgrade(address)": {
        "details": "upgrade(address) upgrade contracts"
      }
    },
    "title": "DAOs contract global DAOs manage",
    "version": 1
  },
  "userdoc": {
    "kind": "user",
    "methods": {},
    "version": 1
  }
}