{
  "contractName": "DAOs",
  "abi": [
    {
      "anonymous": false,
      "inputs": [
        {
          "indexed": true,
          "internalType": "address",
          "name": "dao",
          "type": "address"
        }
      ],
      "name": "Created",
      "type": "event"
    },
    {
      "anonymous": false,
      "inputs": [
        {
          "indexed": true,
          "internalType": "address",
          "name": "previousOwner",
          "type": "address"
        },
        {
          "indexed": true,
          "internalType": "address",
          "name": "newOwner",
          "type": "address"
        }
      ],
      "name": "OwnershipTransferred",
      "type": "event"
    },
    {
      "inputs": [],
      "name": "defaultIMPLs",
      "outputs": [
        {
          "internalType": "address",
          "name": "DAO",
          "type": "address"
        },
        {
          "internalType": "address",
          "name": "Member",
          "type": "address"
        },
        {
          "internalType": "address",
          "name": "VotePool",
          "type": "address"
        },
        {
          "internalType": "address",
          "name": "Ledger",
          "type": "address"
        },
        {
          "internalType": "address",
          "name": "Asset",
          "type": "address"
        },
        {
          "internalType": "address",
          "name": "AssetShell",
          "type": "address"
        }
      ],
      "stateMutability": "view",
      "type": "function"
    },
    {
      "inputs": [],
      "name": "owner",
      "outputs": [
        {
          "internalType": "address",
          "name": "",
          "type": "address"
        }
      ],
      "stateMutability": "view",
      "type": "function"
    },
    {
      "inputs": [],
      "name": "renounceOwnership",
      "outputs": [],
      "stateMutability": "nonpayable",
      "type": "function"
    },
    {
      "inputs": [
        {
          "internalType": "address",
          "name": "newOwner",
          "type": "address"
        }
      ],
      "name": "transferOwnership",
      "outputs": [],
      "stateMutability": "nonpayable",
      "type": "function"
    },
    {
      "inputs": [],
      "name": "initDAOs",
      "outputs": [],
      "stateMutability": "nonpayable",
      "type": "function"
    },
    {
      "inputs": [
        {
          "components": [
            {
              "internalType": "address",
              "name": "DAO",
              "type": "address"
            },
            {
              "internalType": "address",
              "name": "Member",
              "type": "address"
            },
            {
              "internalType": "address",
              "name": "VotePool",
              "type": "address"
            },
            {
              "internalType": "address",
              "name": "Ledger",
              "type": "address"
            },
            {
              "internalType": "address",
              "name": "Asset",
              "type": "address"
            },
            {
              "internalType": "address",
              "name": "AssetShell",
              "type": "address"
            }
          ],
          "internalType": "struct DAOs.DAOIMPLs",
          "name": "IMPLs",
          "type": "tuple"
        }
      ],
      "name": "setDefaultIMPLs",
      "outputs": [],
      "stateMutability": "nonpayable",
      "type": "function"
    },
    {
      "inputs": [
        {
          "internalType": "string",
          "name": "name",
          "type": "string"
        },
        {
          "internalType": "string",
          "name": "mission",
          "type": "string"
        },
        {
          "internalType": "string",
          "name": "description",
          "type": "string"
        },
        {
          "internalType": "address",
          "name": "operator",
          "type": "address"
        },
        {
          "components": [
            {
              "internalType": "string",
              "name": "name",
              "type": "string"
            },
            {
              "internalType": "string",
              "name": "description",
              "type": "string"
            },
            {
              "internalType": "string",
              "name": "baseURI",
              "type": "string"
            },
            {
              "components": [
                {
                  "internalType": "address",
                  "name": "owner",
                  "type": "address"
                },
                {
                  "components": [
                    {
                      "internalType": "uint256",
                      "name": "id",
                      "type": "uint256"
                    },
                    {
                      "internalType": "string",
                      "name": "name",
                      "type": "string"
                    },
                    {
                      "internalType": "string",
                      "name": "description",
                      "type": "string"
                    },
                    {
                      "internalType": "string",
                      "name": "image",
                      "type": "string"
                    },
                    {
                      "internalType": "uint32",
                      "name": "votes",
                      "type": "uint32"
                    }
                  ],
                  "internalType": "struct IMember.Info",
                  "name": "info",
                  "type": "tuple"
                },
                {
                  "internalType": "uint256[]",
                  "name": "permissions",
                  "type": "uint256[]"
                }
              ],
              "internalType": "struct Member.MintMemberArgs[]",
              "name": "members",
              "type": "tuple[]"
            }
          ],
          "internalType": "struct DAOs.InitMemberArgs",
          "name": "memberArgs",
          "type": "tuple"
        },
        {
          "components": [
            {
              "internalType": "string",
              "name": "description",
              "type": "string"
            },
            {
              "internalType": "uint256",
              "name": "lifespan",
              "type": "uint256"
            }
          ],
          "internalType": "struct DAOs.InitVotePoolArgs",
          "name": "votePoolArgs",
          "type": "tuple"
        }
      ],
      "name": "deploy",
      "outputs": [
        {
          "internalType": "contract DAO",
          "name": "host",
          "type": "address"
        }
      ],
      "stateMutability": "nonpayable",
      "type": "function"
    },
    {
      "inputs": [
        {
          "internalType": "string",
          "name": "name",
          "type": "string"
        },
        {
          "internalType": "string",
          "name": "mission",
          "type": "string"
        },
        {
          "internalType": "string",
          "name": "description",
          "type": "string"
        },
        {
          "internalType": "address",
          "name": "operator",
          "type": "address"
        },
        {
          "components": [
            {
              "internalType": "string",
              "name": "name",
              "type": "string"
            },
            {
              "internalType": "string",
              "name": "description",
              "type": "string"
            },
            {
              "internalType": "string",
              "name": "baseURI",
              "type": "string"
            },
            {
              "components": [
                {
                  "internalType": "address",
                  "name": "owner",
                  "type": "address"
                },
                {
                  "components": [
                    {
                      "internalType": "uint256",
                      "name": "id",
                      "type": "uint256"
                    },
                    {
                      "internalType": "string",
                      "name": "name",
                      "type": "string"
                    },
                    {
                      "internalType": "string",
                      "name": "description",
                      "type": "string"
                    },
                    {
                      "internalType": "string",
                      "name": "image",
                      "type": "string"
                    },
                    {
                      "internalType": "uint32",
                      "name": "votes",
                      "type": "uint32"
                    }
                  ],
                  "internalType": "struct IMember.Info",
                  "name": "info",
                  "type": "tuple"
                },
                {
                  "internalType": "uint256[]",
                  "name": "permissions",
                  "type": "uint256[]"
                }
              ],
              "internalType": "struct Member.MintMemberArgs[]",
              "name": "members",
              "type": "tuple[]"
            }
          ],
          "internalType": "struct DAOs.InitMemberArgs",
          "name": "memberArgs",
          "type": "tuple"
        },
        {
          "components": [
            {
              "internalType": "string",
              "name": "description",
              "type": "string"
            },
            {
              "internalType": "uint256",
              "name": "lifespan",
              "type": "uint256"
            }
          ],
          "internalType": "struct DAOs.InitVotePoolArgs",
          "name": "votePoolArgs",
          "type": "tuple"
        },
        {
          "components": [
            {
              "internalType": "string",
              "name": "description",
              "type": "string"
            }
          ],
          "internalType": "struct DAOs.InitLedgerArgs",
          "name": "ledgerArgs",
          "type": "tuple"
        },
        {
          "components": [
            {
              "internalType": "string",
              "name": "name",
              "type": "string"
            },
            {
              "internalType": "string",
              "name": "description",
              "type": "string"
            },
            {
              "internalType": "string",
              "name": "image",
              "type": "string"
            },
            {
              "internalType": "string",
              "name": "external_link",
              "type": "string"
            },
            {
              "internalType": "uint32",
              "name": "seller_fee_basis_points_first",
              "type": "uint32"
            },
            {
              "internalType": "uint32",
              "name": "seller_fee_basis_points_second",
              "type": "uint32"
            },
            {
              "internalType": "address",
              "name": "fee_recipient",
              "type": "address"
            },
            {
              "internalType": "string",
              "name": "contractURIPrefix",
              "type": "string"
            }
          ],
          "internalType": "struct DAOs.InitAssetArgs",
          "name": "assetArgs",
          "type": "tuple"
        }
      ],
      "name": "deployAssetSalesDAO",
      "outputs": [
        {
          "internalType": "contract DAO",
          "name": "host",
          "type": "address"
        }
      ],
      "stateMutability": "nonpayable",
      "type": "function"
    },
    {
      "inputs": [],
      "name": "length",
      "outputs": [
        {
          "internalType": "uint256",
          "name": "",
          "type": "uint256"
        }
      ],
      "stateMutability": "view",
      "type": "function"
    },
    {
      "inputs": [
        {
          "internalType": "string",
          "name": "name",
          "type": "string"
        }
      ],
      "name": "get",
      "outputs": [
        {
          "internalType": "contract DAO",
          "name": "",
          "type": "address"
        }
      ],
      "stateMutability": "view",
      "type": "function"
    },
    {
      "inputs": [
        {
          "internalType": "uint256",
          "name": "index",
          "type": "uint256"
        }
      ],
      "name": "at",
      "outputs": [
        {
          "internalType": "contract DAO",
          "name": "",
          "type": "address"
        }
      ],
      "stateMutability": "view",
      "type": "function"
    },
    {
      "inputs": [],
      "name": "impl",
      "outputs": [
        {
          "internalType": "address",
          "name": "",
          "type": "address"
        }
      ],
      "stateMutability": "view",
      "type": "function"
    },
    {
      "inputs": [
        {
          "internalType": "address",
          "name": "impl",
          "type": "address"
        }
      ],
      "name": "upgrade",
      "outputs": [],
      "stateMutability": "nonpayable",
      "type": "function"
    }
  ],
  "bytecode": "0x608060405234801561001057600080fd5b506124f0806100206000396000f3fe608060405234801561001057600080fd5b50600436106100ce5760003560e01c8063715018a61161008c578063b66379ec11610066578063b66379ec146101f2578063e0886f9014610205578063ec47f60f14610218578063f2fde38b1461022057600080fd5b8063715018a6146101c85780638abf6077146101d05780638da5cb5b146101e157600080fd5b8062d46a26146100d35780630900f0101461014c5780631f7b6d32146101615780633682fba314610177578063584874b7146101a2578063693ec85e146101b5575b600080fd5b600554600654600754600854600954600a54610105956001600160a01b03908116958116948116938116928116911686565b604080516001600160a01b03978816815295871660208701529386169385019390935290841660608401528316608083015290911660a082015260c0015b60405180910390f35b61015f61015a36600461126e565b610233565b005b610169610288565b604051908152602001610143565b61018a6101853660046112f5565b610299565b6040516001600160a01b039091168152602001610143565b61015f6101b0366004611400565b6105eb565b61018a6101c336600461149f565b61069a565b61015f6106b6565b6000546001600160a01b031661018a565b6001546001600160a01b031661018a565b61018a610200366004611575565b61072a565b61018a6102133660046116b7565b610e06565b61015f610e1c565b61015f61022e36600461126e565b610ef4565b6001546001600160a01b031633146102665760405162461bcd60e51b815260040161025d906116d0565b60405180910390fd5b600080546001600160a01b0319166001600160a01b0392909216919091179055565b60006102946002610fdf565b905090565b6000808a8a6040516102ac929190611705565b60405190819003902090506102c2600282610fea565b156103355760405162461bcd60e51b815260206004820152603760248201527f2344414f73236465706c6f792044414f207769746820636f72726573706f6e6460448201527f696e67206e616d6520616c726561647920657869737473000000000000000000606482015260840161025d565b6005546040516001600160a01b039091169061035090611204565b6001600160a01b039091168152602001604051809103906000f08015801561037c573d6000803e3d6000fd5b506006546040519193506000916001600160a01b039091169061039e90611211565b6001600160a01b039091168152602001604051809103906000f0801580156103ca573d6000803e3d6000fd5b506007546040519192506000916001600160a01b03909116906103ec9061121e565b6001600160a01b039091168152602001604051809103906000f080158015610418573d6000803e3d6000fd5b5090506001600160a01b03821663b641ee42856104358980611715565b61044260208c018c611715565b61044f60408e018e611715565b60008f8060600190610461919061175c565b6040518b63ffffffff1660e01b81526004016104869a999897969594939291906118a4565b600060405180830381600087803b1580156104a057600080fd5b505af11580156104b4573d6000803e3d6000fd5b5050506001600160a01b0382169050636c4a6094856104d38880611715565b89602001356040518563ffffffff1660e01b81526004016104f79493929190611a4e565b600060405180830381600087803b15801561051157600080fd5b505af1158015610525573d6000803e3d6000fd5b50505050836001600160a01b0316638ad159608e8e8e8e8e8e888f8b6040518a63ffffffff1660e01b815260040161056599989796959493929190611a84565b600060405180830381600087803b15801561057f57600080fd5b505af1158015610593573d6000803e3d6000fd5b506105a692506002915085905086610ffd565b506040516001600160a01b038516907f1449abf21e49fd025f33495e77f7b1461caefdd3d4bb646424a3f445c4576a5b90600090a25050509998505050505050505050565b6001546001600160a01b031633146106155760405162461bcd60e51b815260040161025d906116d0565b8051600580546001600160a01b03199081166001600160a01b0393841617909155602083015160068054831691841691909117905560408301516007805483169184169190911790556060830151600880548316918416919091179055608083015160098054831691841691909117905560a090920151600a80549093169116179055565b805160208201206000906106b090600290611013565b92915050565b6001546001600160a01b031633146106e05760405162461bcd60e51b815260040161025d906116d0565b6001546040516000916001600160a01b0316907f8be0079c531659141344cd1fd0a4f28419497f9722a3daafe3b4186f6b6457e0908390a3600180546001600160a01b0319169055565b600061073d8c8c8c8c8c8c308c8c610299565b6008546040519192506000916001600160a01b039091169061075e9061122b565b6001600160a01b039091168152602001604051809103906000f08015801561078a573d6000803e3d6000fd5b506009546040519192506000916001600160a01b03909116906107ac90611238565b6001600160a01b039091168152602001604051809103906000f0801580156107d8573d6000803e3d6000fd5b50600a546040519192506000916001600160a01b03909116906107fa90611245565b6001600160a01b039091168152602001604051809103906000f080158015610826573d6000803e3d6000fd5b50600a546040519192506000916001600160a01b039091169061084890611245565b6001600160a01b039091168152602001604051809103906000f080158015610874573d6000803e3d6000fd5b5090506108c66040518060e0016040528060608152602001606081526020016060815260200160608152602001600063ffffffff16815260200160006001600160a01b03168152602001606081525090565b6108d08780611715565b8080601f0160208091040260200160405190810160405280939291908181526020018383808284376000920191909152505050908252506109146020880188611715565b8080601f016020809104026020016040519081016040528093929190818152602001838380828437600092019190915250505050602082015261095a6040880188611715565b8080601f01602080910402602001604051908101604052809392919081815260200183838082843760009201919091525050505060408201526109a06060880188611715565b8080601f01602080910402602001604051908101604052809392919081815260200183838082843760009201919091525050505060608201526109e960c0880160a08901611aef565b63ffffffff166080820152610a0460e0880160c0890161126e565b6001600160a01b031660a0820152610a1f60e0880188611715565b8080601f01602080910402602001604051908101604052809392919081815260200183838082843760009201919091525050505060c08201526001600160a01b03851663f4c38e5187610a728b80611715565b60006040518563ffffffff1660e01b8152600401610a939493929190611b0a565b600060405180830381600087803b158015610aad57600080fd5b505af1158015610ac1573d6000803e3d6000fd5b505060405163d71a195d60e01b81526001600160a01b038716925063d71a195d9150610af69089906000908690600401611c2e565b600060405180830381600087803b158015610b1057600080fd5b505af1158015610b24573d6000803e3d6000fd5b5050604051634c1bfae160e11b81526001600160a01b0385169250639837f5c29150610b5c9089906000906002908790600401611c5a565b600060405180830381600087803b158015610b7657600080fd5b505af1158015610b8a573d6000803e3d6000fd5b50610b9f9250505060a0880160808901611aef565b63ffffffff166080820152604051634c1bfae160e11b81526001600160a01b03841690639837f5c290610bde9089906000906001908790600401611c5a565b600060405180830381600087803b158015610bf857600080fd5b505af1158015610c0c573d6000803e3d6000fd5b50506040516305d2916360e41b8152600260048201526001600160a01b03888116602483015289169250635d2916309150604401600060405180830381600087803b158015610c5a57600080fd5b505af1158015610c6e573d6000803e3d6000fd5b50506040516305d2916360e41b8152600360048201526001600160a01b03878116602483015289169250635d2916309150604401600060405180830381600087803b158015610cbc57600080fd5b505af1158015610cd0573d6000803e3d6000fd5b50506040516305d2916360e41b81526004808201526001600160a01b03868116602483015289169250635d2916309150604401600060405180830381600087803b158015610d1d57600080fd5b505af1158015610d31573d6000803e3d6000fd5b50506040516305d2916360e41b8152600560048201526001600160a01b03858116602483015289169250635d2916309150604401600060405180830381600087803b158015610d7f57600080fd5b505af1158015610d93573d6000803e3d6000fd5b505060405163b3ab15fb60e01b81526001600160a01b038e811660048301528916925063b3ab15fb9150602401600060405180830381600087803b158015610dda57600080fd5b505af1158015610dee573d6000803e3d6000fd5b5050505050505050509b9a5050505050505050505050565b600080610e1460028461101f565b949350505050565b600054600160a81b900460ff1680610e335750303b155b80610e485750600054600160a01b900460ff16155b610eab5760405162461bcd60e51b815260206004820152602e60248201527f436f6e747261637420696e7374616e63652068617320616c726561647920626560448201526d195b881a5b9a5d1a585b1a5e995960921b606482015260840161025d565b600054600160a81b900460ff16158015610ed5576000805461ffff60a01b191661010160a01b1790555b610edd61103d565b8015610ef1576000805460ff60a81b191690555b50565b6001546001600160a01b03163314610f1e5760405162461bcd60e51b815260040161025d906116d0565b6001600160a01b038116610f835760405162461bcd60e51b815260206004820152602660248201527f4f776e61626c653a206e6577206f776e657220697320746865207a65726f206160448201526564647265737360d01b606482015260840161025d565b6001546040516001600160a01b038084169216907f8be0079c531659141344cd1fd0a4f28419497f9722a3daafe3b4186f6b6457e090600090a3600180546001600160a01b0319166001600160a01b0392909216919091179055565b60006106b082611082565b6000610ff6838361108d565b9392505050565b6000610e1484846001600160a01b038516611099565b6000610ff683836110b6565b600080808061102e8686611126565b909450925050505b9250929050565b600180546001600160a01b0319163390811790915560405181906000907f8be0079c531659141344cd1fd0a4f28419497f9722a3daafe3b4186f6b6457e0908290a350565b60006106b082611151565b6000610ff6838361115b565b60008281526002840160205260408120829055610e148484611173565b6000818152600283016020526040812054801515806110da57506110da848461108d565b610ff65760405162461bcd60e51b815260206004820152601e60248201527f456e756d657261626c654d61703a206e6f6e6578697374656e74206b65790000604482015260640161025d565b60008080611134858561117f565b600081815260029690960160205260409095205494959350505050565b60006106b0825490565b60008181526001830160205260408120541515610ff6565b6000610ff6838361118b565b6000610ff683836111da565b60008181526001830160205260408120546111d2575081546001818101845560008481526020808220909301849055845484825282860190935260409020919091556106b0565b5060006106b0565b60008260000182815481106111f1576111f1611cb2565b9060005260206000200154905092915050565b61015380611cc983390190565b61015380611e1c83390190565b61015380611f6f83390190565b610153806120c283390190565b6101538061221583390190565b6101538061236883390190565b80356001600160a01b038116811461126957600080fd5b919050565b60006020828403121561128057600080fd5b610ff682611252565b60008083601f84011261129b57600080fd5b50813567ffffffffffffffff8111156112b357600080fd5b60208301915083602082850101111561103657600080fd5b6000608082840312156112dd57600080fd5b50919050565b6000604082840312156112dd57600080fd5b600080600080600080600080600060c08a8c03121561131357600080fd5b893567ffffffffffffffff8082111561132b57600080fd5b6113378d838e01611289565b909b50995060208c013591508082111561135057600080fd5b61135c8d838e01611289565b909950975060408c013591508082111561137557600080fd5b6113818d838e01611289565b909750955085915061139560608d01611252565b945060808c01359150808211156113ab57600080fd5b6113b78d838e016112cb565b935060a08c01359150808211156113cd57600080fd5b506113da8c828d016112e3565b9150509295985092959850929598565b634e487b7160e01b600052604160045260246000fd5b600060c0828403121561141257600080fd5b60405160c0810181811067ffffffffffffffff82111715611435576114356113ea565b60405261144183611252565b815261144f60208401611252565b602082015261146060408401611252565b604082015261147160608401611252565b606082015261148260808401611252565b608082015261149360a08401611252565b60a08201529392505050565b6000602082840312156114b157600080fd5b813567ffffffffffffffff808211156114c957600080fd5b818401915084601f8301126114dd57600080fd5b8135818111156114ef576114ef6113ea565b604051601f8201601f19908116603f01168101908382118183101715611517576115176113ea565b8160405282815287602084870101111561153057600080fd5b826020860160208301376000928101602001929092525095945050505050565b6000602082840312156112dd57600080fd5b600061010082840312156112dd57600080fd5b60008060008060008060008060008060006101008c8e03121561159757600080fd5b67ffffffffffffffff808d3511156115ae57600080fd5b6115bb8e8e358f01611289565b909c509a5060208d01358110156115d157600080fd5b6115e18e60208f01358f01611289565b909a50985060408d01358110156115f757600080fd5b6116078e60408f01358f01611289565b909850965061161860608e01611252565b95508060808e0135111561162b57600080fd5b61163b8e60808f01358f016112cb565b94508060a08e0135111561164e57600080fd5b61165e8e60a08f01358f016112e3565b93508060c08e0135111561167157600080fd5b6116818e60c08f01358f01611550565b92508060e08e0135111561169457600080fd5b506116a58d60e08e01358e01611562565b90509295989b509295989b9093969950565b6000602082840312156116c957600080fd5b5035919050565b6020808252818101527f4f776e61626c653a2063616c6c6572206973206e6f7420746865206f776e6572604082015260600190565b8183823760009101908152919050565b6000808335601e1984360301811261172c57600080fd5b83018035915067ffffffffffffffff82111561174757600080fd5b60200191503681900382131561103657600080fd5b6000808335601e1984360301811261177357600080fd5b83018035915067ffffffffffffffff82111561178e57600080fd5b6020019150600581901b360382131561103657600080fd5b81835281816020850137506000828201602090810191909152601f909101601f19169091010190565b6000808335601e198436030181126117e657600080fd5b830160208101925035905067ffffffffffffffff81111561180657600080fd5b80360382131561103657600080fd5b803563ffffffff8116811461126957600080fd5b6000808335601e1984360301811261184057600080fd5b830160208101925035905067ffffffffffffffff81111561186057600080fd5b8060051b360382131561103657600080fd5b81835260006001600160fb1b0383111561188b57600080fd5b8260051b80836020870137939093016020019392505050565b600060018060a01b03808d168352602060c0818501526118c860c085018d8f6117a6565b6040858203818701526118dc828d8f6117a6565b91506060868303818801526118f2838c8e6117a6565b8a8616608089015287810360a08901528881529250838301600589901b840185018a60005b8b811015611a3357868303601f190184528135368e9003605e1901811261193d57600080fd5b8d018961194982611252565b16845288810135609e1982360301811261196257600080fd5b848a01879052810180358588015261197c8a8201826117cf565b60a06080880152611992610100880182846117a6565b9150506119a1898301836117cf565b605f19808985030160a08a01526119b98483856117a6565b93506119c78b8601866117cf565b93509150808985030160c08a0152506119e18383836117a6565b9250505063ffffffff6119f660808401611815565b1660e0870152611a0889840184611829565b9350915085810389870152611a1e818484611872565b968b0196955050509188019150600101611917565b5050809750505050505050509b9a5050505050505050505050565b6001600160a01b0385168152606060208201819052600090611a7390830185876117a6565b905082604083015295945050505050565b60c081526000611a9860c083018b8d6117a6565b8281036020840152611aab818a8c6117a6565b90508281036040840152611ac081888a6117a6565b6001600160a01b03968716606085015294861660808401525050921660a0909201919091529695505050505050565b600060208284031215611b0157600080fd5b610ff682611815565b600060018060a01b03808716835260606020840152611b2d6060840186886117a6565b915080841660408401525095945050505050565b6000815180845260005b81811015611b6757602081850181015186830182015201611b4b565b506000602082860101526020601f19601f83011685010191505092915050565b6000815160e08452611b9c60e0850182611b41565b905060208301518482036020860152611bb58282611b41565b91505060408301518482036040860152611bcf8282611b41565b91505060608301518482036060860152611be98282611b41565b91505063ffffffff608084015116608085015260018060a01b0360a08401511660a085015260c083015184820360c0860152611c258282611b41565b95945050505050565b6001600160a01b03848116825283166020820152606060408201819052600090611c2590830184611b87565b6001600160a01b03858116825284166020820152600060038410611c8e57634e487b7160e01b600052602160045260246000fd5b83604083015260806060830152611ca86080830184611b87565b9695505050505050565b634e487b7160e01b600052603260045260246000fdfe608060405234801561001057600080fd5b5060405161015338038061015383398101604081905261002f91610054565b600080546001600160a01b0319166001600160a01b0392909216919091179055610084565b60006020828403121561006657600080fd5b81516001600160a01b038116811461007d57600080fd5b9392505050565b60c1806100926000396000f3fe60806040526000805460405182916001600160a01b03169060229083903690607b565b600060405180830381855af49150503d8060008114605b576040519150601f19603f3d011682016040523d82523d6000602084013e6060565b606091505b509150915080516020820183600081146077578282f35b8282fd5b818382376000910190815291905056fea26469706673582212208fbab9ed79597919d00591d78ab070829715b3b0b270adbe2df8bd3bf29b8d0b64736f6c63430008110033608060405234801561001057600080fd5b5060405161015338038061015383398101604081905261002f91610054565b600080546001600160a01b0319166001600160a01b0392909216919091179055610084565b60006020828403121561006657600080fd5b81516001600160a01b038116811461007d57600080fd5b9392505050565b60c1806100926000396000f3fe60806040526000805460405182916001600160a01b03169060229083903690607b565b600060405180830381855af49150503d8060008114605b576040519150601f19603f3d011682016040523d82523d6000602084013e6060565b606091505b509150915080516020820183600081146077578282f35b8282fd5b818382376000910190815291905056fea2646970667358221220a8078ad685c9bc6f5b98629a66c5f1b6944e2141600940fc7f47be2cb7c8b3f164736f6c63430008110033608060405234801561001057600080fd5b5060405161015338038061015383398101604081905261002f91610054565b600080546001600160a01b0319166001600160a01b0392909216919091179055610084565b60006020828403121561006657600080fd5b81516001600160a01b038116811461007d57600080fd5b9392505050565b60c1806100926000396000f3fe60806040526000805460405182916001600160a01b03169060229083903690607b565b600060405180830381855af49150503d8060008114605b576040519150601f19603f3d011682016040523d82523d6000602084013e6060565b606091505b509150915080516020820183600081146077578282f35b8282fd5b818382376000910190815291905056fea2646970667358221220e4d234faebfd5299c6f17923584ebb789404c5b90139f3a54f4df66c87e0283864736f6c63430008110033608060405234801561001057600080fd5b5060405161015338038061015383398101604081905261002f91610054565b600080546001600160a01b0319166001600160a01b0392909216919091179055610084565b60006020828403121561006657600080fd5b81516001600160a01b038116811461007d57600080fd5b9392505050565b60c1806100926000396000f3fe60806040526000805460405182916001600160a01b03169060229083903690607b565b600060405180830381855af49150503d8060008114605b576040519150601f19603f3d011682016040523d82523d6000602084013e6060565b606091505b509150915080516020820183600081146077578282f35b8282fd5b818382376000910190815291905056fea26469706673582212208a3f49b7a3a64bf3b8c09cacf43614c9e59fb31512d481b816224194e4c9b1e964736f6c63430008110033608060405234801561001057600080fd5b5060405161015338038061015383398101604081905261002f91610054565b600080546001600160a01b0319166001600160a01b0392909216919091179055610084565b60006020828403121561006657600080fd5b81516001600160a01b038116811461007d57600080fd5b9392505050565b60c1806100926000396000f3fe60806040526000805460405182916001600160a01b03169060229083903690607b565b600060405180830381855af49150503d8060008114605b576040519150601f19603f3d011682016040523d82523d6000602084013e6060565b606091505b509150915080516020820183600081146077578282f35b8282fd5b818382376000910190815291905056fea2646970667358221220740b0a83ef715b76d50dc5661784a9fea69d133f96f2fa16164f5d4fdc92c09064736f6c63430008110033608060405234801561001057600080fd5b5060405161015338038061015383398101604081905261002f91610054565b600080546001600160a01b0319166001600160a01b0392909216919091179055610084565b60006020828403121561006657600080fd5b81516001600160a01b038116811461007d57600080fd5b9392505050565b60c1806100926000396000f3fe60806040526000805460405182916001600160a01b03169060229083903690607b565b600060405180830381855af49150503d8060008114605b576040519150601f19603f3d011682016040523d82523d6000602084013e6060565b606091505b509150915080516020820183600081146077578282f35b8282fd5b818382376000910190815291905056fea26469706673582212207d2e7d27826742a28949effc27aa3f880ad62d7e7d776e655a7a724d75cb2be764736f6c63430008110033a2646970667358221220c124e9af43d886c645b167c5b23b4d8706be1c812634b07b5469d989384ba08564736f6c63430008110033",
  "immutableReferences": {},
  "source": "// SPDX-License-Identifier: MIT\npragma solidity 0.8.17;\n\n// import '../openzeppelin/contracts/utils/structs/EnumerableSet.sol';\nimport './libs/Ownable.sol';\n// Module impl\nimport './DAO.sol';\nimport './Asset.sol';\nimport './AssetShell.sol';\nimport './Ledger.sol';\nimport './Member.sol';\nimport './VotePool.sol';\n// Proxy\nimport './gen/DAOProxy.sol';\nimport './gen/AssetProxy.sol';\nimport './gen/AssetShellProxy.sol';\nimport './gen/LedgerProxy.sol';\nimport './gen/MemberProxy.sol';\nimport './gen/VotePoolProxy.sol';\n\n/**\n * @title DAOs contract global DAOs manage\n */\ncontract DAOs is Upgrade, Initializable, Ownable, IDAOs {\n\t// using EnumerableSet for EnumerableSet.AddressSet;\n\tusing EnumerableMap for EnumerableMap.UintToAddressMap;\n\n\tstruct DAOIMPLs {\n\t\taddress   DAO;\n\t\taddress   Member;\n\t\taddress   VotePool;\n\t\taddress   Ledger;\n\t\taddress   Asset;\n\t\taddress   AssetShell;\n\t}\n\n\tstruct InitMemberArgs {\n\t\tstring name;\n\t\tstring description;\n\t\tstring baseURI;\n\t\tMember.MintMemberArgs[] members;\n\t}\n\n\tstruct InitVotePoolArgs {\n\t\tstring  description;\n\t\tuint256 lifespan;\n\t}\n\n\tstruct InitLedgerArgs {\n\t\tstring  description;\n\t}\n\n\tstruct InitAssetArgs {\n\t\tstring  name;\n\t\tstring  description;\n\t\tstring  image;\n\t\tstring  external_link;\n\t\tuint32  seller_fee_basis_points_first;\n\t\tuint32  seller_fee_basis_points_second;\n\t\taddress fee_recipient;\n\t\tstring  contractURIPrefix;\n\t}\n\n\tEnumerableMap.UintToAddressMap private  _DAOs; // global DAOs list\n\tDAOIMPLs                       public   defaultIMPLs; // default logic impl\n\tuint256[50]                    private  __; // reserved storage space\n\n\tfunction initDAOs() external initializer {\n\t\tinitOwnable();\n\t}\n\n\tfunction setDefaultIMPLs(DAOIMPLs memory IMPLs) public onlyOwner {\n\t\tdefaultIMPLs = IMPLs;\n\t}\n\n\t/**\n\t * @dev deploy() deploy common voting DAO\n\t */\n\tfunction deploy(\n\t\tstring           calldata    name,              string           calldata    mission,\n\t\tstring           calldata    description,       address                      operator,\n\t\tInitMemberArgs   calldata    memberArgs,        InitVotePoolArgs calldata    votePoolArgs\n\t) public returns (DAO host) {\n\t\tuint256 id = uint256(keccak256(bytes(name)));\n\n\t\trequire(!_DAOs.contains(id), \"#DAOs#deploy DAO with corresponding name already exists\");\n\n\t\thost          = DAO( address(new DAOProxy(defaultIMPLs.DAO)) );\n\t\tMember member = Member( address(new MemberProxy(defaultIMPLs.Member)) );\n\t\tVotePool root = VotePool( address(new VotePoolProxy(defaultIMPLs.VotePool)) );\n\n\t\tmember.initMember(address(host), memberArgs.name, memberArgs.description, memberArgs.baseURI, address(0), memberArgs.members);\n\t\troot.initVotePool(address(host), votePoolArgs.description, votePoolArgs.lifespan);\n\t\thost.initDAO(name, mission, description, address(root), operator, address(member));\n\n\t\t_DAOs.set(id, address(host));\n\n\t\temit Created(address(host));\n\t}\n\n\t/**\n\t * @dev makeAssetSales() deploy asset sales DAO\n\t */\n\tfunction deployAssetSalesDAO(\n\t\tstring             calldata    name,              string             calldata    mission,\n\t\tstring             calldata    description,       address                        operator,\n\t\tInitMemberArgs     calldata    memberArgs,        InitVotePoolArgs   calldata    votePoolArgs,\n\t\tInitLedgerArgs     calldata    ledgerArgs,        InitAssetArgs      calldata    assetArgs\n\t) public returns (DAO host) {\n\n\t\thost = deploy(name, mission, description, address(this), memberArgs, votePoolArgs);\n\t\t// sales\n\t\tLedger      ledger      = Ledger( payable(address(new LedgerProxy(defaultIMPLs.Ledger))) );\n\t\tAsset       asset       = Asset( address(new AssetProxy(defaultIMPLs.Asset)));\n\t\tAssetShell  assetFirst  = AssetShell( payable(address(new AssetShellProxy(defaultIMPLs.AssetShell))));\n\t\tAssetShell  assetSecond = AssetShell( payable(address(new AssetShellProxy(defaultIMPLs.AssetShell))));\n\n\t\tAssetBase.InitContractURI memory uri;\n\t\turi.name                    = assetArgs.name;\n\t\turi.description             = assetArgs.description;\n\t\turi.image                   = assetArgs.image;\n\t\turi.external_link           = assetArgs.external_link;\n\t\turi.seller_fee_basis_points = assetArgs.seller_fee_basis_points_second;\n\t\turi.fee_recipient           = assetArgs.fee_recipient;\n\t\turi.contractURIPrefix       = assetArgs.contractURIPrefix;\n\n\t\tledger.initLedger(address(host), ledgerArgs.description, address(0));\n\t\tasset.initAsset(address(host), address(0), uri);\n\t\tassetSecond.initAssetShell(address(host), address(0), IAssetShell.SaleType.kSecond, uri);\n\n\t\turi.seller_fee_basis_points = assetArgs.seller_fee_basis_points_first;\n\n\t\tassetFirst.initAssetShell(address(host), address(0), IAssetShell.SaleType.kFirst, uri);\n\n\t\t// set modules\n\t\thost.setModule(Module_LEDGER_ID, address(ledger));\n\t\thost.setModule(Module_ASSET_ID, address(asset));\n\t\thost.setModule(Module_ASSET_First_ID, address(assetFirst));\n\t\thost.setModule(Module_ASSET_Second_ID, address(assetSecond));\n\n\t\thost.setOperator(operator); // change to raw operator\n\t}\n\n\t/**\n\t * @dev length() Returns DAOs length\n\t */\n\tfunction length() view public returns (uint256) {\n\t\treturn _DAOs.length();\n\t}\n\n\t/**\n\t * @dev contains(address) is contains dao address\n\t */\n\tfunction get(string memory name) view public returns (DAO) {\n\t\treturn DAO(_DAOs.get(uint256(keccak256(bytes(name)))));\n\t}\n\n\t/**\n\t * @dev at(id) get DAO object from index\n\t * @param index uint256 dao index\n\t * @return Returns the IDAO interface address and key\n\t */\n\tfunction at(uint256 index) view external returns (DAO) {\n\t\taddress addr;\n\t\t(, addr) = _DAOs.at(index);\n\t\treturn DAO(addr);\n\t}\n\n\t/**\n\t * @dev Returns the implementation contract address\n\t */\n\tfunction impl() view external returns (address) {\n\t\treturn _impl;\n\t}\n\n\t/**\n\t * @dev upgrade(address) upgrade contracts\n\t */\n\tfunction upgrade(address impl) public onlyOwner {\n\t\t_impl = impl;\n\t}\n}",
  "sourcePath": "/Users/louis/Project/hc/NFTSwap/SmartHolder/contracts/DAOs.sol",
  "compiler": {
    "name": "solc",
    "version": "0.8.17+commit.8df45f5f.Emscripten.clang"
  },
  "schemaVersion": "3.4.11",
  "updatedAt": "2023-01-06T04:38:52.195Z",
  "devdoc": {
    "kind": "dev",
    "methods": {
      "at(uint256)": {
        "details": "at(id) get DAO object from index",
        "params": {
          "index": "uint256 dao index"
        },
        "returns": {
          "_0": "Returns the IDAO interface address and key"
        }
      },
      "deploy(string,string,string,address,(string,string,string,(address,(uint256,string,string,string,uint32),uint256[])[]),(string,uint256))": {
        "details": "deploy() deploy common voting DAO"
      },
      "deployAssetSalesDAO(string,string,string,address,(string,string,string,(address,(uint256,string,string,string,uint32),uint256[])[]),(string,uint256),(string),(string,string,string,string,uint32,uint32,address,string))": {
        "details": "makeAssetSales() deploy asset sales DAO"
      },
      "get(string)": {
        "details": "contains(address) is contains dao address"
      },
      "impl()": {
        "details": "Returns the implementation contract address"
      },
      "length()": {
        "details": "length() Returns DAOs length"
      },
      "owner()": {
        "details": "Returns the address of the current owner."
      },
      "renounceOwnership()": {
        "details": "Leaves the contract without owner. It will not be possible to call `onlyOwner` functions anymore. Can only be called by the current owner. NOTE: Renouncing ownership will leave the contract without an owner, thereby removing any functionality that is only available to the owner."
      },
      "transferOwnership(address)": {
        "details": "Transfers ownership of the contract to a new account (`newOwner`). Can only be called by the current owner."
      },
      "upgrade(address)": {
        "details": "upgrade(address) upgrade contracts"
      }
    },
    "title": "DAOs contract global DAOs manage",
    "version": 1
  },
  "userdoc": {
    "kind": "user",
    "methods": {},
    "version": 1
  }
}