{
  "contractName": "DAOs",
  "abi": [
    {
      "inputs": [],
      "name": "AddressEmpty",
      "type": "error"
    },
    {
      "inputs": [],
      "name": "OnlyOwnerAvailable",
      "type": "error"
    },
    {
      "anonymous": false,
      "inputs": [
        {
          "indexed": true,
          "internalType": "address",
          "name": "dao",
          "type": "address"
        }
      ],
      "name": "Created",
      "type": "event"
    },
    {
      "anonymous": false,
      "inputs": [
        {
          "indexed": false,
          "internalType": "uint8",
          "name": "version",
          "type": "uint8"
        }
      ],
      "name": "Initialized",
      "type": "event"
    },
    {
      "anonymous": false,
      "inputs": [
        {
          "indexed": true,
          "internalType": "address",
          "name": "previousOwner",
          "type": "address"
        },
        {
          "indexed": true,
          "internalType": "address",
          "name": "newOwner",
          "type": "address"
        }
      ],
      "name": "OwnershipTransferred",
      "type": "event"
    },
    {
      "inputs": [],
      "name": "defaultIMPLs",
      "outputs": [
        {
          "internalType": "address",
          "name": "DAO",
          "type": "address"
        },
        {
          "internalType": "address",
          "name": "Member",
          "type": "address"
        },
        {
          "internalType": "address",
          "name": "VotePool",
          "type": "address"
        },
        {
          "internalType": "address",
          "name": "Ledger",
          "type": "address"
        },
        {
          "internalType": "address",
          "name": "Asset",
          "type": "address"
        },
        {
          "internalType": "address",
          "name": "AssetShell",
          "type": "address"
        },
        {
          "internalType": "address",
          "name": "Share",
          "type": "address"
        }
      ],
      "stateMutability": "view",
      "type": "function",
      "constant": true
    },
    {
      "inputs": [],
      "name": "owner",
      "outputs": [
        {
          "internalType": "address",
          "name": "",
          "type": "address"
        }
      ],
      "stateMutability": "view",
      "type": "function",
      "constant": true
    },
    {
      "inputs": [],
      "name": "renounceOwnership",
      "outputs": [],
      "stateMutability": "nonpayable",
      "type": "function"
    },
    {
      "inputs": [
        {
          "internalType": "address",
          "name": "newOwner",
          "type": "address"
        }
      ],
      "name": "transferOwnership",
      "outputs": [],
      "stateMutability": "nonpayable",
      "type": "function"
    },
    {
      "inputs": [],
      "name": "initDAOs",
      "outputs": [],
      "stateMutability": "nonpayable",
      "type": "function"
    },
    {
      "inputs": [
        {
          "components": [
            {
              "internalType": "address",
              "name": "DAO",
              "type": "address"
            },
            {
              "internalType": "address",
              "name": "Member",
              "type": "address"
            },
            {
              "internalType": "address",
              "name": "VotePool",
              "type": "address"
            },
            {
              "internalType": "address",
              "name": "Ledger",
              "type": "address"
            },
            {
              "internalType": "address",
              "name": "Asset",
              "type": "address"
            },
            {
              "internalType": "address",
              "name": "AssetShell",
              "type": "address"
            },
            {
              "internalType": "address",
              "name": "Share",
              "type": "address"
            }
          ],
          "internalType": "struct DAOs.DAOIMPLs",
          "name": "IMPLs",
          "type": "tuple"
        }
      ],
      "name": "setDefaultIMPLs",
      "outputs": [],
      "stateMutability": "nonpayable",
      "type": "function"
    },
    {
      "inputs": [],
      "name": "operator",
      "outputs": [
        {
          "internalType": "address",
          "name": "",
          "type": "address"
        }
      ],
      "stateMutability": "view",
      "type": "function",
      "constant": true
    },
    {
      "inputs": [
        {
          "internalType": "address",
          "name": "operator",
          "type": "address"
        }
      ],
      "name": "setOperator",
      "outputs": [],
      "stateMutability": "nonpayable",
      "type": "function"
    },
    {
      "inputs": [
        {
          "components": [
            {
              "internalType": "string",
              "name": "name",
              "type": "string"
            },
            {
              "internalType": "string",
              "name": "mission",
              "type": "string"
            },
            {
              "internalType": "string",
              "name": "description",
              "type": "string"
            },
            {
              "internalType": "string",
              "name": "image",
              "type": "string"
            },
            {
              "internalType": "bytes",
              "name": "extend",
              "type": "bytes"
            },
            {
              "internalType": "address",
              "name": "unlockOperator",
              "type": "address"
            }
          ],
          "internalType": "struct DAO.InitDAOArgs",
          "name": "daoArgs",
          "type": "tuple"
        },
        {
          "internalType": "address",
          "name": "operator",
          "type": "address"
        },
        {
          "components": [
            {
              "internalType": "string",
              "name": "name",
              "type": "string"
            },
            {
              "internalType": "string",
              "name": "description",
              "type": "string"
            },
            {
              "internalType": "string",
              "name": "baseURI",
              "type": "string"
            },
            {
              "components": [
                {
                  "internalType": "address",
                  "name": "owner",
                  "type": "address"
                },
                {
                  "components": [
                    {
                      "internalType": "uint256",
                      "name": "id",
                      "type": "uint256"
                    },
                    {
                      "internalType": "string",
                      "name": "name",
                      "type": "string"
                    },
                    {
                      "internalType": "string",
                      "name": "description",
                      "type": "string"
                    },
                    {
                      "internalType": "string",
                      "name": "image",
                      "type": "string"
                    },
                    {
                      "internalType": "uint32",
                      "name": "votes",
                      "type": "uint32"
                    }
                  ],
                  "internalType": "struct IMember.Info",
                  "name": "info",
                  "type": "tuple"
                },
                {
                  "internalType": "uint256[]",
                  "name": "permissions",
                  "type": "uint256[]"
                }
              ],
              "internalType": "struct Member.MintMemberArgs[]",
              "name": "members",
              "type": "tuple[]"
            },
            {
              "internalType": "uint256",
              "name": "executor",
              "type": "uint256"
            }
          ],
          "internalType": "struct DAOs.InitMemberArgs",
          "name": "memberArgs",
          "type": "tuple"
        },
        {
          "components": [
            {
              "internalType": "string",
              "name": "description",
              "type": "string"
            },
            {
              "internalType": "uint256",
              "name": "lifespan",
              "type": "uint256"
            }
          ],
          "internalType": "struct DAOs.InitVotePoolArgs",
          "name": "votePoolArgs",
          "type": "tuple"
        }
      ],
      "name": "deploy",
      "outputs": [
        {
          "internalType": "contract DAO",
          "name": "host",
          "type": "address"
        }
      ],
      "stateMutability": "nonpayable",
      "type": "function"
    },
    {
      "inputs": [
        {
          "components": [
            {
              "internalType": "string",
              "name": "name",
              "type": "string"
            },
            {
              "internalType": "string",
              "name": "mission",
              "type": "string"
            },
            {
              "internalType": "string",
              "name": "description",
              "type": "string"
            },
            {
              "internalType": "string",
              "name": "image",
              "type": "string"
            },
            {
              "internalType": "bytes",
              "name": "extend",
              "type": "bytes"
            },
            {
              "internalType": "address",
              "name": "unlockOperator",
              "type": "address"
            }
          ],
          "internalType": "struct DAO.InitDAOArgs",
          "name": "daoArgs",
          "type": "tuple"
        },
        {
          "internalType": "address",
          "name": "operator",
          "type": "address"
        },
        {
          "components": [
            {
              "internalType": "string",
              "name": "name",
              "type": "string"
            },
            {
              "internalType": "string",
              "name": "description",
              "type": "string"
            },
            {
              "internalType": "string",
              "name": "baseURI",
              "type": "string"
            },
            {
              "components": [
                {
                  "internalType": "address",
                  "name": "owner",
                  "type": "address"
                },
                {
                  "components": [
                    {
                      "internalType": "uint256",
                      "name": "id",
                      "type": "uint256"
                    },
                    {
                      "internalType": "string",
                      "name": "name",
                      "type": "string"
                    },
                    {
                      "internalType": "string",
                      "name": "description",
                      "type": "string"
                    },
                    {
                      "internalType": "string",
                      "name": "image",
                      "type": "string"
                    },
                    {
                      "internalType": "uint32",
                      "name": "votes",
                      "type": "uint32"
                    }
                  ],
                  "internalType": "struct IMember.Info",
                  "name": "info",
                  "type": "tuple"
                },
                {
                  "internalType": "uint256[]",
                  "name": "permissions",
                  "type": "uint256[]"
                }
              ],
              "internalType": "struct Member.MintMemberArgs[]",
              "name": "members",
              "type": "tuple[]"
            },
            {
              "internalType": "uint256",
              "name": "executor",
              "type": "uint256"
            }
          ],
          "internalType": "struct DAOs.InitMemberArgs",
          "name": "memberArgs",
          "type": "tuple"
        },
        {
          "components": [
            {
              "internalType": "string",
              "name": "description",
              "type": "string"
            },
            {
              "internalType": "uint256",
              "name": "lifespan",
              "type": "uint256"
            }
          ],
          "internalType": "struct DAOs.InitVotePoolArgs",
          "name": "votePoolArgs",
          "type": "tuple"
        },
        {
          "components": [
            {
              "internalType": "string",
              "name": "description",
              "type": "string"
            }
          ],
          "internalType": "struct DAOs.InitLedgerArgs",
          "name": "ledgerArgs",
          "type": "tuple"
        },
        {
          "components": [
            {
              "internalType": "string",
              "name": "name",
              "type": "string"
            },
            {
              "internalType": "string",
              "name": "description",
              "type": "string"
            },
            {
              "internalType": "string",
              "name": "image",
              "type": "string"
            },
            {
              "internalType": "string",
              "name": "external_link",
              "type": "string"
            },
            {
              "internalType": "uint32",
              "name": "seller_fee_basis_points_first",
              "type": "uint32"
            },
            {
              "internalType": "uint32",
              "name": "seller_fee_basis_points_second",
              "type": "uint32"
            },
            {
              "internalType": "address",
              "name": "fee_recipient",
              "type": "address"
            },
            {
              "internalType": "string",
              "name": "base_contract_uri",
              "type": "string"
            },
            {
              "internalType": "string",
              "name": "base_uri",
              "type": "string"
            }
          ],
          "internalType": "struct DAOs.InitAssetArgs",
          "name": "assetArgs",
          "type": "tuple"
        }
      ],
      "name": "deployAssetSalesDAO",
      "outputs": [
        {
          "internalType": "contract DAO",
          "name": "host",
          "type": "address"
        }
      ],
      "stateMutability": "nonpayable",
      "type": "function"
    },
    {
      "inputs": [
        {
          "internalType": "contract IDAO",
          "name": "host",
          "type": "address"
        },
        {
          "internalType": "address",
          "name": "operator",
          "type": "address"
        },
        {
          "internalType": "uint256",
          "name": "totalSupply",
          "type": "uint256"
        },
        {
          "internalType": "uint256",
          "name": "maxSupply",
          "type": "uint256"
        },
        {
          "internalType": "string",
          "name": "name",
          "type": "string"
        },
        {
          "internalType": "string",
          "name": "symbol",
          "type": "string"
        },
        {
          "internalType": "string",
          "name": "description",
          "type": "string"
        }
      ],
      "name": "deployShare",
      "outputs": [
        {
          "internalType": "address",
          "name": "",
          "type": "address"
        }
      ],
      "stateMutability": "nonpayable",
      "type": "function"
    },
    {
      "inputs": [],
      "name": "length",
      "outputs": [
        {
          "internalType": "uint256",
          "name": "",
          "type": "uint256"
        }
      ],
      "stateMutability": "view",
      "type": "function",
      "constant": true
    },
    {
      "inputs": [
        {
          "internalType": "string",
          "name": "name",
          "type": "string"
        }
      ],
      "name": "get",
      "outputs": [
        {
          "internalType": "contract DAO",
          "name": "",
          "type": "address"
        }
      ],
      "stateMutability": "view",
      "type": "function",
      "constant": true
    },
    {
      "inputs": [
        {
          "internalType": "uint256",
          "name": "index",
          "type": "uint256"
        }
      ],
      "name": "at",
      "outputs": [
        {
          "internalType": "contract DAO",
          "name": "",
          "type": "address"
        }
      ],
      "stateMutability": "view",
      "type": "function",
      "constant": true
    },
    {
      "inputs": [],
      "name": "impl",
      "outputs": [
        {
          "internalType": "address",
          "name": "",
          "type": "address"
        }
      ],
      "stateMutability": "view",
      "type": "function",
      "constant": true
    },
    {
      "inputs": [
        {
          "internalType": "address",
          "name": "impl_",
          "type": "address"
        }
      ],
      "name": "upgrade",
      "outputs": [],
      "stateMutability": "nonpayable",
      "type": "function"
    },
    {
      "inputs": [
        {
          "components": [
            {
              "internalType": "address",
              "name": "token",
              "type": "address"
            },
            {
              "internalType": "uint256",
              "name": "value",
              "type": "uint256"
            },
            {
              "components": [
                {
                  "components": [
                    {
                      "internalType": "uint256",
                      "name": "tokenId",
                      "type": "uint256"
                    },
                    {
                      "internalType": "address",
                      "name": "owner",
                      "type": "address"
                    },
                    {
                      "internalType": "address",
                      "name": "previous",
                      "type": "address"
                    }
                  ],
                  "internalType": "struct AssetShell.LockedID",
                  "name": "lock",
                  "type": "tuple"
                },
                {
                  "internalType": "uint256",
                  "name": "payValue",
                  "type": "uint256"
                },
                {
                  "internalType": "address",
                  "name": "payBank",
                  "type": "address"
                },
                {
                  "internalType": "address",
                  "name": "payer",
                  "type": "address"
                }
              ],
              "internalType": "struct AssetShell.UnlockForOperator[]",
              "name": "data",
              "type": "tuple[]"
            }
          ],
          "internalType": "struct DAOs.UnlockAssetForOperator[]",
          "name": "data",
          "type": "tuple[]"
        }
      ],
      "name": "unlockAssetForOperator",
      "outputs": [],
      "stateMutability": "nonpayable",
      "type": "function"
    }
  ],
  "bytecode": "0x608060405234801561001057600080fd5b50612f71806100206000396000f3fe60806040523480156200001157600080fd5b5060043610620001205760003560e01c8063715018a611620000af5780638ff4d3d2116200007a5780638ff4d3d214620002aa578063b3ab15fb14620002c1578063e0886f9014620002d8578063ec47f60f14620002ef578063f2fde38b14620002f957600080fd5b8063715018a6146200026557806380da12f2146200026f5780638abf607714620002865780638da5cb5b146200029857600080fd5b80632abfd88611620000f05780632abfd886146200020e5780633ccebafd1462000225578063570ca735146200023c578063693ec85e146200024e57600080fd5b8062d46a2614620001255780630900f01014620001ac5780631d8a4cff14620001c55780631f7b6d3214620001f5575b600080fd5b600554600654600754600854600954600a54600b546200015e966001600160a01b03908116968116958116948116938116928116911687565b604080516001600160a01b039889168152968816602088015294871694860194909452918516606085015284166080840152831660a083015290911660c082015260e0015b60405180910390f35b620001c3620001bd36600462001798565b62000310565b005b620001dc620001d6366004620017fd565b6200035e565b6040516001600160a01b039091168152602001620001a3565b620001ff62000435565b604051908152602001620001a3565b620001c36200021f366004620018e0565b62000448565b620001c36200023636600462001970565b620005e5565b600c546001600160a01b0316620001dc565b620001dc6200025f36600462001a3a565b620006aa565b620001c3620006c8565b620001dc6200028036600462001b5b565b6200073e565b6000546001600160a01b0316620001dc565b6001546001600160a01b0316620001dc565b620001dc620002bb36600462001c4e565b62000e9a565b620001c3620002d236600462001798565b6200127b565b620001dc620002e936600462001cf7565b620012c9565b620001c3620012e1565b620001c36200030a36600462001798565b62001416565b6001546001600160a01b031633146200033c5760405163399c757960e01b815260040160405180910390fd5b600080546001600160a01b0319166001600160a01b0392909216919091179055565b600b5460405160009182916001600160a01b039091169062000380906200170e565b6001600160a01b039091168152602001604051809103906000f080158015620003ad573d6000803e3d6000fd5b5060405163038dd1f960e31b81529091506001600160a01b03821690631c6e8fc890620003f1908f908f908f908f908f908f908f908f908f908f9060040162001d3a565b600060405180830381600087803b1580156200040c57600080fd5b505af115801562000421573d6000803e3d6000fd5b50929e9d5050505050505050505050505050565b6000620004436002620014c6565b905090565b600c546001600160a01b03163314620004d95760405162461bcd60e51b815260206004820152604260248201527f2344414f732e756e6c6f636b4173736574466f724f70657261746f722829205060448201527f65726d697373696f6e2064656e69656420666f72206f6e6c79206f706572617460648201526137b960f11b608482015260a4015b60405180910390fd5b60005b63ffffffff8116821115620005e05782828263ffffffff1681811062000506576200050662001db4565b90506020028101906200051a919062001dca565b6200052a90602081019062001798565b6001600160a01b0316631e347d9984848463ffffffff1681811062000553576200055362001db4565b905060200281019062000567919062001dca565b6200057790604081019062001deb565b6040518363ffffffff1660e01b81526004016200059692919062001e37565b600060405180830381600087803b158015620005b157600080fd5b505af1158015620005c6573d6000803e3d6000fd5b505050508080620005d79062001eec565b915050620004dc565b505050565b6001546001600160a01b03163314620006115760405163399c757960e01b815260040160405180910390fd5b8051600580546001600160a01b03199081166001600160a01b0393841617909155602083015160068054831691841691909117905560408301516007805483169184169190911790556060830151600880548316918416919091179055608083015160098054831691841691909117905560a0830151600a8054831691841691909117905560c090920151600b80549093169116179055565b80516020820120600090620006c290600290620014d3565b92915050565b6001546001600160a01b03163314620006f45760405163399c757960e01b815260040160405180910390fd5b6001546040516000916001600160a01b0316907f8be0079c531659141344cd1fd0a4f28419497f9722a3daafe3b4186f6b6457e0908390a3600180546001600160a01b0319169055565b60006200074e8730878762000e9a565b6008546040519192506000916001600160a01b039091169062000771906200171c565b6001600160a01b039091168152602001604051809103906000f0801580156200079e573d6000803e3d6000fd5b506009546040519192506000916001600160a01b0390911690620007c2906200172a565b6001600160a01b039091168152602001604051809103906000f080158015620007ef573d6000803e3d6000fd5b50600a546040519192506000916001600160a01b0390911690620008139062001738565b6001600160a01b039091168152602001604051809103906000f08015801562000840573d6000803e3d6000fd5b50600a546040519192506000916001600160a01b0390911690620008649062001738565b6001600160a01b039091168152602001604051809103906000f08015801562000891573d6000803e3d6000fd5b509050620008ec60405180610100016040528060608152602001606081526020016060815260200160608152602001600063ffffffff16815260200160006001600160a01b0316815260200160608152602001606081525090565b620008f8878062001f1e565b8080601f0160208091040260200160405190810160405280939291908181526020018383808284376000920191909152505050908252506200093e602088018862001f1e565b8080601f016020809104026020016040519081016040528093929190818152602001838380828437600092019190915250505050602082015262000986604088018862001f1e565b8080601f0160208091040260200160405190810160405280939291908181526020018383808284376000920191909152505050506040820152620009ce606088018862001f1e565b8080601f016020809104026020016040519081016040528093929190818152602001838380828437600092019190915250505050606082015262000a1660e088018862001f1e565b8080601f01602080910402602001604051908101604052809392919081815260200183838082843760009201919091525050505060c082015262000a5f61010088018862001f1e565b8080601f01602080910402602001604051908101604052809392919081815260200183838082843760009201919091525050505060e08083019190915262000aad90880160c0890162001798565b6001600160a01b0390811660a0830152851663f4c38e518762000ad18b8062001f1e565b60006040518563ffffffff1660e01b815260040162000af4949392919062001f68565b600060405180830381600087803b15801562000b0f57600080fd5b505af115801562000b24573d6000803e3d6000fd5b50506040516311435fff60e31b81526001600160a01b0387169250638a1afff8915062000b5b9089906000908690600401620020cb565b600060405180830381600087803b15801562000b7657600080fd5b505af115801562000b8b573d6000803e3d6000fd5b5062000ba29250505060c0880160a089016200210e565b63ffffffff166080820152604051630a04f71760e31b81526001600160a01b03831690635027b8b89062000be390899060009060029087906004016200212c565b600060405180830381600087803b15801562000bfe57600080fd5b505af115801562000c13573d6000803e3d6000fd5b5062000c2a9250505060a08801608089016200210e565b63ffffffff166080820152604051630a04f71760e31b81526001600160a01b03841690635027b8b89062000c6b90899060009060019087906004016200212c565b600060405180830381600087803b15801562000c8657600080fd5b505af115801562000c9b573d6000803e3d6000fd5b50506040516305d2916360e41b8152600260048201526001600160a01b03888116602483015289169250635d2916309150604401600060405180830381600087803b15801562000cea57600080fd5b505af115801562000cff573d6000803e3d6000fd5b50506040516305d2916360e41b8152600360048201526001600160a01b03878116602483015289169250635d2916309150604401600060405180830381600087803b15801562000d4e57600080fd5b505af115801562000d63573d6000803e3d6000fd5b50506040516305d2916360e41b81526004808201526001600160a01b03868116602483015289169250635d2916309150604401600060405180830381600087803b15801562000db157600080fd5b505af115801562000dc6573d6000803e3d6000fd5b50506040516305d2916360e41b8152600560048201526001600160a01b03858116602483015289169250635d2916309150604401600060405180830381600087803b15801562000e1557600080fd5b505af115801562000e2a573d6000803e3d6000fd5b505060405163b3ab15fb60e01b81526001600160a01b038e811660048301528916925063b3ab15fb9150602401600060405180830381600087803b15801562000e7257600080fd5b505af115801562000e87573d6000803e3d6000fd5b5050505050505050509695505050505050565b60008062000ea9868062001f1e565b60405162000eb992919062002187565b604051908190039020905062000ed1600282620014e8565b1562000f465760405162461bcd60e51b815260206004820152603760248201527f2344414f732e6465706c6f792044414f207769746820636f72726573706f6e6460448201527f696e67206e616d6520616c7265616479206578697374730000000000000000006064820152608401620004d0565b6005546040516001600160a01b039091169062000f639062001746565b6001600160a01b039091168152602001604051809103906000f08015801562000f90573d6000803e3d6000fd5b506006546040519193506000916001600160a01b039091169062000fb49062001754565b6001600160a01b039091168152602001604051809103906000f08015801562000fe1573d6000803e3d6000fd5b506007546040519192506000916001600160a01b0390911690620010059062001762565b6001600160a01b039091168152602001604051809103906000f08015801562001032573d6000803e3d6000fd5b5090506001600160a01b03821663b641ee428562001051898062001f1e565b6200106060208c018c62001f1e565b6200106f60408e018e62001f1e565b60008f806060019062001083919062002197565b6040518b63ffffffff1660e01b8152600401620010aa9a99989796959493929190620022ac565b600060405180830381600087803b158015620010c557600080fd5b505af1158015620010da573d6000803e3d6000fd5b5050506001600160a01b0382169050636c4a609485620010fb888062001f1e565b89602001356040518563ffffffff1660e01b815260040162001121949392919062002477565b600060405180830381600087803b1580156200113c57600080fd5b505af115801562001151573d6000803e3d6000fd5b50506040516302251c5760e21b81526001600160a01b0387169250630894715c91506200118b9030908c9086908d908990600401620024af565b600060405180830381600087803b158015620011a657600080fd5b505af1158015620011bb573d6000803e3d6000fd5b50620011d092506002915085905086620014f6565b506080860135156200123c576040516303ee229360e11b8152608087013560048201526001600160a01b038316906307dc452690602401600060405180830381600087803b1580156200122257600080fd5b505af115801562001237573d6000803e3d6000fd5b505050505b6040516001600160a01b038516907f1449abf21e49fd025f33495e77f7b1461caefdd3d4bb646424a3f445c4576a5b90600090a2505050949350505050565b6001546001600160a01b03163314620012a75760405163399c757960e01b815260040160405180910390fd5b600c80546001600160a01b0319166001600160a01b0392909216919091179055565b600080620012d96002846200150e565b949350505050565b600054600160a81b900460ff16158080156200130a57506000546001600160a01b90910460ff16105b806200132d5750303b1580156200132d5750600054600160a01b900460ff166001145b620013925760405162461bcd60e51b815260206004820152602e60248201527f496e697469616c697a61626c653a20636f6e747261637420697320616c72656160448201526d191e481a5b9a5d1a585b1a5e995960921b6064820152608401620004d0565b6000805460ff60a01b1916600160a01b1790558015620013c0576000805460ff60a81b1916600160a81b1790555b620013ca6200152e565b801562001413576000805460ff60a81b19169055604051600181527f7f26b83ff96e1f2b6a682f133852f6798a09c465da95921460cefb38474024989060200160405180910390a15b50565b6001546001600160a01b03163314620014425760405163399c757960e01b815260040160405180910390fd5b6001600160a01b0381166200146a57604051635bb7a72360e01b815260040160405180910390fd5b6001546040516001600160a01b038084169216907f8be0079c531659141344cd1fd0a4f28419497f9722a3daafe3b4186f6b6457e090600090a3600180546001600160a01b0319166001600160a01b0392909216919091179055565b6000620006c28262001573565b6000620014e1838362001580565b9392505050565b6000620014e18383620015f5565b6000620012d984846001600160a01b03851662001603565b60008080806200151f868662001622565b909450925050505b9250929050565b600180546001600160a01b0319163390811790915560405181906000907f8be0079c531659141344cd1fd0a4f28419497f9722a3daafe3b4186f6b6457e0908290a350565b6000620006c2826200164f565b600081815260028301602052604081205480151580620015a75750620015a78484620015f5565b620014e15760405162461bcd60e51b815260206004820152601e60248201527f456e756d657261626c654d61703a206e6f6e6578697374656e74206b657900006044820152606401620004d0565b6000620014e183836200165a565b60008281526002840160205260408120829055620012d9848462001673565b6000808062001632858562001681565b600081815260029690960160205260409095205494959350505050565b6000620006c2825490565b60008181526001830160205260408120541515620014e1565b6000620014e183836200168f565b6000620014e18383620016e1565b6000818152600183016020526040812054620016d857508154600181810184556000848152602080822090930184905584548482528286019093526040902091909155620006c2565b506000620006c2565b6000826000018281548110620016fb57620016fb62001db4565b9060005260206000200154905092915050565b61015380620025f783390190565b610153806200274a83390190565b610153806200289d83390190565b61015380620029f083390190565b6101538062002b4383390190565b6101538062002c9683390190565b6101538062002de983390190565b6001600160a01b03811681146200141357600080fd5b8035620017938162001770565b919050565b600060208284031215620017ab57600080fd5b8135620014e18162001770565b60008083601f840112620017cb57600080fd5b50813567ffffffffffffffff811115620017e457600080fd5b6020830191508360208285010111156200152757600080fd5b60008060008060008060008060008060e08b8d0312156200181d57600080fd5b8a356200182a8162001770565b995060208b01356200183c8162001770565b985060408b0135975060608b0135965060808b013567ffffffffffffffff808211156200186857600080fd5b620018768e838f01620017b8565b909850965060a08d01359150808211156200189057600080fd5b6200189e8e838f01620017b8565b909650945060c08d0135915080821115620018b857600080fd5b50620018c78d828e01620017b8565b915080935050809150509295989b9194979a5092959850565b60008060208385031215620018f457600080fd5b823567ffffffffffffffff808211156200190d57600080fd5b818501915085601f8301126200192257600080fd5b8135818111156200193257600080fd5b8660208260051b85010111156200194857600080fd5b60209290920196919550909350505050565b634e487b7160e01b600052604160045260246000fd5b600060e082840312156200198357600080fd5b60405160e0810181811067ffffffffffffffff82111715620019a957620019a96200195a565b6040528235620019b98162001770565b81526020830135620019cb8162001770565b60208201526040830135620019e08162001770565b60408201526060830135620019f58162001770565b606082015262001a086080840162001786565b608082015262001a1b60a0840162001786565b60a082015262001a2e60c0840162001786565b60c08201529392505050565b60006020828403121562001a4d57600080fd5b813567ffffffffffffffff8082111562001a6657600080fd5b818401915084601f83011262001a7b57600080fd5b81358181111562001a905762001a906200195a565b604051601f8201601f19908116603f0116810190838211818310171562001abb5762001abb6200195a565b8160405282815287602084870101111562001ad557600080fd5b826020860160208301376000928101602001929092525095945050505050565b600060c0828403121562001b0857600080fd5b50919050565b600060a0828403121562001b0857600080fd5b60006040828403121562001b0857600080fd5b60006020828403121562001b0857600080fd5b6000610120828403121562001b0857600080fd5b60008060008060008060c0878903121562001b7557600080fd5b863567ffffffffffffffff8082111562001b8e57600080fd5b62001b9c8a838b0162001af5565b975062001bac60208a0162001786565b9650604089013591508082111562001bc357600080fd5b62001bd18a838b0162001b0e565b9550606089013591508082111562001be857600080fd5b62001bf68a838b0162001b21565b9450608089013591508082111562001c0d57600080fd5b62001c1b8a838b0162001b34565b935060a089013591508082111562001c3257600080fd5b5062001c4189828a0162001b47565b9150509295509295509295565b6000806000806080858703121562001c6557600080fd5b843567ffffffffffffffff8082111562001c7e57600080fd5b62001c8c8883890162001af5565b95506020870135915062001ca08262001770565b9093506040860135908082111562001cb757600080fd5b62001cc58883890162001b0e565b9350606087013591508082111562001cdc57600080fd5b5062001ceb8782880162001b21565b91505092959194509250565b60006020828403121562001d0a57600080fd5b5035919050565b81835281816020850137506000828201602090810191909152601f909101601f19169091010190565b6001600160a01b038b811682528a166020820152604081018990526060810188905260e06080820181905260009062001d77908301888a62001d11565b82810360a084015262001d8c81878962001d11565b905082810360c084015262001da381858762001d11565b9d9c50505050505050505050505050565b634e487b7160e01b600052603260045260246000fd5b60008235605e1983360301811262001de157600080fd5b9190910192915050565b6000808335601e1984360301811262001e0357600080fd5b83018035915067ffffffffffffffff82111562001e1f57600080fd5b602001915060c0810236038213156200152757600080fd5b6020808252818101839052600090604080840186845b8781101562001edf57813583528482013562001e698162001770565b6001600160a01b0390811684870152828501359062001e888262001770565b90811684860152606083810135908501526080908184013562001eab8162001770565b818116838701525060a091508184013562001ec68162001770565b169084015260c092830192919091019060010162001e4d565b5090979650505050505050565b600063ffffffff80831681810362001f1457634e487b7160e01b600052601160045260246000fd5b6001019392505050565b6000808335601e1984360301811262001f3657600080fd5b83018035915067ffffffffffffffff82111562001f5257600080fd5b6020019150368190038213156200152757600080fd5b600060018060a01b0380871683526060602084015262001f8d60608401868862001d11565b915080841660408401525095945050505050565b6000815180845260005b8181101562001fc95760208185018101518683018201520162001fab565b506000602082860101526020601f19601f83011685010191505092915050565b60006101008251818552620020018286018262001fa1565b915050602083015184820360208601526200201d828262001fa1565b9150506040830151848203604086015262002039828262001fa1565b9150506060830151848203606086015262002055828262001fa1565b915050608083015162002070608086018263ffffffff169052565b5060a08301516200208c60a08601826001600160a01b03169052565b5060c083015184820360c0860152620020a6828262001fa1565b91505060e083015184820360e0860152620020c2828262001fa1565b95945050505050565b6001600160a01b03848116825283166020820152606060408201819052600090620020c29083018462001fe9565b803563ffffffff811681146200179357600080fd5b6000602082840312156200212157600080fd5b620014e182620020f9565b6001600160a01b038581168252841660208201526000600384106200216157634e487b7160e01b600052602160045260246000fd5b836040830152608060608301526200217d608083018462001fe9565b9695505050505050565b8183823760009101908152919050565b6000808335601e19843603018112620021af57600080fd5b83018035915067ffffffffffffffff821115620021cb57600080fd5b6020019150600581901b36038213156200152757600080fd5b6000808335601e19843603018112620021fc57600080fd5b830160208101925035905067ffffffffffffffff8111156200221d57600080fd5b8036038213156200152757600080fd5b6000808335601e198436030181126200224557600080fd5b830160208101925035905067ffffffffffffffff8111156200226657600080fd5b8060051b36038213156200152757600080fd5b81835260006001600160fb1b038311156200229357600080fd5b8260051b80836020870137939093016020019392505050565b600060018060a01b03808d168352602060c081850152620022d260c085018d8f62001d11565b604085820381870152620022e8828d8f62001d11565b915060608683038188015262002300838c8e62001d11565b8a8616608089015287810360a08901528881529250838301600589901b840185018a60005b8b8110156200245c57868303601f190184528135368e9003605e190181126200234d57600080fd5b8d0180356200235c8162001770565b8a1684528089013536829003609e190181126200237857600080fd5b848a018790528101803585880152620023948a820182620021e4565b60a06080880152620023ac6101008801828462001d11565b915050620023bd89830183620021e4565b605f19808985030160a08a0152620023d784838562001d11565b9350620023e78b860186620021e4565b93509150808985030160c08a0152506200240383838362001d11565b9250505063ffffffff6200241a60808401620020f9565b1660e08701526200242e898401846200222d565b93509150858103898701526200244681848462002279565b968b019695505050918801915060010162002325565b5050809750505050505050509b9a5050505050505050505050565b6001600160a01b03851681526060602082018190526000906200249e908301858762001d11565b905082604083015295945050505050565b6001600160a01b03868116825260a06020830152600090620024d28780620021e4565b60c060a0860152620024ea6101608601828462001d11565b915050620024fc6020890189620021e4565b609f19808785030160c08801526200251684838562001d11565b93506200252760408c018c620021e4565b93509150808785030160e08801526200254284848462001d11565b93506200255360608c018c620021e4565b9350915080878503016101008801526200256f84848462001d11565b93506200258060808c018c620021e4565b935091508087850301610120880152506200259d83838362001d11565b9250505060a0880135620025b18162001770565b9091166101408401529050620025d260408301866001600160a01b03169052565b6001600160a01b03841660608301526001600160a01b03831660808301526200217d56fe608060405234801561001057600080fd5b5060405161015338038061015383398101604081905261002f91610054565b600080546001600160a01b0319166001600160a01b0392909216919091179055610084565b60006020828403121561006657600080fd5b81516001600160a01b038116811461007d57600080fd5b9392505050565b60c1806100926000396000f3fe60806040526000805460405182916001600160a01b03169060229083903690607b565b600060405180830381855af49150503d8060008114605b576040519150601f19603f3d011682016040523d82523d6000602084013e6060565b606091505b509150915080516020820183600081146077578282f35b8282fd5b818382376000910190815291905056fea26469706673582212206306aef2878048ff8436e1ec3fc8afa4d9b8102cc88166c48c681b4cc39736e264736f6c63430008110033608060405234801561001057600080fd5b5060405161015338038061015383398101604081905261002f91610054565b600080546001600160a01b0319166001600160a01b0392909216919091179055610084565b60006020828403121561006657600080fd5b81516001600160a01b038116811461007d57600080fd5b9392505050565b60c1806100926000396000f3fe60806040526000805460405182916001600160a01b03169060229083903690607b565b600060405180830381855af49150503d8060008114605b576040519150601f19603f3d011682016040523d82523d6000602084013e6060565b606091505b509150915080516020820183600081146077578282f35b8282fd5b818382376000910190815291905056fea2646970667358221220e95014cef5cc06bb72cfe0e9ae5181b5f478a51f38871631274e3019ba952e2a64736f6c63430008110033608060405234801561001057600080fd5b5060405161015338038061015383398101604081905261002f91610054565b600080546001600160a01b0319166001600160a01b0392909216919091179055610084565b60006020828403121561006657600080fd5b81516001600160a01b038116811461007d57600080fd5b9392505050565b60c1806100926000396000f3fe60806040526000805460405182916001600160a01b03169060229083903690607b565b600060405180830381855af49150503d8060008114605b576040519150601f19603f3d011682016040523d82523d6000602084013e6060565b606091505b509150915080516020820183600081146077578282f35b8282fd5b818382376000910190815291905056fea2646970667358221220a04adcd2a0de729b29c4c6765cb08978df8f0c30e047507970bea6e820ce5c8264736f6c63430008110033608060405234801561001057600080fd5b5060405161015338038061015383398101604081905261002f91610054565b600080546001600160a01b0319166001600160a01b0392909216919091179055610084565b60006020828403121561006657600080fd5b81516001600160a01b038116811461007d57600080fd5b9392505050565b60c1806100926000396000f3fe60806040526000805460405182916001600160a01b03169060229083903690607b565b600060405180830381855af49150503d8060008114605b576040519150601f19603f3d011682016040523d82523d6000602084013e6060565b606091505b509150915080516020820183600081146077578282f35b8282fd5b818382376000910190815291905056fea26469706673582212209d14425bb6bd99d543d62ea9d0c1a6edf2804467be314b6b1e2d17f5c677dc0c64736f6c63430008110033608060405234801561001057600080fd5b5060405161015338038061015383398101604081905261002f91610054565b600080546001600160a01b0319166001600160a01b0392909216919091179055610084565b60006020828403121561006657600080fd5b81516001600160a01b038116811461007d57600080fd5b9392505050565b60c1806100926000396000f3fe60806040526000805460405182916001600160a01b03169060229083903690607b565b600060405180830381855af49150503d8060008114605b576040519150601f19603f3d011682016040523d82523d6000602084013e6060565b606091505b509150915080516020820183600081146077578282f35b8282fd5b818382376000910190815291905056fea2646970667358221220f99ed86a39498ccf423585df89fb827c370a9e7941396854321d2e0b30165c0b64736f6c63430008110033608060405234801561001057600080fd5b5060405161015338038061015383398101604081905261002f91610054565b600080546001600160a01b0319166001600160a01b0392909216919091179055610084565b60006020828403121561006657600080fd5b81516001600160a01b038116811461007d57600080fd5b9392505050565b60c1806100926000396000f3fe60806040526000805460405182916001600160a01b03169060229083903690607b565b600060405180830381855af49150503d8060008114605b576040519150601f19603f3d011682016040523d82523d6000602084013e6060565b606091505b509150915080516020820183600081146077578282f35b8282fd5b818382376000910190815291905056fea264697066735822122068b9a5b665a8daa9fbda1f85c9d299e8cd9f6b81b062d076f456ba6bc9e4855b64736f6c63430008110033608060405234801561001057600080fd5b5060405161015338038061015383398101604081905261002f91610054565b600080546001600160a01b0319166001600160a01b0392909216919091179055610084565b60006020828403121561006657600080fd5b81516001600160a01b038116811461007d57600080fd5b9392505050565b60c1806100926000396000f3fe60806040526000805460405182916001600160a01b03169060229083903690607b565b600060405180830381855af49150503d8060008114605b576040519150601f19603f3d011682016040523d82523d6000602084013e6060565b606091505b509150915080516020820183600081146077578282f35b8282fd5b818382376000910190815291905056fea2646970667358221220dd7a5544616d4ea23ceabf7f5bcdc13e1dc499ed37bbde7ba03edee8686acee764736f6c63430008110033a264697066735822122097942675cdd7ae48d4df8349f4674b41bafea651080819c4ae53c3083e88824364736f6c63430008110033",
  "immutableReferences": {},
  "source": "// SPDX-License-Identifier: MIT\npragma solidity ~0.8.17;\n\n// import '../openzeppelin/contracts/utils/structs/EnumerableSet.sol';\nimport './libs/Ownable.sol';\n// Module impl\nimport './DAO.sol';\nimport './Asset.sol';\nimport './AssetShell.sol';\nimport './Ledger.sol';\nimport './Member.sol';\nimport './VotePool.sol';\nimport './Share.sol';\n// Proxy\nimport './gen/DAOProxy.sol';\nimport './gen/AssetProxy.sol';\nimport './gen/AssetShellProxy.sol';\nimport './gen/LedgerProxy.sol';\nimport './gen/MemberProxy.sol';\nimport './gen/VotePoolProxy.sol';\nimport './gen/ShareProxy.sol';\n\n/**\n * @title DAOs contract global DAOs manage\n */\ncontract DAOs is Upgrade, Initializable, Ownable, IDAOs {\n\t// using EnumerableSet for EnumerableSet.AddressSet;\n\tusing EnumerableMap for EnumerableMap.UintToAddressMap;\n\n\tstruct DAOIMPLs {\n\t\taddress   DAO;\n\t\taddress   Member;\n\t\taddress   VotePool;\n\t\taddress   Ledger;\n\t\taddress   Asset;\n\t\taddress   AssetShell;\n\t\taddress   Share;\n\t}\n\tstruct InitMemberArgs {\n\t\tstring name;\n\t\tstring description;\n\t\tstring baseURI;\n\t\tMember.MintMemberArgs[] members;\n\t\tuint256 executor;\n\t}\n\n\tstruct InitVotePoolArgs {\n\t\tstring  description;\n\t\tuint256 lifespan;\n\t}\n\n\tstruct InitLedgerArgs {\n\t\tstring  description;\n\t}\n\n\tstruct InitAssetArgs {\n\t\tstring  name;\n\t\tstring  description;\n\t\tstring  image;\n\t\tstring  external_link;\n\t\tuint32  seller_fee_basis_points_first;\n\t\tuint32  seller_fee_basis_points_second;\n\t\taddress fee_recipient;\n\t\tstring  base_contract_uri;\n\t\tstring  base_uri;\n\t}\n\n\tEnumerableMap.UintToAddressMap private  _DAOs; // global DAOs list\n\tDAOIMPLs                       public   defaultIMPLs; // default logic impl\n\taddress                        private  _operator;\n\tuint256[49]                    private  __; // reserved storage space\n\n\tfunction initDAOs() external initializer {\n\t\tinitOwnable();\n\t}\n\n\tfunction setDefaultIMPLs(DAOIMPLs memory IMPLs) public onlyOwner {\n\t\tdefaultIMPLs = IMPLs;\n\t}\n\n\tfunction operator() view public override returns (address) {\n\t\treturn _operator;\n\t}\n\n\tfunction setOperator(address operator) public onlyOwner {\n\t\t_operator = operator;\n\t}\n\n\t/**\n\t * @dev deploy() deploy common voting DAO\n\t */\n\tfunction deploy(\n\t\tDAO.InitDAOArgs  calldata    daoArgs,           address                      operator,\n\t\tInitMemberArgs   calldata    memberArgs,        InitVotePoolArgs calldata    votePoolArgs\n\t) public returns (DAO host) {\n\t\tuint256 id = uint256(keccak256(bytes(daoArgs.name)));\n\n\t\trequire(!_DAOs.contains(id), \"#DAOs.deploy DAO with corresponding name already exists\");\n\n\t\thost          = DAO( address(new DAOProxy(defaultIMPLs.DAO)) );\n\t\tMember member = Member( address(new MemberProxy(defaultIMPLs.Member)) );\n\t\tVotePool root = VotePool( address(new VotePoolProxy(defaultIMPLs.VotePool)) );\n\n\t\tmember.initMember(address(host), memberArgs.name, memberArgs.description, memberArgs.baseURI, address(0), memberArgs.members);\n\t\troot.initVotePool(address(host), votePoolArgs.description, votePoolArgs.lifespan);\n\t\thost.initDAO(this, daoArgs, address(root), operator, address(member));\n\n\t\t_DAOs.set(id, address(host));\n\n\t\tif (memberArgs.executor != 0)\n\t\t\tmember.setExecutor(memberArgs.executor);\n\n\t\temit Created(address(host));\n\t}\n\n\t/**\n\t * @dev makeAssetSales() deploy asset sales DAO\n\t */\n\tfunction deployAssetSalesDAO(\n\t\tDAO.InitDAOArgs    calldata    daoArgs,           address                        operator,\n\t\tInitMemberArgs     calldata    memberArgs,        InitVotePoolArgs   calldata    votePoolArgs,\n\t\tInitLedgerArgs     calldata    ledgerArgs,        InitAssetArgs      calldata    assetArgs\n\t) public returns (DAO host) {\n\n\t\thost = deploy(daoArgs, address(this), memberArgs, votePoolArgs);\n\t\t// sales\n\t\tLedger      ledger      = Ledger( payable(address(new LedgerProxy(defaultIMPLs.Ledger))) );\n\t\tAsset       asset       = Asset( address(new AssetProxy(defaultIMPLs.Asset)));\n\t\tAssetShell  assetFirst  = AssetShell( payable(address(new AssetShellProxy(defaultIMPLs.AssetShell))));\n\t\tAssetShell  assetSecond = AssetShell( payable(address(new AssetShellProxy(defaultIMPLs.AssetShell))));\n\n\t\tAsset.InitContractURI memory uri;\n\t\turi.name                    = assetArgs.name;\n\t\turi.description             = assetArgs.description;\n\t\turi.image                   = assetArgs.image;\n\t\turi.external_link           = assetArgs.external_link;\n\t\turi.base_contract_uri       = assetArgs.base_contract_uri;\n\t\turi.base_uri                = assetArgs.base_uri;\n\t\turi.fee_recipient           = assetArgs.fee_recipient;\n\t\t//uri.seller_fee_basis_points = 0;\n\n\t\tledger.initLedger(address(host), ledgerArgs.description, address(0));\n\t\tasset.initAsset(address(host), address(0), uri);\n\n\t\turi.seller_fee_basis_points = assetArgs.seller_fee_basis_points_second;\n\t\tassetSecond.initAssetShell(address(host), address(0), IAssetShell.SaleType.kSecond, uri);\n\n\t\turi.seller_fee_basis_points = assetArgs.seller_fee_basis_points_first;\n\t\tassetFirst.initAssetShell(address(host), address(0), IAssetShell.SaleType.kFirst, uri);\n\n\t\t// set modules\n\t\thost.setModule(Module_LEDGER_ID, address(ledger));\n\t\thost.setModule(Module_ASSET_ID, address(asset));\n\t\thost.setModule(Module_ASSET_First_ID, address(assetFirst));\n\t\thost.setModule(Module_ASSET_Second_ID, address(assetSecond));\n\n\t\thost.setOperator(operator); // change to raw operator\n\t}\n\n\tfunction deployShare(\n\t\tIDAO host, address operator,\n\t\tuint256 totalSupply, uint256 maxSupply,\n\t\tstring calldata name, string calldata symbol, string calldata description) public override returns (address) {\n\t\tShare share = Share( address(new ShareProxy(defaultIMPLs.Share)));\n\t\tshare.initShare(address(host), operator, totalSupply, maxSupply, name, symbol, description);\n\t\treturn address(share);\n\t}\n\n\t/**\n\t * @dev length() Returns DAOs length\n\t */\n\tfunction length() view public returns (uint256) {\n\t\treturn _DAOs.length();\n\t}\n\n\t/**\n\t * @dev contains(address) is contains dao address\n\t */\n\tfunction get(string memory name) view public returns (DAO) {\n\t\treturn DAO(_DAOs.get(uint256(keccak256(bytes(name)))));\n\t}\n\n\t/**\n\t * @dev at(id) get DAO object from index\n\t * @param index uint256 dao index\n\t * @return Returns the IDAO interface address and key\n\t */\n\tfunction at(uint256 index) view external returns (DAO) {\n\t\taddress addr;\n\t\t(, addr) = _DAOs.at(index);\n\t\treturn DAO(addr);\n\t}\n\n\t/**\n\t * @dev Returns the implementation contract address\n\t */\n\tfunction impl() view external returns (address) {\n\t\treturn _impl;\n\t}\n\n\t/**\n\t * @dev upgrade(address) upgrade contracts\n\t */\n\tfunction upgrade(address impl_) public onlyOwner {\n\t\t_impl = impl_;\n\t}\n\n\t/**\n\t * @dev params unlockAssetForOperator for method unlockAssetForOperator()\n\t */\n\tstruct UnlockAssetForOperator {\n\t\taddress                        token;  // asset contract address\n\t\tuint256                        value;  // total pay value\n\t\tAssetShell.UnlockForOperator[] data;\n\t}\n\n\t/**\n\t * @dev unlockAssetForOperator()\n\t */\n\tfunction unlockAssetForOperator(UnlockAssetForOperator[] calldata data) public {\n\t\trequire(_operator == _msgSender(), \"#DAOs.unlockAssetForOperator() Permission denied for only operator\");\n\n\t\tfor (uint32 i = 0; i < data.length; i++) {\n\t\t\tAssetShell(payable(data[i].token)).unlockForOperator(data[i].data);\n\t\t}\n\t}\n}",
  "sourcePath": "/Users/louis/Project/hc/NFTSwap/SmartHolder/contracts/DAOs.sol",
  "compiler": {
    "name": "solc",
    "version": "0.8.17+commit.8df45f5f.Emscripten.clang"
  },
  "schemaVersion": "3.4.11",
  "updatedAt": "2023-05-17T09:37:53.333Z",
  "networkType": "ethereum",
  "devdoc": {
    "kind": "dev",
    "methods": {
      "at(uint256)": {
        "details": "at(id) get DAO object from index",
        "params": {
          "index": "uint256 dao index"
        },
        "returns": {
          "_0": "Returns the IDAO interface address and key"
        }
      },
      "deploy((string,string,string,string,bytes,address),address,(string,string,string,(address,(uint256,string,string,string,uint32),uint256[])[],uint256),(string,uint256))": {
        "details": "deploy() deploy common voting DAO"
      },
      "deployAssetSalesDAO((string,string,string,string,bytes,address),address,(string,string,string,(address,(uint256,string,string,string,uint32),uint256[])[],uint256),(string,uint256),(string),(string,string,string,string,uint32,uint32,address,string,string))": {
        "details": "makeAssetSales() deploy asset sales DAO"
      },
      "get(string)": {
        "details": "contains(address) is contains dao address"
      },
      "impl()": {
        "details": "Returns the implementation contract address"
      },
      "length()": {
        "details": "length() Returns DAOs length"
      },
      "owner()": {
        "details": "Returns the address of the current owner."
      },
      "renounceOwnership()": {
        "details": "Leaves the contract without owner. It will not be possible to call `onlyOwner` functions anymore. Can only be called by the current owner. NOTE: Renouncing ownership will leave the contract without an owner, thereby removing any functionality that is only available to the owner."
      },
      "transferOwnership(address)": {
        "details": "Transfers ownership of the contract to a new account (`newOwner`). Can only be called by the current owner."
      },
      "unlockAssetForOperator((address,uint256,((uint256,address,address),uint256,address,address)[])[])": {
        "details": "unlockAssetForOperator()"
      },
      "upgrade(address)": {
        "details": "upgrade(address) upgrade contracts"
      }
    },
    "title": "DAOs contract global DAOs manage",
    "version": 1
  },
  "userdoc": {
    "kind": "user",
    "methods": {},
    "version": 1
  }
}