{
  "contractName": "DAOs",
  "abi": [
    {
      "inputs": [],
      "name": "AddressEmpty",
      "type": "error"
    },
    {
      "inputs": [],
      "name": "OnlyOwnerAvailable",
      "type": "error"
    },
    {
      "anonymous": false,
      "inputs": [
        {
          "indexed": true,
          "internalType": "address",
          "name": "dao",
          "type": "address"
        }
      ],
      "name": "Created",
      "type": "event"
    },
    {
      "anonymous": false,
      "inputs": [
        {
          "indexed": false,
          "internalType": "uint8",
          "name": "version",
          "type": "uint8"
        }
      ],
      "name": "Initialized",
      "type": "event"
    },
    {
      "anonymous": false,
      "inputs": [
        {
          "indexed": true,
          "internalType": "address",
          "name": "previousOwner",
          "type": "address"
        },
        {
          "indexed": true,
          "internalType": "address",
          "name": "newOwner",
          "type": "address"
        }
      ],
      "name": "OwnershipTransferred",
      "type": "event"
    },
    {
      "inputs": [],
      "name": "defaultIMPLs",
      "outputs": [
        {
          "internalType": "address",
          "name": "DAO",
          "type": "address"
        },
        {
          "internalType": "address",
          "name": "Member",
          "type": "address"
        },
        {
          "internalType": "address",
          "name": "VotePool",
          "type": "address"
        },
        {
          "internalType": "address",
          "name": "Ledger",
          "type": "address"
        },
        {
          "internalType": "address",
          "name": "Asset",
          "type": "address"
        },
        {
          "internalType": "address",
          "name": "AssetShell",
          "type": "address"
        },
        {
          "internalType": "address",
          "name": "Share",
          "type": "address"
        }
      ],
      "stateMutability": "view",
      "type": "function",
      "constant": true
    },
    {
      "inputs": [],
      "name": "owner",
      "outputs": [
        {
          "internalType": "address",
          "name": "",
          "type": "address"
        }
      ],
      "stateMutability": "view",
      "type": "function",
      "constant": true
    },
    {
      "inputs": [],
      "name": "renounceOwnership",
      "outputs": [],
      "stateMutability": "nonpayable",
      "type": "function"
    },
    {
      "inputs": [
        {
          "internalType": "address",
          "name": "newOwner",
          "type": "address"
        }
      ],
      "name": "transferOwnership",
      "outputs": [],
      "stateMutability": "nonpayable",
      "type": "function"
    },
    {
      "inputs": [],
      "name": "initDAOs",
      "outputs": [],
      "stateMutability": "nonpayable",
      "type": "function"
    },
    {
      "inputs": [
        {
          "components": [
            {
              "internalType": "address",
              "name": "DAO",
              "type": "address"
            },
            {
              "internalType": "address",
              "name": "Member",
              "type": "address"
            },
            {
              "internalType": "address",
              "name": "VotePool",
              "type": "address"
            },
            {
              "internalType": "address",
              "name": "Ledger",
              "type": "address"
            },
            {
              "internalType": "address",
              "name": "Asset",
              "type": "address"
            },
            {
              "internalType": "address",
              "name": "AssetShell",
              "type": "address"
            },
            {
              "internalType": "address",
              "name": "Share",
              "type": "address"
            }
          ],
          "internalType": "struct DAOs.DAOIMPLs",
          "name": "IMPLs",
          "type": "tuple"
        }
      ],
      "name": "setDefaultIMPLs",
      "outputs": [],
      "stateMutability": "nonpayable",
      "type": "function"
    },
    {
      "inputs": [
        {
          "components": [
            {
              "internalType": "string",
              "name": "name",
              "type": "string"
            },
            {
              "internalType": "string",
              "name": "mission",
              "type": "string"
            },
            {
              "internalType": "string",
              "name": "description",
              "type": "string"
            },
            {
              "internalType": "string",
              "name": "image",
              "type": "string"
            },
            {
              "internalType": "bytes",
              "name": "extend",
              "type": "bytes"
            }
          ],
          "internalType": "struct DAO.InitDAOArgs",
          "name": "daoArgs",
          "type": "tuple"
        },
        {
          "internalType": "address",
          "name": "operator",
          "type": "address"
        },
        {
          "components": [
            {
              "internalType": "string",
              "name": "name",
              "type": "string"
            },
            {
              "internalType": "string",
              "name": "description",
              "type": "string"
            },
            {
              "internalType": "string",
              "name": "baseURI",
              "type": "string"
            },
            {
              "components": [
                {
                  "internalType": "address",
                  "name": "owner",
                  "type": "address"
                },
                {
                  "components": [
                    {
                      "internalType": "uint256",
                      "name": "id",
                      "type": "uint256"
                    },
                    {
                      "internalType": "string",
                      "name": "name",
                      "type": "string"
                    },
                    {
                      "internalType": "string",
                      "name": "description",
                      "type": "string"
                    },
                    {
                      "internalType": "string",
                      "name": "image",
                      "type": "string"
                    },
                    {
                      "internalType": "uint32",
                      "name": "votes",
                      "type": "uint32"
                    }
                  ],
                  "internalType": "struct IMember.Info",
                  "name": "info",
                  "type": "tuple"
                },
                {
                  "internalType": "uint256[]",
                  "name": "permissions",
                  "type": "uint256[]"
                }
              ],
              "internalType": "struct Member.MintMemberArgs[]",
              "name": "members",
              "type": "tuple[]"
            },
            {
              "internalType": "uint256",
              "name": "executor",
              "type": "uint256"
            }
          ],
          "internalType": "struct DAOs.InitMemberArgs",
          "name": "memberArgs",
          "type": "tuple"
        },
        {
          "components": [
            {
              "internalType": "string",
              "name": "description",
              "type": "string"
            },
            {
              "internalType": "uint256",
              "name": "lifespan",
              "type": "uint256"
            }
          ],
          "internalType": "struct DAOs.InitVotePoolArgs",
          "name": "votePoolArgs",
          "type": "tuple"
        }
      ],
      "name": "deploy",
      "outputs": [
        {
          "internalType": "contract DAO",
          "name": "host",
          "type": "address"
        }
      ],
      "stateMutability": "nonpayable",
      "type": "function"
    },
    {
      "inputs": [
        {
          "components": [
            {
              "internalType": "string",
              "name": "name",
              "type": "string"
            },
            {
              "internalType": "string",
              "name": "mission",
              "type": "string"
            },
            {
              "internalType": "string",
              "name": "description",
              "type": "string"
            },
            {
              "internalType": "string",
              "name": "image",
              "type": "string"
            },
            {
              "internalType": "bytes",
              "name": "extend",
              "type": "bytes"
            }
          ],
          "internalType": "struct DAO.InitDAOArgs",
          "name": "daoArgs",
          "type": "tuple"
        },
        {
          "internalType": "address",
          "name": "operator",
          "type": "address"
        },
        {
          "components": [
            {
              "internalType": "string",
              "name": "name",
              "type": "string"
            },
            {
              "internalType": "string",
              "name": "description",
              "type": "string"
            },
            {
              "internalType": "string",
              "name": "baseURI",
              "type": "string"
            },
            {
              "components": [
                {
                  "internalType": "address",
                  "name": "owner",
                  "type": "address"
                },
                {
                  "components": [
                    {
                      "internalType": "uint256",
                      "name": "id",
                      "type": "uint256"
                    },
                    {
                      "internalType": "string",
                      "name": "name",
                      "type": "string"
                    },
                    {
                      "internalType": "string",
                      "name": "description",
                      "type": "string"
                    },
                    {
                      "internalType": "string",
                      "name": "image",
                      "type": "string"
                    },
                    {
                      "internalType": "uint32",
                      "name": "votes",
                      "type": "uint32"
                    }
                  ],
                  "internalType": "struct IMember.Info",
                  "name": "info",
                  "type": "tuple"
                },
                {
                  "internalType": "uint256[]",
                  "name": "permissions",
                  "type": "uint256[]"
                }
              ],
              "internalType": "struct Member.MintMemberArgs[]",
              "name": "members",
              "type": "tuple[]"
            },
            {
              "internalType": "uint256",
              "name": "executor",
              "type": "uint256"
            }
          ],
          "internalType": "struct DAOs.InitMemberArgs",
          "name": "memberArgs",
          "type": "tuple"
        },
        {
          "components": [
            {
              "internalType": "string",
              "name": "description",
              "type": "string"
            },
            {
              "internalType": "uint256",
              "name": "lifespan",
              "type": "uint256"
            }
          ],
          "internalType": "struct DAOs.InitVotePoolArgs",
          "name": "votePoolArgs",
          "type": "tuple"
        },
        {
          "components": [
            {
              "internalType": "string",
              "name": "description",
              "type": "string"
            }
          ],
          "internalType": "struct DAOs.InitLedgerArgs",
          "name": "ledgerArgs",
          "type": "tuple"
        },
        {
          "components": [
            {
              "internalType": "string",
              "name": "name",
              "type": "string"
            },
            {
              "internalType": "string",
              "name": "description",
              "type": "string"
            },
            {
              "internalType": "string",
              "name": "image",
              "type": "string"
            },
            {
              "internalType": "string",
              "name": "external_link",
              "type": "string"
            },
            {
              "internalType": "uint32",
              "name": "seller_fee_basis_points_first",
              "type": "uint32"
            },
            {
              "internalType": "uint32",
              "name": "seller_fee_basis_points_second",
              "type": "uint32"
            },
            {
              "internalType": "address",
              "name": "fee_recipient",
              "type": "address"
            },
            {
              "internalType": "string",
              "name": "base_contract_uri",
              "type": "string"
            },
            {
              "internalType": "string",
              "name": "base_uri",
              "type": "string"
            }
          ],
          "internalType": "struct DAOs.InitAssetArgs",
          "name": "assetArgs",
          "type": "tuple"
        }
      ],
      "name": "deployAssetSalesDAO",
      "outputs": [
        {
          "internalType": "contract DAO",
          "name": "host",
          "type": "address"
        }
      ],
      "stateMutability": "nonpayable",
      "type": "function"
    },
    {
      "inputs": [
        {
          "internalType": "contract IDAO",
          "name": "host",
          "type": "address"
        },
        {
          "internalType": "address",
          "name": "operator",
          "type": "address"
        },
        {
          "internalType": "uint256",
          "name": "totalSupply",
          "type": "uint256"
        },
        {
          "internalType": "uint256",
          "name": "maxSupply",
          "type": "uint256"
        },
        {
          "internalType": "string",
          "name": "name",
          "type": "string"
        },
        {
          "internalType": "string",
          "name": "symbol",
          "type": "string"
        },
        {
          "internalType": "string",
          "name": "description",
          "type": "string"
        }
      ],
      "name": "deployShare",
      "outputs": [
        {
          "internalType": "address",
          "name": "",
          "type": "address"
        }
      ],
      "stateMutability": "nonpayable",
      "type": "function"
    },
    {
      "inputs": [],
      "name": "length",
      "outputs": [
        {
          "internalType": "uint256",
          "name": "",
          "type": "uint256"
        }
      ],
      "stateMutability": "view",
      "type": "function",
      "constant": true
    },
    {
      "inputs": [
        {
          "internalType": "string",
          "name": "name",
          "type": "string"
        }
      ],
      "name": "get",
      "outputs": [
        {
          "internalType": "contract DAO",
          "name": "",
          "type": "address"
        }
      ],
      "stateMutability": "view",
      "type": "function",
      "constant": true
    },
    {
      "inputs": [
        {
          "internalType": "uint256",
          "name": "index",
          "type": "uint256"
        }
      ],
      "name": "at",
      "outputs": [
        {
          "internalType": "contract DAO",
          "name": "",
          "type": "address"
        }
      ],
      "stateMutability": "view",
      "type": "function",
      "constant": true
    },
    {
      "inputs": [],
      "name": "impl",
      "outputs": [
        {
          "internalType": "address",
          "name": "",
          "type": "address"
        }
      ],
      "stateMutability": "view",
      "type": "function",
      "constant": true
    },
    {
      "inputs": [
        {
          "internalType": "address",
          "name": "impl_",
          "type": "address"
        }
      ],
      "name": "upgrade",
      "outputs": [],
      "stateMutability": "nonpayable",
      "type": "function"
    }
  ],
  "bytecode": "0x608060405234801561001057600080fd5b5061297f806100206000396000f3fe608060405234801561001057600080fd5b50600436106100e95760003560e01c80638abf60771161008c578063e0886f9011610066578063e0886f901461022d578063e7e58e9914610240578063ec47f60f14610253578063f2fde38b1461025b57600080fd5b80638abf6077146101f85780638da5cb5b14610209578063de70729c1461021a57600080fd5b80631f7b6d32116100c85780631f7b6d32146101b45780633ccebafd146101ca578063693ec85e146101dd578063715018a6146101f057600080fd5b8062d46a26146100ee5780630900f010146101745780631d8a4cff14610189575b600080fd5b600554600654600754600854600954600a54600b54610126966001600160a01b03908116968116958116948116938116928116911687565b604080516001600160a01b039889168152968816602088015294871694860194909452918516606085015284166080840152831660a083015290911660c082015260e0015b60405180910390f35b61018761018236600461145f565b61026e565b005b61019c6101973660046114be565b6102bb565b6040516001600160a01b03909116815260200161016b565b6101bc61038b565b60405190815260200161016b565b6101876101d83660046115a9565b61039c565b61019c6101eb366004611661565b610460565b61018761047c565b6000546001600160a01b031661019c565b6001546001600160a01b031661019c565b61019c61022836600461173c565b6104f1565b61019c61023b3660046117d9565b6108ab565b61019c61024e366004611817565b6108c1565b610187610fe0565b61018761026936600461145f565b61110c565b6001546001600160a01b031633146102995760405163399c757960e01b815260040160405180910390fd5b600080546001600160a01b0319166001600160a01b0392909216919091179055565b600b5460405160009182916001600160a01b03909116906102db906113df565b6001600160a01b039091168152602001604051809103906000f080158015610307573d6000803e3d6000fd5b5060405163038dd1f960e31b81529091506001600160a01b03821690631c6e8fc890610349908f908f908f908f908f908f908f908f908f908f90600401611921565b600060405180830381600087803b15801561036357600080fd5b505af1158015610377573d6000803e3d6000fd5b50929e9d5050505050505050505050505050565b600061039760026111ba565b905090565b6001546001600160a01b031633146103c75760405163399c757960e01b815260040160405180910390fd5b8051600580546001600160a01b03199081166001600160a01b0393841617909155602083015160068054831691841691909117905560408301516007805483169184169190911790556060830151600880548316918416919091179055608083015160098054831691841691909117905560a0830151600a8054831691841691909117905560c090920151600b80549093169116179055565b80516020820120600090610476906002906111c5565b92915050565b6001546001600160a01b031633146104a75760405163399c757960e01b815260040160405180910390fd5b6001546040516000916001600160a01b0316907f8be0079c531659141344cd1fd0a4f28419497f9722a3daafe3b4186f6b6457e0908390a3600180546001600160a01b0319169055565b6000806104fe8680611995565b60405161050c9291906119dc565b60405190819003902090506105226002826111d8565b1561059a5760405162461bcd60e51b815260206004820152603760248201527f2344414f732e6465706c6f792044414f207769746820636f72726573706f6e6460448201527f696e67206e616d6520616c72656164792065786973747300000000000000000060648201526084015b60405180910390fd5b6005546040516001600160a01b03909116906105b5906113ec565b6001600160a01b039091168152602001604051809103906000f0801580156105e1573d6000803e3d6000fd5b506006546040519193506000916001600160a01b0390911690610603906113f9565b6001600160a01b039091168152602001604051809103906000f08015801561062f573d6000803e3d6000fd5b506007546040519192506000916001600160a01b039091169061065190611406565b6001600160a01b039091168152602001604051809103906000f08015801561067d573d6000803e3d6000fd5b5090506001600160a01b03821663b641ee428561069a8980611995565b6106a760208c018c611995565b6106b460408e018e611995565b60008f80606001906106c691906119ec565b6040518b63ffffffff1660e01b81526004016106eb9a99989796959493929190611b0b565b600060405180830381600087803b15801561070557600080fd5b505af1158015610719573d6000803e3d6000fd5b5050506001600160a01b0382169050636c4a6094856107388880611995565b89602001356040518563ffffffff1660e01b815260040161075c9493929190611cb8565b600060405180830381600087803b15801561077657600080fd5b505af115801561078a573d6000803e3d6000fd5b505060405163270d981360e01b81526001600160a01b038716925063270d981391506107c29030908c9086908d908990600401611cee565b600060405180830381600087803b1580156107dc57600080fd5b505af11580156107f0573d6000803e3d6000fd5b50610803925060029150859050866111e4565b5060808601351561086c576040516303ee229360e11b8152608087013560048201526001600160a01b038316906307dc452690602401600060405180830381600087803b15801561085357600080fd5b505af1158015610867573d6000803e3d6000fd5b505050505b6040516001600160a01b038516907f1449abf21e49fd025f33495e77f7b1461caefdd3d4bb646424a3f445c4576a5b90600090a2505050949350505050565b6000806108b96002846111fa565b949350505050565b60006108cf873087876104f1565b6008546040519192506000916001600160a01b03909116906108f090611413565b6001600160a01b039091168152602001604051809103906000f08015801561091c573d6000803e3d6000fd5b506009546040519192506000916001600160a01b039091169061093e90611420565b6001600160a01b039091168152602001604051809103906000f08015801561096a573d6000803e3d6000fd5b50600a546040519192506000916001600160a01b039091169061098c9061142d565b6001600160a01b039091168152602001604051809103906000f0801580156109b8573d6000803e3d6000fd5b50600a546040519192506000916001600160a01b03909116906109da9061142d565b6001600160a01b039091168152602001604051809103906000f080158015610a06573d6000803e3d6000fd5b509050610a6060405180610100016040528060608152602001606081526020016060815260200160608152602001600063ffffffff16815260200160006001600160a01b0316815260200160608152602001606081525090565b610a6a8780611995565b8080601f016020809104026020016040519081016040528093929190818152602001838380828437600092019190915250505090825250610aae6020880188611995565b8080601f0160208091040260200160405190810160405280939291908181526020018383808284376000920191909152505050506020820152610af46040880188611995565b8080601f0160208091040260200160405190810160405280939291908181526020018383808284376000920191909152505050506040820152610b3a6060880188611995565b8080601f0160208091040260200160405190810160405280939291908181526020018383808284376000920191909152505050506060820152610b8060e0880188611995565b8080601f01602080910402602001604051908101604052809392919081815260200183838082843760009201919091525050505060c0820152610bc7610100880188611995565b8080601f01602080910402602001604051908101604052809392919081815260200183838082843760009201919091525050505060e080830191909152610c1390880160c0890161145f565b6001600160a01b0390811660a0830152851663f4c38e5187610c358b80611995565b60006040518563ffffffff1660e01b8152600401610c569493929190611e08565b600060405180830381600087803b158015610c7057600080fd5b505af1158015610c84573d6000803e3d6000fd5b50506040516311435fff60e31b81526001600160a01b0387169250638a1afff89150610cb99089906000908690600401611f59565b600060405180830381600087803b158015610cd357600080fd5b505af1158015610ce7573d6000803e3d6000fd5b50610cfc9250505060c0880160a08901611f85565b63ffffffff166080820152604051630a04f71760e31b81526001600160a01b03831690635027b8b890610d3b9089906000906002908790600401611fa0565b600060405180830381600087803b158015610d5557600080fd5b505af1158015610d69573d6000803e3d6000fd5b50610d7e9250505060a0880160808901611f85565b63ffffffff166080820152604051630a04f71760e31b81526001600160a01b03841690635027b8b890610dbd9089906000906001908790600401611fa0565b600060405180830381600087803b158015610dd757600080fd5b505af1158015610deb573d6000803e3d6000fd5b50506040516305d2916360e41b8152600260048201526001600160a01b03888116602483015289169250635d2916309150604401600060405180830381600087803b158015610e3957600080fd5b505af1158015610e4d573d6000803e3d6000fd5b50506040516305d2916360e41b8152600360048201526001600160a01b03878116602483015289169250635d2916309150604401600060405180830381600087803b158015610e9b57600080fd5b505af1158015610eaf573d6000803e3d6000fd5b50506040516305d2916360e41b81526004808201526001600160a01b03868116602483015289169250635d2916309150604401600060405180830381600087803b158015610efc57600080fd5b505af1158015610f10573d6000803e3d6000fd5b50506040516305d2916360e41b8152600560048201526001600160a01b03858116602483015289169250635d2916309150604401600060405180830381600087803b158015610f5e57600080fd5b505af1158015610f72573d6000803e3d6000fd5b505060405163b3ab15fb60e01b81526001600160a01b038e811660048301528916925063b3ab15fb9150602401600060405180830381600087803b158015610fb957600080fd5b505af1158015610fcd573d6000803e3d6000fd5b5050505050505050509695505050505050565b600054600160a81b900460ff161580801561100857506000546001600160a01b90910460ff16105b806110295750303b1580156110295750600054600160a01b900460ff166001145b61108c5760405162461bcd60e51b815260206004820152602e60248201527f496e697469616c697a61626c653a20636f6e747261637420697320616c72656160448201526d191e481a5b9a5d1a585b1a5e995960921b6064820152608401610591565b6000805460ff60a01b1916600160a01b17905580156110b9576000805460ff60a81b1916600160a81b1790555b6110c1611218565b8015611109576000805460ff60a81b19169055604051600181527f7f26b83ff96e1f2b6a682f133852f6798a09c465da95921460cefb38474024989060200160405180910390a15b50565b6001546001600160a01b031633146111375760405163399c757960e01b815260040160405180910390fd5b6001600160a01b03811661115e57604051635bb7a72360e01b815260040160405180910390fd5b6001546040516001600160a01b038084169216907f8be0079c531659141344cd1fd0a4f28419497f9722a3daafe3b4186f6b6457e090600090a3600180546001600160a01b0319166001600160a01b0392909216919091179055565b60006104768261125d565b60006111d18383611268565b9392505050565b60006111d183836112d8565b60006108b984846001600160a01b0385166112e4565b60008080806112098686611301565b909450925050505b9250929050565b600180546001600160a01b0319163390811790915560405181906000907f8be0079c531659141344cd1fd0a4f28419497f9722a3daafe3b4186f6b6457e0908290a350565b60006104768261132c565b60008181526002830160205260408120548015158061128c575061128c84846112d8565b6111d15760405162461bcd60e51b815260206004820152601e60248201527f456e756d657261626c654d61703a206e6f6e6578697374656e74206b657900006044820152606401610591565b60006111d18383611336565b600082815260028401602052604081208290556108b9848461134e565b6000808061130f858561135a565b600081815260029690960160205260409095205494959350505050565b6000610476825490565b600081815260018301602052604081205415156111d1565b60006111d18383611366565b60006111d183836113b5565b60008181526001830160205260408120546113ad57508154600181810184556000848152602080822090930184905584548482528286019093526040902091909155610476565b506000610476565b60008260000182815481106113cc576113cc611fee565b9060005260206000200154905092915050565b6101538061200583390190565b6101538061215883390190565b610153806122ab83390190565b610153806123fe83390190565b6101538061255183390190565b610153806126a483390190565b610153806127f783390190565b6001600160a01b038116811461110957600080fd5b803561145a8161143a565b919050565b60006020828403121561147157600080fd5b81356111d18161143a565b60008083601f84011261148e57600080fd5b50813567ffffffffffffffff8111156114a657600080fd5b60208301915083602082850101111561121157600080fd5b60008060008060008060008060008060e08b8d0312156114dd57600080fd5b8a356114e88161143a565b995060208b01356114f88161143a565b985060408b0135975060608b0135965060808b013567ffffffffffffffff8082111561152357600080fd5b61152f8e838f0161147c565b909850965060a08d013591508082111561154857600080fd5b6115548e838f0161147c565b909650945060c08d013591508082111561156d57600080fd5b5061157a8d828e0161147c565b915080935050809150509295989b9194979a5092959850565b634e487b7160e01b600052604160045260246000fd5b600060e082840312156115bb57600080fd5b60405160e0810181811067ffffffffffffffff821117156115de576115de611593565b60405282356115ec8161143a565b815260208301356115fc8161143a565b6020820152604083013561160f8161143a565b604082015260608301356116228161143a565b60608201526116336080840161144f565b608082015261164460a0840161144f565b60a082015261165560c0840161144f565b60c08201529392505050565b60006020828403121561167357600080fd5b813567ffffffffffffffff8082111561168b57600080fd5b818401915084601f83011261169f57600080fd5b8135818111156116b1576116b1611593565b604051601f8201601f19908116603f011681019083821181831017156116d9576116d9611593565b816040528281528760208487010111156116f257600080fd5b826020860160208301376000928101602001929092525095945050505050565b600060a0828403121561172457600080fd5b50919050565b60006040828403121561172457600080fd5b6000806000806080858703121561175257600080fd5b843567ffffffffffffffff8082111561176a57600080fd5b61177688838901611712565b9550602087013591506117888261143a565b9093506040860135908082111561179e57600080fd5b6117aa88838901611712565b935060608701359150808211156117c057600080fd5b506117cd8782880161172a565b91505092959194509250565b6000602082840312156117eb57600080fd5b5035919050565b60006020828403121561172457600080fd5b6000610120828403121561172457600080fd5b60008060008060008060c0878903121561183057600080fd5b863567ffffffffffffffff8082111561184857600080fd5b6118548a838b01611712565b975061186260208a0161144f565b9650604089013591508082111561187857600080fd5b6118848a838b01611712565b9550606089013591508082111561189a57600080fd5b6118a68a838b0161172a565b945060808901359150808211156118bc57600080fd5b6118c88a838b016117f2565b935060a08901359150808211156118de57600080fd5b506118eb89828a01611804565b9150509295509295509295565b81835281816020850137506000828201602090810191909152601f909101601f19169091010190565b6001600160a01b038b811682528a166020820152604081018990526060810188905260e06080820181905260009061195c908301888a6118f8565b82810360a084015261196f8187896118f8565b905082810360c08401526119848185876118f8565b9d9c50505050505050505050505050565b6000808335601e198436030181126119ac57600080fd5b83018035915067ffffffffffffffff8211156119c757600080fd5b60200191503681900382131561121157600080fd5b8183823760009101908152919050565b6000808335601e19843603018112611a0357600080fd5b83018035915067ffffffffffffffff821115611a1e57600080fd5b6020019150600581901b360382131561121157600080fd5b6000808335601e19843603018112611a4d57600080fd5b830160208101925035905067ffffffffffffffff811115611a6d57600080fd5b80360382131561121157600080fd5b803563ffffffff8116811461145a57600080fd5b6000808335601e19843603018112611aa757600080fd5b830160208101925035905067ffffffffffffffff811115611ac757600080fd5b8060051b360382131561121157600080fd5b81835260006001600160fb1b03831115611af257600080fd5b8260051b80836020870137939093016020019392505050565b600060018060a01b03808d168352602060c081850152611b2f60c085018d8f6118f8565b604085820381870152611b43828d8f6118f8565b9150606086830381880152611b59838c8e6118f8565b8a8616608089015287810360a08901528881529250838301600589901b840185018a60005b8b811015611c9d57868303601f190184528135368e9003605e19018112611ba457600080fd5b8d018035611bb18161143a565b8a1684528089013536829003609e19018112611bcc57600080fd5b848a018790528101803585880152611be68a820182611a36565b60a06080880152611bfc610100880182846118f8565b915050611c0b89830183611a36565b605f19808985030160a08a0152611c238483856118f8565b9350611c318b860186611a36565b93509150808985030160c08a015250611c4b8383836118f8565b9250505063ffffffff611c6060808401611a7c565b1660e0870152611c7289840184611a90565b9350915085810389870152611c88818484611ad9565b968b0196955050509188019150600101611b7e565b5050809750505050505050509b9a5050505050505050505050565b6001600160a01b0385168152606060208201819052600090611cdd90830185876118f8565b905082604083015295945050505050565b6001600160a01b038616815260a060208201526000611d0d8680611a36565b60a080850152611d22610140850182846118f8565b915050611d326020880188611a36565b609f19808685030160c0870152611d4a8483856118f8565b9350611d5960408b018b611a36565b93509150808685030160e0870152611d728484846118f8565b9350611d8160608b018b611a36565b935091508086850301610100870152611d9b8484846118f8565b9350611daa60808b018b611a36565b93509150808685030161012087015250611dc58383836118f8565b9350505050611ddf60408301866001600160a01b03169052565b6001600160a01b03841660608301526001600160a01b03831660808301525b9695505050505050565b600060018060a01b03808716835260606020840152611e2b6060840186886118f8565b915080841660408401525095945050505050565b6000815180845260005b81811015611e6557602081850181015186830182015201611e49565b506000602082860101526020601f19601f83011685010191505092915050565b60006101008251818552611e9b82860182611e3f565b91505060208301518482036020860152611eb58282611e3f565b91505060408301518482036040860152611ecf8282611e3f565b91505060608301518482036060860152611ee98282611e3f565b9150506080830151611f03608086018263ffffffff169052565b5060a0830151611f1e60a08601826001600160a01b03169052565b5060c083015184820360c0860152611f368282611e3f565b91505060e083015184820360e0860152611f508282611e3f565b95945050505050565b6001600160a01b03848116825283166020820152606060408201819052600090611f5090830184611e85565b600060208284031215611f9757600080fd5b6111d182611a7c565b6001600160a01b03858116825284166020820152600060038410611fd457634e487b7160e01b600052602160045260246000fd5b83604083015260806060830152611dfe6080830184611e85565b634e487b7160e01b600052603260045260246000fdfe608060405234801561001057600080fd5b5060405161015338038061015383398101604081905261002f91610054565b600080546001600160a01b0319166001600160a01b0392909216919091179055610084565b60006020828403121561006657600080fd5b81516001600160a01b038116811461007d57600080fd5b9392505050565b60c1806100926000396000f3fe60806040526000805460405182916001600160a01b03169060229083903690607b565b600060405180830381855af49150503d8060008114605b576040519150601f19603f3d011682016040523d82523d6000602084013e6060565b606091505b509150915080516020820183600081146077578282f35b8282fd5b818382376000910190815291905056fea26469706673582212206306aef2878048ff8436e1ec3fc8afa4d9b8102cc88166c48c681b4cc39736e264736f6c63430008110033608060405234801561001057600080fd5b5060405161015338038061015383398101604081905261002f91610054565b600080546001600160a01b0319166001600160a01b0392909216919091179055610084565b60006020828403121561006657600080fd5b81516001600160a01b038116811461007d57600080fd5b9392505050565b60c1806100926000396000f3fe60806040526000805460405182916001600160a01b03169060229083903690607b565b600060405180830381855af49150503d8060008114605b576040519150601f19603f3d011682016040523d82523d6000602084013e6060565b606091505b509150915080516020820183600081146077578282f35b8282fd5b818382376000910190815291905056fea2646970667358221220825b974fe78b8b1828d3a9ba62a259118c162a6012540164f3f93069074c89af64736f6c63430008110033608060405234801561001057600080fd5b5060405161015338038061015383398101604081905261002f91610054565b600080546001600160a01b0319166001600160a01b0392909216919091179055610084565b60006020828403121561006657600080fd5b81516001600160a01b038116811461007d57600080fd5b9392505050565b60c1806100926000396000f3fe60806040526000805460405182916001600160a01b03169060229083903690607b565b600060405180830381855af49150503d8060008114605b576040519150601f19603f3d011682016040523d82523d6000602084013e6060565b606091505b509150915080516020820183600081146077578282f35b8282fd5b818382376000910190815291905056fea264697066735822122068b9a5b665a8daa9fbda1f85c9d299e8cd9f6b81b062d076f456ba6bc9e4855b64736f6c63430008110033608060405234801561001057600080fd5b5060405161015338038061015383398101604081905261002f91610054565b600080546001600160a01b0319166001600160a01b0392909216919091179055610084565b60006020828403121561006657600080fd5b81516001600160a01b038116811461007d57600080fd5b9392505050565b60c1806100926000396000f3fe60806040526000805460405182916001600160a01b03169060229083903690607b565b600060405180830381855af49150503d8060008114605b576040519150601f19603f3d011682016040523d82523d6000602084013e6060565b606091505b509150915080516020820183600081146077578282f35b8282fd5b818382376000910190815291905056fea2646970667358221220dd7a5544616d4ea23ceabf7f5bcdc13e1dc499ed37bbde7ba03edee8686acee764736f6c63430008110033608060405234801561001057600080fd5b5060405161015338038061015383398101604081905261002f91610054565b600080546001600160a01b0319166001600160a01b0392909216919091179055610084565b60006020828403121561006657600080fd5b81516001600160a01b038116811461007d57600080fd5b9392505050565b60c1806100926000396000f3fe60806040526000805460405182916001600160a01b03169060229083903690607b565b600060405180830381855af49150503d8060008114605b576040519150601f19603f3d011682016040523d82523d6000602084013e6060565b606091505b509150915080516020820183600081146077578282f35b8282fd5b818382376000910190815291905056fea2646970667358221220e95014cef5cc06bb72cfe0e9ae5181b5f478a51f38871631274e3019ba952e2a64736f6c63430008110033608060405234801561001057600080fd5b5060405161015338038061015383398101604081905261002f91610054565b600080546001600160a01b0319166001600160a01b0392909216919091179055610084565b60006020828403121561006657600080fd5b81516001600160a01b038116811461007d57600080fd5b9392505050565b60c1806100926000396000f3fe60806040526000805460405182916001600160a01b03169060229083903690607b565b600060405180830381855af49150503d8060008114605b576040519150601f19603f3d011682016040523d82523d6000602084013e6060565b606091505b509150915080516020820183600081146077578282f35b8282fd5b818382376000910190815291905056fea2646970667358221220a04adcd2a0de729b29c4c6765cb08978df8f0c30e047507970bea6e820ce5c8264736f6c63430008110033608060405234801561001057600080fd5b5060405161015338038061015383398101604081905261002f91610054565b600080546001600160a01b0319166001600160a01b0392909216919091179055610084565b60006020828403121561006657600080fd5b81516001600160a01b038116811461007d57600080fd5b9392505050565b60c1806100926000396000f3fe60806040526000805460405182916001600160a01b03169060229083903690607b565b600060405180830381855af49150503d8060008114605b576040519150601f19603f3d011682016040523d82523d6000602084013e6060565b606091505b509150915080516020820183600081146077578282f35b8282fd5b818382376000910190815291905056fea2646970667358221220ccf506eb40024b40663e361391b72fc727b1afe75866bb05ea7b9b212ed2aa5764736f6c63430008110033a26469706673582212200176b02719b96f27ec534d3bdfdce7833906dcf49a53d7a05bc89dbfc395fbbb64736f6c63430008110033",
  "immutableReferences": {},
  "source": "// SPDX-License-Identifier: MIT\npragma solidity ~0.8.17;\n\n// import '../openzeppelin/contracts/utils/structs/EnumerableSet.sol';\nimport './libs/Ownable.sol';\n// Module impl\nimport './DAO.sol';\nimport './Asset.sol';\nimport './AssetShell.sol';\nimport './Ledger.sol';\nimport './Member.sol';\nimport './VotePool.sol';\nimport './Share.sol';\n// Proxy\nimport './gen/DAOProxy.sol';\nimport './gen/AssetProxy.sol';\nimport './gen/AssetShellProxy.sol';\nimport './gen/LedgerProxy.sol';\nimport './gen/MemberProxy.sol';\nimport './gen/VotePoolProxy.sol';\nimport './gen/ShareProxy.sol';\n\n/**\n * @title DAOs contract global DAOs manage\n */\ncontract DAOs is Upgrade, Initializable, Ownable, IDAOs {\n\t// using EnumerableSet for EnumerableSet.AddressSet;\n\tusing EnumerableMap for EnumerableMap.UintToAddressMap;\n\n\tstruct DAOIMPLs {\n\t\taddress   DAO;\n\t\taddress   Member;\n\t\taddress   VotePool;\n\t\taddress   Ledger;\n\t\taddress   Asset;\n\t\taddress   AssetShell;\n\t\taddress   Share;\n\t}\n\tstruct InitMemberArgs {\n\t\tstring name;\n\t\tstring description;\n\t\tstring baseURI;\n\t\tMember.MintMemberArgs[] members;\n\t\tuint256 executor;\n\t}\n\n\tstruct InitVotePoolArgs {\n\t\tstring  description;\n\t\tuint256 lifespan;\n\t}\n\n\tstruct InitLedgerArgs {\n\t\tstring  description;\n\t}\n\n\tstruct InitAssetArgs {\n\t\tstring  name;\n\t\tstring  description;\n\t\tstring  image;\n\t\tstring  external_link;\n\t\tuint32  seller_fee_basis_points_first;\n\t\tuint32  seller_fee_basis_points_second;\n\t\taddress fee_recipient;\n\t\tstring  base_contract_uri;\n\t\tstring  base_uri;\n\t}\n\n\tEnumerableMap.UintToAddressMap private  _DAOs; // global DAOs list\n\tDAOIMPLs                       public   defaultIMPLs; // default logic impl\n\tuint256[50]                    private  __; // reserved storage space\n\n\tfunction initDAOs() external initializer {\n\t\tinitOwnable();\n\t}\n\n\tfunction setDefaultIMPLs(DAOIMPLs memory IMPLs) public onlyOwner {\n\t\tdefaultIMPLs = IMPLs;\n\t}\n\n\t/**\n\t * @dev deploy() deploy common voting DAO\n\t */\n\tfunction deploy(\n\t\tDAO.InitDAOArgs  calldata    daoArgs,           address                      operator,\n\t\tInitMemberArgs   calldata    memberArgs,        InitVotePoolArgs calldata    votePoolArgs\n\t) public returns (DAO host) {\n\t\tuint256 id = uint256(keccak256(bytes(daoArgs.name)));\n\n\t\trequire(!_DAOs.contains(id), \"#DAOs.deploy DAO with corresponding name already exists\");\n\n\t\thost          = DAO( address(new DAOProxy(defaultIMPLs.DAO)) );\n\t\tMember member = Member( address(new MemberProxy(defaultIMPLs.Member)) );\n\t\tVotePool root = VotePool( address(new VotePoolProxy(defaultIMPLs.VotePool)) );\n\n\t\tmember.initMember(address(host), memberArgs.name, memberArgs.description, memberArgs.baseURI, address(0), memberArgs.members);\n\t\troot.initVotePool(address(host), votePoolArgs.description, votePoolArgs.lifespan);\n\t\thost.initDAO(this, daoArgs, address(root), operator, address(member));\n\n\t\t_DAOs.set(id, address(host));\n\n\t\tif (memberArgs.executor != 0)\n\t\t\tmember.setExecutor(memberArgs.executor);\n\n\t\temit Created(address(host));\n\t}\n\n\t/**\n\t * @dev makeAssetSales() deploy asset sales DAO\n\t */\n\tfunction deployAssetSalesDAO(\n\t\tDAO.InitDAOArgs    calldata    daoArgs,           address                        operator,\n\t\tInitMemberArgs     calldata    memberArgs,        InitVotePoolArgs   calldata    votePoolArgs,\n\t\tInitLedgerArgs     calldata    ledgerArgs,        InitAssetArgs      calldata    assetArgs\n\t) public returns (DAO host) {\n\n\t\thost = deploy(daoArgs, address(this), memberArgs, votePoolArgs);\n\t\t// sales\n\t\tLedger      ledger      = Ledger( payable(address(new LedgerProxy(defaultIMPLs.Ledger))) );\n\t\tAsset       asset       = Asset( address(new AssetProxy(defaultIMPLs.Asset)));\n\t\tAssetShell  assetFirst  = AssetShell( payable(address(new AssetShellProxy(defaultIMPLs.AssetShell))));\n\t\tAssetShell  assetSecond = AssetShell( payable(address(new AssetShellProxy(defaultIMPLs.AssetShell))));\n\n\t\tAsset.InitContractURI memory uri;\n\t\turi.name                    = assetArgs.name;\n\t\turi.description             = assetArgs.description;\n\t\turi.image                   = assetArgs.image;\n\t\turi.external_link           = assetArgs.external_link;\n\t\turi.base_contract_uri       = assetArgs.base_contract_uri;\n\t\turi.base_uri                = assetArgs.base_uri;\n\t\turi.fee_recipient           = assetArgs.fee_recipient;\n\t\t//uri.seller_fee_basis_points = 0;\n\n\t\tledger.initLedger(address(host), ledgerArgs.description, address(0));\n\t\tasset.initAsset(address(host), address(0), uri);\n\n\t\turi.seller_fee_basis_points = assetArgs.seller_fee_basis_points_second;\n\t\tassetSecond.initAssetShell(address(host), address(0), IAssetShell.SaleType.kSecond, uri);\n\n\t\turi.seller_fee_basis_points = assetArgs.seller_fee_basis_points_first;\n\t\tassetFirst.initAssetShell(address(host), address(0), IAssetShell.SaleType.kFirst, uri);\n\n\t\t// set modules\n\t\thost.setModule(Module_LEDGER_ID, address(ledger));\n\t\thost.setModule(Module_ASSET_ID, address(asset));\n\t\thost.setModule(Module_ASSET_First_ID, address(assetFirst));\n\t\thost.setModule(Module_ASSET_Second_ID, address(assetSecond));\n\n\t\thost.setOperator(operator); // change to raw operator\n\t}\n\n\tfunction deployShare(\n\t\tIDAO host, address operator,\n\t\tuint256 totalSupply, uint256 maxSupply,\n\t\tstring calldata name, string calldata symbol, string calldata description) public override returns (address) {\n\t\tShare share = Share( address(new ShareProxy(defaultIMPLs.Share)));\n\t\tshare.initShare(address(host), operator, totalSupply, maxSupply, name, symbol, description);\n\t\treturn address(share);\n\t}\n\n\t/**\n\t * @dev length() Returns DAOs length\n\t */\n\tfunction length() view public returns (uint256) {\n\t\treturn _DAOs.length();\n\t}\n\n\t/**\n\t * @dev contains(address) is contains dao address\n\t */\n\tfunction get(string memory name) view public returns (DAO) {\n\t\treturn DAO(_DAOs.get(uint256(keccak256(bytes(name)))));\n\t}\n\n\t/**\n\t * @dev at(id) get DAO object from index\n\t * @param index uint256 dao index\n\t * @return Returns the IDAO interface address and key\n\t */\n\tfunction at(uint256 index) view external returns (DAO) {\n\t\taddress addr;\n\t\t(, addr) = _DAOs.at(index);\n\t\treturn DAO(addr);\n\t}\n\n\t/**\n\t * @dev Returns the implementation contract address\n\t */\n\tfunction impl() view external returns (address) {\n\t\treturn _impl;\n\t}\n\n\t/**\n\t * @dev upgrade(address) upgrade contracts\n\t */\n\tfunction upgrade(address impl_) public onlyOwner {\n\t\t_impl = impl_;\n\t}\n}",
  "sourcePath": "/Users/louis/Project/hc/NFTSwap/SmartHolder/contracts/DAOs.sol",
  "compiler": {
    "name": "solc",
    "version": "0.8.17+commit.8df45f5f.Emscripten.clang"
  },
  "schemaVersion": "3.4.11",
  "updatedAt": "2023-04-23T06:33:53.080Z",
  "networkType": "ethereum",
  "devdoc": {
    "kind": "dev",
    "methods": {
      "at(uint256)": {
        "details": "at(id) get DAO object from index",
        "params": {
          "index": "uint256 dao index"
        },
        "returns": {
          "_0": "Returns the IDAO interface address and key"
        }
      },
      "deploy((string,string,string,string,bytes),address,(string,string,string,(address,(uint256,string,string,string,uint32),uint256[])[],uint256),(string,uint256))": {
        "details": "deploy() deploy common voting DAO"
      },
      "deployAssetSalesDAO((string,string,string,string,bytes),address,(string,string,string,(address,(uint256,string,string,string,uint32),uint256[])[],uint256),(string,uint256),(string),(string,string,string,string,uint32,uint32,address,string,string))": {
        "details": "makeAssetSales() deploy asset sales DAO"
      },
      "get(string)": {
        "details": "contains(address) is contains dao address"
      },
      "impl()": {
        "details": "Returns the implementation contract address"
      },
      "length()": {
        "details": "length() Returns DAOs length"
      },
      "owner()": {
        "details": "Returns the address of the current owner."
      },
      "renounceOwnership()": {
        "details": "Leaves the contract without owner. It will not be possible to call `onlyOwner` functions anymore. Can only be called by the current owner. NOTE: Renouncing ownership will leave the contract without an owner, thereby removing any functionality that is only available to the owner."
      },
      "transferOwnership(address)": {
        "details": "Transfers ownership of the contract to a new account (`newOwner`). Can only be called by the current owner."
      },
      "upgrade(address)": {
        "details": "upgrade(address) upgrade contracts"
      }
    },
    "title": "DAOs contract global DAOs manage",
    "version": 1
  },
  "userdoc": {
    "kind": "user",
    "methods": {},
    "version": 1
  }
}