{
  "contractName": "DAOs",
  "abi": [
    {
      "inputs": [],
      "name": "AddressEmpty",
      "type": "error"
    },
    {
      "inputs": [],
      "name": "OnlyOwnerAvailable",
      "type": "error"
    },
    {
      "anonymous": false,
      "inputs": [
        {
          "indexed": true,
          "internalType": "address",
          "name": "dao",
          "type": "address"
        }
      ],
      "name": "Created",
      "type": "event"
    },
    {
      "anonymous": false,
      "inputs": [
        {
          "indexed": false,
          "internalType": "uint8",
          "name": "version",
          "type": "uint8"
        }
      ],
      "name": "Initialized",
      "type": "event"
    },
    {
      "anonymous": false,
      "inputs": [
        {
          "indexed": true,
          "internalType": "address",
          "name": "previousOwner",
          "type": "address"
        },
        {
          "indexed": true,
          "internalType": "address",
          "name": "newOwner",
          "type": "address"
        }
      ],
      "name": "OwnershipTransferred",
      "type": "event"
    },
    {
      "inputs": [],
      "name": "defaultIMPLs",
      "outputs": [
        {
          "internalType": "address",
          "name": "DAO",
          "type": "address"
        },
        {
          "internalType": "address",
          "name": "Member",
          "type": "address"
        },
        {
          "internalType": "address",
          "name": "VotePool",
          "type": "address"
        },
        {
          "internalType": "address",
          "name": "Ledger",
          "type": "address"
        },
        {
          "internalType": "address",
          "name": "Asset",
          "type": "address"
        },
        {
          "internalType": "address",
          "name": "AssetShell",
          "type": "address"
        },
        {
          "internalType": "address",
          "name": "Share",
          "type": "address"
        }
      ],
      "stateMutability": "view",
      "type": "function"
    },
    {
      "inputs": [],
      "name": "owner",
      "outputs": [
        {
          "internalType": "address",
          "name": "",
          "type": "address"
        }
      ],
      "stateMutability": "view",
      "type": "function"
    },
    {
      "inputs": [],
      "name": "renounceOwnership",
      "outputs": [],
      "stateMutability": "nonpayable",
      "type": "function"
    },
    {
      "inputs": [
        {
          "internalType": "address",
          "name": "newOwner",
          "type": "address"
        }
      ],
      "name": "transferOwnership",
      "outputs": [],
      "stateMutability": "nonpayable",
      "type": "function"
    },
    {
      "inputs": [],
      "name": "initDAOs",
      "outputs": [],
      "stateMutability": "nonpayable",
      "type": "function"
    },
    {
      "inputs": [
        {
          "components": [
            {
              "internalType": "address",
              "name": "DAO",
              "type": "address"
            },
            {
              "internalType": "address",
              "name": "Member",
              "type": "address"
            },
            {
              "internalType": "address",
              "name": "VotePool",
              "type": "address"
            },
            {
              "internalType": "address",
              "name": "Ledger",
              "type": "address"
            },
            {
              "internalType": "address",
              "name": "Asset",
              "type": "address"
            },
            {
              "internalType": "address",
              "name": "AssetShell",
              "type": "address"
            },
            {
              "internalType": "address",
              "name": "Share",
              "type": "address"
            }
          ],
          "internalType": "struct DAOs.DAOIMPLs",
          "name": "IMPLs",
          "type": "tuple"
        }
      ],
      "name": "setDefaultIMPLs",
      "outputs": [],
      "stateMutability": "nonpayable",
      "type": "function"
    },
    {
      "inputs": [
        {
          "components": [
            {
              "internalType": "string",
              "name": "name",
              "type": "string"
            },
            {
              "internalType": "string",
              "name": "mission",
              "type": "string"
            },
            {
              "internalType": "string",
              "name": "description",
              "type": "string"
            },
            {
              "internalType": "string",
              "name": "image",
              "type": "string"
            },
            {
              "internalType": "bytes",
              "name": "extend",
              "type": "bytes"
            },
            {
              "internalType": "address",
              "name": "unlockOperator",
              "type": "address"
            }
          ],
          "internalType": "struct DAO.InitDAOArgs",
          "name": "daoArgs",
          "type": "tuple"
        },
        {
          "internalType": "address",
          "name": "operator",
          "type": "address"
        },
        {
          "components": [
            {
              "internalType": "string",
              "name": "name",
              "type": "string"
            },
            {
              "internalType": "string",
              "name": "description",
              "type": "string"
            },
            {
              "internalType": "string",
              "name": "baseURI",
              "type": "string"
            },
            {
              "components": [
                {
                  "internalType": "address",
                  "name": "owner",
                  "type": "address"
                },
                {
                  "components": [
                    {
                      "internalType": "uint256",
                      "name": "id",
                      "type": "uint256"
                    },
                    {
                      "internalType": "string",
                      "name": "name",
                      "type": "string"
                    },
                    {
                      "internalType": "string",
                      "name": "description",
                      "type": "string"
                    },
                    {
                      "internalType": "string",
                      "name": "image",
                      "type": "string"
                    },
                    {
                      "internalType": "uint32",
                      "name": "votes",
                      "type": "uint32"
                    }
                  ],
                  "internalType": "struct IMember.Info",
                  "name": "info",
                  "type": "tuple"
                },
                {
                  "internalType": "uint256[]",
                  "name": "permissions",
                  "type": "uint256[]"
                }
              ],
              "internalType": "struct Member.MintMemberArgs[]",
              "name": "members",
              "type": "tuple[]"
            },
            {
              "internalType": "uint256",
              "name": "executor",
              "type": "uint256"
            }
          ],
          "internalType": "struct DAOs.InitMemberArgs",
          "name": "memberArgs",
          "type": "tuple"
        },
        {
          "components": [
            {
              "internalType": "string",
              "name": "description",
              "type": "string"
            },
            {
              "internalType": "uint256",
              "name": "lifespan",
              "type": "uint256"
            }
          ],
          "internalType": "struct DAOs.InitVotePoolArgs",
          "name": "votePoolArgs",
          "type": "tuple"
        }
      ],
      "name": "deploy",
      "outputs": [
        {
          "internalType": "contract DAO",
          "name": "host",
          "type": "address"
        }
      ],
      "stateMutability": "nonpayable",
      "type": "function"
    },
    {
      "inputs": [
        {
          "components": [
            {
              "internalType": "string",
              "name": "name",
              "type": "string"
            },
            {
              "internalType": "string",
              "name": "mission",
              "type": "string"
            },
            {
              "internalType": "string",
              "name": "description",
              "type": "string"
            },
            {
              "internalType": "string",
              "name": "image",
              "type": "string"
            },
            {
              "internalType": "bytes",
              "name": "extend",
              "type": "bytes"
            },
            {
              "internalType": "address",
              "name": "unlockOperator",
              "type": "address"
            }
          ],
          "internalType": "struct DAO.InitDAOArgs",
          "name": "daoArgs",
          "type": "tuple"
        },
        {
          "internalType": "address",
          "name": "operator",
          "type": "address"
        },
        {
          "components": [
            {
              "internalType": "string",
              "name": "name",
              "type": "string"
            },
            {
              "internalType": "string",
              "name": "description",
              "type": "string"
            },
            {
              "internalType": "string",
              "name": "baseURI",
              "type": "string"
            },
            {
              "components": [
                {
                  "internalType": "address",
                  "name": "owner",
                  "type": "address"
                },
                {
                  "components": [
                    {
                      "internalType": "uint256",
                      "name": "id",
                      "type": "uint256"
                    },
                    {
                      "internalType": "string",
                      "name": "name",
                      "type": "string"
                    },
                    {
                      "internalType": "string",
                      "name": "description",
                      "type": "string"
                    },
                    {
                      "internalType": "string",
                      "name": "image",
                      "type": "string"
                    },
                    {
                      "internalType": "uint32",
                      "name": "votes",
                      "type": "uint32"
                    }
                  ],
                  "internalType": "struct IMember.Info",
                  "name": "info",
                  "type": "tuple"
                },
                {
                  "internalType": "uint256[]",
                  "name": "permissions",
                  "type": "uint256[]"
                }
              ],
              "internalType": "struct Member.MintMemberArgs[]",
              "name": "members",
              "type": "tuple[]"
            },
            {
              "internalType": "uint256",
              "name": "executor",
              "type": "uint256"
            }
          ],
          "internalType": "struct DAOs.InitMemberArgs",
          "name": "memberArgs",
          "type": "tuple"
        },
        {
          "components": [
            {
              "internalType": "string",
              "name": "description",
              "type": "string"
            },
            {
              "internalType": "uint256",
              "name": "lifespan",
              "type": "uint256"
            }
          ],
          "internalType": "struct DAOs.InitVotePoolArgs",
          "name": "votePoolArgs",
          "type": "tuple"
        },
        {
          "components": [
            {
              "internalType": "string",
              "name": "description",
              "type": "string"
            }
          ],
          "internalType": "struct DAOs.InitLedgerArgs",
          "name": "ledgerArgs",
          "type": "tuple"
        },
        {
          "components": [
            {
              "internalType": "string",
              "name": "name",
              "type": "string"
            },
            {
              "internalType": "string",
              "name": "description",
              "type": "string"
            },
            {
              "internalType": "string",
              "name": "image",
              "type": "string"
            },
            {
              "internalType": "string",
              "name": "external_link",
              "type": "string"
            },
            {
              "internalType": "uint32",
              "name": "seller_fee_basis_points_first",
              "type": "uint32"
            },
            {
              "internalType": "uint32",
              "name": "seller_fee_basis_points_second",
              "type": "uint32"
            },
            {
              "internalType": "address",
              "name": "fee_recipient",
              "type": "address"
            },
            {
              "internalType": "string",
              "name": "base_contract_uri",
              "type": "string"
            },
            {
              "internalType": "string",
              "name": "base_uri",
              "type": "string"
            },
            {
              "internalType": "bool",
              "name": "enable_lock",
              "type": "bool"
            }
          ],
          "internalType": "struct DAOs.InitAssetArgs",
          "name": "assetArgs",
          "type": "tuple"
        }
      ],
      "name": "deployAssetSalesDAO",
      "outputs": [
        {
          "internalType": "contract DAO",
          "name": "host",
          "type": "address"
        }
      ],
      "stateMutability": "nonpayable",
      "type": "function"
    },
    {
      "inputs": [
        {
          "internalType": "contract IDAO",
          "name": "host",
          "type": "address"
        },
        {
          "internalType": "address",
          "name": "operator",
          "type": "address"
        },
        {
          "internalType": "uint256",
          "name": "totalSupply",
          "type": "uint256"
        },
        {
          "internalType": "uint256",
          "name": "maxSupply",
          "type": "uint256"
        },
        {
          "internalType": "string",
          "name": "name",
          "type": "string"
        },
        {
          "internalType": "string",
          "name": "symbol",
          "type": "string"
        },
        {
          "internalType": "string",
          "name": "description",
          "type": "string"
        }
      ],
      "name": "deployShare",
      "outputs": [
        {
          "internalType": "address",
          "name": "",
          "type": "address"
        }
      ],
      "stateMutability": "nonpayable",
      "type": "function"
    },
    {
      "inputs": [],
      "name": "length",
      "outputs": [
        {
          "internalType": "uint256",
          "name": "",
          "type": "uint256"
        }
      ],
      "stateMutability": "view",
      "type": "function"
    },
    {
      "inputs": [
        {
          "internalType": "string",
          "name": "name",
          "type": "string"
        }
      ],
      "name": "get",
      "outputs": [
        {
          "internalType": "contract DAO",
          "name": "",
          "type": "address"
        }
      ],
      "stateMutability": "view",
      "type": "function"
    },
    {
      "inputs": [
        {
          "internalType": "uint256",
          "name": "index",
          "type": "uint256"
        }
      ],
      "name": "at",
      "outputs": [
        {
          "internalType": "contract DAO",
          "name": "",
          "type": "address"
        }
      ],
      "stateMutability": "view",
      "type": "function"
    },
    {
      "inputs": [],
      "name": "impl",
      "outputs": [
        {
          "internalType": "address",
          "name": "",
          "type": "address"
        }
      ],
      "stateMutability": "view",
      "type": "function"
    },
    {
      "inputs": [
        {
          "internalType": "address",
          "name": "impl_",
          "type": "address"
        }
      ],
      "name": "upgrade",
      "outputs": [],
      "stateMutability": "nonpayable",
      "type": "function"
    },
    {
      "inputs": [
        {
          "components": [
            {
              "internalType": "address",
              "name": "token",
              "type": "address"
            },
            {
              "internalType": "bytes32",
              "name": "r",
              "type": "bytes32"
            },
            {
              "internalType": "bytes32",
              "name": "s",
              "type": "bytes32"
            },
            {
              "internalType": "uint8",
              "name": "v",
              "type": "uint8"
            },
            {
              "components": [
                {
                  "internalType": "uint256",
                  "name": "tokenId",
                  "type": "uint256"
                },
                {
                  "internalType": "address",
                  "name": "from",
                  "type": "address"
                },
                {
                  "internalType": "address",
                  "name": "to",
                  "type": "address"
                },
                {
                  "internalType": "address",
                  "name": "source",
                  "type": "address"
                },
                {
                  "internalType": "address",
                  "name": "erc20",
                  "type": "address"
                },
                {
                  "internalType": "uint256",
                  "name": "amount",
                  "type": "uint256"
                },
                {
                  "internalType": "uint256",
                  "name": "eth",
                  "type": "uint256"
                }
              ],
              "internalType": "struct AssetShell.UnlockForOperator[]",
              "name": "data",
              "type": "tuple[]"
            }
          ],
          "internalType": "struct DAOs.UnlockAssetForOperator[]",
          "name": "unlock",
          "type": "tuple[]"
        }
      ],
      "name": "unlockAssetForOperator",
      "outputs": [],
      "stateMutability": "nonpayable",
      "type": "function"
    }
  ],
  "bytecode": "0x608060405234801561001057600080fd5b50612e78806100206000396000f3fe60806040523480156200001157600080fd5b5060043610620001085760003560e01c80638abf607711620000a3578063dd68eb32116200006e578063dd68eb321462000280578063e0886f901462000297578063ec47f60f14620002ae578063f2fde38b14620002b857600080fd5b80638abf6077146200022e5780638da5cb5b14620002405780638ff4d3d21462000252578063a68e175e146200026957600080fd5b80631f7b6d3211620000e45780631f7b6d3214620001dd5780633ccebafd14620001f6578063693ec85e146200020d578063715018a6146200022457600080fd5b8062d46a26146200010d5780630900f01014620001945780631d8a4cff14620001ad575b600080fd5b600554600654600754600854600954600a54600b5462000146966001600160a01b03908116968116958116948116938116928116911687565b604080516001600160a01b039889168152968816602088015294871694860194909452918516606085015284166080840152831660a083015290911660c082015260e0015b60405180910390f35b620001ab620001a5366004620016a6565b620002cf565b005b620001c4620001be3660046200170b565b6200031d565b6040516001600160a01b0390911681526020016200018b565b620001e7620003f4565b6040519081526020016200018b565b620001ab62000207366004620017ee565b62000407565b620001c46200021e366004620018bc565b620004cc565b620001ab620004ff565b6000546001600160a01b0316620001c4565b6001546001600160a01b0316620001c4565b620001c46200026336600462001941565b62000575565b620001c46200027a36600462001a11565b6200095a565b620001ab6200029136600462001b04565b620010e0565b620001c4620002a836600462001b7e565b620011de565b620001ab620011f6565b620001ab620002c9366004620016a6565b6200132b565b6001546001600160a01b03163314620002fb5760405163399c757960e01b815260040160405180910390fd5b600080546001600160a01b0319166001600160a01b0392909216919091179055565b600b5460405160009182916001600160a01b03909116906200033f906200161c565b6001600160a01b039091168152602001604051809103906000f0801580156200036c573d6000803e3d6000fd5b5060405163038dd1f960e31b81529091506001600160a01b03821690631c6e8fc890620003b0908f908f908f908f908f908f908f908f908f908f9060040162001bc1565b600060405180830381600087803b158015620003cb57600080fd5b505af1158015620003e0573d6000803e3d6000fd5b50929e9d5050505050505050505050505050565b6000620004026002620013db565b905090565b6001546001600160a01b03163314620004335760405163399c757960e01b815260040160405180910390fd5b8051600580546001600160a01b03199081166001600160a01b0393841617909155602083015160068054831691841691909117905560408301516007805483169184169190911790556060830151600880548316918416919091179055608083015160098054831691841691909117905560a0830151600a8054831691841691909117905560c090920151600b80549093169116179055565b6000620004f68383604051620004e492919062001c3b565b604051908190039020600290620013e8565b90505b92915050565b6001546001600160a01b031633146200052b5760405163399c757960e01b815260040160405180910390fd5b6001546040516000916001600160a01b0316907f8be0079c531659141344cd1fd0a4f28419497f9722a3daafe3b4186f6b6457e0908390a3600180546001600160a01b0319169055565b60008062000584868062001c4b565b6040516200059492919062001c3b565b6040519081900390209050620005ac600282620013f6565b15620006255760405162461bcd60e51b815260206004820152603760248201527f2344414f732e6465706c6f792044414f207769746820636f72726573706f6e6460448201527f696e67206e616d6520616c72656164792065786973747300000000000000000060648201526084015b60405180910390fd5b6005546040516001600160a01b039091169062000642906200162a565b6001600160a01b039091168152602001604051809103906000f0801580156200066f573d6000803e3d6000fd5b506006546040519193506000916001600160a01b0390911690620006939062001638565b6001600160a01b039091168152602001604051809103906000f080158015620006c0573d6000803e3d6000fd5b506007546040519192506000916001600160a01b0390911690620006e49062001646565b6001600160a01b039091168152602001604051809103906000f08015801562000711573d6000803e3d6000fd5b5090506001600160a01b03821663b641ee428562000730898062001c4b565b6200073f60208c018c62001c4b565b6200074e60408e018e62001c4b565b60008f806060019062000762919062001c95565b6040518b63ffffffff1660e01b8152600401620007899a9998979695949392919062001dbf565b600060405180830381600087803b158015620007a457600080fd5b505af1158015620007b9573d6000803e3d6000fd5b5050506001600160a01b0382169050636c4a609485620007da888062001c4b565b89602001356040518563ffffffff1660e01b815260040162000800949392919062001f8a565b600060405180830381600087803b1580156200081b57600080fd5b505af115801562000830573d6000803e3d6000fd5b50506040516302251c5760e21b81526001600160a01b0387169250630894715c91506200086a9030908c9086908d90899060040162001fc2565b600060405180830381600087803b1580156200088557600080fd5b505af11580156200089a573d6000803e3d6000fd5b50620008af9250600291508590508662001404565b506080860135156200091b576040516303ee229360e11b8152608087013560048201526001600160a01b038316906307dc452690602401600060405180830381600087803b1580156200090157600080fd5b505af115801562000916573d6000803e3d6000fd5b505050505b6040516001600160a01b038516907f1449abf21e49fd025f33495e77f7b1461caefdd3d4bb646424a3f445c4576a5b90600090a2505050949350505050565b60006200096a8730878762000575565b6008546040519192506000916001600160a01b03909116906200098d9062001654565b6001600160a01b039091168152602001604051809103906000f080158015620009ba573d6000803e3d6000fd5b506009546040519192506000916001600160a01b0390911690620009de9062001662565b6001600160a01b039091168152602001604051809103906000f08015801562000a0b573d6000803e3d6000fd5b50600a546040519192506000916001600160a01b039091169062000a2f9062001670565b6001600160a01b039091168152602001604051809103906000f08015801562000a5c573d6000803e3d6000fd5b50600a546040519192506000916001600160a01b039091169062000a809062001670565b6001600160a01b039091168152602001604051809103906000f08015801562000aad573d6000803e3d6000fd5b50905062000b0860405180610100016040528060608152602001606081526020016060815260200160608152602001600063ffffffff16815260200160006001600160a01b0316815260200160608152602001606081525090565b62000b14878062001c4b565b8080601f01602080910402602001604051908101604052809392919081815260200183838082843760009201919091525050509082525062000b5a602088018862001c4b565b8080601f016020809104026020016040519081016040528093929190818152602001838380828437600092019190915250505050602082015262000ba2604088018862001c4b565b8080601f016020809104026020016040519081016040528093929190818152602001838380828437600092019190915250505050604082015262000bea606088018862001c4b565b8080601f016020809104026020016040519081016040528093929190818152602001838380828437600092019190915250505050606082015262000c3260e088018862001c4b565b8080601f01602080910402602001604051908101604052809392919081815260200183838082843760009201919091525050505060c082015262000c7b61010088018862001c4b565b8080601f01602080910402602001604051908101604052809392919081815260200183838082843760009201919091525050505060e08083019190915262000cc990880160c08901620016a6565b6001600160a01b0390811660a0830152851663f4c38e518762000ced8b8062001c4b565b60006040518563ffffffff1660e01b815260040162000d1094939291906200210e565b600060405180830381600087803b15801562000d2b57600080fd5b505af115801562000d40573d6000803e3d6000fd5b50506040516311435fff60e31b81526001600160a01b0387169250638a1afff8915062000d77908990600090869060040162002271565b600060405180830381600087803b15801562000d9257600080fd5b505af115801562000da7573d6000803e3d6000fd5b5062000dbe9250505060c0880160a089016200229f565b63ffffffff1660808201526001600160a01b03821663e170a68487600060028562000df26101408e016101208f01620022bd565b6040518663ffffffff1660e01b815260040162000e14959493929190620022e1565b600060405180830381600087803b15801562000e2f57600080fd5b505af115801562000e44573d6000803e3d6000fd5b5062000e5b9250505060a08801608089016200229f565b63ffffffff1660808201526001600160a01b03831663e170a68487600060018562000e8f6101408e016101208f01620022bd565b6040518663ffffffff1660e01b815260040162000eb1959493929190620022e1565b600060405180830381600087803b15801562000ecc57600080fd5b505af115801562000ee1573d6000803e3d6000fd5b50506040516305d2916360e41b8152600260048201526001600160a01b03888116602483015289169250635d2916309150604401600060405180830381600087803b15801562000f3057600080fd5b505af115801562000f45573d6000803e3d6000fd5b50506040516305d2916360e41b8152600360048201526001600160a01b03878116602483015289169250635d2916309150604401600060405180830381600087803b15801562000f9457600080fd5b505af115801562000fa9573d6000803e3d6000fd5b50506040516305d2916360e41b81526004808201526001600160a01b03868116602483015289169250635d2916309150604401600060405180830381600087803b15801562000ff757600080fd5b505af11580156200100c573d6000803e3d6000fd5b50506040516305d2916360e41b8152600560048201526001600160a01b03858116602483015289169250635d2916309150604401600060405180830381600087803b1580156200105b57600080fd5b505af115801562001070573d6000803e3d6000fd5b505060405163b3ab15fb60e01b81526001600160a01b038e811660048301528916925063b3ab15fb9150602401600060405180830381600087803b158015620010b857600080fd5b505af1158015620010cd573d6000803e3d6000fd5b5050505050505050509695505050505050565b60005b63ffffffff8116821115620011d9573683838363ffffffff168181106200110e576200110e62002346565b90506020028101906200112291906200235c565b9050620011336020820182620016a6565b6001600160a01b03166308e573006200115060808401846200237d565b602085013560408601356200116c6080880160608901620023c9565b6040518663ffffffff1660e01b81526004016200118e959493929190620023ee565b600060405180830381600087803b158015620011a957600080fd5b505af1158015620011be573d6000803e3d6000fd5b50505050508080620011d090620024cb565b915050620010e3565b505050565b600080620011ee6002846200141c565b949350505050565b600054600160a81b900460ff16158080156200121f57506000546001600160a01b90910460ff16105b80620012425750303b158015620012425750600054600160a01b900460ff166001145b620012a75760405162461bcd60e51b815260206004820152602e60248201527f496e697469616c697a61626c653a20636f6e747261637420697320616c72656160448201526d191e481a5b9a5d1a585b1a5e995960921b60648201526084016200061c565b6000805460ff60a01b1916600160a01b1790558015620012d5576000805460ff60a81b1916600160a81b1790555b620012df6200143c565b801562001328576000805460ff60a81b19169055604051600181527f7f26b83ff96e1f2b6a682f133852f6798a09c465da95921460cefb38474024989060200160405180910390a15b50565b6001546001600160a01b03163314620013575760405163399c757960e01b815260040160405180910390fd5b6001600160a01b0381166200137f57604051635bb7a72360e01b815260040160405180910390fd5b6001546040516001600160a01b038084169216907f8be0079c531659141344cd1fd0a4f28419497f9722a3daafe3b4186f6b6457e090600090a3600180546001600160a01b0319166001600160a01b0392909216919091179055565b6000620004f98262001481565b6000620004f683836200148e565b6000620004f6838362001503565b6000620011ee84846001600160a01b03851662001511565b60008080806200142d868662001530565b909450925050505b9250929050565b600180546001600160a01b0319163390811790915560405181906000907f8be0079c531659141344cd1fd0a4f28419497f9722a3daafe3b4186f6b6457e0908290a350565b6000620004f9826200155d565b600081815260028301602052604081205480151580620014b55750620014b5848462001503565b620004f65760405162461bcd60e51b815260206004820152601e60248201527f456e756d657261626c654d61703a206e6f6e6578697374656e74206b6579000060448201526064016200061c565b6000620004f6838362001568565b60008281526002840160205260408120829055620011ee848462001581565b600080806200154085856200158f565b600081815260029690960160205260409095205494959350505050565b6000620004f9825490565b60008181526001830160205260408120541515620004f6565b6000620004f683836200159d565b6000620004f68383620015ef565b6000818152600183016020526040812054620015e657508154600181810184556000848152602080822090930184905584548482528286019093526040902091909155620004f9565b506000620004f9565b600082600001828154811062001609576200160962002346565b9060005260206000200154905092915050565b61015380620024fe83390190565b610153806200265183390190565b61015380620027a483390190565b61015380620028f783390190565b6101538062002a4a83390190565b6101538062002b9d83390190565b6101538062002cf083390190565b6001600160a01b03811681146200132857600080fd5b8035620016a1816200167e565b919050565b600060208284031215620016b957600080fd5b8135620004f6816200167e565b60008083601f840112620016d957600080fd5b50813567ffffffffffffffff811115620016f257600080fd5b6020830191508360208285010111156200143557600080fd5b60008060008060008060008060008060e08b8d0312156200172b57600080fd5b8a3562001738816200167e565b995060208b01356200174a816200167e565b985060408b0135975060608b0135965060808b013567ffffffffffffffff808211156200177657600080fd5b620017848e838f01620016c6565b909850965060a08d01359150808211156200179e57600080fd5b620017ac8e838f01620016c6565b909650945060c08d0135915080821115620017c657600080fd5b50620017d58d828e01620016c6565b915080935050809150509295989b9194979a5092959850565b600060e082840312156200180157600080fd5b60405160e0810181811067ffffffffffffffff821117156200183357634e487b7160e01b600052604160045260246000fd5b604052620018418362001694565b8152620018516020840162001694565b6020820152620018646040840162001694565b6040820152620018776060840162001694565b60608201526200188a6080840162001694565b60808201526200189d60a0840162001694565b60a0820152620018b060c0840162001694565b60c08201529392505050565b60008060208385031215620018d057600080fd5b823567ffffffffffffffff811115620018e857600080fd5b620018f685828601620016c6565b90969095509350505050565b600060c082840312156200191557600080fd5b50919050565b600060a082840312156200191557600080fd5b6000604082840312156200191557600080fd5b600080600080608085870312156200195857600080fd5b843567ffffffffffffffff808211156200197157600080fd5b6200197f8883890162001902565b95506020870135915062001993826200167e565b90935060408601359080821115620019aa57600080fd5b620019b8888389016200191b565b93506060870135915080821115620019cf57600080fd5b50620019de878288016200192e565b91505092959194509250565b6000602082840312156200191557600080fd5b600061014082840312156200191557600080fd5b60008060008060008060c0878903121562001a2b57600080fd5b863567ffffffffffffffff8082111562001a4457600080fd5b62001a528a838b0162001902565b975062001a6260208a0162001694565b9650604089013591508082111562001a7957600080fd5b62001a878a838b016200191b565b9550606089013591508082111562001a9e57600080fd5b62001aac8a838b016200192e565b9450608089013591508082111562001ac357600080fd5b62001ad18a838b01620019ea565b935060a089013591508082111562001ae857600080fd5b5062001af789828a01620019fd565b9150509295509295509295565b6000806020838503121562001b1857600080fd5b823567ffffffffffffffff8082111562001b3157600080fd5b818501915085601f83011262001b4657600080fd5b81358181111562001b5657600080fd5b8660208260051b850101111562001b6c57600080fd5b60209290920196919550909350505050565b60006020828403121562001b9157600080fd5b5035919050565b81835281816020850137506000828201602090810191909152601f909101601f19169091010190565b6001600160a01b038b811682528a166020820152604081018990526060810188905260e06080820181905260009062001bfe908301888a62001b98565b82810360a084015262001c1381878962001b98565b905082810360c084015262001c2a81858762001b98565b9d9c50505050505050505050505050565b8183823760009101908152919050565b6000808335601e1984360301811262001c6357600080fd5b83018035915067ffffffffffffffff82111562001c7f57600080fd5b6020019150368190038213156200143557600080fd5b6000808335601e1984360301811262001cad57600080fd5b83018035915067ffffffffffffffff82111562001cc957600080fd5b6020019150600581901b36038213156200143557600080fd5b6000808335601e1984360301811262001cfa57600080fd5b830160208101925035905067ffffffffffffffff81111562001d1b57600080fd5b8036038213156200143557600080fd5b803563ffffffff81168114620016a157600080fd5b6000808335601e1984360301811262001d5857600080fd5b830160208101925035905067ffffffffffffffff81111562001d7957600080fd5b8060051b36038213156200143557600080fd5b81835260006001600160fb1b0383111562001da657600080fd5b8260051b80836020870137939093016020019392505050565b600060018060a01b03808d168352602060c08185015262001de560c085018d8f62001b98565b60408582038187015262001dfb828d8f62001b98565b915060608683038188015262001e13838c8e62001b98565b8a8616608089015287810360a08901528881529250838301600589901b840185018a60005b8b81101562001f6f57868303601f190184528135368e9003605e1901811262001e6057600080fd5b8d01803562001e6f816200167e565b8a1684528089013536829003609e1901811262001e8b57600080fd5b848a01879052810180358588015262001ea78a82018262001ce2565b60a0608088015262001ebf6101008801828462001b98565b91505062001ed08983018362001ce2565b605f19808985030160a08a015262001eea84838562001b98565b935062001efa8b86018662001ce2565b93509150808985030160c08a01525062001f1683838362001b98565b9250505063ffffffff62001f2d6080840162001d2b565b1660e087015262001f418984018462001d40565b935091508581038987015262001f5981848462001d8c565b968b019695505050918801915060010162001e38565b5050809750505050505050509b9a5050505050505050505050565b6001600160a01b038516815260606020820181905260009062001fb1908301858762001b98565b905082604083015295945050505050565b6001600160a01b03868116825260a0602083015260009062001fe5878062001ce2565b60c060a086015262001ffd6101608601828462001b98565b9150506200200f602089018962001ce2565b609f19808785030160c08801526200202984838562001b98565b93506200203a60408c018c62001ce2565b93509150808785030160e08801526200205584848462001b98565b93506200206660608c018c62001ce2565b9350915080878503016101008801526200208284848462001b98565b93506200209360808c018c62001ce2565b93509150808785030161012088015250620020b083838362001b98565b9250505060a0880135620020c4816200167e565b9091166101408401529050620020e560408301866001600160a01b03169052565b6001600160a01b03841660608301526001600160a01b03831660808301525b9695505050505050565b600060018060a01b038087168352606060208401526200213360608401868862001b98565b915080841660408401525095945050505050565b6000815180845260005b818110156200216f5760208185018101518683018201520162002151565b506000602082860101526020601f19601f83011685010191505092915050565b60006101008251818552620021a78286018262002147565b91505060208301518482036020860152620021c3828262002147565b91505060408301518482036040860152620021df828262002147565b91505060608301518482036060860152620021fb828262002147565b915050608083015162002216608086018263ffffffff169052565b5060a08301516200223260a08601826001600160a01b03169052565b5060c083015184820360c08601526200224c828262002147565b91505060e083015184820360e086015262002268828262002147565b95945050505050565b6001600160a01b0384811682528316602082015260606040820181905260009062002268908301846200218f565b600060208284031215620022b257600080fd5b620004f68262001d2b565b600060208284031215620022d057600080fd5b81358015158114620004f657600080fd5b6001600160a01b038681168252851660208201526000600385106200231657634e487b7160e01b600052602160045260246000fd5b84604083015260a060608301526200233260a08301856200218f565b905082151560808301529695505050505050565b634e487b7160e01b600052603260045260246000fd5b60008235609e198336030181126200237357600080fd5b9190910192915050565b6000808335601e198436030181126200239557600080fd5b83018035915067ffffffffffffffff821115620023b157600080fd5b602001915060e0810236038213156200143557600080fd5b600060208284031215620023dc57600080fd5b813560ff81168114620004f657600080fd5b608080825281810186905260009060a080840189845b8a811015620024a7578135835260208083013562002422816200167e565b6001600160a01b0390811691850191909152604090838201359062002447826200167e565b808216838701526060925082850135915062002463826200167e565b16908401526200247582860162001694565b6001600160a01b031685840152838201358484015260c0808301359084015260e0928301929091019060010162002404565b505080935050505084602083015283604083015262002104606083018460ff169052565b600063ffffffff808316818103620024f357634e487b7160e01b600052601160045260246000fd5b600101939250505056fe608060405234801561001057600080fd5b5060405161015338038061015383398101604081905261002f91610054565b600080546001600160a01b0319166001600160a01b0392909216919091179055610084565b60006020828403121561006657600080fd5b81516001600160a01b038116811461007d57600080fd5b9392505050565b60c1806100926000396000f3fe60806040526000805460405182916001600160a01b03169060229083903690607b565b600060405180830381855af49150503d8060008114605b576040519150601f19603f3d011682016040523d82523d6000602084013e6060565b606091505b509150915080516020820183600081146077578282f35b8282fd5b818382376000910190815291905056fea26469706673582212206306aef2878048ff8436e1ec3fc8afa4d9b8102cc88166c48c681b4cc39736e264736f6c63430008110033608060405234801561001057600080fd5b5060405161015338038061015383398101604081905261002f91610054565b600080546001600160a01b0319166001600160a01b0392909216919091179055610084565b60006020828403121561006657600080fd5b81516001600160a01b038116811461007d57600080fd5b9392505050565b60c1806100926000396000f3fe60806040526000805460405182916001600160a01b03169060229083903690607b565b600060405180830381855af49150503d8060008114605b576040519150601f19603f3d011682016040523d82523d6000602084013e6060565b606091505b509150915080516020820183600081146077578282f35b8282fd5b818382376000910190815291905056fea2646970667358221220f99ed86a39498ccf423585df89fb827c370a9e7941396854321d2e0b30165c0b64736f6c63430008110033608060405234801561001057600080fd5b5060405161015338038061015383398101604081905261002f91610054565b600080546001600160a01b0319166001600160a01b0392909216919091179055610084565b60006020828403121561006657600080fd5b81516001600160a01b038116811461007d57600080fd5b9392505050565b60c1806100926000396000f3fe60806040526000805460405182916001600160a01b03169060229083903690607b565b600060405180830381855af49150503d8060008114605b576040519150601f19603f3d011682016040523d82523d6000602084013e6060565b606091505b509150915080516020820183600081146077578282f35b8282fd5b818382376000910190815291905056fea264697066735822122068b9a5b665a8daa9fbda1f85c9d299e8cd9f6b81b062d076f456ba6bc9e4855b64736f6c63430008110033608060405234801561001057600080fd5b5060405161015338038061015383398101604081905261002f91610054565b600080546001600160a01b0319166001600160a01b0392909216919091179055610084565b60006020828403121561006657600080fd5b81516001600160a01b038116811461007d57600080fd5b9392505050565b60c1806100926000396000f3fe60806040526000805460405182916001600160a01b03169060229083903690607b565b600060405180830381855af49150503d8060008114605b576040519150601f19603f3d011682016040523d82523d6000602084013e6060565b606091505b509150915080516020820183600081146077578282f35b8282fd5b818382376000910190815291905056fea2646970667358221220dd7a5544616d4ea23ceabf7f5bcdc13e1dc499ed37bbde7ba03edee8686acee764736f6c63430008110033608060405234801561001057600080fd5b5060405161015338038061015383398101604081905261002f91610054565b600080546001600160a01b0319166001600160a01b0392909216919091179055610084565b60006020828403121561006657600080fd5b81516001600160a01b038116811461007d57600080fd5b9392505050565b60c1806100926000396000f3fe60806040526000805460405182916001600160a01b03169060229083903690607b565b600060405180830381855af49150503d8060008114605b576040519150601f19603f3d011682016040523d82523d6000602084013e6060565b606091505b509150915080516020820183600081146077578282f35b8282fd5b818382376000910190815291905056fea2646970667358221220ead8a43cd6fa02bc37b476211a536fcab04ceda1982640d70622899b1ac798d164736f6c63430008110033608060405234801561001057600080fd5b5060405161015338038061015383398101604081905261002f91610054565b600080546001600160a01b0319166001600160a01b0392909216919091179055610084565b60006020828403121561006657600080fd5b81516001600160a01b038116811461007d57600080fd5b9392505050565b60c1806100926000396000f3fe60806040526000805460405182916001600160a01b03169060229083903690607b565b600060405180830381855af49150503d8060008114605b576040519150601f19603f3d011682016040523d82523d6000602084013e6060565b606091505b509150915080516020820183600081146077578282f35b8282fd5b818382376000910190815291905056fea2646970667358221220a04adcd2a0de729b29c4c6765cb08978df8f0c30e047507970bea6e820ce5c8264736f6c63430008110033608060405234801561001057600080fd5b5060405161015338038061015383398101604081905261002f91610054565b600080546001600160a01b0319166001600160a01b0392909216919091179055610084565b60006020828403121561006657600080fd5b81516001600160a01b038116811461007d57600080fd5b9392505050565b60c1806100926000396000f3fe60806040526000805460405182916001600160a01b03169060229083903690607b565b600060405180830381855af49150503d8060008114605b576040519150601f19603f3d011682016040523d82523d6000602084013e6060565b606091505b509150915080516020820183600081146077578282f35b8282fd5b818382376000910190815291905056fea2646970667358221220bed7edfc51e37906b0f0cdb06fa5c817c3fcef3cbda18dddd82eabe95fff00d264736f6c63430008110033a26469706673582212203ab5bac2231714dc48111c0f5d7d9c3b3d3ce816194226794e0d09190de5a81164736f6c63430008110033",
  "immutableReferences": {},
  "source": "// SPDX-License-Identifier: MIT\npragma solidity ~0.8.17;\n\n// import '../openzeppelin/contracts/utils/structs/EnumerableSet.sol';\nimport './libs/Ownable.sol';\n// Module impl\nimport './DAO.sol';\nimport './Asset.sol';\nimport './AssetShell.sol';\nimport './Ledger.sol';\nimport './Member.sol';\nimport './VotePool.sol';\nimport './Share.sol';\n// Proxy\nimport './gen/DAOProxy.sol';\nimport './gen/AssetProxy.sol';\nimport './gen/AssetShellProxy.sol';\nimport './gen/LedgerProxy.sol';\nimport './gen/MemberProxy.sol';\nimport './gen/VotePoolProxy.sol';\nimport './gen/ShareProxy.sol';\n\n/**\n * @title DAOs contract global DAOs manage\n */\ncontract DAOs is Upgrade, Initializable, Ownable, IDAOs {\n\t// using EnumerableSet for EnumerableSet.AddressSet;\n\tusing EnumerableMap for EnumerableMap.UintToAddressMap;\n\n\tstruct DAOIMPLs {\n\t\taddress   DAO;\n\t\taddress   Member;\n\t\taddress   VotePool;\n\t\taddress   Ledger;\n\t\taddress   Asset;\n\t\taddress   AssetShell;\n\t\taddress   Share;\n\t}\n\tstruct InitMemberArgs {\n\t\tstring name;\n\t\tstring description;\n\t\tstring baseURI;\n\t\tMember.MintMemberArgs[] members;\n\t\tuint256 executor;\n\t}\n\n\tstruct InitVotePoolArgs {\n\t\tstring  description;\n\t\tuint256 lifespan;\n\t}\n\n\tstruct InitLedgerArgs {\n\t\tstring  description;\n\t}\n\n\tstruct InitAssetArgs {\n\t\tstring  name;\n\t\tstring  description;\n\t\tstring  image;\n\t\tstring  external_link;\n\t\tuint32  seller_fee_basis_points_first;\n\t\tuint32  seller_fee_basis_points_second;\n\t\taddress fee_recipient;\n\t\tstring  base_contract_uri;\n\t\tstring  base_uri;\n\t\tbool    enable_lock; // enable asset lock protect\n\t}\n\n\tEnumerableMap.UintToAddressMap private  _DAOs; // global DAOs list\n\tDAOIMPLs                       public   defaultIMPLs; // default logic impl\n\tuint256[50]                    private  __; // reserved storage space\n\n\tfunction initDAOs() external initializer {\n\t\tinitOwnable();\n\t}\n\n\tfunction setDefaultIMPLs(DAOIMPLs memory IMPLs) public onlyOwner {\n\t\tdefaultIMPLs = IMPLs;\n\t}\n\n\t/**\n\t * @dev deploy() deploy common voting DAO\n\t */\n\tfunction deploy(\n\t\tDAO.InitDAOArgs  calldata    daoArgs,           address                      operator,\n\t\tInitMemberArgs   calldata    memberArgs,        InitVotePoolArgs calldata    votePoolArgs\n\t) public returns (DAO host) {\n\t\tuint256 id = uint256(keccak256(bytes(daoArgs.name)));\n\n\t\trequire(!_DAOs.contains(id), \"#DAOs.deploy DAO with corresponding name already exists\");\n\n\t\thost          = DAO( address(new DAOProxy(defaultIMPLs.DAO)) );\n\t\tMember member = Member( address(new MemberProxy(defaultIMPLs.Member)) );\n\t\tVotePool root = VotePool( address(new VotePoolProxy(defaultIMPLs.VotePool)) );\n\n\t\tmember.initMember(address(host), memberArgs.name, memberArgs.description, memberArgs.baseURI, address(0), memberArgs.members);\n\t\troot.initVotePool(address(host), votePoolArgs.description, votePoolArgs.lifespan);\n\t\thost.initDAO(this, daoArgs, address(root), operator, address(member));\n\n\t\t_DAOs.set(id, address(host));\n\n\t\tif (memberArgs.executor != 0)\n\t\t\tmember.setExecutor(memberArgs.executor);\n\n\t\temit Created(address(host));\n\t}\n\n\t/**\n\t * @dev makeAssetSales() deploy asset sales DAO\n\t */\n\tfunction deployAssetSalesDAO(\n\t\tDAO.InitDAOArgs    calldata    daoArgs,           address                        operator,\n\t\tInitMemberArgs     calldata    memberArgs,        InitVotePoolArgs   calldata    votePoolArgs,\n\t\tInitLedgerArgs     calldata    ledgerArgs,        InitAssetArgs      calldata    assetArgs\n\t) public returns (DAO host) {\n\n\t\thost = deploy(daoArgs, address(this), memberArgs, votePoolArgs);\n\t\t// sales\n\t\tLedger      ledger      = Ledger( payable(address(new LedgerProxy(defaultIMPLs.Ledger))) );\n\t\tAsset       asset       = Asset( address(new AssetProxy(defaultIMPLs.Asset)));\n\t\tAssetShell  assetFirst  = AssetShell( payable(address(new AssetShellProxy(defaultIMPLs.AssetShell))));\n\t\tAssetShell  assetSecond = AssetShell( payable(address(new AssetShellProxy(defaultIMPLs.AssetShell))));\n\n\t\tAsset.InitContractURI memory uri;\n\t\turi.name                    = assetArgs.name;\n\t\turi.description             = assetArgs.description;\n\t\turi.image                   = assetArgs.image;\n\t\turi.external_link           = assetArgs.external_link;\n\t\turi.base_contract_uri       = assetArgs.base_contract_uri;\n\t\turi.base_uri                = assetArgs.base_uri;\n\t\turi.fee_recipient           = assetArgs.fee_recipient;\n\t\t//uri.seller_fee_basis_points = 0;\n\n\t\tledger.initLedger(address(host), ledgerArgs.description, address(0));\n\t\tasset.initAsset(address(host), address(0), uri);\n\n\t\turi.seller_fee_basis_points = assetArgs.seller_fee_basis_points_second;\n\t\tassetSecond.initAssetShell(address(host), address(0), IAssetShell.SaleType.kSecond, uri, assetArgs.enable_lock);\n\n\t\turi.seller_fee_basis_points = assetArgs.seller_fee_basis_points_first;\n\t\tassetFirst.initAssetShell(address(host), address(0), IAssetShell.SaleType.kFirst, uri, assetArgs.enable_lock);\n\n\t\t// set modules\n\t\thost.setModule(Module_LEDGER_ID, address(ledger));\n\t\thost.setModule(Module_ASSET_ID, address(asset));\n\t\thost.setModule(Module_ASSET_First_ID, address(assetFirst));\n\t\thost.setModule(Module_ASSET_Second_ID, address(assetSecond));\n\n\t\thost.setOperator(operator); // change to raw operator\n\t}\n\n\tfunction deployShare(\n\t\tIDAO host, address operator,\n\t\tuint256 totalSupply, uint256 maxSupply,\n\t\tstring calldata name, string calldata symbol, string calldata description) public override returns (address) {\n\t\tShare share = Share( address(new ShareProxy(defaultIMPLs.Share)));\n\t\tshare.initShare(address(host), operator, totalSupply, maxSupply, name, symbol, description);\n\t\treturn address(share);\n\t}\n\n\t/**\n\t * @dev length() Returns DAOs length\n\t */\n\tfunction length() view public returns (uint256) {\n\t\treturn _DAOs.length();\n\t}\n\n\t/**\n\t * @dev contains(address) is contains dao address\n\t */\n\tfunction get(string calldata name) view public returns (DAO) {\n\t\treturn DAO(_DAOs.get(uint256(keccak256(bytes(name)))));\n\t}\n\n\t/**\n\t * @dev at(id) get DAO object from index\n\t * @param index uint256 dao index\n\t * @return Returns the IDAO interface address and key\n\t */\n\tfunction at(uint256 index) view external returns (DAO) {\n\t\taddress addr;\n\t\t(, addr) = _DAOs.at(index);\n\t\treturn DAO(addr);\n\t}\n\n\t/**\n\t * @dev Returns the implementation contract address\n\t */\n\tfunction impl() view external returns (address) {\n\t\treturn _impl;\n\t}\n\n\t/**\n\t * @dev upgrade(address) upgrade contracts\n\t */\n\tfunction upgrade(address impl_) public onlyOwner {\n\t\t_impl = impl_;\n\t}\n\n\t/**\n\t * @dev params unlockAssetForOperator for method unlockAssetForOperator()\n\t */\n\tstruct UnlockAssetForOperator {\n\t\taddress token;  // asset contract address\n\t\tbytes32 r;\n\t\tbytes32 s;\n\t\tuint8   v;\n\t\tAssetShell.UnlockForOperator[] data;\n\t}\n\n\t/**\n\t * @dev unlockAssetForOperator()\n\t */\n\tfunction unlockAssetForOperator(UnlockAssetForOperator[] calldata unlock) public {\n\t\tfor (uint32 i = 0; i < unlock.length; i++) {\n\t\t\tUnlockAssetForOperator calldata it = unlock[i];\n\t\t\tAssetShell(payable(it.token)).unlockForOperator(it.data, it.r, it.s, it.v);\n\t\t}\n\t}\n}",
  "sourcePath": "/Users/louis/Project/hc/NFTSwap/SmartHolder/contracts/DAOs.sol",
  "compiler": {
    "name": "solc",
    "version": "0.8.17+commit.8df45f5f.Emscripten.clang"
  },
  "schemaVersion": "3.4.11",
  "updatedAt": "2023-05-25T08:10:25.494Z",
  "devdoc": {
    "kind": "dev",
    "methods": {
      "at(uint256)": {
        "details": "at(id) get DAO object from index",
        "params": {
          "index": "uint256 dao index"
        },
        "returns": {
          "_0": "Returns the IDAO interface address and key"
        }
      },
      "deploy((string,string,string,string,bytes,address),address,(string,string,string,(address,(uint256,string,string,string,uint32),uint256[])[],uint256),(string,uint256))": {
        "details": "deploy() deploy common voting DAO"
      },
      "deployAssetSalesDAO((string,string,string,string,bytes,address),address,(string,string,string,(address,(uint256,string,string,string,uint32),uint256[])[],uint256),(string,uint256),(string),(string,string,string,string,uint32,uint32,address,string,string,bool))": {
        "details": "makeAssetSales() deploy asset sales DAO"
      },
      "get(string)": {
        "details": "contains(address) is contains dao address"
      },
      "impl()": {
        "details": "Returns the implementation contract address"
      },
      "length()": {
        "details": "length() Returns DAOs length"
      },
      "owner()": {
        "details": "Returns the address of the current owner."
      },
      "renounceOwnership()": {
        "details": "Leaves the contract without owner. It will not be possible to call `onlyOwner` functions anymore. Can only be called by the current owner. NOTE: Renouncing ownership will leave the contract without an owner, thereby removing any functionality that is only available to the owner."
      },
      "transferOwnership(address)": {
        "details": "Transfers ownership of the contract to a new account (`newOwner`). Can only be called by the current owner."
      },
      "unlockAssetForOperator((address,bytes32,bytes32,uint8,(uint256,address,address,address,address,uint256,uint256)[])[])": {
        "details": "unlockAssetForOperator()"
      },
      "upgrade(address)": {
        "details": "upgrade(address) upgrade contracts"
      }
    },
    "title": "DAOs contract global DAOs manage",
    "version": 1
  },
  "userdoc": {
    "kind": "user",
    "methods": {},
    "version": 1
  }
}