{
  "contractName": "Department",
  "abi": [
    {
      "inputs": [
        {
          "internalType": "bytes4",
          "name": "interfaceId",
          "type": "bytes4"
        },
        {
          "internalType": "string",
          "name": "message",
          "type": "string"
        }
      ],
      "name": "checkInterface",
      "outputs": [],
      "stateMutability": "view",
      "type": "function"
    },
    {
      "inputs": [
        {
          "internalType": "bytes4",
          "name": "interfaceId",
          "type": "bytes4"
        }
      ],
      "name": "supportsInterface",
      "outputs": [
        {
          "internalType": "bool",
          "name": "",
          "type": "bool"
        }
      ],
      "stateMutability": "view",
      "type": "function"
    },
    {
      "inputs": [],
      "name": "impl",
      "outputs": [
        {
          "internalType": "address",
          "name": "",
          "type": "address"
        }
      ],
      "stateMutability": "view",
      "type": "function"
    },
    {
      "inputs": [],
      "name": "host",
      "outputs": [
        {
          "internalType": "contract IDAO",
          "name": "",
          "type": "address"
        }
      ],
      "stateMutability": "view",
      "type": "function"
    },
    {
      "inputs": [],
      "name": "operator",
      "outputs": [
        {
          "internalType": "contract IVotePool",
          "name": "",
          "type": "address"
        }
      ],
      "stateMutability": "view",
      "type": "function"
    },
    {
      "inputs": [],
      "name": "description",
      "outputs": [
        {
          "internalType": "string",
          "name": "",
          "type": "string"
        }
      ],
      "stateMutability": "view",
      "type": "function"
    },
    {
      "inputs": [
        {
          "internalType": "address",
          "name": "vote",
          "type": "address"
        }
      ],
      "name": "setOperator",
      "outputs": [],
      "stateMutability": "nonpayable",
      "type": "function"
    },
    {
      "inputs": [
        {
          "internalType": "address",
          "name": "impl",
          "type": "address"
        }
      ],
      "name": "upgrade",
      "outputs": [],
      "stateMutability": "nonpayable",
      "type": "function"
    }
  ],
  "bytecode": "0x608060405234801561001057600080fd5b5061078f806100206000396000f3fe608060405234801561001057600080fd5b50600436106100885760003560e01c80638abf60771161005b5780638abf607714610191578063b3ab15fb14610199578063c64df69d146101bf578063f437bc591461027657610088565b806301ffc9a71461008d5780630900f010146100c8578063570ca735146100f05780637284e41614610114575b600080fd5b6100b4600480360360208110156100a357600080fd5b50356001600160e01b03191661027e565b604080519115158252519081900360200190f35b6100ee600480360360208110156100de57600080fd5b50356001600160a01b031661029d565b005b6100f8610302565b604080516001600160a01b039092168252519081900360200190f35b61011c610312565b6040805160208082528351818301528351919283929083019185019080838360005b8381101561015657818101518382015260200161013e565b50505050905090810190601f1680156101835780820380516001836020036101000a031916815260200191505b509250505060405180910390f35b6100f86103a8565b6100ee600480360360208110156101af57600080fd5b50356001600160a01b03166103b7565b6100ee600480360360408110156101d557600080fd5b6001600160e01b0319823516919081019060408101602082013564010000000081111561020157600080fd5b82018360208201111561021357600080fd5b8035906020019184600183028401116401000000008311171561023557600080fd5b91908080601f016020809104026020016040519081016040528093929190818152602001838380828437600092019190915250929550610406945050505050565b6100f861049e565b6001600160e01b03191660009081526001602052604090205460ff1690565b6102a56104ad565b6102e05760405162461bcd60e51b81526004018080602001828103825260338152602001806106ef6033913960400191505060405180910390fd5b600080546001600160a01b0319166001600160a01b0392909216919091179055565b6002546001600160a01b03165b90565b60048054604080516020601f600260001961010060018816150201909516949094049384018190048102820181019092528281526060939092909183018282801561039e5780601f106103735761010080835404028352916020019161039e565b820191906000526020600020905b81548152906001019060200180831161038157829003601f168201915b5050505050905090565b6000546001600160a01b031690565b6103bf6104ad565b6103fa5760405162461bcd60e51b81526004018080602001828103825260338152602001806106ef6033913960400191505060405180910390fd5b610403816105e7565b50565b61040f8261027e565b81906104995760405162461bcd60e51b81526004018080602001828103825283818151815260200191508051906020019080838360005b8381101561045e578181015183820152602001610446565b50505050905090810190601f16801561048b5780820380516001836020036101000a031916815260200191505b509250505060405180910390fd5b505050565b6003546001600160a01b031690565b60025460009033906001600160a01b031681146105df57600360009054906101000a90046001600160a01b03166001600160a01b031663570ca7356040518163ffffffff1660e01b815260040160206040518083038186803b15801561051257600080fd5b505afa158015610526573d6000803e3d6000fd5b505050506040513d602081101561053c57600080fd5b50516001600160a01b038281169116146105df57600360009054906101000a90046001600160a01b03166001600160a01b031663ebf0c7176040518163ffffffff1660e01b815260040160206040518083038186803b15801561059e57600080fd5b505afa1580156105b2573d6000803e3d6000fd5b505050506040513d60208110156105c857600080fd5b50516001600160a01b03918216911614905061030f565b600191505090565b6001600160a01b0381161561069057610608816001600160a01b03166106b2565b15610690576040805163c64df69d60e01b8152630ddf27bf60e01b60048201818152602483019384526038604484018190526001600160a01b0386169463c64df69d94909160649091019061072282396040019250505060006040518083038186803b15801561067757600080fd5b505afa15801561068b573d6000803e3d6000fd5b505050505b600280546001600160a01b0319166001600160a01b0392909216919091179055565b6000813f7fc5d2460186f7233c927e7db2dcc703c0e500b653ca82273b7bfad8045d85a4708181148015906106e657508115155b94935050505056fe234465706172746d656e74234f6e6c7944414f2063616c6c657220646f6573206e6f742068617665207065726d697373696f6e234465706172746d656e74237365744f70657261746f725f696e7465726e616c206f70657261746f722074797065206e6f74206d61746368a2646970667358221220f4277d0ab5a946de46ac6a57cd5f98cad62c142046ab5e6bbcebc9a1c832aa4f64736f6c634300060c0033",
  "immutableReferences": {},
  "source": "\npragma solidity >=0.6.0 <=0.8.15;\n\nimport \"./Upgrade.sol\";\nimport \"./Interface.sol\";\nimport \"./VotePool.sol\";\nimport \"./ERC165.sol\";\nimport \"./AddressExp.sol\";\n\ncontract Department is Upgrade, IDepartment, ERC165 {\n\tusing Address for address;\n\tusing AddressExp for address;\n\n\t/*\n\t\t* bytes4(keccak256('initDepartment(address,string,address)')) == 0x36c6362d\n\t\t*/\n\tbytes4 internal constant Department_ID = 0x36c6362d;\n\t/*\n\t\t* bytes4(keccak256('initAssetShell(address,string,address,string)')) == 0x711cc62c\n\t\t*/\n\tbytes4 internal constant AssetShell_ID = 0x43234e95;\n\t/*\n\t\t* bytes4(keccak256('initAsset(address,string,address,string)')) == 0xb6f00dcf\n\t\t*/\n\tbytes4 internal constant Asset_ID = 0x68ca456f;\n\t/*\n\t\t* bytes4(keccak256('initDAO(string,address,address,address,address,address,address)')) == 0xc7b55336\n\t\t*/\n\tbytes4 internal constant DAO_ID = 0xc7b55336;\n\t/*\n\t\t* bytes4(keccak256('initLedger(address,string,address)')) == 0xf4c38e51\n\t\t*/\n\tbytes4 internal constant Ledger_ID = 0xf4c38e51;\n\t/*\n\t\t* bytes4(keccak256('initMember(address,string,address)')) == 0x23fc76b9\n\t\t*/\n\tbytes4 internal constant Member_ID = 0x23fc76b9;\n\t/*\n\t\t* bytes4(keccak256('initVotePool(address,string)')) == 0x0ddf27bf\n\t\t*/\n\tbytes4 internal constant VotePool_ID = 0x0ddf27bf;\n\n\tIVotePool internal _operator; // address\n\tIDAO internal _host; // address\n\tstring internal _description;\n\n\t/**\n\t\t* @dev Throws if called by any account other than the owner.\n\t\t*/\n\tmodifier OnlyDAO() {\n\t\trequire(isPermissionDAO(), \"#Department#OnlyDAO caller does not have permission\");\n\t\t_;\n\t}\n\n\tfunction isPermissionDAO() view internal returns (bool) {\n\t\t\t\taddress sender = msg.sender;\n\t\tif (sender != address(_operator)) {\n\t\t\tif (sender != address(_host.operator())) {\n\t\t\t\treturn sender == address(_host.root());\n\t\t\t}\n\t\t}\n\t\treturn true;\n\t}\n\n\tfunction initDepartment(address host, string memory description, address operator) internal {\n\t\tinitERC165();\n\t\t_registerInterface(Department_ID);\n\n\t\tERC165(host).checkInterface(DAO_ID, \"#Department#initDepartment dao host type not match\");\n\n\t\t_host = IDAO(host);\n\t\t_description = description;\n\n\t\tsetOperator_internal(operator);\n\t}\n\n\tfunction impl() view external returns (address) {\n\t\treturn _impl;\n\t}\n\n\tfunction host() view external returns (IDAO) {\n\t\treturn _host;\n\t}\n\n\tfunction operator() view external override returns (IVotePool) {\n\t\treturn _operator;\n\t}\n\n\tfunction description() view external returns (string memory) {\n\t\treturn _description;\n\t}\n\n\tfunction setOperator_internal(address vote) internal {\n\t\tif (vote != address(0)) {\n\t\t\tif (address(vote).isContract()) {\n\t\t\t\tERC165(vote).checkInterface(VotePool_ID, \"#Department#setOperator_internal operator type not match\");\n\t\t\t}\n\t\t}\n\t\t_operator = IVotePool(vote);\n\t}\n\n\tfunction setOperator(address vote) external override OnlyDAO {\n\t\tsetOperator_internal(vote);\n\t}\n\n\tfunction upgrade(address impl) external override OnlyDAO {\n\t\t_impl = impl;\n\t}\n}",
  "sourcePath": "/Users/louis/Project/hc/NFTSwap/SmartHolder/contracts/Department.sol",
  "compiler": {
    "name": "solc",
    "version": "0.6.12+commit.27d51765.Emscripten.clang"
  },
  "schemaVersion": "3.4.8",
  "updatedAt": "2022-09-29T06:33:42.037Z",
  "devdoc": {
    "kind": "dev",
    "methods": {
      "supportsInterface(bytes4)": {
        "details": "See {IERC165-supportsInterface}. Time complexity O(1), guaranteed to always use less than 30 000 gas."
      }
    },
    "version": 1
  },
  "userdoc": {
    "kind": "user",
    "methods": {},
    "version": 1
  }
}