{
  "contractName": "ERC165",
  "abi": [
    {
      "inputs": [
        {
          "internalType": "bytes4",
          "name": "interfaceId",
          "type": "bytes4"
        },
        {
          "internalType": "string",
          "name": "message",
          "type": "string"
        }
      ],
      "name": "checkInterface",
      "outputs": [],
      "stateMutability": "view",
      "type": "function"
    },
    {
      "inputs": [
        {
          "internalType": "bytes4",
          "name": "interfaceId",
          "type": "bytes4"
        }
      ],
      "name": "supportsInterface",
      "outputs": [
        {
          "internalType": "bool",
          "name": "",
          "type": "bool"
        }
      ],
      "stateMutability": "view",
      "type": "function"
    }
  ],
  "bytecode": "0x608060405234801561001057600080fd5b50610276806100206000396000f3fe608060405234801561001057600080fd5b50600436106100365760003560e01c806301ffc9a71461003b578063c64df69d1461007c575b600080fd5b6100686100493660046100f8565b6001600160e01b03191660009081526001602052604090205460ff1690565b604051901515815260200160405180910390f35b61008f61008a366004610130565b610091565b005b6001600160e01b0319821660009081526001602052604090205460ff1681906100d65760405162461bcd60e51b81526004016100cd91906101f2565b60405180910390fd5b505050565b80356001600160e01b0319811681146100f357600080fd5b919050565b60006020828403121561010a57600080fd5b610113826100db565b9392505050565b634e487b7160e01b600052604160045260246000fd5b6000806040838503121561014357600080fd5b61014c836100db565b9150602083013567ffffffffffffffff8082111561016957600080fd5b818501915085601f83011261017d57600080fd5b81358181111561018f5761018f61011a565b604051601f8201601f19908116603f011681019083821181831017156101b7576101b761011a565b816040528281528860208487010111156101d057600080fd5b8260208601602083013760006020848301015280955050505050509250929050565b600060208083528351808285015260005b8181101561021f57858101830151858201604001528201610203565b506000604082860101526040601f19601f830116850101925050509291505056fea264697066735822122000b1e0e0f4c501d5137f8b79bd55ca29e3b916734583e8fbb1f3af03910ab87c64736f6c63430008110033",
  "immutableReferences": {},
  "source": "//SPDX-License-Identifier: MIT\npragma solidity 0.8.17;\n\nimport './Initializable.sol';\nimport './Interface.sol';\n\n/**\n * @dev Implementation of the {IERC165} interface.\n *\n * Contracts may inherit from this and call {_registerInterface} to declare\n * their support of an interface.\n */\ncontract ERC165 is Initializable, IERC165, IERC165_1 {\n\t/*\n\t * bytes4(keccak256('supportsInterface(bytes4)')) == 0x01ffc9a7\n\t */\n\tbytes4 private constant _INTERFACE_ID_ERC165 = 0x01ffc9a7;\n\n\t/**\n\t * @dev Mapping of interface ids to whether or not it's supported.\n\t */\n\tmapping(bytes4 => bool) private _supportedInterfaces;\n\n\tfunction initERC165() internal initializer {\n\t\t// Derived contracts need only register support for their own interfaces,\n\t\t// we register support for ERC165 itself here\n\t\t_registerInterface(_INTERFACE_ID_ERC165);\n\t}\n\n\tfunction checkInterface(bytes4 interfaceId, string memory message) view external override {\n\t\trequire(supportsInterface(interfaceId), message);\n\t}\n\n\t/**\n\t\t* @dev See {IERC165-supportsInterface}.\n\t\t*\n\t\t* Time complexity O(1), guaranteed to always use less than 30 000 gas.\n\t\t*/\n\tfunction supportsInterface(bytes4 interfaceId) public view override returns (bool) {\n\t\treturn _supportedInterfaces[interfaceId];\n\t}\n\n\t/**\n\t * @dev Registers the contract as an implementer of the interface defined by\n\t * `interfaceId`. Support of the actual ERC165 interface is automatic and\n\t * registering its interface id is not required.\n\t *\n\t * See {IERC165-supportsInterface}.\n\t *\n\t * Requirements:\n\t *\n\t * - `interfaceId` cannot be the ERC165 invalid interface (`0xffffffff`).\n\t */\n\tfunction _registerInterface(bytes4 interfaceId) internal virtual {\n\t\trequire(interfaceId != 0xffffffff, \"ERC165: invalid interface id\");\n\t\t_supportedInterfaces[interfaceId] = true;\n\t}\n\n\t//uint256[49] private __gap;\n}\n",
  "sourcePath": "/Users/louis/Project/hc/NFTSwap/SmartHolder/contracts/libs/ERC165.sol",
  "compiler": {
    "name": "solc",
    "version": "0.8.17+commit.8df45f5f.Emscripten.clang"
  },
  "schemaVersion": "3.4.11",
  "updatedAt": "2023-01-06T04:38:52.279Z",
  "devdoc": {
    "details": "Implementation of the {IERC165} interface. Contracts may inherit from this and call {_registerInterface} to declare their support of an interface.",
    "kind": "dev",
    "methods": {
      "supportsInterface(bytes4)": {
        "details": "See {IERC165-supportsInterface}. Time complexity O(1), guaranteed to always use less than 30 000 gas."
      }
    },
    "stateVariables": {
      "_supportedInterfaces": {
        "details": "Mapping of interface ids to whether or not it's supported."
      }
    },
    "version": 1
  },
  "userdoc": {
    "kind": "user",
    "methods": {},
    "version": 1
  }
}