{
  "contractName": "ERC165",
  "abi": [
    {
      "inputs": [
        {
          "internalType": "bytes4",
          "name": "interfaceId",
          "type": "bytes4"
        }
      ],
      "name": "CheckInterfaceNoMatch",
      "type": "error"
    },
    {
      "anonymous": false,
      "inputs": [
        {
          "indexed": false,
          "internalType": "uint8",
          "name": "version",
          "type": "uint8"
        }
      ],
      "name": "Initialized",
      "type": "event"
    },
    {
      "inputs": [
        {
          "internalType": "bytes4",
          "name": "interfaceId",
          "type": "bytes4"
        }
      ],
      "name": "checkInterface",
      "outputs": [],
      "stateMutability": "view",
      "type": "function"
    },
    {
      "inputs": [
        {
          "internalType": "bytes4",
          "name": "interfaceId",
          "type": "bytes4"
        }
      ],
      "name": "supportsInterface",
      "outputs": [
        {
          "internalType": "bool",
          "name": "",
          "type": "bool"
        }
      ],
      "stateMutability": "view",
      "type": "function"
    }
  ],
  "bytecode": "0x608060405234801561001057600080fd5b50610145806100206000396000f3fe608060405234801561001057600080fd5b50600436106100365760003560e01c806301ffc9a71461003b5780634c6e425b1461007c575b600080fd5b6100686100493660046100de565b6001600160e01b03191660009081526001602052604090205460ff1690565b604051901515815260200160405180910390f35b61008f61008a3660046100de565b610091565b005b6001600160e01b0319811660009081526001602052604090205460ff166100db57604051632aae78ef60e01b81526001600160e01b03198216600482015260240160405180910390fd5b50565b6000602082840312156100f057600080fd5b81356001600160e01b03198116811461010857600080fd5b939250505056fea2646970667358221220fca7ff7982f53933e76068b5f37e185da73b6618c8e947a369d5471b26bcce9664736f6c63430008110033",
  "immutableReferences": {},
  "source": "//SPDX-License-Identifier: MIT\npragma solidity ~0.8.17;\n\nimport './Errors.sol';\nimport './Initializable.sol';\nimport './Interface.sol';\n\n/**\n * @dev Implementation of the {IERC165} interface.\n *\n * Contracts may inherit from this and call {_registerInterface} to declare\n * their support of an interface.\n */\ncontract ERC165 is Initializable, IERC165 {\n\t/*\n\t * bytes4(keccak256('supportsInterface(bytes4)')) == 0x01ffc9a7\n\t */\n\tbytes4 private constant _INTERFACE_ID_ERC165 = 0x01ffc9a7;\n\n\t/**\n\t * @dev Mapping of interface ids to whether or not it's supported.\n\t */\n\tmapping(bytes4 => bool) private _supportedInterfaces;\n\n\tfunction initERC165() internal initializer {\n\t\t// Derived contracts need only register support for their own interfaces,\n\t\t// we register support for ERC165 itself here\n\t\t_registerInterface(_INTERFACE_ID_ERC165);\n\t}\n\n\tfunction checkInterface(bytes4 interfaceId) view external {\n\t\tif (!supportsInterface(interfaceId))\n\t\t\trevert CheckInterfaceNoMatch(interfaceId);\n\t}\n\n\t/**\n\t\t* @dev See {IERC165-supportsInterface}.\n\t\t*\n\t\t* Time complexity O(1), guaranteed to always use less than 30 000 gas.\n\t\t*/\n\tfunction supportsInterface(bytes4 interfaceId) public view virtual override returns (bool) {\n\t\treturn _supportedInterfaces[interfaceId];\n\t}\n\n\t/**\n\t * @dev Registers the contract as an implementer of the interface defined by\n\t * `interfaceId`. Support of the actual ERC165 interface is automatic and\n\t * registering its interface id is not required.\n\t *\n\t * See {IERC165-supportsInterface}.\n\t *\n\t * Requirements:\n\t *\n\t * - `interfaceId` cannot be the ERC165 invalid interface (`0xffffffff`).\n\t */\n\tfunction _registerInterface(bytes4 interfaceId) internal virtual {\n\t\trequire(interfaceId != 0xffffffff, \"ERC165: invalid interface id\");\n\t\t_supportedInterfaces[interfaceId] = true;\n\t}\n\n\t//uint256[49] private __gap;\n}\n",
  "sourcePath": "/Users/louis/Project/hc/NFTSwap/SmartHolder/contracts/libs/ERC165.sol",
  "compiler": {
    "name": "solc",
    "version": "0.8.17+commit.8df45f5f.Emscripten.clang"
  },
  "schemaVersion": "3.4.11",
  "updatedAt": "2023-05-17T05:33:38.030Z",
  "devdoc": {
    "details": "Implementation of the {IERC165} interface. Contracts may inherit from this and call {_registerInterface} to declare their support of an interface.",
    "kind": "dev",
    "methods": {
      "supportsInterface(bytes4)": {
        "details": "See {IERC165-supportsInterface}. Time complexity O(1), guaranteed to always use less than 30 000 gas."
      }
    },
    "stateVariables": {
      "_supportedInterfaces": {
        "details": "Mapping of interface ids to whether or not it's supported."
      }
    },
    "version": 1
  },
  "userdoc": {
    "kind": "user",
    "methods": {},
    "version": 1
  }
}