{
  "contractName": "ERC20",
  "abi": [
    {
      "anonymous": false,
      "inputs": [
        {
          "indexed": true,
          "internalType": "address",
          "name": "owner",
          "type": "address"
        },
        {
          "indexed": true,
          "internalType": "address",
          "name": "spender",
          "type": "address"
        },
        {
          "indexed": false,
          "internalType": "uint256",
          "name": "value",
          "type": "uint256"
        }
      ],
      "name": "Approval",
      "type": "event"
    },
    {
      "anonymous": false,
      "inputs": [
        {
          "indexed": true,
          "internalType": "address",
          "name": "from",
          "type": "address"
        },
        {
          "indexed": true,
          "internalType": "address",
          "name": "to",
          "type": "address"
        },
        {
          "indexed": false,
          "internalType": "uint256",
          "name": "value",
          "type": "uint256"
        }
      ],
      "name": "Transfer",
      "type": "event"
    },
    {
      "inputs": [],
      "name": "name",
      "outputs": [
        {
          "internalType": "string",
          "name": "",
          "type": "string"
        }
      ],
      "stateMutability": "view",
      "type": "function"
    },
    {
      "inputs": [],
      "name": "symbol",
      "outputs": [
        {
          "internalType": "string",
          "name": "",
          "type": "string"
        }
      ],
      "stateMutability": "view",
      "type": "function"
    },
    {
      "inputs": [],
      "name": "decimals",
      "outputs": [
        {
          "internalType": "uint8",
          "name": "",
          "type": "uint8"
        }
      ],
      "stateMutability": "view",
      "type": "function"
    },
    {
      "inputs": [],
      "name": "totalSupply",
      "outputs": [
        {
          "internalType": "uint256",
          "name": "",
          "type": "uint256"
        }
      ],
      "stateMutability": "view",
      "type": "function"
    },
    {
      "inputs": [
        {
          "internalType": "address",
          "name": "account",
          "type": "address"
        }
      ],
      "name": "balanceOf",
      "outputs": [
        {
          "internalType": "uint256",
          "name": "",
          "type": "uint256"
        }
      ],
      "stateMutability": "view",
      "type": "function"
    },
    {
      "inputs": [
        {
          "internalType": "uint256",
          "name": "index",
          "type": "uint256"
        }
      ],
      "name": "indexAt",
      "outputs": [
        {
          "internalType": "address",
          "name": "",
          "type": "address"
        },
        {
          "internalType": "uint256",
          "name": "",
          "type": "uint256"
        }
      ],
      "stateMutability": "view",
      "type": "function"
    },
    {
      "inputs": [],
      "name": "totalOwners",
      "outputs": [
        {
          "internalType": "uint256",
          "name": "",
          "type": "uint256"
        }
      ],
      "stateMutability": "view",
      "type": "function"
    },
    {
      "inputs": [
        {
          "internalType": "address",
          "name": "to",
          "type": "address"
        },
        {
          "internalType": "uint256",
          "name": "amount",
          "type": "uint256"
        }
      ],
      "name": "transfer",
      "outputs": [
        {
          "internalType": "bool",
          "name": "",
          "type": "bool"
        }
      ],
      "stateMutability": "nonpayable",
      "type": "function"
    },
    {
      "inputs": [
        {
          "internalType": "address",
          "name": "owner",
          "type": "address"
        },
        {
          "internalType": "address",
          "name": "spender",
          "type": "address"
        }
      ],
      "name": "allowance",
      "outputs": [
        {
          "internalType": "uint256",
          "name": "",
          "type": "uint256"
        }
      ],
      "stateMutability": "view",
      "type": "function"
    },
    {
      "inputs": [
        {
          "internalType": "address",
          "name": "spender",
          "type": "address"
        },
        {
          "internalType": "uint256",
          "name": "amount",
          "type": "uint256"
        }
      ],
      "name": "approve",
      "outputs": [
        {
          "internalType": "bool",
          "name": "",
          "type": "bool"
        }
      ],
      "stateMutability": "nonpayable",
      "type": "function"
    },
    {
      "inputs": [
        {
          "internalType": "address",
          "name": "from",
          "type": "address"
        },
        {
          "internalType": "address",
          "name": "to",
          "type": "address"
        },
        {
          "internalType": "uint256",
          "name": "amount",
          "type": "uint256"
        }
      ],
      "name": "transferFrom",
      "outputs": [
        {
          "internalType": "bool",
          "name": "",
          "type": "bool"
        }
      ],
      "stateMutability": "nonpayable",
      "type": "function"
    },
    {
      "inputs": [
        {
          "internalType": "address",
          "name": "spender",
          "type": "address"
        },
        {
          "internalType": "uint256",
          "name": "addedValue",
          "type": "uint256"
        }
      ],
      "name": "increaseAllowance",
      "outputs": [
        {
          "internalType": "bool",
          "name": "",
          "type": "bool"
        }
      ],
      "stateMutability": "nonpayable",
      "type": "function"
    },
    {
      "inputs": [
        {
          "internalType": "address",
          "name": "spender",
          "type": "address"
        },
        {
          "internalType": "uint256",
          "name": "subtractedValue",
          "type": "uint256"
        }
      ],
      "name": "decreaseAllowance",
      "outputs": [
        {
          "internalType": "bool",
          "name": "",
          "type": "bool"
        }
      ],
      "stateMutability": "nonpayable",
      "type": "function"
    }
  ],
  "bytecode": "0x608060405234801561001057600080fd5b50610a6d806100206000396000f3fe608060405234801561001057600080fd5b50600436106100cf5760003560e01c8063395093511161008c578063a42bbccd11610066578063a42bbccd1461017f578063a457c2d7146101b1578063a9059cbb146101c4578063dd62ed3e146101d757600080fd5b8063395093511461015157806370a082311461016457806395d89b411461017757600080fd5b806306fdde03146100d4578063095ea7b3146100f257806318160ddd1461011557806323b872dd14610127578063243669ad1461013a578063313ce56714610142575b600080fd5b6100dc6101ea565b6040516100e9919061088f565b60405180910390f35b6101056101003660046108f9565b61027c565b60405190151581526020016100e9565b6004545b6040519081526020016100e9565b610105610135366004610923565b610296565b6101196102ba565b604051600581526020016100e9565b61010561015f3660046108f9565b6102cb565b61011961017236600461095f565b6102ed565b6100dc61030b565b61019261018d36600461097a565b61031a565b604080516001600160a01b0390931683526020830191909152016100e9565b6101056101bf3660046108f9565b610330565b6101056101d23660046108f9565b6103b0565b6101196101e5366004610993565b6103be565b6060600580546101f9906109c6565b80601f0160208091040260200160405190810160405280929190818152602001828054610225906109c6565b80156102725780601f1061024757610100808354040283529160200191610272565b820191906000526020600020905b81548152906001019060200180831161025557829003601f168201915b5050505050905090565b60003361028a8185856103e9565b60019150505b92915050565b6000336102a485828561050d565b6102af858585610587565b506001949350505050565b60006102c66000610755565b905090565b60003361028a8185856102de83836103be565b6102e89190610a00565b6103e9565b6001600160a01b038116600090815260026020526040812054610290565b6060600680546101f9906109c6565b6000806103278184610760565b91509150915091565b6000338161033e82866103be565b9050838110156103a35760405162461bcd60e51b815260206004820152602560248201527f45524332303a2064656372656173656420616c6c6f77616e63652062656c6f77604482015264207a65726f60d81b60648201526084015b60405180910390fd5b6102af82868684036103e9565b60003361028a818585610587565b6001600160a01b03918216600090815260036020908152604080832093909416825291909152205490565b6001600160a01b03831661044b5760405162461bcd60e51b8152602060048201526024808201527f45524332303a20617070726f76652066726f6d20746865207a65726f206164646044820152637265737360e01b606482015260840161039a565b6001600160a01b0382166104ac5760405162461bcd60e51b815260206004820152602260248201527f45524332303a20617070726f766520746f20746865207a65726f206164647265604482015261737360f01b606482015260840161039a565b6001600160a01b0383811660008181526003602090815260408083209487168084529482529182902085905590518481527f8c5be1e5ebec7d5bd14f71427d1e84f3dd0314c0f7b2291e5b200ac8c7c3b925910160405180910390a3505050565b600061051984846103be565b9050600019811461058157818110156105745760405162461bcd60e51b815260206004820152601d60248201527f45524332303a20696e73756666696369656e7420616c6c6f77616e6365000000604482015260640161039a565b61058184848484036103e9565b50505050565b6001600160a01b0383166105eb5760405162461bcd60e51b815260206004820152602560248201527f45524332303a207472616e736665722066726f6d20746865207a65726f206164604482015264647265737360d81b606482015260840161039a565b6001600160a01b03821661064d5760405162461bcd60e51b815260206004820152602360248201527f45524332303a207472616e7366657220746f20746865207a65726f206164647260448201526265737360e81b606482015260840161039a565b6001600160a01b038316600090815260026020526040902054818110156106c55760405162461bcd60e51b815260206004820152602660248201527f45524332303a207472616e7366657220616d6f756e7420657863656564732062604482015265616c616e636560d01b606482015260840161039a565b6106d360008584840361077c565b5061070283836106f8866001600160a01b031660009081526002602052604090205490565b600092910161077c565b50826001600160a01b0316846001600160a01b03167fddf252ad1be2c89b69c2b068fc378daa952ba7f163c4a11628f55a4df523b3ef8460405161074891815260200190565b60405180910390a3610581565b60006102908261079a565b600080808061076f86866107a5565b9097909650945050505050565b6000610792846001600160a01b038516846107d0565b949350505050565b6000610290826107ed565b600080806107b385856107f7565b600081815260029690960160205260409095205494959350505050565b60008281526002840160205260408120829055610792848461080a565b6000610290825490565b60006108038383610816565b9392505050565b60006108038383610840565b600082600001828154811061082d5761082d610a21565b9060005260206000200154905092915050565b600081815260018301602052604081205461088757508154600181810184556000848152602080822090930184905584548482528286019093526040902091909155610290565b506000610290565b600060208083528351808285015260005b818110156108bc578581018301518582016040015282016108a0565b506000604082860101526040601f19601f8301168501019250505092915050565b80356001600160a01b03811681146108f457600080fd5b919050565b6000806040838503121561090c57600080fd5b610915836108dd565b946020939093013593505050565b60008060006060848603121561093857600080fd5b610941846108dd565b925061094f602085016108dd565b9150604084013590509250925092565b60006020828403121561097157600080fd5b610803826108dd565b60006020828403121561098c57600080fd5b5035919050565b600080604083850312156109a657600080fd5b6109af836108dd565b91506109bd602084016108dd565b90509250929050565b600181811c908216806109da57607f821691505b6020821081036109fa57634e487b7160e01b600052602260045260246000fd5b50919050565b8082018082111561029057634e487b7160e01b600052601160045260246000fd5b634e487b7160e01b600052603260045260246000fdfea26469706673582212205b3c57564c29ee4eb2f7c7ea92c0f09feac48ec902cf829c303d860d8bede59164736f6c63430008110033",
  "immutableReferences": {},
  "source": "// SPDX-License-Identifier: MIT\n// OpenZeppelin Contracts (last updated v4.8.0) (token/ERC20/ERC20.sol)\n\npragma solidity ~0.8.17;\n\nimport './Context.sol';\nimport './Interface.sol';\n\n/**\n * @dev Implementation of the {IERC20} interface.\n *\n * This implementation is agnostic to the way tokens are created. This means\n * that a supply mechanism has to be added in a derived contract using {_mint}.\n * For a generic mechanism see {ERC20PresetMinterPauser}.\n *\n * TIP: For a detailed writeup see our guide\n * https://forum.openzeppelin.com/t/how-to-implement-erc20-supply-mechanisms/226[How\n * to implement supply mechanisms].\n *\n * We have followed general OpenZeppelin Contracts guidelines: functions revert\n * instead returning `false` on failure. This behavior is nonetheless\n * conventional and does not conflict with the expectations of ERC20\n * applications.\n *\n * Additionally, an {Approval} event is emitted on calls to {transferFrom}.\n * This allows applications to reconstruct the allowance for all accounts just\n * by listening to said events. Other implementations of the EIP may not emit\n * these events, as it isn't required by the specification.\n *\n * Finally, the non-standard {decreaseAllowance} and {increaseAllowance}\n * functions have been added to mitigate the well-known issues around setting\n * allowances. See {IERC20-approve}.\n */\ncontract ERC20 is Context, IERC20_1 {\n\tusing EnumerableMap for EnumerableMap.AddressToUintMap;\n\n\t// mapping(address => uint256) private _balances;\n\tEnumerableMap.AddressToUintMap private _balances;\n\n\tmapping(address => mapping(address => uint256)) private _allowances;\n\n\tuint256 private _totalSupply;\n\n\tstring private _name;\n\tstring private _symbol;\n\n\t/**\n\t * @dev Sets the values for {name} and {symbol}.\n\t *\n\t * The default value of {decimals} is 18. To select a different value for\n\t * {decimals} you should overload it.\n\t *\n\t * All two of these values are immutable: they can only be set once during\n\t * init.\n\t */\n\tfunction initERC20(string memory name_, string memory symbol_) internal {\n\t\t_name = name_;\n\t\t_symbol = symbol_;\n\t}\n\n\t/**\n\t * @dev Returns the name of the token.\n\t */\n\tfunction name() public view virtual override returns (string memory) {\n\t\treturn _name;\n\t}\n\n\t/**\n\t * @dev Returns the symbol of the token, usually a shorter version of the\n\t * name.\n\t */\n\tfunction symbol() public view virtual override returns (string memory) {\n\t\treturn _symbol;\n\t}\n\n\t/**\n\t * @dev Returns the number of decimals used to get its user representation.\n\t * For example, if `decimals` equals `2`, a balance of `505` tokens should\n\t * be displayed to a user as `5.05` (`505 / 10 ** 2`).\n\t *\n\t * Tokens usually opt for a value of 5, imitating the relationship between\n\t * Ether and Wei. This is the value {ERC20} uses, unless this function is\n\t * overridden;\n\t *\n\t * NOTE: This information is only used for _display_ purposes: it in\n\t * no way affects any of the arithmetic of the contract, including\n\t * {IERC20-balanceOf} and {IERC20-transfer}.\n\t */\n\tfunction decimals() public view virtual override returns (uint8) {\n\t\treturn 5;\n\t}\n\n\t/**\n\t * @dev See {IERC20-totalSupply}.\n\t */\n\tfunction totalSupply() public view virtual override returns (uint256) {\n\t\treturn _totalSupply;\n\t}\n\n\tfunction get(address account) private view returns (uint256) {\n\t\treturn uint256(_balances._inner._values[bytes32(uint256(uint160(account)))]);\n\t}\n\n\t/**\n\t * @dev See {IERC20-balanceOf}.\n\t */\n\tfunction balanceOf(address account) public view virtual override returns (uint256) {\n\t\t//return _balances[account];\n\t\treturn get(account);\n\t}\n\n\t/**\n\t * @dev indexAt(index) get account and balance by index \n\t */\n\tfunction indexAt(uint256 index) public view virtual override returns (address, uint256) {\n\t\treturn _balances.at(index);\n\t}\n\n\t/**\n\t * @dev totalOwners() account totalOwners\n\t */\n\tfunction totalOwners() public view virtual override returns (uint256) {\n\t\treturn _balances.length();\n\t}\n\n\t/**\n\t * @dev See {IERC20-transfer}.\n\t *\n\t * Requirements:\n\t *\n\t * - `to` cannot be the zero address.\n\t * - the caller must have a balance of at least `amount`.\n\t */\n\tfunction transfer(address to, uint256 amount) public virtual override returns (bool) {\n\t\taddress owner = _msgSender();\n\t\t_transfer(owner, to, amount);\n\t\treturn true;\n\t}\n\n\t/**\n\t * @dev See {IERC20-allowance}.\n\t */\n\tfunction allowance(address owner, address spender) public view virtual override returns (uint256) {\n\t\treturn _allowances[owner][spender];\n\t}\n\n\t/**\n\t * @dev See {IERC20-approve}.\n\t *\n\t * NOTE: If `amount` is the maximum `uint256`, the allowance is not updated on\n\t * `transferFrom`. This is semantically equivalent to an infinite approval.\n\t *\n\t * Requirements:\n\t *\n\t * - `spender` cannot be the zero address.\n\t */\n\tfunction approve(address spender, uint256 amount) public virtual override returns (bool) {\n\t\taddress owner = _msgSender();\n\t\t_approve(owner, spender, amount);\n\t\treturn true;\n\t}\n\n\t/**\n\t * @dev See {IERC20-transferFrom}.\n\t *\n\t * Emits an {Approval} event indicating the updated allowance. This is not\n\t * required by the EIP. See the note at the beginning of {ERC20}.\n\t *\n\t * NOTE: Does not update the allowance if the current allowance\n\t * is the maximum `uint256`.\n\t *\n\t * Requirements:\n\t *\n\t * - `from` and `to` cannot be the zero address.\n\t * - `from` must have a balance of at least `amount`.\n\t * - the caller must have allowance for ``from``'s tokens of at least\n\t * `amount`.\n\t */\n\tfunction transferFrom(\n\t\taddress from,\n\t\taddress to,\n\t\tuint256 amount\n\t) public virtual override returns (bool) {\n\t\taddress spender = _msgSender();\n\t\t_spendAllowance(from, spender, amount);\n\t\t_transfer(from, to, amount);\n\t\treturn true;\n\t}\n\n\t/**\n\t * @dev Atomically increases the allowance granted to `spender` by the caller.\n\t *\n\t * This is an alternative to {approve} that can be used as a mitigation for\n\t * problems described in {IERC20-approve}.\n\t *\n\t * Emits an {Approval} event indicating the updated allowance.\n\t *\n\t * Requirements:\n\t *\n\t * - `spender` cannot be the zero address.\n\t */\n\tfunction increaseAllowance(address spender, uint256 addedValue) public virtual returns (bool) {\n\t\taddress owner = _msgSender();\n\t\t_approve(owner, spender, allowance(owner, spender) + addedValue);\n\t\treturn true;\n\t}\n\n\t/**\n\t * @dev Atomically decreases the allowance granted to `spender` by the caller.\n\t *\n\t * This is an alternative to {approve} that can be used as a mitigation for\n\t * problems described in {IERC20-approve}.\n\t *\n\t * Emits an {Approval} event indicating the updated allowance.\n\t *\n\t * Requirements:\n\t *\n\t * - `spender` cannot be the zero address.\n\t * - `spender` must have allowance for the caller of at least\n\t * `subtractedValue`.\n\t */\n\tfunction decreaseAllowance(address spender, uint256 subtractedValue) public virtual returns (bool) {\n\t\taddress owner = _msgSender();\n\t\tuint256 currentAllowance = allowance(owner, spender);\n\t\trequire(currentAllowance >= subtractedValue, \"ERC20: decreased allowance below zero\");\n\t\tunchecked {\n\t\t\t_approve(owner, spender, currentAllowance - subtractedValue);\n\t\t}\n\n\t\treturn true;\n\t}\n\n\t/**\n\t * @dev Moves `amount` of tokens from `from` to `to`.\n\t *\n\t * This internal function is equivalent to {transfer}, and can be used to\n\t * e.g. implement automatic token fees, slashing mechanisms, etc.\n\t *\n\t * Emits a {Transfer} event.\n\t *\n\t * Requirements:\n\t *\n\t * - `from` cannot be the zero address.\n\t * - `to` cannot be the zero address.\n\t * - `from` must have a balance of at least `amount`.\n\t */\n\tfunction _transfer(\n\t\taddress from,\n\t\taddress to,\n\t\tuint256 amount\n\t) internal virtual {\n\t\trequire(from != address(0), \"ERC20: transfer from the zero address\");\n\t\trequire(to != address(0), \"ERC20: transfer to the zero address\");\n\n\t\t_beforeTokenTransfer(from, to, amount);\n\n\t\t//uint256 fromBalance = _balances[from];\n\t\tuint256 fromBalance = get(from);\n\t\trequire(fromBalance >= amount, \"ERC20: transfer amount exceeds balance\");\n\t\tunchecked {\n\t\t\t//_balances[from] = fromBalance - amount;\n\t\t\t_balances.set(from, fromBalance - amount);\n\t\t\t// Overflow not possible: the sum of all balances is capped by totalSupply, and the sum is preserved by\n\t\t\t// decrementing then incrementing.\n\t\t\t//_balances[to] += amount;\n\t\t\t_balances.set(to, get(to) + amount);\n\t\t}\n\n\t\temit Transfer(from, to, amount);\n\n\t\t_afterTokenTransfer(from, to, amount);\n\t}\n\n\t/** @dev Creates `amount` tokens and assigns them to `account`, increasing\n\t * the total supply.\n\t *\n\t * Emits a {Transfer} event with `from` set to the zero address.\n\t *\n\t * Requirements:\n\t *\n\t * - `account` cannot be the zero address.\n\t */\n\tfunction _mint(address account, uint256 amount) internal virtual {\n\t\trequire(account != address(0), \"ERC20: mint to the zero address\");\n\n\t\t_beforeTokenTransfer(address(0), account, amount);\n\n\t\t_totalSupply += amount;\n\t\tunchecked {\n\t\t\t// Overflow not possible: balance + amount is at most totalSupply + amount, which is checked above.\n\t\t\t//_balances[account] += amount;\n\t\t\t_balances.set(account, get(account) + amount);\n\t\t}\n\t\temit Transfer(address(0), account, amount);\n\n\t\t_afterTokenTransfer(address(0), account, amount);\n\t}\n\n\t/**\n\t * @dev Destroys `amount` tokens from `account`, reducing the\n\t * total supply.\n\t *\n\t * Emits a {Transfer} event with `to` set to the zero address.\n\t *\n\t * Requirements:\n\t *\n\t * - `account` cannot be the zero address.\n\t * - `account` must have at least `amount` tokens.\n\t */\n\tfunction _burn(address account, uint256 amount) internal virtual {\n\t\trequire(account != address(0), \"ERC20: burn from the zero address\");\n\n\t\t_beforeTokenTransfer(account, address(0), amount);\n\n\t\t// uint256 accountBalance = _balances[account];\n\t\tuint256 accountBalance = get(account);\n\t\trequire(accountBalance >= amount, \"ERC20: burn amount exceeds balance\");\n\t\tunchecked {\n\t\t\t//_balances[account] = accountBalance - amount;\n\t\t\t_balances.set(account, accountBalance - amount);\n\t\t\t// Overflow not possible: amount <= accountBalance <= totalSupply.\n\t\t\t_totalSupply -= amount;\n\t\t}\n\n\t\temit Transfer(account, address(0), amount);\n\n\t\t_afterTokenTransfer(account, address(0), amount);\n\t}\n\n\t/**\n\t * @dev Sets `amount` as the allowance of `spender` over the `owner` s tokens.\n\t *\n\t * This internal function is equivalent to `approve`, and can be used to\n\t * e.g. set automatic allowances for certain subsystems, etc.\n\t *\n\t * Emits an {Approval} event.\n\t *\n\t * Requirements:\n\t *\n\t * - `owner` cannot be the zero address.\n\t * - `spender` cannot be the zero address.\n\t */\n\tfunction _approve(\n\t\taddress owner,\n\t\taddress spender,\n\t\tuint256 amount\n\t) internal virtual {\n\t\trequire(owner != address(0), \"ERC20: approve from the zero address\");\n\t\trequire(spender != address(0), \"ERC20: approve to the zero address\");\n\n\t\t_allowances[owner][spender] = amount;\n\t\temit Approval(owner, spender, amount);\n\t}\n\n\t/**\n\t * @dev Updates `owner` s allowance for `spender` based on spent `amount`.\n\t *\n\t * Does not update the allowance amount in case of infinite allowance.\n\t * Revert if not enough allowance is available.\n\t *\n\t * Might emit an {Approval} event.\n\t */\n\tfunction _spendAllowance(\n\t\taddress owner,\n\t\taddress spender,\n\t\tuint256 amount\n\t) internal virtual {\n\t\tuint256 currentAllowance = allowance(owner, spender);\n\t\tif (currentAllowance != type(uint256).max) {\n\t\t\trequire(currentAllowance >= amount, \"ERC20: insufficient allowance\");\n\t\t\tunchecked {\n\t\t\t\t_approve(owner, spender, currentAllowance - amount);\n\t\t\t}\n\t\t}\n\t}\n\n\t/**\n\t * @dev Hook that is called before any transfer of tokens. This includes\n\t * minting and burning.\n\t *\n\t * Calling conditions:\n\t *\n\t * - when `from` and `to` are both non-zero, `amount` of ``from``'s tokens\n\t * will be transferred to `to`.\n\t * - when `from` is zero, `amount` tokens will be minted for `to`.\n\t * - when `to` is zero, `amount` of ``from``'s tokens will be burned.\n\t * - `from` and `to` are never both zero.\n\t *\n\t * To learn more about hooks, head to xref:ROOT:extending-contracts.adoc#using-hooks[Using Hooks].\n\t */\n\tfunction _beforeTokenTransfer(\n\t\taddress from,\n\t\taddress to,\n\t\tuint256 amount\n\t) internal virtual {}\n\n\t/**\n\t * @dev Hook that is called after any transfer of tokens. This includes\n\t * minting and burning.\n\t *\n\t * Calling conditions:\n\t *\n\t * - when `from` and `to` are both non-zero, `amount` of ``from``'s tokens\n\t * has been transferred to `to`.\n\t * - when `from` is zero, `amount` tokens have been minted for `to`.\n\t * - when `to` is zero, `amount` of ``from``'s tokens have been burned.\n\t * - `from` and `to` are never both zero.\n\t *\n\t * To learn more about hooks, head to xref:ROOT:extending-contracts.adoc#using-hooks[Using Hooks].\n\t */\n\tfunction _afterTokenTransfer(\n\t\taddress from,\n\t\taddress to,\n\t\tuint256 amount\n\t) internal virtual {}\n}\n",
  "sourcePath": "/Users/louis/Project/hc/NFTSwap/SmartHolder/contracts/libs/ERC20.sol",
  "compiler": {
    "name": "solc",
    "version": "0.8.17+commit.8df45f5f.Emscripten.clang"
  },
  "schemaVersion": "3.4.11",
  "updatedAt": "2023-05-11T06:07:52.725Z",
  "devdoc": {
    "details": "Implementation of the {IERC20} interface. This implementation is agnostic to the way tokens are created. This means that a supply mechanism has to be added in a derived contract using {_mint}. For a generic mechanism see {ERC20PresetMinterPauser}. TIP: For a detailed writeup see our guide https://forum.openzeppelin.com/t/how-to-implement-erc20-supply-mechanisms/226[How to implement supply mechanisms]. We have followed general OpenZeppelin Contracts guidelines: functions revert instead returning `false` on failure. This behavior is nonetheless conventional and does not conflict with the expectations of ERC20 applications. Additionally, an {Approval} event is emitted on calls to {transferFrom}. This allows applications to reconstruct the allowance for all accounts just by listening to said events. Other implementations of the EIP may not emit these events, as it isn't required by the specification. Finally, the non-standard {decreaseAllowance} and {increaseAllowance} functions have been added to mitigate the well-known issues around setting allowances. See {IERC20-approve}.",
    "kind": "dev",
    "methods": {
      "allowance(address,address)": {
        "details": "See {IERC20-allowance}."
      },
      "approve(address,uint256)": {
        "details": "See {IERC20-approve}. NOTE: If `amount` is the maximum `uint256`, the allowance is not updated on `transferFrom`. This is semantically equivalent to an infinite approval. Requirements: - `spender` cannot be the zero address."
      },
      "balanceOf(address)": {
        "details": "See {IERC20-balanceOf}."
      },
      "decimals()": {
        "details": "Returns the number of decimals used to get its user representation. For example, if `decimals` equals `2`, a balance of `505` tokens should be displayed to a user as `5.05` (`505 / 10 ** 2`). Tokens usually opt for a value of 5, imitating the relationship between Ether and Wei. This is the value {ERC20} uses, unless this function is overridden; NOTE: This information is only used for _display_ purposes: it in no way affects any of the arithmetic of the contract, including {IERC20-balanceOf} and {IERC20-transfer}."
      },
      "decreaseAllowance(address,uint256)": {
        "details": "Atomically decreases the allowance granted to `spender` by the caller. This is an alternative to {approve} that can be used as a mitigation for problems described in {IERC20-approve}. Emits an {Approval} event indicating the updated allowance. Requirements: - `spender` cannot be the zero address. - `spender` must have allowance for the caller of at least `subtractedValue`."
      },
      "increaseAllowance(address,uint256)": {
        "details": "Atomically increases the allowance granted to `spender` by the caller. This is an alternative to {approve} that can be used as a mitigation for problems described in {IERC20-approve}. Emits an {Approval} event indicating the updated allowance. Requirements: - `spender` cannot be the zero address."
      },
      "indexAt(uint256)": {
        "details": "indexAt(index) get account and balance by index "
      },
      "name()": {
        "details": "Returns the name of the token."
      },
      "symbol()": {
        "details": "Returns the symbol of the token, usually a shorter version of the name."
      },
      "totalOwners()": {
        "details": "totalOwners() account totalOwners"
      },
      "totalSupply()": {
        "details": "See {IERC20-totalSupply}."
      },
      "transfer(address,uint256)": {
        "details": "See {IERC20-transfer}. Requirements: - `to` cannot be the zero address. - the caller must have a balance of at least `amount`."
      },
      "transferFrom(address,address,uint256)": {
        "details": "See {IERC20-transferFrom}. Emits an {Approval} event indicating the updated allowance. This is not required by the EIP. See the note at the beginning of {ERC20}. NOTE: Does not update the allowance if the current allowance is the maximum `uint256`. Requirements: - `from` and `to` cannot be the zero address. - `from` must have a balance of at least `amount`. - the caller must have allowance for ``from``'s tokens of at least `amount`."
      }
    },
    "version": 1
  },
  "userdoc": {
    "kind": "user",
    "methods": {},
    "version": 1
  }
}