{
  "contractName": "ERC721",
  "abi": [
    {
      "anonymous": false,
      "inputs": [
        {
          "indexed": true,
          "internalType": "address",
          "name": "owner",
          "type": "address"
        },
        {
          "indexed": true,
          "internalType": "address",
          "name": "approved",
          "type": "address"
        },
        {
          "indexed": true,
          "internalType": "uint256",
          "name": "tokenId",
          "type": "uint256"
        }
      ],
      "name": "Approval",
      "type": "event"
    },
    {
      "anonymous": false,
      "inputs": [
        {
          "indexed": true,
          "internalType": "address",
          "name": "owner",
          "type": "address"
        },
        {
          "indexed": true,
          "internalType": "address",
          "name": "operator",
          "type": "address"
        },
        {
          "indexed": false,
          "internalType": "bool",
          "name": "approved",
          "type": "bool"
        }
      ],
      "name": "ApprovalForAll",
      "type": "event"
    },
    {
      "anonymous": false,
      "inputs": [
        {
          "indexed": true,
          "internalType": "address",
          "name": "from",
          "type": "address"
        },
        {
          "indexed": true,
          "internalType": "address",
          "name": "to",
          "type": "address"
        },
        {
          "indexed": true,
          "internalType": "uint256",
          "name": "tokenId",
          "type": "uint256"
        }
      ],
      "name": "Transfer",
      "type": "event"
    },
    {
      "inputs": [
        {
          "internalType": "address",
          "name": "to",
          "type": "address"
        },
        {
          "internalType": "uint256",
          "name": "tokenId",
          "type": "uint256"
        }
      ],
      "name": "approve",
      "outputs": [],
      "stateMutability": "nonpayable",
      "type": "function"
    },
    {
      "inputs": [
        {
          "internalType": "address",
          "name": "owner",
          "type": "address"
        }
      ],
      "name": "balanceOf",
      "outputs": [
        {
          "internalType": "uint256",
          "name": "",
          "type": "uint256"
        }
      ],
      "stateMutability": "view",
      "type": "function"
    },
    {
      "inputs": [],
      "name": "baseURI",
      "outputs": [
        {
          "internalType": "string",
          "name": "",
          "type": "string"
        }
      ],
      "stateMutability": "view",
      "type": "function"
    },
    {
      "inputs": [
        {
          "internalType": "bytes4",
          "name": "interfaceId",
          "type": "bytes4"
        },
        {
          "internalType": "string",
          "name": "message",
          "type": "string"
        }
      ],
      "name": "checkInterface",
      "outputs": [],
      "stateMutability": "view",
      "type": "function"
    },
    {
      "inputs": [],
      "name": "description",
      "outputs": [
        {
          "internalType": "string",
          "name": "",
          "type": "string"
        }
      ],
      "stateMutability": "view",
      "type": "function"
    },
    {
      "inputs": [
        {
          "internalType": "uint256",
          "name": "tokenId",
          "type": "uint256"
        }
      ],
      "name": "getApproved",
      "outputs": [
        {
          "internalType": "address",
          "name": "",
          "type": "address"
        }
      ],
      "stateMutability": "view",
      "type": "function"
    },
    {
      "inputs": [],
      "name": "host",
      "outputs": [
        {
          "internalType": "contract IDAO",
          "name": "",
          "type": "address"
        }
      ],
      "stateMutability": "view",
      "type": "function"
    },
    {
      "inputs": [],
      "name": "impl",
      "outputs": [
        {
          "internalType": "address",
          "name": "",
          "type": "address"
        }
      ],
      "stateMutability": "view",
      "type": "function"
    },
    {
      "inputs": [
        {
          "internalType": "address",
          "name": "owner",
          "type": "address"
        },
        {
          "internalType": "address",
          "name": "operator",
          "type": "address"
        }
      ],
      "name": "isApprovedForAll",
      "outputs": [
        {
          "internalType": "bool",
          "name": "",
          "type": "bool"
        }
      ],
      "stateMutability": "view",
      "type": "function"
    },
    {
      "inputs": [],
      "name": "name",
      "outputs": [
        {
          "internalType": "string",
          "name": "",
          "type": "string"
        }
      ],
      "stateMutability": "view",
      "type": "function"
    },
    {
      "inputs": [],
      "name": "operator",
      "outputs": [
        {
          "internalType": "contract IVotePool",
          "name": "",
          "type": "address"
        }
      ],
      "stateMutability": "view",
      "type": "function"
    },
    {
      "inputs": [
        {
          "internalType": "uint256",
          "name": "tokenId",
          "type": "uint256"
        }
      ],
      "name": "ownerOf",
      "outputs": [
        {
          "internalType": "address",
          "name": "",
          "type": "address"
        }
      ],
      "stateMutability": "view",
      "type": "function"
    },
    {
      "inputs": [
        {
          "internalType": "address",
          "name": "from",
          "type": "address"
        },
        {
          "internalType": "address",
          "name": "to",
          "type": "address"
        },
        {
          "internalType": "uint256",
          "name": "tokenId",
          "type": "uint256"
        }
      ],
      "name": "safeTransferFrom",
      "outputs": [],
      "stateMutability": "nonpayable",
      "type": "function"
    },
    {
      "inputs": [
        {
          "internalType": "address",
          "name": "from",
          "type": "address"
        },
        {
          "internalType": "address",
          "name": "to",
          "type": "address"
        },
        {
          "internalType": "uint256",
          "name": "tokenId",
          "type": "uint256"
        },
        {
          "internalType": "bytes",
          "name": "_data",
          "type": "bytes"
        }
      ],
      "name": "safeTransferFrom",
      "outputs": [],
      "stateMutability": "nonpayable",
      "type": "function"
    },
    {
      "inputs": [
        {
          "internalType": "address",
          "name": "operator",
          "type": "address"
        },
        {
          "internalType": "bool",
          "name": "approved",
          "type": "bool"
        }
      ],
      "name": "setApprovalForAll",
      "outputs": [],
      "stateMutability": "nonpayable",
      "type": "function"
    },
    {
      "inputs": [
        {
          "internalType": "address",
          "name": "vote",
          "type": "address"
        }
      ],
      "name": "setOperator",
      "outputs": [],
      "stateMutability": "nonpayable",
      "type": "function"
    },
    {
      "inputs": [
        {
          "internalType": "bytes4",
          "name": "interfaceId",
          "type": "bytes4"
        }
      ],
      "name": "supportsInterface",
      "outputs": [
        {
          "internalType": "bool",
          "name": "",
          "type": "bool"
        }
      ],
      "stateMutability": "view",
      "type": "function"
    },
    {
      "inputs": [],
      "name": "symbol",
      "outputs": [
        {
          "internalType": "string",
          "name": "",
          "type": "string"
        }
      ],
      "stateMutability": "view",
      "type": "function"
    },
    {
      "inputs": [
        {
          "internalType": "uint256",
          "name": "index",
          "type": "uint256"
        }
      ],
      "name": "tokenByIndex",
      "outputs": [
        {
          "internalType": "uint256",
          "name": "",
          "type": "uint256"
        }
      ],
      "stateMutability": "view",
      "type": "function"
    },
    {
      "inputs": [
        {
          "internalType": "address",
          "name": "owner",
          "type": "address"
        },
        {
          "internalType": "uint256",
          "name": "index",
          "type": "uint256"
        }
      ],
      "name": "tokenOfOwnerByIndex",
      "outputs": [
        {
          "internalType": "uint256",
          "name": "",
          "type": "uint256"
        }
      ],
      "stateMutability": "view",
      "type": "function"
    },
    {
      "inputs": [
        {
          "internalType": "uint256",
          "name": "tokenId",
          "type": "uint256"
        }
      ],
      "name": "tokenURI",
      "outputs": [
        {
          "internalType": "string",
          "name": "",
          "type": "string"
        }
      ],
      "stateMutability": "view",
      "type": "function"
    },
    {
      "inputs": [],
      "name": "totalSupply",
      "outputs": [
        {
          "internalType": "uint256",
          "name": "",
          "type": "uint256"
        }
      ],
      "stateMutability": "view",
      "type": "function"
    },
    {
      "inputs": [
        {
          "internalType": "address",
          "name": "from",
          "type": "address"
        },
        {
          "internalType": "address",
          "name": "to",
          "type": "address"
        },
        {
          "internalType": "uint256",
          "name": "tokenId",
          "type": "uint256"
        }
      ],
      "name": "transferFrom",
      "outputs": [],
      "stateMutability": "nonpayable",
      "type": "function"
    },
    {
      "inputs": [
        {
          "internalType": "address",
          "name": "impl",
          "type": "address"
        }
      ],
      "name": "upgrade",
      "outputs": [],
      "stateMutability": "nonpayable",
      "type": "function"
    },
    {
      "inputs": [
        {
          "internalType": "uint256",
          "name": "id",
          "type": "uint256"
        }
      ],
      "name": "exists",
      "outputs": [
        {
          "internalType": "bool",
          "name": "",
          "type": "bool"
        }
      ],
      "stateMutability": "view",
      "type": "function"
    }
  ],
  "bytecode": "0x608060405234801561001057600080fd5b50611f4f806100206000396000f3fe608060405234801561001057600080fd5b50600436106101735760003560e01c80636352211e116100de578063a22cb46511610097578063c64df69d11610071578063c64df69d1461052e578063c87b56dd146105e5578063e985e9c514610602578063f437bc591461063057610173565b8063a22cb46514610414578063b3ab15fb14610442578063b88d4fde1461046857610173565b80636352211e146103b15780636c0360eb146103ce57806370a08231146103d65780637284e416146103fc5780638abf60771461040457806395d89b411461040c57610173565b806323b872dd1161013057806323b872dd146102d75780632f745c591461030d57806342842e0e146103395780634f558e791461036f5780634f6ccce71461038c578063570ca735146103a957610173565b806301ffc9a71461017857806306fdde03146101b3578063081812fc146102305780630900f01014610269578063095ea7b31461029157806318160ddd146102bd575b600080fd5b61019f6004803603602081101561018e57600080fd5b50356001600160e01b031916610638565b604080519115158252519081900360200190f35b6101bb61065b565b6040805160208082528351818301528351919283929083019185019080838360005b838110156101f55781810151838201526020016101dd565b50505050905090810190601f1680156102225780820380516001836020036101000a031916815260200191505b509250505060405180910390f35b61024d6004803603602081101561024657600080fd5b50356106f2565b604080516001600160a01b039092168252519081900360200190f35b61028f6004803603602081101561027f57600080fd5b50356001600160a01b0316610754565b005b61028f600480360360408110156102a757600080fd5b506001600160a01b0381351690602001356107b9565b6102c5610894565b60408051918252519081900360200190f35b61028f600480360360608110156102ed57600080fd5b506001600160a01b038135811691602081013590911690604001356108a5565b6102c56004803603604081101561032357600080fd5b506001600160a01b03813516906020013561090c565b61028f6004803603606081101561034f57600080fd5b506001600160a01b03813581169160208101359091169060400135610937565b61019f6004803603602081101561038557600080fd5b5035610952565b6102c5600480360360208110156103a257600080fd5b503561095d565b61024d610973565b61024d600480360360208110156103c757600080fd5b5035610982565b6101bb6109aa565b6102c5600480360360208110156103ec57600080fd5b50356001600160a01b0316610a0b565b6101bb610a73565b61024d610ad4565b6101bb610ae3565b61028f6004803603604081101561042a57600080fd5b506001600160a01b0381351690602001351515610b44565b61028f6004803603602081101561045857600080fd5b50356001600160a01b0316610c49565b61028f6004803603608081101561047e57600080fd5b6001600160a01b038235811692602081013590911691604082013591908101906080810160608201356401000000008111156104b957600080fd5b8201836020820111156104cb57600080fd5b803590602001918460018302840111640100000000831117156104ed57600080fd5b91908080601f016020809104026020016040519081016040528093929190818152602001838380828437600092019190915250929550610c98945050505050565b61028f6004803603604081101561054457600080fd5b6001600160e01b0319823516919081019060408101602082013564010000000081111561057057600080fd5b82018360208201111561058257600080fd5b803590602001918460018302840111640100000000831117156105a457600080fd5b91908080601f016020809104026020016040519081016040528093929190818152602001838380828437600092019190915250929550610cf6945050505050565b6101bb600480360360208110156105fb57600080fd5b5035610d89565b61019f6004803603604081101561061857600080fd5b506001600160a01b0381358116916020013516610d94565b61024d610dc2565b6001600160e01b0319811660009081526001602052604090205460ff165b919050565b600a8054604080516020601f60026000196101006001881615020190951694909404938401819004810282018101909252828152606093909290918301828280156106e75780601f106106bc576101008083540402835291602001916106e7565b820191906000526020600020905b8154815290600101906020018083116106ca57829003601f168201915b505050505090505b90565b60006106fd82610dd1565b6107385760405162461bcd60e51b815260040180806020018281038252602c815260200180611e0c602c913960400191505060405180910390fd5b506000908152600860205260409020546001600160a01b031690565b61075c610dde565b6107975760405162461bcd60e51b8152600401808060200182810382526033815260200180611caa6033913960400191505060405180910390fd5b600080546001600160a01b0319166001600160a01b0392909216919091179055565b60006107c482610982565b9050806001600160a01b0316836001600160a01b031614156108175760405162461bcd60e51b8152600401808060200182810382526021815260200180611ec86021913960400191505060405180910390fd5b806001600160a01b0316610829610f18565b6001600160a01b0316148061084a575061084a81610845610f18565b610d94565b6108855760405162461bcd60e51b8152600401808060200182810382526038815260200180611d5f6038913960400191505060405180910390fd5b61088f8383610f22565b505050565b60006108a06006610f90565b905090565b6108b66108b0610f18565b82610f9b565b6108f15760405162461bcd60e51b8152600401808060200182810382526031815260200180611ee96031913960400191505060405180910390fd5b61088f8383836040518060200160405280600081525061103f565b6001600160a01b038216600090815260056020526040812061092e908361118d565b90505b92915050565b61088f83838360405180602001604052806000815250610c98565b600061093182610dd1565b60008061096b600684611199565b509392505050565b6002546001600160a01b031690565b600061093182604051806060016040528060298152602001611dc160299139600691906111b5565b600d8054604080516020601f60026000196101006001881615020190951694909404938401819004810282018101909252828152606093909290918301828280156106e75780601f106106bc576101008083540402835291602001916106e7565b60006001600160a01b038216610a525760405162461bcd60e51b815260040180806020018281038252602a815260200180611d97602a913960400191505060405180910390fd5b6001600160a01b038216600090815260056020526040902061093190610f90565b60048054604080516020601f60026000196101006001881615020190951694909404938401819004810282018101909252828152606093909290918301828280156106e75780601f106106bc576101008083540402835291602001916106e7565b6000546001600160a01b031690565b600b8054604080516020601f60026000196101006001881615020190951694909404938401819004810282018101909252828152606093909290918301828280156106e75780601f106106bc576101008083540402835291602001916106e7565b610b4c610f18565b6001600160a01b0316826001600160a01b03161415610bb2576040805162461bcd60e51b815260206004820152601960248201527f4552433732313a20617070726f766520746f2063616c6c657200000000000000604482015290519081900360640190fd5b8060096000610bbf610f18565b6001600160a01b03908116825260208083019390935260409182016000908120918716808252919093529120805460ff191692151592909217909155610c03610f18565b6001600160a01b03167f17307eab39ab6107e8899845ad3d59bd9653f200f220920489ca2b5937696c318360405180821515815260200191505060405180910390a35050565b610c51610dde565b610c8c5760405162461bcd60e51b8152600401808060200182810382526033815260200180611caa6033913960400191505060405180910390fd5b610c95816111cc565b50565b610ca9610ca3610f18565b83610f9b565b610ce45760405162461bcd60e51b8152600401808060200182810382526031815260200180611ee96031913960400191505060405180910390fd5b610cf084848484611297565b50505050565b610cff82610638565b819061088f5760405162461bcd60e51b81526004018080602001828103825283818151815260200191508051906020019080838360005b83811015610d4e578181015183820152602001610d36565b50505050905090810190601f168015610d7b5780820380516001836020036101000a031916815260200191505b509250505060405180910390fd5b6060610931826112ea565b6001600160a01b03918216600090815260096020908152604080832093909416825291909152205460ff1690565b6003546001600160a01b031690565b6000610931600683611591565b60025460009033906001600160a01b03168114610f1057600360009054906101000a90046001600160a01b03166001600160a01b031663570ca7356040518163ffffffff1660e01b815260040160206040518083038186803b158015610e4357600080fd5b505afa158015610e57573d6000803e3d6000fd5b505050506040513d6020811015610e6d57600080fd5b50516001600160a01b03828116911614610f1057600360009054906101000a90046001600160a01b03166001600160a01b031663ebf0c7176040518163ffffffff1660e01b815260040160206040518083038186803b158015610ecf57600080fd5b505afa158015610ee3573d6000803e3d6000fd5b505050506040513d6020811015610ef957600080fd5b50516001600160a01b0391821691161490506106ef565b600191505090565b60006108a061159d565b600081815260086020526040902080546001600160a01b0319166001600160a01b0384169081179091558190610f5782610982565b6001600160a01b03167f8c5be1e5ebec7d5bd14f71427d1e84f3dd0314c0f7b2291e5b200ac8c7c3b92560405160405180910390a45050565b6000610931826115a1565b6000610fa682610dd1565b610fe15760405162461bcd60e51b815260040180806020018281038252602c815260200180611d33602c913960400191505060405180910390fd5b6000610fec83610982565b9050806001600160a01b0316846001600160a01b031614806110275750836001600160a01b031661101c846106f2565b6001600160a01b0316145b8061103757506110378185610d94565b949350505050565b836001600160a01b031661105283610982565b6001600160a01b0316146110975760405162461bcd60e51b8152600401808060200182810382526029815260200180611e706029913960400191505060405180910390fd5b6001600160a01b0383166110dc5760405162461bcd60e51b8152600401808060200182810382526024815260200180611d0f6024913960400191505060405180910390fd5b6110e884848484610cf0565b6110f3600083610f22565b6001600160a01b038416600090815260056020526040902061111590836115a5565b506001600160a01b038316600090815260056020526040902061113890836115b1565b50611145600683856115bd565b5081836001600160a01b0316856001600160a01b03167fddf252ad1be2c89b69c2b068fc378daa952ba7f163c4a11628f55a4df523b3ef60405160405180910390a450505050565b600061092e83836115d3565b60008080806111a88686611637565b9097909650945050505050565b60006111c28484846116b2565b90505b9392505050565b6001600160a01b03811615611275576111ed816001600160a01b031661173f565b15611275576040805163c64df69d60e01b8152630ddf27bf60e01b60048201818152602483019384526038604484018190526001600160a01b0386169463c64df69d949091606490910190611e3882396040019250505060006040518083038186803b15801561125c57600080fd5b505afa158015611270573d6000803e3d6000fd5b505050505b600280546001600160a01b0319166001600160a01b0392909216919091179055565b6112a38484848461103f565b6112af84848484611778565b610cf05760405162461bcd60e51b8152600401808060200182810382526032815260200180611cdd6032913960400191505060405180910390fd5b60606112f582610dd1565b6113305760405162461bcd60e51b815260040180806020018281038252602f815260200180611e99602f913960400191505060405180910390fd5b6000828152600c602090815260409182902080548351601f60026000196101006001861615020190931692909204918201849004840281018401909452808452606093928301828280156113c55780601f1061139a576101008083540402835291602001916113c5565b820191906000526020600020905b8154815290600101906020018083116113a857829003601f168201915b5050600d54939450505050600260001961010060018416150201909116046113ee579050610656565b8051156114bf57600d8160405160200180838054600181600116156101000203166002900480156114565780601f10611434576101008083540402835291820191611456565b820191906000526020600020905b815481529060010190602001808311611442575b5050825160208401908083835b602083106114825780518252601f199092019160209182019101611463565b6001836020036101000a03801982511681845116808217855250505050505090500192505050604051602081830303815290604052915050610656565b600d6114ca846118c5565b60405160200180838054600181600116156101000203166002900480156115285780601f10611506576101008083540402835291820191611528565b820191906000526020600020905b815481529060010190602001808311611514575b5050825160208401908083835b602083106115545780518252601f199092019160209182019101611535565b6001836020036101000a03801982511681845116808217855250505050505090500192505050604051602081830303815290604052915050919050565b600061092e83836119a0565b3390565b5490565b600061092e83836119b8565b600061092e8383611a7e565b60006111c284846001600160a01b038516611ac8565b815460009082106116155760405162461bcd60e51b8152600401808060200182810382526022815260200180611c886022913960400191505060405180910390fd5b82600001828154811061162457fe5b9060005260206000200154905092915050565b81546000908190831061167b5760405162461bcd60e51b8152600401808060200182810382526022815260200180611dea6022913960400191505060405180910390fd5b600084600001848154811061168c57fe5b906000526020600020906002020190508060000154816001015492509250509250929050565b600082815260018401602052604081205482816117105760405162461bcd60e51b8152602060048201818152835160248401528351909283926044909101919085019080838360008315610d4e578181015183820152602001610d36565b5084600001600182038154811061172357fe5b9060005260206000209060020201600101549150509392505050565b6000813f7fc5d2460186f7233c927e7db2dcc703c0e500b653ca82273b7bfad8045d85a470818114801590611037575050151592915050565b600061178c846001600160a01b031661173f565b61179857506001611037565b6060630a85bd0160e11b6117aa610f18565b87868660405160240180856001600160a01b03168152602001846001600160a01b0316815260200183815260200180602001828103825283818151815260200191508051906020019080838360005b838110156118115781810151838201526020016117f9565b50505050905090810190601f16801561183e5780820380516001836020036101000a031916815260200191505b5095505050505050604051602081830303815290604052906001600160e01b0319166020820180516001600160e01b038381831617835250505050905063150b7a0260e01b6001600160e01b0319166118b08683604051806060016040528060328152602001611cdd60329139611b5f565b6001600160e01b031916149695505050505050565b6060816118ea57506040805180820190915260018152600360fc1b6020820152610656565b8160005b811561190257600101600a820491506118ee565b60608167ffffffffffffffff8111801561191b57600080fd5b506040519080825280601f01601f191660200182016040528015611946576020820181803683370190505b50859350905060001982015b831561199757600a840660300160f81b8282806001900393508151811061197557fe5b60200101906001600160f81b031916908160001a905350600a84049350611952565b50949350505050565b60009081526001919091016020526040902054151590565b60008181526001830160205260408120548015611a7457835460001980830191908101906000908790839081106119eb57fe5b9060005260206000200154905080876000018481548110611a0857fe5b600091825260208083209091019290925582815260018981019092526040902090840190558654879080611a3857fe5b60019003818190600052602060002001600090559055866001016000878152602001908152602001600020600090556001945050505050610931565b6000915050610931565b6000611a8a83836119a0565b611ac057508154600181810184556000848152602080822090930184905584548482528286019093526040902091909155610931565b506000610931565b600082815260018401602052604081205480611b2d5750506040805180820182528381526020808201848152865460018181018955600089815284812095516002909302909501918255915190820155865486845281880190925292909120556111c5565b82856000016001830381548110611b4057fe5b90600052602060002090600202016001018190555060009150506111c5565b6000806060856001600160a01b0316856040518082805190602001908083835b60208310611b9e5780518252601f199092019160209182019101611b7f565b6001836020036101000a0380198251168184511680821785525050505050509050019150506000604051808303816000865af19150503d8060008114611c00576040519150601f19603f3d011682016040523d82523d6000602084013e611c05565b606091505b509150915081611c6657805115611c1f5780518082602001fd5b60405162461bcd60e51b8152602060048201818152865160248401528651879391928392604401919085019080838360008315610d4e578181015183820152602001610d36565b808060200190516020811015611c7b57600080fd5b505192506111c591505056fe456e756d657261626c655365743a20696e646578206f7574206f6620626f756e6473234465706172746d656e74234f6e6c7944414f2063616c6c657220646f6573206e6f742068617665207065726d697373696f6e4552433732313a207472616e7366657220746f206e6f6e20455243373231526563656976657220696d706c656d656e7465724552433732313a207472616e7366657220746f20746865207a65726f20616464726573734552433732313a206f70657261746f7220717565727920666f72206e6f6e6578697374656e7420746f6b656e4552433732313a20617070726f76652063616c6c6572206973206e6f74206f776e6572206e6f7220617070726f76656420666f7220616c6c4552433732313a2062616c616e636520717565727920666f7220746865207a65726f20616464726573734552433732313a206f776e657220717565727920666f72206e6f6e6578697374656e7420746f6b656e456e756d657261626c654d61703a20696e646578206f7574206f6620626f756e64734552433732313a20617070726f76656420717565727920666f72206e6f6e6578697374656e7420746f6b656e234465706172746d656e74237365744f70657261746f725f696e7465726e616c206f70657261746f722074797065206e6f74206d617463684552433732313a207472616e73666572206f6620746f6b656e2074686174206973206e6f74206f776e4552433732314d657461646174613a2055524920717565727920666f72206e6f6e6578697374656e7420746f6b656e4552433732313a20617070726f76616c20746f2063757272656e74206f776e65724552433732313a207472616e736665722063616c6c6572206973206e6f74206f776e6572206e6f7220617070726f766564a26469706673582212204f0f8448510147acf06942c236fbe5cce9111940a89ca014db55ba8c45fc8e8964736f6c634300060c0033",
  "immutableReferences": {},
  "source": "\npragma solidity >=0.6.0 <=0.8.15;\n// pragma solidity ^0.6.0;\n\nimport \"./Department.sol\";\nimport \"../openzeppelin/contracts-ethereum-package/contracts/math/SafeMath.sol\";\nimport \"../openzeppelin/contracts-ethereum-package/contracts/utils/Address.sol\";\nimport \"../openzeppelin/contracts-ethereum-package/contracts/utils/EnumerableSet.sol\";\nimport \"../openzeppelin/contracts-ethereum-package/contracts/utils/EnumerableMap.sol\";\nimport \"../openzeppelin/contracts-ethereum-package/contracts/utils/Strings.sol\";\n\n/**\n * @title ERC721 Non-Fungible Token Standard basic implementation\n * @dev see https://eips.ethereum.org/EIPS/eip-721\n */\nabstract contract ERC721_IMPL is IERC721_PLUS {\n\tusing SafeMath for uint256;\n\tusing Address for address;\n\tusing EnumerableSet for EnumerableSet.UintSet;\n\tusing EnumerableMap for EnumerableMap.UintToAddressMap;\n\tusing Strings for uint256;\n\n\t// Mapping from holder address to their (enumerable) set of owned tokens\n\tmapping (address => EnumerableSet.UintSet) private _holderTokens;\n\n\t// Enumerable mapping from token ids to their owners\n\tEnumerableMap.UintToAddressMap private _tokenOwners;\n\n\t// Mapping from token ID to approved address\n\tmapping (uint256 => address) private _tokenApprovals;\n\n\t// Mapping from owner to operator approvals\n\tmapping (address => mapping (address => bool)) private _operatorApprovals;\n\n\t// Token name\n\tstring private _name;\n\n\t// Token symbol\n\tstring private _symbol;\n\n\t// Optional mapping for token URIs\n\tmapping(uint256 => string) private _tokenURIs;\n\n\t// Base URI\n\tstring private _baseURI;\n\n\t// Equals to `bytes4(keccak256(\"onERC721Received(address,address,uint256,bytes)\"))`\n\t// which can be also obtained as `IERC721Receiver(0).onERC721Received.selector`\n\tbytes4 private constant _ERC721_RECEIVED = 0x150b7a02;\n\n\t/*\n\t\t*     bytes4(keccak256('balanceOf(address)')) == 0x70a08231\n\t\t*     bytes4(keccak256('ownerOf(uint256)')) == 0x6352211e\n\t\t*     bytes4(keccak256('approve(address,uint256)')) == 0x095ea7b3\n\t\t*     bytes4(keccak256('getApproved(uint256)')) == 0x081812fc\n\t\t*     bytes4(keccak256('setApprovalForAll(address,bool)')) == 0xa22cb465\n\t\t*     bytes4(keccak256('isApprovedForAll(address,address)')) == 0xe985e9c5\n\t\t*     bytes4(keccak256('transferFrom(address,address,uint256)')) == 0x23b872dd\n\t\t*     bytes4(keccak256('safeTransferFrom(address,address,uint256)')) == 0x42842e0e\n\t\t*     bytes4(keccak256('safeTransferFrom(address,address,uint256,bytes)')) == 0xb88d4fde\n\t\t*\n\t\t*     => 0x70a08231 ^ 0x6352211e ^ 0x095ea7b3 ^ 0x081812fc ^\n\t\t*        0xa22cb465 ^ 0xe985e9c5 ^ 0x23b872dd ^ 0x42842e0e ^ 0xb88d4fde == 0x80ac58cd\n\t\t*/\n\tbytes4 private constant _INTERFACE_ID_ERC721 = 0x80ac58cd;\n\n\t/*\n\t\t*     bytes4(keccak256('name()')) == 0x06fdde03\n\t\t*     bytes4(keccak256('symbol()')) == 0x95d89b41\n\t\t*     bytes4(keccak256('tokenURI(uint256)')) == 0xc87b56dd\n\t\t*\n\t\t*     => 0x06fdde03 ^ 0x95d89b41 ^ 0xc87b56dd == 0x5b5e139f\n\t\t*/\n\tbytes4 private constant _INTERFACE_ID_ERC721_METADATA = 0x5b5e139f;\n\n\t/*\n\t\t*     bytes4(keccak256('totalSupply()')) == 0x18160ddd\n\t\t*     bytes4(keccak256('tokenOfOwnerByIndex(address,uint256)')) == 0x2f745c59\n\t\t*     bytes4(keccak256('tokenByIndex(uint256)')) == 0x4f6ccce7\n\t\t*\n\t\t*     => 0x18160ddd ^ 0x2f745c59 ^ 0x4f6ccce7 == 0x780e9d63\n\t\t*/\n\tbytes4 private constant _INTERFACE_ID_ERC721_ENUMERABLE = 0x780e9d63;\n\n\tfunction _registerInterface(bytes4 interfaceId) internal virtual;\n\tfunction _msgSender() internal view virtual returns (address);\n\tfunction _msgData() internal view virtual returns (bytes memory);\n\n\tfunction initERC721_IMPL(string memory name, string memory symbol) internal {\n\t\t_name = name;\n\t\t_symbol = symbol;\n\n\t\t// register the supported interfaces to conform to ERC721 via ERC165\n\t\t_registerInterface(_INTERFACE_ID_ERC721);\n\t\t_registerInterface(_INTERFACE_ID_ERC721_METADATA);\n\t\t_registerInterface(_INTERFACE_ID_ERC721_ENUMERABLE);\n\t}\n\n\t/**\n\t\t* @dev Gets the balance of the specified address.\n\t\t* @param owner address to query the balance of\n\t\t* @return uint256 representing the amount owned by the passed address\n\t\t*/\n\tfunction balanceOf(address owner) public view override returns (uint256) {\n\t\trequire(owner != address(0), \"ERC721: balance query for the zero address\");\n\n\t\treturn _holderTokens[owner].length();\n\t}\n\n\t/**\n\t\t* @dev Gets the owner of the specified token ID.\n\t\t* @param tokenId uint256 ID of the token to query the owner of\n\t\t* @return address currently marked as the owner of the given token ID\n\t\t*/\n\tfunction ownerOf(uint256 tokenId) public view override returns (address) {\n\t\treturn _tokenOwners.get(tokenId, \"ERC721: owner query for nonexistent token\");\n\t}\n\n\t/**\n\t\t* @dev Gets the token name.\n\t\t* @return string representing the token name\n\t\t*/\n\tfunction name() public view override returns (string memory) {\n\t\treturn _name;\n\t}\n\n\t/**\n\t\t* @dev Gets the token symbol.\n\t\t* @return string representing the token symbol\n\t\t*/\n\tfunction symbol() public view override returns (string memory) {\n\t\treturn _symbol;\n\t}\n\n\t/**\n\t\t* @dev Returns the URI for a given token ID. May return an empty string.\n\t\t*\n\t\t* If a base URI is set (via {_setBaseURI}), it is added as a prefix to the\n\t\t* token's own URI (via {_setTokenURI}).\n\t\t*\n\t\t* If there is a base URI but no token URI, the token's ID will be used as\n\t\t* its URI when appending it to the base URI. This pattern for autogenerated\n\t\t* token URIs can lead to large gas savings.\n\t\t*\n\t\t* .Examples\n\t\t* |===\n\t\t* |`_setBaseURI()` |`_setTokenURI()` |`tokenURI()`\n\t\t* | \"\"\n\t\t* | \"\"\n\t\t* | \"\"\n\t\t* | \"\"\n\t\t* | \"token.uri/123\"\n\t\t* | \"token.uri/123\"\n\t\t* | \"token.uri/\"\n\t\t* | \"123\"\n\t\t* | \"token.uri/123\"\n\t\t* | \"token.uri/\"\n\t\t* | \"\"\n\t\t* | \"token.uri/<tokenId>\"\n\t\t* |===\n\t\t*\n\t\t* Requirements:\n\t\t*\n\t\t* - `tokenId` must exist.\n\t\t*/\n\tfunction _tokenURI(uint256 tokenId) internal view virtual returns (string memory) {\n\t\trequire(_exists(tokenId), \"ERC721Metadata: URI query for nonexistent token\");\n\n\t\tstring memory uri = _tokenURIs[tokenId];\n\n\t\t// If there is no base URI, return the token URI.\n\t\tif (bytes(_baseURI).length == 0) {\n\t\t\treturn uri;\n\t\t}\n\t\t// If both are set, concatenate the baseURI and tokenURI (via abi.encodePacked).\n\t\tif (bytes(uri).length > 0) {\n\t\t\treturn string(abi.encodePacked(_baseURI, uri));\n\t\t}\n\t\t// If there is a baseURI but no tokenURI, concatenate the tokenID to the baseURI.\n\t\treturn string(abi.encodePacked(_baseURI, tokenId.toString()));\n\t}\n\n\tfunction tokenURI(uint256 tokenId) public view override returns (string memory) {\n\t\treturn _tokenURI(tokenId);\n\t}\n\n\t/**\n\t* @dev Returns the base URI set via {_setBaseURI}. This will be\n\t* automatically added as a prefix in {tokenURI} to each token's URI, or\n\t* to the token ID if no specific URI is set for that token ID.\n\t*/\n\tfunction baseURI() public view returns (string memory) {\n\t\treturn _baseURI;\n\t}\n\n\t/**\n\t\t* @dev Gets the token ID at a given index of the tokens list of the requested owner.\n\t\t* @param owner address owning the tokens list to be accessed\n\t\t* @param index uint256 representing the index to be accessed of the requested tokens list\n\t\t* @return uint256 token ID at the given index of the tokens list owned by the requested address\n\t\t*/\n\tfunction tokenOfOwnerByIndex(address owner, uint256 index) public view override returns (uint256) {\n\t\treturn _holderTokens[owner].at(index);\n\t}\n\n\t/**\n\t\t* @dev Gets the total amount of tokens stored by the contract.\n\t\t* @return uint256 representing the total amount of tokens\n\t\t*/\n\tfunction totalSupply() public view override returns (uint256) {\n\t\t// _tokenOwners are indexed by tokenIds, so .length() returns the number of tokenIds\n\t\treturn _tokenOwners.length();\n\t}\n\n\t/**\n\t\t* @dev Gets the token ID at a given index of all the tokens in this contract\n\t\t* Reverts if the index is greater or equal to the total number of tokens.\n\t\t* @param index uint256 representing the index to be accessed of the tokens list\n\t\t* @return uint256 token ID at the given index of the tokens list\n\t\t*/\n\tfunction tokenByIndex(uint256 index) public view override returns (uint256) {\n\t\t(uint256 tokenId, ) = _tokenOwners.at(index);\n\t\treturn tokenId;\n\t}\n\n\t/**\n\t\t* @dev Approves another address to transfer the given token ID\n\t\t* The zero address indicates there is no approved address.\n\t\t* There can only be one approved address per token at a given time.\n\t\t* Can only be called by the token owner or an approved operator.\n\t\t* @param to address to be approved for the given token ID\n\t\t* @param tokenId uint256 ID of the token to be approved\n\t\t*/\n\tfunction approve(address to, uint256 tokenId) public virtual override {\n\t\taddress owner = ownerOf(tokenId);\n\t\trequire(to != owner, \"ERC721: approval to current owner\");\n\n\t\trequire(_msgSender() == owner || isApprovedForAll(owner, _msgSender()),\n\t\t\t\"ERC721: approve caller is not owner nor approved for all\"\n\t\t);\n\n\t\t_approve(to, tokenId);\n\t}\n\n\t/**\n\t\t* @dev Gets the approved address for a token ID, or zero if no address set\n\t\t* Reverts if the token ID does not exist.\n\t\t* @param tokenId uint256 ID of the token to query the approval of\n\t\t* @return address currently approved for the given token ID\n\t\t*/\n\tfunction getApproved(uint256 tokenId) public view override returns (address) {\n\t\trequire(_exists(tokenId), \"ERC721: approved query for nonexistent token\");\n\n\t\treturn _tokenApprovals[tokenId];\n\t}\n\n\t/**\n\t\t* @dev Sets or unsets the approval of a given operator\n\t\t* An operator is allowed to transfer all tokens of the sender on their behalf.\n\t\t* @param operator operator address to set the approval\n\t\t* @param approved representing the status of the approval to be set\n\t\t*/\n\tfunction setApprovalForAll(address operator, bool approved) public virtual override {\n\t\trequire(operator != _msgSender(), \"ERC721: approve to caller\");\n\n\t\t_operatorApprovals[_msgSender()][operator] = approved;\n\t\temit ApprovalForAll(_msgSender(), operator, approved);\n\t}\n\n\t/**\n\t\t* @dev Tells whether an operator is approved by a given owner.\n\t\t* @param owner owner address which you want to query the approval of\n\t\t* @param operator operator address which you want to query the approval of\n\t\t* @return bool whether the given operator is approved by the given owner\n\t\t*/\n\tfunction isApprovedForAll(address owner, address operator) public view override returns (bool) {\n\t\treturn _operatorApprovals[owner][operator];\n\t}\n\n\t/**\n\t\t* @dev Transfers the ownership of a given token ID to another address.\n\t\t* Usage of this method is discouraged, use {safeTransferFrom} whenever possible.\n\t\t* Requires the msg.sender to be the owner, approved, or operator.\n\t\t* @param from current owner of the token\n\t\t* @param to address to receive the ownership of the given token ID\n\t\t* @param tokenId uint256 ID of the token to be transferred\n\t\t*/\n\tfunction transferFrom(address from, address to, uint256 tokenId) public virtual override {\n\t\t//solhint-disable-next-line max-line-length\n\t\trequire(_havePermission(_msgSender(), tokenId), \"ERC721: transfer caller is not owner nor approved\");\n\t\t_transfer(from, to, tokenId, \"\");\n\t}\n\n\t/**\n\t\t* @dev Safely transfers the ownership of a given token ID to another address\n\t\t* If the target address is a contract, it must implement {IERC721Receiver-onERC721Received},\n\t\t* which is called upon a safe transfer, and return the magic value\n\t\t* `bytes4(keccak256(\"onERC721Received(address,address,uint256,bytes)\"))`; otherwise,\n\t\t* the transfer is reverted.\n\t\t* Requires the msg.sender to be the owner, approved, or operator\n\t\t* @param from current owner of the token\n\t\t* @param to address to receive the ownership of the given token ID\n\t\t* @param tokenId uint256 ID of the token to be transferred\n\t\t*/\n\tfunction safeTransferFrom(address from, address to, uint256 tokenId) public virtual override {\n\t\tsafeTransferFrom(from, to, tokenId, \"\");\n\t}\n\n\t/**\n\t\t* @dev Safely transfers the ownership of a given token ID to another address\n\t\t* If the target address is a contract, it must implement {IERC721Receiver-onERC721Received},\n\t\t* which is called upon a safe transfer, and return the magic value\n\t\t* `bytes4(keccak256(\"onERC721Received(address,address,uint256,bytes)\"))`; otherwise,\n\t\t* the transfer is reverted.\n\t\t* Requires the _msgSender() to be the owner, approved, or operator\n\t\t* @param from current owner of the token\n\t\t* @param to address to receive the ownership of the given token ID\n\t\t* @param tokenId uint256 ID of the token to be transferred\n\t\t* @param _data bytes data to send along with a safe transfer check\n\t\t*/\n\tfunction safeTransferFrom(address from, address to, uint256 tokenId, bytes memory _data) public virtual override {\n\t\trequire(_havePermission(_msgSender(), tokenId), \"ERC721: transfer caller is not owner nor approved\");\n\t\t_safeTransfer(from, to, tokenId, _data);\n\t}\n\n\t/**\n\t\t* @dev Safely transfers the ownership of a given token ID to another address\n\t\t* If the target address is a contract, it must implement `onERC721Received`,\n\t\t* which is called upon a safe transfer, and return the magic value\n\t\t* `bytes4(keccak256(\"onERC721Received(address,address,uint256,bytes)\"))`; otherwise,\n\t\t* the transfer is reverted.\n\t\t* Requires the msg.sender to be the owner, approved, or operator\n\t\t* @param from current owner of the token\n\t\t* @param to address to receive the ownership of the given token ID\n\t\t* @param tokenId uint256 ID of the token to be transferred\n\t\t* @param _data bytes data to send along with a safe transfer check\n\t\t*/\n\tfunction _safeTransfer(address from, address to, uint256 tokenId, bytes memory _data) internal virtual {\n\t\t_transfer(from, to, tokenId, _data);\n\t\trequire(_checkOnERC721Received(from, to, tokenId, _data), \"ERC721: transfer to non ERC721Receiver implementer\");\n\t}\n\n\t/**\n\t\t* @dev Returns whether the specified token exists.\n\t\t* @param tokenId uint256 ID of the token to query the existence of\n\t\t* @return bool whether the token exists\n\t\t*/\n\tfunction _exists(uint256 tokenId) internal view returns (bool) {\n\t\treturn _tokenOwners.contains(tokenId);\n\t}\n\n\t/**\n\t\t* @dev Returns whether the given spender can transfer a given token ID.\n\t\t* @param spender address of the spender to query\n\t\t* @param tokenId uint256 ID of the token to be transferred\n\t\t* @return bool whether the msg.sender is approved for the given token ID,\n\t\t* is an operator of the owner, or is the owner of the token\n\t\t*/\n\tfunction _havePermission(address spender, uint256 tokenId) internal view virtual returns (bool) {\n\t\trequire(_exists(tokenId), \"ERC721: operator query for nonexistent token\");\n\t\taddress owner = ownerOf(tokenId);\n\t\treturn (spender == owner || getApproved(tokenId) == spender || isApprovedForAll(owner, spender));\n\t}\n\n\t/**\n\t\t* @dev Internal function to safely mint a new token.\n\t\t* Reverts if the given token ID already exists.\n\t\t* If the target address is a contract, it must implement `onERC721Received`,\n\t\t* which is called upon a safe transfer, and return the magic value\n\t\t* `bytes4(keccak256(\"onERC721Received(address,address,uint256,bytes)\"))`; otherwise,\n\t\t* the transfer is reverted.\n\t\t* @param to The address that will own the minted token\n\t\t* @param tokenId uint256 ID of the token to be minted\n\t\t*/\n\tfunction _safeMint(address to, uint256 tokenId) internal virtual {\n\t\t_safeMint(to, tokenId, \"\");\n\t}\n\n\t/**\n\t\t* @dev Internal function to safely mint a new token.\n\t\t* Reverts if the given token ID already exists.\n\t\t* If the target address is a contract, it must implement `onERC721Received`,\n\t\t* which is called upon a safe transfer, and return the magic value\n\t\t* `bytes4(keccak256(\"onERC721Received(address,address,uint256,bytes)\"))`; otherwise,\n\t\t* the transfer is reverted.\n\t\t* @param to The address that will own the minted token\n\t\t* @param tokenId uint256 ID of the token to be minted\n\t\t* @param _data bytes data to send along with a safe transfer check\n\t\t*/\n\tfunction _safeMint(address to, uint256 tokenId, bytes memory _data) internal virtual {\n\t\t_mint(to, tokenId);\n\t\trequire(_checkOnERC721Received(address(0), to, tokenId, _data), \"ERC721: transfer to non ERC721Receiver implementer\");\n\t}\n\n\t/**\n\t\t* @dev Internal function to mint a new token.\n\t\t* Reverts if the given token ID already exists.\n\t\t* @param to The address that will own the minted token\n\t\t* @param tokenId uint256 ID of the token to be minted\n\t\t*/\n\tfunction _mint(address to, uint256 tokenId) internal virtual {\n\t\trequire(to != address(0), \"ERC721: mint to the zero address\");\n\t\trequire(!_exists(tokenId), \"ERC721: token already minted\");\n\n\t\t_beforeTokenTransfer(address(0), to, tokenId, \"\");\n\n\t\t_holderTokens[to].add(tokenId);\n\n\t\t_tokenOwners.set(tokenId, to);\n\n\t\temit Transfer(address(0), to, tokenId);\n\t}\n\n\t/**\n\t\t* @dev Internal function to burn a specific token.\n\t\t* Reverts if the token does not exist.\n\t\t* @param tokenId uint256 ID of the token being burned\n\t\t*/\n\tfunction _burn(uint256 tokenId) internal virtual {\n\t\taddress owner = ownerOf(tokenId);\n\n\t\t_beforeTokenTransfer(owner, address(0), tokenId, \"\");\n\n\t\t// Clear approvals\n\t\t_approve(address(0), tokenId);\n\n\t\t// Clear metadata (if any)\n\t\tif (bytes(_tokenURIs[tokenId]).length != 0) {\n\t\t\t\tdelete _tokenURIs[tokenId];\n\t\t}\n\n\t\t_holderTokens[owner].remove(tokenId);\n\n\t\t_tokenOwners.remove(tokenId);\n\n\t\temit Transfer(owner, address(0), tokenId);\n\t}\n\n\t/**\n\t\t* @dev Internal function to transfer ownership of a given token ID to another address.\n\t\t* As opposed to {transferFrom}, this imposes no restrictions on msg.sender.\n\t\t* @param from current owner of the token\n\t\t* @param to address to receive the ownership of the given token ID\n\t\t* @param tokenId uint256 ID of the token to be transferred\n\t\t*/\n\tfunction _transfer(address from, address to, uint256 tokenId, bytes memory _data) internal virtual {\n\t\trequire(ownerOf(tokenId) == from, \"ERC721: transfer of token that is not own\");\n\t\trequire(to != address(0), \"ERC721: transfer to the zero address\");\n\n\t\t_beforeTokenTransfer(from, to, tokenId, _data);\n\n\t\t// Clear approvals from the previous owner\n\t\t_approve(address(0), tokenId);\n\n\t\t_holderTokens[from].remove(tokenId);\n\t\t_holderTokens[to].add(tokenId);\n\n\t\t_tokenOwners.set(tokenId, to);\n\n\t\temit Transfer(from, to, tokenId);\n\t}\n\n\t/**\n\t\t* @dev Internal function to set the token URI for a given token.\n\t\t*\n\t\t* Reverts if the token ID does not exist.\n\t\t*\n\t\t* TIP: If all token IDs share a prefix (for example, if your URIs look like\n\t\t* `https://api.myproject.com/token/<id>`), use {_setBaseURI} to store\n\t\t* it and save gas.\n\t\t*/\n\tfunction _setTokenURI(uint256 tokenId, string memory _tokenURI) internal virtual {\n\t\trequire(_exists(tokenId), \"ERC721Metadata: URI set of nonexistent token\");\n\t\t_tokenURIs[tokenId] = _tokenURI;\n\t}\n\n\t/**\n\t\t* @dev Internal function to set the base URI for all token IDs. It is\n\t\t* automatically added as a prefix to the value returned in {tokenURI},\n\t\t* or to the token ID if {tokenURI} is empty.\n\t\t*/\n\tfunction _setBaseURI(string memory baseURI_) internal virtual {\n\t\t_baseURI = baseURI_;\n\t}\n\n\t/**\n\t\t* @dev Internal function to invoke {IERC721Receiver-onERC721Received} on a target address.\n\t\t* The call is not executed if the target address is not a contract.\n\t\t*\n\t\t* @param from address representing the previous owner of the given token ID\n\t\t* @param to target address that will receive the tokens\n\t\t* @param tokenId uint256 ID of the token to be transferred\n\t\t* @param _data bytes optional data to send along with the call\n\t\t* @return bool whether the call correctly returned the expected magic value\n\t\t*/\n\tfunction _checkOnERC721Received(address from, address to, uint256 tokenId, bytes memory _data) private returns (bool) {\n\t\tif (!to.isContract()) return true;\n\t\tbytes memory data = abi.encodeWithSelector(\n\t\t\tIERC721Receiver(to).onERC721Received.selector, _msgSender(), from, tokenId, _data\n\t\t);\n\t\treturn checkCall(to, data, \"ERC721: transfer to non ERC721Receiver implementer\") == _ERC721_RECEIVED;\n\t}\n\n\tfunction checkCall(address to, bytes memory data, string memory message) internal returns (bytes4) {\n\t\t// solhint-disable-next-line avoid-low-level-calls\n\t\t(bool success, bytes memory returndata) = to.call(data);\n\n\t\tif (!success) {\n\t\t\tif (returndata.length > 0) {\n\t\t\t\t// solhint-disable-next-line no-inline-assembly\n\t\t\t\tassembly {\n\t\t\t\t\tlet returndata_size := mload(returndata)\n\t\t\t\t\trevert(add(32, returndata), returndata_size)\n\t\t\t\t}\n\t\t\t} else {\n\t\t\t\trevert(message);\n\t\t\t}\n\t\t} else {\n\t\t\treturn abi.decode(returndata, (bytes4));\n\t\t}\n\t}\n\n\tfunction _approve(address to, uint256 tokenId) private {\n\t\t_tokenApprovals[tokenId] = to;\n\t\temit Approval(ownerOf(tokenId), to, tokenId);\n\t}\n\n\t/**\n\t\t* @dev Hook that is called before any token transfer. This includes minting\n\t\t* and burning.\n\t\t*\n\t\t* Calling conditions:\n\t\t*\n\t\t* - when `from` and `to` are both non-zero, ``from``'s `tokenId` will be\n\t\t* transferred to `to`.\n\t\t* - when `from` is zero, `tokenId` will be minted for `to`.\n\t\t* - when `to` is zero, ``from``'s `tokenId` will be burned.\n\t\t* - `from` and `to` are never both zero.\n\t\t*\n\t\t* To learn more about hooks, head to xref:ROOT:extending-contracts.adoc#using-hooks[Using Hooks].\n\t\t*/\n\tfunction _beforeTokenTransfer(address from, address to, uint256 tokenId, bytes memory _data) internal virtual {}\n\n\t// uint256[41] private __gap;\n}\n\ncontract ERC721 is Department, ERC721_IMPL {\n\n\tfunction initERC721(address host, string memory description, address operator) internal initializer {\n\t\tinitDepartment(host, description, operator);\n\t\tinitERC721_IMPL(description, description);\n\t}\n\n\tfunction _msgSender() internal view virtual override(Initializable,ERC721_IMPL) returns (address) {\n\t\treturn Initializable._msgSender();\n\t}\n\n\tfunction _msgData() internal view virtual override(Initializable,ERC721_IMPL) returns (bytes memory) {\n\t\treturn Initializable._msgData();\n\t}\n\n\tfunction _registerInterface(bytes4 interfaceId) internal virtual override(ERC165,ERC721_IMPL) {\n\t\tERC165._registerInterface(interfaceId);\n\t}\n\n\tfunction exists(uint256 id) view public returns (bool) {\n\t\treturn _exists(id);\n\t}\n\n}",
  "sourcePath": "/Users/louis/Project/hc/NFTSwap/SmartHolder/contracts/ERC721.sol",
  "compiler": {
    "name": "solc",
    "version": "0.6.12+commit.27d51765.Emscripten.clang"
  },
  "schemaVersion": "3.4.8",
  "updatedAt": "2022-09-29T06:33:42.040Z",
  "devdoc": {
    "kind": "dev",
    "methods": {
      "approve(address,uint256)": {
        "details": "Approves another address to transfer the given token ID The zero address indicates there is no approved address. There can only be one approved address per token at a given time. Can only be called by the token owner or an approved operator.",
        "params": {
          "to": "address to be approved for the given token ID",
          "tokenId": "uint256 ID of the token to be approved"
        }
      },
      "balanceOf(address)": {
        "details": "Gets the balance of the specified address.",
        "params": {
          "owner": "address to query the balance of"
        },
        "returns": {
          "_0": "uint256 representing the amount owned by the passed address"
        }
      },
      "baseURI()": {
        "details": "Returns the base URI set via {_setBaseURI}. This will be automatically added as a prefix in {tokenURI} to each token's URI, or to the token ID if no specific URI is set for that token ID."
      },
      "getApproved(uint256)": {
        "details": "Gets the approved address for a token ID, or zero if no address set Reverts if the token ID does not exist.",
        "params": {
          "tokenId": "uint256 ID of the token to query the approval of"
        },
        "returns": {
          "_0": "address currently approved for the given token ID"
        }
      },
      "isApprovedForAll(address,address)": {
        "details": "Tells whether an operator is approved by a given owner.",
        "params": {
          "operator": "operator address which you want to query the approval of",
          "owner": "owner address which you want to query the approval of"
        },
        "returns": {
          "_0": "bool whether the given operator is approved by the given owner"
        }
      },
      "name()": {
        "details": "Gets the token name.",
        "returns": {
          "_0": "string representing the token name"
        }
      },
      "ownerOf(uint256)": {
        "details": "Gets the owner of the specified token ID.",
        "params": {
          "tokenId": "uint256 ID of the token to query the owner of"
        },
        "returns": {
          "_0": "address currently marked as the owner of the given token ID"
        }
      },
      "safeTransferFrom(address,address,uint256)": {
        "details": "Safely transfers the ownership of a given token ID to another address If the target address is a contract, it must implement {IERC721Receiver-onERC721Received}, which is called upon a safe transfer, and return the magic value `bytes4(keccak256(\"onERC721Received(address,address,uint256,bytes)\"))`; otherwise, the transfer is reverted. Requires the msg.sender to be the owner, approved, or operator",
        "params": {
          "from": "current owner of the token",
          "to": "address to receive the ownership of the given token ID",
          "tokenId": "uint256 ID of the token to be transferred"
        }
      },
      "safeTransferFrom(address,address,uint256,bytes)": {
        "details": "Safely transfers the ownership of a given token ID to another address If the target address is a contract, it must implement {IERC721Receiver-onERC721Received}, which is called upon a safe transfer, and return the magic value `bytes4(keccak256(\"onERC721Received(address,address,uint256,bytes)\"))`; otherwise, the transfer is reverted. Requires the _msgSender() to be the owner, approved, or operator",
        "params": {
          "_data": "bytes data to send along with a safe transfer check",
          "from": "current owner of the token",
          "to": "address to receive the ownership of the given token ID",
          "tokenId": "uint256 ID of the token to be transferred"
        }
      },
      "setApprovalForAll(address,bool)": {
        "details": "Sets or unsets the approval of a given operator An operator is allowed to transfer all tokens of the sender on their behalf.",
        "params": {
          "approved": "representing the status of the approval to be set",
          "operator": "operator address to set the approval"
        }
      },
      "supportsInterface(bytes4)": {
        "details": "See {IERC165-supportsInterface}. Time complexity O(1), guaranteed to always use less than 30 000 gas."
      },
      "symbol()": {
        "details": "Gets the token symbol.",
        "returns": {
          "_0": "string representing the token symbol"
        }
      },
      "tokenByIndex(uint256)": {
        "details": "Gets the token ID at a given index of all the tokens in this contract Reverts if the index is greater or equal to the total number of tokens.",
        "params": {
          "index": "uint256 representing the index to be accessed of the tokens list"
        },
        "returns": {
          "_0": "uint256 token ID at the given index of the tokens list"
        }
      },
      "tokenOfOwnerByIndex(address,uint256)": {
        "details": "Gets the token ID at a given index of the tokens list of the requested owner.",
        "params": {
          "index": "uint256 representing the index to be accessed of the requested tokens list",
          "owner": "address owning the tokens list to be accessed"
        },
        "returns": {
          "_0": "uint256 token ID at the given index of the tokens list owned by the requested address"
        }
      },
      "totalSupply()": {
        "details": "Gets the total amount of tokens stored by the contract.",
        "returns": {
          "_0": "uint256 representing the total amount of tokens"
        }
      },
      "transferFrom(address,address,uint256)": {
        "details": "Transfers the ownership of a given token ID to another address. Usage of this method is discouraged, use {safeTransferFrom} whenever possible. Requires the msg.sender to be the owner, approved, or operator.",
        "params": {
          "from": "current owner of the token",
          "to": "address to receive the ownership of the given token ID",
          "tokenId": "uint256 ID of the token to be transferred"
        }
      }
    },
    "version": 1
  },
  "userdoc": {
    "kind": "user",
    "methods": {},
    "version": 1
  }
}