{
  "contractName": "ERC721Module",
  "abi": [
    {
      "inputs": [],
      "name": "AddressEmpty",
      "type": "error"
    },
    {
      "inputs": [],
      "name": "ApprovalToOwnerInERC721",
      "type": "error"
    },
    {
      "inputs": [],
      "name": "ApproveAllToCallerInERC721",
      "type": "error"
    },
    {
      "inputs": [
        {
          "internalType": "bytes4",
          "name": "interfaceId",
          "type": "bytes4"
        }
      ],
      "name": "CheckInterfaceNoMatch",
      "type": "error"
    },
    {
      "inputs": [],
      "name": "NonERC721ReceiverImplementer",
      "type": "error"
    },
    {
      "inputs": [],
      "name": "PermissionDenied",
      "type": "error"
    },
    {
      "inputs": [],
      "name": "PermissionDeniedForOnlyDAO",
      "type": "error"
    },
    {
      "inputs": [],
      "name": "PermissionDeniedInERC721",
      "type": "error"
    },
    {
      "inputs": [],
      "name": "TokenIDNonExistentInERC721",
      "type": "error"
    },
    {
      "inputs": [],
      "name": "TransferOfTokenIDThatIsNotOwnInERC721",
      "type": "error"
    },
    {
      "anonymous": false,
      "inputs": [
        {
          "indexed": true,
          "internalType": "address",
          "name": "owner",
          "type": "address"
        },
        {
          "indexed": true,
          "internalType": "address",
          "name": "approved",
          "type": "address"
        },
        {
          "indexed": true,
          "internalType": "uint256",
          "name": "tokenId",
          "type": "uint256"
        }
      ],
      "name": "Approval",
      "type": "event"
    },
    {
      "anonymous": false,
      "inputs": [
        {
          "indexed": true,
          "internalType": "address",
          "name": "owner",
          "type": "address"
        },
        {
          "indexed": true,
          "internalType": "address",
          "name": "operator",
          "type": "address"
        },
        {
          "indexed": false,
          "internalType": "bool",
          "name": "approved",
          "type": "bool"
        }
      ],
      "name": "ApprovalForAll",
      "type": "event"
    },
    {
      "anonymous": false,
      "inputs": [
        {
          "indexed": true,
          "internalType": "uint256",
          "name": "tag",
          "type": "uint256"
        },
        {
          "indexed": false,
          "internalType": "uint256",
          "name": "value",
          "type": "uint256"
        }
      ],
      "name": "Change",
      "type": "event"
    },
    {
      "anonymous": false,
      "inputs": [
        {
          "indexed": false,
          "internalType": "uint8",
          "name": "version",
          "type": "uint8"
        }
      ],
      "name": "Initialized",
      "type": "event"
    },
    {
      "anonymous": false,
      "inputs": [
        {
          "indexed": true,
          "internalType": "address",
          "name": "from",
          "type": "address"
        },
        {
          "indexed": true,
          "internalType": "address",
          "name": "to",
          "type": "address"
        },
        {
          "indexed": true,
          "internalType": "uint256",
          "name": "tokenId",
          "type": "uint256"
        }
      ],
      "name": "Transfer",
      "type": "event"
    },
    {
      "inputs": [
        {
          "internalType": "address",
          "name": "to",
          "type": "address"
        },
        {
          "internalType": "uint256",
          "name": "tokenId",
          "type": "uint256"
        }
      ],
      "name": "approve",
      "outputs": [],
      "stateMutability": "nonpayable",
      "type": "function"
    },
    {
      "inputs": [
        {
          "internalType": "address",
          "name": "owner",
          "type": "address"
        }
      ],
      "name": "balanceOf",
      "outputs": [
        {
          "internalType": "uint256",
          "name": "",
          "type": "uint256"
        }
      ],
      "stateMutability": "view",
      "type": "function"
    },
    {
      "inputs": [],
      "name": "baseURI",
      "outputs": [
        {
          "internalType": "string",
          "name": "",
          "type": "string"
        }
      ],
      "stateMutability": "view",
      "type": "function"
    },
    {
      "inputs": [
        {
          "internalType": "bytes4",
          "name": "interfaceId",
          "type": "bytes4"
        }
      ],
      "name": "checkInterface",
      "outputs": [],
      "stateMutability": "view",
      "type": "function"
    },
    {
      "inputs": [],
      "name": "description",
      "outputs": [
        {
          "internalType": "string",
          "name": "",
          "type": "string"
        }
      ],
      "stateMutability": "view",
      "type": "function"
    },
    {
      "inputs": [
        {
          "internalType": "uint256",
          "name": "id",
          "type": "uint256"
        }
      ],
      "name": "exists",
      "outputs": [
        {
          "internalType": "bool",
          "name": "",
          "type": "bool"
        }
      ],
      "stateMutability": "view",
      "type": "function"
    },
    {
      "inputs": [
        {
          "internalType": "uint256",
          "name": "tokenId",
          "type": "uint256"
        }
      ],
      "name": "getApproved",
      "outputs": [
        {
          "internalType": "address",
          "name": "",
          "type": "address"
        }
      ],
      "stateMutability": "view",
      "type": "function"
    },
    {
      "inputs": [],
      "name": "host",
      "outputs": [
        {
          "internalType": "contract IDAO",
          "name": "",
          "type": "address"
        }
      ],
      "stateMutability": "view",
      "type": "function"
    },
    {
      "inputs": [],
      "name": "impl",
      "outputs": [
        {
          "internalType": "address",
          "name": "",
          "type": "address"
        }
      ],
      "stateMutability": "view",
      "type": "function"
    },
    {
      "inputs": [
        {
          "internalType": "address",
          "name": "owner",
          "type": "address"
        },
        {
          "internalType": "address",
          "name": "operator",
          "type": "address"
        }
      ],
      "name": "isApprovedForAll",
      "outputs": [
        {
          "internalType": "bool",
          "name": "",
          "type": "bool"
        }
      ],
      "stateMutability": "view",
      "type": "function"
    },
    {
      "inputs": [],
      "name": "name",
      "outputs": [
        {
          "internalType": "string",
          "name": "",
          "type": "string"
        }
      ],
      "stateMutability": "view",
      "type": "function"
    },
    {
      "inputs": [],
      "name": "operator",
      "outputs": [
        {
          "internalType": "address",
          "name": "",
          "type": "address"
        }
      ],
      "stateMutability": "view",
      "type": "function"
    },
    {
      "inputs": [
        {
          "internalType": "uint256",
          "name": "tokenId",
          "type": "uint256"
        }
      ],
      "name": "ownerOf",
      "outputs": [
        {
          "internalType": "address",
          "name": "owner",
          "type": "address"
        }
      ],
      "stateMutability": "view",
      "type": "function"
    },
    {
      "inputs": [
        {
          "internalType": "address",
          "name": "from",
          "type": "address"
        },
        {
          "internalType": "address",
          "name": "to",
          "type": "address"
        },
        {
          "internalType": "uint256",
          "name": "tokenId",
          "type": "uint256"
        }
      ],
      "name": "safeTransferFrom",
      "outputs": [],
      "stateMutability": "nonpayable",
      "type": "function"
    },
    {
      "inputs": [
        {
          "internalType": "address",
          "name": "from",
          "type": "address"
        },
        {
          "internalType": "address",
          "name": "to",
          "type": "address"
        },
        {
          "internalType": "uint256",
          "name": "tokenId",
          "type": "uint256"
        },
        {
          "internalType": "bytes",
          "name": "_data",
          "type": "bytes"
        }
      ],
      "name": "safeTransferFrom",
      "outputs": [],
      "stateMutability": "nonpayable",
      "type": "function"
    },
    {
      "inputs": [
        {
          "internalType": "address",
          "name": "operator",
          "type": "address"
        },
        {
          "internalType": "bool",
          "name": "approved",
          "type": "bool"
        }
      ],
      "name": "setApprovalForAll",
      "outputs": [],
      "stateMutability": "nonpayable",
      "type": "function"
    },
    {
      "inputs": [
        {
          "internalType": "string",
          "name": "value",
          "type": "string"
        }
      ],
      "name": "setDescription",
      "outputs": [],
      "stateMutability": "nonpayable",
      "type": "function"
    },
    {
      "inputs": [
        {
          "internalType": "address",
          "name": "operator",
          "type": "address"
        }
      ],
      "name": "setOperator",
      "outputs": [],
      "stateMutability": "nonpayable",
      "type": "function"
    },
    {
      "inputs": [
        {
          "internalType": "bytes4",
          "name": "interfaceId",
          "type": "bytes4"
        }
      ],
      "name": "supportsInterface",
      "outputs": [
        {
          "internalType": "bool",
          "name": "",
          "type": "bool"
        }
      ],
      "stateMutability": "view",
      "type": "function"
    },
    {
      "inputs": [],
      "name": "symbol",
      "outputs": [
        {
          "internalType": "string",
          "name": "",
          "type": "string"
        }
      ],
      "stateMutability": "view",
      "type": "function"
    },
    {
      "inputs": [
        {
          "internalType": "uint256",
          "name": "index",
          "type": "uint256"
        }
      ],
      "name": "tokenByIndex",
      "outputs": [
        {
          "internalType": "uint256",
          "name": "",
          "type": "uint256"
        }
      ],
      "stateMutability": "view",
      "type": "function"
    },
    {
      "inputs": [
        {
          "internalType": "address",
          "name": "owner",
          "type": "address"
        },
        {
          "internalType": "uint256",
          "name": "index",
          "type": "uint256"
        }
      ],
      "name": "tokenOfOwnerByIndex",
      "outputs": [
        {
          "internalType": "uint256",
          "name": "",
          "type": "uint256"
        }
      ],
      "stateMutability": "view",
      "type": "function"
    },
    {
      "inputs": [
        {
          "internalType": "uint256",
          "name": "tokenId",
          "type": "uint256"
        }
      ],
      "name": "tokenURI",
      "outputs": [
        {
          "internalType": "string",
          "name": "",
          "type": "string"
        }
      ],
      "stateMutability": "view",
      "type": "function"
    },
    {
      "inputs": [],
      "name": "totalSupply",
      "outputs": [
        {
          "internalType": "uint256",
          "name": "",
          "type": "uint256"
        }
      ],
      "stateMutability": "view",
      "type": "function"
    },
    {
      "inputs": [
        {
          "internalType": "address",
          "name": "from",
          "type": "address"
        },
        {
          "internalType": "address",
          "name": "to",
          "type": "address"
        },
        {
          "internalType": "uint256",
          "name": "tokenId",
          "type": "uint256"
        }
      ],
      "name": "transferFrom",
      "outputs": [],
      "stateMutability": "nonpayable",
      "type": "function"
    },
    {
      "inputs": [
        {
          "internalType": "address",
          "name": "impl",
          "type": "address"
        }
      ],
      "name": "upgrade",
      "outputs": [],
      "stateMutability": "nonpayable",
      "type": "function"
    }
  ],
  "bytecode": "0x608060405234801561001057600080fd5b506119e9806100206000396000f3fe608060405234801561001057600080fd5b506004361061018e5760003560e01c80636352211e116100de57806395d89b4111610097578063b88d4fde11610071578063b88d4fde14610374578063c87b56dd14610387578063e985e9c51461039a578063f437bc59146103d657600080fd5b806395d89b4114610346578063a22cb4651461034e578063b3ab15fb1461036157600080fd5b80636352211e146102ec5780636c0360eb146102ff57806370a08231146103075780637284e4161461031a5780638abf60771461032257806390c3f38f1461033357600080fd5b806323b872dd1161014b5780634c6e425b116101255780634c6e425b146102a25780634f558e79146102b55780634f6ccce7146102c8578063570ca735146102db57600080fd5b806323b872dd146102695780632f745c591461027c57806342842e0e1461028f57600080fd5b806301ffc9a71461019357806306fdde03146101d5578063081812fc146101ea5780630900f0101461022b578063095ea7b31461024057806318160ddd14610253575b600080fd5b6101c06101a13660046113e4565b6001600160e01b03191660009081526001602052604090205460ff1690565b60405190151581526020015b60405180910390f35b6101dd6103e7565b6040516101cc9190611458565b6102136101f836600461146b565b6000908152601160205260409020546001600160a01b031690565b6040516001600160a01b0390911681526020016101cc565b61023e610239366004611499565b610479565b005b61023e61024e3660046114b6565b6104f6565b61025b610582565b6040519081526020016101cc565b61023e6102773660046114e2565b610593565b61025b61028a3660046114b6565b6105e9565b61023e61029d3660046114e2565b610614565b61023e6102b03660046113e4565b61062f565b6101c06102c336600461146b565b61067d565b61025b6102d636600461146b565b610688565b6003546001600160a01b0316610213565b6102136102fa36600461146b565b61069e565b6101dd6106d4565b61025b610315366004611499565b6106e3565b6101dd610704565b6000546001600160a01b0316610213565b61023e6103413660046115af565b610713565b6101dd610876565b61023e61035c366004611606565b610885565b61023e61036f366004611499565b61091a565b61023e61038236600461163f565b610990565b6101dd61039536600461146b565b6109c9565b6101c06103a83660046116bf565b6001600160a01b03918216600090815260126020908152604080832093909416825291909152205460ff1690565b6002546001600160a01b0316610213565b6060601380546103f6906116ed565b80601f0160208091040260200160405190810160405280929190818152602001828054610422906116ed565b801561046f5780601f106104445761010080835404028352916020019161046f565b820191906000526020600020905b81548152906001019060200180831161045257829003601f168201915b5050505050905090565b6104816109d4565b61049e57604051631b4004a360e31b815260040160405180910390fd5b600080546001600160a01b0319166001600160a01b0383169081179091556040519081526003907f7016719027ff29c13bc4816903851ea968172a86b766c733b954fdabe53c87ee906020015b60405180910390a250565b60006105018261069e565b9050806001600160a01b0316836001600160a01b031603610535576040516365f090f760e01b815260040160405180910390fd5b336001600160a01b03821614801590610555575061055381336103a8565b155b156105735760405163d3a3274560e01b815260040160405180910390fd5b61057d8383610b13565b505050565b600061058e600e610b81565b905090565b61059d3382610b8c565b6105ba5760405163d3a3274560e01b815260040160405180910390fd5b6105d583838360405180602001604052806000815250610c32565b604080516020810190915260009052505050565b6001600160a01b0382166000908152600d6020526040812061060b9083610d38565b90505b92915050565b61057d83838360405180602001604052806000815250610990565b6001600160e01b0319811660009081526001602052604090205460ff1661067a57604051632aae78ef60e01b81526001600160e01b0319821660048201526024015b60405180910390fd5b50565b600061060e82610d44565b600080610696600e84610d51565b509392505050565b6000806106ac600e84610d6f565b92509050806106ce57604051635449cd4560e01b815260040160405180910390fd5b50919050565b6060601680546103f6906116ed565b6001600160a01b0381166000908152600d6020526040812061060e90610d7e565b6060600480546103f6906116ed565b63d0a4ad966107206109d4565b61082957600260009054906101000a90046001600160a01b03166001600160a01b031663e3f6b5446040518163ffffffff1660e01b8152600401602060405180830381865afa158015610777573d6000803e3d6000fd5b505050506040513d601f19601f8201168201806040525081019061079b9190611721565b60405163a8a555c560e01b8152336004820152602481018390526001600160a01b03919091169063a8a555c590604401602060405180830381865afa1580156107e8573d6000803e3d6000fd5b505050506040513d601f19601f8201168201806040525081019061080c919061173e565b61082957604051630782484160e21b815260040160405180910390fd5b600461083583826117a9565b5060017f7016719027ff29c13bc4816903851ea968172a86b766c733b954fdabe53c87ee600060405161086a91815260200190565b60405180910390a25050565b6060601480546103f6906116ed565b336001600160a01b038316036108ae5760405163064256a360e21b815260040160405180910390fd5b3360008181526012602090815260408083206001600160a01b03871680855290835292819020805460ff191686151590811790915590519081529192917f17307eab39ab6107e8899845ad3d59bd9653f200f220920489ca2b5937696c31910160405180910390a35050565b6109226109d4565b61093f57604051631b4004a360e31b815260040160405180910390fd5b600380546001600160a01b0319166001600160a01b0383169081179091556040519081526002907f7016719027ff29c13bc4816903851ea968172a86b766c733b954fdabe53c87ee906020016104eb565b61099a3383610b8c565b6109b75760405163d3a3274560e01b815260040160405180910390fd5b6109c384848484610d88565b50505050565b606061060e82610da5565b60035460009033906001600160a01b03168114610b0b57600260009054906101000a90046001600160a01b03166001600160a01b031663570ca7356040518163ffffffff1660e01b8152600401602060405180830381865afa158015610a3e573d6000803e3d6000fd5b505050506040513d601f19601f82011682018060405250810190610a629190611721565b6001600160a01b0316816001600160a01b031614610b0b57600260009054906101000a90046001600160a01b03166001600160a01b031663ebf0c7176040518163ffffffff1660e01b8152600401602060405180830381865afa158015610acd573d6000803e3d6000fd5b505050506040513d601f19601f82011682018060405250810190610af19190611721565b6001600160a01b0316816001600160a01b03161491505090565b600191505090565b600081815260116020526040902080546001600160a01b0319166001600160a01b0384169081179091558190610b488261069e565b6001600160a01b03167f8c5be1e5ebec7d5bd14f71427d1e84f3dd0314c0f7b2291e5b200ac8c7c3b92560405160405180910390a45050565b600061060e82610ead565b6000610b9782610d44565b610bb457604051635449cd4560e01b815260040160405180910390fd5b6000610bbf8361069e565b9050806001600160a01b0316846001600160a01b03161480610bfa57506000838152601160205260409020546001600160a01b038581169116145b80610c2a57506001600160a01b0380821660009081526012602090815260408083209388168352929052205460ff165b949350505050565b836001600160a01b0316610c458361069e565b6001600160a01b031614610c6c57604051630898381960e11b815260040160405180910390fd5b6001600160a01b038316610c9357604051635bb7a72360e01b815260040160405180910390fd5b610c9e600083610b13565b6001600160a01b0384166000908152600d60205260409020610cc09083610eb8565b506001600160a01b0383166000908152600d60205260409020610ce39083610ec4565b50610cf0600e8385610ed0565b5081836001600160a01b0316856001600160a01b03167fddf252ad1be2c89b69c2b068fc378daa952ba7f163c4a11628f55a4df523b3ef60405160405180910390a450505050565b600061060b8383610ee6565b600061060e600e83610f10565b6000808080610d608686610f1c565b909450925050505b9250929050565b6000808080610d608686610f47565b600061060e825490565b610d9484848484610c32565b610da084848484610f81565b6109c3565b600081815260156020526040812080546060929190610dc3906116ed565b80601f0160208091040260200160405190810160405280929190818152602001828054610def906116ed565b8015610e3c5780601f10610e1157610100808354040283529160200191610e3c565b820191906000526020600020905b815481529060010190602001808311610e1f57829003601f168201915b5050505050905060168054610e50906116ed565b9050600003610e5f5792915050565b805115610e9157601681604051602001610e7a929190611869565b604051602081830303815290604052915050919050565b6016610e9c84611027565b604051602001610e7a929190611869565b600061060e82610d7e565b600061060b83836110ba565b600061060b83836111ad565b6000610c2a84846001600160a01b0385166111fc565b6000826000018281548110610efd57610efd6118f0565b9060005260206000200154905092915050565b600061060b8383611219565b60008080610f2a8585610d38565b600081815260029690960160205260409095205494959350505050565b6000818152600283016020526040812054819080610f7657610f698585611219565b925060009150610d689050565b600192509050610d68565b6001600160a01b0383163b156109c3576000630a85bd0160e11b33868585604051602401610fb29493929190611906565b60408051601f198184030181529190526020810180516001600160e01b03166001600160e01b0319909316929092179091529050630a85bd0160e11b610ff88583611225565b6001600160e01b03191614611020576040516342eac10f60e11b815260040160405180910390fd5b5050505050565b60606000611034836112de565b600101905060008167ffffffffffffffff81111561105457611054611523565b6040519080825280601f01601f19166020018201604052801561107e576020820181803683370190505b5090508181016020015b600019016f181899199a1a9b1b9c1cb0b131b232b360811b600a86061a8153600a850494508461108857509392505050565b600081815260018301602052604081205480156111a35760006110de600183611943565b85549091506000906110f290600190611943565b9050818114611157576000866000018281548110611112576111126118f0565b9060005260206000200154905080876000018481548110611135576111356118f0565b6000918252602080832090910192909255918252600188019052604090208390555b855486908061116857611168611964565b60019003818190600052602060002001600090559055856001016000868152602001908152602001600020600090556001935050505061060e565b600091505061060e565b60008181526001830160205260408120546111f45750815460018181018455600084815260208082209093018490558454848252828601909352604090209190915561060e565b50600061060e565b60008281526002840160205260408120829055610c2a8484610ec4565b600061060b83836113b6565b6000806000846001600160a01b031684604051611242919061197a565b6000604051808303816000865af19150503d806000811461127f576040519150601f19603f3d011682016040523d82523d6000602084013e611284565b606091505b509150915081156112ac57808060200190518101906112a39190611996565b9250505061060e565b8051156112bc5780518082602001fd5b60405162461bcd60e51b81526020600482015260006024820152604401610671565b60008072184f03e93ff9f4daa797ed6e38ed64bf6a1f0160401b831061131d5772184f03e93ff9f4daa797ed6e38ed64bf6a1f0160401b830492506040015b6d04ee2d6d415b85acef81000000008310611349576d04ee2d6d415b85acef8100000000830492506020015b662386f26fc10000831061136757662386f26fc10000830492506010015b6305f5e100831061137f576305f5e100830492506008015b612710831061139357612710830492506004015b606483106113a5576064830492506002015b600a831061060e5760010192915050565b6000818152600183016020526040812054151561060b565b6001600160e01b03198116811461067a57600080fd5b6000602082840312156113f657600080fd5b8135611401816113ce565b9392505050565b60005b8381101561142357818101518382015260200161140b565b50506000910152565b60008151808452611444816020860160208601611408565b601f01601f19169290920160200192915050565b60208152600061060b602083018461142c565b60006020828403121561147d57600080fd5b5035919050565b6001600160a01b038116811461067a57600080fd5b6000602082840312156114ab57600080fd5b813561140181611484565b600080604083850312156114c957600080fd5b82356114d481611484565b946020939093013593505050565b6000806000606084860312156114f757600080fd5b833561150281611484565b9250602084013561151281611484565b929592945050506040919091013590565b634e487b7160e01b600052604160045260246000fd5b600067ffffffffffffffff8084111561155457611554611523565b604051601f8501601f19908116603f0116810190828211818310171561157c5761157c611523565b8160405280935085815286868601111561159557600080fd5b858560208301376000602087830101525050509392505050565b6000602082840312156115c157600080fd5b813567ffffffffffffffff8111156115d857600080fd5b8201601f810184136115e957600080fd5b610c2a84823560208401611539565b801515811461067a57600080fd5b6000806040838503121561161957600080fd5b823561162481611484565b91506020830135611634816115f8565b809150509250929050565b6000806000806080858703121561165557600080fd5b843561166081611484565b9350602085013561167081611484565b925060408501359150606085013567ffffffffffffffff81111561169357600080fd5b8501601f810187136116a457600080fd5b6116b387823560208401611539565b91505092959194509250565b600080604083850312156116d257600080fd5b82356116dd81611484565b9150602083013561163481611484565b600181811c9082168061170157607f821691505b6020821081036106ce57634e487b7160e01b600052602260045260246000fd5b60006020828403121561173357600080fd5b815161140181611484565b60006020828403121561175057600080fd5b8151611401816115f8565b601f82111561057d57600081815260208120601f850160051c810160208610156117825750805b601f850160051c820191505b818110156117a15782815560010161178e565b505050505050565b815167ffffffffffffffff8111156117c3576117c3611523565b6117d7816117d184546116ed565b8461175b565b602080601f83116001811461180c57600084156117f45750858301515b600019600386901b1c1916600185901b1785556117a1565b600085815260208120601f198616915b8281101561183b5788860151825594840194600190910190840161181c565b50858210156118595787850151600019600388901b60f8161c191681555b5050505050600190811b01905550565b6000808454611877816116ed565b6001828116801561188f57600181146118a4576118d3565b60ff19841687528215158302870194506118d3565b8860005260208060002060005b858110156118ca5781548a8201529084019082016118b1565b50505082870194505b5050505083516118e7818360208801611408565b01949350505050565b634e487b7160e01b600052603260045260246000fd5b6001600160a01b03858116825284166020820152604081018390526080606082018190526000906119399083018461142c565b9695505050505050565b8181038181111561060e57634e487b7160e01b600052601160045260246000fd5b634e487b7160e01b600052603160045260246000fd5b6000825161198c818460208701611408565b9190910192915050565b6000602082840312156119a857600080fd5b8151611401816113ce56fea26469706673582212202e7477e6ee682748fef7251c98d52fda2c3172b9fc75a9ec0396933587a4b70864736f6c63430008110033",
  "immutableReferences": {},
  "source": "// SPDX-License-Identifier: MIT\npragma solidity 0.8.17;\n\nimport './libs/Strings.sol';\nimport './Module.sol';\nimport './libs/ERC721.sol';\n\ncontract ERC721Module is Module, ERC721 {\n\tfunction _registerInterface(bytes4 interfaceId) internal virtual override(ERC165,ERC721) {\n\t\tERC165._registerInterface(interfaceId);\n\t}\n}\n\ncontract AssetBase is ERC721Module {\n\tusing Strings for uint256;\n\tusing Strings for address;\n\tusing StringsExp for bytes;\n\n\tstruct InitContractURI {\n\t\tstring  name;\n\t\tstring  description;\n\t\tstring  image;\n\t\tstring  external_link;\n\t\tuint32  seller_fee_basis_points;\n\t\taddress fee_recipient;\n\t\tstring  contractURIPrefix;\n\t}\n\n\tstring  public image;\n\tstring  public external_link;\n\taddress public fee_recipient;\n\tuint32  public seller_fee_basis_points;\n\n\t/*{\n\t\t\"name\": \"OpenSea Creatures\",\n\t\t\"description\": \"OpenSea Creatures are adorable aquatic beings primarily for \\\n\t\t\tdemonstrating what can be done using the OpenSea platform. Adopt one today to try out all the OpenSea buying, selling, and bidding feature set.\",\n\t\t\"image\": \"external-link-url/image.png\",\n\t\t\"external_link\": \"external-link-url\",\n\t\t\"seller_fee_basis_points\": 100, # Indicates a 1% seller fee.\n\t\t\"fee_recipient\": \"0xA97F337c39cccE66adfeCB2BF99C1DdC54C2D721\" # Where seller fees will be paid to.\n\t}*/\n\tstring public contractURIPrefix;// = \"https://smart-dao.stars-mine.com/service-api/utils/printJSON?\";\n\n\tfunction initAssetBase(address host, address operator, InitContractURI memory uri) internal {\n\t\tinitModule(host, uri.description, operator);\n\t\tinitERC721(uri.name, uri.name);\n\t\timage = uri.image;\n\t\texternal_link = uri.external_link;\n\t\tfee_recipient = uri.fee_recipient == address(0) ? address(this): uri.fee_recipient;\n\t\tseller_fee_basis_points = uri.seller_fee_basis_points;\n\t\tcontractURIPrefix = uri.contractURIPrefix;\n\t}\n\n\tfunction contractURI() view public returns (string memory uri) {\n\t\tbytes memory a = abi.encodePacked(\"?name=0xs\",                      bytes(name()).toHexString());\n\t\tbytes memory b = abi.encodePacked(\"&description=0xs\",               bytes(_description).toHexString());\n\t\tbytes memory c = abi.encodePacked(\"&image=0xs\",                     bytes(image).toHexString());\n\t\tbytes memory d = abi.encodePacked(\"&external_link=0xs\",             bytes(external_link).toHexString());\n\t\tbytes memory e = abi.encodePacked(\"&seller_fee_basis_points=\",       uint256(seller_fee_basis_points).toString());\n\t\tbytes memory f = abi.encodePacked(\"&fee_recipient=\",                 fee_recipient.toHexString());\n\t\turi = string(abi.encodePacked(contractURIPrefix, a, b, c, d, e, f));\n\t}\n\n\tfunction set_seller_fee_basis_points(uint32 value) external Check(Action_Asset_set_seller_fee_basis_points) {\n\t\tseller_fee_basis_points = value;\n\t\temit Change(Change_Tag_Asset_set_seller_fee_basis_points, value);\n\t}\n\n\tfunction set_fee_recipient(address recipient) external OnlyDAO {\n\t\tfee_recipient = recipient;\n\t\temit Change(Change_Tag_Asset_set_fee_recipient, uint160(recipient));\n\t}\n}\n\ncontract Asset is AssetBase, IAsset {\n\tuint256[16] private  __; // reserved storage space\n\n\tfunction initAsset(address host, address operator, InitContractURI memory uri) external {\n\t\tinitAssetBase(host, operator, uri);\n\t\t_registerInterface(Asset_Type);\n\t}\n\n\tfunction safeMint(address to, uint256 tokenId, string memory _tokenURI, bytes calldata _data) public Check(Action_Asset_SafeMint) {\n\t\t_safeMint(to, tokenId, _data);\n\t\t_setTokenURI(tokenId, _tokenURI);\n\t}\n\n\tfunction _burn(uint256 tokenId) internal virtual override {\n\t\t// NOOP\n\t}\n}\n",
  "sourcePath": "/Users/louis/Project/hc/NFTSwap/SmartHolder/contracts/Asset.sol",
  "compiler": {
    "name": "solc",
    "version": "0.8.17+commit.8df45f5f.Emscripten.clang"
  },
  "schemaVersion": "3.4.11",
  "updatedAt": "2023-04-01T07:55:49.737Z",
  "devdoc": {
    "kind": "dev",
    "methods": {
      "approve(address,uint256)": {
        "details": "Approves another address to transfer the given token ID The zero address indicates there is no approved address. There can only be one approved address per token at a given time. Can only be called by the token owner or an approved operator.",
        "params": {
          "to": "address to be approved for the given token ID",
          "tokenId": "uint256 ID of the token to be approved"
        }
      },
      "balanceOf(address)": {
        "details": "Gets the balance of the specified address.",
        "params": {
          "owner": "address to query the balance of"
        },
        "returns": {
          "_0": "uint256 representing the amount owned by the passed address"
        }
      },
      "baseURI()": {
        "details": "Returns the base URI set via {_setBaseURI}. This will be automatically added as a prefix in {tokenURI} to each token's URI, or to the token ID if no specific URI is set for that token ID."
      },
      "getApproved(uint256)": {
        "details": "Gets the approved address for a token ID, or zero if no address set Reverts if the token ID does not exist.",
        "params": {
          "tokenId": "uint256 ID of the token to query the approval of"
        },
        "returns": {
          "_0": "address currently approved for the given token ID"
        }
      },
      "isApprovedForAll(address,address)": {
        "details": "Tells whether an operator is approved by a given owner.",
        "params": {
          "operator": "operator address which you want to query the approval of",
          "owner": "owner address which you want to query the approval of"
        },
        "returns": {
          "_0": "bool whether the given operator is approved by the given owner"
        }
      },
      "name()": {
        "details": "Gets the token name.",
        "returns": {
          "_0": "string representing the token name"
        }
      },
      "ownerOf(uint256)": {
        "details": "Gets the owner of the specified token ID.",
        "params": {
          "tokenId": "uint256 ID of the token to query the owner of"
        },
        "returns": {
          "owner": "currently marked as the owner of the given token ID"
        }
      },
      "safeTransferFrom(address,address,uint256)": {
        "details": "Safely transfers the ownership of a given token ID to another address If the target address is a contract, it must implement {IERC721Receiver-onERC721Received}, which is called upon a safe transfer, and return the magic value `bytes4(keccak256(\"onERC721Received(address,address,uint256,bytes)\"))`; otherwise, the transfer is reverted. Requires the msg.sender to be the owner, approved, or operator",
        "params": {
          "from": "current owner of the token",
          "to": "address to receive the ownership of the given token ID",
          "tokenId": "uint256 ID of the token to be transferred"
        }
      },
      "safeTransferFrom(address,address,uint256,bytes)": {
        "details": "Safely transfers the ownership of a given token ID to another address If the target address is a contract, it must implement {IERC721Receiver-onERC721Received}, which is called upon a safe transfer, and return the magic value `bytes4(keccak256(\"onERC721Received(address,address,uint256,bytes)\"))`; otherwise, the transfer is reverted. Requires the _msgSender() to be the owner, approved, or operator",
        "params": {
          "_data": "bytes data to send along with a safe transfer check",
          "from": "current owner of the token",
          "to": "address to receive the ownership of the given token ID",
          "tokenId": "uint256 ID of the token to be transferred"
        }
      },
      "setApprovalForAll(address,bool)": {
        "details": "Sets or unsets the approval of a given operator An operator is allowed to transfer all tokens of the sender on their behalf.",
        "params": {
          "approved": "representing the status of the approval to be set",
          "operator": "operator address to set the approval"
        }
      },
      "supportsInterface(bytes4)": {
        "details": "See {IERC165-supportsInterface}. Time complexity O(1), guaranteed to always use less than 30 000 gas."
      },
      "symbol()": {
        "details": "Gets the token symbol.",
        "returns": {
          "_0": "string representing the token symbol"
        }
      },
      "tokenByIndex(uint256)": {
        "details": "Gets the token ID at a given index of all the tokens in this contract Reverts if the index is greater or equal to the total number of tokens.",
        "params": {
          "index": "uint256 representing the index to be accessed of the tokens list"
        },
        "returns": {
          "_0": "uint256 token ID at the given index of the tokens list"
        }
      },
      "tokenOfOwnerByIndex(address,uint256)": {
        "details": "Gets the token ID at a given index of the tokens list of the requested owner.",
        "params": {
          "index": "uint256 representing the index to be accessed of the requested tokens list",
          "owner": "address owning the tokens list to be accessed"
        },
        "returns": {
          "_0": "uint256 token ID at the given index of the tokens list owned by the requested address"
        }
      },
      "tokenURI(uint256)": {
        "details": "Returns the Uniform Resource Identifier (URI) for `tokenId` token."
      },
      "totalSupply()": {
        "details": "Gets the total amount of tokens stored by the contract.",
        "returns": {
          "_0": "uint256 representing the total amount of tokens"
        }
      },
      "transferFrom(address,address,uint256)": {
        "details": "Transfers the ownership of a given token ID to another address. Usage of this method is discouraged, use {safeTransferFrom} whenever possible. Requires the msg.sender to be the owner, approved, or operator.",
        "params": {
          "from": "current owner of the token",
          "to": "address to receive the ownership of the given token ID",
          "tokenId": "uint256 ID of the token to be transferred"
        }
      }
    },
    "version": 1
  },
  "userdoc": {
    "kind": "user",
    "methods": {},
    "version": 1
  }
}