{
  "contractName": "Ledger",
  "abi": [
    {
      "inputs": [],
      "name": "AddressEmpty",
      "type": "error"
    },
    {
      "inputs": [],
      "name": "AmountMinimumLimit",
      "type": "error"
    },
    {
      "inputs": [
        {
          "internalType": "bytes4",
          "name": "interfaceId",
          "type": "bytes4"
        }
      ],
      "name": "CheckInterfaceNoMatch",
      "type": "error"
    },
    {
      "inputs": [],
      "name": "InsufficientBalance",
      "type": "error"
    },
    {
      "inputs": [],
      "name": "PermissionDenied",
      "type": "error"
    },
    {
      "inputs": [],
      "name": "PermissionDeniedForOnlyDAO",
      "type": "error"
    },
    {
      "inputs": [],
      "name": "SendValueFail",
      "type": "error"
    },
    {
      "anonymous": false,
      "inputs": [
        {
          "indexed": true,
          "internalType": "uint256",
          "name": "tag",
          "type": "uint256"
        },
        {
          "indexed": false,
          "internalType": "uint256",
          "name": "value",
          "type": "uint256"
        }
      ],
      "name": "Change",
      "type": "event"
    },
    {
      "anonymous": false,
      "inputs": [
        {
          "indexed": true,
          "internalType": "address",
          "name": "from",
          "type": "address"
        },
        {
          "indexed": false,
          "internalType": "uint256",
          "name": "amount",
          "type": "uint256"
        },
        {
          "indexed": false,
          "internalType": "string",
          "name": "name",
          "type": "string"
        },
        {
          "indexed": false,
          "internalType": "string",
          "name": "description",
          "type": "string"
        }
      ],
      "name": "Deposit",
      "type": "event"
    },
    {
      "anonymous": false,
      "inputs": [
        {
          "indexed": false,
          "internalType": "uint8",
          "name": "version",
          "type": "uint8"
        }
      ],
      "name": "Initialized",
      "type": "event"
    },
    {
      "anonymous": false,
      "inputs": [
        {
          "indexed": true,
          "internalType": "address",
          "name": "from",
          "type": "address"
        },
        {
          "indexed": false,
          "internalType": "uint256",
          "name": "amount",
          "type": "uint256"
        }
      ],
      "name": "Receive",
      "type": "event"
    },
    {
      "anonymous": false,
      "inputs": [
        {
          "indexed": true,
          "internalType": "uint256",
          "name": "member",
          "type": "uint256"
        },
        {
          "indexed": true,
          "internalType": "address",
          "name": "to",
          "type": "address"
        },
        {
          "indexed": true,
          "internalType": "address",
          "name": "erc20",
          "type": "address"
        },
        {
          "indexed": false,
          "internalType": "uint256",
          "name": "amount",
          "type": "uint256"
        }
      ],
      "name": "Release",
      "type": "event"
    },
    {
      "anonymous": false,
      "inputs": [
        {
          "indexed": true,
          "internalType": "address",
          "name": "operator",
          "type": "address"
        },
        {
          "indexed": true,
          "internalType": "address",
          "name": "erc20",
          "type": "address"
        },
        {
          "indexed": false,
          "internalType": "uint256",
          "name": "amount",
          "type": "uint256"
        },
        {
          "indexed": false,
          "internalType": "string",
          "name": "log",
          "type": "string"
        }
      ],
      "name": "ReleaseLog",
      "type": "event"
    },
    {
      "anonymous": false,
      "inputs": [
        {
          "indexed": true,
          "internalType": "address",
          "name": "erc20",
          "type": "address"
        },
        {
          "indexed": true,
          "internalType": "address",
          "name": "target",
          "type": "address"
        },
        {
          "indexed": false,
          "internalType": "uint256",
          "name": "amount",
          "type": "uint256"
        },
        {
          "indexed": false,
          "internalType": "string",
          "name": "description",
          "type": "string"
        }
      ],
      "name": "Withdraw",
      "type": "event"
    },
    {
      "stateMutability": "payable",
      "type": "fallback"
    },
    {
      "inputs": [
        {
          "internalType": "bytes4",
          "name": "interfaceId",
          "type": "bytes4"
        }
      ],
      "name": "checkInterface",
      "outputs": [],
      "stateMutability": "view",
      "type": "function"
    },
    {
      "inputs": [],
      "name": "description",
      "outputs": [
        {
          "internalType": "string",
          "name": "",
          "type": "string"
        }
      ],
      "stateMutability": "view",
      "type": "function"
    },
    {
      "inputs": [],
      "name": "host",
      "outputs": [
        {
          "internalType": "contract IDAO",
          "name": "",
          "type": "address"
        }
      ],
      "stateMutability": "view",
      "type": "function"
    },
    {
      "inputs": [],
      "name": "impl",
      "outputs": [
        {
          "internalType": "address",
          "name": "",
          "type": "address"
        }
      ],
      "stateMutability": "view",
      "type": "function"
    },
    {
      "inputs": [],
      "name": "operator",
      "outputs": [
        {
          "internalType": "address",
          "name": "",
          "type": "address"
        }
      ],
      "stateMutability": "view",
      "type": "function"
    },
    {
      "inputs": [
        {
          "internalType": "string",
          "name": "value",
          "type": "string"
        }
      ],
      "name": "setDescription",
      "outputs": [],
      "stateMutability": "nonpayable",
      "type": "function"
    },
    {
      "inputs": [
        {
          "internalType": "address",
          "name": "operator_",
          "type": "address"
        }
      ],
      "name": "setOperator",
      "outputs": [],
      "stateMutability": "nonpayable",
      "type": "function"
    },
    {
      "inputs": [
        {
          "internalType": "bytes4",
          "name": "interfaceId",
          "type": "bytes4"
        }
      ],
      "name": "supportsInterface",
      "outputs": [
        {
          "internalType": "bool",
          "name": "",
          "type": "bool"
        }
      ],
      "stateMutability": "view",
      "type": "function"
    },
    {
      "inputs": [
        {
          "internalType": "address",
          "name": "impl_",
          "type": "address"
        }
      ],
      "name": "upgrade",
      "outputs": [],
      "stateMutability": "nonpayable",
      "type": "function"
    },
    {
      "stateMutability": "payable",
      "type": "receive"
    },
    {
      "inputs": [
        {
          "internalType": "address",
          "name": "host",
          "type": "address"
        },
        {
          "internalType": "string",
          "name": "description",
          "type": "string"
        },
        {
          "internalType": "address",
          "name": "operator",
          "type": "address"
        }
      ],
      "name": "initLedger",
      "outputs": [],
      "stateMutability": "nonpayable",
      "type": "function"
    },
    {
      "inputs": [],
      "name": "getBalance",
      "outputs": [
        {
          "internalType": "uint256",
          "name": "",
          "type": "uint256"
        }
      ],
      "stateMutability": "view",
      "type": "function"
    },
    {
      "inputs": [
        {
          "internalType": "string",
          "name": "name",
          "type": "string"
        },
        {
          "internalType": "string",
          "name": "description",
          "type": "string"
        }
      ],
      "name": "deposit",
      "outputs": [],
      "stateMutability": "payable",
      "type": "function"
    },
    {
      "inputs": [
        {
          "internalType": "contract IERC20",
          "name": "erc20",
          "type": "address"
        },
        {
          "internalType": "uint256",
          "name": "amount",
          "type": "uint256"
        },
        {
          "internalType": "address",
          "name": "target",
          "type": "address"
        },
        {
          "internalType": "string",
          "name": "description",
          "type": "string"
        }
      ],
      "name": "withdraw",
      "outputs": [],
      "stateMutability": "nonpayable",
      "type": "function"
    },
    {
      "inputs": [
        {
          "internalType": "contract IERC20",
          "name": "erc20",
          "type": "address"
        },
        {
          "internalType": "uint256",
          "name": "amount",
          "type": "uint256"
        },
        {
          "internalType": "string",
          "name": "description",
          "type": "string"
        }
      ],
      "name": "release",
      "outputs": [],
      "stateMutability": "nonpayable",
      "type": "function"
    }
  ],
  "bytecode": "0x608060405234801561001057600080fd5b506120c4806100206000396000f3fe6080604052600436106100e15760003560e01c80638abf60771161007f578063b3ab15fb11610059578063b3ab15fb14610268578063cf8e0cd114610288578063f437bc59146102a8578063f4c38e51146102c6576100f0565b80638abf60771461020a57806390c3f38f1461022857806395c66ddb14610248576100f0565b80634c6e425b116100bb5780634c6e425b14610183578063570ca735146101a35780637284e416146101d55780637a9b486d146101f7576100f0565b806301ffc9a7146100f85780630900f0101461014757806312065fe014610167576100f0565b366100f0576100ee6102e6565b005b6100ee6102e6565b34801561010457600080fd5b50610132610113366004611958565b6001600160e01b03191660009081526001602052604090205460ff1690565b60405190151581526020015b60405180910390f35b34801561015357600080fd5b506100ee61016236600461199e565b610335565b34801561017357600080fd5b506040513031815260200161013e565b34801561018f57600080fd5b506100ee61019e366004611958565b6103b2565b3480156101af57600080fd5b506003546001600160a01b03165b6040516001600160a01b03909116815260200161013e565b3480156101e157600080fd5b506101ea610400565b60405161013e9190611a0b565b6100ee610205366004611b0c565b610492565b34801561021657600080fd5b506000546001600160a01b03166101bd565b34801561023457600080fd5b506100ee610243366004611b70565b6104e2565b34801561025457600080fd5b506100ee610263366004611bad565b610639565b34801561027457600080fd5b506100ee61028336600461199e565b610a25565b34801561029457600080fd5b506100ee6102a3366004611c19565b610a9b565b3480156102b457600080fd5b506002546001600160a01b03166101bd565b3480156102d257600080fd5b506100ee6102e1366004611c72565b61154a565b34158015906102f85750600d5460ff16155b156103335760405134815233907fd6717f327e0cb88b4a97a7f67a453e9258252c34937ccbdd86de7cb840e7def39060200160405180910390a25b565b61033d61156a565b61035a57604051631b4004a360e31b815260040160405180910390fd5b600080546001600160a01b0319166001600160a01b0383169081179091556040519081526003907f7016719027ff29c13bc4816903851ea968172a86b766c733b954fdabe53c87ee906020015b60405180910390a250565b6001600160e01b0319811660009081526001602052604090205460ff166103fd57604051632aae78ef60e01b81526001600160e01b0319821660048201526024015b60405180910390fd5b50565b60606004805461040f90611cd6565b80601f016020809104026020016040519081016040528092919081815260200182805461043b90611cd6565b80156104885780601f1061045d57610100808354040283529160200191610488565b820191906000526020600020905b81548152906001019060200180831161046b57829003601f168201915b5050505050905090565b34156104de57336001600160a01b03167f7c13173c065e3a307058ee9baa4a75e787d82d38348af6720b8aca2c2c5222fd3484846040516104d593929190611d10565b60405180910390a25b5050565b63d0a4ad966104ef61156a565b6105f857600260009054906101000a90046001600160a01b03166001600160a01b031663e3f6b5446040518163ffffffff1660e01b8152600401602060405180830381865afa158015610546573d6000803e3d6000fd5b505050506040513d601f19601f8201168201806040525081019061056a9190611d45565b60405163a8a555c560e01b8152336004820152602481018390526001600160a01b03919091169063a8a555c590604401602060405180830381865afa1580156105b7573d6000803e3d6000fd5b505050506040513d601f19601f820116820180604052508101906105db9190611d62565b6105f857604051630782484160e21b815260040160405180910390fd5b60046106048382611dd2565b5060017f7016719027ff29c13bc4816903851ea968172a86b766c733b954fdabe53c87ee60006040516104d591815260200190565b63f108a7d261064661156a565b61074f57600260009054906101000a90046001600160a01b03166001600160a01b031663e3f6b5446040518163ffffffff1660e01b8152600401602060405180830381865afa15801561069d573d6000803e3d6000fd5b505050506040513d601f19601f820116820180604052508101906106c19190611d45565b60405163a8a555c560e01b8152336004820152602481018390526001600160a01b03919091169063a8a555c590604401602060405180830381865afa15801561070e573d6000803e3d6000fd5b505050506040513d601f19601f820116820180604052508101906107329190611d62565b61074f57604051630782484160e21b815260040160405180910390fd5b600d805460ff191660011790556001600160a01b03831661078357604051635bb7a72360e01b815260040160405180910390fd5b600260009054906101000a90046001600160a01b03166001600160a01b0316633df4ddf46040518163ffffffff1660e01b8152600401602060405180830381865afa1580156107d6573d6000803e3d6000fd5b505050506040513d601f19601f820116820180604052508101906107fa9190611d45565b60405163756af45f60e01b81526001600160a01b038781166004830152919091169063756af45f90602401600060405180830381600087803b15801561083f57600080fd5b505af1158015610853573d6000803e3d6000fd5b50505050600260009054906101000a90046001600160a01b03166001600160a01b0316635a8ac02d6040518163ffffffff1660e01b8152600401602060405180830381865afa1580156108aa573d6000803e3d6000fd5b505050506040513d601f19601f820116820180604052508101906108ce9190611d45565b60405163756af45f60e01b81526001600160a01b038781166004830152919091169063756af45f90602401600060405180830381600087803b15801561091357600080fd5b505af1158015610927573d6000803e3d6000fd5b5050506001600160a01b03861690506109525761094d6001600160a01b038416856116a9565b6109c7565b60405163a9059cbb60e01b81526001600160a01b0384811660048301526024820186905286169063a9059cbb906044016020604051808303816000875af11580156109a1573d6000803e3d6000fd5b505050506040513d601f19601f820116820180604052508101906109c59190611d62565b505b826001600160a01b0316856001600160a01b03167f8c73b702b261c879bc4ebea83f44bd0c9a90cffb4aa0f324e52750d831b9cb4f8685604051610a0c929190611e92565b60405180910390a35050600d805460ff19169055505050565b610a2d61156a565b610a4a57604051631b4004a360e31b815260040160405180910390fd5b600380546001600160a01b0319166001600160a01b0383169081179091556040519081526002907f7016719027ff29c13bc4816903851ea968172a86b766c733b954fdabe53c87ee906020016103a7565b63e0626f7e610aa861156a565b610bb157600260009054906101000a90046001600160a01b03166001600160a01b031663e3f6b5446040518163ffffffff1660e01b8152600401602060405180830381865afa158015610aff573d6000803e3d6000fd5b505050506040513d601f19601f82011682018060405250810190610b239190611d45565b60405163a8a555c560e01b8152336004820152602481018390526001600160a01b03919091169063a8a555c590604401602060405180830381865afa158015610b70573d6000803e3d6000fd5b505050506040513d601f19601f82011682018060405250810190610b949190611d62565b610bb157604051630782484160e21b815260040160405180910390fd5b600d805460ff1916600117905560025460408051630f7d377d60e21b815290516001600160a01b0390921691633df4ddf4916004808201926020929091908290030181865afa158015610c08573d6000803e3d6000fd5b505050506040513d601f19601f82011682018060405250810190610c2c9190611d45565b60405163756af45f60e01b81526001600160a01b038681166004830152919091169063756af45f90602401600060405180830381600087803b158015610c7157600080fd5b505af1158015610c85573d6000803e3d6000fd5b50505050600260009054906101000a90046001600160a01b03166001600160a01b0316635a8ac02d6040518163ffffffff1660e01b8152600401602060405180830381865afa158015610cdc573d6000803e3d6000fd5b505050506040513d601f19601f82011682018060405250810190610d009190611d45565b60405163756af45f60e01b81526001600160a01b038681166004830152919091169063756af45f90602401600060405180830381600087803b158015610d4557600080fd5b505af1158015610d59573d6000803e3d6000fd5b505050506001600160a01b0384161515600081610d77573031610ddf565b6040516370a0823160e01b81523060048201526001600160a01b038716906370a0823190602401602060405180830381865afa158015610dbb573d6000803e3d6000fd5b505050506040513d601f19601f82011682018060405250810190610ddf9190611eab565b905084811015610e025760405163f76273e960e01b815260040160405180910390fd5b6002546040805163a8d5fd6560e01b815290516000926001600160a01b03169163a8d5fd659160048083019260209291908290030181865afa158015610e4c573d6000803e3d6000fd5b505050506040513d601f19601f82011682018060405250810190610e709190611d45565b90506000600260009054906101000a90046001600160a01b03166001600160a01b031663e3f6b5446040518163ffffffff1660e01b8152600401602060405180830381865afa158015610ec7573d6000803e3d6000fd5b505050506040513d601f19601f82011682018060405250810190610eeb9190611d45565b90506001600160a01b0382161561119f576000600a836001600160a01b03166318160ddd6040518163ffffffff1660e01b8152600401602060405180830381865afa158015610f3e573d6000803e3d6000fd5b505050506040513d601f19601f82011682018060405250810190610f629190611eab565b901c90506000610f72828a611eda565b905080600003610f9557604051631e9acf1760e31b815260040160405180910390fd5b6000846001600160a01b031663243669ad6040518163ffffffff1660e01b8152600401602060405180830381865afa158015610fd5573d6000803e3d6000fd5b505050506040513d601f19601f82011682018060405250810190610ff99190611eab565b905060008060005b838110156111945760405163a42bbccd60e01b8152600481018290526001600160a01b0389169063a42bbccd906024016040805180830381865afa15801561104d573d6000803e3d6000fd5b505050506040513d601f19601f820116820180604052508101906110719190611efc565b909350600a1c9150811561118257600061108b8684611f2a565b90508a1561111e578e6001600160a01b031663a9059cbb85836040518363ffffffff1660e01b81526004016110d59291906001600160a01b03929092168252602082015260400190565b6020604051808303816000875af11580156110f4573d6000803e3d6000fd5b505050506040513d601f19601f820116820180604052508101906111189190611d62565b50611131565b6111316001600160a01b038516826116a9565b8e6001600160a01b0316846001600160a01b031660007f6e72ea682d15f739b6b9625b8e6bf24a75622654cba247efd4b4f93115dc707c8460405161117891815260200190565b60405180910390a4505b8061118c81611f47565b915050611001565b5050505050506114e9565b6000816001600160a01b031663e168c3ec6040518163ffffffff1660e01b8152600401602060405180830381865afa1580156111df573d6000803e3d6000fd5b505050506040513d601f19601f820116820180604052508101906112039190611eab565b90506000611211828a611eda565b9050806000036112345760405163f76273e960e01b815260040160405180910390fd5b6000836001600160a01b0316632ddbd13a6040518163ffffffff1660e01b8152600401602060405180830381865afa158015611274573d6000803e3d6000fd5b505050506040513d601f19601f820116820180604052508101906112989190611eab565b90506112d26040518060a0016040528060008152602001606081526020016060815260200160608152602001600063ffffffff1681525090565b60005b828110156114e35760405163a42bbccd60e01b8152600481018290526001600160a01b0387169063a42bbccd90602401600060405180830381865afa158015611322573d6000803e3d6000fd5b505050506040513d6000823e601f3d908101601f1916820160405261134a9190810190611fbe565b80516040516331a9108f60e11b815260048101919091529092506000906001600160a01b03881690636352211e90602401602060405180830381865afa158015611398573d6000803e3d6000fd5b505050506040513d601f19601f820116820180604052508101906113bc9190611d45565b9050600085846080015163ffffffff166113d69190611f2a565b90508a15611469578e6001600160a01b031663a9059cbb83836040518363ffffffff1660e01b81526004016114209291906001600160a01b03929092168252602082015260400190565b6020604051808303816000875af115801561143f573d6000803e3d6000fd5b505050506040513d601f19601f820116820180604052508101906114639190611d62565b5061147c565b61147c6001600160a01b038316826116a9565b8e6001600160a01b0316826001600160a01b031685600001517f6e72ea682d15f739b6b9625b8e6bf24a75622654cba247efd4b4f93115dc707c846040516114c691815260200190565b60405180910390a4505080806114db90611f47565b9150506112d5565b50505050505b876001600160a01b0316336001600160a01b03167f3e71d49b39fc549301e4814866c31559199ab6e27dee9882b31bdcd4dfb14ed4898960405161152e929190611e92565b60405180910390a35050600d805460ff19169055505050505050565b61155583838361173f565b61156563f4c38e5160e01b6117a3565b505050565b60035460009033906001600160a01b031681146116a157600260009054906101000a90046001600160a01b03166001600160a01b031663570ca7356040518163ffffffff1660e01b8152600401602060405180830381865afa1580156115d4573d6000803e3d6000fd5b505050506040513d601f19601f820116820180604052508101906115f89190611d45565b6001600160a01b0316816001600160a01b0316146116a157600260009054906101000a90046001600160a01b03166001600160a01b031663ebf0c7176040518163ffffffff1660e01b8152600401602060405180830381865afa158015611663573d6000803e3d6000fd5b505050506040513d601f19601f820116820180604052508101906116879190611d45565b6001600160a01b0316816001600160a01b03161491505090565b600191505090565b30318111156116cb57604051631e9acf1760e31b815260040160405180910390fd5b6000826001600160a01b03168260405160006040518083038185875af1925050503d8060008114611718576040519150601f19603f3d011682016040523d82523d6000602084013e61171d565b606091505b505090508061156557604051634cc9d21160e11b815260040160405180910390fd5b611747611825565b611757630d64f40d60e31b6117a3565b600280546001600160a01b0319166001600160a01b038516179055600461177e8382611dd2565b50600380546001600160a01b0319166001600160a01b03929092169190911790555050565b6001600160e01b031980821690036117fd5760405162461bcd60e51b815260206004820152601c60248201527f4552433136353a20696e76616c696420696e746572666163652069640000000060448201526064016103f4565b6001600160e01b0319166000908152600160208190526040909120805460ff19169091179055565b600054600160a81b900460ff161580801561184d57506000546001600160a01b90910460ff16105b8061186e5750303b15801561186e5750600054600160a01b900460ff166001145b6118d15760405162461bcd60e51b815260206004820152602e60248201527f496e697469616c697a61626c653a20636f6e747261637420697320616c72656160448201526d191e481a5b9a5d1a585b1a5e995960921b60648201526084016103f4565b6000805460ff60a01b1916600160a01b17905580156118fe576000805460ff60a81b1916600160a81b1790555b61190e6301ffc9a760e01b6117a3565b80156103fd576000805460ff60a81b19169055604051600181527f7f26b83ff96e1f2b6a682f133852f6798a09c465da95921460cefb38474024989060200160405180910390a150565b60006020828403121561196a57600080fd5b81356001600160e01b03198116811461198257600080fd5b9392505050565b6001600160a01b03811681146103fd57600080fd5b6000602082840312156119b057600080fd5b813561198281611989565b60005b838110156119d65781810151838201526020016119be565b50506000910152565b600081518084526119f78160208601602086016119bb565b601f01601f19169290920160200192915050565b60208152600061198260208301846119df565b634e487b7160e01b600052604160045260246000fd5b60405160a0810167ffffffffffffffff81118282101715611a5757611a57611a1e565b60405290565b604051601f8201601f1916810167ffffffffffffffff81118282101715611a8657611a86611a1e565b604052919050565b600067ffffffffffffffff821115611aa857611aa8611a1e565b50601f01601f191660200190565b600082601f830112611ac757600080fd5b8135611ada611ad582611a8e565b611a5d565b818152846020838601011115611aef57600080fd5b816020850160208301376000918101602001919091529392505050565b60008060408385031215611b1f57600080fd5b823567ffffffffffffffff80821115611b3757600080fd5b611b4386838701611ab6565b93506020850135915080821115611b5957600080fd5b50611b6685828601611ab6565b9150509250929050565b600060208284031215611b8257600080fd5b813567ffffffffffffffff811115611b9957600080fd5b611ba584828501611ab6565b949350505050565b60008060008060808587031215611bc357600080fd5b8435611bce81611989565b9350602085013592506040850135611be581611989565b9150606085013567ffffffffffffffff811115611c0157600080fd5b611c0d87828801611ab6565b91505092959194509250565b600080600060608486031215611c2e57600080fd5b8335611c3981611989565b925060208401359150604084013567ffffffffffffffff811115611c5c57600080fd5b611c6886828701611ab6565b9150509250925092565b600080600060608486031215611c8757600080fd5b8335611c9281611989565b9250602084013567ffffffffffffffff811115611cae57600080fd5b611cba86828701611ab6565b9250506040840135611ccb81611989565b809150509250925092565b600181811c90821680611cea57607f821691505b602082108103611d0a57634e487b7160e01b600052602260045260246000fd5b50919050565b838152606060208201526000611d2960608301856119df565b8281036040840152611d3b81856119df565b9695505050505050565b600060208284031215611d5757600080fd5b815161198281611989565b600060208284031215611d7457600080fd5b8151801515811461198257600080fd5b601f82111561156557600081815260208120601f850160051c81016020861015611dab5750805b601f850160051c820191505b81811015611dca57828155600101611db7565b505050505050565b815167ffffffffffffffff811115611dec57611dec611a1e565b611e0081611dfa8454611cd6565b84611d84565b602080601f831160018114611e355760008415611e1d5750858301515b600019600386901b1c1916600185901b178555611dca565b600085815260208120601f198616915b82811015611e6457888601518255948401946001909101908401611e45565b5085821015611e825787850151600019600388901b60f8161c191681555b5050505050600190811b01905550565b828152604060208201526000611ba560408301846119df565b600060208284031215611ebd57600080fd5b5051919050565b634e487b7160e01b600052601160045260246000fd5b600082611ef757634e487b7160e01b600052601260045260246000fd5b500490565b60008060408385031215611f0f57600080fd5b8251611f1a81611989565b6020939093015192949293505050565b8082028115828204841417611f4157611f41611ec4565b92915050565b600060018201611f5957611f59611ec4565b5060010190565b600082601f830112611f7157600080fd5b8151611f7f611ad582611a8e565b818152846020838601011115611f9457600080fd5b611ba58260208301602087016119bb565b805163ffffffff81168114611fb957600080fd5b919050565b600060208284031215611fd057600080fd5b815167ffffffffffffffff80821115611fe857600080fd5b9083019060a08286031215611ffc57600080fd5b612004611a34565b8251815260208301518281111561201a57600080fd5b61202687828601611f60565b60208301525060408301518281111561203e57600080fd5b61204a87828601611f60565b60408301525060608301518281111561206257600080fd5b61206e87828601611f60565b60608301525061208060808401611fa5565b60808201529594505050505056fea2646970667358221220737ef28f136768b1707caabff1362f95b7e0497ccac19e285a28640de7c3c4b964736f6c63430008110033",
  "immutableReferences": {},
  "source": "// SPDX-License-Identifier: MIT\npragma solidity ~0.8.17;\n\npragma experimental ABIEncoderV2;\n\nimport './libs/Interface.sol';\nimport './Module.sol';\n\n/**\n * @title Ledger manage\n */\ncontract Ledger is ILedger, Module {\n\tusing AddressExp for address;\n\n\tbool private _IsDisableReceiveLog;\n\n\tuint256[16] private __; // reserved storage space\n\n\tmodifier _DisableReceiveLog() {\n\t\t_IsDisableReceiveLog = true;\n\t\t_;\n\t\t_IsDisableReceiveLog = false;\n\t}\n\n\treceive() external payable {\n\t\treceiveBalance();\n\t}\n\n\tfallback() external payable {\n\t\treceiveBalance();\n\t}\n\n\tfunction initLedger(address host, string memory description, address operator) external {\n\t\tinitModule(host, description, operator);\n\t\t_registerInterface(Ledger_Type);\n\t}\n\n\tfunction getBalance() view public returns (uint256) {\n\t\treturn address(this).balance;\n\t}\n\n\tfunction receiveBalance() internal {\n\t\tif (msg.value != 0 && !_IsDisableReceiveLog)\n\t\t\temit Receive(msg.sender, msg.value);\n\t}\n\n\tfunction deposit(string memory name, string memory description) public payable {\n\t\tif (msg.value != 0)\n\t\t\temit Deposit(msg.sender, msg.value, name, description);\n\t}\n\n\tfunction withdraw(IERC20 erc20, uint256 amount, address target, string memory description) public\n\t\tCheck(Action_Ledger_Withdraw)\n\t\t_DisableReceiveLog\n\t{\n\t\tif (target == address(0)) revert AddressEmpty();\n\n\t\t_host.first().withdrawBalance(erc20);\n\t\t_host.second().withdrawBalance(erc20);\n\n\t\tif (address(erc20) == address(0)) {\n\t\t\ttarget.sendValue(amount);\n\t\t} else {\n\t\t\terc20.transfer(target, amount);\n\t\t}\n\t\temit Withdraw(address(erc20), target, amount, description);\n\t}\n\n\tfunction release(IERC20 erc20, uint256 amount, string memory description) external\n\t\tCheck(Action_Ledger_Release)\n\t\t_DisableReceiveLog\n\t{\n\t\t_host.first().withdrawBalance(erc20);\n\t\t_host.second().withdrawBalance(erc20);\n\n\t\tbool isERC20 = address(erc20) != address(0);\n\t\tuint256 cur_amount = isERC20 ? erc20.balanceOf(address(this)): getBalance();\n\n\t\t// insufficient balance;\n\t\tif (cur_amount < amount) revert AmountMinimumLimit();\n\n\t\tIShare s = _host.share();\n\t\tIMember m = _host.member();\n\n\t\tif (address(s) != address(0)) { // Same share but different rights\n\t\t\t// decimals = 5 , 1/100_000\n\t\t\tuint256 totalSupply = s.totalSupply() >> 10;// 1/1024;\n\t\t\tuint256 unit = amount / totalSupply;\n\n\t\t\tif (unit == 0) revert InsufficientBalance();\n\n\t\t\tuint256 owners = s.totalOwners();\n\t\t\taddress owner;\n\t\t\tuint256 share;\n\n\t\t\tfor (uint256 i = 0; i < owners; i++) {\n\t\t\t\t(owner,share) = s.indexAt(i);\n\t\t\t\tshare >>= 10; // 1/1024\n\t\t\t\tif (share != 0) {\n\t\t\t\t\tuint256 value = share * unit;\n\t\t\t\t\tif (isERC20) {\n\t\t\t\t\t\terc20.transfer(owner, value);\n\t\t\t\t\t} else {\n\t\t\t\t\t\towner.sendValue(value);\n\t\t\t\t\t}\n\t\t\t\t\temit Release(0, owner, address(erc20), value);\n\t\t\t\t}\n\t\t\t}\n\t\t} else {\n\t\t\tuint256 votes = m.votes();\n\t\t\tuint256 unit = amount / votes;\n\n\t\t\t// insufficient balance release\n\t\t\tif (unit == 0) revert AmountMinimumLimit();\n\n\t\t\tuint256 total = m.total();\n\t\t\tIMember.Info memory info;\n\n\t\t\tfor (uint256 i = 0; i < total; i++) {\n\t\t\t\tinfo = m.indexAt(i);\n\t\t\t\taddress owner = m.ownerOf(info.id);\n\t\t\t\tuint256 value = info.votes * unit;\n\t\t\t\tif (isERC20) {\n\t\t\t\t\terc20.transfer(owner, value);\n\t\t\t\t} else {\n\t\t\t\t\towner.sendValue(value);\n\t\t\t\t}\n\t\t\t\temit Release(info.id, owner, address(erc20), value);\n\t\t\t}\n\t\t}\n\n\t\temit ReleaseLog(msg.sender,  address(erc20), amount, description);\n\t}\n\n}",
  "sourcePath": "/Users/louis/Project/hc/NFTSwap/SmartHolder/contracts/Ledger.sol",
  "compiler": {
    "name": "solc",
    "version": "0.8.17+commit.8df45f5f.Emscripten.clang"
  },
  "schemaVersion": "3.4.11",
  "updatedAt": "2023-05-25T08:10:25.504Z",
  "devdoc": {
    "kind": "dev",
    "methods": {
      "supportsInterface(bytes4)": {
        "details": "See {IERC165-supportsInterface}. Time complexity O(1), guaranteed to always use less than 30 000 gas."
      }
    },
    "title": "Ledger manage",
    "version": 1
  },
  "userdoc": {
    "kind": "user",
    "methods": {},
    "version": 1
  }
}