{
  "contractName": "Ledger",
  "abi": [
    {
      "anonymous": false,
      "inputs": [
        {
          "indexed": true,
          "internalType": "address",
          "name": "token",
          "type": "address"
        },
        {
          "indexed": true,
          "internalType": "uint256",
          "name": "tokenId",
          "type": "uint256"
        },
        {
          "indexed": true,
          "internalType": "address",
          "name": "source",
          "type": "address"
        },
        {
          "indexed": false,
          "internalType": "address",
          "name": "to",
          "type": "address"
        },
        {
          "indexed": false,
          "internalType": "uint256",
          "name": "balance",
          "type": "uint256"
        },
        {
          "indexed": false,
          "internalType": "uint256",
          "name": "price",
          "type": "uint256"
        },
        {
          "indexed": false,
          "internalType": "enum IAssetShell.SaleType",
          "name": "saleType",
          "type": "uint8"
        }
      ],
      "name": "AssetIncome",
      "type": "event"
    },
    {
      "anonymous": false,
      "inputs": [
        {
          "indexed": true,
          "internalType": "uint256",
          "name": "tag",
          "type": "uint256"
        },
        {
          "indexed": false,
          "internalType": "uint256",
          "name": "value",
          "type": "uint256"
        }
      ],
      "name": "Change",
      "type": "event"
    },
    {
      "anonymous": false,
      "inputs": [
        {
          "indexed": true,
          "internalType": "address",
          "name": "from",
          "type": "address"
        },
        {
          "indexed": false,
          "internalType": "uint256",
          "name": "balance",
          "type": "uint256"
        },
        {
          "indexed": false,
          "internalType": "string",
          "name": "name",
          "type": "string"
        },
        {
          "indexed": false,
          "internalType": "string",
          "name": "description",
          "type": "string"
        }
      ],
      "name": "Deposit",
      "type": "event"
    },
    {
      "anonymous": false,
      "inputs": [
        {
          "indexed": true,
          "internalType": "address",
          "name": "from",
          "type": "address"
        },
        {
          "indexed": false,
          "internalType": "uint256",
          "name": "balance",
          "type": "uint256"
        }
      ],
      "name": "Receive",
      "type": "event"
    },
    {
      "anonymous": false,
      "inputs": [
        {
          "indexed": true,
          "internalType": "uint256",
          "name": "member",
          "type": "uint256"
        },
        {
          "indexed": true,
          "internalType": "address",
          "name": "to",
          "type": "address"
        },
        {
          "indexed": false,
          "internalType": "uint256",
          "name": "balance",
          "type": "uint256"
        }
      ],
      "name": "Release",
      "type": "event"
    },
    {
      "anonymous": false,
      "inputs": [
        {
          "indexed": true,
          "internalType": "address",
          "name": "operator",
          "type": "address"
        },
        {
          "indexed": false,
          "internalType": "uint256",
          "name": "balance",
          "type": "uint256"
        },
        {
          "indexed": false,
          "internalType": "string",
          "name": "log",
          "type": "string"
        }
      ],
      "name": "ReleaseLog",
      "type": "event"
    },
    {
      "anonymous": false,
      "inputs": [
        {
          "indexed": true,
          "internalType": "address",
          "name": "target",
          "type": "address"
        },
        {
          "indexed": false,
          "internalType": "uint256",
          "name": "balance",
          "type": "uint256"
        },
        {
          "indexed": false,
          "internalType": "string",
          "name": "description",
          "type": "string"
        }
      ],
      "name": "Withdraw",
      "type": "event"
    },
    {
      "stateMutability": "payable",
      "type": "fallback"
    },
    {
      "inputs": [
        {
          "internalType": "bytes4",
          "name": "interfaceId",
          "type": "bytes4"
        },
        {
          "internalType": "string",
          "name": "message",
          "type": "string"
        }
      ],
      "name": "checkInterface",
      "outputs": [],
      "stateMutability": "view",
      "type": "function"
    },
    {
      "inputs": [],
      "name": "description",
      "outputs": [
        {
          "internalType": "string",
          "name": "",
          "type": "string"
        }
      ],
      "stateMutability": "view",
      "type": "function"
    },
    {
      "inputs": [],
      "name": "host",
      "outputs": [
        {
          "internalType": "contract IDAO",
          "name": "",
          "type": "address"
        }
      ],
      "stateMutability": "view",
      "type": "function"
    },
    {
      "inputs": [],
      "name": "impl",
      "outputs": [
        {
          "internalType": "address",
          "name": "",
          "type": "address"
        }
      ],
      "stateMutability": "view",
      "type": "function"
    },
    {
      "inputs": [],
      "name": "operator",
      "outputs": [
        {
          "internalType": "address",
          "name": "",
          "type": "address"
        }
      ],
      "stateMutability": "view",
      "type": "function"
    },
    {
      "inputs": [
        {
          "internalType": "string",
          "name": "value",
          "type": "string"
        }
      ],
      "name": "setDescription",
      "outputs": [],
      "stateMutability": "nonpayable",
      "type": "function"
    },
    {
      "inputs": [
        {
          "internalType": "address",
          "name": "operator",
          "type": "address"
        }
      ],
      "name": "setOperator",
      "outputs": [],
      "stateMutability": "nonpayable",
      "type": "function"
    },
    {
      "inputs": [
        {
          "internalType": "bytes4",
          "name": "interfaceId",
          "type": "bytes4"
        }
      ],
      "name": "supportsInterface",
      "outputs": [
        {
          "internalType": "bool",
          "name": "",
          "type": "bool"
        }
      ],
      "stateMutability": "view",
      "type": "function"
    },
    {
      "inputs": [
        {
          "internalType": "address",
          "name": "impl",
          "type": "address"
        }
      ],
      "name": "upgrade",
      "outputs": [],
      "stateMutability": "nonpayable",
      "type": "function"
    },
    {
      "stateMutability": "payable",
      "type": "receive"
    },
    {
      "inputs": [
        {
          "internalType": "address",
          "name": "host",
          "type": "address"
        },
        {
          "internalType": "string",
          "name": "description",
          "type": "string"
        },
        {
          "internalType": "address",
          "name": "operator",
          "type": "address"
        }
      ],
      "name": "initLedger",
      "outputs": [],
      "stateMutability": "nonpayable",
      "type": "function"
    },
    {
      "inputs": [],
      "name": "getBalance",
      "outputs": [
        {
          "internalType": "uint256",
          "name": "",
          "type": "uint256"
        }
      ],
      "stateMutability": "view",
      "type": "function"
    },
    {
      "inputs": [
        {
          "internalType": "uint256",
          "name": "amount",
          "type": "uint256"
        },
        {
          "internalType": "string",
          "name": "description",
          "type": "string"
        }
      ],
      "name": "release",
      "outputs": [],
      "stateMutability": "payable",
      "type": "function"
    },
    {
      "inputs": [
        {
          "internalType": "string",
          "name": "name",
          "type": "string"
        },
        {
          "internalType": "string",
          "name": "description",
          "type": "string"
        }
      ],
      "name": "deposit",
      "outputs": [],
      "stateMutability": "payable",
      "type": "function"
    },
    {
      "inputs": [
        {
          "internalType": "address",
          "name": "token",
          "type": "address"
        },
        {
          "internalType": "uint256",
          "name": "tokenId",
          "type": "uint256"
        },
        {
          "internalType": "address",
          "name": "source",
          "type": "address"
        },
        {
          "internalType": "address",
          "name": "to",
          "type": "address"
        },
        {
          "internalType": "uint256",
          "name": "price",
          "type": "uint256"
        },
        {
          "internalType": "enum IAssetShell.SaleType",
          "name": "saleType",
          "type": "uint8"
        }
      ],
      "name": "assetIncome",
      "outputs": [],
      "stateMutability": "payable",
      "type": "function"
    },
    {
      "inputs": [
        {
          "internalType": "uint256",
          "name": "amount",
          "type": "uint256"
        },
        {
          "internalType": "address",
          "name": "target",
          "type": "address"
        },
        {
          "internalType": "string",
          "name": "description",
          "type": "string"
        }
      ],
      "name": "withdraw",
      "outputs": [],
      "stateMutability": "payable",
      "type": "function"
    }
  ],
  "bytecode": "0x608060405234801561001057600080fd5b50611c5f806100206000396000f3fe6080604052600436106100ec5760003560e01c806390c3f38f1161008a578063e0626f7e11610059578063e0626f7e14610286578063f108a7d214610299578063f437bc59146102ac578063f4c38e51146102ca576100fb565b806390c3f38f14610213578063b3ab15fb14610233578063c64df69d14610253578063c898f11614610273576100fb565b8063570ca735116100c6578063570ca7351461018e5780637284e416146101c05780637a9b486d146101e25780638abf6077146101f5576100fb565b806301ffc9a7146101035780630900f0101461015257806312065fe014610172576100fb565b366100fb576100f96102ea565b005b6100f96102ea565b34801561010f57600080fd5b5061013d61011e366004611417565b6001600160e01b03191660009081526001602052604090205460ff1690565b60405190151581526020015b60405180910390f35b34801561015e57600080fd5b506100f961016d36600461144e565b610328565b34801561017e57600080fd5b5060405130318152602001610149565b34801561019a57600080fd5b506003546001600160a01b03165b6040516001600160a01b039091168152602001610149565b3480156101cc57600080fd5b506101d56103ad565b60405161014991906114bb565b6100f96101f03660046115bc565b61043f565b34801561020157600080fd5b506000546001600160a01b03166101a8565b34801561021f57600080fd5b506100f961022e366004611620565b610494565b34801561023f57600080fd5b506100f961024e36600461144e565b6105ea565b34801561025f57600080fd5b506100f961026e36600461165d565b61065f565b6100f96102813660046116a1565b6106a0565b6100f9610294366004611715565b61075c565b6100f96102a7366004611746565b610dd9565b3480156102b857600080fd5b506002546001600160a01b03166101a8565b3480156102d657600080fd5b506100f96102e536600461179f565b610fc0565b34156103265760405134815233907fd6717f327e0cb88b4a97a7f67a453e9258252c34937ccbdd86de7cb840e7def39060200160405180910390a25b565b610330610fdb565b6103555760405162461bcd60e51b815260040161034c90611803565b60405180910390fd5b600080546001600160a01b0319166001600160a01b0383169081179091556040519081526003907f7016719027ff29c13bc4816903851ea968172a86b766c733b954fdabe53c87ee906020015b60405180910390a250565b6060600480546103bc90611859565b80601f01602080910402602001604051908101604052809291908181526020018280546103e890611859565b80156104355780601f1061040a57610100808354040283529160200191610435565b820191906000526020600020905b81548152906001019060200180831161041857829003601f168201915b5050505050905090565b3460000361044b575050565b336001600160a01b03167f7c13173c065e3a307058ee9baa4a75e787d82d38348af6720b8aca2c2c5222fd34848460405161048893929190611893565b60405180910390a25050565b63d0a4ad966104a1610fdb565b6105a957600260009054906101000a90046001600160a01b03166001600160a01b031663e3f6b5446040518163ffffffff1660e01b8152600401602060405180830381865afa1580156104f8573d6000803e3d6000fd5b505050506040513d601f19601f8201168201806040525081019061051c91906118c8565b60405163a8a555c560e01b8152336004820152602481018390526001600160a01b03919091169063a8a555c590604401602060405180830381865afa158015610569573d6000803e3d6000fd5b505050506040513d601f19601f8201168201806040525081019061058d91906118e5565b6105a95760405162461bcd60e51b815260040161034c90611803565b60046105b58382611955565b5060017f7016719027ff29c13bc4816903851ea968172a86b766c733b954fdabe53c87ee600060405161048891815260200190565b6105f2610fdb565b61060e5760405162461bcd60e51b815260040161034c90611803565b600380546001600160a01b0319166001600160a01b0383169081179091556040519081526002907f7016719027ff29c13bc4816903851ea968172a86b766c733b954fdabe53c87ee906020016103a2565b6001600160e01b0319821660009081526001602052604090205460ff16819061069b5760405162461bcd60e51b815260040161034c91906114bb565b505050565b346000036107025760405162461bcd60e51b815260206004820152602960248201527f234c6564676572236173736574496e636f6d652070726f6669742063616e6e6f60448201526874206265207a65726f60b81b606482015260840161034c565b836001600160a01b031685876001600160a01b03167f465bee969ca5be6b54c0650ebb87c8f7dabceda8e26bed2460406115175566828634878760405161074c9493929190611a15565b60405180910390a4505050505050565b63f108a7d2610769610fdb565b61087157600260009054906101000a90046001600160a01b03166001600160a01b031663e3f6b5446040518163ffffffff1660e01b8152600401602060405180830381865afa1580156107c0573d6000803e3d6000fd5b505050506040513d601f19601f820116820180604052508101906107e491906118c8565b60405163a8a555c560e01b8152336004820152602481018390526001600160a01b03919091169063a8a555c590604401602060405180830381865afa158015610831573d6000803e3d6000fd5b505050506040513d601f19601f8201168201806040525081019061085591906118e5565b6108715760405162461bcd60e51b815260040161034c90611803565b6108796102ea565b3031838110156108d75760405162461bcd60e51b8152602060048201526024808201527f234c65646765722372656c6561736520696e73756666696369656e742062616c604482015263616e636560e01b606482015260840161034c565b600254604080516338fdad5160e21b815290516000926001600160a01b03169163e3f6b5449160048083019260209291908290030181865afa158015610921573d6000803e3d6000fd5b505050506040513d601f19601f8201168201806040525081019061094591906118c8565b6001600160a01b031663e168c3ec6040518163ffffffff1660e01b8152600401602060405180830381865afa158015610982573d6000803e3d6000fd5b505050506040513d601f19601f820116820180604052508101906109a69190611a60565b905060006109b48287611a8f565b905080600003610a1b5760405162461bcd60e51b815260206004820152602c60248201527f234c65646765722372656c6561736520696e73756666696369656e742062616c60448201526b616e63652072656c6561736560a01b606482015260840161034c565b600254604080516338fdad5160e21b815290516000926001600160a01b03169163e3f6b5449160048083019260209291908290030181865afa158015610a65573d6000803e3d6000fd5b505050506040513d601f19601f82011682018060405250810190610a8991906118c8565b6001600160a01b0316632ddbd13a6040518163ffffffff1660e01b8152600401602060405180830381865afa158015610ac6573d6000803e3d6000fd5b505050506040513d601f19601f82011682018060405250810190610aea9190611a60565b9050610b246040518060a0016040528060008152602001606081526020016060815260200160608152602001600063ffffffff1681525090565b60005b82811015610d8b57600260009054906101000a90046001600160a01b03166001600160a01b031663e3f6b5446040518163ffffffff1660e01b8152600401602060405180830381865afa158015610b82573d6000803e3d6000fd5b505050506040513d601f19601f82011682018060405250810190610ba691906118c8565b6001600160a01b031663a42bbccd826040518263ffffffff1660e01b8152600401610bd391815260200190565b600060405180830381865afa158015610bf0573d6000803e3d6000fd5b505050506040513d6000823e601f3d908101601f19168201604052610c189190810190611b0a565b91506000600260009054906101000a90046001600160a01b03166001600160a01b031663e3f6b5446040518163ffffffff1660e01b8152600401602060405180830381865afa158015610c6f573d6000803e3d6000fd5b505050506040513d601f19601f82011682018060405250810190610c9391906118c8565b83516040516331a9108f60e11b81526001600160a01b039290921691636352211e91610cc59160040190815260200190565b602060405180830381865afa158015610ce2573d6000803e3d6000fd5b505050506040513d601f19601f82011682018060405250810190610d0691906118c8565b9050600085846080015163ffffffff16610d209190611bda565b9050610d356001600160a01b0383168261111a565b83516040518281526001600160a01b03841691907fe332e9963bc980fb82ccd3e7e181d76bddde349eec46b4ba393f3444529cd17f9060200160405180910390a350508080610d8390611bf7565b915050610b27565b50336001600160a01b03167f4509e941867cecb397984b952fe483965c463c0bbbee9f617173d844bbf677908989604051610dc7929190611c10565b60405180910390a25050505050505050565b63f108a7d2610de6610fdb565b610eee57600260009054906101000a90046001600160a01b03166001600160a01b031663e3f6b5446040518163ffffffff1660e01b8152600401602060405180830381865afa158015610e3d573d6000803e3d6000fd5b505050506040513d601f19601f82011682018060405250810190610e6191906118c8565b60405163a8a555c560e01b8152336004820152602481018390526001600160a01b03919091169063a8a555c590604401602060405180830381865afa158015610eae573d6000803e3d6000fd5b505050506040513d601f19601f82011682018060405250810190610ed291906118e5565b610eee5760405162461bcd60e51b815260040161034c90611803565b6001600160a01b038316610f5c5760405162461bcd60e51b815260206004820152602f60248201527f234c65646765722377697468647261772072656365697665206173737265737360448201526e206e6f74206164647265737328302960881b606482015260840161034c565b610f646102ea565b610f776001600160a01b0384168561111a565b826001600160a01b03167f485f1bb6524c663555797e00171a10f341656e59b02d6b557a0a38ba7d5d97518584604051610fb2929190611c10565b60405180910390a250505050565b610fcb838383611234565b61069b63f4c38e5160e01b611298565b60035460009033906001600160a01b0316811461111257600260009054906101000a90046001600160a01b03166001600160a01b031663570ca7356040518163ffffffff1660e01b8152600401602060405180830381865afa158015611045573d6000803e3d6000fd5b505050506040513d601f19601f8201168201806040525081019061106991906118c8565b6001600160a01b0316816001600160a01b03161461111257600260009054906101000a90046001600160a01b03166001600160a01b031663ebf0c7176040518163ffffffff1660e01b8152600401602060405180830381865afa1580156110d4573d6000803e3d6000fd5b505050506040513d601f19601f820116820180604052508101906110f891906118c8565b6001600160a01b0316816001600160a01b03161491505090565b600191505090565b303181111561116b5760405162461bcd60e51b815260206004820152601d60248201527f416464726573733a20696e73756666696369656e742062616c616e6365000000604482015260640161034c565b6000826001600160a01b03168260405160006040518083038185875af1925050503d80600081146111b8576040519150601f19603f3d011682016040523d82523d6000602084013e6111bd565b606091505b505090508061069b5760405162461bcd60e51b815260206004820152603a60248201527f416464726573733a20756e61626c6520746f2073656e642076616c75652c207260448201527f6563697069656e74206d61792068617665207265766572746564000000000000606482015260840161034c565b61123c61131a565b61124c630d64f40d60e31b611298565b600280546001600160a01b0319166001600160a01b03851617905560046112738382611955565b50600380546001600160a01b0319166001600160a01b03929092169190911790555050565b6001600160e01b031980821690036112f25760405162461bcd60e51b815260206004820152601c60248201527f4552433136353a20696e76616c696420696e7465726661636520696400000000604482015260640161034c565b6001600160e01b0319166000908152600160208190526040909120805460ff19169091179055565b600054600160a81b900460ff16806113315750303b155b806113465750600054600160a01b900460ff16155b6113a95760405162461bcd60e51b815260206004820152602e60248201527f436f6e747261637420696e7374616e63652068617320616c726561647920626560448201526d195b881a5b9a5d1a585b1a5e995960921b606482015260840161034c565b600054600160a81b900460ff161580156113d3576000805461ffff60a01b191661010160a01b1790555b6113e36301ffc9a760e01b611298565b80156113f7576000805460ff60a81b191690555b50565b80356001600160e01b03198116811461141257600080fd5b919050565b60006020828403121561142957600080fd5b611432826113fa565b9392505050565b6001600160a01b03811681146113f757600080fd5b60006020828403121561146057600080fd5b813561143281611439565b60005b8381101561148657818101518382015260200161146e565b50506000910152565b600081518084526114a781602086016020860161146b565b601f01601f19169290920160200192915050565b602081526000611432602083018461148f565b634e487b7160e01b600052604160045260246000fd5b60405160a0810167ffffffffffffffff81118282101715611507576115076114ce565b60405290565b604051601f8201601f1916810167ffffffffffffffff81118282101715611536576115366114ce565b604052919050565b600067ffffffffffffffff821115611558576115586114ce565b50601f01601f191660200190565b600082601f83011261157757600080fd5b813561158a6115858261153e565b61150d565b81815284602083860101111561159f57600080fd5b816020850160208301376000918101602001919091529392505050565b600080604083850312156115cf57600080fd5b823567ffffffffffffffff808211156115e757600080fd5b6115f386838701611566565b9350602085013591508082111561160957600080fd5b5061161685828601611566565b9150509250929050565b60006020828403121561163257600080fd5b813567ffffffffffffffff81111561164957600080fd5b61165584828501611566565b949350505050565b6000806040838503121561167057600080fd5b611679836113fa565b9150602083013567ffffffffffffffff81111561169557600080fd5b61161685828601611566565b60008060008060008060c087890312156116ba57600080fd5b86356116c581611439565b95506020870135945060408701356116dc81611439565b935060608701356116ec81611439565b92506080870135915060a08701356003811061170757600080fd5b809150509295509295509295565b6000806040838503121561172857600080fd5b82359150602083013567ffffffffffffffff81111561169557600080fd5b60008060006060848603121561175b57600080fd5b83359250602084013561176d81611439565b9150604084013567ffffffffffffffff81111561178957600080fd5b61179586828701611566565b9150509250925092565b6000806000606084860312156117b457600080fd5b83356117bf81611439565b9250602084013567ffffffffffffffff8111156117db57600080fd5b6117e786828701611566565b92505060408401356117f881611439565b809150509250925092565b60208082526036908201527f235065726d697373696f6e436865636b23436865636b2063616c6c657220646f60408201527532b9903737ba103430bb32903832b936b4b9b9b4b7b760511b606082015260800190565b600181811c9082168061186d57607f821691505b60208210810361188d57634e487b7160e01b600052602260045260246000fd5b50919050565b8381526060602082015260006118ac606083018561148f565b82810360408401526118be818561148f565b9695505050505050565b6000602082840312156118da57600080fd5b815161143281611439565b6000602082840312156118f757600080fd5b8151801515811461143257600080fd5b601f82111561069b57600081815260208120601f850160051c8101602086101561192e5750805b601f850160051c820191505b8181101561194d5782815560010161193a565b505050505050565b815167ffffffffffffffff81111561196f5761196f6114ce565b6119838161197d8454611859565b84611907565b602080601f8311600181146119b857600084156119a05750858301515b600019600386901b1c1916600185901b17855561194d565b600085815260208120601f198616915b828110156119e7578886015182559484019460019091019084016119c8565b5085821015611a055787850151600019600388901b60f8161c191681555b5050505050600190811b01905550565b6001600160a01b038516815260208101849052604081018390526080810160038310611a5157634e487b7160e01b600052602160045260246000fd5b82606083015295945050505050565b600060208284031215611a7257600080fd5b5051919050565b634e487b7160e01b600052601160045260246000fd5b600082611aac57634e487b7160e01b600052601260045260246000fd5b500490565b600082601f830112611ac257600080fd5b8151611ad06115858261153e565b818152846020838601011115611ae557600080fd5b61165582602083016020870161146b565b805163ffffffff8116811461141257600080fd5b600060208284031215611b1c57600080fd5b815167ffffffffffffffff80821115611b3457600080fd5b9083019060a08286031215611b4857600080fd5b611b506114e4565b82518152602083015182811115611b6657600080fd5b611b7287828601611ab1565b602083015250604083015182811115611b8a57600080fd5b611b9687828601611ab1565b604083015250606083015182811115611bae57600080fd5b611bba87828601611ab1565b606083015250611bcc60808401611af6565b608082015295945050505050565b8082028115828204841417611bf157611bf1611a79565b92915050565b600060018201611c0957611c09611a79565b5060010190565b828152604060208201526000611655604083018461148f56fea2646970667358221220ef40ac8fdd513d619989cebe48cecc1ca063a008283bee7fd7d2c967bf57138a64736f6c63430008110033",
  "immutableReferences": {},
  "source": "// SPDX-License-Identifier: MIT\npragma solidity 0.8.17;\n\npragma experimental ABIEncoderV2;\n\nimport './libs/Interface.sol';\nimport './Module.sol';\n\n/**\n * @title Ledger manage\n */\ncontract Ledger is ILedger, Module {\n\tusing AddressExp for address;\n\n\tuint256[16] private __; // reserved storage space\n\n\tfunction initLedger(address host, string memory description, address operator) external {\n\t\tinitModule(host, description, operator);\n\t\t_registerInterface(Ledger_Type);\n\t}\n\n\tfunction receiveBalance() internal {\n\t\tif (msg.value != 0) {\n\t\t\temit Receive(msg.sender, msg.value);\n\t\t}\n\t}\n\n\tfunction getBalance() view public returns (uint256) {\n\t\treturn address(this).balance;\n\t}\n\n\tfunction release(uint256 amount, string memory description) external payable Check(Action_Ledger_Withdraw) {\n\t\treceiveBalance();\n\n\t\tuint256 curamount = address(this).balance;\n\t\trequire(curamount >= amount, \"#Ledger#release insufficient balance\");\n\n\t\tuint256 votes = _host.member().votes();\n\t\tuint256 unit = amount / votes;\n\n\t\trequire(unit != 0 , \"#Ledger#release insufficient balance release\");\n\n\t\tuint256 total = _host.member().total();\n\n\t\tIMember.Info memory info;\n\n\t\tfor (uint256 i = 0; i < total; i++) {\n\t\t\tinfo = _host.member().indexAt(i);\n\t\t\taddress owner = _host.member().ownerOf(info.id);\n\t\t\tuint256 balance = info.votes * unit;\n\t\t\towner.sendValue(balance);\n\t\t\temit Release(info.id, owner, balance);\n\t\t}\n\n\t\temit ReleaseLog(msg.sender, amount, description);\n\t}\n\n\tfunction deposit(string memory name, string memory description) public payable {\n\t\tif (msg.value == 0) return;\n\t\temit Deposit(msg.sender, msg.value, name, description);\n\t}\n\n\tfunction assetIncome(\n\t\taddress token,   uint256 tokenId,\n\t\taddress source,  address to,\n\t\tuint256 price,   IAssetShell.SaleType saleType\n\t) public payable override {\n\t\trequire(msg.value != 0, \"#Ledger#assetIncome profit cannot be zero\");\n\t\temit AssetIncome(token, tokenId, source, to, msg.value, price, saleType);\n\t}\n\n\tfunction withdraw(uint256 amount, address target, string memory description) external payable override Check(Action_Ledger_Withdraw) {\n\t\trequire(target != address(0), \"#Ledger#withdraw receive assress not address(0)\");\n\t\treceiveBalance();\n\t\ttarget.sendValue(amount);\n\t\temit Withdraw(target, amount, description);\n\t}\n\n\treceive() external payable {\n\t\treceiveBalance();\n\t}\n\n\tfallback() external payable {\n\t\treceiveBalance();\n\t}\n\n}",
  "sourcePath": "/Users/louis/Project/hc/NFTSwap/SmartHolder/contracts/Ledger.sol",
  "compiler": {
    "name": "solc",
    "version": "0.8.17+commit.8df45f5f.Emscripten.clang"
  },
  "schemaVersion": "3.4.11",
  "updatedAt": "2023-02-13T07:46:53.484Z",
  "networkType": "ethereum",
  "devdoc": {
    "kind": "dev",
    "methods": {
      "supportsInterface(bytes4)": {
        "details": "See {IERC165-supportsInterface}. Time complexity O(1), guaranteed to always use less than 30 000 gas."
      }
    },
    "title": "Ledger manage",
    "version": 1
  },
  "userdoc": {
    "kind": "user",
    "methods": {},
    "version": 1
  }
}