{
  "contractName": "Ledger",
  "abi": [
    {
      "anonymous": false,
      "inputs": [
        {
          "indexed": true,
          "internalType": "address",
          "name": "token",
          "type": "address"
        },
        {
          "indexed": true,
          "internalType": "uint256",
          "name": "tokenId",
          "type": "uint256"
        },
        {
          "indexed": true,
          "internalType": "address",
          "name": "source",
          "type": "address"
        },
        {
          "indexed": false,
          "internalType": "uint256",
          "name": "balance",
          "type": "uint256"
        },
        {
          "indexed": false,
          "internalType": "address",
          "name": "to",
          "type": "address"
        },
        {
          "indexed": false,
          "internalType": "enum IAssetShell.SaleType",
          "name": "saleType",
          "type": "uint8"
        }
      ],
      "name": "AssetIncome",
      "type": "event"
    },
    {
      "anonymous": false,
      "inputs": [
        {
          "indexed": true,
          "internalType": "address",
          "name": "from",
          "type": "address"
        },
        {
          "indexed": false,
          "internalType": "uint256",
          "name": "balance",
          "type": "uint256"
        },
        {
          "indexed": false,
          "internalType": "string",
          "name": "name",
          "type": "string"
        },
        {
          "indexed": false,
          "internalType": "string",
          "name": "description",
          "type": "string"
        }
      ],
      "name": "Deposit",
      "type": "event"
    },
    {
      "anonymous": false,
      "inputs": [
        {
          "indexed": true,
          "internalType": "address",
          "name": "from",
          "type": "address"
        },
        {
          "indexed": false,
          "internalType": "uint256",
          "name": "balance",
          "type": "uint256"
        }
      ],
      "name": "Receive",
      "type": "event"
    },
    {
      "anonymous": false,
      "inputs": [
        {
          "indexed": true,
          "internalType": "uint256",
          "name": "member",
          "type": "uint256"
        },
        {
          "indexed": true,
          "internalType": "address",
          "name": "to",
          "type": "address"
        },
        {
          "indexed": false,
          "internalType": "uint256",
          "name": "balance",
          "type": "uint256"
        }
      ],
      "name": "Release",
      "type": "event"
    },
    {
      "anonymous": false,
      "inputs": [
        {
          "indexed": true,
          "internalType": "address",
          "name": "operator",
          "type": "address"
        },
        {
          "indexed": false,
          "internalType": "uint256",
          "name": "balance",
          "type": "uint256"
        },
        {
          "indexed": false,
          "internalType": "string",
          "name": "log",
          "type": "string"
        }
      ],
      "name": "ReleaseLog",
      "type": "event"
    },
    {
      "anonymous": false,
      "inputs": [
        {
          "indexed": true,
          "internalType": "address",
          "name": "target",
          "type": "address"
        },
        {
          "indexed": false,
          "internalType": "uint256",
          "name": "balance",
          "type": "uint256"
        },
        {
          "indexed": false,
          "internalType": "string",
          "name": "description",
          "type": "string"
        }
      ],
      "name": "Withdraw",
      "type": "event"
    },
    {
      "stateMutability": "payable",
      "type": "fallback"
    },
    {
      "inputs": [
        {
          "internalType": "bytes4",
          "name": "interfaceId",
          "type": "bytes4"
        },
        {
          "internalType": "string",
          "name": "message",
          "type": "string"
        }
      ],
      "name": "checkInterface",
      "outputs": [],
      "stateMutability": "view",
      "type": "function"
    },
    {
      "inputs": [],
      "name": "description",
      "outputs": [
        {
          "internalType": "string",
          "name": "",
          "type": "string"
        }
      ],
      "stateMutability": "view",
      "type": "function"
    },
    {
      "inputs": [],
      "name": "host",
      "outputs": [
        {
          "internalType": "contract IDAO",
          "name": "",
          "type": "address"
        }
      ],
      "stateMutability": "view",
      "type": "function"
    },
    {
      "inputs": [],
      "name": "impl",
      "outputs": [
        {
          "internalType": "address",
          "name": "",
          "type": "address"
        }
      ],
      "stateMutability": "view",
      "type": "function"
    },
    {
      "inputs": [],
      "name": "operator",
      "outputs": [
        {
          "internalType": "contract IVotePool",
          "name": "",
          "type": "address"
        }
      ],
      "stateMutability": "view",
      "type": "function"
    },
    {
      "inputs": [
        {
          "internalType": "address",
          "name": "vote",
          "type": "address"
        }
      ],
      "name": "setOperator",
      "outputs": [],
      "stateMutability": "nonpayable",
      "type": "function"
    },
    {
      "inputs": [
        {
          "internalType": "bytes4",
          "name": "interfaceId",
          "type": "bytes4"
        }
      ],
      "name": "supportsInterface",
      "outputs": [
        {
          "internalType": "bool",
          "name": "",
          "type": "bool"
        }
      ],
      "stateMutability": "view",
      "type": "function"
    },
    {
      "inputs": [
        {
          "internalType": "address",
          "name": "impl",
          "type": "address"
        }
      ],
      "name": "upgrade",
      "outputs": [],
      "stateMutability": "nonpayable",
      "type": "function"
    },
    {
      "stateMutability": "payable",
      "type": "receive"
    },
    {
      "inputs": [
        {
          "internalType": "address",
          "name": "host",
          "type": "address"
        },
        {
          "internalType": "string",
          "name": "description",
          "type": "string"
        },
        {
          "internalType": "address",
          "name": "operator",
          "type": "address"
        }
      ],
      "name": "initLedger",
      "outputs": [],
      "stateMutability": "nonpayable",
      "type": "function"
    },
    {
      "inputs": [],
      "name": "getBalance",
      "outputs": [
        {
          "internalType": "uint256",
          "name": "",
          "type": "uint256"
        }
      ],
      "stateMutability": "view",
      "type": "function"
    },
    {
      "inputs": [
        {
          "internalType": "uint256",
          "name": "amount",
          "type": "uint256"
        },
        {
          "internalType": "string",
          "name": "description",
          "type": "string"
        }
      ],
      "name": "release",
      "outputs": [],
      "stateMutability": "payable",
      "type": "function"
    },
    {
      "inputs": [
        {
          "internalType": "string",
          "name": "name",
          "type": "string"
        },
        {
          "internalType": "string",
          "name": "description",
          "type": "string"
        }
      ],
      "name": "deposit",
      "outputs": [],
      "stateMutability": "payable",
      "type": "function"
    },
    {
      "inputs": [
        {
          "internalType": "address",
          "name": "to",
          "type": "address"
        },
        {
          "internalType": "address",
          "name": "token",
          "type": "address"
        },
        {
          "internalType": "uint256",
          "name": "tokenId",
          "type": "uint256"
        },
        {
          "internalType": "address",
          "name": "source",
          "type": "address"
        },
        {
          "internalType": "enum IAssetShell.SaleType",
          "name": "saleType",
          "type": "uint8"
        }
      ],
      "name": "assetIncome",
      "outputs": [],
      "stateMutability": "payable",
      "type": "function"
    },
    {
      "inputs": [
        {
          "internalType": "uint256",
          "name": "amount",
          "type": "uint256"
        },
        {
          "internalType": "address",
          "name": "target",
          "type": "address"
        },
        {
          "internalType": "string",
          "name": "description",
          "type": "string"
        }
      ],
      "name": "withdraw",
      "outputs": [],
      "stateMutability": "payable",
      "type": "function"
    }
  ],
  "bytecode": "0x608060405234801561001057600080fd5b50611a89806100206000396000f3fe6080604052600436106100e15760003560e01c80639852a5841161007f578063e0626f7e11610059578063e0626f7e1461022f578063f108a7d214610242578063f437bc5914610255578063f4c38e511461026a576100f0565b80639852a584146101dc578063b3ab15fb146101ef578063c64df69d1461020f576100f0565b8063570ca735116100bb578063570ca735146101705780637284e416146101925780637a9b486d146101b45780638abf6077146101c7576100f0565b806301ffc9a7146100f85780630900f0101461012e57806312065fe01461014e576100f0565b366100f0576100ee61028a565b005b6100ee61028a565b34801561010457600080fd5b50610118610113366004611305565b6102d4565b60405161012591906115a1565b60405180910390f35b34801561013a57600080fd5b506100ee6101493660046111fa565b6102f3565b34801561015a57600080fd5b50610163610342565b6040516101259190611928565b34801561017c57600080fd5b50610185610348565b604051610125919061158d565b34801561019e57600080fd5b506101a7610357565b6040516101259190611681565b6100ee6101c236600461136f565b6103ed565b3480156101d357600080fd5b50610185610441565b6100ee6101ea366004611239565b610450565b3480156101fb57600080fd5b506100ee61020a3660046111fa565b6104c4565b34801561021b57600080fd5b506100ee61022a366004611321565b6104f4565b6100ee61023d366004611532565b610521565b6100ee6102503660046114db565b610a64565b34801561026157600080fd5b50610185610b11565b34801561027657600080fd5b506100ee6102853660046112a3565b610b20565b34156102d257336001600160a01b03167fd6717f327e0cb88b4a97a7f67a453e9258252c34937ccbdd86de7cb840e7def3346040516102c99190611928565b60405180910390a25b565b6001600160e01b03191660009081526001602052604090205460ff1690565b6102fb610b3b565b6103205760405162461bcd60e51b815260040161031790611694565b60405180910390fd5b600080546001600160a01b0319166001600160a01b0392909216919091179055565b30315b90565b6002546001600160a01b031690565b60048054604080516020601f60026000196101006001881615020190951694909404938401819004810282018101909252828152606093909290918301828280156103e35780601f106103b8576101008083540402835291602001916103e3565b820191906000526020600020905b8154815290600101906020018083116103c657829003601f168201915b5050505050905090565b346103f75761043d565b336001600160a01b03167f7c13173c065e3a307058ee9baa4a75e787d82d38348af6720b8aca2c2c5222fd34848460405161043493929190611978565b60405180910390a25b5050565b6000546001600160a01b031690565b3461046d5760405162461bcd60e51b8152600401610317906117b2565b816001600160a01b031683856001600160a01b03167f943e1ad29df05ca1e29a73ec0e3e45069bfa880ba70b3eb8b23cf7beab8ec2483489866040516104b593929190611931565b60405180910390a45050505050565b6104cc610b3b565b6104e85760405162461bcd60e51b815260040161031790611694565b6104f181610c9a565b50565b6104fd826102d4565b819061051c5760405162461bcd60e51b81526004016103179190611681565b505050565b610529610b3b565b6105455760405162461bcd60e51b815260040161031790611694565b61054d61028a565b30318281101561056f5760405162461bcd60e51b81526004016103179061184a565b600354604080516338fdad5160e21b815290516000926001600160a01b03169163e3f6b544916004808301926020929190829003018186803b1580156105b457600080fd5b505afa1580156105c8573d6000803e3d6000fd5b505050506040513d601f19601f820116820180604052508101906105ec919061121d565b6001600160a01b031663e168c3ec6040518163ffffffff1660e01b815260040160206040518083038186803b15801561062457600080fd5b505afa158015610638573d6000803e3d6000fd5b505050506040513d601f19601f8201168201806040525081019061065c91906114c3565b9050600081858161066957fe5b049050806106895760405162461bcd60e51b8152600401610317906118dc565b600354604080516338fdad5160e21b815290516000926001600160a01b03169163e3f6b544916004808301926020929190829003018186803b1580156106ce57600080fd5b505afa1580156106e2573d6000803e3d6000fd5b505050506040513d601f19601f82011682018060405250810190610706919061121d565b6001600160a01b0316632ddbd13a6040518163ffffffff1660e01b815260040160206040518083038186803b15801561073e57600080fd5b505afa158015610752573d6000803e3d6000fd5b505050506040513d601f19601f8201168201806040525081019061077691906114c3565b9050610780610fd3565b60005b82811015610a1757600360009054906101000a90046001600160a01b03166001600160a01b031663e3f6b5446040518163ffffffff1660e01b815260040160206040518083038186803b1580156107d957600080fd5b505afa1580156107ed573d6000803e3d6000fd5b505050506040513d601f19601f82011682018060405250810190610811919061121d565b6001600160a01b031663a42bbccd826040518263ffffffff1660e01b815260040161083c9190611928565b60006040518083038186803b15801561085457600080fd5b505afa158015610868573d6000803e3d6000fd5b505050506040513d6000823e601f3d908101601f1916820160405261089091908101906113c6565b91506000600360009054906101000a90046001600160a01b03166001600160a01b031663e3f6b5446040518163ffffffff1660e01b815260040160206040518083038186803b1580156108e257600080fd5b505afa1580156108f6573d6000803e3d6000fd5b505050506040513d601f19601f8201168201806040525081019061091a919061121d565b83516040516331a9108f60e11b81526001600160a01b039290921691636352211e9161094891600401611928565b60206040518083038186803b15801561096057600080fd5b505afa158015610974573d6000803e3d6000fd5b505050506040513d601f19601f82011682018060405250810190610998919061121d565b90506000858460a0015163ffffffff160290506109c781836001600160a01b0316610d4690919063ffffffff16565b816001600160a01b031684600001517fe332e9963bc980fb82ccd3e7e181d76bddde349eec46b4ba393f3444529cd17f83604051610a059190611928565b60405180910390a35050600101610783565b50336001600160a01b03167f4509e941867cecb397984b952fe483965c463c0bbbee9f617173d844bbf677908888604051610a5392919061195f565b60405180910390a250505050505050565b610a6c610b3b565b610a885760405162461bcd60e51b815260040161031790611694565b6001600160a01b038216610aae5760405162461bcd60e51b8152600401610317906117fb565b610ab661028a565b610ac96001600160a01b03831684610d46565b816001600160a01b03167f485f1bb6524c663555797e00171a10f341656e59b02d6b557a0a38ba7d5d97518483604051610b0492919061195f565b60405180910390a2505050565b6003546001600160a01b031690565b610b2b838383610de3565b61051c63f4c38e5160e01b610e96565b60025460009033906001600160a01b03168114610c9257600360009054906101000a90046001600160a01b03166001600160a01b031663570ca7356040518163ffffffff1660e01b815260040160206040518083038186803b158015610ba057600080fd5b505afa158015610bb4573d6000803e3d6000fd5b505050506040513d601f19601f82011682018060405250810190610bd8919061121d565b6001600160a01b0316816001600160a01b031614610c9257600360009054906101000a90046001600160a01b03166001600160a01b031663ebf0c7176040518163ffffffff1660e01b815260040160206040518083038186803b158015610c3e57600080fd5b505afa158015610c52573d6000803e3d6000fd5b505050506040513d601f19601f82011682018060405250810190610c76919061121d565b6001600160a01b0316816001600160a01b031614915050610345565b600191505090565b6001600160a01b03811615610d2457610cbb816001600160a01b0316610ee8565b15610d245760405163c64df69d60e01b81526001600160a01b0382169063c64df69d90610cf390630ddf27bf60e01b90600401611611565b60006040518083038186803b158015610d0b57600080fd5b505afa158015610d1f573d6000803e3d6000fd5b505050505b600280546001600160a01b0319166001600160a01b0392909216919091179055565b3031811115610d675760405162461bcd60e51b81526004016103179061177b565b6000826001600160a01b031682604051610d8090610345565b60006040518083038185875af1925050503d8060008114610dbd576040519150601f19603f3d011682016040523d82523d6000602084013e610dc2565b606091505b505090508061051c5760405162461bcd60e51b81526004016103179061171e565b610deb610f24565b610dfb6336c6362d60e01b610e96565b60405163c64df69d60e01b81526001600160a01b0384169063c64df69d90610e2e906363daa99b60e11b906004016115ac565b60006040518083038186803b158015610e4657600080fd5b505afa158015610e5a573d6000803e3d6000fd5b5050600380546001600160a01b0319166001600160a01b03871617905550508151610e8c906004906020850190611027565b5061051c81610c9a565b6001600160e01b03198082161415610ec05760405162461bcd60e51b8152600401610317906116e7565b6001600160e01b0319166000908152600160208190526040909120805460ff19169091179055565b6000813f7fc5d2460186f7233c927e7db2dcc703c0e500b653ca82273b7bfad8045d85a470818114801590610f1c57508115155b949350505050565b600054600160a81b900460ff1680610f3f5750610f3f610fcd565b80610f545750600054600160a01b900460ff16155b610f705760405162461bcd60e51b81526004016103179061188e565b600054600160a81b900460ff16158015610fa7576000805460ff60a01b1960ff60a81b19909116600160a81b1716600160a01b1790555b610fb76301ffc9a760e01b610e96565b80156104f1576000805460ff60a81b1916905550565b303b1590565b6040518061010001604052806000815260200160608152602001606081526020016060815260200160008081111561100757fe5b815260006020820181905260408201526060016110226110a5565b905290565b828054600181600116156101000203166002900490600052602060002090601f016020900481019282601f1061106857805160ff1916838001178555611095565b82800160010185558215611095579182015b8281111561109557825182559160200191906001019061107a565b506110a19291506110c3565b5090565b60405180604001604052806002906020820280368337509192915050565b5b808211156110a157600081556001016110c4565b600082601f8301126110e8578081fd5b6110f260406119ad565b905080828460408501111561110657600080fd5b60005b6002811015611128578151835260209283019290910190600101611109565b50505092915050565b80516001811061114057600080fd5b92915050565b600082601f830112611156578081fd5b8135611169611164826119d4565b6119ad565b915080825283602082850101111561118057600080fd5b8060208401602084013760009082016020015292915050565b600082601f8301126111a9578081fd5b81516111b7611164826119d4565b91508082528360208285010111156111ce57600080fd5b6111df8160208401602086016119f8565b5092915050565b805163ffffffff8116811461114057600080fd5b60006020828403121561120b578081fd5b813561121681611a28565b9392505050565b60006020828403121561122e578081fd5b815161121681611a28565b600080600080600060a08688031215611250578081fd5b853561125b81611a28565b9450602086013561126b81611a28565b935060408601359250606086013561128281611a28565b9150608086013560038110611295578182fd5b809150509295509295909350565b6000806000606084860312156112b7578283fd5b83356112c281611a28565b9250602084013567ffffffffffffffff8111156112dd578283fd5b6112e986828701611146565b92505060408401356112fa81611a28565b809150509250925092565b600060208284031215611316578081fd5b813561121681611a3d565b60008060408385031215611333578182fd5b823561133e81611a3d565b9150602083013567ffffffffffffffff811115611359578182fd5b61136585828601611146565b9150509250929050565b60008060408385031215611381578182fd5b823567ffffffffffffffff80821115611398578384fd5b6113a486838701611146565b935060208501359150808211156113b9578283fd5b5061136585828601611146565b6000602082840312156113d7578081fd5b815167ffffffffffffffff808211156113ee578283fd5b908301906101208286031215611402578283fd5b61140d6101006119ad565b82518152602083015182811115611422578485fd5b61142e87828601611199565b602083015250604083015182811115611445578485fd5b61145187828601611199565b604083015250606083015182811115611468578485fd5b61147487828601611199565b6060830152506114878660808501611131565b60808201526114998660a085016111e6565b60a082015260c083015160c08201526114b58660e085016110d8565b60e082015295945050505050565b6000602082840312156114d4578081fd5b5051919050565b6000806000606084860312156114ef578081fd5b83359250602084013561150181611a28565b9150604084013567ffffffffffffffff81111561151c578182fd5b61152886828701611146565b9150509250925092565b60008060408385031215611544578182fd5b82359150602083013567ffffffffffffffff811115611359578182fd5b600081518084526115798160208601602086016119f8565b601f01601f19169290920160200192915050565b6001600160a01b0391909116815260200190565b901515815260200190565b6001600160e01b03199190911681526040602082018190526032908201527f234465706172746d656e7423696e69744465706172746d656e742064616f20686060820152710dee6e840e8f2e0ca40dcdee840dac2e8c6d60731b608082015260a00190565b6001600160e01b03199190911681526040602082018190526038908201527f234465706172746d656e74237365744f70657261746f725f696e7465726e616c60608201527f206f70657261746f722074797065206e6f74206d617463680000000000000000608082015260a00190565b6000602082526112166020830184611561565b60208082526033908201527f234465706172746d656e74234f6e6c7944414f2063616c6c657220646f6573206040820152723737ba103430bb32903832b936b4b9b9b4b7b760691b606082015260800190565b6020808252601c908201527f4552433136353a20696e76616c696420696e7465726661636520696400000000604082015260600190565b6020808252603a908201527f416464726573733a20756e61626c6520746f2073656e642076616c75652c207260408201527f6563697069656e74206d61792068617665207265766572746564000000000000606082015260800190565b6020808252601d908201527f416464726573733a20696e73756666696369656e742062616c616e6365000000604082015260600190565b60208082526029908201527f234c6564676572236173736574496e636f6d652070726f6669742063616e6e6f60408201526874206265207a65726f60b81b606082015260800190565b6020808252602f908201527f234c65646765722377697468647261772072656365697665206173737265737360408201526e206e6f74206164647265737328302960881b606082015260800190565b60208082526024908201527f234c65646765722372656c6561736520696e73756666696369656e742062616c604082015263616e636560e01b606082015260800190565b6020808252602e908201527f436f6e747261637420696e7374616e63652068617320616c726561647920626560408201526d195b881a5b9a5d1a585b1a5e995960921b606082015260800190565b6020808252602c908201527f234c65646765722372656c6561736520696e73756666696369656e742062616c60408201526b616e63652072656c6561736560a01b606082015260800190565b90815260200190565b8381526001600160a01b0383166020820152606081016003831061195157fe5b826040830152949350505050565b600083825260406020830152610f1c6040830184611561565b6000848252606060208301526119916060830185611561565b82810360408401526119a38185611561565b9695505050505050565b60405181810167ffffffffffffffff811182821017156119cc57600080fd5b604052919050565b600067ffffffffffffffff8211156119ea578081fd5b50601f01601f191660200190565b60005b83811015611a135781810151838201526020016119fb565b83811115611a22576000848401525b50505050565b6001600160a01b03811681146104f157600080fd5b6001600160e01b0319811681146104f157600080fdfea264697066735822122036f303b2b1e3878bf2cf8b0092cf532193d7f3a1a522bdd20be8d61aaf3ef92c64736f6c634300060c0033",
  "immutableReferences": {},
  "source": "\npragma solidity >=0.6.0 <=0.8.15;\n\npragma experimental ABIEncoderV2;\n\nimport \"./Interface.sol\";\nimport \"./Department.sol\";\n\ncontract Ledger is ILedger, Department {\n\n\tfunction initLedger(address host, string memory description, address operator) external {\n\t\tinitDepartment(host, description, operator);\n\t\t_registerInterface(Ledger_ID);\n\t}\n\n\tfunction receiveBalance() internal {\n\t\tif (msg.value != 0) {\n\t\t\temit Receive(msg.sender, msg.value);\n\t\t}\n\t}\n\n\tfunction getBalance() view public returns (uint256) {\n\t\treturn address(this).balance;\n\t}\n\n\tfunction release(uint256 amount, string memory description) external payable OnlyDAO {\n\t\treceiveBalance();\n\n\t\tuint256 curamount = address(this).balance;\n\t\trequire(curamount >= amount, \"#Ledger#release insufficient balance\");\n\n\t\tuint256 votes = _host.member().votes();\n\t\tuint256 unit = amount / votes;\n\n\t\trequire(unit != 0 , \"#Ledger#release insufficient balance release\");\n\n\t\tuint256 total = _host.member().total();\n\n\t\tIMember.Info memory info;\n\n\t\tfor (uint256 i = 0; i < total; i++) {\n\t\t\tinfo = _host.member().indexAt(i);\n\t\t\taddress owner = _host.member().ownerOf(info.id);\n\t\t\tuint256 balance = info.votes * unit;\n\t\t\towner.sendValue(balance);\n\t\t\temit Release(info.id, owner, balance);\n\t\t}\n\n\t\temit ReleaseLog(msg.sender, amount, description);\n\t}\n\n\tfunction deposit(string memory name, string memory description) public payable {\n\t\tif (msg.value == 0) return;\n\t\temit Deposit(msg.sender, msg.value, name, description);\n\t}\n\n\tfunction assetIncome(\n\t\taddress to,\n\t\taddress token, \n\t\tuint256 tokenId, \n\t\taddress source,\n\t\tIAssetShell.SaleType saleType\n\t) public payable override {\n\t\trequire(msg.value != 0, \"#Ledger#assetIncome profit cannot be zero\");\n\t\temit AssetIncome(token, tokenId, source, msg.value, to, saleType);\n\t}\n\n\tfunction withdraw(uint256 amount, address target, string memory description) external payable override OnlyDAO {\n\t\trequire(target != address(0), \"#Ledger#withdraw receive assress not address(0)\");\n\t\treceiveBalance();\n\t\ttarget.sendValue(amount);\n\t\temit Withdraw(target, amount, description);\n\t}\n\n\treceive() external payable {\n\t\treceiveBalance();\n\t}\n\tfallback() external payable {\n\t\treceiveBalance();\n\t}\n\n}",
  "sourcePath": "/Users/louis/Project/hc/NFTSwap/SmartHolder/contracts/Ledger.sol",
  "compiler": {
    "name": "solc",
    "version": "0.6.12+commit.27d51765.Emscripten.clang"
  },
  "schemaVersion": "3.4.8",
  "updatedAt": "2022-09-29T06:33:42.066Z",
  "devdoc": {
    "kind": "dev",
    "methods": {
      "supportsInterface(bytes4)": {
        "details": "See {IERC165-supportsInterface}. Time complexity O(1), guaranteed to always use less than 30 000 gas."
      }
    },
    "version": 1
  },
  "userdoc": {
    "kind": "user",
    "methods": {},
    "version": 1
  }
}