{
  "contractName": "Ledger",
  "abi": [
    {
      "inputs": [],
      "name": "AddressEmpty",
      "type": "error"
    },
    {
      "inputs": [],
      "name": "AmountMinimumLimit",
      "type": "error"
    },
    {
      "inputs": [
        {
          "internalType": "bytes4",
          "name": "interfaceId",
          "type": "bytes4"
        }
      ],
      "name": "CheckInterfaceNoMatch",
      "type": "error"
    },
    {
      "inputs": [],
      "name": "InsufficientBalance",
      "type": "error"
    },
    {
      "inputs": [],
      "name": "PermissionDenied",
      "type": "error"
    },
    {
      "inputs": [],
      "name": "PermissionDeniedForOnlyDAO",
      "type": "error"
    },
    {
      "inputs": [],
      "name": "SendValueFail",
      "type": "error"
    },
    {
      "anonymous": false,
      "inputs": [
        {
          "indexed": true,
          "internalType": "address",
          "name": "token",
          "type": "address"
        },
        {
          "indexed": true,
          "internalType": "uint256",
          "name": "tokenId",
          "type": "uint256"
        },
        {
          "indexed": true,
          "internalType": "address",
          "name": "source",
          "type": "address"
        },
        {
          "indexed": false,
          "internalType": "address",
          "name": "from",
          "type": "address"
        },
        {
          "indexed": false,
          "internalType": "address",
          "name": "to",
          "type": "address"
        },
        {
          "indexed": false,
          "internalType": "uint256",
          "name": "balance",
          "type": "uint256"
        },
        {
          "indexed": false,
          "internalType": "uint256",
          "name": "price",
          "type": "uint256"
        },
        {
          "indexed": false,
          "internalType": "uint256",
          "name": "count",
          "type": "uint256"
        },
        {
          "indexed": false,
          "internalType": "enum IAssetShell.SaleType",
          "name": "saleType",
          "type": "uint8"
        }
      ],
      "name": "AssetIncome",
      "type": "event"
    },
    {
      "anonymous": false,
      "inputs": [
        {
          "indexed": true,
          "internalType": "uint256",
          "name": "tag",
          "type": "uint256"
        },
        {
          "indexed": false,
          "internalType": "uint256",
          "name": "value",
          "type": "uint256"
        }
      ],
      "name": "Change",
      "type": "event"
    },
    {
      "anonymous": false,
      "inputs": [
        {
          "indexed": true,
          "internalType": "address",
          "name": "from",
          "type": "address"
        },
        {
          "indexed": false,
          "internalType": "uint256",
          "name": "balance",
          "type": "uint256"
        },
        {
          "indexed": false,
          "internalType": "string",
          "name": "name",
          "type": "string"
        },
        {
          "indexed": false,
          "internalType": "string",
          "name": "description",
          "type": "string"
        }
      ],
      "name": "Deposit",
      "type": "event"
    },
    {
      "anonymous": false,
      "inputs": [
        {
          "indexed": false,
          "internalType": "uint8",
          "name": "version",
          "type": "uint8"
        }
      ],
      "name": "Initialized",
      "type": "event"
    },
    {
      "anonymous": false,
      "inputs": [
        {
          "indexed": true,
          "internalType": "address",
          "name": "from",
          "type": "address"
        },
        {
          "indexed": false,
          "internalType": "uint256",
          "name": "balance",
          "type": "uint256"
        }
      ],
      "name": "Receive",
      "type": "event"
    },
    {
      "anonymous": false,
      "inputs": [
        {
          "indexed": true,
          "internalType": "uint256",
          "name": "member",
          "type": "uint256"
        },
        {
          "indexed": true,
          "internalType": "address",
          "name": "to",
          "type": "address"
        },
        {
          "indexed": false,
          "internalType": "uint256",
          "name": "balance",
          "type": "uint256"
        }
      ],
      "name": "Release",
      "type": "event"
    },
    {
      "anonymous": false,
      "inputs": [
        {
          "indexed": true,
          "internalType": "address",
          "name": "operator",
          "type": "address"
        },
        {
          "indexed": false,
          "internalType": "uint256",
          "name": "balance",
          "type": "uint256"
        },
        {
          "indexed": false,
          "internalType": "string",
          "name": "log",
          "type": "string"
        }
      ],
      "name": "ReleaseLog",
      "type": "event"
    },
    {
      "anonymous": false,
      "inputs": [
        {
          "indexed": true,
          "internalType": "address",
          "name": "target",
          "type": "address"
        },
        {
          "indexed": false,
          "internalType": "uint256",
          "name": "balance",
          "type": "uint256"
        },
        {
          "indexed": false,
          "internalType": "string",
          "name": "description",
          "type": "string"
        }
      ],
      "name": "Withdraw",
      "type": "event"
    },
    {
      "stateMutability": "payable",
      "type": "fallback"
    },
    {
      "inputs": [
        {
          "internalType": "bytes4",
          "name": "interfaceId",
          "type": "bytes4"
        }
      ],
      "name": "checkInterface",
      "outputs": [],
      "stateMutability": "view",
      "type": "function"
    },
    {
      "inputs": [],
      "name": "description",
      "outputs": [
        {
          "internalType": "string",
          "name": "",
          "type": "string"
        }
      ],
      "stateMutability": "view",
      "type": "function"
    },
    {
      "inputs": [],
      "name": "host",
      "outputs": [
        {
          "internalType": "contract IDAO",
          "name": "",
          "type": "address"
        }
      ],
      "stateMutability": "view",
      "type": "function"
    },
    {
      "inputs": [],
      "name": "impl",
      "outputs": [
        {
          "internalType": "address",
          "name": "",
          "type": "address"
        }
      ],
      "stateMutability": "view",
      "type": "function"
    },
    {
      "inputs": [],
      "name": "operator",
      "outputs": [
        {
          "internalType": "address",
          "name": "",
          "type": "address"
        }
      ],
      "stateMutability": "view",
      "type": "function"
    },
    {
      "inputs": [
        {
          "internalType": "string",
          "name": "value",
          "type": "string"
        }
      ],
      "name": "setDescription",
      "outputs": [],
      "stateMutability": "nonpayable",
      "type": "function"
    },
    {
      "inputs": [
        {
          "internalType": "address",
          "name": "operator_",
          "type": "address"
        }
      ],
      "name": "setOperator",
      "outputs": [],
      "stateMutability": "nonpayable",
      "type": "function"
    },
    {
      "inputs": [
        {
          "internalType": "bytes4",
          "name": "interfaceId",
          "type": "bytes4"
        }
      ],
      "name": "supportsInterface",
      "outputs": [
        {
          "internalType": "bool",
          "name": "",
          "type": "bool"
        }
      ],
      "stateMutability": "view",
      "type": "function"
    },
    {
      "inputs": [
        {
          "internalType": "address",
          "name": "impl_",
          "type": "address"
        }
      ],
      "name": "upgrade",
      "outputs": [],
      "stateMutability": "nonpayable",
      "type": "function"
    },
    {
      "stateMutability": "payable",
      "type": "receive"
    },
    {
      "inputs": [
        {
          "internalType": "address",
          "name": "host",
          "type": "address"
        },
        {
          "internalType": "string",
          "name": "description",
          "type": "string"
        },
        {
          "internalType": "address",
          "name": "operator",
          "type": "address"
        }
      ],
      "name": "initLedger",
      "outputs": [],
      "stateMutability": "nonpayable",
      "type": "function"
    },
    {
      "inputs": [],
      "name": "getBalance",
      "outputs": [
        {
          "internalType": "uint256",
          "name": "",
          "type": "uint256"
        }
      ],
      "stateMutability": "view",
      "type": "function"
    },
    {
      "inputs": [
        {
          "internalType": "uint256",
          "name": "amount",
          "type": "uint256"
        },
        {
          "internalType": "string",
          "name": "description",
          "type": "string"
        }
      ],
      "name": "release",
      "outputs": [],
      "stateMutability": "payable",
      "type": "function"
    },
    {
      "inputs": [
        {
          "internalType": "string",
          "name": "name",
          "type": "string"
        },
        {
          "internalType": "string",
          "name": "description",
          "type": "string"
        }
      ],
      "name": "deposit",
      "outputs": [],
      "stateMutability": "payable",
      "type": "function"
    },
    {
      "inputs": [
        {
          "internalType": "address",
          "name": "token",
          "type": "address"
        },
        {
          "internalType": "uint256",
          "name": "tokenId",
          "type": "uint256"
        },
        {
          "internalType": "address",
          "name": "source",
          "type": "address"
        },
        {
          "internalType": "address",
          "name": "from",
          "type": "address"
        },
        {
          "internalType": "address",
          "name": "to",
          "type": "address"
        },
        {
          "internalType": "uint256",
          "name": "price",
          "type": "uint256"
        },
        {
          "internalType": "uint256",
          "name": "count",
          "type": "uint256"
        },
        {
          "internalType": "enum IAssetShell.SaleType",
          "name": "saleType",
          "type": "uint8"
        }
      ],
      "name": "assetIncome",
      "outputs": [],
      "stateMutability": "payable",
      "type": "function"
    },
    {
      "inputs": [
        {
          "internalType": "uint256",
          "name": "amount",
          "type": "uint256"
        },
        {
          "internalType": "address",
          "name": "target",
          "type": "address"
        },
        {
          "internalType": "string",
          "name": "description",
          "type": "string"
        }
      ],
      "name": "withdraw",
      "outputs": [],
      "stateMutability": "payable",
      "type": "function"
    }
  ],
  "bytecode": "0x608060405234801561001057600080fd5b50611c79806100206000396000f3fe6080604052600436106100ec5760003560e01c80638abf60771161008a578063e0626f7e11610059578063e0626f7e14610286578063f108a7d214610299578063f437bc59146102ac578063f4c38e51146102ca576100fb565b80638abf60771461021557806390c3f38f146102335780639521894714610253578063b3ab15fb14610266576100fb565b80634c6e425b116100c65780634c6e425b1461018e578063570ca735146101ae5780637284e416146101e05780637a9b486d14610202576100fb565b806301ffc9a7146101035780630900f0101461015257806312065fe014610172576100fb565b366100fb576100f96102ea565b005b6100f96102ea565b34801561010f57600080fd5b5061013d61011e36600461144e565b6001600160e01b03191660009081526001602052604090205460ff1690565b60405190151581526020015b60405180910390f35b34801561015e57600080fd5b506100f961016d366004611494565b610328565b34801561017e57600080fd5b5060405130318152602001610149565b34801561019a57600080fd5b506100f96101a936600461144e565b6103a5565b3480156101ba57600080fd5b506003546001600160a01b03165b6040516001600160a01b039091168152602001610149565b3480156101ec57600080fd5b506101f56103f3565b6040516101499190611501565b6100f9610210366004611602565b610485565b34801561022157600080fd5b506000546001600160a01b03166101c8565b34801561023f57600080fd5b506100f961024e366004611666565b6104da565b6100f96102613660046116a3565b610631565b34801561027257600080fd5b506100f9610281366004611494565b6106f3565b6100f9610294366004611735565b610769565b6100f96102a7366004611772565b610e9f565b3480156102b857600080fd5b506002546001600160a01b03166101c8565b3480156102d657600080fd5b506100f96102e53660046117cb565b611040565b34156103265760405134815233907fd6717f327e0cb88b4a97a7f67a453e9258252c34937ccbdd86de7cb840e7def39060200160405180910390a25b565b610330611060565b61034d57604051631b4004a360e31b815260040160405180910390fd5b600080546001600160a01b0319166001600160a01b0383169081179091556040519081526003907f7016719027ff29c13bc4816903851ea968172a86b766c733b954fdabe53c87ee906020015b60405180910390a250565b6001600160e01b0319811660009081526001602052604090205460ff166103f057604051632aae78ef60e01b81526001600160e01b0319821660048201526024015b60405180910390fd5b50565b6060600480546104029061182f565b80601f016020809104026020016040519081016040528092919081815260200182805461042e9061182f565b801561047b5780601f106104505761010080835404028352916020019161047b565b820191906000526020600020905b81548152906001019060200180831161045e57829003601f168201915b5050505050905090565b34600003610491575050565b336001600160a01b03167f7c13173c065e3a307058ee9baa4a75e787d82d38348af6720b8aca2c2c5222fd3484846040516104ce93929190611869565b60405180910390a25050565b63d0a4ad966104e7611060565b6105f057600260009054906101000a90046001600160a01b03166001600160a01b031663e3f6b5446040518163ffffffff1660e01b8152600401602060405180830381865afa15801561053e573d6000803e3d6000fd5b505050506040513d601f19601f82011682018060405250810190610562919061189e565b60405163a8a555c560e01b8152336004820152602481018390526001600160a01b03919091169063a8a555c590604401602060405180830381865afa1580156105af573d6000803e3d6000fd5b505050506040513d601f19601f820116820180604052508101906105d391906118bb565b6105f057604051630782484160e21b815260040160405180910390fd5b60046105fc838261192b565b5060017f7016719027ff29c13bc4816903851ea968172a86b766c733b954fdabe53c87ee60006040516104ce91815260200190565b346000036106935760405162461bcd60e51b815260206004820152602960248201527f234c65646765722e6173736574496e636f6d652070726f6669742063616e6e6f60448201526874206265207a65726f60b81b60648201526084016103e7565b856001600160a01b031687896001600160a01b03167fd0fe5bc3e51fae4e001f6097e92f03546562c029204b9c59789fba499cdc97638888348989896040516106e1969594939291906119eb565b60405180910390a45050505050505050565b6106fb611060565b61071857604051631b4004a360e31b815260040160405180910390fd5b600380546001600160a01b0319166001600160a01b0383169081179091556040519081526002907f7016719027ff29c13bc4816903851ea968172a86b766c733b954fdabe53c87ee9060200161039a565b63e0626f7e610776611060565b61087f57600260009054906101000a90046001600160a01b03166001600160a01b031663e3f6b5446040518163ffffffff1660e01b8152600401602060405180830381865afa1580156107cd573d6000803e3d6000fd5b505050506040513d601f19601f820116820180604052508101906107f1919061189e565b60405163a8a555c560e01b8152336004820152602481018390526001600160a01b03919091169063a8a555c590604401602060405180830381865afa15801561083e573d6000803e3d6000fd5b505050506040513d601f19601f8201168201806040525081019061086291906118bb565b61087f57604051630782484160e21b815260040160405180910390fd5b6108876102ea565b3031838110156108aa5760405163f76273e960e01b815260040160405180910390fd5b6002546040805163a8d5fd6560e01b815290516000926001600160a01b03169163a8d5fd659160048083019260209291908290030181865afa1580156108f4573d6000803e3d6000fd5b505050506040513d601f19601f82011682018060405250810190610918919061189e565b90506000600260009054906101000a90046001600160a01b03166001600160a01b031663e3f6b5446040518163ffffffff1660e01b8152600401602060405180830381865afa15801561096f573d6000803e3d6000fd5b505050506040513d601f19601f82011682018060405250810190610993919061189e565b90506001600160a01b03821615610bac576000600a836001600160a01b03166318160ddd6040518163ffffffff1660e01b8152600401602060405180830381865afa1580156109e6573d6000803e3d6000fd5b505050506040513d601f19601f82011682018060405250810190610a0a9190611a47565b901c90506000610a1a8289611a76565b905080600003610a3d57604051631e9acf1760e31b815260040160405180910390fd5b6000846001600160a01b031663243669ad6040518163ffffffff1660e01b8152600401602060405180830381865afa158015610a7d573d6000803e3d6000fd5b505050506040513d601f19601f82011682018060405250810190610aa19190611a47565b905060008060005b83811015610ba15760405163a42bbccd60e01b8152600481018290526001600160a01b0389169063a42bbccd906024016040805180830381865afa158015610af5573d6000803e3d6000fd5b505050506040513d601f19601f82011682018060405250810190610b199190611a98565b909350600a1c91508115610b8f576000610b338684611ac6565b9050610b486001600160a01b0385168261119f565b836001600160a01b031660007fe332e9963bc980fb82ccd3e7e181d76bddde349eec46b4ba393f3444529cd17f83604051610b8591815260200190565b60405180910390a3505b80610b9981611ae3565b915050610aa9565b505050505050610e54565b6000816001600160a01b031663e168c3ec6040518163ffffffff1660e01b8152600401602060405180830381865afa158015610bec573d6000803e3d6000fd5b505050506040513d601f19601f82011682018060405250810190610c109190611a47565b90506000610c1e8289611a76565b905080600003610c415760405163f76273e960e01b815260040160405180910390fd5b6000836001600160a01b0316632ddbd13a6040518163ffffffff1660e01b8152600401602060405180830381865afa158015610c81573d6000803e3d6000fd5b505050506040513d601f19601f82011682018060405250810190610ca59190611a47565b9050610cdf6040518060a0016040528060008152602001606081526020016060815260200160608152602001600063ffffffff1681525090565b60005b82811015610e4e5760405163a42bbccd60e01b8152600481018290526001600160a01b0387169063a42bbccd90602401600060405180830381865afa158015610d2f573d6000803e3d6000fd5b505050506040513d6000823e601f3d908101601f19168201604052610d579190810190611b5a565b80516040516331a9108f60e11b815260048101919091529092506000906001600160a01b03881690636352211e90602401602060405180830381865afa158015610da5573d6000803e3d6000fd5b505050506040513d601f19601f82011682018060405250810190610dc9919061189e565b9050600085846080015163ffffffff16610de39190611ac6565b9050610df86001600160a01b0383168261119f565b83516040518281526001600160a01b03841691907fe332e9963bc980fb82ccd3e7e181d76bddde349eec46b4ba393f3444529cd17f9060200160405180910390a350508080610e4690611ae3565b915050610ce2565b50505050505b336001600160a01b03167f4509e941867cecb397984b952fe483965c463c0bbbee9f617173d844bbf677908787604051610e8f929190611c2a565b60405180910390a2505050505050565b63f108a7d2610eac611060565b610fb557600260009054906101000a90046001600160a01b03166001600160a01b031663e3f6b5446040518163ffffffff1660e01b8152600401602060405180830381865afa158015610f03573d6000803e3d6000fd5b505050506040513d601f19601f82011682018060405250810190610f27919061189e565b60405163a8a555c560e01b8152336004820152602481018390526001600160a01b03919091169063a8a555c590604401602060405180830381865afa158015610f74573d6000803e3d6000fd5b505050506040513d601f19601f82011682018060405250810190610f9891906118bb565b610fb557604051630782484160e21b815260040160405180910390fd5b6001600160a01b038316610fdc57604051635bb7a72360e01b815260040160405180910390fd5b610fe46102ea565b610ff76001600160a01b0384168561119f565b826001600160a01b03167f485f1bb6524c663555797e00171a10f341656e59b02d6b557a0a38ba7d5d97518584604051611032929190611c2a565b60405180910390a250505050565b61104b838383611235565b61105b63f4c38e5160e01b611299565b505050565b60035460009033906001600160a01b0316811461119757600260009054906101000a90046001600160a01b03166001600160a01b031663570ca7356040518163ffffffff1660e01b8152600401602060405180830381865afa1580156110ca573d6000803e3d6000fd5b505050506040513d601f19601f820116820180604052508101906110ee919061189e565b6001600160a01b0316816001600160a01b03161461119757600260009054906101000a90046001600160a01b03166001600160a01b031663ebf0c7176040518163ffffffff1660e01b8152600401602060405180830381865afa158015611159573d6000803e3d6000fd5b505050506040513d601f19601f8201168201806040525081019061117d919061189e565b6001600160a01b0316816001600160a01b03161491505090565b600191505090565b30318111156111c157604051631e9acf1760e31b815260040160405180910390fd5b6000826001600160a01b03168260405160006040518083038185875af1925050503d806000811461120e576040519150601f19603f3d011682016040523d82523d6000602084013e611213565b606091505b505090508061105b57604051634cc9d21160e11b815260040160405180910390fd5b61123d61131b565b61124d630d64f40d60e31b611299565b600280546001600160a01b0319166001600160a01b0385161790556004611274838261192b565b50600380546001600160a01b0319166001600160a01b03929092169190911790555050565b6001600160e01b031980821690036112f35760405162461bcd60e51b815260206004820152601c60248201527f4552433136353a20696e76616c696420696e746572666163652069640000000060448201526064016103e7565b6001600160e01b0319166000908152600160208190526040909120805460ff19169091179055565b600054600160a81b900460ff161580801561134357506000546001600160a01b90910460ff16105b806113645750303b1580156113645750600054600160a01b900460ff166001145b6113c75760405162461bcd60e51b815260206004820152602e60248201527f496e697469616c697a61626c653a20636f6e747261637420697320616c72656160448201526d191e481a5b9a5d1a585b1a5e995960921b60648201526084016103e7565b6000805460ff60a01b1916600160a01b17905580156113f4576000805460ff60a81b1916600160a81b1790555b6114046301ffc9a760e01b611299565b80156103f0576000805460ff60a81b19169055604051600181527f7f26b83ff96e1f2b6a682f133852f6798a09c465da95921460cefb38474024989060200160405180910390a150565b60006020828403121561146057600080fd5b81356001600160e01b03198116811461147857600080fd5b9392505050565b6001600160a01b03811681146103f057600080fd5b6000602082840312156114a657600080fd5b81356114788161147f565b60005b838110156114cc5781810151838201526020016114b4565b50506000910152565b600081518084526114ed8160208601602086016114b1565b601f01601f19169290920160200192915050565b60208152600061147860208301846114d5565b634e487b7160e01b600052604160045260246000fd5b60405160a0810167ffffffffffffffff8111828210171561154d5761154d611514565b60405290565b604051601f8201601f1916810167ffffffffffffffff8111828210171561157c5761157c611514565b604052919050565b600067ffffffffffffffff82111561159e5761159e611514565b50601f01601f191660200190565b600082601f8301126115bd57600080fd5b81356115d06115cb82611584565b611553565b8181528460208386010111156115e557600080fd5b816020850160208301376000918101602001919091529392505050565b6000806040838503121561161557600080fd5b823567ffffffffffffffff8082111561162d57600080fd5b611639868387016115ac565b9350602085013591508082111561164f57600080fd5b5061165c858286016115ac565b9150509250929050565b60006020828403121561167857600080fd5b813567ffffffffffffffff81111561168f57600080fd5b61169b848285016115ac565b949350505050565b600080600080600080600080610100898b0312156116c057600080fd5b88356116cb8161147f565b97506020890135965060408901356116e28161147f565b955060608901356116f28161147f565b945060808901356117028161147f565b935060a0890135925060c0890135915060e08901356003811061172457600080fd5b809150509295985092959890939650565b6000806040838503121561174857600080fd5b82359150602083013567ffffffffffffffff81111561176657600080fd5b61165c858286016115ac565b60008060006060848603121561178757600080fd5b8335925060208401356117998161147f565b9150604084013567ffffffffffffffff8111156117b557600080fd5b6117c1868287016115ac565b9150509250925092565b6000806000606084860312156117e057600080fd5b83356117eb8161147f565b9250602084013567ffffffffffffffff81111561180757600080fd5b611813868287016115ac565b92505060408401356118248161147f565b809150509250925092565b600181811c9082168061184357607f821691505b60208210810361186357634e487b7160e01b600052602260045260246000fd5b50919050565b83815260606020820152600061188260608301856114d5565b828103604084015261189481856114d5565b9695505050505050565b6000602082840312156118b057600080fd5b81516114788161147f565b6000602082840312156118cd57600080fd5b8151801515811461147857600080fd5b601f82111561105b57600081815260208120601f850160051c810160208610156119045750805b601f850160051c820191505b8181101561192357828155600101611910565b505050505050565b815167ffffffffffffffff81111561194557611945611514565b61195981611953845461182f565b846118dd565b602080601f83116001811461198e57600084156119765750858301515b600019600386901b1c1916600185901b178555611923565b600085815260208120601f198616915b828110156119bd5788860151825594840194600190910190840161199e565b50858210156119db5787850151600019600388901b60f8161c191681555b5050505050600190811b01905550565b6001600160a01b0387811682528616602082015260408101859052606081018490526080810183905260c0810160038310611a3657634e487b7160e01b600052602160045260246000fd5b8260a0830152979650505050505050565b600060208284031215611a5957600080fd5b5051919050565b634e487b7160e01b600052601160045260246000fd5b600082611a9357634e487b7160e01b600052601260045260246000fd5b500490565b60008060408385031215611aab57600080fd5b8251611ab68161147f565b6020939093015192949293505050565b8082028115828204841417611add57611add611a60565b92915050565b600060018201611af557611af5611a60565b5060010190565b600082601f830112611b0d57600080fd5b8151611b1b6115cb82611584565b818152846020838601011115611b3057600080fd5b61169b8260208301602087016114b1565b805163ffffffff81168114611b5557600080fd5b919050565b600060208284031215611b6c57600080fd5b815167ffffffffffffffff80821115611b8457600080fd5b9083019060a08286031215611b9857600080fd5b611ba061152a565b82518152602083015182811115611bb657600080fd5b611bc287828601611afc565b602083015250604083015182811115611bda57600080fd5b611be687828601611afc565b604083015250606083015182811115611bfe57600080fd5b611c0a87828601611afc565b606083015250611c1c60808401611b41565b608082015295945050505050565b82815260406020820152600061169b60408301846114d556fea2646970667358221220e782f878a75f4f8dcb4c5d93d9a380bb56872d18dcbc9a926d4b5b140086ad7664736f6c63430008110033",
  "immutableReferences": {},
  "source": "// SPDX-License-Identifier: MIT\npragma solidity ~0.8.17;\n\npragma experimental ABIEncoderV2;\n\nimport './libs/Interface.sol';\nimport './Module.sol';\n\n/**\n * @title Ledger manage\n */\ncontract Ledger is ILedger, Module {\n\tusing AddressExp for address;\n\n\tuint256[16] private __; // reserved storage space\n\n\tfunction initLedger(address host, string memory description, address operator) external {\n\t\tinitModule(host, description, operator);\n\t\t_registerInterface(Ledger_Type);\n\t}\n\n\tfunction receiveBalance() internal {\n\t\tif (msg.value != 0) {\n\t\t\temit Receive(msg.sender, msg.value);\n\t\t}\n\t}\n\n\tfunction getBalance() view public returns (uint256) {\n\t\treturn address(this).balance;\n\t}\n\n\tfunction release(uint256 amount, string memory description) external payable Check(Action_Ledger_Release) {\n\t\treceiveBalance();\n\n\t\tuint256 curamount = address(this).balance;\n\t\t// require(curamount >= amount, \"#Ledger#release insufficient balance\");\n\t\tif (curamount < amount) revert AmountMinimumLimit();\n\n\t\tIShare s = _host.share();\n\t\tIMember m = _host.member();\n\n\t\tif (address(s) != address(0)) { // Same share but different rights\n\t\t\t// decimals = 5 , 1/100_000\n\t\t\tuint256 totalSupply = s.totalSupply() >> 10;// 1/1024;\n\t\t\tuint256 unit = amount / totalSupply;\n\n\t\t\tif (unit == 0) revert InsufficientBalance();\n\n\t\t\tuint256 owners = s.totalOwners();\n\t\t\taddress owner;\n\t\t\tuint256 amount1;\n\n\t\t\tfor (uint256 i = 0; i < owners; i++) {\n\t\t\t\t(owner,amount1) = s.indexAt(i);\n\t\t\t\tamount1 >>= 10; // 1/1024\n\t\t\t\tif (amount1 != 0) {\n\t\t\t\t\tuint256 balance = amount1 * unit;\n\t\t\t\t\towner.sendValue(balance);\n\t\t\t\t\temit Release(0, owner, balance);\n\t\t\t\t}\n\t\t\t}\n\t\t} else {\n\t\t\tuint256 votes = m.votes();\n\t\t\tuint256 unit = amount / votes;\n\n\t\t\t// require(unit != 0 , \"#Ledger#release insufficient balance release\");\n\t\t\tif (unit == 0) revert AmountMinimumLimit();\n\n\t\t\tuint256 total = m.total();\n\t\t\tIMember.Info memory info;\n\n\t\t\tfor (uint256 i = 0; i < total; i++) {\n\t\t\t\tinfo = m.indexAt(i);\n\t\t\t\taddress owner = m.ownerOf(info.id);\n\t\t\t\tuint256 balance = info.votes * unit;\n\t\t\t\towner.sendValue(balance);\n\t\t\t\temit Release(info.id, owner, balance);\n\t\t\t}\n\t\t}\n\n\t\temit ReleaseLog(msg.sender, amount, description);\n\t}\n\n\tfunction deposit(string memory name, string memory description) public payable {\n\t\tif (msg.value == 0) return;\n\t\temit Deposit(msg.sender, msg.value, name, description);\n\t}\n\n\tfunction assetIncome(\n\t\taddress token,  uint256 tokenId,\n\t\taddress source, address from, address to,\n\t\tuint256 price,  uint256 count, IAssetShell.SaleType saleType\n\t) public payable override {\n\t\trequire(msg.value != 0, \"#Ledger.assetIncome profit cannot be zero\");\n\t\temit AssetIncome(token, tokenId, source, from, to, msg.value, price, count, saleType);\n\t}\n\n\tfunction withdraw(uint256 amount, address target, string memory description)\n\t\texternal payable override Check(Action_Ledger_Withdraw) \n\t{\n\t\t//require(target != address(0), \"#Ledger#withdraw receive assress not address(0)\");\n\t\tif (target == address(0)) revert AddressEmpty();\n\t\treceiveBalance();\n\t\ttarget.sendValue(amount);\n\t\temit Withdraw(target, amount, description);\n\t}\n\n\treceive() external payable {\n\t\treceiveBalance();\n\t}\n\n\tfallback() external payable {\n\t\treceiveBalance();\n\t}\n\n}",
  "sourcePath": "/Users/louis/Project/hc/NFTSwap/SmartHolder/contracts/Ledger.sol",
  "compiler": {
    "name": "solc",
    "version": "0.8.17+commit.8df45f5f.Emscripten.clang"
  },
  "schemaVersion": "3.4.11",
  "updatedAt": "2023-05-17T09:37:53.256Z",
  "networkType": "ethereum",
  "devdoc": {
    "kind": "dev",
    "methods": {
      "supportsInterface(bytes4)": {
        "details": "See {IERC165-supportsInterface}. Time complexity O(1), guaranteed to always use less than 30 000 gas."
      }
    },
    "title": "Ledger manage",
    "version": 1
  },
  "userdoc": {
    "kind": "user",
    "methods": {},
    "version": 1
  }
}