{
  "contractName": "Ledger",
  "abi": [
    {
      "inputs": [],
      "name": "AddressEmpty",
      "type": "error"
    },
    {
      "inputs": [
        {
          "internalType": "bytes4",
          "name": "interfaceId",
          "type": "bytes4"
        }
      ],
      "name": "CheckInterfaceNoMatch",
      "type": "error"
    },
    {
      "inputs": [],
      "name": "InsufficientBalance",
      "type": "error"
    },
    {
      "inputs": [],
      "name": "PermissionDenied",
      "type": "error"
    },
    {
      "inputs": [],
      "name": "PermissionDeniedForOnlyDAO",
      "type": "error"
    },
    {
      "inputs": [],
      "name": "SendValueFail",
      "type": "error"
    },
    {
      "anonymous": false,
      "inputs": [
        {
          "indexed": true,
          "internalType": "address",
          "name": "token",
          "type": "address"
        },
        {
          "indexed": true,
          "internalType": "uint256",
          "name": "tokenId",
          "type": "uint256"
        },
        {
          "indexed": true,
          "internalType": "address",
          "name": "source",
          "type": "address"
        },
        {
          "indexed": false,
          "internalType": "address",
          "name": "to",
          "type": "address"
        },
        {
          "indexed": false,
          "internalType": "uint256",
          "name": "balance",
          "type": "uint256"
        },
        {
          "indexed": false,
          "internalType": "uint256",
          "name": "price",
          "type": "uint256"
        },
        {
          "indexed": false,
          "internalType": "enum IAssetShell.SaleType",
          "name": "saleType",
          "type": "uint8"
        }
      ],
      "name": "AssetIncome",
      "type": "event"
    },
    {
      "anonymous": false,
      "inputs": [
        {
          "indexed": true,
          "internalType": "uint256",
          "name": "tag",
          "type": "uint256"
        },
        {
          "indexed": false,
          "internalType": "uint256",
          "name": "value",
          "type": "uint256"
        }
      ],
      "name": "Change",
      "type": "event"
    },
    {
      "anonymous": false,
      "inputs": [
        {
          "indexed": true,
          "internalType": "address",
          "name": "from",
          "type": "address"
        },
        {
          "indexed": false,
          "internalType": "uint256",
          "name": "balance",
          "type": "uint256"
        },
        {
          "indexed": false,
          "internalType": "string",
          "name": "name",
          "type": "string"
        },
        {
          "indexed": false,
          "internalType": "string",
          "name": "description",
          "type": "string"
        }
      ],
      "name": "Deposit",
      "type": "event"
    },
    {
      "anonymous": false,
      "inputs": [
        {
          "indexed": false,
          "internalType": "uint8",
          "name": "version",
          "type": "uint8"
        }
      ],
      "name": "Initialized",
      "type": "event"
    },
    {
      "anonymous": false,
      "inputs": [
        {
          "indexed": true,
          "internalType": "address",
          "name": "from",
          "type": "address"
        },
        {
          "indexed": false,
          "internalType": "uint256",
          "name": "balance",
          "type": "uint256"
        }
      ],
      "name": "Receive",
      "type": "event"
    },
    {
      "anonymous": false,
      "inputs": [
        {
          "indexed": true,
          "internalType": "uint256",
          "name": "member",
          "type": "uint256"
        },
        {
          "indexed": true,
          "internalType": "address",
          "name": "to",
          "type": "address"
        },
        {
          "indexed": false,
          "internalType": "uint256",
          "name": "balance",
          "type": "uint256"
        }
      ],
      "name": "Release",
      "type": "event"
    },
    {
      "anonymous": false,
      "inputs": [
        {
          "indexed": true,
          "internalType": "address",
          "name": "operator",
          "type": "address"
        },
        {
          "indexed": false,
          "internalType": "uint256",
          "name": "balance",
          "type": "uint256"
        },
        {
          "indexed": false,
          "internalType": "string",
          "name": "log",
          "type": "string"
        }
      ],
      "name": "ReleaseLog",
      "type": "event"
    },
    {
      "anonymous": false,
      "inputs": [
        {
          "indexed": true,
          "internalType": "address",
          "name": "target",
          "type": "address"
        },
        {
          "indexed": false,
          "internalType": "uint256",
          "name": "balance",
          "type": "uint256"
        },
        {
          "indexed": false,
          "internalType": "string",
          "name": "description",
          "type": "string"
        }
      ],
      "name": "Withdraw",
      "type": "event"
    },
    {
      "stateMutability": "payable",
      "type": "fallback"
    },
    {
      "inputs": [
        {
          "internalType": "bytes4",
          "name": "interfaceId",
          "type": "bytes4"
        }
      ],
      "name": "checkInterface",
      "outputs": [],
      "stateMutability": "view",
      "type": "function"
    },
    {
      "inputs": [],
      "name": "description",
      "outputs": [
        {
          "internalType": "string",
          "name": "",
          "type": "string"
        }
      ],
      "stateMutability": "view",
      "type": "function"
    },
    {
      "inputs": [],
      "name": "host",
      "outputs": [
        {
          "internalType": "contract IDAO",
          "name": "",
          "type": "address"
        }
      ],
      "stateMutability": "view",
      "type": "function"
    },
    {
      "inputs": [],
      "name": "impl",
      "outputs": [
        {
          "internalType": "address",
          "name": "",
          "type": "address"
        }
      ],
      "stateMutability": "view",
      "type": "function"
    },
    {
      "inputs": [],
      "name": "operator",
      "outputs": [
        {
          "internalType": "address",
          "name": "",
          "type": "address"
        }
      ],
      "stateMutability": "view",
      "type": "function"
    },
    {
      "inputs": [
        {
          "internalType": "string",
          "name": "value",
          "type": "string"
        }
      ],
      "name": "setDescription",
      "outputs": [],
      "stateMutability": "nonpayable",
      "type": "function"
    },
    {
      "inputs": [
        {
          "internalType": "address",
          "name": "operator",
          "type": "address"
        }
      ],
      "name": "setOperator",
      "outputs": [],
      "stateMutability": "nonpayable",
      "type": "function"
    },
    {
      "inputs": [
        {
          "internalType": "bytes4",
          "name": "interfaceId",
          "type": "bytes4"
        }
      ],
      "name": "supportsInterface",
      "outputs": [
        {
          "internalType": "bool",
          "name": "",
          "type": "bool"
        }
      ],
      "stateMutability": "view",
      "type": "function"
    },
    {
      "inputs": [
        {
          "internalType": "address",
          "name": "impl",
          "type": "address"
        }
      ],
      "name": "upgrade",
      "outputs": [],
      "stateMutability": "nonpayable",
      "type": "function"
    },
    {
      "stateMutability": "payable",
      "type": "receive"
    },
    {
      "inputs": [
        {
          "internalType": "address",
          "name": "host",
          "type": "address"
        },
        {
          "internalType": "string",
          "name": "description",
          "type": "string"
        },
        {
          "internalType": "address",
          "name": "operator",
          "type": "address"
        }
      ],
      "name": "initLedger",
      "outputs": [],
      "stateMutability": "nonpayable",
      "type": "function"
    },
    {
      "inputs": [],
      "name": "getBalance",
      "outputs": [
        {
          "internalType": "uint256",
          "name": "",
          "type": "uint256"
        }
      ],
      "stateMutability": "view",
      "type": "function"
    },
    {
      "inputs": [
        {
          "internalType": "uint256",
          "name": "amount",
          "type": "uint256"
        },
        {
          "internalType": "string",
          "name": "description",
          "type": "string"
        }
      ],
      "name": "release",
      "outputs": [],
      "stateMutability": "payable",
      "type": "function"
    },
    {
      "inputs": [
        {
          "internalType": "string",
          "name": "name",
          "type": "string"
        },
        {
          "internalType": "string",
          "name": "description",
          "type": "string"
        }
      ],
      "name": "deposit",
      "outputs": [],
      "stateMutability": "payable",
      "type": "function"
    },
    {
      "inputs": [
        {
          "internalType": "address",
          "name": "token",
          "type": "address"
        },
        {
          "internalType": "uint256",
          "name": "tokenId",
          "type": "uint256"
        },
        {
          "internalType": "address",
          "name": "source",
          "type": "address"
        },
        {
          "internalType": "address",
          "name": "to",
          "type": "address"
        },
        {
          "internalType": "uint256",
          "name": "price",
          "type": "uint256"
        },
        {
          "internalType": "enum IAssetShell.SaleType",
          "name": "saleType",
          "type": "uint8"
        }
      ],
      "name": "assetIncome",
      "outputs": [],
      "stateMutability": "payable",
      "type": "function"
    },
    {
      "inputs": [
        {
          "internalType": "uint256",
          "name": "amount",
          "type": "uint256"
        },
        {
          "internalType": "address",
          "name": "target",
          "type": "address"
        },
        {
          "internalType": "string",
          "name": "description",
          "type": "string"
        }
      ],
      "name": "withdraw",
      "outputs": [],
      "stateMutability": "payable",
      "type": "function"
    }
  ],
  "bytecode": "0x608060405234801561001057600080fd5b50611adf806100206000396000f3fe6080604052600436106100ec5760003560e01c80638abf60771161008a578063e0626f7e11610059578063e0626f7e14610286578063f108a7d214610299578063f437bc59146102ac578063f4c38e51146102ca576100fb565b80638abf60771461021557806390c3f38f14610233578063b3ab15fb14610253578063c898f11614610273576100fb565b80634c6e425b116100c65780634c6e425b1461018e578063570ca735146101ae5780637284e416146101e05780637a9b486d14610202576100fb565b806301ffc9a7146101035780630900f0101461015257806312065fe014610172576100fb565b366100fb576100f96102ea565b005b6100f96102ea565b34801561010f57600080fd5b5061013d61011e366004611311565b6001600160e01b03191660009081526001602052604090205460ff1690565b60405190151581526020015b60405180910390f35b34801561015e57600080fd5b506100f961016d366004611357565b610328565b34801561017e57600080fd5b5060405130318152602001610149565b34801561019a57600080fd5b506100f96101a9366004611311565b6103a5565b3480156101ba57600080fd5b506003546001600160a01b03165b6040516001600160a01b039091168152602001610149565b3480156101ec57600080fd5b506101f56103f3565b60405161014991906113c4565b6100f96102103660046114c5565b610485565b34801561022157600080fd5b506000546001600160a01b03166101c8565b34801561023f57600080fd5b506100f961024e366004611529565b6104da565b34801561025f57600080fd5b506100f961026e366004611357565b610631565b6100f9610281366004611566565b6106a7565b6100f96102943660046115da565b610763565b6100f96102a7366004611617565b610d62565b3480156102b857600080fd5b506002546001600160a01b03166101c8565b3480156102d657600080fd5b506100f96102e5366004611670565b610f03565b34156103265760405134815233907fd6717f327e0cb88b4a97a7f67a453e9258252c34937ccbdd86de7cb840e7def39060200160405180910390a25b565b610330610f23565b61034d57604051631b4004a360e31b815260040160405180910390fd5b600080546001600160a01b0319166001600160a01b0383169081179091556040519081526003907f7016719027ff29c13bc4816903851ea968172a86b766c733b954fdabe53c87ee906020015b60405180910390a250565b6001600160e01b0319811660009081526001602052604090205460ff166103f057604051632aae78ef60e01b81526001600160e01b0319821660048201526024015b60405180910390fd5b50565b606060048054610402906116d4565b80601f016020809104026020016040519081016040528092919081815260200182805461042e906116d4565b801561047b5780601f106104505761010080835404028352916020019161047b565b820191906000526020600020905b81548152906001019060200180831161045e57829003601f168201915b5050505050905090565b34600003610491575050565b336001600160a01b03167f7c13173c065e3a307058ee9baa4a75e787d82d38348af6720b8aca2c2c5222fd3484846040516104ce9392919061170e565b60405180910390a25050565b63d0a4ad966104e7610f23565b6105f057600260009054906101000a90046001600160a01b03166001600160a01b031663e3f6b5446040518163ffffffff1660e01b8152600401602060405180830381865afa15801561053e573d6000803e3d6000fd5b505050506040513d601f19601f820116820180604052508101906105629190611743565b60405163a8a555c560e01b8152336004820152602481018390526001600160a01b03919091169063a8a555c590604401602060405180830381865afa1580156105af573d6000803e3d6000fd5b505050506040513d601f19601f820116820180604052508101906105d39190611760565b6105f057604051630782484160e21b815260040160405180910390fd5b60046105fc83826117d0565b5060017f7016719027ff29c13bc4816903851ea968172a86b766c733b954fdabe53c87ee60006040516104ce91815260200190565b610639610f23565b61065657604051631b4004a360e31b815260040160405180910390fd5b600380546001600160a01b0319166001600160a01b0383169081179091556040519081526002907f7016719027ff29c13bc4816903851ea968172a86b766c733b954fdabe53c87ee9060200161039a565b346000036107095760405162461bcd60e51b815260206004820152602960248201527f234c6564676572236173736574496e636f6d652070726f6669742063616e6e6f60448201526874206265207a65726f60b81b60648201526084016103e7565b836001600160a01b031685876001600160a01b03167f465bee969ca5be6b54c0650ebb87c8f7dabceda8e26bed246040611517556682863487876040516107539493929190611890565b60405180910390a4505050505050565b63f108a7d2610770610f23565b61087957600260009054906101000a90046001600160a01b03166001600160a01b031663e3f6b5446040518163ffffffff1660e01b8152600401602060405180830381865afa1580156107c7573d6000803e3d6000fd5b505050506040513d601f19601f820116820180604052508101906107eb9190611743565b60405163a8a555c560e01b8152336004820152602481018390526001600160a01b03919091169063a8a555c590604401602060405180830381865afa158015610838573d6000803e3d6000fd5b505050506040513d601f19601f8201168201806040525081019061085c9190611760565b61087957604051630782484160e21b815260040160405180910390fd5b6108816102ea565b3031838110156108a457604051631e9acf1760e31b815260040160405180910390fd5b600254604080516338fdad5160e21b815290516000926001600160a01b03169163e3f6b5449160048083019260209291908290030181865afa1580156108ee573d6000803e3d6000fd5b505050506040513d601f19601f820116820180604052508101906109129190611743565b6001600160a01b031663e168c3ec6040518163ffffffff1660e01b8152600401602060405180830381865afa15801561094f573d6000803e3d6000fd5b505050506040513d601f19601f8201168201806040525081019061097391906118db565b90506000610981828761190a565b9050806000036109a457604051631e9acf1760e31b815260040160405180910390fd5b600254604080516338fdad5160e21b815290516000926001600160a01b03169163e3f6b5449160048083019260209291908290030181865afa1580156109ee573d6000803e3d6000fd5b505050506040513d601f19601f82011682018060405250810190610a129190611743565b6001600160a01b0316632ddbd13a6040518163ffffffff1660e01b8152600401602060405180830381865afa158015610a4f573d6000803e3d6000fd5b505050506040513d601f19601f82011682018060405250810190610a7391906118db565b9050610aad6040518060a0016040528060008152602001606081526020016060815260200160608152602001600063ffffffff1681525090565b60005b82811015610d1457600260009054906101000a90046001600160a01b03166001600160a01b031663e3f6b5446040518163ffffffff1660e01b8152600401602060405180830381865afa158015610b0b573d6000803e3d6000fd5b505050506040513d601f19601f82011682018060405250810190610b2f9190611743565b6001600160a01b031663a42bbccd826040518263ffffffff1660e01b8152600401610b5c91815260200190565b600060405180830381865afa158015610b79573d6000803e3d6000fd5b505050506040513d6000823e601f3d908101601f19168201604052610ba1919081019061198a565b91506000600260009054906101000a90046001600160a01b03166001600160a01b031663e3f6b5446040518163ffffffff1660e01b8152600401602060405180830381865afa158015610bf8573d6000803e3d6000fd5b505050506040513d601f19601f82011682018060405250810190610c1c9190611743565b83516040516331a9108f60e11b81526001600160a01b039290921691636352211e91610c4e9160040190815260200190565b602060405180830381865afa158015610c6b573d6000803e3d6000fd5b505050506040513d601f19601f82011682018060405250810190610c8f9190611743565b9050600085846080015163ffffffff16610ca99190611a5a565b9050610cbe6001600160a01b03831682611062565b83516040518281526001600160a01b03841691907fe332e9963bc980fb82ccd3e7e181d76bddde349eec46b4ba393f3444529cd17f9060200160405180910390a350508080610d0c90611a77565b915050610ab0565b50336001600160a01b03167f4509e941867cecb397984b952fe483965c463c0bbbee9f617173d844bbf677908989604051610d50929190611a90565b60405180910390a25050505050505050565b63f108a7d2610d6f610f23565b610e7857600260009054906101000a90046001600160a01b03166001600160a01b031663e3f6b5446040518163ffffffff1660e01b8152600401602060405180830381865afa158015610dc6573d6000803e3d6000fd5b505050506040513d601f19601f82011682018060405250810190610dea9190611743565b60405163a8a555c560e01b8152336004820152602481018390526001600160a01b03919091169063a8a555c590604401602060405180830381865afa158015610e37573d6000803e3d6000fd5b505050506040513d601f19601f82011682018060405250810190610e5b9190611760565b610e7857604051630782484160e21b815260040160405180910390fd5b6001600160a01b038316610e9f57604051635bb7a72360e01b815260040160405180910390fd5b610ea76102ea565b610eba6001600160a01b03841685611062565b826001600160a01b03167f485f1bb6524c663555797e00171a10f341656e59b02d6b557a0a38ba7d5d97518584604051610ef5929190611a90565b60405180910390a250505050565b610f0e8383836110f8565b610f1e63f4c38e5160e01b61115c565b505050565b60035460009033906001600160a01b0316811461105a57600260009054906101000a90046001600160a01b03166001600160a01b031663570ca7356040518163ffffffff1660e01b8152600401602060405180830381865afa158015610f8d573d6000803e3d6000fd5b505050506040513d601f19601f82011682018060405250810190610fb19190611743565b6001600160a01b0316816001600160a01b03161461105a57600260009054906101000a90046001600160a01b03166001600160a01b031663ebf0c7176040518163ffffffff1660e01b8152600401602060405180830381865afa15801561101c573d6000803e3d6000fd5b505050506040513d601f19601f820116820180604052508101906110409190611743565b6001600160a01b0316816001600160a01b03161491505090565b600191505090565b303181111561108457604051631e9acf1760e31b815260040160405180910390fd5b6000826001600160a01b03168260405160006040518083038185875af1925050503d80600081146110d1576040519150601f19603f3d011682016040523d82523d6000602084013e6110d6565b606091505b5050905080610f1e57604051634cc9d21160e11b815260040160405180910390fd5b6111006111de565b611110630d64f40d60e31b61115c565b600280546001600160a01b0319166001600160a01b038516179055600461113783826117d0565b50600380546001600160a01b0319166001600160a01b03929092169190911790555050565b6001600160e01b031980821690036111b65760405162461bcd60e51b815260206004820152601c60248201527f4552433136353a20696e76616c696420696e746572666163652069640000000060448201526064016103e7565b6001600160e01b0319166000908152600160208190526040909120805460ff19169091179055565b600054600160a81b900460ff161580801561120657506000546001600160a01b90910460ff16105b806112275750303b1580156112275750600054600160a01b900460ff166001145b61128a5760405162461bcd60e51b815260206004820152602e60248201527f496e697469616c697a61626c653a20636f6e747261637420697320616c72656160448201526d191e481a5b9a5d1a585b1a5e995960921b60648201526084016103e7565b6000805460ff60a01b1916600160a01b17905580156112b7576000805460ff60a81b1916600160a81b1790555b6112c76301ffc9a760e01b61115c565b80156103f0576000805460ff60a81b19169055604051600181527f7f26b83ff96e1f2b6a682f133852f6798a09c465da95921460cefb38474024989060200160405180910390a150565b60006020828403121561132357600080fd5b81356001600160e01b03198116811461133b57600080fd5b9392505050565b6001600160a01b03811681146103f057600080fd5b60006020828403121561136957600080fd5b813561133b81611342565b60005b8381101561138f578181015183820152602001611377565b50506000910152565b600081518084526113b0816020860160208601611374565b601f01601f19169290920160200192915050565b60208152600061133b6020830184611398565b634e487b7160e01b600052604160045260246000fd5b60405160a0810167ffffffffffffffff81118282101715611410576114106113d7565b60405290565b604051601f8201601f1916810167ffffffffffffffff8111828210171561143f5761143f6113d7565b604052919050565b600067ffffffffffffffff821115611461576114616113d7565b50601f01601f191660200190565b600082601f83011261148057600080fd5b813561149361148e82611447565b611416565b8181528460208386010111156114a857600080fd5b816020850160208301376000918101602001919091529392505050565b600080604083850312156114d857600080fd5b823567ffffffffffffffff808211156114f057600080fd5b6114fc8683870161146f565b9350602085013591508082111561151257600080fd5b5061151f8582860161146f565b9150509250929050565b60006020828403121561153b57600080fd5b813567ffffffffffffffff81111561155257600080fd5b61155e8482850161146f565b949350505050565b60008060008060008060c0878903121561157f57600080fd5b863561158a81611342565b95506020870135945060408701356115a181611342565b935060608701356115b181611342565b92506080870135915060a0870135600381106115cc57600080fd5b809150509295509295509295565b600080604083850312156115ed57600080fd5b82359150602083013567ffffffffffffffff81111561160b57600080fd5b61151f8582860161146f565b60008060006060848603121561162c57600080fd5b83359250602084013561163e81611342565b9150604084013567ffffffffffffffff81111561165a57600080fd5b6116668682870161146f565b9150509250925092565b60008060006060848603121561168557600080fd5b833561169081611342565b9250602084013567ffffffffffffffff8111156116ac57600080fd5b6116b88682870161146f565b92505060408401356116c981611342565b809150509250925092565b600181811c908216806116e857607f821691505b60208210810361170857634e487b7160e01b600052602260045260246000fd5b50919050565b8381526060602082015260006117276060830185611398565b82810360408401526117398185611398565b9695505050505050565b60006020828403121561175557600080fd5b815161133b81611342565b60006020828403121561177257600080fd5b8151801515811461133b57600080fd5b601f821115610f1e57600081815260208120601f850160051c810160208610156117a95750805b601f850160051c820191505b818110156117c8578281556001016117b5565b505050505050565b815167ffffffffffffffff8111156117ea576117ea6113d7565b6117fe816117f884546116d4565b84611782565b602080601f831160018114611833576000841561181b5750858301515b600019600386901b1c1916600185901b1785556117c8565b600085815260208120601f198616915b8281101561186257888601518255948401946001909101908401611843565b50858210156118805787850151600019600388901b60f8161c191681555b5050505050600190811b01905550565b6001600160a01b0385168152602081018490526040810183905260808101600383106118cc57634e487b7160e01b600052602160045260246000fd5b82606083015295945050505050565b6000602082840312156118ed57600080fd5b5051919050565b634e487b7160e01b600052601160045260246000fd5b60008261192757634e487b7160e01b600052601260045260246000fd5b500490565b600082601f83011261193d57600080fd5b815161194b61148e82611447565b81815284602083860101111561196057600080fd5b61155e826020830160208701611374565b805163ffffffff8116811461198557600080fd5b919050565b60006020828403121561199c57600080fd5b815167ffffffffffffffff808211156119b457600080fd5b9083019060a082860312156119c857600080fd5b6119d06113ed565b825181526020830151828111156119e657600080fd5b6119f28782860161192c565b602083015250604083015182811115611a0a57600080fd5b611a168782860161192c565b604083015250606083015182811115611a2e57600080fd5b611a3a8782860161192c565b606083015250611a4c60808401611971565b608082015295945050505050565b8082028115828204841417611a7157611a716118f4565b92915050565b600060018201611a8957611a896118f4565b5060010190565b82815260406020820152600061155e604083018461139856fea26469706673582212207e03cc437b3ea93f3f012e9a1dde99181ddcb61c77a960a2698043520007b73964736f6c63430008110033",
  "immutableReferences": {},
  "source": "// SPDX-License-Identifier: MIT\npragma solidity 0.8.17;\n\npragma experimental ABIEncoderV2;\n\nimport './libs/Interface.sol';\nimport './Module.sol';\n\n/**\n * @title Ledger manage\n */\ncontract Ledger is ILedger, Module {\n\tusing AddressExp for address;\n\n\tuint256[16] private __; // reserved storage space\n\n\tfunction initLedger(address host, string memory description, address operator) external {\n\t\tinitModule(host, description, operator);\n\t\t_registerInterface(Ledger_Type);\n\t}\n\n\tfunction receiveBalance() internal {\n\t\tif (msg.value != 0) {\n\t\t\temit Receive(msg.sender, msg.value);\n\t\t}\n\t}\n\n\tfunction getBalance() view public returns (uint256) {\n\t\treturn address(this).balance;\n\t}\n\n\tfunction release(uint256 amount, string memory description) external payable Check(Action_Ledger_Withdraw) {\n\t\treceiveBalance();\n\n\t\tuint256 curamount = address(this).balance;\n\t\t// require(curamount >= amount, \"#Ledger#release insufficient balance\");\n\t\tif (curamount < amount) revert InsufficientBalance();\n\n\t\tuint256 votes = _host.member().votes();\n\t\tuint256 unit = amount / votes;\n\n\t\t// require(unit != 0 , \"#Ledger#release insufficient balance release\");\n\t\tif (unit == 0) revert InsufficientBalance();\n\n\t\tuint256 total = _host.member().total();\n\n\t\tIMember.Info memory info;\n\n\t\tfor (uint256 i = 0; i < total; i++) {\n\t\t\tinfo = _host.member().indexAt(i);\n\t\t\taddress owner = _host.member().ownerOf(info.id);\n\t\t\tuint256 balance = info.votes * unit;\n\t\t\towner.sendValue(balance);\n\t\t\temit Release(info.id, owner, balance);\n\t\t}\n\n\t\temit ReleaseLog(msg.sender, amount, description);\n\t}\n\n\tfunction deposit(string memory name, string memory description) public payable {\n\t\tif (msg.value == 0) return;\n\t\temit Deposit(msg.sender, msg.value, name, description);\n\t}\n\n\tfunction assetIncome(\n\t\taddress token,   uint256 tokenId,\n\t\taddress source,  address to,\n\t\tuint256 price,   IAssetShell.SaleType saleType\n\t) public payable override {\n\t\trequire(msg.value != 0, \"#Ledger#assetIncome profit cannot be zero\");\n\t\temit AssetIncome(token, tokenId, source, to, msg.value, price, saleType);\n\t}\n\n\tfunction withdraw(uint256 amount, address target, string memory description)\n\t\texternal payable override Check(Action_Ledger_Withdraw) \n\t{\n\t\t//require(target != address(0), \"#Ledger#withdraw receive assress not address(0)\");\n\t\tif (target == address(0)) revert AddressEmpty();\n\t\treceiveBalance();\n\t\ttarget.sendValue(amount);\n\t\temit Withdraw(target, amount, description);\n\t}\n\n\treceive() external payable {\n\t\treceiveBalance();\n\t}\n\n\tfallback() external payable {\n\t\treceiveBalance();\n\t}\n\n}",
  "sourcePath": "/Users/louis/Project/hc/NFTSwap/SmartHolder/contracts/Ledger.sol",
  "compiler": {
    "name": "solc",
    "version": "0.8.17+commit.8df45f5f.Emscripten.clang"
  },
  "schemaVersion": "3.4.11",
  "updatedAt": "2023-03-29T08:55:12.355Z",
  "networkType": "ethereum",
  "devdoc": {
    "kind": "dev",
    "methods": {
      "supportsInterface(bytes4)": {
        "details": "See {IERC165-supportsInterface}. Time complexity O(1), guaranteed to always use less than 30 000 gas."
      }
    },
    "title": "Ledger manage",
    "version": 1
  },
  "userdoc": {
    "kind": "user",
    "methods": {},
    "version": 1
  }
}