{
  "contractName": "Member",
  "abi": [
    {
      "inputs": [],
      "name": "AddressEmpty",
      "type": "error"
    },
    {
      "inputs": [],
      "name": "ApprovalToOwnerInERC721",
      "type": "error"
    },
    {
      "inputs": [],
      "name": "ApproveAllToCallerInERC721",
      "type": "error"
    },
    {
      "inputs": [
        {
          "internalType": "bytes4",
          "name": "interfaceId",
          "type": "bytes4"
        }
      ],
      "name": "CheckInterfaceNoMatch",
      "type": "error"
    },
    {
      "inputs": [],
      "name": "InsufficientVotesInMember",
      "type": "error"
    },
    {
      "inputs": [],
      "name": "MemberAlreadyExists",
      "type": "error"
    },
    {
      "inputs": [],
      "name": "MemberNonExists",
      "type": "error"
    },
    {
      "inputs": [],
      "name": "MemberRequestJoinAlreadyExists",
      "type": "error"
    },
    {
      "inputs": [],
      "name": "NonERC721ReceiverImplementer",
      "type": "error"
    },
    {
      "inputs": [],
      "name": "PermissionDenied",
      "type": "error"
    },
    {
      "inputs": [],
      "name": "PermissionDeniedForOnlyDAO",
      "type": "error"
    },
    {
      "inputs": [],
      "name": "PermissionDeniedInERC721",
      "type": "error"
    },
    {
      "inputs": [],
      "name": "TokenIDAlreadyMintedInERC721",
      "type": "error"
    },
    {
      "inputs": [],
      "name": "TokenIDNonExistentInERC721",
      "type": "error"
    },
    {
      "inputs": [],
      "name": "TransferOfTokenIDThatIsNotOwnInERC721",
      "type": "error"
    },
    {
      "anonymous": false,
      "inputs": [
        {
          "indexed": false,
          "internalType": "uint256[]",
          "name": "ids",
          "type": "uint256[]"
        },
        {
          "indexed": false,
          "internalType": "uint256[]",
          "name": "actions",
          "type": "uint256[]"
        }
      ],
      "name": "AddPermissions",
      "type": "event"
    },
    {
      "anonymous": false,
      "inputs": [
        {
          "indexed": true,
          "internalType": "address",
          "name": "owner",
          "type": "address"
        },
        {
          "indexed": true,
          "internalType": "address",
          "name": "approved",
          "type": "address"
        },
        {
          "indexed": true,
          "internalType": "uint256",
          "name": "tokenId",
          "type": "uint256"
        }
      ],
      "name": "Approval",
      "type": "event"
    },
    {
      "anonymous": false,
      "inputs": [
        {
          "indexed": true,
          "internalType": "address",
          "name": "owner",
          "type": "address"
        },
        {
          "indexed": true,
          "internalType": "address",
          "name": "operator",
          "type": "address"
        },
        {
          "indexed": false,
          "internalType": "bool",
          "name": "approved",
          "type": "bool"
        }
      ],
      "name": "ApprovalForAll",
      "type": "event"
    },
    {
      "anonymous": false,
      "inputs": [
        {
          "indexed": true,
          "internalType": "uint256",
          "name": "tag",
          "type": "uint256"
        },
        {
          "indexed": false,
          "internalType": "uint256",
          "name": "value",
          "type": "uint256"
        }
      ],
      "name": "Change",
      "type": "event"
    },
    {
      "anonymous": false,
      "inputs": [
        {
          "indexed": false,
          "internalType": "uint8",
          "name": "version",
          "type": "uint8"
        }
      ],
      "name": "Initialized",
      "type": "event"
    },
    {
      "anonymous": false,
      "inputs": [
        {
          "indexed": false,
          "internalType": "uint256[]",
          "name": "ids",
          "type": "uint256[]"
        },
        {
          "indexed": false,
          "internalType": "uint256[]",
          "name": "actions",
          "type": "uint256[]"
        }
      ],
      "name": "RemovePermissions",
      "type": "event"
    },
    {
      "anonymous": false,
      "inputs": [
        {
          "indexed": true,
          "internalType": "uint256",
          "name": "id",
          "type": "uint256"
        },
        {
          "indexed": false,
          "internalType": "uint256[]",
          "name": "addActions",
          "type": "uint256[]"
        },
        {
          "indexed": false,
          "internalType": "uint256[]",
          "name": "removeActions",
          "type": "uint256[]"
        }
      ],
      "name": "SetPermissions",
      "type": "event"
    },
    {
      "anonymous": false,
      "inputs": [
        {
          "indexed": true,
          "internalType": "address",
          "name": "from",
          "type": "address"
        },
        {
          "indexed": true,
          "internalType": "address",
          "name": "to",
          "type": "address"
        },
        {
          "indexed": true,
          "internalType": "uint256",
          "name": "tokenId",
          "type": "uint256"
        }
      ],
      "name": "Transfer",
      "type": "event"
    },
    {
      "anonymous": false,
      "inputs": [
        {
          "indexed": true,
          "internalType": "uint256",
          "name": "from",
          "type": "uint256"
        },
        {
          "indexed": true,
          "internalType": "uint256",
          "name": "to",
          "type": "uint256"
        },
        {
          "indexed": false,
          "internalType": "uint32",
          "name": "votes",
          "type": "uint32"
        }
      ],
      "name": "TransferVotes",
      "type": "event"
    },
    {
      "anonymous": false,
      "inputs": [
        {
          "indexed": true,
          "internalType": "uint256",
          "name": "id",
          "type": "uint256"
        }
      ],
      "name": "Update",
      "type": "event"
    },
    {
      "inputs": [
        {
          "internalType": "address",
          "name": "to",
          "type": "address"
        },
        {
          "internalType": "uint256",
          "name": "tokenId",
          "type": "uint256"
        }
      ],
      "name": "approve",
      "outputs": [],
      "stateMutability": "nonpayable",
      "type": "function"
    },
    {
      "inputs": [
        {
          "internalType": "address",
          "name": "owner",
          "type": "address"
        }
      ],
      "name": "balanceOf",
      "outputs": [
        {
          "internalType": "uint256",
          "name": "",
          "type": "uint256"
        }
      ],
      "stateMutability": "view",
      "type": "function"
    },
    {
      "inputs": [],
      "name": "baseURI",
      "outputs": [
        {
          "internalType": "string",
          "name": "",
          "type": "string"
        }
      ],
      "stateMutability": "view",
      "type": "function"
    },
    {
      "inputs": [
        {
          "internalType": "bytes4",
          "name": "interfaceId",
          "type": "bytes4"
        }
      ],
      "name": "checkInterface",
      "outputs": [],
      "stateMutability": "view",
      "type": "function"
    },
    {
      "inputs": [],
      "name": "description",
      "outputs": [
        {
          "internalType": "string",
          "name": "",
          "type": "string"
        }
      ],
      "stateMutability": "view",
      "type": "function"
    },
    {
      "inputs": [
        {
          "internalType": "uint256",
          "name": "id",
          "type": "uint256"
        }
      ],
      "name": "exists",
      "outputs": [
        {
          "internalType": "bool",
          "name": "",
          "type": "bool"
        }
      ],
      "stateMutability": "view",
      "type": "function"
    },
    {
      "inputs": [
        {
          "internalType": "uint256",
          "name": "tokenId",
          "type": "uint256"
        }
      ],
      "name": "getApproved",
      "outputs": [
        {
          "internalType": "address",
          "name": "",
          "type": "address"
        }
      ],
      "stateMutability": "view",
      "type": "function"
    },
    {
      "inputs": [],
      "name": "host",
      "outputs": [
        {
          "internalType": "contract IDAO",
          "name": "",
          "type": "address"
        }
      ],
      "stateMutability": "view",
      "type": "function"
    },
    {
      "inputs": [],
      "name": "impl",
      "outputs": [
        {
          "internalType": "address",
          "name": "",
          "type": "address"
        }
      ],
      "stateMutability": "view",
      "type": "function"
    },
    {
      "inputs": [
        {
          "internalType": "address",
          "name": "owner",
          "type": "address"
        },
        {
          "internalType": "address",
          "name": "operator",
          "type": "address"
        }
      ],
      "name": "isApprovedForAll",
      "outputs": [
        {
          "internalType": "bool",
          "name": "",
          "type": "bool"
        }
      ],
      "stateMutability": "view",
      "type": "function"
    },
    {
      "inputs": [],
      "name": "name",
      "outputs": [
        {
          "internalType": "string",
          "name": "",
          "type": "string"
        }
      ],
      "stateMutability": "view",
      "type": "function"
    },
    {
      "inputs": [],
      "name": "operator",
      "outputs": [
        {
          "internalType": "address",
          "name": "",
          "type": "address"
        }
      ],
      "stateMutability": "view",
      "type": "function"
    },
    {
      "inputs": [
        {
          "internalType": "uint256",
          "name": "tokenId",
          "type": "uint256"
        }
      ],
      "name": "ownerOf",
      "outputs": [
        {
          "internalType": "address",
          "name": "owner",
          "type": "address"
        }
      ],
      "stateMutability": "view",
      "type": "function"
    },
    {
      "inputs": [
        {
          "internalType": "address",
          "name": "from",
          "type": "address"
        },
        {
          "internalType": "address",
          "name": "to",
          "type": "address"
        },
        {
          "internalType": "uint256",
          "name": "tokenId",
          "type": "uint256"
        }
      ],
      "name": "safeTransferFrom",
      "outputs": [],
      "stateMutability": "nonpayable",
      "type": "function"
    },
    {
      "inputs": [
        {
          "internalType": "address",
          "name": "from",
          "type": "address"
        },
        {
          "internalType": "address",
          "name": "to",
          "type": "address"
        },
        {
          "internalType": "uint256",
          "name": "tokenId",
          "type": "uint256"
        },
        {
          "internalType": "bytes",
          "name": "_data",
          "type": "bytes"
        }
      ],
      "name": "safeTransferFrom",
      "outputs": [],
      "stateMutability": "nonpayable",
      "type": "function"
    },
    {
      "inputs": [
        {
          "internalType": "address",
          "name": "operator",
          "type": "address"
        },
        {
          "internalType": "bool",
          "name": "approved",
          "type": "bool"
        }
      ],
      "name": "setApprovalForAll",
      "outputs": [],
      "stateMutability": "nonpayable",
      "type": "function"
    },
    {
      "inputs": [
        {
          "internalType": "string",
          "name": "value",
          "type": "string"
        }
      ],
      "name": "setDescription",
      "outputs": [],
      "stateMutability": "nonpayable",
      "type": "function"
    },
    {
      "inputs": [
        {
          "internalType": "address",
          "name": "operator",
          "type": "address"
        }
      ],
      "name": "setOperator",
      "outputs": [],
      "stateMutability": "nonpayable",
      "type": "function"
    },
    {
      "inputs": [
        {
          "internalType": "bytes4",
          "name": "interfaceId",
          "type": "bytes4"
        }
      ],
      "name": "supportsInterface",
      "outputs": [
        {
          "internalType": "bool",
          "name": "",
          "type": "bool"
        }
      ],
      "stateMutability": "view",
      "type": "function"
    },
    {
      "inputs": [],
      "name": "symbol",
      "outputs": [
        {
          "internalType": "string",
          "name": "",
          "type": "string"
        }
      ],
      "stateMutability": "view",
      "type": "function"
    },
    {
      "inputs": [
        {
          "internalType": "uint256",
          "name": "index",
          "type": "uint256"
        }
      ],
      "name": "tokenByIndex",
      "outputs": [
        {
          "internalType": "uint256",
          "name": "",
          "type": "uint256"
        }
      ],
      "stateMutability": "view",
      "type": "function"
    },
    {
      "inputs": [
        {
          "internalType": "address",
          "name": "owner",
          "type": "address"
        },
        {
          "internalType": "uint256",
          "name": "index",
          "type": "uint256"
        }
      ],
      "name": "tokenOfOwnerByIndex",
      "outputs": [
        {
          "internalType": "uint256",
          "name": "",
          "type": "uint256"
        }
      ],
      "stateMutability": "view",
      "type": "function"
    },
    {
      "inputs": [],
      "name": "totalSupply",
      "outputs": [
        {
          "internalType": "uint256",
          "name": "",
          "type": "uint256"
        }
      ],
      "stateMutability": "view",
      "type": "function"
    },
    {
      "inputs": [
        {
          "internalType": "address",
          "name": "from",
          "type": "address"
        },
        {
          "internalType": "address",
          "name": "to",
          "type": "address"
        },
        {
          "internalType": "uint256",
          "name": "tokenId",
          "type": "uint256"
        }
      ],
      "name": "transferFrom",
      "outputs": [],
      "stateMutability": "nonpayable",
      "type": "function"
    },
    {
      "inputs": [
        {
          "internalType": "address",
          "name": "impl",
          "type": "address"
        }
      ],
      "name": "upgrade",
      "outputs": [],
      "stateMutability": "nonpayable",
      "type": "function"
    },
    {
      "inputs": [
        {
          "internalType": "address",
          "name": "host",
          "type": "address"
        },
        {
          "internalType": "string",
          "name": "name",
          "type": "string"
        },
        {
          "internalType": "string",
          "name": "description",
          "type": "string"
        },
        {
          "internalType": "string",
          "name": "baseURI",
          "type": "string"
        },
        {
          "internalType": "address",
          "name": "operator",
          "type": "address"
        },
        {
          "components": [
            {
              "internalType": "address",
              "name": "owner",
              "type": "address"
            },
            {
              "components": [
                {
                  "internalType": "uint256",
                  "name": "id",
                  "type": "uint256"
                },
                {
                  "internalType": "string",
                  "name": "name",
                  "type": "string"
                },
                {
                  "internalType": "string",
                  "name": "description",
                  "type": "string"
                },
                {
                  "internalType": "string",
                  "name": "image",
                  "type": "string"
                },
                {
                  "internalType": "uint32",
                  "name": "votes",
                  "type": "uint32"
                }
              ],
              "internalType": "struct IMember.Info",
              "name": "info",
              "type": "tuple"
            },
            {
              "internalType": "uint256[]",
              "name": "permissions",
              "type": "uint256[]"
            }
          ],
          "internalType": "struct Member.MintMemberArgs[]",
          "name": "members",
          "type": "tuple[]"
        }
      ],
      "name": "initMember",
      "outputs": [],
      "stateMutability": "nonpayable",
      "type": "function"
    },
    {
      "inputs": [
        {
          "internalType": "uint256",
          "name": "id",
          "type": "uint256"
        }
      ],
      "name": "remove",
      "outputs": [],
      "stateMutability": "nonpayable",
      "type": "function"
    },
    {
      "inputs": [
        {
          "internalType": "address",
          "name": "owner",
          "type": "address"
        },
        {
          "components": [
            {
              "internalType": "uint256",
              "name": "id",
              "type": "uint256"
            },
            {
              "internalType": "string",
              "name": "name",
              "type": "string"
            },
            {
              "internalType": "string",
              "name": "description",
              "type": "string"
            },
            {
              "internalType": "string",
              "name": "image",
              "type": "string"
            },
            {
              "internalType": "uint32",
              "name": "votes",
              "type": "uint32"
            }
          ],
          "internalType": "struct IMember.Info",
          "name": "info",
          "type": "tuple"
        },
        {
          "internalType": "uint256[]",
          "name": "permissions",
          "type": "uint256[]"
        }
      ],
      "name": "create",
      "outputs": [],
      "stateMutability": "nonpayable",
      "type": "function"
    },
    {
      "inputs": [
        {
          "internalType": "address",
          "name": "owner",
          "type": "address"
        },
        {
          "internalType": "uint256",
          "name": "id",
          "type": "uint256"
        },
        {
          "internalType": "uint32",
          "name": "votes",
          "type": "uint32"
        },
        {
          "internalType": "uint256[]",
          "name": "permissions",
          "type": "uint256[]"
        },
        {
          "internalType": "string",
          "name": "name",
          "type": "string"
        },
        {
          "internalType": "string",
          "name": "description",
          "type": "string"
        },
        {
          "internalType": "string",
          "name": "image",
          "type": "string"
        }
      ],
      "name": "createFrom",
      "outputs": [],
      "stateMutability": "nonpayable",
      "type": "function"
    },
    {
      "inputs": [
        {
          "internalType": "address",
          "name": "owner",
          "type": "address"
        },
        {
          "components": [
            {
              "internalType": "uint256",
              "name": "id",
              "type": "uint256"
            },
            {
              "internalType": "string",
              "name": "name",
              "type": "string"
            },
            {
              "internalType": "string",
              "name": "description",
              "type": "string"
            },
            {
              "internalType": "string",
              "name": "image",
              "type": "string"
            },
            {
              "internalType": "uint32",
              "name": "votes",
              "type": "uint32"
            }
          ],
          "internalType": "struct IMember.Info",
          "name": "info",
          "type": "tuple"
        },
        {
          "internalType": "uint256[]",
          "name": "permissions",
          "type": "uint256[]"
        }
      ],
      "name": "requestJoin",
      "outputs": [
        {
          "internalType": "uint256",
          "name": "id",
          "type": "uint256"
        }
      ],
      "stateMutability": "nonpayable",
      "type": "function"
    },
    {
      "inputs": [
        {
          "internalType": "uint256",
          "name": "tokenId",
          "type": "uint256"
        }
      ],
      "name": "tokenURI",
      "outputs": [
        {
          "internalType": "string",
          "name": "uri",
          "type": "string"
        }
      ],
      "stateMutability": "view",
      "type": "function"
    },
    {
      "inputs": [],
      "name": "votes",
      "outputs": [
        {
          "internalType": "uint256",
          "name": "",
          "type": "uint256"
        }
      ],
      "stateMutability": "view",
      "type": "function"
    },
    {
      "inputs": [
        {
          "internalType": "uint256",
          "name": "id",
          "type": "uint256"
        }
      ],
      "name": "getMemberInfo",
      "outputs": [
        {
          "components": [
            {
              "internalType": "uint256",
              "name": "id",
              "type": "uint256"
            },
            {
              "internalType": "string",
              "name": "name",
              "type": "string"
            },
            {
              "internalType": "string",
              "name": "description",
              "type": "string"
            },
            {
              "internalType": "string",
              "name": "image",
              "type": "string"
            },
            {
              "internalType": "uint32",
              "name": "votes",
              "type": "uint32"
            }
          ],
          "internalType": "struct IMember.Info",
          "name": "",
          "type": "tuple"
        }
      ],
      "stateMutability": "view",
      "type": "function"
    },
    {
      "inputs": [
        {
          "internalType": "uint256",
          "name": "id",
          "type": "uint256"
        },
        {
          "internalType": "string",
          "name": "name",
          "type": "string"
        },
        {
          "internalType": "string",
          "name": "description",
          "type": "string"
        },
        {
          "internalType": "string",
          "name": "image",
          "type": "string"
        }
      ],
      "name": "setMemberInfo",
      "outputs": [],
      "stateMutability": "nonpayable",
      "type": "function"
    },
    {
      "inputs": [
        {
          "internalType": "uint256",
          "name": "id",
          "type": "uint256"
        },
        {
          "components": [
            {
              "internalType": "uint256",
              "name": "id",
              "type": "uint256"
            },
            {
              "internalType": "string",
              "name": "name",
              "type": "string"
            },
            {
              "internalType": "string",
              "name": "description",
              "type": "string"
            },
            {
              "internalType": "string",
              "name": "image",
              "type": "string"
            },
            {
              "internalType": "uint32",
              "name": "votes",
              "type": "uint32"
            }
          ],
          "internalType": "struct IMember.Info",
          "name": "info",
          "type": "tuple"
        }
      ],
      "name": "setInfo",
      "outputs": [],
      "stateMutability": "nonpayable",
      "type": "function"
    },
    {
      "inputs": [
        {
          "internalType": "uint256",
          "name": "index",
          "type": "uint256"
        }
      ],
      "name": "indexAt",
      "outputs": [
        {
          "components": [
            {
              "internalType": "uint256",
              "name": "id",
              "type": "uint256"
            },
            {
              "internalType": "string",
              "name": "name",
              "type": "string"
            },
            {
              "internalType": "string",
              "name": "description",
              "type": "string"
            },
            {
              "internalType": "string",
              "name": "image",
              "type": "string"
            },
            {
              "internalType": "uint32",
              "name": "votes",
              "type": "uint32"
            }
          ],
          "internalType": "struct IMember.Info",
          "name": "",
          "type": "tuple"
        }
      ],
      "stateMutability": "view",
      "type": "function"
    },
    {
      "inputs": [
        {
          "internalType": "address",
          "name": "spender",
          "type": "address"
        },
        {
          "internalType": "uint256",
          "name": "id",
          "type": "uint256"
        }
      ],
      "name": "isApprovedOrOwner",
      "outputs": [
        {
          "internalType": "bool",
          "name": "",
          "type": "bool"
        }
      ],
      "stateMutability": "view",
      "type": "function"
    },
    {
      "inputs": [],
      "name": "total",
      "outputs": [
        {
          "internalType": "uint256",
          "name": "",
          "type": "uint256"
        }
      ],
      "stateMutability": "view",
      "type": "function"
    },
    {
      "inputs": [],
      "name": "executor",
      "outputs": [
        {
          "internalType": "uint256",
          "name": "",
          "type": "uint256"
        }
      ],
      "stateMutability": "view",
      "type": "function"
    },
    {
      "inputs": [
        {
          "internalType": "uint256",
          "name": "id",
          "type": "uint256"
        }
      ],
      "name": "setExecutor",
      "outputs": [],
      "stateMutability": "nonpayable",
      "type": "function"
    },
    {
      "inputs": [
        {
          "internalType": "address",
          "name": "owner",
          "type": "address"
        },
        {
          "internalType": "uint256",
          "name": "action",
          "type": "uint256"
        }
      ],
      "name": "isPermission",
      "outputs": [
        {
          "internalType": "bool",
          "name": "",
          "type": "bool"
        }
      ],
      "stateMutability": "view",
      "type": "function"
    },
    {
      "inputs": [
        {
          "internalType": "uint256",
          "name": "id",
          "type": "uint256"
        },
        {
          "internalType": "uint256",
          "name": "action",
          "type": "uint256"
        }
      ],
      "name": "isPermissionFrom",
      "outputs": [
        {
          "internalType": "bool",
          "name": "",
          "type": "bool"
        }
      ],
      "stateMutability": "view",
      "type": "function"
    },
    {
      "inputs": [
        {
          "internalType": "uint256",
          "name": "id",
          "type": "uint256"
        },
        {
          "internalType": "uint256[]",
          "name": "addActions",
          "type": "uint256[]"
        },
        {
          "internalType": "uint256[]",
          "name": "removeActions",
          "type": "uint256[]"
        }
      ],
      "name": "setPermissions",
      "outputs": [],
      "stateMutability": "nonpayable",
      "type": "function"
    },
    {
      "inputs": [
        {
          "internalType": "uint256",
          "name": "id",
          "type": "uint256"
        },
        {
          "internalType": "int32",
          "name": "votes",
          "type": "int32"
        }
      ],
      "name": "addVotes",
      "outputs": [],
      "stateMutability": "nonpayable",
      "type": "function"
    },
    {
      "inputs": [
        {
          "internalType": "uint256",
          "name": "from",
          "type": "uint256"
        },
        {
          "internalType": "uint256",
          "name": "to",
          "type": "uint256"
        },
        {
          "internalType": "uint32",
          "name": "votes",
          "type": "uint32"
        }
      ],
      "name": "transferVotes",
      "outputs": [],
      "stateMutability": "nonpayable",
      "type": "function"
    }
  ],
  "bytecode": "0x608060405234801561001057600080fd5b50614080806100206000396000f3fe608060405234801561001057600080fd5b506004361061027f5760003560e01c80636352211e1161015c578063aba61791116100ce578063c87b56dd11610087578063c87b56dd1461059f578063df267f6b146105b2578063e168c3ec146105c5578063e985e9c5146105cd578063f0bf2aa714610609578063f437bc591461061c57600080fd5b8063aba6179114610538578063ae99aa3c1461054b578063b3ab15fb1461055e578063b641ee4214610571578063b88d4fde14610584578063c34c08e51461059757600080fd5b806390c3f38f1161012057806390c3f38f146104c457806395d89b41146104d7578063a22cb465146104df578063a42bbccd146104f2578063a5fa370514610512578063a8a555c51461052557600080fd5b80636352211e1461047d5780636c0360eb1461049057806370a08231146104985780637284e416146104ab5780638abf6077146104b357600080fd5b80632ddbd13a116101f55780634cc82215116101b95780634cc822151461040d5780634f558e79146104205780634f6ccce714610433578063570ca735146104465780635a93b4d6146104575780635e7dc20b1461046a57600080fd5b80632ddbd13a146103b95780632f745c59146103c157806342842e0e146103d4578063430c2081146103e75780634c6e425b146103fa57600080fd5b8063095ea7b311610247578063095ea7b31461034457806313c514101461035757806318160ddd1461036a57806319110b3b146103805780631fc599e51461039357806323b872dd146103a657600080fd5b806301ffc9a71461028457806306fdde03146102c657806307dc4526146102db578063081812fc146102f05780630900f01014610331575b600080fd5b6102b1610292366004612f72565b6001600160e01b03191660009081526001602052604090205460ff1690565b60405190151581526020015b60405180910390f35b6102ce61062d565b6040516102bd9190612fdf565b6102ee6102e9366004612ff2565b6106bf565b005b6103196102fe366004612ff2565b6000908152601160205260409020546001600160a01b031690565b6040516001600160a01b0390911681526020016102bd565b6102ee61033f366004613030565b610723565b6102ee61035236600461304d565b610787565b6102ee610365366004613180565b610813565b6103726108c9565b6040519081526020016102bd565b6102ee61038e366004613225565b6108da565b6102ee6103a1366004613396565b610a1b565b6102ee6103b436600461340b565b610b42565b610372610b98565b6103726103cf36600461304d565b610ba4565b6102ee6103e236600461340b565b610bcf565b6102b16103f536600461304d565b610bea565b6102ee610408366004612f72565b610bf6565b6102ee61041b366004612ff2565b610c44565b6102b161042e366004612ff2565b610d34565b610372610441366004612ff2565b610d3f565b6003546001600160a01b0316610319565b6102ee61046536600461344c565b610d55565b6102b161047836600461348b565b610e6b565b61031961048b366004612ff2565b610e86565b6102ce610ebc565b6103726104a6366004613030565b610ecb565b6102ce610eec565b6000546001600160a01b0316610319565b6102ee6104d23660046134ad565b610efb565b6102ce61104c565b6102ee6104ed3660046134ef565b61105b565b610505610500366004612ff2565b6110f0565b6040516102bd9190613597565b6102ee6105203660046135aa565b6112fb565b6102b161053336600461304d565b611313565b6102ee6105463660046135f0565b611373565b610505610559366004612ff2565b611498565b6102ee61056c366004613030565b6114dc565b6102ee61057f36600461370c565b611540565b6102ee6105923660046137d8565b6115f7565b601b54610372565b6102ce6105ad366004612ff2565b61162a565b6103726105c0366004613396565b611795565b601a54610372565b6102b16105db36600461384b565b6001600160a01b03918216600090815260126020908152604080832093909416825291909152205460ff1690565b6102ee610617366004613879565b611bfb565b6002546001600160a01b0316610319565b60606013805461063c90613950565b80601f016020809104026020016040519081016040528092919081815260200182805461066890613950565b80156106b55780601f1061068a576101008083540402835291602001916106b5565b820191906000526020600020905b81548152906001019060200180831161069857829003601f168201915b5050505050905090565b6106c7611d53565b6106e457604051631b4004a360e31b815260040160405180910390fd5b6106ed81611e92565b601b8190556040516001600160a01b038216815260089060008051602061402b833981519152906020015b60405180910390a250565b61072b611d53565b61074857604051631b4004a360e31b815260040160405180910390fd5b600080546001600160a01b0319166001600160a01b03831690811790915560405190815260039060008051602061402b83398151915290602001610718565b600061079282610e86565b9050806001600160a01b0316836001600160a01b0316036107c6576040516365f090f760e01b815260040160405180910390fd5b336001600160a01b038216148015906107e657506107e481336105db565b155b156108045760405163d3a3274560e01b815260040160405180910390fd5b61080e8383611eb8565b505050565b3361081d85610e86565b6001600160a01b03161461084457604051630782484160e21b815260040160405180910390fd5b6000848152601760205260409020835115610869576001810161086785826139ca565b505b825115610880576002810161087e84826139ca565b505b815115610897576003810161089583826139ca565b505b60405185907f164f7b2ab803097dab5e39f06d2e4f3c3ddc5d4171abbdcc3e76443b8359c7f590600090a25050505050565b60006108d5600e611f26565b905090565b6108e2611d53565b6108ff57604051631b4004a360e31b815260040160405180910390fd5b61090883611e92565b61091182611e92565b6000838152601760205260408082208483529120600482015463ffffffff8085169116101561095357604051631297a51960e11b815260040160405180910390fd5b60048201805484919060009061097090849063ffffffff16613a9f565b92506101000a81548163ffffffff021916908363ffffffff160217905550828160040160008282829054906101000a900463ffffffff166109b19190613abc565b92506101000a81548163ffffffff021916908363ffffffff16021790555083857f9954d88d42b9655d95479ca03a829c7718c1f2154aa6181772ffdbdcd7db0dd685604051610a0c919063ffffffff91909116815260200190565b60405180910390a35050505050565b6322a25870610a28611d53565b610b3157600260009054906101000a90046001600160a01b03166001600160a01b031663e3f6b5446040518163ffffffff1660e01b8152600401602060405180830381865afa158015610a7f573d6000803e3d6000fd5b505050506040513d601f19601f82011682018060405250810190610aa39190613ad9565b60405163a8a555c560e01b8152336004820152602481018390526001600160a01b03919091169063a8a555c590604401602060405180830381865afa158015610af0573d6000803e3d6000fd5b505050506040513d601f19601f82011682018060405250810190610b149190613af6565b610b3157604051630782484160e21b815260040160405180910390fd5b610b3c848484611f31565b50505050565b610b4c338261204a565b610b695760405163d3a3274560e01b815260040160405180910390fd5b610b84838383604051806020016040528060008152506120f0565b604080516020810190915260009052505050565b60006108d560186121f6565b6001600160a01b0382166000908152600d60205260408120610bc69083612200565b90505b92915050565b61080e838383604051806020016040528060008152506115f7565b6000610bc6838361204a565b6001600160e01b0319811660009081526001602052604090205460ff16610c4157604051632aae78ef60e01b81526001600160e01b0319821660048201526024015b60405180910390fd5b50565b610c4e3382610bea565b158015610c605750610c5e611d53565b155b15610c7e57604051630782484160e21b815260040160405180910390fd5b610c878161220c565b600081815260176020526040812060040154601a805463ffffffff909216929091610cb3908490613b13565b90915550506000818152601760205260408120818155908181610cd96001830182612eb6565b610ce7600283016000612eb6565b610cf5600383016000612eb6565b50600401805463ffffffff191690556005820160008181610d168282612ef0565b505050505050610d308160186122d590919063ffffffff16565b5050565b6000610bc9826122e1565b600080610d4d600e846122ee565b509392505050565b610d5d611d53565b610d7a57604051631b4004a360e31b815260040160405180910390fd5b610d8383611e92565b6000838152601760205260408120600501905b8351811015610dde57610dcb848281518110610db457610db4613b26565b60200260200101518361230c90919063ffffffff16565b5080610dd681613b3c565b915050610d96565b5060005b8251811015610e2a57610e17838281518110610e0057610e00613b26565b6020026020010151836122d590919063ffffffff16565b5080610e2281613b3c565b915050610de2565b50837fee0225f6c1d2854b8b02e112f397db222521f304566aca2f42b09c80e86f47bc8484604051610e5d929190613b90565b60405180910390a250505050565b6000828152601760205260408120610bc69060050183612318565b600080610e94600e84612330565b9250905080610eb657604051635449cd4560e01b815260040160405180910390fd5b50919050565b60606016805461063c90613950565b6001600160a01b0381166000908152600d60205260408120610bc9906121f6565b60606004805461063c90613950565b63d0a4ad96610f08611d53565b61101157600260009054906101000a90046001600160a01b03166001600160a01b031663e3f6b5446040518163ffffffff1660e01b8152600401602060405180830381865afa158015610f5f573d6000803e3d6000fd5b505050506040513d601f19601f82011682018060405250810190610f839190613ad9565b60405163a8a555c560e01b8152336004820152602481018390526001600160a01b03919091169063a8a555c590604401602060405180830381865afa158015610fd0573d6000803e3d6000fd5b505050506040513d601f19601f82011682018060405250810190610ff49190613af6565b61101157604051630782484160e21b815260040160405180910390fd5b600461101d83826139ca565b50600160008051602061402b833981519152600060405161104091815260200190565b60405180910390a25050565b60606014805461063c90613950565b336001600160a01b038316036110845760405163064256a360e21b815260040160405180910390fd5b3360008181526012602090815260408083206001600160a01b03871680855290835292819020805460ff191686151590811790915590519081529192917f17307eab39ab6107e8899845ad3d59bd9653f200f220920489ca2b5937696c31910160405180910390a35050565b6110f8612f0e565b60176000611107601885612200565b81526020019081526020016000206000016040518060a00160405290816000820154815260200160018201805461113d90613950565b80601f016020809104026020016040519081016040528092919081815260200182805461116990613950565b80156111b65780601f1061118b576101008083540402835291602001916111b6565b820191906000526020600020905b81548152906001019060200180831161119957829003601f168201915b505050505081526020016002820180546111cf90613950565b80601f01602080910402602001604051908101604052809291908181526020018280546111fb90613950565b80156112485780601f1061121d57610100808354040283529160200191611248565b820191906000526020600020905b81548152906001019060200180831161122b57829003601f168201915b5050505050815260200160038201805461126190613950565b80601f016020809104026020016040519081016040528092919081815260200182805461128d90613950565b80156112da5780601f106112af576101008083540402835291602001916112da565b820191906000526020600020905b8154815290600101906020018083116112bd57829003601f168201915b50505091835250506004919091015463ffffffff1660209091015292915050565b610d3082826020015183604001518460600151610813565b60008061131f84610ecb565b905060005b818110156113685760006113388683610ba4565b90506113448186610e6b565b156113555760019350505050610bc9565b508061136081613b3c565b915050611324565b506000949350505050565b61137b611d53565b61139857604051631b4004a360e31b815260040160405180910390fd5b6113a182611e92565b6000828152601760205260408120600481018054919284926113ca90849063ffffffff16613abc565b92506101000a81548163ffffffff021916908363ffffffff1602179055508163ffffffff16601a60008282546114009190613bbe565b90915550506000600383900b13156114565760405163ffffffff8316815283906000907f9954d88d42b9655d95479ca03a829c7718c1f2154aa6181772ffdbdcd7db0dd6906020015b60405180910390a3505050565b6000837f9954d88d42b9655d95479ca03a829c7718c1f2154aa6181772ffdbdcd7db0dd661148385613bd1565b60405163ffffffff9091168152602001611449565b6114a0612f0e565b6114a982611e92565b600082815260176020908152604091829020825160a0810190935280548352600181018054919284019161113d90613950565b6114e4611d53565b61150157604051631b4004a360e31b815260040160405180910390fd5b600380546001600160a01b0319166001600160a01b03831690811790915560405190815260029060008051602061402b83398151915290602001610718565b61154b86858461233f565b61155585866123a3565b6115656323fc76b960e01b6123e9565b61156e836123f2565b60005b81518110156115ee576115dc82828151811061158f5761158f613b26565b6020026020010151600001518383815181106115ad576115ad613b26565b6020026020010151602001518484815181106115cb576115cb613b26565b602002602001015160400151611f31565b806115e681613b3c565b915050611571565b50505050505050565b611601338361204a565b61161e5760405163d3a3274560e01b815260040160405180910390fd5b610b3c848484846123fe565b6000818152601760205260408120600181018054606093916116d29161164f90613950565b80601f016020809104026020016040519081016040528092919081815260200182805461167b90613950565b80156116c85780601f1061169d576101008083540402835291602001916116c8565b820191906000526020600020905b8154815290600101906020018083116116ab57829003601f168201915b505050505061241b565b6040516020016116e29190613bf4565b6040516020818303038152906040529050600061170783600201805461164f90613950565b6040516020016117179190613c25565b6040516020818303038152906040529050600061173c84600301805461164f90613950565b60405160200161174c9190613c5d565b6040516020818303038152906040529050611765610ebc565b83838360405160200161177b9493929190613c8f565b604051602081830303815290604052945050505050919050565b60006001600160a01b0384166117be57604051635bb7a72360e01b815260040160405180910390fd5b82516117c9906122e1565b156117e75760405163700a84a960e11b815260040160405180910390fd5b60006117f561138843613ce6565b905061180033612573565b61180982612589565b60405160200161181a929190613d08565b60408051601f19818403018152828252805160209182012060025463ebf0c71760e01b855292519095506001600160a01b039092169263ebf0c71792600480830193928290030181865afa158015611876573d6000803e3d6000fd5b505050506040513d601f19601f8201168201806040525081019061189a9190613ad9565b6001600160a01b0316634f558e79836040518263ffffffff1660e01b81526004016118c791815260200190565b602060405180830381865afa1580156118e4573d6000803e3d6000fd5b505050506040513d601f19601f820116820180604052508101906119089190613af6565b156119265760405163a1ee858560e01b815260040160405180910390fd5b6040805160018082528183019092526000916020808301908036833750506040805160018082528183019092529293506000929150602082015b6060815260200190600190039081611960579050509050308260008151811061198b5761198b613b26565b6001600160a01b0390921660209283029190910190910152604051631fc599e560e01b906119c190899089908990602401613d51565b604051602081830303815290604052906001600160e01b0319166020820180516001600160e01b03838183161783525050505081600081518110611a0757611a07613b26565b6020026020010181905250611ab660405180610260016040528060008152602001606081526020016060815260200160006001600160a01b031681526020016000815260200160608152602001600081526020016000815260200160008152602001600081526020016000815260200160008152602001600081526020016000815260200160008152602001600015158152602001600015158152602001600015158152602001606081525090565b84815260006080820181905260a0820184905260c082018190526113896101008301526101208201819052610140820152604080518082018252601381527272657175657374206a6f696e20746f2044414f60681b6020808301919091528084019190915288810151828401526102408301849052600254825163ebf0c71760e01b815292516001600160a01b039091169263ebf0c7179260048083019391928290030181865afa158015611b6f573d6000803e3d6000fd5b505050506040513d601f19601f82011682018060405250810190611b939190613ad9565b6001600160a01b031663878e5e52826040518263ffffffff1660e01b8152600401611bbe9190613e1f565b600060405180830381600087803b158015611bd857600080fd5b505af1158015611bec573d6000803e3d6000fd5b50505050505050509392505050565b6322a25870611c08611d53565b611d1157600260009054906101000a90046001600160a01b03166001600160a01b031663e3f6b5446040518163ffffffff1660e01b8152600401602060405180830381865afa158015611c5f573d6000803e3d6000fd5b505050506040513d601f19601f82011682018060405250810190611c839190613ad9565b60405163a8a555c560e01b8152336004820152602481018390526001600160a01b03919091169063a8a555c590604401602060405180830381865afa158015611cd0573d6000803e3d6000fd5b505050506040513d601f19601f82011682018060405250810190611cf49190613af6565b611d1157604051630782484160e21b815260040160405180910390fd5b611d19612f0e565b8781526020810185905263ffffffff871660808201526060810183905260408101849052611d48898288611f31565b505050505050505050565b60035460009033906001600160a01b03168114611e8a57600260009054906101000a90046001600160a01b03166001600160a01b031663570ca7356040518163ffffffff1660e01b8152600401602060405180830381865afa158015611dbd573d6000803e3d6000fd5b505050506040513d601f19601f82011682018060405250810190611de19190613ad9565b6001600160a01b0316816001600160a01b031614611e8a57600260009054906101000a90046001600160a01b03166001600160a01b031663ebf0c7176040518163ffffffff1660e01b8152600401602060405180830381865afa158015611e4c573d6000803e3d6000fd5b505050506040513d601f19601f82011682018060405250810190611e709190613ad9565b6001600160a01b0316816001600160a01b03161491505090565b600191505090565b611e9b816122e1565b610c4157604051637f5c5df960e01b815260040160405180910390fd5b600081815260116020526040902080546001600160a01b0319166001600160a01b0384169081179091558190611eed82610e86565b6001600160a01b03167f8c5be1e5ebec7d5bd14f71427d1e84f3dd0314c0f7b2291e5b200ac8c7c3b92560405160405180910390a45050565b6000610bc98261261b565b611f3f838360000151612626565b81516000908152601760209081526040909120835181559083015181906001820190611f6b90826139ca565b5060408401516002820190611f8090826139ca565b5060608401516003820190611f9590826139ca565b50608084015163ffffffff1615611fb0578360800151611fb3565b60015b60048201805463ffffffff191663ffffffff929092169182179055601a8054600090611fe0908490613bbe565b90915550508351611ff39060189061230c565b5060005b83518110156120425761202f84828151811061201557612015613b26565b60200260200101518460050161230c90919063ffffffff16565b508061203a81613b3c565b915050611ff7565b505050505050565b6000612055826122e1565b61207257604051635449cd4560e01b815260040160405180910390fd5b600061207d83610e86565b9050806001600160a01b0316846001600160a01b031614806120b857506000838152601160205260409020546001600160a01b038581169116145b806120e857506001600160a01b0380821660009081526012602090815260408083209388168352929052205460ff165b949350505050565b836001600160a01b031661210383610e86565b6001600160a01b03161461212a57604051630898381960e11b815260040160405180910390fd5b6001600160a01b03831661215157604051635bb7a72360e01b815260040160405180910390fd5b61215c600083611eb8565b6001600160a01b0384166000908152600d6020526040902061217e90836122d5565b506001600160a01b0383166000908152600d602052604090206121a1908361230c565b506121ae600e83856126ea565b5081836001600160a01b0316856001600160a01b03167fddf252ad1be2c89b69c2b068fc378daa952ba7f163c4a11628f55a4df523b3ef60405160405180910390a450505050565b6000610bc9825490565b6000610bc68383612700565b600061221782610e86565b6040805160208101909152600090529050612233600083611eb8565b6000828152601560205260409020805461224c90613950565b15905061226a57600082815260156020526040812061226a91612eb6565b6001600160a01b0381166000908152600d6020526040902061228c90836122d5565b50612298600e8361272a565b5060405182906000906001600160a01b038416907fddf252ad1be2c89b69c2b068fc378daa952ba7f163c4a11628f55a4df523b3ef908390a45050565b6000610bc68383612736565b6000610bc9600e83612829565b60008080806122fd8686612835565b909450925050505b9250929050565b6000610bc68383612860565b60008181526001830160205260408120541515610bc6565b60008080806122fd86866128af565b6123476128e9565b612357630d64f40d60e31b6123e9565b600280546001600160a01b0319166001600160a01b038516179055600461237e83826139ca565b50600380546001600160a01b0319166001600160a01b03929092169190911790555050565b60136123af83826139ca565b5060146123bc82826139ca565b506123cd6380ac58cd60e01b6123e9565b6123dd635b5e139f60e01b6123e9565b610d3063780e9d6360e01b5b610c4181612a1c565b6016610d3082826139ca565b61240a848484846120f0565b61241684848484612a9e565b610b3c565b606060008251600261242d9190613f7a565b6001600160401b0381111561244457612444613079565b6040519080825280601f01601f19166020018201604052801561246e576020820181803683370190505b50905060005b835181101561256c57600084828151811061249157612491613b26565b016020015160f881901c91506f181899199a1a9b1b9c1cb0b131b232b360811b9060fc1c601081106124c5576124c5613b26565b1a60f81b83600184901b815181106124df576124df613b26565b60200101906001600160f81b031916908160001a9053506f181899199a1a9b1b9c1cb0b131b232b360811b600f82166010811061251e5761251e613b26565b1a60f81b83612531600185811b90613bbe565b8151811061254157612541613b26565b60200101906001600160f81b031916908160001a90535050808061256490613b3c565b915050612474565b5092915050565b6060610bc96001600160a01b0383166014612b44565b6060600061259683612cdf565b60010190506000816001600160401b038111156125b5576125b5613079565b6040519080825280601f01601f1916602001820160405280156125df576020820181803683370190505b5090508181016020015b600019016f181899199a1a9b1b9c1cb0b131b232b360811b600a86061a8153600a85049450846125e957509392505050565b6000610bc9826121f6565b61262f816122e1565b1561264d5760405163082c3a4f60e01b815260040160405180910390fd5b6001600160a01b03821661267457604051635bb7a72360e01b815260040160405180910390fd5b60408051602080820183526000918290526001600160a01b0385168252600d9052206126a0908261230c565b506126ad600e82846126ea565b5060405181906001600160a01b038416906000907fddf252ad1be2c89b69c2b068fc378daa952ba7f163c4a11628f55a4df523b3ef908290a45050565b60006120e884846001600160a01b038516612db7565b600082600001828154811061271757612717613b26565b9060005260206000200154905092915050565b6000610bc68383612dd4565b6000818152600183016020526040812054801561281f57600061275a600183613b13565b855490915060009061276e90600190613b13565b90508181146127d357600086600001828154811061278e5761278e613b26565b90600052602060002001549050808760000184815481106127b1576127b1613b26565b6000918252602080832090910192909255918252600188019052604090208390555b85548690806127e4576127e4613f91565b600190038181906000526020600020016000905590558560010160008681526020019081526020016000206000905560019350505050610bc9565b6000915050610bc9565b6000610bc68383612df1565b600080806128438585612200565b600081815260029690960160205260409095205494959350505050565b60008181526001830160205260408120546128a757508154600181810184556000848152602080822090930184905584548482528286019093526040902091909155610bc9565b506000610bc9565b60008181526002830160205260408120548190806128de576128d18585612df1565b9250600091506123059050565b600192509050612305565b600054600160a81b900460ff161580801561291157506000546001600160a01b90910460ff16105b806129325750303b1580156129325750600054600160a01b900460ff166001145b6129955760405162461bcd60e51b815260206004820152602e60248201527f496e697469616c697a61626c653a20636f6e747261637420697320616c72656160448201526d191e481a5b9a5d1a585b1a5e995960921b6064820152608401610c38565b6000805460ff60a01b1916600160a01b17905580156129c2576000805460ff60a81b1916600160a81b1790555b6129d26301ffc9a760e01b6123e9565b8015610c41576000805460ff60a81b19169055604051600181527f7f26b83ff96e1f2b6a682f133852f6798a09c465da95921460cefb38474024989060200160405180910390a150565b6001600160e01b03198082169003612a765760405162461bcd60e51b815260206004820152601c60248201527f4552433136353a20696e76616c696420696e74657266616365206964000000006044820152606401610c38565b6001600160e01b0319166000908152600160208190526040909120805460ff19169091179055565b6001600160a01b0383163b15610b3c576000630a85bd0160e11b33868585604051602401612acf9493929190613fa7565b60408051601f198184030181529190526020810180516001600160e01b03166001600160e01b0319909316929092179091529050630a85bd0160e11b612b158583612dfd565b6001600160e01b03191614612b3d576040516342eac10f60e11b815260040160405180910390fd5b5050505050565b60606000612b53836002613f7a565b612b5e906002613bbe565b6001600160401b03811115612b7557612b75613079565b6040519080825280601f01601f191660200182016040528015612b9f576020820181803683370190505b509050600360fc1b81600081518110612bba57612bba613b26565b60200101906001600160f81b031916908160001a905350600f60fb1b81600181518110612be957612be9613b26565b60200101906001600160f81b031916908160001a9053506000612c0d846002613f7a565b612c18906001613bbe565b90505b6001811115612c90576f181899199a1a9b1b9c1cb0b131b232b360811b85600f1660108110612c4c57612c4c613b26565b1a60f81b828281518110612c6257612c62613b26565b60200101906001600160f81b031916908160001a90535060049490941c93612c8981613fda565b9050612c1b565b508315610bc65760405162461bcd60e51b815260206004820181905260248201527f537472696e67733a20686578206c656e67746820696e73756666696369656e746044820152606401610c38565b60008072184f03e93ff9f4daa797ed6e38ed64bf6a1f0160401b8310612d1e5772184f03e93ff9f4daa797ed6e38ed64bf6a1f0160401b830492506040015b6d04ee2d6d415b85acef81000000008310612d4a576d04ee2d6d415b85acef8100000000830492506020015b662386f26fc100008310612d6857662386f26fc10000830492506010015b6305f5e1008310612d80576305f5e100830492506008015b6127108310612d9457612710830492506004015b60648310612da6576064830492506002015b600a8310610bc95760010192915050565b600082815260028401602052604081208290556120e8848461230c565b60008181526002830160205260408120819055610bc683836122d5565b6000610bc68383612318565b6000806000846001600160a01b031684604051612e1a9190613ff1565b6000604051808303816000865af19150503d8060008114612e57576040519150601f19603f3d011682016040523d82523d6000602084013e612e5c565b606091505b50915091508115612e845780806020019051810190612e7b919061400d565b92505050610bc9565b805115612e945780518082602001fd5b60405162461bcd60e51b81526020600482015260006024820152604401610c38565b508054612ec290613950565b6000825580601f10612ed2575050565b601f016020900490600052602060002090810190610c419190612f43565b5080546000825590600052602060002090810190610c419190612f43565b6040518060a0016040528060008152602001606081526020016060815260200160608152602001600063ffffffff1681525090565b5b80821115612f585760008155600101612f44565b5090565b6001600160e01b031981168114610c4157600080fd5b600060208284031215612f8457600080fd5b8135610bc681612f5c565b60005b83811015612faa578181015183820152602001612f92565b50506000910152565b60008151808452612fcb816020860160208601612f8f565b601f01601f19169290920160200192915050565b602081526000610bc66020830184612fb3565b60006020828403121561300457600080fd5b5035919050565b6001600160a01b0381168114610c4157600080fd5b803561302b8161300b565b919050565b60006020828403121561304257600080fd5b8135610bc68161300b565b6000806040838503121561306057600080fd5b823561306b8161300b565b946020939093013593505050565b634e487b7160e01b600052604160045260246000fd5b60405160a081016001600160401b03811182821017156130b1576130b1613079565b60405290565b604051606081016001600160401b03811182821017156130b1576130b1613079565b604051601f8201601f191681016001600160401b038111828210171561310157613101613079565b604052919050565b60006001600160401b0383111561312257613122613079565b613135601f8401601f19166020016130d9565b905082815283838301111561314957600080fd5b828260208301376000602084830101529392505050565b600082601f83011261317157600080fd5b610bc683833560208501613109565b6000806000806080858703121561319657600080fd5b8435935060208501356001600160401b03808211156131b457600080fd5b6131c088838901613160565b945060408701359150808211156131d657600080fd5b6131e288838901613160565b935060608701359150808211156131f857600080fd5b5061320587828801613160565b91505092959194509250565b803563ffffffff8116811461302b57600080fd5b60008060006060848603121561323a57600080fd5b833592506020840135915061325160408501613211565b90509250925092565b600060a0828403121561326c57600080fd5b61327461308f565b90508135815260208201356001600160401b038082111561329457600080fd5b6132a085838601613160565b602084015260408401359150808211156132b957600080fd5b6132c585838601613160565b604084015260608401359150808211156132de57600080fd5b506132eb84828501613160565b6060830152506132fd60808301613211565b608082015292915050565b60006001600160401b0382111561332157613321613079565b5060051b60200190565b600082601f83011261333c57600080fd5b8135602061335161334c83613308565b6130d9565b82815260059290921b8401810191818101908684111561337057600080fd5b8286015b8481101561338b5780358352918301918301613374565b509695505050505050565b6000806000606084860312156133ab57600080fd5b83356133b68161300b565b925060208401356001600160401b03808211156133d257600080fd5b6133de8783880161325a565b935060408601359150808211156133f457600080fd5b506134018682870161332b565b9150509250925092565b60008060006060848603121561342057600080fd5b833561342b8161300b565b9250602084013561343b8161300b565b929592945050506040919091013590565b60008060006060848603121561346157600080fd5b8335925060208401356001600160401b038082111561347f57600080fd5b6133de8783880161332b565b6000806040838503121561349e57600080fd5b50508035926020909101359150565b6000602082840312156134bf57600080fd5b81356001600160401b038111156134d557600080fd5b6120e884828501613160565b8015158114610c4157600080fd5b6000806040838503121561350257600080fd5b823561350d8161300b565b9150602083013561351d816134e1565b809150509250929050565b805182526000602082015160a0602085015261354760a0850182612fb3565b9050604083015184820360408601526135608282612fb3565b9150506060830151848203606086015261357a8282612fb3565b91505063ffffffff60808401511660808501528091505092915050565b602081526000610bc66020830184613528565b600080604083850312156135bd57600080fd5b8235915060208301356001600160401b038111156135da57600080fd5b6135e68582860161325a565b9150509250929050565b6000806040838503121561360357600080fd5b8235915060208301358060030b811461351d57600080fd5b600082601f83011261362c57600080fd5b8135602061363c61334c83613308565b82815260059290921b8401810191818101908684111561365b57600080fd5b8286015b8481101561338b5780356001600160401b038082111561367f5760008081fd5b908801906060828b03601f19018113156136995760008081fd5b6136a16130b7565b878401356136ae8161300b565b8152604084810135848111156136c45760008081fd5b6136d28e8b8389010161325a565b838b0152509184013591838311156136ea5760008081fd5b6136f88d8a8588010161332b565b90820152865250505091830191830161365f565b60008060008060008060c0878903121561372557600080fd5b61372e87613020565b955060208701356001600160401b038082111561374a57600080fd5b6137568a838b01613160565b9650604089013591508082111561376c57600080fd5b6137788a838b01613160565b9550606089013591508082111561378e57600080fd5b61379a8a838b01613160565b94506137a860808a01613020565b935060a08901359150808211156137be57600080fd5b506137cb89828a0161361b565b9150509295509295509295565b600080600080608085870312156137ee57600080fd5b84356137f98161300b565b935060208501356138098161300b565b92506040850135915060608501356001600160401b0381111561382b57600080fd5b8501601f8101871361383c57600080fd5b61320587823560208401613109565b6000806040838503121561385e57600080fd5b82356138698161300b565b9150602083013561351d8161300b565b600080600080600080600060e0888a03121561389457600080fd5b61389d88613020565b9650602088013595506138b260408901613211565b945060608801356001600160401b03808211156138ce57600080fd5b6138da8b838c0161332b565b955060808a01359150808211156138f057600080fd5b6138fc8b838c01613160565b945060a08a013591508082111561391257600080fd5b61391e8b838c01613160565b935060c08a013591508082111561393457600080fd5b506139418a828b01613160565b91505092959891949750929550565b600181811c9082168061396457607f821691505b602082108103610eb657634e487b7160e01b600052602260045260246000fd5b601f82111561080e57600081815260208120601f850160051c810160208610156139ab5750805b601f850160051c820191505b81811015612042578281556001016139b7565b81516001600160401b038111156139e3576139e3613079565b6139f7816139f18454613950565b84613984565b602080601f831160018114613a2c5760008415613a145750858301515b600019600386901b1c1916600185901b178555612042565b600085815260208120601f198616915b82811015613a5b57888601518255948401946001909101908401613a3c565b5085821015613a795787850151600019600388901b60f8161c191681555b5050505050600190811b01905550565b634e487b7160e01b600052601160045260246000fd5b63ffffffff82811682821603908082111561256c5761256c613a89565b63ffffffff81811683821601908082111561256c5761256c613a89565b600060208284031215613aeb57600080fd5b8151610bc68161300b565b600060208284031215613b0857600080fd5b8151610bc6816134e1565b81810381811115610bc957610bc9613a89565b634e487b7160e01b600052603260045260246000fd5b600060018201613b4e57613b4e613a89565b5060010190565b600081518084526020808501945080840160005b83811015613b8557815187529582019590820190600101613b69565b509495945050505050565b604081526000613ba36040830185613b55565b8281036020840152613bb58185613b55565b95945050505050565b80820180821115610bc957610bc9613a89565b60008160030b637fffffff198103613beb57613beb613a89565b60000392915050565b683f6e616d653d30787360b81b815260008251613c18816009850160208701612f8f565b9190910160090192915050565b6f266465736372697074696f6e3d30787360801b815260008251613c50816010850160208701612f8f565b9190910160100192915050565b6926696d6167653d30787360b01b815260008251613c8281600a850160208701612f8f565b91909101600a0192915050565b60008551613ca1818460208a01612f8f565b855190830190613cb5818360208a01612f8f565b8551910190613cc8818360208901612f8f565b8451910190613cdb818360208801612f8f565b019695505050505050565b600082613d0357634e487b7160e01b600052601260045260246000fd5b500490565b6a3932b8bab2b9ba2537b4b760a91b815260008351613d2e81600b850160208801612f8f565b835190830190613d4581600b840160208801612f8f565b01600b01949350505050565b6001600160a01b0384168152606060208201819052600090613d7590830185613528565b8281036040840152613d878185613b55565b9695505050505050565b600081518084526020808501945080840160005b83811015613b855781516001600160a01b031687529582019590820190600101613da5565b600081518084526020808501808196508360051b8101915082860160005b85811015613e12578284038952613e00848351612fb3565b98850198935090840190600101613de8565b5091979650505050505050565b602081528151602082015260006020830151610260806040850152613e48610280850183612fb3565b91506040850151601f1980868503016060870152613e668483612fb3565b935060608701519150613e8460808701836001600160a01b03169052565b608087015160a087015260a08701519150808685030160c0870152613ea98483613d91565b60c088015160e08881019190915288015161010080890191909152880151610120808901919091528801516101408089019190915288015161016080890191909152880151610180808901919091528801516101a0808901919091528801516101c0808901919091528801516101e0808901919091528801519094509150610200613f378188018415159052565b8701519150610220613f4c8782018415159052565b8701519150610240613f618782018415159052565b870151868503909101838701529050613d878382613dca565b8082028115828204841417610bc957610bc9613a89565b634e487b7160e01b600052603160045260246000fd5b6001600160a01b0385811682528416602082015260408101839052608060608201819052600090613d8790830184612fb3565b600081613fe957613fe9613a89565b506000190190565b60008251614003818460208701612f8f565b9190910192915050565b60006020828403121561401f57600080fd5b8151610bc681612f5c56fe7016719027ff29c13bc4816903851ea968172a86b766c733b954fdabe53c87eea264697066735822122009c65bb685cd5712b365312d53c59a148d77ed3d825e4699a99b71a26d16f85b64736f6c63430008110033",
  "immutableReferences": {},
  "source": "// SPDX-License-Identifier: MIT\npragma solidity 0.8.17;\n\npragma experimental ABIEncoderV2;\n\nimport './Asset.sol';\nimport './libs/Strings.sol';\nimport '../openzeppelin/contracts/utils/structs/EnumerableSet.sol';\n\ncontract Member is IMember, ERC721Module {\n\tusing EnumerableSet for EnumerableSet.UintSet;\n\tusing StringsExp for bytes;\n\tusing Strings for uint256;\n\tusing Strings for address;\n\n\tstruct Info_ {\n\t\tInfo                  info;\n\t\tEnumerableSet.UintSet permissions; // permissions\n\t}\n\n\tmapping(uint256=>Info_) private  _infoMap; // member info, member id => member info\n\tEnumerableSet.UintSet   private  _infoList; // member table list\n\tuint256                 private  _votes; // all vote total\n\tuint256                 internal _executor; // executor\n\tuint256[16]             private  __; // reserved storage space\n\n\tstruct MintMemberArgs {\n\t\taddress   owner;\n\t\tInfo      info;\n\t\tuint256[] permissions;\n\t}\n\n\tfunction initMember(\n\t\taddress host, string memory name, string memory description,\n\t\tstring memory baseURI, address operator, MintMemberArgs[] memory members) external\n\t{\n\t\tinitModule(host, description, operator);\n\t\tinitERC721(name, name);\n\t\t_registerInterface(Member_Type);\n\t\t_setBaseURI(baseURI);\n\n\t\tfor (uint256 i = 0; i < members.length; i++)\n\t\t\tmint(members[i].owner, members[i].info, members[i].permissions);\n\t}\n\n\tfunction mint(address owner, Info memory info, uint256[] memory permissions) private {\n\t\t_mint(owner, info.id);\n\n\t\tInfo_ storage i0   = _infoMap[info.id];\n\t\tInfo storage info_ = i0.info;\n\t\tinfo_.id           = info.id;\n\t\tinfo_.name         = info.name;\n\t\tinfo_.description  = info.description;\n\t\tinfo_.image       = info.image;\n\t\tinfo_.votes        = info.votes == 0 ? 1: info.votes; // limit votes to 1\n\n\t\t_votes += info_.votes;\n\n\t\t_infoList.add(info.id);\n\n\t\t// add permissions\n\t\tfor (uint256 i = 0; i < permissions.length; i++)\n\t\t\ti0.permissions.add(permissions[i]);\n\t}\n\n\tfunction remove(uint256 id) public {\n\t\tif (!isApprovedOrOwner(msg.sender, id) && !isPermissionDAO()) revert PermissionDenied();\n\t\t_burn(id);\n\t\t_votes -= _infoMap[id].info.votes;\n\t\tdelete _infoMap[id];\n\t\t_infoList.remove(id);\n\t}\n\n\tfunction create(\n\t\taddress owner, Info memory info, uint256[] memory permissions\n\t) external Check(Action_Member_Create)\n\t{\n\t\tmint(owner, info, permissions);\n\t}\n\n\tfunction createFrom(\n\t\taddress owner,       uint256 id,\n\t\tuint32 votes,        uint256[] memory permissions,\n\t\tstring memory name,  string memory description, string memory image\n\t) external Check(Action_Member_Create)\n\t{\n\t\tInfo memory info;\n\t\tinfo.id = id;\n\t\tinfo.name = name;\n\t\tinfo.votes = votes;\n\t\tinfo.image = image;\n\t\tinfo.description = description;\n\t\tmint(owner, info, permissions);\n\t}\n\n\t/**\n\t * @dev request join to DAO, create join vote proposal\n\t */\n\tfunction requestJoin(address owner, Info memory info, uint256[] memory permissions) public returns (uint256 id) {\n\t\tif (owner == address(0)) revert AddressEmpty(); // mint to the zero address\n\t\tif (_exists(info.id)) revert MemberAlreadyExists(); // token already minted\n\n\t\tuint256 salt = block.number / 5000;\n\t\tid = uint256(keccak256(abi.encodePacked(\"requestJoin\", msg.sender.toHexString(), salt.toString())));\n\n\t\tif (IVotePool(_host.root()).exists(id)) revert MemberRequestJoinAlreadyExists();\n\n\t\taddress[] memory target = new address[](1);\n\t\tbytes[] memory data = new bytes[](1);\n\n\t\ttarget[0] = address(this);\n\t\tdata[0] = abi.encodeWithSelector(this.create.selector, owner, info, permissions);\n\n\t\tIVotePool.Proposal memory pro;\n\t\tpro.id          = id;\n\t\tpro.originId    = 0; // member id\n\t\tpro.target      = target;\n\t\tpro.lifespan    = 0;\n\t\tpro.passRate    = 5001;\n\t\tpro.loopCount   = 0;\n\t\tpro.loopTime    = 0;\n\t\tpro.name        = \"request join to DAO\";\n\t\tpro.description = info.name;\n\t\tpro.data        = data;\n\n\t\tIVotePool(_host.root()).create(pro);\n\t}\n\n\t/**\n\t * @dev Returns the token URI of member\n\t */\n\tfunction tokenURI(uint256 tokenId) view public override(ERC721,IERC721Metadata) returns (string memory uri) {\n\t\tInfo storage info = _infoMap[tokenId].info;\n\t\tbytes memory a = abi.encodePacked(\"?name=0xs\",                      bytes(info.name).toHexString());\n\t\tbytes memory b = abi.encodePacked(\"&description=0xs\",               bytes(info.description).toHexString());\n\t\tbytes memory c = abi.encodePacked(\"&image=0xs\",                     bytes(info.image).toHexString());\n\t\turi = string(abi.encodePacked(baseURI(), a, b, c));\n\t}\n\n\tfunction votes() view external override returns (uint256) {\n\t\treturn _votes;\n\t}\n\n\tfunction getMemberInfo(uint256 id) view external override returns (Info memory) {\n\t\tcheckExists(id); // info query for nonexistent member\n\t\treturn _infoMap[id].info;\n\t}\n\n\tfunction setMemberInfo(uint256 id, string memory name, string memory description, string memory image) public {\n\t\t// require(ownerOf(id) == _msgSender(), \"#Member#setMemberInfo: owner no match\");\n\t\tif (ownerOf(id) != _msgSender()) revert PermissionDenied();\n\t\tInfo storage info_ = _infoMap[id].info;\n\t\tif (bytes(name).length != 0)        info_.name        = name;\n\t\tif (bytes(description).length != 0) info_.description = description;\n\t\tif (bytes(image).length != 0)       info_.image      = image;\n\t\temit Update(id);\n\t}\n\n\tfunction setInfo(uint256 id, Info memory info) external {\n\t\tsetMemberInfo(id, info.name, info.description, info.image);\n\t}\n\n\tfunction indexAt(uint256 index) view public override returns (Info memory) {\n\t\treturn _infoMap[_infoList.at(index)].info;\n\t}\n\n\tfunction isApprovedOrOwner(address spender, uint256 id) view public returns (bool) {\n\t\treturn _havePermission(spender, id);\n\t}\n\n\tfunction total() view public override returns (uint256) {\n\t\treturn _infoList.length();\n\t}\n\n\tfunction executor() view public returns(uint256) {\n\t\treturn _executor;\n\t}\n\n\tfunction checkExists(uint256 id) view internal {\n\t\tif (!_exists(id)) revert MemberNonExists();\n\t}\n\n\tfunction setExecutor(uint256 id) public OnlyDAO {\n\t\tcheckExists(id); // info query for nonexistent member\n\t\t_executor = id;\n\t\temit Change(Change_Tag_Member_Set_Executor, uint160(id));\n\t}\n\n\tfunction isPermission(address owner, uint256 action) view external override returns (bool) {\n\t\tuint256 len = balanceOf(owner);\n\t\tfor (uint256 i = 0; i < len; i++) {\n\t\t\tuint256 id = tokenOfOwnerByIndex(owner, i);\n\t\t\tif (isPermissionFrom(id, action))\n\t\t\t\treturn true;\n\t\t}\n\t\treturn false;\n\t}\n\n\tfunction isPermissionFrom(uint256 id, uint256 action) view public override returns (bool) {\n\t\treturn _infoMap[id].permissions.contains(action);\n\t}\n\n\tfunction setPermissions(uint256 id, uint256[] memory addActions, uint256[] memory removeActions) external OnlyDAO {\n\t\tcheckExists(id); // check info query for nonexistent member\n\n\t\tEnumerableSet.UintSet storage permissions = _infoMap[id].permissions;\n\t\tfor (uint256 j = 0; j < addActions.length; j++)\n\t\t\tpermissions.add(addActions[j]);\n\t\tfor (uint256 j = 0; j < removeActions.length; j++)\n\t\t\tpermissions.remove(removeActions[j]);\n\t\temit SetPermissions(id, addActions, removeActions);\n\t}\n\n\tfunction addVotes(uint256 id, int32 votes) external OnlyDAO {\n\t\tcheckExists(id); // check info query for nonexistent member\n\n\t\tInfo storage info = _infoMap[id].info;\n\n\t\tinfo.votes += uint32(votes);\n\t\t_votes += uint32(votes);\n\n\t\tif (votes > 0)\n\t\t\temit TransferVotes(0, id, uint32(votes));\n\t\telse\n\t\t\temit TransferVotes(id, 0, uint32(-votes));\n\t}\n\n\tfunction transferVotes(uint256 from, uint256 to, uint32 votes) external OnlyDAO {\n\t\tcheckExists(from); // check info query for nonexistent member from\n\t\tcheckExists(to); // check info query for nonexistent member to\n\n\t\tInfo storage infoFrom = _infoMap[from].info;\n\t\tInfo storage infoTo = _infoMap[to].info;\n\t\t// require(infoFrom.votes >= votes, \"#Member#transferVotes: not votes power enough\");\n\t\tif (infoFrom.votes < votes) revert InsufficientVotesInMember();\n\n\t\tinfoFrom.votes -= uint32(votes);\n\t\tinfoTo.votes += uint32(votes);\n\n\t\temit TransferVotes(from, to, votes);\n\t}\n\n}",
  "sourcePath": "/Users/louis/Project/hc/NFTSwap/SmartHolder/contracts/Member.sol",
  "compiler": {
    "name": "solc",
    "version": "0.8.17+commit.8df45f5f.Emscripten.clang"
  },
  "schemaVersion": "3.4.11",
  "updatedAt": "2023-04-01T07:58:04.654Z",
  "networkType": "ethereum",
  "devdoc": {
    "kind": "dev",
    "methods": {
      "approve(address,uint256)": {
        "details": "Approves another address to transfer the given token ID The zero address indicates there is no approved address. There can only be one approved address per token at a given time. Can only be called by the token owner or an approved operator.",
        "params": {
          "to": "address to be approved for the given token ID",
          "tokenId": "uint256 ID of the token to be approved"
        }
      },
      "balanceOf(address)": {
        "details": "Gets the balance of the specified address.",
        "params": {
          "owner": "address to query the balance of"
        },
        "returns": {
          "_0": "uint256 representing the amount owned by the passed address"
        }
      },
      "baseURI()": {
        "details": "Returns the base URI set via {_setBaseURI}. This will be automatically added as a prefix in {tokenURI} to each token's URI, or to the token ID if no specific URI is set for that token ID."
      },
      "getApproved(uint256)": {
        "details": "Gets the approved address for a token ID, or zero if no address set Reverts if the token ID does not exist.",
        "params": {
          "tokenId": "uint256 ID of the token to query the approval of"
        },
        "returns": {
          "_0": "address currently approved for the given token ID"
        }
      },
      "isApprovedForAll(address,address)": {
        "details": "Tells whether an operator is approved by a given owner.",
        "params": {
          "operator": "operator address which you want to query the approval of",
          "owner": "owner address which you want to query the approval of"
        },
        "returns": {
          "_0": "bool whether the given operator is approved by the given owner"
        }
      },
      "name()": {
        "details": "Gets the token name.",
        "returns": {
          "_0": "string representing the token name"
        }
      },
      "ownerOf(uint256)": {
        "details": "Gets the owner of the specified token ID.",
        "params": {
          "tokenId": "uint256 ID of the token to query the owner of"
        },
        "returns": {
          "owner": "currently marked as the owner of the given token ID"
        }
      },
      "requestJoin(address,(uint256,string,string,string,uint32),uint256[])": {
        "details": "request join to DAO, create join vote proposal"
      },
      "safeTransferFrom(address,address,uint256)": {
        "details": "Safely transfers the ownership of a given token ID to another address If the target address is a contract, it must implement {IERC721Receiver-onERC721Received}, which is called upon a safe transfer, and return the magic value `bytes4(keccak256(\"onERC721Received(address,address,uint256,bytes)\"))`; otherwise, the transfer is reverted. Requires the msg.sender to be the owner, approved, or operator",
        "params": {
          "from": "current owner of the token",
          "to": "address to receive the ownership of the given token ID",
          "tokenId": "uint256 ID of the token to be transferred"
        }
      },
      "safeTransferFrom(address,address,uint256,bytes)": {
        "details": "Safely transfers the ownership of a given token ID to another address If the target address is a contract, it must implement {IERC721Receiver-onERC721Received}, which is called upon a safe transfer, and return the magic value `bytes4(keccak256(\"onERC721Received(address,address,uint256,bytes)\"))`; otherwise, the transfer is reverted. Requires the _msgSender() to be the owner, approved, or operator",
        "params": {
          "_data": "bytes data to send along with a safe transfer check",
          "from": "current owner of the token",
          "to": "address to receive the ownership of the given token ID",
          "tokenId": "uint256 ID of the token to be transferred"
        }
      },
      "setApprovalForAll(address,bool)": {
        "details": "Sets or unsets the approval of a given operator An operator is allowed to transfer all tokens of the sender on their behalf.",
        "params": {
          "approved": "representing the status of the approval to be set",
          "operator": "operator address to set the approval"
        }
      },
      "supportsInterface(bytes4)": {
        "details": "See {IERC165-supportsInterface}. Time complexity O(1), guaranteed to always use less than 30 000 gas."
      },
      "symbol()": {
        "details": "Gets the token symbol.",
        "returns": {
          "_0": "string representing the token symbol"
        }
      },
      "tokenByIndex(uint256)": {
        "details": "Gets the token ID at a given index of all the tokens in this contract Reverts if the index is greater or equal to the total number of tokens.",
        "params": {
          "index": "uint256 representing the index to be accessed of the tokens list"
        },
        "returns": {
          "_0": "uint256 token ID at the given index of the tokens list"
        }
      },
      "tokenOfOwnerByIndex(address,uint256)": {
        "details": "Gets the token ID at a given index of the tokens list of the requested owner.",
        "params": {
          "index": "uint256 representing the index to be accessed of the requested tokens list",
          "owner": "address owning the tokens list to be accessed"
        },
        "returns": {
          "_0": "uint256 token ID at the given index of the tokens list owned by the requested address"
        }
      },
      "tokenURI(uint256)": {
        "details": "Returns the token URI of member"
      },
      "totalSupply()": {
        "details": "Gets the total amount of tokens stored by the contract.",
        "returns": {
          "_0": "uint256 representing the total amount of tokens"
        }
      },
      "transferFrom(address,address,uint256)": {
        "details": "Transfers the ownership of a given token ID to another address. Usage of this method is discouraged, use {safeTransferFrom} whenever possible. Requires the msg.sender to be the owner, approved, or operator.",
        "params": {
          "from": "current owner of the token",
          "to": "address to receive the ownership of the given token ID",
          "tokenId": "uint256 ID of the token to be transferred"
        }
      }
    },
    "version": 1
  },
  "userdoc": {
    "kind": "user",
    "methods": {},
    "version": 1
  }
}