{
  "contractName": "Member",
  "abi": [
    {
      "anonymous": false,
      "inputs": [
        {
          "indexed": false,
          "internalType": "uint256[]",
          "name": "ids",
          "type": "uint256[]"
        },
        {
          "indexed": false,
          "internalType": "uint256[]",
          "name": "actions",
          "type": "uint256[]"
        }
      ],
      "name": "AddPermissions",
      "type": "event"
    },
    {
      "anonymous": false,
      "inputs": [
        {
          "indexed": true,
          "internalType": "address",
          "name": "owner",
          "type": "address"
        },
        {
          "indexed": true,
          "internalType": "address",
          "name": "approved",
          "type": "address"
        },
        {
          "indexed": true,
          "internalType": "uint256",
          "name": "tokenId",
          "type": "uint256"
        }
      ],
      "name": "Approval",
      "type": "event"
    },
    {
      "anonymous": false,
      "inputs": [
        {
          "indexed": true,
          "internalType": "address",
          "name": "owner",
          "type": "address"
        },
        {
          "indexed": true,
          "internalType": "address",
          "name": "operator",
          "type": "address"
        },
        {
          "indexed": false,
          "internalType": "bool",
          "name": "approved",
          "type": "bool"
        }
      ],
      "name": "ApprovalForAll",
      "type": "event"
    },
    {
      "anonymous": false,
      "inputs": [
        {
          "indexed": true,
          "internalType": "uint256",
          "name": "tag",
          "type": "uint256"
        },
        {
          "indexed": false,
          "internalType": "uint256",
          "name": "value",
          "type": "uint256"
        }
      ],
      "name": "Change",
      "type": "event"
    },
    {
      "anonymous": false,
      "inputs": [
        {
          "indexed": false,
          "internalType": "uint256[]",
          "name": "ids",
          "type": "uint256[]"
        },
        {
          "indexed": false,
          "internalType": "uint256[]",
          "name": "actions",
          "type": "uint256[]"
        }
      ],
      "name": "RemovePermissions",
      "type": "event"
    },
    {
      "anonymous": false,
      "inputs": [
        {
          "indexed": true,
          "internalType": "address",
          "name": "from",
          "type": "address"
        },
        {
          "indexed": true,
          "internalType": "address",
          "name": "to",
          "type": "address"
        },
        {
          "indexed": true,
          "internalType": "uint256",
          "name": "tokenId",
          "type": "uint256"
        }
      ],
      "name": "Transfer",
      "type": "event"
    },
    {
      "anonymous": false,
      "inputs": [
        {
          "indexed": true,
          "internalType": "uint256",
          "name": "from",
          "type": "uint256"
        },
        {
          "indexed": true,
          "internalType": "uint256",
          "name": "to",
          "type": "uint256"
        },
        {
          "indexed": false,
          "internalType": "uint32",
          "name": "votes",
          "type": "uint32"
        }
      ],
      "name": "TransferVotes",
      "type": "event"
    },
    {
      "anonymous": false,
      "inputs": [
        {
          "indexed": true,
          "internalType": "uint256",
          "name": "id",
          "type": "uint256"
        }
      ],
      "name": "Update",
      "type": "event"
    },
    {
      "inputs": [
        {
          "internalType": "address",
          "name": "to",
          "type": "address"
        },
        {
          "internalType": "uint256",
          "name": "tokenId",
          "type": "uint256"
        }
      ],
      "name": "approve",
      "outputs": [],
      "stateMutability": "nonpayable",
      "type": "function"
    },
    {
      "inputs": [
        {
          "internalType": "address",
          "name": "owner",
          "type": "address"
        }
      ],
      "name": "balanceOf",
      "outputs": [
        {
          "internalType": "uint256",
          "name": "",
          "type": "uint256"
        }
      ],
      "stateMutability": "view",
      "type": "function"
    },
    {
      "inputs": [],
      "name": "baseURI",
      "outputs": [
        {
          "internalType": "string",
          "name": "",
          "type": "string"
        }
      ],
      "stateMutability": "view",
      "type": "function"
    },
    {
      "inputs": [
        {
          "internalType": "bytes4",
          "name": "interfaceId",
          "type": "bytes4"
        },
        {
          "internalType": "string",
          "name": "message",
          "type": "string"
        }
      ],
      "name": "checkInterface",
      "outputs": [],
      "stateMutability": "view",
      "type": "function"
    },
    {
      "inputs": [],
      "name": "description",
      "outputs": [
        {
          "internalType": "string",
          "name": "",
          "type": "string"
        }
      ],
      "stateMutability": "view",
      "type": "function"
    },
    {
      "inputs": [
        {
          "internalType": "uint256",
          "name": "id",
          "type": "uint256"
        }
      ],
      "name": "exists",
      "outputs": [
        {
          "internalType": "bool",
          "name": "",
          "type": "bool"
        }
      ],
      "stateMutability": "view",
      "type": "function"
    },
    {
      "inputs": [
        {
          "internalType": "uint256",
          "name": "tokenId",
          "type": "uint256"
        }
      ],
      "name": "getApproved",
      "outputs": [
        {
          "internalType": "address",
          "name": "",
          "type": "address"
        }
      ],
      "stateMutability": "view",
      "type": "function"
    },
    {
      "inputs": [],
      "name": "host",
      "outputs": [
        {
          "internalType": "contract IDAO",
          "name": "",
          "type": "address"
        }
      ],
      "stateMutability": "view",
      "type": "function"
    },
    {
      "inputs": [],
      "name": "impl",
      "outputs": [
        {
          "internalType": "address",
          "name": "",
          "type": "address"
        }
      ],
      "stateMutability": "view",
      "type": "function"
    },
    {
      "inputs": [
        {
          "internalType": "address",
          "name": "owner",
          "type": "address"
        },
        {
          "internalType": "address",
          "name": "operator",
          "type": "address"
        }
      ],
      "name": "isApprovedForAll",
      "outputs": [
        {
          "internalType": "bool",
          "name": "",
          "type": "bool"
        }
      ],
      "stateMutability": "view",
      "type": "function"
    },
    {
      "inputs": [],
      "name": "name",
      "outputs": [
        {
          "internalType": "string",
          "name": "",
          "type": "string"
        }
      ],
      "stateMutability": "view",
      "type": "function"
    },
    {
      "inputs": [],
      "name": "operator",
      "outputs": [
        {
          "internalType": "address",
          "name": "",
          "type": "address"
        }
      ],
      "stateMutability": "view",
      "type": "function"
    },
    {
      "inputs": [
        {
          "internalType": "uint256",
          "name": "tokenId",
          "type": "uint256"
        }
      ],
      "name": "ownerOf",
      "outputs": [
        {
          "internalType": "address",
          "name": "",
          "type": "address"
        }
      ],
      "stateMutability": "view",
      "type": "function"
    },
    {
      "inputs": [
        {
          "internalType": "address",
          "name": "from",
          "type": "address"
        },
        {
          "internalType": "address",
          "name": "to",
          "type": "address"
        },
        {
          "internalType": "uint256",
          "name": "tokenId",
          "type": "uint256"
        }
      ],
      "name": "safeTransferFrom",
      "outputs": [],
      "stateMutability": "nonpayable",
      "type": "function"
    },
    {
      "inputs": [
        {
          "internalType": "address",
          "name": "from",
          "type": "address"
        },
        {
          "internalType": "address",
          "name": "to",
          "type": "address"
        },
        {
          "internalType": "uint256",
          "name": "tokenId",
          "type": "uint256"
        },
        {
          "internalType": "bytes",
          "name": "_data",
          "type": "bytes"
        }
      ],
      "name": "safeTransferFrom",
      "outputs": [],
      "stateMutability": "nonpayable",
      "type": "function"
    },
    {
      "inputs": [
        {
          "internalType": "address",
          "name": "operator",
          "type": "address"
        },
        {
          "internalType": "bool",
          "name": "approved",
          "type": "bool"
        }
      ],
      "name": "setApprovalForAll",
      "outputs": [],
      "stateMutability": "nonpayable",
      "type": "function"
    },
    {
      "inputs": [
        {
          "internalType": "string",
          "name": "value",
          "type": "string"
        }
      ],
      "name": "setDescription",
      "outputs": [],
      "stateMutability": "nonpayable",
      "type": "function"
    },
    {
      "inputs": [
        {
          "internalType": "address",
          "name": "operator",
          "type": "address"
        }
      ],
      "name": "setOperator",
      "outputs": [],
      "stateMutability": "nonpayable",
      "type": "function"
    },
    {
      "inputs": [
        {
          "internalType": "bytes4",
          "name": "interfaceId",
          "type": "bytes4"
        }
      ],
      "name": "supportsInterface",
      "outputs": [
        {
          "internalType": "bool",
          "name": "",
          "type": "bool"
        }
      ],
      "stateMutability": "view",
      "type": "function"
    },
    {
      "inputs": [],
      "name": "symbol",
      "outputs": [
        {
          "internalType": "string",
          "name": "",
          "type": "string"
        }
      ],
      "stateMutability": "view",
      "type": "function"
    },
    {
      "inputs": [
        {
          "internalType": "uint256",
          "name": "index",
          "type": "uint256"
        }
      ],
      "name": "tokenByIndex",
      "outputs": [
        {
          "internalType": "uint256",
          "name": "",
          "type": "uint256"
        }
      ],
      "stateMutability": "view",
      "type": "function"
    },
    {
      "inputs": [
        {
          "internalType": "address",
          "name": "owner",
          "type": "address"
        },
        {
          "internalType": "uint256",
          "name": "index",
          "type": "uint256"
        }
      ],
      "name": "tokenOfOwnerByIndex",
      "outputs": [
        {
          "internalType": "uint256",
          "name": "",
          "type": "uint256"
        }
      ],
      "stateMutability": "view",
      "type": "function"
    },
    {
      "inputs": [],
      "name": "totalSupply",
      "outputs": [
        {
          "internalType": "uint256",
          "name": "",
          "type": "uint256"
        }
      ],
      "stateMutability": "view",
      "type": "function"
    },
    {
      "inputs": [
        {
          "internalType": "address",
          "name": "from",
          "type": "address"
        },
        {
          "internalType": "address",
          "name": "to",
          "type": "address"
        },
        {
          "internalType": "uint256",
          "name": "tokenId",
          "type": "uint256"
        }
      ],
      "name": "transferFrom",
      "outputs": [],
      "stateMutability": "nonpayable",
      "type": "function"
    },
    {
      "inputs": [
        {
          "internalType": "address",
          "name": "impl",
          "type": "address"
        }
      ],
      "name": "upgrade",
      "outputs": [],
      "stateMutability": "nonpayable",
      "type": "function"
    },
    {
      "inputs": [
        {
          "internalType": "address",
          "name": "host",
          "type": "address"
        },
        {
          "internalType": "string",
          "name": "name",
          "type": "string"
        },
        {
          "internalType": "string",
          "name": "description",
          "type": "string"
        },
        {
          "internalType": "string",
          "name": "baseURI",
          "type": "string"
        },
        {
          "internalType": "address",
          "name": "operator",
          "type": "address"
        },
        {
          "components": [
            {
              "internalType": "address",
              "name": "owner",
              "type": "address"
            },
            {
              "components": [
                {
                  "internalType": "uint256",
                  "name": "id",
                  "type": "uint256"
                },
                {
                  "internalType": "string",
                  "name": "name",
                  "type": "string"
                },
                {
                  "internalType": "string",
                  "name": "description",
                  "type": "string"
                },
                {
                  "internalType": "string",
                  "name": "image",
                  "type": "string"
                },
                {
                  "internalType": "uint32",
                  "name": "votes",
                  "type": "uint32"
                }
              ],
              "internalType": "struct IMember.Info",
              "name": "info",
              "type": "tuple"
            },
            {
              "internalType": "uint256[]",
              "name": "permissions",
              "type": "uint256[]"
            }
          ],
          "internalType": "struct Member.MintMemberArgs[]",
          "name": "members",
          "type": "tuple[]"
        }
      ],
      "name": "initMember",
      "outputs": [],
      "stateMutability": "nonpayable",
      "type": "function"
    },
    {
      "inputs": [
        {
          "internalType": "uint256",
          "name": "id",
          "type": "uint256"
        }
      ],
      "name": "remove",
      "outputs": [],
      "stateMutability": "nonpayable",
      "type": "function"
    },
    {
      "inputs": [
        {
          "internalType": "address",
          "name": "owner",
          "type": "address"
        },
        {
          "components": [
            {
              "internalType": "uint256",
              "name": "id",
              "type": "uint256"
            },
            {
              "internalType": "string",
              "name": "name",
              "type": "string"
            },
            {
              "internalType": "string",
              "name": "description",
              "type": "string"
            },
            {
              "internalType": "string",
              "name": "image",
              "type": "string"
            },
            {
              "internalType": "uint32",
              "name": "votes",
              "type": "uint32"
            }
          ],
          "internalType": "struct IMember.Info",
          "name": "info",
          "type": "tuple"
        },
        {
          "internalType": "uint256[]",
          "name": "permissions",
          "type": "uint256[]"
        }
      ],
      "name": "create",
      "outputs": [],
      "stateMutability": "nonpayable",
      "type": "function"
    },
    {
      "inputs": [
        {
          "internalType": "address",
          "name": "owner",
          "type": "address"
        },
        {
          "internalType": "uint256",
          "name": "id",
          "type": "uint256"
        },
        {
          "internalType": "uint32",
          "name": "votes",
          "type": "uint32"
        },
        {
          "internalType": "uint256[]",
          "name": "permissions",
          "type": "uint256[]"
        },
        {
          "internalType": "string",
          "name": "name",
          "type": "string"
        },
        {
          "internalType": "string",
          "name": "description",
          "type": "string"
        },
        {
          "internalType": "string",
          "name": "image",
          "type": "string"
        }
      ],
      "name": "createFrom",
      "outputs": [],
      "stateMutability": "nonpayable",
      "type": "function"
    },
    {
      "inputs": [
        {
          "internalType": "address",
          "name": "owner",
          "type": "address"
        },
        {
          "components": [
            {
              "internalType": "uint256",
              "name": "id",
              "type": "uint256"
            },
            {
              "internalType": "string",
              "name": "name",
              "type": "string"
            },
            {
              "internalType": "string",
              "name": "description",
              "type": "string"
            },
            {
              "internalType": "string",
              "name": "image",
              "type": "string"
            },
            {
              "internalType": "uint32",
              "name": "votes",
              "type": "uint32"
            }
          ],
          "internalType": "struct IMember.Info",
          "name": "info",
          "type": "tuple"
        },
        {
          "internalType": "uint256[]",
          "name": "permissions",
          "type": "uint256[]"
        }
      ],
      "name": "requestJoin",
      "outputs": [
        {
          "internalType": "uint256",
          "name": "id",
          "type": "uint256"
        }
      ],
      "stateMutability": "nonpayable",
      "type": "function"
    },
    {
      "inputs": [
        {
          "internalType": "uint256",
          "name": "tokenId",
          "type": "uint256"
        }
      ],
      "name": "tokenURI",
      "outputs": [
        {
          "internalType": "string",
          "name": "uri",
          "type": "string"
        }
      ],
      "stateMutability": "view",
      "type": "function"
    },
    {
      "inputs": [],
      "name": "votes",
      "outputs": [
        {
          "internalType": "uint256",
          "name": "",
          "type": "uint256"
        }
      ],
      "stateMutability": "view",
      "type": "function"
    },
    {
      "inputs": [
        {
          "internalType": "uint256",
          "name": "id",
          "type": "uint256"
        }
      ],
      "name": "getMemberInfo",
      "outputs": [
        {
          "components": [
            {
              "internalType": "uint256",
              "name": "id",
              "type": "uint256"
            },
            {
              "internalType": "string",
              "name": "name",
              "type": "string"
            },
            {
              "internalType": "string",
              "name": "description",
              "type": "string"
            },
            {
              "internalType": "string",
              "name": "image",
              "type": "string"
            },
            {
              "internalType": "uint32",
              "name": "votes",
              "type": "uint32"
            }
          ],
          "internalType": "struct IMember.Info",
          "name": "",
          "type": "tuple"
        }
      ],
      "stateMutability": "view",
      "type": "function"
    },
    {
      "inputs": [
        {
          "internalType": "uint256",
          "name": "id",
          "type": "uint256"
        },
        {
          "internalType": "string",
          "name": "name",
          "type": "string"
        },
        {
          "internalType": "string",
          "name": "description",
          "type": "string"
        },
        {
          "internalType": "string",
          "name": "image",
          "type": "string"
        }
      ],
      "name": "setMemberInfo",
      "outputs": [],
      "stateMutability": "nonpayable",
      "type": "function"
    },
    {
      "inputs": [
        {
          "internalType": "uint256",
          "name": "id",
          "type": "uint256"
        },
        {
          "components": [
            {
              "internalType": "uint256",
              "name": "id",
              "type": "uint256"
            },
            {
              "internalType": "string",
              "name": "name",
              "type": "string"
            },
            {
              "internalType": "string",
              "name": "description",
              "type": "string"
            },
            {
              "internalType": "string",
              "name": "image",
              "type": "string"
            },
            {
              "internalType": "uint32",
              "name": "votes",
              "type": "uint32"
            }
          ],
          "internalType": "struct IMember.Info",
          "name": "info",
          "type": "tuple"
        }
      ],
      "name": "setInfo",
      "outputs": [],
      "stateMutability": "nonpayable",
      "type": "function"
    },
    {
      "inputs": [
        {
          "internalType": "uint256",
          "name": "index",
          "type": "uint256"
        }
      ],
      "name": "indexAt",
      "outputs": [
        {
          "components": [
            {
              "internalType": "uint256",
              "name": "id",
              "type": "uint256"
            },
            {
              "internalType": "string",
              "name": "name",
              "type": "string"
            },
            {
              "internalType": "string",
              "name": "description",
              "type": "string"
            },
            {
              "internalType": "string",
              "name": "image",
              "type": "string"
            },
            {
              "internalType": "uint32",
              "name": "votes",
              "type": "uint32"
            }
          ],
          "internalType": "struct IMember.Info",
          "name": "",
          "type": "tuple"
        }
      ],
      "stateMutability": "view",
      "type": "function"
    },
    {
      "inputs": [
        {
          "internalType": "address",
          "name": "spender",
          "type": "address"
        },
        {
          "internalType": "uint256",
          "name": "id",
          "type": "uint256"
        }
      ],
      "name": "isApprovedOrOwner",
      "outputs": [
        {
          "internalType": "bool",
          "name": "",
          "type": "bool"
        }
      ],
      "stateMutability": "view",
      "type": "function"
    },
    {
      "inputs": [],
      "name": "total",
      "outputs": [
        {
          "internalType": "uint256",
          "name": "",
          "type": "uint256"
        }
      ],
      "stateMutability": "view",
      "type": "function"
    },
    {
      "inputs": [],
      "name": "executor",
      "outputs": [
        {
          "internalType": "uint256",
          "name": "",
          "type": "uint256"
        }
      ],
      "stateMutability": "view",
      "type": "function"
    },
    {
      "inputs": [
        {
          "internalType": "uint256",
          "name": "id",
          "type": "uint256"
        }
      ],
      "name": "setExecutor",
      "outputs": [],
      "stateMutability": "nonpayable",
      "type": "function"
    },
    {
      "inputs": [
        {
          "internalType": "address",
          "name": "owner",
          "type": "address"
        },
        {
          "internalType": "uint256",
          "name": "action",
          "type": "uint256"
        }
      ],
      "name": "isPermission",
      "outputs": [
        {
          "internalType": "bool",
          "name": "",
          "type": "bool"
        }
      ],
      "stateMutability": "view",
      "type": "function"
    },
    {
      "inputs": [
        {
          "internalType": "uint256",
          "name": "id",
          "type": "uint256"
        },
        {
          "internalType": "uint256",
          "name": "action",
          "type": "uint256"
        }
      ],
      "name": "isPermissionFrom",
      "outputs": [
        {
          "internalType": "bool",
          "name": "",
          "type": "bool"
        }
      ],
      "stateMutability": "view",
      "type": "function"
    },
    {
      "inputs": [
        {
          "internalType": "uint256[]",
          "name": "IDs",
          "type": "uint256[]"
        },
        {
          "internalType": "uint256[]",
          "name": "actions",
          "type": "uint256[]"
        }
      ],
      "name": "addPermissions",
      "outputs": [],
      "stateMutability": "nonpayable",
      "type": "function"
    },
    {
      "inputs": [
        {
          "internalType": "uint256[]",
          "name": "IDs",
          "type": "uint256[]"
        },
        {
          "internalType": "uint256[]",
          "name": "actions",
          "type": "uint256[]"
        }
      ],
      "name": "removePermissions",
      "outputs": [],
      "stateMutability": "nonpayable",
      "type": "function"
    },
    {
      "inputs": [
        {
          "internalType": "uint256",
          "name": "id",
          "type": "uint256"
        },
        {
          "internalType": "int32",
          "name": "votes",
          "type": "int32"
        }
      ],
      "name": "addVotes",
      "outputs": [],
      "stateMutability": "nonpayable",
      "type": "function"
    },
    {
      "inputs": [
        {
          "internalType": "uint256",
          "name": "from",
          "type": "uint256"
        },
        {
          "internalType": "uint256",
          "name": "to",
          "type": "uint256"
        },
        {
          "internalType": "uint32",
          "name": "votes",
          "type": "uint32"
        }
      ],
      "name": "transferVotes",
      "outputs": [],
      "stateMutability": "nonpayable",
      "type": "function"
    }
  ],
  "bytecode": "0x608060405234801561001057600080fd5b506147e1806100206000396000f3fe608060405234801561001057600080fd5b506004361061028a5760003560e01c806370a082311161015c578063ae99aa3c116100ce578063c87b56dd11610087578063c87b56dd146105a7578063df267f6b146105ba578063e168c3ec146105cd578063e985e9c5146105d5578063f0bf2aa714610611578063f437bc591461062457600080fd5b8063ae99aa3c14610540578063b3ab15fb14610553578063b641ee4214610566578063b88d4fde14610579578063c34c08e51461058c578063c64df69d1461059457600080fd5b806395d89b411161012057806395d89b41146104cc578063a22cb465146104d4578063a42bbccd146104e7578063a5fa370514610507578063a8a555c51461051a578063aba617911461052d57600080fd5b806370a082311461047a5780637284e4161461048d57806384af7419146104955780638abf6077146104a857806390c3f38f146104b957600080fd5b806323b872dd116102005780634f558e79116101b95780634f558e79146104155780634f6ccce714610428578063570ca7351461043b5780635e7dc20b1461044c5780636352211e1461045f5780636c0360eb1461047257600080fd5b806323b872dd146103ae5780632ddbd13a146103c15780632f745c59146103c957806342842e0e146103dc578063430c2081146103ef5780634cc822151461040257600080fd5b80630900f010116102525780630900f01014610339578063095ea7b31461034c57806313c514101461035f57806318160ddd1461037257806319110b3b146103885780631fc599e51461039b57600080fd5b806301ffc9a71461028f57806306fdde03146102d1578063075a61bf146102e657806307dc4526146102fb578063081812fc1461030e575b600080fd5b6102bc61029d366004613569565b6001600160e01b03191660009081526001602052604090205460ff1690565b60405190151581526020015b60405180910390f35b6102d9610635565b6040516102c891906135d6565b6102f96102f4366004613707565b6106c7565b005b6102f961030936600461376a565b6107d1565b61032161031c36600461376a565b61089f565b6040516001600160a01b0390911681526020016102c8565b6102f96103473660046137a8565b610927565b6102f961035a3660046137c5565b61098a565b6102f961036d366004613868565b610a9f565b61037a610b92565b6040519081526020016102c8565b6102f961039636600461390d565b610ba3565b6102f96103a93660046139f0565b610e0c565b6102f96103bc366004613a65565b610f32565b61037a610f87565b61037a6103d73660046137c5565b610f93565b6102f96103ea366004613a65565b610fbe565b6102bc6103fd3660046137c5565b610fd9565b6102f961041036600461376a565b610fe5565b6102bc61042336600461376a565b6110ff565b61037a61043636600461376a565b61110a565b6003546001600160a01b0316610321565b6102bc61045a366004613aa6565b611120565b61032161046d36600461376a565b61113b565b6102d9611163565b61037a6104883660046137a8565b611172565b6102d96111fe565b6102f96104a3366004613707565b61120d565b6000546001600160a01b0316610321565b6102f96104c7366004613ac8565b611302565b6102d9611452565b6102f96104e2366004613b0a565b611461565b6104fa6104f536600461376a565b611525565b6040516102c89190613bb2565b6102f9610515366004613bc5565b611730565b6102bc6105283660046137c5565b611748565b6102f961053b366004613c01565b6117a8565b6104fa61054e36600461376a565b611934565b6102f96105613660046137a8565b6119dc565b6102f9610574366004613d1d565b611a3f565b6102f9610587366004613de9565b611af6565b601b5461037a565b6102f96105a2366004613e5c565b611b28565b6102d96105b536600461376a565b611b64565b61037a6105c83660046139f0565b611ccf565b601a5461037a565b6102bc6105e3366004613ea1565b6001600160a01b03918216600090815260126020908152604080832093909416825291909152205460ff1690565b6102f961061f366004613ecf565b6120c3565b6002546001600160a01b0316610321565b60606013805461064490613fa6565b80601f016020809104026020016040519081016040528092919081815260200182805461067090613fa6565b80156106bd5780601f10610692576101008083540402835291602001916106bd565b820191906000526020600020905b8154815290600101906020018083116106a057829003601f168201915b5050505050905090565b6106cf61221a565b6106f45760405162461bcd60e51b81526004016106eb90613fe0565b60405180910390fd5b60005b82518110156107935760006017600085848151811061071857610718614036565b60200260200101518152602001908152602001600020600501905060005b835181101561077e5761076b84828151811061075457610754614036565b60200260200101518361235990919063ffffffff16565b508061077681614062565b915050610736565b5050808061078b90614062565b9150506106f7565b507f46d54ee423b97bd1edbf6a37b1ed7c7c3897122a2f4974ab10265cf71196120082826040516107c59291906140b6565b60405180910390a15050565b6107d961221a565b6107f55760405162461bcd60e51b81526004016106eb90613fe0565b6107fe81612365565b6108695760405162461bcd60e51b815260206004820152603660248201527f234d656d626572237365744578656375746f723a20696e666f207175657279206044820152753337b9103737b732bc34b9ba32b73a1036b2b6b132b960511b60648201526084016106eb565b601b8190556040516001600160a01b038216815260089060008051602061478c833981519152906020015b60405180910390a250565b60006108aa82612365565b61090b5760405162461bcd60e51b815260206004820152602c60248201527f4552433732313a20617070726f76656420717565727920666f72206e6f6e657860448201526b34b9ba32b73a103a37b5b2b760a11b60648201526084016106eb565b506000908152601160205260409020546001600160a01b031690565b61092f61221a565b61094b5760405162461bcd60e51b81526004016106eb90613fe0565b600080546001600160a01b0319166001600160a01b03831690811790915560405190815260039060008051602061478c83398151915290602001610894565b60006109958261113b565b9050806001600160a01b0316836001600160a01b031603610a025760405162461bcd60e51b815260206004820152602160248201527f4552433732313a20617070726f76616c20746f2063757272656e74206f776e656044820152603960f91b60648201526084016106eb565b336001600160a01b0382161480610a1e5750610a1e81336105e3565b610a905760405162461bcd60e51b815260206004820152603860248201527f4552433732313a20617070726f76652063616c6c6572206973206e6f74206f7760448201527f6e6572206e6f7220617070726f76656420666f7220616c6c000000000000000060648201526084016106eb565b610a9a8383612372565b505050565b33610aa98561113b565b6001600160a01b031614610b0d5760405162461bcd60e51b815260206004820152602560248201527f234d656d626572237365744d656d626572496e666f3a206f776e6572206e6f206044820152640dac2e8c6d60db1b60648201526084016106eb565b6000848152601760205260409020835115610b325760018101610b30858261412a565b505b825115610b495760028101610b47848261412a565b505b815115610b605760038101610b5e838261412a565b505b60405185907f164f7b2ab803097dab5e39f06d2e4f3c3ddc5d4171abbdcc3e76443b8359c7f590600090a25050505050565b6000610b9e600e6123e0565b905090565b610bab61221a565b610bc75760405162461bcd60e51b81526004016106eb90613fe0565b610bd083612365565b610c425760405162461bcd60e51b815260206004820152603d60248201527f234d656d626572237472616e73666572566f7465733a20696e666f207175657260448201527f7920666f72206e6f6e6578697374656e74206d656d6265722066726f6d00000060648201526084016106eb565b610c4b82612365565b610cbd5760405162461bcd60e51b815260206004820152603b60248201527f234d656d626572237472616e73666572566f7465733a20696e666f207175657260448201527f7920666f72206e6f6e6578697374656e74206d656d62657220746f000000000060648201526084016106eb565b6000838152601760205260408082208483529120600482015463ffffffff80851691161015610d445760405162461bcd60e51b815260206004820152602d60248201527f234d656d626572237472616e73666572566f7465733a206e6f7420766f74657360448201526c040e0deeecae440cadcdeeaced609b1b60648201526084016106eb565b600482018054849190600090610d6190849063ffffffff166141e9565b92506101000a81548163ffffffff021916908363ffffffff160217905550828160040160008282829054906101000a900463ffffffff16610da29190614206565b92506101000a81548163ffffffff021916908363ffffffff16021790555083857f9954d88d42b9655d95479ca03a829c7718c1f2154aa6181772ffdbdcd7db0dd685604051610dfd919063ffffffff91909116815260200190565b60405180910390a35050505050565b6322a25870610e1961221a565b610f2157600260009054906101000a90046001600160a01b03166001600160a01b031663e3f6b5446040518163ffffffff1660e01b8152600401602060405180830381865afa158015610e70573d6000803e3d6000fd5b505050506040513d601f19601f82011682018060405250810190610e949190614223565b60405163a8a555c560e01b8152336004820152602481018390526001600160a01b03919091169063a8a555c590604401602060405180830381865afa158015610ee1573d6000803e3d6000fd5b505050506040513d601f19601f82011682018060405250810190610f059190614240565b610f215760405162461bcd60e51b81526004016106eb90613fe0565b610f2c8484846123eb565b50505050565b610f3c3382612504565b610f585760405162461bcd60e51b81526004016106eb9061425d565b610f73838383604051806020016040528060008152506125ee565b604080516020810190915260009052505050565b6000610b9e6018612770565b6001600160a01b0382166000908152600d60205260408120610fb5908361277a565b90505b92915050565b610a9a83838360405180602001604052806000815250611af6565b6000610fb58383612504565b610fef3382610fd9565b80610ffd5750610ffd61221a565b6110495760405162461bcd60e51b815260206004820152601c60248201527f234d656d6265722372656d6f7665204e6f207065726d697373696f6e0000000060448201526064016106eb565b61105281612786565b600081815260176020526040812060040154601a805463ffffffff90921692909161107e9084906142ae565b909155505060008181526017602052604081208181559081816110a460018301826134ad565b6110b26002830160006134ad565b6110c06003830160006134ad565b50600401805463ffffffff1916905560058201600081816110e182826134e7565b5050505050506110fb81601861284f90919063ffffffff16565b5050565b6000610fb882612365565b600080611118600e8461285b565b509392505050565b6000828152601760205260408120610fb59060050183612877565b6000610fb88260405180606001604052806029815260200161476360299139600e919061288f565b60606016805461064490613fa6565b60006001600160a01b0382166111dd5760405162461bcd60e51b815260206004820152602a60248201527f4552433732313a2062616c616e636520717565727920666f7220746865207a65604482015269726f206164647265737360b01b60648201526084016106eb565b6001600160a01b0382166000908152600d60205260409020610fb890612770565b60606004805461064490613fa6565b61121561221a565b6112315760405162461bcd60e51b81526004016106eb90613fe0565b60005b82518110156112d05760006017600085848151811061125557611255614036565b60200260200101518152602001908152602001600020600501905060005b83518110156112bb576112a884828151811061129157611291614036565b60200260200101518361284f90919063ffffffff16565b50806112b381614062565b915050611273565b505080806112c890614062565b915050611234565b507f459c638aca8322e81ab5f6b2896516b790306b89f7c9285e8338047b11637b8582826040516107c59291906140b6565b63d0a4ad9661130f61221a565b61141757600260009054906101000a90046001600160a01b03166001600160a01b031663e3f6b5446040518163ffffffff1660e01b8152600401602060405180830381865afa158015611366573d6000803e3d6000fd5b505050506040513d601f19601f8201168201806040525081019061138a9190614223565b60405163a8a555c560e01b8152336004820152602481018390526001600160a01b03919091169063a8a555c590604401602060405180830381865afa1580156113d7573d6000803e3d6000fd5b505050506040513d601f19601f820116820180604052508101906113fb9190614240565b6114175760405162461bcd60e51b81526004016106eb90613fe0565b6004611423838261412a565b50600160008051602061478c833981519152600060405161144691815260200190565b60405180910390a25050565b60606014805461064490613fa6565b336001600160a01b038316036114b95760405162461bcd60e51b815260206004820152601960248201527f4552433732313a20617070726f766520746f2063616c6c65720000000000000060448201526064016106eb565b3360008181526012602090815260408083206001600160a01b03871680855290835292819020805460ff191686151590811790915590519081529192917f17307eab39ab6107e8899845ad3d59bd9653f200f220920489ca2b5937696c31910160405180910390a35050565b61152d613505565b6017600061153c60188561277a565b81526020019081526020016000206000016040518060a00160405290816000820154815260200160018201805461157290613fa6565b80601f016020809104026020016040519081016040528092919081815260200182805461159e90613fa6565b80156115eb5780601f106115c0576101008083540402835291602001916115eb565b820191906000526020600020905b8154815290600101906020018083116115ce57829003601f168201915b5050505050815260200160028201805461160490613fa6565b80601f016020809104026020016040519081016040528092919081815260200182805461163090613fa6565b801561167d5780601f106116525761010080835404028352916020019161167d565b820191906000526020600020905b81548152906001019060200180831161166057829003601f168201915b5050505050815260200160038201805461169690613fa6565b80601f01602080910402602001604051908101604052809291908181526020018280546116c290613fa6565b801561170f5780601f106116e45761010080835404028352916020019161170f565b820191906000526020600020905b8154815290600101906020018083116116f257829003601f168201915b50505091835250506004919091015463ffffffff1660209091015292915050565b6110fb82826020015183604001518460600151610a9f565b60008061175484611172565b905060005b8181101561179d57600061176d8683610f93565b90506117798186611120565b1561178a5760019350505050610fb8565b508061179581614062565b915050611759565b506000949350505050565b6117b061221a565b6117cc5760405162461bcd60e51b81526004016106eb90613fe0565b6117d582612365565b61183d5760405162461bcd60e51b815260206004820152603360248201527f234d656d62657223736574566f7465733a20696e666f20717565727920666f72604482015272103737b732bc34b9ba32b73a1036b2b6b132b960691b60648201526084016106eb565b60008281526017602052604081206004810180549192849261186690849063ffffffff16614206565b92506101000a81548163ffffffff021916908363ffffffff1602179055508163ffffffff16601a600082825461189c91906142c1565b90915550506000600383900b13156118f25760405163ffffffff8316815283906000907f9954d88d42b9655d95479ca03a829c7718c1f2154aa6181772ffdbdcd7db0dd6906020015b60405180910390a3505050565b6000837f9954d88d42b9655d95479ca03a829c7718c1f2154aa6181772ffdbdcd7db0dd661191f856142d4565b60405163ffffffff90911681526020016118e5565b61193c613505565b61194582612365565b6119a95760405162461bcd60e51b815260206004820152602f60248201527f234d656d62657223696e666f3a20696e666f20717565727920666f72206e6f6e60448201526e32bc34b9ba32b73a1036b2b6b132b960891b60648201526084016106eb565b600082815260176020908152604091829020825160a0810190935280548352600181018054919284019161157290613fa6565b6119e461221a565b611a005760405162461bcd60e51b81526004016106eb90613fe0565b600380546001600160a01b0319166001600160a01b03831690811790915560405190815260029060008051602061478c83398151915290602001610894565b611a4a8685846128a6565b611a54858661290a565b611a646323fc76b960e01b612950565b611a6d8361295c565b60005b8151811015611aed57611adb828281518110611a8e57611a8e614036565b602002602001015160000151838381518110611aac57611aac614036565b602002602001015160200151848481518110611aca57611aca614036565b6020026020010151604001516123eb565b80611ae581614062565b915050611a70565b50505050505050565b611b003383612504565b611b1c5760405162461bcd60e51b81526004016106eb9061425d565b610f2c84848484612968565b6001600160e01b0319821660009081526001602052604090205460ff168190610a9a5760405162461bcd60e51b81526004016106eb91906135d6565b600081815260176020526040812060018101805460609391611c0c91611b8990613fa6565b80601f0160208091040260200160405190810160405280929190818152602001828054611bb590613fa6565b8015611c025780601f10611bd757610100808354040283529160200191611c02565b820191906000526020600020905b815481529060010190602001808311611be557829003601f168201915b50505050506129ec565b604051602001611c1c91906142f7565b60405160208183030381529060405290506000611c41836002018054611b8990613fa6565b604051602001611c519190614329565b60405160208183030381529060405290506000611c76846003018054611b8990613fa6565b604051602001611c869190614362565b6040516020818303038152906040529050611c9f611163565b838383604051602001611cb59493929190614395565b604051602081830303815290604052945050505050919050565b60006001600160a01b038416611d3c5760405162461bcd60e51b815260206004820152602c60248201527f234d656d62657223726571756573744a6f696e206d696e7420746f207468652060448201526b7a65726f206164647265737360a01b60648201526084016106eb565b8251611d4790612365565b15611da55760405162461bcd60e51b815260206004820152602860248201527f234d656d62657223726571756573744a6f696e20746f6b656e20616c726561646044820152671e481b5a5b9d195960c21b60648201526084016106eb565b6000611db3611388436143ec565b9050611dbe33612b44565b611dc782612b5a565b604051602001611dd892919061440e565b60408051601f198184030181528282528051602091820120600180855284840190935294506000929190808301908036833750506040805160018082528183019092529293506000929150602082015b6060815260200190600190039081611e285790505090503082600081518110611e5357611e53614036565b6001600160a01b0390921660209283029190910190910152604051631fc599e560e01b90611e8990899089908990602401614457565b604051602081830303815290604052906001600160e01b0319166020820180516001600160e01b03838183161783525050505081600081518110611ecf57611ecf614036565b6020026020010181905250611f7e60405180610260016040528060008152602001606081526020016060815260200160006001600160a01b031681526020016000815260200160608152602001600081526020016000815260200160008152602001600081526020016000815260200160008152602001600081526020016000815260200160008152602001600015158152602001600015158152602001600015158152602001606081525090565b84815260006080820181905260a0820184905260c082018190526113896101008301526101208201819052610140820152604080518082018252601381527272657175657374206a6f696e20746f2044414f60681b6020808301919091528084019190915288810151828401526102408301849052600254825163ebf0c71760e01b815292516001600160a01b039091169263ebf0c7179260048083019391928290030181865afa158015612037573d6000803e3d6000fd5b505050506040513d601f19601f8201168201806040525081019061205b9190614223565b6001600160a01b031663878e5e52826040518263ffffffff1660e01b81526004016120869190614525565b600060405180830381600087803b1580156120a057600080fd5b505af11580156120b4573d6000803e3d6000fd5b50505050505050509392505050565b6322a258706120d061221a565b6121d857600260009054906101000a90046001600160a01b03166001600160a01b031663e3f6b5446040518163ffffffff1660e01b8152600401602060405180830381865afa158015612127573d6000803e3d6000fd5b505050506040513d601f19601f8201168201806040525081019061214b9190614223565b60405163a8a555c560e01b8152336004820152602481018390526001600160a01b03919091169063a8a555c590604401602060405180830381865afa158015612198573d6000803e3d6000fd5b505050506040513d601f19601f820116820180604052508101906121bc9190614240565b6121d85760405162461bcd60e51b81526004016106eb90613fe0565b6121e0613505565b8781526020810185905263ffffffff87166080820152606081018390526040810184905261220f8982886123eb565b505050505050505050565b60035460009033906001600160a01b0316811461235157600260009054906101000a90046001600160a01b03166001600160a01b031663570ca7356040518163ffffffff1660e01b8152600401602060405180830381865afa158015612284573d6000803e3d6000fd5b505050506040513d601f19601f820116820180604052508101906122a89190614223565b6001600160a01b0316816001600160a01b03161461235157600260009054906101000a90046001600160a01b03166001600160a01b031663ebf0c7176040518163ffffffff1660e01b8152600401602060405180830381865afa158015612313573d6000803e3d6000fd5b505050506040513d601f19601f820116820180604052508101906123379190614223565b6001600160a01b0316816001600160a01b03161491505090565b600191505090565b6000610fb58383612bec565b6000610fb8600e83612c3b565b600081815260116020526040902080546001600160a01b0319166001600160a01b03841690811790915581906123a78261113b565b6001600160a01b03167f8c5be1e5ebec7d5bd14f71427d1e84f3dd0314c0f7b2291e5b200ac8c7c3b92560405160405180910390a45050565b6000610fb882612c47565b6123f9838360000151612c52565b81516000908152601760209081526040909120835181559083015181906001820190612425908261412a565b506040840151600282019061243a908261412a565b506060840151600382019061244f908261412a565b50608084015163ffffffff161561246a57836080015161246d565b60015b60048201805463ffffffff191663ffffffff929092169182179055601a805460009061249a9084906142c1565b909155505083516124ad90601890612359565b5060005b83518110156124fc576124e98482815181106124cf576124cf614036565b60200260200101518460050161235990919063ffffffff16565b50806124f481614062565b9150506124b1565b505050505050565b600061250f82612365565b6125705760405162461bcd60e51b815260206004820152602c60248201527f4552433732313a206f70657261746f7220717565727920666f72206e6f6e657860448201526b34b9ba32b73a103a37b5b2b760a11b60648201526084016106eb565b600061257b8361113b565b9050806001600160a01b0316846001600160a01b031614806125b65750836001600160a01b03166125ab8461089f565b6001600160a01b0316145b806125e657506001600160a01b0380821660009081526012602090815260408083209388168352929052205460ff165b949350505050565b836001600160a01b03166126018361113b565b6001600160a01b0316146126695760405162461bcd60e51b815260206004820152602960248201527f4552433732313a207472616e73666572206f6620746f6b656e2074686174206960448201526839903737ba1037bbb760b91b60648201526084016106eb565b6001600160a01b0383166126cb5760405162461bcd60e51b8152602060048201526024808201527f4552433732313a207472616e7366657220746f20746865207a65726f206164646044820152637265737360e01b60648201526084016106eb565b6126d6600083612372565b6001600160a01b0384166000908152600d602052604090206126f8908361284f565b506001600160a01b0383166000908152600d6020526040902061271b9083612359565b50612728600e8385612d74565b5081836001600160a01b0316856001600160a01b03167fddf252ad1be2c89b69c2b068fc378daa952ba7f163c4a11628f55a4df523b3ef60405160405180910390a450505050565b6000610fb8825490565b6000610fb58383612d8a565b60006127918261113b565b60408051602081019091526000905290506127ad600083612372565b600082815260156020526040902080546127c690613fa6565b1590506127e45760008281526015602052604081206127e4916134ad565b6001600160a01b0381166000908152600d60205260409020612806908361284f565b50612812600e83612db4565b5060405182906000906001600160a01b038416907fddf252ad1be2c89b69c2b068fc378daa952ba7f163c4a11628f55a4df523b3ef908390a45050565b6000610fb58383612dc0565b600080808061286a8686612eb3565b9097909650945050505050565b60008181526001830160205260408120541515610fb5565b600061289c848484612ede565b90505b9392505050565b6128ae612f2a565b6128be630d64f40d60e31b612950565b600280546001600160a01b0319166001600160a01b03851617905560046128e5838261412a565b50600380546001600160a01b0319166001600160a01b03929092169190911790555050565b6013612916838261412a565b506014612923828261412a565b506129346380ac58cd60e01b612950565b612944635b5e139f60e01b612950565b6110fb63780e9d6360e01b5b61295981613009565b50565b60166110fb828261412a565b612974848484846125ee565b6129808484848461308b565b6129e75760405162461bcd60e51b815260206004820152603260248201527f4552433732313a207472616e7366657220746f206e6f6e20455243373231526560448201527131b2b4bb32b91034b6b83632b6b2b73a32b960711b60648201526084016106eb565b610f2c565b60606000825160026129fe9190614680565b6001600160401b03811115612a1557612a156135e9565b6040519080825280601f01601f191660200182016040528015612a3f576020820181803683370190505b50905060005b8351811015612b3d576000848281518110612a6257612a62614036565b016020015160f881901c91506f181899199a1a9b1b9c1cb0b131b232b360811b9060fc1c60108110612a9657612a96614036565b1a60f81b83600184901b81518110612ab057612ab0614036565b60200101906001600160f81b031916908160001a9053506f181899199a1a9b1b9c1cb0b131b232b360811b600f821660108110612aef57612aef614036565b1a60f81b83612b02600185811b906142c1565b81518110612b1257612b12614036565b60200101906001600160f81b031916908160001a905350508080612b3590614062565b915050612a45565b5092915050565b6060610fb86001600160a01b0383166014613144565b60606000612b67836132df565b60010190506000816001600160401b03811115612b8657612b866135e9565b6040519080825280601f01601f191660200182016040528015612bb0576020820181803683370190505b5090508181016020015b600019016f181899199a1a9b1b9c1cb0b131b232b360811b600a86061a8153600a8504945084612bba57509392505050565b6000818152600183016020526040812054612c3357508154600181810184556000848152602080822090930184905584548482528286019093526040902091909155610fb8565b506000610fb8565b6000610fb583836133b7565b6000610fb882612770565b6001600160a01b038216612ca85760405162461bcd60e51b815260206004820181905260248201527f4552433732313a206d696e7420746f20746865207a65726f206164647265737360448201526064016106eb565b612cb181612365565b15612cfe5760405162461bcd60e51b815260206004820152601c60248201527f4552433732313a20746f6b656e20616c7265616479206d696e7465640000000060448201526064016106eb565b60408051602080820183526000918290526001600160a01b0385168252600d905220612d2a9082612359565b50612d37600e8284612d74565b5060405181906001600160a01b038416906000907fddf252ad1be2c89b69c2b068fc378daa952ba7f163c4a11628f55a4df523b3ef908290a45050565b600061289c84846001600160a01b0385166133c3565b6000826000018281548110612da157612da1614036565b9060005260206000200154905092915050565b6000610fb583836133e0565b60008181526001830160205260408120548015612ea9576000612de46001836142ae565b8554909150600090612df8906001906142ae565b9050818114612e5d576000866000018281548110612e1857612e18614036565b9060005260206000200154905080876000018481548110612e3b57612e3b614036565b6000918252602080832090910192909255918252600188019052604090208390555b8554869080612e6e57612e6e614697565b600190038181906000526020600020016000905590558560010160008681526020019081526020016000206000905560019350505050610fb8565b6000915050610fb8565b60008080612ec1858561277a565b600081815260029690960160205260409095205494959350505050565b600082815260028401602052604081205480151580612f025750612f0285856133b7565b8390612f215760405162461bcd60e51b81526004016106eb91906135d6565b50949350505050565b600054600160a81b900460ff1680612f415750303b155b80612f565750600054600160a01b900460ff16155b612fb95760405162461bcd60e51b815260206004820152602e60248201527f436f6e747261637420696e7374616e63652068617320616c726561647920626560448201526d195b881a5b9a5d1a585b1a5e995960921b60648201526084016106eb565b600054600160a81b900460ff16158015612fe3576000805461ffff60a01b191661010160a01b1790555b612ff36301ffc9a760e01b612950565b8015612959576000805460ff60a81b1916905550565b6001600160e01b031980821690036130635760405162461bcd60e51b815260206004820152601c60248201527f4552433136353a20696e76616c696420696e746572666163652069640000000060448201526064016106eb565b6001600160e01b0319166000908152600160208190526040909120805460ff19169091179055565b60006001600160a01b0384163b6130a4575060016125e6565b6000630a85bd0160e11b338786866040516024016130c594939291906146ad565b604051602081830303815290604052906001600160e01b0319166020820180516001600160e01b038381831617835250505050905063150b7a0260e01b6001600160e01b03191661312f8683604051806060016040528060328152602001614731603291396133fd565b6001600160e01b031916149695505050505050565b60606000613153836002614680565b61315e9060026142c1565b6001600160401b03811115613175576131756135e9565b6040519080825280601f01601f19166020018201604052801561319f576020820181803683370190505b509050600360fc1b816000815181106131ba576131ba614036565b60200101906001600160f81b031916908160001a905350600f60fb1b816001815181106131e9576131e9614036565b60200101906001600160f81b031916908160001a905350600061320d846002614680565b6132189060016142c1565b90505b6001811115613290576f181899199a1a9b1b9c1cb0b131b232b360811b85600f166010811061324c5761324c614036565b1a60f81b82828151811061326257613262614036565b60200101906001600160f81b031916908160001a90535060049490941c93613289816146e0565b905061321b565b508315610fb55760405162461bcd60e51b815260206004820181905260248201527f537472696e67733a20686578206c656e67746820696e73756666696369656e7460448201526064016106eb565b60008072184f03e93ff9f4daa797ed6e38ed64bf6a1f0160401b831061331e5772184f03e93ff9f4daa797ed6e38ed64bf6a1f0160401b830492506040015b6d04ee2d6d415b85acef8100000000831061334a576d04ee2d6d415b85acef8100000000830492506020015b662386f26fc10000831061336857662386f26fc10000830492506010015b6305f5e1008310613380576305f5e100830492506008015b612710831061339457612710830492506004015b606483106133a6576064830492506002015b600a8310610fb85760010192915050565b6000610fb58383612877565b6000828152600284016020526040812082905561289c8484612359565b60008181526002830160205260408120819055610fb5838361284f565b6000806000856001600160a01b03168560405161341a91906146f7565b6000604051808303816000865af19150503d8060008114613457576040519150601f19603f3d011682016040523d82523d6000602084013e61345c565b606091505b509150915081613490578051156134765780518082602001fd5b8360405162461bcd60e51b81526004016106eb91906135d6565b808060200190518101906134a49190614713565b9250505061289f565b5080546134b990613fa6565b6000825580601f106134c9575050565b601f016020900490600052602060002090810190612959919061353a565b5080546000825590600052602060002090810190612959919061353a565b6040518060a0016040528060008152602001606081526020016060815260200160608152602001600063ffffffff1681525090565b5b8082111561354f576000815560010161353b565b5090565b6001600160e01b03198116811461295957600080fd5b60006020828403121561357b57600080fd5b8135610fb581613553565b60005b838110156135a1578181015183820152602001613589565b50506000910152565b600081518084526135c2816020860160208601613586565b601f01601f19169290920160200192915050565b602081526000610fb560208301846135aa565b634e487b7160e01b600052604160045260246000fd5b60405160a081016001600160401b0381118282101715613621576136216135e9565b60405290565b604051606081016001600160401b0381118282101715613621576136216135e9565b604051601f8201601f191681016001600160401b0381118282101715613671576136716135e9565b604052919050565b60006001600160401b03821115613692576136926135e9565b5060051b60200190565b600082601f8301126136ad57600080fd5b813560206136c26136bd83613679565b613649565b82815260059290921b840181019181810190868411156136e157600080fd5b8286015b848110156136fc57803583529183019183016136e5565b509695505050505050565b6000806040838503121561371a57600080fd5b82356001600160401b038082111561373157600080fd5b61373d8683870161369c565b9350602085013591508082111561375357600080fd5b506137608582860161369c565b9150509250929050565b60006020828403121561377c57600080fd5b5035919050565b6001600160a01b038116811461295957600080fd5b80356137a381613783565b919050565b6000602082840312156137ba57600080fd5b8135610fb581613783565b600080604083850312156137d857600080fd5b82356137e381613783565b946020939093013593505050565b60006001600160401b0383111561380a5761380a6135e9565b61381d601f8401601f1916602001613649565b905082815283838301111561383157600080fd5b828260208301376000602084830101529392505050565b600082601f83011261385957600080fd5b610fb5838335602085016137f1565b6000806000806080858703121561387e57600080fd5b8435935060208501356001600160401b038082111561389c57600080fd5b6138a888838901613848565b945060408701359150808211156138be57600080fd5b6138ca88838901613848565b935060608701359150808211156138e057600080fd5b506138ed87828801613848565b91505092959194509250565b803563ffffffff811681146137a357600080fd5b60008060006060848603121561392257600080fd5b8335925060208401359150613939604085016138f9565b90509250925092565b600060a0828403121561395457600080fd5b61395c6135ff565b90508135815260208201356001600160401b038082111561397c57600080fd5b61398885838601613848565b602084015260408401359150808211156139a157600080fd5b6139ad85838601613848565b604084015260608401359150808211156139c657600080fd5b506139d384828501613848565b6060830152506139e5608083016138f9565b608082015292915050565b600080600060608486031215613a0557600080fd5b8335613a1081613783565b925060208401356001600160401b0380821115613a2c57600080fd5b613a3887838801613942565b93506040860135915080821115613a4e57600080fd5b50613a5b8682870161369c565b9150509250925092565b600080600060608486031215613a7a57600080fd5b8335613a8581613783565b92506020840135613a9581613783565b929592945050506040919091013590565b60008060408385031215613ab957600080fd5b50508035926020909101359150565b600060208284031215613ada57600080fd5b81356001600160401b03811115613af057600080fd5b6125e684828501613848565b801515811461295957600080fd5b60008060408385031215613b1d57600080fd5b8235613b2881613783565b91506020830135613b3881613afc565b809150509250929050565b805182526000602082015160a06020850152613b6260a08501826135aa565b905060408301518482036040860152613b7b82826135aa565b91505060608301518482036060860152613b9582826135aa565b91505063ffffffff60808401511660808501528091505092915050565b602081526000610fb56020830184613b43565b60008060408385031215613bd857600080fd5b8235915060208301356001600160401b03811115613bf557600080fd5b61376085828601613942565b60008060408385031215613c1457600080fd5b8235915060208301358060030b8114613b3857600080fd5b600082601f830112613c3d57600080fd5b81356020613c4d6136bd83613679565b82815260059290921b84018101918181019086841115613c6c57600080fd5b8286015b848110156136fc5780356001600160401b0380821115613c905760008081fd5b908801906060828b03601f1901811315613caa5760008081fd5b613cb2613627565b87840135613cbf81613783565b815260408481013584811115613cd55760008081fd5b613ce38e8b83890101613942565b838b015250918401359183831115613cfb5760008081fd5b613d098d8a8588010161369c565b908201528652505050918301918301613c70565b60008060008060008060c08789031215613d3657600080fd5b613d3f87613798565b955060208701356001600160401b0380821115613d5b57600080fd5b613d678a838b01613848565b96506040890135915080821115613d7d57600080fd5b613d898a838b01613848565b95506060890135915080821115613d9f57600080fd5b613dab8a838b01613848565b9450613db960808a01613798565b935060a0890135915080821115613dcf57600080fd5b50613ddc89828a01613c2c565b9150509295509295509295565b60008060008060808587031215613dff57600080fd5b8435613e0a81613783565b93506020850135613e1a81613783565b92506040850135915060608501356001600160401b03811115613e3c57600080fd5b8501601f81018713613e4d57600080fd5b6138ed878235602084016137f1565b60008060408385031215613e6f57600080fd5b8235613e7a81613553565b915060208301356001600160401b03811115613e9557600080fd5b61376085828601613848565b60008060408385031215613eb457600080fd5b8235613ebf81613783565b91506020830135613b3881613783565b600080600080600080600060e0888a031215613eea57600080fd5b613ef388613798565b965060208801359550613f08604089016138f9565b945060608801356001600160401b0380821115613f2457600080fd5b613f308b838c0161369c565b955060808a0135915080821115613f4657600080fd5b613f528b838c01613848565b945060a08a0135915080821115613f6857600080fd5b613f748b838c01613848565b935060c08a0135915080821115613f8a57600080fd5b50613f978a828b01613848565b91505092959891949750929550565b600181811c90821680613fba57607f821691505b602082108103613fda57634e487b7160e01b600052602260045260246000fd5b50919050565b60208082526036908201527f235065726d697373696f6e436865636b23436865636b2063616c6c657220646f60408201527532b9903737ba103430bb32903832b936b4b9b9b4b7b760511b606082015260800190565b634e487b7160e01b600052603260045260246000fd5b634e487b7160e01b600052601160045260246000fd5b6000600182016140745761407461404c565b5060010190565b600081518084526020808501945080840160005b838110156140ab5781518752958201959082019060010161408f565b509495945050505050565b6040815260006140c9604083018561407b565b82810360208401526140db818561407b565b95945050505050565b601f821115610a9a57600081815260208120601f850160051c8101602086101561410b5750805b601f850160051c820191505b818110156124fc57828155600101614117565b81516001600160401b03811115614143576141436135e9565b614157816141518454613fa6565b846140e4565b602080601f83116001811461418c57600084156141745750858301515b600019600386901b1c1916600185901b1785556124fc565b600085815260208120601f198616915b828110156141bb5788860151825594840194600190910190840161419c565b50858210156141d95787850151600019600388901b60f8161c191681555b5050505050600190811b01905550565b63ffffffff828116828216039080821115612b3d57612b3d61404c565b63ffffffff818116838216019080821115612b3d57612b3d61404c565b60006020828403121561423557600080fd5b8151610fb581613783565b60006020828403121561425257600080fd5b8151610fb581613afc565b60208082526031908201527f4552433732313a207472616e736665722063616c6c6572206973206e6f74206f6040820152701ddb995c881b9bdc88185c1c1c9bdd9959607a1b606082015260800190565b81810381811115610fb857610fb861404c565b80820180821115610fb857610fb861404c565b60008160030b637fffffff1981036142ee576142ee61404c565b60000392915050565b690fdb985b594f5a195e0b60b21b81526000825161431c81600a850160208701613586565b91909101600a0192915050565b700999195cd8dc9a5c1d1a5bdb8f5a195e0b607a1b815260008251614355816011850160208701613586565b9190910160110192915050565b6a099a5b5859d94f5a195e0b60aa1b81526000825161438881600b850160208701613586565b91909101600b0192915050565b600085516143a7818460208a01613586565b8551908301906143bb818360208a01613586565b85519101906143ce818360208901613586565b84519101906143e1818360208801613586565b019695505050505050565b60008261440957634e487b7160e01b600052601260045260246000fd5b500490565b6a3932b8bab2b9ba2537b4b760a91b81526000835161443481600b850160208801613586565b83519083019061444b81600b840160208801613586565b01600b01949350505050565b6001600160a01b038416815260606020820181905260009061447b90830185613b43565b828103604084015261448d818561407b565b9695505050505050565b600081518084526020808501945080840160005b838110156140ab5781516001600160a01b0316875295820195908201906001016144ab565b600081518084526020808501808196508360051b8101915082860160005b858110156145185782840389526145068483516135aa565b988501989350908401906001016144ee565b5091979650505050505050565b60208152815160208201526000602083015161026080604085015261454e6102808501836135aa565b91506040850151601f198086850301606087015261456c84836135aa565b93506060870151915061458a60808701836001600160a01b03169052565b608087015160a087015260a08701519150808685030160c08701526145af8483614497565b60c088015160e08881019190915288015161010080890191909152880151610120808901919091528801516101408089019190915288015161016080890191909152880151610180808901919091528801516101a0808901919091528801516101c0808901919091528801516101e080890191909152880151909450915061020061463d8188018415159052565b87015191506102206146528782018415159052565b87015191506102406146678782018415159052565b87015186850390910183870152905061448d83826144d0565b8082028115828204841417610fb857610fb861404c565b634e487b7160e01b600052603160045260246000fd5b6001600160a01b038581168252841660208201526040810183905260806060820181905260009061448d908301846135aa565b6000816146ef576146ef61404c565b506000190190565b60008251614709818460208701613586565b9190910192915050565b60006020828403121561472557600080fd5b8151610fb58161355356fe4552433732313a207472616e7366657220746f206e6f6e20455243373231526563656976657220696d706c656d656e7465724552433732313a206f776e657220717565727920666f72206e6f6e6578697374656e7420746f6b656e7016719027ff29c13bc4816903851ea968172a86b766c733b954fdabe53c87eea2646970667358221220959f683a6e6afc3c5608dcacb0cc52bb1d5a53b58fdf05186f245c5b132c3bb064736f6c63430008110033",
  "immutableReferences": {},
  "source": "// SPDX-License-Identifier: MIT\npragma solidity 0.8.17;\n\npragma experimental ABIEncoderV2;\n\nimport './Asset.sol';\nimport './libs/StringsExp.sol';\nimport '../openzeppelin/contracts/utils/structs/EnumerableSet.sol';\nimport '../openzeppelin/contracts/utils/Strings.sol';\n\ncontract Member is IMember, ERC721_Module {\n\tusing EnumerableSet for EnumerableSet.UintSet;\n\tusing StringsExp for bytes;\n\tusing Strings for uint256;\n\tusing Strings for address;\n\n\tstruct Info0 {\n\t\tInfo                  info;\n\t\tEnumerableSet.UintSet permissions; // permissions\n\t}\n\n\tmapping(uint256=>Info0) private  _infoMap; // member info, member id => member info\n\tEnumerableSet.UintSet   private  _infoList; // member table list\n\tuint256                 private  _votes; // all vote total\n\tuint256                 internal _executor; // executor\n\tuint256[16]             private  __; // reserved storage space\n\n\tstruct MintMemberArgs {\n\t\taddress   owner;\n\t\tInfo      info;\n\t\tuint256[] permissions;\n\t}\n\n\tfunction initMember(\n\t\taddress host, string memory name, string memory description,\n\t\tstring memory baseURI, address operator, MintMemberArgs[] memory members) external\n\t{\n\t\tinitModule(host, description, operator);\n\t\tinitERC721(name, name);\n\t\t_registerInterface(Member_Type);\n\t\t_setBaseURI(baseURI);\n\n\t\tfor (uint256 i = 0; i < members.length; i++)\n\t\t\tmint(members[i].owner, members[i].info, members[i].permissions);\n\t}\n\n\tfunction mint(address owner, Info memory info, uint256[] memory permissions) private {\n\t\t_mint(owner, info.id);\n\n\t\tInfo0 storage i0   = _infoMap[info.id];\n\t\tInfo storage info_ = i0.info;\n\t\tinfo_.id           = info.id;\n\t\tinfo_.name         = info.name;\n\t\tinfo_.description  = info.description;\n\t\tinfo_.image       = info.image;\n\t\tinfo_.votes        = info.votes == 0 ? 1: info.votes; // limit votes to 1\n\n\t\t_votes += info_.votes;\n\n\t\t_infoList.add(info.id);\n\n\t\t// add permissions\n\t\tfor (uint256 i = 0; i < permissions.length; i++)\n\t\t\ti0.permissions.add(permissions[i]);\n\t}\n\n\tfunction remove(uint256 id) public {\n\t\trequire(isApprovedOrOwner(msg.sender, id) || isPermissionDAO(), \"#Member#remove No permission\");\n\t\t_burn(id);\n\t\t_votes -= _infoMap[id].info.votes;\n\t\tdelete _infoMap[id];\n\t\t_infoList.remove(id);\n\t}\n\n\tfunction create(\n\t\taddress owner, Info memory info, uint256[] memory permissions\n\t) external Check(Action_Member_Create)\n\t{\n\t\tmint(owner, info, permissions);\n\t}\n\n\tfunction createFrom(\n\t\taddress owner,       uint256 id,\n\t\tuint32 votes,        uint256[] memory permissions,\n\t\tstring memory name,  string memory description, string memory image\n\t) external Check(Action_Member_Create)\n\t{\n\t\tInfo memory info;\n\t\tinfo.id = id;\n\t\tinfo.name = name;\n\t\tinfo.votes = votes;\n\t\tinfo.image = image;\n\t\tinfo.description = description;\n\t\tmint(owner, info, permissions);\n\t}\n\n\t/**\n\t * @dev request join to DAO, create join vote proposal\n\t */\n\tfunction requestJoin(address owner, Info memory info, uint256[] memory permissions) public returns (uint256 id) {\n\t\trequire(owner != address(0), \"#Member#requestJoin mint to the zero address\");\n\t\trequire(!_exists(info.id), \"#Member#requestJoin token already minted\");\n\n\t\tuint256 salt = block.number / 5000;\n\t\tid = uint256(keccak256(abi.encodePacked(\"requestJoin\", msg.sender.toHexString(), salt.toString())));\n\n\t\taddress[] memory target = new address[](1);\n\t\tbytes[] memory data = new bytes[](1);\n\n\t\ttarget[0] = address(this);\n\t\tdata[0] = abi.encodeWithSelector(this.create.selector, owner, info, permissions);\n\n\t\tIVotePool.Proposal memory pro;\n\t\tpro.id          = id;\n\t\tpro.originId    = 0; // member id\n\t\tpro.target      = target;\n\t\tpro.lifespan    = 0;\n\t\tpro.passRate    = 5001;\n\t\tpro.loopCount   = 0;\n\t\tpro.loopTime    = 0;\n\t\tpro.name        = \"request join to DAO\";\n\t\tpro.description = info.name;\n\t\tpro.data        = data;\n\n\t\tIVotePool(_host.root()).create(pro);\n\t}\n\n\t/**\n\t * @dev Returns the token URI of member\n\t */\n\tfunction tokenURI(uint256 tokenId) view public override(ERC721,IERC721Metadata) returns (string memory uri) {\n\t\tInfo storage info = _infoMap[tokenId].info;\n\t\tbytes memory a = abi.encodePacked(\"?name=hex,\",                      bytes(info.name).toHexString());\n\t\tbytes memory b = abi.encodePacked(\"&description=hex,\",               bytes(info.description).toHexString());\n\t\tbytes memory c = abi.encodePacked(\"&image=hex,\",                     bytes(info.image).toHexString());\n\t\turi = string(abi.encodePacked(baseURI(), a, b, c));\n\t}\n\n\tfunction votes() view external override returns (uint256) {\n\t\treturn _votes;\n\t}\n\n\tfunction getMemberInfo(uint256 id) view external override returns (Info memory) {\n\t\trequire(_exists(id), \"#Member#info: info query for nonexistent member\");\n\t\treturn _infoMap[id].info;\n\t}\n\n\tfunction setMemberInfo(uint256 id, string memory name, string memory description, string memory image) public {\n\t\trequire(ownerOf(id) == _msgSender(), \"#Member#setMemberInfo: owner no match\");\n\t\tInfo storage info_ = _infoMap[id].info;\n\t\tif (bytes(name).length != 0)        info_.name        = name;\n\t\tif (bytes(description).length != 0) info_.description = description;\n\t\tif (bytes(image).length != 0)       info_.image      = image;\n\t\temit Update(id);\n\t}\n\n\tfunction setInfo(uint256 id, Info memory info) external {\n\t\tsetMemberInfo(id, info.name, info.description, info.image);\n\t}\n\n\tfunction indexAt(uint256 index) view public override returns (Info memory) {\n\t\treturn _infoMap[_infoList.at(index)].info;\n\t}\n\n\tfunction isApprovedOrOwner(address spender, uint256 id) view public returns (bool) {\n\t\treturn _havePermission(spender, id);\n\t}\n\n\tfunction total() view public override returns (uint256) {\n\t\treturn _infoList.length();\n\t}\n\n\tfunction executor() view public returns(uint256) {\n\t\treturn _executor;\n\t}\n\n\tfunction setExecutor(uint256 id) public OnlyDAO {\n\t\trequire(_exists(id), \"#Member#setExecutor: info query for nonexistent member\");\n\t\t_executor = id;\n\t\temit Change(Change_Tag_Member_Set_Executor, uint160(id));\n\t}\n\n\tfunction isPermission(address owner, uint256 action) view external override returns (bool) {\n\t\tuint256 len = balanceOf(owner);\n\t\tfor (uint256 i = 0; i < len; i++) {\n\t\t\tuint256 id = tokenOfOwnerByIndex(owner, i);\n\t\t\tif (isPermissionFrom(id, action))\n\t\t\t\treturn true;\n\t\t}\n\t\treturn false;\n\t}\n\n\tfunction isPermissionFrom(uint256 id, uint256 action) view public override returns (bool) {\n\t\treturn _infoMap[id].permissions.contains(action);\n\t}\n\n\tfunction addPermissions(uint256[] memory IDs, uint256[] memory actions) external OnlyDAO {\n\t\tfor (uint256 i = 0; i < IDs.length; i++) {\n\t\t\tEnumerableSet.UintSet storage permissions = _infoMap[IDs[i]].permissions;\n\t\t\tfor (uint256 j = 0; j < actions.length; j++)\n\t\t\t\tpermissions.add(actions[j]);\n\t\t}\n\t\temit AddPermissions(IDs, actions);\n\t}\n\n\tfunction removePermissions(uint256[] memory IDs, uint256[] memory actions) external OnlyDAO {\n\t\tfor (uint256 i = 0; i < IDs.length; i++) {\n\t\t\tEnumerableSet.UintSet storage permissions = _infoMap[IDs[i]].permissions;\n\t\t\tfor (uint256 j = 0; j < actions.length; j++)\n\t\t\t\tpermissions.remove(actions[j]);\n\t\t}\n\t\temit RemovePermissions(IDs, actions);\n\t}\n\n\tfunction addVotes(uint256 id, int32 votes) external OnlyDAO {\n\t\trequire(_exists(id), \"#Member#setVotes: info query for nonexistent member\");\n\t\tInfo storage info = _infoMap[id].info;\n\n\t\tinfo.votes += uint32(votes);\n\t\t_votes += uint32(votes);\n\n\t\tif (votes > 0)\n\t\t\temit TransferVotes(0, id, uint32(votes));\n\t\telse\n\t\t\temit TransferVotes(id, 0, uint32(-votes));\n\t}\n\n\tfunction transferVotes(uint256 from, uint256 to, uint32 votes) external OnlyDAO {\n\t\trequire(_exists(from), \"#Member#transferVotes: info query for nonexistent member from\");\n\t\trequire(_exists(to), \"#Member#transferVotes: info query for nonexistent member to\");\n\t\tInfo storage infoFrom = _infoMap[from].info;\n\t\tInfo storage infoTo = _infoMap[to].info;\n\t\trequire(infoFrom.votes >= votes, \"#Member#transferVotes: not votes power enough\");\n\n\t\tinfoFrom.votes -= uint32(votes);\n\t\tinfoTo.votes += uint32(votes);\n\n\t\temit TransferVotes(from, to, votes);\n\t}\n\n}",
  "sourcePath": "/Users/louis/Project/hc/NFTSwap/SmartHolder/contracts/Member.sol",
  "compiler": {
    "name": "solc",
    "version": "0.8.17+commit.8df45f5f.Emscripten.clang"
  },
  "schemaVersion": "3.4.11",
  "updatedAt": "2023-01-06T04:38:52.215Z",
  "devdoc": {
    "kind": "dev",
    "methods": {
      "approve(address,uint256)": {
        "details": "Approves another address to transfer the given token ID The zero address indicates there is no approved address. There can only be one approved address per token at a given time. Can only be called by the token owner or an approved operator.",
        "params": {
          "to": "address to be approved for the given token ID",
          "tokenId": "uint256 ID of the token to be approved"
        }
      },
      "balanceOf(address)": {
        "details": "Gets the balance of the specified address.",
        "params": {
          "owner": "address to query the balance of"
        },
        "returns": {
          "_0": "uint256 representing the amount owned by the passed address"
        }
      },
      "baseURI()": {
        "details": "Returns the base URI set via {_setBaseURI}. This will be automatically added as a prefix in {tokenURI} to each token's URI, or to the token ID if no specific URI is set for that token ID."
      },
      "getApproved(uint256)": {
        "details": "Gets the approved address for a token ID, or zero if no address set Reverts if the token ID does not exist.",
        "params": {
          "tokenId": "uint256 ID of the token to query the approval of"
        },
        "returns": {
          "_0": "address currently approved for the given token ID"
        }
      },
      "isApprovedForAll(address,address)": {
        "details": "Tells whether an operator is approved by a given owner.",
        "params": {
          "operator": "operator address which you want to query the approval of",
          "owner": "owner address which you want to query the approval of"
        },
        "returns": {
          "_0": "bool whether the given operator is approved by the given owner"
        }
      },
      "name()": {
        "details": "Gets the token name.",
        "returns": {
          "_0": "string representing the token name"
        }
      },
      "ownerOf(uint256)": {
        "details": "Gets the owner of the specified token ID.",
        "params": {
          "tokenId": "uint256 ID of the token to query the owner of"
        },
        "returns": {
          "_0": "address currently marked as the owner of the given token ID"
        }
      },
      "requestJoin(address,(uint256,string,string,string,uint32),uint256[])": {
        "details": "request join to DAO, create join vote proposal"
      },
      "safeTransferFrom(address,address,uint256)": {
        "details": "Safely transfers the ownership of a given token ID to another address If the target address is a contract, it must implement {IERC721Receiver-onERC721Received}, which is called upon a safe transfer, and return the magic value `bytes4(keccak256(\"onERC721Received(address,address,uint256,bytes)\"))`; otherwise, the transfer is reverted. Requires the msg.sender to be the owner, approved, or operator",
        "params": {
          "from": "current owner of the token",
          "to": "address to receive the ownership of the given token ID",
          "tokenId": "uint256 ID of the token to be transferred"
        }
      },
      "safeTransferFrom(address,address,uint256,bytes)": {
        "details": "Safely transfers the ownership of a given token ID to another address If the target address is a contract, it must implement {IERC721Receiver-onERC721Received}, which is called upon a safe transfer, and return the magic value `bytes4(keccak256(\"onERC721Received(address,address,uint256,bytes)\"))`; otherwise, the transfer is reverted. Requires the _msgSender() to be the owner, approved, or operator",
        "params": {
          "_data": "bytes data to send along with a safe transfer check",
          "from": "current owner of the token",
          "to": "address to receive the ownership of the given token ID",
          "tokenId": "uint256 ID of the token to be transferred"
        }
      },
      "setApprovalForAll(address,bool)": {
        "details": "Sets or unsets the approval of a given operator An operator is allowed to transfer all tokens of the sender on their behalf.",
        "params": {
          "approved": "representing the status of the approval to be set",
          "operator": "operator address to set the approval"
        }
      },
      "supportsInterface(bytes4)": {
        "details": "See {IERC165-supportsInterface}. Time complexity O(1), guaranteed to always use less than 30 000 gas."
      },
      "symbol()": {
        "details": "Gets the token symbol.",
        "returns": {
          "_0": "string representing the token symbol"
        }
      },
      "tokenByIndex(uint256)": {
        "details": "Gets the token ID at a given index of all the tokens in this contract Reverts if the index is greater or equal to the total number of tokens.",
        "params": {
          "index": "uint256 representing the index to be accessed of the tokens list"
        },
        "returns": {
          "_0": "uint256 token ID at the given index of the tokens list"
        }
      },
      "tokenOfOwnerByIndex(address,uint256)": {
        "details": "Gets the token ID at a given index of the tokens list of the requested owner.",
        "params": {
          "index": "uint256 representing the index to be accessed of the requested tokens list",
          "owner": "address owning the tokens list to be accessed"
        },
        "returns": {
          "_0": "uint256 token ID at the given index of the tokens list owned by the requested address"
        }
      },
      "tokenURI(uint256)": {
        "details": "Returns the token URI of member"
      },
      "totalSupply()": {
        "details": "Gets the total amount of tokens stored by the contract.",
        "returns": {
          "_0": "uint256 representing the total amount of tokens"
        }
      },
      "transferFrom(address,address,uint256)": {
        "details": "Transfers the ownership of a given token ID to another address. Usage of this method is discouraged, use {safeTransferFrom} whenever possible. Requires the msg.sender to be the owner, approved, or operator.",
        "params": {
          "from": "current owner of the token",
          "to": "address to receive the ownership of the given token ID",
          "tokenId": "uint256 ID of the token to be transferred"
        }
      }
    },
    "version": 1
  },
  "userdoc": {
    "kind": "user",
    "methods": {},
    "version": 1
  }
}