{
  "contractName": "Member",
  "abi": [
    {
      "anonymous": false,
      "inputs": [
        {
          "indexed": false,
          "internalType": "uint256[]",
          "name": "ids",
          "type": "uint256[]"
        },
        {
          "indexed": false,
          "internalType": "uint256[]",
          "name": "actions",
          "type": "uint256[]"
        }
      ],
      "name": "AddPermissions",
      "type": "event"
    },
    {
      "anonymous": false,
      "inputs": [
        {
          "indexed": true,
          "internalType": "address",
          "name": "owner",
          "type": "address"
        },
        {
          "indexed": true,
          "internalType": "address",
          "name": "approved",
          "type": "address"
        },
        {
          "indexed": true,
          "internalType": "uint256",
          "name": "tokenId",
          "type": "uint256"
        }
      ],
      "name": "Approval",
      "type": "event"
    },
    {
      "anonymous": false,
      "inputs": [
        {
          "indexed": true,
          "internalType": "address",
          "name": "owner",
          "type": "address"
        },
        {
          "indexed": true,
          "internalType": "address",
          "name": "operator",
          "type": "address"
        },
        {
          "indexed": false,
          "internalType": "bool",
          "name": "approved",
          "type": "bool"
        }
      ],
      "name": "ApprovalForAll",
      "type": "event"
    },
    {
      "anonymous": false,
      "inputs": [
        {
          "indexed": true,
          "internalType": "uint256",
          "name": "tag",
          "type": "uint256"
        },
        {
          "indexed": false,
          "internalType": "uint256",
          "name": "value",
          "type": "uint256"
        }
      ],
      "name": "Change",
      "type": "event"
    },
    {
      "anonymous": false,
      "inputs": [
        {
          "indexed": false,
          "internalType": "uint256[]",
          "name": "ids",
          "type": "uint256[]"
        },
        {
          "indexed": false,
          "internalType": "uint256[]",
          "name": "actions",
          "type": "uint256[]"
        }
      ],
      "name": "RemovePermissions",
      "type": "event"
    },
    {
      "anonymous": false,
      "inputs": [
        {
          "indexed": true,
          "internalType": "uint256",
          "name": "id",
          "type": "uint256"
        },
        {
          "indexed": false,
          "internalType": "uint256[]",
          "name": "addActions",
          "type": "uint256[]"
        },
        {
          "indexed": false,
          "internalType": "uint256[]",
          "name": "removeActions",
          "type": "uint256[]"
        }
      ],
      "name": "SetPermissions",
      "type": "event"
    },
    {
      "anonymous": false,
      "inputs": [
        {
          "indexed": true,
          "internalType": "address",
          "name": "from",
          "type": "address"
        },
        {
          "indexed": true,
          "internalType": "address",
          "name": "to",
          "type": "address"
        },
        {
          "indexed": true,
          "internalType": "uint256",
          "name": "tokenId",
          "type": "uint256"
        }
      ],
      "name": "Transfer",
      "type": "event"
    },
    {
      "anonymous": false,
      "inputs": [
        {
          "indexed": true,
          "internalType": "uint256",
          "name": "from",
          "type": "uint256"
        },
        {
          "indexed": true,
          "internalType": "uint256",
          "name": "to",
          "type": "uint256"
        },
        {
          "indexed": false,
          "internalType": "uint32",
          "name": "votes",
          "type": "uint32"
        }
      ],
      "name": "TransferVotes",
      "type": "event"
    },
    {
      "anonymous": false,
      "inputs": [
        {
          "indexed": true,
          "internalType": "uint256",
          "name": "id",
          "type": "uint256"
        }
      ],
      "name": "Update",
      "type": "event"
    },
    {
      "inputs": [
        {
          "internalType": "address",
          "name": "to",
          "type": "address"
        },
        {
          "internalType": "uint256",
          "name": "tokenId",
          "type": "uint256"
        }
      ],
      "name": "approve",
      "outputs": [],
      "stateMutability": "nonpayable",
      "type": "function"
    },
    {
      "inputs": [
        {
          "internalType": "address",
          "name": "owner",
          "type": "address"
        }
      ],
      "name": "balanceOf",
      "outputs": [
        {
          "internalType": "uint256",
          "name": "",
          "type": "uint256"
        }
      ],
      "stateMutability": "view",
      "type": "function"
    },
    {
      "inputs": [],
      "name": "baseURI",
      "outputs": [
        {
          "internalType": "string",
          "name": "",
          "type": "string"
        }
      ],
      "stateMutability": "view",
      "type": "function"
    },
    {
      "inputs": [
        {
          "internalType": "bytes4",
          "name": "interfaceId",
          "type": "bytes4"
        },
        {
          "internalType": "string",
          "name": "message",
          "type": "string"
        }
      ],
      "name": "checkInterface",
      "outputs": [],
      "stateMutability": "view",
      "type": "function"
    },
    {
      "inputs": [],
      "name": "description",
      "outputs": [
        {
          "internalType": "string",
          "name": "",
          "type": "string"
        }
      ],
      "stateMutability": "view",
      "type": "function"
    },
    {
      "inputs": [
        {
          "internalType": "uint256",
          "name": "id",
          "type": "uint256"
        }
      ],
      "name": "exists",
      "outputs": [
        {
          "internalType": "bool",
          "name": "",
          "type": "bool"
        }
      ],
      "stateMutability": "view",
      "type": "function"
    },
    {
      "inputs": [
        {
          "internalType": "uint256",
          "name": "tokenId",
          "type": "uint256"
        }
      ],
      "name": "getApproved",
      "outputs": [
        {
          "internalType": "address",
          "name": "",
          "type": "address"
        }
      ],
      "stateMutability": "view",
      "type": "function"
    },
    {
      "inputs": [],
      "name": "host",
      "outputs": [
        {
          "internalType": "contract IDAO",
          "name": "",
          "type": "address"
        }
      ],
      "stateMutability": "view",
      "type": "function"
    },
    {
      "inputs": [],
      "name": "impl",
      "outputs": [
        {
          "internalType": "address",
          "name": "",
          "type": "address"
        }
      ],
      "stateMutability": "view",
      "type": "function"
    },
    {
      "inputs": [
        {
          "internalType": "address",
          "name": "owner",
          "type": "address"
        },
        {
          "internalType": "address",
          "name": "operator",
          "type": "address"
        }
      ],
      "name": "isApprovedForAll",
      "outputs": [
        {
          "internalType": "bool",
          "name": "",
          "type": "bool"
        }
      ],
      "stateMutability": "view",
      "type": "function"
    },
    {
      "inputs": [],
      "name": "name",
      "outputs": [
        {
          "internalType": "string",
          "name": "",
          "type": "string"
        }
      ],
      "stateMutability": "view",
      "type": "function"
    },
    {
      "inputs": [],
      "name": "operator",
      "outputs": [
        {
          "internalType": "address",
          "name": "",
          "type": "address"
        }
      ],
      "stateMutability": "view",
      "type": "function"
    },
    {
      "inputs": [
        {
          "internalType": "uint256",
          "name": "tokenId",
          "type": "uint256"
        }
      ],
      "name": "ownerOf",
      "outputs": [
        {
          "internalType": "address",
          "name": "",
          "type": "address"
        }
      ],
      "stateMutability": "view",
      "type": "function"
    },
    {
      "inputs": [
        {
          "internalType": "address",
          "name": "from",
          "type": "address"
        },
        {
          "internalType": "address",
          "name": "to",
          "type": "address"
        },
        {
          "internalType": "uint256",
          "name": "tokenId",
          "type": "uint256"
        }
      ],
      "name": "safeTransferFrom",
      "outputs": [],
      "stateMutability": "nonpayable",
      "type": "function"
    },
    {
      "inputs": [
        {
          "internalType": "address",
          "name": "from",
          "type": "address"
        },
        {
          "internalType": "address",
          "name": "to",
          "type": "address"
        },
        {
          "internalType": "uint256",
          "name": "tokenId",
          "type": "uint256"
        },
        {
          "internalType": "bytes",
          "name": "_data",
          "type": "bytes"
        }
      ],
      "name": "safeTransferFrom",
      "outputs": [],
      "stateMutability": "nonpayable",
      "type": "function"
    },
    {
      "inputs": [
        {
          "internalType": "address",
          "name": "operator",
          "type": "address"
        },
        {
          "internalType": "bool",
          "name": "approved",
          "type": "bool"
        }
      ],
      "name": "setApprovalForAll",
      "outputs": [],
      "stateMutability": "nonpayable",
      "type": "function"
    },
    {
      "inputs": [
        {
          "internalType": "string",
          "name": "value",
          "type": "string"
        }
      ],
      "name": "setDescription",
      "outputs": [],
      "stateMutability": "nonpayable",
      "type": "function"
    },
    {
      "inputs": [
        {
          "internalType": "address",
          "name": "operator",
          "type": "address"
        }
      ],
      "name": "setOperator",
      "outputs": [],
      "stateMutability": "nonpayable",
      "type": "function"
    },
    {
      "inputs": [
        {
          "internalType": "bytes4",
          "name": "interfaceId",
          "type": "bytes4"
        }
      ],
      "name": "supportsInterface",
      "outputs": [
        {
          "internalType": "bool",
          "name": "",
          "type": "bool"
        }
      ],
      "stateMutability": "view",
      "type": "function"
    },
    {
      "inputs": [],
      "name": "symbol",
      "outputs": [
        {
          "internalType": "string",
          "name": "",
          "type": "string"
        }
      ],
      "stateMutability": "view",
      "type": "function"
    },
    {
      "inputs": [
        {
          "internalType": "uint256",
          "name": "index",
          "type": "uint256"
        }
      ],
      "name": "tokenByIndex",
      "outputs": [
        {
          "internalType": "uint256",
          "name": "",
          "type": "uint256"
        }
      ],
      "stateMutability": "view",
      "type": "function"
    },
    {
      "inputs": [
        {
          "internalType": "address",
          "name": "owner",
          "type": "address"
        },
        {
          "internalType": "uint256",
          "name": "index",
          "type": "uint256"
        }
      ],
      "name": "tokenOfOwnerByIndex",
      "outputs": [
        {
          "internalType": "uint256",
          "name": "",
          "type": "uint256"
        }
      ],
      "stateMutability": "view",
      "type": "function"
    },
    {
      "inputs": [],
      "name": "totalSupply",
      "outputs": [
        {
          "internalType": "uint256",
          "name": "",
          "type": "uint256"
        }
      ],
      "stateMutability": "view",
      "type": "function"
    },
    {
      "inputs": [
        {
          "internalType": "address",
          "name": "from",
          "type": "address"
        },
        {
          "internalType": "address",
          "name": "to",
          "type": "address"
        },
        {
          "internalType": "uint256",
          "name": "tokenId",
          "type": "uint256"
        }
      ],
      "name": "transferFrom",
      "outputs": [],
      "stateMutability": "nonpayable",
      "type": "function"
    },
    {
      "inputs": [
        {
          "internalType": "address",
          "name": "impl",
          "type": "address"
        }
      ],
      "name": "upgrade",
      "outputs": [],
      "stateMutability": "nonpayable",
      "type": "function"
    },
    {
      "inputs": [
        {
          "internalType": "address",
          "name": "host",
          "type": "address"
        },
        {
          "internalType": "string",
          "name": "name",
          "type": "string"
        },
        {
          "internalType": "string",
          "name": "description",
          "type": "string"
        },
        {
          "internalType": "string",
          "name": "baseURI",
          "type": "string"
        },
        {
          "internalType": "address",
          "name": "operator",
          "type": "address"
        },
        {
          "components": [
            {
              "internalType": "address",
              "name": "owner",
              "type": "address"
            },
            {
              "components": [
                {
                  "internalType": "uint256",
                  "name": "id",
                  "type": "uint256"
                },
                {
                  "internalType": "string",
                  "name": "name",
                  "type": "string"
                },
                {
                  "internalType": "string",
                  "name": "description",
                  "type": "string"
                },
                {
                  "internalType": "string",
                  "name": "image",
                  "type": "string"
                },
                {
                  "internalType": "uint32",
                  "name": "votes",
                  "type": "uint32"
                }
              ],
              "internalType": "struct IMember.Info",
              "name": "info",
              "type": "tuple"
            },
            {
              "internalType": "uint256[]",
              "name": "permissions",
              "type": "uint256[]"
            }
          ],
          "internalType": "struct Member.MintMemberArgs[]",
          "name": "members",
          "type": "tuple[]"
        }
      ],
      "name": "initMember",
      "outputs": [],
      "stateMutability": "nonpayable",
      "type": "function"
    },
    {
      "inputs": [
        {
          "internalType": "uint256",
          "name": "id",
          "type": "uint256"
        }
      ],
      "name": "remove",
      "outputs": [],
      "stateMutability": "nonpayable",
      "type": "function"
    },
    {
      "inputs": [
        {
          "internalType": "address",
          "name": "owner",
          "type": "address"
        },
        {
          "components": [
            {
              "internalType": "uint256",
              "name": "id",
              "type": "uint256"
            },
            {
              "internalType": "string",
              "name": "name",
              "type": "string"
            },
            {
              "internalType": "string",
              "name": "description",
              "type": "string"
            },
            {
              "internalType": "string",
              "name": "image",
              "type": "string"
            },
            {
              "internalType": "uint32",
              "name": "votes",
              "type": "uint32"
            }
          ],
          "internalType": "struct IMember.Info",
          "name": "info",
          "type": "tuple"
        },
        {
          "internalType": "uint256[]",
          "name": "permissions",
          "type": "uint256[]"
        }
      ],
      "name": "create",
      "outputs": [],
      "stateMutability": "nonpayable",
      "type": "function"
    },
    {
      "inputs": [
        {
          "internalType": "address",
          "name": "owner",
          "type": "address"
        },
        {
          "internalType": "uint256",
          "name": "id",
          "type": "uint256"
        },
        {
          "internalType": "uint32",
          "name": "votes",
          "type": "uint32"
        },
        {
          "internalType": "uint256[]",
          "name": "permissions",
          "type": "uint256[]"
        },
        {
          "internalType": "string",
          "name": "name",
          "type": "string"
        },
        {
          "internalType": "string",
          "name": "description",
          "type": "string"
        },
        {
          "internalType": "string",
          "name": "image",
          "type": "string"
        }
      ],
      "name": "createFrom",
      "outputs": [],
      "stateMutability": "nonpayable",
      "type": "function"
    },
    {
      "inputs": [
        {
          "internalType": "address",
          "name": "owner",
          "type": "address"
        },
        {
          "components": [
            {
              "internalType": "uint256",
              "name": "id",
              "type": "uint256"
            },
            {
              "internalType": "string",
              "name": "name",
              "type": "string"
            },
            {
              "internalType": "string",
              "name": "description",
              "type": "string"
            },
            {
              "internalType": "string",
              "name": "image",
              "type": "string"
            },
            {
              "internalType": "uint32",
              "name": "votes",
              "type": "uint32"
            }
          ],
          "internalType": "struct IMember.Info",
          "name": "info",
          "type": "tuple"
        },
        {
          "internalType": "uint256[]",
          "name": "permissions",
          "type": "uint256[]"
        }
      ],
      "name": "requestJoin",
      "outputs": [
        {
          "internalType": "uint256",
          "name": "id",
          "type": "uint256"
        }
      ],
      "stateMutability": "nonpayable",
      "type": "function"
    },
    {
      "inputs": [
        {
          "internalType": "uint256",
          "name": "tokenId",
          "type": "uint256"
        }
      ],
      "name": "tokenURI",
      "outputs": [
        {
          "internalType": "string",
          "name": "uri",
          "type": "string"
        }
      ],
      "stateMutability": "view",
      "type": "function"
    },
    {
      "inputs": [],
      "name": "votes",
      "outputs": [
        {
          "internalType": "uint256",
          "name": "",
          "type": "uint256"
        }
      ],
      "stateMutability": "view",
      "type": "function"
    },
    {
      "inputs": [
        {
          "internalType": "uint256",
          "name": "id",
          "type": "uint256"
        }
      ],
      "name": "getMemberInfo",
      "outputs": [
        {
          "components": [
            {
              "internalType": "uint256",
              "name": "id",
              "type": "uint256"
            },
            {
              "internalType": "string",
              "name": "name",
              "type": "string"
            },
            {
              "internalType": "string",
              "name": "description",
              "type": "string"
            },
            {
              "internalType": "string",
              "name": "image",
              "type": "string"
            },
            {
              "internalType": "uint32",
              "name": "votes",
              "type": "uint32"
            }
          ],
          "internalType": "struct IMember.Info",
          "name": "",
          "type": "tuple"
        }
      ],
      "stateMutability": "view",
      "type": "function"
    },
    {
      "inputs": [
        {
          "internalType": "uint256",
          "name": "id",
          "type": "uint256"
        },
        {
          "internalType": "string",
          "name": "name",
          "type": "string"
        },
        {
          "internalType": "string",
          "name": "description",
          "type": "string"
        },
        {
          "internalType": "string",
          "name": "image",
          "type": "string"
        }
      ],
      "name": "setMemberInfo",
      "outputs": [],
      "stateMutability": "nonpayable",
      "type": "function"
    },
    {
      "inputs": [
        {
          "internalType": "uint256",
          "name": "id",
          "type": "uint256"
        },
        {
          "components": [
            {
              "internalType": "uint256",
              "name": "id",
              "type": "uint256"
            },
            {
              "internalType": "string",
              "name": "name",
              "type": "string"
            },
            {
              "internalType": "string",
              "name": "description",
              "type": "string"
            },
            {
              "internalType": "string",
              "name": "image",
              "type": "string"
            },
            {
              "internalType": "uint32",
              "name": "votes",
              "type": "uint32"
            }
          ],
          "internalType": "struct IMember.Info",
          "name": "info",
          "type": "tuple"
        }
      ],
      "name": "setInfo",
      "outputs": [],
      "stateMutability": "nonpayable",
      "type": "function"
    },
    {
      "inputs": [
        {
          "internalType": "uint256",
          "name": "index",
          "type": "uint256"
        }
      ],
      "name": "indexAt",
      "outputs": [
        {
          "components": [
            {
              "internalType": "uint256",
              "name": "id",
              "type": "uint256"
            },
            {
              "internalType": "string",
              "name": "name",
              "type": "string"
            },
            {
              "internalType": "string",
              "name": "description",
              "type": "string"
            },
            {
              "internalType": "string",
              "name": "image",
              "type": "string"
            },
            {
              "internalType": "uint32",
              "name": "votes",
              "type": "uint32"
            }
          ],
          "internalType": "struct IMember.Info",
          "name": "",
          "type": "tuple"
        }
      ],
      "stateMutability": "view",
      "type": "function"
    },
    {
      "inputs": [
        {
          "internalType": "address",
          "name": "spender",
          "type": "address"
        },
        {
          "internalType": "uint256",
          "name": "id",
          "type": "uint256"
        }
      ],
      "name": "isApprovedOrOwner",
      "outputs": [
        {
          "internalType": "bool",
          "name": "",
          "type": "bool"
        }
      ],
      "stateMutability": "view",
      "type": "function"
    },
    {
      "inputs": [],
      "name": "total",
      "outputs": [
        {
          "internalType": "uint256",
          "name": "",
          "type": "uint256"
        }
      ],
      "stateMutability": "view",
      "type": "function"
    },
    {
      "inputs": [],
      "name": "executor",
      "outputs": [
        {
          "internalType": "uint256",
          "name": "",
          "type": "uint256"
        }
      ],
      "stateMutability": "view",
      "type": "function"
    },
    {
      "inputs": [
        {
          "internalType": "uint256",
          "name": "id",
          "type": "uint256"
        }
      ],
      "name": "setExecutor",
      "outputs": [],
      "stateMutability": "nonpayable",
      "type": "function"
    },
    {
      "inputs": [
        {
          "internalType": "address",
          "name": "owner",
          "type": "address"
        },
        {
          "internalType": "uint256",
          "name": "action",
          "type": "uint256"
        }
      ],
      "name": "isPermission",
      "outputs": [
        {
          "internalType": "bool",
          "name": "",
          "type": "bool"
        }
      ],
      "stateMutability": "view",
      "type": "function"
    },
    {
      "inputs": [
        {
          "internalType": "uint256",
          "name": "id",
          "type": "uint256"
        },
        {
          "internalType": "uint256",
          "name": "action",
          "type": "uint256"
        }
      ],
      "name": "isPermissionFrom",
      "outputs": [
        {
          "internalType": "bool",
          "name": "",
          "type": "bool"
        }
      ],
      "stateMutability": "view",
      "type": "function"
    },
    {
      "inputs": [
        {
          "internalType": "uint256",
          "name": "id",
          "type": "uint256"
        },
        {
          "internalType": "uint256[]",
          "name": "addActions",
          "type": "uint256[]"
        },
        {
          "internalType": "uint256[]",
          "name": "removeActions",
          "type": "uint256[]"
        }
      ],
      "name": "setPermissions",
      "outputs": [],
      "stateMutability": "nonpayable",
      "type": "function"
    },
    {
      "inputs": [
        {
          "internalType": "uint256",
          "name": "id",
          "type": "uint256"
        },
        {
          "internalType": "int32",
          "name": "votes",
          "type": "int32"
        }
      ],
      "name": "addVotes",
      "outputs": [],
      "stateMutability": "nonpayable",
      "type": "function"
    },
    {
      "inputs": [
        {
          "internalType": "uint256",
          "name": "from",
          "type": "uint256"
        },
        {
          "internalType": "uint256",
          "name": "to",
          "type": "uint256"
        },
        {
          "internalType": "uint32",
          "name": "votes",
          "type": "uint32"
        }
      ],
      "name": "transferVotes",
      "outputs": [],
      "stateMutability": "nonpayable",
      "type": "function"
    }
  ],
  "bytecode": "0x608060405234801561001057600080fd5b50614737806100206000396000f3fe608060405234801561001057600080fd5b506004361061027f5760003560e01c80636c0360eb1161015c578063ae99aa3c116100ce578063c87b56dd11610087578063c87b56dd14610589578063df267f6b1461059c578063e168c3ec146105af578063e985e9c5146105b7578063f0bf2aa7146105f3578063f437bc591461060657600080fd5b8063ae99aa3c14610522578063b3ab15fb14610535578063b641ee4214610548578063b88d4fde1461055b578063c34c08e51461056e578063c64df69d1461057657600080fd5b806395d89b411161012057806395d89b41146104ae578063a22cb465146104b6578063a42bbccd146104c9578063a5fa3705146104e9578063a8a555c5146104fc578063aba617911461050f57600080fd5b80636c0360eb1461046757806370a082311461046f5780637284e416146104825780638abf60771461048a57806390c3f38f1461049b57600080fd5b80632ddbd13a116101f55780634f558e79116101b95780634f558e79146103f75780634f6ccce71461040a578063570ca7351461041d5780635a93b4d61461042e5780635e7dc20b146104415780636352211e1461045457600080fd5b80632ddbd13a146103a35780632f745c59146103ab57806342842e0e146103be578063430c2081146103d15780634cc82215146103e457600080fd5b8063095ea7b311610247578063095ea7b31461032e57806313c514101461034157806318160ddd1461035457806319110b3b1461036a5780631fc599e51461037d57806323b872dd1461039057600080fd5b806301ffc9a71461028457806306fdde03146102c657806307dc4526146102db578063081812fc146102f05780630900f0101461031b575b600080fd5b6102b16102923660046134dc565b6001600160e01b03191660009081526001602052604090205460ff1690565b60405190151581526020015b60405180910390f35b6102ce610617565b6040516102bd9190613549565b6102ee6102e936600461355c565b6106a9565b005b6103036102fe36600461355c565b610780565b6040516001600160a01b0390911681526020016102bd565b6102ee61032936600461359a565b610808565b6102ee61033c3660046135b7565b61086b565b6102ee61034f3660046136ea565b610980565b61035c610a73565b6040519081526020016102bd565b6102ee61037836600461378f565b610a84565b6102ee61038b366004613900565b610ced565b6102ee61039e366004613975565b610e13565b61035c610e68565b61035c6103b93660046135b7565b610e74565b6102ee6103cc366004613975565b610e9f565b6102b16103df3660046135b7565b610eba565b6102ee6103f236600461355c565b610ec6565b6102b161040536600461355c565b610fe0565b61035c61041836600461355c565b610feb565b6003546001600160a01b0316610303565b6102ee61043c3660046139b6565b611001565b6102b161044f3660046139f5565b611188565b61030361046236600461355c565b6111a3565b6102ce6111cb565b61035c61047d36600461359a565b6111da565b6102ce611266565b6000546001600160a01b0316610303565b6102ee6104a9366004613a17565b611275565b6102ce6113c5565b6102ee6104c4366004613a59565b6113d4565b6104dc6104d736600461355c565b611498565b6040516102bd9190613b01565b6102ee6104f7366004613b14565b6116a3565b6102b161050a3660046135b7565b6116bb565b6102ee61051d366004613b5a565b61171b565b6104dc61053036600461355c565b6118a7565b6102ee61054336600461359a565b61194f565b6102ee610556366004613c76565b6119b2565b6102ee610569366004613d42565b611a69565b601b5461035c565b6102ee610584366004613db5565b611a9b565b6102ce61059736600461355c565b611ad7565b61035c6105aa366004613900565b611c42565b601a5461035c565b6102b16105c5366004613dfa565b6001600160a01b03918216600090815260126020908152604080832093909416825291909152205460ff1690565b6102ee610601366004613e28565b612036565b6002546001600160a01b0316610303565b60606013805461062690613eff565b80601f016020809104026020016040519081016040528092919081815260200182805461065290613eff565b801561069f5780601f106106745761010080835404028352916020019161069f565b820191906000526020600020905b81548152906001019060200180831161068257829003601f168201915b5050505050905090565b6106b161218d565b6106d65760405162461bcd60e51b81526004016106cd90613f39565b60405180910390fd5b6106df816122cc565b61074a5760405162461bcd60e51b815260206004820152603660248201527f234d656d626572237365744578656375746f723a20696e666f207175657279206044820152753337b9103737b732bc34b9ba32b73a1036b2b6b132b960511b60648201526084016106cd565b601b8190556040516001600160a01b03821681526008906000805160206146e2833981519152906020015b60405180910390a250565b600061078b826122cc565b6107ec5760405162461bcd60e51b815260206004820152602c60248201527f4552433732313a20617070726f76656420717565727920666f72206e6f6e657860448201526b34b9ba32b73a103a37b5b2b760a11b60648201526084016106cd565b506000908152601160205260409020546001600160a01b031690565b61081061218d565b61082c5760405162461bcd60e51b81526004016106cd90613f39565b600080546001600160a01b0319166001600160a01b0383169081179091556040519081526003906000805160206146e283398151915290602001610775565b6000610876826111a3565b9050806001600160a01b0316836001600160a01b0316036108e35760405162461bcd60e51b815260206004820152602160248201527f4552433732313a20617070726f76616c20746f2063757272656e74206f776e656044820152603960f91b60648201526084016106cd565b336001600160a01b03821614806108ff57506108ff81336105c5565b6109715760405162461bcd60e51b815260206004820152603860248201527f4552433732313a20617070726f76652063616c6c6572206973206e6f74206f7760448201527f6e6572206e6f7220617070726f76656420666f7220616c6c000000000000000060648201526084016106cd565b61097b83836122d9565b505050565b3361098a856111a3565b6001600160a01b0316146109ee5760405162461bcd60e51b815260206004820152602560248201527f234d656d626572237365744d656d626572496e666f3a206f776e6572206e6f206044820152640dac2e8c6d60db1b60648201526084016106cd565b6000848152601760205260409020835115610a135760018101610a118582613fd5565b505b825115610a2a5760028101610a288482613fd5565b505b815115610a415760038101610a3f8382613fd5565b505b60405185907f164f7b2ab803097dab5e39f06d2e4f3c3ddc5d4171abbdcc3e76443b8359c7f590600090a25050505050565b6000610a7f600e612347565b905090565b610a8c61218d565b610aa85760405162461bcd60e51b81526004016106cd90613f39565b610ab1836122cc565b610b235760405162461bcd60e51b815260206004820152603d60248201527f234d656d626572237472616e73666572566f7465733a20696e666f207175657260448201527f7920666f72206e6f6e6578697374656e74206d656d6265722066726f6d00000060648201526084016106cd565b610b2c826122cc565b610b9e5760405162461bcd60e51b815260206004820152603b60248201527f234d656d626572237472616e73666572566f7465733a20696e666f207175657260448201527f7920666f72206e6f6e6578697374656e74206d656d62657220746f000000000060648201526084016106cd565b6000838152601760205260408082208483529120600482015463ffffffff80851691161015610c255760405162461bcd60e51b815260206004820152602d60248201527f234d656d626572237472616e73666572566f7465733a206e6f7420766f74657360448201526c040e0deeecae440cadcdeeaced609b1b60648201526084016106cd565b600482018054849190600090610c4290849063ffffffff166140aa565b92506101000a81548163ffffffff021916908363ffffffff160217905550828160040160008282829054906101000a900463ffffffff16610c8391906140c7565b92506101000a81548163ffffffff021916908363ffffffff16021790555083857f9954d88d42b9655d95479ca03a829c7718c1f2154aa6181772ffdbdcd7db0dd685604051610cde919063ffffffff91909116815260200190565b60405180910390a35050505050565b6322a25870610cfa61218d565b610e0257600260009054906101000a90046001600160a01b03166001600160a01b031663e3f6b5446040518163ffffffff1660e01b8152600401602060405180830381865afa158015610d51573d6000803e3d6000fd5b505050506040513d601f19601f82011682018060405250810190610d7591906140e4565b60405163a8a555c560e01b8152336004820152602481018390526001600160a01b03919091169063a8a555c590604401602060405180830381865afa158015610dc2573d6000803e3d6000fd5b505050506040513d601f19601f82011682018060405250810190610de69190614101565b610e025760405162461bcd60e51b81526004016106cd90613f39565b610e0d848484612352565b50505050565b610e1d338261246b565b610e395760405162461bcd60e51b81526004016106cd9061411e565b610e5483838360405180602001604052806000815250612555565b604080516020810190915260009052505050565b6000610a7f60186126d7565b6001600160a01b0382166000908152600d60205260408120610e9690836126e1565b90505b92915050565b61097b83838360405180602001604052806000815250611a69565b6000610e96838361246b565b610ed03382610eba565b80610ede5750610ede61218d565b610f2a5760405162461bcd60e51b815260206004820152601c60248201527f234d656d6265722372656d6f7665204e6f207065726d697373696f6e0000000060448201526064016106cd565b610f33816126ed565b600081815260176020526040812060040154601a805463ffffffff909216929091610f5f90849061416f565b90915550506000818152601760205260408120818155908181610f856001830182613420565b610f93600283016000613420565b610fa1600383016000613420565b50600401805463ffffffff191690556005820160008181610fc2828261345a565b505050505050610fdc8160186127b690919063ffffffff16565b5050565b6000610e99826122cc565b600080610ff9600e846127c2565b509392505050565b61100961218d565b6110255760405162461bcd60e51b81526004016106cd90613f39565b61102e836122cc565b6110a05760405162461bcd60e51b815260206004820152603960248201527f234d656d626572237365745065726d697373696f6e733a20696e666f2071756560448201527f727920666f72206e6f6e6578697374656e74206d656d6265720000000000000060648201526084016106cd565b6000838152601760205260408120600501905b83518110156110fb576110e88482815181106110d1576110d1614182565b6020026020010151836127de90919063ffffffff16565b50806110f381614198565b9150506110b3565b5060005b82518110156111475761113483828151811061111d5761111d614182565b6020026020010151836127b690919063ffffffff16565b508061113f81614198565b9150506110ff565b50837fee0225f6c1d2854b8b02e112f397db222521f304566aca2f42b09c80e86f47bc848460405161117a9291906141ec565b60405180910390a250505050565b6000828152601760205260408120610e9690600501836127ea565b6000610e99826040518060600160405280602981526020016146b960299139600e9190612802565b60606016805461062690613eff565b60006001600160a01b0382166112455760405162461bcd60e51b815260206004820152602a60248201527f4552433732313a2062616c616e636520717565727920666f7220746865207a65604482015269726f206164647265737360b01b60648201526084016106cd565b6001600160a01b0382166000908152600d60205260409020610e99906126d7565b60606004805461062690613eff565b63d0a4ad9661128261218d565b61138a57600260009054906101000a90046001600160a01b03166001600160a01b031663e3f6b5446040518163ffffffff1660e01b8152600401602060405180830381865afa1580156112d9573d6000803e3d6000fd5b505050506040513d601f19601f820116820180604052508101906112fd91906140e4565b60405163a8a555c560e01b8152336004820152602481018390526001600160a01b03919091169063a8a555c590604401602060405180830381865afa15801561134a573d6000803e3d6000fd5b505050506040513d601f19601f8201168201806040525081019061136e9190614101565b61138a5760405162461bcd60e51b81526004016106cd90613f39565b60046113968382613fd5565b5060016000805160206146e283398151915260006040516113b991815260200190565b60405180910390a25050565b60606014805461062690613eff565b336001600160a01b0383160361142c5760405162461bcd60e51b815260206004820152601960248201527f4552433732313a20617070726f766520746f2063616c6c65720000000000000060448201526064016106cd565b3360008181526012602090815260408083206001600160a01b03871680855290835292819020805460ff191686151590811790915590519081529192917f17307eab39ab6107e8899845ad3d59bd9653f200f220920489ca2b5937696c31910160405180910390a35050565b6114a0613478565b601760006114af6018856126e1565b81526020019081526020016000206000016040518060a0016040529081600082015481526020016001820180546114e590613eff565b80601f016020809104026020016040519081016040528092919081815260200182805461151190613eff565b801561155e5780601f106115335761010080835404028352916020019161155e565b820191906000526020600020905b81548152906001019060200180831161154157829003601f168201915b5050505050815260200160028201805461157790613eff565b80601f01602080910402602001604051908101604052809291908181526020018280546115a390613eff565b80156115f05780601f106115c5576101008083540402835291602001916115f0565b820191906000526020600020905b8154815290600101906020018083116115d357829003601f168201915b5050505050815260200160038201805461160990613eff565b80601f016020809104026020016040519081016040528092919081815260200182805461163590613eff565b80156116825780601f1061165757610100808354040283529160200191611682565b820191906000526020600020905b81548152906001019060200180831161166557829003601f168201915b50505091835250506004919091015463ffffffff1660209091015292915050565b610fdc82826020015183604001518460600151610980565b6000806116c7846111da565b905060005b818110156117105760006116e08683610e74565b90506116ec8186611188565b156116fd5760019350505050610e99565b508061170881614198565b9150506116cc565b506000949350505050565b61172361218d565b61173f5760405162461bcd60e51b81526004016106cd90613f39565b611748826122cc565b6117b05760405162461bcd60e51b815260206004820152603360248201527f234d656d62657223736574566f7465733a20696e666f20717565727920666f72604482015272103737b732bc34b9ba32b73a1036b2b6b132b960691b60648201526084016106cd565b6000828152601760205260408120600481018054919284926117d990849063ffffffff166140c7565b92506101000a81548163ffffffff021916908363ffffffff1602179055508163ffffffff16601a600082825461180f919061421a565b90915550506000600383900b13156118655760405163ffffffff8316815283906000907f9954d88d42b9655d95479ca03a829c7718c1f2154aa6181772ffdbdcd7db0dd6906020015b60405180910390a3505050565b6000837f9954d88d42b9655d95479ca03a829c7718c1f2154aa6181772ffdbdcd7db0dd66118928561422d565b60405163ffffffff9091168152602001611858565b6118af613478565b6118b8826122cc565b61191c5760405162461bcd60e51b815260206004820152602f60248201527f234d656d62657223696e666f3a20696e666f20717565727920666f72206e6f6e60448201526e32bc34b9ba32b73a1036b2b6b132b960891b60648201526084016106cd565b600082815260176020908152604091829020825160a081019093528054835260018101805491928401916114e590613eff565b61195761218d565b6119735760405162461bcd60e51b81526004016106cd90613f39565b600380546001600160a01b0319166001600160a01b0383169081179091556040519081526002906000805160206146e283398151915290602001610775565b6119bd868584612819565b6119c7858661287d565b6119d76323fc76b960e01b6128c3565b6119e0836128cf565b60005b8151811015611a6057611a4e828281518110611a0157611a01614182565b602002602001015160000151838381518110611a1f57611a1f614182565b602002602001015160200151848481518110611a3d57611a3d614182565b602002602001015160400151612352565b80611a5881614198565b9150506119e3565b50505050505050565b611a73338361246b565b611a8f5760405162461bcd60e51b81526004016106cd9061411e565b610e0d848484846128db565b6001600160e01b0319821660009081526001602052604090205460ff16819061097b5760405162461bcd60e51b81526004016106cd9190613549565b600081815260176020526040812060018101805460609391611b7f91611afc90613eff565b80601f0160208091040260200160405190810160405280929190818152602001828054611b2890613eff565b8015611b755780601f10611b4a57610100808354040283529160200191611b75565b820191906000526020600020905b815481529060010190602001808311611b5857829003601f168201915b505050505061295f565b604051602001611b8f9190614250565b60405160208183030381529060405290506000611bb4836002018054611afc90613eff565b604051602001611bc49190614281565b60405160208183030381529060405290506000611be9846003018054611afc90613eff565b604051602001611bf991906142b9565b6040516020818303038152906040529050611c126111cb565b838383604051602001611c2894939291906142eb565b604051602081830303815290604052945050505050919050565b60006001600160a01b038416611caf5760405162461bcd60e51b815260206004820152602c60248201527f234d656d62657223726571756573744a6f696e206d696e7420746f207468652060448201526b7a65726f206164647265737360a01b60648201526084016106cd565b8251611cba906122cc565b15611d185760405162461bcd60e51b815260206004820152602860248201527f234d656d62657223726571756573744a6f696e20746f6b656e20616c726561646044820152671e481b5a5b9d195960c21b60648201526084016106cd565b6000611d2661138843614342565b9050611d3133612ab7565b611d3a82612acd565b604051602001611d4b929190614364565b60408051601f198184030181528282528051602091820120600180855284840190935294506000929190808301908036833750506040805160018082528183019092529293506000929150602082015b6060815260200190600190039081611d9b5790505090503082600081518110611dc657611dc6614182565b6001600160a01b0390921660209283029190910190910152604051631fc599e560e01b90611dfc908990899089906024016143ad565b604051602081830303815290604052906001600160e01b0319166020820180516001600160e01b03838183161783525050505081600081518110611e4257611e42614182565b6020026020010181905250611ef160405180610260016040528060008152602001606081526020016060815260200160006001600160a01b031681526020016000815260200160608152602001600081526020016000815260200160008152602001600081526020016000815260200160008152602001600081526020016000815260200160008152602001600015158152602001600015158152602001600015158152602001606081525090565b84815260006080820181905260a0820184905260c082018190526113896101008301526101208201819052610140820152604080518082018252601381527272657175657374206a6f696e20746f2044414f60681b6020808301919091528084019190915288810151828401526102408301849052600254825163ebf0c71760e01b815292516001600160a01b039091169263ebf0c7179260048083019391928290030181865afa158015611faa573d6000803e3d6000fd5b505050506040513d601f19601f82011682018060405250810190611fce91906140e4565b6001600160a01b031663878e5e52826040518263ffffffff1660e01b8152600401611ff9919061447b565b600060405180830381600087803b15801561201357600080fd5b505af1158015612027573d6000803e3d6000fd5b50505050505050509392505050565b6322a2587061204361218d565b61214b57600260009054906101000a90046001600160a01b03166001600160a01b031663e3f6b5446040518163ffffffff1660e01b8152600401602060405180830381865afa15801561209a573d6000803e3d6000fd5b505050506040513d601f19601f820116820180604052508101906120be91906140e4565b60405163a8a555c560e01b8152336004820152602481018390526001600160a01b03919091169063a8a555c590604401602060405180830381865afa15801561210b573d6000803e3d6000fd5b505050506040513d601f19601f8201168201806040525081019061212f9190614101565b61214b5760405162461bcd60e51b81526004016106cd90613f39565b612153613478565b8781526020810185905263ffffffff871660808201526060810183905260408101849052612182898288612352565b505050505050505050565b60035460009033906001600160a01b031681146122c457600260009054906101000a90046001600160a01b03166001600160a01b031663570ca7356040518163ffffffff1660e01b8152600401602060405180830381865afa1580156121f7573d6000803e3d6000fd5b505050506040513d601f19601f8201168201806040525081019061221b91906140e4565b6001600160a01b0316816001600160a01b0316146122c457600260009054906101000a90046001600160a01b03166001600160a01b031663ebf0c7176040518163ffffffff1660e01b8152600401602060405180830381865afa158015612286573d6000803e3d6000fd5b505050506040513d601f19601f820116820180604052508101906122aa91906140e4565b6001600160a01b0316816001600160a01b03161491505090565b600191505090565b6000610e99600e83612b5f565b600081815260116020526040902080546001600160a01b0319166001600160a01b038416908117909155819061230e826111a3565b6001600160a01b03167f8c5be1e5ebec7d5bd14f71427d1e84f3dd0314c0f7b2291e5b200ac8c7c3b92560405160405180910390a45050565b6000610e9982612b6b565b612360838360000151612b76565b8151600090815260176020908152604090912083518155908301518190600182019061238c9082613fd5565b50604084015160028201906123a19082613fd5565b50606084015160038201906123b69082613fd5565b50608084015163ffffffff16156123d15783608001516123d4565b60015b60048201805463ffffffff191663ffffffff929092169182179055601a805460009061240190849061421a565b90915550508351612414906018906127de565b5060005b83518110156124635761245084828151811061243657612436614182565b6020026020010151846005016127de90919063ffffffff16565b508061245b81614198565b915050612418565b505050505050565b6000612476826122cc565b6124d75760405162461bcd60e51b815260206004820152602c60248201527f4552433732313a206f70657261746f7220717565727920666f72206e6f6e657860448201526b34b9ba32b73a103a37b5b2b760a11b60648201526084016106cd565b60006124e2836111a3565b9050806001600160a01b0316846001600160a01b0316148061251d5750836001600160a01b031661251284610780565b6001600160a01b0316145b8061254d57506001600160a01b0380821660009081526012602090815260408083209388168352929052205460ff165b949350505050565b836001600160a01b0316612568836111a3565b6001600160a01b0316146125d05760405162461bcd60e51b815260206004820152602960248201527f4552433732313a207472616e73666572206f6620746f6b656e2074686174206960448201526839903737ba1037bbb760b91b60648201526084016106cd565b6001600160a01b0383166126325760405162461bcd60e51b8152602060048201526024808201527f4552433732313a207472616e7366657220746f20746865207a65726f206164646044820152637265737360e01b60648201526084016106cd565b61263d6000836122d9565b6001600160a01b0384166000908152600d6020526040902061265f90836127b6565b506001600160a01b0383166000908152600d6020526040902061268290836127de565b5061268f600e8385612c98565b5081836001600160a01b0316856001600160a01b03167fddf252ad1be2c89b69c2b068fc378daa952ba7f163c4a11628f55a4df523b3ef60405160405180910390a450505050565b6000610e99825490565b6000610e968383612cae565b60006126f8826111a3565b60408051602081019091526000905290506127146000836122d9565b6000828152601560205260409020805461272d90613eff565b15905061274b57600082815260156020526040812061274b91613420565b6001600160a01b0381166000908152600d6020526040902061276d90836127b6565b50612779600e83612cd8565b5060405182906000906001600160a01b038416907fddf252ad1be2c89b69c2b068fc378daa952ba7f163c4a11628f55a4df523b3ef908390a45050565b6000610e968383612ce4565b60008080806127d18686612dd7565b9097909650945050505050565b6000610e968383612e02565b60008181526001830160205260408120541515610e96565b600061280f848484612e51565b90505b9392505050565b612821612e9d565b612831630d64f40d60e31b6128c3565b600280546001600160a01b0319166001600160a01b03851617905560046128588382613fd5565b50600380546001600160a01b0319166001600160a01b03929092169190911790555050565b60136128898382613fd5565b5060146128968282613fd5565b506128a76380ac58cd60e01b6128c3565b6128b7635b5e139f60e01b6128c3565b610fdc63780e9d6360e01b5b6128cc81612f7c565b50565b6016610fdc8282613fd5565b6128e784848484612555565b6128f384848484612ffe565b61295a5760405162461bcd60e51b815260206004820152603260248201527f4552433732313a207472616e7366657220746f206e6f6e20455243373231526560448201527131b2b4bb32b91034b6b83632b6b2b73a32b960711b60648201526084016106cd565b610e0d565b606060008251600261297191906145d6565b6001600160401b03811115612988576129886135e3565b6040519080825280601f01601f1916602001820160405280156129b2576020820181803683370190505b50905060005b8351811015612ab05760008482815181106129d5576129d5614182565b016020015160f881901c91506f181899199a1a9b1b9c1cb0b131b232b360811b9060fc1c60108110612a0957612a09614182565b1a60f81b83600184901b81518110612a2357612a23614182565b60200101906001600160f81b031916908160001a9053506f181899199a1a9b1b9c1cb0b131b232b360811b600f821660108110612a6257612a62614182565b1a60f81b83612a75600185811b9061421a565b81518110612a8557612a85614182565b60200101906001600160f81b031916908160001a905350508080612aa890614198565b9150506129b8565b5092915050565b6060610e996001600160a01b03831660146130b7565b60606000612ada83613252565b60010190506000816001600160401b03811115612af957612af96135e3565b6040519080825280601f01601f191660200182016040528015612b23576020820181803683370190505b5090508181016020015b600019016f181899199a1a9b1b9c1cb0b131b232b360811b600a86061a8153600a8504945084612b2d57509392505050565b6000610e96838361332a565b6000610e99826126d7565b6001600160a01b038216612bcc5760405162461bcd60e51b815260206004820181905260248201527f4552433732313a206d696e7420746f20746865207a65726f206164647265737360448201526064016106cd565b612bd5816122cc565b15612c225760405162461bcd60e51b815260206004820152601c60248201527f4552433732313a20746f6b656e20616c7265616479206d696e7465640000000060448201526064016106cd565b60408051602080820183526000918290526001600160a01b0385168252600d905220612c4e90826127de565b50612c5b600e8284612c98565b5060405181906001600160a01b038416906000907fddf252ad1be2c89b69c2b068fc378daa952ba7f163c4a11628f55a4df523b3ef908290a45050565b600061280f84846001600160a01b038516613336565b6000826000018281548110612cc557612cc5614182565b9060005260206000200154905092915050565b6000610e968383613353565b60008181526001830160205260408120548015612dcd576000612d0860018361416f565b8554909150600090612d1c9060019061416f565b9050818114612d81576000866000018281548110612d3c57612d3c614182565b9060005260206000200154905080876000018481548110612d5f57612d5f614182565b6000918252602080832090910192909255918252600188019052604090208390555b8554869080612d9257612d926145ed565b600190038181906000526020600020016000905590558560010160008681526020019081526020016000206000905560019350505050610e99565b6000915050610e99565b60008080612de585856126e1565b600081815260029690960160205260409095205494959350505050565b6000818152600183016020526040812054612e4957508154600181810184556000848152602080822090930184905584548482528286019093526040902091909155610e99565b506000610e99565b600082815260028401602052604081205480151580612e755750612e75858561332a565b8390612e945760405162461bcd60e51b81526004016106cd9190613549565b50949350505050565b600054600160a81b900460ff1680612eb45750303b155b80612ec95750600054600160a01b900460ff16155b612f2c5760405162461bcd60e51b815260206004820152602e60248201527f436f6e747261637420696e7374616e63652068617320616c726561647920626560448201526d195b881a5b9a5d1a585b1a5e995960921b60648201526084016106cd565b600054600160a81b900460ff16158015612f56576000805461ffff60a01b191661010160a01b1790555b612f666301ffc9a760e01b6128c3565b80156128cc576000805460ff60a81b1916905550565b6001600160e01b03198082169003612fd65760405162461bcd60e51b815260206004820152601c60248201527f4552433136353a20696e76616c696420696e746572666163652069640000000060448201526064016106cd565b6001600160e01b0319166000908152600160208190526040909120805460ff19169091179055565b60006001600160a01b0384163b6130175750600161254d565b6000630a85bd0160e11b338786866040516024016130389493929190614603565b604051602081830303815290604052906001600160e01b0319166020820180516001600160e01b038381831617835250505050905063150b7a0260e01b6001600160e01b0319166130a2868360405180606001604052806032815260200161468760329139613370565b6001600160e01b031916149695505050505050565b606060006130c68360026145d6565b6130d190600261421a565b6001600160401b038111156130e8576130e86135e3565b6040519080825280601f01601f191660200182016040528015613112576020820181803683370190505b509050600360fc1b8160008151811061312d5761312d614182565b60200101906001600160f81b031916908160001a905350600f60fb1b8160018151811061315c5761315c614182565b60200101906001600160f81b031916908160001a90535060006131808460026145d6565b61318b90600161421a565b90505b6001811115613203576f181899199a1a9b1b9c1cb0b131b232b360811b85600f16601081106131bf576131bf614182565b1a60f81b8282815181106131d5576131d5614182565b60200101906001600160f81b031916908160001a90535060049490941c936131fc81614636565b905061318e565b508315610e965760405162461bcd60e51b815260206004820181905260248201527f537472696e67733a20686578206c656e67746820696e73756666696369656e7460448201526064016106cd565b60008072184f03e93ff9f4daa797ed6e38ed64bf6a1f0160401b83106132915772184f03e93ff9f4daa797ed6e38ed64bf6a1f0160401b830492506040015b6d04ee2d6d415b85acef810000000083106132bd576d04ee2d6d415b85acef8100000000830492506020015b662386f26fc1000083106132db57662386f26fc10000830492506010015b6305f5e10083106132f3576305f5e100830492506008015b612710831061330757612710830492506004015b60648310613319576064830492506002015b600a8310610e995760010192915050565b6000610e9683836127ea565b6000828152600284016020526040812082905561280f84846127de565b60008181526002830160205260408120819055610e9683836127b6565b6000806000856001600160a01b03168560405161338d919061464d565b6000604051808303816000865af19150503d80600081146133ca576040519150601f19603f3d011682016040523d82523d6000602084013e6133cf565b606091505b509150915081613403578051156133e95780518082602001fd5b8360405162461bcd60e51b81526004016106cd9190613549565b808060200190518101906134179190614669565b92505050612812565b50805461342c90613eff565b6000825580601f1061343c575050565b601f0160209004906000526020600020908101906128cc91906134ad565b50805460008255906000526020600020908101906128cc91906134ad565b6040518060a0016040528060008152602001606081526020016060815260200160608152602001600063ffffffff1681525090565b5b808211156134c257600081556001016134ae565b5090565b6001600160e01b0319811681146128cc57600080fd5b6000602082840312156134ee57600080fd5b8135610e96816134c6565b60005b838110156135145781810151838201526020016134fc565b50506000910152565b600081518084526135358160208601602086016134f9565b601f01601f19169290920160200192915050565b602081526000610e96602083018461351d565b60006020828403121561356e57600080fd5b5035919050565b6001600160a01b03811681146128cc57600080fd5b803561359581613575565b919050565b6000602082840312156135ac57600080fd5b8135610e9681613575565b600080604083850312156135ca57600080fd5b82356135d581613575565b946020939093013593505050565b634e487b7160e01b600052604160045260246000fd5b60405160a081016001600160401b038111828210171561361b5761361b6135e3565b60405290565b604051606081016001600160401b038111828210171561361b5761361b6135e3565b604051601f8201601f191681016001600160401b038111828210171561366b5761366b6135e3565b604052919050565b60006001600160401b0383111561368c5761368c6135e3565b61369f601f8401601f1916602001613643565b90508281528383830111156136b357600080fd5b828260208301376000602084830101529392505050565b600082601f8301126136db57600080fd5b610e9683833560208501613673565b6000806000806080858703121561370057600080fd5b8435935060208501356001600160401b038082111561371e57600080fd5b61372a888389016136ca565b9450604087013591508082111561374057600080fd5b61374c888389016136ca565b9350606087013591508082111561376257600080fd5b5061376f878288016136ca565b91505092959194509250565b803563ffffffff8116811461359557600080fd5b6000806000606084860312156137a457600080fd5b83359250602084013591506137bb6040850161377b565b90509250925092565b600060a082840312156137d657600080fd5b6137de6135f9565b90508135815260208201356001600160401b03808211156137fe57600080fd5b61380a858386016136ca565b6020840152604084013591508082111561382357600080fd5b61382f858386016136ca565b6040840152606084013591508082111561384857600080fd5b50613855848285016136ca565b6060830152506138676080830161377b565b608082015292915050565b60006001600160401b0382111561388b5761388b6135e3565b5060051b60200190565b600082601f8301126138a657600080fd5b813560206138bb6138b683613872565b613643565b82815260059290921b840181019181810190868411156138da57600080fd5b8286015b848110156138f557803583529183019183016138de565b509695505050505050565b60008060006060848603121561391557600080fd5b833561392081613575565b925060208401356001600160401b038082111561393c57600080fd5b613948878388016137c4565b9350604086013591508082111561395e57600080fd5b5061396b86828701613895565b9150509250925092565b60008060006060848603121561398a57600080fd5b833561399581613575565b925060208401356139a581613575565b929592945050506040919091013590565b6000806000606084860312156139cb57600080fd5b8335925060208401356001600160401b03808211156139e957600080fd5b61394887838801613895565b60008060408385031215613a0857600080fd5b50508035926020909101359150565b600060208284031215613a2957600080fd5b81356001600160401b03811115613a3f57600080fd5b61254d848285016136ca565b80151581146128cc57600080fd5b60008060408385031215613a6c57600080fd5b8235613a7781613575565b91506020830135613a8781613a4b565b809150509250929050565b805182526000602082015160a06020850152613ab160a085018261351d565b905060408301518482036040860152613aca828261351d565b91505060608301518482036060860152613ae4828261351d565b91505063ffffffff60808401511660808501528091505092915050565b602081526000610e966020830184613a92565b60008060408385031215613b2757600080fd5b8235915060208301356001600160401b03811115613b4457600080fd5b613b50858286016137c4565b9150509250929050565b60008060408385031215613b6d57600080fd5b8235915060208301358060030b8114613a8757600080fd5b600082601f830112613b9657600080fd5b81356020613ba66138b683613872565b82815260059290921b84018101918181019086841115613bc557600080fd5b8286015b848110156138f55780356001600160401b0380821115613be95760008081fd5b908801906060828b03601f1901811315613c035760008081fd5b613c0b613621565b87840135613c1881613575565b815260408481013584811115613c2e5760008081fd5b613c3c8e8b838901016137c4565b838b015250918401359183831115613c545760008081fd5b613c628d8a85880101613895565b908201528652505050918301918301613bc9565b60008060008060008060c08789031215613c8f57600080fd5b613c988761358a565b955060208701356001600160401b0380821115613cb457600080fd5b613cc08a838b016136ca565b96506040890135915080821115613cd657600080fd5b613ce28a838b016136ca565b95506060890135915080821115613cf857600080fd5b613d048a838b016136ca565b9450613d1260808a0161358a565b935060a0890135915080821115613d2857600080fd5b50613d3589828a01613b85565b9150509295509295509295565b60008060008060808587031215613d5857600080fd5b8435613d6381613575565b93506020850135613d7381613575565b92506040850135915060608501356001600160401b03811115613d9557600080fd5b8501601f81018713613da657600080fd5b61376f87823560208401613673565b60008060408385031215613dc857600080fd5b8235613dd3816134c6565b915060208301356001600160401b03811115613dee57600080fd5b613b50858286016136ca565b60008060408385031215613e0d57600080fd5b8235613e1881613575565b91506020830135613a8781613575565b600080600080600080600060e0888a031215613e4357600080fd5b613e4c8861358a565b965060208801359550613e616040890161377b565b945060608801356001600160401b0380821115613e7d57600080fd5b613e898b838c01613895565b955060808a0135915080821115613e9f57600080fd5b613eab8b838c016136ca565b945060a08a0135915080821115613ec157600080fd5b613ecd8b838c016136ca565b935060c08a0135915080821115613ee357600080fd5b50613ef08a828b016136ca565b91505092959891949750929550565b600181811c90821680613f1357607f821691505b602082108103613f3357634e487b7160e01b600052602260045260246000fd5b50919050565b60208082526036908201527f235065726d697373696f6e436865636b23436865636b2063616c6c657220646f60408201527532b9903737ba103430bb32903832b936b4b9b9b4b7b760511b606082015260800190565b601f82111561097b57600081815260208120601f850160051c81016020861015613fb65750805b601f850160051c820191505b8181101561246357828155600101613fc2565b81516001600160401b03811115613fee57613fee6135e3565b61400281613ffc8454613eff565b84613f8f565b602080601f831160018114614037576000841561401f5750858301515b600019600386901b1c1916600185901b178555612463565b600085815260208120601f198616915b8281101561406657888601518255948401946001909101908401614047565b50858210156140845787850151600019600388901b60f8161c191681555b5050505050600190811b01905550565b634e487b7160e01b600052601160045260246000fd5b63ffffffff828116828216039080821115612ab057612ab0614094565b63ffffffff818116838216019080821115612ab057612ab0614094565b6000602082840312156140f657600080fd5b8151610e9681613575565b60006020828403121561411357600080fd5b8151610e9681613a4b565b60208082526031908201527f4552433732313a207472616e736665722063616c6c6572206973206e6f74206f6040820152701ddb995c881b9bdc88185c1c1c9bdd9959607a1b606082015260800190565b81810381811115610e9957610e99614094565b634e487b7160e01b600052603260045260246000fd5b6000600182016141aa576141aa614094565b5060010190565b600081518084526020808501945080840160005b838110156141e1578151875295820195908201906001016141c5565b509495945050505050565b6040815260006141ff60408301856141b1565b828103602084015261421181856141b1565b95945050505050565b80820180821115610e9957610e99614094565b60008160030b637fffffff19810361424757614247614094565b60000392915050565b683f6e616d653d30787360b81b8152600082516142748160098501602087016134f9565b9190910160090192915050565b6f266465736372697074696f6e3d30787360801b8152600082516142ac8160108501602087016134f9565b9190910160100192915050565b6926696d6167653d30787360b01b8152600082516142de81600a8501602087016134f9565b91909101600a0192915050565b600085516142fd818460208a016134f9565b855190830190614311818360208a016134f9565b85519101906143248183602089016134f9565b84519101906143378183602088016134f9565b019695505050505050565b60008261435f57634e487b7160e01b600052601260045260246000fd5b500490565b6a3932b8bab2b9ba2537b4b760a91b81526000835161438a81600b8501602088016134f9565b8351908301906143a181600b8401602088016134f9565b01600b01949350505050565b6001600160a01b03841681526060602082018190526000906143d190830185613a92565b82810360408401526143e381856141b1565b9695505050505050565b600081518084526020808501945080840160005b838110156141e15781516001600160a01b031687529582019590820190600101614401565b600081518084526020808501808196508360051b8101915082860160005b8581101561446e57828403895261445c84835161351d565b98850198935090840190600101614444565b5091979650505050505050565b6020815281516020820152600060208301516102608060408501526144a461028085018361351d565b91506040850151601f19808685030160608701526144c2848361351d565b9350606087015191506144e060808701836001600160a01b03169052565b608087015160a087015260a08701519150808685030160c087015261450584836143ed565b60c088015160e08881019190915288015161010080890191909152880151610120808901919091528801516101408089019190915288015161016080890191909152880151610180808901919091528801516101a0808901919091528801516101c0808901919091528801516101e08089019190915288015190945091506102006145938188018415159052565b87015191506102206145a88782018415159052565b87015191506102406145bd8782018415159052565b8701518685039091018387015290506143e38382614426565b8082028115828204841417610e9957610e99614094565b634e487b7160e01b600052603160045260246000fd5b6001600160a01b03858116825284166020820152604081018390526080606082018190526000906143e39083018461351d565b60008161464557614645614094565b506000190190565b6000825161465f8184602087016134f9565b9190910192915050565b60006020828403121561467b57600080fd5b8151610e96816134c656fe4552433732313a207472616e7366657220746f206e6f6e20455243373231526563656976657220696d706c656d656e7465724552433732313a206f776e657220717565727920666f72206e6f6e6578697374656e7420746f6b656e7016719027ff29c13bc4816903851ea968172a86b766c733b954fdabe53c87eea2646970667358221220d469dc3c0c652049665a30a70dde89318214213b63a117592dc873de8cc7bab564736f6c63430008110033",
  "immutableReferences": {},
  "source": "// SPDX-License-Identifier: MIT\npragma solidity 0.8.17;\n\npragma experimental ABIEncoderV2;\n\nimport './Asset.sol';\nimport './libs/StringsExp.sol';\nimport '../openzeppelin/contracts/utils/structs/EnumerableSet.sol';\nimport '../openzeppelin/contracts/utils/Strings.sol';\n\ncontract Member is IMember, ERC721_Module {\n\tusing EnumerableSet for EnumerableSet.UintSet;\n\tusing StringsExp for bytes;\n\tusing Strings for uint256;\n\tusing Strings for address;\n\n\tstruct Info0 {\n\t\tInfo                  info;\n\t\tEnumerableSet.UintSet permissions; // permissions\n\t}\n\n\tmapping(uint256=>Info0) private  _infoMap; // member info, member id => member info\n\tEnumerableSet.UintSet   private  _infoList; // member table list\n\tuint256                 private  _votes; // all vote total\n\tuint256                 internal _executor; // executor\n\tuint256[16]             private  __; // reserved storage space\n\n\tstruct MintMemberArgs {\n\t\taddress   owner;\n\t\tInfo      info;\n\t\tuint256[] permissions;\n\t}\n\n\tfunction initMember(\n\t\taddress host, string memory name, string memory description,\n\t\tstring memory baseURI, address operator, MintMemberArgs[] memory members) external\n\t{\n\t\tinitModule(host, description, operator);\n\t\tinitERC721(name, name);\n\t\t_registerInterface(Member_Type);\n\t\t_setBaseURI(baseURI);\n\n\t\tfor (uint256 i = 0; i < members.length; i++)\n\t\t\tmint(members[i].owner, members[i].info, members[i].permissions);\n\t}\n\n\tfunction mint(address owner, Info memory info, uint256[] memory permissions) private {\n\t\t_mint(owner, info.id);\n\n\t\tInfo0 storage i0   = _infoMap[info.id];\n\t\tInfo storage info_ = i0.info;\n\t\tinfo_.id           = info.id;\n\t\tinfo_.name         = info.name;\n\t\tinfo_.description  = info.description;\n\t\tinfo_.image       = info.image;\n\t\tinfo_.votes        = info.votes == 0 ? 1: info.votes; // limit votes to 1\n\n\t\t_votes += info_.votes;\n\n\t\t_infoList.add(info.id);\n\n\t\t// add permissions\n\t\tfor (uint256 i = 0; i < permissions.length; i++)\n\t\t\ti0.permissions.add(permissions[i]);\n\t}\n\n\tfunction remove(uint256 id) public {\n\t\trequire(isApprovedOrOwner(msg.sender, id) || isPermissionDAO(), \"#Member#remove No permission\");\n\t\t_burn(id);\n\t\t_votes -= _infoMap[id].info.votes;\n\t\tdelete _infoMap[id];\n\t\t_infoList.remove(id);\n\t}\n\n\tfunction create(\n\t\taddress owner, Info memory info, uint256[] memory permissions\n\t) external Check(Action_Member_Create)\n\t{\n\t\tmint(owner, info, permissions);\n\t}\n\n\tfunction createFrom(\n\t\taddress owner,       uint256 id,\n\t\tuint32 votes,        uint256[] memory permissions,\n\t\tstring memory name,  string memory description, string memory image\n\t) external Check(Action_Member_Create)\n\t{\n\t\tInfo memory info;\n\t\tinfo.id = id;\n\t\tinfo.name = name;\n\t\tinfo.votes = votes;\n\t\tinfo.image = image;\n\t\tinfo.description = description;\n\t\tmint(owner, info, permissions);\n\t}\n\n\t/**\n\t * @dev request join to DAO, create join vote proposal\n\t */\n\tfunction requestJoin(address owner, Info memory info, uint256[] memory permissions) public returns (uint256 id) {\n\t\trequire(owner != address(0), \"#Member#requestJoin mint to the zero address\");\n\t\trequire(!_exists(info.id), \"#Member#requestJoin token already minted\");\n\n\t\tuint256 salt = block.number / 5000;\n\t\tid = uint256(keccak256(abi.encodePacked(\"requestJoin\", msg.sender.toHexString(), salt.toString())));\n\n\t\taddress[] memory target = new address[](1);\n\t\tbytes[] memory data = new bytes[](1);\n\n\t\ttarget[0] = address(this);\n\t\tdata[0] = abi.encodeWithSelector(this.create.selector, owner, info, permissions);\n\n\t\tIVotePool.Proposal memory pro;\n\t\tpro.id          = id;\n\t\tpro.originId    = 0; // member id\n\t\tpro.target      = target;\n\t\tpro.lifespan    = 0;\n\t\tpro.passRate    = 5001;\n\t\tpro.loopCount   = 0;\n\t\tpro.loopTime    = 0;\n\t\tpro.name        = \"request join to DAO\";\n\t\tpro.description = info.name;\n\t\tpro.data        = data;\n\n\t\tIVotePool(_host.root()).create(pro);\n\t}\n\n\t/**\n\t * @dev Returns the token URI of member\n\t */\n\tfunction tokenURI(uint256 tokenId) view public override(ERC721,IERC721Metadata) returns (string memory uri) {\n\t\tInfo storage info = _infoMap[tokenId].info;\n\t\tbytes memory a = abi.encodePacked(\"?name=0xs\",                      bytes(info.name).toHexString());\n\t\tbytes memory b = abi.encodePacked(\"&description=0xs\",               bytes(info.description).toHexString());\n\t\tbytes memory c = abi.encodePacked(\"&image=0xs\",                     bytes(info.image).toHexString());\n\t\turi = string(abi.encodePacked(baseURI(), a, b, c));\n\t}\n\n\tfunction votes() view external override returns (uint256) {\n\t\treturn _votes;\n\t}\n\n\tfunction getMemberInfo(uint256 id) view external override returns (Info memory) {\n\t\trequire(_exists(id), \"#Member#info: info query for nonexistent member\");\n\t\treturn _infoMap[id].info;\n\t}\n\n\tfunction setMemberInfo(uint256 id, string memory name, string memory description, string memory image) public {\n\t\trequire(ownerOf(id) == _msgSender(), \"#Member#setMemberInfo: owner no match\");\n\t\tInfo storage info_ = _infoMap[id].info;\n\t\tif (bytes(name).length != 0)        info_.name        = name;\n\t\tif (bytes(description).length != 0) info_.description = description;\n\t\tif (bytes(image).length != 0)       info_.image      = image;\n\t\temit Update(id);\n\t}\n\n\tfunction setInfo(uint256 id, Info memory info) external {\n\t\tsetMemberInfo(id, info.name, info.description, info.image);\n\t}\n\n\tfunction indexAt(uint256 index) view public override returns (Info memory) {\n\t\treturn _infoMap[_infoList.at(index)].info;\n\t}\n\n\tfunction isApprovedOrOwner(address spender, uint256 id) view public returns (bool) {\n\t\treturn _havePermission(spender, id);\n\t}\n\n\tfunction total() view public override returns (uint256) {\n\t\treturn _infoList.length();\n\t}\n\n\tfunction executor() view public returns(uint256) {\n\t\treturn _executor;\n\t}\n\n\tfunction setExecutor(uint256 id) public OnlyDAO {\n\t\trequire(_exists(id), \"#Member#setExecutor: info query for nonexistent member\");\n\t\t_executor = id;\n\t\temit Change(Change_Tag_Member_Set_Executor, uint160(id));\n\t}\n\n\tfunction isPermission(address owner, uint256 action) view external override returns (bool) {\n\t\tuint256 len = balanceOf(owner);\n\t\tfor (uint256 i = 0; i < len; i++) {\n\t\t\tuint256 id = tokenOfOwnerByIndex(owner, i);\n\t\t\tif (isPermissionFrom(id, action))\n\t\t\t\treturn true;\n\t\t}\n\t\treturn false;\n\t}\n\n\tfunction isPermissionFrom(uint256 id, uint256 action) view public override returns (bool) {\n\t\treturn _infoMap[id].permissions.contains(action);\n\t}\n\n\tfunction setPermissions(uint256 id, uint256[] memory addActions, uint256[] memory removeActions) external OnlyDAO {\n\t\trequire(_exists(id), \"#Member#setPermissions: info query for nonexistent member\");\n\t\tEnumerableSet.UintSet storage permissions = _infoMap[id].permissions;\n\t\tfor (uint256 j = 0; j < addActions.length; j++)\n\t\t\tpermissions.add(addActions[j]);\n\t\tfor (uint256 j = 0; j < removeActions.length; j++)\n\t\t\tpermissions.remove(removeActions[j]);\n\t\temit SetPermissions(id, addActions, removeActions);\n\t}\n\n\tfunction addVotes(uint256 id, int32 votes) external OnlyDAO {\n\t\trequire(_exists(id), \"#Member#setVotes: info query for nonexistent member\");\n\t\tInfo storage info = _infoMap[id].info;\n\n\t\tinfo.votes += uint32(votes);\n\t\t_votes += uint32(votes);\n\n\t\tif (votes > 0)\n\t\t\temit TransferVotes(0, id, uint32(votes));\n\t\telse\n\t\t\temit TransferVotes(id, 0, uint32(-votes));\n\t}\n\n\tfunction transferVotes(uint256 from, uint256 to, uint32 votes) external OnlyDAO {\n\t\trequire(_exists(from), \"#Member#transferVotes: info query for nonexistent member from\");\n\t\trequire(_exists(to), \"#Member#transferVotes: info query for nonexistent member to\");\n\t\tInfo storage infoFrom = _infoMap[from].info;\n\t\tInfo storage infoTo = _infoMap[to].info;\n\t\trequire(infoFrom.votes >= votes, \"#Member#transferVotes: not votes power enough\");\n\n\t\tinfoFrom.votes -= uint32(votes);\n\t\tinfoTo.votes += uint32(votes);\n\n\t\temit TransferVotes(from, to, votes);\n\t}\n\n}",
  "sourcePath": "/Users/louis/Project/hc/NFTSwap/SmartHolder/contracts/Member.sol",
  "compiler": {
    "name": "solc",
    "version": "0.8.17+commit.8df45f5f.Emscripten.clang"
  },
  "schemaVersion": "3.4.11",
  "updatedAt": "2023-03-03T03:01:27.837Z",
  "devdoc": {
    "kind": "dev",
    "methods": {
      "approve(address,uint256)": {
        "details": "Approves another address to transfer the given token ID The zero address indicates there is no approved address. There can only be one approved address per token at a given time. Can only be called by the token owner or an approved operator.",
        "params": {
          "to": "address to be approved for the given token ID",
          "tokenId": "uint256 ID of the token to be approved"
        }
      },
      "balanceOf(address)": {
        "details": "Gets the balance of the specified address.",
        "params": {
          "owner": "address to query the balance of"
        },
        "returns": {
          "_0": "uint256 representing the amount owned by the passed address"
        }
      },
      "baseURI()": {
        "details": "Returns the base URI set via {_setBaseURI}. This will be automatically added as a prefix in {tokenURI} to each token's URI, or to the token ID if no specific URI is set for that token ID."
      },
      "getApproved(uint256)": {
        "details": "Gets the approved address for a token ID, or zero if no address set Reverts if the token ID does not exist.",
        "params": {
          "tokenId": "uint256 ID of the token to query the approval of"
        },
        "returns": {
          "_0": "address currently approved for the given token ID"
        }
      },
      "isApprovedForAll(address,address)": {
        "details": "Tells whether an operator is approved by a given owner.",
        "params": {
          "operator": "operator address which you want to query the approval of",
          "owner": "owner address which you want to query the approval of"
        },
        "returns": {
          "_0": "bool whether the given operator is approved by the given owner"
        }
      },
      "name()": {
        "details": "Gets the token name.",
        "returns": {
          "_0": "string representing the token name"
        }
      },
      "ownerOf(uint256)": {
        "details": "Gets the owner of the specified token ID.",
        "params": {
          "tokenId": "uint256 ID of the token to query the owner of"
        },
        "returns": {
          "_0": "address currently marked as the owner of the given token ID"
        }
      },
      "requestJoin(address,(uint256,string,string,string,uint32),uint256[])": {
        "details": "request join to DAO, create join vote proposal"
      },
      "safeTransferFrom(address,address,uint256)": {
        "details": "Safely transfers the ownership of a given token ID to another address If the target address is a contract, it must implement {IERC721Receiver-onERC721Received}, which is called upon a safe transfer, and return the magic value `bytes4(keccak256(\"onERC721Received(address,address,uint256,bytes)\"))`; otherwise, the transfer is reverted. Requires the msg.sender to be the owner, approved, or operator",
        "params": {
          "from": "current owner of the token",
          "to": "address to receive the ownership of the given token ID",
          "tokenId": "uint256 ID of the token to be transferred"
        }
      },
      "safeTransferFrom(address,address,uint256,bytes)": {
        "details": "Safely transfers the ownership of a given token ID to another address If the target address is a contract, it must implement {IERC721Receiver-onERC721Received}, which is called upon a safe transfer, and return the magic value `bytes4(keccak256(\"onERC721Received(address,address,uint256,bytes)\"))`; otherwise, the transfer is reverted. Requires the _msgSender() to be the owner, approved, or operator",
        "params": {
          "_data": "bytes data to send along with a safe transfer check",
          "from": "current owner of the token",
          "to": "address to receive the ownership of the given token ID",
          "tokenId": "uint256 ID of the token to be transferred"
        }
      },
      "setApprovalForAll(address,bool)": {
        "details": "Sets or unsets the approval of a given operator An operator is allowed to transfer all tokens of the sender on their behalf.",
        "params": {
          "approved": "representing the status of the approval to be set",
          "operator": "operator address to set the approval"
        }
      },
      "supportsInterface(bytes4)": {
        "details": "See {IERC165-supportsInterface}. Time complexity O(1), guaranteed to always use less than 30 000 gas."
      },
      "symbol()": {
        "details": "Gets the token symbol.",
        "returns": {
          "_0": "string representing the token symbol"
        }
      },
      "tokenByIndex(uint256)": {
        "details": "Gets the token ID at a given index of all the tokens in this contract Reverts if the index is greater or equal to the total number of tokens.",
        "params": {
          "index": "uint256 representing the index to be accessed of the tokens list"
        },
        "returns": {
          "_0": "uint256 token ID at the given index of the tokens list"
        }
      },
      "tokenOfOwnerByIndex(address,uint256)": {
        "details": "Gets the token ID at a given index of the tokens list of the requested owner.",
        "params": {
          "index": "uint256 representing the index to be accessed of the requested tokens list",
          "owner": "address owning the tokens list to be accessed"
        },
        "returns": {
          "_0": "uint256 token ID at the given index of the tokens list owned by the requested address"
        }
      },
      "tokenURI(uint256)": {
        "details": "Returns the token URI of member"
      },
      "totalSupply()": {
        "details": "Gets the total amount of tokens stored by the contract.",
        "returns": {
          "_0": "uint256 representing the total amount of tokens"
        }
      },
      "transferFrom(address,address,uint256)": {
        "details": "Transfers the ownership of a given token ID to another address. Usage of this method is discouraged, use {safeTransferFrom} whenever possible. Requires the msg.sender to be the owner, approved, or operator.",
        "params": {
          "from": "current owner of the token",
          "to": "address to receive the ownership of the given token ID",
          "tokenId": "uint256 ID of the token to be transferred"
        }
      }
    },
    "version": 1
  },
  "userdoc": {
    "kind": "user",
    "methods": {},
    "version": 1
  }
}