{
  "contractName": "Member",
  "abi": [
    {
      "inputs": [],
      "name": "AddressEmpty",
      "type": "error"
    },
    {
      "inputs": [],
      "name": "ApprovalToOwnerInERC721",
      "type": "error"
    },
    {
      "inputs": [],
      "name": "ApproveAllToCallerInERC721",
      "type": "error"
    },
    {
      "inputs": [
        {
          "internalType": "bytes4",
          "name": "interfaceId",
          "type": "bytes4"
        }
      ],
      "name": "CheckInterfaceNoMatch",
      "type": "error"
    },
    {
      "inputs": [],
      "name": "InsufficientVotesInMember",
      "type": "error"
    },
    {
      "inputs": [],
      "name": "MemberAlreadyExists",
      "type": "error"
    },
    {
      "inputs": [],
      "name": "MemberNonExists",
      "type": "error"
    },
    {
      "inputs": [],
      "name": "MemberRequestJoinAlreadyExists",
      "type": "error"
    },
    {
      "inputs": [],
      "name": "NonERC721ReceiverImplementer",
      "type": "error"
    },
    {
      "inputs": [],
      "name": "PermissionDenied",
      "type": "error"
    },
    {
      "inputs": [],
      "name": "PermissionDeniedForOnlyDAO",
      "type": "error"
    },
    {
      "inputs": [],
      "name": "PermissionDeniedInERC721",
      "type": "error"
    },
    {
      "inputs": [],
      "name": "TokenIDAlreadyMintedInERC721",
      "type": "error"
    },
    {
      "inputs": [],
      "name": "TokenIDNonExistentInERC721",
      "type": "error"
    },
    {
      "inputs": [],
      "name": "TransferOfTokenIDThatIsNotOwnInERC721",
      "type": "error"
    },
    {
      "anonymous": false,
      "inputs": [
        {
          "indexed": false,
          "internalType": "uint256[]",
          "name": "ids",
          "type": "uint256[]"
        },
        {
          "indexed": false,
          "internalType": "uint256[]",
          "name": "actions",
          "type": "uint256[]"
        }
      ],
      "name": "AddPermissions",
      "type": "event"
    },
    {
      "anonymous": false,
      "inputs": [
        {
          "indexed": true,
          "internalType": "address",
          "name": "owner",
          "type": "address"
        },
        {
          "indexed": true,
          "internalType": "address",
          "name": "approved",
          "type": "address"
        },
        {
          "indexed": true,
          "internalType": "uint256",
          "name": "tokenId",
          "type": "uint256"
        }
      ],
      "name": "Approval",
      "type": "event"
    },
    {
      "anonymous": false,
      "inputs": [
        {
          "indexed": true,
          "internalType": "address",
          "name": "owner",
          "type": "address"
        },
        {
          "indexed": true,
          "internalType": "address",
          "name": "operator",
          "type": "address"
        },
        {
          "indexed": false,
          "internalType": "bool",
          "name": "approved",
          "type": "bool"
        }
      ],
      "name": "ApprovalForAll",
      "type": "event"
    },
    {
      "anonymous": false,
      "inputs": [
        {
          "indexed": true,
          "internalType": "uint256",
          "name": "tag",
          "type": "uint256"
        },
        {
          "indexed": false,
          "internalType": "uint256",
          "name": "value",
          "type": "uint256"
        }
      ],
      "name": "Change",
      "type": "event"
    },
    {
      "anonymous": false,
      "inputs": [
        {
          "indexed": false,
          "internalType": "uint8",
          "name": "version",
          "type": "uint8"
        }
      ],
      "name": "Initialized",
      "type": "event"
    },
    {
      "anonymous": false,
      "inputs": [
        {
          "indexed": false,
          "internalType": "uint256[]",
          "name": "ids",
          "type": "uint256[]"
        },
        {
          "indexed": false,
          "internalType": "uint256[]",
          "name": "actions",
          "type": "uint256[]"
        }
      ],
      "name": "RemovePermissions",
      "type": "event"
    },
    {
      "anonymous": false,
      "inputs": [
        {
          "indexed": true,
          "internalType": "uint256",
          "name": "id",
          "type": "uint256"
        },
        {
          "indexed": false,
          "internalType": "uint256[]",
          "name": "addActions",
          "type": "uint256[]"
        },
        {
          "indexed": false,
          "internalType": "uint256[]",
          "name": "removeActions",
          "type": "uint256[]"
        }
      ],
      "name": "SetPermissions",
      "type": "event"
    },
    {
      "anonymous": false,
      "inputs": [
        {
          "indexed": true,
          "internalType": "address",
          "name": "from",
          "type": "address"
        },
        {
          "indexed": true,
          "internalType": "address",
          "name": "to",
          "type": "address"
        },
        {
          "indexed": true,
          "internalType": "uint256",
          "name": "tokenId",
          "type": "uint256"
        }
      ],
      "name": "Transfer",
      "type": "event"
    },
    {
      "anonymous": false,
      "inputs": [
        {
          "indexed": true,
          "internalType": "uint256",
          "name": "from",
          "type": "uint256"
        },
        {
          "indexed": true,
          "internalType": "uint256",
          "name": "to",
          "type": "uint256"
        },
        {
          "indexed": false,
          "internalType": "uint32",
          "name": "votes",
          "type": "uint32"
        }
      ],
      "name": "TransferVotes",
      "type": "event"
    },
    {
      "anonymous": false,
      "inputs": [
        {
          "indexed": true,
          "internalType": "uint256",
          "name": "id",
          "type": "uint256"
        }
      ],
      "name": "Update",
      "type": "event"
    },
    {
      "inputs": [
        {
          "internalType": "address",
          "name": "to",
          "type": "address"
        },
        {
          "internalType": "uint256",
          "name": "tokenId",
          "type": "uint256"
        }
      ],
      "name": "approve",
      "outputs": [],
      "stateMutability": "nonpayable",
      "type": "function"
    },
    {
      "inputs": [
        {
          "internalType": "address",
          "name": "owner",
          "type": "address"
        }
      ],
      "name": "balanceOf",
      "outputs": [
        {
          "internalType": "uint256",
          "name": "",
          "type": "uint256"
        }
      ],
      "stateMutability": "view",
      "type": "function"
    },
    {
      "inputs": [],
      "name": "baseURI",
      "outputs": [
        {
          "internalType": "string",
          "name": "",
          "type": "string"
        }
      ],
      "stateMutability": "view",
      "type": "function"
    },
    {
      "inputs": [
        {
          "internalType": "bytes4",
          "name": "interfaceId",
          "type": "bytes4"
        }
      ],
      "name": "checkInterface",
      "outputs": [],
      "stateMutability": "view",
      "type": "function"
    },
    {
      "inputs": [],
      "name": "description",
      "outputs": [
        {
          "internalType": "string",
          "name": "",
          "type": "string"
        }
      ],
      "stateMutability": "view",
      "type": "function"
    },
    {
      "inputs": [
        {
          "internalType": "uint256",
          "name": "id",
          "type": "uint256"
        }
      ],
      "name": "exists",
      "outputs": [
        {
          "internalType": "bool",
          "name": "",
          "type": "bool"
        }
      ],
      "stateMutability": "view",
      "type": "function"
    },
    {
      "inputs": [
        {
          "internalType": "uint256",
          "name": "tokenId",
          "type": "uint256"
        }
      ],
      "name": "getApproved",
      "outputs": [
        {
          "internalType": "address",
          "name": "",
          "type": "address"
        }
      ],
      "stateMutability": "view",
      "type": "function"
    },
    {
      "inputs": [],
      "name": "host",
      "outputs": [
        {
          "internalType": "contract IDAO",
          "name": "",
          "type": "address"
        }
      ],
      "stateMutability": "view",
      "type": "function"
    },
    {
      "inputs": [],
      "name": "impl",
      "outputs": [
        {
          "internalType": "address",
          "name": "",
          "type": "address"
        }
      ],
      "stateMutability": "view",
      "type": "function"
    },
    {
      "inputs": [
        {
          "internalType": "address",
          "name": "owner",
          "type": "address"
        },
        {
          "internalType": "address",
          "name": "operator",
          "type": "address"
        }
      ],
      "name": "isApprovedForAll",
      "outputs": [
        {
          "internalType": "bool",
          "name": "",
          "type": "bool"
        }
      ],
      "stateMutability": "view",
      "type": "function"
    },
    {
      "inputs": [],
      "name": "name",
      "outputs": [
        {
          "internalType": "string",
          "name": "",
          "type": "string"
        }
      ],
      "stateMutability": "view",
      "type": "function"
    },
    {
      "inputs": [],
      "name": "operator",
      "outputs": [
        {
          "internalType": "address",
          "name": "",
          "type": "address"
        }
      ],
      "stateMutability": "view",
      "type": "function"
    },
    {
      "inputs": [
        {
          "internalType": "uint256",
          "name": "tokenId",
          "type": "uint256"
        }
      ],
      "name": "ownerOf",
      "outputs": [
        {
          "internalType": "address",
          "name": "owner",
          "type": "address"
        }
      ],
      "stateMutability": "view",
      "type": "function"
    },
    {
      "inputs": [
        {
          "internalType": "address",
          "name": "from",
          "type": "address"
        },
        {
          "internalType": "address",
          "name": "to",
          "type": "address"
        },
        {
          "internalType": "uint256",
          "name": "tokenId",
          "type": "uint256"
        }
      ],
      "name": "safeTransferFrom",
      "outputs": [],
      "stateMutability": "nonpayable",
      "type": "function"
    },
    {
      "inputs": [
        {
          "internalType": "address",
          "name": "from",
          "type": "address"
        },
        {
          "internalType": "address",
          "name": "to",
          "type": "address"
        },
        {
          "internalType": "uint256",
          "name": "tokenId",
          "type": "uint256"
        },
        {
          "internalType": "bytes",
          "name": "_data",
          "type": "bytes"
        }
      ],
      "name": "safeTransferFrom",
      "outputs": [],
      "stateMutability": "nonpayable",
      "type": "function"
    },
    {
      "inputs": [
        {
          "internalType": "address",
          "name": "operator",
          "type": "address"
        },
        {
          "internalType": "bool",
          "name": "approved",
          "type": "bool"
        }
      ],
      "name": "setApprovalForAll",
      "outputs": [],
      "stateMutability": "nonpayable",
      "type": "function"
    },
    {
      "inputs": [
        {
          "internalType": "string",
          "name": "value",
          "type": "string"
        }
      ],
      "name": "setDescription",
      "outputs": [],
      "stateMutability": "nonpayable",
      "type": "function"
    },
    {
      "inputs": [
        {
          "internalType": "address",
          "name": "operator_",
          "type": "address"
        }
      ],
      "name": "setOperator",
      "outputs": [],
      "stateMutability": "nonpayable",
      "type": "function"
    },
    {
      "inputs": [
        {
          "internalType": "bytes4",
          "name": "interfaceId",
          "type": "bytes4"
        }
      ],
      "name": "supportsInterface",
      "outputs": [
        {
          "internalType": "bool",
          "name": "",
          "type": "bool"
        }
      ],
      "stateMutability": "view",
      "type": "function"
    },
    {
      "inputs": [],
      "name": "symbol",
      "outputs": [
        {
          "internalType": "string",
          "name": "",
          "type": "string"
        }
      ],
      "stateMutability": "view",
      "type": "function"
    },
    {
      "inputs": [
        {
          "internalType": "uint256",
          "name": "index",
          "type": "uint256"
        }
      ],
      "name": "tokenByIndex",
      "outputs": [
        {
          "internalType": "uint256",
          "name": "",
          "type": "uint256"
        }
      ],
      "stateMutability": "view",
      "type": "function"
    },
    {
      "inputs": [
        {
          "internalType": "address",
          "name": "owner",
          "type": "address"
        },
        {
          "internalType": "uint256",
          "name": "index",
          "type": "uint256"
        }
      ],
      "name": "tokenOfOwnerByIndex",
      "outputs": [
        {
          "internalType": "uint256",
          "name": "",
          "type": "uint256"
        }
      ],
      "stateMutability": "view",
      "type": "function"
    },
    {
      "inputs": [],
      "name": "totalSupply",
      "outputs": [
        {
          "internalType": "uint256",
          "name": "",
          "type": "uint256"
        }
      ],
      "stateMutability": "view",
      "type": "function"
    },
    {
      "inputs": [
        {
          "internalType": "address",
          "name": "from",
          "type": "address"
        },
        {
          "internalType": "address",
          "name": "to",
          "type": "address"
        },
        {
          "internalType": "uint256",
          "name": "tokenId",
          "type": "uint256"
        }
      ],
      "name": "transferFrom",
      "outputs": [],
      "stateMutability": "nonpayable",
      "type": "function"
    },
    {
      "inputs": [
        {
          "internalType": "address",
          "name": "impl_",
          "type": "address"
        }
      ],
      "name": "upgrade",
      "outputs": [],
      "stateMutability": "nonpayable",
      "type": "function"
    },
    {
      "inputs": [],
      "name": "contractURI",
      "outputs": [
        {
          "internalType": "string",
          "name": "uri",
          "type": "string"
        }
      ],
      "stateMutability": "view",
      "type": "function"
    },
    {
      "inputs": [
        {
          "internalType": "address",
          "name": "host",
          "type": "address"
        },
        {
          "internalType": "string",
          "name": "name",
          "type": "string"
        },
        {
          "internalType": "string",
          "name": "description",
          "type": "string"
        },
        {
          "internalType": "string",
          "name": "baseURI",
          "type": "string"
        },
        {
          "internalType": "address",
          "name": "operator",
          "type": "address"
        },
        {
          "components": [
            {
              "internalType": "address",
              "name": "owner",
              "type": "address"
            },
            {
              "components": [
                {
                  "internalType": "uint256",
                  "name": "id",
                  "type": "uint256"
                },
                {
                  "internalType": "string",
                  "name": "name",
                  "type": "string"
                },
                {
                  "internalType": "string",
                  "name": "description",
                  "type": "string"
                },
                {
                  "internalType": "string",
                  "name": "image",
                  "type": "string"
                },
                {
                  "internalType": "uint32",
                  "name": "votes",
                  "type": "uint32"
                }
              ],
              "internalType": "struct IMember.Info",
              "name": "info",
              "type": "tuple"
            },
            {
              "internalType": "uint256[]",
              "name": "permissions",
              "type": "uint256[]"
            }
          ],
          "internalType": "struct Member.MintMemberArgs[]",
          "name": "members",
          "type": "tuple[]"
        }
      ],
      "name": "initMember",
      "outputs": [],
      "stateMutability": "nonpayable",
      "type": "function"
    },
    {
      "inputs": [
        {
          "internalType": "uint256",
          "name": "id",
          "type": "uint256"
        }
      ],
      "name": "remove",
      "outputs": [],
      "stateMutability": "nonpayable",
      "type": "function"
    },
    {
      "inputs": [
        {
          "internalType": "address",
          "name": "owner",
          "type": "address"
        },
        {
          "components": [
            {
              "internalType": "uint256",
              "name": "id",
              "type": "uint256"
            },
            {
              "internalType": "string",
              "name": "name",
              "type": "string"
            },
            {
              "internalType": "string",
              "name": "description",
              "type": "string"
            },
            {
              "internalType": "string",
              "name": "image",
              "type": "string"
            },
            {
              "internalType": "uint32",
              "name": "votes",
              "type": "uint32"
            }
          ],
          "internalType": "struct IMember.Info",
          "name": "info",
          "type": "tuple"
        },
        {
          "internalType": "uint256[]",
          "name": "permissions",
          "type": "uint256[]"
        }
      ],
      "name": "create",
      "outputs": [],
      "stateMutability": "nonpayable",
      "type": "function"
    },
    {
      "inputs": [
        {
          "internalType": "address",
          "name": "owner",
          "type": "address"
        },
        {
          "internalType": "uint256",
          "name": "id",
          "type": "uint256"
        },
        {
          "internalType": "uint32",
          "name": "votes_",
          "type": "uint32"
        },
        {
          "internalType": "uint256[]",
          "name": "permissions",
          "type": "uint256[]"
        },
        {
          "internalType": "string",
          "name": "name",
          "type": "string"
        },
        {
          "internalType": "string",
          "name": "description",
          "type": "string"
        },
        {
          "internalType": "string",
          "name": "image",
          "type": "string"
        }
      ],
      "name": "createFrom",
      "outputs": [],
      "stateMutability": "nonpayable",
      "type": "function"
    },
    {
      "inputs": [
        {
          "internalType": "address",
          "name": "owner",
          "type": "address"
        },
        {
          "components": [
            {
              "internalType": "uint256",
              "name": "id",
              "type": "uint256"
            },
            {
              "internalType": "string",
              "name": "name",
              "type": "string"
            },
            {
              "internalType": "string",
              "name": "description",
              "type": "string"
            },
            {
              "internalType": "string",
              "name": "image",
              "type": "string"
            },
            {
              "internalType": "uint32",
              "name": "votes",
              "type": "uint32"
            }
          ],
          "internalType": "struct IMember.Info",
          "name": "info",
          "type": "tuple"
        },
        {
          "internalType": "uint256[]",
          "name": "permissions",
          "type": "uint256[]"
        }
      ],
      "name": "requestJoin",
      "outputs": [
        {
          "internalType": "uint256",
          "name": "id",
          "type": "uint256"
        }
      ],
      "stateMutability": "nonpayable",
      "type": "function"
    },
    {
      "inputs": [
        {
          "internalType": "uint256",
          "name": "tokenId",
          "type": "uint256"
        }
      ],
      "name": "tokenURI",
      "outputs": [
        {
          "internalType": "string",
          "name": "uri",
          "type": "string"
        }
      ],
      "stateMutability": "view",
      "type": "function"
    },
    {
      "inputs": [],
      "name": "votes",
      "outputs": [
        {
          "internalType": "uint256",
          "name": "",
          "type": "uint256"
        }
      ],
      "stateMutability": "view",
      "type": "function"
    },
    {
      "inputs": [
        {
          "internalType": "uint256",
          "name": "id",
          "type": "uint256"
        }
      ],
      "name": "getMemberInfo",
      "outputs": [
        {
          "components": [
            {
              "internalType": "uint256",
              "name": "id",
              "type": "uint256"
            },
            {
              "internalType": "string",
              "name": "name",
              "type": "string"
            },
            {
              "internalType": "string",
              "name": "description",
              "type": "string"
            },
            {
              "internalType": "string",
              "name": "image",
              "type": "string"
            },
            {
              "internalType": "uint32",
              "name": "votes",
              "type": "uint32"
            }
          ],
          "internalType": "struct IMember.Info",
          "name": "",
          "type": "tuple"
        }
      ],
      "stateMutability": "view",
      "type": "function"
    },
    {
      "inputs": [
        {
          "internalType": "uint256",
          "name": "id",
          "type": "uint256"
        },
        {
          "internalType": "string",
          "name": "name",
          "type": "string"
        },
        {
          "internalType": "string",
          "name": "description",
          "type": "string"
        },
        {
          "internalType": "string",
          "name": "image",
          "type": "string"
        }
      ],
      "name": "setMemberInfo",
      "outputs": [],
      "stateMutability": "nonpayable",
      "type": "function"
    },
    {
      "inputs": [
        {
          "internalType": "uint256",
          "name": "id",
          "type": "uint256"
        },
        {
          "components": [
            {
              "internalType": "uint256",
              "name": "id",
              "type": "uint256"
            },
            {
              "internalType": "string",
              "name": "name",
              "type": "string"
            },
            {
              "internalType": "string",
              "name": "description",
              "type": "string"
            },
            {
              "internalType": "string",
              "name": "image",
              "type": "string"
            },
            {
              "internalType": "uint32",
              "name": "votes",
              "type": "uint32"
            }
          ],
          "internalType": "struct IMember.Info",
          "name": "info",
          "type": "tuple"
        }
      ],
      "name": "setInfo",
      "outputs": [],
      "stateMutability": "nonpayable",
      "type": "function"
    },
    {
      "inputs": [
        {
          "internalType": "uint256",
          "name": "index",
          "type": "uint256"
        }
      ],
      "name": "indexAt",
      "outputs": [
        {
          "components": [
            {
              "internalType": "uint256",
              "name": "id",
              "type": "uint256"
            },
            {
              "internalType": "string",
              "name": "name",
              "type": "string"
            },
            {
              "internalType": "string",
              "name": "description",
              "type": "string"
            },
            {
              "internalType": "string",
              "name": "image",
              "type": "string"
            },
            {
              "internalType": "uint32",
              "name": "votes",
              "type": "uint32"
            }
          ],
          "internalType": "struct IMember.Info",
          "name": "",
          "type": "tuple"
        }
      ],
      "stateMutability": "view",
      "type": "function"
    },
    {
      "inputs": [
        {
          "internalType": "address",
          "name": "spender",
          "type": "address"
        },
        {
          "internalType": "uint256",
          "name": "id",
          "type": "uint256"
        }
      ],
      "name": "isApprovedOrOwner",
      "outputs": [
        {
          "internalType": "bool",
          "name": "",
          "type": "bool"
        }
      ],
      "stateMutability": "view",
      "type": "function"
    },
    {
      "inputs": [],
      "name": "total",
      "outputs": [
        {
          "internalType": "uint256",
          "name": "",
          "type": "uint256"
        }
      ],
      "stateMutability": "view",
      "type": "function"
    },
    {
      "inputs": [],
      "name": "executor",
      "outputs": [
        {
          "internalType": "uint256",
          "name": "",
          "type": "uint256"
        }
      ],
      "stateMutability": "view",
      "type": "function"
    },
    {
      "inputs": [
        {
          "internalType": "uint256",
          "name": "id",
          "type": "uint256"
        }
      ],
      "name": "setExecutor",
      "outputs": [],
      "stateMutability": "nonpayable",
      "type": "function"
    },
    {
      "inputs": [
        {
          "internalType": "address",
          "name": "owner",
          "type": "address"
        },
        {
          "internalType": "uint256",
          "name": "action",
          "type": "uint256"
        }
      ],
      "name": "isPermission",
      "outputs": [
        {
          "internalType": "bool",
          "name": "",
          "type": "bool"
        }
      ],
      "stateMutability": "view",
      "type": "function"
    },
    {
      "inputs": [
        {
          "internalType": "uint256",
          "name": "id",
          "type": "uint256"
        },
        {
          "internalType": "uint256",
          "name": "action",
          "type": "uint256"
        }
      ],
      "name": "isPermissionFrom",
      "outputs": [
        {
          "internalType": "bool",
          "name": "",
          "type": "bool"
        }
      ],
      "stateMutability": "view",
      "type": "function"
    },
    {
      "inputs": [
        {
          "internalType": "uint256",
          "name": "id",
          "type": "uint256"
        },
        {
          "internalType": "uint256[]",
          "name": "addActions",
          "type": "uint256[]"
        },
        {
          "internalType": "uint256[]",
          "name": "removeActions",
          "type": "uint256[]"
        }
      ],
      "name": "setPermissions",
      "outputs": [],
      "stateMutability": "nonpayable",
      "type": "function"
    },
    {
      "inputs": [
        {
          "internalType": "uint256",
          "name": "id",
          "type": "uint256"
        },
        {
          "internalType": "int32",
          "name": "votes",
          "type": "int32"
        }
      ],
      "name": "addVotes",
      "outputs": [],
      "stateMutability": "nonpayable",
      "type": "function"
    },
    {
      "inputs": [
        {
          "internalType": "uint256[]",
          "name": "ids",
          "type": "uint256[]"
        },
        {
          "internalType": "int32[]",
          "name": "votes",
          "type": "int32[]"
        }
      ],
      "name": "addVotesOfBatch",
      "outputs": [],
      "stateMutability": "nonpayable",
      "type": "function"
    },
    {
      "inputs": [
        {
          "internalType": "uint256",
          "name": "from",
          "type": "uint256"
        },
        {
          "internalType": "uint256",
          "name": "to",
          "type": "uint256"
        },
        {
          "internalType": "uint32",
          "name": "votes",
          "type": "uint32"
        }
      ],
      "name": "transferVotes",
      "outputs": [],
      "stateMutability": "nonpayable",
      "type": "function"
    }
  ],
  "bytecode": "0x608060405234801561001057600080fd5b5061433b806100206000396000f3fe608060405234801561001057600080fd5b50600436106102955760003560e01c80636c0360eb11610167578063ae99aa3c116100ce578063df267f6b11610087578063df267f6b146105db578063e168c3ec146105ee578063e8a3d485146105f6578063e985e9c5146105fe578063f0bf2aa71461063a578063f437bc591461064d57600080fd5b8063ae99aa3c14610574578063b3ab15fb14610587578063b641ee421461059a578063b88d4fde146105ad578063c34c08e5146105c0578063c87b56dd146105c857600080fd5b806395d89b411161012057806395d89b4114610500578063a22cb46514610508578063a42bbccd1461051b578063a5fa37051461053b578063a8a555c51461054e578063aba617911461056157600080fd5b80636c0360eb146104a657806370a08231146104ae5780637284e416146104c15780638abf6077146104c95780639097b44a146104da57806390c3f38f146104ed57600080fd5b80632ddbd13a1161020b5780634f558e79116101c45780634f558e79146104365780634f6ccce714610449578063570ca7351461045c5780635a93b4d61461046d5780635e7dc20b146104805780636352211e1461049357600080fd5b80632ddbd13a146103cf5780632f745c59146103d757806342842e0e146103ea578063430c2081146103fd5780634c6e425b146104105780634cc822151461042357600080fd5b8063095ea7b31161025d578063095ea7b31461035a57806313c514101461036d57806318160ddd1461038057806319110b3b146103965780631fc599e5146103a957806323b872dd146103bc57600080fd5b806301ffc9a71461029a57806306fdde03146102dc57806307dc4526146102f1578063081812fc146103065780630900f01014610347575b600080fd5b6102c76102a83660046130da565b6001600160e01b03191660009081526001602052604090205460ff1690565b60405190151581526020015b60405180910390f35b6102e461065e565b6040516102d39190613147565b6103046102ff36600461315a565b6106f0565b005b61032f61031436600461315a565b6000908152601160205260409020546001600160a01b031690565b6040516001600160a01b0390911681526020016102d3565b610304610355366004613198565b610754565b6103046103683660046131b5565b6107b8565b61030461037b3660046132f6565b610844565b6103886108fa565b6040519081526020016102d3565b6103046103a436600461339b565b61090b565b6103046103b7366004613507565b610a4c565b6103046103ca36600461357c565b610b73565b610388610bc9565b6103886103e53660046131b5565b610bd5565b6103046103f836600461357c565b610c00565b6102c761040b3660046131b5565b610c1b565b61030461041e3660046130da565b610c27565b61030461043136600461315a565b610c75565b6102c761044436600461315a565b610d65565b61038861045736600461315a565b610d70565b6003546001600160a01b031661032f565b61030461047b3660046135bd565b610d86565b6102c761048e3660046135fc565b610e9c565b61032f6104a136600461315a565b610eb7565b6102e4610eed565b6103886104bc366004613198565b610efc565b6102e4610f1d565b6000546001600160a01b031661032f565b6103046104e8366004613662565b610f2c565b6103046104fb3660046136cd565b610f93565b6102e46110e4565b61030461051636600461370f565b6110f3565b61052e61052936600461315a565b611188565b6040516102d391906137b7565b6103046105493660046137ca565b611393565b6102c761055c3660046131b5565b6113ab565b61030461056f366004613822565b61140b565b61052e61058236600461315a565b611530565b610304610595366004613198565b611574565b6103046105a836600461393f565b6115d8565b6103046105bb366004613a0b565b61168f565b601b54610388565b6102e46105d636600461315a565b6116c2565b6103886105e9366004613507565b61182d565b601a54610388565b6102e4611c93565b6102c761060c366004613a7e565b6001600160a01b03918216600090815260126020908152604080832093909416825291909152205460ff1690565b610304610648366004613aac565b611d66565b6002546001600160a01b031661032f565b60606013805461066d90613b83565b80601f016020809104026020016040519081016040528092919081815260200182805461069990613b83565b80156106e65780601f106106bb576101008083540402835291602001916106e6565b820191906000526020600020905b8154815290600101906020018083116106c957829003601f168201915b5050505050905090565b6106f8611ebe565b61071557604051631b4004a360e31b815260040160405180910390fd5b61071e81611ffd565b601b8190556040516001600160a01b03821681526008906000805160206142e6833981519152906020015b60405180910390a250565b61075c611ebe565b61077957604051631b4004a360e31b815260040160405180910390fd5b600080546001600160a01b0319166001600160a01b0383169081179091556040519081526003906000805160206142e683398151915290602001610749565b60006107c382610eb7565b9050806001600160a01b0316836001600160a01b0316036107f7576040516365f090f760e01b815260040160405180910390fd5b336001600160a01b038216148015906108175750610815813361060c565b155b156108355760405163d3a3274560e01b815260040160405180910390fd5b61083f8383612023565b505050565b3361084e85610eb7565b6001600160a01b03161461087557604051630782484160e21b815260040160405180910390fd5b600084815260176020526040902083511561089a57600181016108988582613bfd565b505b8251156108b157600281016108af8482613bfd565b505b8151156108c857600381016108c68382613bfd565b505b60405185907f164f7b2ab803097dab5e39f06d2e4f3c3ddc5d4171abbdcc3e76443b8359c7f590600090a25050505050565b6000610906600e612091565b905090565b610913611ebe565b61093057604051631b4004a360e31b815260040160405180910390fd5b61093983611ffd565b61094282611ffd565b6000838152601760205260408082208483529120600482015463ffffffff8085169116101561098457604051631297a51960e11b815260040160405180910390fd5b6004820180548491906000906109a190849063ffffffff16613cd2565b92506101000a81548163ffffffff021916908363ffffffff160217905550828160040160008282829054906101000a900463ffffffff166109e29190613cef565b92506101000a81548163ffffffff021916908363ffffffff16021790555083857f9954d88d42b9655d95479ca03a829c7718c1f2154aa6181772ffdbdcd7db0dd685604051610a3d919063ffffffff91909116815260200190565b60405180910390a35050505050565b6322a25870610a59611ebe565b610b6257600260009054906101000a90046001600160a01b03166001600160a01b031663e3f6b5446040518163ffffffff1660e01b8152600401602060405180830381865afa158015610ab0573d6000803e3d6000fd5b505050506040513d601f19601f82011682018060405250810190610ad49190613d0c565b60405163a8a555c560e01b8152336004820152602481018390526001600160a01b03919091169063a8a555c590604401602060405180830381865afa158015610b21573d6000803e3d6000fd5b505050506040513d601f19601f82011682018060405250810190610b459190613d29565b610b6257604051630782484160e21b815260040160405180910390fd5b610b6d84848461209c565b50505050565b610b7d33826121b5565b610b9a5760405163d3a3274560e01b815260040160405180910390fd5b610bb58383836040518060200160405280600081525061225b565b604080516020810190915260009052505050565b60006109066018612361565b6001600160a01b0382166000908152600d60205260408120610bf7908361236b565b90505b92915050565b61083f8383836040518060200160405280600081525061168f565b6000610bf783836121b5565b6001600160e01b0319811660009081526001602052604090205460ff16610c7257604051632aae78ef60e01b81526001600160e01b0319821660048201526024015b60405180910390fd5b50565b610c7f3382610c1b565b158015610c915750610c8f611ebe565b155b15610caf57604051630782484160e21b815260040160405180910390fd5b610cb881612377565b600081815260176020526040812060040154601a805463ffffffff909216929091610ce4908490613d46565b90915550506000818152601760205260408120818155908181610d0a600183018261301e565b610d1860028301600061301e565b610d2660038301600061301e565b50600401805463ffffffff191690556005820160008181610d478282613058565b505050505050610d6181601861244090919063ffffffff16565b5050565b6000610bfa8261244c565b600080610d7e600e84612459565b509392505050565b610d8e611ebe565b610dab57604051631b4004a360e31b815260040160405180910390fd5b610db483611ffd565b6000838152601760205260408120600501905b8351811015610e0f57610dfc848281518110610de557610de5613d59565b60200260200101518361247790919063ffffffff16565b5080610e0781613d6f565b915050610dc7565b5060005b8251811015610e5b57610e48838281518110610e3157610e31613d59565b60200260200101518361244090919063ffffffff16565b5080610e5381613d6f565b915050610e13565b50837fee0225f6c1d2854b8b02e112f397db222521f304566aca2f42b09c80e86f47bc8484604051610e8e929190613dc3565b60405180910390a250505050565b6000828152601760205260408120610bf79060050183612483565b600080610ec5600e8461249b565b9250905080610ee757604051635449cd4560e01b815260040160405180910390fd5b50919050565b60606016805461066d90613b83565b6001600160a01b0381166000908152600d60205260408120610bfa90612361565b60606004805461066d90613b83565b60005b83811015610f8c57610f7a858583818110610f4c57610f4c613d59565b90506020020135848484818110610f6557610f65613d59565b905060200201602081019061056f9190613df1565b80610f8481613d6f565b915050610f2f565b5050505050565b63d0a4ad96610fa0611ebe565b6110a957600260009054906101000a90046001600160a01b03166001600160a01b031663e3f6b5446040518163ffffffff1660e01b8152600401602060405180830381865afa158015610ff7573d6000803e3d6000fd5b505050506040513d601f19601f8201168201806040525081019061101b9190613d0c565b60405163a8a555c560e01b8152336004820152602481018390526001600160a01b03919091169063a8a555c590604401602060405180830381865afa158015611068573d6000803e3d6000fd5b505050506040513d601f19601f8201168201806040525081019061108c9190613d29565b6110a957604051630782484160e21b815260040160405180910390fd5b60046110b58382613bfd565b5060016000805160206142e683398151915260006040516110d891815260200190565b60405180910390a25050565b60606014805461066d90613b83565b336001600160a01b0383160361111c5760405163064256a360e21b815260040160405180910390fd5b3360008181526012602090815260408083206001600160a01b03871680855290835292819020805460ff191686151590811790915590519081529192917f17307eab39ab6107e8899845ad3d59bd9653f200f220920489ca2b5937696c31910160405180910390a35050565b611190613076565b6017600061119f60188561236b565b81526020019081526020016000206000016040518060a0016040529081600082015481526020016001820180546111d590613b83565b80601f016020809104026020016040519081016040528092919081815260200182805461120190613b83565b801561124e5780601f106112235761010080835404028352916020019161124e565b820191906000526020600020905b81548152906001019060200180831161123157829003601f168201915b5050505050815260200160028201805461126790613b83565b80601f016020809104026020016040519081016040528092919081815260200182805461129390613b83565b80156112e05780601f106112b5576101008083540402835291602001916112e0565b820191906000526020600020905b8154815290600101906020018083116112c357829003601f168201915b505050505081526020016003820180546112f990613b83565b80601f016020809104026020016040519081016040528092919081815260200182805461132590613b83565b80156113725780601f1061134757610100808354040283529160200191611372565b820191906000526020600020905b81548152906001019060200180831161135557829003601f168201915b50505091835250506004919091015463ffffffff1660209091015292915050565b610d6182826020015183604001518460600151610844565b6000806113b784610efc565b905060005b818110156114005760006113d08683610bd5565b90506113dc8186610e9c565b156113ed5760019350505050610bfa565b50806113f881613d6f565b9150506113bc565b506000949350505050565b611413611ebe565b61143057604051631b4004a360e31b815260040160405180910390fd5b61143982611ffd565b60008281526017602052604081206004810180549192849261146290849063ffffffff16613cef565b92506101000a81548163ffffffff021916908363ffffffff1602179055508163ffffffff16601a60008282546114989190613e0c565b90915550506000600383900b13156114ee5760405163ffffffff8316815283906000907f9954d88d42b9655d95479ca03a829c7718c1f2154aa6181772ffdbdcd7db0dd6906020015b60405180910390a3505050565b6000837f9954d88d42b9655d95479ca03a829c7718c1f2154aa6181772ffdbdcd7db0dd661151b85613e1f565b60405163ffffffff90911681526020016114e1565b611538613076565b61154182611ffd565b600082815260176020908152604091829020825160a081019093528054835260018101805491928401916111d590613b83565b61157c611ebe565b61159957604051631b4004a360e31b815260040160405180910390fd5b600380546001600160a01b0319166001600160a01b0383169081179091556040519081526002906000805160206142e683398151915290602001610749565b6115e38685846124aa565b6115ed858661250e565b6115fd6323fc76b960e01b612558565b611606836125da565b60005b81518110156116865761167482828151811061162757611627613d59565b60200260200101516000015183838151811061164557611645613d59565b60200260200101516020015184848151811061166357611663613d59565b60200260200101516040015161209c565b8061167e81613d6f565b915050611609565b50505050505050565b61169933836121b5565b6116b65760405163d3a3274560e01b815260040160405180910390fd5b610b6d848484846125e6565b60008181526017602052604081206001810180546060939161176a916116e790613b83565b80601f016020809104026020016040519081016040528092919081815260200182805461171390613b83565b80156117605780601f1061173557610100808354040283529160200191611760565b820191906000526020600020905b81548152906001019060200180831161174357829003601f168201915b5050505050612603565b60405160200161177a9190613e42565b6040516020818303038152906040529050600061179f8360020180546116e790613b83565b6040516020016117af9190613e73565b604051602081830303815290604052905060006117d48460030180546116e790613b83565b6040516020016117e49190613eab565b60405160208183030381529060405290506117fd610eed565b8383836040516020016118139493929190613edd565b604051602081830303815290604052945050505050919050565b60006001600160a01b03841661185657604051635bb7a72360e01b815260040160405180910390fd5b82516118619061244c565b1561187f5760405163700a84a960e11b815260040160405180910390fd5b600061188d61138843613f34565b90506118983361275b565b6118a182612771565b6040516020016118b2929190613f56565b60408051601f19818403018152828252805160209182012060025463ebf0c71760e01b855292519095506001600160a01b039092169263ebf0c71792600480830193928290030181865afa15801561190e573d6000803e3d6000fd5b505050506040513d601f19601f820116820180604052508101906119329190613d0c565b6001600160a01b0316634f558e79836040518263ffffffff1660e01b815260040161195f91815260200190565b602060405180830381865afa15801561197c573d6000803e3d6000fd5b505050506040513d601f19601f820116820180604052508101906119a09190613d29565b156119be5760405163a1ee858560e01b815260040160405180910390fd5b6040805160018082528183019092526000916020808301908036833750506040805160018082528183019092529293506000929150602082015b60608152602001906001900390816119f85790505090503082600081518110611a2357611a23613d59565b6001600160a01b0390921660209283029190910190910152604051631fc599e560e01b90611a5990899089908990602401613f9f565b604051602081830303815290604052906001600160e01b0319166020820180516001600160e01b03838183161783525050505081600081518110611a9f57611a9f613d59565b6020026020010181905250611b4e60405180610260016040528060008152602001606081526020016060815260200160006001600160a01b031681526020016000815260200160608152602001600081526020016000815260200160008152602001600081526020016000815260200160008152602001600081526020016000815260200160008152602001600015158152602001600015158152602001600015158152602001606081525090565b84815260006080820181905260a0820184905260c082018190526113896101008301526101208201819052610140820152604080518082018252601381527272657175657374206a6f696e20746f2044414f60681b6020808301919091528084019190915288810151828401526102408301849052600254825163ebf0c71760e01b815292516001600160a01b039091169263ebf0c7179260048083019391928290030181865afa158015611c07573d6000803e3d6000fd5b505050506040513d601f19601f82011682018060405250810190611c2b9190613d0c565b6001600160a01b031663878e5e52826040518263ffffffff1660e01b8152600401611c56919061406d565b600060405180830381600087803b158015611c7057600080fd5b505af1158015611c84573d6000803e3d6000fd5b50505050505050509392505050565b600254604080516338d52e0f60e01b815290516060926001600160a01b0316916338d52e0f9160048083019260209291908290030181865afa158015611cdd573d6000803e3d6000fd5b505050506040513d601f19601f82011682018060405250810190611d019190613d0c565b6001600160a01b031663e8a3d4856040518163ffffffff1660e01b8152600401600060405180830381865afa158015611d3e573d6000803e3d6000fd5b505050506040513d6000823e601f3d908101601f1916820160405261090691908101906141c8565b6322a25870611d73611ebe565b611e7c57600260009054906101000a90046001600160a01b03166001600160a01b031663e3f6b5446040518163ffffffff1660e01b8152600401602060405180830381865afa158015611dca573d6000803e3d6000fd5b505050506040513d601f19601f82011682018060405250810190611dee9190613d0c565b60405163a8a555c560e01b8152336004820152602481018390526001600160a01b03919091169063a8a555c590604401602060405180830381865afa158015611e3b573d6000803e3d6000fd5b505050506040513d601f19601f82011682018060405250810190611e5f9190613d29565b611e7c57604051630782484160e21b815260040160405180910390fd5b611e84613076565b8781526020810185905263ffffffff871660808201526060810183905260408101849052611eb389828861209c565b505050505050505050565b60035460009033906001600160a01b03168114611ff557600260009054906101000a90046001600160a01b03166001600160a01b031663570ca7356040518163ffffffff1660e01b8152600401602060405180830381865afa158015611f28573d6000803e3d6000fd5b505050506040513d601f19601f82011682018060405250810190611f4c9190613d0c565b6001600160a01b0316816001600160a01b031614611ff557600260009054906101000a90046001600160a01b03166001600160a01b031663ebf0c7176040518163ffffffff1660e01b8152600401602060405180830381865afa158015611fb7573d6000803e3d6000fd5b505050506040513d601f19601f82011682018060405250810190611fdb9190613d0c565b6001600160a01b0316816001600160a01b03161491505090565b600191505090565b6120068161244c565b610c7257604051637f5c5df960e01b815260040160405180910390fd5b600081815260116020526040902080546001600160a01b0319166001600160a01b038416908117909155819061205882610eb7565b6001600160a01b03167f8c5be1e5ebec7d5bd14f71427d1e84f3dd0314c0f7b2291e5b200ac8c7c3b92560405160405180910390a45050565b6000610bfa82612803565b6120aa83836000015161280e565b815160009081526017602090815260409091208351815590830151819060018201906120d69082613bfd565b50604084015160028201906120eb9082613bfd565b50606084015160038201906121009082613bfd565b50608084015163ffffffff161561211b57836080015161211e565b60015b60048201805463ffffffff191663ffffffff929092169182179055601a805460009061214b908490613e0c565b9091555050835161215e90601890612477565b5060005b83518110156121ad5761219a84828151811061218057612180613d59565b60200260200101518460050161247790919063ffffffff16565b50806121a581613d6f565b915050612162565b505050505050565b60006121c08261244c565b6121dd57604051635449cd4560e01b815260040160405180910390fd5b60006121e883610eb7565b9050806001600160a01b0316846001600160a01b0316148061222357506000838152601160205260409020546001600160a01b038581169116145b8061225357506001600160a01b0380821660009081526012602090815260408083209388168352929052205460ff165b949350505050565b836001600160a01b031661226e83610eb7565b6001600160a01b03161461229557604051630898381960e11b815260040160405180910390fd5b6001600160a01b0383166122bc57604051635bb7a72360e01b815260040160405180910390fd5b6122c7600083612023565b6001600160a01b0384166000908152600d602052604090206122e99083612440565b506001600160a01b0383166000908152600d6020526040902061230c9083612477565b50612319600e83856128d2565b5081836001600160a01b0316856001600160a01b03167fddf252ad1be2c89b69c2b068fc378daa952ba7f163c4a11628f55a4df523b3ef60405160405180910390a450505050565b6000610bfa825490565b6000610bf783836128e8565b600061238282610eb7565b604080516020810190915260009052905061239e600083612023565b600082815260156020526040902080546123b790613b83565b1590506123d55760008281526015602052604081206123d59161301e565b6001600160a01b0381166000908152600d602052604090206123f79083612440565b50612403600e83612912565b5060405182906000906001600160a01b038416907fddf252ad1be2c89b69c2b068fc378daa952ba7f163c4a11628f55a4df523b3ef908390a45050565b6000610bf7838361291e565b6000610bfa600e83612a11565b60008080806124688686612a1d565b909450925050505b9250929050565b6000610bf78383612a48565b60008181526001830160205260408120541515610bf7565b60008080806124688686612a97565b6124b2612ad1565b6124c2630d64f40d60e31b612558565b600280546001600160a01b0319166001600160a01b03851617905560046124e98382613bfd565b50600380546001600160a01b0319166001600160a01b03929092169190911790555050565b601361251a8382613bfd565b5060146125278282613bfd565b506125386380ac58cd60e01b612c04565b612548635b5e139f60e01b612c04565b610d6163780e9d6360e01b612c04565b6001600160e01b031980821690036125b25760405162461bcd60e51b815260206004820152601c60248201527f4552433136353a20696e76616c696420696e74657266616365206964000000006044820152606401610c69565b6001600160e01b0319166000908152600160208190526040909120805460ff19169091179055565b6016610d618282613bfd565b6125f28484848461225b565b6125fe84848484612c0d565b610b6d565b60606000825160026126159190614235565b6001600160401b0381111561262c5761262c6131e1565b6040519080825280601f01601f191660200182016040528015612656576020820181803683370190505b50905060005b835181101561275457600084828151811061267957612679613d59565b016020015160f881901c91506f181899199a1a9b1b9c1cb0b131b232b360811b9060fc1c601081106126ad576126ad613d59565b1a60f81b83600184901b815181106126c7576126c7613d59565b60200101906001600160f81b031916908160001a9053506f181899199a1a9b1b9c1cb0b131b232b360811b600f82166010811061270657612706613d59565b1a60f81b83612719600185811b90613e0c565b8151811061272957612729613d59565b60200101906001600160f81b031916908160001a90535050808061274c90613d6f565b91505061265c565b5092915050565b6060610bfa6001600160a01b0383166014612cac565b6060600061277e83612e47565b60010190506000816001600160401b0381111561279d5761279d6131e1565b6040519080825280601f01601f1916602001820160405280156127c7576020820181803683370190505b5090508181016020015b600019016f181899199a1a9b1b9c1cb0b131b232b360811b600a86061a8153600a85049450846127d157509392505050565b6000610bfa82612361565b6128178161244c565b156128355760405163082c3a4f60e01b815260040160405180910390fd5b6001600160a01b03821661285c57604051635bb7a72360e01b815260040160405180910390fd5b60408051602080820183526000918290526001600160a01b0385168252600d9052206128889082612477565b50612895600e82846128d2565b5060405181906001600160a01b038416906000907fddf252ad1be2c89b69c2b068fc378daa952ba7f163c4a11628f55a4df523b3ef908290a45050565b600061225384846001600160a01b038516612f1f565b60008260000182815481106128ff576128ff613d59565b9060005260206000200154905092915050565b6000610bf78383612f3c565b60008181526001830160205260408120548015612a07576000612942600183613d46565b855490915060009061295690600190613d46565b90508181146129bb57600086600001828154811061297657612976613d59565b906000526020600020015490508087600001848154811061299957612999613d59565b6000918252602080832090910192909255918252600188019052604090208390555b85548690806129cc576129cc61424c565b600190038181906000526020600020016000905590558560010160008681526020019081526020016000206000905560019350505050610bfa565b6000915050610bfa565b6000610bf78383612f59565b60008080612a2b858561236b565b600081815260029690960160205260409095205494959350505050565b6000818152600183016020526040812054612a8f57508154600181810184556000848152602080822090930184905584548482528286019093526040902091909155610bfa565b506000610bfa565b6000818152600283016020526040812054819080612ac657612ab98585612f59565b9250600091506124709050565b600192509050612470565b600054600160a81b900460ff1615808015612af957506000546001600160a01b90910460ff16105b80612b1a5750303b158015612b1a5750600054600160a01b900460ff166001145b612b7d5760405162461bcd60e51b815260206004820152602e60248201527f496e697469616c697a61626c653a20636f6e747261637420697320616c72656160448201526d191e481a5b9a5d1a585b1a5e995960921b6064820152608401610c69565b6000805460ff60a01b1916600160a01b1790558015612baa576000805460ff60a81b1916600160a81b1790555b612bba6301ffc9a760e01b612558565b8015610c72576000805460ff60a81b19169055604051600181527f7f26b83ff96e1f2b6a682f133852f6798a09c465da95921460cefb38474024989060200160405180910390a150565b610c7281612558565b6001600160a01b0383163b15610b6d576000630a85bd0160e11b33868585604051602401612c3e9493929190614262565b60408051601f198184030181529190526020810180516001600160e01b03166001600160e01b0319909316929092179091529050630a85bd0160e11b612c848583612f65565b6001600160e01b03191614610f8c576040516342eac10f60e11b815260040160405180910390fd5b60606000612cbb836002614235565b612cc6906002613e0c565b6001600160401b03811115612cdd57612cdd6131e1565b6040519080825280601f01601f191660200182016040528015612d07576020820181803683370190505b509050600360fc1b81600081518110612d2257612d22613d59565b60200101906001600160f81b031916908160001a905350600f60fb1b81600181518110612d5157612d51613d59565b60200101906001600160f81b031916908160001a9053506000612d75846002614235565b612d80906001613e0c565b90505b6001811115612df8576f181899199a1a9b1b9c1cb0b131b232b360811b85600f1660108110612db457612db4613d59565b1a60f81b828281518110612dca57612dca613d59565b60200101906001600160f81b031916908160001a90535060049490941c93612df181614295565b9050612d83565b508315610bf75760405162461bcd60e51b815260206004820181905260248201527f537472696e67733a20686578206c656e67746820696e73756666696369656e746044820152606401610c69565b60008072184f03e93ff9f4daa797ed6e38ed64bf6a1f0160401b8310612e865772184f03e93ff9f4daa797ed6e38ed64bf6a1f0160401b830492506040015b6d04ee2d6d415b85acef81000000008310612eb2576d04ee2d6d415b85acef8100000000830492506020015b662386f26fc100008310612ed057662386f26fc10000830492506010015b6305f5e1008310612ee8576305f5e100830492506008015b6127108310612efc57612710830492506004015b60648310612f0e576064830492506002015b600a8310610bfa5760010192915050565b600082815260028401602052604081208290556122538484612477565b60008181526002830160205260408120819055610bf78383612440565b6000610bf78383612483565b6000806000846001600160a01b031684604051612f8291906142ac565b6000604051808303816000865af19150503d8060008114612fbf576040519150601f19603f3d011682016040523d82523d6000602084013e612fc4565b606091505b50915091508115612fec5780806020019051810190612fe391906142c8565b92505050610bfa565b805115612ffc5780518082602001fd5b60405162461bcd60e51b81526020600482015260006024820152604401610c69565b50805461302a90613b83565b6000825580601f1061303a575050565b601f016020900490600052602060002090810190610c7291906130ab565b5080546000825590600052602060002090810190610c7291906130ab565b6040518060a0016040528060008152602001606081526020016060815260200160608152602001600063ffffffff1681525090565b5b808211156130c057600081556001016130ac565b5090565b6001600160e01b031981168114610c7257600080fd5b6000602082840312156130ec57600080fd5b8135610bf7816130c4565b60005b838110156131125781810151838201526020016130fa565b50506000910152565b600081518084526131338160208601602086016130f7565b601f01601f19169290920160200192915050565b602081526000610bf7602083018461311b565b60006020828403121561316c57600080fd5b5035919050565b6001600160a01b0381168114610c7257600080fd5b803561319381613173565b919050565b6000602082840312156131aa57600080fd5b8135610bf781613173565b600080604083850312156131c857600080fd5b82356131d381613173565b946020939093013593505050565b634e487b7160e01b600052604160045260246000fd5b60405160a081016001600160401b0381118282101715613219576132196131e1565b60405290565b604051606081016001600160401b0381118282101715613219576132196131e1565b604051601f8201601f191681016001600160401b0381118282101715613269576132696131e1565b604052919050565b60006001600160401b0382111561328a5761328a6131e1565b50601f01601f191660200190565b60006132ab6132a684613271565b613241565b90508281528383830111156132bf57600080fd5b828260208301376000602084830101529392505050565b600082601f8301126132e757600080fd5b610bf783833560208501613298565b6000806000806080858703121561330c57600080fd5b8435935060208501356001600160401b038082111561332a57600080fd5b613336888389016132d6565b9450604087013591508082111561334c57600080fd5b613358888389016132d6565b9350606087013591508082111561336e57600080fd5b5061337b878288016132d6565b91505092959194509250565b803563ffffffff8116811461319357600080fd5b6000806000606084860312156133b057600080fd5b83359250602084013591506133c760408501613387565b90509250925092565b600060a082840312156133e257600080fd5b6133ea6131f7565b90508135815260208201356001600160401b038082111561340a57600080fd5b613416858386016132d6565b6020840152604084013591508082111561342f57600080fd5b61343b858386016132d6565b6040840152606084013591508082111561345457600080fd5b50613461848285016132d6565b60608301525061347360808301613387565b608082015292915050565b60006001600160401b03821115613497576134976131e1565b5060051b60200190565b600082601f8301126134b257600080fd5b813560206134c26132a68361347e565b82815260059290921b840181019181810190868411156134e157600080fd5b8286015b848110156134fc57803583529183019183016134e5565b509695505050505050565b60008060006060848603121561351c57600080fd5b833561352781613173565b925060208401356001600160401b038082111561354357600080fd5b61354f878388016133d0565b9350604086013591508082111561356557600080fd5b50613572868287016134a1565b9150509250925092565b60008060006060848603121561359157600080fd5b833561359c81613173565b925060208401356135ac81613173565b929592945050506040919091013590565b6000806000606084860312156135d257600080fd5b8335925060208401356001600160401b03808211156135f057600080fd5b61354f878388016134a1565b6000806040838503121561360f57600080fd5b50508035926020909101359150565b60008083601f84011261363057600080fd5b5081356001600160401b0381111561364757600080fd5b6020830191508360208260051b850101111561247057600080fd5b6000806000806040858703121561367857600080fd5b84356001600160401b038082111561368f57600080fd5b61369b8883890161361e565b909650945060208701359150808211156136b457600080fd5b506136c18782880161361e565b95989497509550505050565b6000602082840312156136df57600080fd5b81356001600160401b038111156136f557600080fd5b612253848285016132d6565b8015158114610c7257600080fd5b6000806040838503121561372257600080fd5b823561372d81613173565b9150602083013561373d81613701565b809150509250929050565b805182526000602082015160a0602085015261376760a085018261311b565b905060408301518482036040860152613780828261311b565b9150506060830151848203606086015261379a828261311b565b91505063ffffffff60808401511660808501528091505092915050565b602081526000610bf76020830184613748565b600080604083850312156137dd57600080fd5b8235915060208301356001600160401b038111156137fa57600080fd5b613806858286016133d0565b9150509250929050565b8035600381900b811461319357600080fd5b6000806040838503121561383557600080fd5b8235915061384560208401613810565b90509250929050565b600082601f83011261385f57600080fd5b8135602061386f6132a68361347e565b82815260059290921b8401810191818101908684111561388e57600080fd5b8286015b848110156134fc5780356001600160401b03808211156138b25760008081fd5b908801906060828b03601f19018113156138cc5760008081fd5b6138d461321f565b878401356138e181613173565b8152604084810135848111156138f75760008081fd5b6139058e8b838901016133d0565b838b01525091840135918383111561391d5760008081fd5b61392b8d8a858801016134a1565b908201528652505050918301918301613892565b60008060008060008060c0878903121561395857600080fd5b61396187613188565b955060208701356001600160401b038082111561397d57600080fd5b6139898a838b016132d6565b9650604089013591508082111561399f57600080fd5b6139ab8a838b016132d6565b955060608901359150808211156139c157600080fd5b6139cd8a838b016132d6565b94506139db60808a01613188565b935060a08901359150808211156139f157600080fd5b506139fe89828a0161384e565b9150509295509295509295565b60008060008060808587031215613a2157600080fd5b8435613a2c81613173565b93506020850135613a3c81613173565b92506040850135915060608501356001600160401b03811115613a5e57600080fd5b8501601f81018713613a6f57600080fd5b61337b87823560208401613298565b60008060408385031215613a9157600080fd5b8235613a9c81613173565b9150602083013561373d81613173565b600080600080600080600060e0888a031215613ac757600080fd5b613ad088613188565b965060208801359550613ae560408901613387565b945060608801356001600160401b0380821115613b0157600080fd5b613b0d8b838c016134a1565b955060808a0135915080821115613b2357600080fd5b613b2f8b838c016132d6565b945060a08a0135915080821115613b4557600080fd5b613b518b838c016132d6565b935060c08a0135915080821115613b6757600080fd5b50613b748a828b016132d6565b91505092959891949750929550565b600181811c90821680613b9757607f821691505b602082108103610ee757634e487b7160e01b600052602260045260246000fd5b601f82111561083f57600081815260208120601f850160051c81016020861015613bde5750805b601f850160051c820191505b818110156121ad57828155600101613bea565b81516001600160401b03811115613c1657613c166131e1565b613c2a81613c248454613b83565b84613bb7565b602080601f831160018114613c5f5760008415613c475750858301515b600019600386901b1c1916600185901b1785556121ad565b600085815260208120601f198616915b82811015613c8e57888601518255948401946001909101908401613c6f565b5085821015613cac5787850151600019600388901b60f8161c191681555b5050505050600190811b01905550565b634e487b7160e01b600052601160045260246000fd5b63ffffffff82811682821603908082111561275457612754613cbc565b63ffffffff81811683821601908082111561275457612754613cbc565b600060208284031215613d1e57600080fd5b8151610bf781613173565b600060208284031215613d3b57600080fd5b8151610bf781613701565b81810381811115610bfa57610bfa613cbc565b634e487b7160e01b600052603260045260246000fd5b600060018201613d8157613d81613cbc565b5060010190565b600081518084526020808501945080840160005b83811015613db857815187529582019590820190600101613d9c565b509495945050505050565b604081526000613dd66040830185613d88565b8281036020840152613de88185613d88565b95945050505050565b600060208284031215613e0357600080fd5b610bf782613810565b80820180821115610bfa57610bfa613cbc565b60008160030b637fffffff198103613e3957613e39613cbc565b60000392915050565b683f6e616d653d30787360b81b815260008251613e668160098501602087016130f7565b9190910160090192915050565b6f266465736372697074696f6e3d30787360801b815260008251613e9e8160108501602087016130f7565b9190910160100192915050565b6926696d6167653d30787360b01b815260008251613ed081600a8501602087016130f7565b91909101600a0192915050565b60008551613eef818460208a016130f7565b855190830190613f03818360208a016130f7565b8551910190613f168183602089016130f7565b8451910190613f298183602088016130f7565b019695505050505050565b600082613f5157634e487b7160e01b600052601260045260246000fd5b500490565b6a3932b8bab2b9ba2537b4b760a91b815260008351613f7c81600b8501602088016130f7565b835190830190613f9381600b8401602088016130f7565b01600b01949350505050565b6001600160a01b0384168152606060208201819052600090613fc390830185613748565b8281036040840152613fd58185613d88565b9695505050505050565b600081518084526020808501945080840160005b83811015613db85781516001600160a01b031687529582019590820190600101613ff3565b600081518084526020808501808196508360051b8101915082860160005b8581101561406057828403895261404e84835161311b565b98850198935090840190600101614036565b5091979650505050505050565b60208152815160208201526000602083015161026080604085015261409661028085018361311b565b91506040850151601f19808685030160608701526140b4848361311b565b9350606087015191506140d260808701836001600160a01b03169052565b608087015160a087015260a08701519150808685030160c08701526140f78483613fdf565b60c088015160e08881019190915288015161010080890191909152880151610120808901919091528801516101408089019190915288015161016080890191909152880151610180808901919091528801516101a0808901919091528801516101c0808901919091528801516101e08089019190915288015190945091506102006141858188018415159052565b870151915061022061419a8782018415159052565b87015191506102406141af8782018415159052565b870151868503909101838701529050613fd58382614018565b6000602082840312156141da57600080fd5b81516001600160401b038111156141f057600080fd5b8201601f8101841361420157600080fd5b805161420f6132a682613271565b81815285602083850101111561422457600080fd5b613de88260208301602086016130f7565b8082028115828204841417610bfa57610bfa613cbc565b634e487b7160e01b600052603160045260246000fd5b6001600160a01b0385811682528416602082015260408101839052608060608201819052600090613fd59083018461311b565b6000816142a4576142a4613cbc565b506000190190565b600082516142be8184602087016130f7565b9190910192915050565b6000602082840312156142da57600080fd5b8151610bf7816130c456fe7016719027ff29c13bc4816903851ea968172a86b766c733b954fdabe53c87eea2646970667358221220fe5ba66eba30e9d266ebe0c0707c9f5025c006fc8517401bcbccee065e5dfe1064736f6c63430008110033",
  "immutableReferences": {},
  "source": "// SPDX-License-Identifier: MIT\npragma solidity ~0.8.17;\n\npragma experimental ABIEncoderV2;\n\nimport './Module.sol';\nimport './libs/ERC721.sol';\nimport './libs/Strings.sol';\n\ncontract Member is Module, ERC721, IMember {\n\tusing EnumerableSet for EnumerableSet.UintSet;\n\tusing StringsExp for bytes;\n\tusing Strings for uint256;\n\tusing Strings for address;\n\n\tstruct Info_ {\n\t\tInfo                  info;\n\t\tEnumerableSet.UintSet permissions; // permissions\n\t}\n\n\tmapping(uint256=>Info_) private  _infoMap; // member info, member id => member info\n\tEnumerableSet.UintSet   private  _infoList; // member table list\n\tuint256                 private  _votes; // all vote total\n\tuint256                 internal _executor; // executor\n\tuint256[16]             private  __; // reserved storage space\n\n\tstruct MintMemberArgs {\n\t\taddress   owner;\n\t\tInfo      info;\n\t\tuint256[] permissions;\n\t}\n\n\tfunction _registerInterface721(bytes4 interfaceId) internal override {\n\t\tERC165._registerInterface(interfaceId);\n\t}\n\n\t// compatible with opensea\n\tfunction contractURI() view public override returns (string memory uri) {\n\t\turi = _host.asset().contractURI();\n\t}\n\n\tfunction initMember(\n\t\taddress host, string memory name, string memory description,\n\t\tstring memory baseURI, address operator, MintMemberArgs[] memory members) external\n\t{\n\t\tinitModule(host, description, operator);\n\t\tinitERC721(name, name);\n\t\t_registerInterface(Member_Type);\n\t\t_setBaseURI(baseURI);\n\n\t\tfor (uint256 i = 0; i < members.length; i++)\n\t\t\tmint(members[i].owner, members[i].info, members[i].permissions);\n\t}\n\n\tfunction mint(address owner, Info memory info, uint256[] memory permissions) private {\n\t\t_mint(owner, info.id);\n\n\t\tInfo_ storage i0   = _infoMap[info.id];\n\t\tInfo  storage info_= i0.info;\n\t\tinfo_.id           = info.id;\n\t\tinfo_.name         = info.name;\n\t\tinfo_.description  = info.description;\n\t\tinfo_.image        = info.image;\n\t\tinfo_.votes        = info.votes == 0 ? 1: info.votes; // limit votes to 1\n\n\t\t_votes += info_.votes;\n\n\t\t_infoList.add(info.id);\n\n\t\t// add permissions\n\t\tfor (uint256 i = 0; i < permissions.length; i++)\n\t\t\ti0.permissions.add(permissions[i]);\n\t}\n\n\tfunction remove(uint256 id) public {\n\t\tif (!isApprovedOrOwner(msg.sender, id) && !isPermissionDAO()) revert PermissionDenied();\n\t\t_burn(id);\n\t\t_votes -= _infoMap[id].info.votes;\n\t\tdelete _infoMap[id];\n\t\t_infoList.remove(id);\n\t}\n\n\tfunction create(\n\t\taddress owner, Info memory info, uint256[] memory permissions\n\t) external Check(Action_Member_Create)\n\t{\n\t\tmint(owner, info, permissions);\n\t}\n\n\tfunction createFrom(\n\t\taddress owner,       uint256 id,\n\t\tuint32 votes_,        uint256[] memory permissions,\n\t\tstring memory name,  string memory description, string memory image\n\t) external Check(Action_Member_Create)\n\t{\n\t\tInfo memory info;\n\t\tinfo.id = id;\n\t\tinfo.name = name;\n\t\tinfo.votes = votes_;\n\t\tinfo.image = image;\n\t\tinfo.description = description;\n\t\tmint(owner, info, permissions);\n\t}\n\n\t/**\n\t * @dev request join to DAO, create join vote proposal\n\t */\n\tfunction requestJoin(address owner, Info memory info, uint256[] memory permissions) public returns (uint256 id) {\n\t\tif (owner == address(0)) revert AddressEmpty(); // mint to the zero address\n\t\tif (_exists(info.id)) revert MemberAlreadyExists(); // token already minted\n\n\t\tuint256 salt = block.number / 5000;\n\t\tid = uint256(keccak256(abi.encodePacked(\"requestJoin\", msg.sender.toHexString(), salt.toString())));\n\n\t\tif (IVotePool(_host.root()).exists(id)) revert MemberRequestJoinAlreadyExists();\n\n\t\taddress[] memory target = new address[](1);\n\t\tbytes[] memory data = new bytes[](1);\n\n\t\ttarget[0] = address(this);\n\t\tdata[0] = abi.encodeWithSelector(this.create.selector, owner, info, permissions);\n\n\t\tIVotePool.Proposal memory pro;\n\t\tpro.id          = id;\n\t\tpro.originId    = 0; // member id\n\t\tpro.target      = target;\n\t\tpro.lifespan    = 0;\n\t\tpro.passRate    = 5001;\n\t\tpro.loopCount   = 0;\n\t\tpro.loopTime    = 0;\n\t\tpro.name        = \"request join to DAO\";\n\t\tpro.description = info.name;\n\t\tpro.data        = data;\n\n\t\tIVotePool(_host.root()).create(pro);\n\t}\n\n\t/**\n\t * @dev Returns the token URI of member\n\t */\n\tfunction tokenURI(uint256 tokenId) view public override(ERC721,IERC721Metadata) returns (string memory uri) {\n\t\tInfo storage info = _infoMap[tokenId].info;\n\t\tbytes memory a = abi.encodePacked(\"?name=0xs\",                      bytes(info.name).toHexString());\n\t\tbytes memory b = abi.encodePacked(\"&description=0xs\",               bytes(info.description).toHexString());\n\t\tbytes memory c = abi.encodePacked(\"&image=0xs\",                     bytes(info.image).toHexString());\n\t\turi = string(abi.encodePacked(baseURI(), a, b, c));\n\t}\n\n\t/**\n\t * @dev Returns all votes total\n\t */\n\tfunction votes() view external override returns (uint256) {\n\t\treturn _votes;\n\t}\n\n\tfunction getMemberInfo(uint256 id) view external override returns (Info memory) {\n\t\tcheckExists(id); // info query for nonexistent member\n\t\treturn _infoMap[id].info;\n\t}\n\n\tfunction setMemberInfo(uint256 id, string memory name, string memory description, string memory image) public {\n\t\t// require(ownerOf(id) == _msgSender(), \"#Member#setMemberInfo: owner no match\");\n\t\tif (ownerOf(id) != _msgSender()) revert PermissionDenied();\n\t\tInfo storage info_ = _infoMap[id].info;\n\t\tif (bytes(name).length != 0)        info_.name        = name;\n\t\tif (bytes(description).length != 0) info_.description = description;\n\t\tif (bytes(image).length != 0)       info_.image      = image;\n\t\temit Update(id);\n\t}\n\n\tfunction setInfo(uint256 id, Info memory info) external {\n\t\tsetMemberInfo(id, info.name, info.description, info.image);\n\t}\n\n\tfunction indexAt(uint256 index) view public override returns (Info memory) {\n\t\treturn _infoMap[_infoList.at(index)].info;\n\t}\n\n\tfunction isApprovedOrOwner(address spender, uint256 id) view public returns (bool) {\n\t\treturn _havePermission(spender, id);\n\t}\n\n\t/**\n\t * @dev Returns members total\n\t */\n\tfunction total() view public override returns (uint256) {\n\t\treturn _infoList.length();\n\t}\n\n\tfunction executor() view public returns(uint256) {\n\t\treturn _executor;\n\t}\n\n\tfunction checkExists(uint256 id) view internal {\n\t\tif (!_exists(id)) revert MemberNonExists();\n\t}\n\n\tfunction setExecutor(uint256 id) public OnlyDAO {\n\t\tcheckExists(id); // info query for nonexistent member\n\t\t_executor = id;\n\t\temit Change(Change_Tag_Member_Set_Executor, uint160(id));\n\t}\n\n\tfunction isPermission(address owner, uint256 action) view external override returns (bool) {\n\t\tuint256 len = balanceOf(owner);\n\t\tfor (uint256 i = 0; i < len; i++) {\n\t\t\tuint256 id = tokenOfOwnerByIndex(owner, i);\n\t\t\tif (isPermissionFrom(id, action))\n\t\t\t\treturn true;\n\t\t}\n\t\treturn false;\n\t}\n\n\tfunction isPermissionFrom(uint256 id, uint256 action) view public override returns (bool) {\n\t\treturn _infoMap[id].permissions.contains(action);\n\t}\n\n\tfunction setPermissions(uint256 id, uint256[] memory addActions, uint256[] memory removeActions) external OnlyDAO {\n\t\tcheckExists(id); // check info query for nonexistent member\n\n\t\tEnumerableSet.UintSet storage permissions = _infoMap[id].permissions;\n\t\tfor (uint256 j = 0; j < addActions.length; j++)\n\t\t\tpermissions.add(addActions[j]);\n\t\tfor (uint256 j = 0; j < removeActions.length; j++)\n\t\t\tpermissions.remove(removeActions[j]);\n\t\temit SetPermissions(id, addActions, removeActions);\n\t}\n\n\tfunction addVotes(uint256 id, int32 votes) public OnlyDAO {\n\t\tcheckExists(id); // check info query for nonexistent member\n\n\t\tInfo storage info = _infoMap[id].info;\n\n\t\tinfo.votes += uint32(votes);\n\t\t_votes += uint32(votes);\n\n\t\tif (votes > 0)\n\t\t\temit TransferVotes(0, id, uint32(votes));\n\t\telse\n\t\t\temit TransferVotes(id, 0, uint32(-votes));\n\t}\n\n\tfunction addVotesOfBatch(uint256[] calldata ids, int32[] calldata votes) public {\n\t\tfor (uint256 i = 0; i < ids.length; i++) {\n\t\t\taddVotes(ids[i], votes[i]);\n\t\t}\n\t}\n\n\tfunction transferVotes(uint256 from, uint256 to, uint32 votes) external OnlyDAO {\n\t\tcheckExists(from); // check info query for nonexistent member from\n\t\tcheckExists(to); // check info query for nonexistent member to\n\n\t\tInfo storage infoFrom = _infoMap[from].info;\n\t\tInfo storage infoTo = _infoMap[to].info;\n\t\t// require(infoFrom.votes >= votes, \"#Member#transferVotes: not votes power enough\");\n\t\tif (infoFrom.votes < votes) revert InsufficientVotesInMember();\n\n\t\tinfoFrom.votes -= uint32(votes);\n\t\tinfoTo.votes += uint32(votes);\n\n\t\temit TransferVotes(from, to, votes);\n\t}\n\n}",
  "sourcePath": "/Users/louis/Project/hc/NFTSwap/SmartHolder/contracts/Member.sol",
  "compiler": {
    "name": "solc",
    "version": "0.8.17+commit.8df45f5f.Emscripten.clang"
  },
  "schemaVersion": "3.4.11",
  "updatedAt": "2023-05-25T08:10:25.514Z",
  "devdoc": {
    "kind": "dev",
    "methods": {
      "approve(address,uint256)": {
        "details": "Approves another address to transfer the given token ID The zero address indicates there is no approved address. There can only be one approved address per token at a given time. Can only be called by the token owner or an approved operator.",
        "params": {
          "to": "address to be approved for the given token ID",
          "tokenId": "uint256 ID of the token to be approved"
        }
      },
      "balanceOf(address)": {
        "details": "Gets the balance of the specified address.",
        "params": {
          "owner": "address to query the balance of"
        },
        "returns": {
          "_0": "uint256 representing the amount owned by the passed address"
        }
      },
      "baseURI()": {
        "details": "Returns the base URI set via {_setBaseURI}. This will be automatically added as a prefix in {tokenURI} to each token's URI, or to the token ID if no specific URI is set for that token ID."
      },
      "getApproved(uint256)": {
        "details": "Gets the approved address for a token ID, or zero if no address set Reverts if the token ID does not exist.",
        "params": {
          "tokenId": "uint256 ID of the token to query the approval of"
        },
        "returns": {
          "_0": "address currently approved for the given token ID"
        }
      },
      "isApprovedForAll(address,address)": {
        "details": "Tells whether an operator is approved by a given owner.",
        "params": {
          "operator": "operator address which you want to query the approval of",
          "owner": "owner address which you want to query the approval of"
        },
        "returns": {
          "_0": "bool whether the given operator is approved by the given owner"
        }
      },
      "name()": {
        "details": "Gets the token name.",
        "returns": {
          "_0": "string representing the token name"
        }
      },
      "ownerOf(uint256)": {
        "details": "Gets the owner of the specified token ID.",
        "params": {
          "tokenId": "uint256 ID of the token to query the owner of"
        },
        "returns": {
          "owner": "currently marked as the owner of the given token ID"
        }
      },
      "requestJoin(address,(uint256,string,string,string,uint32),uint256[])": {
        "details": "request join to DAO, create join vote proposal"
      },
      "safeTransferFrom(address,address,uint256)": {
        "details": "Safely transfers the ownership of a given token ID to another address If the target address is a contract, it must implement {IERC721Receiver-onERC721Received}, which is called upon a safe transfer, and return the magic value `bytes4(keccak256(\"onERC721Received(address,address,uint256,bytes)\"))`; otherwise, the transfer is reverted. Requires the msg.sender to be the owner, approved, or operator",
        "params": {
          "from": "current owner of the token",
          "to": "address to receive the ownership of the given token ID",
          "tokenId": "uint256 ID of the token to be transferred"
        }
      },
      "safeTransferFrom(address,address,uint256,bytes)": {
        "details": "Safely transfers the ownership of a given token ID to another address If the target address is a contract, it must implement {IERC721Receiver-onERC721Received}, which is called upon a safe transfer, and return the magic value `bytes4(keccak256(\"onERC721Received(address,address,uint256,bytes)\"))`; otherwise, the transfer is reverted. Requires the _msgSender() to be the owner, approved, or operator",
        "params": {
          "_data": "bytes data to send along with a safe transfer check",
          "from": "current owner of the token",
          "to": "address to receive the ownership of the given token ID",
          "tokenId": "uint256 ID of the token to be transferred"
        }
      },
      "setApprovalForAll(address,bool)": {
        "details": "Sets or unsets the approval of a given operator An operator is allowed to transfer all tokens of the sender on their behalf.",
        "params": {
          "approved": "representing the status of the approval to be set",
          "operator": "operator address to set the approval"
        }
      },
      "supportsInterface(bytes4)": {
        "details": "See {IERC165-supportsInterface}. Time complexity O(1), guaranteed to always use less than 30 000 gas."
      },
      "symbol()": {
        "details": "Gets the token symbol.",
        "returns": {
          "_0": "string representing the token symbol"
        }
      },
      "tokenByIndex(uint256)": {
        "details": "Gets the token ID at a given index of all the tokens in this contract Reverts if the index is greater or equal to the total number of tokens.",
        "params": {
          "index": "uint256 representing the index to be accessed of the tokens list"
        },
        "returns": {
          "_0": "uint256 token ID at the given index of the tokens list"
        }
      },
      "tokenOfOwnerByIndex(address,uint256)": {
        "details": "Gets the token ID at a given index of the tokens list of the requested owner.",
        "params": {
          "index": "uint256 representing the index to be accessed of the requested tokens list",
          "owner": "address owning the tokens list to be accessed"
        },
        "returns": {
          "_0": "uint256 token ID at the given index of the tokens list owned by the requested address"
        }
      },
      "tokenURI(uint256)": {
        "details": "Returns the token URI of member"
      },
      "total()": {
        "details": "Returns members total"
      },
      "totalSupply()": {
        "details": "Gets the total amount of tokens stored by the contract.",
        "returns": {
          "_0": "uint256 representing the total amount of tokens"
        }
      },
      "transferFrom(address,address,uint256)": {
        "details": "Transfers the ownership of a given token ID to another address. Usage of this method is discouraged, use {safeTransferFrom} whenever possible. Requires the msg.sender to be the owner, approved, or operator.",
        "params": {
          "from": "current owner of the token",
          "to": "address to receive the ownership of the given token ID",
          "tokenId": "uint256 ID of the token to be transferred"
        }
      },
      "votes()": {
        "details": "Returns all votes total"
      }
    },
    "version": 1
  },
  "userdoc": {
    "kind": "user",
    "methods": {},
    "version": 1
  }
}