{
  "contractName": "Member",
  "abi": [
    {
      "inputs": [],
      "name": "AddressEmpty",
      "type": "error"
    },
    {
      "inputs": [],
      "name": "ApprovalToOwnerInERC721",
      "type": "error"
    },
    {
      "inputs": [],
      "name": "ApproveAllToCallerInERC721",
      "type": "error"
    },
    {
      "inputs": [
        {
          "internalType": "bytes4",
          "name": "interfaceId",
          "type": "bytes4"
        }
      ],
      "name": "CheckInterfaceNoMatch",
      "type": "error"
    },
    {
      "inputs": [],
      "name": "InsufficientVotesInMember",
      "type": "error"
    },
    {
      "inputs": [],
      "name": "MemberAlreadyExists",
      "type": "error"
    },
    {
      "inputs": [],
      "name": "MemberNonExists",
      "type": "error"
    },
    {
      "inputs": [],
      "name": "MemberRequestJoinAlreadyExists",
      "type": "error"
    },
    {
      "inputs": [],
      "name": "NonERC721ReceiverImplementer",
      "type": "error"
    },
    {
      "inputs": [],
      "name": "PermissionDenied",
      "type": "error"
    },
    {
      "inputs": [],
      "name": "PermissionDeniedForOnlyDAO",
      "type": "error"
    },
    {
      "inputs": [],
      "name": "PermissionDeniedInERC721",
      "type": "error"
    },
    {
      "inputs": [],
      "name": "TokenIDAlreadyMintedInERC721",
      "type": "error"
    },
    {
      "inputs": [],
      "name": "TokenIDNonExistentInERC721",
      "type": "error"
    },
    {
      "inputs": [],
      "name": "TransferOfTokenIDThatIsNotOwnInERC721",
      "type": "error"
    },
    {
      "anonymous": false,
      "inputs": [
        {
          "indexed": false,
          "internalType": "uint256[]",
          "name": "ids",
          "type": "uint256[]"
        },
        {
          "indexed": false,
          "internalType": "uint256[]",
          "name": "actions",
          "type": "uint256[]"
        }
      ],
      "name": "AddPermissions",
      "type": "event"
    },
    {
      "anonymous": false,
      "inputs": [
        {
          "indexed": true,
          "internalType": "address",
          "name": "owner",
          "type": "address"
        },
        {
          "indexed": true,
          "internalType": "address",
          "name": "approved",
          "type": "address"
        },
        {
          "indexed": true,
          "internalType": "uint256",
          "name": "tokenId",
          "type": "uint256"
        }
      ],
      "name": "Approval",
      "type": "event"
    },
    {
      "anonymous": false,
      "inputs": [
        {
          "indexed": true,
          "internalType": "address",
          "name": "owner",
          "type": "address"
        },
        {
          "indexed": true,
          "internalType": "address",
          "name": "operator",
          "type": "address"
        },
        {
          "indexed": false,
          "internalType": "bool",
          "name": "approved",
          "type": "bool"
        }
      ],
      "name": "ApprovalForAll",
      "type": "event"
    },
    {
      "anonymous": false,
      "inputs": [
        {
          "indexed": true,
          "internalType": "uint256",
          "name": "tag",
          "type": "uint256"
        },
        {
          "indexed": false,
          "internalType": "uint256",
          "name": "value",
          "type": "uint256"
        }
      ],
      "name": "Change",
      "type": "event"
    },
    {
      "anonymous": false,
      "inputs": [
        {
          "indexed": false,
          "internalType": "uint8",
          "name": "version",
          "type": "uint8"
        }
      ],
      "name": "Initialized",
      "type": "event"
    },
    {
      "anonymous": false,
      "inputs": [
        {
          "indexed": false,
          "internalType": "uint256[]",
          "name": "ids",
          "type": "uint256[]"
        },
        {
          "indexed": false,
          "internalType": "uint256[]",
          "name": "actions",
          "type": "uint256[]"
        }
      ],
      "name": "RemovePermissions",
      "type": "event"
    },
    {
      "anonymous": false,
      "inputs": [
        {
          "indexed": true,
          "internalType": "uint256",
          "name": "id",
          "type": "uint256"
        },
        {
          "indexed": false,
          "internalType": "uint256[]",
          "name": "addActions",
          "type": "uint256[]"
        },
        {
          "indexed": false,
          "internalType": "uint256[]",
          "name": "removeActions",
          "type": "uint256[]"
        }
      ],
      "name": "SetPermissions",
      "type": "event"
    },
    {
      "anonymous": false,
      "inputs": [
        {
          "indexed": true,
          "internalType": "address",
          "name": "from",
          "type": "address"
        },
        {
          "indexed": true,
          "internalType": "address",
          "name": "to",
          "type": "address"
        },
        {
          "indexed": true,
          "internalType": "uint256",
          "name": "tokenId",
          "type": "uint256"
        }
      ],
      "name": "Transfer",
      "type": "event"
    },
    {
      "anonymous": false,
      "inputs": [
        {
          "indexed": true,
          "internalType": "uint256",
          "name": "from",
          "type": "uint256"
        },
        {
          "indexed": true,
          "internalType": "uint256",
          "name": "to",
          "type": "uint256"
        },
        {
          "indexed": false,
          "internalType": "uint32",
          "name": "votes",
          "type": "uint32"
        }
      ],
      "name": "TransferVotes",
      "type": "event"
    },
    {
      "anonymous": false,
      "inputs": [
        {
          "indexed": true,
          "internalType": "uint256",
          "name": "id",
          "type": "uint256"
        }
      ],
      "name": "Update",
      "type": "event"
    },
    {
      "inputs": [
        {
          "internalType": "address",
          "name": "to",
          "type": "address"
        },
        {
          "internalType": "uint256",
          "name": "tokenId",
          "type": "uint256"
        }
      ],
      "name": "approve",
      "outputs": [],
      "stateMutability": "nonpayable",
      "type": "function"
    },
    {
      "inputs": [
        {
          "internalType": "address",
          "name": "owner",
          "type": "address"
        }
      ],
      "name": "balanceOf",
      "outputs": [
        {
          "internalType": "uint256",
          "name": "",
          "type": "uint256"
        }
      ],
      "stateMutability": "view",
      "type": "function"
    },
    {
      "inputs": [],
      "name": "baseURI",
      "outputs": [
        {
          "internalType": "string",
          "name": "",
          "type": "string"
        }
      ],
      "stateMutability": "view",
      "type": "function"
    },
    {
      "inputs": [
        {
          "internalType": "bytes4",
          "name": "interfaceId",
          "type": "bytes4"
        }
      ],
      "name": "checkInterface",
      "outputs": [],
      "stateMutability": "view",
      "type": "function"
    },
    {
      "inputs": [],
      "name": "description",
      "outputs": [
        {
          "internalType": "string",
          "name": "",
          "type": "string"
        }
      ],
      "stateMutability": "view",
      "type": "function"
    },
    {
      "inputs": [
        {
          "internalType": "uint256",
          "name": "id",
          "type": "uint256"
        }
      ],
      "name": "exists",
      "outputs": [
        {
          "internalType": "bool",
          "name": "",
          "type": "bool"
        }
      ],
      "stateMutability": "view",
      "type": "function"
    },
    {
      "inputs": [
        {
          "internalType": "uint256",
          "name": "tokenId",
          "type": "uint256"
        }
      ],
      "name": "getApproved",
      "outputs": [
        {
          "internalType": "address",
          "name": "",
          "type": "address"
        }
      ],
      "stateMutability": "view",
      "type": "function"
    },
    {
      "inputs": [],
      "name": "host",
      "outputs": [
        {
          "internalType": "contract IDAO",
          "name": "",
          "type": "address"
        }
      ],
      "stateMutability": "view",
      "type": "function"
    },
    {
      "inputs": [],
      "name": "impl",
      "outputs": [
        {
          "internalType": "address",
          "name": "",
          "type": "address"
        }
      ],
      "stateMutability": "view",
      "type": "function"
    },
    {
      "inputs": [
        {
          "internalType": "address",
          "name": "owner",
          "type": "address"
        },
        {
          "internalType": "address",
          "name": "operator",
          "type": "address"
        }
      ],
      "name": "isApprovedForAll",
      "outputs": [
        {
          "internalType": "bool",
          "name": "",
          "type": "bool"
        }
      ],
      "stateMutability": "view",
      "type": "function"
    },
    {
      "inputs": [],
      "name": "name",
      "outputs": [
        {
          "internalType": "string",
          "name": "",
          "type": "string"
        }
      ],
      "stateMutability": "view",
      "type": "function"
    },
    {
      "inputs": [],
      "name": "operator",
      "outputs": [
        {
          "internalType": "address",
          "name": "",
          "type": "address"
        }
      ],
      "stateMutability": "view",
      "type": "function"
    },
    {
      "inputs": [
        {
          "internalType": "uint256",
          "name": "tokenId",
          "type": "uint256"
        }
      ],
      "name": "ownerOf",
      "outputs": [
        {
          "internalType": "address",
          "name": "owner",
          "type": "address"
        }
      ],
      "stateMutability": "view",
      "type": "function"
    },
    {
      "inputs": [
        {
          "internalType": "address",
          "name": "from",
          "type": "address"
        },
        {
          "internalType": "address",
          "name": "to",
          "type": "address"
        },
        {
          "internalType": "uint256",
          "name": "tokenId",
          "type": "uint256"
        }
      ],
      "name": "safeTransferFrom",
      "outputs": [],
      "stateMutability": "nonpayable",
      "type": "function"
    },
    {
      "inputs": [
        {
          "internalType": "address",
          "name": "from",
          "type": "address"
        },
        {
          "internalType": "address",
          "name": "to",
          "type": "address"
        },
        {
          "internalType": "uint256",
          "name": "tokenId",
          "type": "uint256"
        },
        {
          "internalType": "bytes",
          "name": "_data",
          "type": "bytes"
        }
      ],
      "name": "safeTransferFrom",
      "outputs": [],
      "stateMutability": "nonpayable",
      "type": "function"
    },
    {
      "inputs": [
        {
          "internalType": "address",
          "name": "operator",
          "type": "address"
        },
        {
          "internalType": "bool",
          "name": "approved",
          "type": "bool"
        }
      ],
      "name": "setApprovalForAll",
      "outputs": [],
      "stateMutability": "nonpayable",
      "type": "function"
    },
    {
      "inputs": [
        {
          "internalType": "string",
          "name": "value",
          "type": "string"
        }
      ],
      "name": "setDescription",
      "outputs": [],
      "stateMutability": "nonpayable",
      "type": "function"
    },
    {
      "inputs": [
        {
          "internalType": "address",
          "name": "operator_",
          "type": "address"
        }
      ],
      "name": "setOperator",
      "outputs": [],
      "stateMutability": "nonpayable",
      "type": "function"
    },
    {
      "inputs": [
        {
          "internalType": "bytes4",
          "name": "interfaceId",
          "type": "bytes4"
        }
      ],
      "name": "supportsInterface",
      "outputs": [
        {
          "internalType": "bool",
          "name": "",
          "type": "bool"
        }
      ],
      "stateMutability": "view",
      "type": "function"
    },
    {
      "inputs": [],
      "name": "symbol",
      "outputs": [
        {
          "internalType": "string",
          "name": "",
          "type": "string"
        }
      ],
      "stateMutability": "view",
      "type": "function"
    },
    {
      "inputs": [
        {
          "internalType": "uint256",
          "name": "index",
          "type": "uint256"
        }
      ],
      "name": "tokenByIndex",
      "outputs": [
        {
          "internalType": "uint256",
          "name": "",
          "type": "uint256"
        }
      ],
      "stateMutability": "view",
      "type": "function"
    },
    {
      "inputs": [
        {
          "internalType": "address",
          "name": "owner",
          "type": "address"
        },
        {
          "internalType": "uint256",
          "name": "index",
          "type": "uint256"
        }
      ],
      "name": "tokenOfOwnerByIndex",
      "outputs": [
        {
          "internalType": "uint256",
          "name": "",
          "type": "uint256"
        }
      ],
      "stateMutability": "view",
      "type": "function"
    },
    {
      "inputs": [],
      "name": "totalSupply",
      "outputs": [
        {
          "internalType": "uint256",
          "name": "",
          "type": "uint256"
        }
      ],
      "stateMutability": "view",
      "type": "function"
    },
    {
      "inputs": [
        {
          "internalType": "address",
          "name": "from",
          "type": "address"
        },
        {
          "internalType": "address",
          "name": "to",
          "type": "address"
        },
        {
          "internalType": "uint256",
          "name": "tokenId",
          "type": "uint256"
        }
      ],
      "name": "transferFrom",
      "outputs": [],
      "stateMutability": "nonpayable",
      "type": "function"
    },
    {
      "inputs": [
        {
          "internalType": "address",
          "name": "impl_",
          "type": "address"
        }
      ],
      "name": "upgrade",
      "outputs": [],
      "stateMutability": "nonpayable",
      "type": "function"
    },
    {
      "inputs": [],
      "name": "contractURI",
      "outputs": [
        {
          "internalType": "string",
          "name": "uri",
          "type": "string"
        }
      ],
      "stateMutability": "view",
      "type": "function"
    },
    {
      "inputs": [
        {
          "internalType": "address",
          "name": "host",
          "type": "address"
        },
        {
          "internalType": "string",
          "name": "name",
          "type": "string"
        },
        {
          "internalType": "string",
          "name": "description",
          "type": "string"
        },
        {
          "internalType": "string",
          "name": "baseURI",
          "type": "string"
        },
        {
          "internalType": "address",
          "name": "operator",
          "type": "address"
        },
        {
          "components": [
            {
              "internalType": "address",
              "name": "owner",
              "type": "address"
            },
            {
              "components": [
                {
                  "internalType": "uint256",
                  "name": "id",
                  "type": "uint256"
                },
                {
                  "internalType": "string",
                  "name": "name",
                  "type": "string"
                },
                {
                  "internalType": "string",
                  "name": "description",
                  "type": "string"
                },
                {
                  "internalType": "string",
                  "name": "image",
                  "type": "string"
                },
                {
                  "internalType": "uint32",
                  "name": "votes",
                  "type": "uint32"
                }
              ],
              "internalType": "struct IMember.Info",
              "name": "info",
              "type": "tuple"
            },
            {
              "internalType": "uint256[]",
              "name": "permissions",
              "type": "uint256[]"
            }
          ],
          "internalType": "struct Member.MintMemberArgs[]",
          "name": "members",
          "type": "tuple[]"
        }
      ],
      "name": "initMember",
      "outputs": [],
      "stateMutability": "nonpayable",
      "type": "function"
    },
    {
      "inputs": [
        {
          "internalType": "uint256",
          "name": "id",
          "type": "uint256"
        }
      ],
      "name": "remove",
      "outputs": [],
      "stateMutability": "nonpayable",
      "type": "function"
    },
    {
      "inputs": [
        {
          "internalType": "address",
          "name": "owner",
          "type": "address"
        },
        {
          "components": [
            {
              "internalType": "uint256",
              "name": "id",
              "type": "uint256"
            },
            {
              "internalType": "string",
              "name": "name",
              "type": "string"
            },
            {
              "internalType": "string",
              "name": "description",
              "type": "string"
            },
            {
              "internalType": "string",
              "name": "image",
              "type": "string"
            },
            {
              "internalType": "uint32",
              "name": "votes",
              "type": "uint32"
            }
          ],
          "internalType": "struct IMember.Info",
          "name": "info",
          "type": "tuple"
        },
        {
          "internalType": "uint256[]",
          "name": "permissions",
          "type": "uint256[]"
        }
      ],
      "name": "create",
      "outputs": [],
      "stateMutability": "nonpayable",
      "type": "function"
    },
    {
      "inputs": [
        {
          "internalType": "address",
          "name": "owner",
          "type": "address"
        },
        {
          "internalType": "uint256",
          "name": "id",
          "type": "uint256"
        },
        {
          "internalType": "uint32",
          "name": "votes_",
          "type": "uint32"
        },
        {
          "internalType": "uint256[]",
          "name": "permissions",
          "type": "uint256[]"
        },
        {
          "internalType": "string",
          "name": "name",
          "type": "string"
        },
        {
          "internalType": "string",
          "name": "description",
          "type": "string"
        },
        {
          "internalType": "string",
          "name": "image",
          "type": "string"
        }
      ],
      "name": "createFrom",
      "outputs": [],
      "stateMutability": "nonpayable",
      "type": "function"
    },
    {
      "inputs": [
        {
          "internalType": "address",
          "name": "owner",
          "type": "address"
        },
        {
          "components": [
            {
              "internalType": "uint256",
              "name": "id",
              "type": "uint256"
            },
            {
              "internalType": "string",
              "name": "name",
              "type": "string"
            },
            {
              "internalType": "string",
              "name": "description",
              "type": "string"
            },
            {
              "internalType": "string",
              "name": "image",
              "type": "string"
            },
            {
              "internalType": "uint32",
              "name": "votes",
              "type": "uint32"
            }
          ],
          "internalType": "struct IMember.Info",
          "name": "info",
          "type": "tuple"
        },
        {
          "internalType": "uint256[]",
          "name": "permissions",
          "type": "uint256[]"
        }
      ],
      "name": "requestJoin",
      "outputs": [
        {
          "internalType": "uint256",
          "name": "id",
          "type": "uint256"
        }
      ],
      "stateMutability": "nonpayable",
      "type": "function"
    },
    {
      "inputs": [
        {
          "internalType": "uint256",
          "name": "tokenId",
          "type": "uint256"
        }
      ],
      "name": "tokenURI",
      "outputs": [
        {
          "internalType": "string",
          "name": "uri",
          "type": "string"
        }
      ],
      "stateMutability": "view",
      "type": "function"
    },
    {
      "inputs": [],
      "name": "votes",
      "outputs": [
        {
          "internalType": "uint256",
          "name": "",
          "type": "uint256"
        }
      ],
      "stateMutability": "view",
      "type": "function"
    },
    {
      "inputs": [
        {
          "internalType": "uint256",
          "name": "id",
          "type": "uint256"
        }
      ],
      "name": "getMemberInfo",
      "outputs": [
        {
          "components": [
            {
              "internalType": "uint256",
              "name": "id",
              "type": "uint256"
            },
            {
              "internalType": "string",
              "name": "name",
              "type": "string"
            },
            {
              "internalType": "string",
              "name": "description",
              "type": "string"
            },
            {
              "internalType": "string",
              "name": "image",
              "type": "string"
            },
            {
              "internalType": "uint32",
              "name": "votes",
              "type": "uint32"
            }
          ],
          "internalType": "struct IMember.Info",
          "name": "",
          "type": "tuple"
        }
      ],
      "stateMutability": "view",
      "type": "function"
    },
    {
      "inputs": [
        {
          "internalType": "uint256",
          "name": "id",
          "type": "uint256"
        },
        {
          "internalType": "string",
          "name": "name",
          "type": "string"
        },
        {
          "internalType": "string",
          "name": "description",
          "type": "string"
        },
        {
          "internalType": "string",
          "name": "image",
          "type": "string"
        }
      ],
      "name": "setMemberInfo",
      "outputs": [],
      "stateMutability": "nonpayable",
      "type": "function"
    },
    {
      "inputs": [
        {
          "internalType": "uint256",
          "name": "id",
          "type": "uint256"
        },
        {
          "components": [
            {
              "internalType": "uint256",
              "name": "id",
              "type": "uint256"
            },
            {
              "internalType": "string",
              "name": "name",
              "type": "string"
            },
            {
              "internalType": "string",
              "name": "description",
              "type": "string"
            },
            {
              "internalType": "string",
              "name": "image",
              "type": "string"
            },
            {
              "internalType": "uint32",
              "name": "votes",
              "type": "uint32"
            }
          ],
          "internalType": "struct IMember.Info",
          "name": "info",
          "type": "tuple"
        }
      ],
      "name": "setInfo",
      "outputs": [],
      "stateMutability": "nonpayable",
      "type": "function"
    },
    {
      "inputs": [
        {
          "internalType": "uint256",
          "name": "index",
          "type": "uint256"
        }
      ],
      "name": "indexAt",
      "outputs": [
        {
          "components": [
            {
              "internalType": "uint256",
              "name": "id",
              "type": "uint256"
            },
            {
              "internalType": "string",
              "name": "name",
              "type": "string"
            },
            {
              "internalType": "string",
              "name": "description",
              "type": "string"
            },
            {
              "internalType": "string",
              "name": "image",
              "type": "string"
            },
            {
              "internalType": "uint32",
              "name": "votes",
              "type": "uint32"
            }
          ],
          "internalType": "struct IMember.Info",
          "name": "",
          "type": "tuple"
        }
      ],
      "stateMutability": "view",
      "type": "function"
    },
    {
      "inputs": [
        {
          "internalType": "address",
          "name": "spender",
          "type": "address"
        },
        {
          "internalType": "uint256",
          "name": "id",
          "type": "uint256"
        }
      ],
      "name": "isApprovedOrOwner",
      "outputs": [
        {
          "internalType": "bool",
          "name": "",
          "type": "bool"
        }
      ],
      "stateMutability": "view",
      "type": "function"
    },
    {
      "inputs": [],
      "name": "total",
      "outputs": [
        {
          "internalType": "uint256",
          "name": "",
          "type": "uint256"
        }
      ],
      "stateMutability": "view",
      "type": "function"
    },
    {
      "inputs": [],
      "name": "executor",
      "outputs": [
        {
          "internalType": "uint256",
          "name": "",
          "type": "uint256"
        }
      ],
      "stateMutability": "view",
      "type": "function"
    },
    {
      "inputs": [
        {
          "internalType": "uint256",
          "name": "id",
          "type": "uint256"
        }
      ],
      "name": "setExecutor",
      "outputs": [],
      "stateMutability": "nonpayable",
      "type": "function"
    },
    {
      "inputs": [
        {
          "internalType": "address",
          "name": "owner",
          "type": "address"
        },
        {
          "internalType": "uint256",
          "name": "action",
          "type": "uint256"
        }
      ],
      "name": "isPermission",
      "outputs": [
        {
          "internalType": "bool",
          "name": "",
          "type": "bool"
        }
      ],
      "stateMutability": "view",
      "type": "function"
    },
    {
      "inputs": [
        {
          "internalType": "uint256",
          "name": "id",
          "type": "uint256"
        },
        {
          "internalType": "uint256",
          "name": "action",
          "type": "uint256"
        }
      ],
      "name": "isPermissionFrom",
      "outputs": [
        {
          "internalType": "bool",
          "name": "",
          "type": "bool"
        }
      ],
      "stateMutability": "view",
      "type": "function"
    },
    {
      "inputs": [
        {
          "internalType": "uint256",
          "name": "id",
          "type": "uint256"
        },
        {
          "internalType": "uint256[]",
          "name": "addActions",
          "type": "uint256[]"
        },
        {
          "internalType": "uint256[]",
          "name": "removeActions",
          "type": "uint256[]"
        }
      ],
      "name": "setPermissions",
      "outputs": [],
      "stateMutability": "nonpayable",
      "type": "function"
    },
    {
      "inputs": [
        {
          "internalType": "uint256",
          "name": "id",
          "type": "uint256"
        },
        {
          "internalType": "int32",
          "name": "votes",
          "type": "int32"
        }
      ],
      "name": "addVotes",
      "outputs": [],
      "stateMutability": "nonpayable",
      "type": "function"
    },
    {
      "inputs": [
        {
          "internalType": "uint256",
          "name": "from",
          "type": "uint256"
        },
        {
          "internalType": "uint256",
          "name": "to",
          "type": "uint256"
        },
        {
          "internalType": "uint32",
          "name": "votes",
          "type": "uint32"
        }
      ],
      "name": "transferVotes",
      "outputs": [],
      "stateMutability": "nonpayable",
      "type": "function"
    }
  ],
  "bytecode": "0x608060405234801561001057600080fd5b506141e0806100206000396000f3fe608060405234801561001057600080fd5b506004361061028a5760003560e01c80636c0360eb1161015c578063ae99aa3c116100ce578063df267f6b11610087578063df267f6b146105bd578063e168c3ec146105d0578063e8a3d485146105d8578063e985e9c5146105e0578063f0bf2aa71461061c578063f437bc591461062f57600080fd5b8063ae99aa3c14610556578063b3ab15fb14610569578063b641ee421461057c578063b88d4fde1461058f578063c34c08e5146105a2578063c87b56dd146105aa57600080fd5b806395d89b411161012057806395d89b41146104e2578063a22cb465146104ea578063a42bbccd146104fd578063a5fa37051461051d578063a8a555c514610530578063aba617911461054357600080fd5b80636c0360eb1461049b57806370a08231146104a35780637284e416146104b65780638abf6077146104be57806390c3f38f146104cf57600080fd5b80632ddbd13a116102005780634f558e79116101b95780634f558e791461042b5780634f6ccce71461043e578063570ca735146104515780635a93b4d6146104625780635e7dc20b146104755780636352211e1461048857600080fd5b80632ddbd13a146103c45780632f745c59146103cc57806342842e0e146103df578063430c2081146103f25780634c6e425b146104055780634cc822151461041857600080fd5b8063095ea7b311610252578063095ea7b31461034f57806313c514101461036257806318160ddd1461037557806319110b3b1461038b5780631fc599e51461039e57806323b872dd146103b157600080fd5b806301ffc9a71461028f57806306fdde03146102d157806307dc4526146102e6578063081812fc146102fb5780630900f0101461033c575b600080fd5b6102bc61029d36600461305c565b6001600160e01b03191660009081526001602052604090205460ff1690565b60405190151581526020015b60405180910390f35b6102d9610640565b6040516102c891906130c9565b6102f96102f43660046130dc565b6106d2565b005b6103246103093660046130dc565b6000908152601160205260409020546001600160a01b031690565b6040516001600160a01b0390911681526020016102c8565b6102f961034a36600461311a565b610736565b6102f961035d366004613137565b61079a565b6102f9610370366004613278565b610826565b61037d6108dc565b6040519081526020016102c8565b6102f961039936600461331d565b6108ed565b6102f96103ac366004613489565b610a2e565b6102f96103bf3660046134fe565b610b55565b61037d610bab565b61037d6103da366004613137565b610bb7565b6102f96103ed3660046134fe565b610be2565b6102bc610400366004613137565b610bfd565b6102f961041336600461305c565b610c09565b6102f96104263660046130dc565b610c57565b6102bc6104393660046130dc565b610d47565b61037d61044c3660046130dc565b610d52565b6003546001600160a01b0316610324565b6102f961047036600461353f565b610d68565b6102bc61048336600461357e565b610e7e565b6103246104963660046130dc565b610e99565b6102d9610ecf565b61037d6104b136600461311a565b610ede565b6102d9610eff565b6000546001600160a01b0316610324565b6102f96104dd3660046135a0565b610f0e565b6102d961105f565b6102f96104f83660046135e2565b61106e565b61051061050b3660046130dc565b611103565b6040516102c8919061368a565b6102f961052b36600461369d565b61130e565b6102bc61053e366004613137565b611326565b6102f96105513660046136e3565b611386565b6105106105643660046130dc565b6114ab565b6102f961057736600461311a565b6114ef565b6102f961058a3660046137ff565b611553565b6102f961059d3660046138cb565b61160a565b601b5461037d565b6102d96105b83660046130dc565b61163d565b61037d6105cb366004613489565b6117a8565b601a5461037d565b6102d9611c0e565b6102bc6105ee36600461393e565b6001600160a01b03918216600090815260126020908152604080832093909416825291909152205460ff1690565b6102f961062a36600461396c565b611ce1565b6002546001600160a01b0316610324565b60606013805461064f90613a43565b80601f016020809104026020016040519081016040528092919081815260200182805461067b90613a43565b80156106c85780601f1061069d576101008083540402835291602001916106c8565b820191906000526020600020905b8154815290600101906020018083116106ab57829003601f168201915b5050505050905090565b6106da611e39565b6106f757604051631b4004a360e31b815260040160405180910390fd5b61070081611f78565b601b8190556040516001600160a01b038216815260089060008051602061418b833981519152906020015b60405180910390a250565b61073e611e39565b61075b57604051631b4004a360e31b815260040160405180910390fd5b600080546001600160a01b0319166001600160a01b03831690811790915560405190815260039060008051602061418b8339815191529060200161072b565b60006107a582610e99565b9050806001600160a01b0316836001600160a01b0316036107d9576040516365f090f760e01b815260040160405180910390fd5b336001600160a01b038216148015906107f957506107f781336105ee565b155b156108175760405163d3a3274560e01b815260040160405180910390fd5b6108218383611f9e565b505050565b3361083085610e99565b6001600160a01b03161461085757604051630782484160e21b815260040160405180910390fd5b600084815260176020526040902083511561087c576001810161087a8582613abd565b505b82511561089357600281016108918482613abd565b505b8151156108aa57600381016108a88382613abd565b505b60405185907f164f7b2ab803097dab5e39f06d2e4f3c3ddc5d4171abbdcc3e76443b8359c7f590600090a25050505050565b60006108e8600e61200c565b905090565b6108f5611e39565b61091257604051631b4004a360e31b815260040160405180910390fd5b61091b83611f78565b61092482611f78565b6000838152601760205260408082208483529120600482015463ffffffff8085169116101561096657604051631297a51960e11b815260040160405180910390fd5b60048201805484919060009061098390849063ffffffff16613b92565b92506101000a81548163ffffffff021916908363ffffffff160217905550828160040160008282829054906101000a900463ffffffff166109c49190613baf565b92506101000a81548163ffffffff021916908363ffffffff16021790555083857f9954d88d42b9655d95479ca03a829c7718c1f2154aa6181772ffdbdcd7db0dd685604051610a1f919063ffffffff91909116815260200190565b60405180910390a35050505050565b6322a25870610a3b611e39565b610b4457600260009054906101000a90046001600160a01b03166001600160a01b031663e3f6b5446040518163ffffffff1660e01b8152600401602060405180830381865afa158015610a92573d6000803e3d6000fd5b505050506040513d601f19601f82011682018060405250810190610ab69190613bcc565b60405163a8a555c560e01b8152336004820152602481018390526001600160a01b03919091169063a8a555c590604401602060405180830381865afa158015610b03573d6000803e3d6000fd5b505050506040513d601f19601f82011682018060405250810190610b279190613be9565b610b4457604051630782484160e21b815260040160405180910390fd5b610b4f848484612017565b50505050565b610b5f3382612130565b610b7c5760405163d3a3274560e01b815260040160405180910390fd5b610b97838383604051806020016040528060008152506121d6565b604080516020810190915260009052505050565b60006108e860186122dc565b6001600160a01b0382166000908152600d60205260408120610bd990836122e6565b90505b92915050565b6108218383836040518060200160405280600081525061160a565b6000610bd98383612130565b6001600160e01b0319811660009081526001602052604090205460ff16610c5457604051632aae78ef60e01b81526001600160e01b0319821660048201526024015b60405180910390fd5b50565b610c613382610bfd565b158015610c735750610c71611e39565b155b15610c9157604051630782484160e21b815260040160405180910390fd5b610c9a816122f2565b600081815260176020526040812060040154601a805463ffffffff909216929091610cc6908490613c06565b90915550506000818152601760205260408120818155908181610cec6001830182612fa0565b610cfa600283016000612fa0565b610d08600383016000612fa0565b50600401805463ffffffff191690556005820160008181610d298282612fda565b505050505050610d438160186123bb90919063ffffffff16565b5050565b6000610bdc826123c7565b600080610d60600e846123d4565b509392505050565b610d70611e39565b610d8d57604051631b4004a360e31b815260040160405180910390fd5b610d9683611f78565b6000838152601760205260408120600501905b8351811015610df157610dde848281518110610dc757610dc7613c19565b6020026020010151836123f290919063ffffffff16565b5080610de981613c2f565b915050610da9565b5060005b8251811015610e3d57610e2a838281518110610e1357610e13613c19565b6020026020010151836123bb90919063ffffffff16565b5080610e3581613c2f565b915050610df5565b50837fee0225f6c1d2854b8b02e112f397db222521f304566aca2f42b09c80e86f47bc8484604051610e70929190613c83565b60405180910390a250505050565b6000828152601760205260408120610bd990600501836123fe565b600080610ea7600e84612416565b9250905080610ec957604051635449cd4560e01b815260040160405180910390fd5b50919050565b60606016805461064f90613a43565b6001600160a01b0381166000908152600d60205260408120610bdc906122dc565b60606004805461064f90613a43565b63d0a4ad96610f1b611e39565b61102457600260009054906101000a90046001600160a01b03166001600160a01b031663e3f6b5446040518163ffffffff1660e01b8152600401602060405180830381865afa158015610f72573d6000803e3d6000fd5b505050506040513d601f19601f82011682018060405250810190610f969190613bcc565b60405163a8a555c560e01b8152336004820152602481018390526001600160a01b03919091169063a8a555c590604401602060405180830381865afa158015610fe3573d6000803e3d6000fd5b505050506040513d601f19601f820116820180604052508101906110079190613be9565b61102457604051630782484160e21b815260040160405180910390fd5b60046110308382613abd565b50600160008051602061418b833981519152600060405161105391815260200190565b60405180910390a25050565b60606014805461064f90613a43565b336001600160a01b038316036110975760405163064256a360e21b815260040160405180910390fd5b3360008181526012602090815260408083206001600160a01b03871680855290835292819020805460ff191686151590811790915590519081529192917f17307eab39ab6107e8899845ad3d59bd9653f200f220920489ca2b5937696c31910160405180910390a35050565b61110b612ff8565b6017600061111a6018856122e6565b81526020019081526020016000206000016040518060a00160405290816000820154815260200160018201805461115090613a43565b80601f016020809104026020016040519081016040528092919081815260200182805461117c90613a43565b80156111c95780601f1061119e576101008083540402835291602001916111c9565b820191906000526020600020905b8154815290600101906020018083116111ac57829003601f168201915b505050505081526020016002820180546111e290613a43565b80601f016020809104026020016040519081016040528092919081815260200182805461120e90613a43565b801561125b5780601f106112305761010080835404028352916020019161125b565b820191906000526020600020905b81548152906001019060200180831161123e57829003601f168201915b5050505050815260200160038201805461127490613a43565b80601f01602080910402602001604051908101604052809291908181526020018280546112a090613a43565b80156112ed5780601f106112c2576101008083540402835291602001916112ed565b820191906000526020600020905b8154815290600101906020018083116112d057829003601f168201915b50505091835250506004919091015463ffffffff1660209091015292915050565b610d4382826020015183604001518460600151610826565b60008061133284610ede565b905060005b8181101561137b57600061134b8683610bb7565b90506113578186610e7e565b156113685760019350505050610bdc565b508061137381613c2f565b915050611337565b506000949350505050565b61138e611e39565b6113ab57604051631b4004a360e31b815260040160405180910390fd5b6113b482611f78565b6000828152601760205260408120600481018054919284926113dd90849063ffffffff16613baf565b92506101000a81548163ffffffff021916908363ffffffff1602179055508163ffffffff16601a60008282546114139190613cb1565b90915550506000600383900b13156114695760405163ffffffff8316815283906000907f9954d88d42b9655d95479ca03a829c7718c1f2154aa6181772ffdbdcd7db0dd6906020015b60405180910390a3505050565b6000837f9954d88d42b9655d95479ca03a829c7718c1f2154aa6181772ffdbdcd7db0dd661149685613cc4565b60405163ffffffff909116815260200161145c565b6114b3612ff8565b6114bc82611f78565b600082815260176020908152604091829020825160a0810190935280548352600181018054919284019161115090613a43565b6114f7611e39565b61151457604051631b4004a360e31b815260040160405180910390fd5b600380546001600160a01b0319166001600160a01b03831690811790915560405190815260029060008051602061418b8339815191529060200161072b565b61155e868584612425565b6115688586612489565b6115786323fc76b960e01b6124d3565b61158183612555565b60005b8151811015611601576115ef8282815181106115a2576115a2613c19565b6020026020010151600001518383815181106115c0576115c0613c19565b6020026020010151602001518484815181106115de576115de613c19565b602002602001015160400151612017565b806115f981613c2f565b915050611584565b50505050505050565b6116143383612130565b6116315760405163d3a3274560e01b815260040160405180910390fd5b610b4f84848484612561565b6000818152601760205260408120600181018054606093916116e59161166290613a43565b80601f016020809104026020016040519081016040528092919081815260200182805461168e90613a43565b80156116db5780601f106116b0576101008083540402835291602001916116db565b820191906000526020600020905b8154815290600101906020018083116116be57829003601f168201915b505050505061257e565b6040516020016116f59190613ce7565b6040516020818303038152906040529050600061171a83600201805461166290613a43565b60405160200161172a9190613d18565b6040516020818303038152906040529050600061174f84600301805461166290613a43565b60405160200161175f9190613d50565b6040516020818303038152906040529050611778610ecf565b83838360405160200161178e9493929190613d82565b604051602081830303815290604052945050505050919050565b60006001600160a01b0384166117d157604051635bb7a72360e01b815260040160405180910390fd5b82516117dc906123c7565b156117fa5760405163700a84a960e11b815260040160405180910390fd5b600061180861138843613dd9565b9050611813336126d6565b61181c826126ec565b60405160200161182d929190613dfb565b60408051601f19818403018152828252805160209182012060025463ebf0c71760e01b855292519095506001600160a01b039092169263ebf0c71792600480830193928290030181865afa158015611889573d6000803e3d6000fd5b505050506040513d601f19601f820116820180604052508101906118ad9190613bcc565b6001600160a01b0316634f558e79836040518263ffffffff1660e01b81526004016118da91815260200190565b602060405180830381865afa1580156118f7573d6000803e3d6000fd5b505050506040513d601f19601f8201168201806040525081019061191b9190613be9565b156119395760405163a1ee858560e01b815260040160405180910390fd5b6040805160018082528183019092526000916020808301908036833750506040805160018082528183019092529293506000929150602082015b6060815260200190600190039081611973579050509050308260008151811061199e5761199e613c19565b6001600160a01b0390921660209283029190910190910152604051631fc599e560e01b906119d490899089908990602401613e44565b604051602081830303815290604052906001600160e01b0319166020820180516001600160e01b03838183161783525050505081600081518110611a1a57611a1a613c19565b6020026020010181905250611ac960405180610260016040528060008152602001606081526020016060815260200160006001600160a01b031681526020016000815260200160608152602001600081526020016000815260200160008152602001600081526020016000815260200160008152602001600081526020016000815260200160008152602001600015158152602001600015158152602001600015158152602001606081525090565b84815260006080820181905260a0820184905260c082018190526113896101008301526101208201819052610140820152604080518082018252601381527272657175657374206a6f696e20746f2044414f60681b6020808301919091528084019190915288810151828401526102408301849052600254825163ebf0c71760e01b815292516001600160a01b039091169263ebf0c7179260048083019391928290030181865afa158015611b82573d6000803e3d6000fd5b505050506040513d601f19601f82011682018060405250810190611ba69190613bcc565b6001600160a01b031663878e5e52826040518263ffffffff1660e01b8152600401611bd19190613f12565b600060405180830381600087803b158015611beb57600080fd5b505af1158015611bff573d6000803e3d6000fd5b50505050505050509392505050565b600254604080516338d52e0f60e01b815290516060926001600160a01b0316916338d52e0f9160048083019260209291908290030181865afa158015611c58573d6000803e3d6000fd5b505050506040513d601f19601f82011682018060405250810190611c7c9190613bcc565b6001600160a01b031663e8a3d4856040518163ffffffff1660e01b8152600401600060405180830381865afa158015611cb9573d6000803e3d6000fd5b505050506040513d6000823e601f3d908101601f191682016040526108e8919081019061406d565b6322a25870611cee611e39565b611df757600260009054906101000a90046001600160a01b03166001600160a01b031663e3f6b5446040518163ffffffff1660e01b8152600401602060405180830381865afa158015611d45573d6000803e3d6000fd5b505050506040513d601f19601f82011682018060405250810190611d699190613bcc565b60405163a8a555c560e01b8152336004820152602481018390526001600160a01b03919091169063a8a555c590604401602060405180830381865afa158015611db6573d6000803e3d6000fd5b505050506040513d601f19601f82011682018060405250810190611dda9190613be9565b611df757604051630782484160e21b815260040160405180910390fd5b611dff612ff8565b8781526020810185905263ffffffff871660808201526060810183905260408101849052611e2e898288612017565b505050505050505050565b60035460009033906001600160a01b03168114611f7057600260009054906101000a90046001600160a01b03166001600160a01b031663570ca7356040518163ffffffff1660e01b8152600401602060405180830381865afa158015611ea3573d6000803e3d6000fd5b505050506040513d601f19601f82011682018060405250810190611ec79190613bcc565b6001600160a01b0316816001600160a01b031614611f7057600260009054906101000a90046001600160a01b03166001600160a01b031663ebf0c7176040518163ffffffff1660e01b8152600401602060405180830381865afa158015611f32573d6000803e3d6000fd5b505050506040513d601f19601f82011682018060405250810190611f569190613bcc565b6001600160a01b0316816001600160a01b03161491505090565b600191505090565b611f81816123c7565b610c5457604051637f5c5df960e01b815260040160405180910390fd5b600081815260116020526040902080546001600160a01b0319166001600160a01b0384169081179091558190611fd382610e99565b6001600160a01b03167f8c5be1e5ebec7d5bd14f71427d1e84f3dd0314c0f7b2291e5b200ac8c7c3b92560405160405180910390a45050565b6000610bdc8261277e565b612025838360000151612789565b815160009081526017602090815260409091208351815590830151819060018201906120519082613abd565b50604084015160028201906120669082613abd565b506060840151600382019061207b9082613abd565b50608084015163ffffffff1615612096578360800151612099565b60015b60048201805463ffffffff191663ffffffff929092169182179055601a80546000906120c6908490613cb1565b909155505083516120d9906018906123f2565b5060005b8351811015612128576121158482815181106120fb576120fb613c19565b6020026020010151846005016123f290919063ffffffff16565b508061212081613c2f565b9150506120dd565b505050505050565b600061213b826123c7565b61215857604051635449cd4560e01b815260040160405180910390fd5b600061216383610e99565b9050806001600160a01b0316846001600160a01b0316148061219e57506000838152601160205260409020546001600160a01b038581169116145b806121ce57506001600160a01b0380821660009081526012602090815260408083209388168352929052205460ff165b949350505050565b836001600160a01b03166121e983610e99565b6001600160a01b03161461221057604051630898381960e11b815260040160405180910390fd5b6001600160a01b03831661223757604051635bb7a72360e01b815260040160405180910390fd5b612242600083611f9e565b6001600160a01b0384166000908152600d6020526040902061226490836123bb565b506001600160a01b0383166000908152600d6020526040902061228790836123f2565b50612294600e838561284d565b5081836001600160a01b0316856001600160a01b03167fddf252ad1be2c89b69c2b068fc378daa952ba7f163c4a11628f55a4df523b3ef60405160405180910390a450505050565b6000610bdc825490565b6000610bd98383612863565b60006122fd82610e99565b6040805160208101909152600090529050612319600083611f9e565b6000828152601560205260409020805461233290613a43565b15905061235057600082815260156020526040812061235091612fa0565b6001600160a01b0381166000908152600d6020526040902061237290836123bb565b5061237e600e8361288d565b5060405182906000906001600160a01b038416907fddf252ad1be2c89b69c2b068fc378daa952ba7f163c4a11628f55a4df523b3ef908390a45050565b6000610bd98383612899565b6000610bdc600e8361298c565b60008080806123e38686612998565b909450925050505b9250929050565b6000610bd983836129c3565b60008181526001830160205260408120541515610bd9565b60008080806123e38686612a12565b61242d612a4c565b61243d630d64f40d60e31b6124d3565b600280546001600160a01b0319166001600160a01b03851617905560046124648382613abd565b50600380546001600160a01b0319166001600160a01b03929092169190911790555050565b60136124958382613abd565b5060146124a28282613abd565b506124b36380ac58cd60e01b612b7f565b6124c3635b5e139f60e01b612b7f565b610d4363780e9d6360e01b612b7f565b6001600160e01b0319808216900361252d5760405162461bcd60e51b815260206004820152601c60248201527f4552433136353a20696e76616c696420696e74657266616365206964000000006044820152606401610c4b565b6001600160e01b0319166000908152600160208190526040909120805460ff19169091179055565b6016610d438282613abd565b61256d848484846121d6565b61257984848484612b88565b610b4f565b606060008251600261259091906140da565b6001600160401b038111156125a7576125a7613163565b6040519080825280601f01601f1916602001820160405280156125d1576020820181803683370190505b50905060005b83518110156126cf5760008482815181106125f4576125f4613c19565b016020015160f881901c91506f181899199a1a9b1b9c1cb0b131b232b360811b9060fc1c6010811061262857612628613c19565b1a60f81b83600184901b8151811061264257612642613c19565b60200101906001600160f81b031916908160001a9053506f181899199a1a9b1b9c1cb0b131b232b360811b600f82166010811061268157612681613c19565b1a60f81b83612694600185811b90613cb1565b815181106126a4576126a4613c19565b60200101906001600160f81b031916908160001a9053505080806126c790613c2f565b9150506125d7565b5092915050565b6060610bdc6001600160a01b0383166014612c2e565b606060006126f983612dc9565b60010190506000816001600160401b0381111561271857612718613163565b6040519080825280601f01601f191660200182016040528015612742576020820181803683370190505b5090508181016020015b600019016f181899199a1a9b1b9c1cb0b131b232b360811b600a86061a8153600a850494508461274c57509392505050565b6000610bdc826122dc565b612792816123c7565b156127b05760405163082c3a4f60e01b815260040160405180910390fd5b6001600160a01b0382166127d757604051635bb7a72360e01b815260040160405180910390fd5b60408051602080820183526000918290526001600160a01b0385168252600d90522061280390826123f2565b50612810600e828461284d565b5060405181906001600160a01b038416906000907fddf252ad1be2c89b69c2b068fc378daa952ba7f163c4a11628f55a4df523b3ef908290a45050565b60006121ce84846001600160a01b038516612ea1565b600082600001828154811061287a5761287a613c19565b9060005260206000200154905092915050565b6000610bd98383612ebe565b600081815260018301602052604081205480156129825760006128bd600183613c06565b85549091506000906128d190600190613c06565b90508181146129365760008660000182815481106128f1576128f1613c19565b906000526020600020015490508087600001848154811061291457612914613c19565b6000918252602080832090910192909255918252600188019052604090208390555b8554869080612947576129476140f1565b600190038181906000526020600020016000905590558560010160008681526020019081526020016000206000905560019350505050610bdc565b6000915050610bdc565b6000610bd98383612edb565b600080806129a685856122e6565b600081815260029690960160205260409095205494959350505050565b6000818152600183016020526040812054612a0a57508154600181810184556000848152602080822090930184905584548482528286019093526040902091909155610bdc565b506000610bdc565b6000818152600283016020526040812054819080612a4157612a348585612edb565b9250600091506123eb9050565b6001925090506123eb565b600054600160a81b900460ff1615808015612a7457506000546001600160a01b90910460ff16105b80612a955750303b158015612a955750600054600160a01b900460ff166001145b612af85760405162461bcd60e51b815260206004820152602e60248201527f496e697469616c697a61626c653a20636f6e747261637420697320616c72656160448201526d191e481a5b9a5d1a585b1a5e995960921b6064820152608401610c4b565b6000805460ff60a01b1916600160a01b1790558015612b25576000805460ff60a81b1916600160a81b1790555b612b356301ffc9a760e01b6124d3565b8015610c54576000805460ff60a81b19169055604051600181527f7f26b83ff96e1f2b6a682f133852f6798a09c465da95921460cefb38474024989060200160405180910390a150565b610c54816124d3565b6001600160a01b0383163b15610b4f576000630a85bd0160e11b33868585604051602401612bb99493929190614107565b60408051601f198184030181529190526020810180516001600160e01b03166001600160e01b0319909316929092179091529050630a85bd0160e11b612bff8583612ee7565b6001600160e01b03191614612c27576040516342eac10f60e11b815260040160405180910390fd5b5050505050565b60606000612c3d8360026140da565b612c48906002613cb1565b6001600160401b03811115612c5f57612c5f613163565b6040519080825280601f01601f191660200182016040528015612c89576020820181803683370190505b509050600360fc1b81600081518110612ca457612ca4613c19565b60200101906001600160f81b031916908160001a905350600f60fb1b81600181518110612cd357612cd3613c19565b60200101906001600160f81b031916908160001a9053506000612cf78460026140da565b612d02906001613cb1565b90505b6001811115612d7a576f181899199a1a9b1b9c1cb0b131b232b360811b85600f1660108110612d3657612d36613c19565b1a60f81b828281518110612d4c57612d4c613c19565b60200101906001600160f81b031916908160001a90535060049490941c93612d738161413a565b9050612d05565b508315610bd95760405162461bcd60e51b815260206004820181905260248201527f537472696e67733a20686578206c656e67746820696e73756666696369656e746044820152606401610c4b565b60008072184f03e93ff9f4daa797ed6e38ed64bf6a1f0160401b8310612e085772184f03e93ff9f4daa797ed6e38ed64bf6a1f0160401b830492506040015b6d04ee2d6d415b85acef81000000008310612e34576d04ee2d6d415b85acef8100000000830492506020015b662386f26fc100008310612e5257662386f26fc10000830492506010015b6305f5e1008310612e6a576305f5e100830492506008015b6127108310612e7e57612710830492506004015b60648310612e90576064830492506002015b600a8310610bdc5760010192915050565b600082815260028401602052604081208290556121ce84846123f2565b60008181526002830160205260408120819055610bd983836123bb565b6000610bd983836123fe565b6000806000846001600160a01b031684604051612f049190614151565b6000604051808303816000865af19150503d8060008114612f41576040519150601f19603f3d011682016040523d82523d6000602084013e612f46565b606091505b50915091508115612f6e5780806020019051810190612f65919061416d565b92505050610bdc565b805115612f7e5780518082602001fd5b60405162461bcd60e51b81526020600482015260006024820152604401610c4b565b508054612fac90613a43565b6000825580601f10612fbc575050565b601f016020900490600052602060002090810190610c54919061302d565b5080546000825590600052602060002090810190610c54919061302d565b6040518060a0016040528060008152602001606081526020016060815260200160608152602001600063ffffffff1681525090565b5b80821115613042576000815560010161302e565b5090565b6001600160e01b031981168114610c5457600080fd5b60006020828403121561306e57600080fd5b8135610bd981613046565b60005b8381101561309457818101518382015260200161307c565b50506000910152565b600081518084526130b5816020860160208601613079565b601f01601f19169290920160200192915050565b602081526000610bd9602083018461309d565b6000602082840312156130ee57600080fd5b5035919050565b6001600160a01b0381168114610c5457600080fd5b8035613115816130f5565b919050565b60006020828403121561312c57600080fd5b8135610bd9816130f5565b6000806040838503121561314a57600080fd5b8235613155816130f5565b946020939093013593505050565b634e487b7160e01b600052604160045260246000fd5b60405160a081016001600160401b038111828210171561319b5761319b613163565b60405290565b604051606081016001600160401b038111828210171561319b5761319b613163565b604051601f8201601f191681016001600160401b03811182821017156131eb576131eb613163565b604052919050565b60006001600160401b0382111561320c5761320c613163565b50601f01601f191660200190565b600061322d613228846131f3565b6131c3565b905082815283838301111561324157600080fd5b828260208301376000602084830101529392505050565b600082601f83011261326957600080fd5b610bd98383356020850161321a565b6000806000806080858703121561328e57600080fd5b8435935060208501356001600160401b03808211156132ac57600080fd5b6132b888838901613258565b945060408701359150808211156132ce57600080fd5b6132da88838901613258565b935060608701359150808211156132f057600080fd5b506132fd87828801613258565b91505092959194509250565b803563ffffffff8116811461311557600080fd5b60008060006060848603121561333257600080fd5b833592506020840135915061334960408501613309565b90509250925092565b600060a0828403121561336457600080fd5b61336c613179565b90508135815260208201356001600160401b038082111561338c57600080fd5b61339885838601613258565b602084015260408401359150808211156133b157600080fd5b6133bd85838601613258565b604084015260608401359150808211156133d657600080fd5b506133e384828501613258565b6060830152506133f560808301613309565b608082015292915050565b60006001600160401b0382111561341957613419613163565b5060051b60200190565b600082601f83011261343457600080fd5b8135602061344461322883613400565b82815260059290921b8401810191818101908684111561346357600080fd5b8286015b8481101561347e5780358352918301918301613467565b509695505050505050565b60008060006060848603121561349e57600080fd5b83356134a9816130f5565b925060208401356001600160401b03808211156134c557600080fd5b6134d187838801613352565b935060408601359150808211156134e757600080fd5b506134f486828701613423565b9150509250925092565b60008060006060848603121561351357600080fd5b833561351e816130f5565b9250602084013561352e816130f5565b929592945050506040919091013590565b60008060006060848603121561355457600080fd5b8335925060208401356001600160401b038082111561357257600080fd5b6134d187838801613423565b6000806040838503121561359157600080fd5b50508035926020909101359150565b6000602082840312156135b257600080fd5b81356001600160401b038111156135c857600080fd5b6121ce84828501613258565b8015158114610c5457600080fd5b600080604083850312156135f557600080fd5b8235613600816130f5565b91506020830135613610816135d4565b809150509250929050565b805182526000602082015160a0602085015261363a60a085018261309d565b905060408301518482036040860152613653828261309d565b9150506060830151848203606086015261366d828261309d565b91505063ffffffff60808401511660808501528091505092915050565b602081526000610bd9602083018461361b565b600080604083850312156136b057600080fd5b8235915060208301356001600160401b038111156136cd57600080fd5b6136d985828601613352565b9150509250929050565b600080604083850312156136f657600080fd5b8235915060208301358060030b811461361057600080fd5b600082601f83011261371f57600080fd5b8135602061372f61322883613400565b82815260059290921b8401810191818101908684111561374e57600080fd5b8286015b8481101561347e5780356001600160401b03808211156137725760008081fd5b908801906060828b03601f190181131561378c5760008081fd5b6137946131a1565b878401356137a1816130f5565b8152604084810135848111156137b75760008081fd5b6137c58e8b83890101613352565b838b0152509184013591838311156137dd5760008081fd5b6137eb8d8a85880101613423565b908201528652505050918301918301613752565b60008060008060008060c0878903121561381857600080fd5b6138218761310a565b955060208701356001600160401b038082111561383d57600080fd5b6138498a838b01613258565b9650604089013591508082111561385f57600080fd5b61386b8a838b01613258565b9550606089013591508082111561388157600080fd5b61388d8a838b01613258565b945061389b60808a0161310a565b935060a08901359150808211156138b157600080fd5b506138be89828a0161370e565b9150509295509295509295565b600080600080608085870312156138e157600080fd5b84356138ec816130f5565b935060208501356138fc816130f5565b92506040850135915060608501356001600160401b0381111561391e57600080fd5b8501601f8101871361392f57600080fd5b6132fd8782356020840161321a565b6000806040838503121561395157600080fd5b823561395c816130f5565b91506020830135613610816130f5565b600080600080600080600060e0888a03121561398757600080fd5b6139908861310a565b9650602088013595506139a560408901613309565b945060608801356001600160401b03808211156139c157600080fd5b6139cd8b838c01613423565b955060808a01359150808211156139e357600080fd5b6139ef8b838c01613258565b945060a08a0135915080821115613a0557600080fd5b613a118b838c01613258565b935060c08a0135915080821115613a2757600080fd5b50613a348a828b01613258565b91505092959891949750929550565b600181811c90821680613a5757607f821691505b602082108103610ec957634e487b7160e01b600052602260045260246000fd5b601f82111561082157600081815260208120601f850160051c81016020861015613a9e5750805b601f850160051c820191505b8181101561212857828155600101613aaa565b81516001600160401b03811115613ad657613ad6613163565b613aea81613ae48454613a43565b84613a77565b602080601f831160018114613b1f5760008415613b075750858301515b600019600386901b1c1916600185901b178555612128565b600085815260208120601f198616915b82811015613b4e57888601518255948401946001909101908401613b2f565b5085821015613b6c5787850151600019600388901b60f8161c191681555b5050505050600190811b01905550565b634e487b7160e01b600052601160045260246000fd5b63ffffffff8281168282160390808211156126cf576126cf613b7c565b63ffffffff8181168382160190808211156126cf576126cf613b7c565b600060208284031215613bde57600080fd5b8151610bd9816130f5565b600060208284031215613bfb57600080fd5b8151610bd9816135d4565b81810381811115610bdc57610bdc613b7c565b634e487b7160e01b600052603260045260246000fd5b600060018201613c4157613c41613b7c565b5060010190565b600081518084526020808501945080840160005b83811015613c7857815187529582019590820190600101613c5c565b509495945050505050565b604081526000613c966040830185613c48565b8281036020840152613ca88185613c48565b95945050505050565b80820180821115610bdc57610bdc613b7c565b60008160030b637fffffff198103613cde57613cde613b7c565b60000392915050565b683f6e616d653d30787360b81b815260008251613d0b816009850160208701613079565b9190910160090192915050565b6f266465736372697074696f6e3d30787360801b815260008251613d43816010850160208701613079565b9190910160100192915050565b6926696d6167653d30787360b01b815260008251613d7581600a850160208701613079565b91909101600a0192915050565b60008551613d94818460208a01613079565b855190830190613da8818360208a01613079565b8551910190613dbb818360208901613079565b8451910190613dce818360208801613079565b019695505050505050565b600082613df657634e487b7160e01b600052601260045260246000fd5b500490565b6a3932b8bab2b9ba2537b4b760a91b815260008351613e2181600b850160208801613079565b835190830190613e3881600b840160208801613079565b01600b01949350505050565b6001600160a01b0384168152606060208201819052600090613e689083018561361b565b8281036040840152613e7a8185613c48565b9695505050505050565b600081518084526020808501945080840160005b83811015613c785781516001600160a01b031687529582019590820190600101613e98565b600081518084526020808501808196508360051b8101915082860160005b85811015613f05578284038952613ef384835161309d565b98850198935090840190600101613edb565b5091979650505050505050565b602081528151602082015260006020830151610260806040850152613f3b61028085018361309d565b91506040850151601f1980868503016060870152613f59848361309d565b935060608701519150613f7760808701836001600160a01b03169052565b608087015160a087015260a08701519150808685030160c0870152613f9c8483613e84565b60c088015160e08881019190915288015161010080890191909152880151610120808901919091528801516101408089019190915288015161016080890191909152880151610180808901919091528801516101a0808901919091528801516101c0808901919091528801516101e080890191909152880151909450915061020061402a8188018415159052565b870151915061022061403f8782018415159052565b87015191506102406140548782018415159052565b870151868503909101838701529050613e7a8382613ebd565b60006020828403121561407f57600080fd5b81516001600160401b0381111561409557600080fd5b8201601f810184136140a657600080fd5b80516140b4613228826131f3565b8181528560208385010111156140c957600080fd5b613ca8826020830160208601613079565b8082028115828204841417610bdc57610bdc613b7c565b634e487b7160e01b600052603160045260246000fd5b6001600160a01b0385811682528416602082015260408101839052608060608201819052600090613e7a9083018461309d565b60008161414957614149613b7c565b506000190190565b60008251614163818460208701613079565b9190910192915050565b60006020828403121561417f57600080fd5b8151610bd98161304656fe7016719027ff29c13bc4816903851ea968172a86b766c733b954fdabe53c87eea2646970667358221220c01f973d039b80aa209638615694bff5ceed0741a7707ef9632eae67c66ab68764736f6c63430008110033",
  "immutableReferences": {},
  "source": "// SPDX-License-Identifier: MIT\npragma solidity ~0.8.17;\n\npragma experimental ABIEncoderV2;\n\nimport './Module.sol';\nimport './libs/ERC721.sol';\nimport './libs/Strings.sol';\n\ncontract Member is Module, ERC721, IMember {\n\tusing EnumerableSet for EnumerableSet.UintSet;\n\tusing StringsExp for bytes;\n\tusing Strings for uint256;\n\tusing Strings for address;\n\n\tstruct Info_ {\n\t\tInfo                  info;\n\t\tEnumerableSet.UintSet permissions; // permissions\n\t}\n\n\tmapping(uint256=>Info_) private  _infoMap; // member info, member id => member info\n\tEnumerableSet.UintSet   private  _infoList; // member table list\n\tuint256                 private  _votes; // all vote total\n\tuint256                 internal _executor; // executor\n\tuint256[16]             private  __; // reserved storage space\n\n\tstruct MintMemberArgs {\n\t\taddress   owner;\n\t\tInfo      info;\n\t\tuint256[] permissions;\n\t}\n\n\tfunction _registerInterface721(bytes4 interfaceId) internal override {\n\t\tERC165._registerInterface(interfaceId);\n\t}\n\n\t// compatible with opensea\n\tfunction contractURI() view public override returns (string memory uri) {\n\t\turi = _host.asset().contractURI();\n\t}\n\n\tfunction initMember(\n\t\taddress host, string memory name, string memory description,\n\t\tstring memory baseURI, address operator, MintMemberArgs[] memory members) external\n\t{\n\t\tinitModule(host, description, operator);\n\t\tinitERC721(name, name);\n\t\t_registerInterface(Member_Type);\n\t\t_setBaseURI(baseURI);\n\n\t\tfor (uint256 i = 0; i < members.length; i++)\n\t\t\tmint(members[i].owner, members[i].info, members[i].permissions);\n\t}\n\n\tfunction mint(address owner, Info memory info, uint256[] memory permissions) private {\n\t\t_mint(owner, info.id);\n\n\t\tInfo_ storage i0   = _infoMap[info.id];\n\t\tInfo  storage info_= i0.info;\n\t\tinfo_.id           = info.id;\n\t\tinfo_.name         = info.name;\n\t\tinfo_.description  = info.description;\n\t\tinfo_.image        = info.image;\n\t\tinfo_.votes        = info.votes == 0 ? 1: info.votes; // limit votes to 1\n\n\t\t_votes += info_.votes;\n\n\t\t_infoList.add(info.id);\n\n\t\t// add permissions\n\t\tfor (uint256 i = 0; i < permissions.length; i++)\n\t\t\ti0.permissions.add(permissions[i]);\n\t}\n\n\tfunction remove(uint256 id) public {\n\t\tif (!isApprovedOrOwner(msg.sender, id) && !isPermissionDAO()) revert PermissionDenied();\n\t\t_burn(id);\n\t\t_votes -= _infoMap[id].info.votes;\n\t\tdelete _infoMap[id];\n\t\t_infoList.remove(id);\n\t}\n\n\tfunction create(\n\t\taddress owner, Info memory info, uint256[] memory permissions\n\t) external Check(Action_Member_Create)\n\t{\n\t\tmint(owner, info, permissions);\n\t}\n\n\tfunction createFrom(\n\t\taddress owner,       uint256 id,\n\t\tuint32 votes_,        uint256[] memory permissions,\n\t\tstring memory name,  string memory description, string memory image\n\t) external Check(Action_Member_Create)\n\t{\n\t\tInfo memory info;\n\t\tinfo.id = id;\n\t\tinfo.name = name;\n\t\tinfo.votes = votes_;\n\t\tinfo.image = image;\n\t\tinfo.description = description;\n\t\tmint(owner, info, permissions);\n\t}\n\n\t/**\n\t * @dev request join to DAO, create join vote proposal\n\t */\n\tfunction requestJoin(address owner, Info memory info, uint256[] memory permissions) public returns (uint256 id) {\n\t\tif (owner == address(0)) revert AddressEmpty(); // mint to the zero address\n\t\tif (_exists(info.id)) revert MemberAlreadyExists(); // token already minted\n\n\t\tuint256 salt = block.number / 5000;\n\t\tid = uint256(keccak256(abi.encodePacked(\"requestJoin\", msg.sender.toHexString(), salt.toString())));\n\n\t\tif (IVotePool(_host.root()).exists(id)) revert MemberRequestJoinAlreadyExists();\n\n\t\taddress[] memory target = new address[](1);\n\t\tbytes[] memory data = new bytes[](1);\n\n\t\ttarget[0] = address(this);\n\t\tdata[0] = abi.encodeWithSelector(this.create.selector, owner, info, permissions);\n\n\t\tIVotePool.Proposal memory pro;\n\t\tpro.id          = id;\n\t\tpro.originId    = 0; // member id\n\t\tpro.target      = target;\n\t\tpro.lifespan    = 0;\n\t\tpro.passRate    = 5001;\n\t\tpro.loopCount   = 0;\n\t\tpro.loopTime    = 0;\n\t\tpro.name        = \"request join to DAO\";\n\t\tpro.description = info.name;\n\t\tpro.data        = data;\n\n\t\tIVotePool(_host.root()).create(pro);\n\t}\n\n\t/**\n\t * @dev Returns the token URI of member\n\t */\n\tfunction tokenURI(uint256 tokenId) view public override(ERC721,IERC721Metadata) returns (string memory uri) {\n\t\tInfo storage info = _infoMap[tokenId].info;\n\t\tbytes memory a = abi.encodePacked(\"?name=0xs\",                      bytes(info.name).toHexString());\n\t\tbytes memory b = abi.encodePacked(\"&description=0xs\",               bytes(info.description).toHexString());\n\t\tbytes memory c = abi.encodePacked(\"&image=0xs\",                     bytes(info.image).toHexString());\n\t\turi = string(abi.encodePacked(baseURI(), a, b, c));\n\t}\n\n\t/**\n\t * @dev Returns all votes total\n\t */\n\tfunction votes() view external override returns (uint256) {\n\t\treturn _votes;\n\t}\n\n\tfunction getMemberInfo(uint256 id) view external override returns (Info memory) {\n\t\tcheckExists(id); // info query for nonexistent member\n\t\treturn _infoMap[id].info;\n\t}\n\n\tfunction setMemberInfo(uint256 id, string memory name, string memory description, string memory image) public {\n\t\t// require(ownerOf(id) == _msgSender(), \"#Member#setMemberInfo: owner no match\");\n\t\tif (ownerOf(id) != _msgSender()) revert PermissionDenied();\n\t\tInfo storage info_ = _infoMap[id].info;\n\t\tif (bytes(name).length != 0)        info_.name        = name;\n\t\tif (bytes(description).length != 0) info_.description = description;\n\t\tif (bytes(image).length != 0)       info_.image      = image;\n\t\temit Update(id);\n\t}\n\n\tfunction setInfo(uint256 id, Info memory info) external {\n\t\tsetMemberInfo(id, info.name, info.description, info.image);\n\t}\n\n\tfunction indexAt(uint256 index) view public override returns (Info memory) {\n\t\treturn _infoMap[_infoList.at(index)].info;\n\t}\n\n\tfunction isApprovedOrOwner(address spender, uint256 id) view public returns (bool) {\n\t\treturn _havePermission(spender, id);\n\t}\n\n\t/**\n\t * @dev Returns members total\n\t */\n\tfunction total() view public override returns (uint256) {\n\t\treturn _infoList.length();\n\t}\n\n\tfunction executor() view public returns(uint256) {\n\t\treturn _executor;\n\t}\n\n\tfunction checkExists(uint256 id) view internal {\n\t\tif (!_exists(id)) revert MemberNonExists();\n\t}\n\n\tfunction setExecutor(uint256 id) public OnlyDAO {\n\t\tcheckExists(id); // info query for nonexistent member\n\t\t_executor = id;\n\t\temit Change(Change_Tag_Member_Set_Executor, uint160(id));\n\t}\n\n\tfunction isPermission(address owner, uint256 action) view external override returns (bool) {\n\t\tuint256 len = balanceOf(owner);\n\t\tfor (uint256 i = 0; i < len; i++) {\n\t\t\tuint256 id = tokenOfOwnerByIndex(owner, i);\n\t\t\tif (isPermissionFrom(id, action))\n\t\t\t\treturn true;\n\t\t}\n\t\treturn false;\n\t}\n\n\tfunction isPermissionFrom(uint256 id, uint256 action) view public override returns (bool) {\n\t\treturn _infoMap[id].permissions.contains(action);\n\t}\n\n\tfunction setPermissions(uint256 id, uint256[] memory addActions, uint256[] memory removeActions) external OnlyDAO {\n\t\tcheckExists(id); // check info query for nonexistent member\n\n\t\tEnumerableSet.UintSet storage permissions = _infoMap[id].permissions;\n\t\tfor (uint256 j = 0; j < addActions.length; j++)\n\t\t\tpermissions.add(addActions[j]);\n\t\tfor (uint256 j = 0; j < removeActions.length; j++)\n\t\t\tpermissions.remove(removeActions[j]);\n\t\temit SetPermissions(id, addActions, removeActions);\n\t}\n\n\tfunction addVotes(uint256 id, int32 votes) external OnlyDAO {\n\t\tcheckExists(id); // check info query for nonexistent member\n\n\t\tInfo storage info = _infoMap[id].info;\n\n\t\tinfo.votes += uint32(votes);\n\t\t_votes += uint32(votes);\n\n\t\tif (votes > 0)\n\t\t\temit TransferVotes(0, id, uint32(votes));\n\t\telse\n\t\t\temit TransferVotes(id, 0, uint32(-votes));\n\t}\n\n\tfunction transferVotes(uint256 from, uint256 to, uint32 votes) external OnlyDAO {\n\t\tcheckExists(from); // check info query for nonexistent member from\n\t\tcheckExists(to); // check info query for nonexistent member to\n\n\t\tInfo storage infoFrom = _infoMap[from].info;\n\t\tInfo storage infoTo = _infoMap[to].info;\n\t\t// require(infoFrom.votes >= votes, \"#Member#transferVotes: not votes power enough\");\n\t\tif (infoFrom.votes < votes) revert InsufficientVotesInMember();\n\n\t\tinfoFrom.votes -= uint32(votes);\n\t\tinfoTo.votes += uint32(votes);\n\n\t\temit TransferVotes(from, to, votes);\n\t}\n\n}",
  "sourcePath": "/Users/louis/Project/hc/NFTSwap/SmartHolder/contracts/Member.sol",
  "compiler": {
    "name": "solc",
    "version": "0.8.17+commit.8df45f5f.Emscripten.clang"
  },
  "schemaVersion": "3.4.11",
  "updatedAt": "2023-04-23T06:33:53.029Z",
  "networkType": "ethereum",
  "devdoc": {
    "kind": "dev",
    "methods": {
      "approve(address,uint256)": {
        "details": "Approves another address to transfer the given token ID The zero address indicates there is no approved address. There can only be one approved address per token at a given time. Can only be called by the token owner or an approved operator.",
        "params": {
          "to": "address to be approved for the given token ID",
          "tokenId": "uint256 ID of the token to be approved"
        }
      },
      "balanceOf(address)": {
        "details": "Gets the balance of the specified address.",
        "params": {
          "owner": "address to query the balance of"
        },
        "returns": {
          "_0": "uint256 representing the amount owned by the passed address"
        }
      },
      "baseURI()": {
        "details": "Returns the base URI set via {_setBaseURI}. This will be automatically added as a prefix in {tokenURI} to each token's URI, or to the token ID if no specific URI is set for that token ID."
      },
      "getApproved(uint256)": {
        "details": "Gets the approved address for a token ID, or zero if no address set Reverts if the token ID does not exist.",
        "params": {
          "tokenId": "uint256 ID of the token to query the approval of"
        },
        "returns": {
          "_0": "address currently approved for the given token ID"
        }
      },
      "isApprovedForAll(address,address)": {
        "details": "Tells whether an operator is approved by a given owner.",
        "params": {
          "operator": "operator address which you want to query the approval of",
          "owner": "owner address which you want to query the approval of"
        },
        "returns": {
          "_0": "bool whether the given operator is approved by the given owner"
        }
      },
      "name()": {
        "details": "Gets the token name.",
        "returns": {
          "_0": "string representing the token name"
        }
      },
      "ownerOf(uint256)": {
        "details": "Gets the owner of the specified token ID.",
        "params": {
          "tokenId": "uint256 ID of the token to query the owner of"
        },
        "returns": {
          "owner": "currently marked as the owner of the given token ID"
        }
      },
      "requestJoin(address,(uint256,string,string,string,uint32),uint256[])": {
        "details": "request join to DAO, create join vote proposal"
      },
      "safeTransferFrom(address,address,uint256)": {
        "details": "Safely transfers the ownership of a given token ID to another address If the target address is a contract, it must implement {IERC721Receiver-onERC721Received}, which is called upon a safe transfer, and return the magic value `bytes4(keccak256(\"onERC721Received(address,address,uint256,bytes)\"))`; otherwise, the transfer is reverted. Requires the msg.sender to be the owner, approved, or operator",
        "params": {
          "from": "current owner of the token",
          "to": "address to receive the ownership of the given token ID",
          "tokenId": "uint256 ID of the token to be transferred"
        }
      },
      "safeTransferFrom(address,address,uint256,bytes)": {
        "details": "Safely transfers the ownership of a given token ID to another address If the target address is a contract, it must implement {IERC721Receiver-onERC721Received}, which is called upon a safe transfer, and return the magic value `bytes4(keccak256(\"onERC721Received(address,address,uint256,bytes)\"))`; otherwise, the transfer is reverted. Requires the _msgSender() to be the owner, approved, or operator",
        "params": {
          "_data": "bytes data to send along with a safe transfer check",
          "from": "current owner of the token",
          "to": "address to receive the ownership of the given token ID",
          "tokenId": "uint256 ID of the token to be transferred"
        }
      },
      "setApprovalForAll(address,bool)": {
        "details": "Sets or unsets the approval of a given operator An operator is allowed to transfer all tokens of the sender on their behalf.",
        "params": {
          "approved": "representing the status of the approval to be set",
          "operator": "operator address to set the approval"
        }
      },
      "supportsInterface(bytes4)": {
        "details": "See {IERC165-supportsInterface}. Time complexity O(1), guaranteed to always use less than 30 000 gas."
      },
      "symbol()": {
        "details": "Gets the token symbol.",
        "returns": {
          "_0": "string representing the token symbol"
        }
      },
      "tokenByIndex(uint256)": {
        "details": "Gets the token ID at a given index of all the tokens in this contract Reverts if the index is greater or equal to the total number of tokens.",
        "params": {
          "index": "uint256 representing the index to be accessed of the tokens list"
        },
        "returns": {
          "_0": "uint256 token ID at the given index of the tokens list"
        }
      },
      "tokenOfOwnerByIndex(address,uint256)": {
        "details": "Gets the token ID at a given index of the tokens list of the requested owner.",
        "params": {
          "index": "uint256 representing the index to be accessed of the requested tokens list",
          "owner": "address owning the tokens list to be accessed"
        },
        "returns": {
          "_0": "uint256 token ID at the given index of the tokens list owned by the requested address"
        }
      },
      "tokenURI(uint256)": {
        "details": "Returns the token URI of member"
      },
      "total()": {
        "details": "Returns members total"
      },
      "totalSupply()": {
        "details": "Gets the total amount of tokens stored by the contract.",
        "returns": {
          "_0": "uint256 representing the total amount of tokens"
        }
      },
      "transferFrom(address,address,uint256)": {
        "details": "Transfers the ownership of a given token ID to another address. Usage of this method is discouraged, use {safeTransferFrom} whenever possible. Requires the msg.sender to be the owner, approved, or operator.",
        "params": {
          "from": "current owner of the token",
          "to": "address to receive the ownership of the given token ID",
          "tokenId": "uint256 ID of the token to be transferred"
        }
      },
      "votes()": {
        "details": "Returns all votes total"
      }
    },
    "version": 1
  },
  "userdoc": {
    "kind": "user",
    "methods": {},
    "version": 1
  }
}