{
  "contractName": "Member",
  "abi": [
    {
      "inputs": [],
      "name": "AddressEmpty",
      "type": "error"
    },
    {
      "inputs": [],
      "name": "ApprovalToOwnerInERC721",
      "type": "error"
    },
    {
      "inputs": [],
      "name": "ApproveAllToCallerInERC721",
      "type": "error"
    },
    {
      "inputs": [
        {
          "internalType": "bytes4",
          "name": "interfaceId",
          "type": "bytes4"
        }
      ],
      "name": "CheckInterfaceNoMatch",
      "type": "error"
    },
    {
      "inputs": [],
      "name": "InsufficientVotesInMember",
      "type": "error"
    },
    {
      "inputs": [],
      "name": "MemberAlreadyExists",
      "type": "error"
    },
    {
      "inputs": [],
      "name": "MemberNonExists",
      "type": "error"
    },
    {
      "inputs": [],
      "name": "MemberRequestJoinAlreadyExists",
      "type": "error"
    },
    {
      "inputs": [],
      "name": "NonERC721ReceiverImplementer",
      "type": "error"
    },
    {
      "inputs": [],
      "name": "PermissionDenied",
      "type": "error"
    },
    {
      "inputs": [],
      "name": "PermissionDeniedForOnlyDAO",
      "type": "error"
    },
    {
      "inputs": [],
      "name": "PermissionDeniedInERC721",
      "type": "error"
    },
    {
      "inputs": [],
      "name": "TokenIDAlreadyMintedInERC721",
      "type": "error"
    },
    {
      "inputs": [],
      "name": "TokenIDNonExistentInERC721",
      "type": "error"
    },
    {
      "inputs": [],
      "name": "TransferOfTokenIDThatIsNotOwnInERC721",
      "type": "error"
    },
    {
      "anonymous": false,
      "inputs": [
        {
          "indexed": false,
          "internalType": "uint256[]",
          "name": "ids",
          "type": "uint256[]"
        },
        {
          "indexed": false,
          "internalType": "uint256[]",
          "name": "actions",
          "type": "uint256[]"
        }
      ],
      "name": "AddPermissions",
      "type": "event"
    },
    {
      "anonymous": false,
      "inputs": [
        {
          "indexed": true,
          "internalType": "address",
          "name": "owner",
          "type": "address"
        },
        {
          "indexed": true,
          "internalType": "address",
          "name": "approved",
          "type": "address"
        },
        {
          "indexed": true,
          "internalType": "uint256",
          "name": "tokenId",
          "type": "uint256"
        }
      ],
      "name": "Approval",
      "type": "event"
    },
    {
      "anonymous": false,
      "inputs": [
        {
          "indexed": true,
          "internalType": "address",
          "name": "owner",
          "type": "address"
        },
        {
          "indexed": true,
          "internalType": "address",
          "name": "operator",
          "type": "address"
        },
        {
          "indexed": false,
          "internalType": "bool",
          "name": "approved",
          "type": "bool"
        }
      ],
      "name": "ApprovalForAll",
      "type": "event"
    },
    {
      "anonymous": false,
      "inputs": [
        {
          "indexed": true,
          "internalType": "uint256",
          "name": "tag",
          "type": "uint256"
        },
        {
          "indexed": false,
          "internalType": "uint256",
          "name": "value",
          "type": "uint256"
        }
      ],
      "name": "Change",
      "type": "event"
    },
    {
      "anonymous": false,
      "inputs": [
        {
          "indexed": false,
          "internalType": "uint8",
          "name": "version",
          "type": "uint8"
        }
      ],
      "name": "Initialized",
      "type": "event"
    },
    {
      "anonymous": false,
      "inputs": [
        {
          "indexed": false,
          "internalType": "uint256[]",
          "name": "ids",
          "type": "uint256[]"
        },
        {
          "indexed": false,
          "internalType": "uint256[]",
          "name": "actions",
          "type": "uint256[]"
        }
      ],
      "name": "RemovePermissions",
      "type": "event"
    },
    {
      "anonymous": false,
      "inputs": [
        {
          "indexed": true,
          "internalType": "uint256",
          "name": "id",
          "type": "uint256"
        },
        {
          "indexed": false,
          "internalType": "uint256[]",
          "name": "addActions",
          "type": "uint256[]"
        },
        {
          "indexed": false,
          "internalType": "uint256[]",
          "name": "removeActions",
          "type": "uint256[]"
        }
      ],
      "name": "SetPermissions",
      "type": "event"
    },
    {
      "anonymous": false,
      "inputs": [
        {
          "indexed": true,
          "internalType": "address",
          "name": "from",
          "type": "address"
        },
        {
          "indexed": true,
          "internalType": "address",
          "name": "to",
          "type": "address"
        },
        {
          "indexed": true,
          "internalType": "uint256",
          "name": "tokenId",
          "type": "uint256"
        }
      ],
      "name": "Transfer",
      "type": "event"
    },
    {
      "anonymous": false,
      "inputs": [
        {
          "indexed": true,
          "internalType": "uint256",
          "name": "from",
          "type": "uint256"
        },
        {
          "indexed": true,
          "internalType": "uint256",
          "name": "to",
          "type": "uint256"
        },
        {
          "indexed": false,
          "internalType": "uint32",
          "name": "votes",
          "type": "uint32"
        }
      ],
      "name": "TransferVotes",
      "type": "event"
    },
    {
      "anonymous": false,
      "inputs": [
        {
          "indexed": true,
          "internalType": "uint256",
          "name": "id",
          "type": "uint256"
        }
      ],
      "name": "Update",
      "type": "event"
    },
    {
      "inputs": [
        {
          "internalType": "address",
          "name": "to",
          "type": "address"
        },
        {
          "internalType": "uint256",
          "name": "tokenId",
          "type": "uint256"
        }
      ],
      "name": "approve",
      "outputs": [],
      "stateMutability": "nonpayable",
      "type": "function"
    },
    {
      "inputs": [
        {
          "internalType": "address",
          "name": "owner",
          "type": "address"
        }
      ],
      "name": "balanceOf",
      "outputs": [
        {
          "internalType": "uint256",
          "name": "",
          "type": "uint256"
        }
      ],
      "stateMutability": "view",
      "type": "function",
      "constant": true
    },
    {
      "inputs": [],
      "name": "baseURI",
      "outputs": [
        {
          "internalType": "string",
          "name": "",
          "type": "string"
        }
      ],
      "stateMutability": "view",
      "type": "function",
      "constant": true
    },
    {
      "inputs": [
        {
          "internalType": "bytes4",
          "name": "interfaceId",
          "type": "bytes4"
        }
      ],
      "name": "checkInterface",
      "outputs": [],
      "stateMutability": "view",
      "type": "function",
      "constant": true
    },
    {
      "inputs": [],
      "name": "description",
      "outputs": [
        {
          "internalType": "string",
          "name": "",
          "type": "string"
        }
      ],
      "stateMutability": "view",
      "type": "function",
      "constant": true
    },
    {
      "inputs": [
        {
          "internalType": "uint256",
          "name": "id",
          "type": "uint256"
        }
      ],
      "name": "exists",
      "outputs": [
        {
          "internalType": "bool",
          "name": "",
          "type": "bool"
        }
      ],
      "stateMutability": "view",
      "type": "function",
      "constant": true
    },
    {
      "inputs": [
        {
          "internalType": "uint256",
          "name": "tokenId",
          "type": "uint256"
        }
      ],
      "name": "getApproved",
      "outputs": [
        {
          "internalType": "address",
          "name": "",
          "type": "address"
        }
      ],
      "stateMutability": "view",
      "type": "function",
      "constant": true
    },
    {
      "inputs": [],
      "name": "host",
      "outputs": [
        {
          "internalType": "contract IDAO",
          "name": "",
          "type": "address"
        }
      ],
      "stateMutability": "view",
      "type": "function",
      "constant": true
    },
    {
      "inputs": [],
      "name": "impl",
      "outputs": [
        {
          "internalType": "address",
          "name": "",
          "type": "address"
        }
      ],
      "stateMutability": "view",
      "type": "function",
      "constant": true
    },
    {
      "inputs": [
        {
          "internalType": "address",
          "name": "owner",
          "type": "address"
        },
        {
          "internalType": "address",
          "name": "operator",
          "type": "address"
        }
      ],
      "name": "isApprovedForAll",
      "outputs": [
        {
          "internalType": "bool",
          "name": "",
          "type": "bool"
        }
      ],
      "stateMutability": "view",
      "type": "function",
      "constant": true
    },
    {
      "inputs": [],
      "name": "name",
      "outputs": [
        {
          "internalType": "string",
          "name": "",
          "type": "string"
        }
      ],
      "stateMutability": "view",
      "type": "function",
      "constant": true
    },
    {
      "inputs": [],
      "name": "operator",
      "outputs": [
        {
          "internalType": "address",
          "name": "",
          "type": "address"
        }
      ],
      "stateMutability": "view",
      "type": "function",
      "constant": true
    },
    {
      "inputs": [
        {
          "internalType": "uint256",
          "name": "tokenId",
          "type": "uint256"
        }
      ],
      "name": "ownerOf",
      "outputs": [
        {
          "internalType": "address",
          "name": "owner",
          "type": "address"
        }
      ],
      "stateMutability": "view",
      "type": "function",
      "constant": true
    },
    {
      "inputs": [
        {
          "internalType": "address",
          "name": "from",
          "type": "address"
        },
        {
          "internalType": "address",
          "name": "to",
          "type": "address"
        },
        {
          "internalType": "uint256",
          "name": "tokenId",
          "type": "uint256"
        }
      ],
      "name": "safeTransferFrom",
      "outputs": [],
      "stateMutability": "nonpayable",
      "type": "function"
    },
    {
      "inputs": [
        {
          "internalType": "address",
          "name": "from",
          "type": "address"
        },
        {
          "internalType": "address",
          "name": "to",
          "type": "address"
        },
        {
          "internalType": "uint256",
          "name": "tokenId",
          "type": "uint256"
        },
        {
          "internalType": "bytes",
          "name": "_data",
          "type": "bytes"
        }
      ],
      "name": "safeTransferFrom",
      "outputs": [],
      "stateMutability": "nonpayable",
      "type": "function"
    },
    {
      "inputs": [
        {
          "internalType": "address",
          "name": "operator",
          "type": "address"
        },
        {
          "internalType": "bool",
          "name": "approved",
          "type": "bool"
        }
      ],
      "name": "setApprovalForAll",
      "outputs": [],
      "stateMutability": "nonpayable",
      "type": "function"
    },
    {
      "inputs": [
        {
          "internalType": "string",
          "name": "value",
          "type": "string"
        }
      ],
      "name": "setDescription",
      "outputs": [],
      "stateMutability": "nonpayable",
      "type": "function"
    },
    {
      "inputs": [
        {
          "internalType": "address",
          "name": "operator_",
          "type": "address"
        }
      ],
      "name": "setOperator",
      "outputs": [],
      "stateMutability": "nonpayable",
      "type": "function"
    },
    {
      "inputs": [
        {
          "internalType": "bytes4",
          "name": "interfaceId",
          "type": "bytes4"
        }
      ],
      "name": "supportsInterface",
      "outputs": [
        {
          "internalType": "bool",
          "name": "",
          "type": "bool"
        }
      ],
      "stateMutability": "view",
      "type": "function",
      "constant": true
    },
    {
      "inputs": [],
      "name": "symbol",
      "outputs": [
        {
          "internalType": "string",
          "name": "",
          "type": "string"
        }
      ],
      "stateMutability": "view",
      "type": "function",
      "constant": true
    },
    {
      "inputs": [
        {
          "internalType": "uint256",
          "name": "index",
          "type": "uint256"
        }
      ],
      "name": "tokenByIndex",
      "outputs": [
        {
          "internalType": "uint256",
          "name": "",
          "type": "uint256"
        }
      ],
      "stateMutability": "view",
      "type": "function",
      "constant": true
    },
    {
      "inputs": [
        {
          "internalType": "address",
          "name": "owner",
          "type": "address"
        },
        {
          "internalType": "uint256",
          "name": "index",
          "type": "uint256"
        }
      ],
      "name": "tokenOfOwnerByIndex",
      "outputs": [
        {
          "internalType": "uint256",
          "name": "",
          "type": "uint256"
        }
      ],
      "stateMutability": "view",
      "type": "function",
      "constant": true
    },
    {
      "inputs": [],
      "name": "totalSupply",
      "outputs": [
        {
          "internalType": "uint256",
          "name": "",
          "type": "uint256"
        }
      ],
      "stateMutability": "view",
      "type": "function",
      "constant": true
    },
    {
      "inputs": [
        {
          "internalType": "address",
          "name": "from",
          "type": "address"
        },
        {
          "internalType": "address",
          "name": "to",
          "type": "address"
        },
        {
          "internalType": "uint256",
          "name": "tokenId",
          "type": "uint256"
        }
      ],
      "name": "transferFrom",
      "outputs": [],
      "stateMutability": "nonpayable",
      "type": "function"
    },
    {
      "inputs": [
        {
          "internalType": "address",
          "name": "impl_",
          "type": "address"
        }
      ],
      "name": "upgrade",
      "outputs": [],
      "stateMutability": "nonpayable",
      "type": "function"
    },
    {
      "inputs": [],
      "name": "contractURI",
      "outputs": [
        {
          "internalType": "string",
          "name": "uri",
          "type": "string"
        }
      ],
      "stateMutability": "view",
      "type": "function",
      "constant": true
    },
    {
      "inputs": [
        {
          "internalType": "address",
          "name": "host",
          "type": "address"
        },
        {
          "internalType": "string",
          "name": "name",
          "type": "string"
        },
        {
          "internalType": "string",
          "name": "description",
          "type": "string"
        },
        {
          "internalType": "string",
          "name": "baseURI",
          "type": "string"
        },
        {
          "internalType": "address",
          "name": "operator",
          "type": "address"
        },
        {
          "components": [
            {
              "internalType": "address",
              "name": "owner",
              "type": "address"
            },
            {
              "components": [
                {
                  "internalType": "uint256",
                  "name": "id",
                  "type": "uint256"
                },
                {
                  "internalType": "string",
                  "name": "name",
                  "type": "string"
                },
                {
                  "internalType": "string",
                  "name": "description",
                  "type": "string"
                },
                {
                  "internalType": "string",
                  "name": "image",
                  "type": "string"
                },
                {
                  "internalType": "uint32",
                  "name": "votes",
                  "type": "uint32"
                }
              ],
              "internalType": "struct IMember.Info",
              "name": "info",
              "type": "tuple"
            },
            {
              "internalType": "uint256[]",
              "name": "permissions",
              "type": "uint256[]"
            }
          ],
          "internalType": "struct Member.MintMemberArgs[]",
          "name": "members",
          "type": "tuple[]"
        }
      ],
      "name": "initMember",
      "outputs": [],
      "stateMutability": "nonpayable",
      "type": "function"
    },
    {
      "inputs": [
        {
          "internalType": "uint256",
          "name": "id",
          "type": "uint256"
        }
      ],
      "name": "remove",
      "outputs": [],
      "stateMutability": "nonpayable",
      "type": "function"
    },
    {
      "inputs": [
        {
          "internalType": "address",
          "name": "owner",
          "type": "address"
        },
        {
          "components": [
            {
              "internalType": "uint256",
              "name": "id",
              "type": "uint256"
            },
            {
              "internalType": "string",
              "name": "name",
              "type": "string"
            },
            {
              "internalType": "string",
              "name": "description",
              "type": "string"
            },
            {
              "internalType": "string",
              "name": "image",
              "type": "string"
            },
            {
              "internalType": "uint32",
              "name": "votes",
              "type": "uint32"
            }
          ],
          "internalType": "struct IMember.Info",
          "name": "info",
          "type": "tuple"
        },
        {
          "internalType": "uint256[]",
          "name": "permissions",
          "type": "uint256[]"
        }
      ],
      "name": "create",
      "outputs": [],
      "stateMutability": "nonpayable",
      "type": "function"
    },
    {
      "inputs": [
        {
          "internalType": "address",
          "name": "owner",
          "type": "address"
        },
        {
          "internalType": "uint256",
          "name": "id",
          "type": "uint256"
        },
        {
          "internalType": "uint32",
          "name": "votes_",
          "type": "uint32"
        },
        {
          "internalType": "uint256[]",
          "name": "permissions",
          "type": "uint256[]"
        },
        {
          "internalType": "string",
          "name": "name",
          "type": "string"
        },
        {
          "internalType": "string",
          "name": "description",
          "type": "string"
        },
        {
          "internalType": "string",
          "name": "image",
          "type": "string"
        }
      ],
      "name": "createFrom",
      "outputs": [],
      "stateMutability": "nonpayable",
      "type": "function"
    },
    {
      "inputs": [
        {
          "internalType": "address",
          "name": "owner",
          "type": "address"
        },
        {
          "components": [
            {
              "internalType": "uint256",
              "name": "id",
              "type": "uint256"
            },
            {
              "internalType": "string",
              "name": "name",
              "type": "string"
            },
            {
              "internalType": "string",
              "name": "description",
              "type": "string"
            },
            {
              "internalType": "string",
              "name": "image",
              "type": "string"
            },
            {
              "internalType": "uint32",
              "name": "votes",
              "type": "uint32"
            }
          ],
          "internalType": "struct IMember.Info",
          "name": "info",
          "type": "tuple"
        },
        {
          "internalType": "uint256[]",
          "name": "permissions",
          "type": "uint256[]"
        }
      ],
      "name": "requestJoin",
      "outputs": [
        {
          "internalType": "uint256",
          "name": "id",
          "type": "uint256"
        }
      ],
      "stateMutability": "nonpayable",
      "type": "function"
    },
    {
      "inputs": [
        {
          "internalType": "uint256",
          "name": "tokenId",
          "type": "uint256"
        }
      ],
      "name": "tokenURI",
      "outputs": [
        {
          "internalType": "string",
          "name": "uri",
          "type": "string"
        }
      ],
      "stateMutability": "view",
      "type": "function",
      "constant": true
    },
    {
      "inputs": [],
      "name": "votes",
      "outputs": [
        {
          "internalType": "uint256",
          "name": "",
          "type": "uint256"
        }
      ],
      "stateMutability": "view",
      "type": "function",
      "constant": true
    },
    {
      "inputs": [
        {
          "internalType": "uint256",
          "name": "id",
          "type": "uint256"
        }
      ],
      "name": "getMemberInfo",
      "outputs": [
        {
          "components": [
            {
              "internalType": "uint256",
              "name": "id",
              "type": "uint256"
            },
            {
              "internalType": "string",
              "name": "name",
              "type": "string"
            },
            {
              "internalType": "string",
              "name": "description",
              "type": "string"
            },
            {
              "internalType": "string",
              "name": "image",
              "type": "string"
            },
            {
              "internalType": "uint32",
              "name": "votes",
              "type": "uint32"
            }
          ],
          "internalType": "struct IMember.Info",
          "name": "",
          "type": "tuple"
        }
      ],
      "stateMutability": "view",
      "type": "function",
      "constant": true
    },
    {
      "inputs": [
        {
          "internalType": "uint256",
          "name": "id",
          "type": "uint256"
        },
        {
          "internalType": "string",
          "name": "name",
          "type": "string"
        },
        {
          "internalType": "string",
          "name": "description",
          "type": "string"
        },
        {
          "internalType": "string",
          "name": "image",
          "type": "string"
        }
      ],
      "name": "setMemberInfo",
      "outputs": [],
      "stateMutability": "nonpayable",
      "type": "function"
    },
    {
      "inputs": [
        {
          "internalType": "uint256",
          "name": "id",
          "type": "uint256"
        },
        {
          "components": [
            {
              "internalType": "uint256",
              "name": "id",
              "type": "uint256"
            },
            {
              "internalType": "string",
              "name": "name",
              "type": "string"
            },
            {
              "internalType": "string",
              "name": "description",
              "type": "string"
            },
            {
              "internalType": "string",
              "name": "image",
              "type": "string"
            },
            {
              "internalType": "uint32",
              "name": "votes",
              "type": "uint32"
            }
          ],
          "internalType": "struct IMember.Info",
          "name": "info",
          "type": "tuple"
        }
      ],
      "name": "setInfo",
      "outputs": [],
      "stateMutability": "nonpayable",
      "type": "function"
    },
    {
      "inputs": [
        {
          "internalType": "uint256",
          "name": "index",
          "type": "uint256"
        }
      ],
      "name": "indexAt",
      "outputs": [
        {
          "components": [
            {
              "internalType": "uint256",
              "name": "id",
              "type": "uint256"
            },
            {
              "internalType": "string",
              "name": "name",
              "type": "string"
            },
            {
              "internalType": "string",
              "name": "description",
              "type": "string"
            },
            {
              "internalType": "string",
              "name": "image",
              "type": "string"
            },
            {
              "internalType": "uint32",
              "name": "votes",
              "type": "uint32"
            }
          ],
          "internalType": "struct IMember.Info",
          "name": "",
          "type": "tuple"
        }
      ],
      "stateMutability": "view",
      "type": "function",
      "constant": true
    },
    {
      "inputs": [
        {
          "internalType": "address",
          "name": "spender",
          "type": "address"
        },
        {
          "internalType": "uint256",
          "name": "id",
          "type": "uint256"
        }
      ],
      "name": "isApprovedOrOwner",
      "outputs": [
        {
          "internalType": "bool",
          "name": "",
          "type": "bool"
        }
      ],
      "stateMutability": "view",
      "type": "function",
      "constant": true
    },
    {
      "inputs": [],
      "name": "total",
      "outputs": [
        {
          "internalType": "uint256",
          "name": "",
          "type": "uint256"
        }
      ],
      "stateMutability": "view",
      "type": "function",
      "constant": true
    },
    {
      "inputs": [],
      "name": "executor",
      "outputs": [
        {
          "internalType": "uint256",
          "name": "",
          "type": "uint256"
        }
      ],
      "stateMutability": "view",
      "type": "function",
      "constant": true
    },
    {
      "inputs": [
        {
          "internalType": "uint256",
          "name": "id",
          "type": "uint256"
        }
      ],
      "name": "setExecutor",
      "outputs": [],
      "stateMutability": "nonpayable",
      "type": "function"
    },
    {
      "inputs": [
        {
          "internalType": "address",
          "name": "owner",
          "type": "address"
        },
        {
          "internalType": "uint256",
          "name": "action",
          "type": "uint256"
        }
      ],
      "name": "isPermission",
      "outputs": [
        {
          "internalType": "bool",
          "name": "",
          "type": "bool"
        }
      ],
      "stateMutability": "view",
      "type": "function",
      "constant": true
    },
    {
      "inputs": [
        {
          "internalType": "uint256",
          "name": "id",
          "type": "uint256"
        },
        {
          "internalType": "uint256",
          "name": "action",
          "type": "uint256"
        }
      ],
      "name": "isPermissionFrom",
      "outputs": [
        {
          "internalType": "bool",
          "name": "",
          "type": "bool"
        }
      ],
      "stateMutability": "view",
      "type": "function",
      "constant": true
    },
    {
      "inputs": [
        {
          "internalType": "uint256",
          "name": "id",
          "type": "uint256"
        },
        {
          "internalType": "uint256[]",
          "name": "addActions",
          "type": "uint256[]"
        },
        {
          "internalType": "uint256[]",
          "name": "removeActions",
          "type": "uint256[]"
        }
      ],
      "name": "setPermissions",
      "outputs": [],
      "stateMutability": "nonpayable",
      "type": "function"
    },
    {
      "inputs": [
        {
          "internalType": "uint256",
          "name": "id",
          "type": "uint256"
        },
        {
          "internalType": "int256",
          "name": "votes",
          "type": "int256"
        }
      ],
      "name": "addVotes",
      "outputs": [],
      "stateMutability": "nonpayable",
      "type": "function"
    },
    {
      "inputs": [
        {
          "internalType": "uint256[]",
          "name": "ids",
          "type": "uint256[]"
        },
        {
          "internalType": "int256[]",
          "name": "votes",
          "type": "int256[]"
        }
      ],
      "name": "addVotesOfBatch",
      "outputs": [],
      "stateMutability": "nonpayable",
      "type": "function"
    },
    {
      "inputs": [
        {
          "internalType": "uint256",
          "name": "from",
          "type": "uint256"
        },
        {
          "internalType": "uint256",
          "name": "to",
          "type": "uint256"
        },
        {
          "internalType": "uint32",
          "name": "votes",
          "type": "uint32"
        }
      ],
      "name": "transferVotes",
      "outputs": [],
      "stateMutability": "nonpayable",
      "type": "function"
    }
  ],
  "bytecode": "0x608060405234801561001057600080fd5b50614377806100206000396000f3fe608060405234801561001057600080fd5b50600436106102955760003560e01c80636c0360eb11610167578063ae99aa3c116100ce578063df267f6b11610087578063df267f6b146105db578063e168c3ec146105ee578063e8a3d485146105f6578063e985e9c5146105fe578063f0bf2aa71461063a578063f437bc591461064d57600080fd5b8063ae99aa3c14610574578063b3ab15fb14610587578063b641ee421461059a578063b88d4fde146105ad578063c34c08e5146105c0578063c87b56dd146105c857600080fd5b806395d89b411161012057806395d89b4114610500578063a22cb46514610508578063a42bbccd1461051b578063a506a5f71461053b578063a5fa37051461054e578063a8a555c51461056157600080fd5b80636c0360eb146104a657806370a08231146104ae5780637284e416146104c15780638abf6077146104c95780638ad50fef146104da57806390c3f38f146104ed57600080fd5b80632ddbd13a1161020b5780634f558e79116101c45780634f558e79146104365780634f6ccce714610449578063570ca7351461045c5780635a93b4d61461046d5780635e7dc20b146104805780636352211e1461049357600080fd5b80632ddbd13a146103cf5780632f745c59146103d757806342842e0e146103ea578063430c2081146103fd5780634c6e425b146104105780634cc822151461042357600080fd5b8063095ea7b31161025d578063095ea7b31461035a57806313c514101461036d57806318160ddd1461038057806319110b3b146103965780631fc599e5146103a957806323b872dd146103bc57600080fd5b806301ffc9a71461029a57806306fdde03146102dc57806307dc4526146102f1578063081812fc146103065780630900f01014610347575b600080fd5b6102c76102a8366004613128565b6001600160e01b03191660009081526001602052604090205460ff1690565b60405190151581526020015b60405180910390f35b6102e461065e565b6040516102d39190613195565b6103046102ff3660046131a8565b6106f0565b005b61032f6103143660046131a8565b6000908152601160205260409020546001600160a01b031690565b6040516001600160a01b0390911681526020016102d3565b6103046103553660046131e6565b610754565b610304610368366004613203565b6107b8565b61030461037b366004613344565b610844565b6103886108fa565b6040519081526020016102d3565b6103046103a43660046133e9565b61090b565b6103046103b7366004613555565b610a4c565b6103046103ca3660046135ca565b610b73565b610388610bc9565b6103886103e5366004613203565b610bd5565b6103046103f83660046135ca565b610c00565b6102c761040b366004613203565b610c1b565b61030461041e366004613128565b610c27565b6103046104313660046131a8565b610c75565b6102c76104443660046131a8565b610d65565b6103886104573660046131a8565b610d70565b6003546001600160a01b031661032f565b61030461047b36600461360b565b610d86565b6102c761048e36600461364a565b610e9c565b61032f6104a13660046131a8565b610eb7565b6102e4610eed565b6103886104bc3660046131e6565b610efc565b6102e4610f1d565b6000546001600160a01b031661032f565b6103046104e83660046136b0565b610f2c565b6103046104fb36600461371b565b610f8a565b6102e46110db565b61030461051636600461375d565b6110ea565b61052e6105293660046131a8565b61117f565b6040516102d39190613805565b61030461054936600461364a565b61138a565b61030461055c366004613818565b6114fe565b6102c761056f366004613203565b611516565b61052e6105823660046131a8565b611576565b6103046105953660046131e6565b6115ba565b6103046105a836600461394f565b61161e565b6103046105bb366004613a1b565b6116d5565b601b54610388565b6102e46105d63660046131a8565b611708565b6103886105e9366004613555565b611873565b601a54610388565b6102e4611cd9565b6102c761060c366004613a8e565b6001600160a01b03918216600090815260126020908152604080832093909416825291909152205460ff1690565b610304610648366004613abc565b611dac565b6002546001600160a01b031661032f565b60606013805461066d90613b93565b80601f016020809104026020016040519081016040528092919081815260200182805461069990613b93565b80156106e65780601f106106bb576101008083540402835291602001916106e6565b820191906000526020600020905b8154815290600101906020018083116106c957829003601f168201915b5050505050905090565b6106f8611f04565b61071557604051631b4004a360e31b815260040160405180910390fd5b61071e81612043565b601b8190556040516001600160a01b0382168152600890600080516020614322833981519152906020015b60405180910390a250565b61075c611f04565b61077957604051631b4004a360e31b815260040160405180910390fd5b600080546001600160a01b0319166001600160a01b03831690811790915560405190815260039060008051602061432283398151915290602001610749565b60006107c382610eb7565b9050806001600160a01b0316836001600160a01b0316036107f7576040516365f090f760e01b815260040160405180910390fd5b336001600160a01b038216148015906108175750610815813361060c565b155b156108355760405163d3a3274560e01b815260040160405180910390fd5b61083f8383612069565b505050565b3361084e85610eb7565b6001600160a01b03161461087557604051630782484160e21b815260040160405180910390fd5b600084815260176020526040902083511561089a57600181016108988582613c0d565b505b8251156108b157600281016108af8482613c0d565b505b8151156108c857600381016108c68382613c0d565b505b60405185907f164f7b2ab803097dab5e39f06d2e4f3c3ddc5d4171abbdcc3e76443b8359c7f590600090a25050505050565b6000610906600e6120d7565b905090565b610913611f04565b61093057604051631b4004a360e31b815260040160405180910390fd5b61093983612043565b61094282612043565b6000838152601760205260408082208483529120600482015463ffffffff8085169116101561098457604051631297a51960e11b815260040160405180910390fd5b6004820180548491906000906109a190849063ffffffff16613ce2565b92506101000a81548163ffffffff021916908363ffffffff160217905550828160040160008282829054906101000a900463ffffffff166109e29190613cff565b92506101000a81548163ffffffff021916908363ffffffff16021790555083857f9954d88d42b9655d95479ca03a829c7718c1f2154aa6181772ffdbdcd7db0dd685604051610a3d919063ffffffff91909116815260200190565b60405180910390a35050505050565b6322a25870610a59611f04565b610b6257600260009054906101000a90046001600160a01b03166001600160a01b031663e3f6b5446040518163ffffffff1660e01b8152600401602060405180830381865afa158015610ab0573d6000803e3d6000fd5b505050506040513d601f19601f82011682018060405250810190610ad49190613d1c565b60405163a8a555c560e01b8152336004820152602481018390526001600160a01b03919091169063a8a555c590604401602060405180830381865afa158015610b21573d6000803e3d6000fd5b505050506040513d601f19601f82011682018060405250810190610b459190613d39565b610b6257604051630782484160e21b815260040160405180910390fd5b610b6d8484846120e2565b50505050565b610b7d33826121fb565b610b9a5760405163d3a3274560e01b815260040160405180910390fd5b610bb5838383604051806020016040528060008152506122a1565b604080516020810190915260009052505050565b600061090660186123a7565b6001600160a01b0382166000908152600d60205260408120610bf790836123b1565b90505b92915050565b61083f838383604051806020016040528060008152506116d5565b6000610bf783836121fb565b6001600160e01b0319811660009081526001602052604090205460ff16610c7257604051632aae78ef60e01b81526001600160e01b0319821660048201526024015b60405180910390fd5b50565b610c7f3382610c1b565b158015610c915750610c8f611f04565b155b15610caf57604051630782484160e21b815260040160405180910390fd5b610cb8816123bd565b600081815260176020526040812060040154601a805463ffffffff909216929091610ce4908490613d56565b90915550506000818152601760205260408120818155908181610d0a600183018261306c565b610d1860028301600061306c565b610d2660038301600061306c565b50600401805463ffffffff191690556005820160008181610d4782826130a6565b505050505050610d6181601861248690919063ffffffff16565b5050565b6000610bfa82612492565b600080610d7e600e8461249f565b509392505050565b610d8e611f04565b610dab57604051631b4004a360e31b815260040160405180910390fd5b610db483612043565b6000838152601760205260408120600501905b8351811015610e0f57610dfc848281518110610de557610de5613d69565b6020026020010151836124bd90919063ffffffff16565b5080610e0781613d7f565b915050610dc7565b5060005b8251811015610e5b57610e48838281518110610e3157610e31613d69565b60200260200101518361248690919063ffffffff16565b5080610e5381613d7f565b915050610e13565b50837fee0225f6c1d2854b8b02e112f397db222521f304566aca2f42b09c80e86f47bc8484604051610e8e929190613dd3565b60405180910390a250505050565b6000828152601760205260408120610bf790600501836124c9565b600080610ec5600e846124e1565b9250905080610ee757604051635449cd4560e01b815260040160405180910390fd5b50919050565b60606016805461066d90613b93565b6001600160a01b0381166000908152600d60205260408120610bfa906123a7565b60606004805461066d90613b93565b60005b83811015610f8357610f71858583818110610f4c57610f4c613d69565b90506020020135848484818110610f6557610f65613d69565b9050602002013561138a565b80610f7b81613d7f565b915050610f2f565b5050505050565b63d0a4ad96610f97611f04565b6110a057600260009054906101000a90046001600160a01b03166001600160a01b031663e3f6b5446040518163ffffffff1660e01b8152600401602060405180830381865afa158015610fee573d6000803e3d6000fd5b505050506040513d601f19601f820116820180604052508101906110129190613d1c565b60405163a8a555c560e01b8152336004820152602481018390526001600160a01b03919091169063a8a555c590604401602060405180830381865afa15801561105f573d6000803e3d6000fd5b505050506040513d601f19601f820116820180604052508101906110839190613d39565b6110a057604051630782484160e21b815260040160405180910390fd5b60046110ac8382613c0d565b50600160008051602061432283398151915260006040516110cf91815260200190565b60405180910390a25050565b60606014805461066d90613b93565b336001600160a01b038316036111135760405163064256a360e21b815260040160405180910390fd5b3360008181526012602090815260408083206001600160a01b03871680855290835292819020805460ff191686151590811790915590519081529192917f17307eab39ab6107e8899845ad3d59bd9653f200f220920489ca2b5937696c31910160405180910390a35050565b6111876130c4565b601760006111966018856123b1565b81526020019081526020016000206000016040518060a0016040529081600082015481526020016001820180546111cc90613b93565b80601f01602080910402602001604051908101604052809291908181526020018280546111f890613b93565b80156112455780601f1061121a57610100808354040283529160200191611245565b820191906000526020600020905b81548152906001019060200180831161122857829003601f168201915b5050505050815260200160028201805461125e90613b93565b80601f016020809104026020016040519081016040528092919081815260200182805461128a90613b93565b80156112d75780601f106112ac576101008083540402835291602001916112d7565b820191906000526020600020905b8154815290600101906020018083116112ba57829003601f168201915b505050505081526020016003820180546112f090613b93565b80601f016020809104026020016040519081016040528092919081815260200182805461131c90613b93565b80156113695780601f1061133e57610100808354040283529160200191611369565b820191906000526020600020905b81548152906001019060200180831161134c57829003601f168201915b50505091835250506004919091015463ffffffff1660209091015292915050565b611392611f04565b6113af57604051631b4004a360e31b815260040160405180910390fd5b6113b882612043565b60008281526017602052604081206004810154909183916113e090839063ffffffff16613e01565b905060008160030b12156114445760405162461bcd60e51b815260206004820152602560248201527f234d656d6265722e616464566f74657320766f7465732076616c7565206f766560448201526472666c6f7760d81b6064820152608401610c69565b60048301805463ffffffff191663ffffffff8316179055601a5461146d90600384900b90613e28565b601a5560008413156114bc5760405163ffffffff8316815285906000907f9954d88d42b9655d95479ca03a829c7718c1f2154aa6181772ffdbdcd7db0dd69060200160405180910390a3610f83565b6000857f9954d88d42b9655d95479ca03a829c7718c1f2154aa6181772ffdbdcd7db0dd66114e985613e48565b60405163ffffffff9091168152602001610a3d565b610d6182826020015183604001518460600151610844565b60008061152284610efc565b905060005b8181101561156b57600061153b8683610bd5565b90506115478186610e9c565b156115585760019350505050610bfa565b508061156381613d7f565b915050611527565b506000949350505050565b61157e6130c4565b61158782612043565b600082815260176020908152604091829020825160a081019093528054835260018101805491928401916111cc90613b93565b6115c2611f04565b6115df57604051631b4004a360e31b815260040160405180910390fd5b600380546001600160a01b0319166001600160a01b03831690811790915560405190815260029060008051602061432283398151915290602001610749565b6116298685846124f0565b6116338586612554565b6116436323fc76b960e01b61259e565b61164c83612620565b60005b81518110156116cc576116ba82828151811061166d5761166d613d69565b60200260200101516000015183838151811061168b5761168b613d69565b6020026020010151602001518484815181106116a9576116a9613d69565b6020026020010151604001516120e2565b806116c481613d7f565b91505061164f565b50505050505050565b6116df33836121fb565b6116fc5760405163d3a3274560e01b815260040160405180910390fd5b610b6d8484848461262c565b6000818152601760205260408120600181018054606093916117b09161172d90613b93565b80601f016020809104026020016040519081016040528092919081815260200182805461175990613b93565b80156117a65780601f1061177b576101008083540402835291602001916117a6565b820191906000526020600020905b81548152906001019060200180831161178957829003601f168201915b5050505050612649565b6040516020016117c09190613e6b565b604051602081830303815290604052905060006117e583600201805461172d90613b93565b6040516020016117f59190613e9c565b6040516020818303038152906040529050600061181a84600301805461172d90613b93565b60405160200161182a9190613ed4565b6040516020818303038152906040529050611843610eed565b8383836040516020016118599493929190613f06565b604051602081830303815290604052945050505050919050565b60006001600160a01b03841661189c57604051635bb7a72360e01b815260040160405180910390fd5b82516118a790612492565b156118c55760405163700a84a960e11b815260040160405180910390fd5b60006118d361138843613f5d565b90506118de336127a1565b6118e7826127b7565b6040516020016118f8929190613f7f565b60408051601f19818403018152828252805160209182012060025463ebf0c71760e01b855292519095506001600160a01b039092169263ebf0c71792600480830193928290030181865afa158015611954573d6000803e3d6000fd5b505050506040513d601f19601f820116820180604052508101906119789190613d1c565b6001600160a01b0316634f558e79836040518263ffffffff1660e01b81526004016119a591815260200190565b602060405180830381865afa1580156119c2573d6000803e3d6000fd5b505050506040513d601f19601f820116820180604052508101906119e69190613d39565b15611a045760405163a1ee858560e01b815260040160405180910390fd5b6040805160018082528183019092526000916020808301908036833750506040805160018082528183019092529293506000929150602082015b6060815260200190600190039081611a3e5790505090503082600081518110611a6957611a69613d69565b6001600160a01b0390921660209283029190910190910152604051631fc599e560e01b90611a9f90899089908990602401613fc8565b604051602081830303815290604052906001600160e01b0319166020820180516001600160e01b03838183161783525050505081600081518110611ae557611ae5613d69565b6020026020010181905250611b9460405180610260016040528060008152602001606081526020016060815260200160006001600160a01b031681526020016000815260200160608152602001600081526020016000815260200160008152602001600081526020016000815260200160008152602001600081526020016000815260200160008152602001600015158152602001600015158152602001600015158152602001606081525090565b84815260006080820181905260a0820184905260c082018190526113896101008301526101208201819052610140820152604080518082018252601381527272657175657374206a6f696e20746f2044414f60681b6020808301919091528084019190915288810151828401526102408301849052600254825163ebf0c71760e01b815292516001600160a01b039091169263ebf0c7179260048083019391928290030181865afa158015611c4d573d6000803e3d6000fd5b505050506040513d601f19601f82011682018060405250810190611c719190613d1c565b6001600160a01b031663878e5e52826040518263ffffffff1660e01b8152600401611c9c9190614096565b600060405180830381600087803b158015611cb657600080fd5b505af1158015611cca573d6000803e3d6000fd5b50505050505050509392505050565b600254604080516338d52e0f60e01b815290516060926001600160a01b0316916338d52e0f9160048083019260209291908290030181865afa158015611d23573d6000803e3d6000fd5b505050506040513d601f19601f82011682018060405250810190611d479190613d1c565b6001600160a01b031663e8a3d4856040518163ffffffff1660e01b8152600401600060405180830381865afa158015611d84573d6000803e3d6000fd5b505050506040513d6000823e601f3d908101601f1916820160405261090691908101906141f1565b6322a25870611db9611f04565b611ec257600260009054906101000a90046001600160a01b03166001600160a01b031663e3f6b5446040518163ffffffff1660e01b8152600401602060405180830381865afa158015611e10573d6000803e3d6000fd5b505050506040513d601f19601f82011682018060405250810190611e349190613d1c565b60405163a8a555c560e01b8152336004820152602481018390526001600160a01b03919091169063a8a555c590604401602060405180830381865afa158015611e81573d6000803e3d6000fd5b505050506040513d601f19601f82011682018060405250810190611ea59190613d39565b611ec257604051630782484160e21b815260040160405180910390fd5b611eca6130c4565b8781526020810185905263ffffffff871660808201526060810183905260408101849052611ef98982886120e2565b505050505050505050565b60035460009033906001600160a01b0316811461203b57600260009054906101000a90046001600160a01b03166001600160a01b031663570ca7356040518163ffffffff1660e01b8152600401602060405180830381865afa158015611f6e573d6000803e3d6000fd5b505050506040513d601f19601f82011682018060405250810190611f929190613d1c565b6001600160a01b0316816001600160a01b03161461203b57600260009054906101000a90046001600160a01b03166001600160a01b031663ebf0c7176040518163ffffffff1660e01b8152600401602060405180830381865afa158015611ffd573d6000803e3d6000fd5b505050506040513d601f19601f820116820180604052508101906120219190613d1c565b6001600160a01b0316816001600160a01b03161491505090565b600191505090565b61204c81612492565b610c7257604051637f5c5df960e01b815260040160405180910390fd5b600081815260116020526040902080546001600160a01b0319166001600160a01b038416908117909155819061209e82610eb7565b6001600160a01b03167f8c5be1e5ebec7d5bd14f71427d1e84f3dd0314c0f7b2291e5b200ac8c7c3b92560405160405180910390a45050565b6000610bfa82612849565b6120f0838360000151612854565b8151600090815260176020908152604090912083518155908301518190600182019061211c9082613c0d565b50604084015160028201906121319082613c0d565b50606084015160038201906121469082613c0d565b50608084015163ffffffff1615612161578360800151612164565b60015b60048201805463ffffffff191663ffffffff929092169182179055601a805460009061219190849061425e565b909155505083516121a4906018906124bd565b5060005b83518110156121f3576121e08482815181106121c6576121c6613d69565b6020026020010151846005016124bd90919063ffffffff16565b50806121eb81613d7f565b9150506121a8565b505050505050565b600061220682612492565b61222357604051635449cd4560e01b815260040160405180910390fd5b600061222e83610eb7565b9050806001600160a01b0316846001600160a01b0316148061226957506000838152601160205260409020546001600160a01b038581169116145b8061229957506001600160a01b0380821660009081526012602090815260408083209388168352929052205460ff165b949350505050565b836001600160a01b03166122b483610eb7565b6001600160a01b0316146122db57604051630898381960e11b815260040160405180910390fd5b6001600160a01b03831661230257604051635bb7a72360e01b815260040160405180910390fd5b61230d600083612069565b6001600160a01b0384166000908152600d6020526040902061232f9083612486565b506001600160a01b0383166000908152600d6020526040902061235290836124bd565b5061235f600e8385612918565b5081836001600160a01b0316856001600160a01b03167fddf252ad1be2c89b69c2b068fc378daa952ba7f163c4a11628f55a4df523b3ef60405160405180910390a450505050565b6000610bfa825490565b6000610bf7838361292e565b60006123c882610eb7565b60408051602081019091526000905290506123e4600083612069565b600082815260156020526040902080546123fd90613b93565b15905061241b57600082815260156020526040812061241b9161306c565b6001600160a01b0381166000908152600d6020526040902061243d9083612486565b50612449600e83612958565b5060405182906000906001600160a01b038416907fddf252ad1be2c89b69c2b068fc378daa952ba7f163c4a11628f55a4df523b3ef908390a45050565b6000610bf78383612964565b6000610bfa600e83612a57565b60008080806124ae8686612a63565b909450925050505b9250929050565b6000610bf78383612a8e565b60008181526001830160205260408120541515610bf7565b60008080806124ae8686612add565b6124f8612b17565b612508630d64f40d60e31b61259e565b600280546001600160a01b0319166001600160a01b038516179055600461252f8382613c0d565b50600380546001600160a01b0319166001600160a01b03929092169190911790555050565b60136125608382613c0d565b50601461256d8282613c0d565b5061257e6380ac58cd60e01b612c4a565b61258e635b5e139f60e01b612c4a565b610d6163780e9d6360e01b612c4a565b6001600160e01b031980821690036125f85760405162461bcd60e51b815260206004820152601c60248201527f4552433136353a20696e76616c696420696e74657266616365206964000000006044820152606401610c69565b6001600160e01b0319166000908152600160208190526040909120805460ff19169091179055565b6016610d618282613c0d565b612638848484846122a1565b61264484848484612c53565b610b6d565b606060008251600261265b9190614271565b6001600160401b038111156126725761267261322f565b6040519080825280601f01601f19166020018201604052801561269c576020820181803683370190505b50905060005b835181101561279a5760008482815181106126bf576126bf613d69565b016020015160f881901c91506f181899199a1a9b1b9c1cb0b131b232b360811b9060fc1c601081106126f3576126f3613d69565b1a60f81b83600184901b8151811061270d5761270d613d69565b60200101906001600160f81b031916908160001a9053506f181899199a1a9b1b9c1cb0b131b232b360811b600f82166010811061274c5761274c613d69565b1a60f81b8361275f600185811b9061425e565b8151811061276f5761276f613d69565b60200101906001600160f81b031916908160001a90535050808061279290613d7f565b9150506126a2565b5092915050565b6060610bfa6001600160a01b0383166014612cf2565b606060006127c483612e8d565b60010190506000816001600160401b038111156127e3576127e361322f565b6040519080825280601f01601f19166020018201604052801561280d576020820181803683370190505b5090508181016020015b600019016f181899199a1a9b1b9c1cb0b131b232b360811b600a86061a8153600a850494508461281757509392505050565b6000610bfa826123a7565b61285d81612492565b1561287b5760405163082c3a4f60e01b815260040160405180910390fd5b6001600160a01b0382166128a257604051635bb7a72360e01b815260040160405180910390fd5b60408051602080820183526000918290526001600160a01b0385168252600d9052206128ce90826124bd565b506128db600e8284612918565b5060405181906001600160a01b038416906000907fddf252ad1be2c89b69c2b068fc378daa952ba7f163c4a11628f55a4df523b3ef908290a45050565b600061229984846001600160a01b038516612f65565b600082600001828154811061294557612945613d69565b9060005260206000200154905092915050565b6000610bf78383612f82565b60008181526001830160205260408120548015612a4d576000612988600183613d56565b855490915060009061299c90600190613d56565b9050818114612a015760008660000182815481106129bc576129bc613d69565b90600052602060002001549050808760000184815481106129df576129df613d69565b6000918252602080832090910192909255918252600188019052604090208390555b8554869080612a1257612a12614288565b600190038181906000526020600020016000905590558560010160008681526020019081526020016000206000905560019350505050610bfa565b6000915050610bfa565b6000610bf78383612f9f565b60008080612a7185856123b1565b600081815260029690960160205260409095205494959350505050565b6000818152600183016020526040812054612ad557508154600181810184556000848152602080822090930184905584548482528286019093526040902091909155610bfa565b506000610bfa565b6000818152600283016020526040812054819080612b0c57612aff8585612f9f565b9250600091506124b69050565b6001925090506124b6565b600054600160a81b900460ff1615808015612b3f57506000546001600160a01b90910460ff16105b80612b605750303b158015612b605750600054600160a01b900460ff166001145b612bc35760405162461bcd60e51b815260206004820152602e60248201527f496e697469616c697a61626c653a20636f6e747261637420697320616c72656160448201526d191e481a5b9a5d1a585b1a5e995960921b6064820152608401610c69565b6000805460ff60a01b1916600160a01b1790558015612bf0576000805460ff60a81b1916600160a81b1790555b612c006301ffc9a760e01b61259e565b8015610c72576000805460ff60a81b19169055604051600181527f7f26b83ff96e1f2b6a682f133852f6798a09c465da95921460cefb38474024989060200160405180910390a150565b610c728161259e565b6001600160a01b0383163b15610b6d576000630a85bd0160e11b33868585604051602401612c84949392919061429e565b60408051601f198184030181529190526020810180516001600160e01b03166001600160e01b0319909316929092179091529050630a85bd0160e11b612cca8583612fab565b6001600160e01b03191614610f83576040516342eac10f60e11b815260040160405180910390fd5b60606000612d01836002614271565b612d0c90600261425e565b6001600160401b03811115612d2357612d2361322f565b6040519080825280601f01601f191660200182016040528015612d4d576020820181803683370190505b509050600360fc1b81600081518110612d6857612d68613d69565b60200101906001600160f81b031916908160001a905350600f60fb1b81600181518110612d9757612d97613d69565b60200101906001600160f81b031916908160001a9053506000612dbb846002614271565b612dc690600161425e565b90505b6001811115612e3e576f181899199a1a9b1b9c1cb0b131b232b360811b85600f1660108110612dfa57612dfa613d69565b1a60f81b828281518110612e1057612e10613d69565b60200101906001600160f81b031916908160001a90535060049490941c93612e37816142d1565b9050612dc9565b508315610bf75760405162461bcd60e51b815260206004820181905260248201527f537472696e67733a20686578206c656e67746820696e73756666696369656e746044820152606401610c69565b60008072184f03e93ff9f4daa797ed6e38ed64bf6a1f0160401b8310612ecc5772184f03e93ff9f4daa797ed6e38ed64bf6a1f0160401b830492506040015b6d04ee2d6d415b85acef81000000008310612ef8576d04ee2d6d415b85acef8100000000830492506020015b662386f26fc100008310612f1657662386f26fc10000830492506010015b6305f5e1008310612f2e576305f5e100830492506008015b6127108310612f4257612710830492506004015b60648310612f54576064830492506002015b600a8310610bfa5760010192915050565b6000828152600284016020526040812082905561229984846124bd565b60008181526002830160205260408120819055610bf78383612486565b6000610bf783836124c9565b6000806000846001600160a01b031684604051612fc891906142e8565b6000604051808303816000865af19150503d8060008114613005576040519150601f19603f3d011682016040523d82523d6000602084013e61300a565b606091505b5091509150811561303257808060200190518101906130299190614304565b92505050610bfa565b8051156130425780518082602001fd5b60405162461bcd60e51b81526020600482015260006024820152604401610c69565b505092915050565b50805461307890613b93565b6000825580601f10613088575050565b601f016020900490600052602060002090810190610c7291906130f9565b5080546000825590600052602060002090810190610c7291906130f9565b6040518060a0016040528060008152602001606081526020016060815260200160608152602001600063ffffffff1681525090565b5b8082111561310e57600081556001016130fa565b5090565b6001600160e01b031981168114610c7257600080fd5b60006020828403121561313a57600080fd5b8135610bf781613112565b60005b83811015613160578181015183820152602001613148565b50506000910152565b60008151808452613181816020860160208601613145565b601f01601f19169290920160200192915050565b602081526000610bf76020830184613169565b6000602082840312156131ba57600080fd5b5035919050565b6001600160a01b0381168114610c7257600080fd5b80356131e1816131c1565b919050565b6000602082840312156131f857600080fd5b8135610bf7816131c1565b6000806040838503121561321657600080fd5b8235613221816131c1565b946020939093013593505050565b634e487b7160e01b600052604160045260246000fd5b60405160a081016001600160401b03811182821017156132675761326761322f565b60405290565b604051606081016001600160401b03811182821017156132675761326761322f565b604051601f8201601f191681016001600160401b03811182821017156132b7576132b761322f565b604052919050565b60006001600160401b038211156132d8576132d861322f565b50601f01601f191660200190565b60006132f96132f4846132bf565b61328f565b905082815283838301111561330d57600080fd5b828260208301376000602084830101529392505050565b600082601f83011261333557600080fd5b610bf7838335602085016132e6565b6000806000806080858703121561335a57600080fd5b8435935060208501356001600160401b038082111561337857600080fd5b61338488838901613324565b9450604087013591508082111561339a57600080fd5b6133a688838901613324565b935060608701359150808211156133bc57600080fd5b506133c987828801613324565b91505092959194509250565b803563ffffffff811681146131e157600080fd5b6000806000606084860312156133fe57600080fd5b8335925060208401359150613415604085016133d5565b90509250925092565b600060a0828403121561343057600080fd5b613438613245565b90508135815260208201356001600160401b038082111561345857600080fd5b61346485838601613324565b6020840152604084013591508082111561347d57600080fd5b61348985838601613324565b604084015260608401359150808211156134a257600080fd5b506134af84828501613324565b6060830152506134c1608083016133d5565b608082015292915050565b60006001600160401b038211156134e5576134e561322f565b5060051b60200190565b600082601f83011261350057600080fd5b813560206135106132f4836134cc565b82815260059290921b8401810191818101908684111561352f57600080fd5b8286015b8481101561354a5780358352918301918301613533565b509695505050505050565b60008060006060848603121561356a57600080fd5b8335613575816131c1565b925060208401356001600160401b038082111561359157600080fd5b61359d8783880161341e565b935060408601359150808211156135b357600080fd5b506135c0868287016134ef565b9150509250925092565b6000806000606084860312156135df57600080fd5b83356135ea816131c1565b925060208401356135fa816131c1565b929592945050506040919091013590565b60008060006060848603121561362057600080fd5b8335925060208401356001600160401b038082111561363e57600080fd5b61359d878388016134ef565b6000806040838503121561365d57600080fd5b50508035926020909101359150565b60008083601f84011261367e57600080fd5b5081356001600160401b0381111561369557600080fd5b6020830191508360208260051b85010111156124b657600080fd5b600080600080604085870312156136c657600080fd5b84356001600160401b03808211156136dd57600080fd5b6136e98883890161366c565b9096509450602087013591508082111561370257600080fd5b5061370f8782880161366c565b95989497509550505050565b60006020828403121561372d57600080fd5b81356001600160401b0381111561374357600080fd5b61229984828501613324565b8015158114610c7257600080fd5b6000806040838503121561377057600080fd5b823561377b816131c1565b9150602083013561378b8161374f565b809150509250929050565b805182526000602082015160a060208501526137b560a0850182613169565b9050604083015184820360408601526137ce8282613169565b915050606083015184820360608601526137e88282613169565b91505063ffffffff60808401511660808501528091505092915050565b602081526000610bf76020830184613796565b6000806040838503121561382b57600080fd5b8235915060208301356001600160401b0381111561384857600080fd5b6138548582860161341e565b9150509250929050565b600082601f83011261386f57600080fd5b8135602061387f6132f4836134cc565b82815260059290921b8401810191818101908684111561389e57600080fd5b8286015b8481101561354a5780356001600160401b03808211156138c25760008081fd5b908801906060828b03601f19018113156138dc5760008081fd5b6138e461326d565b878401356138f1816131c1565b8152604084810135848111156139075760008081fd5b6139158e8b8389010161341e565b838b01525091840135918383111561392d5760008081fd5b61393b8d8a858801016134ef565b9082015286525050509183019183016138a2565b60008060008060008060c0878903121561396857600080fd5b613971876131d6565b955060208701356001600160401b038082111561398d57600080fd5b6139998a838b01613324565b965060408901359150808211156139af57600080fd5b6139bb8a838b01613324565b955060608901359150808211156139d157600080fd5b6139dd8a838b01613324565b94506139eb60808a016131d6565b935060a0890135915080821115613a0157600080fd5b50613a0e89828a0161385e565b9150509295509295509295565b60008060008060808587031215613a3157600080fd5b8435613a3c816131c1565b93506020850135613a4c816131c1565b92506040850135915060608501356001600160401b03811115613a6e57600080fd5b8501601f81018713613a7f57600080fd5b6133c9878235602084016132e6565b60008060408385031215613aa157600080fd5b8235613aac816131c1565b9150602083013561378b816131c1565b600080600080600080600060e0888a031215613ad757600080fd5b613ae0886131d6565b965060208801359550613af5604089016133d5565b945060608801356001600160401b0380821115613b1157600080fd5b613b1d8b838c016134ef565b955060808a0135915080821115613b3357600080fd5b613b3f8b838c01613324565b945060a08a0135915080821115613b5557600080fd5b613b618b838c01613324565b935060c08a0135915080821115613b7757600080fd5b50613b848a828b01613324565b91505092959891949750929550565b600181811c90821680613ba757607f821691505b602082108103610ee757634e487b7160e01b600052602260045260246000fd5b601f82111561083f57600081815260208120601f850160051c81016020861015613bee5750805b601f850160051c820191505b818110156121f357828155600101613bfa565b81516001600160401b03811115613c2657613c2661322f565b613c3a81613c348454613b93565b84613bc7565b602080601f831160018114613c6f5760008415613c575750858301515b600019600386901b1c1916600185901b1785556121f3565b600085815260208120601f198616915b82811015613c9e57888601518255948401946001909101908401613c7f565b5085821015613cbc5787850151600019600388901b60f8161c191681555b5050505050600190811b01905550565b634e487b7160e01b600052601160045260246000fd5b63ffffffff82811682821603908082111561279a5761279a613ccc565b63ffffffff81811683821601908082111561279a5761279a613ccc565b600060208284031215613d2e57600080fd5b8151610bf7816131c1565b600060208284031215613d4b57600080fd5b8151610bf78161374f565b81810381811115610bfa57610bfa613ccc565b634e487b7160e01b600052603260045260246000fd5b600060018201613d9157613d91613ccc565b5060010190565b600081518084526020808501945080840160005b83811015613dc857815187529582019590820190600101613dac565b509495945050505050565b604081526000613de66040830185613d98565b8281036020840152613df88185613d98565b95945050505050565b600381810b9083900b01637fffffff8113637fffffff1982121715610bfa57610bfa613ccc565b808201828112600083128015821682158216171561306457613064613ccc565b60008160030b637fffffff198103613e6257613e62613ccc565b60000392915050565b683f6e616d653d30787360b81b815260008251613e8f816009850160208701613145565b9190910160090192915050565b6f266465736372697074696f6e3d30787360801b815260008251613ec7816010850160208701613145565b9190910160100192915050565b6926696d6167653d30787360b01b815260008251613ef981600a850160208701613145565b91909101600a0192915050565b60008551613f18818460208a01613145565b855190830190613f2c818360208a01613145565b8551910190613f3f818360208901613145565b8451910190613f52818360208801613145565b019695505050505050565b600082613f7a57634e487b7160e01b600052601260045260246000fd5b500490565b6a3932b8bab2b9ba2537b4b760a91b815260008351613fa581600b850160208801613145565b835190830190613fbc81600b840160208801613145565b01600b01949350505050565b6001600160a01b0384168152606060208201819052600090613fec90830185613796565b8281036040840152613ffe8185613d98565b9695505050505050565b600081518084526020808501945080840160005b83811015613dc85781516001600160a01b03168752958201959082019060010161401c565b600081518084526020808501808196508360051b8101915082860160005b85811015614089578284038952614077848351613169565b9885019893509084019060010161405f565b5091979650505050505050565b6020815281516020820152600060208301516102608060408501526140bf610280850183613169565b91506040850151601f19808685030160608701526140dd8483613169565b9350606087015191506140fb60808701836001600160a01b03169052565b608087015160a087015260a08701519150808685030160c08701526141208483614008565b60c088015160e08881019190915288015161010080890191909152880151610120808901919091528801516101408089019190915288015161016080890191909152880151610180808901919091528801516101a0808901919091528801516101c0808901919091528801516101e08089019190915288015190945091506102006141ae8188018415159052565b87015191506102206141c38782018415159052565b87015191506102406141d88782018415159052565b870151868503909101838701529050613ffe8382614041565b60006020828403121561420357600080fd5b81516001600160401b0381111561421957600080fd5b8201601f8101841361422a57600080fd5b80516142386132f4826132bf565b81815285602083850101111561424d57600080fd5b613df8826020830160208601613145565b80820180821115610bfa57610bfa613ccc565b8082028115828204841417610bfa57610bfa613ccc565b634e487b7160e01b600052603160045260246000fd5b6001600160a01b0385811682528416602082015260408101839052608060608201819052600090613ffe90830184613169565b6000816142e0576142e0613ccc565b506000190190565b600082516142fa818460208701613145565b9190910192915050565b60006020828403121561431657600080fd5b8151610bf78161311256fe7016719027ff29c13bc4816903851ea968172a86b766c733b954fdabe53c87eea26469706673582212200d3b30f106dd1705f47aeb7a4dfd8892376e022b571a7a94ed8707d49216b9a764736f6c63430008110033",
  "immutableReferences": {},
  "source": "// SPDX-License-Identifier: MIT\npragma solidity ~0.8.17;\n\npragma experimental ABIEncoderV2;\n\nimport './Module.sol';\nimport './libs/ERC721.sol';\nimport './libs/Strings.sol';\n\ncontract Member is Module, ERC721, IMember {\n\tusing EnumerableSet for EnumerableSet.UintSet;\n\tusing StringsExp for bytes;\n\tusing Strings for uint256;\n\tusing Strings for address;\n\n\tstruct Info_ {\n\t\tInfo                  info;\n\t\tEnumerableSet.UintSet permissions; // permissions\n\t}\n\n\tmapping(uint256=>Info_) private  _infoMap; // member info, member id => member info\n\tEnumerableSet.UintSet   private  _infoList; // member table list\n\tuint256                 private  _votes; // all vote total\n\tuint256                 internal _executor; // executor\n\tuint256[16]             private  __; // reserved storage space\n\n\tstruct MintMemberArgs {\n\t\taddress   owner;\n\t\tInfo      info;\n\t\tuint256[] permissions;\n\t}\n\n\tfunction _registerInterface721(bytes4 interfaceId) internal override {\n\t\tERC165._registerInterface(interfaceId);\n\t}\n\n\t// compatible with opensea\n\tfunction contractURI() view public override returns (string memory uri) {\n\t\turi = _host.asset().contractURI();\n\t}\n\n\tfunction initMember(\n\t\taddress host, string memory name, string memory description,\n\t\tstring memory baseURI, address operator, MintMemberArgs[] memory members) external\n\t{\n\t\tinitModule(host, description, operator);\n\t\tinitERC721(name, name);\n\t\t_registerInterface(Member_Type);\n\t\t_setBaseURI(baseURI);\n\n\t\tfor (uint256 i = 0; i < members.length; i++)\n\t\t\tmint(members[i].owner, members[i].info, members[i].permissions);\n\t}\n\n\tfunction mint(address owner, Info memory info, uint256[] memory permissions) private {\n\t\t_mint(owner, info.id);\n\n\t\tInfo_ storage i0   = _infoMap[info.id];\n\t\tInfo  storage info_= i0.info;\n\t\tinfo_.id           = info.id;\n\t\tinfo_.name         = info.name;\n\t\tinfo_.description  = info.description;\n\t\tinfo_.image        = info.image;\n\t\tinfo_.votes        = info.votes == 0 ? 1: info.votes; // limit votes to 1\n\n\t\t_votes += info_.votes;\n\n\t\t_infoList.add(info.id);\n\n\t\t// add permissions\n\t\tfor (uint256 i = 0; i < permissions.length; i++)\n\t\t\ti0.permissions.add(permissions[i]);\n\t}\n\n\tfunction remove(uint256 id) public {\n\t\tif (!isApprovedOrOwner(msg.sender, id) && !isPermissionDAO()) revert PermissionDenied();\n\t\t_burn(id);\n\t\t_votes -= _infoMap[id].info.votes;\n\t\tdelete _infoMap[id];\n\t\t_infoList.remove(id);\n\t}\n\n\tfunction create(\n\t\taddress owner, Info memory info, uint256[] memory permissions\n\t) external Check(Action_Member_Create)\n\t{\n\t\tmint(owner, info, permissions);\n\t}\n\n\tfunction createFrom(\n\t\taddress owner,       uint256 id,\n\t\tuint32 votes_,        uint256[] memory permissions,\n\t\tstring memory name,  string memory description, string memory image\n\t) external Check(Action_Member_Create)\n\t{\n\t\tInfo memory info;\n\t\tinfo.id = id;\n\t\tinfo.name = name;\n\t\tinfo.votes = votes_;\n\t\tinfo.image = image;\n\t\tinfo.description = description;\n\t\tmint(owner, info, permissions);\n\t}\n\n\t/**\n\t * @dev request join to DAO, create join vote proposal\n\t */\n\tfunction requestJoin(address owner, Info memory info, uint256[] memory permissions) public returns (uint256 id) {\n\t\tif (owner == address(0)) revert AddressEmpty(); // mint to the zero address\n\t\tif (_exists(info.id)) revert MemberAlreadyExists(); // token already minted\n\n\t\tuint256 salt = block.number / 5000;\n\t\tid = uint256(keccak256(abi.encodePacked(\"requestJoin\", msg.sender.toHexString(), salt.toString())));\n\n\t\tif (IVotePool(_host.root()).exists(id)) revert MemberRequestJoinAlreadyExists();\n\n\t\taddress[] memory target = new address[](1);\n\t\tbytes[] memory data = new bytes[](1);\n\n\t\ttarget[0] = address(this);\n\t\tdata[0] = abi.encodeWithSelector(this.create.selector, owner, info, permissions);\n\n\t\tIVotePool.Proposal memory pro;\n\t\tpro.id          = id;\n\t\tpro.originId    = 0; // member id\n\t\tpro.target      = target;\n\t\tpro.lifespan    = 0;\n\t\tpro.passRate    = 5001;\n\t\tpro.loopCount   = 0;\n\t\tpro.loopTime    = 0;\n\t\tpro.name        = \"request join to DAO\";\n\t\tpro.description = info.name;\n\t\tpro.data        = data;\n\n\t\tIVotePool(_host.root()).create(pro);\n\t}\n\n\t/**\n\t * @dev Returns the token URI of member\n\t */\n\tfunction tokenURI(uint256 tokenId) view public override(ERC721,IERC721Metadata) returns (string memory uri) {\n\t\tInfo storage info = _infoMap[tokenId].info;\n\t\tbytes memory a = abi.encodePacked(\"?name=0xs\",                      bytes(info.name).toHexString());\n\t\tbytes memory b = abi.encodePacked(\"&description=0xs\",               bytes(info.description).toHexString());\n\t\tbytes memory c = abi.encodePacked(\"&image=0xs\",                     bytes(info.image).toHexString());\n\t\turi = string(abi.encodePacked(baseURI(), a, b, c));\n\t}\n\n\t/**\n\t * @dev Returns all votes total\n\t */\n\tfunction votes() view external override returns (uint256) {\n\t\treturn _votes;\n\t}\n\n\tfunction getMemberInfo(uint256 id) view external override returns (Info memory) {\n\t\tcheckExists(id); // info query for nonexistent member\n\t\treturn _infoMap[id].info;\n\t}\n\n\tfunction setMemberInfo(uint256 id, string memory name, string memory description, string memory image) public {\n\t\t// require(ownerOf(id) == _msgSender(), \"#Member#setMemberInfo: owner no match\");\n\t\tif (ownerOf(id) != _msgSender()) revert PermissionDenied();\n\t\tInfo storage info_ = _infoMap[id].info;\n\t\tif (bytes(name).length != 0)        info_.name        = name;\n\t\tif (bytes(description).length != 0) info_.description = description;\n\t\tif (bytes(image).length != 0)       info_.image      = image;\n\t\temit Update(id);\n\t}\n\n\tfunction setInfo(uint256 id, Info memory info) external {\n\t\tsetMemberInfo(id, info.name, info.description, info.image);\n\t}\n\n\tfunction indexAt(uint256 index) view public override returns (Info memory) {\n\t\treturn _infoMap[_infoList.at(index)].info;\n\t}\n\n\tfunction isApprovedOrOwner(address spender, uint256 id) view public returns (bool) {\n\t\treturn _havePermission(spender, id);\n\t}\n\n\t/**\n\t * @dev Returns members total\n\t */\n\tfunction total() view public override returns (uint256) {\n\t\treturn _infoList.length();\n\t}\n\n\tfunction executor() view public returns(uint256) {\n\t\treturn _executor;\n\t}\n\n\tfunction checkExists(uint256 id) view internal {\n\t\tif (!_exists(id)) revert MemberNonExists();\n\t}\n\n\tfunction setExecutor(uint256 id) public OnlyDAO {\n\t\tcheckExists(id); // info query for nonexistent member\n\t\t_executor = id;\n\t\temit Change(Change_Tag_Member_Set_Executor, uint160(id));\n\t}\n\n\tfunction isPermission(address owner, uint256 action) view external override returns (bool) {\n\t\tuint256 len = balanceOf(owner);\n\t\tfor (uint256 i = 0; i < len; i++) {\n\t\t\tuint256 id = tokenOfOwnerByIndex(owner, i);\n\t\t\tif (isPermissionFrom(id, action))\n\t\t\t\treturn true;\n\t\t}\n\t\treturn false;\n\t}\n\n\tfunction isPermissionFrom(uint256 id, uint256 action) view public override returns (bool) {\n\t\treturn _infoMap[id].permissions.contains(action);\n\t}\n\n\tfunction setPermissions(uint256 id, uint256[] memory addActions, uint256[] memory removeActions) external OnlyDAO {\n\t\tcheckExists(id); // check info query for nonexistent member\n\n\t\tEnumerableSet.UintSet storage permissions = _infoMap[id].permissions;\n\t\tfor (uint256 j = 0; j < addActions.length; j++)\n\t\t\tpermissions.add(addActions[j]);\n\t\tfor (uint256 j = 0; j < removeActions.length; j++)\n\t\t\tpermissions.remove(removeActions[j]);\n\t\temit SetPermissions(id, addActions, removeActions);\n\t}\n\n\tfunction addVotes(uint256 id, int256 votes) public OnlyDAO {\n\t\tcheckExists(id); // check info query for nonexistent member\n\n\t\tInfo storage info = _infoMap[id].info;\n\t\tint32 votes0 = int32(votes);\n\n\t\tint32 v = int32(info.votes) + votes0;\n\t\trequire(v >= 0, \"#Member.addVotes votes value overflow\");\n\n\t\tinfo.votes = uint32(v);\n\t\t_votes = uint256(int256(_votes) + votes0);\n\n\t\tif (votes > 0)\n\t\t\temit TransferVotes(0, id, uint32(votes0));\n\t\telse\n\t\t\temit TransferVotes(id, 0, uint32(-votes0));\n\t}\n\n\tfunction addVotesOfBatch(uint256[] calldata ids, int256[] calldata votes) public {\n\t\tfor (uint256 i = 0; i < ids.length; i++) {\n\t\t\taddVotes(ids[i], votes[i]);\n\t\t}\n\t}\n\n\tfunction transferVotes(uint256 from, uint256 to, uint32 votes) external OnlyDAO {\n\t\tcheckExists(from); // check info query for nonexistent member from\n\t\tcheckExists(to); // check info query for nonexistent member to\n\n\t\tInfo storage infoFrom = _infoMap[from].info;\n\t\tInfo storage infoTo = _infoMap[to].info;\n\t\t// require(infoFrom.votes >= votes, \"#Member#transferVotes: not votes power enough\");\n\t\tif (infoFrom.votes < votes) revert InsufficientVotesInMember();\n\n\t\tinfoFrom.votes -= uint32(votes);\n\t\tinfoTo.votes += uint32(votes);\n\n\t\temit TransferVotes(from, to, votes);\n\t}\n\n}",
  "sourcePath": "/Users/louis/Project/hc/NFTSwap/SmartHolder/contracts/Member.sol",
  "compiler": {
    "name": "solc",
    "version": "0.8.17+commit.8df45f5f.Emscripten.clang"
  },
  "schemaVersion": "3.4.11",
  "updatedAt": "2023-06-07T10:11:58.064Z",
  "networkType": "ethereum",
  "devdoc": {
    "kind": "dev",
    "methods": {
      "approve(address,uint256)": {
        "details": "Approves another address to transfer the given token ID The zero address indicates there is no approved address. There can only be one approved address per token at a given time. Can only be called by the token owner or an approved operator.",
        "params": {
          "to": "address to be approved for the given token ID",
          "tokenId": "uint256 ID of the token to be approved"
        }
      },
      "balanceOf(address)": {
        "details": "Gets the balance of the specified address.",
        "params": {
          "owner": "address to query the balance of"
        },
        "returns": {
          "_0": "uint256 representing the amount owned by the passed address"
        }
      },
      "baseURI()": {
        "details": "Returns the base URI set via {_setBaseURI}. This will be automatically added as a prefix in {tokenURI} to each token's URI, or to the token ID if no specific URI is set for that token ID."
      },
      "getApproved(uint256)": {
        "details": "Gets the approved address for a token ID, or zero if no address set Reverts if the token ID does not exist.",
        "params": {
          "tokenId": "uint256 ID of the token to query the approval of"
        },
        "returns": {
          "_0": "address currently approved for the given token ID"
        }
      },
      "isApprovedForAll(address,address)": {
        "details": "Tells whether an operator is approved by a given owner.",
        "params": {
          "operator": "operator address which you want to query the approval of",
          "owner": "owner address which you want to query the approval of"
        },
        "returns": {
          "_0": "bool whether the given operator is approved by the given owner"
        }
      },
      "name()": {
        "details": "Gets the token name.",
        "returns": {
          "_0": "string representing the token name"
        }
      },
      "ownerOf(uint256)": {
        "details": "Gets the owner of the specified token ID.",
        "params": {
          "tokenId": "uint256 ID of the token to query the owner of"
        },
        "returns": {
          "owner": "currently marked as the owner of the given token ID"
        }
      },
      "requestJoin(address,(uint256,string,string,string,uint32),uint256[])": {
        "details": "request join to DAO, create join vote proposal"
      },
      "safeTransferFrom(address,address,uint256)": {
        "details": "Safely transfers the ownership of a given token ID to another address If the target address is a contract, it must implement {IERC721Receiver-onERC721Received}, which is called upon a safe transfer, and return the magic value `bytes4(keccak256(\"onERC721Received(address,address,uint256,bytes)\"))`; otherwise, the transfer is reverted. Requires the msg.sender to be the owner, approved, or operator",
        "params": {
          "from": "current owner of the token",
          "to": "address to receive the ownership of the given token ID",
          "tokenId": "uint256 ID of the token to be transferred"
        }
      },
      "safeTransferFrom(address,address,uint256,bytes)": {
        "details": "Safely transfers the ownership of a given token ID to another address If the target address is a contract, it must implement {IERC721Receiver-onERC721Received}, which is called upon a safe transfer, and return the magic value `bytes4(keccak256(\"onERC721Received(address,address,uint256,bytes)\"))`; otherwise, the transfer is reverted. Requires the _msgSender() to be the owner, approved, or operator",
        "params": {
          "_data": "bytes data to send along with a safe transfer check",
          "from": "current owner of the token",
          "to": "address to receive the ownership of the given token ID",
          "tokenId": "uint256 ID of the token to be transferred"
        }
      },
      "setApprovalForAll(address,bool)": {
        "details": "Sets or unsets the approval of a given operator An operator is allowed to transfer all tokens of the sender on their behalf.",
        "params": {
          "approved": "representing the status of the approval to be set",
          "operator": "operator address to set the approval"
        }
      },
      "supportsInterface(bytes4)": {
        "details": "See {IERC165-supportsInterface}. Time complexity O(1), guaranteed to always use less than 30 000 gas."
      },
      "symbol()": {
        "details": "Gets the token symbol.",
        "returns": {
          "_0": "string representing the token symbol"
        }
      },
      "tokenByIndex(uint256)": {
        "details": "Gets the token ID at a given index of all the tokens in this contract Reverts if the index is greater or equal to the total number of tokens.",
        "params": {
          "index": "uint256 representing the index to be accessed of the tokens list"
        },
        "returns": {
          "_0": "uint256 token ID at the given index of the tokens list"
        }
      },
      "tokenOfOwnerByIndex(address,uint256)": {
        "details": "Gets the token ID at a given index of the tokens list of the requested owner.",
        "params": {
          "index": "uint256 representing the index to be accessed of the requested tokens list",
          "owner": "address owning the tokens list to be accessed"
        },
        "returns": {
          "_0": "uint256 token ID at the given index of the tokens list owned by the requested address"
        }
      },
      "tokenURI(uint256)": {
        "details": "Returns the token URI of member"
      },
      "total()": {
        "details": "Returns members total"
      },
      "totalSupply()": {
        "details": "Gets the total amount of tokens stored by the contract.",
        "returns": {
          "_0": "uint256 representing the total amount of tokens"
        }
      },
      "transferFrom(address,address,uint256)": {
        "details": "Transfers the ownership of a given token ID to another address. Usage of this method is discouraged, use {safeTransferFrom} whenever possible. Requires the msg.sender to be the owner, approved, or operator.",
        "params": {
          "from": "current owner of the token",
          "to": "address to receive the ownership of the given token ID",
          "tokenId": "uint256 ID of the token to be transferred"
        }
      },
      "votes()": {
        "details": "Returns all votes total"
      }
    },
    "version": 1
  },
  "userdoc": {
    "kind": "user",
    "methods": {},
    "version": 1
  }
}