{
  "contractName": "Member",
  "abi": [
    {
      "anonymous": false,
      "inputs": [
        {
          "indexed": true,
          "internalType": "address",
          "name": "owner",
          "type": "address"
        },
        {
          "indexed": true,
          "internalType": "address",
          "name": "approved",
          "type": "address"
        },
        {
          "indexed": true,
          "internalType": "uint256",
          "name": "tokenId",
          "type": "uint256"
        }
      ],
      "name": "Approval",
      "type": "event"
    },
    {
      "anonymous": false,
      "inputs": [
        {
          "indexed": true,
          "internalType": "address",
          "name": "owner",
          "type": "address"
        },
        {
          "indexed": true,
          "internalType": "address",
          "name": "operator",
          "type": "address"
        },
        {
          "indexed": false,
          "internalType": "bool",
          "name": "approved",
          "type": "bool"
        }
      ],
      "name": "ApprovalForAll",
      "type": "event"
    },
    {
      "anonymous": false,
      "inputs": [
        {
          "indexed": true,
          "internalType": "address",
          "name": "from",
          "type": "address"
        },
        {
          "indexed": true,
          "internalType": "address",
          "name": "to",
          "type": "address"
        },
        {
          "indexed": true,
          "internalType": "uint256",
          "name": "tokenId",
          "type": "uint256"
        }
      ],
      "name": "Transfer",
      "type": "event"
    },
    {
      "anonymous": false,
      "inputs": [
        {
          "indexed": false,
          "internalType": "uint256",
          "name": "id",
          "type": "uint256"
        }
      ],
      "name": "UpdateInfo",
      "type": "event"
    },
    {
      "inputs": [
        {
          "internalType": "address",
          "name": "to",
          "type": "address"
        },
        {
          "internalType": "uint256",
          "name": "tokenId",
          "type": "uint256"
        }
      ],
      "name": "approve",
      "outputs": [],
      "stateMutability": "nonpayable",
      "type": "function"
    },
    {
      "inputs": [
        {
          "internalType": "address",
          "name": "owner",
          "type": "address"
        }
      ],
      "name": "balanceOf",
      "outputs": [
        {
          "internalType": "uint256",
          "name": "",
          "type": "uint256"
        }
      ],
      "stateMutability": "view",
      "type": "function"
    },
    {
      "inputs": [],
      "name": "baseURI",
      "outputs": [
        {
          "internalType": "string",
          "name": "",
          "type": "string"
        }
      ],
      "stateMutability": "view",
      "type": "function"
    },
    {
      "inputs": [
        {
          "internalType": "bytes4",
          "name": "interfaceId",
          "type": "bytes4"
        },
        {
          "internalType": "string",
          "name": "message",
          "type": "string"
        }
      ],
      "name": "checkInterface",
      "outputs": [],
      "stateMutability": "view",
      "type": "function"
    },
    {
      "inputs": [],
      "name": "description",
      "outputs": [
        {
          "internalType": "string",
          "name": "",
          "type": "string"
        }
      ],
      "stateMutability": "view",
      "type": "function"
    },
    {
      "inputs": [
        {
          "internalType": "uint256",
          "name": "id",
          "type": "uint256"
        }
      ],
      "name": "exists",
      "outputs": [
        {
          "internalType": "bool",
          "name": "",
          "type": "bool"
        }
      ],
      "stateMutability": "view",
      "type": "function"
    },
    {
      "inputs": [
        {
          "internalType": "uint256",
          "name": "tokenId",
          "type": "uint256"
        }
      ],
      "name": "getApproved",
      "outputs": [
        {
          "internalType": "address",
          "name": "",
          "type": "address"
        }
      ],
      "stateMutability": "view",
      "type": "function"
    },
    {
      "inputs": [],
      "name": "host",
      "outputs": [
        {
          "internalType": "contract IDAO",
          "name": "",
          "type": "address"
        }
      ],
      "stateMutability": "view",
      "type": "function"
    },
    {
      "inputs": [],
      "name": "impl",
      "outputs": [
        {
          "internalType": "address",
          "name": "",
          "type": "address"
        }
      ],
      "stateMutability": "view",
      "type": "function"
    },
    {
      "inputs": [
        {
          "internalType": "address",
          "name": "owner",
          "type": "address"
        },
        {
          "internalType": "address",
          "name": "operator",
          "type": "address"
        }
      ],
      "name": "isApprovedForAll",
      "outputs": [
        {
          "internalType": "bool",
          "name": "",
          "type": "bool"
        }
      ],
      "stateMutability": "view",
      "type": "function"
    },
    {
      "inputs": [],
      "name": "name",
      "outputs": [
        {
          "internalType": "string",
          "name": "",
          "type": "string"
        }
      ],
      "stateMutability": "view",
      "type": "function"
    },
    {
      "inputs": [],
      "name": "operator",
      "outputs": [
        {
          "internalType": "contract IVotePool",
          "name": "",
          "type": "address"
        }
      ],
      "stateMutability": "view",
      "type": "function"
    },
    {
      "inputs": [
        {
          "internalType": "uint256",
          "name": "tokenId",
          "type": "uint256"
        }
      ],
      "name": "ownerOf",
      "outputs": [
        {
          "internalType": "address",
          "name": "",
          "type": "address"
        }
      ],
      "stateMutability": "view",
      "type": "function"
    },
    {
      "inputs": [
        {
          "internalType": "address",
          "name": "from",
          "type": "address"
        },
        {
          "internalType": "address",
          "name": "to",
          "type": "address"
        },
        {
          "internalType": "uint256",
          "name": "tokenId",
          "type": "uint256"
        }
      ],
      "name": "safeTransferFrom",
      "outputs": [],
      "stateMutability": "nonpayable",
      "type": "function"
    },
    {
      "inputs": [
        {
          "internalType": "address",
          "name": "from",
          "type": "address"
        },
        {
          "internalType": "address",
          "name": "to",
          "type": "address"
        },
        {
          "internalType": "uint256",
          "name": "tokenId",
          "type": "uint256"
        },
        {
          "internalType": "bytes",
          "name": "_data",
          "type": "bytes"
        }
      ],
      "name": "safeTransferFrom",
      "outputs": [],
      "stateMutability": "nonpayable",
      "type": "function"
    },
    {
      "inputs": [
        {
          "internalType": "address",
          "name": "operator",
          "type": "address"
        },
        {
          "internalType": "bool",
          "name": "approved",
          "type": "bool"
        }
      ],
      "name": "setApprovalForAll",
      "outputs": [],
      "stateMutability": "nonpayable",
      "type": "function"
    },
    {
      "inputs": [
        {
          "internalType": "address",
          "name": "vote",
          "type": "address"
        }
      ],
      "name": "setOperator",
      "outputs": [],
      "stateMutability": "nonpayable",
      "type": "function"
    },
    {
      "inputs": [
        {
          "internalType": "bytes4",
          "name": "interfaceId",
          "type": "bytes4"
        }
      ],
      "name": "supportsInterface",
      "outputs": [
        {
          "internalType": "bool",
          "name": "",
          "type": "bool"
        }
      ],
      "stateMutability": "view",
      "type": "function"
    },
    {
      "inputs": [],
      "name": "symbol",
      "outputs": [
        {
          "internalType": "string",
          "name": "",
          "type": "string"
        }
      ],
      "stateMutability": "view",
      "type": "function"
    },
    {
      "inputs": [
        {
          "internalType": "uint256",
          "name": "index",
          "type": "uint256"
        }
      ],
      "name": "tokenByIndex",
      "outputs": [
        {
          "internalType": "uint256",
          "name": "",
          "type": "uint256"
        }
      ],
      "stateMutability": "view",
      "type": "function"
    },
    {
      "inputs": [
        {
          "internalType": "address",
          "name": "owner",
          "type": "address"
        },
        {
          "internalType": "uint256",
          "name": "index",
          "type": "uint256"
        }
      ],
      "name": "tokenOfOwnerByIndex",
      "outputs": [
        {
          "internalType": "uint256",
          "name": "",
          "type": "uint256"
        }
      ],
      "stateMutability": "view",
      "type": "function"
    },
    {
      "inputs": [
        {
          "internalType": "uint256",
          "name": "tokenId",
          "type": "uint256"
        }
      ],
      "name": "tokenURI",
      "outputs": [
        {
          "internalType": "string",
          "name": "",
          "type": "string"
        }
      ],
      "stateMutability": "view",
      "type": "function"
    },
    {
      "inputs": [],
      "name": "totalSupply",
      "outputs": [
        {
          "internalType": "uint256",
          "name": "",
          "type": "uint256"
        }
      ],
      "stateMutability": "view",
      "type": "function"
    },
    {
      "inputs": [
        {
          "internalType": "address",
          "name": "from",
          "type": "address"
        },
        {
          "internalType": "address",
          "name": "to",
          "type": "address"
        },
        {
          "internalType": "uint256",
          "name": "tokenId",
          "type": "uint256"
        }
      ],
      "name": "transferFrom",
      "outputs": [],
      "stateMutability": "nonpayable",
      "type": "function"
    },
    {
      "inputs": [
        {
          "internalType": "address",
          "name": "impl",
          "type": "address"
        }
      ],
      "name": "upgrade",
      "outputs": [],
      "stateMutability": "nonpayable",
      "type": "function"
    },
    {
      "inputs": [
        {
          "internalType": "address",
          "name": "host",
          "type": "address"
        },
        {
          "internalType": "string",
          "name": "description",
          "type": "string"
        },
        {
          "internalType": "address",
          "name": "operator",
          "type": "address"
        },
        {
          "components": [
            {
              "internalType": "address",
              "name": "owner",
              "type": "address"
            },
            {
              "components": [
                {
                  "internalType": "uint256",
                  "name": "id",
                  "type": "uint256"
                },
                {
                  "internalType": "string",
                  "name": "name",
                  "type": "string"
                },
                {
                  "internalType": "string",
                  "name": "description",
                  "type": "string"
                },
                {
                  "internalType": "string",
                  "name": "avatar",
                  "type": "string"
                },
                {
                  "internalType": "enum IMember.Role",
                  "name": "role",
                  "type": "uint8"
                },
                {
                  "internalType": "uint32",
                  "name": "votes",
                  "type": "uint32"
                },
                {
                  "internalType": "uint256",
                  "name": "idx",
                  "type": "uint256"
                },
                {
                  "internalType": "uint256[2]",
                  "name": "__ext",
                  "type": "uint256[2]"
                }
              ],
              "internalType": "struct IMember.Info",
              "name": "info",
              "type": "tuple"
            }
          ],
          "internalType": "struct Member.InitMemberArgs[]",
          "name": "members",
          "type": "tuple[]"
        }
      ],
      "name": "initMember",
      "outputs": [],
      "stateMutability": "nonpayable",
      "type": "function"
    },
    {
      "inputs": [
        {
          "internalType": "uint256",
          "name": "id",
          "type": "uint256"
        }
      ],
      "name": "remove",
      "outputs": [],
      "stateMutability": "nonpayable",
      "type": "function"
    },
    {
      "inputs": [
        {
          "internalType": "address",
          "name": "owner",
          "type": "address"
        },
        {
          "components": [
            {
              "internalType": "uint256",
              "name": "id",
              "type": "uint256"
            },
            {
              "internalType": "string",
              "name": "name",
              "type": "string"
            },
            {
              "internalType": "string",
              "name": "description",
              "type": "string"
            },
            {
              "internalType": "string",
              "name": "avatar",
              "type": "string"
            },
            {
              "internalType": "enum IMember.Role",
              "name": "role",
              "type": "uint8"
            },
            {
              "internalType": "uint32",
              "name": "votes",
              "type": "uint32"
            },
            {
              "internalType": "uint256",
              "name": "idx",
              "type": "uint256"
            },
            {
              "internalType": "uint256[2]",
              "name": "__ext",
              "type": "uint256[2]"
            }
          ],
          "internalType": "struct IMember.Info",
          "name": "info",
          "type": "tuple"
        }
      ],
      "name": "create",
      "outputs": [],
      "stateMutability": "nonpayable",
      "type": "function"
    },
    {
      "inputs": [
        {
          "internalType": "address",
          "name": "owner",
          "type": "address"
        },
        {
          "internalType": "uint256",
          "name": "id",
          "type": "uint256"
        },
        {
          "internalType": "uint32",
          "name": "votes",
          "type": "uint32"
        },
        {
          "internalType": "string",
          "name": "name",
          "type": "string"
        },
        {
          "internalType": "string",
          "name": "description",
          "type": "string"
        },
        {
          "internalType": "string",
          "name": "avatar",
          "type": "string"
        }
      ],
      "name": "create2",
      "outputs": [],
      "stateMutability": "nonpayable",
      "type": "function"
    },
    {
      "inputs": [],
      "name": "votes",
      "outputs": [
        {
          "internalType": "uint256",
          "name": "",
          "type": "uint256"
        }
      ],
      "stateMutability": "view",
      "type": "function"
    },
    {
      "inputs": [
        {
          "internalType": "string",
          "name": "baseURI",
          "type": "string"
        }
      ],
      "name": "setBaseURI",
      "outputs": [],
      "stateMutability": "nonpayable",
      "type": "function"
    },
    {
      "inputs": [
        {
          "internalType": "uint256",
          "name": "id",
          "type": "uint256"
        },
        {
          "internalType": "string",
          "name": "uri",
          "type": "string"
        }
      ],
      "name": "setTokenURI",
      "outputs": [],
      "stateMutability": "nonpayable",
      "type": "function"
    },
    {
      "inputs": [
        {
          "internalType": "uint256",
          "name": "id",
          "type": "uint256"
        },
        {
          "components": [
            {
              "internalType": "uint256",
              "name": "id",
              "type": "uint256"
            },
            {
              "internalType": "string",
              "name": "name",
              "type": "string"
            },
            {
              "internalType": "string",
              "name": "description",
              "type": "string"
            },
            {
              "internalType": "string",
              "name": "avatar",
              "type": "string"
            },
            {
              "internalType": "enum IMember.Role",
              "name": "role",
              "type": "uint8"
            },
            {
              "internalType": "uint32",
              "name": "votes",
              "type": "uint32"
            },
            {
              "internalType": "uint256",
              "name": "idx",
              "type": "uint256"
            },
            {
              "internalType": "uint256[2]",
              "name": "__ext",
              "type": "uint256[2]"
            }
          ],
          "internalType": "struct IMember.Info",
          "name": "info",
          "type": "tuple"
        }
      ],
      "name": "setInfo",
      "outputs": [],
      "stateMutability": "nonpayable",
      "type": "function"
    },
    {
      "inputs": [
        {
          "internalType": "uint256",
          "name": "id",
          "type": "uint256"
        }
      ],
      "name": "getInfo",
      "outputs": [
        {
          "components": [
            {
              "internalType": "uint256",
              "name": "id",
              "type": "uint256"
            },
            {
              "internalType": "string",
              "name": "name",
              "type": "string"
            },
            {
              "internalType": "string",
              "name": "description",
              "type": "string"
            },
            {
              "internalType": "string",
              "name": "avatar",
              "type": "string"
            },
            {
              "internalType": "enum IMember.Role",
              "name": "role",
              "type": "uint8"
            },
            {
              "internalType": "uint32",
              "name": "votes",
              "type": "uint32"
            },
            {
              "internalType": "uint256",
              "name": "idx",
              "type": "uint256"
            },
            {
              "internalType": "uint256[2]",
              "name": "__ext",
              "type": "uint256[2]"
            }
          ],
          "internalType": "struct IMember.Info",
          "name": "",
          "type": "tuple"
        }
      ],
      "stateMutability": "view",
      "type": "function"
    },
    {
      "inputs": [
        {
          "internalType": "uint256",
          "name": "index",
          "type": "uint256"
        }
      ],
      "name": "indexAt",
      "outputs": [
        {
          "components": [
            {
              "internalType": "uint256",
              "name": "id",
              "type": "uint256"
            },
            {
              "internalType": "string",
              "name": "name",
              "type": "string"
            },
            {
              "internalType": "string",
              "name": "description",
              "type": "string"
            },
            {
              "internalType": "string",
              "name": "avatar",
              "type": "string"
            },
            {
              "internalType": "enum IMember.Role",
              "name": "role",
              "type": "uint8"
            },
            {
              "internalType": "uint32",
              "name": "votes",
              "type": "uint32"
            },
            {
              "internalType": "uint256",
              "name": "idx",
              "type": "uint256"
            },
            {
              "internalType": "uint256[2]",
              "name": "__ext",
              "type": "uint256[2]"
            }
          ],
          "internalType": "struct IMember.Info",
          "name": "",
          "type": "tuple"
        }
      ],
      "stateMutability": "view",
      "type": "function"
    },
    {
      "inputs": [
        {
          "internalType": "uint256",
          "name": "id",
          "type": "uint256"
        }
      ],
      "name": "isExists",
      "outputs": [
        {
          "internalType": "bool",
          "name": "",
          "type": "bool"
        }
      ],
      "stateMutability": "view",
      "type": "function"
    },
    {
      "inputs": [
        {
          "internalType": "address",
          "name": "spender",
          "type": "address"
        },
        {
          "internalType": "uint256",
          "name": "id",
          "type": "uint256"
        }
      ],
      "name": "isApprovedOrOwner",
      "outputs": [
        {
          "internalType": "bool",
          "name": "",
          "type": "bool"
        }
      ],
      "stateMutability": "view",
      "type": "function"
    },
    {
      "inputs": [],
      "name": "total",
      "outputs": [
        {
          "internalType": "uint256",
          "name": "",
          "type": "uint256"
        }
      ],
      "stateMutability": "view",
      "type": "function"
    }
  ],
  "bytecode": "0x608060405234801561001057600080fd5b50613785806100206000396000f3fe608060405234801561001057600080fd5b50600436106102325760003560e01c8063570ca73511610130578063a42bbccd116100b8578063c87b56dd1161007c578063c87b56dd1461048b578063d02c9fa81461049e578063e168c3ec146104b1578063e985e9c5146104b9578063f437bc59146104cc57610232565b8063a42bbccd1461042c578063a8fbb4031461043f578063b3ab15fb14610452578063b88d4fde14610465578063c64df69d1461047857610232565b80637284e416116100ff5780637284e416146104015780638abf60771461040957806395d89b41146104115780639d36788e14610392578063a22cb4651461041957610232565b8063570ca735146103cb5780636352211e146103d35780636c0360eb146103e657806370a08231146103ee57610232565b80632ddbd13a116101be578063431de36d11610182578063431de36d1461036c5780634cc822151461037f5780634f558e79146103925780634f6ccce7146103a557806355f804b3146103b857610232565b80632ddbd13a146103185780632f745c59146103205780633fd7a0f01461033357806342842e0e14610346578063430c20811461035957610232565b8063095ea7b311610205578063095ea7b3146102aa578063162094c4146102bd57806318160ddd146102d05780631a3cd59a146102e557806323b872dd1461030557610232565b806301ffc9a71461023757806306fdde0314610260578063081812fc146102755780630900f01014610295575b600080fd5b61024a610245366004612b93565b6104d4565b6040516102579190612e25565b60405180910390f35b6102686104f7565b6040516102579190612f05565b610288610283366004612c5c565b61058e565b6040516102579190612dd4565b6102a86102a3366004612859565b6105da565b005b6102a86102b8366004612aaf565b610620565b6102a86102cb366004612c74565b6106b8565b6102d8610706565b604051610257919061364f565b6102f86102f3366004612c5c565b610717565b60405161025791906135a5565b6102a86103133660046128ad565b61099e565b6102d86109e6565b6102d861032e366004612aaf565b6109ec565b6102a8610341366004612a62565b610a17565b6102a86103543660046128ad565b610a45565b61024a610367366004612aaf565b610a60565b6102a861037a366004612987565b610a6c565b6102a861038d366004612c5c565b610b72565b61024a6103a0366004612c5c565b610ccb565b6102d86103b3366004612c5c565b610cd6565b6102a86103c6366004612c2a565b610cec565b610288610d1c565b6102886103e1366004612c5c565b610d2b565b610268610d53565b6102d86103fc366004612859565b610db4565b610268610dfd565b610288610e5e565b610268610e6d565b6102a8610427366004612956565b610ece565b6102f861043a366004612c5c565b610f9c565b6102a861044d366004612ca2565b611073565b6102a8610460366004612859565b611153565b6102a86104733660046128ed565b611180565b6102a8610486366004612bcb565b6111bf565b610268610499366004612c5c565b6111e7565b6102a86104ac366004612ada565b6111f2565b6102d8611255565b61024a6104c7366004612875565b61125b565b610288611289565b6001600160e01b0319811660009081526001602052604090205460ff165b919050565b600a8054604080516020601f60026000196101006001881615020190951694909404938401819004810282018101909252828152606093909290918301828280156105835780601f1061055857610100808354040283529160200191610583565b820191906000526020600020905b81548152906001019060200180831161056657829003601f168201915b505050505090505b90565b600061059982611298565b6105be5760405162461bcd60e51b81526004016105b590613352565b60405180910390fd5b506000908152600860205260409020546001600160a01b031690565b6105e26112a5565b6105fe5760405162461bcd60e51b81526004016105b590612f5a565b600080546001600160a01b0319166001600160a01b0392909216919091179055565b600061062b82610d2b565b9050806001600160a01b0316836001600160a01b0316141561065f5760405162461bcd60e51b81526004016105b590613513565b806001600160a01b0316610671611404565b6001600160a01b0316148061068d575061068d816104c7611404565b6106a95760405162461bcd60e51b81526004016105b5906131fd565b6106b3838361140e565b505050565b6106c0611404565b6001600160a01b03166106d283610d2b565b6001600160a01b0316146106f85760405162461bcd60e51b81526004016105b5906134d0565b610702828261147c565b5050565b600061071260066114c0565b905090565b61071f6124e3565b61072882611298565b6107445760405162461bcd60e51b81526004016105b590613162565b6000828152600e60209081526040918290208251610100808201855282548252600180840180548751600293821615909402600019011691909104601f81018690048602830186019096528582529194929385810193919291908301828280156107ef5780601f106107c4576101008083540402835291602001916107ef565b820191906000526020600020905b8154815290600101906020018083116107d257829003601f168201915b5050509183525050600282810180546040805160206001841615610100026000190190931694909404601f810183900483028501830190915280845293810193908301828280156108815780601f1061085657610100808354040283529160200191610881565b820191906000526020600020905b81548152906001019060200180831161086457829003601f168201915b505050918352505060038201805460408051602060026001851615610100026000190190941693909304601f81018490048402820184019092528181529382019392918301828280156109155780601f106108ea57610100808354040283529160200191610915565b820191906000526020600020905b8154815290600101906020018083116108f857829003601f168201915b5050509183525050600482015460209091019060ff16801561093357fe5b801561093b57fe5b81526004820154610100900463ffffffff166020820152600582015460408083019190915280518082019182905260609092019190600684019060029082845b81548152602001906001019080831161097b575050505050815250509050919050565b6109af6109a9611404565b826114cb565b6109cb5760405162461bcd60e51b81526004016105b590613554565b6106b383838360405180602001604052806000815250611550565b600f5490565b6001600160a01b0382166000908152600560205260408120610a0e9083611660565b90505b92915050565b610a1f6112a5565b610a3b5760405162461bcd60e51b81526004016105b590612f5a565b610702828261166c565b6106b383838360405180602001604052806000815250611180565b6000610a0e83836114cb565b600054600160a81b900460ff1680610a875750610a87611791565b80610a9c5750600054600160a01b900460ff16155b610ab85760405162461bcd60e51b81526004016105b5906133ea565b600054600160a81b900460ff16158015610aef576000805460ff60a01b1960ff60a81b19909116600160a81b1716600160a01b1790555b610afa858585611797565b610b0a6323fc76b960e01b611848565b60005b8251811015610b5657610b4e838281518110610b2557fe5b602002602001015160000151848381518110610b3d57fe5b60200260200101516020015161166c565b600101610b0d565b508015610b6b576000805460ff60a81b191690555b5050505050565b610b7c3382610a60565b80610b8a5750610b8a6112a5565b610ba65760405162461bcd60e51b81526004016105b59061312b565b610baf81611851565b6000818152600e602052604090206005810154600f5460011015610c2757600f8054600091906000198101908110610be357fe5b9060005260206000200154905081600e60008381526020019081526020016000206005018190555080600f8381548110610c1957fe5b600091825260209091200155505b60048201546010805461010090920463ffffffff1690910390556000838152600e6020526040812081815590610c606001830182612537565b610c6e600283016000612537565b610c7c600383016000612537565b60048201805464ffffffffff19169055600060058301819055610ca390600684019061257b565b5050600f805480610cb057fe5b60019003818190600052602060002001600090559055505050565b6000610a1182611298565b600080610ce460068461192e565b509392505050565b610cf46112a5565b610d105760405162461bcd60e51b81526004016105b590612f5a565b610d198161194a565b50565b6002546001600160a01b031690565b6000610a1182604051806060016040528060298152602001613727602991396006919061195d565b600d8054604080516020601f60026000196101006001881615020190951694909404938401819004810282018101909252828152606093909290918301828280156105835780601f1061055857610100808354040283529160200191610583565b60006001600160a01b038216610ddc5760405162461bcd60e51b81526004016105b59061325a565b6001600160a01b0382166000908152600560205260409020610a11906114c0565b60048054604080516020601f60026000196101006001881615020190951694909404938401819004810282018101909252828152606093909290918301828280156105835780601f1061055857610100808354040283529160200191610583565b6000546001600160a01b031690565b600b8054604080516020601f60026000196101006001881615020190951694909404938401819004810282018101909252828152606093909290918301828280156105835780601f1061055857610100808354040283529160200191610583565b610ed6611404565b6001600160a01b0316826001600160a01b03161415610f075760405162461bcd60e51b81526004016105b5906130f4565b8060096000610f14611404565b6001600160a01b03908116825260208083019390935260409182016000908120918716808252919093529120805460ff191692151592909217909155610f58611404565b6001600160a01b03167f17307eab39ab6107e8899845ad3d59bd9653f200f220920489ca2b5937696c3183604051610f909190612e25565b60405180910390a35050565b610fa46124e3565b600f548210610fc55760405162461bcd60e51b81526004016105b590613036565b600e6000600f8481548110610fd657fe5b906000526020600020015481526020019081526020016000206040518061010001604052908160008201548152602001600182018054600181600116156101000203166002900480601f0160208091040260200160405190810160405280929190818152602001828054600181600116156101000203166002900480156107ef5780601f106107c4576101008083540402835291602001916107ef565b61107b611404565b6001600160a01b031661108d83610d2b565b6001600160a01b0316146110b35760405162461bcd60e51b81526004016105b5906132e6565b6000828152600e6020908152604090912082820151805191926110de92600185019290910190612589565b50604082015180516110fa916002840191602090910190612589565b5060608201518051611116916003840191602090910190612589565b507f85efaa4a50aadbc9da043a8d0f46b0871e450af310339a43b862dd81b702728183604051611146919061364f565b60405180910390a1505050565b61115b6112a5565b6111775760405162461bcd60e51b81526004016105b590612f5a565b610d1981611974565b61119161118b611404565b836114cb565b6111ad5760405162461bcd60e51b81526004016105b590613554565b6111b984848484611a20565b50505050565b6111c8826104d4565b81906106b35760405162461bcd60e51b81526004016105b59190612f05565b6060610a1182611a54565b6111fa6112a5565b6112165760405162461bcd60e51b81526004016105b590612f5a565b61121e6124e3565b8581526020810184905263ffffffff851660a0820152606081018290526040810183905261124c878261166c565b50505050505050565b60105490565b6001600160a01b03918216600090815260096020908152604080832093909416825291909152205460ff1690565b6003546001600160a01b031690565b6000610a11600683611b9e565b60025460009033906001600160a01b031681146113fc57600360009054906101000a90046001600160a01b03166001600160a01b031663570ca7356040518163ffffffff1660e01b815260040160206040518083038186803b15801561130a57600080fd5b505afa15801561131e573d6000803e3d6000fd5b505050506040513d601f19601f820116820180604052508101906113429190612c0e565b6001600160a01b0316816001600160a01b0316146113fc57600360009054906101000a90046001600160a01b03166001600160a01b031663ebf0c7176040518163ffffffff1660e01b815260040160206040518083038186803b1580156113a857600080fd5b505afa1580156113bc573d6000803e3d6000fd5b505050506040513d601f19601f820116820180604052508101906113e09190612c0e565b6001600160a01b0316816001600160a01b03161491505061058b565b600191505090565b6000610712611baa565b600081815260086020526040902080546001600160a01b0319166001600160a01b038416908117909155819061144382610d2b565b6001600160a01b03167f8c5be1e5ebec7d5bd14f71427d1e84f3dd0314c0f7b2291e5b200ac8c7c3b92560405160405180910390a45050565b61148582611298565b6114a15760405162461bcd60e51b81526004016105b59061339e565b6000828152600c6020908152604090912082516106b392840190612589565b6000610a1182611bae565b60006114d682611298565b6114f25760405162461bcd60e51b81526004016105b5906131b1565b60006114fd83610d2b565b9050806001600160a01b0316846001600160a01b031614806115385750836001600160a01b031661152d8461058e565b6001600160a01b0316145b806115485750611548818561125b565b949350505050565b836001600160a01b031661156383610d2b565b6001600160a01b0316146115895760405162461bcd60e51b81526004016105b590613438565b6001600160a01b0383166115af5760405162461bcd60e51b81526004016105b5906130b0565b6115bb848484846111b9565b6115c660008361140e565b6001600160a01b03841660009081526005602052604090206115e89083611bb2565b506001600160a01b038316600090815260056020526040902061160b9083611bbe565b5061161860068385611bca565b5081836001600160a01b0316856001600160a01b03167fddf252ad1be2c89b69c2b068fc378daa952ba7f163c4a11628f55a4df523b3ef60405160405180910390a450505050565b6000610a0e8383611be0565b61167a828260000151611c25565b80516000908152600e602090815260409091208251815581830151805191926116ab92600185019290910190612589565b50604082015180516116c7916002840191602090910190612589565b50606082015180516116e3916003840191602090910190612589565b50608082015160048201805460ff191660018380156116fe57fe5b021790555060a082015163ffffffff161561171d578160a00151611720565b60015b60048201805464ffffffff00191661010063ffffffff93841681029190911791829055600f80546005909501859055601080549290930490931601905591516001820183556000929092527f8d1108e10bcb7c27dddfc02ed9d693a074039d026cf4ea4240b40f7d581ac802015550565b303b1590565b600054600160a81b900460ff16806117b257506117b2611791565b806117c75750600054600160a01b900460ff16155b6117e35760405162461bcd60e51b81526004016105b5906133ea565b600054600160a81b900460ff1615801561181a576000805460ff60a01b1960ff60a81b19909116600160a81b1716600160a01b1790555b611825848484611cf9565b61182f8384611dac565b80156111b9576000805460ff60a81b1916905550505050565b610d1981611e04565b600061185c82610d2b565b905061187a81600084604051806020016040528060008152506111b9565b61188560008361140e565b6000828152600c602052604090205460026000196101006001841615020190911604156118c3576000828152600c602052604081206118c391612537565b6001600160a01b03811660009081526005602052604090206118e59083611bb2565b506118f1600683611e56565b5060405182906000906001600160a01b038416907fddf252ad1be2c89b69c2b068fc378daa952ba7f163c4a11628f55a4df523b3ef908390a45050565b600080808061193d8686611e62565b9097909650945050505050565b805161070290600d906020840190612589565b600061196a848484611ebe565b90505b9392505050565b6001600160a01b038116156119fe57611995816001600160a01b0316611f1d565b156119fe5760405163c64df69d60e01b81526001600160a01b0382169063c64df69d906119cd90630ddf27bf60e01b90600401612e95565b60006040518083038186803b1580156119e557600080fd5b505afa1580156119f9573d6000803e3d6000fd5b505050505b600280546001600160a01b0319166001600160a01b0392909216919091179055565b611a2c84848484611550565b611a3884848484611f56565b6111b95760405162461bcd60e51b81526004016105b590612fad565b6060611a5f82611298565b611a7b5760405162461bcd60e51b81526004016105b590613481565b6000828152600c602090815260409182902080548351601f6002600019610100600186161502019093169290920491820184900484028101840190945280845260609392830182828015611b105780601f10611ae557610100808354040283529160200191611b10565b820191906000526020600020905b815481529060010190602001808311611af357829003601f168201915b5050600d5493945050505060026000196101006001841615020190911604611b395790506104f2565b805115611b6b57600d81604051602001611b54929190612d53565b6040516020818303038152906040529150506104f2565b600d611b768461201d565b604051602001611b87929190612d53565b604051602081830303815290604052915050919050565b6000610a0e83836120f7565b3390565b5490565b6000610a0e838361210f565b6000610a0e83836121d5565b600061196a84846001600160a01b03851661221f565b81546000908210611c035760405162461bcd60e51b81526004016105b590612f18565b826000018281548110611c1257fe5b9060005260206000200154905092915050565b6001600160a01b038216611c4b5760405162461bcd60e51b81526004016105b59061331d565b611c5481611298565b15611c715760405162461bcd60e51b81526004016105b590613079565b611c8d60008383604051806020016040528060008152506111b9565b6001600160a01b0382166000908152600560205260409020611caf9082611bbe565b50611cbc60068284611bca565b5060405181906001600160a01b038416906000907fddf252ad1be2c89b69c2b068fc378daa952ba7f163c4a11628f55a4df523b3ef908290a45050565b611d016122b6565b611d116336c6362d60e01b611848565b60405163c64df69d60e01b81526001600160a01b0384169063c64df69d90611d44906363daa99b60e11b90600401612e30565b60006040518083038186803b158015611d5c57600080fd5b505afa158015611d70573d6000803e3d6000fd5b5050600380546001600160a01b0319166001600160a01b03871617905550508151611da2906004906020850190612589565b506106b381611974565b8151611dbf90600a906020850190612589565b508051611dd390600b906020840190612589565b50611de46380ac58cd60e01b611848565b611df4635b5e139f60e01b611848565b61070263780e9d6360e01b611848565b6001600160e01b03198082161415611e2e5760405162461bcd60e51b81526004016105b590612fff565b6001600160e01b0319166000908152600160208190526040909120805460ff19169091179055565b6000610a0e838361235f565b815460009081908310611e875760405162461bcd60e51b81526004016105b5906132a4565b6000846000018481548110611e9857fe5b906000526020600020906002020190508060000154816001015492509250509250929050565b60008281526001840160205260408120548281611eee5760405162461bcd60e51b81526004016105b59190612f05565b50846000016001820381548110611f0157fe5b9060005260206000209060020201600101549150509392505050565b6000813f7fc5d2460186f7233c927e7db2dcc703c0e500b653ca82273b7bfad8045d85a470818114801590611548575050151592915050565b6000611f6a846001600160a01b0316611f1d565b611f7657506001611548565b6060630a85bd0160e11b611f88611404565b878686604051602401611f9e9493929190612de8565b604051602081830303815290604052906001600160e01b0319166020820180516001600160e01b038381831617835250505050905063150b7a0260e01b6001600160e01b03191661200886836040518060600160405280603281526020016136f560329139612433565b6001600160e01b031916149695505050505050565b60608161204257506040805180820190915260018152600360fc1b60208201526104f2565b8160005b811561205a57600101600a82049150612046565b6060816001600160401b038111801561207257600080fd5b506040519080825280601f01601f19166020018201604052801561209d576020820181803683370190505b50859350905060001982015b83156120ee57600a840660300160f81b828280600190039350815181106120cc57fe5b60200101906001600160f81b031916908160001a905350600a840493506120a9565b50949350505050565b60009081526001919091016020526040902054151590565b600081815260018301602052604081205480156121cb578354600019808301919081019060009087908390811061214257fe5b906000526020600020015490508087600001848154811061215f57fe5b60009182526020808320909101929092558281526001898101909252604090209084019055865487908061218f57fe5b60019003818190600052602060002001600090559055866001016000878152602001908152602001600020600090556001945050505050610a11565b6000915050610a11565b60006121e183836120f7565b61221757508154600181810184556000848152602080822090930184905584548482528286019093526040902091909155610a11565b506000610a11565b60008281526001840160205260408120548061228457505060408051808201825283815260208082018481528654600181810189556000898152848120955160029093029095019182559151908201558654868452818801909252929091205561196d565b8285600001600183038154811061229757fe5b906000526020600020906002020160010181905550600091505061196d565b600054600160a81b900460ff16806122d157506122d1611791565b806122e65750600054600160a01b900460ff16155b6123025760405162461bcd60e51b81526004016105b5906133ea565b600054600160a81b900460ff16158015612339576000805460ff60a01b1960ff60a81b19909116600160a81b1716600160a01b1790555b6123496301ffc9a760e01b611848565b8015610d19576000805460ff60a81b1916905550565b600081815260018301602052604081205480156121cb578354600019808301919081019060009087908390811061239257fe5b90600052602060002090600202019050808760000184815481106123b257fe5b6000918252602080832084546002909302019182556001938401549184019190915583548252898301905260409020908401905586548790806123f157fe5b6000828152602080822060026000199094019384020182815560019081018390559290935588815289820190925260408220919091559450610a119350505050565b6000806060856001600160a01b0316856040516124509190612d37565b6000604051808303816000865af19150503d806000811461248d576040519150601f19603f3d011682016040523d82523d6000602084013e612492565b606091505b5091509150816124c6578051156124ac5780518082602001fd5b8360405162461bcd60e51b81526004016105b59190612f05565b808060200190518101906124da9190612baf565b9250505061196d565b6040518061010001604052806000815260200160608152602001606081526020016060815260200160008081111561251757fe5b81526000602082018190526040820152606001612532612607565b905290565b50805460018160011615610100020316600290046000825580601f1061255d5750610d19565b601f016020900490600052602060002090810190610d199190612625565b506000815560010160009055565b828054600181600116156101000203166002900490600052602060002090601f016020900481019282601f106125ca57805160ff19168380011785556125f7565b828001600101855582156125f7579182015b828111156125f75782518255916020019190600101906125dc565b50612603929150612625565b5090565b60405180604001604052806002906020820280368337509192915050565b5b808211156126035760008155600101612626565b600082601f83011261264a578081fd5b6126546040613658565b905080828460408501111561266857600080fd5b60005b600281101561268a57813583526020928301929091019060010161266b565b50505092915050565b600082601f8301126126a3578081fd5b81356001600160401b038111156126b8578182fd5b6126cb601f8201601f1916602001613658565b91508082528360208285010111156126e257600080fd5b8060208401602084013760009082016020015292915050565b803560018110610a1157600080fd5b6000610120828403121561271c578081fd5b612727610100613658565b90508135815260208201356001600160401b038082111561274757600080fd5b61275385838601612693565b6020840152604084013591508082111561276c57600080fd5b61277885838601612693565b6040840152606084013591508082111561279157600080fd5b5061279e84828501612693565b6060830152506127b183608084016126fb565b60808201526127c38360a08401612845565b60a082015260c082013560c08201526127df8360e0840161263a565b60e082015292915050565b6000604082840312156127fb578081fd5b6128056040613658565b90508135612812816136c9565b815260208201356001600160401b0381111561282d57600080fd5b6128398482850161270a565b60208301525092915050565b803563ffffffff81168114610a1157600080fd5b60006020828403121561286a578081fd5b813561196d816136c9565b60008060408385031215612887578081fd5b8235612892816136c9565b915060208301356128a2816136c9565b809150509250929050565b6000806000606084860312156128c1578081fd5b83356128cc816136c9565b925060208401356128dc816136c9565b929592945050506040919091013590565b60008060008060808587031215612902578081fd5b843561290d816136c9565b9350602085013561291d816136c9565b92506040850135915060608501356001600160401b0381111561293e578182fd5b61294a87828801612693565b91505092959194509250565b60008060408385031215612968578182fd5b8235612973816136c9565b9150602083013580151581146128a2578182fd5b6000806000806080858703121561299c578384fd5b84356129a7816136c9565b93506020858101356001600160401b03808211156129c3578586fd5b6129cf89838a01612693565b9550604088013591506129e1826136c9565b909350606087013590808211156129f6578384fd5b508601601f81018813612a07578283fd5b8035612a1a612a158261367e565b613658565b81815283810190838501865b84811015612a4f57612a3d8d8884358901016127ea565b84529286019290860190600101612a26565b5050809550505050505092959194509250565b60008060408385031215612a74578182fd5b8235612a7f816136c9565b915060208301356001600160401b03811115612a99578182fd5b612aa58582860161270a565b9150509250929050565b60008060408385031215612ac1578182fd5b8235612acc816136c9565b946020939093013593505050565b60008060008060008060c08789031215612af2578384fd5b8635612afd816136c9565b955060208701359450604087013563ffffffff81168114612b1c578485fd5b935060608701356001600160401b0380821115612b37578384fd5b612b438a838b01612693565b94506080890135915080821115612b58578384fd5b612b648a838b01612693565b935060a0890135915080821115612b79578283fd5b50612b8689828a01612693565b9150509295509295509295565b600060208284031215612ba4578081fd5b813561196d816136de565b600060208284031215612bc0578081fd5b815161196d816136de565b60008060408385031215612bdd578182fd5b8235612be8816136de565b915060208301356001600160401b03811115612c02578182fd5b612aa585828601612693565b600060208284031215612c1f578081fd5b815161196d816136c9565b600060208284031215612c3b578081fd5b81356001600160401b03811115612c50578182fd5b61154884828501612693565b600060208284031215612c6d578081fd5b5035919050565b60008060408385031215612c86578182fd5b8235915060208301356001600160401b03811115612c02578182fd5b60008060408385031215612cb4578182fd5b8235915060208301356001600160401b03811115612a99578182fd5b8060005b60028110156111b9578151845260209384019390910190600101612cd4565b60008151808452612d0b81602086016020860161369d565b601f01601f19169290920160200192915050565b60018110612d2957fe5b9052565b63ffffffff169052565b60008251612d4981846020870161369d565b9190910192915050565b6000808454600180821660008114612d725760018114612d8957612db8565b60ff198316865260028304607f1686019350612db8565b600283048886526020808720875b83811015612db05781548a820152908501908201612d97565b505050860193505b5050508351612dcb81836020880161369d565b01949350505050565b6001600160a01b0391909116815260200190565b6001600160a01b0385811682528416602082015260408101839052608060608201819052600090612e1b90830184612cf3565b9695505050505050565b901515815260200190565b6001600160e01b03199190911681526040602082018190526032908201527f234465706172746d656e7423696e69744465706172746d656e742064616f20686060820152710dee6e840e8f2e0ca40dcdee840dac2e8c6d60731b608082015260a00190565b6001600160e01b03199190911681526040602082018190526038908201527f234465706172746d656e74237365744f70657261746f725f696e7465726e616c60608201527f206f70657261746f722074797065206e6f74206d617463680000000000000000608082015260a00190565b600060208252610a0e6020830184612cf3565b60208082526022908201527f456e756d657261626c655365743a20696e646578206f7574206f6620626f756e604082015261647360f01b606082015260800190565b60208082526033908201527f234465706172746d656e74234f6e6c7944414f2063616c6c657220646f6573206040820152723737ba103430bb32903832b936b4b9b9b4b7b760691b606082015260800190565b60208082526032908201527f4552433732313a207472616e7366657220746f206e6f6e20455243373231526560408201527131b2b4bb32b91034b6b83632b6b2b73a32b960711b606082015260800190565b6020808252601c908201527f4552433136353a20696e76616c696420696e7465726661636520696400000000604082015260600190565b60208082526023908201527f234d656d62657223696e646578417420496e646578206f7574206f6620626f756040820152626e647360e81b606082015260800190565b6020808252601c908201527f4552433732313a20746f6b656e20616c7265616479206d696e74656400000000604082015260600190565b60208082526024908201527f4552433732313a207472616e7366657220746f20746865207a65726f206164646040820152637265737360e01b606082015260800190565b60208082526019908201527f4552433732313a20617070726f766520746f2063616c6c657200000000000000604082015260600190565b6020808252601c908201527f234d656d6265722372656d6f7665204e6f207065726d697373696f6e00000000604082015260600190565b6020808252602f908201527f234d656d62657223696e666f3a20696e666f20717565727920666f72206e6f6e60408201526e32bc34b9ba32b73a1036b2b6b132b960891b606082015260800190565b6020808252602c908201527f4552433732313a206f70657261746f7220717565727920666f72206e6f6e657860408201526b34b9ba32b73a103a37b5b2b760a11b606082015260800190565b60208082526038908201527f4552433732313a20617070726f76652063616c6c6572206973206e6f74206f7760408201527f6e6572206e6f7220617070726f76656420666f7220616c6c0000000000000000606082015260800190565b6020808252602a908201527f4552433732313a2062616c616e636520717565727920666f7220746865207a65604082015269726f206164647265737360b01b606082015260800190565b60208082526022908201527f456e756d657261626c654d61703a20696e646578206f7574206f6620626f756e604082015261647360f01b606082015260800190565b6020808252601f908201527f234d656d62657223736574496e666f3a206f776e6572206e6f206d6174636800604082015260600190565b6020808252818101527f4552433732313a206d696e7420746f20746865207a65726f2061646472657373604082015260600190565b6020808252602c908201527f4552433732313a20617070726f76656420717565727920666f72206e6f6e657860408201526b34b9ba32b73a103a37b5b2b760a11b606082015260800190565b6020808252602c908201527f4552433732314d657461646174613a2055524920736574206f66206e6f6e657860408201526b34b9ba32b73a103a37b5b2b760a11b606082015260800190565b6020808252602e908201527f436f6e747261637420696e7374616e63652068617320616c726561647920626560408201526d195b881a5b9a5d1a585b1a5e995960921b606082015260800190565b60208082526029908201527f4552433732313a207472616e73666572206f6620746f6b656e2074686174206960408201526839903737ba1037bbb760b91b606082015260800190565b6020808252602f908201527f4552433732314d657461646174613a2055524920717565727920666f72206e6f60408201526e3732bc34b9ba32b73a103a37b5b2b760891b606082015260800190565b60208082526023908201527f234d656d62657223736574546f6b656e5552493a206f776e6572206e6f206d616040820152620e8c6d60eb1b606082015260800190565b60208082526021908201527f4552433732313a20617070726f76616c20746f2063757272656e74206f776e656040820152603960f91b606082015260800190565b60208082526031908201527f4552433732313a207472616e736665722063616c6c6572206973206e6f74206f6040820152701ddb995c881b9bdc88185c1c1c9bdd9959607a1b606082015260800190565b60006020825282516020830152602083015161012060408401526135cd610140840182612cf3565b90506040840151601f19808584030160608601526135eb8383612cf3565b92506060860151915080858403016080860152506136098282612cf3565b915050608084015161361e60a0850182612d1f565b5060a084015161363160c0850182612d2d565b5060c084015160e084015260e0840151610ce4610100850182612cd0565b90815260200190565b6040518181016001600160401b038111828210171561367657600080fd5b604052919050565b60006001600160401b03821115613693578081fd5b5060209081020190565b60005b838110156136b85781810151838201526020016136a0565b838111156111b95750506000910152565b6001600160a01b0381168114610d1957600080fd5b6001600160e01b031981168114610d1957600080fdfe4552433732313a207472616e7366657220746f206e6f6e20455243373231526563656976657220696d706c656d656e7465724552433732313a206f776e657220717565727920666f72206e6f6e6578697374656e7420746f6b656ea26469706673582212206582b26e5645fbd51cd9a9056f1a0323180106a9f37f078a25b3e78603d743c364736f6c634300060c0033",
  "immutableReferences": {},
  "source": "\npragma solidity >=0.6.0 <=0.8.15;\n\npragma experimental ABIEncoderV2;\n\nimport \"./ERC721.sol\";\n\ncontract Member is IMember, ERC721 {\n\n\t// event UpdateInfo(uint256 id);\n\n\t// member id => member info\n\tmapping(uint256 => Info) private _infoMap; // \n\tuint256[] private _infoList; // \n\tuint256 private _votes; // \n\n\tstruct InitMemberArgs {\n\t\taddress owner;\n\t\tInfo info;\n\t}\n\n\tfunction initMember(\n\t\taddress host, string memory description, \n\t\taddress operator, InitMemberArgs[] memory members) external initializer \n\t{\n\t\tinitERC721(host, description, operator);\n\t\t_registerInterface(Member_ID);\n\n\t\tfor (uint256 i = 0; i < members.length; i++) {\n\t\t\tcreate0(members[i].owner, members[i].info);\n\t\t}\n\t}\n\n\tfunction create0(address owner, Info memory info) private {\n\t\t_mint(owner, info.id);\n\n\t\tInfo storage info_ = _infoMap[info.id];\n\t\tinfo_.id = info.id;\n\t\tinfo_.name = info.name;\n\t\tinfo_.description = info.description;\n\t\tinfo_.avatar = info.avatar;\n\t\tinfo_.role = info.role;\n\t\tinfo_.votes = info.votes == 0 ? 1: info.votes;\n\t\t// info_.extended = info.extended;\n\t\tinfo_.idx = _infoList.length;\n\n\t\t_votes += info_.votes;\n\n\t\t_infoList.push(info.id);\n\t}\n\n\tfunction remove(uint256 id) public {\n\t\trequire(isApprovedOrOwner(msg.sender, id) || isPermissionDAO(), \"#Member#remove No permission\");\n\t\t_burn(id);\n\n\t\tInfo storage info = _infoMap[id];\n\t\tuint256 idx = info.idx;\n\n\t\tif (_infoList.length > 1) {\n\t\t\tuint256 lastId = _infoList[_infoList.length - 1];\n\t\t\t_infoMap[lastId].idx = idx;\n\t\t\t_infoList[idx] = lastId;\n\t\t}\n\t\t_votes -= info.votes;\n\t\tdelete _infoMap[id];\n\t\t_infoList.pop();\n\t}\n\n\tfunction create(address owner, Info memory info) external OnlyDAO {\n\t\tcreate0(owner, info);\n\t}\n\n\tfunction create2(\n\t\taddress owner, uint256 id, uint32 votes,\n\t\tstring memory name, string memory description, string memory avatar\n\t) external OnlyDAO \n\t{\n\t\tInfo memory info;\n\t\tinfo.id = id;\n\t\tinfo.name = name;\n\t\tinfo.votes = votes;\n\t\tinfo.avatar = avatar;\n\t\tinfo.description = description;\n\t\tcreate0(owner, info);\n\t}\n\n\tfunction votes() view external override returns (uint256) {\n\t\treturn _votes;\n\t}\n\n\tfunction setBaseURI(string memory baseURI) external OnlyDAO {\n\t\t_setBaseURI(baseURI);\n\t}\n\n\tfunction setTokenURI(uint256 id, string memory uri) external {\n\t\trequire(ownerOf(id) == _msgSender(), \"#Member#setTokenURI: owner no match\");\n\t\t_setTokenURI(id, uri);\n\t}\n\n\tfunction setInfo(uint256 id, Info memory info) external {\n\t\trequire(ownerOf(id) == _msgSender(), \"#Member#setInfo: owner no match\");\n\t\tInfo storage info_ = _infoMap[id];\n\t\tinfo_.name = info.name;\n\t\tinfo_.description = info.description;\n\t\tinfo_.avatar = info.avatar;\n\t\t// info_.extended = info.extended;\n\t\temit UpdateInfo(id);\n\t}\n\n\tfunction getInfo(uint256 id) view external override returns (Info memory) {\n\t\trequire(_exists(id), \"#Member#info: info query for nonexistent member\");\n\t\treturn _infoMap[id];\n\t}\n\n\tfunction indexAt(uint256 index) view public override returns (Info memory) {\n\t\trequire(index < _infoList.length, \"#Member#indexAt Index out of bounds\");\n\t\treturn _infoMap[_infoList[index]];\n\t}\n\n\tfunction isExists(uint256 id) view public override returns (bool) {\n\t\treturn _exists(id);\n\t}\n\n\tfunction isApprovedOrOwner(address spender, uint256 id) view public returns (bool) {\n\t\treturn _havePermission(spender, id);\n\t}\n\n\tfunction total() view public override returns (uint256) {\n\t\treturn _infoList.length;\n\t}\n\n}",
  "sourcePath": "/Users/louis/Project/hc/NFTSwap/SmartHolder/contracts/Member.sol",
  "compiler": {
    "name": "solc",
    "version": "0.6.12+commit.27d51765.Emscripten.clang"
  },
  "schemaVersion": "3.4.8",
  "updatedAt": "2022-09-29T06:33:42.070Z",
  "devdoc": {
    "kind": "dev",
    "methods": {
      "approve(address,uint256)": {
        "details": "Approves another address to transfer the given token ID The zero address indicates there is no approved address. There can only be one approved address per token at a given time. Can only be called by the token owner or an approved operator.",
        "params": {
          "to": "address to be approved for the given token ID",
          "tokenId": "uint256 ID of the token to be approved"
        }
      },
      "balanceOf(address)": {
        "details": "Gets the balance of the specified address.",
        "params": {
          "owner": "address to query the balance of"
        },
        "returns": {
          "_0": "uint256 representing the amount owned by the passed address"
        }
      },
      "baseURI()": {
        "details": "Returns the base URI set via {_setBaseURI}. This will be automatically added as a prefix in {tokenURI} to each token's URI, or to the token ID if no specific URI is set for that token ID."
      },
      "getApproved(uint256)": {
        "details": "Gets the approved address for a token ID, or zero if no address set Reverts if the token ID does not exist.",
        "params": {
          "tokenId": "uint256 ID of the token to query the approval of"
        },
        "returns": {
          "_0": "address currently approved for the given token ID"
        }
      },
      "isApprovedForAll(address,address)": {
        "details": "Tells whether an operator is approved by a given owner.",
        "params": {
          "operator": "operator address which you want to query the approval of",
          "owner": "owner address which you want to query the approval of"
        },
        "returns": {
          "_0": "bool whether the given operator is approved by the given owner"
        }
      },
      "name()": {
        "details": "Gets the token name.",
        "returns": {
          "_0": "string representing the token name"
        }
      },
      "ownerOf(uint256)": {
        "details": "Gets the owner of the specified token ID.",
        "params": {
          "tokenId": "uint256 ID of the token to query the owner of"
        },
        "returns": {
          "_0": "address currently marked as the owner of the given token ID"
        }
      },
      "safeTransferFrom(address,address,uint256)": {
        "details": "Safely transfers the ownership of a given token ID to another address If the target address is a contract, it must implement {IERC721Receiver-onERC721Received}, which is called upon a safe transfer, and return the magic value `bytes4(keccak256(\"onERC721Received(address,address,uint256,bytes)\"))`; otherwise, the transfer is reverted. Requires the msg.sender to be the owner, approved, or operator",
        "params": {
          "from": "current owner of the token",
          "to": "address to receive the ownership of the given token ID",
          "tokenId": "uint256 ID of the token to be transferred"
        }
      },
      "safeTransferFrom(address,address,uint256,bytes)": {
        "details": "Safely transfers the ownership of a given token ID to another address If the target address is a contract, it must implement {IERC721Receiver-onERC721Received}, which is called upon a safe transfer, and return the magic value `bytes4(keccak256(\"onERC721Received(address,address,uint256,bytes)\"))`; otherwise, the transfer is reverted. Requires the _msgSender() to be the owner, approved, or operator",
        "params": {
          "_data": "bytes data to send along with a safe transfer check",
          "from": "current owner of the token",
          "to": "address to receive the ownership of the given token ID",
          "tokenId": "uint256 ID of the token to be transferred"
        }
      },
      "setApprovalForAll(address,bool)": {
        "details": "Sets or unsets the approval of a given operator An operator is allowed to transfer all tokens of the sender on their behalf.",
        "params": {
          "approved": "representing the status of the approval to be set",
          "operator": "operator address to set the approval"
        }
      },
      "supportsInterface(bytes4)": {
        "details": "See {IERC165-supportsInterface}. Time complexity O(1), guaranteed to always use less than 30 000 gas."
      },
      "symbol()": {
        "details": "Gets the token symbol.",
        "returns": {
          "_0": "string representing the token symbol"
        }
      },
      "tokenByIndex(uint256)": {
        "details": "Gets the token ID at a given index of all the tokens in this contract Reverts if the index is greater or equal to the total number of tokens.",
        "params": {
          "index": "uint256 representing the index to be accessed of the tokens list"
        },
        "returns": {
          "_0": "uint256 token ID at the given index of the tokens list"
        }
      },
      "tokenOfOwnerByIndex(address,uint256)": {
        "details": "Gets the token ID at a given index of the tokens list of the requested owner.",
        "params": {
          "index": "uint256 representing the index to be accessed of the requested tokens list",
          "owner": "address owning the tokens list to be accessed"
        },
        "returns": {
          "_0": "uint256 token ID at the given index of the tokens list owned by the requested address"
        }
      },
      "totalSupply()": {
        "details": "Gets the total amount of tokens stored by the contract.",
        "returns": {
          "_0": "uint256 representing the total amount of tokens"
        }
      },
      "transferFrom(address,address,uint256)": {
        "details": "Transfers the ownership of a given token ID to another address. Usage of this method is discouraged, use {safeTransferFrom} whenever possible. Requires the msg.sender to be the owner, approved, or operator.",
        "params": {
          "from": "current owner of the token",
          "to": "address to receive the ownership of the given token ID",
          "tokenId": "uint256 ID of the token to be transferred"
        }
      }
    },
    "version": 1
  },
  "userdoc": {
    "kind": "user",
    "methods": {},
    "version": 1
  }
}