{
  "contractName": "Module",
  "abi": [
    {
      "inputs": [
        {
          "internalType": "bytes4",
          "name": "interfaceId",
          "type": "bytes4"
        }
      ],
      "name": "CheckInterfaceNoMatch",
      "type": "error"
    },
    {
      "inputs": [],
      "name": "PermissionDenied",
      "type": "error"
    },
    {
      "inputs": [],
      "name": "PermissionDeniedForOnlyDAO",
      "type": "error"
    },
    {
      "anonymous": false,
      "inputs": [
        {
          "indexed": true,
          "internalType": "uint256",
          "name": "tag",
          "type": "uint256"
        },
        {
          "indexed": false,
          "internalType": "uint256",
          "name": "value",
          "type": "uint256"
        }
      ],
      "name": "Change",
      "type": "event"
    },
    {
      "anonymous": false,
      "inputs": [
        {
          "indexed": false,
          "internalType": "uint8",
          "name": "version",
          "type": "uint8"
        }
      ],
      "name": "Initialized",
      "type": "event"
    },
    {
      "inputs": [
        {
          "internalType": "bytes4",
          "name": "interfaceId",
          "type": "bytes4"
        }
      ],
      "name": "checkInterface",
      "outputs": [],
      "stateMutability": "view",
      "type": "function"
    },
    {
      "inputs": [],
      "name": "host",
      "outputs": [
        {
          "internalType": "contract IDAO",
          "name": "",
          "type": "address"
        }
      ],
      "stateMutability": "view",
      "type": "function"
    },
    {
      "inputs": [
        {
          "internalType": "bytes4",
          "name": "interfaceId",
          "type": "bytes4"
        }
      ],
      "name": "supportsInterface",
      "outputs": [
        {
          "internalType": "bool",
          "name": "",
          "type": "bool"
        }
      ],
      "stateMutability": "view",
      "type": "function"
    },
    {
      "inputs": [],
      "name": "impl",
      "outputs": [
        {
          "internalType": "address",
          "name": "",
          "type": "address"
        }
      ],
      "stateMutability": "view",
      "type": "function"
    },
    {
      "inputs": [],
      "name": "operator",
      "outputs": [
        {
          "internalType": "address",
          "name": "",
          "type": "address"
        }
      ],
      "stateMutability": "view",
      "type": "function"
    },
    {
      "inputs": [],
      "name": "description",
      "outputs": [
        {
          "internalType": "string",
          "name": "",
          "type": "string"
        }
      ],
      "stateMutability": "view",
      "type": "function"
    },
    {
      "inputs": [
        {
          "internalType": "string",
          "name": "value",
          "type": "string"
        }
      ],
      "name": "setDescription",
      "outputs": [],
      "stateMutability": "nonpayable",
      "type": "function"
    },
    {
      "inputs": [
        {
          "internalType": "address",
          "name": "operator",
          "type": "address"
        }
      ],
      "name": "setOperator",
      "outputs": [],
      "stateMutability": "nonpayable",
      "type": "function"
    },
    {
      "inputs": [
        {
          "internalType": "address",
          "name": "impl",
          "type": "address"
        }
      ],
      "name": "upgrade",
      "outputs": [],
      "stateMutability": "nonpayable",
      "type": "function"
    }
  ],
  "bytecode": "0x608060405234801561001057600080fd5b5061092e806100206000396000f3fe608060405234801561001057600080fd5b50600436106100935760003560e01c80637284e416116100665780637284e416146101275780638abf60771461013c57806390c3f38f1461014d578063b3ab15fb14610160578063f437bc591461017357600080fd5b806301ffc9a7146100985780630900f010146100da5780634c6e425b146100ef578063570ca73514610102575b600080fd5b6100c56100a63660046105f8565b6001600160e01b03191660009081526001602052604090205460ff1690565b60405190151581526020015b60405180910390f35b6100ed6100e836600461063e565b610184565b005b6100ed6100fd3660046105f8565b610201565b6003546001600160a01b03165b6040516001600160a01b0390911681526020016100d1565b61012f61024e565b6040516100d1919061065b565b6000546001600160a01b031661010f565b6100ed61015b3660046106bf565b6102e0565b6100ed61016e36600461063e565b610443565b6002546001600160a01b031661010f565b61018c6104b9565b6101a957604051631b4004a360e31b815260040160405180910390fd5b600080546001600160a01b0319166001600160a01b0383169081179091556040519081526003907f7016719027ff29c13bc4816903851ea968172a86b766c733b954fdabe53c87ee906020015b60405180910390a250565b6001600160e01b0319811660009081526001602052604090205460ff1661024b57604051632aae78ef60e01b81526001600160e01b03198216600482015260240160405180910390fd5b50565b60606004805461025d90610770565b80601f016020809104026020016040519081016040528092919081815260200182805461028990610770565b80156102d65780601f106102ab576101008083540402835291602001916102d6565b820191906000526020600020905b8154815290600101906020018083116102b957829003601f168201915b5050505050905090565b63d0a4ad966102ed6104b9565b6103f657600260009054906101000a90046001600160a01b03166001600160a01b031663e3f6b5446040518163ffffffff1660e01b8152600401602060405180830381865afa158015610344573d6000803e3d6000fd5b505050506040513d601f19601f8201168201806040525081019061036891906107aa565b60405163a8a555c560e01b8152336004820152602481018390526001600160a01b03919091169063a8a555c590604401602060405180830381865afa1580156103b5573d6000803e3d6000fd5b505050506040513d601f19601f820116820180604052508101906103d991906107c7565b6103f657604051630782484160e21b815260040160405180910390fd5b60046104028382610838565b5060017f7016719027ff29c13bc4816903851ea968172a86b766c733b954fdabe53c87ee600060405161043791815260200190565b60405180910390a25050565b61044b6104b9565b61046857604051631b4004a360e31b815260040160405180910390fd5b600380546001600160a01b0319166001600160a01b0383169081179091556040519081526002907f7016719027ff29c13bc4816903851ea968172a86b766c733b954fdabe53c87ee906020016101f6565b60035460009033906001600160a01b031681146105f057600260009054906101000a90046001600160a01b03166001600160a01b031663570ca7356040518163ffffffff1660e01b8152600401602060405180830381865afa158015610523573d6000803e3d6000fd5b505050506040513d601f19601f8201168201806040525081019061054791906107aa565b6001600160a01b0316816001600160a01b0316146105f057600260009054906101000a90046001600160a01b03166001600160a01b031663ebf0c7176040518163ffffffff1660e01b8152600401602060405180830381865afa1580156105b2573d6000803e3d6000fd5b505050506040513d601f19601f820116820180604052508101906105d691906107aa565b6001600160a01b0316816001600160a01b03161491505090565b600191505090565b60006020828403121561060a57600080fd5b81356001600160e01b03198116811461062257600080fd5b9392505050565b6001600160a01b038116811461024b57600080fd5b60006020828403121561065057600080fd5b813561062281610629565b600060208083528351808285015260005b818110156106885785810183015185820160400152820161066c565b506000604082860101526040601f19601f8301168501019250505092915050565b634e487b7160e01b600052604160045260246000fd5b6000602082840312156106d157600080fd5b813567ffffffffffffffff808211156106e957600080fd5b818401915084601f8301126106fd57600080fd5b81358181111561070f5761070f6106a9565b604051601f8201601f19908116603f01168101908382118183101715610737576107376106a9565b8160405282815287602084870101111561075057600080fd5b826020860160208301376000928101602001929092525095945050505050565b600181811c9082168061078457607f821691505b6020821081036107a457634e487b7160e01b600052602260045260246000fd5b50919050565b6000602082840312156107bc57600080fd5b815161062281610629565b6000602082840312156107d957600080fd5b8151801515811461062257600080fd5b601f82111561083357600081815260208120601f850160051c810160208610156108105750805b601f850160051c820191505b8181101561082f5782815560010161081c565b5050505b505050565b815167ffffffffffffffff811115610852576108526106a9565b610866816108608454610770565b846107e9565b602080601f83116001811461089b57600084156108835750858301515b600019600386901b1c1916600185901b17855561082f565b600085815260208120601f198616915b828110156108ca578886015182559484019460019091019084016108ab565b50858210156108e85787850151600019600388901b60f8161c191681555b5050505050600190811b0190555056fea26469706673582212202ce4e8eb9d901872a16d33c5d6b1d930dc4017ec434299d3e8a2f410cd410be364736f6c63430008110033",
  "immutableReferences": {},
  "source": "// SPDX-License-Identifier: MIT\npragma solidity 0.8.17;\n\nimport './libs/Upgrade.sol';\nimport './libs/Address.sol';\nimport './libs/Constants.sol';\nimport './libs/ERC165.sol';\nimport './libs/Interface.sol';\nimport './libs/Check.sol';\n\ncontract Module is Upgrade, ERC165, PermissionCheck, IModule {\n\tusing Address for address;\n\tusing AddressExp for address;\n\taddress internal _operator; // address\n\tstring  internal _description;\n\tuint256[8] private __; // reserved storage space\n\n\tfunction initModule(address host, string memory description, address operator) internal {\n\t\tinitERC165();\n\t\t_registerInterface(Module_Type);\n\t\t_host = IDAO(host);\n\t\t_description = description;\n\t\t_operator = operator;\n\t}\n\n\tfunction isPermissionDAO() view internal override returns (bool) {\n\t\taddress sender = msg.sender;\n\t\tif (sender != _operator) {\n\t\t\tif (sender != _host.operator())\n\t\t\t\treturn sender == _host.root();\n\t\t}\n\t\treturn true;\n\t}\n\n\tfunction impl() view external returns (address) {\n\t\treturn _impl;\n\t}\n\n\tfunction operator() view external override returns (address) {\n\t\treturn _operator;\n\t}\n\n\tfunction description() view external returns (string memory) {\n\t\treturn _description;\n\t}\n\n\tfunction setDescription(string memory value) external Check(Action_DAO_Settings) {\n\t\t_description = value;\n\t\temit Change(Change_Tag_Description, 0);\n\t}\n\n\tfunction setOperator(address operator) external override OnlyDAO {\n\t\t_operator = operator;\n\t\temit Change(Change_Tag_Operator, uint160(operator));\n\t}\n\n\tfunction upgrade(address impl) external override OnlyDAO {\n\t\t_impl = impl;\n\t\temit Change(Change_Tag_Upgrade, uint160(impl));\n\t}\n}\n",
  "sourcePath": "/Users/louis/Project/hc/NFTSwap/SmartHolder/contracts/Module.sol",
  "compiler": {
    "name": "solc",
    "version": "0.8.17+commit.8df45f5f.Emscripten.clang"
  },
  "schemaVersion": "3.4.11",
  "updatedAt": "2023-03-29T08:53:46.972Z",
  "devdoc": {
    "kind": "dev",
    "methods": {
      "supportsInterface(bytes4)": {
        "details": "See {IERC165-supportsInterface}. Time complexity O(1), guaranteed to always use less than 30 000 gas."
      }
    },
    "version": 1
  },
  "userdoc": {
    "kind": "user",
    "methods": {},
    "version": 1
  }
}