{
  "contractName": "Module",
  "abi": [
    {
      "anonymous": false,
      "inputs": [
        {
          "indexed": true,
          "internalType": "uint256",
          "name": "tag",
          "type": "uint256"
        },
        {
          "indexed": false,
          "internalType": "uint256",
          "name": "value",
          "type": "uint256"
        }
      ],
      "name": "Change",
      "type": "event"
    },
    {
      "inputs": [
        {
          "internalType": "bytes4",
          "name": "interfaceId",
          "type": "bytes4"
        },
        {
          "internalType": "string",
          "name": "message",
          "type": "string"
        }
      ],
      "name": "checkInterface",
      "outputs": [],
      "stateMutability": "view",
      "type": "function"
    },
    {
      "inputs": [],
      "name": "host",
      "outputs": [
        {
          "internalType": "contract IDAO",
          "name": "",
          "type": "address"
        }
      ],
      "stateMutability": "view",
      "type": "function"
    },
    {
      "inputs": [
        {
          "internalType": "bytes4",
          "name": "interfaceId",
          "type": "bytes4"
        }
      ],
      "name": "supportsInterface",
      "outputs": [
        {
          "internalType": "bool",
          "name": "",
          "type": "bool"
        }
      ],
      "stateMutability": "view",
      "type": "function"
    },
    {
      "inputs": [],
      "name": "impl",
      "outputs": [
        {
          "internalType": "address",
          "name": "",
          "type": "address"
        }
      ],
      "stateMutability": "view",
      "type": "function"
    },
    {
      "inputs": [],
      "name": "operator",
      "outputs": [
        {
          "internalType": "address",
          "name": "",
          "type": "address"
        }
      ],
      "stateMutability": "view",
      "type": "function"
    },
    {
      "inputs": [],
      "name": "description",
      "outputs": [
        {
          "internalType": "string",
          "name": "",
          "type": "string"
        }
      ],
      "stateMutability": "view",
      "type": "function"
    },
    {
      "inputs": [
        {
          "internalType": "string",
          "name": "value",
          "type": "string"
        }
      ],
      "name": "setDescription",
      "outputs": [],
      "stateMutability": "nonpayable",
      "type": "function"
    },
    {
      "inputs": [
        {
          "internalType": "address",
          "name": "operator",
          "type": "address"
        }
      ],
      "name": "setOperator",
      "outputs": [],
      "stateMutability": "nonpayable",
      "type": "function"
    },
    {
      "inputs": [
        {
          "internalType": "address",
          "name": "impl",
          "type": "address"
        }
      ],
      "name": "upgrade",
      "outputs": [],
      "stateMutability": "nonpayable",
      "type": "function"
    }
  ],
  "bytecode": "0x608060405234801561001057600080fd5b506109f5806100206000396000f3fe608060405234801561001057600080fd5b50600436106100935760003560e01c80638abf6077116100665780638abf60771461012957806390c3f38f1461013a578063b3ab15fb1461014d578063c64df69d14610160578063f437bc591461017357600080fd5b806301ffc9a7146100985780630900f010146100da578063570ca735146100ef5780637284e41614610114575b600080fd5b6100c56100a636600461060f565b6001600160e01b03191660009081526001602052604090205460ff1690565b60405190151581526020015b60405180910390f35b6100ed6100e8366004610649565b610184565b005b6003546001600160a01b03165b6040516001600160a01b0390911681526020016100d1565b61011c610209565b6040516100d19190610666565b6000546001600160a01b03166100fc565b6100ed610148366004610757565b61029b565b6100ed61015b366004610649565b6103fd565b6100ed61016e366004610794565b610472565b6002546001600160a01b03166100fc565b61018c6104b3565b6101b15760405162461bcd60e51b81526004016101a8906107e2565b60405180910390fd5b600080546001600160a01b0319166001600160a01b0383169081179091556040519081526003907f7016719027ff29c13bc4816903851ea968172a86b766c733b954fdabe53c87ee906020015b60405180910390a250565b60606004805461021890610838565b80601f016020809104026020016040519081016040528092919081815260200182805461024490610838565b80156102915780601f1061026657610100808354040283529160200191610291565b820191906000526020600020905b81548152906001019060200180831161027457829003601f168201915b5050505050905090565b63d0a4ad966102a86104b3565b6103b057600260009054906101000a90046001600160a01b03166001600160a01b031663e3f6b5446040518163ffffffff1660e01b8152600401602060405180830381865afa1580156102ff573d6000803e3d6000fd5b505050506040513d601f19601f820116820180604052508101906103239190610872565b60405163a8a555c560e01b8152336004820152602481018390526001600160a01b03919091169063a8a555c590604401602060405180830381865afa158015610370573d6000803e3d6000fd5b505050506040513d601f19601f82011682018060405250810190610394919061088f565b6103b05760405162461bcd60e51b81526004016101a8906107e2565b60046103bc83826108ff565b5060017f7016719027ff29c13bc4816903851ea968172a86b766c733b954fdabe53c87ee60006040516103f191815260200190565b60405180910390a25050565b6104056104b3565b6104215760405162461bcd60e51b81526004016101a8906107e2565b600380546001600160a01b0319166001600160a01b0383169081179091556040519081526002907f7016719027ff29c13bc4816903851ea968172a86b766c733b954fdabe53c87ee906020016101fe565b6001600160e01b0319821660009081526001602052604090205460ff1681906104ae5760405162461bcd60e51b81526004016101a89190610666565b505050565b60035460009033906001600160a01b031681146105ea57600260009054906101000a90046001600160a01b03166001600160a01b031663570ca7356040518163ffffffff1660e01b8152600401602060405180830381865afa15801561051d573d6000803e3d6000fd5b505050506040513d601f19601f820116820180604052508101906105419190610872565b6001600160a01b0316816001600160a01b0316146105ea57600260009054906101000a90046001600160a01b03166001600160a01b031663ebf0c7176040518163ffffffff1660e01b8152600401602060405180830381865afa1580156105ac573d6000803e3d6000fd5b505050506040513d601f19601f820116820180604052508101906105d09190610872565b6001600160a01b0316816001600160a01b03161491505090565b600191505090565b80356001600160e01b03198116811461060a57600080fd5b919050565b60006020828403121561062157600080fd5b61062a826105f2565b9392505050565b6001600160a01b038116811461064657600080fd5b50565b60006020828403121561065b57600080fd5b813561062a81610631565b600060208083528351808285015260005b8181101561069357858101830151858201604001528201610677565b506000604082860101526040601f19601f8301168501019250505092915050565b634e487b7160e01b600052604160045260246000fd5b600082601f8301126106db57600080fd5b813567ffffffffffffffff808211156106f6576106f66106b4565b604051601f8301601f19908116603f0116810190828211818310171561071e5761071e6106b4565b8160405283815286602085880101111561073757600080fd5b836020870160208301376000602085830101528094505050505092915050565b60006020828403121561076957600080fd5b813567ffffffffffffffff81111561078057600080fd5b61078c848285016106ca565b949350505050565b600080604083850312156107a757600080fd5b6107b0836105f2565b9150602083013567ffffffffffffffff8111156107cc57600080fd5b6107d8858286016106ca565b9150509250929050565b60208082526036908201527f235065726d697373696f6e436865636b23436865636b2063616c6c657220646f60408201527532b9903737ba103430bb32903832b936b4b9b9b4b7b760511b606082015260800190565b600181811c9082168061084c57607f821691505b60208210810361086c57634e487b7160e01b600052602260045260246000fd5b50919050565b60006020828403121561088457600080fd5b815161062a81610631565b6000602082840312156108a157600080fd5b8151801515811461062a57600080fd5b601f8211156104ae57600081815260208120601f850160051c810160208610156108d85750805b601f850160051c820191505b818110156108f7578281556001016108e4565b505050505050565b815167ffffffffffffffff811115610919576109196106b4565b61092d816109278454610838565b846108b1565b602080601f831160018114610962576000841561094a5750858301515b600019600386901b1c1916600185901b1785556108f7565b600085815260208120601f198616915b8281101561099157888601518255948401946001909101908401610972565b50858210156109af5787850151600019600388901b60f8161c191681555b5050505050600190811b0190555056fea26469706673582212205e63d6c0ddebb6514d0885934869a12cfd3de048671f6aa171f99f146a0e988564736f6c63430008110033",
  "immutableReferences": {},
  "source": "// SPDX-License-Identifier: MIT\npragma solidity 0.8.17;\n\nimport './libs/Upgrade.sol';\nimport './libs/AddressExp.sol';\nimport './libs/Constants.sol';\nimport './libs/ERC165.sol';\nimport './libs/Interface.sol';\nimport './libs/Check.sol';\n\ncontract Module is Upgrade, ERC165, PermissionCheck, IModule {\n\tusing Address for address;\n\tusing AddressExp for address;\n\taddress internal _operator; // address\n\tstring  internal _description;\n\tuint256[8] private __; // reserved storage space\n\n\tfunction initModule(address host, string memory description, address operator) internal {\n\t\tinitERC165();\n\t\t_registerInterface(Module_Type);\n\t\t//ERC165(host).checkInterface(DAO_Type, \"#Module#initModule dao host type not match\");\n\t\t_host = IDAO(host);\n\t\t_description = description;\n\t\t_operator = operator;\n\t}\n\n\tfunction isPermissionDAO() view internal override returns (bool) {\n\t\taddress sender = msg.sender;\n\t\tif (sender != _operator) {\n\t\t\tif (sender != _host.operator())\n\t\t\t\treturn sender == _host.root();\n\t\t}\n\t\treturn true;\n\t}\n\n\tfunction impl() view external returns (address) {\n\t\treturn _impl;\n\t}\n\n\tfunction operator() view external override returns (address) {\n\t\treturn _operator;\n\t}\n\n\tfunction description() view external returns (string memory) {\n\t\treturn _description;\n\t}\n\n\tfunction setDescription(string memory value) external Check(Action_DAO_Settings) {\n\t\t_description = value;\n\t\temit Change(Change_Tag_Description, 0);\n\t}\n\n\tfunction setOperator(address operator) external override OnlyDAO {\n\t\t_operator = operator;\n\t\temit Change(Change_Tag_Operator, uint160(operator));\n\t}\n\n\tfunction upgrade(address impl) external override OnlyDAO {\n\t\t_impl = impl;\n\t\temit Change(Change_Tag_Upgrade, uint160(impl));\n\t}\n}\n",
  "sourcePath": "/Users/louis/Project/hc/NFTSwap/SmartHolder/contracts/Module.sol",
  "compiler": {
    "name": "solc",
    "version": "0.8.17+commit.8df45f5f.Emscripten.clang"
  },
  "schemaVersion": "3.4.11",
  "updatedAt": "2023-01-06T04:38:52.230Z",
  "devdoc": {
    "kind": "dev",
    "methods": {
      "supportsInterface(bytes4)": {
        "details": "See {IERC165-supportsInterface}. Time complexity O(1), guaranteed to always use less than 30 000 gas."
      }
    },
    "version": 1
  },
  "userdoc": {
    "kind": "user",
    "methods": {},
    "version": 1
  }
}