{
  "contractName": "NFTs",
  "abi": [
    {
      "anonymous": false,
      "inputs": [
        {
          "indexed": true,
          "internalType": "address",
          "name": "owner",
          "type": "address"
        },
        {
          "indexed": true,
          "internalType": "address",
          "name": "approved",
          "type": "address"
        },
        {
          "indexed": true,
          "internalType": "uint256",
          "name": "tokenId",
          "type": "uint256"
        }
      ],
      "name": "Approval",
      "type": "event"
    },
    {
      "anonymous": false,
      "inputs": [
        {
          "indexed": true,
          "internalType": "address",
          "name": "owner",
          "type": "address"
        },
        {
          "indexed": true,
          "internalType": "address",
          "name": "operator",
          "type": "address"
        },
        {
          "indexed": false,
          "internalType": "bool",
          "name": "approved",
          "type": "bool"
        }
      ],
      "name": "ApprovalForAll",
      "type": "event"
    },
    {
      "anonymous": false,
      "inputs": [
        {
          "indexed": true,
          "internalType": "address",
          "name": "from",
          "type": "address"
        },
        {
          "indexed": true,
          "internalType": "address",
          "name": "to",
          "type": "address"
        },
        {
          "indexed": true,
          "internalType": "uint256",
          "name": "tokenId",
          "type": "uint256"
        }
      ],
      "name": "Transfer",
      "type": "event"
    },
    {
      "inputs": [
        {
          "internalType": "address",
          "name": "to",
          "type": "address"
        },
        {
          "internalType": "uint256",
          "name": "tokenId",
          "type": "uint256"
        }
      ],
      "name": "approve",
      "outputs": [],
      "stateMutability": "nonpayable",
      "type": "function"
    },
    {
      "inputs": [
        {
          "internalType": "address",
          "name": "owner",
          "type": "address"
        }
      ],
      "name": "balanceOf",
      "outputs": [
        {
          "internalType": "uint256",
          "name": "",
          "type": "uint256"
        }
      ],
      "stateMutability": "view",
      "type": "function"
    },
    {
      "inputs": [],
      "name": "baseURI",
      "outputs": [
        {
          "internalType": "string",
          "name": "",
          "type": "string"
        }
      ],
      "stateMutability": "view",
      "type": "function"
    },
    {
      "inputs": [
        {
          "internalType": "bytes4",
          "name": "interfaceId",
          "type": "bytes4"
        },
        {
          "internalType": "string",
          "name": "message",
          "type": "string"
        }
      ],
      "name": "checkInterface",
      "outputs": [],
      "stateMutability": "view",
      "type": "function"
    },
    {
      "inputs": [
        {
          "internalType": "uint256",
          "name": "tokenId",
          "type": "uint256"
        }
      ],
      "name": "getApproved",
      "outputs": [
        {
          "internalType": "address",
          "name": "",
          "type": "address"
        }
      ],
      "stateMutability": "view",
      "type": "function"
    },
    {
      "inputs": [
        {
          "internalType": "address",
          "name": "owner",
          "type": "address"
        },
        {
          "internalType": "address",
          "name": "operator",
          "type": "address"
        }
      ],
      "name": "isApprovedForAll",
      "outputs": [
        {
          "internalType": "bool",
          "name": "",
          "type": "bool"
        }
      ],
      "stateMutability": "view",
      "type": "function"
    },
    {
      "inputs": [],
      "name": "name",
      "outputs": [
        {
          "internalType": "string",
          "name": "",
          "type": "string"
        }
      ],
      "stateMutability": "view",
      "type": "function"
    },
    {
      "inputs": [
        {
          "internalType": "uint256",
          "name": "tokenId",
          "type": "uint256"
        }
      ],
      "name": "ownerOf",
      "outputs": [
        {
          "internalType": "address",
          "name": "",
          "type": "address"
        }
      ],
      "stateMutability": "view",
      "type": "function"
    },
    {
      "inputs": [
        {
          "internalType": "address",
          "name": "from",
          "type": "address"
        },
        {
          "internalType": "address",
          "name": "to",
          "type": "address"
        },
        {
          "internalType": "uint256",
          "name": "tokenId",
          "type": "uint256"
        }
      ],
      "name": "safeTransferFrom",
      "outputs": [],
      "stateMutability": "nonpayable",
      "type": "function"
    },
    {
      "inputs": [
        {
          "internalType": "address",
          "name": "from",
          "type": "address"
        },
        {
          "internalType": "address",
          "name": "to",
          "type": "address"
        },
        {
          "internalType": "uint256",
          "name": "tokenId",
          "type": "uint256"
        },
        {
          "internalType": "bytes",
          "name": "_data",
          "type": "bytes"
        }
      ],
      "name": "safeTransferFrom",
      "outputs": [],
      "stateMutability": "nonpayable",
      "type": "function"
    },
    {
      "inputs": [
        {
          "internalType": "address",
          "name": "operator",
          "type": "address"
        },
        {
          "internalType": "bool",
          "name": "approved",
          "type": "bool"
        }
      ],
      "name": "setApprovalForAll",
      "outputs": [],
      "stateMutability": "nonpayable",
      "type": "function"
    },
    {
      "inputs": [
        {
          "internalType": "bytes4",
          "name": "interfaceId",
          "type": "bytes4"
        }
      ],
      "name": "supportsInterface",
      "outputs": [
        {
          "internalType": "bool",
          "name": "",
          "type": "bool"
        }
      ],
      "stateMutability": "view",
      "type": "function"
    },
    {
      "inputs": [],
      "name": "symbol",
      "outputs": [
        {
          "internalType": "string",
          "name": "",
          "type": "string"
        }
      ],
      "stateMutability": "view",
      "type": "function"
    },
    {
      "inputs": [
        {
          "internalType": "uint256",
          "name": "index",
          "type": "uint256"
        }
      ],
      "name": "tokenByIndex",
      "outputs": [
        {
          "internalType": "uint256",
          "name": "",
          "type": "uint256"
        }
      ],
      "stateMutability": "view",
      "type": "function"
    },
    {
      "inputs": [
        {
          "internalType": "address",
          "name": "owner",
          "type": "address"
        },
        {
          "internalType": "uint256",
          "name": "index",
          "type": "uint256"
        }
      ],
      "name": "tokenOfOwnerByIndex",
      "outputs": [
        {
          "internalType": "uint256",
          "name": "",
          "type": "uint256"
        }
      ],
      "stateMutability": "view",
      "type": "function"
    },
    {
      "inputs": [
        {
          "internalType": "uint256",
          "name": "tokenId",
          "type": "uint256"
        }
      ],
      "name": "tokenURI",
      "outputs": [
        {
          "internalType": "string",
          "name": "",
          "type": "string"
        }
      ],
      "stateMutability": "view",
      "type": "function"
    },
    {
      "inputs": [],
      "name": "totalSupply",
      "outputs": [
        {
          "internalType": "uint256",
          "name": "",
          "type": "uint256"
        }
      ],
      "stateMutability": "view",
      "type": "function"
    },
    {
      "inputs": [
        {
          "internalType": "address",
          "name": "from",
          "type": "address"
        },
        {
          "internalType": "address",
          "name": "to",
          "type": "address"
        },
        {
          "internalType": "uint256",
          "name": "tokenId",
          "type": "uint256"
        }
      ],
      "name": "transferFrom",
      "outputs": [],
      "stateMutability": "nonpayable",
      "type": "function"
    },
    {
      "inputs": [],
      "name": "initNFTs",
      "outputs": [],
      "stateMutability": "nonpayable",
      "type": "function"
    },
    {
      "inputs": [
        {
          "internalType": "uint256",
          "name": "tokenId",
          "type": "uint256"
        }
      ],
      "name": "mint",
      "outputs": [],
      "stateMutability": "nonpayable",
      "type": "function"
    },
    {
      "inputs": [
        {
          "internalType": "address",
          "name": "to",
          "type": "address"
        },
        {
          "internalType": "uint256",
          "name": "tokenId",
          "type": "uint256"
        },
        {
          "internalType": "string",
          "name": "_tokenURI",
          "type": "string"
        },
        {
          "internalType": "bytes",
          "name": "_data",
          "type": "bytes"
        }
      ],
      "name": "safeMintURI",
      "outputs": [],
      "stateMutability": "nonpayable",
      "type": "function"
    },
    {
      "inputs": [
        {
          "internalType": "address",
          "name": "to",
          "type": "address"
        },
        {
          "internalType": "uint256",
          "name": "tokenId",
          "type": "uint256"
        },
        {
          "internalType": "bytes",
          "name": "_data",
          "type": "bytes"
        }
      ],
      "name": "safeMint",
      "outputs": [],
      "stateMutability": "nonpayable",
      "type": "function"
    },
    {
      "inputs": [
        {
          "internalType": "uint256",
          "name": "tokenId",
          "type": "uint256"
        }
      ],
      "name": "burn",
      "outputs": [],
      "stateMutability": "nonpayable",
      "type": "function"
    },
    {
      "inputs": [
        {
          "internalType": "uint256",
          "name": "tokenId",
          "type": "uint256"
        },
        {
          "internalType": "string",
          "name": "_tokenURI",
          "type": "string"
        }
      ],
      "name": "setTokenURI",
      "outputs": [],
      "stateMutability": "nonpayable",
      "type": "function"
    },
    {
      "inputs": [
        {
          "internalType": "string",
          "name": "baseURI_",
          "type": "string"
        }
      ],
      "name": "setBaseURI",
      "outputs": [],
      "stateMutability": "nonpayable",
      "type": "function"
    },
    {
      "inputs": [
        {
          "internalType": "uint256",
          "name": "tokenId",
          "type": "uint256"
        }
      ],
      "name": "exists",
      "outputs": [
        {
          "internalType": "bool",
          "name": "",
          "type": "bool"
        }
      ],
      "stateMutability": "view",
      "type": "function"
    },
    {
      "inputs": [
        {
          "internalType": "address",
          "name": "spender",
          "type": "address"
        },
        {
          "internalType": "uint256",
          "name": "tokenId",
          "type": "uint256"
        }
      ],
      "name": "isApprovedOrOwner",
      "outputs": [
        {
          "internalType": "bool",
          "name": "",
          "type": "bool"
        }
      ],
      "stateMutability": "view",
      "type": "function"
    }
  ],
  "bytecode": "0x608060405234801561001057600080fd5b506126ca806100206000396000f3fe608060405234801561001057600080fd5b50600436106101a95760003560e01c80634f558e79116100f957806395d89b4111610097578063b88d4fde11610071578063b88d4fde146107ee578063c64df69d146108b2578063c87b56dd14610967578063e985e9c514610984576101a9565b806395d89b411461079b578063a0712d68146107a3578063a22cb465146107c0576101a9565b80636352211e116100d35780636352211e146106975780636c0360eb146106b457806370a08231146106bc5780638832e6e3146106e2576101a9565b80634f558e79146105b95780634f6ccce7146105d657806355f804b3146105f3576101a9565b806318160ddd116101665780633480f97a116101405780633480f97a1461053257806342842e0e1461053a57806342966c6814610570578063430c20811461058d576101a9565b806318160ddd146104b657806323b872dd146104d05780632f745c5914610506576101a9565b806301ffc9a7146101ae57806306fdde03146101e9578063081812fc14610266578063095ea7b31461029f5780630fa86d3d146102cd578063162094c41461040b575b600080fd5b6101d5600480360360208110156101c457600080fd5b50356001600160e01b0319166109b2565b604080519115158252519081900360200190f35b6101f16109d5565b6040805160208082528351818301528351919283929083019185019080838360005b8381101561022b578181015183820152602001610213565b50505050905090810190601f1680156102585780820380516001836020036101000a031916815260200191505b509250505060405180910390f35b6102836004803603602081101561027c57600080fd5b5035610a6b565b604080516001600160a01b039092168252519081900360200190f35b6102cb600480360360408110156102b557600080fd5b506001600160a01b038135169060200135610acd565b005b6102cb600480360360808110156102e357600080fd5b6001600160a01b0382351691602081013591810190606081016040820135600160201b81111561031257600080fd5b82018360208201111561032457600080fd5b803590602001918460018302840111600160201b8311171561034557600080fd5b91908080601f0160208091040260200160405190810160405280939291908181526020018383808284376000920191909152509295949360208101935035915050600160201b81111561039757600080fd5b8201836020820111156103a957600080fd5b803590602001918460018302840111600160201b831117156103ca57600080fd5b91908080601f016020809104026020016040519081016040528093929190818152602001838380828437600092019190915250929550610ba8945050505050565b6102cb6004803603604081101561042157600080fd5b81359190810190604081016020820135600160201b81111561044257600080fd5b82018360208201111561045457600080fd5b803590602001918460018302840111600160201b8311171561047557600080fd5b91908080601f016020809104026020016040519081016040528093929190818152602001838380828437600092019190915250929550610bc3945050505050565b6104be610c30565b60408051918252519081900360200190f35b6102cb600480360360608110156104e657600080fd5b506001600160a01b03813581169160208101359091169060400135610c41565b6104be6004803603604081101561051c57600080fd5b506001600160a01b038135169060200135610ca8565b6102cb610cd3565b6102cb6004803603606081101561055057600080fd5b506001600160a01b03813581169160208101359091169060400135610d1f565b6102cb6004803603602081101561058657600080fd5b5035610d3a565b6101d5600480360360408110156105a357600080fd5b506001600160a01b038135169060200135610d46565b6101d5600480360360208110156105cf57600080fd5b5035610d52565b6104be600480360360208110156105ec57600080fd5b5035610d5d565b6102cb6004803603602081101561060957600080fd5b810190602081018135600160201b81111561062357600080fd5b82018360208201111561063557600080fd5b803590602001918460018302840111600160201b8311171561065657600080fd5b91908080601f016020809104026020016040519081016040528093929190818152602001838380828437600092019190915250929550610d73945050505050565b610283600480360360208110156106ad57600080fd5b5035610d7c565b6101f1610da4565b6104be600480360360208110156106d257600080fd5b50356001600160a01b0316610e05565b6102cb600480360360608110156106f857600080fd5b6001600160a01b0382351691602081013591810190606081016040820135600160201b81111561072757600080fd5b82018360208201111561073957600080fd5b803590602001918460018302840111600160201b8311171561075a57600080fd5b91908080601f016020809104026020016040519081016040528093929190818152602001838380828437600092019190915250929550610e6d945050505050565b6101f1610e78565b6102cb600480360360208110156107b957600080fd5b5035610ed9565b6102cb600480360360408110156107d657600080fd5b506001600160a01b0381351690602001351515610ee3565b6102cb6004803603608081101561080457600080fd5b6001600160a01b03823581169260208101359091169160408201359190810190608081016060820135600160201b81111561083e57600080fd5b82018360208201111561085057600080fd5b803590602001918460018302840111600160201b8311171561087157600080fd5b91908080601f016020809104026020016040519081016040528093929190818152602001838380828437600092019190915250929550610fe8945050505050565b6102cb600480360360408110156108c857600080fd5b6001600160e01b03198235169190810190604081016020820135600160201b8111156108f357600080fd5b82018360208201111561090557600080fd5b803590602001918460018302840111600160201b8311171561092657600080fd5b91908080601f016020809104026020016040519081016040528093929190818152602001838380828437600092019190915250929550611040945050505050565b6101f16004803603602081101561097d57600080fd5b50356110d3565b6101d56004803603604081101561099a57600080fd5b506001600160a01b03813581169160200135166110de565b6001600160e01b0319811660009081526001602052604090205460ff165b919050565b60078054604080516020601f6002600019610100600188161502019095169490940493840181900481028201810190925282815260609390929091830182828015610a615780601f10610a3657610100808354040283529160200191610a61565b820191906000526020600020905b815481529060010190602001808311610a4457829003601f168201915b5050505050905090565b6000610a768261110c565b610ab15760405162461bcd60e51b815260040180806020018281038252602c815260200180612565602c913960400191505060405180910390fd5b506000908152600560205260409020546001600160a01b031690565b6000610ad882610d7c565b9050806001600160a01b0316836001600160a01b03161415610b2b5760405162461bcd60e51b81526004018080602001828103825260218152602001806126436021913960400191505060405180910390fd5b806001600160a01b0316610b3d611119565b6001600160a01b03161480610b5e5750610b5e81610b59611119565b6110de565b610b995760405162461bcd60e51b81526004018080602001828103825260388152602001806124976038913960400191505060405180910390fd5b610ba38383611123565b505050565b610bb3848483611191565b610bbd83836111e3565b50505050565b610bcb611119565b6001600160a01b0316610bdd83610d7c565b6001600160a01b031614610c225760405162461bcd60e51b81526004018080602001828103825260218152602001806124cf6021913960400191505060405180910390fd5b610c2c82826111e3565b5050565b6000610c3c6003611246565b905090565b610c52610c4c611119565b82611251565b610c8d5760405162461bcd60e51b81526004018080602001828103825260318152602001806126646031913960400191505060405180910390fd5b610ba3838383604051806020016040528060008152506112f5565b6001600160a01b0382166000908152600260205260408120610cca9083611443565b90505b92915050565b610cdb61144f565b610d1d604051806040016040528060048152602001634e46547360e01b815250604051806040016040528060048152602001634e46547360e01b815250611500565b565b610ba383838360405180602001604052806000815250610fe8565b610d4381611558565b50565b6000610cca8383611251565b6000610ccd8261110c565b600080610d6b600384611635565b509392505050565b610d4381611651565b6000610ccd8260405180606001604052806029815260200161251a6029913960039190611664565b600a8054604080516020601f6002600019610100600188161502019095169490940493840181900481028201810190925282815260609390929091830182828015610a615780601f10610a3657610100808354040283529160200191610a61565b60006001600160a01b038216610e4c5760405162461bcd60e51b815260040180806020018281038252602a8152602001806124f0602a913960400191505060405180910390fd5b6001600160a01b0382166000908152600260205260409020610ccd90611246565b610ba3838383611191565b60088054604080516020601f6002600019610100600188161502019095169490940493840181900481028201810190925282815260609390929091830182828015610a615780601f10610a3657610100808354040283529160200191610a61565b610d43338261167b565b610eeb611119565b6001600160a01b0316826001600160a01b03161415610f51576040805162461bcd60e51b815260206004820152601960248201527f4552433732313a20617070726f766520746f2063616c6c657200000000000000604482015290519081900360640190fd5b8060066000610f5e611119565b6001600160a01b03908116825260208083019390935260409182016000908120918716808252919093529120805460ff191692151592909217909155610fa2611119565b6001600160a01b03167f17307eab39ab6107e8899845ad3d59bd9653f200f220920489ca2b5937696c318360405180821515815260200191505060405180910390a35050565b610ff9610ff3611119565b83611251565b6110345760405162461bcd60e51b81526004018080602001828103825260318152602001806126646031913960400191505060405180910390fd5b610bbd848484846117b9565b611049826109b2565b8190610ba35760405162461bcd60e51b81526004018080602001828103825283818151815260200191508051906020019080838360005b83811015611098578181015183820152602001611080565b50505050905090810190601f1680156110c55780820380516001836020036101000a031916815260200191505b509250505060405180910390fd5b6060610ccd8261180c565b6001600160a01b03918216600090815260066020908152604080832093909416825291909152205460ff1690565b6000610ccd600383611ab3565b6000610c3c611abf565b600081815260056020526040902080546001600160a01b0319166001600160a01b038416908117909155819061115882610d7c565b6001600160a01b03167f8c5be1e5ebec7d5bd14f71427d1e84f3dd0314c0f7b2291e5b200ac8c7c3b92560405160405180910390a45050565b61119b838361167b565b6111a86000848484611ac3565b610ba35760405162461bcd60e51b81526004018080602001828103825260328152602001806124156032913960400191505060405180910390fd5b6111ec8261110c565b6112275760405162461bcd60e51b815260040180806020018281038252602c815260200180612591602c913960400191505060405180910390fd5b60008281526009602090815260409091208251610ba39284019061231f565b6000610ccd82611c10565b600061125c8261110c565b6112975760405162461bcd60e51b815260040180806020018281038252602c81526020018061246b602c913960400191505060405180910390fd5b60006112a283610d7c565b9050806001600160a01b0316846001600160a01b031614806112dd5750836001600160a01b03166112d284610a6b565b6001600160a01b0316145b806112ed57506112ed81856110de565b949350505050565b836001600160a01b031661130883610d7c565b6001600160a01b03161461134d5760405162461bcd60e51b81526004018080602001828103825260298152602001806125eb6029913960400191505060405180910390fd5b6001600160a01b0383166113925760405162461bcd60e51b81526004018080602001828103825260248152602001806124476024913960400191505060405180910390fd5b61139e84848484610bbd565b6113a9600083611123565b6001600160a01b03841660009081526002602052604090206113cb9083611c14565b506001600160a01b03831660009081526002602052604090206113ee9083611c20565b506113fb60038385611c2c565b5081836001600160a01b0316856001600160a01b03167fddf252ad1be2c89b69c2b068fc378daa952ba7f163c4a11628f55a4df523b3ef60405160405180910390a450505050565b6000610cca8383611c42565b600054610100900460ff16806114685750611468611ca6565b80611476575060005460ff16155b6114b15760405162461bcd60e51b815260040180806020018281038252602e8152602001806125bd602e913960400191505060405180910390fd5b600054610100900460ff161580156114dc576000805460ff1961ff0019909116610100171660011790555b6114ec6301ffc9a760e01b611cac565b8015610d43576000805461ff001916905550565b815161151390600790602085019061231f565b50805161152790600890602084019061231f565b506115386380ac58cd60e01b611cac565b611548635b5e139f60e01b611cac565b610c2c63780e9d6360e01b611cac565b600061156382610d7c565b90506115818160008460405180602001604052806000815250610bbd565b61158c600083611123565b60008281526009602052604090205460026000196101006001841615020190911604156115ca5760008281526009602052604081206115ca9161239d565b6001600160a01b03811660009081526002602052604090206115ec9083611c14565b506115f8600383611cb5565b5060405182906000906001600160a01b038416907fddf252ad1be2c89b69c2b068fc378daa952ba7f163c4a11628f55a4df523b3ef908390a45050565b60008080806116448686611cc1565b9097909650945050505050565b8051610c2c90600a90602084019061231f565b6000611671848484611d3c565b90505b9392505050565b6001600160a01b0382166116d6576040805162461bcd60e51b815260206004820181905260248201527f4552433732313a206d696e7420746f20746865207a65726f2061646472657373604482015290519081900360640190fd5b6116df8161110c565b15611731576040805162461bcd60e51b815260206004820152601c60248201527f4552433732313a20746f6b656e20616c7265616479206d696e74656400000000604482015290519081900360640190fd5b61174d6000838360405180602001604052806000815250610bbd565b6001600160a01b038216600090815260026020526040902061176f9082611c20565b5061177c60038284611c2c565b5060405181906001600160a01b038416906000907fddf252ad1be2c89b69c2b068fc378daa952ba7f163c4a11628f55a4df523b3ef908290a45050565b6117c5848484846112f5565b6117d184848484611ac3565b610bbd5760405162461bcd60e51b81526004018080602001828103825260328152602001806124156032913960400191505060405180910390fd5b60606118178261110c565b6118525760405162461bcd60e51b815260040180806020018281038252602f815260200180612614602f913960400191505060405180910390fd5b60008281526009602090815260409182902080548351601f60026000196101006001861615020190931692909204918201849004840281018401909452808452606093928301828280156118e75780601f106118bc576101008083540402835291602001916118e7565b820191906000526020600020905b8154815290600101906020018083116118ca57829003601f168201915b5050600a54939450505050600260001961010060018416150201909116046119105790506109d0565b8051156119e157600a8160405160200180838054600181600116156101000203166002900480156119785780601f10611956576101008083540402835291820191611978565b820191906000526020600020905b815481529060010190602001808311611964575b5050825160208401908083835b602083106119a45780518252601f199092019160209182019101611985565b6001836020036101000a038019825116818451168082178552505050505050905001925050506040516020818303038152906040529150506109d0565b600a6119ec84611dc9565b6040516020018083805460018160011615610100020316600290048015611a4a5780601f10611a28576101008083540402835291820191611a4a565b820191906000526020600020905b815481529060010190602001808311611a36575b5050825160208401908083835b60208310611a765780518252601f199092019160209182019101611a57565b6001836020036101000a03801982511681845116808217855250505050505090500192505050604051602081830303815290604052915050919050565b6000610cca8383611ea4565b3390565b6000611ad7846001600160a01b0316611ebc565b611ae3575060016112ed565b6060630a85bd0160e11b611af5611119565b87868660405160240180856001600160a01b03168152602001846001600160a01b0316815260200183815260200180602001828103825283818151815260200191508051906020019080838360005b83811015611b5c578181015183820152602001611b44565b50505050905090810190601f168015611b895780820380516001836020036101000a031916815260200191505b5095505050505050604051602081830303815290604052906001600160e01b0319166020820180516001600160e01b038381831617835250505050905063150b7a0260e01b6001600160e01b031916611bfb868360405180606001604052806032815260200161241560329139611ef5565b6001600160e01b031916149695505050505050565b5490565b6000610cca838361201d565b6000610cca83836120e3565b600061167184846001600160a01b03851661212d565b81546000908210611c845760405162461bcd60e51b81526004018080602001828103825260228152602001806123f36022913960400191505060405180910390fd5b826000018281548110611c9357fe5b9060005260206000200154905092915050565b303b1590565b610d43816121c4565b6000610cca838361224b565b815460009081908310611d055760405162461bcd60e51b81526004018080602001828103825260228152602001806125436022913960400191505060405180910390fd5b6000846000018481548110611d1657fe5b906000526020600020906002020190508060000154816001015492509250509250929050565b60008281526001840160205260408120548281611d9a5760405162461bcd60e51b8152602060048201818152835160248401528351909283926044909101919085019080838360008315611098578181015183820152602001611080565b50846000016001820381548110611dad57fe5b9060005260206000209060020201600101549150509392505050565b606081611dee57506040805180820190915260018152600360fc1b60208201526109d0565b8160005b8115611e0657600101600a82049150611df2565b60608167ffffffffffffffff81118015611e1f57600080fd5b506040519080825280601f01601f191660200182016040528015611e4a576020820181803683370190505b50859350905060001982015b8315611e9b57600a840660300160f81b82828060019003935081518110611e7957fe5b60200101906001600160f81b031916908160001a905350600a84049350611e56565b50949350505050565b60009081526001919091016020526040902054151590565b6000813f7fc5d2460186f7233c927e7db2dcc703c0e500b653ca82273b7bfad8045d85a4708181148015906112ed575050151592915050565b6000806060856001600160a01b0316856040518082805190602001908083835b60208310611f345780518252601f199092019160209182019101611f15565b6001836020036101000a0380198251168184511680821785525050505050509050019150506000604051808303816000865af19150503d8060008114611f96576040519150601f19603f3d011682016040523d82523d6000602084013e611f9b565b606091505b509150915081611ffc57805115611fb55780518082602001fd5b60405162461bcd60e51b8152602060048201818152865160248401528651879391928392604401919085019080838360008315611098578181015183820152602001611080565b80806020019051602081101561201157600080fd5b50519250611674915050565b600081815260018301602052604081205480156120d9578354600019808301919081019060009087908390811061205057fe5b906000526020600020015490508087600001848154811061206d57fe5b60009182526020808320909101929092558281526001898101909252604090209084019055865487908061209d57fe5b60019003818190600052602060002001600090559055866001016000878152602001908152602001600020600090556001945050505050610ccd565b6000915050610ccd565b60006120ef8383611ea4565b61212557508154600181810184556000848152602080822090930184905584548482528286019093526040902091909155610ccd565b506000610ccd565b600082815260018401602052604081205480612192575050604080518082018252838152602080820184815286546001818101895560008981528481209551600290930290950191825591519082015586548684528188019092529290912055611674565b828560000160018303815481106121a557fe5b9060005260206000209060020201600101819055506000915050611674565b6001600160e01b03198082161415612223576040805162461bcd60e51b815260206004820152601c60248201527f4552433136353a20696e76616c696420696e7465726661636520696400000000604482015290519081900360640190fd5b6001600160e01b0319166000908152600160208190526040909120805460ff19169091179055565b600081815260018301602052604081205480156120d9578354600019808301919081019060009087908390811061227e57fe5b906000526020600020906002020190508087600001848154811061229e57fe5b6000918252602080832084546002909302019182556001938401549184019190915583548252898301905260409020908401905586548790806122dd57fe5b6000828152602080822060026000199094019384020182815560019081018390559290935588815289820190925260408220919091559450610ccd9350505050565b828054600181600116156101000203166002900490600052602060002090601f016020900481019282601f1061236057805160ff191683800117855561238d565b8280016001018555821561238d579182015b8281111561238d578251825591602001919060010190612372565b506123999291506123dd565b5090565b50805460018160011615610100020316600290046000825580601f106123c35750610d43565b601f016020900490600052602060002090810190610d4391905b5b8082111561239957600081556001016123de56fe456e756d657261626c655365743a20696e646578206f7574206f6620626f756e64734552433732313a207472616e7366657220746f206e6f6e20455243373231526563656976657220696d706c656d656e7465724552433732313a207472616e7366657220746f20746865207a65726f20616464726573734552433732313a206f70657261746f7220717565727920666f72206e6f6e6578697374656e7420746f6b656e4552433732313a20617070726f76652063616c6c6572206973206e6f74206f776e6572206e6f7220617070726f76656420666f7220616c6c234e46547323736574546f6b656e5552493a206f776e6572206e6f206d617463684552433732313a2062616c616e636520717565727920666f7220746865207a65726f20616464726573734552433732313a206f776e657220717565727920666f72206e6f6e6578697374656e7420746f6b656e456e756d657261626c654d61703a20696e646578206f7574206f6620626f756e64734552433732313a20617070726f76656420717565727920666f72206e6f6e6578697374656e7420746f6b656e4552433732314d657461646174613a2055524920736574206f66206e6f6e6578697374656e7420746f6b656e436f6e747261637420696e7374616e63652068617320616c7265616479206265656e20696e697469616c697a65644552433732313a207472616e73666572206f6620746f6b656e2074686174206973206e6f74206f776e4552433732314d657461646174613a2055524920717565727920666f72206e6f6e6578697374656e7420746f6b656e4552433732313a20617070726f76616c20746f2063757272656e74206f776e65724552433732313a207472616e736665722063616c6c6572206973206e6f74206f776e6572206e6f7220617070726f766564a26469706673582212206dc9fb0d0078f6fb65dd32367238e0078758d3e22101c1d1581ce097e76fff6b64736f6c634300060c0033",
  "immutableReferences": {},
  "source": "\npragma solidity >=0.6.0 <=0.8.15;\n\nimport \"./ERC721.sol\";\nimport \"./ERC165.sol\";\n\ncontract NFTs is ERC165, ERC721_IMPL {\n\n\tfunction initNFTs() external {\n\t\tinitERC165();\n\t\tinitERC721_IMPL(\"NFTs\", \"NFTs\");\n\t}\n\n\tfunction mint(uint256 tokenId) public {\n\t\t_mint(msg.sender, tokenId);\n\t}\n\n\tfunction safeMintURI(address to, uint256 tokenId, string memory _tokenURI, bytes memory _data) public {\n\t\t_safeMint(to, tokenId, _data);\n\t\t_setTokenURI(tokenId, _tokenURI);\n\t}\n\n\tfunction safeMint(address to, uint256 tokenId, bytes memory _data) public {\n\t\t_safeMint(to, tokenId, _data);\n\t}\n\n\tfunction burn(uint256 tokenId) public {\n\t\t_burn(tokenId);\n\t}\n\n\tfunction setTokenURI(uint256 tokenId, string memory _tokenURI) public {\n\t\trequire(ownerOf(tokenId) == _msgSender(), \"#NFTs#setTokenURI: owner no match\");\n\t\t_setTokenURI(tokenId, _tokenURI);\n\t}\n\n\tfunction setBaseURI(string memory baseURI_) public {\n\t\t_setBaseURI(baseURI_);\n\t}\n\n\tfunction exists(uint256 tokenId) view public returns (bool) {\n\t\treturn _exists(tokenId);\n\t}\n\n\tfunction isApprovedOrOwner(address spender, uint256 tokenId) view public returns (bool) {\n\t\treturn _havePermission(spender, tokenId);\n\t}\n\n\tfunction _msgSender() internal view virtual override(Initializable,ERC721_IMPL) returns (address) {\n\t\treturn Initializable._msgSender();\n\t}\n\n\tfunction _msgData() internal view virtual override(Initializable,ERC721_IMPL) returns (bytes memory) {\n\t\treturn Initializable._msgData();\n\t}\n\n\tfunction _registerInterface(bytes4 interfaceId) internal virtual override(ERC165,ERC721_IMPL) {\n\t\tERC165._registerInterface(interfaceId);\n\t}\n\n}\n",
  "sourcePath": "/Users/louis/Project/hc/NFTSwap/SmartHolder/contracts/NFTs.sol",
  "compiler": {
    "name": "solc",
    "version": "0.6.12+commit.27d51765.Emscripten.clang"
  },
  "schemaVersion": "3.4.8",
  "updatedAt": "2022-09-29T06:33:42.073Z",
  "devdoc": {
    "kind": "dev",
    "methods": {
      "approve(address,uint256)": {
        "details": "Approves another address to transfer the given token ID The zero address indicates there is no approved address. There can only be one approved address per token at a given time. Can only be called by the token owner or an approved operator.",
        "params": {
          "to": "address to be approved for the given token ID",
          "tokenId": "uint256 ID of the token to be approved"
        }
      },
      "balanceOf(address)": {
        "details": "Gets the balance of the specified address.",
        "params": {
          "owner": "address to query the balance of"
        },
        "returns": {
          "_0": "uint256 representing the amount owned by the passed address"
        }
      },
      "baseURI()": {
        "details": "Returns the base URI set via {_setBaseURI}. This will be automatically added as a prefix in {tokenURI} to each token's URI, or to the token ID if no specific URI is set for that token ID."
      },
      "getApproved(uint256)": {
        "details": "Gets the approved address for a token ID, or zero if no address set Reverts if the token ID does not exist.",
        "params": {
          "tokenId": "uint256 ID of the token to query the approval of"
        },
        "returns": {
          "_0": "address currently approved for the given token ID"
        }
      },
      "isApprovedForAll(address,address)": {
        "details": "Tells whether an operator is approved by a given owner.",
        "params": {
          "operator": "operator address which you want to query the approval of",
          "owner": "owner address which you want to query the approval of"
        },
        "returns": {
          "_0": "bool whether the given operator is approved by the given owner"
        }
      },
      "name()": {
        "details": "Gets the token name.",
        "returns": {
          "_0": "string representing the token name"
        }
      },
      "ownerOf(uint256)": {
        "details": "Gets the owner of the specified token ID.",
        "params": {
          "tokenId": "uint256 ID of the token to query the owner of"
        },
        "returns": {
          "_0": "address currently marked as the owner of the given token ID"
        }
      },
      "safeTransferFrom(address,address,uint256)": {
        "details": "Safely transfers the ownership of a given token ID to another address If the target address is a contract, it must implement {IERC721Receiver-onERC721Received}, which is called upon a safe transfer, and return the magic value `bytes4(keccak256(\"onERC721Received(address,address,uint256,bytes)\"))`; otherwise, the transfer is reverted. Requires the msg.sender to be the owner, approved, or operator",
        "params": {
          "from": "current owner of the token",
          "to": "address to receive the ownership of the given token ID",
          "tokenId": "uint256 ID of the token to be transferred"
        }
      },
      "safeTransferFrom(address,address,uint256,bytes)": {
        "details": "Safely transfers the ownership of a given token ID to another address If the target address is a contract, it must implement {IERC721Receiver-onERC721Received}, which is called upon a safe transfer, and return the magic value `bytes4(keccak256(\"onERC721Received(address,address,uint256,bytes)\"))`; otherwise, the transfer is reverted. Requires the _msgSender() to be the owner, approved, or operator",
        "params": {
          "_data": "bytes data to send along with a safe transfer check",
          "from": "current owner of the token",
          "to": "address to receive the ownership of the given token ID",
          "tokenId": "uint256 ID of the token to be transferred"
        }
      },
      "setApprovalForAll(address,bool)": {
        "details": "Sets or unsets the approval of a given operator An operator is allowed to transfer all tokens of the sender on their behalf.",
        "params": {
          "approved": "representing the status of the approval to be set",
          "operator": "operator address to set the approval"
        }
      },
      "supportsInterface(bytes4)": {
        "details": "See {IERC165-supportsInterface}. Time complexity O(1), guaranteed to always use less than 30 000 gas."
      },
      "symbol()": {
        "details": "Gets the token symbol.",
        "returns": {
          "_0": "string representing the token symbol"
        }
      },
      "tokenByIndex(uint256)": {
        "details": "Gets the token ID at a given index of all the tokens in this contract Reverts if the index is greater or equal to the total number of tokens.",
        "params": {
          "index": "uint256 representing the index to be accessed of the tokens list"
        },
        "returns": {
          "_0": "uint256 token ID at the given index of the tokens list"
        }
      },
      "tokenOfOwnerByIndex(address,uint256)": {
        "details": "Gets the token ID at a given index of the tokens list of the requested owner.",
        "params": {
          "index": "uint256 representing the index to be accessed of the requested tokens list",
          "owner": "address owning the tokens list to be accessed"
        },
        "returns": {
          "_0": "uint256 token ID at the given index of the tokens list owned by the requested address"
        }
      },
      "totalSupply()": {
        "details": "Gets the total amount of tokens stored by the contract.",
        "returns": {
          "_0": "uint256 representing the total amount of tokens"
        }
      },
      "transferFrom(address,address,uint256)": {
        "details": "Transfers the ownership of a given token ID to another address. Usage of this method is discouraged, use {safeTransferFrom} whenever possible. Requires the msg.sender to be the owner, approved, or operator.",
        "params": {
          "from": "current owner of the token",
          "to": "address to receive the ownership of the given token ID",
          "tokenId": "uint256 ID of the token to be transferred"
        }
      }
    },
    "version": 1
  },
  "userdoc": {
    "kind": "user",
    "methods": {},
    "version": 1
  }
}