{
  "contractName": "NFTsTest",
  "abi": [
    {
      "inputs": [],
      "name": "AddressEmpty",
      "type": "error"
    },
    {
      "inputs": [],
      "name": "ApprovalToOwnerInERC721",
      "type": "error"
    },
    {
      "inputs": [],
      "name": "ApproveAllToCallerInERC721",
      "type": "error"
    },
    {
      "inputs": [
        {
          "internalType": "bytes4",
          "name": "interfaceId",
          "type": "bytes4"
        }
      ],
      "name": "CheckInterfaceNoMatch",
      "type": "error"
    },
    {
      "inputs": [],
      "name": "NonERC721ReceiverImplementer",
      "type": "error"
    },
    {
      "inputs": [],
      "name": "PermissionDeniedInERC721",
      "type": "error"
    },
    {
      "inputs": [],
      "name": "TokenIDAlreadyMintedInERC721",
      "type": "error"
    },
    {
      "inputs": [],
      "name": "TokenIDNonExistentInERC721",
      "type": "error"
    },
    {
      "inputs": [],
      "name": "TransferOfTokenIDThatIsNotOwnInERC721",
      "type": "error"
    },
    {
      "anonymous": false,
      "inputs": [
        {
          "indexed": true,
          "internalType": "address",
          "name": "owner",
          "type": "address"
        },
        {
          "indexed": true,
          "internalType": "address",
          "name": "approved",
          "type": "address"
        },
        {
          "indexed": true,
          "internalType": "uint256",
          "name": "tokenId",
          "type": "uint256"
        }
      ],
      "name": "Approval",
      "type": "event"
    },
    {
      "anonymous": false,
      "inputs": [
        {
          "indexed": true,
          "internalType": "address",
          "name": "owner",
          "type": "address"
        },
        {
          "indexed": true,
          "internalType": "address",
          "name": "operator",
          "type": "address"
        },
        {
          "indexed": false,
          "internalType": "bool",
          "name": "approved",
          "type": "bool"
        }
      ],
      "name": "ApprovalForAll",
      "type": "event"
    },
    {
      "anonymous": false,
      "inputs": [
        {
          "indexed": false,
          "internalType": "uint8",
          "name": "version",
          "type": "uint8"
        }
      ],
      "name": "Initialized",
      "type": "event"
    },
    {
      "anonymous": false,
      "inputs": [
        {
          "indexed": true,
          "internalType": "address",
          "name": "from",
          "type": "address"
        },
        {
          "indexed": true,
          "internalType": "address",
          "name": "to",
          "type": "address"
        },
        {
          "indexed": true,
          "internalType": "uint256",
          "name": "tokenId",
          "type": "uint256"
        }
      ],
      "name": "Transfer",
      "type": "event"
    },
    {
      "inputs": [
        {
          "internalType": "address",
          "name": "to",
          "type": "address"
        },
        {
          "internalType": "uint256",
          "name": "tokenId",
          "type": "uint256"
        }
      ],
      "name": "approve",
      "outputs": [],
      "stateMutability": "nonpayable",
      "type": "function"
    },
    {
      "inputs": [
        {
          "internalType": "address",
          "name": "owner",
          "type": "address"
        }
      ],
      "name": "balanceOf",
      "outputs": [
        {
          "internalType": "uint256",
          "name": "",
          "type": "uint256"
        }
      ],
      "stateMutability": "view",
      "type": "function"
    },
    {
      "inputs": [],
      "name": "baseURI",
      "outputs": [
        {
          "internalType": "string",
          "name": "",
          "type": "string"
        }
      ],
      "stateMutability": "view",
      "type": "function"
    },
    {
      "inputs": [
        {
          "internalType": "uint256",
          "name": "tokenId",
          "type": "uint256"
        }
      ],
      "name": "burn",
      "outputs": [],
      "stateMutability": "nonpayable",
      "type": "function"
    },
    {
      "inputs": [
        {
          "internalType": "bytes4",
          "name": "interfaceId",
          "type": "bytes4"
        }
      ],
      "name": "checkInterface",
      "outputs": [],
      "stateMutability": "view",
      "type": "function"
    },
    {
      "inputs": [],
      "name": "contractURI",
      "outputs": [
        {
          "internalType": "string",
          "name": "",
          "type": "string"
        }
      ],
      "stateMutability": "view",
      "type": "function"
    },
    {
      "inputs": [
        {
          "internalType": "uint256",
          "name": "id",
          "type": "uint256"
        }
      ],
      "name": "exists",
      "outputs": [
        {
          "internalType": "bool",
          "name": "",
          "type": "bool"
        }
      ],
      "stateMutability": "view",
      "type": "function"
    },
    {
      "inputs": [
        {
          "internalType": "uint256",
          "name": "tokenId",
          "type": "uint256"
        }
      ],
      "name": "getApproved",
      "outputs": [
        {
          "internalType": "address",
          "name": "",
          "type": "address"
        }
      ],
      "stateMutability": "view",
      "type": "function"
    },
    {
      "inputs": [],
      "name": "initNFTs",
      "outputs": [],
      "stateMutability": "nonpayable",
      "type": "function"
    },
    {
      "inputs": [
        {
          "internalType": "address",
          "name": "owner",
          "type": "address"
        },
        {
          "internalType": "address",
          "name": "operator",
          "type": "address"
        }
      ],
      "name": "isApprovedForAll",
      "outputs": [
        {
          "internalType": "bool",
          "name": "",
          "type": "bool"
        }
      ],
      "stateMutability": "view",
      "type": "function"
    },
    {
      "inputs": [
        {
          "internalType": "address",
          "name": "spender",
          "type": "address"
        },
        {
          "internalType": "uint256",
          "name": "tokenId",
          "type": "uint256"
        }
      ],
      "name": "isApprovedOrOwner",
      "outputs": [
        {
          "internalType": "bool",
          "name": "",
          "type": "bool"
        }
      ],
      "stateMutability": "view",
      "type": "function"
    },
    {
      "inputs": [],
      "name": "lastTransfer",
      "outputs": [
        {
          "internalType": "address",
          "name": "from",
          "type": "address"
        },
        {
          "internalType": "address",
          "name": "to",
          "type": "address"
        },
        {
          "internalType": "uint256",
          "name": "blockNumber",
          "type": "uint256"
        },
        {
          "internalType": "uint256",
          "name": "tokenId",
          "type": "uint256"
        },
        {
          "internalType": "bytes",
          "name": "data",
          "type": "bytes"
        }
      ],
      "stateMutability": "view",
      "type": "function"
    },
    {
      "inputs": [
        {
          "internalType": "uint256",
          "name": "tokenId",
          "type": "uint256"
        }
      ],
      "name": "mint",
      "outputs": [],
      "stateMutability": "nonpayable",
      "type": "function"
    },
    {
      "inputs": [],
      "name": "name",
      "outputs": [
        {
          "internalType": "string",
          "name": "",
          "type": "string"
        }
      ],
      "stateMutability": "view",
      "type": "function"
    },
    {
      "inputs": [
        {
          "internalType": "uint256",
          "name": "tokenId",
          "type": "uint256"
        }
      ],
      "name": "ownerOf",
      "outputs": [
        {
          "internalType": "address",
          "name": "owner",
          "type": "address"
        }
      ],
      "stateMutability": "view",
      "type": "function"
    },
    {
      "inputs": [
        {
          "internalType": "address",
          "name": "to",
          "type": "address"
        },
        {
          "internalType": "uint256",
          "name": "tokenId",
          "type": "uint256"
        },
        {
          "internalType": "bytes",
          "name": "_data",
          "type": "bytes"
        }
      ],
      "name": "safeMint",
      "outputs": [],
      "stateMutability": "nonpayable",
      "type": "function"
    },
    {
      "inputs": [
        {
          "internalType": "address",
          "name": "to",
          "type": "address"
        },
        {
          "internalType": "uint256",
          "name": "tokenId",
          "type": "uint256"
        },
        {
          "internalType": "string",
          "name": "_tokenURI",
          "type": "string"
        },
        {
          "internalType": "bytes",
          "name": "_data",
          "type": "bytes"
        }
      ],
      "name": "safeMintURI",
      "outputs": [],
      "stateMutability": "nonpayable",
      "type": "function"
    },
    {
      "inputs": [
        {
          "internalType": "address",
          "name": "from",
          "type": "address"
        },
        {
          "internalType": "address",
          "name": "to",
          "type": "address"
        },
        {
          "internalType": "uint256",
          "name": "tokenId",
          "type": "uint256"
        }
      ],
      "name": "safeTransferFrom",
      "outputs": [],
      "stateMutability": "nonpayable",
      "type": "function"
    },
    {
      "inputs": [
        {
          "internalType": "address",
          "name": "from",
          "type": "address"
        },
        {
          "internalType": "address",
          "name": "to",
          "type": "address"
        },
        {
          "internalType": "uint256",
          "name": "tokenId",
          "type": "uint256"
        },
        {
          "internalType": "bytes",
          "name": "_data",
          "type": "bytes"
        }
      ],
      "name": "safeTransferFrom",
      "outputs": [],
      "stateMutability": "nonpayable",
      "type": "function"
    },
    {
      "inputs": [
        {
          "internalType": "address",
          "name": "operator",
          "type": "address"
        },
        {
          "internalType": "bool",
          "name": "approved",
          "type": "bool"
        }
      ],
      "name": "setApprovalForAll",
      "outputs": [],
      "stateMutability": "nonpayable",
      "type": "function"
    },
    {
      "inputs": [
        {
          "internalType": "string",
          "name": "baseURI_",
          "type": "string"
        }
      ],
      "name": "setBaseURI",
      "outputs": [],
      "stateMutability": "nonpayable",
      "type": "function"
    },
    {
      "inputs": [
        {
          "internalType": "uint256",
          "name": "tokenId",
          "type": "uint256"
        },
        {
          "internalType": "string",
          "name": "_tokenURI",
          "type": "string"
        }
      ],
      "name": "setTokenURI",
      "outputs": [],
      "stateMutability": "nonpayable",
      "type": "function"
    },
    {
      "inputs": [
        {
          "internalType": "bytes4",
          "name": "interfaceId",
          "type": "bytes4"
        }
      ],
      "name": "supportsInterface",
      "outputs": [
        {
          "internalType": "bool",
          "name": "",
          "type": "bool"
        }
      ],
      "stateMutability": "view",
      "type": "function"
    },
    {
      "inputs": [],
      "name": "symbol",
      "outputs": [
        {
          "internalType": "string",
          "name": "",
          "type": "string"
        }
      ],
      "stateMutability": "view",
      "type": "function"
    },
    {
      "inputs": [
        {
          "internalType": "uint256",
          "name": "index",
          "type": "uint256"
        }
      ],
      "name": "tokenByIndex",
      "outputs": [
        {
          "internalType": "uint256",
          "name": "",
          "type": "uint256"
        }
      ],
      "stateMutability": "view",
      "type": "function"
    },
    {
      "inputs": [
        {
          "internalType": "address",
          "name": "owner",
          "type": "address"
        },
        {
          "internalType": "uint256",
          "name": "index",
          "type": "uint256"
        }
      ],
      "name": "tokenOfOwnerByIndex",
      "outputs": [
        {
          "internalType": "uint256",
          "name": "",
          "type": "uint256"
        }
      ],
      "stateMutability": "view",
      "type": "function"
    },
    {
      "inputs": [
        {
          "internalType": "uint256",
          "name": "tokenId",
          "type": "uint256"
        }
      ],
      "name": "tokenURI",
      "outputs": [
        {
          "internalType": "string",
          "name": "",
          "type": "string"
        }
      ],
      "stateMutability": "view",
      "type": "function"
    },
    {
      "inputs": [],
      "name": "totalSupply",
      "outputs": [
        {
          "internalType": "uint256",
          "name": "",
          "type": "uint256"
        }
      ],
      "stateMutability": "view",
      "type": "function"
    },
    {
      "inputs": [
        {
          "internalType": "address",
          "name": "from",
          "type": "address"
        },
        {
          "internalType": "address",
          "name": "to",
          "type": "address"
        },
        {
          "internalType": "uint256",
          "name": "tokenId",
          "type": "uint256"
        }
      ],
      "name": "transferFrom",
      "outputs": [],
      "stateMutability": "nonpayable",
      "type": "function"
    },
    {
      "stateMutability": "payable",
      "type": "receive"
    },
    {
      "inputs": [],
      "name": "initNFTsTest",
      "outputs": [],
      "stateMutability": "nonpayable",
      "type": "function"
    }
  ],
  "bytecode": "0x608060405234801561001057600080fd5b5061227f806100206000396000f3fe6080604052600436106101d15760003560e01c80634f558e79116100f757806395d89b4111610095578063c87b56dd11610064578063c87b56dd14610617578063e84d269614610637578063e8a3d4851461065d578063e985e9c51461067257600080fd5b806395d89b41146105a2578063a0712d68146105b7578063a22cb465146105d7578063b88d4fde146105f757600080fd5b80636352211e116100d15780636352211e1461052d5780636c0360eb1461054d57806370a08231146105625780638832e6e31461058257600080fd5b80634f558e79146104cd5780634f6ccce7146104ed57806355f804b31461050d57600080fd5b806323b872dd1161016f57806342842e0e1161013e57806342842e0e1461044d57806342966c681461046d578063430c20811461048d5780634c6e425b146104ad57600080fd5b806323b872dd146103e357806324f30fed146104035780632f745c59146104185780633480f97a1461043857600080fd5b8063095ea7b3116101ab578063095ea7b31461035e5780630fa86d3d14610380578063162094c4146103a057806318160ddd146103c057600080fd5b806301ffc9a71461029f57806306fdde03146102ee578063081812fc1461031057600080fd5b3661029a573460000361022b5760405162461bcd60e51b815260206004820152601c60248201527f234e4654732372656365697665206d73672e76616c756520213d20300000000060448201526064015b60405180910390fd5b600f546000036102915760405162461bcd60e51b815260206004820152602b60248201527f234e4654732372656365697665206c6173745472616e736665722e626c6f636b60448201526a04e756d62657220213d20360ac1b6064820152608401610222565b6000600f819055005b600080fd5b3480156102ab57600080fd5b506102d96102ba366004611af2565b6001600160e01b03191660009081526001602052604090205460ff1690565b60405190151581526020015b60405180910390f35b3480156102fa57600080fd5b506103036106bb565b6040516102e59190611b66565b34801561031c57600080fd5b5061034661032b366004611b79565b6000908152600660205260409020546001600160a01b031690565b6040516001600160a01b0390911681526020016102e5565b34801561036a57600080fd5b5061037e610379366004611bae565b61074d565b005b34801561038c57600080fd5b5061037e61039b366004611c7b565b6107d9565b3480156103ac57600080fd5b5061037e6103bb366004611cf9565b6107f4565b3480156103cc57600080fd5b506103d561086c565b6040519081526020016102e5565b3480156103ef57600080fd5b5061037e6103fe366004611d40565b61087d565b34801561040f57600080fd5b5061037e6108d3565b34801561042457600080fd5b506103d5610433366004611bae565b610916565b34801561044457600080fd5b5061037e610941565b34801561045957600080fd5b5061037e610468366004611d40565b61098d565b34801561047957600080fd5b5061037e610488366004611b79565b6109a8565b34801561049957600080fd5b506102d96104a8366004611bae565b6109b4565b3480156104b957600080fd5b5061037e6104c8366004611af2565b6109c0565b3480156104d957600080fd5b506102d96104e8366004611b79565b610a06565b3480156104f957600080fd5b506103d5610508366004611b79565b610a11565b34801561051957600080fd5b5061037e610528366004611d7c565b610a27565b34801561053957600080fd5b50610346610548366004611b79565b610a30565b34801561055957600080fd5b50610303610a66565b34801561056e57600080fd5b506103d561057d366004611db1565b610a75565b34801561058e57600080fd5b5061037e61059d366004611dcc565b610a96565b3480156105ae57600080fd5b50610303610aa1565b3480156105c357600080fd5b5061037e6105d2366004611b79565b610ab0565b3480156105e357600080fd5b5061037e6105f2366004611e23565b610aba565b34801561060357600080fd5b5061037e610612366004611e5f565b610b4f565b34801561062357600080fd5b50610303610632366004611b79565b610b82565b34801561064357600080fd5b5061064c610b8d565b6040516102e5959493929190611ebb565b34801561066957600080fd5b50610303610c3f565b34801561067e57600080fd5b506102d961068d366004611f00565b6001600160a01b03918216600090815260076020908152604080832093909416825291909152205460ff1690565b6060600880546106ca90611f33565b80601f01602080910402602001604051908101604052809291908181526020018280546106f690611f33565b80156107435780601f1061071857610100808354040283529160200191610743565b820191906000526020600020905b81548152906001019060200180831161072657829003601f168201915b5050505050905090565b600061075882610a30565b9050806001600160a01b0316836001600160a01b03160361078c576040516365f090f760e01b815260040160405180910390fd5b336001600160a01b038216148015906107ac57506107aa813361068d565b155b156107ca5760405163d3a3274560e01b815260040160405180910390fd5b6107d48383610ccd565b505050565b6107e4848483610d3b565b6107ee8383610d52565b50505050565b336107fe83610a30565b6001600160a01b03161461085e5760405162461bcd60e51b815260206004820152602160248201527f234e46547323736574546f6b656e5552493a206f776e6572206e6f206d6174636044820152600d60fb1b6064820152608401610222565b6108688282610d52565b5050565b60006108786003610d90565b905090565b6108873382610d9b565b6108a45760405163d3a3274560e01b815260040160405180910390fd5b6108bf83838360405180602001604052806000815250610e41565b604080516020810190915260009052505050565b6108db610941565b60006108e630610f53565b9050806040516020016108f99190611f67565b604051602081830303815290604052600c9081610868919061203f565b6001600160a01b03821660009081526002602052604081206109389083610fe6565b90505b92915050565b610949610ff2565b61098b604051806040016040528060048152602001634e46547360e01b815250604051806040016040528060048152602001634e46547360e01b81525061110a565b565b6107d483838360405180602001604052806000815250610b4f565b6109b181611154565b50565b60006109388383610d9b565b6001600160e01b0319811660009081526001602052604090205460ff166109b157604051632aae78ef60e01b81526001600160e01b031982166004820152602401610222565b600061093b8261122a565b600080610a1f600384611237565b509392505050565b6109b181611255565b600080610a3e600384611261565b9250905080610a6057604051635449cd4560e01b815260040160405180910390fd5b50919050565b6060600b80546106ca90611f33565b6001600160a01b038116600090815260026020526040812061093b90611270565b6107d4838383610d3b565b6060600980546106ca90611f33565b6109b1338261127a565b336001600160a01b03831603610ae35760405163064256a360e21b815260040160405180910390fd5b3360008181526007602090815260408083206001600160a01b03871680855290835292819020805460ff191686151590811790915590519081529192917f17307eab39ab6107e8899845ad3d59bd9653f200f220920489ca2b5937696c31910160405180910390a35050565b610b593383610d9b565b610b765760405163d3a3274560e01b815260040160405180910390fd5b6107ee84848484611350565b606061093b8261136d565b600d8054600e54600f54601054601180546001600160a01b0395861696949095169492939192610bbc90611f33565b80601f0160208091040260200160405190810160405280929190818152602001828054610be890611f33565b8015610c355780601f10610c0a57610100808354040283529160200191610c35565b820191906000526020600020905b815481529060010190602001808311610c1857829003601f168201915b5050505050905085565b600c8054610c4c90611f33565b80601f0160208091040260200160405190810160405280929190818152602001828054610c7890611f33565b8015610cc55780601f10610c9a57610100808354040283529160200191610cc5565b820191906000526020600020905b815481529060010190602001808311610ca857829003601f168201915b505050505081565b600081815260066020526040902080546001600160a01b0319166001600160a01b0384169081179091558190610d0282610a30565b6001600160a01b03167f8c5be1e5ebec7d5bd14f71427d1e84f3dd0314c0f7b2291e5b200ac8c7c3b92560405160405180910390a45050565b610d45838361127a565b6107d46000848484611475565b610d5b8261122a565b610d7857604051635449cd4560e01b815260040160405180910390fd5b6000828152600a602052604090206107d4828261203f565b600061093b8261151b565b6000610da68261122a565b610dc357604051635449cd4560e01b815260040160405180910390fd5b6000610dce83610a30565b9050806001600160a01b0316846001600160a01b03161480610e0957506000838152600660205260409020546001600160a01b038581169116145b80610e3957506001600160a01b0380821660009081526007602090815260408083209388168352929052205460ff165b949350505050565b836001600160a01b0316610e5483610a30565b6001600160a01b031614610e7b57604051630898381960e11b815260040160405180910390fd5b6001600160a01b038316610ea257604051635bb7a72360e01b815260040160405180910390fd5b610eae84848484611526565b610eb9600083610ccd565b6001600160a01b0384166000908152600260205260409020610edb9083611602565b506001600160a01b0383166000908152600260205260409020610efe908361160e565b50610f0b6003838561161a565b5081836001600160a01b0316856001600160a01b03167fddf252ad1be2c89b69c2b068fc378daa952ba7f163c4a11628f55a4df523b3ef60405160405180910390a450505050565b60606000610f6083611630565b600101905060008167ffffffffffffffff811115610f8057610f80611bd8565b6040519080825280601f01601f191660200182016040528015610faa576020820181803683370190505b5090508181016020015b600019016f181899199a1a9b1b9c1cb0b131b232b360811b600a86061a8153600a8504945084610fb457509392505050565b60006109388383611708565b600054610100900460ff16158080156110125750600054600160ff909116105b8061102c5750303b15801561102c575060005460ff166001145b61108f5760405162461bcd60e51b815260206004820152602e60248201527f496e697469616c697a61626c653a20636f6e747261637420697320616c72656160448201526d191e481a5b9a5d1a585b1a5e995960921b6064820152608401610222565b6000805460ff1916600117905580156110b2576000805461ff0019166101001790555b6110c26301ffc9a760e01b611732565b80156109b1576000805461ff0019169055604051600181527f7f26b83ff96e1f2b6a682f133852f6798a09c465da95921460cefb38474024989060200160405180910390a150565b6008611116838261203f565b506009611123828261203f565b506111346380ac58cd60e01b6117b4565b611144635b5e139f60e01b6117b4565b61086863780e9d6360e01b6117b4565b600061115f82610a30565b905061117d8160008460405180602001604052806000815250611526565b611188600083610ccd565b6000828152600a6020526040902080546111a190611f33565b1590506111bf576000828152600a602052604081206111bf91611a8e565b6001600160a01b03811660009081526002602052604090206111e19083611602565b506111ed6003836117bd565b5060405182906000906001600160a01b038416907fddf252ad1be2c89b69c2b068fc378daa952ba7f163c4a11628f55a4df523b3ef908390a45050565b600061093b6003836117c9565b600080808061124686866117d5565b909450925050505b9250929050565b600b610868828261203f565b60008080806112468686611800565b600061093b825490565b6112838161122a565b156112a15760405163082c3a4f60e01b815260040160405180910390fd5b6001600160a01b0382166112c857604051635bb7a72360e01b815260040160405180910390fd5b6112e46000838360405180602001604052806000815250611526565b6001600160a01b0382166000908152600260205260409020611306908261160e565b506113136003828461161a565b5060405181906001600160a01b038416906000907fddf252ad1be2c89b69c2b068fc378daa952ba7f163c4a11628f55a4df523b3ef908290a45050565b61135c84848484610e41565b61136884848484611475565b6107ee565b6000818152600a602052604081208054606092919061138b90611f33565b80601f01602080910402602001604051908101604052809291908181526020018280546113b790611f33565b80156114045780601f106113d957610100808354040283529160200191611404565b820191906000526020600020905b8154815290600101906020018083116113e757829003601f168201915b50505050509050600b805461141890611f33565b90506000036114275792915050565b80511561145957600b816040516020016114429291906120ff565b604051602081830303815290604052915050919050565b600b61146484610f53565b6040516020016114429291906120ff565b6001600160a01b0383163b156107ee576000630a85bd0160e11b338685856040516024016114a69493929190612186565b60408051601f198184030181529190526020810180516001600160e01b03166001600160e01b0319909316929092179091529050630a85bd0160e11b6114ec858361183a565b6001600160e01b03191614611514576040516342eac10f60e11b815260040160405180910390fd5b5050505050565b600061093b82611270565b600f541561159c5760405162461bcd60e51b815260206004820152603860248201527f234e465473235f6265666f7265546f6b656e5472616e73666572206c6173745460448201527f72616e736665722e626c6f636b4e756d626572203d3d203000000000000000006064820152608401610222565b6001600160a01b03841615806115b957506001600160a01b038316155b6107ee57600d80546001600160a01b038087166001600160a01b031992831617909255600e80549286169290911691909117905543600f5560108290556011611514828261203f565b600061093883836118f3565b600061093883836119e6565b6000610e3984846001600160a01b038516611a35565b60008072184f03e93ff9f4daa797ed6e38ed64bf6a1f0160401b831061166f5772184f03e93ff9f4daa797ed6e38ed64bf6a1f0160401b830492506040015b6d04ee2d6d415b85acef8100000000831061169b576d04ee2d6d415b85acef8100000000830492506020015b662386f26fc1000083106116b957662386f26fc10000830492506010015b6305f5e10083106116d1576305f5e100830492506008015b61271083106116e557612710830492506004015b606483106116f7576064830492506002015b600a831061093b5760010192915050565b600082600001828154811061171f5761171f6121c3565b9060005260206000200154905092915050565b6001600160e01b0319808216900361178c5760405162461bcd60e51b815260206004820152601c60248201527f4552433136353a20696e76616c696420696e74657266616365206964000000006044820152606401610222565b6001600160e01b0319166000908152600160208190526040909120805460ff19169091179055565b6109b181611732565b60006109388383611a52565b60006109388383611a6f565b600080806117e38585610fe6565b600081815260029690960160205260409095205494959350505050565b600081815260028301602052604081205481908061182f576118228585611a6f565b92506000915061124e9050565b60019250905061124e565b6000806000846001600160a01b03168460405161185791906121d9565b6000604051808303816000865af19150503d8060008114611894576040519150601f19603f3d011682016040523d82523d6000602084013e611899565b606091505b509150915081156118c157808060200190518101906118b891906121f5565b9250505061093b565b8051156118d15780518082602001fd5b60405162461bcd60e51b81526020600482015260006024820152604401610222565b600081815260018301602052604081205480156119dc576000611917600183612212565b855490915060009061192b90600190612212565b905081811461199057600086600001828154811061194b5761194b6121c3565b906000526020600020015490508087600001848154811061196e5761196e6121c3565b6000918252602080832090910192909255918252600188019052604090208390555b85548690806119a1576119a1612233565b60019003818190600052602060002001600090559055856001016000868152602001908152602001600020600090556001935050505061093b565b600091505061093b565b6000818152600183016020526040812054611a2d5750815460018181018455600084815260208082209093018490558454848252828601909352604090209190915561093b565b50600061093b565b60008281526002840160205260408120829055610e39848461160e565b600081815260028301602052604081208190556109388383611602565b6000610938838360008181526001830160205260408120541515610938565b508054611a9a90611f33565b6000825580601f10611aaa575050565b601f0160209004906000526020600020908101906109b191905b80821115611ad85760008155600101611ac4565b5090565b6001600160e01b0319811681146109b157600080fd5b600060208284031215611b0457600080fd5b8135611b0f81611adc565b9392505050565b60005b83811015611b31578181015183820152602001611b19565b50506000910152565b60008151808452611b52816020860160208601611b16565b601f01601f19169290920160200192915050565b6020815260006109386020830184611b3a565b600060208284031215611b8b57600080fd5b5035919050565b80356001600160a01b0381168114611ba957600080fd5b919050565b60008060408385031215611bc157600080fd5b611bca83611b92565b946020939093013593505050565b634e487b7160e01b600052604160045260246000fd5b600082601f830112611bff57600080fd5b813567ffffffffffffffff80821115611c1a57611c1a611bd8565b604051601f8301601f19908116603f01168101908282118183101715611c4257611c42611bd8565b81604052838152866020858801011115611c5b57600080fd5b836020870160208301376000602085830101528094505050505092915050565b60008060008060808587031215611c9157600080fd5b611c9a85611b92565b935060208501359250604085013567ffffffffffffffff80821115611cbe57600080fd5b611cca88838901611bee565b93506060870135915080821115611ce057600080fd5b50611ced87828801611bee565b91505092959194509250565b60008060408385031215611d0c57600080fd5b82359150602083013567ffffffffffffffff811115611d2a57600080fd5b611d3685828601611bee565b9150509250929050565b600080600060608486031215611d5557600080fd5b611d5e84611b92565b9250611d6c60208501611b92565b9150604084013590509250925092565b600060208284031215611d8e57600080fd5b813567ffffffffffffffff811115611da557600080fd5b610e3984828501611bee565b600060208284031215611dc357600080fd5b61093882611b92565b600080600060608486031215611de157600080fd5b611dea84611b92565b925060208401359150604084013567ffffffffffffffff811115611e0d57600080fd5b611e1986828701611bee565b9150509250925092565b60008060408385031215611e3657600080fd5b611e3f83611b92565b915060208301358015158114611e5457600080fd5b809150509250929050565b60008060008060808587031215611e7557600080fd5b611e7e85611b92565b9350611e8c60208601611b92565b925060408501359150606085013567ffffffffffffffff811115611eaf57600080fd5b611ced87828801611bee565b6001600160a01b03868116825285166020820152604081018490526060810183905260a060808201819052600090611ef590830184611b3a565b979650505050505050565b60008060408385031215611f1357600080fd5b611f1c83611b92565b9150611f2a60208401611b92565b90509250929050565b600181811c90821680611f4757607f821691505b602082108103610a6057634e487b7160e01b600052602260045260246000fd5b7f68747470733a2f2f736d6172742d64616f2d72656c2e73746172732d6d696e6581527f2e636f6d2f736572766963652d6170692f74657374312f6765744f70656e736560208201527561436f6e74726163744a534f4e3f616464726573733d60501b604082015260008251611fe4816056850160208701611b16565b9190910160560192915050565b601f8211156107d457600081815260208120601f850160051c810160208610156120185750805b601f850160051c820191505b8181101561203757828155600101612024565b505050505050565b815167ffffffffffffffff81111561205957612059611bd8565b61206d816120678454611f33565b84611ff1565b602080601f8311600181146120a2576000841561208a5750858301515b600019600386901b1c1916600185901b178555612037565b600085815260208120601f198616915b828110156120d1578886015182559484019460019091019084016120b2565b50858210156120ef5787850151600019600388901b60f8161c191681555b5050505050600190811b01905550565b600080845461210d81611f33565b60018281168015612125576001811461213a57612169565b60ff1984168752821515830287019450612169565b8860005260208060002060005b858110156121605781548a820152908401908201612147565b50505082870194505b50505050835161217d818360208801611b16565b01949350505050565b6001600160a01b03858116825284166020820152604081018390526080606082018190526000906121b990830184611b3a565b9695505050505050565b634e487b7160e01b600052603260045260246000fd5b600082516121eb818460208701611b16565b9190910192915050565b60006020828403121561220757600080fd5b8151611b0f81611adc565b8181038181111561093b57634e487b7160e01b600052601160045260246000fd5b634e487b7160e01b600052603160045260246000fdfea2646970667358221220e9acef4ac19768bd0e271ae2b944a61b9d4a679bfaa9f951ae7b4f323efac8f464736f6c63430008110033",
  "immutableReferences": {},
  "source": "// SPDX-License-Identifier: MIT\npragma solidity ~0.8.17;\n\nimport './libs/ERC721.sol';\nimport './libs/ERC165.sol';\n\ncontract NFTs is ERC165, ERC721 {\n\n\t// @overwrite ---------------\n\tfunction _registerInterface721(bytes4 interfaceId) internal virtual override {\n\t\tERC165._registerInterface(interfaceId);\n\t}\n\t// --------------------------\n\n\tfunction initNFTs() public {\n\t\tinitERC165();\n\t\tinitERC721(\"NFTs\", \"NFTs\");\n\t}\n\n\tfunction mint(uint256 tokenId) public {\n\t\t_mint(msg.sender, tokenId);\n\t}\n\n\tfunction safeMintURI(address to, uint256 tokenId, string memory _tokenURI, bytes memory _data) public {\n\t\t_safeMint(to, tokenId, _data);\n\t\t_setTokenURI(tokenId, _tokenURI);\n\t}\n\n\tfunction safeMint(address to, uint256 tokenId, bytes memory _data) public {\n\t\t_safeMint(to, tokenId, _data);\n\t}\n\n\tfunction burn(uint256 tokenId) public {\n\t\t_burn(tokenId);\n\t}\n\n\tfunction setTokenURI(uint256 tokenId, string memory _tokenURI) public {\n\t\trequire(ownerOf(tokenId) == _msgSender(), \"#NFTs#setTokenURI: owner no match\");\n\t\t_setTokenURI(tokenId, _tokenURI);\n\t}\n\n\tfunction setBaseURI(string memory baseURI_) public {\n\t\t_setBaseURI(baseURI_);\n\t}\n\n\tfunction isApprovedOrOwner(address spender, uint256 tokenId) view public returns (bool) {\n\t\treturn _havePermission(spender, tokenId);\n\t}\n\n}\n\ncontract NFTsTest is NFTs {\n\tusing Strings for uint256;\n\n\tstring public contractURI;\n\n\tfunction initNFTsTest() external {\n\t\tinitNFTs();\n\t\tstring memory addr = uint256(uint160(address(this))).toString();\n\t\tcontractURI = string(abi.encodePacked(\"https://smart-dao-rel.stars-mine.com/service-api/test1/getOpenseaContractJSON?address=\", addr));\n\t\t// contractURI = \"https://smart-dao-rel.stars-mine.com/service-api/test1/getOpenseaContractJSON?address=0x87Ae5AB6e5A7F925dCC091F3a2247786D5E26349\";\n\t}\n\n\tstruct TokenTransfer {\n\t\taddress from;\n\t\taddress to;\n\t\tuint256 blockNumber;\n\t\tuint256 tokenId;\n\t\tbytes data;\n\t}\n\n\tTokenTransfer public lastTransfer;\n\n\tfunction _beforeTokenTransfer(address from, address to, uint256 tokenId, bytes memory _data) internal virtual override {\n\t\trequire(lastTransfer.blockNumber == 0, \"#NFTs#_beforeTokenTransfer lastTransfer.blockNumber == 0\");\n\t\tif (from == address(0) || to == address(0)) return;\n\t\tlastTransfer.from = from;\n\t\tlastTransfer.to = to;\n\t\tlastTransfer.blockNumber = block.number;\n\t\tlastTransfer.tokenId = tokenId;\n\t\tlastTransfer.data = _data;\n\t}\n\n\treceive() external payable {\n\t\trequire(msg.value != 0, \"#NFTs#receive msg.value != 0\"); // price\n\t\trequire(lastTransfer.blockNumber != 0, \"#NFTs#receive lastTransfer.blockNumber != 0\");\n\t\tlastTransfer.blockNumber = 0;\n\t}\n\n}\n",
  "sourcePath": "/Users/louis/Project/hc/NFTSwap/SmartHolder/contracts/NFTs.sol",
  "compiler": {
    "name": "solc",
    "version": "0.8.17+commit.8df45f5f.Emscripten.clang"
  },
  "schemaVersion": "3.4.11",
  "updatedAt": "2023-05-11T06:07:52.680Z",
  "devdoc": {
    "kind": "dev",
    "methods": {
      "approve(address,uint256)": {
        "details": "Approves another address to transfer the given token ID The zero address indicates there is no approved address. There can only be one approved address per token at a given time. Can only be called by the token owner or an approved operator.",
        "params": {
          "to": "address to be approved for the given token ID",
          "tokenId": "uint256 ID of the token to be approved"
        }
      },
      "balanceOf(address)": {
        "details": "Gets the balance of the specified address.",
        "params": {
          "owner": "address to query the balance of"
        },
        "returns": {
          "_0": "uint256 representing the amount owned by the passed address"
        }
      },
      "baseURI()": {
        "details": "Returns the base URI set via {_setBaseURI}. This will be automatically added as a prefix in {tokenURI} to each token's URI, or to the token ID if no specific URI is set for that token ID."
      },
      "getApproved(uint256)": {
        "details": "Gets the approved address for a token ID, or zero if no address set Reverts if the token ID does not exist.",
        "params": {
          "tokenId": "uint256 ID of the token to query the approval of"
        },
        "returns": {
          "_0": "address currently approved for the given token ID"
        }
      },
      "isApprovedForAll(address,address)": {
        "details": "Tells whether an operator is approved by a given owner.",
        "params": {
          "operator": "operator address which you want to query the approval of",
          "owner": "owner address which you want to query the approval of"
        },
        "returns": {
          "_0": "bool whether the given operator is approved by the given owner"
        }
      },
      "name()": {
        "details": "Gets the token name.",
        "returns": {
          "_0": "string representing the token name"
        }
      },
      "ownerOf(uint256)": {
        "details": "Gets the owner of the specified token ID.",
        "params": {
          "tokenId": "uint256 ID of the token to query the owner of"
        },
        "returns": {
          "owner": "currently marked as the owner of the given token ID"
        }
      },
      "safeTransferFrom(address,address,uint256)": {
        "details": "Safely transfers the ownership of a given token ID to another address If the target address is a contract, it must implement {IERC721Receiver-onERC721Received}, which is called upon a safe transfer, and return the magic value `bytes4(keccak256(\"onERC721Received(address,address,uint256,bytes)\"))`; otherwise, the transfer is reverted. Requires the msg.sender to be the owner, approved, or operator",
        "params": {
          "from": "current owner of the token",
          "to": "address to receive the ownership of the given token ID",
          "tokenId": "uint256 ID of the token to be transferred"
        }
      },
      "safeTransferFrom(address,address,uint256,bytes)": {
        "details": "Safely transfers the ownership of a given token ID to another address If the target address is a contract, it must implement {IERC721Receiver-onERC721Received}, which is called upon a safe transfer, and return the magic value `bytes4(keccak256(\"onERC721Received(address,address,uint256,bytes)\"))`; otherwise, the transfer is reverted. Requires the _msgSender() to be the owner, approved, or operator",
        "params": {
          "_data": "bytes data to send along with a safe transfer check",
          "from": "current owner of the token",
          "to": "address to receive the ownership of the given token ID",
          "tokenId": "uint256 ID of the token to be transferred"
        }
      },
      "setApprovalForAll(address,bool)": {
        "details": "Sets or unsets the approval of a given operator An operator is allowed to transfer all tokens of the sender on their behalf.",
        "params": {
          "approved": "representing the status of the approval to be set",
          "operator": "operator address to set the approval"
        }
      },
      "supportsInterface(bytes4)": {
        "details": "See {IERC165-supportsInterface}. Time complexity O(1), guaranteed to always use less than 30 000 gas."
      },
      "symbol()": {
        "details": "Gets the token symbol.",
        "returns": {
          "_0": "string representing the token symbol"
        }
      },
      "tokenByIndex(uint256)": {
        "details": "Gets the token ID at a given index of all the tokens in this contract Reverts if the index is greater or equal to the total number of tokens.",
        "params": {
          "index": "uint256 representing the index to be accessed of the tokens list"
        },
        "returns": {
          "_0": "uint256 token ID at the given index of the tokens list"
        }
      },
      "tokenOfOwnerByIndex(address,uint256)": {
        "details": "Gets the token ID at a given index of the tokens list of the requested owner.",
        "params": {
          "index": "uint256 representing the index to be accessed of the requested tokens list",
          "owner": "address owning the tokens list to be accessed"
        },
        "returns": {
          "_0": "uint256 token ID at the given index of the tokens list owned by the requested address"
        }
      },
      "tokenURI(uint256)": {
        "details": "Returns the Uniform Resource Identifier (URI) for `tokenId` token."
      },
      "totalSupply()": {
        "details": "Gets the total amount of tokens stored by the contract.",
        "returns": {
          "_0": "uint256 representing the total amount of tokens"
        }
      },
      "transferFrom(address,address,uint256)": {
        "details": "Transfers the ownership of a given token ID to another address. Usage of this method is discouraged, use {safeTransferFrom} whenever possible. Requires the msg.sender to be the owner, approved, or operator.",
        "params": {
          "from": "current owner of the token",
          "to": "address to receive the ownership of the given token ID",
          "tokenId": "uint256 ID of the token to be transferred"
        }
      }
    },
    "version": 1
  },
  "userdoc": {
    "kind": "user",
    "methods": {},
    "version": 1
  }
}