{
  "contractName": "NFTs",
  "abi": [
    {
      "anonymous": false,
      "inputs": [
        {
          "indexed": true,
          "internalType": "address",
          "name": "owner",
          "type": "address"
        },
        {
          "indexed": true,
          "internalType": "address",
          "name": "approved",
          "type": "address"
        },
        {
          "indexed": true,
          "internalType": "uint256",
          "name": "tokenId",
          "type": "uint256"
        }
      ],
      "name": "Approval",
      "type": "event"
    },
    {
      "anonymous": false,
      "inputs": [
        {
          "indexed": true,
          "internalType": "address",
          "name": "owner",
          "type": "address"
        },
        {
          "indexed": true,
          "internalType": "address",
          "name": "operator",
          "type": "address"
        },
        {
          "indexed": false,
          "internalType": "bool",
          "name": "approved",
          "type": "bool"
        }
      ],
      "name": "ApprovalForAll",
      "type": "event"
    },
    {
      "anonymous": false,
      "inputs": [
        {
          "indexed": true,
          "internalType": "address",
          "name": "from",
          "type": "address"
        },
        {
          "indexed": true,
          "internalType": "address",
          "name": "to",
          "type": "address"
        },
        {
          "indexed": true,
          "internalType": "uint256",
          "name": "tokenId",
          "type": "uint256"
        }
      ],
      "name": "Transfer",
      "type": "event"
    },
    {
      "inputs": [
        {
          "internalType": "address",
          "name": "to",
          "type": "address"
        },
        {
          "internalType": "uint256",
          "name": "tokenId",
          "type": "uint256"
        }
      ],
      "name": "approve",
      "outputs": [],
      "stateMutability": "nonpayable",
      "type": "function"
    },
    {
      "inputs": [
        {
          "internalType": "address",
          "name": "owner",
          "type": "address"
        }
      ],
      "name": "balanceOf",
      "outputs": [
        {
          "internalType": "uint256",
          "name": "",
          "type": "uint256"
        }
      ],
      "stateMutability": "view",
      "type": "function"
    },
    {
      "inputs": [],
      "name": "baseURI",
      "outputs": [
        {
          "internalType": "string",
          "name": "",
          "type": "string"
        }
      ],
      "stateMutability": "view",
      "type": "function"
    },
    {
      "inputs": [
        {
          "internalType": "bytes4",
          "name": "interfaceId",
          "type": "bytes4"
        },
        {
          "internalType": "string",
          "name": "message",
          "type": "string"
        }
      ],
      "name": "checkInterface",
      "outputs": [],
      "stateMutability": "view",
      "type": "function"
    },
    {
      "inputs": [
        {
          "internalType": "uint256",
          "name": "id",
          "type": "uint256"
        }
      ],
      "name": "exists",
      "outputs": [
        {
          "internalType": "bool",
          "name": "",
          "type": "bool"
        }
      ],
      "stateMutability": "view",
      "type": "function"
    },
    {
      "inputs": [
        {
          "internalType": "uint256",
          "name": "tokenId",
          "type": "uint256"
        }
      ],
      "name": "getApproved",
      "outputs": [
        {
          "internalType": "address",
          "name": "",
          "type": "address"
        }
      ],
      "stateMutability": "view",
      "type": "function"
    },
    {
      "inputs": [
        {
          "internalType": "address",
          "name": "owner",
          "type": "address"
        },
        {
          "internalType": "address",
          "name": "operator",
          "type": "address"
        }
      ],
      "name": "isApprovedForAll",
      "outputs": [
        {
          "internalType": "bool",
          "name": "",
          "type": "bool"
        }
      ],
      "stateMutability": "view",
      "type": "function"
    },
    {
      "inputs": [],
      "name": "name",
      "outputs": [
        {
          "internalType": "string",
          "name": "",
          "type": "string"
        }
      ],
      "stateMutability": "view",
      "type": "function"
    },
    {
      "inputs": [
        {
          "internalType": "uint256",
          "name": "tokenId",
          "type": "uint256"
        }
      ],
      "name": "ownerOf",
      "outputs": [
        {
          "internalType": "address",
          "name": "",
          "type": "address"
        }
      ],
      "stateMutability": "view",
      "type": "function"
    },
    {
      "inputs": [
        {
          "internalType": "address",
          "name": "from",
          "type": "address"
        },
        {
          "internalType": "address",
          "name": "to",
          "type": "address"
        },
        {
          "internalType": "uint256",
          "name": "tokenId",
          "type": "uint256"
        }
      ],
      "name": "safeTransferFrom",
      "outputs": [],
      "stateMutability": "nonpayable",
      "type": "function"
    },
    {
      "inputs": [
        {
          "internalType": "address",
          "name": "from",
          "type": "address"
        },
        {
          "internalType": "address",
          "name": "to",
          "type": "address"
        },
        {
          "internalType": "uint256",
          "name": "tokenId",
          "type": "uint256"
        },
        {
          "internalType": "bytes",
          "name": "_data",
          "type": "bytes"
        }
      ],
      "name": "safeTransferFrom",
      "outputs": [],
      "stateMutability": "nonpayable",
      "type": "function"
    },
    {
      "inputs": [
        {
          "internalType": "address",
          "name": "operator",
          "type": "address"
        },
        {
          "internalType": "bool",
          "name": "approved",
          "type": "bool"
        }
      ],
      "name": "setApprovalForAll",
      "outputs": [],
      "stateMutability": "nonpayable",
      "type": "function"
    },
    {
      "inputs": [
        {
          "internalType": "bytes4",
          "name": "interfaceId",
          "type": "bytes4"
        }
      ],
      "name": "supportsInterface",
      "outputs": [
        {
          "internalType": "bool",
          "name": "",
          "type": "bool"
        }
      ],
      "stateMutability": "view",
      "type": "function"
    },
    {
      "inputs": [],
      "name": "symbol",
      "outputs": [
        {
          "internalType": "string",
          "name": "",
          "type": "string"
        }
      ],
      "stateMutability": "view",
      "type": "function"
    },
    {
      "inputs": [
        {
          "internalType": "uint256",
          "name": "index",
          "type": "uint256"
        }
      ],
      "name": "tokenByIndex",
      "outputs": [
        {
          "internalType": "uint256",
          "name": "",
          "type": "uint256"
        }
      ],
      "stateMutability": "view",
      "type": "function"
    },
    {
      "inputs": [
        {
          "internalType": "address",
          "name": "owner",
          "type": "address"
        },
        {
          "internalType": "uint256",
          "name": "index",
          "type": "uint256"
        }
      ],
      "name": "tokenOfOwnerByIndex",
      "outputs": [
        {
          "internalType": "uint256",
          "name": "",
          "type": "uint256"
        }
      ],
      "stateMutability": "view",
      "type": "function"
    },
    {
      "inputs": [
        {
          "internalType": "uint256",
          "name": "tokenId",
          "type": "uint256"
        }
      ],
      "name": "tokenURI",
      "outputs": [
        {
          "internalType": "string",
          "name": "",
          "type": "string"
        }
      ],
      "stateMutability": "view",
      "type": "function"
    },
    {
      "inputs": [],
      "name": "totalSupply",
      "outputs": [
        {
          "internalType": "uint256",
          "name": "",
          "type": "uint256"
        }
      ],
      "stateMutability": "view",
      "type": "function"
    },
    {
      "inputs": [
        {
          "internalType": "address",
          "name": "from",
          "type": "address"
        },
        {
          "internalType": "address",
          "name": "to",
          "type": "address"
        },
        {
          "internalType": "uint256",
          "name": "tokenId",
          "type": "uint256"
        }
      ],
      "name": "transferFrom",
      "outputs": [],
      "stateMutability": "nonpayable",
      "type": "function"
    },
    {
      "inputs": [],
      "name": "initNFTs",
      "outputs": [],
      "stateMutability": "nonpayable",
      "type": "function"
    },
    {
      "inputs": [
        {
          "internalType": "uint256",
          "name": "tokenId",
          "type": "uint256"
        }
      ],
      "name": "mint",
      "outputs": [],
      "stateMutability": "nonpayable",
      "type": "function"
    },
    {
      "inputs": [
        {
          "internalType": "address",
          "name": "to",
          "type": "address"
        },
        {
          "internalType": "uint256",
          "name": "tokenId",
          "type": "uint256"
        },
        {
          "internalType": "string",
          "name": "_tokenURI",
          "type": "string"
        },
        {
          "internalType": "bytes",
          "name": "_data",
          "type": "bytes"
        }
      ],
      "name": "safeMintURI",
      "outputs": [],
      "stateMutability": "nonpayable",
      "type": "function"
    },
    {
      "inputs": [
        {
          "internalType": "address",
          "name": "to",
          "type": "address"
        },
        {
          "internalType": "uint256",
          "name": "tokenId",
          "type": "uint256"
        },
        {
          "internalType": "bytes",
          "name": "_data",
          "type": "bytes"
        }
      ],
      "name": "safeMint",
      "outputs": [],
      "stateMutability": "nonpayable",
      "type": "function"
    },
    {
      "inputs": [
        {
          "internalType": "uint256",
          "name": "tokenId",
          "type": "uint256"
        }
      ],
      "name": "burn",
      "outputs": [],
      "stateMutability": "nonpayable",
      "type": "function"
    },
    {
      "inputs": [
        {
          "internalType": "uint256",
          "name": "tokenId",
          "type": "uint256"
        },
        {
          "internalType": "string",
          "name": "_tokenURI",
          "type": "string"
        }
      ],
      "name": "setTokenURI",
      "outputs": [],
      "stateMutability": "nonpayable",
      "type": "function"
    },
    {
      "inputs": [
        {
          "internalType": "string",
          "name": "baseURI_",
          "type": "string"
        }
      ],
      "name": "setBaseURI",
      "outputs": [],
      "stateMutability": "nonpayable",
      "type": "function"
    },
    {
      "inputs": [
        {
          "internalType": "address",
          "name": "spender",
          "type": "address"
        },
        {
          "internalType": "uint256",
          "name": "tokenId",
          "type": "uint256"
        }
      ],
      "name": "isApprovedOrOwner",
      "outputs": [
        {
          "internalType": "bool",
          "name": "",
          "type": "bool"
        }
      ],
      "stateMutability": "view",
      "type": "function"
    }
  ],
  "bytecode": "0x608060405234801561001057600080fd5b50612117806100206000396000f3fe608060405234801561001057600080fd5b50600436106101a95760003560e01c80634f558e79116100f957806395d89b4111610097578063b88d4fde11610071578063b88d4fde14610390578063c64df69d146103a3578063c87b56dd146103b6578063e985e9c5146103c957600080fd5b806395d89b4114610362578063a0712d681461036a578063a22cb4651461037d57600080fd5b80636352211e116100d35780636352211e146103215780636c0360eb1461033457806370a082311461033c5780638832e6e31461034f57600080fd5b80634f558e79146102e85780634f6ccce7146102fb57806355f804b31461030e57600080fd5b806318160ddd116101665780633480f97a116101405780633480f97a146102a757806342842e0e146102af57806342966c68146102c2578063430c2081146102d557600080fd5b806318160ddd1461026b57806323b872dd146102815780632f745c591461029457600080fd5b806301ffc9a7146101ae57806306fdde03146101f0578063081812fc14610205578063095ea7b3146102305780630fa86d3d14610245578063162094c414610258575b600080fd5b6101db6101bc366004611922565b6001600160e01b03191660009081526001602052604090205460ff1690565b60405190151581526020015b60405180910390f35b6101f8610405565b6040516101e7919061198f565b6102186102133660046119a2565b610497565b6040516001600160a01b0390911681526020016101e7565b61024361023e3660046119d7565b610524565b005b610243610253366004611aa4565b610639565b610243610266366004611b22565b610654565b6102736106cc565b6040519081526020016101e7565b61024361028f366004611b69565b6106dd565b6102736102a23660046119d7565b610732565b61024361075d565b6102436102bd366004611b69565b6107a9565b6102436102d03660046119a2565b6107c4565b6101db6102e33660046119d7565b6107d0565b6101db6102f63660046119a2565b6107dc565b6102736103093660046119a2565b6107e7565b61024361031c366004611ba5565b6107fd565b61021861032f3660046119a2565b610806565b6101f861082e565b61027361034a366004611bda565b61083d565b61024361035d366004611bf5565b6108c9565b6101f86108d4565b6102436103783660046119a2565b6108e3565b61024361038b366004611c4c565b6108ed565b61024361039e366004611c88565b6109b1565b6102436103b1366004611ce4565b6109e3565b6101f86103c43660046119a2565b610a1f565b6101db6103d7366004611d1e565b6001600160a01b03918216600090815260076020908152604080832093909416825291909152205460ff1690565b60606008805461041490611d51565b80601f016020809104026020016040519081016040528092919081815260200182805461044090611d51565b801561048d5780601f106104625761010080835404028352916020019161048d565b820191906000526020600020905b81548152906001019060200180831161047057829003601f168201915b5050505050905090565b60006104a282610a2a565b6105085760405162461bcd60e51b815260206004820152602c60248201527f4552433732313a20617070726f76656420717565727920666f72206e6f6e657860448201526b34b9ba32b73a103a37b5b2b760a11b60648201526084015b60405180910390fd5b506000908152600660205260409020546001600160a01b031690565b600061052f82610806565b9050806001600160a01b0316836001600160a01b03160361059c5760405162461bcd60e51b815260206004820152602160248201527f4552433732313a20617070726f76616c20746f2063757272656e74206f776e656044820152603960f91b60648201526084016104ff565b336001600160a01b03821614806105b857506105b881336103d7565b61062a5760405162461bcd60e51b815260206004820152603860248201527f4552433732313a20617070726f76652063616c6c6572206973206e6f74206f7760448201527f6e6572206e6f7220617070726f76656420666f7220616c6c000000000000000060648201526084016104ff565b6106348383610a37565b505050565b610644848483610aa5565b61064e8383610ad8565b50505050565b3361065e83610806565b6001600160a01b0316146106be5760405162461bcd60e51b815260206004820152602160248201527f234e46547323736574546f6b656e5552493a206f776e6572206e6f206d6174636044820152600d60fb1b60648201526084016104ff565b6106c88282610ad8565b5050565b60006106d86003610b5a565b905090565b6106e73382610b65565b6107035760405162461bcd60e51b81526004016104ff90611d8b565b61071e83838360405180602001604052806000815250610c4f565b604080516020810190915260009052505050565b6001600160a01b03821660009081526002602052604081206107549083610dd1565b90505b92915050565b610765610ddd565b6107a7604051806040016040528060048152602001634e46547360e01b815250604051806040016040528060048152602001634e46547360e01b815250610ea9565b565b610634838383604051806020016040528060008152506109b1565b6107cd81610ef3565b50565b60006107548383610b65565b600061075782610a2a565b6000806107f5600384610fbc565b509392505050565b6107cd81610fd8565b6000610757826040518060600160405280602981526020016120b96029913960039190610fe4565b6060600b805461041490611d51565b60006001600160a01b0382166108a85760405162461bcd60e51b815260206004820152602a60248201527f4552433732313a2062616c616e636520717565727920666f7220746865207a65604482015269726f206164647265737360b01b60648201526084016104ff565b6001600160a01b038216600090815260026020526040902061075790610ffb565b610634838383610aa5565b60606009805461041490611d51565b6107cd3382611005565b336001600160a01b038316036109455760405162461bcd60e51b815260206004820152601960248201527f4552433732313a20617070726f766520746f2063616c6c65720000000000000060448201526064016104ff565b3360008181526007602090815260408083206001600160a01b03871680855290835292819020805460ff191686151590811790915590519081529192917f17307eab39ab6107e8899845ad3d59bd9653f200f220920489ca2b5937696c31910160405180910390a35050565b6109bb3383610b65565b6109d75760405162461bcd60e51b81526004016104ff90611d8b565b61064e84848484611127565b6001600160e01b0319821660009081526001602052604090205460ff1681906106345760405162461bcd60e51b81526004016104ff919061198f565b606061075782611160565b60006107576003836112d2565b600081815260066020526040902080546001600160a01b0319166001600160a01b0384169081179091558190610a6c82610806565b6001600160a01b03167f8c5be1e5ebec7d5bd14f71427d1e84f3dd0314c0f7b2291e5b200ac8c7c3b92560405160405180910390a45050565b610aaf8383611005565b610abc60008484846112de565b6106345760405162461bcd60e51b81526004016104ff90611ddc565b610ae182610a2a565b610b425760405162461bcd60e51b815260206004820152602c60248201527f4552433732314d657461646174613a2055524920736574206f66206e6f6e657860448201526b34b9ba32b73a103a37b5b2b760a11b60648201526084016104ff565b6000828152600a602052604090206106348282611e7c565b600061075782611397565b6000610b7082610a2a565b610bd15760405162461bcd60e51b815260206004820152602c60248201527f4552433732313a206f70657261746f7220717565727920666f72206e6f6e657860448201526b34b9ba32b73a103a37b5b2b760a11b60648201526084016104ff565b6000610bdc83610806565b9050806001600160a01b0316846001600160a01b03161480610c175750836001600160a01b0316610c0c84610497565b6001600160a01b0316145b80610c4757506001600160a01b0380821660009081526007602090815260408083209388168352929052205460ff165b949350505050565b836001600160a01b0316610c6283610806565b6001600160a01b031614610cca5760405162461bcd60e51b815260206004820152602960248201527f4552433732313a207472616e73666572206f6620746f6b656e2074686174206960448201526839903737ba1037bbb760b91b60648201526084016104ff565b6001600160a01b038316610d2c5760405162461bcd60e51b8152602060048201526024808201527f4552433732313a207472616e7366657220746f20746865207a65726f206164646044820152637265737360e01b60648201526084016104ff565b610d37600083610a37565b6001600160a01b0384166000908152600260205260409020610d5990836113a2565b506001600160a01b0383166000908152600260205260409020610d7c90836113ae565b50610d89600383856113ba565b5081836001600160a01b0316856001600160a01b03167fddf252ad1be2c89b69c2b068fc378daa952ba7f163c4a11628f55a4df523b3ef60405160405180910390a450505050565b600061075483836113d0565b600054610100900460ff1680610df25750303b155b80610e00575060005460ff16155b610e635760405162461bcd60e51b815260206004820152602e60248201527f436f6e747261637420696e7374616e63652068617320616c726561647920626560448201526d195b881a5b9a5d1a585b1a5e995960921b60648201526084016104ff565b600054610100900460ff16158015610e85576000805461ffff19166101011790555b610e956301ffc9a760e01b6113fa565b80156107cd576000805461ff001916905550565b6008610eb58382611e7c565b506009610ec28282611e7c565b50610ed36380ac58cd60e01b6113fa565b610ee3635b5e139f60e01b6113fa565b6106c863780e9d6360e01b6113fa565b6000610efe82610806565b6040805160208101909152600090529050610f1a600083610a37565b6000828152600a602052604090208054610f3390611d51565b159050610f51576000828152600a60205260408120610f51916118be565b6001600160a01b0381166000908152600260205260409020610f7390836113a2565b50610f7f600383611403565b5060405182906000906001600160a01b038416907fddf252ad1be2c89b69c2b068fc378daa952ba7f163c4a11628f55a4df523b3ef908390a45050565b6000808080610fcb868661140f565b9097909650945050505050565b600b6106c88282611e7c565b6000610ff184848461143a565b90505b9392505050565b6000610757825490565b6001600160a01b03821661105b5760405162461bcd60e51b815260206004820181905260248201527f4552433732313a206d696e7420746f20746865207a65726f206164647265737360448201526064016104ff565b61106481610a2a565b156110b15760405162461bcd60e51b815260206004820152601c60248201527f4552433732313a20746f6b656e20616c7265616479206d696e7465640000000060448201526064016104ff565b60408051602080820183526000918290526001600160a01b038516825260029052206110dd90826113ae565b506110ea600382846113ba565b5060405181906001600160a01b038416906000907fddf252ad1be2c89b69c2b068fc378daa952ba7f163c4a11628f55a4df523b3ef908290a45050565b61113384848484610c4f565b61113f848484846112de565b61115b5760405162461bcd60e51b81526004016104ff90611ddc565b61064e565b606061116b82610a2a565b6111cf5760405162461bcd60e51b815260206004820152602f60248201527f4552433732314d657461646174613a2055524920717565727920666f72206e6f60448201526e3732bc34b9ba32b73a103a37b5b2b760891b60648201526084016104ff565b6000828152600a6020526040812080546111e890611d51565b80601f016020809104026020016040519081016040528092919081815260200182805461121490611d51565b80156112615780601f1061123657610100808354040283529160200191611261565b820191906000526020600020905b81548152906001019060200180831161124457829003601f168201915b50505050509050600b805461127590611d51565b90506000036112845792915050565b8051156112b657600b8160405160200161129f929190611f3c565b604051602081830303815290604052915050919050565b600b6112c184611486565b60405160200161129f929190611f3c565b60006107548383611519565b60006001600160a01b0384163b6112f757506001610c47565b6000630a85bd0160e11b338786866040516024016113189493929190611fc3565b604051602081830303815290604052906001600160e01b0319166020820180516001600160e01b038381831617835250505050905063150b7a0260e01b6001600160e01b031916611382868360405180606001604052806032815260200161208760329139611538565b6001600160e01b031916149695505050505050565b600061075782610ffb565b600061075483836115e8565b600061075483836116db565b6000610ff184846001600160a01b03851661172a565b60008260000182815481106113e7576113e7612000565b9060005260206000200154905092915050565b6107cd81611747565b600061075483836117c9565b6000808061141d8585610dd1565b600081815260029690960160205260409095205494959350505050565b60008281526002840160205260408120548015158061145e575061145e8585611519565b839061147d5760405162461bcd60e51b81526004016104ff919061198f565b50949350505050565b60606000611493836117e6565b600101905060008167ffffffffffffffff8111156114b3576114b3611a01565b6040519080825280601f01601f1916602001820160405280156114dd576020820181803683370190505b5090508181016020015b600019016f181899199a1a9b1b9c1cb0b131b232b360811b600a86061a8153600a85049450846114e757509392505050565b6000610754838360008181526001830160205260408120541515610754565b6000806000856001600160a01b0316856040516115559190612016565b6000604051808303816000865af19150503d8060008114611592576040519150601f19603f3d011682016040523d82523d6000602084013e611597565b606091505b5091509150816115cb578051156115b15780518082602001fd5b8360405162461bcd60e51b81526004016104ff919061198f565b808060200190518101906115df9190612032565b92505050610ff4565b600081815260018301602052604081205480156116d157600061160c60018361204f565b85549091506000906116209060019061204f565b905081811461168557600086600001828154811061164057611640612000565b906000526020600020015490508087600001848154811061166357611663612000565b6000918252602080832090910192909255918252600188019052604090208390555b855486908061169657611696612070565b600190038181906000526020600020016000905590558560010160008681526020019081526020016000206000905560019350505050610757565b6000915050610757565b600081815260018301602052604081205461172257508154600181810184556000848152602080822090930184905584548482528286019093526040902091909155610757565b506000610757565b60008281526002840160205260408120829055610ff184846113ae565b6001600160e01b031980821690036117a15760405162461bcd60e51b815260206004820152601c60248201527f4552433136353a20696e76616c696420696e746572666163652069640000000060448201526064016104ff565b6001600160e01b0319166000908152600160208190526040909120805460ff19169091179055565b6000818152600283016020526040812081905561075483836113a2565b60008072184f03e93ff9f4daa797ed6e38ed64bf6a1f0160401b83106118255772184f03e93ff9f4daa797ed6e38ed64bf6a1f0160401b830492506040015b6d04ee2d6d415b85acef81000000008310611851576d04ee2d6d415b85acef8100000000830492506020015b662386f26fc10000831061186f57662386f26fc10000830492506010015b6305f5e1008310611887576305f5e100830492506008015b612710831061189b57612710830492506004015b606483106118ad576064830492506002015b600a83106107575760010192915050565b5080546118ca90611d51565b6000825580601f106118da575050565b601f0160209004906000526020600020908101906107cd91905b8082111561190857600081556001016118f4565b5090565b6001600160e01b0319811681146107cd57600080fd5b60006020828403121561193457600080fd5b8135610ff48161190c565b60005b8381101561195a578181015183820152602001611942565b50506000910152565b6000815180845261197b81602086016020860161193f565b601f01601f19169290920160200192915050565b6020815260006107546020830184611963565b6000602082840312156119b457600080fd5b5035919050565b80356001600160a01b03811681146119d257600080fd5b919050565b600080604083850312156119ea57600080fd5b6119f3836119bb565b946020939093013593505050565b634e487b7160e01b600052604160045260246000fd5b600082601f830112611a2857600080fd5b813567ffffffffffffffff80821115611a4357611a43611a01565b604051601f8301601f19908116603f01168101908282118183101715611a6b57611a6b611a01565b81604052838152866020858801011115611a8457600080fd5b836020870160208301376000602085830101528094505050505092915050565b60008060008060808587031215611aba57600080fd5b611ac3856119bb565b935060208501359250604085013567ffffffffffffffff80821115611ae757600080fd5b611af388838901611a17565b93506060870135915080821115611b0957600080fd5b50611b1687828801611a17565b91505092959194509250565b60008060408385031215611b3557600080fd5b82359150602083013567ffffffffffffffff811115611b5357600080fd5b611b5f85828601611a17565b9150509250929050565b600080600060608486031215611b7e57600080fd5b611b87846119bb565b9250611b95602085016119bb565b9150604084013590509250925092565b600060208284031215611bb757600080fd5b813567ffffffffffffffff811115611bce57600080fd5b610c4784828501611a17565b600060208284031215611bec57600080fd5b610754826119bb565b600080600060608486031215611c0a57600080fd5b611c13846119bb565b925060208401359150604084013567ffffffffffffffff811115611c3657600080fd5b611c4286828701611a17565b9150509250925092565b60008060408385031215611c5f57600080fd5b611c68836119bb565b915060208301358015158114611c7d57600080fd5b809150509250929050565b60008060008060808587031215611c9e57600080fd5b611ca7856119bb565b9350611cb5602086016119bb565b925060408501359150606085013567ffffffffffffffff811115611cd857600080fd5b611b1687828801611a17565b60008060408385031215611cf757600080fd5b8235611d028161190c565b9150602083013567ffffffffffffffff811115611b5357600080fd5b60008060408385031215611d3157600080fd5b611d3a836119bb565b9150611d48602084016119bb565b90509250929050565b600181811c90821680611d6557607f821691505b602082108103611d8557634e487b7160e01b600052602260045260246000fd5b50919050565b60208082526031908201527f4552433732313a207472616e736665722063616c6c6572206973206e6f74206f6040820152701ddb995c881b9bdc88185c1c1c9bdd9959607a1b606082015260800190565b60208082526032908201527f4552433732313a207472616e7366657220746f206e6f6e20455243373231526560408201527131b2b4bb32b91034b6b83632b6b2b73a32b960711b606082015260800190565b601f82111561063457600081815260208120601f850160051c81016020861015611e555750805b601f850160051c820191505b81811015611e7457828155600101611e61565b505050505050565b815167ffffffffffffffff811115611e9657611e96611a01565b611eaa81611ea48454611d51565b84611e2e565b602080601f831160018114611edf5760008415611ec75750858301515b600019600386901b1c1916600185901b178555611e74565b600085815260208120601f198616915b82811015611f0e57888601518255948401946001909101908401611eef565b5085821015611f2c5787850151600019600388901b60f8161c191681555b5050505050600190811b01905550565b6000808454611f4a81611d51565b60018281168015611f625760018114611f7757611fa6565b60ff1984168752821515830287019450611fa6565b8860005260208060002060005b85811015611f9d5781548a820152908401908201611f84565b50505082870194505b505050508351611fba81836020880161193f565b01949350505050565b6001600160a01b0385811682528416602082015260408101839052608060608201819052600090611ff690830184611963565b9695505050505050565b634e487b7160e01b600052603260045260246000fd5b6000825161202881846020870161193f565b9190910192915050565b60006020828403121561204457600080fd5b8151610ff48161190c565b8181038181111561075757634e487b7160e01b600052601160045260246000fd5b634e487b7160e01b600052603160045260246000fdfe4552433732313a207472616e7366657220746f206e6f6e20455243373231526563656976657220696d706c656d656e7465724552433732313a206f776e657220717565727920666f72206e6f6e6578697374656e7420746f6b656ea26469706673582212208863061932720f7414b437ffbf501084d125f0329f4d9ee466bd3542e63c48b564736f6c63430008110033",
  "immutableReferences": {},
  "source": "// SPDX-License-Identifier: MIT\npragma solidity 0.8.17;\n\nimport './libs/ERC721.sol';\nimport './libs/ERC165.sol';\n\ncontract NFTs is ERC165, ERC721 {\n\n\t// @overwrite ---------------\n\tfunction _registerInterface(bytes4 interfaceId) internal virtual override(ERC165,ERC721) {\n\t\tERC165._registerInterface(interfaceId);\n\t}\n\t// --------------------------\n\n\tfunction initNFTs() public {\n\t\tinitERC165();\n\t\tinitERC721(\"NFTs\", \"NFTs\");\n\t}\n\n\tfunction mint(uint256 tokenId) public {\n\t\t_mint(msg.sender, tokenId);\n\t}\n\n\tfunction safeMintURI(address to, uint256 tokenId, string memory _tokenURI, bytes memory _data) public {\n\t\t_safeMint(to, tokenId, _data);\n\t\t_setTokenURI(tokenId, _tokenURI);\n\t}\n\n\tfunction safeMint(address to, uint256 tokenId, bytes memory _data) public {\n\t\t_safeMint(to, tokenId, _data);\n\t}\n\n\tfunction burn(uint256 tokenId) public {\n\t\t_burn(tokenId);\n\t}\n\n\tfunction setTokenURI(uint256 tokenId, string memory _tokenURI) public {\n\t\trequire(ownerOf(tokenId) == _msgSender(), \"#NFTs#setTokenURI: owner no match\");\n\t\t_setTokenURI(tokenId, _tokenURI);\n\t}\n\n\tfunction setBaseURI(string memory baseURI_) public {\n\t\t_setBaseURI(baseURI_);\n\t}\n\n\tfunction isApprovedOrOwner(address spender, uint256 tokenId) view public returns (bool) {\n\t\treturn _havePermission(spender, tokenId);\n\t}\n\n}\n\ncontract NFTsTest is NFTs {\n\tusing Strings for uint256;\n\n\tstring public contractURI;\n\n\tfunction initNFTsTest() external {\n\t\tinitNFTs();\n\t\tstring memory addr = uint256(uint160(address(this))).toString();\n\t\tcontractURI = string(abi.encodePacked(\"https://smart-dao-rel.stars-mine.com/service-api/test1/getOpenseaContractJSON?address=\", addr));\n\t\t// contractURI = \"https://smart-dao-rel.stars-mine.com/service-api/test1/getOpenseaContractJSON?address=0x87Ae5AB6e5A7F925dCC091F3a2247786D5E26349\";\n\t}\n\n\tstruct TokenTransfer {\n\t\taddress from;\n\t\taddress to;\n\t\tuint256 blockNumber;\n\t\tuint256 tokenId;\n\t\tbytes data;\n\t}\n\n\tTokenTransfer public lastTransfer;\n\n\tfunction _beforeTokenTransfer(address from, address to, uint256 tokenId, bytes memory _data) internal virtual override {\n\t\trequire(lastTransfer.blockNumber == 0, \"#NFTs#_beforeTokenTransfer lastTransfer.blockNumber == 0\");\n\t\tif (from == address(0) || to == address(0)) return;\n\t\tlastTransfer.from = from;\n\t\tlastTransfer.to = to;\n\t\tlastTransfer.blockNumber = block.number;\n\t\tlastTransfer.tokenId = tokenId;\n\t\tlastTransfer.data = _data;\n\t}\n\n\treceive() external payable {\n\t\trequire(msg.value != 0, \"#NFTs#receive msg.value != 0\"); // price\n\t\trequire(lastTransfer.blockNumber != 0, \"#NFTs#receive lastTransfer.blockNumber != 0\");\n\t\tlastTransfer.blockNumber = 0;\n\t}\n\n}\n",
  "sourcePath": "/Users/louis/Project/hc/NFTSwap/SmartHolder/contracts/NFTs.sol",
  "compiler": {
    "name": "solc",
    "version": "0.8.17+commit.8df45f5f.Emscripten.clang"
  },
  "schemaVersion": "3.4.11",
  "updatedAt": "2023-02-13T07:43:56.524Z",
  "devdoc": {
    "kind": "dev",
    "methods": {
      "approve(address,uint256)": {
        "details": "Approves another address to transfer the given token ID The zero address indicates there is no approved address. There can only be one approved address per token at a given time. Can only be called by the token owner or an approved operator.",
        "params": {
          "to": "address to be approved for the given token ID",
          "tokenId": "uint256 ID of the token to be approved"
        }
      },
      "balanceOf(address)": {
        "details": "Gets the balance of the specified address.",
        "params": {
          "owner": "address to query the balance of"
        },
        "returns": {
          "_0": "uint256 representing the amount owned by the passed address"
        }
      },
      "baseURI()": {
        "details": "Returns the base URI set via {_setBaseURI}. This will be automatically added as a prefix in {tokenURI} to each token's URI, or to the token ID if no specific URI is set for that token ID."
      },
      "getApproved(uint256)": {
        "details": "Gets the approved address for a token ID, or zero if no address set Reverts if the token ID does not exist.",
        "params": {
          "tokenId": "uint256 ID of the token to query the approval of"
        },
        "returns": {
          "_0": "address currently approved for the given token ID"
        }
      },
      "isApprovedForAll(address,address)": {
        "details": "Tells whether an operator is approved by a given owner.",
        "params": {
          "operator": "operator address which you want to query the approval of",
          "owner": "owner address which you want to query the approval of"
        },
        "returns": {
          "_0": "bool whether the given operator is approved by the given owner"
        }
      },
      "name()": {
        "details": "Gets the token name.",
        "returns": {
          "_0": "string representing the token name"
        }
      },
      "ownerOf(uint256)": {
        "details": "Gets the owner of the specified token ID.",
        "params": {
          "tokenId": "uint256 ID of the token to query the owner of"
        },
        "returns": {
          "_0": "address currently marked as the owner of the given token ID"
        }
      },
      "safeTransferFrom(address,address,uint256)": {
        "details": "Safely transfers the ownership of a given token ID to another address If the target address is a contract, it must implement {IERC721Receiver-onERC721Received}, which is called upon a safe transfer, and return the magic value `bytes4(keccak256(\"onERC721Received(address,address,uint256,bytes)\"))`; otherwise, the transfer is reverted. Requires the msg.sender to be the owner, approved, or operator",
        "params": {
          "from": "current owner of the token",
          "to": "address to receive the ownership of the given token ID",
          "tokenId": "uint256 ID of the token to be transferred"
        }
      },
      "safeTransferFrom(address,address,uint256,bytes)": {
        "details": "Safely transfers the ownership of a given token ID to another address If the target address is a contract, it must implement {IERC721Receiver-onERC721Received}, which is called upon a safe transfer, and return the magic value `bytes4(keccak256(\"onERC721Received(address,address,uint256,bytes)\"))`; otherwise, the transfer is reverted. Requires the _msgSender() to be the owner, approved, or operator",
        "params": {
          "_data": "bytes data to send along with a safe transfer check",
          "from": "current owner of the token",
          "to": "address to receive the ownership of the given token ID",
          "tokenId": "uint256 ID of the token to be transferred"
        }
      },
      "setApprovalForAll(address,bool)": {
        "details": "Sets or unsets the approval of a given operator An operator is allowed to transfer all tokens of the sender on their behalf.",
        "params": {
          "approved": "representing the status of the approval to be set",
          "operator": "operator address to set the approval"
        }
      },
      "supportsInterface(bytes4)": {
        "details": "See {IERC165-supportsInterface}. Time complexity O(1), guaranteed to always use less than 30 000 gas."
      },
      "symbol()": {
        "details": "Gets the token symbol.",
        "returns": {
          "_0": "string representing the token symbol"
        }
      },
      "tokenByIndex(uint256)": {
        "details": "Gets the token ID at a given index of all the tokens in this contract Reverts if the index is greater or equal to the total number of tokens.",
        "params": {
          "index": "uint256 representing the index to be accessed of the tokens list"
        },
        "returns": {
          "_0": "uint256 token ID at the given index of the tokens list"
        }
      },
      "tokenOfOwnerByIndex(address,uint256)": {
        "details": "Gets the token ID at a given index of the tokens list of the requested owner.",
        "params": {
          "index": "uint256 representing the index to be accessed of the requested tokens list",
          "owner": "address owning the tokens list to be accessed"
        },
        "returns": {
          "_0": "uint256 token ID at the given index of the tokens list owned by the requested address"
        }
      },
      "tokenURI(uint256)": {
        "details": "Returns the Uniform Resource Identifier (URI) for `tokenId` token."
      },
      "totalSupply()": {
        "details": "Gets the total amount of tokens stored by the contract.",
        "returns": {
          "_0": "uint256 representing the total amount of tokens"
        }
      },
      "transferFrom(address,address,uint256)": {
        "details": "Transfers the ownership of a given token ID to another address. Usage of this method is discouraged, use {safeTransferFrom} whenever possible. Requires the msg.sender to be the owner, approved, or operator.",
        "params": {
          "from": "current owner of the token",
          "to": "address to receive the ownership of the given token ID",
          "tokenId": "uint256 ID of the token to be transferred"
        }
      }
    },
    "version": 1
  },
  "userdoc": {
    "kind": "user",
    "methods": {},
    "version": 1
  }
}