{
  "contractName": "NFTs",
  "abi": [
    {
      "inputs": [],
      "name": "AddressEmpty",
      "type": "error"
    },
    {
      "inputs": [],
      "name": "ApprovalToOwnerInERC721",
      "type": "error"
    },
    {
      "inputs": [],
      "name": "ApproveAllToCallerInERC721",
      "type": "error"
    },
    {
      "inputs": [
        {
          "internalType": "bytes4",
          "name": "interfaceId",
          "type": "bytes4"
        }
      ],
      "name": "CheckInterfaceNoMatch",
      "type": "error"
    },
    {
      "inputs": [],
      "name": "NonERC721ReceiverImplementer",
      "type": "error"
    },
    {
      "inputs": [],
      "name": "PermissionDeniedInERC721",
      "type": "error"
    },
    {
      "inputs": [],
      "name": "TokenIDAlreadyMintedInERC721",
      "type": "error"
    },
    {
      "inputs": [],
      "name": "TokenIDNonExistentInERC721",
      "type": "error"
    },
    {
      "inputs": [],
      "name": "TransferOfTokenIDThatIsNotOwnInERC721",
      "type": "error"
    },
    {
      "anonymous": false,
      "inputs": [
        {
          "indexed": true,
          "internalType": "address",
          "name": "owner",
          "type": "address"
        },
        {
          "indexed": true,
          "internalType": "address",
          "name": "approved",
          "type": "address"
        },
        {
          "indexed": true,
          "internalType": "uint256",
          "name": "tokenId",
          "type": "uint256"
        }
      ],
      "name": "Approval",
      "type": "event"
    },
    {
      "anonymous": false,
      "inputs": [
        {
          "indexed": true,
          "internalType": "address",
          "name": "owner",
          "type": "address"
        },
        {
          "indexed": true,
          "internalType": "address",
          "name": "operator",
          "type": "address"
        },
        {
          "indexed": false,
          "internalType": "bool",
          "name": "approved",
          "type": "bool"
        }
      ],
      "name": "ApprovalForAll",
      "type": "event"
    },
    {
      "anonymous": false,
      "inputs": [
        {
          "indexed": false,
          "internalType": "uint8",
          "name": "version",
          "type": "uint8"
        }
      ],
      "name": "Initialized",
      "type": "event"
    },
    {
      "anonymous": false,
      "inputs": [
        {
          "indexed": true,
          "internalType": "address",
          "name": "from",
          "type": "address"
        },
        {
          "indexed": true,
          "internalType": "address",
          "name": "to",
          "type": "address"
        },
        {
          "indexed": true,
          "internalType": "uint256",
          "name": "tokenId",
          "type": "uint256"
        }
      ],
      "name": "Transfer",
      "type": "event"
    },
    {
      "inputs": [
        {
          "internalType": "address",
          "name": "to",
          "type": "address"
        },
        {
          "internalType": "uint256",
          "name": "tokenId",
          "type": "uint256"
        }
      ],
      "name": "approve",
      "outputs": [],
      "stateMutability": "nonpayable",
      "type": "function"
    },
    {
      "inputs": [
        {
          "internalType": "address",
          "name": "owner",
          "type": "address"
        }
      ],
      "name": "balanceOf",
      "outputs": [
        {
          "internalType": "uint256",
          "name": "",
          "type": "uint256"
        }
      ],
      "stateMutability": "view",
      "type": "function"
    },
    {
      "inputs": [],
      "name": "baseURI",
      "outputs": [
        {
          "internalType": "string",
          "name": "",
          "type": "string"
        }
      ],
      "stateMutability": "view",
      "type": "function"
    },
    {
      "inputs": [
        {
          "internalType": "bytes4",
          "name": "interfaceId",
          "type": "bytes4"
        }
      ],
      "name": "checkInterface",
      "outputs": [],
      "stateMutability": "view",
      "type": "function"
    },
    {
      "inputs": [
        {
          "internalType": "uint256",
          "name": "id",
          "type": "uint256"
        }
      ],
      "name": "exists",
      "outputs": [
        {
          "internalType": "bool",
          "name": "",
          "type": "bool"
        }
      ],
      "stateMutability": "view",
      "type": "function"
    },
    {
      "inputs": [
        {
          "internalType": "uint256",
          "name": "tokenId",
          "type": "uint256"
        }
      ],
      "name": "getApproved",
      "outputs": [
        {
          "internalType": "address",
          "name": "",
          "type": "address"
        }
      ],
      "stateMutability": "view",
      "type": "function"
    },
    {
      "inputs": [
        {
          "internalType": "address",
          "name": "owner",
          "type": "address"
        },
        {
          "internalType": "address",
          "name": "operator",
          "type": "address"
        }
      ],
      "name": "isApprovedForAll",
      "outputs": [
        {
          "internalType": "bool",
          "name": "",
          "type": "bool"
        }
      ],
      "stateMutability": "view",
      "type": "function"
    },
    {
      "inputs": [],
      "name": "name",
      "outputs": [
        {
          "internalType": "string",
          "name": "",
          "type": "string"
        }
      ],
      "stateMutability": "view",
      "type": "function"
    },
    {
      "inputs": [
        {
          "internalType": "uint256",
          "name": "tokenId",
          "type": "uint256"
        }
      ],
      "name": "ownerOf",
      "outputs": [
        {
          "internalType": "address",
          "name": "owner",
          "type": "address"
        }
      ],
      "stateMutability": "view",
      "type": "function"
    },
    {
      "inputs": [
        {
          "internalType": "address",
          "name": "from",
          "type": "address"
        },
        {
          "internalType": "address",
          "name": "to",
          "type": "address"
        },
        {
          "internalType": "uint256",
          "name": "tokenId",
          "type": "uint256"
        }
      ],
      "name": "safeTransferFrom",
      "outputs": [],
      "stateMutability": "nonpayable",
      "type": "function"
    },
    {
      "inputs": [
        {
          "internalType": "address",
          "name": "from",
          "type": "address"
        },
        {
          "internalType": "address",
          "name": "to",
          "type": "address"
        },
        {
          "internalType": "uint256",
          "name": "tokenId",
          "type": "uint256"
        },
        {
          "internalType": "bytes",
          "name": "_data",
          "type": "bytes"
        }
      ],
      "name": "safeTransferFrom",
      "outputs": [],
      "stateMutability": "nonpayable",
      "type": "function"
    },
    {
      "inputs": [
        {
          "internalType": "address",
          "name": "operator",
          "type": "address"
        },
        {
          "internalType": "bool",
          "name": "approved",
          "type": "bool"
        }
      ],
      "name": "setApprovalForAll",
      "outputs": [],
      "stateMutability": "nonpayable",
      "type": "function"
    },
    {
      "inputs": [
        {
          "internalType": "bytes4",
          "name": "interfaceId",
          "type": "bytes4"
        }
      ],
      "name": "supportsInterface",
      "outputs": [
        {
          "internalType": "bool",
          "name": "",
          "type": "bool"
        }
      ],
      "stateMutability": "view",
      "type": "function"
    },
    {
      "inputs": [],
      "name": "symbol",
      "outputs": [
        {
          "internalType": "string",
          "name": "",
          "type": "string"
        }
      ],
      "stateMutability": "view",
      "type": "function"
    },
    {
      "inputs": [
        {
          "internalType": "uint256",
          "name": "index",
          "type": "uint256"
        }
      ],
      "name": "tokenByIndex",
      "outputs": [
        {
          "internalType": "uint256",
          "name": "",
          "type": "uint256"
        }
      ],
      "stateMutability": "view",
      "type": "function"
    },
    {
      "inputs": [
        {
          "internalType": "address",
          "name": "owner",
          "type": "address"
        },
        {
          "internalType": "uint256",
          "name": "index",
          "type": "uint256"
        }
      ],
      "name": "tokenOfOwnerByIndex",
      "outputs": [
        {
          "internalType": "uint256",
          "name": "",
          "type": "uint256"
        }
      ],
      "stateMutability": "view",
      "type": "function"
    },
    {
      "inputs": [
        {
          "internalType": "uint256",
          "name": "tokenId",
          "type": "uint256"
        }
      ],
      "name": "tokenURI",
      "outputs": [
        {
          "internalType": "string",
          "name": "",
          "type": "string"
        }
      ],
      "stateMutability": "view",
      "type": "function"
    },
    {
      "inputs": [],
      "name": "totalSupply",
      "outputs": [
        {
          "internalType": "uint256",
          "name": "",
          "type": "uint256"
        }
      ],
      "stateMutability": "view",
      "type": "function"
    },
    {
      "inputs": [
        {
          "internalType": "address",
          "name": "from",
          "type": "address"
        },
        {
          "internalType": "address",
          "name": "to",
          "type": "address"
        },
        {
          "internalType": "uint256",
          "name": "tokenId",
          "type": "uint256"
        }
      ],
      "name": "transferFrom",
      "outputs": [],
      "stateMutability": "nonpayable",
      "type": "function"
    },
    {
      "inputs": [],
      "name": "initNFTs",
      "outputs": [],
      "stateMutability": "nonpayable",
      "type": "function"
    },
    {
      "inputs": [
        {
          "internalType": "uint256",
          "name": "tokenId",
          "type": "uint256"
        }
      ],
      "name": "mint",
      "outputs": [],
      "stateMutability": "nonpayable",
      "type": "function"
    },
    {
      "inputs": [
        {
          "internalType": "address",
          "name": "to",
          "type": "address"
        },
        {
          "internalType": "uint256",
          "name": "tokenId",
          "type": "uint256"
        },
        {
          "internalType": "string",
          "name": "_tokenURI",
          "type": "string"
        },
        {
          "internalType": "bytes",
          "name": "_data",
          "type": "bytes"
        }
      ],
      "name": "safeMintURI",
      "outputs": [],
      "stateMutability": "nonpayable",
      "type": "function"
    },
    {
      "inputs": [
        {
          "internalType": "address",
          "name": "to",
          "type": "address"
        },
        {
          "internalType": "uint256",
          "name": "tokenId",
          "type": "uint256"
        },
        {
          "internalType": "bytes",
          "name": "_data",
          "type": "bytes"
        }
      ],
      "name": "safeMint",
      "outputs": [],
      "stateMutability": "nonpayable",
      "type": "function"
    },
    {
      "inputs": [
        {
          "internalType": "uint256",
          "name": "tokenId",
          "type": "uint256"
        }
      ],
      "name": "burn",
      "outputs": [],
      "stateMutability": "nonpayable",
      "type": "function"
    },
    {
      "inputs": [
        {
          "internalType": "uint256",
          "name": "tokenId",
          "type": "uint256"
        },
        {
          "internalType": "string",
          "name": "_tokenURI",
          "type": "string"
        }
      ],
      "name": "setTokenURI",
      "outputs": [],
      "stateMutability": "nonpayable",
      "type": "function"
    },
    {
      "inputs": [
        {
          "internalType": "string",
          "name": "baseURI_",
          "type": "string"
        }
      ],
      "name": "setBaseURI",
      "outputs": [],
      "stateMutability": "nonpayable",
      "type": "function"
    },
    {
      "inputs": [
        {
          "internalType": "address",
          "name": "spender",
          "type": "address"
        },
        {
          "internalType": "uint256",
          "name": "tokenId",
          "type": "uint256"
        }
      ],
      "name": "isApprovedOrOwner",
      "outputs": [
        {
          "internalType": "bool",
          "name": "",
          "type": "bool"
        }
      ],
      "stateMutability": "view",
      "type": "function"
    }
  ],
  "bytecode": "0x608060405234801561001057600080fd5b50611c90806100206000396000f3fe608060405234801561001057600080fd5b50600436106101a95760003560e01c80634c6e425b116100f95780638832e6e311610097578063a22cb46511610071578063a22cb465146103a6578063b88d4fde146103b9578063c87b56dd146103cc578063e985e9c5146103df57600080fd5b80638832e6e31461037857806395d89b411461038b578063a0712d681461039357600080fd5b806355f804b3116100d357806355f804b3146103375780636352211e1461034a5780636c0360eb1461035d57806370a082311461036557600080fd5b80634c6e425b146102fe5780634f558e79146103115780634f6ccce71461032457600080fd5b806318160ddd116101665780633480f97a116101405780633480f97a146102bd57806342842e0e146102c557806342966c68146102d8578063430c2081146102eb57600080fd5b806318160ddd1461028157806323b872dd146102975780632f745c59146102aa57600080fd5b806301ffc9a7146101ae57806306fdde03146101f0578063081812fc14610205578063095ea7b3146102465780630fa86d3d1461025b578063162094c41461026e575b600080fd5b6101db6101bc3660046115d2565b6001600160e01b03191660009081526001602052604090205460ff1690565b60405190151581526020015b60405180910390f35b6101f861041b565b6040516101e79190611646565b61022e610213366004611659565b6000908152600660205260409020546001600160a01b031690565b6040516001600160a01b0390911681526020016101e7565b61025961025436600461168e565b6104ad565b005b61025961026936600461175b565b610539565b61025961027c3660046117d9565b610554565b6102896105d1565b6040519081526020016101e7565b6102596102a5366004611820565b6105e2565b6102896102b836600461168e565b610638565b610259610663565b6102596102d3366004611820565b6106af565b6102596102e6366004611659565b6106ca565b6101db6102f936600461168e565b6106d6565b61025961030c3660046115d2565b6106e2565b6101db61031f366004611659565b610728565b610289610332366004611659565b610733565b61025961034536600461185c565b610749565b61022e610358366004611659565b610752565b6101f8610788565b610289610373366004611891565b610797565b6102596103863660046118ac565b6107b8565b6101f86107c3565b6102596103a1366004611659565b6107d2565b6102596103b4366004611903565b6107dc565b6102596103c736600461193f565b610871565b6101f86103da366004611659565b6108a4565b6101db6103ed36600461199b565b6001600160a01b03918216600090815260076020908152604080832093909416825291909152205460ff1690565b60606008805461042a906119ce565b80601f0160208091040260200160405190810160405280929190818152602001828054610456906119ce565b80156104a35780601f10610478576101008083540402835291602001916104a3565b820191906000526020600020905b81548152906001019060200180831161048657829003601f168201915b5050505050905090565b60006104b882610752565b9050806001600160a01b0316836001600160a01b0316036104ec576040516365f090f760e01b815260040160405180910390fd5b336001600160a01b0382161480159061050c575061050a81336103ed565b155b1561052a5760405163d3a3274560e01b815260040160405180910390fd5b61053483836108af565b505050565b61054484848361091d565b61054e8383610934565b50505050565b3361055e83610752565b6001600160a01b0316146105c35760405162461bcd60e51b815260206004820152602160248201527f234e46547323736574546f6b656e5552493a206f776e6572206e6f206d6174636044820152600d60fb1b60648201526084015b60405180910390fd5b6105cd8282610934565b5050565b60006105dd6003610972565b905090565b6105ec338261097d565b6106095760405163d3a3274560e01b815260040160405180910390fd5b61062483838360405180602001604052806000815250610a23565b604080516020810190915260009052505050565b6001600160a01b038216600090815260026020526040812061065a9083610b29565b90505b92915050565b61066b610b35565b6106ad604051806040016040528060048152602001634e46547360e01b815250604051806040016040528060048152602001634e46547360e01b815250610c4d565b565b61053483838360405180602001604052806000815250610871565b6106d381610c97565b50565b600061065a838361097d565b6001600160e01b0319811660009081526001602052604090205460ff166106d357604051632aae78ef60e01b81526001600160e01b0319821660048201526024016105ba565b600061065d82610d60565b600080610741600384610d6d565b509392505050565b6106d381610d8b565b600080610760600384610d97565b925090508061078257604051635449cd4560e01b815260040160405180910390fd5b50919050565b6060600b805461042a906119ce565b6001600160a01b038116600090815260026020526040812061065d90610da6565b61053483838361091d565b60606009805461042a906119ce565b6106d33382610db0565b336001600160a01b038316036108055760405163064256a360e21b815260040160405180910390fd5b3360008181526007602090815260408083206001600160a01b03871680855290835292819020805460ff191686151590811790915590519081529192917f17307eab39ab6107e8899845ad3d59bd9653f200f220920489ca2b5937696c31910160405180910390a35050565b61087b338361097d565b6108985760405163d3a3274560e01b815260040160405180910390fd5b61054e84848484610e74565b606061065d82610e91565b600081815260066020526040902080546001600160a01b0319166001600160a01b03841690811790915581906108e482610752565b6001600160a01b03167f8c5be1e5ebec7d5bd14f71427d1e84f3dd0314c0f7b2291e5b200ac8c7c3b92560405160405180910390a45050565b6109278383610db0565b6105346000848484610f99565b61093d82610d60565b61095a57604051635449cd4560e01b815260040160405180910390fd5b6000828152600a602052604090206105348282611a50565b600061065d8261103f565b600061098882610d60565b6109a557604051635449cd4560e01b815260040160405180910390fd5b60006109b083610752565b9050806001600160a01b0316846001600160a01b031614806109eb57506000838152600660205260409020546001600160a01b038581169116145b80610a1b57506001600160a01b0380821660009081526007602090815260408083209388168352929052205460ff165b949350505050565b836001600160a01b0316610a3683610752565b6001600160a01b031614610a5d57604051630898381960e11b815260040160405180910390fd5b6001600160a01b038316610a8457604051635bb7a72360e01b815260040160405180910390fd5b610a8f6000836108af565b6001600160a01b0384166000908152600260205260409020610ab1908361104a565b506001600160a01b0383166000908152600260205260409020610ad49083611056565b50610ae160038385611062565b5081836001600160a01b0316856001600160a01b03167fddf252ad1be2c89b69c2b068fc378daa952ba7f163c4a11628f55a4df523b3ef60405160405180910390a450505050565b600061065a8383611078565b600054610100900460ff1615808015610b555750600054600160ff909116105b80610b6f5750303b158015610b6f575060005460ff166001145b610bd25760405162461bcd60e51b815260206004820152602e60248201527f496e697469616c697a61626c653a20636f6e747261637420697320616c72656160448201526d191e481a5b9a5d1a585b1a5e995960921b60648201526084016105ba565b6000805460ff191660011790558015610bf5576000805461ff0019166101001790555b610c056301ffc9a760e01b6110a2565b80156106d3576000805461ff0019169055604051600181527f7f26b83ff96e1f2b6a682f133852f6798a09c465da95921460cefb38474024989060200160405180910390a150565b6008610c598382611a50565b506009610c668282611a50565b50610c776380ac58cd60e01b6110a2565b610c87635b5e139f60e01b6110a2565b6105cd63780e9d6360e01b6110a2565b6000610ca282610752565b6040805160208101909152600090529050610cbe6000836108af565b6000828152600a602052604090208054610cd7906119ce565b159050610cf5576000828152600a60205260408120610cf59161156e565b6001600160a01b0381166000908152600260205260409020610d17908361104a565b50610d236003836110ab565b5060405182906000906001600160a01b038416907fddf252ad1be2c89b69c2b068fc378daa952ba7f163c4a11628f55a4df523b3ef908390a45050565b600061065d6003836110b7565b6000808080610d7c86866110c3565b909450925050505b9250929050565b600b6105cd8282611a50565b6000808080610d7c86866110ee565b600061065d825490565b610db981610d60565b15610dd75760405163082c3a4f60e01b815260040160405180910390fd5b6001600160a01b038216610dfe57604051635bb7a72360e01b815260040160405180910390fd5b60408051602080820183526000918290526001600160a01b03851682526002905220610e2a9082611056565b50610e3760038284611062565b5060405181906001600160a01b038416906000907fddf252ad1be2c89b69c2b068fc378daa952ba7f163c4a11628f55a4df523b3ef908290a45050565b610e8084848484610a23565b610e8c84848484610f99565b61054e565b6000818152600a6020526040812080546060929190610eaf906119ce565b80601f0160208091040260200160405190810160405280929190818152602001828054610edb906119ce565b8015610f285780601f10610efd57610100808354040283529160200191610f28565b820191906000526020600020905b815481529060010190602001808311610f0b57829003601f168201915b50505050509050600b8054610f3c906119ce565b9050600003610f4b5792915050565b805115610f7d57600b81604051602001610f66929190611b10565b604051602081830303815290604052915050919050565b600b610f8884611128565b604051602001610f66929190611b10565b6001600160a01b0383163b1561054e576000630a85bd0160e11b33868585604051602401610fca9493929190611b97565b60408051601f198184030181529190526020810180516001600160e01b03166001600160e01b0319909316929092179091529050630a85bd0160e11b61101085836111bb565b6001600160e01b03191614611038576040516342eac10f60e11b815260040160405180910390fd5b5050505050565b600061065d82610da6565b600061065a8383611274565b600061065a8383611367565b6000610a1b84846001600160a01b0385166113b6565b600082600001828154811061108f5761108f611bd4565b9060005260206000200154905092915050565b6106d3816113d3565b600061065a8383611455565b600061065a8383611472565b600080806110d18585610b29565b600081815260029690960160205260409095205494959350505050565b600081815260028301602052604081205481908061111d576111108585611472565b925060009150610d849050565b600192509050610d84565b606060006111358361147e565b600101905060008167ffffffffffffffff811115611155576111556116b8565b6040519080825280601f01601f19166020018201604052801561117f576020820181803683370190505b5090508181016020015b600019016f181899199a1a9b1b9c1cb0b131b232b360811b600a86061a8153600a850494508461118957509392505050565b6000806000846001600160a01b0316846040516111d89190611bea565b6000604051808303816000865af19150503d8060008114611215576040519150601f19603f3d011682016040523d82523d6000602084013e61121a565b606091505b5091509150811561124257808060200190518101906112399190611c06565b9250505061065d565b8051156112525780518082602001fd5b60405162461bcd60e51b815260206004820152600060248201526044016105ba565b6000818152600183016020526040812054801561135d576000611298600183611c23565b85549091506000906112ac90600190611c23565b90508181146113115760008660000182815481106112cc576112cc611bd4565b90600052602060002001549050808760000184815481106112ef576112ef611bd4565b6000918252602080832090910192909255918252600188019052604090208390555b855486908061132257611322611c44565b60019003818190600052602060002001600090559055856001016000868152602001908152602001600020600090556001935050505061065d565b600091505061065d565b60008181526001830160205260408120546113ae5750815460018181018455600084815260208082209093018490558454848252828601909352604090209190915561065d565b50600061065d565b60008281526002840160205260408120829055610a1b8484611056565b6001600160e01b0319808216900361142d5760405162461bcd60e51b815260206004820152601c60248201527f4552433136353a20696e76616c696420696e746572666163652069640000000060448201526064016105ba565b6001600160e01b0319166000908152600160208190526040909120805460ff19169091179055565b6000818152600283016020526040812081905561065a838361104a565b600061065a8383611556565b60008072184f03e93ff9f4daa797ed6e38ed64bf6a1f0160401b83106114bd5772184f03e93ff9f4daa797ed6e38ed64bf6a1f0160401b830492506040015b6d04ee2d6d415b85acef810000000083106114e9576d04ee2d6d415b85acef8100000000830492506020015b662386f26fc10000831061150757662386f26fc10000830492506010015b6305f5e100831061151f576305f5e100830492506008015b612710831061153357612710830492506004015b60648310611545576064830492506002015b600a831061065d5760010192915050565b6000818152600183016020526040812054151561065a565b50805461157a906119ce565b6000825580601f1061158a575050565b601f0160209004906000526020600020908101906106d391905b808211156115b857600081556001016115a4565b5090565b6001600160e01b0319811681146106d357600080fd5b6000602082840312156115e457600080fd5b81356115ef816115bc565b9392505050565b60005b838110156116115781810151838201526020016115f9565b50506000910152565b600081518084526116328160208601602086016115f6565b601f01601f19169290920160200192915050565b60208152600061065a602083018461161a565b60006020828403121561166b57600080fd5b5035919050565b80356001600160a01b038116811461168957600080fd5b919050565b600080604083850312156116a157600080fd5b6116aa83611672565b946020939093013593505050565b634e487b7160e01b600052604160045260246000fd5b600082601f8301126116df57600080fd5b813567ffffffffffffffff808211156116fa576116fa6116b8565b604051601f8301601f19908116603f01168101908282118183101715611722576117226116b8565b8160405283815286602085880101111561173b57600080fd5b836020870160208301376000602085830101528094505050505092915050565b6000806000806080858703121561177157600080fd5b61177a85611672565b935060208501359250604085013567ffffffffffffffff8082111561179e57600080fd5b6117aa888389016116ce565b935060608701359150808211156117c057600080fd5b506117cd878288016116ce565b91505092959194509250565b600080604083850312156117ec57600080fd5b82359150602083013567ffffffffffffffff81111561180a57600080fd5b611816858286016116ce565b9150509250929050565b60008060006060848603121561183557600080fd5b61183e84611672565b925061184c60208501611672565b9150604084013590509250925092565b60006020828403121561186e57600080fd5b813567ffffffffffffffff81111561188557600080fd5b610a1b848285016116ce565b6000602082840312156118a357600080fd5b61065a82611672565b6000806000606084860312156118c157600080fd5b6118ca84611672565b925060208401359150604084013567ffffffffffffffff8111156118ed57600080fd5b6118f9868287016116ce565b9150509250925092565b6000806040838503121561191657600080fd5b61191f83611672565b91506020830135801515811461193457600080fd5b809150509250929050565b6000806000806080858703121561195557600080fd5b61195e85611672565b935061196c60208601611672565b925060408501359150606085013567ffffffffffffffff81111561198f57600080fd5b6117cd878288016116ce565b600080604083850312156119ae57600080fd5b6119b783611672565b91506119c560208401611672565b90509250929050565b600181811c908216806119e257607f821691505b60208210810361078257634e487b7160e01b600052602260045260246000fd5b601f82111561053457600081815260208120601f850160051c81016020861015611a295750805b601f850160051c820191505b81811015611a4857828155600101611a35565b505050505050565b815167ffffffffffffffff811115611a6a57611a6a6116b8565b611a7e81611a7884546119ce565b84611a02565b602080601f831160018114611ab35760008415611a9b5750858301515b600019600386901b1c1916600185901b178555611a48565b600085815260208120601f198616915b82811015611ae257888601518255948401946001909101908401611ac3565b5085821015611b005787850151600019600388901b60f8161c191681555b5050505050600190811b01905550565b6000808454611b1e816119ce565b60018281168015611b365760018114611b4b57611b7a565b60ff1984168752821515830287019450611b7a565b8860005260208060002060005b85811015611b715781548a820152908401908201611b58565b50505082870194505b505050508351611b8e8183602088016115f6565b01949350505050565b6001600160a01b0385811682528416602082015260408101839052608060608201819052600090611bca9083018461161a565b9695505050505050565b634e487b7160e01b600052603260045260246000fd5b60008251611bfc8184602087016115f6565b9190910192915050565b600060208284031215611c1857600080fd5b81516115ef816115bc565b8181038181111561065d57634e487b7160e01b600052601160045260246000fd5b634e487b7160e01b600052603160045260246000fdfea2646970667358221220845869e6a485cb6bafb2a335152e08a7a91f9d02c9409c06a6756e9f57aeacde64736f6c63430008110033",
  "immutableReferences": {},
  "source": "// SPDX-License-Identifier: MIT\npragma solidity 0.8.17;\n\nimport './libs/ERC721.sol';\nimport './libs/ERC165.sol';\n\ncontract NFTs is ERC165, ERC721 {\n\n\t// @overwrite ---------------\n\tfunction _registerInterface(bytes4 interfaceId) internal virtual override(ERC165,ERC721) {\n\t\tERC165._registerInterface(interfaceId);\n\t}\n\t// --------------------------\n\n\tfunction initNFTs() public {\n\t\tinitERC165();\n\t\tinitERC721(\"NFTs\", \"NFTs\");\n\t}\n\n\tfunction mint(uint256 tokenId) public {\n\t\t_mint(msg.sender, tokenId);\n\t}\n\n\tfunction safeMintURI(address to, uint256 tokenId, string memory _tokenURI, bytes memory _data) public {\n\t\t_safeMint(to, tokenId, _data);\n\t\t_setTokenURI(tokenId, _tokenURI);\n\t}\n\n\tfunction safeMint(address to, uint256 tokenId, bytes memory _data) public {\n\t\t_safeMint(to, tokenId, _data);\n\t}\n\n\tfunction burn(uint256 tokenId) public {\n\t\t_burn(tokenId);\n\t}\n\n\tfunction setTokenURI(uint256 tokenId, string memory _tokenURI) public {\n\t\trequire(ownerOf(tokenId) == _msgSender(), \"#NFTs#setTokenURI: owner no match\");\n\t\t_setTokenURI(tokenId, _tokenURI);\n\t}\n\n\tfunction setBaseURI(string memory baseURI_) public {\n\t\t_setBaseURI(baseURI_);\n\t}\n\n\tfunction isApprovedOrOwner(address spender, uint256 tokenId) view public returns (bool) {\n\t\treturn _havePermission(spender, tokenId);\n\t}\n\n}\n\ncontract NFTsTest is NFTs {\n\tusing Strings for uint256;\n\n\tstring public contractURI;\n\n\tfunction initNFTsTest() external {\n\t\tinitNFTs();\n\t\tstring memory addr = uint256(uint160(address(this))).toString();\n\t\tcontractURI = string(abi.encodePacked(\"https://smart-dao-rel.stars-mine.com/service-api/test1/getOpenseaContractJSON?address=\", addr));\n\t\t// contractURI = \"https://smart-dao-rel.stars-mine.com/service-api/test1/getOpenseaContractJSON?address=0x87Ae5AB6e5A7F925dCC091F3a2247786D5E26349\";\n\t}\n\n\tstruct TokenTransfer {\n\t\taddress from;\n\t\taddress to;\n\t\tuint256 blockNumber;\n\t\tuint256 tokenId;\n\t\tbytes data;\n\t}\n\n\tTokenTransfer public lastTransfer;\n\n\tfunction _beforeTokenTransfer(address from, address to, uint256 tokenId, bytes memory _data) internal virtual override {\n\t\trequire(lastTransfer.blockNumber == 0, \"#NFTs#_beforeTokenTransfer lastTransfer.blockNumber == 0\");\n\t\tif (from == address(0) || to == address(0)) return;\n\t\tlastTransfer.from = from;\n\t\tlastTransfer.to = to;\n\t\tlastTransfer.blockNumber = block.number;\n\t\tlastTransfer.tokenId = tokenId;\n\t\tlastTransfer.data = _data;\n\t}\n\n\treceive() external payable {\n\t\trequire(msg.value != 0, \"#NFTs#receive msg.value != 0\"); // price\n\t\trequire(lastTransfer.blockNumber != 0, \"#NFTs#receive lastTransfer.blockNumber != 0\");\n\t\tlastTransfer.blockNumber = 0;\n\t}\n\n}\n",
  "sourcePath": "/Users/louis/Project/hc/NFTSwap/SmartHolder/contracts/NFTs.sol",
  "compiler": {
    "name": "solc",
    "version": "0.8.17+commit.8df45f5f.Emscripten.clang"
  },
  "schemaVersion": "3.4.11",
  "updatedAt": "2023-04-01T07:55:49.791Z",
  "devdoc": {
    "kind": "dev",
    "methods": {
      "approve(address,uint256)": {
        "details": "Approves another address to transfer the given token ID The zero address indicates there is no approved address. There can only be one approved address per token at a given time. Can only be called by the token owner or an approved operator.",
        "params": {
          "to": "address to be approved for the given token ID",
          "tokenId": "uint256 ID of the token to be approved"
        }
      },
      "balanceOf(address)": {
        "details": "Gets the balance of the specified address.",
        "params": {
          "owner": "address to query the balance of"
        },
        "returns": {
          "_0": "uint256 representing the amount owned by the passed address"
        }
      },
      "baseURI()": {
        "details": "Returns the base URI set via {_setBaseURI}. This will be automatically added as a prefix in {tokenURI} to each token's URI, or to the token ID if no specific URI is set for that token ID."
      },
      "getApproved(uint256)": {
        "details": "Gets the approved address for a token ID, or zero if no address set Reverts if the token ID does not exist.",
        "params": {
          "tokenId": "uint256 ID of the token to query the approval of"
        },
        "returns": {
          "_0": "address currently approved for the given token ID"
        }
      },
      "isApprovedForAll(address,address)": {
        "details": "Tells whether an operator is approved by a given owner.",
        "params": {
          "operator": "operator address which you want to query the approval of",
          "owner": "owner address which you want to query the approval of"
        },
        "returns": {
          "_0": "bool whether the given operator is approved by the given owner"
        }
      },
      "name()": {
        "details": "Gets the token name.",
        "returns": {
          "_0": "string representing the token name"
        }
      },
      "ownerOf(uint256)": {
        "details": "Gets the owner of the specified token ID.",
        "params": {
          "tokenId": "uint256 ID of the token to query the owner of"
        },
        "returns": {
          "owner": "currently marked as the owner of the given token ID"
        }
      },
      "safeTransferFrom(address,address,uint256)": {
        "details": "Safely transfers the ownership of a given token ID to another address If the target address is a contract, it must implement {IERC721Receiver-onERC721Received}, which is called upon a safe transfer, and return the magic value `bytes4(keccak256(\"onERC721Received(address,address,uint256,bytes)\"))`; otherwise, the transfer is reverted. Requires the msg.sender to be the owner, approved, or operator",
        "params": {
          "from": "current owner of the token",
          "to": "address to receive the ownership of the given token ID",
          "tokenId": "uint256 ID of the token to be transferred"
        }
      },
      "safeTransferFrom(address,address,uint256,bytes)": {
        "details": "Safely transfers the ownership of a given token ID to another address If the target address is a contract, it must implement {IERC721Receiver-onERC721Received}, which is called upon a safe transfer, and return the magic value `bytes4(keccak256(\"onERC721Received(address,address,uint256,bytes)\"))`; otherwise, the transfer is reverted. Requires the _msgSender() to be the owner, approved, or operator",
        "params": {
          "_data": "bytes data to send along with a safe transfer check",
          "from": "current owner of the token",
          "to": "address to receive the ownership of the given token ID",
          "tokenId": "uint256 ID of the token to be transferred"
        }
      },
      "setApprovalForAll(address,bool)": {
        "details": "Sets or unsets the approval of a given operator An operator is allowed to transfer all tokens of the sender on their behalf.",
        "params": {
          "approved": "representing the status of the approval to be set",
          "operator": "operator address to set the approval"
        }
      },
      "supportsInterface(bytes4)": {
        "details": "See {IERC165-supportsInterface}. Time complexity O(1), guaranteed to always use less than 30 000 gas."
      },
      "symbol()": {
        "details": "Gets the token symbol.",
        "returns": {
          "_0": "string representing the token symbol"
        }
      },
      "tokenByIndex(uint256)": {
        "details": "Gets the token ID at a given index of all the tokens in this contract Reverts if the index is greater or equal to the total number of tokens.",
        "params": {
          "index": "uint256 representing the index to be accessed of the tokens list"
        },
        "returns": {
          "_0": "uint256 token ID at the given index of the tokens list"
        }
      },
      "tokenOfOwnerByIndex(address,uint256)": {
        "details": "Gets the token ID at a given index of the tokens list of the requested owner.",
        "params": {
          "index": "uint256 representing the index to be accessed of the requested tokens list",
          "owner": "address owning the tokens list to be accessed"
        },
        "returns": {
          "_0": "uint256 token ID at the given index of the tokens list owned by the requested address"
        }
      },
      "tokenURI(uint256)": {
        "details": "Returns the Uniform Resource Identifier (URI) for `tokenId` token."
      },
      "totalSupply()": {
        "details": "Gets the total amount of tokens stored by the contract.",
        "returns": {
          "_0": "uint256 representing the total amount of tokens"
        }
      },
      "transferFrom(address,address,uint256)": {
        "details": "Transfers the ownership of a given token ID to another address. Usage of this method is discouraged, use {safeTransferFrom} whenever possible. Requires the msg.sender to be the owner, approved, or operator.",
        "params": {
          "from": "current owner of the token",
          "to": "address to receive the ownership of the given token ID",
          "tokenId": "uint256 ID of the token to be transferred"
        }
      }
    },
    "version": 1
  },
  "userdoc": {
    "kind": "user",
    "methods": {},
    "version": 1
  }
}