{
  "contractName": "NFTsTest",
  "abi": [
    {
      "anonymous": false,
      "inputs": [
        {
          "indexed": true,
          "internalType": "address",
          "name": "owner",
          "type": "address"
        },
        {
          "indexed": true,
          "internalType": "address",
          "name": "approved",
          "type": "address"
        },
        {
          "indexed": true,
          "internalType": "uint256",
          "name": "tokenId",
          "type": "uint256"
        }
      ],
      "name": "Approval",
      "type": "event"
    },
    {
      "anonymous": false,
      "inputs": [
        {
          "indexed": true,
          "internalType": "address",
          "name": "owner",
          "type": "address"
        },
        {
          "indexed": true,
          "internalType": "address",
          "name": "operator",
          "type": "address"
        },
        {
          "indexed": false,
          "internalType": "bool",
          "name": "approved",
          "type": "bool"
        }
      ],
      "name": "ApprovalForAll",
      "type": "event"
    },
    {
      "anonymous": false,
      "inputs": [
        {
          "indexed": true,
          "internalType": "address",
          "name": "from",
          "type": "address"
        },
        {
          "indexed": true,
          "internalType": "address",
          "name": "to",
          "type": "address"
        },
        {
          "indexed": true,
          "internalType": "uint256",
          "name": "tokenId",
          "type": "uint256"
        }
      ],
      "name": "Transfer",
      "type": "event"
    },
    {
      "inputs": [
        {
          "internalType": "address",
          "name": "to",
          "type": "address"
        },
        {
          "internalType": "uint256",
          "name": "tokenId",
          "type": "uint256"
        }
      ],
      "name": "approve",
      "outputs": [],
      "stateMutability": "nonpayable",
      "type": "function"
    },
    {
      "inputs": [
        {
          "internalType": "address",
          "name": "owner",
          "type": "address"
        }
      ],
      "name": "balanceOf",
      "outputs": [
        {
          "internalType": "uint256",
          "name": "",
          "type": "uint256"
        }
      ],
      "stateMutability": "view",
      "type": "function"
    },
    {
      "inputs": [],
      "name": "baseURI",
      "outputs": [
        {
          "internalType": "string",
          "name": "",
          "type": "string"
        }
      ],
      "stateMutability": "view",
      "type": "function"
    },
    {
      "inputs": [
        {
          "internalType": "bytes4",
          "name": "interfaceId",
          "type": "bytes4"
        },
        {
          "internalType": "string",
          "name": "message",
          "type": "string"
        }
      ],
      "name": "checkInterface",
      "outputs": [],
      "stateMutability": "view",
      "type": "function"
    },
    {
      "inputs": [],
      "name": "contractURI",
      "outputs": [
        {
          "internalType": "string",
          "name": "",
          "type": "string"
        }
      ],
      "stateMutability": "view",
      "type": "function"
    },
    {
      "inputs": [
        {
          "internalType": "uint256",
          "name": "tokenId",
          "type": "uint256"
        }
      ],
      "name": "getApproved",
      "outputs": [
        {
          "internalType": "address",
          "name": "",
          "type": "address"
        }
      ],
      "stateMutability": "view",
      "type": "function"
    },
    {
      "inputs": [
        {
          "internalType": "address",
          "name": "owner",
          "type": "address"
        },
        {
          "internalType": "address",
          "name": "operator",
          "type": "address"
        }
      ],
      "name": "isApprovedForAll",
      "outputs": [
        {
          "internalType": "bool",
          "name": "",
          "type": "bool"
        }
      ],
      "stateMutability": "view",
      "type": "function"
    },
    {
      "inputs": [],
      "name": "lastTransfer",
      "outputs": [
        {
          "internalType": "address",
          "name": "from",
          "type": "address"
        },
        {
          "internalType": "address",
          "name": "to",
          "type": "address"
        },
        {
          "internalType": "uint256",
          "name": "blockNumber",
          "type": "uint256"
        },
        {
          "internalType": "uint256",
          "name": "tokenId",
          "type": "uint256"
        },
        {
          "internalType": "bytes",
          "name": "data",
          "type": "bytes"
        }
      ],
      "stateMutability": "view",
      "type": "function"
    },
    {
      "inputs": [],
      "name": "name",
      "outputs": [
        {
          "internalType": "string",
          "name": "",
          "type": "string"
        }
      ],
      "stateMutability": "view",
      "type": "function"
    },
    {
      "inputs": [
        {
          "internalType": "uint256",
          "name": "tokenId",
          "type": "uint256"
        }
      ],
      "name": "ownerOf",
      "outputs": [
        {
          "internalType": "address",
          "name": "",
          "type": "address"
        }
      ],
      "stateMutability": "view",
      "type": "function"
    },
    {
      "inputs": [
        {
          "internalType": "address",
          "name": "from",
          "type": "address"
        },
        {
          "internalType": "address",
          "name": "to",
          "type": "address"
        },
        {
          "internalType": "uint256",
          "name": "tokenId",
          "type": "uint256"
        }
      ],
      "name": "safeTransferFrom",
      "outputs": [],
      "stateMutability": "nonpayable",
      "type": "function"
    },
    {
      "inputs": [
        {
          "internalType": "address",
          "name": "from",
          "type": "address"
        },
        {
          "internalType": "address",
          "name": "to",
          "type": "address"
        },
        {
          "internalType": "uint256",
          "name": "tokenId",
          "type": "uint256"
        },
        {
          "internalType": "bytes",
          "name": "_data",
          "type": "bytes"
        }
      ],
      "name": "safeTransferFrom",
      "outputs": [],
      "stateMutability": "nonpayable",
      "type": "function"
    },
    {
      "inputs": [
        {
          "internalType": "address",
          "name": "operator",
          "type": "address"
        },
        {
          "internalType": "bool",
          "name": "approved",
          "type": "bool"
        }
      ],
      "name": "setApprovalForAll",
      "outputs": [],
      "stateMutability": "nonpayable",
      "type": "function"
    },
    {
      "inputs": [
        {
          "internalType": "bytes4",
          "name": "interfaceId",
          "type": "bytes4"
        }
      ],
      "name": "supportsInterface",
      "outputs": [
        {
          "internalType": "bool",
          "name": "",
          "type": "bool"
        }
      ],
      "stateMutability": "view",
      "type": "function"
    },
    {
      "inputs": [],
      "name": "symbol",
      "outputs": [
        {
          "internalType": "string",
          "name": "",
          "type": "string"
        }
      ],
      "stateMutability": "view",
      "type": "function"
    },
    {
      "inputs": [
        {
          "internalType": "uint256",
          "name": "index",
          "type": "uint256"
        }
      ],
      "name": "tokenByIndex",
      "outputs": [
        {
          "internalType": "uint256",
          "name": "",
          "type": "uint256"
        }
      ],
      "stateMutability": "view",
      "type": "function"
    },
    {
      "inputs": [
        {
          "internalType": "address",
          "name": "owner",
          "type": "address"
        },
        {
          "internalType": "uint256",
          "name": "index",
          "type": "uint256"
        }
      ],
      "name": "tokenOfOwnerByIndex",
      "outputs": [
        {
          "internalType": "uint256",
          "name": "",
          "type": "uint256"
        }
      ],
      "stateMutability": "view",
      "type": "function"
    },
    {
      "inputs": [
        {
          "internalType": "uint256",
          "name": "tokenId",
          "type": "uint256"
        }
      ],
      "name": "tokenURI",
      "outputs": [
        {
          "internalType": "string",
          "name": "",
          "type": "string"
        }
      ],
      "stateMutability": "view",
      "type": "function"
    },
    {
      "inputs": [],
      "name": "totalSupply",
      "outputs": [
        {
          "internalType": "uint256",
          "name": "",
          "type": "uint256"
        }
      ],
      "stateMutability": "view",
      "type": "function"
    },
    {
      "inputs": [
        {
          "internalType": "address",
          "name": "from",
          "type": "address"
        },
        {
          "internalType": "address",
          "name": "to",
          "type": "address"
        },
        {
          "internalType": "uint256",
          "name": "tokenId",
          "type": "uint256"
        }
      ],
      "name": "transferFrom",
      "outputs": [],
      "stateMutability": "nonpayable",
      "type": "function"
    },
    {
      "stateMutability": "payable",
      "type": "receive"
    },
    {
      "inputs": [],
      "name": "initNFTs",
      "outputs": [],
      "stateMutability": "nonpayable",
      "type": "function"
    },
    {
      "inputs": [
        {
          "internalType": "uint256",
          "name": "tokenId",
          "type": "uint256"
        }
      ],
      "name": "mint",
      "outputs": [],
      "stateMutability": "nonpayable",
      "type": "function"
    },
    {
      "inputs": [
        {
          "internalType": "address",
          "name": "to",
          "type": "address"
        },
        {
          "internalType": "uint256",
          "name": "tokenId",
          "type": "uint256"
        },
        {
          "internalType": "string",
          "name": "_tokenURI",
          "type": "string"
        },
        {
          "internalType": "bytes",
          "name": "_data",
          "type": "bytes"
        }
      ],
      "name": "safeMintURI",
      "outputs": [],
      "stateMutability": "nonpayable",
      "type": "function"
    },
    {
      "inputs": [
        {
          "internalType": "address",
          "name": "to",
          "type": "address"
        },
        {
          "internalType": "uint256",
          "name": "tokenId",
          "type": "uint256"
        },
        {
          "internalType": "bytes",
          "name": "_data",
          "type": "bytes"
        }
      ],
      "name": "safeMint",
      "outputs": [],
      "stateMutability": "nonpayable",
      "type": "function"
    },
    {
      "inputs": [
        {
          "internalType": "uint256",
          "name": "tokenId",
          "type": "uint256"
        }
      ],
      "name": "burn",
      "outputs": [],
      "stateMutability": "nonpayable",
      "type": "function"
    },
    {
      "inputs": [
        {
          "internalType": "uint256",
          "name": "tokenId",
          "type": "uint256"
        },
        {
          "internalType": "string",
          "name": "_tokenURI",
          "type": "string"
        }
      ],
      "name": "setTokenURI",
      "outputs": [],
      "stateMutability": "nonpayable",
      "type": "function"
    },
    {
      "inputs": [
        {
          "internalType": "string",
          "name": "baseURI_",
          "type": "string"
        }
      ],
      "name": "setBaseURI",
      "outputs": [],
      "stateMutability": "nonpayable",
      "type": "function"
    },
    {
      "inputs": [
        {
          "internalType": "uint256",
          "name": "tokenId",
          "type": "uint256"
        }
      ],
      "name": "exists",
      "outputs": [
        {
          "internalType": "bool",
          "name": "",
          "type": "bool"
        }
      ],
      "stateMutability": "view",
      "type": "function"
    },
    {
      "inputs": [
        {
          "internalType": "address",
          "name": "spender",
          "type": "address"
        },
        {
          "internalType": "uint256",
          "name": "tokenId",
          "type": "uint256"
        }
      ],
      "name": "isApprovedOrOwner",
      "outputs": [
        {
          "internalType": "bool",
          "name": "",
          "type": "bool"
        }
      ],
      "stateMutability": "view",
      "type": "function"
    }
  ],
  "bytecode": "0x608060405234801561001057600080fd5b50612cf7806100206000396000f3fe6080604052600436106101c65760003560e01c80634f6ccce7116100f7578063a0712d6811610095578063c87b56dd11610064578063c87b56dd14610b65578063e84d269614610b8f578063e8a3d48514610c4a578063e985e9c514610c5f57610262565b8063a0712d681461096d578063a22cb46514610997578063b88d4fde146109d2578063c64df69d14610aa357610262565b80636c0360eb116100d15780636c0360eb1461084a57806370a082311461085f5780638832e6e31461089257806395d89b411461095857610262565b80634f6ccce71461074557806355f804b31461076f5780636352211e1461082057610262565b806323b872dd1161016457806342842e0e1161013e57806342842e0e1461067557806342966c68146106b8578063430c2081146106e25780634f558e791461071b57610262565b806323b872dd146105e45780632f745c59146106275780633480f97a1461066057610262565b8063095ea7b3116101a0578063095ea7b31461037f5780630fa86d3d146103ba578063162094c41461050557806318160ddd146105bd57610262565b806301ffc9a71461026757806306fdde03146102af578063081812fc1461033957610262565b36610262573461021d576040805162461bcd60e51b815260206004820152601c60248201527f234e4654732372656365697665206d73672e76616c756520213d203000000000604482015290519081900360640190fd5b600e5461025b5760405162461bcd60e51b815260040180806020018281038252602b815260200180612c41602b913960400191505060405180910390fd5b6000600e55005b600080fd5b34801561027357600080fd5b5061029b6004803603602081101561028a57600080fd5b50356001600160e01b031916610c9a565b604080519115158252519081900360200190f35b3480156102bb57600080fd5b506102c4610cbd565b6040805160208082528351818301528351919283929083019185019080838360005b838110156102fe5781810151838201526020016102e6565b50505050905090810190601f16801561032b5780820380516001836020036101000a031916815260200191505b509250505060405180910390f35b34801561034557600080fd5b506103636004803603602081101561035c57600080fd5b5035610d53565b604080516001600160a01b039092168252519081900360200190f35b34801561038b57600080fd5b506103b8600480360360408110156103a257600080fd5b506001600160a01b038135169060200135610db5565b005b3480156103c657600080fd5b506103b8600480360360808110156103dd57600080fd5b6001600160a01b0382351691602081013591810190606081016040820135600160201b81111561040c57600080fd5b82018360208201111561041e57600080fd5b803590602001918460018302840111600160201b8311171561043f57600080fd5b91908080601f0160208091040260200160405190810160405280939291908181526020018383808284376000920191909152509295949360208101935035915050600160201b81111561049157600080fd5b8201836020820111156104a357600080fd5b803590602001918460018302840111600160201b831117156104c457600080fd5b91908080601f016020809104026020016040519081016040528093929190818152602001838380828437600092019190915250929550610e90945050505050565b34801561051157600080fd5b506103b86004803603604081101561052857600080fd5b81359190810190604081016020820135600160201b81111561054957600080fd5b82018360208201111561055b57600080fd5b803590602001918460018302840111600160201b8311171561057c57600080fd5b91908080601f016020809104026020016040519081016040528093929190818152602001838380828437600092019190915250929550610eab945050505050565b3480156105c957600080fd5b506105d2610f18565b60408051918252519081900360200190f35b3480156105f057600080fd5b506103b86004803603606081101561060757600080fd5b506001600160a01b03813581169160208101359091169060400135610f29565b34801561063357600080fd5b506105d26004803603604081101561064a57600080fd5b506001600160a01b038135169060200135610f90565b34801561066c57600080fd5b506103b8610fbb565b34801561068157600080fd5b506103b86004803603606081101561069857600080fd5b506001600160a01b03813581169160208101359091169060400135611099565b3480156106c457600080fd5b506103b8600480360360208110156106db57600080fd5b50356110b4565b3480156106ee57600080fd5b5061029b6004803603604081101561070557600080fd5b506001600160a01b0381351690602001356110c0565b34801561072757600080fd5b5061029b6004803603602081101561073e57600080fd5b50356110cc565b34801561075157600080fd5b506105d26004803603602081101561076857600080fd5b50356110d7565b34801561077b57600080fd5b506103b86004803603602081101561079257600080fd5b810190602081018135600160201b8111156107ac57600080fd5b8201836020820111156107be57600080fd5b803590602001918460018302840111600160201b831117156107df57600080fd5b91908080601f0160208091040260200160405190810160405280939291908181526020018383808284376000920191909152509295506110ed945050505050565b34801561082c57600080fd5b506103636004803603602081101561084357600080fd5b50356110f6565b34801561085657600080fd5b506102c461111e565b34801561086b57600080fd5b506105d26004803603602081101561088257600080fd5b50356001600160a01b031661117f565b34801561089e57600080fd5b506103b8600480360360608110156108b557600080fd5b6001600160a01b0382351691602081013591810190606081016040820135600160201b8111156108e457600080fd5b8201836020820111156108f657600080fd5b803590602001918460018302840111600160201b8311171561091757600080fd5b91908080601f0160208091040260200160405190810160405280939291908181526020018383808284376000920191909152509295506111e7945050505050565b34801561096457600080fd5b506102c46111f2565b34801561097957600080fd5b506103b86004803603602081101561099057600080fd5b5035611253565b3480156109a357600080fd5b506103b8600480360360408110156109ba57600080fd5b506001600160a01b038135169060200135151561125d565b3480156109de57600080fd5b506103b8600480360360808110156109f557600080fd5b6001600160a01b03823581169260208101359091169160408201359190810190608081016060820135600160201b811115610a2f57600080fd5b820183602082011115610a4157600080fd5b803590602001918460018302840111600160201b83111715610a6257600080fd5b91908080601f016020809104026020016040519081016040528093929190818152602001838380828437600092019190915250929550611362945050505050565b348015610aaf57600080fd5b506103b860048036036040811015610ac657600080fd5b6001600160e01b03198235169190810190604081016020820135600160201b811115610af157600080fd5b820183602082011115610b0357600080fd5b803590602001918460018302840111600160201b83111715610b2457600080fd5b91908080601f0160208091040260200160405190810160405280939291908181526020018383808284376000920191909152509295506113ba945050505050565b348015610b7157600080fd5b506102c460048036036020811015610b8857600080fd5b503561144d565b348015610b9b57600080fd5b50610ba4611458565b60405180866001600160a01b03168152602001856001600160a01b0316815260200184815260200183815260200180602001828103825283818151815260200191508051906020019080838360005b83811015610c0b578181015183820152602001610bf3565b50505050905090810190601f168015610c385780820380516001836020036101000a031916815260200191505b50965050505050505060405180910390f35b348015610c5657600080fd5b506102c461150b565b348015610c6b57600080fd5b5061029b60048036036040811015610c8257600080fd5b506001600160a01b0381358116916020013516611599565b6001600160e01b0319811660009081526001602052604090205460ff165b919050565b60078054604080516020601f6002600019610100600188161502019095169490940493840181900481028201810190925282815260609390929091830182828015610d495780601f10610d1e57610100808354040283529160200191610d49565b820191906000526020600020905b815481529060010190602001808311610d2c57829003601f168201915b5050505050905090565b6000610d5e826115c7565b610d995760405162461bcd60e51b815260040180806020018281038252602c815260200180612b11602c913960400191505060405180910390fd5b506000908152600560205260409020546001600160a01b031690565b6000610dc0826110f6565b9050806001600160a01b0316836001600160a01b03161415610e135760405162461bcd60e51b8152600401808060200182810382526021815260200180612bef6021913960400191505060405180910390fd5b806001600160a01b0316610e256115d4565b6001600160a01b03161480610e465750610e4681610e416115d4565b611599565b610e815760405162461bcd60e51b8152600401808060200182810382526038815260200180612a436038913960400191505060405180910390fd5b610e8b83836115de565b505050565b610e9b84848361164c565b610ea5838361169e565b50505050565b610eb36115d4565b6001600160a01b0316610ec5836110f6565b6001600160a01b031614610f0a5760405162461bcd60e51b8152600401808060200182810382526021815260200180612a7b6021913960400191505060405180910390fd5b610f14828261169e565b5050565b6000610f246003611701565b905090565b610f3a610f346115d4565b8261170c565b610f755760405162461bcd60e51b8152600401808060200182810382526031815260200180612c106031913960400191505060405180910390fd5b610e8b838383604051806020016040528060008152506117b0565b6001600160a01b0382166000908152600260205260408120610fb290836118fe565b90505b92915050565b610fc361190a565b611005604051806040016040528060048152602001634e46547360e01b815250604051806040016040528060048152602001634e46547360e01b8152506119bb565b606061101030611a13565b9050806040516020018080612c6c6056913960560182805190602001908083835b602083106110505780518252601f199092019160209182019101611031565b6001836020036101000a038019825116818451168082178552505050505050905001915050604051602081830303815290604052600b9080519060200190610f14929190612893565b610e8b83838360405180602001604052806000815250611362565b6110bd81611aee565b50565b6000610fb2838361170c565b6000610fb5826115c7565b6000806110e5600384611bcb565b509392505050565b6110bd81611be7565b6000610fb582604051806060016040528060298152602001612ac66029913960039190611bfa565b600a8054604080516020601f6002600019610100600188161502019095169490940493840181900481028201810190925282815260609390929091830182828015610d495780601f10610d1e57610100808354040283529160200191610d49565b60006001600160a01b0382166111c65760405162461bcd60e51b815260040180806020018281038252602a815260200180612a9c602a913960400191505060405180910390fd5b6001600160a01b0382166000908152600260205260409020610fb590611701565b610e8b83838361164c565b60088054604080516020601f6002600019610100600188161502019095169490940493840181900481028201810190925282815260609390929091830182828015610d495780601f10610d1e57610100808354040283529160200191610d49565b6110bd3382611c11565b6112656115d4565b6001600160a01b0316826001600160a01b031614156112cb576040805162461bcd60e51b815260206004820152601960248201527f4552433732313a20617070726f766520746f2063616c6c657200000000000000604482015290519081900360640190fd5b80600660006112d86115d4565b6001600160a01b03908116825260208083019390935260409182016000908120918716808252919093529120805460ff19169215159290921790915561131c6115d4565b6001600160a01b03167f17307eab39ab6107e8899845ad3d59bd9653f200f220920489ca2b5937696c318360405180821515815260200191505060405180910390a35050565b61137361136d6115d4565b8361170c565b6113ae5760405162461bcd60e51b8152600401808060200182810382526031815260200180612c106031913960400191505060405180910390fd5b610ea584848484611d4f565b6113c382610c9a565b8190610e8b5760405162461bcd60e51b81526004018080602001828103825283818151815260200191508051906020019080838360005b838110156114125781810151838201526020016113fa565b50505050905090810190601f16801561143f5780820380516001836020036101000a031916815260200191505b509250505060405180910390fd5b6060610fb582611da2565b600c8054600d54600e54600f546010805460408051602060026101006001861615026000190190941693909304601f81018490048402820184019092528181526001600160a01b03978816989790961696949593949392918301828280156115015780601f106114d657610100808354040283529160200191611501565b820191906000526020600020905b8154815290600101906020018083116114e457829003601f168201915b5050505050905085565b600b805460408051602060026001851615610100026000190190941693909304601f810184900484028201840190925281815292918301828280156115915780601f1061156657610100808354040283529160200191611591565b820191906000526020600020905b81548152906001019060200180831161157457829003601f168201915b505050505081565b6001600160a01b03918216600090815260066020908152604080832093909416825291909152205460ff1690565b6000610fb5600383612049565b6000610f24612055565b600081815260056020526040902080546001600160a01b0319166001600160a01b0384169081179091558190611613826110f6565b6001600160a01b03167f8c5be1e5ebec7d5bd14f71427d1e84f3dd0314c0f7b2291e5b200ac8c7c3b92560405160405180910390a45050565b6116568383611c11565b6116636000848484612059565b610e8b5760405162461bcd60e51b81526004018080602001828103825260328152602001806129896032913960400191505060405180910390fd5b6116a7826115c7565b6116e25760405162461bcd60e51b815260040180806020018281038252602c815260200180612b3d602c913960400191505060405180910390fd5b60008281526009602090815260409091208251610e8b92840190612893565b6000610fb5826121a6565b6000611717826115c7565b6117525760405162461bcd60e51b815260040180806020018281038252602c8152602001806129df602c913960400191505060405180910390fd5b600061175d836110f6565b9050806001600160a01b0316846001600160a01b031614806117985750836001600160a01b031661178d84610d53565b6001600160a01b0316145b806117a857506117a88185611599565b949350505050565b836001600160a01b03166117c3836110f6565b6001600160a01b0316146118085760405162461bcd60e51b8152600401808060200182810382526029815260200180612b976029913960400191505060405180910390fd5b6001600160a01b03831661184d5760405162461bcd60e51b81526004018080602001828103825260248152602001806129bb6024913960400191505060405180910390fd5b611859848484846121aa565b6118646000836115de565b6001600160a01b03841660009081526002602052604090206118869083612263565b506001600160a01b03831660009081526002602052604090206118a9908361226f565b506118b66003838561227b565b5081836001600160a01b0316856001600160a01b03167fddf252ad1be2c89b69c2b068fc378daa952ba7f163c4a11628f55a4df523b3ef60405160405180910390a450505050565b6000610fb28383612291565b600054610100900460ff168061192357506119236122f5565b80611931575060005460ff16155b61196c5760405162461bcd60e51b815260040180806020018281038252602e815260200180612b69602e913960400191505060405180910390fd5b600054610100900460ff16158015611997576000805460ff1961ff0019909116610100171660011790555b6119a76301ffc9a760e01b6122fb565b80156110bd576000805461ff001916905550565b81516119ce906007906020850190612893565b5080516119e2906008906020840190612893565b506119f36380ac58cd60e01b6122fb565b611a03635b5e139f60e01b6122fb565b610f1463780e9d6360e01b6122fb565b606081611a3857506040805180820190915260018152600360fc1b6020820152610cb8565b8160005b8115611a5057600101600a82049150611a3c565b60608167ffffffffffffffff81118015611a6957600080fd5b506040519080825280601f01601f191660200182016040528015611a94576020820181803683370190505b50859350905060001982015b8315611ae557600a840660300160f81b82828060019003935081518110611ac357fe5b60200101906001600160f81b031916908160001a905350600a84049350611aa0565b50949350505050565b6000611af9826110f6565b9050611b1781600084604051806020016040528060008152506121aa565b611b226000836115de565b6000828152600960205260409020546002600019610100600184161502019091160415611b60576000828152600960205260408120611b6091612911565b6001600160a01b0381166000908152600260205260409020611b829083612263565b50611b8e600383612304565b5060405182906000906001600160a01b038416907fddf252ad1be2c89b69c2b068fc378daa952ba7f163c4a11628f55a4df523b3ef908390a45050565b6000808080611bda8686612310565b9097909650945050505050565b8051610f1490600a906020840190612893565b6000611c0784848461238b565b90505b9392505050565b6001600160a01b038216611c6c576040805162461bcd60e51b815260206004820181905260248201527f4552433732313a206d696e7420746f20746865207a65726f2061646472657373604482015290519081900360640190fd5b611c75816115c7565b15611cc7576040805162461bcd60e51b815260206004820152601c60248201527f4552433732313a20746f6b656e20616c7265616479206d696e74656400000000604482015290519081900360640190fd5b611ce360008383604051806020016040528060008152506121aa565b6001600160a01b0382166000908152600260205260409020611d05908261226f565b50611d126003828461227b565b5060405181906001600160a01b038416906000907fddf252ad1be2c89b69c2b068fc378daa952ba7f163c4a11628f55a4df523b3ef908290a45050565b611d5b848484846117b0565b611d6784848484612059565b610ea55760405162461bcd60e51b81526004018080602001828103825260328152602001806129896032913960400191505060405180910390fd5b6060611dad826115c7565b611de85760405162461bcd60e51b815260040180806020018281038252602f815260200180612bc0602f913960400191505060405180910390fd5b60008281526009602090815260409182902080548351601f6002600019610100600186161502019093169290920491820184900484028101840190945280845260609392830182828015611e7d5780601f10611e5257610100808354040283529160200191611e7d565b820191906000526020600020905b815481529060010190602001808311611e6057829003601f168201915b5050600a5493945050505060026000196101006001841615020190911604611ea6579050610cb8565b805115611f7757600a816040516020018083805460018160011615610100020316600290048015611f0e5780601f10611eec576101008083540402835291820191611f0e565b820191906000526020600020905b815481529060010190602001808311611efa575b5050825160208401908083835b60208310611f3a5780518252601f199092019160209182019101611f1b565b6001836020036101000a03801982511681845116808217855250505050505090500192505050604051602081830303815290604052915050610cb8565b600a611f8284611a13565b6040516020018083805460018160011615610100020316600290048015611fe05780601f10611fbe576101008083540402835291820191611fe0565b820191906000526020600020905b815481529060010190602001808311611fcc575b5050825160208401908083835b6020831061200c5780518252601f199092019160209182019101611fed565b6001836020036101000a03801982511681845116808217855250505050505090500192505050604051602081830303815290604052915050919050565b6000610fb28383612418565b3390565b600061206d846001600160a01b0316612430565b612079575060016117a8565b6060630a85bd0160e11b61208b6115d4565b87868660405160240180856001600160a01b03168152602001846001600160a01b0316815260200183815260200180602001828103825283818151815260200191508051906020019080838360005b838110156120f25781810151838201526020016120da565b50505050905090810190601f16801561211f5780820380516001836020036101000a031916815260200191505b5095505050505050604051602081830303815290604052906001600160e01b0319166020820180516001600160e01b038381831617835250505050905063150b7a0260e01b6001600160e01b031916612191868360405180606001604052806032815260200161298960329139612469565b6001600160e01b031916149695505050505050565b5490565b600e54156121e95760405162461bcd60e51b8152600401808060200182810382526038815260200180612a0b6038913960400191505060405180910390fd5b6001600160a01b038416158061220657506001600160a01b038316155b1561221057610ea5565b600c80546001600160a01b038087166001600160a01b031992831617909255600d80549286169290911691909117905543600e55600f829055805161225c906010906020840190612893565b5050505050565b6000610fb28383612591565b6000610fb28383612657565b6000611c0784846001600160a01b0385166126a1565b815460009082106122d35760405162461bcd60e51b81526004018080602001828103825260228152602001806129676022913960400191505060405180910390fd5b8260000182815481106122e257fe5b9060005260206000200154905092915050565b303b1590565b6110bd81612738565b6000610fb283836127bf565b8154600090819083106123545760405162461bcd60e51b8152600401808060200182810382526022815260200180612aef6022913960400191505060405180910390fd5b600084600001848154811061236557fe5b906000526020600020906002020190508060000154816001015492509250509250929050565b600082815260018401602052604081205482816123e95760405162461bcd60e51b81526020600482018181528351602484015283519092839260449091019190850190808383600083156114125781810151838201526020016113fa565b508460000160018203815481106123fc57fe5b9060005260206000209060020201600101549150509392505050565b60009081526001919091016020526040902054151590565b6000813f7fc5d2460186f7233c927e7db2dcc703c0e500b653ca82273b7bfad8045d85a4708181148015906117a8575050151592915050565b6000806060856001600160a01b0316856040518082805190602001908083835b602083106124a85780518252601f199092019160209182019101612489565b6001836020036101000a0380198251168184511680821785525050505050509050019150506000604051808303816000865af19150503d806000811461250a576040519150601f19603f3d011682016040523d82523d6000602084013e61250f565b606091505b509150915081612570578051156125295780518082602001fd5b60405162461bcd60e51b81526020600482018181528651602484015286518793919283926044019190850190808383600083156114125781810151838201526020016113fa565b80806020019051602081101561258557600080fd5b50519250611c0a915050565b6000818152600183016020526040812054801561264d57835460001980830191908101906000908790839081106125c457fe5b90600052602060002001549050808760000184815481106125e157fe5b60009182526020808320909101929092558281526001898101909252604090209084019055865487908061261157fe5b60019003818190600052602060002001600090559055866001016000878152602001908152602001600020600090556001945050505050610fb5565b6000915050610fb5565b60006126638383612418565b61269957508154600181810184556000848152602080822090930184905584548482528286019093526040902091909155610fb5565b506000610fb5565b600082815260018401602052604081205480612706575050604080518082018252838152602080820184815286546001818101895560008981528481209551600290930290950191825591519082015586548684528188019092529290912055611c0a565b8285600001600183038154811061271957fe5b9060005260206000209060020201600101819055506000915050611c0a565b6001600160e01b03198082161415612797576040805162461bcd60e51b815260206004820152601c60248201527f4552433136353a20696e76616c696420696e7465726661636520696400000000604482015290519081900360640190fd5b6001600160e01b0319166000908152600160208190526040909120805460ff19169091179055565b6000818152600183016020526040812054801561264d57835460001980830191908101906000908790839081106127f257fe5b906000526020600020906002020190508087600001848154811061281257fe5b60009182526020808320845460029093020191825560019384015491840191909155835482528983019052604090209084019055865487908061285157fe5b6000828152602080822060026000199094019384020182815560019081018390559290935588815289820190925260408220919091559450610fb59350505050565b828054600181600116156101000203166002900490600052602060002090601f016020900481019282601f106128d457805160ff1916838001178555612901565b82800160010185558215612901579182015b828111156129015782518255916020019190600101906128e6565b5061290d929150612951565b5090565b50805460018160011615610100020316600290046000825580601f1061293757506110bd565b601f0160209004906000526020600020908101906110bd91905b5b8082111561290d576000815560010161295256fe456e756d657261626c655365743a20696e646578206f7574206f6620626f756e64734552433732313a207472616e7366657220746f206e6f6e20455243373231526563656976657220696d706c656d656e7465724552433732313a207472616e7366657220746f20746865207a65726f20616464726573734552433732313a206f70657261746f7220717565727920666f72206e6f6e6578697374656e7420746f6b656e234e465473235f6265666f7265546f6b656e5472616e73666572206c6173745472616e736665722e626c6f636b4e756d626572203d3d20304552433732313a20617070726f76652063616c6c6572206973206e6f74206f776e6572206e6f7220617070726f76656420666f7220616c6c234e46547323736574546f6b656e5552493a206f776e6572206e6f206d617463684552433732313a2062616c616e636520717565727920666f7220746865207a65726f20616464726573734552433732313a206f776e657220717565727920666f72206e6f6e6578697374656e7420746f6b656e456e756d657261626c654d61703a20696e646578206f7574206f6620626f756e64734552433732313a20617070726f76656420717565727920666f72206e6f6e6578697374656e7420746f6b656e4552433732314d657461646174613a2055524920736574206f66206e6f6e6578697374656e7420746f6b656e436f6e747261637420696e7374616e63652068617320616c7265616479206265656e20696e697469616c697a65644552433732313a207472616e73666572206f6620746f6b656e2074686174206973206e6f74206f776e4552433732314d657461646174613a2055524920717565727920666f72206e6f6e6578697374656e7420746f6b656e4552433732313a20617070726f76616c20746f2063757272656e74206f776e65724552433732313a207472616e736665722063616c6c6572206973206e6f74206f776e6572206e6f7220617070726f766564234e4654732372656365697665206c6173745472616e736665722e626c6f636b4e756d62657220213d203068747470733a2f2f736d6172742d64616f2d72656c2e73746172732d6d696e652e636f6d2f736572766963652d6170692f74657374312f6765744f70656e736561436f6e74726163744a534f4e3f616464726573733da264697066735822122085b3f7d17e90ba785bc261f793c692d555a6ccef5e6f706bf75660b56eb151a264736f6c634300060c0033",
  "immutableReferences": {},
  "source": "\npragma solidity >=0.6.0 <=0.8.15;\n\nimport \"./ERC721.sol\";\nimport \"./ERC165.sol\";\nimport \"../openzeppelin/contracts-ethereum-package/contracts/utils/Strings.sol\";\n\ncontract NFTsTest is ERC165, ERC721_IMPL {\n\tusing Strings for uint256;\n\n\tstring public contractURI;\n\n\tfunction initNFTs() external {\n\t\tinitERC165();\n\t\tinitERC721_IMPL(\"NFTs\", \"NFTs\");\n\t\tstring memory addr = uint256(address(this)).toString();\n\t\tcontractURI = string(abi.encodePacked(\"https://smart-dao-rel.stars-mine.com/service-api/test1/getOpenseaContractJSON?address=\", addr));\n\t\t// contractURI = \"https://smart-dao-rel.stars-mine.com/service-api/test1/getOpenseaContractJSON?address=0x87Ae5AB6e5A7F925dCC091F3a2247786D5E26349\";\n\t}\n\n\tfunction mint(uint256 tokenId) public {\n\t\t_mint(msg.sender, tokenId);\n\t}\n\n\tfunction safeMintURI(address to, uint256 tokenId, string memory _tokenURI, bytes memory _data) public {\n\t\t_safeMint(to, tokenId, _data);\n\t\t_setTokenURI(tokenId, _tokenURI);\n\t}\n\n\tfunction safeMint(address to, uint256 tokenId, bytes memory _data) public {\n\t\t_safeMint(to, tokenId, _data);\n\t}\n\n\tfunction burn(uint256 tokenId) public {\n\t\t_burn(tokenId);\n\t}\n\n\tfunction setTokenURI(uint256 tokenId, string memory _tokenURI) public {\n\t\trequire(ownerOf(tokenId) == _msgSender(), \"#NFTs#setTokenURI: owner no match\");\n\t\t_setTokenURI(tokenId, _tokenURI);\n\t}\n\n\tfunction setBaseURI(string memory baseURI_) public {\n\t\t_setBaseURI(baseURI_);\n\t}\n\n\tfunction exists(uint256 tokenId) view public returns (bool) {\n\t\treturn _exists(tokenId);\n\t}\n\n\tfunction isApprovedOrOwner(address spender, uint256 tokenId) view public returns (bool) {\n\t\treturn _havePermission(spender, tokenId);\n\t}\n\n\tfunction _msgSender() internal view virtual override(Initializable,ERC721_IMPL) returns (address) {\n\t\treturn Initializable._msgSender();\n\t}\n\n\tfunction _msgData() internal view virtual override(Initializable,ERC721_IMPL) returns (bytes memory) {\n\t\treturn Initializable._msgData();\n\t}\n\n\tfunction _registerInterface(bytes4 interfaceId) internal virtual override(ERC165,ERC721_IMPL) {\n\t\tERC165._registerInterface(interfaceId);\n\t}\n\n\tstruct TokenTransfer {\n\t\taddress from;\n\t\taddress to;\n\t\tuint256 blockNumber;\n\t\tuint256 tokenId;\n\t\tbytes data;\n\t}\n\n\tTokenTransfer public lastTransfer;\n\n\tfunction _beforeTokenTransfer(address from, address to, uint256 tokenId, bytes memory _data) internal virtual override {\n\t\trequire(lastTransfer.blockNumber == 0, \"#NFTs#_beforeTokenTransfer lastTransfer.blockNumber == 0\");\n\t\tif (from == address(0) || to == address(0)) return;\n\t\tlastTransfer.from = from;\n\t\tlastTransfer.to = to;\n\t\tlastTransfer.blockNumber = block.number;\n\t\tlastTransfer.tokenId = tokenId;\n\t\tlastTransfer.data = _data;\n\t}\n\n\treceive() external payable {\n\t\trequire(msg.value != 0, \"#NFTs#receive msg.value != 0\"); // price\n\t\trequire(lastTransfer.blockNumber != 0, \"#NFTs#receive lastTransfer.blockNumber != 0\");\n\t\tlastTransfer.blockNumber = 0;\n\t}\n\n}\n",
  "sourcePath": "/Users/louis/Project/hc/NFTSwap/SmartHolder/contracts/NFTsTest.sol",
  "compiler": {
    "name": "solc",
    "version": "0.6.12+commit.27d51765.Emscripten.clang"
  },
  "schemaVersion": "3.4.8",
  "updatedAt": "2022-09-29T06:33:42.074Z",
  "devdoc": {
    "kind": "dev",
    "methods": {
      "approve(address,uint256)": {
        "details": "Approves another address to transfer the given token ID The zero address indicates there is no approved address. There can only be one approved address per token at a given time. Can only be called by the token owner or an approved operator.",
        "params": {
          "to": "address to be approved for the given token ID",
          "tokenId": "uint256 ID of the token to be approved"
        }
      },
      "balanceOf(address)": {
        "details": "Gets the balance of the specified address.",
        "params": {
          "owner": "address to query the balance of"
        },
        "returns": {
          "_0": "uint256 representing the amount owned by the passed address"
        }
      },
      "baseURI()": {
        "details": "Returns the base URI set via {_setBaseURI}. This will be automatically added as a prefix in {tokenURI} to each token's URI, or to the token ID if no specific URI is set for that token ID."
      },
      "getApproved(uint256)": {
        "details": "Gets the approved address for a token ID, or zero if no address set Reverts if the token ID does not exist.",
        "params": {
          "tokenId": "uint256 ID of the token to query the approval of"
        },
        "returns": {
          "_0": "address currently approved for the given token ID"
        }
      },
      "isApprovedForAll(address,address)": {
        "details": "Tells whether an operator is approved by a given owner.",
        "params": {
          "operator": "operator address which you want to query the approval of",
          "owner": "owner address which you want to query the approval of"
        },
        "returns": {
          "_0": "bool whether the given operator is approved by the given owner"
        }
      },
      "name()": {
        "details": "Gets the token name.",
        "returns": {
          "_0": "string representing the token name"
        }
      },
      "ownerOf(uint256)": {
        "details": "Gets the owner of the specified token ID.",
        "params": {
          "tokenId": "uint256 ID of the token to query the owner of"
        },
        "returns": {
          "_0": "address currently marked as the owner of the given token ID"
        }
      },
      "safeTransferFrom(address,address,uint256)": {
        "details": "Safely transfers the ownership of a given token ID to another address If the target address is a contract, it must implement {IERC721Receiver-onERC721Received}, which is called upon a safe transfer, and return the magic value `bytes4(keccak256(\"onERC721Received(address,address,uint256,bytes)\"))`; otherwise, the transfer is reverted. Requires the msg.sender to be the owner, approved, or operator",
        "params": {
          "from": "current owner of the token",
          "to": "address to receive the ownership of the given token ID",
          "tokenId": "uint256 ID of the token to be transferred"
        }
      },
      "safeTransferFrom(address,address,uint256,bytes)": {
        "details": "Safely transfers the ownership of a given token ID to another address If the target address is a contract, it must implement {IERC721Receiver-onERC721Received}, which is called upon a safe transfer, and return the magic value `bytes4(keccak256(\"onERC721Received(address,address,uint256,bytes)\"))`; otherwise, the transfer is reverted. Requires the _msgSender() to be the owner, approved, or operator",
        "params": {
          "_data": "bytes data to send along with a safe transfer check",
          "from": "current owner of the token",
          "to": "address to receive the ownership of the given token ID",
          "tokenId": "uint256 ID of the token to be transferred"
        }
      },
      "setApprovalForAll(address,bool)": {
        "details": "Sets or unsets the approval of a given operator An operator is allowed to transfer all tokens of the sender on their behalf.",
        "params": {
          "approved": "representing the status of the approval to be set",
          "operator": "operator address to set the approval"
        }
      },
      "supportsInterface(bytes4)": {
        "details": "See {IERC165-supportsInterface}. Time complexity O(1), guaranteed to always use less than 30 000 gas."
      },
      "symbol()": {
        "details": "Gets the token symbol.",
        "returns": {
          "_0": "string representing the token symbol"
        }
      },
      "tokenByIndex(uint256)": {
        "details": "Gets the token ID at a given index of all the tokens in this contract Reverts if the index is greater or equal to the total number of tokens.",
        "params": {
          "index": "uint256 representing the index to be accessed of the tokens list"
        },
        "returns": {
          "_0": "uint256 token ID at the given index of the tokens list"
        }
      },
      "tokenOfOwnerByIndex(address,uint256)": {
        "details": "Gets the token ID at a given index of the tokens list of the requested owner.",
        "params": {
          "index": "uint256 representing the index to be accessed of the requested tokens list",
          "owner": "address owning the tokens list to be accessed"
        },
        "returns": {
          "_0": "uint256 token ID at the given index of the tokens list owned by the requested address"
        }
      },
      "totalSupply()": {
        "details": "Gets the total amount of tokens stored by the contract.",
        "returns": {
          "_0": "uint256 representing the total amount of tokens"
        }
      },
      "transferFrom(address,address,uint256)": {
        "details": "Transfers the ownership of a given token ID to another address. Usage of this method is discouraged, use {safeTransferFrom} whenever possible. Requires the msg.sender to be the owner, approved, or operator.",
        "params": {
          "from": "current owner of the token",
          "to": "address to receive the ownership of the given token ID",
          "tokenId": "uint256 ID of the token to be transferred"
        }
      }
    },
    "version": 1
  },
  "userdoc": {
    "kind": "user",
    "methods": {},
    "version": 1
  }
}