{
  "contractName": "NFTsTest",
  "abi": [
    {
      "anonymous": false,
      "inputs": [
        {
          "indexed": true,
          "internalType": "address",
          "name": "owner",
          "type": "address"
        },
        {
          "indexed": true,
          "internalType": "address",
          "name": "approved",
          "type": "address"
        },
        {
          "indexed": true,
          "internalType": "uint256",
          "name": "tokenId",
          "type": "uint256"
        }
      ],
      "name": "Approval",
      "type": "event"
    },
    {
      "anonymous": false,
      "inputs": [
        {
          "indexed": true,
          "internalType": "address",
          "name": "owner",
          "type": "address"
        },
        {
          "indexed": true,
          "internalType": "address",
          "name": "operator",
          "type": "address"
        },
        {
          "indexed": false,
          "internalType": "bool",
          "name": "approved",
          "type": "bool"
        }
      ],
      "name": "ApprovalForAll",
      "type": "event"
    },
    {
      "anonymous": false,
      "inputs": [
        {
          "indexed": true,
          "internalType": "address",
          "name": "from",
          "type": "address"
        },
        {
          "indexed": true,
          "internalType": "address",
          "name": "to",
          "type": "address"
        },
        {
          "indexed": true,
          "internalType": "uint256",
          "name": "tokenId",
          "type": "uint256"
        }
      ],
      "name": "Transfer",
      "type": "event"
    },
    {
      "inputs": [
        {
          "internalType": "address",
          "name": "to",
          "type": "address"
        },
        {
          "internalType": "uint256",
          "name": "tokenId",
          "type": "uint256"
        }
      ],
      "name": "approve",
      "outputs": [],
      "stateMutability": "nonpayable",
      "type": "function"
    },
    {
      "inputs": [
        {
          "internalType": "address",
          "name": "owner",
          "type": "address"
        }
      ],
      "name": "balanceOf",
      "outputs": [
        {
          "internalType": "uint256",
          "name": "",
          "type": "uint256"
        }
      ],
      "stateMutability": "view",
      "type": "function"
    },
    {
      "inputs": [],
      "name": "baseURI",
      "outputs": [
        {
          "internalType": "string",
          "name": "",
          "type": "string"
        }
      ],
      "stateMutability": "view",
      "type": "function"
    },
    {
      "inputs": [
        {
          "internalType": "uint256",
          "name": "tokenId",
          "type": "uint256"
        }
      ],
      "name": "burn",
      "outputs": [],
      "stateMutability": "nonpayable",
      "type": "function"
    },
    {
      "inputs": [
        {
          "internalType": "bytes4",
          "name": "interfaceId",
          "type": "bytes4"
        },
        {
          "internalType": "string",
          "name": "message",
          "type": "string"
        }
      ],
      "name": "checkInterface",
      "outputs": [],
      "stateMutability": "view",
      "type": "function"
    },
    {
      "inputs": [],
      "name": "contractURI",
      "outputs": [
        {
          "internalType": "string",
          "name": "",
          "type": "string"
        }
      ],
      "stateMutability": "view",
      "type": "function"
    },
    {
      "inputs": [
        {
          "internalType": "uint256",
          "name": "id",
          "type": "uint256"
        }
      ],
      "name": "exists",
      "outputs": [
        {
          "internalType": "bool",
          "name": "",
          "type": "bool"
        }
      ],
      "stateMutability": "view",
      "type": "function"
    },
    {
      "inputs": [
        {
          "internalType": "uint256",
          "name": "tokenId",
          "type": "uint256"
        }
      ],
      "name": "getApproved",
      "outputs": [
        {
          "internalType": "address",
          "name": "",
          "type": "address"
        }
      ],
      "stateMutability": "view",
      "type": "function"
    },
    {
      "inputs": [],
      "name": "initNFTs",
      "outputs": [],
      "stateMutability": "nonpayable",
      "type": "function"
    },
    {
      "inputs": [
        {
          "internalType": "address",
          "name": "owner",
          "type": "address"
        },
        {
          "internalType": "address",
          "name": "operator",
          "type": "address"
        }
      ],
      "name": "isApprovedForAll",
      "outputs": [
        {
          "internalType": "bool",
          "name": "",
          "type": "bool"
        }
      ],
      "stateMutability": "view",
      "type": "function"
    },
    {
      "inputs": [
        {
          "internalType": "address",
          "name": "spender",
          "type": "address"
        },
        {
          "internalType": "uint256",
          "name": "tokenId",
          "type": "uint256"
        }
      ],
      "name": "isApprovedOrOwner",
      "outputs": [
        {
          "internalType": "bool",
          "name": "",
          "type": "bool"
        }
      ],
      "stateMutability": "view",
      "type": "function"
    },
    {
      "inputs": [],
      "name": "lastTransfer",
      "outputs": [
        {
          "internalType": "address",
          "name": "from",
          "type": "address"
        },
        {
          "internalType": "address",
          "name": "to",
          "type": "address"
        },
        {
          "internalType": "uint256",
          "name": "blockNumber",
          "type": "uint256"
        },
        {
          "internalType": "uint256",
          "name": "tokenId",
          "type": "uint256"
        },
        {
          "internalType": "bytes",
          "name": "data",
          "type": "bytes"
        }
      ],
      "stateMutability": "view",
      "type": "function"
    },
    {
      "inputs": [
        {
          "internalType": "uint256",
          "name": "tokenId",
          "type": "uint256"
        }
      ],
      "name": "mint",
      "outputs": [],
      "stateMutability": "nonpayable",
      "type": "function"
    },
    {
      "inputs": [],
      "name": "name",
      "outputs": [
        {
          "internalType": "string",
          "name": "",
          "type": "string"
        }
      ],
      "stateMutability": "view",
      "type": "function"
    },
    {
      "inputs": [
        {
          "internalType": "uint256",
          "name": "tokenId",
          "type": "uint256"
        }
      ],
      "name": "ownerOf",
      "outputs": [
        {
          "internalType": "address",
          "name": "",
          "type": "address"
        }
      ],
      "stateMutability": "view",
      "type": "function"
    },
    {
      "inputs": [
        {
          "internalType": "address",
          "name": "to",
          "type": "address"
        },
        {
          "internalType": "uint256",
          "name": "tokenId",
          "type": "uint256"
        },
        {
          "internalType": "bytes",
          "name": "_data",
          "type": "bytes"
        }
      ],
      "name": "safeMint",
      "outputs": [],
      "stateMutability": "nonpayable",
      "type": "function"
    },
    {
      "inputs": [
        {
          "internalType": "address",
          "name": "to",
          "type": "address"
        },
        {
          "internalType": "uint256",
          "name": "tokenId",
          "type": "uint256"
        },
        {
          "internalType": "string",
          "name": "_tokenURI",
          "type": "string"
        },
        {
          "internalType": "bytes",
          "name": "_data",
          "type": "bytes"
        }
      ],
      "name": "safeMintURI",
      "outputs": [],
      "stateMutability": "nonpayable",
      "type": "function"
    },
    {
      "inputs": [
        {
          "internalType": "address",
          "name": "from",
          "type": "address"
        },
        {
          "internalType": "address",
          "name": "to",
          "type": "address"
        },
        {
          "internalType": "uint256",
          "name": "tokenId",
          "type": "uint256"
        }
      ],
      "name": "safeTransferFrom",
      "outputs": [],
      "stateMutability": "nonpayable",
      "type": "function"
    },
    {
      "inputs": [
        {
          "internalType": "address",
          "name": "from",
          "type": "address"
        },
        {
          "internalType": "address",
          "name": "to",
          "type": "address"
        },
        {
          "internalType": "uint256",
          "name": "tokenId",
          "type": "uint256"
        },
        {
          "internalType": "bytes",
          "name": "_data",
          "type": "bytes"
        }
      ],
      "name": "safeTransferFrom",
      "outputs": [],
      "stateMutability": "nonpayable",
      "type": "function"
    },
    {
      "inputs": [
        {
          "internalType": "address",
          "name": "operator",
          "type": "address"
        },
        {
          "internalType": "bool",
          "name": "approved",
          "type": "bool"
        }
      ],
      "name": "setApprovalForAll",
      "outputs": [],
      "stateMutability": "nonpayable",
      "type": "function"
    },
    {
      "inputs": [
        {
          "internalType": "string",
          "name": "baseURI_",
          "type": "string"
        }
      ],
      "name": "setBaseURI",
      "outputs": [],
      "stateMutability": "nonpayable",
      "type": "function"
    },
    {
      "inputs": [
        {
          "internalType": "uint256",
          "name": "tokenId",
          "type": "uint256"
        },
        {
          "internalType": "string",
          "name": "_tokenURI",
          "type": "string"
        }
      ],
      "name": "setTokenURI",
      "outputs": [],
      "stateMutability": "nonpayable",
      "type": "function"
    },
    {
      "inputs": [
        {
          "internalType": "bytes4",
          "name": "interfaceId",
          "type": "bytes4"
        }
      ],
      "name": "supportsInterface",
      "outputs": [
        {
          "internalType": "bool",
          "name": "",
          "type": "bool"
        }
      ],
      "stateMutability": "view",
      "type": "function"
    },
    {
      "inputs": [],
      "name": "symbol",
      "outputs": [
        {
          "internalType": "string",
          "name": "",
          "type": "string"
        }
      ],
      "stateMutability": "view",
      "type": "function"
    },
    {
      "inputs": [
        {
          "internalType": "uint256",
          "name": "index",
          "type": "uint256"
        }
      ],
      "name": "tokenByIndex",
      "outputs": [
        {
          "internalType": "uint256",
          "name": "",
          "type": "uint256"
        }
      ],
      "stateMutability": "view",
      "type": "function"
    },
    {
      "inputs": [
        {
          "internalType": "address",
          "name": "owner",
          "type": "address"
        },
        {
          "internalType": "uint256",
          "name": "index",
          "type": "uint256"
        }
      ],
      "name": "tokenOfOwnerByIndex",
      "outputs": [
        {
          "internalType": "uint256",
          "name": "",
          "type": "uint256"
        }
      ],
      "stateMutability": "view",
      "type": "function"
    },
    {
      "inputs": [
        {
          "internalType": "uint256",
          "name": "tokenId",
          "type": "uint256"
        }
      ],
      "name": "tokenURI",
      "outputs": [
        {
          "internalType": "string",
          "name": "",
          "type": "string"
        }
      ],
      "stateMutability": "view",
      "type": "function"
    },
    {
      "inputs": [],
      "name": "totalSupply",
      "outputs": [
        {
          "internalType": "uint256",
          "name": "",
          "type": "uint256"
        }
      ],
      "stateMutability": "view",
      "type": "function"
    },
    {
      "inputs": [
        {
          "internalType": "address",
          "name": "from",
          "type": "address"
        },
        {
          "internalType": "address",
          "name": "to",
          "type": "address"
        },
        {
          "internalType": "uint256",
          "name": "tokenId",
          "type": "uint256"
        }
      ],
      "name": "transferFrom",
      "outputs": [],
      "stateMutability": "nonpayable",
      "type": "function"
    },
    {
      "stateMutability": "payable",
      "type": "receive"
    },
    {
      "inputs": [],
      "name": "initNFTsTest",
      "outputs": [],
      "stateMutability": "nonpayable",
      "type": "function"
    }
  ],
  "bytecode": "0x608060405234801561001057600080fd5b50612712806100206000396000f3fe6080604052600436106101d15760003560e01c80634f6ccce7116100f7578063a0712d6811610095578063c87b56dd11610064578063c87b56dd14610601578063e84d269614610621578063e8a3d48514610647578063e985e9c51461065c57600080fd5b8063a0712d6814610581578063a22cb465146105a1578063b88d4fde146105c1578063c64df69d146105e157600080fd5b80636c0360eb116100d15780636c0360eb1461051757806370a082311461052c5780638832e6e31461054c57806395d89b411461056c57600080fd5b80634f6ccce7146104b757806355f804b3146104d75780636352211e146104f757600080fd5b806323b872dd1161016f57806342842e0e1161013e57806342842e0e1461043757806342966c6814610457578063430c2081146104775780634f558e791461049757600080fd5b806323b872dd146103cd57806324f30fed146103ed5780632f745c59146104025780633480f97a1461042257600080fd5b8063095ea7b3116101ab578063095ea7b3146103485780630fa86d3d1461036a578063162094c41461038a57806318160ddd146103aa57600080fd5b806301ffc9a71461029f57806306fdde03146102ee578063081812fc1461031057600080fd5b3661029a573460000361022b5760405162461bcd60e51b815260206004820152601c60248201527f234e4654732372656365697665206d73672e76616c756520213d20300000000060448201526064015b60405180910390fd5b600f546000036102915760405162461bcd60e51b815260206004820152602b60248201527f234e4654732372656365697665206c6173745472616e736665722e626c6f636b60448201526a04e756d62657220213d20360ac1b6064820152608401610222565b6000600f819055005b600080fd5b3480156102ab57600080fd5b506102d96102ba366004611e4e565b6001600160e01b03191660009081526001602052604090205460ff1690565b60405190151581526020015b60405180910390f35b3480156102fa57600080fd5b506103036106a5565b6040516102e59190611ebb565b34801561031c57600080fd5b5061033061032b366004611ece565b610737565b6040516001600160a01b0390911681526020016102e5565b34801561035457600080fd5b50610368610363366004611f03565b6107bf565b005b34801561037657600080fd5b50610368610385366004611fd0565b6108d4565b34801561039657600080fd5b506103686103a536600461204e565b6108ef565b3480156103b657600080fd5b506103bf610967565b6040519081526020016102e5565b3480156103d957600080fd5b506103686103e8366004612095565b610978565b3480156103f957600080fd5b506103686109cd565b34801561040e57600080fd5b506103bf61041d366004611f03565b610a10565b34801561042e57600080fd5b50610368610a3b565b34801561044357600080fd5b50610368610452366004612095565b610a87565b34801561046357600080fd5b50610368610472366004611ece565b610aa2565b34801561048357600080fd5b506102d9610492366004611f03565b610aae565b3480156104a357600080fd5b506102d96104b2366004611ece565b610aba565b3480156104c357600080fd5b506103bf6104d2366004611ece565b610ac5565b3480156104e357600080fd5b506103686104f23660046120d1565b610adb565b34801561050357600080fd5b50610330610512366004611ece565b610ae4565b34801561052357600080fd5b50610303610b0c565b34801561053857600080fd5b506103bf610547366004612106565b610b1b565b34801561055857600080fd5b50610368610567366004612121565b610ba7565b34801561057857600080fd5b50610303610bb2565b34801561058d57600080fd5b5061036861059c366004611ece565b610bc1565b3480156105ad57600080fd5b506103686105bc366004612178565b610bcb565b3480156105cd57600080fd5b506103686105dc3660046121b4565b610c8f565b3480156105ed57600080fd5b506103686105fc366004612210565b610cc1565b34801561060d57600080fd5b5061030361061c366004611ece565b610cfd565b34801561062d57600080fd5b50610636610d08565b6040516102e595949392919061224a565b34801561065357600080fd5b50610303610dba565b34801561066857600080fd5b506102d961067736600461228f565b6001600160a01b03918216600090815260076020908152604080832093909416825291909152205460ff1690565b6060600880546106b4906122c2565b80601f01602080910402602001604051908101604052809291908181526020018280546106e0906122c2565b801561072d5780601f106107025761010080835404028352916020019161072d565b820191906000526020600020905b81548152906001019060200180831161071057829003601f168201915b5050505050905090565b600061074282610e48565b6107a35760405162461bcd60e51b815260206004820152602c60248201527f4552433732313a20617070726f76656420717565727920666f72206e6f6e657860448201526b34b9ba32b73a103a37b5b2b760a11b6064820152608401610222565b506000908152600660205260409020546001600160a01b031690565b60006107ca82610ae4565b9050806001600160a01b0316836001600160a01b0316036108375760405162461bcd60e51b815260206004820152602160248201527f4552433732313a20617070726f76616c20746f2063757272656e74206f776e656044820152603960f91b6064820152608401610222565b336001600160a01b038216148061085357506108538133610677565b6108c55760405162461bcd60e51b815260206004820152603860248201527f4552433732313a20617070726f76652063616c6c6572206973206e6f74206f7760448201527f6e6572206e6f7220617070726f76656420666f7220616c6c00000000000000006064820152608401610222565b6108cf8383610e55565b505050565b6108df848483610ec3565b6108e98383610ef6565b50505050565b336108f983610ae4565b6001600160a01b0316146109595760405162461bcd60e51b815260206004820152602160248201527f234e46547323736574546f6b656e5552493a206f776e6572206e6f206d6174636044820152600d60fb1b6064820152608401610222565b6109638282610ef6565b5050565b60006109736003610f78565b905090565b6109823382610f83565b61099e5760405162461bcd60e51b8152600401610222906122fc565b6109b98383836040518060200160405280600081525061106d565b604080516020810190915260009052505050565b6109d5610a3b565b60006109e0306111fb565b9050806040516020016109f3919061234d565b604051602081830303815290604052600c90816109639190612425565b6001600160a01b0382166000908152600260205260408120610a32908361128e565b90505b92915050565b610a4361129a565b610a85604051806040016040528060048152602001634e46547360e01b815250604051806040016040528060048152602001634e46547360e01b815250611366565b565b6108cf83838360405180602001604052806000815250610c8f565b610aab816113b0565b50565b6000610a328383610f83565b6000610a3582610e48565b600080610ad3600384611486565b509392505050565b610aab816114a2565b6000610a35826040518060600160405280602981526020016126b460299139600391906114ae565b6060600b80546106b4906122c2565b60006001600160a01b038216610b865760405162461bcd60e51b815260206004820152602a60248201527f4552433732313a2062616c616e636520717565727920666f7220746865207a65604482015269726f206164647265737360b01b6064820152608401610222565b6001600160a01b0382166000908152600260205260409020610a35906114c5565b6108cf838383610ec3565b6060600980546106b4906122c2565b610aab33826114cf565b336001600160a01b03831603610c235760405162461bcd60e51b815260206004820152601960248201527f4552433732313a20617070726f766520746f2063616c6c6572000000000000006044820152606401610222565b3360008181526007602090815260408083206001600160a01b03871680855290835292819020805460ff191686151590811790915590519081529192917f17307eab39ab6107e8899845ad3d59bd9653f200f220920489ca2b5937696c31910160405180910390a35050565b610c993383610f83565b610cb55760405162461bcd60e51b8152600401610222906122fc565b6108e984848484611603565b6001600160e01b0319821660009081526001602052604090205460ff1681906108cf5760405162461bcd60e51b81526004016102229190611ebb565b6060610a358261163c565b600d8054600e54600f54601054601180546001600160a01b0395861696949095169492939192610d37906122c2565b80601f0160208091040260200160405190810160405280929190818152602001828054610d63906122c2565b8015610db05780601f10610d8557610100808354040283529160200191610db0565b820191906000526020600020905b815481529060010190602001808311610d9357829003601f168201915b5050505050905085565b600c8054610dc7906122c2565b80601f0160208091040260200160405190810160405280929190818152602001828054610df3906122c2565b8015610e405780601f10610e1557610100808354040283529160200191610e40565b820191906000526020600020905b815481529060010190602001808311610e2357829003601f168201915b505050505081565b6000610a356003836117ae565b600081815260066020526040902080546001600160a01b0319166001600160a01b0384169081179091558190610e8a82610ae4565b6001600160a01b03167f8c5be1e5ebec7d5bd14f71427d1e84f3dd0314c0f7b2291e5b200ac8c7c3b92560405160405180910390a45050565b610ecd83836114cf565b610eda60008484846117ba565b6108cf5760405162461bcd60e51b8152600401610222906124e5565b610eff82610e48565b610f605760405162461bcd60e51b815260206004820152602c60248201527f4552433732314d657461646174613a2055524920736574206f66206e6f6e657860448201526b34b9ba32b73a103a37b5b2b760a11b6064820152608401610222565b6000828152600a602052604090206108cf8282612425565b6000610a3582611873565b6000610f8e82610e48565b610fef5760405162461bcd60e51b815260206004820152602c60248201527f4552433732313a206f70657261746f7220717565727920666f72206e6f6e657860448201526b34b9ba32b73a103a37b5b2b760a11b6064820152608401610222565b6000610ffa83610ae4565b9050806001600160a01b0316846001600160a01b031614806110355750836001600160a01b031661102a84610737565b6001600160a01b0316145b8061106557506001600160a01b0380821660009081526007602090815260408083209388168352929052205460ff165b949350505050565b836001600160a01b031661108083610ae4565b6001600160a01b0316146110e85760405162461bcd60e51b815260206004820152602960248201527f4552433732313a207472616e73666572206f6620746f6b656e2074686174206960448201526839903737ba1037bbb760b91b6064820152608401610222565b6001600160a01b03831661114a5760405162461bcd60e51b8152602060048201526024808201527f4552433732313a207472616e7366657220746f20746865207a65726f206164646044820152637265737360e01b6064820152608401610222565b6111568484848461187e565b611161600083610e55565b6001600160a01b03841660009081526002602052604090206111839083611961565b506001600160a01b03831660009081526002602052604090206111a6908361196d565b506111b360038385611979565b5081836001600160a01b0316856001600160a01b03167fddf252ad1be2c89b69c2b068fc378daa952ba7f163c4a11628f55a4df523b3ef60405160405180910390a450505050565b606060006112088361198f565b600101905060008167ffffffffffffffff81111561122857611228611f2d565b6040519080825280601f01601f191660200182016040528015611252576020820181803683370190505b5090508181016020015b600019016f181899199a1a9b1b9c1cb0b131b232b360811b600a86061a8153600a850494508461125c57509392505050565b6000610a328383611a67565b600054610100900460ff16806112af5750303b155b806112bd575060005460ff16155b6113205760405162461bcd60e51b815260206004820152602e60248201527f436f6e747261637420696e7374616e63652068617320616c726561647920626560448201526d195b881a5b9a5d1a585b1a5e995960921b6064820152608401610222565b600054610100900460ff16158015611342576000805461ffff19166101011790555b6113526301ffc9a760e01b611a91565b8015610aab576000805461ff001916905550565b60086113728382612425565b50600961137f8282612425565b506113906380ac58cd60e01b611a91565b6113a0635b5e139f60e01b611a91565b61096363780e9d6360e01b611a91565b60006113bb82610ae4565b90506113d9816000846040518060200160405280600081525061187e565b6113e4600083610e55565b6000828152600a6020526040902080546113fd906122c2565b15905061141b576000828152600a6020526040812061141b91611dea565b6001600160a01b038116600090815260026020526040902061143d9083611961565b50611449600383611a9a565b5060405182906000906001600160a01b038416907fddf252ad1be2c89b69c2b068fc378daa952ba7f163c4a11628f55a4df523b3ef908390a45050565b60008080806114958686611aa6565b9097909650945050505050565b600b6109638282612425565b60006114bb848484611ad1565b90505b9392505050565b6000610a35825490565b6001600160a01b0382166115255760405162461bcd60e51b815260206004820181905260248201527f4552433732313a206d696e7420746f20746865207a65726f20616464726573736044820152606401610222565b61152e81610e48565b1561157b5760405162461bcd60e51b815260206004820152601c60248201527f4552433732313a20746f6b656e20616c7265616479206d696e746564000000006044820152606401610222565b611597600083836040518060200160405280600081525061187e565b6001600160a01b03821660009081526002602052604090206115b9908261196d565b506115c660038284611979565b5060405181906001600160a01b038416906000907fddf252ad1be2c89b69c2b068fc378daa952ba7f163c4a11628f55a4df523b3ef908290a45050565b61160f8484848461106d565b61161b848484846117ba565b6116375760405162461bcd60e51b8152600401610222906124e5565b6108e9565b606061164782610e48565b6116ab5760405162461bcd60e51b815260206004820152602f60248201527f4552433732314d657461646174613a2055524920717565727920666f72206e6f60448201526e3732bc34b9ba32b73a103a37b5b2b760891b6064820152608401610222565b6000828152600a6020526040812080546116c4906122c2565b80601f01602080910402602001604051908101604052809291908181526020018280546116f0906122c2565b801561173d5780601f106117125761010080835404028352916020019161173d565b820191906000526020600020905b81548152906001019060200180831161172057829003601f168201915b50505050509050600b8054611751906122c2565b90506000036117605792915050565b80511561179257600b8160405160200161177b929190612537565b604051602081830303815290604052915050919050565b600b61179d846111fb565b60405160200161177b929190612537565b6000610a328383611b1d565b60006001600160a01b0384163b6117d357506001611065565b6000630a85bd0160e11b338786866040516024016117f494939291906125be565b604051602081830303815290604052906001600160e01b0319166020820180516001600160e01b038381831617835250505050905063150b7a0260e01b6001600160e01b03191661185e868360405180606001604052806032815260200161268260329139611b3c565b6001600160e01b031916149695505050505050565b6000610a35826114c5565b600f54156118f45760405162461bcd60e51b815260206004820152603860248201527f234e465473235f6265666f7265546f6b656e5472616e73666572206c6173745460448201527f72616e736665722e626c6f636b4e756d626572203d3d203000000000000000006064820152608401610222565b6001600160a01b038416158061191157506001600160a01b038316155b6108e957600d80546001600160a01b038087166001600160a01b031992831617909255600e80549286169290911691909117905543600f556010829055601161195a8282612425565b5050505050565b6000610a328383611bec565b6000610a328383611cdf565b60006114bb84846001600160a01b038516611d2e565b60008072184f03e93ff9f4daa797ed6e38ed64bf6a1f0160401b83106119ce5772184f03e93ff9f4daa797ed6e38ed64bf6a1f0160401b830492506040015b6d04ee2d6d415b85acef810000000083106119fa576d04ee2d6d415b85acef8100000000830492506020015b662386f26fc100008310611a1857662386f26fc10000830492506010015b6305f5e1008310611a30576305f5e100830492506008015b6127108310611a4457612710830492506004015b60648310611a56576064830492506002015b600a8310610a355760010192915050565b6000826000018281548110611a7e57611a7e6125fb565b9060005260206000200154905092915050565b610aab81611d4b565b6000610a328383611dcd565b60008080611ab4858561128e565b600081815260029690960160205260409095205494959350505050565b600082815260028401602052604081205480151580611af55750611af58585611b1d565b8390611b145760405162461bcd60e51b81526004016102229190611ebb565b50949350505050565b6000610a32838360008181526001830160205260408120541515610a32565b6000806000856001600160a01b031685604051611b599190612611565b6000604051808303816000865af19150503d8060008114611b96576040519150601f19603f3d011682016040523d82523d6000602084013e611b9b565b606091505b509150915081611bcf57805115611bb55780518082602001fd5b8360405162461bcd60e51b81526004016102229190611ebb565b80806020019051810190611be3919061262d565b925050506114be565b60008181526001830160205260408120548015611cd5576000611c1060018361264a565b8554909150600090611c249060019061264a565b9050818114611c89576000866000018281548110611c4457611c446125fb565b9060005260206000200154905080876000018481548110611c6757611c676125fb565b6000918252602080832090910192909255918252600188019052604090208390555b8554869080611c9a57611c9a61266b565b600190038181906000526020600020016000905590558560010160008681526020019081526020016000206000905560019350505050610a35565b6000915050610a35565b6000818152600183016020526040812054611d2657508154600181810184556000848152602080822090930184905584548482528286019093526040902091909155610a35565b506000610a35565b600082815260028401602052604081208290556114bb848461196d565b6001600160e01b03198082169003611da55760405162461bcd60e51b815260206004820152601c60248201527f4552433136353a20696e76616c696420696e74657266616365206964000000006044820152606401610222565b6001600160e01b0319166000908152600160208190526040909120805460ff19169091179055565b60008181526002830160205260408120819055610a328383611961565b508054611df6906122c2565b6000825580601f10611e06575050565b601f016020900490600052602060002090810190610aab91905b80821115611e345760008155600101611e20565b5090565b6001600160e01b031981168114610aab57600080fd5b600060208284031215611e6057600080fd5b81356114be81611e38565b60005b83811015611e86578181015183820152602001611e6e565b50506000910152565b60008151808452611ea7816020860160208601611e6b565b601f01601f19169290920160200192915050565b602081526000610a326020830184611e8f565b600060208284031215611ee057600080fd5b5035919050565b80356001600160a01b0381168114611efe57600080fd5b919050565b60008060408385031215611f1657600080fd5b611f1f83611ee7565b946020939093013593505050565b634e487b7160e01b600052604160045260246000fd5b600082601f830112611f5457600080fd5b813567ffffffffffffffff80821115611f6f57611f6f611f2d565b604051601f8301601f19908116603f01168101908282118183101715611f9757611f97611f2d565b81604052838152866020858801011115611fb057600080fd5b836020870160208301376000602085830101528094505050505092915050565b60008060008060808587031215611fe657600080fd5b611fef85611ee7565b935060208501359250604085013567ffffffffffffffff8082111561201357600080fd5b61201f88838901611f43565b9350606087013591508082111561203557600080fd5b5061204287828801611f43565b91505092959194509250565b6000806040838503121561206157600080fd5b82359150602083013567ffffffffffffffff81111561207f57600080fd5b61208b85828601611f43565b9150509250929050565b6000806000606084860312156120aa57600080fd5b6120b384611ee7565b92506120c160208501611ee7565b9150604084013590509250925092565b6000602082840312156120e357600080fd5b813567ffffffffffffffff8111156120fa57600080fd5b61106584828501611f43565b60006020828403121561211857600080fd5b610a3282611ee7565b60008060006060848603121561213657600080fd5b61213f84611ee7565b925060208401359150604084013567ffffffffffffffff81111561216257600080fd5b61216e86828701611f43565b9150509250925092565b6000806040838503121561218b57600080fd5b61219483611ee7565b9150602083013580151581146121a957600080fd5b809150509250929050565b600080600080608085870312156121ca57600080fd5b6121d385611ee7565b93506121e160208601611ee7565b925060408501359150606085013567ffffffffffffffff81111561220457600080fd5b61204287828801611f43565b6000806040838503121561222357600080fd5b823561222e81611e38565b9150602083013567ffffffffffffffff81111561207f57600080fd5b6001600160a01b03868116825285166020820152604081018490526060810183905260a06080820181905260009061228490830184611e8f565b979650505050505050565b600080604083850312156122a257600080fd5b6122ab83611ee7565b91506122b960208401611ee7565b90509250929050565b600181811c908216806122d657607f821691505b6020821081036122f657634e487b7160e01b600052602260045260246000fd5b50919050565b60208082526031908201527f4552433732313a207472616e736665722063616c6c6572206973206e6f74206f6040820152701ddb995c881b9bdc88185c1c1c9bdd9959607a1b606082015260800190565b7f68747470733a2f2f736d6172742d64616f2d72656c2e73746172732d6d696e6581527f2e636f6d2f736572766963652d6170692f74657374312f6765744f70656e736560208201527561436f6e74726163744a534f4e3f616464726573733d60501b6040820152600082516123ca816056850160208701611e6b565b9190910160560192915050565b601f8211156108cf57600081815260208120601f850160051c810160208610156123fe5750805b601f850160051c820191505b8181101561241d5782815560010161240a565b505050505050565b815167ffffffffffffffff81111561243f5761243f611f2d565b6124538161244d84546122c2565b846123d7565b602080601f83116001811461248857600084156124705750858301515b600019600386901b1c1916600185901b17855561241d565b600085815260208120601f198616915b828110156124b757888601518255948401946001909101908401612498565b50858210156124d55787850151600019600388901b60f8161c191681555b5050505050600190811b01905550565b60208082526032908201527f4552433732313a207472616e7366657220746f206e6f6e20455243373231526560408201527131b2b4bb32b91034b6b83632b6b2b73a32b960711b606082015260800190565b6000808454612545816122c2565b6001828116801561255d5760018114612572576125a1565b60ff19841687528215158302870194506125a1565b8860005260208060002060005b858110156125985781548a82015290840190820161257f565b50505082870194505b5050505083516125b5818360208801611e6b565b01949350505050565b6001600160a01b03858116825284166020820152604081018390526080606082018190526000906125f190830184611e8f565b9695505050505050565b634e487b7160e01b600052603260045260246000fd5b60008251612623818460208701611e6b565b9190910192915050565b60006020828403121561263f57600080fd5b81516114be81611e38565b81810381811115610a3557634e487b7160e01b600052601160045260246000fd5b634e487b7160e01b600052603160045260246000fdfe4552433732313a207472616e7366657220746f206e6f6e20455243373231526563656976657220696d706c656d656e7465724552433732313a206f776e657220717565727920666f72206e6f6e6578697374656e7420746f6b656ea2646970667358221220cc9010619db8e7966a5e387714470846c8280a04d3c569712e3b820f74fdfa8a64736f6c63430008110033",
  "immutableReferences": {},
  "source": "// SPDX-License-Identifier: MIT\npragma solidity 0.8.17;\n\nimport './libs/ERC721.sol';\nimport './libs/ERC165.sol';\n\ncontract NFTs is ERC165, ERC721 {\n\n\t// @overwrite ---------------\n\tfunction _registerInterface(bytes4 interfaceId) internal virtual override(ERC165,ERC721) {\n\t\tERC165._registerInterface(interfaceId);\n\t}\n\t// --------------------------\n\n\tfunction initNFTs() public {\n\t\tinitERC165();\n\t\tinitERC721(\"NFTs\", \"NFTs\");\n\t}\n\n\tfunction mint(uint256 tokenId) public {\n\t\t_mint(msg.sender, tokenId);\n\t}\n\n\tfunction safeMintURI(address to, uint256 tokenId, string memory _tokenURI, bytes memory _data) public {\n\t\t_safeMint(to, tokenId, _data);\n\t\t_setTokenURI(tokenId, _tokenURI);\n\t}\n\n\tfunction safeMint(address to, uint256 tokenId, bytes memory _data) public {\n\t\t_safeMint(to, tokenId, _data);\n\t}\n\n\tfunction burn(uint256 tokenId) public {\n\t\t_burn(tokenId);\n\t}\n\n\tfunction setTokenURI(uint256 tokenId, string memory _tokenURI) public {\n\t\trequire(ownerOf(tokenId) == _msgSender(), \"#NFTs#setTokenURI: owner no match\");\n\t\t_setTokenURI(tokenId, _tokenURI);\n\t}\n\n\tfunction setBaseURI(string memory baseURI_) public {\n\t\t_setBaseURI(baseURI_);\n\t}\n\n\tfunction isApprovedOrOwner(address spender, uint256 tokenId) view public returns (bool) {\n\t\treturn _havePermission(spender, tokenId);\n\t}\n\n}\n\ncontract NFTsTest is NFTs {\n\tusing Strings for uint256;\n\n\tstring public contractURI;\n\n\tfunction initNFTsTest() external {\n\t\tinitNFTs();\n\t\tstring memory addr = uint256(uint160(address(this))).toString();\n\t\tcontractURI = string(abi.encodePacked(\"https://smart-dao-rel.stars-mine.com/service-api/test1/getOpenseaContractJSON?address=\", addr));\n\t\t// contractURI = \"https://smart-dao-rel.stars-mine.com/service-api/test1/getOpenseaContractJSON?address=0x87Ae5AB6e5A7F925dCC091F3a2247786D5E26349\";\n\t}\n\n\tstruct TokenTransfer {\n\t\taddress from;\n\t\taddress to;\n\t\tuint256 blockNumber;\n\t\tuint256 tokenId;\n\t\tbytes data;\n\t}\n\n\tTokenTransfer public lastTransfer;\n\n\tfunction _beforeTokenTransfer(address from, address to, uint256 tokenId, bytes memory _data) internal virtual override {\n\t\trequire(lastTransfer.blockNumber == 0, \"#NFTs#_beforeTokenTransfer lastTransfer.blockNumber == 0\");\n\t\tif (from == address(0) || to == address(0)) return;\n\t\tlastTransfer.from = from;\n\t\tlastTransfer.to = to;\n\t\tlastTransfer.blockNumber = block.number;\n\t\tlastTransfer.tokenId = tokenId;\n\t\tlastTransfer.data = _data;\n\t}\n\n\treceive() external payable {\n\t\trequire(msg.value != 0, \"#NFTs#receive msg.value != 0\"); // price\n\t\trequire(lastTransfer.blockNumber != 0, \"#NFTs#receive lastTransfer.blockNumber != 0\");\n\t\tlastTransfer.blockNumber = 0;\n\t}\n\n}\n",
  "sourcePath": "/Users/louis/Project/hc/NFTSwap/SmartHolder/contracts/NFTs.sol",
  "compiler": {
    "name": "solc",
    "version": "0.8.17+commit.8df45f5f.Emscripten.clang"
  },
  "schemaVersion": "3.4.11",
  "updatedAt": "2023-03-03T03:01:27.861Z",
  "devdoc": {
    "kind": "dev",
    "methods": {
      "approve(address,uint256)": {
        "details": "Approves another address to transfer the given token ID The zero address indicates there is no approved address. There can only be one approved address per token at a given time. Can only be called by the token owner or an approved operator.",
        "params": {
          "to": "address to be approved for the given token ID",
          "tokenId": "uint256 ID of the token to be approved"
        }
      },
      "balanceOf(address)": {
        "details": "Gets the balance of the specified address.",
        "params": {
          "owner": "address to query the balance of"
        },
        "returns": {
          "_0": "uint256 representing the amount owned by the passed address"
        }
      },
      "baseURI()": {
        "details": "Returns the base URI set via {_setBaseURI}. This will be automatically added as a prefix in {tokenURI} to each token's URI, or to the token ID if no specific URI is set for that token ID."
      },
      "getApproved(uint256)": {
        "details": "Gets the approved address for a token ID, or zero if no address set Reverts if the token ID does not exist.",
        "params": {
          "tokenId": "uint256 ID of the token to query the approval of"
        },
        "returns": {
          "_0": "address currently approved for the given token ID"
        }
      },
      "isApprovedForAll(address,address)": {
        "details": "Tells whether an operator is approved by a given owner.",
        "params": {
          "operator": "operator address which you want to query the approval of",
          "owner": "owner address which you want to query the approval of"
        },
        "returns": {
          "_0": "bool whether the given operator is approved by the given owner"
        }
      },
      "name()": {
        "details": "Gets the token name.",
        "returns": {
          "_0": "string representing the token name"
        }
      },
      "ownerOf(uint256)": {
        "details": "Gets the owner of the specified token ID.",
        "params": {
          "tokenId": "uint256 ID of the token to query the owner of"
        },
        "returns": {
          "_0": "address currently marked as the owner of the given token ID"
        }
      },
      "safeTransferFrom(address,address,uint256)": {
        "details": "Safely transfers the ownership of a given token ID to another address If the target address is a contract, it must implement {IERC721Receiver-onERC721Received}, which is called upon a safe transfer, and return the magic value `bytes4(keccak256(\"onERC721Received(address,address,uint256,bytes)\"))`; otherwise, the transfer is reverted. Requires the msg.sender to be the owner, approved, or operator",
        "params": {
          "from": "current owner of the token",
          "to": "address to receive the ownership of the given token ID",
          "tokenId": "uint256 ID of the token to be transferred"
        }
      },
      "safeTransferFrom(address,address,uint256,bytes)": {
        "details": "Safely transfers the ownership of a given token ID to another address If the target address is a contract, it must implement {IERC721Receiver-onERC721Received}, which is called upon a safe transfer, and return the magic value `bytes4(keccak256(\"onERC721Received(address,address,uint256,bytes)\"))`; otherwise, the transfer is reverted. Requires the _msgSender() to be the owner, approved, or operator",
        "params": {
          "_data": "bytes data to send along with a safe transfer check",
          "from": "current owner of the token",
          "to": "address to receive the ownership of the given token ID",
          "tokenId": "uint256 ID of the token to be transferred"
        }
      },
      "setApprovalForAll(address,bool)": {
        "details": "Sets or unsets the approval of a given operator An operator is allowed to transfer all tokens of the sender on their behalf.",
        "params": {
          "approved": "representing the status of the approval to be set",
          "operator": "operator address to set the approval"
        }
      },
      "supportsInterface(bytes4)": {
        "details": "See {IERC165-supportsInterface}. Time complexity O(1), guaranteed to always use less than 30 000 gas."
      },
      "symbol()": {
        "details": "Gets the token symbol.",
        "returns": {
          "_0": "string representing the token symbol"
        }
      },
      "tokenByIndex(uint256)": {
        "details": "Gets the token ID at a given index of all the tokens in this contract Reverts if the index is greater or equal to the total number of tokens.",
        "params": {
          "index": "uint256 representing the index to be accessed of the tokens list"
        },
        "returns": {
          "_0": "uint256 token ID at the given index of the tokens list"
        }
      },
      "tokenOfOwnerByIndex(address,uint256)": {
        "details": "Gets the token ID at a given index of the tokens list of the requested owner.",
        "params": {
          "index": "uint256 representing the index to be accessed of the requested tokens list",
          "owner": "address owning the tokens list to be accessed"
        },
        "returns": {
          "_0": "uint256 token ID at the given index of the tokens list owned by the requested address"
        }
      },
      "tokenURI(uint256)": {
        "details": "Returns the Uniform Resource Identifier (URI) for `tokenId` token."
      },
      "totalSupply()": {
        "details": "Gets the total amount of tokens stored by the contract.",
        "returns": {
          "_0": "uint256 representing the total amount of tokens"
        }
      },
      "transferFrom(address,address,uint256)": {
        "details": "Transfers the ownership of a given token ID to another address. Usage of this method is discouraged, use {safeTransferFrom} whenever possible. Requires the msg.sender to be the owner, approved, or operator.",
        "params": {
          "from": "current owner of the token",
          "to": "address to receive the ownership of the given token ID",
          "tokenId": "uint256 ID of the token to be transferred"
        }
      }
    },
    "version": 1
  },
  "userdoc": {
    "kind": "user",
    "methods": {},
    "version": 1
  }
}