{
  "contractName": "Share",
  "abi": [
    {
      "inputs": [
        {
          "internalType": "bytes4",
          "name": "interfaceId",
          "type": "bytes4"
        }
      ],
      "name": "CheckInterfaceNoMatch",
      "type": "error"
    },
    {
      "inputs": [],
      "name": "MaximumSupplyLimitInShare",
      "type": "error"
    },
    {
      "inputs": [],
      "name": "PermissionDenied",
      "type": "error"
    },
    {
      "inputs": [],
      "name": "PermissionDeniedForOnlyDAO",
      "type": "error"
    },
    {
      "anonymous": false,
      "inputs": [
        {
          "indexed": true,
          "internalType": "address",
          "name": "owner",
          "type": "address"
        },
        {
          "indexed": true,
          "internalType": "address",
          "name": "spender",
          "type": "address"
        },
        {
          "indexed": false,
          "internalType": "uint256",
          "name": "value",
          "type": "uint256"
        }
      ],
      "name": "Approval",
      "type": "event"
    },
    {
      "anonymous": false,
      "inputs": [
        {
          "indexed": true,
          "internalType": "uint256",
          "name": "tag",
          "type": "uint256"
        },
        {
          "indexed": false,
          "internalType": "uint256",
          "name": "value",
          "type": "uint256"
        }
      ],
      "name": "Change",
      "type": "event"
    },
    {
      "anonymous": false,
      "inputs": [
        {
          "indexed": false,
          "internalType": "uint8",
          "name": "version",
          "type": "uint8"
        }
      ],
      "name": "Initialized",
      "type": "event"
    },
    {
      "anonymous": false,
      "inputs": [
        {
          "indexed": true,
          "internalType": "address",
          "name": "from",
          "type": "address"
        },
        {
          "indexed": true,
          "internalType": "address",
          "name": "to",
          "type": "address"
        },
        {
          "indexed": false,
          "internalType": "uint256",
          "name": "value",
          "type": "uint256"
        }
      ],
      "name": "Transfer",
      "type": "event"
    },
    {
      "inputs": [
        {
          "internalType": "address",
          "name": "owner",
          "type": "address"
        },
        {
          "internalType": "address",
          "name": "spender",
          "type": "address"
        }
      ],
      "name": "allowance",
      "outputs": [
        {
          "internalType": "uint256",
          "name": "",
          "type": "uint256"
        }
      ],
      "stateMutability": "view",
      "type": "function"
    },
    {
      "inputs": [
        {
          "internalType": "address",
          "name": "spender",
          "type": "address"
        },
        {
          "internalType": "uint256",
          "name": "amount",
          "type": "uint256"
        }
      ],
      "name": "approve",
      "outputs": [
        {
          "internalType": "bool",
          "name": "",
          "type": "bool"
        }
      ],
      "stateMutability": "nonpayable",
      "type": "function"
    },
    {
      "inputs": [
        {
          "internalType": "address",
          "name": "account",
          "type": "address"
        }
      ],
      "name": "balanceOf",
      "outputs": [
        {
          "internalType": "uint256",
          "name": "",
          "type": "uint256"
        }
      ],
      "stateMutability": "view",
      "type": "function"
    },
    {
      "inputs": [
        {
          "internalType": "bytes4",
          "name": "interfaceId",
          "type": "bytes4"
        }
      ],
      "name": "checkInterface",
      "outputs": [],
      "stateMutability": "view",
      "type": "function"
    },
    {
      "inputs": [],
      "name": "decimals",
      "outputs": [
        {
          "internalType": "uint8",
          "name": "",
          "type": "uint8"
        }
      ],
      "stateMutability": "view",
      "type": "function"
    },
    {
      "inputs": [
        {
          "internalType": "address",
          "name": "spender",
          "type": "address"
        },
        {
          "internalType": "uint256",
          "name": "subtractedValue",
          "type": "uint256"
        }
      ],
      "name": "decreaseAllowance",
      "outputs": [
        {
          "internalType": "bool",
          "name": "",
          "type": "bool"
        }
      ],
      "stateMutability": "nonpayable",
      "type": "function"
    },
    {
      "inputs": [],
      "name": "description",
      "outputs": [
        {
          "internalType": "string",
          "name": "",
          "type": "string"
        }
      ],
      "stateMutability": "view",
      "type": "function"
    },
    {
      "inputs": [],
      "name": "host",
      "outputs": [
        {
          "internalType": "contract IDAO",
          "name": "",
          "type": "address"
        }
      ],
      "stateMutability": "view",
      "type": "function"
    },
    {
      "inputs": [],
      "name": "impl",
      "outputs": [
        {
          "internalType": "address",
          "name": "",
          "type": "address"
        }
      ],
      "stateMutability": "view",
      "type": "function"
    },
    {
      "inputs": [
        {
          "internalType": "address",
          "name": "spender",
          "type": "address"
        },
        {
          "internalType": "uint256",
          "name": "addedValue",
          "type": "uint256"
        }
      ],
      "name": "increaseAllowance",
      "outputs": [
        {
          "internalType": "bool",
          "name": "",
          "type": "bool"
        }
      ],
      "stateMutability": "nonpayable",
      "type": "function"
    },
    {
      "inputs": [
        {
          "internalType": "uint256",
          "name": "index",
          "type": "uint256"
        }
      ],
      "name": "indexAt",
      "outputs": [
        {
          "internalType": "address",
          "name": "",
          "type": "address"
        },
        {
          "internalType": "uint256",
          "name": "",
          "type": "uint256"
        }
      ],
      "stateMutability": "view",
      "type": "function"
    },
    {
      "inputs": [],
      "name": "maxSupply",
      "outputs": [
        {
          "internalType": "uint256",
          "name": "",
          "type": "uint256"
        }
      ],
      "stateMutability": "view",
      "type": "function"
    },
    {
      "inputs": [],
      "name": "name",
      "outputs": [
        {
          "internalType": "string",
          "name": "",
          "type": "string"
        }
      ],
      "stateMutability": "view",
      "type": "function"
    },
    {
      "inputs": [],
      "name": "operator",
      "outputs": [
        {
          "internalType": "address",
          "name": "",
          "type": "address"
        }
      ],
      "stateMutability": "view",
      "type": "function"
    },
    {
      "inputs": [
        {
          "internalType": "string",
          "name": "value",
          "type": "string"
        }
      ],
      "name": "setDescription",
      "outputs": [],
      "stateMutability": "nonpayable",
      "type": "function"
    },
    {
      "inputs": [
        {
          "internalType": "address",
          "name": "operator_",
          "type": "address"
        }
      ],
      "name": "setOperator",
      "outputs": [],
      "stateMutability": "nonpayable",
      "type": "function"
    },
    {
      "inputs": [
        {
          "internalType": "bytes4",
          "name": "interfaceId",
          "type": "bytes4"
        }
      ],
      "name": "supportsInterface",
      "outputs": [
        {
          "internalType": "bool",
          "name": "",
          "type": "bool"
        }
      ],
      "stateMutability": "view",
      "type": "function"
    },
    {
      "inputs": [],
      "name": "symbol",
      "outputs": [
        {
          "internalType": "string",
          "name": "",
          "type": "string"
        }
      ],
      "stateMutability": "view",
      "type": "function"
    },
    {
      "inputs": [],
      "name": "totalOwners",
      "outputs": [
        {
          "internalType": "uint256",
          "name": "",
          "type": "uint256"
        }
      ],
      "stateMutability": "view",
      "type": "function"
    },
    {
      "inputs": [],
      "name": "totalSupply",
      "outputs": [
        {
          "internalType": "uint256",
          "name": "",
          "type": "uint256"
        }
      ],
      "stateMutability": "view",
      "type": "function"
    },
    {
      "inputs": [
        {
          "internalType": "address",
          "name": "to",
          "type": "address"
        },
        {
          "internalType": "uint256",
          "name": "amount",
          "type": "uint256"
        }
      ],
      "name": "transfer",
      "outputs": [
        {
          "internalType": "bool",
          "name": "",
          "type": "bool"
        }
      ],
      "stateMutability": "nonpayable",
      "type": "function"
    },
    {
      "inputs": [
        {
          "internalType": "address",
          "name": "from",
          "type": "address"
        },
        {
          "internalType": "address",
          "name": "to",
          "type": "address"
        },
        {
          "internalType": "uint256",
          "name": "amount",
          "type": "uint256"
        }
      ],
      "name": "transferFrom",
      "outputs": [
        {
          "internalType": "bool",
          "name": "",
          "type": "bool"
        }
      ],
      "stateMutability": "nonpayable",
      "type": "function"
    },
    {
      "inputs": [
        {
          "internalType": "address",
          "name": "impl_",
          "type": "address"
        }
      ],
      "name": "upgrade",
      "outputs": [],
      "stateMutability": "nonpayable",
      "type": "function"
    },
    {
      "inputs": [
        {
          "internalType": "address",
          "name": "host",
          "type": "address"
        },
        {
          "internalType": "address",
          "name": "operator",
          "type": "address"
        },
        {
          "internalType": "uint256",
          "name": "totalSupply",
          "type": "uint256"
        },
        {
          "internalType": "uint256",
          "name": "maxSupply_",
          "type": "uint256"
        },
        {
          "internalType": "string",
          "name": "name",
          "type": "string"
        },
        {
          "internalType": "string",
          "name": "symbol",
          "type": "string"
        },
        {
          "internalType": "string",
          "name": "description",
          "type": "string"
        }
      ],
      "name": "initShare",
      "outputs": [],
      "stateMutability": "nonpayable",
      "type": "function"
    },
    {
      "inputs": [
        {
          "internalType": "address",
          "name": "account",
          "type": "address"
        },
        {
          "internalType": "uint256",
          "name": "amount",
          "type": "uint256"
        }
      ],
      "name": "mint",
      "outputs": [],
      "stateMutability": "nonpayable",
      "type": "function"
    }
  ],
  "bytecode": "0x608060405234801561001057600080fd5b50611c29806100206000396000f3fe608060405234801561001057600080fd5b50600436106101735760003560e01c8063570ca735116100de578063a42bbccd11610097578063b3ab15fb11610071578063b3ab15fb14610343578063d5abeb0114610356578063dd62ed3e1461035f578063f437bc591461037257600080fd5b8063a42bbccd146102eb578063a457c2d71461031d578063a9059cbb1461033057600080fd5b8063570ca7351461027f57806370a08231146102a45780637284e416146102b75780638abf6077146102bf57806390c3f38f146102d057806395d89b41146102e357600080fd5b806323b872dd1161013057806323b872dd1461021c578063243669ad1461022f578063313ce56714610237578063395093511461024657806340c10f19146102595780634c6e425b1461026c57600080fd5b806301ffc9a71461017857806306fdde03146101ba5780630900f010146101cf578063095ea7b3146101e457806318160ddd146101f75780631c6e8fc814610209575b600080fd5b6101a56101863660046114f3565b6001600160e01b03191660009081526001602052604090205460ff1690565b60405190151581526020015b60405180910390f35b6101c2610383565b6040516101b19190611541565b6101e26101dd366004611589565b610415565b005b6101a56101f23660046115a6565b610492565b6011545b6040519081526020016101b1565b6101e2610217366004611614565b6104ac565b6101a561022a3660046116e9565b610816565b6101fb61083a565b604051600581526020016101b1565b6101a56102543660046115a6565b61084b565b6101e26102673660046115a6565b61086d565b6101e261027a3660046114f3565b6108cf565b6003546001600160a01b03165b6040516001600160a01b0390911681526020016101b1565b6101fb6102b2366004611589565b61091d565b6101c261093b565b6000546001600160a01b031661028c565b6101e26102de3660046117c2565b61094a565b6101c2610aad565b6102fe6102f9366004611842565b610abc565b604080516001600160a01b0390931683526020830191909152016101b1565b6101a561032b3660046115a6565b610ad3565b6101a561033e3660046115a6565b610b4e565b6101e2610351366004611589565b610b5c565b6101fb60145481565b6101fb61036d36600461185b565b610bd2565b6002546001600160a01b031661028c565b60606012805461039290611894565b80601f01602080910402602001604051908101604052809291908181526020018280546103be90611894565b801561040b5780601f106103e05761010080835404028352916020019161040b565b820191906000526020600020905b8154815290600101906020018083116103ee57829003601f168201915b5050505050905090565b61041d610bfd565b61043a57604051631b4004a360e31b815260040160405180910390fd5b600080546001600160a01b0319166001600160a01b0383169081179091556040519081526003907f7016719027ff29c13bc4816903851ea968172a86b766c733b954fdabe53c87ee906020015b60405180910390a250565b6000336104a0818585610d3c565b60019150505b92915050565b6104ee8a83838080601f0160208091040260200160405190810160405280939291908181526020018383808284376000920191909152508e9250610e60915050565b61056186868080601f01602080910402602001604051908101604052809392919081815260200183838082843760009201919091525050604080516020601f8a018190048102820181019092528881529250889150879081908401838280828437600092019190915250610ec492505050565b6105716304ea588b60e41b610ee2565b8660148190555060008a6001600160a01b031663e3f6b5446040518163ffffffff1660e01b8152600401602060405180830381865afa1580156105b8573d6000803e3d6000fd5b505050506040513d601f19601f820116820180604052508101906105dc91906118ce565b90506000816001600160a01b0316632ddbd13a6040518163ffffffff1660e01b8152600401602060405180830381865afa15801561061e573d6000803e3d6000fd5b505050506040513d601f19601f8201168201806040525081019061064291906118eb565b905060008a836001600160a01b031663e168c3ec6040518163ffffffff1660e01b8152600401602060405180830381865afa158015610685573d6000803e3d6000fd5b505050506040513d601f19601f820116820180604052508101906106a991906118eb565b6106b3919061191a565b90506106ed6040518060a0016040528060008152602001606081526020016060815260200160608152602001600063ffffffff1681525090565b60005b838110156108055760405163a42bbccd60e01b8152600481018290526001600160a01b0386169063a42bbccd90602401600060405180830381865afa15801561073d573d6000803e3d6000fd5b505050506040513d6000823e601f3d908101601f19168201604052610765919081019061199a565b80516040516331a9108f60e11b815260048101919091529092506107f3906001600160a01b03871690636352211e90602401602060405180830381865afa1580156107b4573d6000803e3d6000fd5b505050506040513d601f19601f820116820180604052508101906107d891906118ce565b84846080015163ffffffff166107ee9190611a6a565b610f64565b806107fd81611a81565b9150506106f0565b505050505050505050505050505050565b600033610824858285611046565b61082f8585856110c0565b506001949350505050565b6000610846600d611284565b905090565b6000336104a081858561085e8383610bd2565b6108689190611a9a565b610d3c565b610875610bfd565b61089257604051631b4004a360e31b815260040160405180910390fd5b6014546011546108a29083611a9a565b11156108c157604051639b4cee8360e01b815260040160405180910390fd5b6108cb8282610f64565b5050565b6001600160e01b0319811660009081526001602052604090205460ff1661091a57604051632aae78ef60e01b81526001600160e01b0319821660048201526024015b60405180910390fd5b50565b6001600160a01b0381166000908152600f60205260408120546104a6565b60606004805461039290611894565b63d0a4ad96610957610bfd565b610a6057600260009054906101000a90046001600160a01b03166001600160a01b031663e3f6b5446040518163ffffffff1660e01b8152600401602060405180830381865afa1580156109ae573d6000803e3d6000fd5b505050506040513d601f19601f820116820180604052508101906109d291906118ce565b60405163a8a555c560e01b8152336004820152602481018390526001600160a01b03919091169063a8a555c590604401602060405180830381865afa158015610a1f573d6000803e3d6000fd5b505050506040513d601f19601f82011682018060405250810190610a439190611aad565b610a6057604051630782484160e21b815260040160405180910390fd5b6004610a6c8382611b1d565b5060017f7016719027ff29c13bc4816903851ea968172a86b766c733b954fdabe53c87ee6000604051610aa191815260200190565b60405180910390a25050565b60606013805461039290611894565b600080610aca600d8461128f565b91509150915091565b60003381610ae18286610bd2565b905083811015610b415760405162461bcd60e51b815260206004820152602560248201527f45524332303a2064656372656173656420616c6c6f77616e63652062656c6f77604482015264207a65726f60d81b6064820152608401610911565b61082f8286868403610d3c565b6000336104a08185856110c0565b610b64610bfd565b610b8157604051631b4004a360e31b815260040160405180910390fd5b600380546001600160a01b0319166001600160a01b0383169081179091556040519081526002907f7016719027ff29c13bc4816903851ea968172a86b766c733b954fdabe53c87ee90602001610487565b6001600160a01b03918216600090815260106020908152604080832093909416825291909152205490565b60035460009033906001600160a01b03168114610d3457600260009054906101000a90046001600160a01b03166001600160a01b031663570ca7356040518163ffffffff1660e01b8152600401602060405180830381865afa158015610c67573d6000803e3d6000fd5b505050506040513d601f19601f82011682018060405250810190610c8b91906118ce565b6001600160a01b0316816001600160a01b031614610d3457600260009054906101000a90046001600160a01b03166001600160a01b031663ebf0c7176040518163ffffffff1660e01b8152600401602060405180830381865afa158015610cf6573d6000803e3d6000fd5b505050506040513d601f19601f82011682018060405250810190610d1a91906118ce565b6001600160a01b0316816001600160a01b03161491505090565b600191505090565b6001600160a01b038316610d9e5760405162461bcd60e51b8152602060048201526024808201527f45524332303a20617070726f76652066726f6d20746865207a65726f206164646044820152637265737360e01b6064820152608401610911565b6001600160a01b038216610dff5760405162461bcd60e51b815260206004820152602260248201527f45524332303a20617070726f766520746f20746865207a65726f206164647265604482015261737360f01b6064820152608401610911565b6001600160a01b0383811660008181526010602090815260408083209487168084529482529182902085905590518481527f8c5be1e5ebec7d5bd14f71427d1e84f3dd0314c0f7b2291e5b200ac8c7c3b925910160405180910390a3505050565b610e686112ad565b610e78630d64f40d60e31b610ee2565b600280546001600160a01b0319166001600160a01b0385161790556004610e9f8382611b1d565b50600380546001600160a01b0319166001600160a01b03929092169190911790555050565b6012610ed08382611b1d565b506013610edd8282611b1d565b505050565b6001600160e01b03198082169003610f3c5760405162461bcd60e51b815260206004820152601c60248201527f4552433136353a20696e76616c696420696e74657266616365206964000000006044820152606401610911565b6001600160e01b0319166000908152600160208190526040909120805460ff19169091179055565b6001600160a01b038216610fba5760405162461bcd60e51b815260206004820152601f60248201527f45524332303a206d696e7420746f20746865207a65726f2061646472657373006044820152606401610911565b8060116000828254610fcc9190611a9a565b9091555061100090508282610ff6826001600160a01b03166000908152600f602052604090205490565b600d9291016113e0565b506040518181526001600160a01b038316906000907fddf252ad1be2c89b69c2b068fc378daa952ba7f163c4a11628f55a4df523b3ef9060200160405180910390a35050565b60006110528484610bd2565b905060001981146110ba57818110156110ad5760405162461bcd60e51b815260206004820152601d60248201527f45524332303a20696e73756666696369656e7420616c6c6f77616e63650000006044820152606401610911565b6110ba8484848403610d3c565b50505050565b6001600160a01b0383166111245760405162461bcd60e51b815260206004820152602560248201527f45524332303a207472616e736665722066726f6d20746865207a65726f206164604482015264647265737360d81b6064820152608401610911565b6001600160a01b0382166111865760405162461bcd60e51b815260206004820152602360248201527f45524332303a207472616e7366657220746f20746865207a65726f206164647260448201526265737360e81b6064820152608401610911565b6001600160a01b0383166000908152600f6020526040902054818110156111fe5760405162461bcd60e51b815260206004820152602660248201527f45524332303a207472616e7366657220616d6f756e7420657863656564732062604482015265616c616e636560d01b6064820152608401610911565b61120c600d858484036113e0565b506112318383610ff6866001600160a01b03166000908152600f602052604090205490565b50826001600160a01b0316846001600160a01b03167fddf252ad1be2c89b69c2b068fc378daa952ba7f163c4a11628f55a4df523b3ef8460405161127791815260200190565b60405180910390a36110ba565b60006104a6826113fe565b600080808061129e8686611409565b909450925050505b9250929050565b600054600160a81b900460ff16158080156112d557506000546001600160a01b90910460ff16105b806112f65750303b1580156112f65750600054600160a01b900460ff166001145b6113595760405162461bcd60e51b815260206004820152602e60248201527f496e697469616c697a61626c653a20636f6e747261637420697320616c72656160448201526d191e481a5b9a5d1a585b1a5e995960921b6064820152608401610911565b6000805460ff60a01b1916600160a01b1790558015611386576000805460ff60a81b1916600160a81b1790555b6113966301ffc9a760e01b610ee2565b801561091a576000805460ff60a81b19169055604051600181527f7f26b83ff96e1f2b6a682f133852f6798a09c465da95921460cefb38474024989060200160405180910390a150565b60006113f6846001600160a01b03851684611434565b949350505050565b60006104a682611451565b60008080611417858561145b565b600081815260029690960160205260409095205494959350505050565b600082815260028401602052604081208290556113f6848461146e565b60006104a6825490565b6000611467838361147a565b9392505050565b600061146783836114a4565b600082600001828154811061149157611491611bdd565b9060005260206000200154905092915050565b60008181526001830160205260408120546114eb575081546001818101845560008481526020808220909301849055845484825282860190935260409020919091556104a6565b5060006104a6565b60006020828403121561150557600080fd5b81356001600160e01b03198116811461146757600080fd5b60005b83811015611538578181015183820152602001611520565b50506000910152565b602081526000825180602084015261156081604085016020870161151d565b601f01601f19169190910160400192915050565b6001600160a01b038116811461091a57600080fd5b60006020828403121561159b57600080fd5b813561146781611574565b600080604083850312156115b957600080fd5b82356115c481611574565b946020939093013593505050565b60008083601f8401126115e457600080fd5b50813567ffffffffffffffff8111156115fc57600080fd5b6020830191508360208285010111156112a657600080fd5b60008060008060008060008060008060e08b8d03121561163357600080fd5b8a3561163e81611574565b995060208b013561164e81611574565b985060408b0135975060608b0135965060808b013567ffffffffffffffff8082111561167957600080fd5b6116858e838f016115d2565b909850965060a08d013591508082111561169e57600080fd5b6116aa8e838f016115d2565b909650945060c08d01359150808211156116c357600080fd5b506116d08d828e016115d2565b915080935050809150509295989b9194979a5092959850565b6000806000606084860312156116fe57600080fd5b833561170981611574565b9250602084013561171981611574565b929592945050506040919091013590565b634e487b7160e01b600052604160045260246000fd5b60405160a0810167ffffffffffffffff811182821017156117635761176361172a565b60405290565b604051601f8201601f1916810167ffffffffffffffff811182821017156117925761179261172a565b604052919050565b600067ffffffffffffffff8211156117b4576117b461172a565b50601f01601f191660200190565b6000602082840312156117d457600080fd5b813567ffffffffffffffff8111156117eb57600080fd5b8201601f810184136117fc57600080fd5b803561180f61180a8261179a565b611769565b81815285602083850101111561182457600080fd5b81602084016020830137600091810160200191909152949350505050565b60006020828403121561185457600080fd5b5035919050565b6000806040838503121561186e57600080fd5b823561187981611574565b9150602083013561188981611574565b809150509250929050565b600181811c908216806118a857607f821691505b6020821081036118c857634e487b7160e01b600052602260045260246000fd5b50919050565b6000602082840312156118e057600080fd5b815161146781611574565b6000602082840312156118fd57600080fd5b5051919050565b634e487b7160e01b600052601160045260246000fd5b60008261193757634e487b7160e01b600052601260045260246000fd5b500490565b600082601f83011261194d57600080fd5b815161195b61180a8261179a565b81815284602083860101111561197057600080fd5b6113f682602083016020870161151d565b805163ffffffff8116811461199557600080fd5b919050565b6000602082840312156119ac57600080fd5b815167ffffffffffffffff808211156119c457600080fd5b9083019060a082860312156119d857600080fd5b6119e0611740565b825181526020830151828111156119f657600080fd5b611a028782860161193c565b602083015250604083015182811115611a1a57600080fd5b611a268782860161193c565b604083015250606083015182811115611a3e57600080fd5b611a4a8782860161193c565b606083015250611a5c60808401611981565b608082015295945050505050565b80820281158282048414176104a6576104a6611904565b600060018201611a9357611a93611904565b5060010190565b808201808211156104a6576104a6611904565b600060208284031215611abf57600080fd5b8151801515811461146757600080fd5b601f821115610edd57600081815260208120601f850160051c81016020861015611af65750805b601f850160051c820191505b81811015611b1557828155600101611b02565b505050505050565b815167ffffffffffffffff811115611b3757611b3761172a565b611b4b81611b458454611894565b84611acf565b602080601f831160018114611b805760008415611b685750858301515b600019600386901b1c1916600185901b178555611b15565b600085815260208120601f198616915b82811015611baf57888601518255948401946001909101908401611b90565b5085821015611bcd5787850151600019600388901b60f8161c191681555b5050505050600190811b01905550565b634e487b7160e01b600052603260045260246000fdfea26469706673582212200077a0fa267c2f19208a61603f75e461aff66d594b3696a91b911d432b0da5cb64736f6c63430008110033",
  "immutableReferences": {},
  "source": "// SPDX-License-Identifier: MIT\n\npragma solidity ~0.8.17;\n\nimport './Module.sol';\nimport './libs/ERC20.sol';\n\ncontract Share is Module, ERC20, IShare {\n\tuint256     public   maxSupply;\n\tuint256[16] private  __; // reserved storage space\n\n\tfunction initShare(\n\t\taddress host,\n\t\taddress operator,\n\t\tuint256 totalSupply, uint256 maxSupply_,\n\t\tstring calldata name,\n\t\tstring calldata symbol, string calldata description\n\t) external {\n\t\tinitModule(host, description, operator);\n\t\tinitERC20(name, symbol);\n\t\t_registerInterface(Share_Type);\n\n\t\tmaxSupply = maxSupply_;\n\n\t\tIMember m = IDAO(host).member();\n\t\tuint256 total = m.total();\n\t\t// uint256 unit = decimals() ** 10;\n\t\tuint256 unit = m.votes() / totalSupply;\n\t\tIMember.Info memory info;\n\n\t\tfor (uint256 i = 0; i < total; i++) {\n\t\t\tinfo =  m.indexAt(i);\n\t\t\t_mint(m.ownerOf(info.id), info.votes * unit);\n\t\t}\n\t}\n\n\tfunction mint(address account, uint256 amount) public OnlyDAO {\n\t\t//require(amount + totalSupply() <= maxSupply, \"#Share.mint maximum supply limit\");\n\t\tif (amount + totalSupply() > maxSupply) revert MaximumSupplyLimitInShare();\n\t\t_mint(account, amount);\n\t}\n\n}",
  "sourcePath": "/Users/louis/Project/hc/NFTSwap/SmartHolder/contracts/Share.sol",
  "compiler": {
    "name": "solc",
    "version": "0.8.17+commit.8df45f5f.Emscripten.clang"
  },
  "schemaVersion": "3.4.11",
  "updatedAt": "2023-05-11T06:07:52.687Z",
  "devdoc": {
    "kind": "dev",
    "methods": {
      "allowance(address,address)": {
        "details": "See {IERC20-allowance}."
      },
      "approve(address,uint256)": {
        "details": "See {IERC20-approve}. NOTE: If `amount` is the maximum `uint256`, the allowance is not updated on `transferFrom`. This is semantically equivalent to an infinite approval. Requirements: - `spender` cannot be the zero address."
      },
      "balanceOf(address)": {
        "details": "See {IERC20-balanceOf}."
      },
      "decimals()": {
        "details": "Returns the number of decimals used to get its user representation. For example, if `decimals` equals `2`, a balance of `505` tokens should be displayed to a user as `5.05` (`505 / 10 ** 2`). Tokens usually opt for a value of 5, imitating the relationship between Ether and Wei. This is the value {ERC20} uses, unless this function is overridden; NOTE: This information is only used for _display_ purposes: it in no way affects any of the arithmetic of the contract, including {IERC20-balanceOf} and {IERC20-transfer}."
      },
      "decreaseAllowance(address,uint256)": {
        "details": "Atomically decreases the allowance granted to `spender` by the caller. This is an alternative to {approve} that can be used as a mitigation for problems described in {IERC20-approve}. Emits an {Approval} event indicating the updated allowance. Requirements: - `spender` cannot be the zero address. - `spender` must have allowance for the caller of at least `subtractedValue`."
      },
      "increaseAllowance(address,uint256)": {
        "details": "Atomically increases the allowance granted to `spender` by the caller. This is an alternative to {approve} that can be used as a mitigation for problems described in {IERC20-approve}. Emits an {Approval} event indicating the updated allowance. Requirements: - `spender` cannot be the zero address."
      },
      "indexAt(uint256)": {
        "details": "indexAt(index) get account and balance by index "
      },
      "name()": {
        "details": "Returns the name of the token."
      },
      "supportsInterface(bytes4)": {
        "details": "See {IERC165-supportsInterface}. Time complexity O(1), guaranteed to always use less than 30 000 gas."
      },
      "symbol()": {
        "details": "Returns the symbol of the token, usually a shorter version of the name."
      },
      "totalOwners()": {
        "details": "totalOwners() account totalOwners"
      },
      "totalSupply()": {
        "details": "See {IERC20-totalSupply}."
      },
      "transfer(address,uint256)": {
        "details": "See {IERC20-transfer}. Requirements: - `to` cannot be the zero address. - the caller must have a balance of at least `amount`."
      },
      "transferFrom(address,address,uint256)": {
        "details": "See {IERC20-transferFrom}. Emits an {Approval} event indicating the updated allowance. This is not required by the EIP. See the note at the beginning of {ERC20}. NOTE: Does not update the allowance if the current allowance is the maximum `uint256`. Requirements: - `from` and `to` cannot be the zero address. - `from` must have a balance of at least `amount`. - the caller must have allowance for ``from``'s tokens of at least `amount`."
      }
    },
    "version": 1
  },
  "userdoc": {
    "kind": "user",
    "methods": {},
    "version": 1
  }
}