{
  "contractName": "VotePool",
  "abi": [
    {
      "inputs": [
        {
          "internalType": "bytes4",
          "name": "interfaceId",
          "type": "bytes4"
        }
      ],
      "name": "CheckInterfaceNoMatch",
      "type": "error"
    },
    {
      "inputs": [],
      "name": "CreateProposalLifespanLimitError",
      "type": "error"
    },
    {
      "inputs": [],
      "name": "CreateProposalLoopTimeLimitError",
      "type": "error"
    },
    {
      "inputs": [],
      "name": "CreateProposalVotePassEateLimitError",
      "type": "error"
    },
    {
      "inputs": [],
      "name": "DuplicateVoteError",
      "type": "error"
    },
    {
      "inputs": [],
      "name": "PermissionDenied",
      "type": "error"
    },
    {
      "inputs": [],
      "name": "PermissionDeniedForOnlyDAO",
      "type": "error"
    },
    {
      "inputs": [],
      "name": "ProposalAlreadyExistsInVotePool",
      "type": "error"
    },
    {
      "inputs": [],
      "name": "ProposalClosed",
      "type": "error"
    },
    {
      "inputs": [],
      "name": "ProposalDefaultLifespanLimitError",
      "type": "error"
    },
    {
      "inputs": [],
      "name": "ProposalNonExistsInVotePool",
      "type": "error"
    },
    {
      "inputs": [],
      "name": "ProposalNotPassed",
      "type": "error"
    },
    {
      "inputs": [],
      "name": "VoteInsufficientVotes",
      "type": "error"
    },
    {
      "inputs": [],
      "name": "VotesZero",
      "type": "error"
    },
    {
      "inputs": [],
      "name": "VotingMemberNoMatch",
      "type": "error"
    },
    {
      "anonymous": false,
      "inputs": [
        {
          "indexed": true,
          "internalType": "uint256",
          "name": "id",
          "type": "uint256"
        }
      ],
      "name": "Close",
      "type": "event"
    },
    {
      "anonymous": false,
      "inputs": [
        {
          "indexed": false,
          "internalType": "uint256",
          "name": "id",
          "type": "uint256"
        }
      ],
      "name": "Created",
      "type": "event"
    },
    {
      "anonymous": false,
      "inputs": [
        {
          "indexed": true,
          "internalType": "uint256",
          "name": "id",
          "type": "uint256"
        }
      ],
      "name": "Execute",
      "type": "event"
    },
    {
      "anonymous": false,
      "inputs": [
        {
          "indexed": false,
          "internalType": "uint8",
          "name": "version",
          "type": "uint8"
        }
      ],
      "name": "Initialized",
      "type": "event"
    },
    {
      "anonymous": false,
      "inputs": [
        {
          "indexed": true,
          "internalType": "uint256",
          "name": "id",
          "type": "uint256"
        },
        {
          "indexed": false,
          "internalType": "uint256",
          "name": "member",
          "type": "uint256"
        },
        {
          "indexed": false,
          "internalType": "int256",
          "name": "votes",
          "type": "int256"
        }
      ],
      "name": "Vote",
      "type": "event"
    },
    {
      "inputs": [
        {
          "internalType": "bytes4",
          "name": "interfaceId",
          "type": "bytes4"
        }
      ],
      "name": "checkInterface",
      "outputs": [],
      "stateMutability": "view",
      "type": "function"
    },
    {
      "inputs": [],
      "name": "host",
      "outputs": [
        {
          "internalType": "contract IDAO",
          "name": "",
          "type": "address"
        }
      ],
      "stateMutability": "view",
      "type": "function"
    },
    {
      "inputs": [],
      "name": "lifespan",
      "outputs": [
        {
          "internalType": "uint256",
          "name": "",
          "type": "uint256"
        }
      ],
      "stateMutability": "view",
      "type": "function"
    },
    {
      "inputs": [
        {
          "internalType": "bytes4",
          "name": "interfaceId",
          "type": "bytes4"
        }
      ],
      "name": "supportsInterface",
      "outputs": [
        {
          "internalType": "bool",
          "name": "",
          "type": "bool"
        }
      ],
      "stateMutability": "view",
      "type": "function"
    },
    {
      "inputs": [
        {
          "internalType": "address",
          "name": "host",
          "type": "address"
        },
        {
          "internalType": "string",
          "name": "description",
          "type": "string"
        },
        {
          "internalType": "uint256",
          "name": "_lifespan",
          "type": "uint256"
        }
      ],
      "name": "initVotePool",
      "outputs": [],
      "stateMutability": "nonpayable",
      "type": "function"
    },
    {
      "inputs": [
        {
          "internalType": "address",
          "name": "impl",
          "type": "address"
        }
      ],
      "name": "upgrade",
      "outputs": [],
      "stateMutability": "nonpayable",
      "type": "function"
    },
    {
      "inputs": [],
      "name": "description",
      "outputs": [
        {
          "internalType": "string",
          "name": "",
          "type": "string"
        }
      ],
      "stateMutability": "view",
      "type": "function"
    },
    {
      "inputs": [
        {
          "internalType": "uint256",
          "name": "id",
          "type": "uint256"
        }
      ],
      "name": "getProposal",
      "outputs": [
        {
          "components": [
            {
              "internalType": "uint256",
              "name": "id",
              "type": "uint256"
            },
            {
              "internalType": "string",
              "name": "name",
              "type": "string"
            },
            {
              "internalType": "string",
              "name": "description",
              "type": "string"
            },
            {
              "internalType": "address",
              "name": "origin",
              "type": "address"
            },
            {
              "internalType": "uint256",
              "name": "originId",
              "type": "uint256"
            },
            {
              "internalType": "address[]",
              "name": "target",
              "type": "address[]"
            },
            {
              "internalType": "uint256",
              "name": "lifespan",
              "type": "uint256"
            },
            {
              "internalType": "uint256",
              "name": "expiry",
              "type": "uint256"
            },
            {
              "internalType": "uint256",
              "name": "passRate",
              "type": "uint256"
            },
            {
              "internalType": "int256",
              "name": "loopCount",
              "type": "int256"
            },
            {
              "internalType": "uint256",
              "name": "loopTime",
              "type": "uint256"
            },
            {
              "internalType": "uint256",
              "name": "voteTotal",
              "type": "uint256"
            },
            {
              "internalType": "uint256",
              "name": "agreeTotal",
              "type": "uint256"
            },
            {
              "internalType": "uint256",
              "name": "executeTime",
              "type": "uint256"
            },
            {
              "internalType": "uint256",
              "name": "idx",
              "type": "uint256"
            },
            {
              "internalType": "bool",
              "name": "isAgree",
              "type": "bool"
            },
            {
              "internalType": "bool",
              "name": "isClose",
              "type": "bool"
            },
            {
              "internalType": "bool",
              "name": "isExecuted",
              "type": "bool"
            },
            {
              "internalType": "bytes[]",
              "name": "data",
              "type": "bytes[]"
            }
          ],
          "internalType": "struct IVotePool.Proposal",
          "name": "",
          "type": "tuple"
        }
      ],
      "stateMutability": "view",
      "type": "function"
    },
    {
      "inputs": [
        {
          "internalType": "uint256",
          "name": "id",
          "type": "uint256"
        }
      ],
      "name": "exists",
      "outputs": [
        {
          "internalType": "bool",
          "name": "",
          "type": "bool"
        }
      ],
      "stateMutability": "view",
      "type": "function"
    },
    {
      "inputs": [
        {
          "components": [
            {
              "internalType": "uint256",
              "name": "id",
              "type": "uint256"
            },
            {
              "internalType": "string",
              "name": "name",
              "type": "string"
            },
            {
              "internalType": "string",
              "name": "description",
              "type": "string"
            },
            {
              "internalType": "address",
              "name": "origin",
              "type": "address"
            },
            {
              "internalType": "uint256",
              "name": "originId",
              "type": "uint256"
            },
            {
              "internalType": "address[]",
              "name": "target",
              "type": "address[]"
            },
            {
              "internalType": "uint256",
              "name": "lifespan",
              "type": "uint256"
            },
            {
              "internalType": "uint256",
              "name": "expiry",
              "type": "uint256"
            },
            {
              "internalType": "uint256",
              "name": "passRate",
              "type": "uint256"
            },
            {
              "internalType": "int256",
              "name": "loopCount",
              "type": "int256"
            },
            {
              "internalType": "uint256",
              "name": "loopTime",
              "type": "uint256"
            },
            {
              "internalType": "uint256",
              "name": "voteTotal",
              "type": "uint256"
            },
            {
              "internalType": "uint256",
              "name": "agreeTotal",
              "type": "uint256"
            },
            {
              "internalType": "uint256",
              "name": "executeTime",
              "type": "uint256"
            },
            {
              "internalType": "uint256",
              "name": "idx",
              "type": "uint256"
            },
            {
              "internalType": "bool",
              "name": "isAgree",
              "type": "bool"
            },
            {
              "internalType": "bool",
              "name": "isClose",
              "type": "bool"
            },
            {
              "internalType": "bool",
              "name": "isExecuted",
              "type": "bool"
            },
            {
              "internalType": "bytes[]",
              "name": "data",
              "type": "bytes[]"
            }
          ],
          "internalType": "struct IVotePool.Proposal",
          "name": "arg0",
          "type": "tuple"
        }
      ],
      "name": "create",
      "outputs": [],
      "stateMutability": "nonpayable",
      "type": "function"
    },
    {
      "inputs": [
        {
          "internalType": "uint256",
          "name": "id",
          "type": "uint256"
        },
        {
          "internalType": "address[]",
          "name": "target",
          "type": "address[]"
        },
        {
          "internalType": "uint256",
          "name": "lifespan_",
          "type": "uint256"
        },
        {
          "internalType": "uint256",
          "name": "passRate",
          "type": "uint256"
        },
        {
          "internalType": "int256",
          "name": "loopCount",
          "type": "int256"
        },
        {
          "internalType": "uint256",
          "name": "loopTime",
          "type": "uint256"
        },
        {
          "internalType": "string",
          "name": "name",
          "type": "string"
        },
        {
          "internalType": "string",
          "name": "description_",
          "type": "string"
        },
        {
          "internalType": "uint256",
          "name": "originId",
          "type": "uint256"
        },
        {
          "internalType": "bytes[]",
          "name": "data",
          "type": "bytes[]"
        }
      ],
      "name": "create2",
      "outputs": [],
      "stateMutability": "nonpayable",
      "type": "function"
    },
    {
      "inputs": [
        {
          "internalType": "uint256",
          "name": "id",
          "type": "uint256"
        },
        {
          "internalType": "uint256",
          "name": "member",
          "type": "uint256"
        },
        {
          "internalType": "int256",
          "name": "votes",
          "type": "int256"
        },
        {
          "internalType": "bool",
          "name": "tryExecute",
          "type": "bool"
        }
      ],
      "name": "vote",
      "outputs": [],
      "stateMutability": "nonpayable",
      "type": "function"
    },
    {
      "inputs": [
        {
          "internalType": "uint256",
          "name": "id",
          "type": "uint256"
        },
        {
          "internalType": "bool",
          "name": "tryExecute",
          "type": "bool"
        }
      ],
      "name": "tryClose",
      "outputs": [],
      "stateMutability": "nonpayable",
      "type": "function"
    },
    {
      "inputs": [
        {
          "internalType": "uint256",
          "name": "id",
          "type": "uint256"
        }
      ],
      "name": "execute",
      "outputs": [],
      "stateMutability": "nonpayable",
      "type": "function"
    },
    {
      "inputs": [],
      "name": "total",
      "outputs": [
        {
          "internalType": "uint256",
          "name": "",
          "type": "uint256"
        }
      ],
      "stateMutability": "view",
      "type": "function"
    },
    {
      "inputs": [
        {
          "internalType": "uint256",
          "name": "index",
          "type": "uint256"
        }
      ],
      "name": "indexAt",
      "outputs": [
        {
          "components": [
            {
              "internalType": "uint256",
              "name": "id",
              "type": "uint256"
            },
            {
              "internalType": "string",
              "name": "name",
              "type": "string"
            },
            {
              "internalType": "string",
              "name": "description",
              "type": "string"
            },
            {
              "internalType": "address",
              "name": "origin",
              "type": "address"
            },
            {
              "internalType": "uint256",
              "name": "originId",
              "type": "uint256"
            },
            {
              "internalType": "address[]",
              "name": "target",
              "type": "address[]"
            },
            {
              "internalType": "uint256",
              "name": "lifespan",
              "type": "uint256"
            },
            {
              "internalType": "uint256",
              "name": "expiry",
              "type": "uint256"
            },
            {
              "internalType": "uint256",
              "name": "passRate",
              "type": "uint256"
            },
            {
              "internalType": "int256",
              "name": "loopCount",
              "type": "int256"
            },
            {
              "internalType": "uint256",
              "name": "loopTime",
              "type": "uint256"
            },
            {
              "internalType": "uint256",
              "name": "voteTotal",
              "type": "uint256"
            },
            {
              "internalType": "uint256",
              "name": "agreeTotal",
              "type": "uint256"
            },
            {
              "internalType": "uint256",
              "name": "executeTime",
              "type": "uint256"
            },
            {
              "internalType": "uint256",
              "name": "idx",
              "type": "uint256"
            },
            {
              "internalType": "bool",
              "name": "isAgree",
              "type": "bool"
            },
            {
              "internalType": "bool",
              "name": "isClose",
              "type": "bool"
            },
            {
              "internalType": "bool",
              "name": "isExecuted",
              "type": "bool"
            },
            {
              "internalType": "bytes[]",
              "name": "data",
              "type": "bytes[]"
            }
          ],
          "internalType": "struct IVotePool.Proposal",
          "name": "pro",
          "type": "tuple"
        }
      ],
      "stateMutability": "view",
      "type": "function"
    }
  ],
  "bytecode": "0x608060405234801561001057600080fd5b50612bf2806100206000396000f3fe608060405234801561001057600080fd5b50600436106101005760003560e01c80636c4a609411610097578063c7f758a811610066578063c7f758a814610231578063de71249514610244578063f437bc5914610257578063fe0d94c11461027257600080fd5b80636c4a6094146101d65780637284e416146101e9578063878e5e52146101fe578063a42bbccd1461021157600080fd5b80634b3e06c1116100d35780634b3e06c11461017b5780634c6e425b1461018e5780634f558e79146101a1578063678ea396146101c357600080fd5b806301ffc9a71461010557806302d3abb5146101475780630900f0101461015e5780632ddbd13a14610173575b600080fd5b610132610113366004611f08565b6001600160e01b03191660009081526001602052604090205460ff1690565b60405190151581526020015b60405180910390f35b61015060075481565b60405190815260200161013e565b61017161016c366004611f5e565b610285565b005b600554610150565b6101716101893660046121bd565b6102cc565b61017161019c366004611f08565b610330565b6101326101af3660046122a6565b600090815260046020526040902054151590565b6101716101d13660046122d8565b61037e565b6101716101e4366004612319565b6107f5565b6101f1610843565b60405161013e91906123c2565b61017161020c3660046123d5565b6108d5565b61022461021f3660046122a6565b610bc3565b60405161013e9190612608565b61022461023f3660046122a6565b610f97565b61017161025236600461276d565b6112e5565b6002546040516001600160a01b03909116815260200161013e565b6101716102803660046122a6565b61154b565b61028d61170b565b6102aa57604051631b4004a360e31b815260040160405180910390fd5b600080546001600160a01b0319166001600160a01b0392909216919091179055565b6102d4611d44565b8a81526080810183905260a081018a905260c0810189905261010081018890526101208101879052610140810186905260208101859052604081018490526102408101829052610323816108d5565b5050505050505050505050565b6001600160e01b0319811660009081526001602052604090205460ff1661037b57604051632aae78ef60e01b81526001600160e01b0319821660048201526024015b60405180910390fd5b50565b63678ea39661038b61170b565b61049457600260009054906101000a90046001600160a01b03166001600160a01b031663e3f6b5446040518163ffffffff1660e01b8152600401602060405180830381865afa1580156103e2573d6000803e3d6000fd5b505050506040513d601f19601f82011682018060405250810190610406919061279d565b60405163a8a555c560e01b8152336004820152602481018390526001600160a01b03919091169063a8a555c590604401602060405180830381865afa158015610453573d6000803e3d6000fd5b505050506040513d601f19601f8201168201806040525081019061047791906127ba565b61049457604051630782484160e21b815260040160405180910390fd5b600061049f86611827565b90506000600260009054906101000a90046001600160a01b03166001600160a01b031663e3f6b5446040518163ffffffff1660e01b8152600401602060405180830381865afa1580156104f6573d6000803e3d6000fd5b505050506040513d601f19601f8201168201806040525081019061051a919061279d565b6001600160a01b031663ae99aa3c876040518263ffffffff1660e01b815260040161054791815260200190565b600060405180830381865afa158015610564573d6000803e3d6000fd5b505050506040513d6000823e601f3d908101601f1916820160405261058c9190810190612838565b9050846000036105af5760405163dd3b8d8f60e01b815260040160405180910390fd5b600f820154610100900460ff16156105da57604051631446e50360e01b815260040160405180910390fd5b600254604080516338fdad5160e21b8152905133926001600160a01b03169163e3f6b5449160048083019260209291908290030181865afa158015610623573d6000803e3d6000fd5b505050506040513d601f19601f82011682018060405250810190610647919061279d565b6001600160a01b0316636352211e886040518263ffffffff1660e01b815260040161067491815260200190565b602060405180830381865afa158015610691573d6000803e3d6000fd5b505050506040513d601f19601f820116820180604052508101906106b5919061279d565b6001600160a01b0316146106dc576040516308b74f1560e21b815260040160405180910390fd5b600087815260066020908152604080832089845290915290205415610714576040516314d2b76760e11b815260040160405180910390fd5b806080015163ffffffff1661072886611865565b11156107475760405163accf979360e01b815260040160405180910390fd5b6000878152600660209081526040808320898452909152902085905561076c85611865565b82600b01600082825461077f919061291e565b909155505060008513156107a7578482600c0160008282546107a1919061291e565b90915550505b604080518781526020810187905288917f1ad6cbfa9912ec69279a6634788918d5c8e0236b45609178636427bee8756ed7910160405180910390a26107ec87856112e5565b50505050505050565b6107fd611883565b61080d630ddf27bf60e01b6119b6565b600280546001600160a01b0319166001600160a01b038516179055600361083483826129b9565b5061083e81611a38565b505050565b60606003805461085290612931565b80601f016020809104026020016040519081016040528092919081815260200182805461087e90612931565b80156108cb5780601f106108a0576101008083540402835291602001916108cb565b820191906000526020600020905b8154815290600101906020018083116108ae57829003601f168201915b5050505050905090565b600260009054906101000a90046001600160a01b03166001600160a01b031663e3f6b5446040518163ffffffff1660e01b8152600401602060405180830381865afa158015610928573d6000803e3d6000fd5b505050506040513d601f19601f8201168201806040525081019061094c919061279d565b6001600160a01b0316336001600160a01b03161461097657610976816080015163dc6b0b72611a60565b8051600090815260046020526040902054156109a557604051631d852e8d60e31b815260040160405180910390fd5b611388816101000151116109cc5760405163eda2bb9960e01b815260040160405180910390fd5b60c0810151156109fd576007548160c0015110156109fd5760405163c0c4b93d60e01b815260040160405180910390fd5b61012081015115610a2f57603c8161014001511015610a2f57604051630d67e9dd60e01b815260040160405180910390fd5b8051600090815260046020908152604090912082518155908201516001820190610a5990826129b9565b5060408201516002820190610a6e90826129b9565b5060a08201518051610a8a916005840191602090910190611de5565b506003810180546001600160a01b03191633179055608082015160048201556102408201518051610ac5916010840191602090910190611e4a565b5060c08201516006820181905515610aeb5760c0820151610ae6904261291e565b610aee565b60005b600782015561010082015161271010610b0c57816101000151610b10565b6127105b60088201556101208201516009820155610140820151600a8201556000600b8201819055600c8201819055600d820181905560058054600e840155600f8301805462ffffff1916905583518154600181018355919092527f036b6384b5eca791c62761152d0c79bb0604c104a5fb6f4eb0703f3154bb3db0015581516040519081527f06acbfb32bcf8383f3b0a768b70ac9ec234ea0f2d3b9c77fa6a2de69b919aad19060200160405180910390a15050565b610bcb611d44565b6005548210610c1c5760405162461bcd60e51b815260206004820181905260248201527f23566f7465506f6f6c23617420496e646578206f7574206f6620626f756e64736044820152606401610372565b6004600060058481548110610c3357610c33612a79565b906000526020600020015481526020019081526020016000206040518061026001604052908160008201548152602001600182018054610c7290612931565b80601f0160208091040260200160405190810160405280929190818152602001828054610c9e90612931565b8015610ceb5780601f10610cc057610100808354040283529160200191610ceb565b820191906000526020600020905b815481529060010190602001808311610cce57829003601f168201915b50505050508152602001600282018054610d0490612931565b80601f0160208091040260200160405190810160405280929190818152602001828054610d3090612931565b8015610d7d5780601f10610d5257610100808354040283529160200191610d7d565b820191906000526020600020905b815481529060010190602001808311610d6057829003601f168201915b505050505081526020016003820160009054906101000a90046001600160a01b03166001600160a01b03166001600160a01b031681526020016004820154815260200160058201805480602002602001604051908101604052809291908181526020018280548015610e1857602002820191906000526020600020905b81546001600160a01b03168152600190910190602001808311610dfa575b5050509183525050600682015460208083019190915260078301546040808401919091526008840154606084015260098401546080840152600a84015460a0840152600b84015460c0840152600c84015460e0840152600d84015461010080850191909152600e850154610120850152600f85015460ff8082161515610140870152918104821615156101608601526201000090041615156101808401526010840180548251818502810185019093528083526101a090940193919290919060009084015b82821015610f89578382906000526020600020018054610efc90612931565b80601f0160208091040260200160405190810160405280929190818152602001828054610f2890612931565b8015610f755780601f10610f4a57610100808354040283529160200191610f75565b820191906000526020600020905b815481529060010190602001808311610f5857829003601f168201915b505050505081526020019060010190610edd565b505050915250909392505050565b610f9f611d44565b610fa882611827565b6040518061026001604052908160008201548152602001600182018054610fce90612931565b80601f0160208091040260200160405190810160405280929190818152602001828054610ffa90612931565b80156110475780601f1061101c57610100808354040283529160200191611047565b820191906000526020600020905b81548152906001019060200180831161102a57829003601f168201915b5050505050815260200160028201805461106090612931565b80601f016020809104026020016040519081016040528092919081815260200182805461108c90612931565b80156110d95780601f106110ae576101008083540402835291602001916110d9565b820191906000526020600020905b8154815290600101906020018083116110bc57829003601f168201915b505050505081526020016003820160009054906101000a90046001600160a01b03166001600160a01b03166001600160a01b03168152602001600482015481526020016005820180548060200260200160405190810160405280929190818152602001828054801561117457602002820191906000526020600020905b81546001600160a01b03168152600190910190602001808311611156575b5050509183525050600682015460208083019190915260078301546040808401919091526008840154606084015260098401546080840152600a84015460a0840152600b84015460c0840152600c84015460e0840152600d84015461010080850191909152600e850154610120850152600f85015460ff8082161515610140870152918104821615156101608601526201000090041615156101808401526010840180548251818502810185019093528083526101a090940193919290919060009084015b82821015610f8957838290600052602060002001805461125890612931565b80601f016020809104026020016040519081016040528092919081815260200182805461128490612931565b80156112d15780601f106112a6576101008083540402835291602001916112d1565b820191906000526020600020905b8154815290600101906020018083116112b457829003601f168201915b505050505081526020019060010190611239565b60006112f083611827565b600f810154909150610100900460ff161561131e57604051631446e50360e01b815260040160405180910390fd5b600254604080516338fdad5160e21b815290516000926001600160a01b03169163e3f6b5449160048083019260209291908290030181865afa158015611368573d6000803e3d6000fd5b505050506040513d601f19601f8201168201806040525081019061138c919061279d565b6001600160a01b031663e168c3ec6040518163ffffffff1660e01b8152600401602060405180830381865afa1580156113c9573d6000803e3d6000fd5b505050506040513d601f19601f820116820180604052508101906113ed9190612a8f565b60088301546007840154919250901580159061140d575042836007015411155b1561145f57600f8301805461ff001916610100179055600b830154600c84015482919061143c90612710612aa8565b6114469190612abf565b600f8501805460ff1916929091119190911790556114e8565b808284600c01546127106114739190612aa8565b61147d9190612abf565b111561149957600f8301805461ffff19166101011790556114e8565b6114a581612710612ae1565b8284600c015485600b01546114ba9190612ae1565b6114c690612710612aa8565b6114d09190612abf565b11156114e857600f8301805461ffff19166101001790555b600f830154610100900460ff16156115445760405185907fbf67515a38ee520223d32c1266d52101c30d936ed1f3e436c8caeb0a43cb06bf90600090a28380156115365750600f83015460ff165b15611544576115448561154b565b5050505050565b600061155682611827565b600f81015490915060ff1661157e5760405163c8c93ba360e01b815260040160405180910390fd5b600f81015462010000900460ff16156115f35760405162461bcd60e51b815260206004820152603160248201527f23566f7465506f6f6c2e65786563757465205265736f6c7574696f6e20686173604482015270081899595b881a5b5c1b195b595b9d1959607a1b6064820152608401610372565b6009810154156116b9574281600a015482600d0154611612919061291e565b106116795760405162461bcd60e51b815260206004820152603160248201527f23566f7465506f6f6c2e6578656375746520457865637574696f6e20696e74656044820152701c9d985b081a5cc81d1bdbc81cda1bdc9d607a1b6064820152608401610372565b6000816009015413156116ab5761168f81611c65565b6009810180549060006116a183612af4565b91905055506116d6565b6116b481611c65565b6116d6565b6116c281611c65565b600f8101805462ff00001916620100001790555b42600d82015560405182907fddb556f1d2c1ec821e910b019d3685b229db152a0ecd517ca7e24b8bd713928990600090a25050565b6002546040805163570ca73560e01b815290516000926001600160a01b03169163570ca7359160048083019260209291908290030181865afa158015611755573d6000803e3d6000fd5b505050506040513d601f19601f82011682018060405250810190611779919061279d565b6001600160a01b0316336001600160a01b03161461182157600260009054906101000a90046001600160a01b03166001600160a01b031663ebf0c7176040518163ffffffff1660e01b8152600401602060405180830381865afa1580156117e4573d6000803e3d6000fd5b505050506040513d601f19601f82011682018060405250810190611808919061279d565b6001600160a01b0316336001600160a01b031614905090565b50600190565b6000818152600460205260408120546118535760405163787b1f4f60e11b815260040160405180910390fd5b50600090815260046020526040902090565b6000808212611874578161187d565b61187d82612b11565b92915050565b600054600160a81b900460ff16158080156118ab57506000546001600160a01b90910460ff16105b806118cc5750303b1580156118cc5750600054600160a01b900460ff166001145b61192f5760405162461bcd60e51b815260206004820152602e60248201527f496e697469616c697a61626c653a20636f6e747261637420697320616c72656160448201526d191e481a5b9a5d1a585b1a5e995960921b6064820152608401610372565b6000805460ff60a01b1916600160a01b179055801561195c576000805460ff60a81b1916600160a81b1790555b61196c6301ffc9a760e01b6119b6565b801561037b576000805460ff60a81b19169055604051600181527f7f26b83ff96e1f2b6a682f133852f6798a09c465da95921460cefb38474024989060200160405180910390a150565b6001600160e01b03198082169003611a105760405162461bcd60e51b815260206004820152601c60248201527f4552433136353a20696e76616c696420696e74657266616365206964000000006044820152606401610372565b6001600160e01b0319166000908152600160208190526040909120805460ff19169091179055565b61a8c0811015611a5b57604051632107419760e11b815260040160405180910390fd5b600755565b611a6861170b565b611c6157600254604080516338fdad5160e21b8152905133926001600160a01b03169163e3f6b5449160048083019260209291908290030181865afa158015611ab5573d6000803e3d6000fd5b505050506040513d601f19601f82011682018060405250810190611ad9919061279d565b6001600160a01b0316636352211e846040518263ffffffff1660e01b8152600401611b0691815260200190565b602060405180830381865afa158015611b23573d6000803e3d6000fd5b505050506040513d601f19601f82011682018060405250810190611b47919061279d565b6001600160a01b0316141580611c435750600260009054906101000a90046001600160a01b03166001600160a01b031663e3f6b5446040518163ffffffff1660e01b8152600401602060405180830381865afa158015611bab573d6000803e3d6000fd5b505050506040513d601f19601f82011682018060405250810190611bcf919061279d565b604051635e7dc20b60e01b815260048101849052602481018390526001600160a01b039190911690635e7dc20b90604401602060405180830381865afa158015611c1d573d6000803e3d6000fd5b505050506040513d601f19601f82011682018060405250810190611c4191906127ba565b155b15611c6157604051630782484160e21b815260040160405180910390fd5b5050565b60005b6005820154811015611c6157600080836005018381548110611c8c57611c8c612a79565b6000918252602090912001546010850180546001600160a01b039092169134919086908110611cbd57611cbd612a79565b90600052602060002001604051611cd49190612b2d565b60006040518083038185875af1925050503d8060008114611d11576040519150601f19603f3d011682016040523d82523d6000602084013e611d16565b606091505b5080519193509150602082018380611d2c578282fd5b50505050508080611d3c90612ba3565b915050611c68565b60405180610260016040528060008152602001606081526020016060815260200160006001600160a01b031681526020016000815260200160608152602001600081526020016000815260200160008152602001600081526020016000815260200160008152602001600081526020016000815260200160008152602001600015158152602001600015158152602001600015158152602001606081525090565b828054828255906000526020600020908101928215611e3a579160200282015b82811115611e3a57825182546001600160a01b0319166001600160a01b03909116178255602090920191600190910190611e05565b50611e46929150611e9c565b5090565b828054828255906000526020600020908101928215611e90579160200282015b82811115611e905782518290611e8090826129b9565b5091602001919060010190611e6a565b50611e46929150611eb1565b5b80821115611e465760008155600101611e9d565b80821115611e46576000611ec58282611ece565b50600101611eb1565b508054611eda90612931565b6000825580601f10611eea575050565b601f01602090049060005260206000209081019061037b9190611e9c565b600060208284031215611f1a57600080fd5b81356001600160e01b031981168114611f3257600080fd5b9392505050565b6001600160a01b038116811461037b57600080fd5b8035611f5981611f39565b919050565b600060208284031215611f7057600080fd5b8135611f3281611f39565b634e487b7160e01b600052604160045260246000fd5b604051610260810167ffffffffffffffff81118282101715611fb557611fb5611f7b565b60405290565b60405160a0810167ffffffffffffffff81118282101715611fb557611fb5611f7b565b604051601f8201601f1916810167ffffffffffffffff8111828210171561200757612007611f7b565b604052919050565b600067ffffffffffffffff82111561202957612029611f7b565b5060051b60200190565b600082601f83011261204457600080fd5b813560206120596120548361200f565b611fde565b82815260059290921b8401810191818101908684111561207857600080fd5b8286015b8481101561209c57803561208f81611f39565b835291830191830161207c565b509695505050505050565b600067ffffffffffffffff8211156120c1576120c1611f7b565b50601f01601f191660200190565b60006120dd612054846120a7565b90508281528383830111156120f157600080fd5b828260208301376000602084830101529392505050565b600082601f83011261211957600080fd5b611f32838335602085016120cf565b600082601f83011261213957600080fd5b813560206121496120548361200f565b82815260059290921b8401810191818101908684111561216857600080fd5b8286015b8481101561209c57803567ffffffffffffffff81111561218c5760008081fd5b8701603f8101891361219e5760008081fd5b6121af8986830135604084016120cf565b84525091830191830161216c565b6000806000806000806000806000806101408b8d0312156121dd57600080fd5b8a35995060208b013567ffffffffffffffff808211156121fc57600080fd5b6122088e838f01612033565b9a5060408d0135995060608d0135985060808d0135975060a08d0135965060c08d013591508082111561223a57600080fd5b6122468e838f01612108565b955060e08d013591508082111561225c57600080fd5b6122688e838f01612108565b94506101008d013593506101208d013591508082111561228757600080fd5b506122948d828e01612128565b9150509295989b9194979a5092959850565b6000602082840312156122b857600080fd5b5035919050565b801515811461037b57600080fd5b8035611f59816122bf565b600080600080608085870312156122ee57600080fd5b843593506020850135925060408501359150606085013561230e816122bf565b939692955090935050565b60008060006060848603121561232e57600080fd5b833561233981611f39565b9250602084013567ffffffffffffffff81111561235557600080fd5b61236186828701612108565b925050604084013590509250925092565b60005b8381101561238d578181015183820152602001612375565b50506000910152565b600081518084526123ae816020860160208601612372565b601f01601f19169290920160200192915050565b602081526000611f326020830184612396565b6000602082840312156123e757600080fd5b813567ffffffffffffffff808211156123ff57600080fd5b90830190610260828603121561241457600080fd5b61241c611f91565b8235815260208301358281111561243257600080fd5b61243e87828601612108565b60208301525060408301358281111561245657600080fd5b61246287828601612108565b60408301525061247460608401611f4e565b60608201526080830135608082015260a08301358281111561249557600080fd5b6124a187828601612033565b60a08301525060c0838101359082015260e08084013590820152610100808401359082015261012080840135908201526101408084013590820152610160808401359082015261018080840135908201526101a080840135908201526101c080840135908201526101e06125168185016122cd565b908201526102006125288482016122cd565b9082015261022061253a8482016122cd565b90820152610240838101358381111561255257600080fd5b61255e88828701612128565b918301919091525095945050505050565b600081518084526020808501945080840160005b838110156125a85781516001600160a01b031687529582019590820190600101612583565b509495945050505050565b600081518084526020808501808196508360051b8101915082860160005b858110156125fb5782840389526125e9848351612396565b988501989350908401906001016125d1565b5091979650505050505050565b602081528151602082015260006020830151610260806040850152612631610280850183612396565b91506040850151601f198086850301606087015261264f8483612396565b93506060870151915061266d60808701836001600160a01b03169052565b608087015160a087015260a08701519150808685030160c0870152612692848361256f565b60c088015160e08881019190915288015161010080890191909152880151610120808901919091528801516101408089019190915288015161016080890191909152880151610180808901919091528801516101a0808901919091528801516101c0808901919091528801516101e08089019190915288015190945091506102006127208188018415159052565b87015191506102206127358782018415159052565b870151915061024061274a8782018415159052565b87015186850390910183870152905061276383826125b3565b9695505050505050565b6000806040838503121561278057600080fd5b823591506020830135612792816122bf565b809150509250929050565b6000602082840312156127af57600080fd5b8151611f3281611f39565b6000602082840312156127cc57600080fd5b8151611f32816122bf565b600082601f8301126127e857600080fd5b81516127f6612054826120a7565b81815284602083860101111561280b57600080fd5b61281c826020830160208701612372565b949350505050565b805163ffffffff81168114611f5957600080fd5b60006020828403121561284a57600080fd5b815167ffffffffffffffff8082111561286257600080fd5b9083019060a0828603121561287657600080fd5b61287e611fbb565b8251815260208301518281111561289457600080fd5b6128a0878286016127d7565b6020830152506040830151828111156128b857600080fd5b6128c4878286016127d7565b6040830152506060830151828111156128dc57600080fd5b6128e8878286016127d7565b6060830152506128fa60808401612824565b608082015295945050505050565b634e487b7160e01b600052601160045260246000fd5b8082018082111561187d5761187d612908565b600181811c9082168061294557607f821691505b60208210810361296557634e487b7160e01b600052602260045260246000fd5b50919050565b601f82111561083e57600081815260208120601f850160051c810160208610156129925750805b601f850160051c820191505b818110156129b15782815560010161299e565b505050505050565b815167ffffffffffffffff8111156129d3576129d3611f7b565b6129e7816129e18454612931565b8461296b565b602080601f831160018114612a1c5760008415612a045750858301515b600019600386901b1c1916600185901b1785556129b1565b600085815260208120601f198616915b82811015612a4b57888601518255948401946001909101908401612a2c565b5085821015612a695787850151600019600388901b60f8161c191681555b5050505050600190811b01905550565b634e487b7160e01b600052603260045260246000fd5b600060208284031215612aa157600080fd5b5051919050565b808202811582820484141761187d5761187d612908565b600082612adc57634e487b7160e01b600052601260045260246000fd5b500490565b8181038181111561187d5761187d612908565b6000600160ff1b8201612b0957612b09612908565b506000190190565b6000600160ff1b8201612b2657612b26612908565b5060000390565b6000808354612b3b81612931565b60018281168015612b535760018114612b6857612b97565b60ff1984168752821515830287019450612b97565b8760005260208060002060005b85811015612b8e5781548a820152908401908201612b75565b50505082870194505b50929695505050505050565b600060018201612bb557612bb5612908565b506001019056fea2646970667358221220cc281128cca950d1e822d59735191a68aae2de16e0a787e4bf64476f7c32082364736f6c63430008110033",
  "immutableReferences": {},
  "source": "// SPDX-License-Identifier: MIT\npragma solidity ~0.8.17;\n\npragma experimental ABIEncoderV2;\n\nimport './libs/Interface.sol';\nimport './libs/Constants.sol';\nimport './libs/ERC165.sol';\nimport './libs/Upgrade.sol';\nimport './libs/Check.sol';\n\ncontract VotePool is Upgrade, ERC165, PermissionCheck, IVotePool {\n\tusing Address for address;\n\tusing SafeMath for uint256;\n\n\tbytes4 internal constant DAO_ID = 0xc7b55336;\n\tbytes4 internal constant VotePool_ID = 0x0ddf27bf;\n\n\t// define props\n\tstring private _description;\n\t// proposal id => Proposal\n\tmapping(uint256 => Proposal) private _proposalMap; // \n\tuint256[] private _proposalList; // \n\t// proposal id => map( member id => votes )\n\tmapping(uint256 => mapping(uint256 => int256)) private _votes; // \n\n\t// @public\n\tuint256 public lifespan; // \n\n\tuint256[16] private __; // reserved storage space\n\n\t/**\n\t * @dev Init vote pool\n\t */\n\tfunction initVotePool(address host, string memory description, uint256 _lifespan) external {\n\t\tinitERC165();\n\t\t_registerInterface(VotePool_Type);\n\t\t_host = IDAO(host);\n\t\t_description = description;\n\t\tsetLifespan(_lifespan);\n\t}\n\n\tfunction isPermissionDAO() view internal override returns (bool) {\n\t\tif (msg.sender != address(_host.operator()))\n\t\t\treturn msg.sender == address(_host.root());\n\t\treturn true;\n\t}\n\n\t/**\n\t * @dev Upgrade vote pool\n\t */\n\tfunction upgrade(address impl) public OnlyDAO {\n\t\t_impl = impl;\n\t}\n\n\tfunction setLifespan(uint256 _lifespan) private {\n\t\t// require(_lifespan >= 12 hours, \"#VotePool.setLifespan proposal lifespan not less than 12 hours\");\n\t\tif (_lifespan < 12 hours) revert ProposalDefaultLifespanLimitError();\n\t\tlifespan = _lifespan;\n\t}\n\n\t/**\n\t * @dev Returns the description of vote pools\n\t */\n\tfunction description() view external returns (string memory) {\n\t\treturn _description;\n\t}\n\n\t/**\n\t * @dev Gettings proposal object from id\n\t */\n\tfunction getProposal(uint256 id) view public returns (Proposal memory) {\n\t\treturn proposal(id);\n\t}\n\n\tfunction proposal(uint256 id) view private returns (Proposal storage) {\n\t\t// require(exists(id), \"#VotePool#proposal proposal not exists\");\n\t\tif (!exists(id)) revert ProposalNonExistsInVotePool();\n\t\treturn _proposalMap[id];\n\t}\n\n\t/**\n\t * @dev Return whether the proposal object exists\n\t */\n\tfunction exists(uint256 id) view public returns (bool) {\n\t\treturn _proposalMap[id].id != 0;\n\t}\n\n\t/**\n\t * @dev Create proposal object from proposal arg\n\t */\n\tfunction create(Proposal memory arg0) public {\n\t\t// check permission\n\t\tif (msg.sender != address(_host.member())) {\n\t\t\tcheckFrom(arg0.originId, Action_VotePool_Create);\n\t\t}\n\n\t\tif (exists(arg0.id)) revert ProposalAlreadyExistsInVotePool();\n\n\t\tif (arg0.passRate <= 5_000) revert CreateProposalVotePassEateLimitError();\n\n\t\tif (arg0.lifespan != 0) {\n\t\t\tif (arg0.lifespan < lifespan) revert CreateProposalLifespanLimitError();\n\t\t}\n\t\tif (arg0.loopCount != 0) {\n\t\t\tif (arg0.loopTime < 1 minutes) revert CreateProposalLoopTimeLimitError(); \n\t\t}\n\t\tProposal storage obj = _proposalMap[arg0.id];\n\n\t\tobj.id          = arg0.id;\n\t\tobj.name        = arg0.name;\n\t\tobj.description = arg0.description;\n\t\tobj.target      = arg0.target;\n\t\tobj.origin      = msg.sender;\n\t\tobj.originId    = arg0.originId;\n\t\tobj.data        = arg0.data;\n\t\tobj.lifespan    = arg0.lifespan;\n\t\tobj.expiry      = arg0.lifespan == 0 ? 0: block.timestamp + arg0.lifespan;\n\t\tobj.passRate    = arg0.passRate > 10_000 ? 10_000: arg0.passRate;\n\t\tobj.loopCount   = arg0.loopCount;\n\t\tobj.loopTime    = arg0.loopTime;\n\t\tobj.voteTotal   = 0;\n\t\tobj.agreeTotal  = 0;\n\t\tobj.executeTime = 0;\n\t\tobj.idx         = _proposalList.length;\n\t\tobj.isAgree     = false;\n\t\tobj.isClose     = false;\n\t\tobj.isExecuted  = false;\n\n\t\t_proposalList.push(arg0.id);\n\n\t\temit Created(arg0.id);\n\t}\n\n\t/**\n\t * @dev Create proposal object\n\t */\n\tfunction create2(\n\t\tuint256       id,          address[] memory target,\n\t\tuint256       lifespan_,    uint256 passRate,\n\t\tint256        loopCount,   uint256 loopTime,\n\t\tstring memory name,        string memory description_,\n\t\tuint256       originId,    bytes[] memory  data\n\t) external {\n\t\tProposal memory pro;\n\t\tpro.id          = id;\n\t\tpro.originId    = originId; // member id\n\t\tpro.target      = target;\n\t\tpro.lifespan    = lifespan_;\n\t\tpro.passRate    = passRate;\n\t\tpro.loopCount   = loopCount;\n\t\tpro.loopTime    = loopTime;\n\t\tpro.name        = name;\n\t\tpro.description = description_;\n\t\tpro.data        = data;\n\t\tcreate(pro);\n\t}\n\n\tfunction abs(int256 value) pure internal returns (uint256) {\n\t\treturn value < 0 ? uint256(-value): uint256(value);\n\t}\n\n\t/**\n\t * @dev Vote on the proposal\n\t */\n\tfunction vote(uint256 id, uint256 member, int256 votes, bool tryExecute) external Check(Action_VotePool_Vote) {\n\t\tProposal storage obj = proposal(id);\n\t\tIMember.Info memory info = _host.member().getMemberInfo(member);\n\n\t\tif (votes == 0) revert VotesZero();\n\t\tif (obj.isClose) revert ProposalClosed();\n\t\tif (_host.member().ownerOf(member) != msg.sender) revert VotingMemberNoMatch();\n\t\tif (_votes[id][member] != 0) revert DuplicateVoteError();\n\t\tif (abs(votes) > info.votes) revert VoteInsufficientVotes();\n\n\t\t_votes[id][member] = votes;\n\n\t\tobj.voteTotal += abs(votes);\n\n\t\tif (votes > 0) {\n\t\t\tobj.agreeTotal += uint256(votes);\n\t\t}\n\n\t\temit Vote(id, member, votes);\n\n\t\ttryClose(id, tryExecute); // try close\n\t}\n\n\t/**\n\t* @dev try close proposal\n\t*/\n\tfunction tryClose(uint256 id, bool tryExecute) public override {\n\t\tProposal storage obj = proposal(id);\n\t\t// require(!obj.isClose, \"#VotePool.tryClose Voting has been closed\");\n\t\tif (obj.isClose) revert ProposalClosed();\n\n\t\tuint256 votes  = _host.member().votes();\n\t\tuint256 passRate = obj.passRate;\n\n\t\tif ((obj.expiry != 0 && obj.expiry <= block.timestamp)) { // block time expiry\n\t\t\t// Include only participating members\n\t\t\tobj.isClose = true;\n\t\t\tobj.isAgree = (obj.agreeTotal * 10_000 / obj.voteTotal) > passRate;\n\t\t} else {\n\t\t\tif ((obj.agreeTotal * 10_000 / votes) > passRate) { // test passRate\n\t\t\t\tobj.isClose = true;\n\t\t\t\tobj.isAgree = true; // complete\n\t\t\t} else if (((obj.voteTotal - obj.agreeTotal) * 10_000 / votes) > 10_000 - passRate) { // test rejectRate\n\t\t\t\tobj.isClose = true;\n\t\t\t\tobj.isAgree = false; // complete\n\t\t\t}\n\t\t}\n\n\t\tif (obj.isClose) {\n\t\t\temit Close(id);\n\t\t\tif (tryExecute && obj.isAgree) {\n\t\t\t\texecute(id);\n\t\t\t}\n\t\t}\n\t}\n\n\t/**\n\t * @dev Execute proposal resolution\n\t */\n\tfunction execute(uint256 id) public {\n\t\tProposal storage obj = proposal(id);\n\n\t\tif (!obj.isAgree) revert ProposalNotPassed();\n\t\trequire(!obj.isExecuted, \"#VotePool.execute Resolution has been implemented\");\n\n\t\tif (obj.loopCount != 0) {\n\t\t\trequire(obj.executeTime + obj.loopTime < block.timestamp, \"#VotePool.execute Execution interval is too short\");\n\t\t\tif (obj.loopCount > 0) {\n\t\t\t\texec(obj);\n\t\t\t\tobj.loopCount--;\n\t\t\t} else { // permanent loop\n\t\t\t\texec(obj);\n\t\t\t}\n\t\t} else { // execute once\n\t\t\texec(obj);\n\t\t\tobj.isExecuted = true;\n\t\t}\n\n\t\tobj.executeTime = block.timestamp;\n\n\t\temit Execute(id);\n\t}\n\n\t/**\n\t * @dev Execute proposal resolution, internal methods\n\t */\n\tfunction exec(Proposal storage obj) internal {\n\t\tfor (uint256 i = 0; i < obj.target.length; i++) {\n\t\t\t(bool suc, bytes memory _data) = obj.target[i].call{ value: msg.value }(obj.data[i]);\n\t\t\tassembly {\n\t\t\t\tlet len := mload(_data)\n\t\t\t\tlet data := add(_data, 0x20)\n\t\t\t\tswitch suc\n\t\t\t\tcase 0 { revert(data, len) }\n\t\t\t\tdefault {\n\t\t\t\t\t// return(data, len)\n\t\t\t\t}\n\t\t\t}\n\t\t}\n\t}\n\n\t/**\n\t * @dev Returns the total of Proposal object\n\t */\n\tfunction total() view public returns (uint256) {\n\t\treturn _proposalList.length;\n\t}\n\n\t/**\n\t * @dev Returns the Proposal object from index\n\t */\n\tfunction indexAt(uint256 index) view public returns (Proposal memory pro) {\n\t\trequire(index < _proposalList.length, \"#VotePool#at Index out of bounds\");\n\t\tpro = _proposalMap[_proposalList[index]];\n\t}\n\n}",
  "sourcePath": "/Users/louis/Project/hc/NFTSwap/SmartHolder/contracts/VotePool.sol",
  "compiler": {
    "name": "solc",
    "version": "0.8.17+commit.8df45f5f.Emscripten.clang"
  },
  "schemaVersion": "3.4.11",
  "updatedAt": "2023-05-11T06:07:52.695Z",
  "devdoc": {
    "kind": "dev",
    "methods": {
      "create((uint256,string,string,address,uint256,address[],uint256,uint256,uint256,int256,uint256,uint256,uint256,uint256,uint256,bool,bool,bool,bytes[]))": {
        "details": "Create proposal object from proposal arg"
      },
      "create2(uint256,address[],uint256,uint256,int256,uint256,string,string,uint256,bytes[])": {
        "details": "Create proposal object"
      },
      "description()": {
        "details": "Returns the description of vote pools"
      },
      "execute(uint256)": {
        "details": "Execute proposal resolution"
      },
      "exists(uint256)": {
        "details": "Return whether the proposal object exists"
      },
      "getProposal(uint256)": {
        "details": "Gettings proposal object from id"
      },
      "indexAt(uint256)": {
        "details": "Returns the Proposal object from index"
      },
      "initVotePool(address,string,uint256)": {
        "details": "Init vote pool"
      },
      "supportsInterface(bytes4)": {
        "details": "See {IERC165-supportsInterface}. Time complexity O(1), guaranteed to always use less than 30 000 gas."
      },
      "total()": {
        "details": "Returns the total of Proposal object"
      },
      "tryClose(uint256,bool)": {
        "details": "try close proposal"
      },
      "upgrade(address)": {
        "details": "Upgrade vote pool"
      },
      "vote(uint256,uint256,int256,bool)": {
        "details": "Vote on the proposal"
      }
    },
    "version": 1
  },
  "userdoc": {
    "kind": "user",
    "methods": {},
    "version": 1
  }
}