{
  "contractName": "VotePool",
  "abi": [
    {
      "anonymous": false,
      "inputs": [
        {
          "indexed": true,
          "internalType": "uint256",
          "name": "id",
          "type": "uint256"
        }
      ],
      "name": "Close",
      "type": "event"
    },
    {
      "anonymous": false,
      "inputs": [
        {
          "indexed": false,
          "internalType": "uint256",
          "name": "id",
          "type": "uint256"
        }
      ],
      "name": "Created",
      "type": "event"
    },
    {
      "anonymous": false,
      "inputs": [
        {
          "indexed": true,
          "internalType": "uint256",
          "name": "id",
          "type": "uint256"
        }
      ],
      "name": "Execute",
      "type": "event"
    },
    {
      "anonymous": false,
      "inputs": [
        {
          "indexed": true,
          "internalType": "uint256",
          "name": "id",
          "type": "uint256"
        },
        {
          "indexed": false,
          "internalType": "uint256",
          "name": "member",
          "type": "uint256"
        },
        {
          "indexed": false,
          "internalType": "int256",
          "name": "votes",
          "type": "int256"
        }
      ],
      "name": "Vote",
      "type": "event"
    },
    {
      "inputs": [
        {
          "internalType": "bytes4",
          "name": "interfaceId",
          "type": "bytes4"
        },
        {
          "internalType": "string",
          "name": "message",
          "type": "string"
        }
      ],
      "name": "checkInterface",
      "outputs": [],
      "stateMutability": "view",
      "type": "function"
    },
    {
      "inputs": [],
      "name": "host",
      "outputs": [
        {
          "internalType": "contract IDAO",
          "name": "",
          "type": "address"
        }
      ],
      "stateMutability": "view",
      "type": "function"
    },
    {
      "inputs": [],
      "name": "lifespan",
      "outputs": [
        {
          "internalType": "uint256",
          "name": "",
          "type": "uint256"
        }
      ],
      "stateMutability": "view",
      "type": "function"
    },
    {
      "inputs": [
        {
          "internalType": "bytes4",
          "name": "interfaceId",
          "type": "bytes4"
        }
      ],
      "name": "supportsInterface",
      "outputs": [
        {
          "internalType": "bool",
          "name": "",
          "type": "bool"
        }
      ],
      "stateMutability": "view",
      "type": "function"
    },
    {
      "inputs": [
        {
          "internalType": "address",
          "name": "host",
          "type": "address"
        },
        {
          "internalType": "string",
          "name": "description",
          "type": "string"
        },
        {
          "internalType": "uint256",
          "name": "_lifespan",
          "type": "uint256"
        }
      ],
      "name": "initVotePool",
      "outputs": [],
      "stateMutability": "nonpayable",
      "type": "function"
    },
    {
      "inputs": [
        {
          "internalType": "address",
          "name": "impl",
          "type": "address"
        }
      ],
      "name": "upgrade",
      "outputs": [],
      "stateMutability": "nonpayable",
      "type": "function"
    },
    {
      "inputs": [],
      "name": "description",
      "outputs": [
        {
          "internalType": "string",
          "name": "",
          "type": "string"
        }
      ],
      "stateMutability": "view",
      "type": "function"
    },
    {
      "inputs": [
        {
          "internalType": "uint256",
          "name": "id",
          "type": "uint256"
        }
      ],
      "name": "getProposal",
      "outputs": [
        {
          "components": [
            {
              "internalType": "uint256",
              "name": "id",
              "type": "uint256"
            },
            {
              "internalType": "string",
              "name": "name",
              "type": "string"
            },
            {
              "internalType": "string",
              "name": "description",
              "type": "string"
            },
            {
              "internalType": "address",
              "name": "origin",
              "type": "address"
            },
            {
              "internalType": "uint256",
              "name": "originId",
              "type": "uint256"
            },
            {
              "internalType": "address[]",
              "name": "target",
              "type": "address[]"
            },
            {
              "internalType": "uint256",
              "name": "lifespan",
              "type": "uint256"
            },
            {
              "internalType": "uint256",
              "name": "expiry",
              "type": "uint256"
            },
            {
              "internalType": "uint256",
              "name": "passRate",
              "type": "uint256"
            },
            {
              "internalType": "int256",
              "name": "loopCount",
              "type": "int256"
            },
            {
              "internalType": "uint256",
              "name": "loopTime",
              "type": "uint256"
            },
            {
              "internalType": "uint256",
              "name": "voteTotal",
              "type": "uint256"
            },
            {
              "internalType": "uint256",
              "name": "agreeTotal",
              "type": "uint256"
            },
            {
              "internalType": "uint256",
              "name": "executeTime",
              "type": "uint256"
            },
            {
              "internalType": "uint256",
              "name": "idx",
              "type": "uint256"
            },
            {
              "internalType": "bool",
              "name": "isAgree",
              "type": "bool"
            },
            {
              "internalType": "bool",
              "name": "isClose",
              "type": "bool"
            },
            {
              "internalType": "bool",
              "name": "isExecuted",
              "type": "bool"
            },
            {
              "internalType": "bytes[]",
              "name": "data",
              "type": "bytes[]"
            }
          ],
          "internalType": "struct IVotePool.Proposal",
          "name": "",
          "type": "tuple"
        }
      ],
      "stateMutability": "view",
      "type": "function"
    },
    {
      "inputs": [
        {
          "internalType": "uint256",
          "name": "id",
          "type": "uint256"
        }
      ],
      "name": "exists",
      "outputs": [
        {
          "internalType": "bool",
          "name": "",
          "type": "bool"
        }
      ],
      "stateMutability": "view",
      "type": "function"
    },
    {
      "inputs": [
        {
          "components": [
            {
              "internalType": "uint256",
              "name": "id",
              "type": "uint256"
            },
            {
              "internalType": "string",
              "name": "name",
              "type": "string"
            },
            {
              "internalType": "string",
              "name": "description",
              "type": "string"
            },
            {
              "internalType": "address",
              "name": "origin",
              "type": "address"
            },
            {
              "internalType": "uint256",
              "name": "originId",
              "type": "uint256"
            },
            {
              "internalType": "address[]",
              "name": "target",
              "type": "address[]"
            },
            {
              "internalType": "uint256",
              "name": "lifespan",
              "type": "uint256"
            },
            {
              "internalType": "uint256",
              "name": "expiry",
              "type": "uint256"
            },
            {
              "internalType": "uint256",
              "name": "passRate",
              "type": "uint256"
            },
            {
              "internalType": "int256",
              "name": "loopCount",
              "type": "int256"
            },
            {
              "internalType": "uint256",
              "name": "loopTime",
              "type": "uint256"
            },
            {
              "internalType": "uint256",
              "name": "voteTotal",
              "type": "uint256"
            },
            {
              "internalType": "uint256",
              "name": "agreeTotal",
              "type": "uint256"
            },
            {
              "internalType": "uint256",
              "name": "executeTime",
              "type": "uint256"
            },
            {
              "internalType": "uint256",
              "name": "idx",
              "type": "uint256"
            },
            {
              "internalType": "bool",
              "name": "isAgree",
              "type": "bool"
            },
            {
              "internalType": "bool",
              "name": "isClose",
              "type": "bool"
            },
            {
              "internalType": "bool",
              "name": "isExecuted",
              "type": "bool"
            },
            {
              "internalType": "bytes[]",
              "name": "data",
              "type": "bytes[]"
            }
          ],
          "internalType": "struct IVotePool.Proposal",
          "name": "arg0",
          "type": "tuple"
        }
      ],
      "name": "create",
      "outputs": [],
      "stateMutability": "nonpayable",
      "type": "function"
    },
    {
      "inputs": [
        {
          "internalType": "uint256",
          "name": "id",
          "type": "uint256"
        },
        {
          "internalType": "address[]",
          "name": "target",
          "type": "address[]"
        },
        {
          "internalType": "uint256",
          "name": "lifespan",
          "type": "uint256"
        },
        {
          "internalType": "uint256",
          "name": "passRate",
          "type": "uint256"
        },
        {
          "internalType": "int256",
          "name": "loopCount",
          "type": "int256"
        },
        {
          "internalType": "uint256",
          "name": "loopTime",
          "type": "uint256"
        },
        {
          "internalType": "string",
          "name": "name",
          "type": "string"
        },
        {
          "internalType": "string",
          "name": "description",
          "type": "string"
        },
        {
          "internalType": "uint256",
          "name": "originId",
          "type": "uint256"
        },
        {
          "internalType": "bytes[]",
          "name": "data",
          "type": "bytes[]"
        }
      ],
      "name": "create2",
      "outputs": [],
      "stateMutability": "nonpayable",
      "type": "function"
    },
    {
      "inputs": [
        {
          "internalType": "uint256",
          "name": "id",
          "type": "uint256"
        },
        {
          "internalType": "uint256",
          "name": "member",
          "type": "uint256"
        },
        {
          "internalType": "int256",
          "name": "votes",
          "type": "int256"
        },
        {
          "internalType": "bool",
          "name": "tryExecute",
          "type": "bool"
        }
      ],
      "name": "vote",
      "outputs": [],
      "stateMutability": "nonpayable",
      "type": "function"
    },
    {
      "inputs": [
        {
          "internalType": "uint256",
          "name": "id",
          "type": "uint256"
        },
        {
          "internalType": "bool",
          "name": "tryExecute",
          "type": "bool"
        }
      ],
      "name": "tryClose",
      "outputs": [],
      "stateMutability": "nonpayable",
      "type": "function"
    },
    {
      "inputs": [
        {
          "internalType": "uint256",
          "name": "id",
          "type": "uint256"
        }
      ],
      "name": "execute",
      "outputs": [],
      "stateMutability": "nonpayable",
      "type": "function"
    },
    {
      "inputs": [],
      "name": "total",
      "outputs": [
        {
          "internalType": "uint256",
          "name": "",
          "type": "uint256"
        }
      ],
      "stateMutability": "view",
      "type": "function"
    },
    {
      "inputs": [
        {
          "internalType": "uint256",
          "name": "index",
          "type": "uint256"
        }
      ],
      "name": "indexAt",
      "outputs": [
        {
          "components": [
            {
              "internalType": "uint256",
              "name": "id",
              "type": "uint256"
            },
            {
              "internalType": "string",
              "name": "name",
              "type": "string"
            },
            {
              "internalType": "string",
              "name": "description",
              "type": "string"
            },
            {
              "internalType": "address",
              "name": "origin",
              "type": "address"
            },
            {
              "internalType": "uint256",
              "name": "originId",
              "type": "uint256"
            },
            {
              "internalType": "address[]",
              "name": "target",
              "type": "address[]"
            },
            {
              "internalType": "uint256",
              "name": "lifespan",
              "type": "uint256"
            },
            {
              "internalType": "uint256",
              "name": "expiry",
              "type": "uint256"
            },
            {
              "internalType": "uint256",
              "name": "passRate",
              "type": "uint256"
            },
            {
              "internalType": "int256",
              "name": "loopCount",
              "type": "int256"
            },
            {
              "internalType": "uint256",
              "name": "loopTime",
              "type": "uint256"
            },
            {
              "internalType": "uint256",
              "name": "voteTotal",
              "type": "uint256"
            },
            {
              "internalType": "uint256",
              "name": "agreeTotal",
              "type": "uint256"
            },
            {
              "internalType": "uint256",
              "name": "executeTime",
              "type": "uint256"
            },
            {
              "internalType": "uint256",
              "name": "idx",
              "type": "uint256"
            },
            {
              "internalType": "bool",
              "name": "isAgree",
              "type": "bool"
            },
            {
              "internalType": "bool",
              "name": "isClose",
              "type": "bool"
            },
            {
              "internalType": "bool",
              "name": "isExecuted",
              "type": "bool"
            },
            {
              "internalType": "bytes[]",
              "name": "data",
              "type": "bytes[]"
            }
          ],
          "internalType": "struct IVotePool.Proposal",
          "name": "pro",
          "type": "tuple"
        }
      ],
      "stateMutability": "view",
      "type": "function"
    }
  ],
  "bytecode": "0x608060405234801561001057600080fd5b50613080806100206000396000f3fe608060405234801561001057600080fd5b50600436106101005760003560e01c80637284e41611610097578063c7f758a811610066578063c7f758a814610231578063de71249514610244578063f437bc5914610257578063fe0d94c11461027257600080fd5b80637284e416146101d6578063878e5e52146101eb578063a42bbccd146101fe578063c64df69d1461021e57600080fd5b80634b3e06c1116100d35780634b3e06c11461017b5780634f558e791461018e578063678ea396146101b05780636c4a6094146101c357600080fd5b806301ffc9a71461010557806302d3abb5146101475780630900f0101461015e5780632ddbd13a14610173575b600080fd5b610132610113366004612306565b6001600160e01b03191660009081526001602052604090205460ff1690565b60405190151581526020015b60405180910390f35b61015060075481565b60405190815260200161013e565b61017161016c366004612348565b610285565b005b600554610150565b6101716101893660046125a7565b6102d4565b61013261019c366004612690565b600090815260046020526040902054151590565b6101716101be3660046126c2565b610338565b6101716101d1366004612703565b6108d0565b6101de61091e565b60405161013e91906127ac565b6101716101f93660046127bf565b6109b0565b61021161020c366004612690565b610df4565b60405161013e91906129f2565b61017161022c366004612b57565b6111c8565b61021161023f366004612690565b611204565b610171610252366004612ba5565b611552565b6002546040516001600160a01b03909116815260200161013e565b610171610280366004612690565b6117f9565b61028d6119fa565b6102b25760405162461bcd60e51b81526004016102a990612bd5565b60405180910390fd5b600080546001600160a01b0319166001600160a01b0392909216919091179055565b6102dc612125565b8a81526080810183905260a081018a905260c081018990526101008101889052610120810187905261014081018690526020810185905260408101849052610240810182905261032b816109b0565b5050505050505050505050565b63678ea3966103456119fa565b61044d57600260009054906101000a90046001600160a01b03166001600160a01b031663e3f6b5446040518163ffffffff1660e01b8152600401602060405180830381865afa15801561039c573d6000803e3d6000fd5b505050506040513d601f19601f820116820180604052508101906103c09190612c2b565b60405163a8a555c560e01b8152336004820152602481018390526001600160a01b03919091169063a8a555c590604401602060405180830381865afa15801561040d573d6000803e3d6000fd5b505050506040513d601f19601f820116820180604052508101906104319190612c48565b61044d5760405162461bcd60e51b81526004016102a990612bd5565b600061045886611b16565b90506000600260009054906101000a90046001600160a01b03166001600160a01b031663e3f6b5446040518163ffffffff1660e01b8152600401602060405180830381865afa1580156104af573d6000803e3d6000fd5b505050506040513d601f19601f820116820180604052508101906104d39190612c2b565b6001600160a01b031663ae99aa3c876040518263ffffffff1660e01b815260040161050091815260200190565b600060405180830381865afa15801561051d573d6000803e3d6000fd5b505050506040513d6000823e601f3d908101601f191682016040526105459190810190612cc6565b9050846000036105a85760405162461bcd60e51b815260206004820152602860248201527f23566f7465506f6f6c23766f746520706172616d65746572206572726f722c206044820152670766f7465733d3d360c41b60648201526084016102a9565b600f820154610100900460ff16156106105760405162461bcd60e51b815260206004820152602560248201527f23566f7465506f6f6c23766f746520566f74696e6720686173206265656e20636044820152641b1bdcd95960da1b60648201526084016102a9565b600254604080516338fdad5160e21b8152905133926001600160a01b03169163e3f6b5449160048083019260209291908290030181865afa158015610659573d6000803e3d6000fd5b505050506040513d601f19601f8201168201806040525081019061067d9190612c2b565b6001600160a01b0316636352211e886040518263ffffffff1660e01b81526004016106aa91815260200190565b602060405180830381865afa1580156106c7573d6000803e3d6000fd5b505050506040513d601f19601f820116820180604052508101906106eb9190612c2b565b6001600160a01b03161461074b5760405162461bcd60e51b815260206004820152602160248201527f23566f7465506f6f6c23766f7465204e6f2063616c6c207065726d697373696f6044820152603760f91b60648201526084016102a9565b6000878152600660209081526040808320898452909152902054156107c05760405162461bcd60e51b815260206004820152602560248201527f23566f7465506f6f6c23766f74652043616e6e6f7420766f74652072657065616044820152647465646c7960d81b60648201526084016102a9565b806080015163ffffffff166107d486611b92565b11156108225760405162461bcd60e51b815260206004820152601b60248201527f23566f7465506f6f6c23766f746520566f74696e67206c696d6974000000000060448201526064016102a9565b6000878152600660209081526040808320898452909152902085905561084785611b92565b82600b01600082825461085a9190612dac565b90915550506000851315610882578482600c01600082825461087c9190612dac565b90915550505b604080518781526020810187905288917f1ad6cbfa9912ec69279a6634788918d5c8e0236b45609178636427bee8756ed7910160405180910390a26108c78785611552565b50505050505050565b6108d8611bb0565b6108e8630ddf27bf60e01b611c90565b600280546001600160a01b0319166001600160a01b038516179055600361090f8382612e47565b5061091981611d12565b505050565b60606003805461092d90612dbf565b80601f016020809104026020016040519081016040528092919081815260200182805461095990612dbf565b80156109a65780601f1061097b576101008083540402835291602001916109a6565b820191906000526020600020905b81548152906001019060200180831161098957829003601f168201915b5050505050905090565b600260009054906101000a90046001600160a01b03166001600160a01b031663e3f6b5446040518163ffffffff1660e01b8152600401602060405180830381865afa158015610a03573d6000803e3d6000fd5b505050506040513d601f19601f82011682018060405250810190610a279190612c2b565b6001600160a01b0316336001600160a01b031614610a5157610a51816080015163dc6b0b72611d8f565b805160009081526004602052604090205415610ac05760405162461bcd60e51b815260206004820152602860248201527f23566f7465506f6f6c236372656174652070726f706f73616c20616c72656164604482015267792065786973747360c01b60648201526084016102a9565b61138881610100015111610b3c5760405162461bcd60e51b815260206004820152603a60248201527f23566f7465506f6f6c236372656174652070726f706f73616c20766f7465207060448201527f6173732072617465206e6f74206c657373207468616e2035302500000000000060648201526084016102a9565b60c081015115610bd9576007548160c001511015610bd95760405162461bcd60e51b815260206004820152604e60248201527f23566f7465506f6f6c236372656174652070726f706f73616c206c696665737060448201527f616e206e6f74206c657373207468616e2063757272656e742073657474696e6760648201526d206c6966657370616e206461797360901b608482015260a4016102a9565b61012081015115610c6057603c8161014001511015610c605760405162461bcd60e51b815260206004820152603860248201527f23566f7465506f6f6c23637265617465204c6f6f702074696d65206d7573742060448201527f62652067726561746572207468616e2031206d696e757465000000000000000060648201526084016102a9565b8051600090815260046020908152604090912082518155908201516001820190610c8a9082612e47565b5060408201516002820190610c9f9082612e47565b5060a08201518051610cbb9160058401916020909101906121c6565b506003810180546001600160a01b03191633179055608082015160048201556102408201518051610cf691601084019160209091019061222b565b5060c08201516006820181905515610d1c5760c0820151610d179042612dac565b610d1f565b60005b600782015561010082015161271010610d3d57816101000151610d41565b6127105b60088201556101208201516009820155610140820151600a8201556000600b8201819055600c8201819055600d820181905560058054600e840155600f8301805462ffffff1916905583518154600181018355919092527f036b6384b5eca791c62761152d0c79bb0604c104a5fb6f4eb0703f3154bb3db0015581516040519081527f06acbfb32bcf8383f3b0a768b70ac9ec234ea0f2d3b9c77fa6a2de69b919aad19060200160405180910390a15050565b610dfc612125565b6005548210610e4d5760405162461bcd60e51b815260206004820181905260248201527f23566f7465506f6f6c23617420496e646578206f7574206f6620626f756e647360448201526064016102a9565b6004600060058481548110610e6457610e64612f07565b906000526020600020015481526020019081526020016000206040518061026001604052908160008201548152602001600182018054610ea390612dbf565b80601f0160208091040260200160405190810160405280929190818152602001828054610ecf90612dbf565b8015610f1c5780601f10610ef157610100808354040283529160200191610f1c565b820191906000526020600020905b815481529060010190602001808311610eff57829003601f168201915b50505050508152602001600282018054610f3590612dbf565b80601f0160208091040260200160405190810160405280929190818152602001828054610f6190612dbf565b8015610fae5780601f10610f8357610100808354040283529160200191610fae565b820191906000526020600020905b815481529060010190602001808311610f9157829003601f168201915b505050505081526020016003820160009054906101000a90046001600160a01b03166001600160a01b03166001600160a01b03168152602001600482015481526020016005820180548060200260200160405190810160405280929190818152602001828054801561104957602002820191906000526020600020905b81546001600160a01b0316815260019091019060200180831161102b575b5050509183525050600682015460208083019190915260078301546040808401919091526008840154606084015260098401546080840152600a84015460a0840152600b84015460c0840152600c84015460e0840152600d84015461010080850191909152600e850154610120850152600f85015460ff8082161515610140870152918104821615156101608601526201000090041615156101808401526010840180548251818502810185019093528083526101a090940193919290919060009084015b828210156111ba57838290600052602060002001805461112d90612dbf565b80601f016020809104026020016040519081016040528092919081815260200182805461115990612dbf565b80156111a65780601f1061117b576101008083540402835291602001916111a6565b820191906000526020600020905b81548152906001019060200180831161118957829003601f168201915b50505050508152602001906001019061110e565b505050915250909392505050565b6001600160e01b0319821660009081526001602052604090205460ff1681906109195760405162461bcd60e51b81526004016102a991906127ac565b61120c612125565b61121582611b16565b604051806102600160405290816000820154815260200160018201805461123b90612dbf565b80601f016020809104026020016040519081016040528092919081815260200182805461126790612dbf565b80156112b45780601f10611289576101008083540402835291602001916112b4565b820191906000526020600020905b81548152906001019060200180831161129757829003601f168201915b505050505081526020016002820180546112cd90612dbf565b80601f01602080910402602001604051908101604052809291908181526020018280546112f990612dbf565b80156113465780601f1061131b57610100808354040283529160200191611346565b820191906000526020600020905b81548152906001019060200180831161132957829003601f168201915b505050505081526020016003820160009054906101000a90046001600160a01b03166001600160a01b03166001600160a01b0316815260200160048201548152602001600582018054806020026020016040519081016040528092919081815260200182805480156113e157602002820191906000526020600020905b81546001600160a01b031681526001909101906020018083116113c3575b5050509183525050600682015460208083019190915260078301546040808401919091526008840154606084015260098401546080840152600a84015460a0840152600b84015460c0840152600c84015460e0840152600d84015461010080850191909152600e850154610120850152600f85015460ff8082161515610140870152918104821615156101608601526201000090041615156101808401526010840180548251818502810185019093528083526101a090940193919290919060009084015b828210156111ba5783829060005260206000200180546114c590612dbf565b80601f01602080910402602001604051908101604052809291908181526020018280546114f190612dbf565b801561153e5780601f106115135761010080835404028352916020019161153e565b820191906000526020600020905b81548152906001019060200180831161152157829003601f168201915b5050505050815260200190600101906114a6565b600061155d83611b16565b600f810154909150610100900460ff16156115cc5760405162461bcd60e51b815260206004820152602960248201527f23566f7465506f6f6c23747279436c6f736520566f74696e6720686173206265604482015268195b8818db1bdcd95960ba1b60648201526084016102a9565b600254604080516338fdad5160e21b815290516000926001600160a01b03169163e3f6b5449160048083019260209291908290030181865afa158015611616573d6000803e3d6000fd5b505050506040513d601f19601f8201168201806040525081019061163a9190612c2b565b6001600160a01b031663e168c3ec6040518163ffffffff1660e01b8152600401602060405180830381865afa158015611677573d6000803e3d6000fd5b505050506040513d601f19601f8201168201806040525081019061169b9190612f1d565b6008830154600784015491925090158015906116bb575042836007015411155b1561170d57600f8301805461ff001916610100179055600b830154600c8401548291906116ea90612710612f36565b6116f49190612f4d565b600f8501805460ff191692909111919091179055611796565b808284600c01546127106117219190612f36565b61172b9190612f4d565b111561174757600f8301805461ffff1916610101179055611796565b61175381612710612f6f565b8284600c015485600b01546117689190612f6f565b61177490612710612f36565b61177e9190612f4d565b111561179657600f8301805461ffff19166101001790555b600f830154610100900460ff16156117f25760405185907fbf67515a38ee520223d32c1266d52101c30d936ed1f3e436c8caeb0a43cb06bf90600090a28380156117e45750600f83015460ff165b156117f2576117f2856117f9565b5050505050565b600061180482611b16565b600f81015490915060ff1661186d5760405162461bcd60e51b815260206004820152602960248201527f23566f7465506f6f6c23657865637574652050726f706f73616c20776173206e6044820152681bdd081c185cdcd95960ba1b60648201526084016102a9565b600f81015462010000900460ff16156118e25760405162461bcd60e51b815260206004820152603160248201527f23566f7465506f6f6c2365786563757465205265736f6c7574696f6e20686173604482015270081899595b881a5b5c1b195b595b9d1959607a1b60648201526084016102a9565b6009810154156119a8574281600a015482600d01546119019190612dac565b106119685760405162461bcd60e51b815260206004820152603160248201527f23566f7465506f6f6c236578656375746520457865637574696f6e20696e74656044820152701c9d985b081a5cc81d1bdbc81cda1bdc9d607a1b60648201526084016102a9565b60008160090154131561199a5761197e81612046565b60098101805490600061199083612f82565b91905055506119c5565b6119a381612046565b6119c5565b6119b181612046565b600f8101805462ff00001916620100001790555b42600d82015560405182907fddb556f1d2c1ec821e910b019d3685b229db152a0ecd517ca7e24b8bd713928990600090a25050565b6002546040805163570ca73560e01b815290516000926001600160a01b03169163570ca7359160048083019260209291908290030181865afa158015611a44573d6000803e3d6000fd5b505050506040513d601f19601f82011682018060405250810190611a689190612c2b565b6001600160a01b0316336001600160a01b031614611b1057600260009054906101000a90046001600160a01b03166001600160a01b031663ebf0c7176040518163ffffffff1660e01b8152600401602060405180830381865afa158015611ad3573d6000803e3d6000fd5b505050506040513d601f19601f82011682018060405250810190611af79190612c2b565b6001600160a01b0316336001600160a01b031614905090565b50600190565b600081815260046020526040812054611b805760405162461bcd60e51b815260206004820152602660248201527f23566f7465506f6f6c2370726f706f73616c2070726f706f73616c206e6f742060448201526565786973747360d01b60648201526084016102a9565b50600090815260046020526040902090565b6000808212611ba15781611baa565b611baa82612f9f565b92915050565b600054600160a81b900460ff1680611bc75750303b155b80611bdc5750600054600160a01b900460ff16155b611c3f5760405162461bcd60e51b815260206004820152602e60248201527f436f6e747261637420696e7374616e63652068617320616c726561647920626560448201526d195b881a5b9a5d1a585b1a5e995960921b60648201526084016102a9565b600054600160a81b900460ff16158015611c69576000805461ffff60a01b191661010160a01b1790555b611c796301ffc9a760e01b611c90565b8015611c8d576000805460ff60a81b191690555b50565b6001600160e01b03198082169003611cea5760405162461bcd60e51b815260206004820152601c60248201527f4552433136353a20696e76616c696420696e746572666163652069640000000060448201526064016102a9565b6001600160e01b0319166000908152600160208190526040909120805460ff19169091179055565b61a8c0811015611d8a5760405162461bcd60e51b815260206004820152603e60248201527f23566f7465506f6f6c237365744c6966657370616e2070726f706f73616c206c60448201527f6966657370616e206e6f74206c657373207468616e20313220686f757273000060648201526084016102a9565b600755565b611d976119fa565b61204257600254604080516338fdad5160e21b8152905133926001600160a01b03169163e3f6b5449160048083019260209291908290030181865afa158015611de4573d6000803e3d6000fd5b505050506040513d601f19601f82011682018060405250810190611e089190612c2b565b6001600160a01b0316636352211e846040518263ffffffff1660e01b8152600401611e3591815260200190565b602060405180830381865afa158015611e52573d6000803e3d6000fd5b505050506040513d601f19601f82011682018060405250810190611e769190612c2b565b6001600160a01b031614611ee55760405162461bcd60e51b815260206004820152603060248201527f235065726d697373696f6e436865636b23636865636b46726f6d204d656d626560448201526f0e440deeedccae440dad2e6dac2e8c6d60831b60648201526084016102a9565b600260009054906101000a90046001600160a01b03166001600160a01b031663e3f6b5446040518163ffffffff1660e01b8152600401602060405180830381865afa158015611f38573d6000803e3d6000fd5b505050506040513d601f19601f82011682018060405250810190611f5c9190612c2b565b604051635e7dc20b60e01b815260048101849052602481018390526001600160a01b039190911690635e7dc20b90604401602060405180830381865afa158015611faa573d6000803e3d6000fd5b505050506040513d601f19601f82011682018060405250810190611fce9190612c48565b612042576040805162461bcd60e51b81526020600482015260248101919091527f235065726d697373696f6e436865636b23636865636b46726f6d20436865636b60448201527f2063616c6c657220646f6573206e6f742068617665207065726d697373696f6e60648201526084016102a9565b5050565b60005b60058201548110156120425760008083600501838154811061206d5761206d612f07565b6000918252602090912001546010850180546001600160a01b03909216913491908690811061209e5761209e612f07565b906000526020600020016040516120b59190612fbb565b60006040518083038185875af1925050503d80600081146120f2576040519150601f19603f3d011682016040523d82523d6000602084013e6120f7565b606091505b508051919350915060208201838061210d578282fd5b5050505050808061211d90613031565b915050612049565b60405180610260016040528060008152602001606081526020016060815260200160006001600160a01b031681526020016000815260200160608152602001600081526020016000815260200160008152602001600081526020016000815260200160008152602001600081526020016000815260200160008152602001600015158152602001600015158152602001600015158152602001606081525090565b82805482825590600052602060002090810192821561221b579160200282015b8281111561221b57825182546001600160a01b0319166001600160a01b039091161782556020909201916001909101906121e6565b5061222792915061227d565b5090565b828054828255906000526020600020908101928215612271579160200282015b8281111561227157825182906122619082612e47565b509160200191906001019061224b565b50612227929150612292565b5b80821115612227576000815560010161227e565b808211156122275760006122a682826122af565b50600101612292565b5080546122bb90612dbf565b6000825580601f106122cb575050565b601f016020900490600052602060002090810190611c8d919061227d565b80356001600160e01b03198116811461230157600080fd5b919050565b60006020828403121561231857600080fd5b612321826122e9565b9392505050565b6001600160a01b0381168114611c8d57600080fd5b803561230181612328565b60006020828403121561235a57600080fd5b813561232181612328565b634e487b7160e01b600052604160045260246000fd5b604051610260810167ffffffffffffffff8111828210171561239f5761239f612365565b60405290565b60405160a0810167ffffffffffffffff8111828210171561239f5761239f612365565b604051601f8201601f1916810167ffffffffffffffff811182821017156123f1576123f1612365565b604052919050565b600067ffffffffffffffff82111561241357612413612365565b5060051b60200190565b600082601f83011261242e57600080fd5b8135602061244361243e836123f9565b6123c8565b82815260059290921b8401810191818101908684111561246257600080fd5b8286015b8481101561248657803561247981612328565b8352918301918301612466565b509695505050505050565b600067ffffffffffffffff8211156124ab576124ab612365565b50601f01601f191660200190565b60006124c761243e84612491565b90508281528383830111156124db57600080fd5b828260208301376000602084830101529392505050565b600082601f83011261250357600080fd5b612321838335602085016124b9565b600082601f83011261252357600080fd5b8135602061253361243e836123f9565b82815260059290921b8401810191818101908684111561255257600080fd5b8286015b8481101561248657803567ffffffffffffffff8111156125765760008081fd5b8701603f810189136125885760008081fd5b6125998986830135604084016124b9565b845250918301918301612556565b6000806000806000806000806000806101408b8d0312156125c757600080fd5b8a35995060208b013567ffffffffffffffff808211156125e657600080fd5b6125f28e838f0161241d565b9a5060408d0135995060608d0135985060808d0135975060a08d0135965060c08d013591508082111561262457600080fd5b6126308e838f016124f2565b955060e08d013591508082111561264657600080fd5b6126528e838f016124f2565b94506101008d013593506101208d013591508082111561267157600080fd5b5061267e8d828e01612512565b9150509295989b9194979a5092959850565b6000602082840312156126a257600080fd5b5035919050565b8015158114611c8d57600080fd5b8035612301816126a9565b600080600080608085870312156126d857600080fd5b84359350602085013592506040850135915060608501356126f8816126a9565b939692955090935050565b60008060006060848603121561271857600080fd5b833561272381612328565b9250602084013567ffffffffffffffff81111561273f57600080fd5b61274b868287016124f2565b925050604084013590509250925092565b60005b8381101561277757818101518382015260200161275f565b50506000910152565b6000815180845261279881602086016020860161275c565b601f01601f19169290920160200192915050565b6020815260006123216020830184612780565b6000602082840312156127d157600080fd5b813567ffffffffffffffff808211156127e957600080fd5b9083019061026082860312156127fe57600080fd5b61280661237b565b8235815260208301358281111561281c57600080fd5b612828878286016124f2565b60208301525060408301358281111561284057600080fd5b61284c878286016124f2565b60408301525061285e6060840161233d565b60608201526080830135608082015260a08301358281111561287f57600080fd5b61288b8782860161241d565b60a08301525060c0838101359082015260e08084013590820152610100808401359082015261012080840135908201526101408084013590820152610160808401359082015261018080840135908201526101a080840135908201526101c080840135908201526101e06129008185016126b7565b908201526102006129128482016126b7565b908201526102206129248482016126b7565b90820152610240838101358381111561293c57600080fd5b61294888828701612512565b918301919091525095945050505050565b600081518084526020808501945080840160005b838110156129925781516001600160a01b03168752958201959082019060010161296d565b509495945050505050565b600081518084526020808501808196508360051b8101915082860160005b858110156129e55782840389526129d3848351612780565b988501989350908401906001016129bb565b5091979650505050505050565b602081528151602082015260006020830151610260806040850152612a1b610280850183612780565b91506040850151601f1980868503016060870152612a398483612780565b935060608701519150612a5760808701836001600160a01b03169052565b608087015160a087015260a08701519150808685030160c0870152612a7c8483612959565b60c088015160e08881019190915288015161010080890191909152880151610120808901919091528801516101408089019190915288015161016080890191909152880151610180808901919091528801516101a0808901919091528801516101c0808901919091528801516101e0808901919091528801519094509150610200612b0a8188018415159052565b8701519150610220612b1f8782018415159052565b8701519150610240612b348782018415159052565b870151868503909101838701529050612b4d838261299d565b9695505050505050565b60008060408385031215612b6a57600080fd5b612b73836122e9565b9150602083013567ffffffffffffffff811115612b8f57600080fd5b612b9b858286016124f2565b9150509250929050565b60008060408385031215612bb857600080fd5b823591506020830135612bca816126a9565b809150509250929050565b60208082526036908201527f235065726d697373696f6e436865636b23436865636b2063616c6c657220646f60408201527532b9903737ba103430bb32903832b936b4b9b9b4b7b760511b606082015260800190565b600060208284031215612c3d57600080fd5b815161232181612328565b600060208284031215612c5a57600080fd5b8151612321816126a9565b600082601f830112612c7657600080fd5b8151612c8461243e82612491565b818152846020838601011115612c9957600080fd5b612caa82602083016020870161275c565b949350505050565b805163ffffffff8116811461230157600080fd5b600060208284031215612cd857600080fd5b815167ffffffffffffffff80821115612cf057600080fd5b9083019060a08286031215612d0457600080fd5b612d0c6123a5565b82518152602083015182811115612d2257600080fd5b612d2e87828601612c65565b602083015250604083015182811115612d4657600080fd5b612d5287828601612c65565b604083015250606083015182811115612d6a57600080fd5b612d7687828601612c65565b606083015250612d8860808401612cb2565b608082015295945050505050565b634e487b7160e01b600052601160045260246000fd5b80820180821115611baa57611baa612d96565b600181811c90821680612dd357607f821691505b602082108103612df357634e487b7160e01b600052602260045260246000fd5b50919050565b601f82111561091957600081815260208120601f850160051c81016020861015612e205750805b601f850160051c820191505b81811015612e3f57828155600101612e2c565b505050505050565b815167ffffffffffffffff811115612e6157612e61612365565b612e7581612e6f8454612dbf565b84612df9565b602080601f831160018114612eaa5760008415612e925750858301515b600019600386901b1c1916600185901b178555612e3f565b600085815260208120601f198616915b82811015612ed957888601518255948401946001909101908401612eba565b5085821015612ef75787850151600019600388901b60f8161c191681555b5050505050600190811b01905550565b634e487b7160e01b600052603260045260246000fd5b600060208284031215612f2f57600080fd5b5051919050565b8082028115828204841417611baa57611baa612d96565b600082612f6a57634e487b7160e01b600052601260045260246000fd5b500490565b81810381811115611baa57611baa612d96565b6000600160ff1b8201612f9757612f97612d96565b506000190190565b6000600160ff1b8201612fb457612fb4612d96565b5060000390565b6000808354612fc981612dbf565b60018281168015612fe15760018114612ff657613025565b60ff1984168752821515830287019450613025565b8760005260208060002060005b8581101561301c5781548a820152908401908201613003565b50505082870194505b50929695505050505050565b60006001820161304357613043612d96565b506001019056fea2646970667358221220e945870ac2bbc0ab52712d57d2e64467141e2855880355a772b36ac836edbeed64736f6c63430008110033",
  "immutableReferences": {},
  "source": "// SPDX-License-Identifier: MIT\npragma solidity 0.8.17;\n\npragma experimental ABIEncoderV2;\n\nimport './libs/Interface.sol';\nimport './libs/Constants.sol';\nimport './libs/ERC165.sol';\nimport './libs/Upgrade.sol';\nimport './libs/Check.sol';\nimport '../openzeppelin/contracts/utils/math/SafeMath.sol';\nimport '../openzeppelin/contracts/utils/Address.sol';\n\ncontract VotePool is Upgrade, ERC165, PermissionCheck, IVotePool {\n\tusing Address for address;\n\tusing SafeMath for uint256;\n\n\tbytes4 internal constant DAO_ID = 0xc7b55336;\n\tbytes4 internal constant VotePool_ID = 0x0ddf27bf;\n\n\t// define props\n\tstring private _description;\n\t// proposal id => Proposal\n\tmapping(uint256 => Proposal) private _proposalMap; // \n\tuint256[] private _proposalList; // \n\t// proposal id => map( member id => votes )\n\tmapping(uint256 => mapping(uint256 => int256)) private _votes; // \n\n\t// @public\n\tuint256 public lifespan; // \n\n\tuint256[16] private __; // reserved storage space\n\n\t/**\n\t * @dev Init vote pool\n\t */\n\tfunction initVotePool(address host, string memory description, uint256 _lifespan) external {\n\t\tinitERC165();\n\t\t_registerInterface(VotePool_Type);\n\t\t//IDAO(host).checkInterface(DAO_Type, \"#VotePool#initVotePool dao host type not match\");\n\t\t_host = IDAO(host);\n\t\t_description = description;\n\t\tsetLifespan(_lifespan);\n\t}\n\n\tfunction isPermissionDAO() view internal override returns (bool) {\n\t\tif (msg.sender != address(_host.operator()))\n\t\t\treturn msg.sender == address(_host.root());\n\t\treturn true;\n\t}\n\n\t/**\n\t * @dev Upgrade vote pool\n\t */\n\tfunction upgrade(address impl) public OnlyDAO {\n\t\t_impl = impl;\n\t}\n\n\tfunction setLifespan(uint256 _lifespan) private {\n\t\trequire(_lifespan >= 12 hours, \"#VotePool#setLifespan proposal lifespan not less than 12 hours\");\n\t\tlifespan = _lifespan;\n\t}\n\n\t/**\n\t * @dev Returns the description of vote pools\n\t */\n\tfunction description() view external returns (string memory) {\n\t\treturn _description;\n\t}\n\n\t/**\n\t * @dev Gettings proposal object from id\n\t */\n\tfunction getProposal(uint256 id) view public returns (Proposal memory) {\n\t\treturn _proposal(id);\n\t}\n\n\tfunction _proposal(uint256 id) view private returns (Proposal storage) {\n\t\trequire(exists(id), \"#VotePool#proposal proposal not exists\");\n\t\treturn _proposalMap[id];\n\t}\n\n\t/**\n\t * @dev Return whether the proposal object exists\n\t */\n\tfunction exists(uint256 id) view public returns (bool) {\n\t\treturn _proposalMap[id].id != 0;\n\t}\n\n\t/**\n\t * @dev Create proposal object from proposal arg\n\t */\n\tfunction create(Proposal memory arg0) public {\n\t\t// check permission\n\t\tif (msg.sender != address(_host.member())) {\n\t\t\tcheckFrom(arg0.originId, Action_VotePool_Create);\n\t\t}\n\n\t\trequire(!exists(arg0.id), \"#VotePool#create proposal already exists\");\n\t\trequire(arg0.passRate > 5_000, \"#VotePool#create proposal vote pass rate not less than 50%\");\n\n\t\tif (arg0.lifespan != 0) {\n\t\t\trequire(arg0.lifespan >= lifespan, \"#VotePool#create proposal lifespan not less than current setting lifespan days\");\n\t\t}\n\t\tif (arg0.loopCount != 0) {\n\t\t\trequire(arg0.loopTime >= 1 minutes, \"#VotePool#create Loop time must be greater than 1 minute\");\n\t\t}\n\t\tProposal storage obj = _proposalMap[arg0.id];\n\n\t\tobj.id          = arg0.id;\n\t\tobj.name        = arg0.name;\n\t\tobj.description = arg0.description;\n\t\tobj.target      = arg0.target;\n\t\tobj.origin      = msg.sender;\n\t\tobj.originId    = arg0.originId;\n\t\tobj.data        = arg0.data;\n\t\tobj.lifespan    = arg0.lifespan;\n\t\tobj.expiry      = arg0.lifespan == 0 ? 0: block.timestamp + arg0.lifespan;\n\t\tobj.passRate    = arg0.passRate > 10_000 ? 10_000: arg0.passRate;\n\t\tobj.loopCount   = arg0.loopCount;\n\t\tobj.loopTime    = arg0.loopTime;\n\t\tobj.voteTotal   = 0;\n\t\tobj.agreeTotal  = 0;\n\t\tobj.executeTime = 0;\n\t\tobj.idx         = _proposalList.length;\n\t\tobj.isAgree     = false;\n\t\tobj.isClose     = false;\n\t\tobj.isExecuted  = false;\n\n\t\t_proposalList.push(arg0.id);\n\n\t\temit Created(arg0.id);\n\t}\n\n\t/**\n\t * @dev Create proposal object\n\t */\n\tfunction create2(\n\t\tuint256       id,          address[] memory target,\n\t\tuint256       lifespan,    uint256 passRate,\n\t\tint256        loopCount,   uint256 loopTime,\n\t\tstring memory name,        string memory description,\n\t\tuint256       originId,    bytes[] memory  data\n\t) external {\n\t\tProposal memory pro;\n\t\tpro.id          = id;\n\t\tpro.originId    = originId; // member id\n\t\tpro.target      = target;\n\t\tpro.lifespan    = lifespan;\n\t\tpro.passRate    = passRate;\n\t\tpro.loopCount   = loopCount;\n\t\tpro.loopTime    = loopTime;\n\t\tpro.name        = name;\n\t\tpro.description = description;\n\t\tpro.data        = data;\n\t\tcreate(pro);\n\t}\n\n\tfunction abs(int256 value) pure internal returns (uint256) {\n\t\treturn value < 0 ? uint256(-value): uint256(value);\n\t}\n\n\t/**\n\t * @dev Vote on the proposal\n\t */\n\tfunction vote(uint256 id, uint256 member, int256 votes, bool tryExecute) external Check(Action_VotePool_Vote) {\n\t\tProposal storage obj = _proposal(id);\n\t\tIMember.Info memory info = _host.member().getMemberInfo(member);\n\n\t\trequire(votes != 0, \"#VotePool#vote parameter error, votes==0\");\n\t\trequire(!obj.isClose, \"#VotePool#vote Voting has been closed\");\n\t\trequire(_host.member().ownerOf(member) == msg.sender, \"#VotePool#vote No call permission\");\n\t\trequire(_votes[id][member] == 0, \"#VotePool#vote Cannot vote repeatedly\");\n\t\trequire(abs(votes) <= info.votes, \"#VotePool#vote Voting limit\");\n\n\t\t_votes[id][member] = votes;\n\n\t\tobj.voteTotal += abs(votes);\n\n\t\tif (votes > 0) {\n\t\t\tobj.agreeTotal += uint256(votes);\n\t\t}\n\n\t\temit Vote(id, member, votes);\n\n\t\ttryClose(id, tryExecute); // try close\n\t}\n\n\t/**\n\t* @dev try close proposal\n\t*/\n\tfunction tryClose(uint256 id, bool tryExecute) public override {\n\t\tProposal storage obj = _proposal(id);\n\t\trequire(!obj.isClose, \"#VotePool#tryClose Voting has been closed\");\n\n\t\tuint256 votes  = _host.member().votes();\n\t\tuint256 passRate = obj.passRate;\n\n\t\tif ((obj.expiry != 0 && obj.expiry <= block.timestamp)) { // block time expiry\n\t\t\t// Include only participating members\n\t\t\tobj.isClose = true;\n\t\t\tobj.isAgree = (obj.agreeTotal * 10_000 / obj.voteTotal) > passRate;\n\t\t} else {\n\t\t\tif ((obj.agreeTotal * 10_000 / votes) > passRate) { // test passRate\n\t\t\t\tobj.isClose = true;\n\t\t\t\tobj.isAgree = true; // complete\n\t\t\t} else if (((obj.voteTotal - obj.agreeTotal) * 10_000 / votes) > 10_000 - passRate) { // test rejectRate\n\t\t\t\tobj.isClose = true;\n\t\t\t\tobj.isAgree = false; // complete\n\t\t\t}\n\t\t}\n\n\t\tif (obj.isClose) {\n\t\t\temit Close(id);\n\t\t\tif (tryExecute && obj.isAgree) {\n\t\t\t\texecute(id);\n\t\t\t}\n\t\t}\n\t}\n\n\t/**\n\t * @dev Execute proposal resolution\n\t */\n\tfunction execute(uint256 id) public {\n\t\tProposal storage obj = _proposal(id);\n\n\t\trequire(obj.isAgree, \"#VotePool#execute Proposal was not passed\");\n\t\trequire(!obj.isExecuted, \"#VotePool#execute Resolution has been implemented\");\n\n\t\tif (obj.loopCount != 0) {\n\t\t\trequire(obj.executeTime + obj.loopTime < block.timestamp, \"#VotePool#execute Execution interval is too short\");\n\t\t\tif (obj.loopCount > 0) {\n\t\t\t\texec(obj);\n\t\t\t\tobj.loopCount--;\n\t\t\t} else { // permanent loop\n\t\t\t\texec(obj);\n\t\t\t}\n\t\t} else { // execute once\n\t\t\texec(obj);\n\t\t\tobj.isExecuted = true;\n\t\t}\n\n\t\tobj.executeTime = block.timestamp;\n\n\t\temit Execute(id);\n\t}\n\n\t/**\n\t * @dev Execute proposal resolution, internal methods\n\t */\n\tfunction exec(Proposal storage obj) internal {\n\t\tfor (uint256 i = 0; i < obj.target.length; i++) {\n\t\t\t(bool suc, bytes memory _data) = obj.target[i].call{ value: msg.value }(obj.data[i]);\n\t\t\tassembly {\n\t\t\t\tlet len := mload(_data)\n\t\t\t\tlet data := add(_data, 0x20)\n\t\t\t\tswitch suc\n\t\t\t\tcase 0 { revert(data, len) }\n\t\t\t\tdefault {\n\t\t\t\t\t// return(data, len)\n\t\t\t\t}\n\t\t\t}\n\t\t}\n\t}\n\n\t/**\n\t * @dev Returns the total of Proposal object\n\t */\n\tfunction total() view public returns (uint256) {\n\t\treturn _proposalList.length;\n\t}\n\n\t/**\n\t * @dev Returns the Proposal object from index\n\t */\n\tfunction indexAt(uint256 index) view public returns (Proposal memory pro) {\n\t\trequire(index < _proposalList.length, \"#VotePool#at Index out of bounds\");\n\t\tpro = _proposalMap[_proposalList[index]];\n\t}\n\n}",
  "sourcePath": "/Users/louis/Project/hc/NFTSwap/SmartHolder/contracts/VotePool.sol",
  "compiler": {
    "name": "solc",
    "version": "0.8.17+commit.8df45f5f.Emscripten.clang"
  },
  "schemaVersion": "3.4.11",
  "updatedAt": "2023-03-03T03:01:27.871Z",
  "devdoc": {
    "kind": "dev",
    "methods": {
      "create((uint256,string,string,address,uint256,address[],uint256,uint256,uint256,int256,uint256,uint256,uint256,uint256,uint256,bool,bool,bool,bytes[]))": {
        "details": "Create proposal object from proposal arg"
      },
      "create2(uint256,address[],uint256,uint256,int256,uint256,string,string,uint256,bytes[])": {
        "details": "Create proposal object"
      },
      "description()": {
        "details": "Returns the description of vote pools"
      },
      "execute(uint256)": {
        "details": "Execute proposal resolution"
      },
      "exists(uint256)": {
        "details": "Return whether the proposal object exists"
      },
      "getProposal(uint256)": {
        "details": "Gettings proposal object from id"
      },
      "indexAt(uint256)": {
        "details": "Returns the Proposal object from index"
      },
      "initVotePool(address,string,uint256)": {
        "details": "Init vote pool"
      },
      "supportsInterface(bytes4)": {
        "details": "See {IERC165-supportsInterface}. Time complexity O(1), guaranteed to always use less than 30 000 gas."
      },
      "total()": {
        "details": "Returns the total of Proposal object"
      },
      "tryClose(uint256,bool)": {
        "details": "try close proposal"
      },
      "upgrade(address)": {
        "details": "Upgrade vote pool"
      },
      "vote(uint256,uint256,int256,bool)": {
        "details": "Vote on the proposal"
      }
    },
    "version": 1
  },
  "userdoc": {
    "kind": "user",
    "methods": {},
    "version": 1
  }
}