{
  "contractName": "VotePool",
  "abi": [
    {
      "anonymous": false,
      "inputs": [
        {
          "indexed": false,
          "internalType": "uint256",
          "name": "id",
          "type": "uint256"
        }
      ],
      "name": "Close",
      "type": "event"
    },
    {
      "anonymous": false,
      "inputs": [
        {
          "indexed": false,
          "internalType": "uint256",
          "name": "id",
          "type": "uint256"
        }
      ],
      "name": "Created",
      "type": "event"
    },
    {
      "anonymous": false,
      "inputs": [
        {
          "indexed": true,
          "internalType": "uint256",
          "name": "id",
          "type": "uint256"
        }
      ],
      "name": "Execute",
      "type": "event"
    },
    {
      "anonymous": false,
      "inputs": [
        {
          "indexed": true,
          "internalType": "uint256",
          "name": "id",
          "type": "uint256"
        },
        {
          "indexed": false,
          "internalType": "uint256",
          "name": "member",
          "type": "uint256"
        },
        {
          "indexed": false,
          "internalType": "int256",
          "name": "votes",
          "type": "int256"
        }
      ],
      "name": "Vote",
      "type": "event"
    },
    {
      "inputs": [
        {
          "internalType": "bytes4",
          "name": "interfaceId",
          "type": "bytes4"
        },
        {
          "internalType": "string",
          "name": "message",
          "type": "string"
        }
      ],
      "name": "checkInterface",
      "outputs": [],
      "stateMutability": "view",
      "type": "function"
    },
    {
      "inputs": [],
      "name": "lifespan",
      "outputs": [
        {
          "internalType": "uint256",
          "name": "",
          "type": "uint256"
        }
      ],
      "stateMutability": "view",
      "type": "function"
    },
    {
      "inputs": [
        {
          "internalType": "bytes4",
          "name": "interfaceId",
          "type": "bytes4"
        }
      ],
      "name": "supportsInterface",
      "outputs": [
        {
          "internalType": "bool",
          "name": "",
          "type": "bool"
        }
      ],
      "stateMutability": "view",
      "type": "function"
    },
    {
      "inputs": [
        {
          "internalType": "address",
          "name": "host",
          "type": "address"
        },
        {
          "internalType": "string",
          "name": "description",
          "type": "string"
        },
        {
          "internalType": "uint256",
          "name": "_lifespan",
          "type": "uint256"
        }
      ],
      "name": "initVotePool",
      "outputs": [],
      "stateMutability": "nonpayable",
      "type": "function"
    },
    {
      "inputs": [],
      "name": "host",
      "outputs": [
        {
          "internalType": "contract IDAO",
          "name": "",
          "type": "address"
        }
      ],
      "stateMutability": "view",
      "type": "function"
    },
    {
      "inputs": [],
      "name": "description",
      "outputs": [
        {
          "internalType": "string",
          "name": "",
          "type": "string"
        }
      ],
      "stateMutability": "view",
      "type": "function"
    },
    {
      "inputs": [],
      "name": "current",
      "outputs": [
        {
          "internalType": "uint256",
          "name": "",
          "type": "uint256"
        }
      ],
      "stateMutability": "view",
      "type": "function"
    },
    {
      "inputs": [
        {
          "internalType": "uint256",
          "name": "id",
          "type": "uint256"
        }
      ],
      "name": "getProposal",
      "outputs": [
        {
          "components": [
            {
              "internalType": "uint256",
              "name": "id",
              "type": "uint256"
            },
            {
              "internalType": "string",
              "name": "name",
              "type": "string"
            },
            {
              "internalType": "string",
              "name": "description",
              "type": "string"
            },
            {
              "internalType": "address",
              "name": "origin",
              "type": "address"
            },
            {
              "internalType": "address",
              "name": "target",
              "type": "address"
            },
            {
              "internalType": "uint256",
              "name": "lifespan",
              "type": "uint256"
            },
            {
              "internalType": "uint256",
              "name": "expiry",
              "type": "uint256"
            },
            {
              "internalType": "uint256",
              "name": "passRate",
              "type": "uint256"
            },
            {
              "internalType": "int256",
              "name": "loopCount",
              "type": "int256"
            },
            {
              "internalType": "uint256",
              "name": "loopTime",
              "type": "uint256"
            },
            {
              "internalType": "uint256",
              "name": "voteTotal",
              "type": "uint256"
            },
            {
              "internalType": "uint256",
              "name": "agreeTotal",
              "type": "uint256"
            },
            {
              "internalType": "uint256",
              "name": "executeTime",
              "type": "uint256"
            },
            {
              "internalType": "uint256",
              "name": "idx",
              "type": "uint256"
            },
            {
              "internalType": "bool",
              "name": "isAgree",
              "type": "bool"
            },
            {
              "internalType": "bool",
              "name": "isClose",
              "type": "bool"
            },
            {
              "internalType": "bool",
              "name": "isExecuted",
              "type": "bool"
            },
            {
              "internalType": "bytes",
              "name": "data",
              "type": "bytes"
            }
          ],
          "internalType": "struct IVotePool.Proposal",
          "name": "",
          "type": "tuple"
        }
      ],
      "stateMutability": "view",
      "type": "function"
    },
    {
      "inputs": [
        {
          "internalType": "uint256",
          "name": "id",
          "type": "uint256"
        }
      ],
      "name": "exists",
      "outputs": [
        {
          "internalType": "bool",
          "name": "",
          "type": "bool"
        }
      ],
      "stateMutability": "view",
      "type": "function"
    },
    {
      "inputs": [
        {
          "components": [
            {
              "internalType": "uint256",
              "name": "id",
              "type": "uint256"
            },
            {
              "internalType": "string",
              "name": "name",
              "type": "string"
            },
            {
              "internalType": "string",
              "name": "description",
              "type": "string"
            },
            {
              "internalType": "address",
              "name": "origin",
              "type": "address"
            },
            {
              "internalType": "address",
              "name": "target",
              "type": "address"
            },
            {
              "internalType": "uint256",
              "name": "lifespan",
              "type": "uint256"
            },
            {
              "internalType": "uint256",
              "name": "expiry",
              "type": "uint256"
            },
            {
              "internalType": "uint256",
              "name": "passRate",
              "type": "uint256"
            },
            {
              "internalType": "int256",
              "name": "loopCount",
              "type": "int256"
            },
            {
              "internalType": "uint256",
              "name": "loopTime",
              "type": "uint256"
            },
            {
              "internalType": "uint256",
              "name": "voteTotal",
              "type": "uint256"
            },
            {
              "internalType": "uint256",
              "name": "agreeTotal",
              "type": "uint256"
            },
            {
              "internalType": "uint256",
              "name": "executeTime",
              "type": "uint256"
            },
            {
              "internalType": "uint256",
              "name": "idx",
              "type": "uint256"
            },
            {
              "internalType": "bool",
              "name": "isAgree",
              "type": "bool"
            },
            {
              "internalType": "bool",
              "name": "isClose",
              "type": "bool"
            },
            {
              "internalType": "bool",
              "name": "isExecuted",
              "type": "bool"
            },
            {
              "internalType": "bytes",
              "name": "data",
              "type": "bytes"
            }
          ],
          "internalType": "struct IVotePool.Proposal",
          "name": "proposal",
          "type": "tuple"
        }
      ],
      "name": "create",
      "outputs": [],
      "stateMutability": "nonpayable",
      "type": "function"
    },
    {
      "inputs": [
        {
          "internalType": "uint256",
          "name": "id",
          "type": "uint256"
        },
        {
          "internalType": "address",
          "name": "target",
          "type": "address"
        },
        {
          "internalType": "uint256",
          "name": "lifespan",
          "type": "uint256"
        },
        {
          "internalType": "uint256",
          "name": "passRate",
          "type": "uint256"
        },
        {
          "internalType": "int256",
          "name": "loopCount",
          "type": "int256"
        },
        {
          "internalType": "uint256",
          "name": "loopTime",
          "type": "uint256"
        },
        {
          "internalType": "string",
          "name": "name",
          "type": "string"
        },
        {
          "internalType": "string",
          "name": "description",
          "type": "string"
        },
        {
          "internalType": "bytes",
          "name": "data",
          "type": "bytes"
        }
      ],
      "name": "create2",
      "outputs": [],
      "stateMutability": "nonpayable",
      "type": "function"
    },
    {
      "inputs": [
        {
          "internalType": "uint256",
          "name": "id",
          "type": "uint256"
        },
        {
          "internalType": "uint256",
          "name": "member",
          "type": "uint256"
        },
        {
          "internalType": "int256",
          "name": "votes",
          "type": "int256"
        }
      ],
      "name": "vote",
      "outputs": [],
      "stateMutability": "nonpayable",
      "type": "function"
    },
    {
      "inputs": [
        {
          "internalType": "uint256",
          "name": "id",
          "type": "uint256"
        }
      ],
      "name": "tryClose",
      "outputs": [],
      "stateMutability": "nonpayable",
      "type": "function"
    },
    {
      "inputs": [
        {
          "internalType": "uint256",
          "name": "id",
          "type": "uint256"
        }
      ],
      "name": "execute",
      "outputs": [],
      "stateMutability": "nonpayable",
      "type": "function"
    },
    {
      "inputs": [],
      "name": "total",
      "outputs": [
        {
          "internalType": "uint256",
          "name": "",
          "type": "uint256"
        }
      ],
      "stateMutability": "view",
      "type": "function"
    }
  ],
  "bytecode": "0x608060405234801561001057600080fd5b506123e9806100206000396000f3fe608060405234801561001057600080fd5b50600436106100f55760003560e01c80637284e41611610097578063c64df69d11610066578063c64df69d146101d1578063c7f758a8146101e4578063f437bc5914610204578063fe0d94c114610219576100f5565b80637284e4161461018e5780639a82ef85146101a35780639fa6a6e3146101b6578063b3f46e85146101be576100f5565b806320b7c317116100d357806320b7c3171461014d5780632ddbd13a146101605780634f558e79146101685780636c4a60941461017b576100f5565b806301ffc9a7146100fa57806302d3abb5146101235780631c9e551c14610138575b600080fd5b61010d610108366004611707565b61022c565b60405161011a9190611bd8565b60405180910390f35b61012b61024b565b60405161011a91906122fa565b61014b6101463660046119ee565b610251565b005b61014b61015b366004611ae5565b6104bf565b61012b610836565b61010d6101763660046119ee565b61083c565b61014b6101893660046116b0565b610850565b610196610908565b60405161011a9190611c5a565b61014b6101b1366004611a1e565b61099e565b61012b610a01565b61014b6101cc36600461186e565b610a07565b61014b6101df366004611723565b610d68565b6101f76101f23660046119ee565b610d90565b60405161011a91906121b5565b61020c611071565b60405161011a9190611c46565b61014b6102273660046119ee565b611080565b6001600160e01b03191660009081526001602052604090205460ff1690565b60085481565b600061025c82611197565b600e810154909150610100900460ff16156102925760405162461bcd60e51b815260040161028990611dfb565b60405180910390fd5b600254604080516338fdad5160e21b815290516000926001600160a01b03169163e3f6b544916004808301926020929190829003018186803b1580156102d757600080fd5b505afa1580156102eb573d6000803e3d6000fd5b505050506040513d601f19601f8201168201806040525081019061030f919061168d565b6001600160a01b031663e168c3ec6040518163ffffffff1660e01b815260040160206040518083038186803b15801561034757600080fd5b505afa15801561035b573d6000803e3d6000fd5b505050506040513d601f19601f8201168201806040525081019061037f9190611a06565b60078301546006840154919250901580159061039f575042836006015411155b156103e757600e8301805461ff001916610100179055600a830154600b84015482919061271002816103cd57fe5b600e8601805460ff1916929091049290921117905561045a565b808284600b015461271002816103f957fe5b04111561041f57600e8301805460ff1961ff00199091166101001716600117905561045a565b80612710038284600b015485600a015403612710028161043b57fe5b04111561045a57600e8301805460ff1961ff0019909116610100171690555b600e830154610100900460ff16156104b9577fbf67515a38ee520223d32c1266d52101c30d936ed1f3e436c8caeb0a43cb06bf8460405161049b91906122fa565b60405180910390a1600e83015460ff16156104b9576104b984611080565b50505050565b60006104ca84611197565b90506104d46113ae565b600260009054906101000a90046001600160a01b03166001600160a01b031663e3f6b5446040518163ffffffff1660e01b815260040160206040518083038186803b15801561052257600080fd5b505afa158015610536573d6000803e3d6000fd5b505050506040513d601f19601f8201168201806040525081019061055a919061168d565b6001600160a01b0316631a3cd59a856040518263ffffffff1660e01b815260040161058591906122fa565b60006040518083038186803b15801561059d57600080fd5b505afa1580156105b1573d6000803e3d6000fd5b505050506040513d6000823e601f3d908101601f191682016040526105d99190810190611771565b9050826105f85760405162461bcd60e51b815260040161028990611fc3565b600e820154610100900460ff16156106225760405162461bcd60e51b815260040161028990612113565b600254604080516338fdad5160e21b8152905133926001600160a01b03169163e3f6b544916004808301926020929190829003018186803b15801561066657600080fd5b505afa15801561067a573d6000803e3d6000fd5b505050506040513d601f19601f8201168201806040525081019061069e919061168d565b6001600160a01b0316636352211e866040518263ffffffff1660e01b81526004016106c991906122fa565b60206040518083038186803b1580156106e157600080fd5b505afa1580156106f5573d6000803e3d6000fd5b505050506040513d601f19601f82011682018060405250810190610719919061168d565b6001600160a01b03161461073f5760405162461bcd60e51b815260040161028990611cb5565b6000858152600760209081526040808320878452909152902054156107765760405162461bcd60e51b815260040161028990611e44565b8060a0015163ffffffff1661078a846111d0565b11156107a85760405162461bcd60e51b815260040161028990611cf6565b600085815260076020908152604080832087845290915290208390556107cd836111d0565b600a83018054909101905560008313156107ec57600b82018054840190555b847f1ad6cbfa9912ec69279a6634788918d5c8e0236b45609178636427bee8756ed7858560405161081e929190612303565b60405180910390a261082f85610251565b5050505050565b60065490565b600090815260056020526040902054151590565b6108586111ea565b610868630ddf27bf60e01b611294565b60405163c64df69d60e01b81526001600160a01b0384169063c64df69d9061089b906363daa99b60e11b90600401611be3565b60006040518083038186803b1580156108b357600080fd5b505afa1580156108c7573d6000803e3d6000fd5b5050600280546001600160a01b0319166001600160a01b038716179055505081516108f9906003906020850190611402565b50610903816112e6565b505050565b60038054604080516020601f60026000196101006001881615020190951694909404938401819004810282018101909252828152606093909290918301828280156109945780601f1061096957610100808354040283529160200191610994565b820191906000526020600020905b81548152906001019060200180831161097757829003601f168201915b5050505050905090565b6109a6611480565b8981526001600160a01b038916608082015260a0810188905260e0810187905261010081018690526101208101859052602081018490526040810183905261022081018290526109f581610a07565b50505050505050505050565b60045490565b8051610a129061083c565b15610a2f5760405162461bcd60e51b815260040161028990611c6d565b60a081015115610a5f576008548160a001511015610a5f5760405162461bcd60e51b815260040161028990612158565b6113888160e0015111610a845760405162461bcd60e51b81526004016102899061200b565b600260009054906101000a90046001600160a01b03166001600160a01b031663e3f6b5446040518163ffffffff1660e01b815260040160206040518083038186803b158015610ad257600080fd5b505afa158015610ae6573d6000803e3d6000fd5b505050506040513d601f19601f82011682018060405250810190610b0a919061168d565b6001600160a01b0316632f745c593360006040518363ffffffff1660e01b8152600401610b38929190611bbf565b60206040518083038186803b158015610b5057600080fd5b505afa158015610b64573d6000803e3d6000fd5b505050506040513d601f19601f82011682018060405250810190610b889190611a06565b610ba45760405162461bcd60e51b815260040161028990611f37565b61010081015115610bd557603c8161012001511015610bd55760405162461bcd60e51b8152600401610289906120b6565b80516000908152600560209081526040909120825181558183015180519192610c0692600185019290910190611402565b5060408201518051610c22916002840191602090910190611402565b5060808201516004820180546001600160a01b039092166001600160a01b0319928316179055600382018054909116331790556102208201518051610c7191600f840191602090910190611402565b5060a08201516005820181905515610c8f578160a001514201610c92565b60005b600682015560e082015161271010610cae578160e00151610cb2565b6127105b6007820155610100820151600882015561012082015160098201556000600a8201819055600b8201819055600c820181905560068054600d840155600e8301805462ffffff1916905583518154600181018355919092527ff652222313e28459528d920b65115c16c04f3efc82aaedc97be59f3f377c0d3f015581516040517f06acbfb32bcf8383f3b0a768b70ac9ec234ea0f2d3b9c77fa6a2de69b919aad191610d5c916122fa565b60405180910390a15050565b610d718261022c565b81906109035760405162461bcd60e51b81526004016102899190611c5a565b610d98611480565b610da18261083c565b610dbd5760405162461bcd60e51b815260040161028990611db5565b600560008381526020019081526020016000206040518061024001604052908160008201548152602001600182018054600181600116156101000203166002900480601f016020809104026020016040519081016040528092919081815260200182805460018160011615610100020316600290048015610e7f5780601f10610e5457610100808354040283529160200191610e7f565b820191906000526020600020905b815481529060010190602001808311610e6257829003601f168201915b5050509183525050600282810180546040805160206001841615610100026000190190931694909404601f81018390048302850183019091528084529381019390830182828015610f115780601f10610ee657610100808354040283529160200191610f11565b820191906000526020600020905b815481529060010190602001808311610ef457829003601f168201915b505050918352505060038201546001600160a01b0390811660208084019190915260048401549091166040808401919091526005840154606084015260068401546080840152600784015460a0840152600884015460c0840152600984015460e0840152600a84015461010080850191909152600b850154610120850152600c850154610140850152600d850154610160850152600e85015460ff8082161515610180870152828204811615156101a0870152620100009091041615156101c0850152600f850180548351600260018316159094026000190190911692909204601f81018590048502830185019093528282526101e09094019390929091908301828280156110615780601f1061103657610100808354040283529160200191611061565b820191906000526020600020905b81548152906001019060200180831161104457829003601f168201915b5050505050815250509050919050565b6002546001600160a01b031690565b600061108b82611197565b600e81015490915060ff166110b25760405162461bcd60e51b815260040161028990611f7a565b600e81015462010000900460ff16156110dd5760405162461bcd60e51b815260040161028990611d2d565b6008810154156111455742816009015482600c015401106111105760405162461bcd60e51b815260040161028990611ee6565b600081600801541315611137576111268161130e565b600881018054600019019055611140565b6111408161130e565b611162565b61114e8161130e565b600e8101805462ff00001916620100001790555b42600c82015560405182907fddb556f1d2c1ec821e910b019d3685b229db152a0ecd517ca7e24b8bd713928990600090a25050565b60006111a28261083c565b6111be5760405162461bcd60e51b815260040161028990611db5565b50600090815260056020526040902090565b60008082126111df57816111e4565b816000035b92915050565b600054600160a81b900460ff168061120557506112056113a8565b8061121a5750600054600160a01b900460ff16155b6112365760405162461bcd60e51b815260040161028990612068565b600054600160a81b900460ff1615801561126d576000805460ff60a01b1960ff60a81b19909116600160a81b1716600160a01b1790555b61127d6301ffc9a760e01b611294565b8015611291576000805460ff60a81b191690555b50565b6001600160e01b031980821614156112be5760405162461bcd60e51b815260040161028990611d7e565b6001600160e01b0319166000908152600160208190526040909120805460ff19169091179055565b62093a808110156113095760405162461bcd60e51b815260040161028990611e89565b600855565b805460049081558101546040516000916060916001600160a01b0390911690349061133d90600f870190611b4f565b60006040518083038185875af1925050503d806000811461137a576040519150601f19603f3d011682016040523d82523d6000602084013e61137f565b606091505b506000600455805191935091506020820183801561139c576113a0565b8282fd5b505050505050565b303b1590565b604051806101000160405280600081526020016060815260200160608152602001606081526020016000808111156113e257fe5b815260006020820181905260408201526060016113fd611523565b905290565b828054600181600116156101000203166002900490600052602060002090601f016020900481019282601f1061144357805160ff1916838001178555611470565b82800160010185558215611470579182015b82811115611470578251825591602001919060010190611455565b5061147c929150611541565b5090565b60405180610240016040528060008152602001606081526020016060815260200160006001600160a01b0316815260200160006001600160a01b03168152602001600081526020016000815260200160008152602001600081526020016000815260200160008152602001600081526020016000815260200160008152602001600015158152602001600015158152602001600015158152602001606081525090565b60405180604001604052806002906020820280368337509192915050565b5b8082111561147c5760008155600101611542565b80356111e481612388565b600082601f830112611571578081fd5b61157b6040612311565b905080828460408501111561158f57600080fd5b60005b60028110156115b1578151835260209283019290910190600101611592565b50505092915050565b803580151581146111e457600080fd5b600082601f8301126115da578081fd5b81356115ed6115e882612338565b612311565b915080825283602082850101111561160457600080fd5b8060208401602084013760009082016020015292915050565b8051600181106111e457600080fd5b600082601f83011261163c578081fd5b815161164a6115e882612338565b915080825283602082850101111561166157600080fd5b61167281602084016020860161235c565b5092915050565b805163ffffffff811681146111e457600080fd5b60006020828403121561169e578081fd5b81516116a981612388565b9392505050565b6000806000606084860312156116c4578182fd5b83356116cf81612388565b9250602084013567ffffffffffffffff8111156116ea578283fd5b6116f6868287016115ca565b925050604084013590509250925092565b600060208284031215611718578081fd5b81356116a98161239d565b60008060408385031215611735578182fd5b82356117408161239d565b9150602083013567ffffffffffffffff81111561175b578182fd5b611767858286016115ca565b9150509250929050565b600060208284031215611782578081fd5b815167ffffffffffffffff80821115611799578283fd5b9083019061012082860312156117ad578283fd5b6117b8610100612311565b825181526020830151828111156117cd578485fd5b6117d98782860161162c565b6020830152506040830151828111156117f0578485fd5b6117fc8782860161162c565b604083015250606083015182811115611813578485fd5b61181f8782860161162c565b606083015250611832866080850161161d565b60808201526118448660a08501611679565b60a082015260c083015160c08201526118608660e08501611561565b60e082015295945050505050565b60006020828403121561187f578081fd5b813567ffffffffffffffff80821115611896578283fd5b81840191506102408083870312156118ac578384fd5b6118b581612311565b9050823581526020830135828111156118cc578485fd5b6118d8878286016115ca565b6020830152506040830135828111156118ef578485fd5b6118fb878286016115ca565b60408301525061190e8660608501611556565b60608201526119208660808501611556565b608082015260a0838101359082015260c0808401359082015260e08084013590820152610100808401359082015261012080840135908201526101408084013590820152610160808401359082015261018080840135908201526101a080840135908201526101c0611994878286016115ba565b908201526101e06119a7878583016115ba565b908201526102006119ba878583016115ba565b9082015261022083810135838111156119d1578586fd5b6119dd888287016115ca565b918301919091525095945050505050565b6000602082840312156119ff578081fd5b5035919050565b600060208284031215611a17578081fd5b5051919050565b60008060008060008060008060006101208a8c031215611a3c578687fd5b89359850611a4d8b60208c01611556565b975060408a0135965060608a0135955060808a0135945060a08a0135935060c08a013567ffffffffffffffff80821115611a85578485fd5b611a918d838e016115ca565b945060e08c0135915080821115611aa6578384fd5b611ab28d838e016115ca565b93506101008c0135915080821115611ac8578283fd5b50611ad58c828d016115ca565b9150509295985092959850929598565b600080600060608486031215611af9578081fd5b505081359360208301359350604090920135919050565b6001600160a01b03169052565b15159052565b60008151808452611b3b81602086016020860161235c565b601f01601f19169290920160200192915050565b6000808354600180821660008114611b6e5760018114611b8557611bb4565b60ff198316865260028304607f1686019350611bb4565b600283048786526020808720875b83811015611bac5781548a820152908501908201611b93565b505050860193505b509195945050505050565b6001600160a01b03929092168252602082015260400190565b901515815260200190565b6001600160e01b03199190911681526040602082018190526030908201527f234465706172746d656e7423696e6974566f7465506f6f6c2064616f20686f7360608201526f0e840e8f2e0ca40dcdee840dac2e8c6d60831b608082015260a00190565b6001600160a01b0391909116815260200190565b6000602082526116a96020830184611b23565b60208082526028908201527f23566f7465506f6f6c236372656174652070726f706f73616c20616c72656164604082015267792065786973747360c01b606082015260800190565b60208082526021908201527f23566f7465506f6f6c23766f7465204e6f2063616c6c207065726d697373696f6040820152603760f91b606082015260800190565b6020808252601b908201527f23566f7465506f6f6c23766f746520566f74696e67206c696d69740000000000604082015260600190565b60208082526031908201527f23566f7465506f6f6c2365786563757465205265736f6c7574696f6e20686173604082015270081899595b881a5b5c1b195b595b9d1959607a1b606082015260800190565b6020808252601c908201527f4552433136353a20696e76616c696420696e7465726661636520696400000000604082015260600190565b60208082526026908201527f23566f7465506f6f6c2370726f706f73616c2070726f706f73616c206e6f742060408201526565786973747360d01b606082015260800190565b60208082526029908201527f23566f7465506f6f6c23747279436c6f736520566f74696e6720686173206265604082015268195b8818db1bdcd95960ba1b606082015260800190565b60208082526025908201527f23566f7465506f6f6c23766f74652043616e6e6f7420766f74652072657065616040820152647465646c7960d81b606082015260800190565b6020808252603c908201527f23566f7465506f6f6c237365744c6966657370616e2070726f706f73616c206c60408201527f6966657370616e206e6f74206c657373207468616e2037206461797300000000606082015260800190565b60208082526031908201527f23566f7465506f6f6c236578656375746520457865637574696f6e20696e74656040820152701c9d985b081a5cc81d1bdbc81cda1bdc9d607a1b606082015260800190565b60208082526023908201527f23566f7465506f6f6c23637265617465204e6f2063616c6c207065726d69737360408201526234b7b760e91b606082015260800190565b60208082526029908201527f23566f7465506f6f6c23657865637574652050726f706f73616c20776173206e6040820152681bdd081c185cdcd95960ba1b606082015260800190565b60208082526028908201527f23566f7465506f6f6c23766f746520706172616d65746572206572726f722c206040820152670766f7465733d3d360c41b606082015260800190565b6020808252603a908201527f23566f7465506f6f6c236372656174652070726f706f73616c20766f7465207060408201527f6173732072617465206e6f74206c657373207468616e20353025000000000000606082015260800190565b6020808252602e908201527f436f6e747261637420696e7374616e63652068617320616c726561647920626560408201526d195b881a5b9a5d1a585b1a5e995960921b606082015260800190565b60208082526038908201527f23566f7465506f6f6c23637265617465204c6f6f702074696d65206d7573742060408201527f62652067726561746572207468616e2031206d696e7574650000000000000000606082015260800190565b60208082526025908201527f23566f7465506f6f6c23766f746520566f74696e6720686173206265656e20636040820152641b1bdcd95960da1b606082015260800190565b60208082526037908201527f23566f7465506f6f6c236372656174652070726f706f73616c206c696665737060408201527f616e206e6f74206c657373207468616e20372064617973000000000000000000606082015260800190565b6000602082528251602083015260208301516102408060408501526121de610260850183611b23565b91506040850151601f19808685030160608701526121fc8483611b23565b9350606087015191506122126080870183611b10565b6080870151915061222660a0870183611b10565b60a087015160c08781019190915287015160e08088019190915287015161010080880191909152870151610120808801919091528701516101408088019190915287015161016080880191909152870151610180808801919091528701516101a0808801919091528701516101c08088019190915287015191506101e06122af81880184611b1d565b87015191506102006122c387820184611b1d565b87015191506102206122d787820184611b1d565b8701518685039091018387015290506122f08382611b23565b9695505050505050565b90815260200190565b918252602082015260400190565b60405181810167ffffffffffffffff8111828210171561233057600080fd5b604052919050565b600067ffffffffffffffff82111561234e578081fd5b50601f01601f191660200190565b60005b8381101561237757818101518382015260200161235f565b838111156104b95750506000910152565b6001600160a01b038116811461129157600080fd5b6001600160e01b03198116811461129157600080fdfea264697066735822122099e18701b4747b335dbc432a1f7e04cc37dda7d4a28087ab60d08c5699bbec3764736f6c634300060c0033",
  "immutableReferences": {},
  "source": "\npragma solidity >=0.6.0 <=0.8.15;\n\npragma experimental ABIEncoderV2;\n\nimport \"./Interface.sol\";\nimport \"./ERC165.sol\";\nimport \"./Upgrade.sol\";\nimport \"../openzeppelin/contracts-ethereum-package/contracts/math/SafeMath.sol\";\nimport \"../openzeppelin/contracts-ethereum-package/contracts/utils/Address.sol\";\n\ncontract VotePool is Upgrade, IVotePool, ERC165 {\n\tusing Address for address;\n\tusing SafeMath for uint256;\n\n\tbytes4 internal constant DAO_ID = 0xc7b55336;\n\tbytes4 internal constant VotePool_ID = 0x0ddf27bf;\n\n\t// define props\n\tIDAO private _host;\n\tstring private _description;\n\tuint256 private _current; // \n\t// proposal id => Proposal\n\tmapping(uint256 => Proposal) private _proposalMap; // \n\tuint256[] private _proposalList; // \n\t// proposal id => map( member id => votes )\n\tmapping(uint256 => mapping(uint256 => int256)) private _votes; // \n\n\t// @public\n\tuint256 public lifespan; // \n\n\tfunction initVotePool(address host, string memory description, uint256 _lifespan) external {\n\t\tinitERC165();\n\t\t_registerInterface(VotePool_ID);\n\n\t\tIDAO(host).checkInterface(DAO_ID, \"#Department#initVotePool dao host type not match\");\n\t\t_host = IDAO(host);\n\t\t_description = description;\n\t\tsetLifespan(_lifespan);\n\t}\n\n\tfunction setLifespan(uint256 _lifespan) private {\n\t\trequire(_lifespan >= 7 days, \"#VotePool#setLifespan proposal lifespan not less than 7 days\");\n\t\tlifespan = _lifespan;\n\t}\n\n\tfunction host() view external returns (IDAO) {\n\t\treturn _host;\n\t}\n\n\tfunction description() view external returns (string memory) {\n\t\treturn _description;\n\t}\n\n\tfunction current() view public returns (uint256) {\n\t\treturn _current;\n\t}\n\n\tfunction getProposal(uint256 id) view public returns (Proposal memory) {\n\t\trequire(exists(id), \"#VotePool#proposal proposal not exists\");\n\t\treturn _proposalMap[id];\n\t}\n\n\tfunction proposal(uint256 id) private returns (Proposal storage) {\n\t\trequire(exists(id), \"#VotePool#proposal proposal not exists\");\n\t\treturn _proposalMap[id];\n\t}\n\n\tfunction exists(uint256 id) view public returns (bool) {\n\t\treturn _proposalMap[id].id != 0;\n\t}\n\n\tfunction create(Proposal memory proposal) public {\n\t\trequire(!exists(proposal.id), \"#VotePool#create proposal already exists\");\n\t\tif (proposal.lifespan != 0)\n\t\t\trequire(proposal.lifespan >= lifespan, \"#VotePool#create proposal lifespan not less than 7 days\");\n\t\trequire(proposal.passRate > 5_000, \"#VotePool#create proposal vote pass rate not less than 50%\");\n\t\trequire(_host.member().tokenOfOwnerByIndex(msg.sender, 0) != 0, \"#VotePool#create No call permission\");\n\n\t\tif (proposal.loopCount != 0) {\n\t\t\trequire(proposal.loopTime >= 1 minutes, \"#VotePool#create Loop time must be greater than 1 minute\");\n\t\t}\n\t\tProposal storage obj = _proposalMap[proposal.id];\n\n\t\tobj.id = proposal.id;\n\t\tobj.name = proposal.name;\n\t\tobj.description = proposal.description;\n\t\tobj.target = proposal.target;\n\t\tobj.origin = msg.sender;\n\t\tobj.data = proposal.data;\n\t\tobj.lifespan = proposal.lifespan;\n\t\tobj.expiry = proposal.lifespan == 0 ? 0: block.timestamp + proposal.lifespan;\n\t\tobj.passRate = proposal.passRate > 10_000 ? 10_000: proposal.passRate;\n\t\tobj.loopCount = proposal.loopCount;\n\t\tobj.loopTime = proposal.loopTime;\n\t\tobj.voteTotal = 0;\n\t\tobj.agreeTotal = 0;\n\t\tobj.executeTime = 0;\n\t\tobj.idx = _proposalList.length;\n\t\tobj.isAgree = false;\n\t\tobj.isClose = false;\n\t\tobj.isExecuted = false;\n\n\t\t_proposalList.push(proposal.id);\n\n\t\temit Created(proposal.id);\n\t}\n\n\tfunction create2(\n\t\tuint256 id,\n\t\taddress target,\n\t\tuint256 lifespan,\n\t\tuint256 passRate,\n\t\tint256 loopCount,\n\t\tuint256 loopTime,\n\t\tstring memory name,\n\t\tstring memory description,\n\t\tbytes memory data\n\t) external {\n\t\tProposal memory proposal;\n\t\tproposal.id = id;\n\t\tproposal.target = target;\n\t\tproposal.lifespan = lifespan;\n\t\tproposal.passRate = passRate;\n\t\tproposal.loopCount = loopCount;\n\t\tproposal.loopTime = loopTime;\n\t\tproposal.name = name;\n\t\tproposal.description = description;\n\t\tproposal.data = data;\n\t\tcreate(proposal);\n\t}\n\n\tfunction abs(int256 value) pure internal returns (uint256) {\n\t\treturn value < 0 ? uint256(-value): uint256(value);\n\t}\n\n\tfunction vote(uint256 id, uint256 member, int256 votes) external {\n\t\tProposal storage obj = proposal(id);\n\t\tIMember.Info memory info = _host.member().getInfo(member);\n\n\t\trequire(votes != 0, \"#VotePool#vote parameter error, votes==0\");\n\t\trequire(!obj.isClose, \"#VotePool#vote Voting has been closed\");\n\t\trequire(_host.member().ownerOf(member) == msg.sender, \"#VotePool#vote No call permission\");\n\t\trequire(_votes[id][member] == 0, \"#VotePool#vote Cannot vote repeatedly\");\n\t\trequire(abs(votes) <= info.votes, \"#VotePool#vote Voting limit\");\n\n\t\t_votes[id][member] = votes;\n\n\t\tobj.voteTotal += abs(votes);\n\n\t\tif (votes > 0) {\n\t\t\tobj.agreeTotal += uint256(votes);\n\t\t}\n\n\t\temit Vote(id, member, votes);\n\n\t\ttryClose(id); // try close\n\t}\n\n\t/**\n\t* @dev try close proposal\n\t*/\n\tfunction tryClose(uint256 id) public override {\n\t\tProposal storage obj = proposal(id);\n\t\trequire(!obj.isClose, \"#VotePool#tryClose Voting has been closed\");\n\n\t\tuint256 votes  = _host.member().votes();\n\t\tuint256 passRate = obj.passRate;\n\n\t\tif ((obj.expiry != 0 && obj.expiry <= block.timestamp)) { // block time expiry\n\t\t\t// Include only participating members\n\t\t\tobj.isClose = true;\n\t\t\tobj.isAgree = (obj.agreeTotal * 10_000 / obj.voteTotal) > passRate;\n\t\t} else {\n\t\t\tif ((obj.agreeTotal * 10_000 / votes) > passRate) { // test passRate\n\t\t\t\tobj.isClose = true;\n\t\t\t\tobj.isAgree = true; // complete\n\t\t\t} else if (((obj.voteTotal - obj.agreeTotal) * 10_000 / votes) > 10_000 - passRate) { // test rejectRate\n\t\t\t\tobj.isClose = true;\n\t\t\t\tobj.isAgree = false; // complete\n\t\t\t}\n\t\t}\n\n\t\tif (obj.isClose) {\n\t\t\temit Close(id);\n\t\t\tif (obj.isAgree) {\n\t\t\t\texecute(id);\n\t\t\t}\n\t\t}\n\t}\n\n\tfunction execute(uint256 id) public {\n\t\tProposal storage obj = proposal(id);\n\n\t\trequire(obj.isAgree, \"#VotePool#execute Proposal was not passed\");\n\t\trequire(!obj.isExecuted, \"#VotePool#execute Resolution has been implemented\");\n\n\t\tif (obj.loopCount != 0) {\n\t\t\trequire(obj.executeTime + obj.loopTime < block.timestamp, \"#VotePool#execute Execution interval is too short\");\n\t\t\tif (obj.loopCount > 0) {\n\t\t\t\texecCall(obj);\n\t\t\t\tobj.loopCount--;\n\t\t\t} else { // permanent loop\n\t\t\t\texecCall(obj);\n\t\t\t}\n\t\t} else { // execute once\n\t\t\texecCall(obj);\n\t\t\tobj.isExecuted = true;\n\t\t}\n\n\t\tobj.executeTime = block.timestamp;\n\n\t\temit Execute(id);\n\t}\n\n\tfunction execCall(Proposal storage obj) internal {\n\t\t_current = obj.id;\n\t\t(bool suc, bytes memory _data) = obj.target.call{ value: msg.value }(obj.data);\n\t\t_current = 0;\n\n\t\tassembly {\n\t\t\tlet len := mload(_data)\n\t\t\tlet data := add(_data, 0x20)\n\t\t\tswitch suc\n\t\t\tcase 0 { revert(data, len) }\n\t\t\tdefault { \n\t\t\t\t// return(data, len) \n\t\t\t}\n\t\t}\n\t}\n\n\tfunction total() view public returns (uint256) {\n\t\treturn _proposalList.length;\n\t}\n\n}",
  "sourcePath": "/Users/louis/Project/hc/NFTSwap/SmartHolder/contracts/VotePool.sol",
  "compiler": {
    "name": "solc",
    "version": "0.6.12+commit.27d51765.Emscripten.clang"
  },
  "schemaVersion": "3.4.8",
  "updatedAt": "2022-09-29T06:33:42.078Z",
  "devdoc": {
    "kind": "dev",
    "methods": {
      "supportsInterface(bytes4)": {
        "details": "See {IERC165-supportsInterface}. Time complexity O(1), guaranteed to always use less than 30 000 gas."
      },
      "tryClose(uint256)": {
        "details": "try close proposal"
      }
    },
    "version": 1
  },
  "userdoc": {
    "kind": "user",
    "methods": {},
    "version": 1
  }
}